{
	"data": {
		"bytecode": {
			"linkReferences": {},
			"object": "60806040526200001160003362000017565b620000b8565b6000828152602081815260408083206001600160a01b038516845290915290205460ff16620000b4576000828152602081815260408083206001600160a01b03851684529091529020805460ff19166001179055620000733390565b6001600160a01b0316816001600160a01b0316837f2f8788117e7eff1d82e926ec794901d17c78024a50270940304540a733656f0d60405160405180910390a45b5050565b612beb80620000c86000396000f3fe608060405234801561001057600080fd5b506004361061012c5760003560e01c806354eecb92116100ad578063a217fddf11610071578063a217fddf146102ac578063ce1dd554146102b4578063d547741f146102c7578063d86a8af3146102da578063ded92c3d146102ed57600080fd5b806354eecb921461024b57806376f1a3581461025e5780637e7e8aa21461027157806390bc18641461028657806391d148541461029957600080fd5b806320382f46116100f457806320382f46146101bf578063248a9ca3146101df5780632f2ff15d1461021057806336568abe146102255780633b2c0e5a1461023857600080fd5b806301ffc9a7146101315780631339f27b14610159578063134c03771461016c578063186fbad21461018c57806319d8bcf01461019f575b600080fd5b61014461013f366004612053565b610300565b60405190151581526020015b60405180910390f35b61014461016736600461207d565b610337565b61017f61017a3660046120b2565b610387565b60405161015091906122ae565b61014461019a36600461207d565b610762565b6101b26101ad36600461207d565b610835565b6040516101509190612310565b6101d26101cd3660046123b5565b610b20565b604051610150919061245d565b6102026101ed36600461207d565b60009081526020819052604090206001015490565b604051908152602001610150565b61022361021e3660046124a3565b610cdb565b005b6102236102333660046124a3565b610d3f565b6101446102463660046124cf565b610dc2565b610144610259366004612550565b610f7b565b61014461026c3660046125b1565b6110be565b610202600080516020612b9683398151915281565b610144610294366004612679565b6111e5565b6101446102a73660046124a3565b6113ad565b610202600081565b6101d26102c23660046123b5565b6113d6565b6102236102d53660046124a3565b611588565b6101446102e8366004612756565b6116ff565b6101446102fb366004612756565b611866565b60006001600160e01b03198216637965db0b60e01b148061033157506301ffc9a760e01b6001600160e01b03198316145b92915050565b6000600080516020612b9683398151915261035181611a51565b61035a83611a5e565b6000838152600260205260409020600701805460ff60a01b1916600360a01b179055600191505b50919050565b6060600080516020612b968339815191526103a181611a51565b6001600160a01b0383166000908152600360205260409020546001600160401b038111156103d1576103d1612323565b60405190808252806020026020018201604052801561040a57816020015b6103f7611ef2565b8152602001906001900390816103ef5790505b50915060005b825181101561075b576001600160a01b03841660009081526003602052604081208054600292919084908110610448576104486128b1565b60009182526020808320909101548352828101939093526040918201902081516102008101835281546001600160a01b039081168252600183015494820194909452600282015492810192909252600380820154606084015260048201546080840152600582015460a0840152600682015460c0840152600782015493841660e08401529192909161010084019160ff600160a01b90910416908111156104f1576104f16120cd565b6003811115610502576105026120cd565b8152602001600882018054610516906128c7565b80601f0160208091040260200160405190810160405280929190818152602001828054610542906128c7565b801561058f5780601f106105645761010080835404028352916020019161058f565b820191906000526020600020905b81548152906001019060200180831161057257829003601f168201915b5050505050815260200160098201548152602001600a8201548152602001600b8201548152602001600c8201548152602001600d820180546105d0906128c7565b80601f01602080910402602001604051908101604052809291908181526020018280546105fc906128c7565b80156106495780601f1061061e57610100808354040283529160200191610649565b820191906000526020600020905b81548152906001019060200180831161062c57829003601f168201915b50505050508152602001600e8201805480602002602001604051908101604052809291908181526020016000905b82821015610723578382906000526020600020018054610696906128c7565b80601f01602080910402602001604051908101604052809291908181526020018280546106c2906128c7565b801561070f5780601f106106e45761010080835404028352916020019161070f565b820191906000526020600020905b8154815290600101906020018083116106f257829003601f168201915b505050505081526020019060010190610677565b505050508152505083828151811061073d5761073d6128b1565b6020026020010181905250808061075390612911565b915050610410565b5050919050565b6000600080516020612b9683398151915261077c81611a51565b61078583611a5e565b6000838152600260208190526040822080546001600160a01b031916815560018101839055908101829055600381018290556004810182905560058101829055600681018290556007810180546001600160a81b0319169055906107ec6008830182611f73565b6009820160009055600a820160009055600b820160009055600c820160009055600d8201600061081c9190611f73565b61082a600e83016000611fad565b506001949350505050565b61083d611ef2565b61084682611a5e565b60008281526002602081815260409283902083516102008101855281546001600160a01b0390811682526001830154938201939093529281015493830193909352600380840154606084015260048401546080840152600584015460a0840152600684015460c0840152600784015491821660e0840152919291610100840191600160a01b900460ff16908111156108e0576108e06120cd565b60038111156108f1576108f16120cd565b8152602001600882018054610905906128c7565b80601f0160208091040260200160405190810160405280929190818152602001828054610931906128c7565b801561097e5780601f106109535761010080835404028352916020019161097e565b820191906000526020600020905b81548152906001019060200180831161096157829003601f168201915b5050505050815260200160098201548152602001600a8201548152602001600b8201548152602001600c8201548152602001600d820180546109bf906128c7565b80601f01602080910402602001604051908101604052809291908181526020018280546109eb906128c7565b8015610a385780601f10610a0d57610100808354040283529160200191610a38565b820191906000526020600020905b815481529060010190602001808311610a1b57829003601f168201915b50505050508152602001600e8201805480602002602001604051908101604052809291908181526020016000905b82821015610b12578382906000526020600020018054610a85906128c7565b80601f0160208091040260200160405190810160405280929190818152602001828054610ab1906128c7565b8015610afe5780601f10610ad357610100808354040283529160200191610afe565b820191906000526020600020905b815481529060010190602001808311610ae157829003601f168201915b505050505081526020019060010190610a66565b505050915250909392505050565b6060600080516020612b96833981519152610b3a81611a51565b600083516001600160401b03811115610b5557610b55612323565b604051908082528060200260200182016040528015610b7e578160200160208202803683370190505b50905060005b84518161ffff161015610cd257856001600160a01b031660026000878461ffff1681518110610bb557610bb56128b1565b6020908102919091018101518252810191909152604001600020546001600160a01b0316148015610c375750600160026000878461ffff1681518110610bfd57610bfd6128b1565b6020026020010151815260200190815260200160002060070160149054906101000a900460ff166003811115610c3557610c356120cd565b145b15610cc057600060026000878461ffff1681518110610c5857610c586128b1565b6020026020010151815260200190815260200160002060070160146101000a81548160ff02191690836003811115610c9257610c926120cd565b02179055506001828261ffff1681518110610caf57610caf6128b1565b911515602092830291909101909101525b80610cca8161292a565b915050610b84565b50949350505050565b600082815260208190526040902060010154610cf681611a51565b610d008383611ac2565b506000918252600160208181526040842080549283018155845290922090910180546001600160a01b0319166001600160a01b03909216919091179055565b6001600160a01b0381163314610db45760405162461bcd60e51b815260206004820152602f60248201527f416363657373436f6e74726f6c3a2063616e206f6e6c792072656e6f756e636560448201526e103937b632b9903337b91039b2b63360891b60648201526084015b60405180910390fd5b610dbe8282611b46565b5050565b6000600080516020612b96833981519152610ddc81611a51565b428411610e2b5760405162461bcd60e51b815260206004820152601b60248201527f506f6f6c436f64653a20496e76616c6964204c6f636b2054696d6500000000006044820152606401610dab565b6000858152600260205260409020600b0154421015610e835760405162461bcd60e51b8152602060048201526014602482015273506f6f6c436f64653a205374696c6c204c6f636b60601b6044820152606401610dab565b6064831115610ed45760405162461bcd60e51b815260206004820152601b60248201527f506f6f6c436f64653a20496e76616c6964204c6f636b205261746500000000006044820152606401610dab565b6000858152600260205260409020546001600160a01b03878116911614610f3d5760405162461bcd60e51b815260206004820152601860248201527f506f6f6c436f64653a204e6f7420436f6465204f776e657200000000000000006044820152606401610dab565b6000858152600260205260409020600b01849055610f5c83606461294b565b6000868152600260205260409020600a01556001915050949350505050565b6000600080516020612b96833981519152610f9581611a51565b6000868152600260205260409020546001600160a01b03888116911614610ffe5760405162461bcd60e51b815260206004820152601c60248201527f506f6f6c436f64653a20496e76616c69642057616c6c6574204b6579000000006044820152606401610dab565b6000868152600260205260409020600c01541561109d57848460405160200161102892919061295e565b60408051601f198184030181529181528151602092830120600089815260029093529120600c01541461109d5760405162461bcd60e51b815260206004820152601a60248201527f506f6f6c436f64653a20496e76616c6964206b657920686173680000000000006044820152606401610dab565b5050600093845260026020526040909320600c019290925550600192915050565b6000600080516020612b968339815191526110d881611a51565b6000858152600260205260409020546001600160a01b038781169116146111415760405162461bcd60e51b815260206004820152601c60248201527f506f6f6c436f64653a20496e76616c69642057616c6c6574204b6579000000006044820152606401610dab565b838360405160200161115492919061295e565b60408051601f198184030181529181528151602092830120600088815260029093529120600c0154146111c95760405162461bcd60e51b815260206004820152601a60248201527f506f6f6c436f64653a20496e76616c6964206b657920686173680000000000006044820152606401610dab565b505050600091825250600260205260408120600c015550600190565b6000600080516020612b968339815191526111ff81611a51565b600084604051602001611212919061296e565b60405160208183030381529060405280519060200120905061123381611a5e565b60008181526002602052604090206003015442111561129e5760405162461bcd60e51b815260206004820152602160248201527f506f6f6c436f64653a20457870697265642041637469766174696f6e2054696d6044820152606560f81b6064820152608401610dab565b6001600082815260026020526040902060070154600160a01b900460ff1660038111156112cd576112cd6120cd565b1461131a5760405162461bcd60e51b815260206004820152601c60248201527f506f6f6c436f64653a204e6f7420556e626c6f636b656420436f6465000000006044820152606401610dab565b60008181526002602052604090205461133c906001600160a01b031682611bab565b600081815260026020818152604080842060078101805460ff60a01b1916600160a11b179055429381019390935582546001600160a01b0319166001600160a01b03989098169788179092559582526003865281208054600181810183559183529590912090940155509092915050565b6000918252602082815260408084206001600160a01b0393909316845291905290205460ff1690565b6060600080516020612b968339815191526113f081611a51565b600083516001600160401b0381111561140b5761140b612323565b604051908082528060200260200182016040528015611434578160200160208202803683370190505b50905060005b84518161ffff161015610cd257856001600160a01b031660026000878461ffff168151811061146b5761146b6128b1565b6020908102919091018101518252810191909152604001600020546001600160a01b03161480156114ed5750600060026000878461ffff16815181106114b3576114b36128b1565b6020026020010151815260200190815260200160002060070160149054906101000a900460ff1660038111156114eb576114eb6120cd565b145b1561157657600160026000878461ffff168151811061150e5761150e6128b1565b6020026020010151815260200190815260200160002060070160146101000a81548160ff02191690836003811115611548576115486120cd565b02179055506001828261ffff1681518110611565576115656128b1565b911515602092830291909101909101525b806115808161292a565b91505061143a565b6000828152602081905260409020600101546115a381611a51565b6115ad8383611b46565b60005b60008481526001602052604090205460ff821611156116f957600084815260016020526040902080546001600160a01b038516919060ff84169081106115f8576115f86128b1565b6000918252602090912001546001600160a01b0316036116e7576000848152600160208190526040909120805490916116309161294b565b81548110611640576116406128b1565b60009182526020808320909101548683526001909152604090912080546001600160a01b039092169160ff841690811061167c5761167c6128b1565b600091825260208083209190910180546001600160a01b0319166001600160a01b0394909416939093179092558581526001909152604090208054806116c4576116c461298a565b600082815260209020810160001990810180546001600160a01b03191690550190555b806116f1816129a0565b9150506115b0565b50505050565b6000600080516020612b9683398151915261171981611a51565b6117268360200151611a5e565b602080840180516000908152600292839052604090819020865181546001600160a01b039182166001600160a01b031991821617835593516001830155918701519381019390935560608601516003808501919091556080870151600485015560a0870151600585015560c0870151600685015560e087015160078501805491909316938116841783556101008801518895949093926001600160a81b03199092161790600160a01b9084908111156117e1576117e16120cd565b021790555061012082015160088201906117fb9082612a0d565b506101408201516009820155610160820151600a820155610180820151600b8201556101a0820151600c8201556101c0820151600d82019061183d9082612a0d565b506101e0820151805161185a91600e840191602090910190611fcb565b50600195945050505050565b6000600080516020612b9683398151915261188081611a51565b6020808401516000908152600290915260409020546001600160a01b0316156118e25760405162461bcd60e51b8152602060048201526014602482015273141bdbdb10dbd9194e8810dbd91948115e1a5cdd60621b6044820152606401610dab565b602080840180516000908152600292839052604090819020865181546001600160a01b039182166001600160a01b031991821617835593516001830155918701519381019390935560608601516003808501919091556080870151600485015560a0870151600585015560c0870151600685015560e087015160078501805491909316938116841783556101008801518895949093926001600160a81b03199092161790600160a01b90849081111561199d5761199d6120cd565b021790555061012082015160088201906119b79082612a0d565b506101408201516009820155610160820151600a820155610180820151600b8201556101a0820151600c8201556101c0820151600d8201906119f99082612a0d565b506101e08201518051611a1691600e840191602090910190611fcb565b505083516001600160a01b03166000908152600360209081526040822095810151865460018082018955978452919092200155509192915050565b611a5b8133611ce5565b50565b6000818152600260205260409020546001600160a01b0316611a5b5760405162461bcd60e51b815260206004820152601860248201527f506f6f6c436f64653a20436f6465204e6f7420457869737400000000000000006044820152606401610dab565b611acc82826113ad565b610dbe576000828152602081815260408083206001600160a01b03851684529091529020805460ff19166001179055611b023390565b6001600160a01b0316816001600160a01b0316837f2f8788117e7eff1d82e926ec794901d17c78024a50270940304540a733656f0d60405160405180910390a45050565b611b5082826113ad565b15610dbe576000828152602081815260408083206001600160a01b0385168085529252808320805460ff1916905551339285917ff6391f5c32d9c69d2a47ea670b442974b53935d1edc7fd64eb21e047a839171b9190a45050565b60005b6001600160a01b038316600090815260036020526040902054811015611ce0576001600160a01b0383166000908152600360205260409020805483919083908110611bfb57611bfb6128b1565b906000526020600020015403611cce576001600160a01b03831660009081526003602052604090208054611c319060019061294b565b81548110611c4157611c416128b1565b906000526020600020015460036000856001600160a01b03166001600160a01b031681526020019081526020016000208281548110611c8257611c826128b1565b60009182526020808320909101929092556001600160a01b0385168152600390915260409020805480611cb757611cb761298a565b600190038181906000526020600020016000905590555b80611cd881612911565b915050611bae565b505050565b611cef82826113ad565b610dbe57611cfc81611d3e565b611d07836020611d50565b604051602001611d18929190612acc565b60408051601f198184030181529082905262461bcd60e51b8252610dab91600401612b41565b60606103316001600160a01b03831660145b60606000611d5f836002612b54565b611d6a906002612b6b565b6001600160401b03811115611d8157611d81612323565b6040519080825280601f01601f191660200182016040528015611dab576020820181803683370190505b509050600360fc1b81600081518110611dc657611dc66128b1565b60200101906001600160f81b031916908160001a905350600f60fb1b81600181518110611df557611df56128b1565b60200101906001600160f81b031916908160001a9053506000611e19846002612b54565b611e24906001612b6b565b90505b6001811115611e9c576f181899199a1a9b1b9c1cb0b131b232b360811b85600f1660108110611e5857611e586128b1565b1a60f81b828281518110611e6e57611e6e6128b1565b60200101906001600160f81b031916908160001a90535060049490941c93611e9581612b7e565b9050611e27565b508315611eeb5760405162461bcd60e51b815260206004820181905260248201527f537472696e67733a20686578206c656e67746820696e73756666696369656e746044820152606401610dab565b9392505050565b6040805161020081018252600080825260208201819052918101829052606081018290526080810182905260a0810182905260c0810182905260e08101829052906101008201908152602001606081526020016000815260200160008152602001600081526020016000801916815260200160608152602001606081525090565b508054611f7f906128c7565b6000825580601f10611f8f575050565b601f016020900490600052602060002090810190611a5b9190612021565b5080546000825590600052602060002090810190611a5b9190612036565b828054828255906000526020600020908101928215612011579160200282015b8281111561201157825182906120019082612a0d565b5091602001919060010190611feb565b5061201d929150612036565b5090565b5b8082111561201d5760008155600101612022565b8082111561201d57600061204a8282611f73565b50600101612036565b60006020828403121561206557600080fd5b81356001600160e01b031981168114611eeb57600080fd5b60006020828403121561208f57600080fd5b5035919050565b80356001600160a01b03811681146120ad57600080fd5b919050565b6000602082840312156120c457600080fd5b611eeb82612096565b634e487b7160e01b600052602160045260246000fd5b6004811061210157634e487b7160e01b600052602160045260246000fd5b9052565b60005b83811015612120578181015183820152602001612108565b50506000910152565b60008151808452612141816020860160208601612105565b601f01601f19169290920160200192915050565b6000815180845260208085019450848260051b860182860160005b8581101561219a578383038952612188838351612129565b98850198925090840190600101612170565b5090979650505050505050565b80516001600160a01b0316825260006102006020830151602085015260408301516040850152606083015160608501526080830151608085015260a083015160a085015260c083015160c085015260e083015161220f60e08601826001600160a01b03169052565b5061010080840151612223828701826120e3565b505061012080840151828287015261223d83870182612129565b6101408681015190880152610160808701519088015261018080870151908801526101a080870151908801526101c080870151888303828a0152919450925090506122888382612129565b925050506101e080840151858303828701526122a48382612155565b9695505050505050565b6000602080830181845280855180835260408601915060408160051b870101925083870160005b8281101561230357603f198886030184526122f18583516121a7565b945092850192908501906001016122d5565b5092979650505050505050565b602081526000611eeb60208301846121a7565b634e487b7160e01b600052604160045260246000fd5b60405161020081016001600160401b038111828210171561235c5761235c612323565b60405290565b604051601f8201601f191681016001600160401b038111828210171561238a5761238a612323565b604052919050565b60006001600160401b038211156123ab576123ab612323565b5060051b60200190565b600080604083850312156123c857600080fd5b6123d183612096565b91506020808401356001600160401b038111156123ed57600080fd5b8401601f810186136123fe57600080fd5b803561241161240c82612392565b612362565b81815260059190911b8201830190838101908883111561243057600080fd5b928401925b8284101561244e57833582529284019290840190612435565b80955050505050509250929050565b6020808252825182820181905260009190848201906040850190845b81811015612497578351151583529284019291840191600101612479565b50909695505050505050565b600080604083850312156124b657600080fd5b823591506124c660208401612096565b90509250929050565b600080600080608085870312156124e557600080fd5b6124ee85612096565b966020860135965060408601359560600135945092505050565b60008083601f84011261251a57600080fd5b5081356001600160401b0381111561253157600080fd5b60208301915083602082850101111561254957600080fd5b9250929050565b60008060008060006080868803121561256857600080fd5b61257186612096565b94506020860135935060408601356001600160401b0381111561259357600080fd5b61259f88828901612508565b96999598509660600135949350505050565b600080600080606085870312156125c757600080fd5b6125d085612096565b93506020850135925060408501356001600160401b038111156125f257600080fd5b6125fe87828801612508565b95989497509550505050565b600082601f83011261261b57600080fd5b81356001600160401b0381111561263457612634612323565b612647601f8201601f1916602001612362565b81815284602083860101111561265c57600080fd5b816020850160208301376000918101602001919091529392505050565b6000806040838503121561268c57600080fd5b82356001600160401b038111156126a257600080fd5b6126ae8582860161260a565b9250506124c660208401612096565b8035600481106120ad57600080fd5b600082601f8301126126dd57600080fd5b813560206126ed61240c83612392565b82815260059290921b8401810191818101908684111561270c57600080fd5b8286015b8481101561274b5780356001600160401b0381111561272f5760008081fd5b61273d8986838b010161260a565b845250918301918301612710565b509695505050505050565b60006020828403121561276857600080fd5b81356001600160401b038082111561277f57600080fd5b90830190610200828603121561279457600080fd5b61279c612339565b6127a583612096565b81526020830135602082015260408301356040820152606083013560608201526080830135608082015260a083013560a082015260c083013560c08201526127ef60e08401612096565b60e08201526101006128028185016126bd565b90820152610120838101358381111561281a57600080fd5b6128268882870161260a565b91830191909152506101408381013590820152610160808401359082015261018080840135908201526101a080840135908201526101c0808401358381111561286e57600080fd5b61287a8882870161260a565b8284015250506101e0808401358381111561289457600080fd5b6128a0888287016126cc565b918301919091525095945050505050565b634e487b7160e01b600052603260045260246000fd5b600181811c908216806128db57607f821691505b60208210810361038157634e487b7160e01b600052602260045260246000fd5b634e487b7160e01b600052601160045260246000fd5b600060018201612923576129236128fb565b5060010190565b600061ffff808316818103612941576129416128fb565b6001019392505050565b81810381811115610331576103316128fb565b8183823760009101908152919050565b60008251612980818460208701612105565b9190910192915050565b634e487b7160e01b600052603160045260246000fd5b600060ff821660ff81036129b6576129b66128fb565b60010192915050565b601f821115611ce057600081815260208120601f850160051c810160208610156129e65750805b601f850160051c820191505b81811015612a05578281556001016129f2565b505050505050565b81516001600160401b03811115612a2657612a26612323565b612a3a81612a3484546128c7565b846129bf565b602080601f831160018114612a6f5760008415612a575750858301515b600019600386901b1c1916600185901b178555612a05565b600085815260208120601f198616915b82811015612a9e57888601518255948401946001909101908401612a7f565b5085821015612abc5787850151600019600388901b60f8161c191681555b5050505050600190811b01905550565b7f416363657373436f6e74726f6c3a206163636f756e7420000000000000000000815260008351612b04816017850160208801612105565b7001034b99036b4b9b9b4b733903937b6329607d1b6017918401918201528351612b35816028840160208801612105565b01602801949350505050565b602081526000611eeb6020830184612129565b8082028115828204841417610331576103316128fb565b80820180821115610331576103316128fb565b600081612b8d57612b8d6128fb565b50600019019056fece5b4dffeb636293708c79f81c22e23cd9e58de35c143478790754258cb2cd38a2646970667358221220580e9320aeeab9c8b3aae111168c6728d792ce86e1d9ab7fada01854d0a3f16764736f6c63430008130033",
			"opcodes": "PUSH1 0x80 PUSH1 0x40 MSTORE PUSH3 0x11 PUSH1 0x0 CALLER PUSH3 0x17 JUMP JUMPDEST PUSH3 0xB8 JUMP JUMPDEST PUSH1 0x0 DUP3 DUP2 MSTORE PUSH1 0x20 DUP2 DUP2 MSTORE PUSH1 0x40 DUP1 DUP4 KECCAK256 PUSH1 0x1 PUSH1 0x1 PUSH1 0xA0 SHL SUB DUP6 AND DUP5 MSTORE SWAP1 SWAP2 MSTORE SWAP1 KECCAK256 SLOAD PUSH1 0xFF AND PUSH3 0xB4 JUMPI PUSH1 0x0 DUP3 DUP2 MSTORE PUSH1 0x20 DUP2 DUP2 MSTORE PUSH1 0x40 DUP1 DUP4 KECCAK256 PUSH1 0x1 PUSH1 0x1 PUSH1 0xA0 SHL SUB DUP6 AND DUP5 MSTORE SWAP1 SWAP2 MSTORE SWAP1 KECCAK256 DUP1 SLOAD PUSH1 0xFF NOT AND PUSH1 0x1 OR SWAP1 SSTORE PUSH3 0x73 CALLER SWAP1 JUMP JUMPDEST PUSH1 0x1 PUSH1 0x1 PUSH1 0xA0 SHL SUB AND DUP2 PUSH1 0x1 PUSH1 0x1 PUSH1 0xA0 SHL SUB AND DUP4 PUSH32 0x2F8788117E7EFF1D82E926EC794901D17C78024A50270940304540A733656F0D PUSH1 0x40 MLOAD PUSH1 0x40 MLOAD DUP1 SWAP2 SUB SWAP1 LOG4 JUMPDEST POP POP JUMP JUMPDEST PUSH2 0x2BEB DUP1 PUSH3 0xC8 PUSH1 0x0 CODECOPY PUSH1 0x0 RETURN INVALID PUSH1 0x80 PUSH1 0x40 MSTORE CALLVALUE DUP1 ISZERO PUSH2 0x10 JUMPI PUSH1 0x0 DUP1 REVERT JUMPDEST POP PUSH1 0x4 CALLDATASIZE LT PUSH2 0x12C JUMPI PUSH1 0x0 CALLDATALOAD PUSH1 0xE0 SHR DUP1 PUSH4 0x54EECB92 GT PUSH2 0xAD JUMPI DUP1 PUSH4 0xA217FDDF GT PUSH2 0x71 JUMPI DUP1 PUSH4 0xA217FDDF EQ PUSH2 0x2AC JUMPI DUP1 PUSH4 0xCE1DD554 EQ PUSH2 0x2B4 JUMPI DUP1 PUSH4 0xD547741F EQ PUSH2 0x2C7 JUMPI DUP1 PUSH4 0xD86A8AF3 EQ PUSH2 0x2DA JUMPI DUP1 PUSH4 0xDED92C3D EQ PUSH2 0x2ED JUMPI PUSH1 0x0 DUP1 REVERT JUMPDEST DUP1 PUSH4 0x54EECB92 EQ PUSH2 0x24B JUMPI DUP1 PUSH4 0x76F1A358 EQ PUSH2 0x25E JUMPI DUP1 PUSH4 0x7E7E8AA2 EQ PUSH2 0x271 JUMPI DUP1 PUSH4 0x90BC1864 EQ PUSH2 0x286 JUMPI DUP1 PUSH4 0x91D14854 EQ PUSH2 0x299 JUMPI PUSH1 0x0 DUP1 REVERT JUMPDEST DUP1 PUSH4 0x20382F46 GT PUSH2 0xF4 JUMPI DUP1 PUSH4 0x20382F46 EQ PUSH2 0x1BF JUMPI DUP1 PUSH4 0x248A9CA3 EQ PUSH2 0x1DF JUMPI DUP1 PUSH4 0x2F2FF15D EQ PUSH2 0x210 JUMPI DUP1 PUSH4 0x36568ABE EQ PUSH2 0x225 JUMPI DUP1 PUSH4 0x3B2C0E5A EQ PUSH2 0x238 JUMPI PUSH1 0x0 DUP1 REVERT JUMPDEST DUP1 PUSH4 0x1FFC9A7 EQ PUSH2 0x131 JUMPI DUP1 PUSH4 0x1339F27B EQ PUSH2 0x159 JUMPI DUP1 PUSH4 0x134C0377 EQ PUSH2 0x16C JUMPI DUP1 PUSH4 0x186FBAD2 EQ PUSH2 0x18C JUMPI DUP1 PUSH4 0x19D8BCF0 EQ PUSH2 0x19F JUMPI JUMPDEST PUSH1 0x0 DUP1 REVERT JUMPDEST PUSH2 0x144 PUSH2 0x13F CALLDATASIZE PUSH1 0x4 PUSH2 0x2053 JUMP JUMPDEST PUSH2 0x300 JUMP JUMPDEST PUSH1 0x40 MLOAD SWAP1 ISZERO ISZERO DUP2 MSTORE PUSH1 0x20 ADD JUMPDEST PUSH1 0x40 MLOAD DUP1 SWAP2 SUB SWAP1 RETURN JUMPDEST PUSH2 0x144 PUSH2 0x167 CALLDATASIZE PUSH1 0x4 PUSH2 0x207D JUMP JUMPDEST PUSH2 0x337 JUMP JUMPDEST PUSH2 0x17F PUSH2 0x17A CALLDATASIZE PUSH1 0x4 PUSH2 0x20B2 JUMP JUMPDEST PUSH2 0x387 JUMP JUMPDEST PUSH1 0x40 MLOAD PUSH2 0x150 SWAP2 SWAP1 PUSH2 0x22AE JUMP JUMPDEST PUSH2 0x144 PUSH2 0x19A CALLDATASIZE PUSH1 0x4 PUSH2 0x207D JUMP JUMPDEST PUSH2 0x762 JUMP JUMPDEST PUSH2 0x1B2 PUSH2 0x1AD CALLDATASIZE PUSH1 0x4 PUSH2 0x207D JUMP JUMPDEST PUSH2 0x835 JUMP JUMPDEST PUSH1 0x40 MLOAD PUSH2 0x150 SWAP2 SWAP1 PUSH2 0x2310 JUMP JUMPDEST PUSH2 0x1D2 PUSH2 0x1CD CALLDATASIZE PUSH1 0x4 PUSH2 0x23B5 JUMP JUMPDEST PUSH2 0xB20 JUMP JUMPDEST PUSH1 0x40 MLOAD PUSH2 0x150 SWAP2 SWAP1 PUSH2 0x245D JUMP JUMPDEST PUSH2 0x202 PUSH2 0x1ED CALLDATASIZE PUSH1 0x4 PUSH2 0x207D JUMP JUMPDEST PUSH1 0x0 SWAP1 DUP2 MSTORE PUSH1 0x20 DUP2 SWAP1 MSTORE PUSH1 0x40 SWAP1 KECCAK256 PUSH1 0x1 ADD SLOAD SWAP1 JUMP JUMPDEST PUSH1 0x40 MLOAD SWAP1 DUP2 MSTORE PUSH1 0x20 ADD PUSH2 0x150 JUMP JUMPDEST PUSH2 0x223 PUSH2 0x21E CALLDATASIZE PUSH1 0x4 PUSH2 0x24A3 JUMP JUMPDEST PUSH2 0xCDB JUMP JUMPDEST STOP JUMPDEST PUSH2 0x223 PUSH2 0x233 CALLDATASIZE PUSH1 0x4 PUSH2 0x24A3 JUMP JUMPDEST PUSH2 0xD3F JUMP JUMPDEST PUSH2 0x144 PUSH2 0x246 CALLDATASIZE PUSH1 0x4 PUSH2 0x24CF JUMP JUMPDEST PUSH2 0xDC2 JUMP JUMPDEST PUSH2 0x144 PUSH2 0x259 CALLDATASIZE PUSH1 0x4 PUSH2 0x2550 JUMP JUMPDEST PUSH2 0xF7B JUMP JUMPDEST PUSH2 0x144 PUSH2 0x26C CALLDATASIZE PUSH1 0x4 PUSH2 0x25B1 JUMP JUMPDEST PUSH2 0x10BE JUMP JUMPDEST PUSH2 0x202 PUSH1 0x0 DUP1 MLOAD PUSH1 0x20 PUSH2 0x2B96 DUP4 CODECOPY DUP2 MLOAD SWAP2 MSTORE DUP2 JUMP JUMPDEST PUSH2 0x144 PUSH2 0x294 CALLDATASIZE PUSH1 0x4 PUSH2 0x2679 JUMP JUMPDEST PUSH2 0x11E5 JUMP JUMPDEST PUSH2 0x144 PUSH2 0x2A7 CALLDATASIZE PUSH1 0x4 PUSH2 0x24A3 JUMP JUMPDEST PUSH2 0x13AD JUMP JUMPDEST PUSH2 0x202 PUSH1 0x0 DUP2 JUMP JUMPDEST PUSH2 0x1D2 PUSH2 0x2C2 CALLDATASIZE PUSH1 0x4 PUSH2 0x23B5 JUMP JUMPDEST PUSH2 0x13D6 JUMP JUMPDEST PUSH2 0x223 PUSH2 0x2D5 CALLDATASIZE PUSH1 0x4 PUSH2 0x24A3 JUMP JUMPDEST PUSH2 0x1588 JUMP JUMPDEST PUSH2 0x144 PUSH2 0x2E8 CALLDATASIZE PUSH1 0x4 PUSH2 0x2756 JUMP JUMPDEST PUSH2 0x16FF JUMP JUMPDEST PUSH2 0x144 PUSH2 0x2FB CALLDATASIZE PUSH1 0x4 PUSH2 0x2756 JUMP JUMPDEST PUSH2 0x1866 JUMP JUMPDEST PUSH1 0x0 PUSH1 0x1 PUSH1 0x1 PUSH1 0xE0 SHL SUB NOT DUP3 AND PUSH4 0x7965DB0B PUSH1 0xE0 SHL EQ DUP1 PUSH2 0x331 JUMPI POP PUSH4 0x1FFC9A7 PUSH1 0xE0 SHL PUSH1 0x1 PUSH1 0x1 PUSH1 0xE0 SHL SUB NOT DUP4 AND EQ JUMPDEST SWAP3 SWAP2 POP POP JUMP JUMPDEST PUSH1 0x0 PUSH1 0x0 DUP1 MLOAD PUSH1 0x20 PUSH2 0x2B96 DUP4 CODECOPY DUP2 MLOAD SWAP2 MSTORE PUSH2 0x351 DUP2 PUSH2 0x1A51 JUMP JUMPDEST PUSH2 0x35A DUP4 PUSH2 0x1A5E JUMP JUMPDEST PUSH1 0x0 DUP4 DUP2 MSTORE PUSH1 0x2 PUSH1 0x20 MSTORE PUSH1 0x40 SWAP1 KECCAK256 PUSH1 0x7 ADD DUP1 SLOAD PUSH1 0xFF PUSH1 0xA0 SHL NOT AND PUSH1 0x3 PUSH1 0xA0 SHL OR SWAP1 SSTORE PUSH1 0x1 SWAP2 POP JUMPDEST POP SWAP2 SWAP1 POP JUMP JUMPDEST PUSH1 0x60 PUSH1 0x0 DUP1 MLOAD PUSH1 0x20 PUSH2 0x2B96 DUP4 CODECOPY DUP2 MLOAD SWAP2 MSTORE PUSH2 0x3A1 DUP2 PUSH2 0x1A51 JUMP JUMPDEST PUSH1 0x1 PUSH1 0x1 PUSH1 0xA0 SHL SUB DUP4 AND PUSH1 0x0 SWAP1 DUP2 MSTORE PUSH1 0x3 PUSH1 0x20 MSTORE PUSH1 0x40 SWAP1 KECCAK256 SLOAD PUSH1 0x1 PUSH1 0x1 PUSH1 0x40 SHL SUB DUP2 GT ISZERO PUSH2 0x3D1 JUMPI PUSH2 0x3D1 PUSH2 0x2323 JUMP JUMPDEST PUSH1 0x40 MLOAD SWAP1 DUP1 DUP3 MSTORE DUP1 PUSH1 0x20 MUL PUSH1 0x20 ADD DUP3 ADD PUSH1 0x40 MSTORE DUP1 ISZERO PUSH2 0x40A JUMPI DUP2 PUSH1 0x20 ADD JUMPDEST PUSH2 0x3F7 PUSH2 0x1EF2 JUMP JUMPDEST DUP2 MSTORE PUSH1 0x20 ADD SWAP1 PUSH1 0x1 SWAP1 SUB SWAP1 DUP2 PUSH2 0x3EF JUMPI SWAP1 POP JUMPDEST POP SWAP2 POP PUSH1 0x0 JUMPDEST DUP3 MLOAD DUP2 LT ISZERO PUSH2 0x75B JUMPI PUSH1 0x1 PUSH1 0x1 PUSH1 0xA0 SHL SUB DUP5 AND PUSH1 0x0 SWAP1 DUP2 MSTORE PUSH1 0x3 PUSH1 0x20 MSTORE PUSH1 0x40 DUP2 KECCAK256 DUP1 SLOAD PUSH1 0x2 SWAP3 SWAP2 SWAP1 DUP5 SWAP1 DUP2 LT PUSH2 0x448 JUMPI PUSH2 0x448 PUSH2 0x28B1 JUMP JUMPDEST PUSH1 0x0 SWAP2 DUP3 MSTORE PUSH1 0x20 DUP1 DUP4 KECCAK256 SWAP1 SWAP2 ADD SLOAD DUP4 MSTORE DUP3 DUP2 ADD SWAP4 SWAP1 SWAP4 MSTORE PUSH1 0x40 SWAP2 DUP3 ADD SWAP1 KECCAK256 DUP2 MLOAD PUSH2 0x200 DUP2 ADD DUP4 MSTORE DUP2 SLOAD PUSH1 0x1 PUSH1 0x1 PUSH1 0xA0 SHL SUB SWAP1 DUP2 AND DUP3 MSTORE PUSH1 0x1 DUP4 ADD SLOAD SWAP5 DUP3 ADD SWAP5 SWAP1 SWAP5 MSTORE PUSH1 0x2 DUP3 ADD SLOAD SWAP3 DUP2 ADD SWAP3 SWAP1 SWAP3 MSTORE PUSH1 0x3 DUP1 DUP3 ADD SLOAD PUSH1 0x60 DUP5 ADD MSTORE PUSH1 0x4 DUP3 ADD SLOAD PUSH1 0x80 DUP5 ADD MSTORE PUSH1 0x5 DUP3 ADD SLOAD PUSH1 0xA0 DUP5 ADD MSTORE PUSH1 0x6 DUP3 ADD SLOAD PUSH1 0xC0 DUP5 ADD MSTORE PUSH1 0x7 DUP3 ADD SLOAD SWAP4 DUP5 AND PUSH1 0xE0 DUP5 ADD MSTORE SWAP2 SWAP3 SWAP1 SWAP2 PUSH2 0x100 DUP5 ADD SWAP2 PUSH1 0xFF PUSH1 0x1 PUSH1 0xA0 SHL SWAP1 SWAP2 DIV AND SWAP1 DUP2 GT ISZERO PUSH2 0x4F1 JUMPI PUSH2 0x4F1 PUSH2 0x20CD JUMP JUMPDEST PUSH1 0x3 DUP2 GT ISZERO PUSH2 0x502 JUMPI PUSH2 0x502 PUSH2 0x20CD JUMP JUMPDEST DUP2 MSTORE PUSH1 0x20 ADD PUSH1 0x8 DUP3 ADD DUP1 SLOAD PUSH2 0x516 SWAP1 PUSH2 0x28C7 JUMP JUMPDEST DUP1 PUSH1 0x1F ADD PUSH1 0x20 DUP1 SWAP2 DIV MUL PUSH1 0x20 ADD PUSH1 0x40 MLOAD SWAP1 DUP2 ADD PUSH1 0x40 MSTORE DUP1 SWAP3 SWAP2 SWAP1 DUP2 DUP2 MSTORE PUSH1 0x20 ADD DUP3 DUP1 SLOAD PUSH2 0x542 SWAP1 PUSH2 0x28C7 JUMP JUMPDEST DUP1 ISZERO PUSH2 0x58F JUMPI DUP1 PUSH1 0x1F LT PUSH2 0x564 JUMPI PUSH2 0x100 DUP1 DUP4 SLOAD DIV MUL DUP4 MSTORE SWAP2 PUSH1 0x20 ADD SWAP2 PUSH2 0x58F JUMP JUMPDEST DUP3 ADD SWAP2 SWAP1 PUSH1 0x0 MSTORE PUSH1 0x20 PUSH1 0x0 KECCAK256 SWAP1 JUMPDEST DUP2 SLOAD DUP2 MSTORE SWAP1 PUSH1 0x1 ADD SWAP1 PUSH1 0x20 ADD DUP1 DUP4 GT PUSH2 0x572 JUMPI DUP3 SWAP1 SUB PUSH1 0x1F AND DUP3 ADD SWAP2 JUMPDEST POP POP POP POP POP DUP2 MSTORE PUSH1 0x20 ADD PUSH1 0x9 DUP3 ADD SLOAD DUP2 MSTORE PUSH1 0x20 ADD PUSH1 0xA DUP3 ADD SLOAD DUP2 MSTORE PUSH1 0x20 ADD PUSH1 0xB DUP3 ADD SLOAD DUP2 MSTORE PUSH1 0x20 ADD PUSH1 0xC DUP3 ADD SLOAD DUP2 MSTORE PUSH1 0x20 ADD PUSH1 0xD DUP3 ADD DUP1 SLOAD PUSH2 0x5D0 SWAP1 PUSH2 0x28C7 JUMP JUMPDEST DUP1 PUSH1 0x1F ADD PUSH1 0x20 DUP1 SWAP2 DIV MUL PUSH1 0x20 ADD PUSH1 0x40 MLOAD SWAP1 DUP2 ADD PUSH1 0x40 MSTORE DUP1 SWAP3 SWAP2 SWAP1 DUP2 DUP2 MSTORE PUSH1 0x20 ADD DUP3 DUP1 SLOAD PUSH2 0x5FC SWAP1 PUSH2 0x28C7 JUMP JUMPDEST DUP1 ISZERO PUSH2 0x649 JUMPI DUP1 PUSH1 0x1F LT PUSH2 0x61E JUMPI PUSH2 0x100 DUP1 DUP4 SLOAD DIV MUL DUP4 MSTORE SWAP2 PUSH1 0x20 ADD SWAP2 PUSH2 0x649 JUMP JUMPDEST DUP3 ADD SWAP2 SWAP1 PUSH1 0x0 MSTORE PUSH1 0x20 PUSH1 0x0 KECCAK256 SWAP1 JUMPDEST DUP2 SLOAD DUP2 MSTORE SWAP1 PUSH1 0x1 ADD SWAP1 PUSH1 0x20 ADD DUP1 DUP4 GT PUSH2 0x62C JUMPI DUP3 SWAP1 SUB PUSH1 0x1F AND DUP3 ADD SWAP2 JUMPDEST POP POP POP POP POP DUP2 MSTORE PUSH1 0x20 ADD PUSH1 0xE DUP3 ADD DUP1 SLOAD DUP1 PUSH1 0x20 MUL PUSH1 0x20 ADD PUSH1 0x40 MLOAD SWAP1 DUP2 ADD PUSH1 0x40 MSTORE DUP1 SWAP3 SWAP2 SWAP1 DUP2 DUP2 MSTORE PUSH1 0x20 ADD PUSH1 0x0 SWAP1 JUMPDEST DUP3 DUP3 LT ISZERO PUSH2 0x723 JUMPI DUP4 DUP3 SWAP1 PUSH1 0x0 MSTORE PUSH1 0x20 PUSH1 0x0 KECCAK256 ADD DUP1 SLOAD PUSH2 0x696 SWAP1 PUSH2 0x28C7 JUMP JUMPDEST DUP1 PUSH1 0x1F ADD PUSH1 0x20 DUP1 SWAP2 DIV MUL PUSH1 0x20 ADD PUSH1 0x40 MLOAD SWAP1 DUP2 ADD PUSH1 0x40 MSTORE DUP1 SWAP3 SWAP2 SWAP1 DUP2 DUP2 MSTORE PUSH1 0x20 ADD DUP3 DUP1 SLOAD PUSH2 0x6C2 SWAP1 PUSH2 0x28C7 JUMP JUMPDEST DUP1 ISZERO PUSH2 0x70F JUMPI DUP1 PUSH1 0x1F LT PUSH2 0x6E4 JUMPI PUSH2 0x100 DUP1 DUP4 SLOAD DIV MUL DUP4 MSTORE SWAP2 PUSH1 0x20 ADD SWAP2 PUSH2 0x70F JUMP JUMPDEST DUP3 ADD SWAP2 SWAP1 PUSH1 0x0 MSTORE PUSH1 0x20 PUSH1 0x0 KECCAK256 SWAP1 JUMPDEST DUP2 SLOAD DUP2 MSTORE SWAP1 PUSH1 0x1 ADD SWAP1 PUSH1 0x20 ADD DUP1 DUP4 GT PUSH2 0x6F2 JUMPI DUP3 SWAP1 SUB PUSH1 0x1F AND DUP3 ADD SWAP2 JUMPDEST POP POP POP POP POP DUP2 MSTORE PUSH1 0x20 ADD SWAP1 PUSH1 0x1 ADD SWAP1 PUSH2 0x677 JUMP JUMPDEST POP POP POP POP DUP2 MSTORE POP POP DUP4 DUP3 DUP2 MLOAD DUP2 LT PUSH2 0x73D JUMPI PUSH2 0x73D PUSH2 0x28B1 JUMP JUMPDEST PUSH1 0x20 MUL PUSH1 0x20 ADD ADD DUP2 SWAP1 MSTORE POP DUP1 DUP1 PUSH2 0x753 SWAP1 PUSH2 0x2911 JUMP JUMPDEST SWAP2 POP POP PUSH2 0x410 JUMP JUMPDEST POP POP SWAP2 SWAP1 POP JUMP JUMPDEST PUSH1 0x0 PUSH1 0x0 DUP1 MLOAD PUSH1 0x20 PUSH2 0x2B96 DUP4 CODECOPY DUP2 MLOAD SWAP2 MSTORE PUSH2 0x77C DUP2 PUSH2 0x1A51 JUMP JUMPDEST PUSH2 0x785 DUP4 PUSH2 0x1A5E JUMP JUMPDEST PUSH1 0x0 DUP4 DUP2 MSTORE PUSH1 0x2 PUSH1 0x20 DUP2 SWAP1 MSTORE PUSH1 0x40 DUP3 KECCAK256 DUP1 SLOAD PUSH1 0x1 PUSH1 0x1 PUSH1 0xA0 SHL SUB NOT AND DUP2 SSTORE PUSH1 0x1 DUP2 ADD DUP4 SWAP1 SSTORE SWAP1 DUP2 ADD DUP3 SWAP1 SSTORE PUSH1 0x3 DUP2 ADD DUP3 SWAP1 SSTORE PUSH1 0x4 DUP2 ADD DUP3 SWAP1 SSTORE PUSH1 0x5 DUP2 ADD DUP3 SWAP1 SSTORE PUSH1 0x6 DUP2 ADD DUP3 SWAP1 SSTORE PUSH1 0x7 DUP2 ADD DUP1 SLOAD PUSH1 0x1 PUSH1 0x1 PUSH1 0xA8 SHL SUB NOT AND SWAP1 SSTORE SWAP1 PUSH2 0x7EC PUSH1 0x8 DUP4 ADD DUP3 PUSH2 0x1F73 JUMP JUMPDEST PUSH1 0x9 DUP3 ADD PUSH1 0x0 SWAP1 SSTORE PUSH1 0xA DUP3 ADD PUSH1 0x0 SWAP1 SSTORE PUSH1 0xB DUP3 ADD PUSH1 0x0 SWAP1 SSTORE PUSH1 0xC DUP3 ADD PUSH1 0x0 SWAP1 SSTORE PUSH1 0xD DUP3 ADD PUSH1 0x0 PUSH2 0x81C SWAP2 SWAP1 PUSH2 0x1F73 JUMP JUMPDEST PUSH2 0x82A PUSH1 0xE DUP4 ADD PUSH1 0x0 PUSH2 0x1FAD JUMP JUMPDEST POP PUSH1 0x1 SWAP5 SWAP4 POP POP POP POP JUMP JUMPDEST PUSH2 0x83D PUSH2 0x1EF2 JUMP JUMPDEST PUSH2 0x846 DUP3 PUSH2 0x1A5E JUMP JUMPDEST PUSH1 0x0 DUP3 DUP2 MSTORE PUSH1 0x2 PUSH1 0x20 DUP2 DUP2 MSTORE PUSH1 0x40 SWAP3 DUP4 SWAP1 KECCAK256 DUP4 MLOAD PUSH2 0x200 DUP2 ADD DUP6 MSTORE DUP2 SLOAD PUSH1 0x1 PUSH1 0x1 PUSH1 0xA0 SHL SUB SWAP1 DUP2 AND DUP3 MSTORE PUSH1 0x1 DUP4 ADD SLOAD SWAP4 DUP3 ADD SWAP4 SWAP1 SWAP4 MSTORE SWAP3 DUP2 ADD SLOAD SWAP4 DUP4 ADD SWAP4 SWAP1 SWAP4 MSTORE PUSH1 0x3 DUP1 DUP5 ADD SLOAD PUSH1 0x60 DUP5 ADD MSTORE PUSH1 0x4 DUP5 ADD SLOAD PUSH1 0x80 DUP5 ADD MSTORE PUSH1 0x5 DUP5 ADD SLOAD PUSH1 0xA0 DUP5 ADD MSTORE PUSH1 0x6 DUP5 ADD SLOAD PUSH1 0xC0 DUP5 ADD MSTORE PUSH1 0x7 DUP5 ADD SLOAD SWAP2 DUP3 AND PUSH1 0xE0 DUP5 ADD MSTORE SWAP2 SWAP3 SWAP2 PUSH2 0x100 DUP5 ADD SWAP2 PUSH1 0x1 PUSH1 0xA0 SHL SWAP1 DIV PUSH1 0xFF AND SWAP1 DUP2 GT ISZERO PUSH2 0x8E0 JUMPI PUSH2 0x8E0 PUSH2 0x20CD JUMP JUMPDEST PUSH1 0x3 DUP2 GT ISZERO PUSH2 0x8F1 JUMPI PUSH2 0x8F1 PUSH2 0x20CD JUMP JUMPDEST DUP2 MSTORE PUSH1 0x20 ADD PUSH1 0x8 DUP3 ADD DUP1 SLOAD PUSH2 0x905 SWAP1 PUSH2 0x28C7 JUMP JUMPDEST DUP1 PUSH1 0x1F ADD PUSH1 0x20 DUP1 SWAP2 DIV MUL PUSH1 0x20 ADD PUSH1 0x40 MLOAD SWAP1 DUP2 ADD PUSH1 0x40 MSTORE DUP1 SWAP3 SWAP2 SWAP1 DUP2 DUP2 MSTORE PUSH1 0x20 ADD DUP3 DUP1 SLOAD PUSH2 0x931 SWAP1 PUSH2 0x28C7 JUMP JUMPDEST DUP1 ISZERO PUSH2 0x97E JUMPI DUP1 PUSH1 0x1F LT PUSH2 0x953 JUMPI PUSH2 0x100 DUP1 DUP4 SLOAD DIV MUL DUP4 MSTORE SWAP2 PUSH1 0x20 ADD SWAP2 PUSH2 0x97E JUMP JUMPDEST DUP3 ADD SWAP2 SWAP1 PUSH1 0x0 MSTORE PUSH1 0x20 PUSH1 0x0 KECCAK256 SWAP1 JUMPDEST DUP2 SLOAD DUP2 MSTORE SWAP1 PUSH1 0x1 ADD SWAP1 PUSH1 0x20 ADD DUP1 DUP4 GT PUSH2 0x961 JUMPI DUP3 SWAP1 SUB PUSH1 0x1F AND DUP3 ADD SWAP2 JUMPDEST POP POP POP POP POP DUP2 MSTORE PUSH1 0x20 ADD PUSH1 0x9 DUP3 ADD SLOAD DUP2 MSTORE PUSH1 0x20 ADD PUSH1 0xA DUP3 ADD SLOAD DUP2 MSTORE PUSH1 0x20 ADD PUSH1 0xB DUP3 ADD SLOAD DUP2 MSTORE PUSH1 0x20 ADD PUSH1 0xC DUP3 ADD SLOAD DUP2 MSTORE PUSH1 0x20 ADD PUSH1 0xD DUP3 ADD DUP1 SLOAD PUSH2 0x9BF SWAP1 PUSH2 0x28C7 JUMP JUMPDEST DUP1 PUSH1 0x1F ADD PUSH1 0x20 DUP1 SWAP2 DIV MUL PUSH1 0x20 ADD PUSH1 0x40 MLOAD SWAP1 DUP2 ADD PUSH1 0x40 MSTORE DUP1 SWAP3 SWAP2 SWAP1 DUP2 DUP2 MSTORE PUSH1 0x20 ADD DUP3 DUP1 SLOAD PUSH2 0x9EB SWAP1 PUSH2 0x28C7 JUMP JUMPDEST DUP1 ISZERO PUSH2 0xA38 JUMPI DUP1 PUSH1 0x1F LT PUSH2 0xA0D JUMPI PUSH2 0x100 DUP1 DUP4 SLOAD DIV MUL DUP4 MSTORE SWAP2 PUSH1 0x20 ADD SWAP2 PUSH2 0xA38 JUMP JUMPDEST DUP3 ADD SWAP2 SWAP1 PUSH1 0x0 MSTORE PUSH1 0x20 PUSH1 0x0 KECCAK256 SWAP1 JUMPDEST DUP2 SLOAD DUP2 MSTORE SWAP1 PUSH1 0x1 ADD SWAP1 PUSH1 0x20 ADD DUP1 DUP4 GT PUSH2 0xA1B JUMPI DUP3 SWAP1 SUB PUSH1 0x1F AND DUP3 ADD SWAP2 JUMPDEST POP POP POP POP POP DUP2 MSTORE PUSH1 0x20 ADD PUSH1 0xE DUP3 ADD DUP1 SLOAD DUP1 PUSH1 0x20 MUL PUSH1 0x20 ADD PUSH1 0x40 MLOAD SWAP1 DUP2 ADD PUSH1 0x40 MSTORE DUP1 SWAP3 SWAP2 SWAP1 DUP2 DUP2 MSTORE PUSH1 0x20 ADD PUSH1 0x0 SWAP1 JUMPDEST DUP3 DUP3 LT ISZERO PUSH2 0xB12 JUMPI DUP4 DUP3 SWAP1 PUSH1 0x0 MSTORE PUSH1 0x20 PUSH1 0x0 KECCAK256 ADD DUP1 SLOAD PUSH2 0xA85 SWAP1 PUSH2 0x28C7 JUMP JUMPDEST DUP1 PUSH1 0x1F ADD PUSH1 0x20 DUP1 SWAP2 DIV MUL PUSH1 0x20 ADD PUSH1 0x40 MLOAD SWAP1 DUP2 ADD PUSH1 0x40 MSTORE DUP1 SWAP3 SWAP2 SWAP1 DUP2 DUP2 MSTORE PUSH1 0x20 ADD DUP3 DUP1 SLOAD PUSH2 0xAB1 SWAP1 PUSH2 0x28C7 JUMP JUMPDEST DUP1 ISZERO PUSH2 0xAFE JUMPI DUP1 PUSH1 0x1F LT PUSH2 0xAD3 JUMPI PUSH2 0x100 DUP1 DUP4 SLOAD DIV MUL DUP4 MSTORE SWAP2 PUSH1 0x20 ADD SWAP2 PUSH2 0xAFE JUMP JUMPDEST DUP3 ADD SWAP2 SWAP1 PUSH1 0x0 MSTORE PUSH1 0x20 PUSH1 0x0 KECCAK256 SWAP1 JUMPDEST DUP2 SLOAD DUP2 MSTORE SWAP1 PUSH1 0x1 ADD SWAP1 PUSH1 0x20 ADD DUP1 DUP4 GT PUSH2 0xAE1 JUMPI DUP3 SWAP1 SUB PUSH1 0x1F AND DUP3 ADD SWAP2 JUMPDEST POP POP POP POP POP DUP2 MSTORE PUSH1 0x20 ADD SWAP1 PUSH1 0x1 ADD SWAP1 PUSH2 0xA66 JUMP JUMPDEST POP POP POP SWAP2 MSTORE POP SWAP1 SWAP4 SWAP3 POP POP POP JUMP JUMPDEST PUSH1 0x60 PUSH1 0x0 DUP1 MLOAD PUSH1 0x20 PUSH2 0x2B96 DUP4 CODECOPY DUP2 MLOAD SWAP2 MSTORE PUSH2 0xB3A DUP2 PUSH2 0x1A51 JUMP JUMPDEST PUSH1 0x0 DUP4 MLOAD PUSH1 0x1 PUSH1 0x1 PUSH1 0x40 SHL SUB DUP2 GT ISZERO PUSH2 0xB55 JUMPI PUSH2 0xB55 PUSH2 0x2323 JUMP JUMPDEST PUSH1 0x40 MLOAD SWAP1 DUP1 DUP3 MSTORE DUP1 PUSH1 0x20 MUL PUSH1 0x20 ADD DUP3 ADD PUSH1 0x40 MSTORE DUP1 ISZERO PUSH2 0xB7E JUMPI DUP2 PUSH1 0x20 ADD PUSH1 0x20 DUP3 MUL DUP1 CALLDATASIZE DUP4 CALLDATACOPY ADD SWAP1 POP JUMPDEST POP SWAP1 POP PUSH1 0x0 JUMPDEST DUP5 MLOAD DUP2 PUSH2 0xFFFF AND LT ISZERO PUSH2 0xCD2 JUMPI DUP6 PUSH1 0x1 PUSH1 0x1 PUSH1 0xA0 SHL SUB AND PUSH1 0x2 PUSH1 0x0 DUP8 DUP5 PUSH2 0xFFFF AND DUP2 MLOAD DUP2 LT PUSH2 0xBB5 JUMPI PUSH2 0xBB5 PUSH2 0x28B1 JUMP JUMPDEST PUSH1 0x20 SWAP1 DUP2 MUL SWAP2 SWAP1 SWAP2 ADD DUP2 ADD MLOAD DUP3 MSTORE DUP2 ADD SWAP2 SWAP1 SWAP2 MSTORE PUSH1 0x40 ADD PUSH1 0x0 KECCAK256 SLOAD PUSH1 0x1 PUSH1 0x1 PUSH1 0xA0 SHL SUB AND EQ DUP1 ISZERO PUSH2 0xC37 JUMPI POP PUSH1 0x1 PUSH1 0x2 PUSH1 0x0 DUP8 DUP5 PUSH2 0xFFFF AND DUP2 MLOAD DUP2 LT PUSH2 0xBFD JUMPI PUSH2 0xBFD PUSH2 0x28B1 JUMP JUMPDEST PUSH1 0x20 MUL PUSH1 0x20 ADD ADD MLOAD DUP2 MSTORE PUSH1 0x20 ADD SWAP1 DUP2 MSTORE PUSH1 0x20 ADD PUSH1 0x0 KECCAK256 PUSH1 0x7 ADD PUSH1 0x14 SWAP1 SLOAD SWAP1 PUSH2 0x100 EXP SWAP1 DIV PUSH1 0xFF AND PUSH1 0x3 DUP2 GT ISZERO PUSH2 0xC35 JUMPI PUSH2 0xC35 PUSH2 0x20CD JUMP JUMPDEST EQ JUMPDEST ISZERO PUSH2 0xCC0 JUMPI PUSH1 0x0 PUSH1 0x2 PUSH1 0x0 DUP8 DUP5 PUSH2 0xFFFF AND DUP2 MLOAD DUP2 LT PUSH2 0xC58 JUMPI PUSH2 0xC58 PUSH2 0x28B1 JUMP JUMPDEST PUSH1 0x20 MUL PUSH1 0x20 ADD ADD MLOAD DUP2 MSTORE PUSH1 0x20 ADD SWAP1 DUP2 MSTORE PUSH1 0x20 ADD PUSH1 0x0 KECCAK256 PUSH1 0x7 ADD PUSH1 0x14 PUSH2 0x100 EXP DUP2 SLOAD DUP2 PUSH1 0xFF MUL NOT AND SWAP1 DUP4 PUSH1 0x3 DUP2 GT ISZERO PUSH2 0xC92 JUMPI PUSH2 0xC92 PUSH2 0x20CD JUMP JUMPDEST MUL OR SWAP1 SSTORE POP PUSH1 0x1 DUP3 DUP3 PUSH2 0xFFFF AND DUP2 MLOAD DUP2 LT PUSH2 0xCAF JUMPI PUSH2 0xCAF PUSH2 0x28B1 JUMP JUMPDEST SWAP2 ISZERO ISZERO PUSH1 0x20 SWAP3 DUP4 MUL SWAP2 SWAP1 SWAP2 ADD SWAP1 SWAP2 ADD MSTORE JUMPDEST DUP1 PUSH2 0xCCA DUP2 PUSH2 0x292A JUMP JUMPDEST SWAP2 POP POP PUSH2 0xB84 JUMP JUMPDEST POP SWAP5 SWAP4 POP POP POP POP JUMP JUMPDEST PUSH1 0x0 DUP3 DUP2 MSTORE PUSH1 0x20 DUP2 SWAP1 MSTORE PUSH1 0x40 SWAP1 KECCAK256 PUSH1 0x1 ADD SLOAD PUSH2 0xCF6 DUP2 PUSH2 0x1A51 JUMP JUMPDEST PUSH2 0xD00 DUP4 DUP4 PUSH2 0x1AC2 JUMP JUMPDEST POP PUSH1 0x0 SWAP2 DUP3 MSTORE PUSH1 0x1 PUSH1 0x20 DUP2 DUP2 MSTORE PUSH1 0x40 DUP5 KECCAK256 DUP1 SLOAD SWAP3 DUP4 ADD DUP2 SSTORE DUP5 MSTORE SWAP1 SWAP3 KECCAK256 SWAP1 SWAP2 ADD DUP1 SLOAD PUSH1 0x1 PUSH1 0x1 PUSH1 0xA0 SHL SUB NOT AND PUSH1 0x1 PUSH1 0x1 PUSH1 0xA0 SHL SUB SWAP1 SWAP3 AND SWAP2 SWAP1 SWAP2 OR SWAP1 SSTORE JUMP JUMPDEST PUSH1 0x1 PUSH1 0x1 PUSH1 0xA0 SHL SUB DUP2 AND CALLER EQ PUSH2 0xDB4 JUMPI PUSH1 0x40 MLOAD PUSH3 0x461BCD PUSH1 0xE5 SHL DUP2 MSTORE PUSH1 0x20 PUSH1 0x4 DUP3 ADD MSTORE PUSH1 0x2F PUSH1 0x24 DUP3 ADD MSTORE PUSH32 0x416363657373436F6E74726F6C3A2063616E206F6E6C792072656E6F756E6365 PUSH1 0x44 DUP3 ADD MSTORE PUSH15 0x103937B632B9903337B91039B2B633 PUSH1 0x89 SHL PUSH1 0x64 DUP3 ADD MSTORE PUSH1 0x84 ADD JUMPDEST PUSH1 0x40 MLOAD DUP1 SWAP2 SUB SWAP1 REVERT JUMPDEST PUSH2 0xDBE DUP3 DUP3 PUSH2 0x1B46 JUMP JUMPDEST POP POP JUMP JUMPDEST PUSH1 0x0 PUSH1 0x0 DUP1 MLOAD PUSH1 0x20 PUSH2 0x2B96 DUP4 CODECOPY DUP2 MLOAD SWAP2 MSTORE PUSH2 0xDDC DUP2 PUSH2 0x1A51 JUMP JUMPDEST TIMESTAMP DUP5 GT PUSH2 0xE2B JUMPI PUSH1 0x40 MLOAD PUSH3 0x461BCD PUSH1 0xE5 SHL DUP2 MSTORE PUSH1 0x20 PUSH1 0x4 DUP3 ADD MSTORE PUSH1 0x1B PUSH1 0x24 DUP3 ADD MSTORE PUSH32 0x506F6F6C436F64653A20496E76616C6964204C6F636B2054696D650000000000 PUSH1 0x44 DUP3 ADD MSTORE PUSH1 0x64 ADD PUSH2 0xDAB JUMP JUMPDEST PUSH1 0x0 DUP6 DUP2 MSTORE PUSH1 0x2 PUSH1 0x20 MSTORE PUSH1 0x40 SWAP1 KECCAK256 PUSH1 0xB ADD SLOAD TIMESTAMP LT ISZERO PUSH2 0xE83 JUMPI PUSH1 0x40 MLOAD PUSH3 0x461BCD PUSH1 0xE5 SHL DUP2 MSTORE PUSH1 0x20 PUSH1 0x4 DUP3 ADD MSTORE PUSH1 0x14 PUSH1 0x24 DUP3 ADD MSTORE PUSH20 0x506F6F6C436F64653A205374696C6C204C6F636B PUSH1 0x60 SHL PUSH1 0x44 DUP3 ADD MSTORE PUSH1 0x64 ADD PUSH2 0xDAB JUMP JUMPDEST PUSH1 0x64 DUP4 GT ISZERO PUSH2 0xED4 JUMPI PUSH1 0x40 MLOAD PUSH3 0x461BCD PUSH1 0xE5 SHL DUP2 MSTORE PUSH1 0x20 PUSH1 0x4 DUP3 ADD MSTORE PUSH1 0x1B PUSH1 0x24 DUP3 ADD MSTORE PUSH32 0x506F6F6C436F64653A20496E76616C6964204C6F636B20526174650000000000 PUSH1 0x44 DUP3 ADD MSTORE PUSH1 0x64 ADD PUSH2 0xDAB JUMP JUMPDEST PUSH1 0x0 DUP6 DUP2 MSTORE PUSH1 0x2 PUSH1 0x20 MSTORE PUSH1 0x40 SWAP1 KECCAK256 SLOAD PUSH1 0x1 PUSH1 0x1 PUSH1 0xA0 SHL SUB DUP8 DUP2 AND SWAP2 AND EQ PUSH2 0xF3D JUMPI PUSH1 0x40 MLOAD PUSH3 0x461BCD PUSH1 0xE5 SHL DUP2 MSTORE PUSH1 0x20 PUSH1 0x4 DUP3 ADD MSTORE PUSH1 0x18 PUSH1 0x24 DUP3 ADD MSTORE PUSH32 0x506F6F6C436F64653A204E6F7420436F6465204F776E65720000000000000000 PUSH1 0x44 DUP3 ADD MSTORE PUSH1 0x64 ADD PUSH2 0xDAB JUMP JUMPDEST PUSH1 0x0 DUP6 DUP2 MSTORE PUSH1 0x2 PUSH1 0x20 MSTORE PUSH1 0x40 SWAP1 KECCAK256 PUSH1 0xB ADD DUP5 SWAP1 SSTORE PUSH2 0xF5C DUP4 PUSH1 0x64 PUSH2 0x294B JUMP JUMPDEST PUSH1 0x0 DUP7 DUP2 MSTORE PUSH1 0x2 PUSH1 0x20 MSTORE PUSH1 0x40 SWAP1 KECCAK256 PUSH1 0xA ADD SSTORE PUSH1 0x1 SWAP2 POP POP SWAP5 SWAP4 POP POP POP POP JUMP JUMPDEST PUSH1 0x0 PUSH1 0x0 DUP1 MLOAD PUSH1 0x20 PUSH2 0x2B96 DUP4 CODECOPY DUP2 MLOAD SWAP2 MSTORE PUSH2 0xF95 DUP2 PUSH2 0x1A51 JUMP JUMPDEST PUSH1 0x0 DUP7 DUP2 MSTORE PUSH1 0x2 PUSH1 0x20 MSTORE PUSH1 0x40 SWAP1 KECCAK256 SLOAD PUSH1 0x1 PUSH1 0x1 PUSH1 0xA0 SHL SUB DUP9 DUP2 AND SWAP2 AND EQ PUSH2 0xFFE JUMPI PUSH1 0x40 MLOAD PUSH3 0x461BCD PUSH1 0xE5 SHL DUP2 MSTORE PUSH1 0x20 PUSH1 0x4 DUP3 ADD MSTORE PUSH1 0x1C PUSH1 0x24 DUP3 ADD MSTORE PUSH32 0x506F6F6C436F64653A20496E76616C69642057616C6C6574204B657900000000 PUSH1 0x44 DUP3 ADD MSTORE PUSH1 0x64 ADD PUSH2 0xDAB JUMP JUMPDEST PUSH1 0x0 DUP7 DUP2 MSTORE PUSH1 0x2 PUSH1 0x20 MSTORE PUSH1 0x40 SWAP1 KECCAK256 PUSH1 0xC ADD SLOAD ISZERO PUSH2 0x109D JUMPI DUP5 DUP5 PUSH1 0x40 MLOAD PUSH1 0x20 ADD PUSH2 0x1028 SWAP3 SWAP2 SWAP1 PUSH2 0x295E JUMP JUMPDEST PUSH1 0x40 DUP1 MLOAD PUSH1 0x1F NOT DUP2 DUP5 SUB ADD DUP2 MSTORE SWAP2 DUP2 MSTORE DUP2 MLOAD PUSH1 0x20 SWAP3 DUP4 ADD KECCAK256 PUSH1 0x0 DUP10 DUP2 MSTORE PUSH1 0x2 SWAP1 SWAP4 MSTORE SWAP2 KECCAK256 PUSH1 0xC ADD SLOAD EQ PUSH2 0x109D JUMPI PUSH1 0x40 MLOAD PUSH3 0x461BCD PUSH1 0xE5 SHL DUP2 MSTORE PUSH1 0x20 PUSH1 0x4 DUP3 ADD MSTORE PUSH1 0x1A PUSH1 0x24 DUP3 ADD MSTORE PUSH32 0x506F6F6C436F64653A20496E76616C6964206B65792068617368000000000000 PUSH1 0x44 DUP3 ADD MSTORE PUSH1 0x64 ADD PUSH2 0xDAB JUMP JUMPDEST POP POP PUSH1 0x0 SWAP4 DUP5 MSTORE PUSH1 0x2 PUSH1 0x20 MSTORE PUSH1 0x40 SWAP1 SWAP4 KECCAK256 PUSH1 0xC ADD SWAP3 SWAP1 SWAP3 SSTORE POP PUSH1 0x1 SWAP3 SWAP2 POP POP JUMP JUMPDEST PUSH1 0x0 PUSH1 0x0 DUP1 MLOAD PUSH1 0x20 PUSH2 0x2B96 DUP4 CODECOPY DUP2 MLOAD SWAP2 MSTORE PUSH2 0x10D8 DUP2 PUSH2 0x1A51 JUMP JUMPDEST PUSH1 0x0 DUP6 DUP2 MSTORE PUSH1 0x2 PUSH1 0x20 MSTORE PUSH1 0x40 SWAP1 KECCAK256 SLOAD PUSH1 0x1 PUSH1 0x1 PUSH1 0xA0 SHL SUB DUP8 DUP2 AND SWAP2 AND EQ PUSH2 0x1141 JUMPI PUSH1 0x40 MLOAD PUSH3 0x461BCD PUSH1 0xE5 SHL DUP2 MSTORE PUSH1 0x20 PUSH1 0x4 DUP3 ADD MSTORE PUSH1 0x1C PUSH1 0x24 DUP3 ADD MSTORE PUSH32 0x506F6F6C436F64653A20496E76616C69642057616C6C6574204B657900000000 PUSH1 0x44 DUP3 ADD MSTORE PUSH1 0x64 ADD PUSH2 0xDAB JUMP JUMPDEST DUP4 DUP4 PUSH1 0x40 MLOAD PUSH1 0x20 ADD PUSH2 0x1154 SWAP3 SWAP2 SWAP1 PUSH2 0x295E JUMP JUMPDEST PUSH1 0x40 DUP1 MLOAD PUSH1 0x1F NOT DUP2 DUP5 SUB ADD DUP2 MSTORE SWAP2 DUP2 MSTORE DUP2 MLOAD PUSH1 0x20 SWAP3 DUP4 ADD KECCAK256 PUSH1 0x0 DUP9 DUP2 MSTORE PUSH1 0x2 SWAP1 SWAP4 MSTORE SWAP2 KECCAK256 PUSH1 0xC ADD SLOAD EQ PUSH2 0x11C9 JUMPI PUSH1 0x40 MLOAD PUSH3 0x461BCD PUSH1 0xE5 SHL DUP2 MSTORE PUSH1 0x20 PUSH1 0x4 DUP3 ADD MSTORE PUSH1 0x1A PUSH1 0x24 DUP3 ADD MSTORE PUSH32 0x506F6F6C436F64653A20496E76616C6964206B65792068617368000000000000 PUSH1 0x44 DUP3 ADD MSTORE PUSH1 0x64 ADD PUSH2 0xDAB JUMP JUMPDEST POP POP POP PUSH1 0x0 SWAP2 DUP3 MSTORE POP PUSH1 0x2 PUSH1 0x20 MSTORE PUSH1 0x40 DUP2 KECCAK256 PUSH1 0xC ADD SSTORE POP PUSH1 0x1 SWAP1 JUMP JUMPDEST PUSH1 0x0 PUSH1 0x0 DUP1 MLOAD PUSH1 0x20 PUSH2 0x2B96 DUP4 CODECOPY DUP2 MLOAD SWAP2 MSTORE PUSH2 0x11FF DUP2 PUSH2 0x1A51 JUMP JUMPDEST PUSH1 0x0 DUP5 PUSH1 0x40 MLOAD PUSH1 0x20 ADD PUSH2 0x1212 SWAP2 SWAP1 PUSH2 0x296E JUMP JUMPDEST PUSH1 0x40 MLOAD PUSH1 0x20 DUP2 DUP4 SUB SUB DUP2 MSTORE SWAP1 PUSH1 0x40 MSTORE DUP1 MLOAD SWAP1 PUSH1 0x20 ADD KECCAK256 SWAP1 POP PUSH2 0x1233 DUP2 PUSH2 0x1A5E JUMP JUMPDEST PUSH1 0x0 DUP2 DUP2 MSTORE PUSH1 0x2 PUSH1 0x20 MSTORE PUSH1 0x40 SWAP1 KECCAK256 PUSH1 0x3 ADD SLOAD TIMESTAMP GT ISZERO PUSH2 0x129E JUMPI PUSH1 0x40 MLOAD PUSH3 0x461BCD PUSH1 0xE5 SHL DUP2 MSTORE PUSH1 0x20 PUSH1 0x4 DUP3 ADD MSTORE PUSH1 0x21 PUSH1 0x24 DUP3 ADD MSTORE PUSH32 0x506F6F6C436F64653A20457870697265642041637469766174696F6E2054696D PUSH1 0x44 DUP3 ADD MSTORE PUSH1 0x65 PUSH1 0xF8 SHL PUSH1 0x64 DUP3 ADD MSTORE PUSH1 0x84 ADD PUSH2 0xDAB JUMP JUMPDEST PUSH1 0x1 PUSH1 0x0 DUP3 DUP2 MSTORE PUSH1 0x2 PUSH1 0x20 MSTORE PUSH1 0x40 SWAP1 KECCAK256 PUSH1 0x7 ADD SLOAD PUSH1 0x1 PUSH1 0xA0 SHL SWAP1 DIV PUSH1 0xFF AND PUSH1 0x3 DUP2 GT ISZERO PUSH2 0x12CD JUMPI PUSH2 0x12CD PUSH2 0x20CD JUMP JUMPDEST EQ PUSH2 0x131A JUMPI PUSH1 0x40 MLOAD PUSH3 0x461BCD PUSH1 0xE5 SHL DUP2 MSTORE PUSH1 0x20 PUSH1 0x4 DUP3 ADD MSTORE PUSH1 0x1C PUSH1 0x24 DUP3 ADD MSTORE PUSH32 0x506F6F6C436F64653A204E6F7420556E626C6F636B656420436F646500000000 PUSH1 0x44 DUP3 ADD MSTORE PUSH1 0x64 ADD PUSH2 0xDAB JUMP JUMPDEST PUSH1 0x0 DUP2 DUP2 MSTORE PUSH1 0x2 PUSH1 0x20 MSTORE PUSH1 0x40 SWAP1 KECCAK256 SLOAD PUSH2 0x133C SWAP1 PUSH1 0x1 PUSH1 0x1 PUSH1 0xA0 SHL SUB AND DUP3 PUSH2 0x1BAB JUMP JUMPDEST PUSH1 0x0 DUP2 DUP2 MSTORE PUSH1 0x2 PUSH1 0x20 DUP2 DUP2 MSTORE PUSH1 0x40 DUP1 DUP5 KECCAK256 PUSH1 0x7 DUP2 ADD DUP1 SLOAD PUSH1 0xFF PUSH1 0xA0 SHL NOT AND PUSH1 0x1 PUSH1 0xA1 SHL OR SWAP1 SSTORE TIMESTAMP SWAP4 DUP2 ADD SWAP4 SWAP1 SWAP4 SSTORE DUP3 SLOAD PUSH1 0x1 PUSH1 0x1 PUSH1 0xA0 SHL SUB NOT AND PUSH1 0x1 PUSH1 0x1 PUSH1 0xA0 SHL SUB SWAP9 SWAP1 SWAP9 AND SWAP8 DUP9 OR SWAP1 SWAP3 SSTORE SWAP6 DUP3 MSTORE PUSH1 0x3 DUP7 MSTORE DUP2 KECCAK256 DUP1 SLOAD PUSH1 0x1 DUP2 DUP2 ADD DUP4 SSTORE SWAP2 DUP4 MSTORE SWAP6 SWAP1 SWAP2 KECCAK256 SWAP1 SWAP5 ADD SSTORE POP SWAP1 SWAP3 SWAP2 POP POP JUMP JUMPDEST PUSH1 0x0 SWAP2 DUP3 MSTORE PUSH1 0x20 DUP3 DUP2 MSTORE PUSH1 0x40 DUP1 DUP5 KECCAK256 PUSH1 0x1 PUSH1 0x1 PUSH1 0xA0 SHL SUB SWAP4 SWAP1 SWAP4 AND DUP5 MSTORE SWAP2 SWAP1 MSTORE SWAP1 KECCAK256 SLOAD PUSH1 0xFF AND SWAP1 JUMP JUMPDEST PUSH1 0x60 PUSH1 0x0 DUP1 MLOAD PUSH1 0x20 PUSH2 0x2B96 DUP4 CODECOPY DUP2 MLOAD SWAP2 MSTORE PUSH2 0x13F0 DUP2 PUSH2 0x1A51 JUMP JUMPDEST PUSH1 0x0 DUP4 MLOAD PUSH1 0x1 PUSH1 0x1 PUSH1 0x40 SHL SUB DUP2 GT ISZERO PUSH2 0x140B JUMPI PUSH2 0x140B PUSH2 0x2323 JUMP JUMPDEST PUSH1 0x40 MLOAD SWAP1 DUP1 DUP3 MSTORE DUP1 PUSH1 0x20 MUL PUSH1 0x20 ADD DUP3 ADD PUSH1 0x40 MSTORE DUP1 ISZERO PUSH2 0x1434 JUMPI DUP2 PUSH1 0x20 ADD PUSH1 0x20 DUP3 MUL DUP1 CALLDATASIZE DUP4 CALLDATACOPY ADD SWAP1 POP JUMPDEST POP SWAP1 POP PUSH1 0x0 JUMPDEST DUP5 MLOAD DUP2 PUSH2 0xFFFF AND LT ISZERO PUSH2 0xCD2 JUMPI DUP6 PUSH1 0x1 PUSH1 0x1 PUSH1 0xA0 SHL SUB AND PUSH1 0x2 PUSH1 0x0 DUP8 DUP5 PUSH2 0xFFFF AND DUP2 MLOAD DUP2 LT PUSH2 0x146B JUMPI PUSH2 0x146B PUSH2 0x28B1 JUMP JUMPDEST PUSH1 0x20 SWAP1 DUP2 MUL SWAP2 SWAP1 SWAP2 ADD DUP2 ADD MLOAD DUP3 MSTORE DUP2 ADD SWAP2 SWAP1 SWAP2 MSTORE PUSH1 0x40 ADD PUSH1 0x0 KECCAK256 SLOAD PUSH1 0x1 PUSH1 0x1 PUSH1 0xA0 SHL SUB AND EQ DUP1 ISZERO PUSH2 0x14ED JUMPI POP PUSH1 0x0 PUSH1 0x2 PUSH1 0x0 DUP8 DUP5 PUSH2 0xFFFF AND DUP2 MLOAD DUP2 LT PUSH2 0x14B3 JUMPI PUSH2 0x14B3 PUSH2 0x28B1 JUMP JUMPDEST PUSH1 0x20 MUL PUSH1 0x20 ADD ADD MLOAD DUP2 MSTORE PUSH1 0x20 ADD SWAP1 DUP2 MSTORE PUSH1 0x20 ADD PUSH1 0x0 KECCAK256 PUSH1 0x7 ADD PUSH1 0x14 SWAP1 SLOAD SWAP1 PUSH2 0x100 EXP SWAP1 DIV PUSH1 0xFF AND PUSH1 0x3 DUP2 GT ISZERO PUSH2 0x14EB JUMPI PUSH2 0x14EB PUSH2 0x20CD JUMP JUMPDEST EQ JUMPDEST ISZERO PUSH2 0x1576 JUMPI PUSH1 0x1 PUSH1 0x2 PUSH1 0x0 DUP8 DUP5 PUSH2 0xFFFF AND DUP2 MLOAD DUP2 LT PUSH2 0x150E JUMPI PUSH2 0x150E PUSH2 0x28B1 JUMP JUMPDEST PUSH1 0x20 MUL PUSH1 0x20 ADD ADD MLOAD DUP2 MSTORE PUSH1 0x20 ADD SWAP1 DUP2 MSTORE PUSH1 0x20 ADD PUSH1 0x0 KECCAK256 PUSH1 0x7 ADD PUSH1 0x14 PUSH2 0x100 EXP DUP2 SLOAD DUP2 PUSH1 0xFF MUL NOT AND SWAP1 DUP4 PUSH1 0x3 DUP2 GT ISZERO PUSH2 0x1548 JUMPI PUSH2 0x1548 PUSH2 0x20CD JUMP JUMPDEST MUL OR SWAP1 SSTORE POP PUSH1 0x1 DUP3 DUP3 PUSH2 0xFFFF AND DUP2 MLOAD DUP2 LT PUSH2 0x1565 JUMPI PUSH2 0x1565 PUSH2 0x28B1 JUMP JUMPDEST SWAP2 ISZERO ISZERO PUSH1 0x20 SWAP3 DUP4 MUL SWAP2 SWAP1 SWAP2 ADD SWAP1 SWAP2 ADD MSTORE JUMPDEST DUP1 PUSH2 0x1580 DUP2 PUSH2 0x292A JUMP JUMPDEST SWAP2 POP POP PUSH2 0x143A JUMP JUMPDEST PUSH1 0x0 DUP3 DUP2 MSTORE PUSH1 0x20 DUP2 SWAP1 MSTORE PUSH1 0x40 SWAP1 KECCAK256 PUSH1 0x1 ADD SLOAD PUSH2 0x15A3 DUP2 PUSH2 0x1A51 JUMP JUMPDEST PUSH2 0x15AD DUP4 DUP4 PUSH2 0x1B46 JUMP JUMPDEST PUSH1 0x0 JUMPDEST PUSH1 0x0 DUP5 DUP2 MSTORE PUSH1 0x1 PUSH1 0x20 MSTORE PUSH1 0x40 SWAP1 KECCAK256 SLOAD PUSH1 0xFF DUP3 AND GT ISZERO PUSH2 0x16F9 JUMPI PUSH1 0x0 DUP5 DUP2 MSTORE PUSH1 0x1 PUSH1 0x20 MSTORE PUSH1 0x40 SWAP1 KECCAK256 DUP1 SLOAD PUSH1 0x1 PUSH1 0x1 PUSH1 0xA0 SHL SUB DUP6 AND SWAP2 SWAP1 PUSH1 0xFF DUP5 AND SWAP1 DUP2 LT PUSH2 0x15F8 JUMPI PUSH2 0x15F8 PUSH2 0x28B1 JUMP JUMPDEST PUSH1 0x0 SWAP2 DUP3 MSTORE PUSH1 0x20 SWAP1 SWAP2 KECCAK256 ADD SLOAD PUSH1 0x1 PUSH1 0x1 PUSH1 0xA0 SHL SUB AND SUB PUSH2 0x16E7 JUMPI PUSH1 0x0 DUP5 DUP2 MSTORE PUSH1 0x1 PUSH1 0x20 DUP2 SWAP1 MSTORE PUSH1 0x40 SWAP1 SWAP2 KECCAK256 DUP1 SLOAD SWAP1 SWAP2 PUSH2 0x1630 SWAP2 PUSH2 0x294B JUMP JUMPDEST DUP2 SLOAD DUP2 LT PUSH2 0x1640 JUMPI PUSH2 0x1640 PUSH2 0x28B1 JUMP JUMPDEST PUSH1 0x0 SWAP2 DUP3 MSTORE PUSH1 0x20 DUP1 DUP4 KECCAK256 SWAP1 SWAP2 ADD SLOAD DUP7 DUP4 MSTORE PUSH1 0x1 SWAP1 SWAP2 MSTORE PUSH1 0x40 SWAP1 SWAP2 KECCAK256 DUP1 SLOAD PUSH1 0x1 PUSH1 0x1 PUSH1 0xA0 SHL SUB SWAP1 SWAP3 AND SWAP2 PUSH1 0xFF DUP5 AND SWAP1 DUP2 LT PUSH2 0x167C JUMPI PUSH2 0x167C PUSH2 0x28B1 JUMP JUMPDEST PUSH1 0x0 SWAP2 DUP3 MSTORE PUSH1 0x20 DUP1 DUP4 KECCAK256 SWAP2 SWAP1 SWAP2 ADD DUP1 SLOAD PUSH1 0x1 PUSH1 0x1 PUSH1 0xA0 SHL SUB NOT AND PUSH1 0x1 PUSH1 0x1 PUSH1 0xA0 SHL SUB SWAP5 SWAP1 SWAP5 AND SWAP4 SWAP1 SWAP4 OR SWAP1 SWAP3 SSTORE DUP6 DUP2 MSTORE PUSH1 0x1 SWAP1 SWAP2 MSTORE PUSH1 0x40 SWAP1 KECCAK256 DUP1 SLOAD DUP1 PUSH2 0x16C4 JUMPI PUSH2 0x16C4 PUSH2 0x298A JUMP JUMPDEST PUSH1 0x0 DUP3 DUP2 MSTORE PUSH1 0x20 SWAP1 KECCAK256 DUP2 ADD PUSH1 0x0 NOT SWAP1 DUP2 ADD DUP1 SLOAD PUSH1 0x1 PUSH1 0x1 PUSH1 0xA0 SHL SUB NOT AND SWAP1 SSTORE ADD SWAP1 SSTORE JUMPDEST DUP1 PUSH2 0x16F1 DUP2 PUSH2 0x29A0 JUMP JUMPDEST SWAP2 POP POP PUSH2 0x15B0 JUMP JUMPDEST POP POP POP POP JUMP JUMPDEST PUSH1 0x0 PUSH1 0x0 DUP1 MLOAD PUSH1 0x20 PUSH2 0x2B96 DUP4 CODECOPY DUP2 MLOAD SWAP2 MSTORE PUSH2 0x1719 DUP2 PUSH2 0x1A51 JUMP JUMPDEST PUSH2 0x1726 DUP4 PUSH1 0x20 ADD MLOAD PUSH2 0x1A5E JUMP JUMPDEST PUSH1 0x20 DUP1 DUP5 ADD DUP1 MLOAD PUSH1 0x0 SWAP1 DUP2 MSTORE PUSH1 0x2 SWAP3 DUP4 SWAP1 MSTORE PUSH1 0x40 SWAP1 DUP2 SWAP1 KECCAK256 DUP7 MLOAD DUP2 SLOAD PUSH1 0x1 PUSH1 0x1 PUSH1 0xA0 SHL SUB SWAP2 DUP3 AND PUSH1 0x1 PUSH1 0x1 PUSH1 0xA0 SHL SUB NOT SWAP2 DUP3 AND OR DUP4 SSTORE SWAP4 MLOAD PUSH1 0x1 DUP4 ADD SSTORE SWAP2 DUP8 ADD MLOAD SWAP4 DUP2 ADD SWAP4 SWAP1 SWAP4 SSTORE PUSH1 0x60 DUP7 ADD MLOAD PUSH1 0x3 DUP1 DUP6 ADD SWAP2 SWAP1 SWAP2 SSTORE PUSH1 0x80 DUP8 ADD MLOAD PUSH1 0x4 DUP6 ADD SSTORE PUSH1 0xA0 DUP8 ADD MLOAD PUSH1 0x5 DUP6 ADD SSTORE PUSH1 0xC0 DUP8 ADD MLOAD PUSH1 0x6 DUP6 ADD SSTORE PUSH1 0xE0 DUP8 ADD MLOAD PUSH1 0x7 DUP6 ADD DUP1 SLOAD SWAP2 SWAP1 SWAP4 AND SWAP4 DUP2 AND DUP5 OR DUP4 SSTORE PUSH2 0x100 DUP9 ADD MLOAD DUP9 SWAP6 SWAP5 SWAP1 SWAP4 SWAP3 PUSH1 0x1 PUSH1 0x1 PUSH1 0xA8 SHL SUB NOT SWAP1 SWAP3 AND OR SWAP1 PUSH1 0x1 PUSH1 0xA0 SHL SWAP1 DUP5 SWAP1 DUP2 GT ISZERO PUSH2 0x17E1 JUMPI PUSH2 0x17E1 PUSH2 0x20CD JUMP JUMPDEST MUL OR SWAP1 SSTORE POP PUSH2 0x120 DUP3 ADD MLOAD PUSH1 0x8 DUP3 ADD SWAP1 PUSH2 0x17FB SWAP1 DUP3 PUSH2 0x2A0D JUMP JUMPDEST POP PUSH2 0x140 DUP3 ADD MLOAD PUSH1 0x9 DUP3 ADD SSTORE PUSH2 0x160 DUP3 ADD MLOAD PUSH1 0xA DUP3 ADD SSTORE PUSH2 0x180 DUP3 ADD MLOAD PUSH1 0xB DUP3 ADD SSTORE PUSH2 0x1A0 DUP3 ADD MLOAD PUSH1 0xC DUP3 ADD SSTORE PUSH2 0x1C0 DUP3 ADD MLOAD PUSH1 0xD DUP3 ADD SWAP1 PUSH2 0x183D SWAP1 DUP3 PUSH2 0x2A0D JUMP JUMPDEST POP PUSH2 0x1E0 DUP3 ADD MLOAD DUP1 MLOAD PUSH2 0x185A SWAP2 PUSH1 0xE DUP5 ADD SWAP2 PUSH1 0x20 SWAP1 SWAP2 ADD SWAP1 PUSH2 0x1FCB JUMP JUMPDEST POP PUSH1 0x1 SWAP6 SWAP5 POP POP POP POP POP JUMP JUMPDEST PUSH1 0x0 PUSH1 0x0 DUP1 MLOAD PUSH1 0x20 PUSH2 0x2B96 DUP4 CODECOPY DUP2 MLOAD SWAP2 MSTORE PUSH2 0x1880 DUP2 PUSH2 0x1A51 JUMP JUMPDEST PUSH1 0x20 DUP1 DUP5 ADD MLOAD PUSH1 0x0 SWAP1 DUP2 MSTORE PUSH1 0x2 SWAP1 SWAP2 MSTORE PUSH1 0x40 SWAP1 KECCAK256 SLOAD PUSH1 0x1 PUSH1 0x1 PUSH1 0xA0 SHL SUB AND ISZERO PUSH2 0x18E2 JUMPI PUSH1 0x40 MLOAD PUSH3 0x461BCD PUSH1 0xE5 SHL DUP2 MSTORE PUSH1 0x20 PUSH1 0x4 DUP3 ADD MSTORE PUSH1 0x14 PUSH1 0x24 DUP3 ADD MSTORE PUSH20 0x141BDBDB10DBD9194E8810DBD91948115E1A5CDD PUSH1 0x62 SHL PUSH1 0x44 DUP3 ADD MSTORE PUSH1 0x64 ADD PUSH2 0xDAB JUMP JUMPDEST PUSH1 0x20 DUP1 DUP5 ADD DUP1 MLOAD PUSH1 0x0 SWAP1 DUP2 MSTORE PUSH1 0x2 SWAP3 DUP4 SWAP1 MSTORE PUSH1 0x40 SWAP1 DUP2 SWAP1 KECCAK256 DUP7 MLOAD DUP2 SLOAD PUSH1 0x1 PUSH1 0x1 PUSH1 0xA0 SHL SUB SWAP2 DUP3 AND PUSH1 0x1 PUSH1 0x1 PUSH1 0xA0 SHL SUB NOT SWAP2 DUP3 AND OR DUP4 SSTORE SWAP4 MLOAD PUSH1 0x1 DUP4 ADD SSTORE SWAP2 DUP8 ADD MLOAD SWAP4 DUP2 ADD SWAP4 SWAP1 SWAP4 SSTORE PUSH1 0x60 DUP7 ADD MLOAD PUSH1 0x3 DUP1 DUP6 ADD SWAP2 SWAP1 SWAP2 SSTORE PUSH1 0x80 DUP8 ADD MLOAD PUSH1 0x4 DUP6 ADD SSTORE PUSH1 0xA0 DUP8 ADD MLOAD PUSH1 0x5 DUP6 ADD SSTORE PUSH1 0xC0 DUP8 ADD MLOAD PUSH1 0x6 DUP6 ADD SSTORE PUSH1 0xE0 DUP8 ADD MLOAD PUSH1 0x7 DUP6 ADD DUP1 SLOAD SWAP2 SWAP1 SWAP4 AND SWAP4 DUP2 AND DUP5 OR DUP4 SSTORE PUSH2 0x100 DUP9 ADD MLOAD DUP9 SWAP6 SWAP5 SWAP1 SWAP4 SWAP3 PUSH1 0x1 PUSH1 0x1 PUSH1 0xA8 SHL SUB NOT SWAP1 SWAP3 AND OR SWAP1 PUSH1 0x1 PUSH1 0xA0 SHL SWAP1 DUP5 SWAP1 DUP2 GT ISZERO PUSH2 0x199D JUMPI PUSH2 0x199D PUSH2 0x20CD JUMP JUMPDEST MUL OR SWAP1 SSTORE POP PUSH2 0x120 DUP3 ADD MLOAD PUSH1 0x8 DUP3 ADD SWAP1 PUSH2 0x19B7 SWAP1 DUP3 PUSH2 0x2A0D JUMP JUMPDEST POP PUSH2 0x140 DUP3 ADD MLOAD PUSH1 0x9 DUP3 ADD SSTORE PUSH2 0x160 DUP3 ADD MLOAD PUSH1 0xA DUP3 ADD SSTORE PUSH2 0x180 DUP3 ADD MLOAD PUSH1 0xB DUP3 ADD SSTORE PUSH2 0x1A0 DUP3 ADD MLOAD PUSH1 0xC DUP3 ADD SSTORE PUSH2 0x1C0 DUP3 ADD MLOAD PUSH1 0xD DUP3 ADD SWAP1 PUSH2 0x19F9 SWAP1 DUP3 PUSH2 0x2A0D JUMP JUMPDEST POP PUSH2 0x1E0 DUP3 ADD MLOAD DUP1 MLOAD PUSH2 0x1A16 SWAP2 PUSH1 0xE DUP5 ADD SWAP2 PUSH1 0x20 SWAP1 SWAP2 ADD SWAP1 PUSH2 0x1FCB JUMP JUMPDEST POP POP DUP4 MLOAD PUSH1 0x1 PUSH1 0x1 PUSH1 0xA0 SHL SUB AND PUSH1 0x0 SWAP1 DUP2 MSTORE PUSH1 0x3 PUSH1 0x20 SWAP1 DUP2 MSTORE PUSH1 0x40 DUP3 KECCAK256 SWAP6 DUP2 ADD MLOAD DUP7 SLOAD PUSH1 0x1 DUP1 DUP3 ADD DUP10 SSTORE SWAP8 DUP5 MSTORE SWAP2 SWAP1 SWAP3 KECCAK256 ADD SSTORE POP SWAP2 SWAP3 SWAP2 POP POP JUMP JUMPDEST PUSH2 0x1A5B DUP2 CALLER PUSH2 0x1CE5 JUMP JUMPDEST POP JUMP JUMPDEST PUSH1 0x0 DUP2 DUP2 MSTORE PUSH1 0x2 PUSH1 0x20 MSTORE PUSH1 0x40 SWAP1 KECCAK256 SLOAD PUSH1 0x1 PUSH1 0x1 PUSH1 0xA0 SHL SUB AND PUSH2 0x1A5B JUMPI PUSH1 0x40 MLOAD PUSH3 0x461BCD PUSH1 0xE5 SHL DUP2 MSTORE PUSH1 0x20 PUSH1 0x4 DUP3 ADD MSTORE PUSH1 0x18 PUSH1 0x24 DUP3 ADD MSTORE PUSH32 0x506F6F6C436F64653A20436F6465204E6F742045786973740000000000000000 PUSH1 0x44 DUP3 ADD MSTORE PUSH1 0x64 ADD PUSH2 0xDAB JUMP JUMPDEST PUSH2 0x1ACC DUP3 DUP3 PUSH2 0x13AD JUMP JUMPDEST PUSH2 0xDBE JUMPI PUSH1 0x0 DUP3 DUP2 MSTORE PUSH1 0x20 DUP2 DUP2 MSTORE PUSH1 0x40 DUP1 DUP4 KECCAK256 PUSH1 0x1 PUSH1 0x1 PUSH1 0xA0 SHL SUB DUP6 AND DUP5 MSTORE SWAP1 SWAP2 MSTORE SWAP1 KECCAK256 DUP1 SLOAD PUSH1 0xFF NOT AND PUSH1 0x1 OR SWAP1 SSTORE PUSH2 0x1B02 CALLER SWAP1 JUMP JUMPDEST PUSH1 0x1 PUSH1 0x1 PUSH1 0xA0 SHL SUB AND DUP2 PUSH1 0x1 PUSH1 0x1 PUSH1 0xA0 SHL SUB AND DUP4 PUSH32 0x2F8788117E7EFF1D82E926EC794901D17C78024A50270940304540A733656F0D PUSH1 0x40 MLOAD PUSH1 0x40 MLOAD DUP1 SWAP2 SUB SWAP1 LOG4 POP POP JUMP JUMPDEST PUSH2 0x1B50 DUP3 DUP3 PUSH2 0x13AD JUMP JUMPDEST ISZERO PUSH2 0xDBE JUMPI PUSH1 0x0 DUP3 DUP2 MSTORE PUSH1 0x20 DUP2 DUP2 MSTORE PUSH1 0x40 DUP1 DUP4 KECCAK256 PUSH1 0x1 PUSH1 0x1 PUSH1 0xA0 SHL SUB DUP6 AND DUP1 DUP6 MSTORE SWAP3 MSTORE DUP1 DUP4 KECCAK256 DUP1 SLOAD PUSH1 0xFF NOT AND SWAP1 SSTORE MLOAD CALLER SWAP3 DUP6 SWAP2 PUSH32 0xF6391F5C32D9C69D2A47EA670B442974B53935D1EDC7FD64EB21E047A839171B SWAP2 SWAP1 LOG4 POP POP JUMP JUMPDEST PUSH1 0x0 JUMPDEST PUSH1 0x1 PUSH1 0x1 PUSH1 0xA0 SHL SUB DUP4 AND PUSH1 0x0 SWAP1 DUP2 MSTORE PUSH1 0x3 PUSH1 0x20 MSTORE PUSH1 0x40 SWAP1 KECCAK256 SLOAD DUP2 LT ISZERO PUSH2 0x1CE0 JUMPI PUSH1 0x1 PUSH1 0x1 PUSH1 0xA0 SHL SUB DUP4 AND PUSH1 0x0 SWAP1 DUP2 MSTORE PUSH1 0x3 PUSH1 0x20 MSTORE PUSH1 0x40 SWAP1 KECCAK256 DUP1 SLOAD DUP4 SWAP2 SWAP1 DUP4 SWAP1 DUP2 LT PUSH2 0x1BFB JUMPI PUSH2 0x1BFB PUSH2 0x28B1 JUMP JUMPDEST SWAP1 PUSH1 0x0 MSTORE PUSH1 0x20 PUSH1 0x0 KECCAK256 ADD SLOAD SUB PUSH2 0x1CCE JUMPI PUSH1 0x1 PUSH1 0x1 PUSH1 0xA0 SHL SUB DUP4 AND PUSH1 0x0 SWAP1 DUP2 MSTORE PUSH1 0x3 PUSH1 0x20 MSTORE PUSH1 0x40 SWAP1 KECCAK256 DUP1 SLOAD PUSH2 0x1C31 SWAP1 PUSH1 0x1 SWAP1 PUSH2 0x294B JUMP JUMPDEST DUP2 SLOAD DUP2 LT PUSH2 0x1C41 JUMPI PUSH2 0x1C41 PUSH2 0x28B1 JUMP JUMPDEST SWAP1 PUSH1 0x0 MSTORE PUSH1 0x20 PUSH1 0x0 KECCAK256 ADD SLOAD PUSH1 0x3 PUSH1 0x0 DUP6 PUSH1 0x1 PUSH1 0x1 PUSH1 0xA0 SHL SUB AND PUSH1 0x1 PUSH1 0x1 PUSH1 0xA0 SHL SUB AND DUP2 MSTORE PUSH1 0x20 ADD SWAP1 DUP2 MSTORE PUSH1 0x20 ADD PUSH1 0x0 KECCAK256 DUP3 DUP2 SLOAD DUP2 LT PUSH2 0x1C82 JUMPI PUSH2 0x1C82 PUSH2 0x28B1 JUMP JUMPDEST PUSH1 0x0 SWAP2 DUP3 MSTORE PUSH1 0x20 DUP1 DUP4 KECCAK256 SWAP1 SWAP2 ADD SWAP3 SWAP1 SWAP3 SSTORE PUSH1 0x1 PUSH1 0x1 PUSH1 0xA0 SHL SUB DUP6 AND DUP2 MSTORE PUSH1 0x3 SWAP1 SWAP2 MSTORE PUSH1 0x40 SWAP1 KECCAK256 DUP1 SLOAD DUP1 PUSH2 0x1CB7 JUMPI PUSH2 0x1CB7 PUSH2 0x298A JUMP JUMPDEST PUSH1 0x1 SWAP1 SUB DUP2 DUP2 SWAP1 PUSH1 0x0 MSTORE PUSH1 0x20 PUSH1 0x0 KECCAK256 ADD PUSH1 0x0 SWAP1 SSTORE SWAP1 SSTORE JUMPDEST DUP1 PUSH2 0x1CD8 DUP2 PUSH2 0x2911 JUMP JUMPDEST SWAP2 POP POP PUSH2 0x1BAE JUMP JUMPDEST POP POP POP JUMP JUMPDEST PUSH2 0x1CEF DUP3 DUP3 PUSH2 0x13AD JUMP JUMPDEST PUSH2 0xDBE JUMPI PUSH2 0x1CFC DUP2 PUSH2 0x1D3E JUMP JUMPDEST PUSH2 0x1D07 DUP4 PUSH1 0x20 PUSH2 0x1D50 JUMP JUMPDEST PUSH1 0x40 MLOAD PUSH1 0x20 ADD PUSH2 0x1D18 SWAP3 SWAP2 SWAP1 PUSH2 0x2ACC JUMP JUMPDEST PUSH1 0x40 DUP1 MLOAD PUSH1 0x1F NOT DUP2 DUP5 SUB ADD DUP2 MSTORE SWAP1 DUP3 SWAP1 MSTORE PUSH3 0x461BCD PUSH1 0xE5 SHL DUP3 MSTORE PUSH2 0xDAB SWAP2 PUSH1 0x4 ADD PUSH2 0x2B41 JUMP JUMPDEST PUSH1 0x60 PUSH2 0x331 PUSH1 0x1 PUSH1 0x1 PUSH1 0xA0 SHL SUB DUP4 AND PUSH1 0x14 JUMPDEST PUSH1 0x60 PUSH1 0x0 PUSH2 0x1D5F DUP4 PUSH1 0x2 PUSH2 0x2B54 JUMP JUMPDEST PUSH2 0x1D6A SWAP1 PUSH1 0x2 PUSH2 0x2B6B JUMP JUMPDEST PUSH1 0x1 PUSH1 0x1 PUSH1 0x40 SHL SUB DUP2 GT ISZERO PUSH2 0x1D81 JUMPI PUSH2 0x1D81 PUSH2 0x2323 JUMP JUMPDEST PUSH1 0x40 MLOAD SWAP1 DUP1 DUP3 MSTORE DUP1 PUSH1 0x1F ADD PUSH1 0x1F NOT AND PUSH1 0x20 ADD DUP3 ADD PUSH1 0x40 MSTORE DUP1 ISZERO PUSH2 0x1DAB JUMPI PUSH1 0x20 DUP3 ADD DUP2 DUP1 CALLDATASIZE DUP4 CALLDATACOPY ADD SWAP1 POP JUMPDEST POP SWAP1 POP PUSH1 0x3 PUSH1 0xFC SHL DUP2 PUSH1 0x0 DUP2 MLOAD DUP2 LT PUSH2 0x1DC6 JUMPI PUSH2 0x1DC6 PUSH2 0x28B1 JUMP JUMPDEST PUSH1 0x20 ADD ADD SWAP1 PUSH1 0x1 PUSH1 0x1 PUSH1 0xF8 SHL SUB NOT AND SWAP1 DUP2 PUSH1 0x0 BYTE SWAP1 MSTORE8 POP PUSH1 0xF PUSH1 0xFB SHL DUP2 PUSH1 0x1 DUP2 MLOAD DUP2 LT PUSH2 0x1DF5 JUMPI PUSH2 0x1DF5 PUSH2 0x28B1 JUMP JUMPDEST PUSH1 0x20 ADD ADD SWAP1 PUSH1 0x1 PUSH1 0x1 PUSH1 0xF8 SHL SUB NOT AND SWAP1 DUP2 PUSH1 0x0 BYTE SWAP1 MSTORE8 POP PUSH1 0x0 PUSH2 0x1E19 DUP5 PUSH1 0x2 PUSH2 0x2B54 JUMP JUMPDEST PUSH2 0x1E24 SWAP1 PUSH1 0x1 PUSH2 0x2B6B JUMP JUMPDEST SWAP1 POP JUMPDEST PUSH1 0x1 DUP2 GT ISZERO PUSH2 0x1E9C JUMPI PUSH16 0x181899199A1A9B1B9C1CB0B131B232B3 PUSH1 0x81 SHL DUP6 PUSH1 0xF AND PUSH1 0x10 DUP2 LT PUSH2 0x1E58 JUMPI PUSH2 0x1E58 PUSH2 0x28B1 JUMP JUMPDEST BYTE PUSH1 0xF8 SHL DUP3 DUP3 DUP2 MLOAD DUP2 LT PUSH2 0x1E6E JUMPI PUSH2 0x1E6E PUSH2 0x28B1 JUMP JUMPDEST PUSH1 0x20 ADD ADD SWAP1 PUSH1 0x1 PUSH1 0x1 PUSH1 0xF8 SHL SUB NOT AND SWAP1 DUP2 PUSH1 0x0 BYTE SWAP1 MSTORE8 POP PUSH1 0x4 SWAP5 SWAP1 SWAP5 SHR SWAP4 PUSH2 0x1E95 DUP2 PUSH2 0x2B7E JUMP JUMPDEST SWAP1 POP PUSH2 0x1E27 JUMP JUMPDEST POP DUP4 ISZERO PUSH2 0x1EEB JUMPI PUSH1 0x40 MLOAD PUSH3 0x461BCD PUSH1 0xE5 SHL DUP2 MSTORE PUSH1 0x20 PUSH1 0x4 DUP3 ADD DUP2 SWAP1 MSTORE PUSH1 0x24 DUP3 ADD MSTORE PUSH32 0x537472696E67733A20686578206C656E67746820696E73756666696369656E74 PUSH1 0x44 DUP3 ADD MSTORE PUSH1 0x64 ADD PUSH2 0xDAB JUMP JUMPDEST SWAP4 SWAP3 POP POP POP JUMP JUMPDEST PUSH1 0x40 DUP1 MLOAD PUSH2 0x200 DUP2 ADD DUP3 MSTORE PUSH1 0x0 DUP1 DUP3 MSTORE PUSH1 0x20 DUP3 ADD DUP2 SWAP1 MSTORE SWAP2 DUP2 ADD DUP3 SWAP1 MSTORE PUSH1 0x60 DUP2 ADD DUP3 SWAP1 MSTORE PUSH1 0x80 DUP2 ADD DUP3 SWAP1 MSTORE PUSH1 0xA0 DUP2 ADD DUP3 SWAP1 MSTORE PUSH1 0xC0 DUP2 ADD DUP3 SWAP1 MSTORE PUSH1 0xE0 DUP2 ADD DUP3 SWAP1 MSTORE SWAP1 PUSH2 0x100 DUP3 ADD SWAP1 DUP2 MSTORE PUSH1 0x20 ADD PUSH1 0x60 DUP2 MSTORE PUSH1 0x20 ADD PUSH1 0x0 DUP2 MSTORE PUSH1 0x20 ADD PUSH1 0x0 DUP2 MSTORE PUSH1 0x20 ADD PUSH1 0x0 DUP2 MSTORE PUSH1 0x20 ADD PUSH1 0x0 DUP1 NOT AND DUP2 MSTORE PUSH1 0x20 ADD PUSH1 0x60 DUP2 MSTORE PUSH1 0x20 ADD PUSH1 0x60 DUP2 MSTORE POP SWAP1 JUMP JUMPDEST POP DUP1 SLOAD PUSH2 0x1F7F SWAP1 PUSH2 0x28C7 JUMP JUMPDEST PUSH1 0x0 DUP3 SSTORE DUP1 PUSH1 0x1F LT PUSH2 0x1F8F JUMPI POP POP JUMP JUMPDEST PUSH1 0x1F ADD PUSH1 0x20 SWAP1 DIV SWAP1 PUSH1 0x0 MSTORE PUSH1 0x20 PUSH1 0x0 KECCAK256 SWAP1 DUP2 ADD SWAP1 PUSH2 0x1A5B SWAP2 SWAP1 PUSH2 0x2021 JUMP JUMPDEST POP DUP1 SLOAD PUSH1 0x0 DUP3 SSTORE SWAP1 PUSH1 0x0 MSTORE PUSH1 0x20 PUSH1 0x0 KECCAK256 SWAP1 DUP2 ADD SWAP1 PUSH2 0x1A5B SWAP2 SWAP1 PUSH2 0x2036 JUMP JUMPDEST DUP3 DUP1 SLOAD DUP3 DUP3 SSTORE SWAP1 PUSH1 0x0 MSTORE PUSH1 0x20 PUSH1 0x0 KECCAK256 SWAP1 DUP2 ADD SWAP3 DUP3 ISZERO PUSH2 0x2011 JUMPI SWAP2 PUSH1 0x20 MUL DUP3 ADD JUMPDEST DUP3 DUP2 GT ISZERO PUSH2 0x2011 JUMPI DUP3 MLOAD DUP3 SWAP1 PUSH2 0x2001 SWAP1 DUP3 PUSH2 0x2A0D JUMP JUMPDEST POP SWAP2 PUSH1 0x20 ADD SWAP2 SWAP1 PUSH1 0x1 ADD SWAP1 PUSH2 0x1FEB JUMP JUMPDEST POP PUSH2 0x201D SWAP3 SWAP2 POP PUSH2 0x2036 JUMP JUMPDEST POP SWAP1 JUMP JUMPDEST JUMPDEST DUP1 DUP3 GT ISZERO PUSH2 0x201D JUMPI PUSH1 0x0 DUP2 SSTORE PUSH1 0x1 ADD PUSH2 0x2022 JUMP JUMPDEST DUP1 DUP3 GT ISZERO PUSH2 0x201D JUMPI PUSH1 0x0 PUSH2 0x204A DUP3 DUP3 PUSH2 0x1F73 JUMP JUMPDEST POP PUSH1 0x1 ADD PUSH2 0x2036 JUMP JUMPDEST PUSH1 0x0 PUSH1 0x20 DUP3 DUP5 SUB SLT ISZERO PUSH2 0x2065 JUMPI PUSH1 0x0 DUP1 REVERT JUMPDEST DUP2 CALLDATALOAD PUSH1 0x1 PUSH1 0x1 PUSH1 0xE0 SHL SUB NOT DUP2 AND DUP2 EQ PUSH2 0x1EEB JUMPI PUSH1 0x0 DUP1 REVERT JUMPDEST PUSH1 0x0 PUSH1 0x20 DUP3 DUP5 SUB SLT ISZERO PUSH2 0x208F JUMPI PUSH1 0x0 DUP1 REVERT JUMPDEST POP CALLDATALOAD SWAP2 SWAP1 POP JUMP JUMPDEST DUP1 CALLDATALOAD PUSH1 0x1 PUSH1 0x1 PUSH1 0xA0 SHL SUB DUP2 AND DUP2 EQ PUSH2 0x20AD JUMPI PUSH1 0x0 DUP1 REVERT JUMPDEST SWAP2 SWAP1 POP JUMP JUMPDEST PUSH1 0x0 PUSH1 0x20 DUP3 DUP5 SUB SLT ISZERO PUSH2 0x20C4 JUMPI PUSH1 0x0 DUP1 REVERT JUMPDEST PUSH2 0x1EEB DUP3 PUSH2 0x2096 JUMP JUMPDEST PUSH4 0x4E487B71 PUSH1 0xE0 SHL PUSH1 0x0 MSTORE PUSH1 0x21 PUSH1 0x4 MSTORE PUSH1 0x24 PUSH1 0x0 REVERT JUMPDEST PUSH1 0x4 DUP2 LT PUSH2 0x2101 JUMPI PUSH4 0x4E487B71 PUSH1 0xE0 SHL PUSH1 0x0 MSTORE PUSH1 0x21 PUSH1 0x4 MSTORE PUSH1 0x24 PUSH1 0x0 REVERT JUMPDEST SWAP1 MSTORE JUMP JUMPDEST PUSH1 0x0 JUMPDEST DUP4 DUP2 LT ISZERO PUSH2 0x2120 JUMPI DUP2 DUP2 ADD MLOAD DUP4 DUP3 ADD MSTORE PUSH1 0x20 ADD PUSH2 0x2108 JUMP JUMPDEST POP POP PUSH1 0x0 SWAP2 ADD MSTORE JUMP JUMPDEST PUSH1 0x0 DUP2 MLOAD DUP1 DUP5 MSTORE PUSH2 0x2141 DUP2 PUSH1 0x20 DUP7 ADD PUSH1 0x20 DUP7 ADD PUSH2 0x2105 JUMP JUMPDEST PUSH1 0x1F ADD PUSH1 0x1F NOT AND SWAP3 SWAP1 SWAP3 ADD PUSH1 0x20 ADD SWAP3 SWAP2 POP POP JUMP JUMPDEST PUSH1 0x0 DUP2 MLOAD DUP1 DUP5 MSTORE PUSH1 0x20 DUP1 DUP6 ADD SWAP5 POP DUP5 DUP3 PUSH1 0x5 SHL DUP7 ADD DUP3 DUP7 ADD PUSH1 0x0 JUMPDEST DUP6 DUP2 LT ISZERO PUSH2 0x219A JUMPI DUP4 DUP4 SUB DUP10 MSTORE PUSH2 0x2188 DUP4 DUP4 MLOAD PUSH2 0x2129 JUMP JUMPDEST SWAP9 DUP6 ADD SWAP9 SWAP3 POP SWAP1 DUP5 ADD SWAP1 PUSH1 0x1 ADD PUSH2 0x2170 JUMP JUMPDEST POP SWAP1 SWAP8 SWAP7 POP POP POP POP POP POP POP JUMP JUMPDEST DUP1 MLOAD PUSH1 0x1 PUSH1 0x1 PUSH1 0xA0 SHL SUB AND DUP3 MSTORE PUSH1 0x0 PUSH2 0x200 PUSH1 0x20 DUP4 ADD MLOAD PUSH1 0x20 DUP6 ADD MSTORE PUSH1 0x40 DUP4 ADD MLOAD PUSH1 0x40 DUP6 ADD MSTORE PUSH1 0x60 DUP4 ADD MLOAD PUSH1 0x60 DUP6 ADD MSTORE PUSH1 0x80 DUP4 ADD MLOAD PUSH1 0x80 DUP6 ADD MSTORE PUSH1 0xA0 DUP4 ADD MLOAD PUSH1 0xA0 DUP6 ADD MSTORE PUSH1 0xC0 DUP4 ADD MLOAD PUSH1 0xC0 DUP6 ADD MSTORE PUSH1 0xE0 DUP4 ADD MLOAD PUSH2 0x220F PUSH1 0xE0 DUP7 ADD DUP3 PUSH1 0x1 PUSH1 0x1 PUSH1 0xA0 SHL SUB AND SWAP1 MSTORE JUMP JUMPDEST POP PUSH2 0x100 DUP1 DUP5 ADD MLOAD PUSH2 0x2223 DUP3 DUP8 ADD DUP3 PUSH2 0x20E3 JUMP JUMPDEST POP POP PUSH2 0x120 DUP1 DUP5 ADD MLOAD DUP3 DUP3 DUP8 ADD MSTORE PUSH2 0x223D DUP4 DUP8 ADD DUP3 PUSH2 0x2129 JUMP JUMPDEST PUSH2 0x140 DUP7 DUP2 ADD MLOAD SWAP1 DUP9 ADD MSTORE PUSH2 0x160 DUP1 DUP8 ADD MLOAD SWAP1 DUP9 ADD MSTORE PUSH2 0x180 DUP1 DUP8 ADD MLOAD SWAP1 DUP9 ADD MSTORE PUSH2 0x1A0 DUP1 DUP8 ADD MLOAD SWAP1 DUP9 ADD MSTORE PUSH2 0x1C0 DUP1 DUP8 ADD MLOAD DUP9 DUP4 SUB DUP3 DUP11 ADD MSTORE SWAP2 SWAP5 POP SWAP3 POP SWAP1 POP PUSH2 0x2288 DUP4 DUP3 PUSH2 0x2129 JUMP JUMPDEST SWAP3 POP POP POP PUSH2 0x1E0 DUP1 DUP5 ADD MLOAD DUP6 DUP4 SUB DUP3 DUP8 ADD MSTORE PUSH2 0x22A4 DUP4 DUP3 PUSH2 0x2155 JUMP JUMPDEST SWAP7 SWAP6 POP POP POP POP POP POP JUMP JUMPDEST PUSH1 0x0 PUSH1 0x20 DUP1 DUP4 ADD DUP2 DUP5 MSTORE DUP1 DUP6 MLOAD DUP1 DUP4 MSTORE PUSH1 0x40 DUP7 ADD SWAP2 POP PUSH1 0x40 DUP2 PUSH1 0x5 SHL DUP8 ADD ADD SWAP3 POP DUP4 DUP8 ADD PUSH1 0x0 JUMPDEST DUP3 DUP2 LT ISZERO PUSH2 0x2303 JUMPI PUSH1 0x3F NOT DUP9 DUP7 SUB ADD DUP5 MSTORE PUSH2 0x22F1 DUP6 DUP4 MLOAD PUSH2 0x21A7 JUMP JUMPDEST SWAP5 POP SWAP3 DUP6 ADD SWAP3 SWAP1 DUP6 ADD SWAP1 PUSH1 0x1 ADD PUSH2 0x22D5 JUMP JUMPDEST POP SWAP3 SWAP8 SWAP7 POP POP POP POP POP POP POP JUMP JUMPDEST PUSH1 0x20 DUP2 MSTORE PUSH1 0x0 PUSH2 0x1EEB PUSH1 0x20 DUP4 ADD DUP5 PUSH2 0x21A7 JUMP JUMPDEST PUSH4 0x4E487B71 PUSH1 0xE0 SHL PUSH1 0x0 MSTORE PUSH1 0x41 PUSH1 0x4 MSTORE PUSH1 0x24 PUSH1 0x0 REVERT JUMPDEST PUSH1 0x40 MLOAD PUSH2 0x200 DUP2 ADD PUSH1 0x1 PUSH1 0x1 PUSH1 0x40 SHL SUB DUP2 GT DUP3 DUP3 LT OR ISZERO PUSH2 0x235C JUMPI PUSH2 0x235C PUSH2 0x2323 JUMP JUMPDEST PUSH1 0x40 MSTORE SWAP1 JUMP JUMPDEST PUSH1 0x40 MLOAD PUSH1 0x1F DUP3 ADD PUSH1 0x1F NOT AND DUP2 ADD PUSH1 0x1 PUSH1 0x1 PUSH1 0x40 SHL SUB DUP2 GT DUP3 DUP3 LT OR ISZERO PUSH2 0x238A JUMPI PUSH2 0x238A PUSH2 0x2323 JUMP JUMPDEST PUSH1 0x40 MSTORE SWAP2 SWAP1 POP JUMP JUMPDEST PUSH1 0x0 PUSH1 0x1 PUSH1 0x1 PUSH1 0x40 SHL SUB DUP3 GT ISZERO PUSH2 0x23AB JUMPI PUSH2 0x23AB PUSH2 0x2323 JUMP JUMPDEST POP PUSH1 0x5 SHL PUSH1 0x20 ADD SWAP1 JUMP JUMPDEST PUSH1 0x0 DUP1 PUSH1 0x40 DUP4 DUP6 SUB SLT ISZERO PUSH2 0x23C8 JUMPI PUSH1 0x0 DUP1 REVERT JUMPDEST PUSH2 0x23D1 DUP4 PUSH2 0x2096 JUMP JUMPDEST SWAP2 POP PUSH1 0x20 DUP1 DUP5 ADD CALLDATALOAD PUSH1 0x1 PUSH1 0x1 PUSH1 0x40 SHL SUB DUP2 GT ISZERO PUSH2 0x23ED JUMPI PUSH1 0x0 DUP1 REVERT JUMPDEST DUP5 ADD PUSH1 0x1F DUP2 ADD DUP7 SGT PUSH2 0x23FE JUMPI PUSH1 0x0 DUP1 REVERT JUMPDEST DUP1 CALLDATALOAD PUSH2 0x2411 PUSH2 0x240C DUP3 PUSH2 0x2392 JUMP JUMPDEST PUSH2 0x2362 JUMP JUMPDEST DUP2 DUP2 MSTORE PUSH1 0x5 SWAP2 SWAP1 SWAP2 SHL DUP3 ADD DUP4 ADD SWAP1 DUP4 DUP2 ADD SWAP1 DUP9 DUP4 GT ISZERO PUSH2 0x2430 JUMPI PUSH1 0x0 DUP1 REVERT JUMPDEST SWAP3 DUP5 ADD SWAP3 JUMPDEST DUP3 DUP5 LT ISZERO PUSH2 0x244E JUMPI DUP4 CALLDATALOAD DUP3 MSTORE SWAP3 DUP5 ADD SWAP3 SWAP1 DUP5 ADD SWAP1 PUSH2 0x2435 JUMP JUMPDEST DUP1 SWAP6 POP POP POP POP POP POP SWAP3 POP SWAP3 SWAP1 POP JUMP JUMPDEST PUSH1 0x20 DUP1 DUP3 MSTORE DUP3 MLOAD DUP3 DUP3 ADD DUP2 SWAP1 MSTORE PUSH1 0x0 SWAP2 SWAP1 DUP5 DUP3 ADD SWAP1 PUSH1 0x40 DUP6 ADD SWAP1 DUP5 JUMPDEST DUP2 DUP2 LT ISZERO PUSH2 0x2497 JUMPI DUP4 MLOAD ISZERO ISZERO DUP4 MSTORE SWAP3 DUP5 ADD SWAP3 SWAP2 DUP5 ADD SWAP2 PUSH1 0x1 ADD PUSH2 0x2479 JUMP JUMPDEST POP SWAP1 SWAP7 SWAP6 POP POP POP POP POP POP JUMP JUMPDEST PUSH1 0x0 DUP1 PUSH1 0x40 DUP4 DUP6 SUB SLT ISZERO PUSH2 0x24B6 JUMPI PUSH1 0x0 DUP1 REVERT JUMPDEST DUP3 CALLDATALOAD SWAP2 POP PUSH2 0x24C6 PUSH1 0x20 DUP5 ADD PUSH2 0x2096 JUMP JUMPDEST SWAP1 POP SWAP3 POP SWAP3 SWAP1 POP JUMP JUMPDEST PUSH1 0x0 DUP1 PUSH1 0x0 DUP1 PUSH1 0x80 DUP6 DUP8 SUB SLT ISZERO PUSH2 0x24E5 JUMPI PUSH1 0x0 DUP1 REVERT JUMPDEST PUSH2 0x24EE DUP6 PUSH2 0x2096 JUMP JUMPDEST SWAP7 PUSH1 0x20 DUP7 ADD CALLDATALOAD SWAP7 POP PUSH1 0x40 DUP7 ADD CALLDATALOAD SWAP6 PUSH1 0x60 ADD CALLDATALOAD SWAP5 POP SWAP3 POP POP POP JUMP JUMPDEST PUSH1 0x0 DUP1 DUP4 PUSH1 0x1F DUP5 ADD SLT PUSH2 0x251A JUMPI PUSH1 0x0 DUP1 REVERT JUMPDEST POP DUP2 CALLDATALOAD PUSH1 0x1 PUSH1 0x1 PUSH1 0x40 SHL SUB DUP2 GT ISZERO PUSH2 0x2531 JUMPI PUSH1 0x0 DUP1 REVERT JUMPDEST PUSH1 0x20 DUP4 ADD SWAP2 POP DUP4 PUSH1 0x20 DUP3 DUP6 ADD ADD GT ISZERO PUSH2 0x2549 JUMPI PUSH1 0x0 DUP1 REVERT JUMPDEST SWAP3 POP SWAP3 SWAP1 POP JUMP JUMPDEST PUSH1 0x0 DUP1 PUSH1 0x0 DUP1 PUSH1 0x0 PUSH1 0x80 DUP7 DUP9 SUB SLT ISZERO PUSH2 0x2568 JUMPI PUSH1 0x0 DUP1 REVERT JUMPDEST PUSH2 0x2571 DUP7 PUSH2 0x2096 JUMP JUMPDEST SWAP5 POP PUSH1 0x20 DUP7 ADD CALLDATALOAD SWAP4 POP PUSH1 0x40 DUP7 ADD CALLDATALOAD PUSH1 0x1 PUSH1 0x1 PUSH1 0x40 SHL SUB DUP2 GT ISZERO PUSH2 0x2593 JUMPI PUSH1 0x0 DUP1 REVERT JUMPDEST PUSH2 0x259F DUP9 DUP3 DUP10 ADD PUSH2 0x2508 JUMP JUMPDEST SWAP7 SWAP10 SWAP6 SWAP9 POP SWAP7 PUSH1 0x60 ADD CALLDATALOAD SWAP5 SWAP4 POP POP POP POP JUMP JUMPDEST PUSH1 0x0 DUP1 PUSH1 0x0 DUP1 PUSH1 0x60 DUP6 DUP8 SUB SLT ISZERO PUSH2 0x25C7 JUMPI PUSH1 0x0 DUP1 REVERT JUMPDEST PUSH2 0x25D0 DUP6 PUSH2 0x2096 JUMP JUMPDEST SWAP4 POP PUSH1 0x20 DUP6 ADD CALLDATALOAD SWAP3 POP PUSH1 0x40 DUP6 ADD CALLDATALOAD PUSH1 0x1 PUSH1 0x1 PUSH1 0x40 SHL SUB DUP2 GT ISZERO PUSH2 0x25F2 JUMPI PUSH1 0x0 DUP1 REVERT JUMPDEST PUSH2 0x25FE DUP8 DUP3 DUP9 ADD PUSH2 0x2508 JUMP JUMPDEST SWAP6 SWAP9 SWAP5 SWAP8 POP SWAP6 POP POP POP POP JUMP JUMPDEST PUSH1 0x0 DUP3 PUSH1 0x1F DUP4 ADD SLT PUSH2 0x261B JUMPI PUSH1 0x0 DUP1 REVERT JUMPDEST DUP2 CALLDATALOAD PUSH1 0x1 PUSH1 0x1 PUSH1 0x40 SHL SUB DUP2 GT ISZERO PUSH2 0x2634 JUMPI PUSH2 0x2634 PUSH2 0x2323 JUMP JUMPDEST PUSH2 0x2647 PUSH1 0x1F DUP3 ADD PUSH1 0x1F NOT AND PUSH1 0x20 ADD PUSH2 0x2362 JUMP JUMPDEST DUP2 DUP2 MSTORE DUP5 PUSH1 0x20 DUP4 DUP7 ADD ADD GT ISZERO PUSH2 0x265C JUMPI PUSH1 0x0 DUP1 REVERT JUMPDEST DUP2 PUSH1 0x20 DUP6 ADD PUSH1 0x20 DUP4 ADD CALLDATACOPY PUSH1 0x0 SWAP2 DUP2 ADD PUSH1 0x20 ADD SWAP2 SWAP1 SWAP2 MSTORE SWAP4 SWAP3 POP POP POP JUMP JUMPDEST PUSH1 0x0 DUP1 PUSH1 0x40 DUP4 DUP6 SUB SLT ISZERO PUSH2 0x268C JUMPI PUSH1 0x0 DUP1 REVERT JUMPDEST DUP3 CALLDATALOAD PUSH1 0x1 PUSH1 0x1 PUSH1 0x40 SHL SUB DUP2 GT ISZERO PUSH2 0x26A2 JUMPI PUSH1 0x0 DUP1 REVERT JUMPDEST PUSH2 0x26AE DUP6 DUP3 DUP7 ADD PUSH2 0x260A JUMP JUMPDEST SWAP3 POP POP PUSH2 0x24C6 PUSH1 0x20 DUP5 ADD PUSH2 0x2096 JUMP JUMPDEST DUP1 CALLDATALOAD PUSH1 0x4 DUP2 LT PUSH2 0x20AD JUMPI PUSH1 0x0 DUP1 REVERT JUMPDEST PUSH1 0x0 DUP3 PUSH1 0x1F DUP4 ADD SLT PUSH2 0x26DD JUMPI PUSH1 0x0 DUP1 REVERT JUMPDEST DUP2 CALLDATALOAD PUSH1 0x20 PUSH2 0x26ED PUSH2 0x240C DUP4 PUSH2 0x2392 JUMP JUMPDEST DUP3 DUP2 MSTORE PUSH1 0x5 SWAP3 SWAP1 SWAP3 SHL DUP5 ADD DUP2 ADD SWAP2 DUP2 DUP2 ADD SWAP1 DUP7 DUP5 GT ISZERO PUSH2 0x270C JUMPI PUSH1 0x0 DUP1 REVERT JUMPDEST DUP3 DUP7 ADD JUMPDEST DUP5 DUP2 LT ISZERO PUSH2 0x274B JUMPI DUP1 CALLDATALOAD PUSH1 0x1 PUSH1 0x1 PUSH1 0x40 SHL SUB DUP2 GT ISZERO PUSH2 0x272F JUMPI PUSH1 0x0 DUP1 DUP2 REVERT JUMPDEST PUSH2 0x273D DUP10 DUP7 DUP4 DUP12 ADD ADD PUSH2 0x260A JUMP JUMPDEST DUP5 MSTORE POP SWAP2 DUP4 ADD SWAP2 DUP4 ADD PUSH2 0x2710 JUMP JUMPDEST POP SWAP7 SWAP6 POP POP POP POP POP POP JUMP JUMPDEST PUSH1 0x0 PUSH1 0x20 DUP3 DUP5 SUB SLT ISZERO PUSH2 0x2768 JUMPI PUSH1 0x0 DUP1 REVERT JUMPDEST DUP2 CALLDATALOAD PUSH1 0x1 PUSH1 0x1 PUSH1 0x40 SHL SUB DUP1 DUP3 GT ISZERO PUSH2 0x277F JUMPI PUSH1 0x0 DUP1 REVERT JUMPDEST SWAP1 DUP4 ADD SWAP1 PUSH2 0x200 DUP3 DUP7 SUB SLT ISZERO PUSH2 0x2794 JUMPI PUSH1 0x0 DUP1 REVERT JUMPDEST PUSH2 0x279C PUSH2 0x2339 JUMP JUMPDEST PUSH2 0x27A5 DUP4 PUSH2 0x2096 JUMP JUMPDEST DUP2 MSTORE PUSH1 0x20 DUP4 ADD CALLDATALOAD PUSH1 0x20 DUP3 ADD MSTORE PUSH1 0x40 DUP4 ADD CALLDATALOAD PUSH1 0x40 DUP3 ADD MSTORE PUSH1 0x60 DUP4 ADD CALLDATALOAD PUSH1 0x60 DUP3 ADD MSTORE PUSH1 0x80 DUP4 ADD CALLDATALOAD PUSH1 0x80 DUP3 ADD MSTORE PUSH1 0xA0 DUP4 ADD CALLDATALOAD PUSH1 0xA0 DUP3 ADD MSTORE PUSH1 0xC0 DUP4 ADD CALLDATALOAD PUSH1 0xC0 DUP3 ADD MSTORE PUSH2 0x27EF PUSH1 0xE0 DUP5 ADD PUSH2 0x2096 JUMP JUMPDEST PUSH1 0xE0 DUP3 ADD MSTORE PUSH2 0x100 PUSH2 0x2802 DUP2 DUP6 ADD PUSH2 0x26BD JUMP JUMPDEST SWAP1 DUP3 ADD MSTORE PUSH2 0x120 DUP4 DUP2 ADD CALLDATALOAD DUP4 DUP2 GT ISZERO PUSH2 0x281A JUMPI PUSH1 0x0 DUP1 REVERT JUMPDEST PUSH2 0x2826 DUP9 DUP3 DUP8 ADD PUSH2 0x260A JUMP JUMPDEST SWAP2 DUP4 ADD SWAP2 SWAP1 SWAP2 MSTORE POP PUSH2 0x140 DUP4 DUP2 ADD CALLDATALOAD SWAP1 DUP3 ADD MSTORE PUSH2 0x160 DUP1 DUP5 ADD CALLDATALOAD SWAP1 DUP3 ADD MSTORE PUSH2 0x180 DUP1 DUP5 ADD CALLDATALOAD SWAP1 DUP3 ADD MSTORE PUSH2 0x1A0 DUP1 DUP5 ADD CALLDATALOAD SWAP1 DUP3 ADD MSTORE PUSH2 0x1C0 DUP1 DUP5 ADD CALLDATALOAD DUP4 DUP2 GT ISZERO PUSH2 0x286E JUMPI PUSH1 0x0 DUP1 REVERT JUMPDEST PUSH2 0x287A DUP9 DUP3 DUP8 ADD PUSH2 0x260A JUMP JUMPDEST DUP3 DUP5 ADD MSTORE POP POP PUSH2 0x1E0 DUP1 DUP5 ADD CALLDATALOAD DUP4 DUP2 GT ISZERO PUSH2 0x2894 JUMPI PUSH1 0x0 DUP1 REVERT JUMPDEST PUSH2 0x28A0 DUP9 DUP3 DUP8 ADD PUSH2 0x26CC JUMP JUMPDEST SWAP2 DUP4 ADD SWAP2 SWAP1 SWAP2 MSTORE POP SWAP6 SWAP5 POP POP POP POP POP JUMP JUMPDEST PUSH4 0x4E487B71 PUSH1 0xE0 SHL PUSH1 0x0 MSTORE PUSH1 0x32 PUSH1 0x4 MSTORE PUSH1 0x24 PUSH1 0x0 REVERT JUMPDEST PUSH1 0x1 DUP2 DUP2 SHR SWAP1 DUP3 AND DUP1 PUSH2 0x28DB JUMPI PUSH1 0x7F DUP3 AND SWAP2 POP JUMPDEST PUSH1 0x20 DUP3 LT DUP2 SUB PUSH2 0x381 JUMPI PUSH4 0x4E487B71 PUSH1 0xE0 SHL PUSH1 0x0 MSTORE PUSH1 0x22 PUSH1 0x4 MSTORE PUSH1 0x24 PUSH1 0x0 REVERT JUMPDEST PUSH4 0x4E487B71 PUSH1 0xE0 SHL PUSH1 0x0 MSTORE PUSH1 0x11 PUSH1 0x4 MSTORE PUSH1 0x24 PUSH1 0x0 REVERT JUMPDEST PUSH1 0x0 PUSH1 0x1 DUP3 ADD PUSH2 0x2923 JUMPI PUSH2 0x2923 PUSH2 0x28FB JUMP JUMPDEST POP PUSH1 0x1 ADD SWAP1 JUMP JUMPDEST PUSH1 0x0 PUSH2 0xFFFF DUP1 DUP4 AND DUP2 DUP2 SUB PUSH2 0x2941 JUMPI PUSH2 0x2941 PUSH2 0x28FB JUMP JUMPDEST PUSH1 0x1 ADD SWAP4 SWAP3 POP POP POP JUMP JUMPDEST DUP2 DUP2 SUB DUP2 DUP2 GT ISZERO PUSH2 0x331 JUMPI PUSH2 0x331 PUSH2 0x28FB JUMP JUMPDEST DUP2 DUP4 DUP3 CALLDATACOPY PUSH1 0x0 SWAP2 ADD SWAP1 DUP2 MSTORE SWAP2 SWAP1 POP JUMP JUMPDEST PUSH1 0x0 DUP3 MLOAD PUSH2 0x2980 DUP2 DUP5 PUSH1 0x20 DUP8 ADD PUSH2 0x2105 JUMP JUMPDEST SWAP2 SWAP1 SWAP2 ADD SWAP3 SWAP2 POP POP JUMP JUMPDEST PUSH4 0x4E487B71 PUSH1 0xE0 SHL PUSH1 0x0 MSTORE PUSH1 0x31 PUSH1 0x4 MSTORE PUSH1 0x24 PUSH1 0x0 REVERT JUMPDEST PUSH1 0x0 PUSH1 0xFF DUP3 AND PUSH1 0xFF DUP2 SUB PUSH2 0x29B6 JUMPI PUSH2 0x29B6 PUSH2 0x28FB JUMP JUMPDEST PUSH1 0x1 ADD SWAP3 SWAP2 POP POP JUMP JUMPDEST PUSH1 0x1F DUP3 GT ISZERO PUSH2 0x1CE0 JUMPI PUSH1 0x0 DUP2 DUP2 MSTORE PUSH1 0x20 DUP2 KECCAK256 PUSH1 0x1F DUP6 ADD PUSH1 0x5 SHR DUP2 ADD PUSH1 0x20 DUP7 LT ISZERO PUSH2 0x29E6 JUMPI POP DUP1 JUMPDEST PUSH1 0x1F DUP6 ADD PUSH1 0x5 SHR DUP3 ADD SWAP2 POP JUMPDEST DUP2 DUP2 LT ISZERO PUSH2 0x2A05 JUMPI DUP3 DUP2 SSTORE PUSH1 0x1 ADD PUSH2 0x29F2 JUMP JUMPDEST POP POP POP POP POP POP JUMP JUMPDEST DUP2 MLOAD PUSH1 0x1 PUSH1 0x1 PUSH1 0x40 SHL SUB DUP2 GT ISZERO PUSH2 0x2A26 JUMPI PUSH2 0x2A26 PUSH2 0x2323 JUMP JUMPDEST PUSH2 0x2A3A DUP2 PUSH2 0x2A34 DUP5 SLOAD PUSH2 0x28C7 JUMP JUMPDEST DUP5 PUSH2 0x29BF JUMP JUMPDEST PUSH1 0x20 DUP1 PUSH1 0x1F DUP4 GT PUSH1 0x1 DUP2 EQ PUSH2 0x2A6F JUMPI PUSH1 0x0 DUP5 ISZERO PUSH2 0x2A57 JUMPI POP DUP6 DUP4 ADD MLOAD JUMPDEST PUSH1 0x0 NOT PUSH1 0x3 DUP7 SWAP1 SHL SHR NOT AND PUSH1 0x1 DUP6 SWAP1 SHL OR DUP6 SSTORE PUSH2 0x2A05 JUMP JUMPDEST PUSH1 0x0 DUP6 DUP2 MSTORE PUSH1 0x20 DUP2 KECCAK256 PUSH1 0x1F NOT DUP7 AND SWAP2 JUMPDEST DUP3 DUP2 LT ISZERO PUSH2 0x2A9E JUMPI DUP9 DUP7 ADD MLOAD DUP3 SSTORE SWAP5 DUP5 ADD SWAP5 PUSH1 0x1 SWAP1 SWAP2 ADD SWAP1 DUP5 ADD PUSH2 0x2A7F JUMP JUMPDEST POP DUP6 DUP3 LT ISZERO PUSH2 0x2ABC JUMPI DUP8 DUP6 ADD MLOAD PUSH1 0x0 NOT PUSH1 0x3 DUP9 SWAP1 SHL PUSH1 0xF8 AND SHR NOT AND DUP2 SSTORE JUMPDEST POP POP POP POP POP PUSH1 0x1 SWAP1 DUP2 SHL ADD SWAP1 SSTORE POP JUMP JUMPDEST PUSH32 0x416363657373436F6E74726F6C3A206163636F756E7420000000000000000000 DUP2 MSTORE PUSH1 0x0 DUP4 MLOAD PUSH2 0x2B04 DUP2 PUSH1 0x17 DUP6 ADD PUSH1 0x20 DUP9 ADD PUSH2 0x2105 JUMP JUMPDEST PUSH17 0x1034B99036B4B9B9B4B733903937B6329 PUSH1 0x7D SHL PUSH1 0x17 SWAP2 DUP5 ADD SWAP2 DUP3 ADD MSTORE DUP4 MLOAD PUSH2 0x2B35 DUP2 PUSH1 0x28 DUP5 ADD PUSH1 0x20 DUP9 ADD PUSH2 0x2105 JUMP JUMPDEST ADD PUSH1 0x28 ADD SWAP5 SWAP4 POP POP POP POP JUMP JUMPDEST PUSH1 0x20 DUP2 MSTORE PUSH1 0x0 PUSH2 0x1EEB PUSH1 0x20 DUP4 ADD DUP5 PUSH2 0x2129 JUMP JUMPDEST DUP1 DUP3 MUL DUP2 ISZERO DUP3 DUP3 DIV DUP5 EQ OR PUSH2 0x331 JUMPI PUSH2 0x331 PUSH2 0x28FB JUMP JUMPDEST DUP1 DUP3 ADD DUP1 DUP3 GT ISZERO PUSH2 0x331 JUMPI PUSH2 0x331 PUSH2 0x28FB JUMP JUMPDEST PUSH1 0x0 DUP2 PUSH2 0x2B8D JUMPI PUSH2 0x2B8D PUSH2 0x28FB JUMP JUMPDEST POP PUSH1 0x0 NOT ADD SWAP1 JUMP INVALID 0xCE JUMPDEST 0x4D SELFDESTRUCT 0xEB PUSH4 0x6293708C PUSH26 0xF81C22E23CD9E58DE35C143478790754258CB2CD38A264697066 PUSH20 0x58221220580E9320AEEAB9C8B3AAE111168C6728 0xD7 SWAP3 0xCE DUP7 0xE1 0xD9 0xAB PUSH32 0xADA01854D0A3F16764736F6C6343000813003300000000000000000000000000 "
		},
		"gasEstimates": {
			"creation": {
				"codeDepositCost": "2248600",
				"executionCost": "31040",
				"totalCost": "2279640"
			},
			"external": {
				"DEFAULT_ADMIN_ROLE()": "217",
				"PC_CON()": "infinite",
				"activateCode(string,address)": "infinite",
				"addCode((address,bytes32,uint256,uint256,uint256,uint256,uint256,address,uint8,string,uint256,uint256,uint256,bytes32,string,string[]))": "infinite",
				"blockCode(address,bytes32[])": "infinite",
				"burnCode(bytes32)": "infinite",
				"getCodeInfo(bytes32)": "infinite",
				"getCodeList(address)": "infinite",
				"getRoleAdmin(bytes32)": "2492",
				"grantRole(bytes32,address)": "infinite",
				"hasRole(bytes32,address)": "2762",
				"renounceRole(bytes32,address)": "29084",
				"revokeRole(bytes32,address)": "infinite",
				"setCodeLockTime(address,bytes32,uint256,uint256)": "infinite",
				"supportsInterface(bytes4)": "450",
				"unblockCode(address,bytes32[])": "infinite",
				"unlockCodeWalletKey(address,bytes32,string)": "infinite",
				"updateCode((address,bytes32,uint256,uint256,uint256,uint256,uint256,address,uint8,string,uint256,uint256,uint256,bytes32,string,string[]))": "infinite",
				"updateCodeWalletKey(address,bytes32,string,bytes32)": "infinite",
				"updateExpiredCode(bytes32)": "infinite"
			},
			"internal": {
				"_removeCodeHash(address,bytes32)": "infinite",
				"_validateCodeHash(bytes32)": "infinite"
			}
		},
		"methodIdentifiers": {
			"DEFAULT_ADMIN_ROLE()": "a217fddf",
			"PC_CON()": "7e7e8aa2",
			"activateCode(string,address)": "90bc1864",
			"addCode((address,bytes32,uint256,uint256,uint256,uint256,uint256,address,uint8,string,uint256,uint256,uint256,bytes32,string,string[]))": "ded92c3d",
			"blockCode(address,bytes32[])": "20382f46",
			"burnCode(bytes32)": "186fbad2",
			"getCodeInfo(bytes32)": "19d8bcf0",
			"getCodeList(address)": "134c0377",
			"getRoleAdmin(bytes32)": "248a9ca3",
			"grantRole(bytes32,address)": "2f2ff15d",
			"hasRole(bytes32,address)": "91d14854",
			"renounceRole(bytes32,address)": "36568abe",
			"revokeRole(bytes32,address)": "d547741f",
			"setCodeLockTime(address,bytes32,uint256,uint256)": "3b2c0e5a",
			"supportsInterface(bytes4)": "01ffc9a7",
			"unblockCode(address,bytes32[])": "ce1dd554",
			"unlockCodeWalletKey(address,bytes32,string)": "76f1a358",
			"updateCode((address,bytes32,uint256,uint256,uint256,uint256,uint256,address,uint8,string,uint256,uint256,uint256,bytes32,string,string[]))": "d86a8af3",
			"updateCodeWalletKey(address,bytes32,string,bytes32)": "54eecb92",
			"updateExpiredCode(bytes32)": "1339f27b"
		}
	},
	"abi": [
		{
			"inputs": [],
			"stateMutability": "payable",
			"type": "constructor"
		},
		{
			"anonymous": false,
			"inputs": [
				{
					"indexed": true,
					"internalType": "bytes32",
					"name": "role",
					"type": "bytes32"
				},
				{
					"indexed": true,
					"internalType": "bytes32",
					"name": "previousAdminRole",
					"type": "bytes32"
				},
				{
					"indexed": true,
					"internalType": "bytes32",
					"name": "newAdminRole",
					"type": "bytes32"
				}
			],
			"name": "RoleAdminChanged",
			"type": "event"
		},
		{
			"anonymous": false,
			"inputs": [
				{
					"indexed": true,
					"internalType": "bytes32",
					"name": "role",
					"type": "bytes32"
				},
				{
					"indexed": true,
					"internalType": "address",
					"name": "account",
					"type": "address"
				},
				{
					"indexed": true,
					"internalType": "address",
					"name": "sender",
					"type": "address"
				}
			],
			"name": "RoleGranted",
			"type": "event"
		},
		{
			"anonymous": false,
			"inputs": [
				{
					"indexed": true,
					"internalType": "bytes32",
					"name": "role",
					"type": "bytes32"
				},
				{
					"indexed": true,
					"internalType": "address",
					"name": "account",
					"type": "address"
				},
				{
					"indexed": true,
					"internalType": "address",
					"name": "sender",
					"type": "address"
				}
			],
			"name": "RoleRevoked",
			"type": "event"
		},
		{
			"inputs": [],
			"name": "DEFAULT_ADMIN_ROLE",
			"outputs": [
				{
					"internalType": "bytes32",
					"name": "",
					"type": "bytes32"
				}
			],
			"stateMutability": "view",
			"type": "function"
		},
		{
			"inputs": [],
			"name": "PC_CON",
			"outputs": [
				{
					"internalType": "bytes32",
					"name": "",
					"type": "bytes32"
				}
			],
			"stateMutability": "view",
			"type": "function"
		},
		{
			"inputs": [
				{
					"internalType": "string",
					"name": "codeStr",
					"type": "string"
				},
				{
					"internalType": "address",
					"name": "activator",
					"type": "address"
				}
			],
			"name": "activateCode",
			"outputs": [
				{
					"internalType": "bool",
					"name": "",
					"type": "bool"
				}
			],
			"stateMutability": "nonpayable",
			"type": "function"
		},
		{
			"inputs": [
				{
					"components": [
						{
							"internalType": "address",
							"name": "owner",
							"type": "address"
						},
						{
							"internalType": "bytes32",
							"name": "codeHash",
							"type": "bytes32"
						},
						{
							"internalType": "uint256",
							"name": "activeTime",
							"type": "uint256"
						},
						{
							"internalType": "uint256",
							"name": "expirationActiveTime",
							"type": "uint256"
						},
						{
							"internalType": "uint256",
							"name": "boostSpeed",
							"type": "uint256"
						},
						{
							"internalType": "uint256",
							"name": "boostTime",
							"type": "uint256"
						},
						{
							"internalType": "uint256",
							"name": "rateBoost",
							"type": "uint256"
						},
						{
							"internalType": "address",
							"name": "delegate",
							"type": "address"
						},
						{
							"internalType": "enum Status",
							"name": "status",
							"type": "uint8"
						},
						{
							"internalType": "string",
							"name": "origin",
							"type": "string"
						},
						{
							"internalType": "uint256",
							"name": "mintedAmount",
							"type": "uint256"
						},
						{
							"internalType": "uint256",
							"name": "releasePercentage",
							"type": "uint256"
						},
						{
							"internalType": "uint256",
							"name": "lockTime",
							"type": "uint256"
						},
						{
							"internalType": "bytes32",
							"name": "keyHash",
							"type": "bytes32"
						},
						{
							"internalType": "string",
							"name": "haah",
							"type": "string"
						},
						{
							"internalType": "string[]",
							"name": "hihi",
							"type": "string[]"
						}
					],
					"internalType": "struct Code",
					"name": "code",
					"type": "tuple"
				}
			],
			"name": "addCode",
			"outputs": [
				{
					"internalType": "bool",
					"name": "",
					"type": "bool"
				}
			],
			"stateMutability": "nonpayable",
			"type": "function"
		},
		{
			"inputs": [
				{
					"internalType": "address",
					"name": "caller",
					"type": "address"
				},
				{
					"internalType": "bytes32[]",
					"name": "codeHashes",
					"type": "bytes32[]"
				}
			],
			"name": "blockCode",
			"outputs": [
				{
					"internalType": "bool[]",
					"name": "",
					"type": "bool[]"
				}
			],
			"stateMutability": "nonpayable",
			"type": "function"
		},
		{
			"inputs": [
				{
					"internalType": "bytes32",
					"name": "codeHash",
					"type": "bytes32"
				}
			],
			"name": "burnCode",
			"outputs": [
				{
					"internalType": "bool",
					"name": "",
					"type": "bool"
				}
			],
			"stateMutability": "nonpayable",
			"type": "function"
		},
		{
			"inputs": [
				{
					"internalType": "bytes32",
					"name": "codeHash",
					"type": "bytes32"
				}
			],
			"name": "getCodeInfo",
			"outputs": [
				{
					"components": [
						{
							"internalType": "address",
							"name": "owner",
							"type": "address"
						},
						{
							"internalType": "bytes32",
							"name": "codeHash",
							"type": "bytes32"
						},
						{
							"internalType": "uint256",
							"name": "activeTime",
							"type": "uint256"
						},
						{
							"internalType": "uint256",
							"name": "expirationActiveTime",
							"type": "uint256"
						},
						{
							"internalType": "uint256",
							"name": "boostSpeed",
							"type": "uint256"
						},
						{
							"internalType": "uint256",
							"name": "boostTime",
							"type": "uint256"
						},
						{
							"internalType": "uint256",
							"name": "rateBoost",
							"type": "uint256"
						},
						{
							"internalType": "address",
							"name": "delegate",
							"type": "address"
						},
						{
							"internalType": "enum Status",
							"name": "status",
							"type": "uint8"
						},
						{
							"internalType": "string",
							"name": "origin",
							"type": "string"
						},
						{
							"internalType": "uint256",
							"name": "mintedAmount",
							"type": "uint256"
						},
						{
							"internalType": "uint256",
							"name": "releasePercentage",
							"type": "uint256"
						},
						{
							"internalType": "uint256",
							"name": "lockTime",
							"type": "uint256"
						},
						{
							"internalType": "bytes32",
							"name": "keyHash",
							"type": "bytes32"
						},
						{
							"internalType": "string",
							"name": "haah",
							"type": "string"
						},
						{
							"internalType": "string[]",
							"name": "hihi",
							"type": "string[]"
						}
					],
					"internalType": "struct Code",
					"name": "",
					"type": "tuple"
				}
			],
			"stateMutability": "view",
			"type": "function"
		},
		{
			"inputs": [
				{
					"internalType": "address",
					"name": "caller",
					"type": "address"
				}
			],
			"name": "getCodeList",
			"outputs": [
				{
					"components": [
						{
							"internalType": "address",
							"name": "owner",
							"type": "address"
						},
						{
							"internalType": "bytes32",
							"name": "codeHash",
							"type": "bytes32"
						},
						{
							"internalType": "uint256",
							"name": "activeTime",
							"type": "uint256"
						},
						{
							"internalType": "uint256",
							"name": "expirationActiveTime",
							"type": "uint256"
						},
						{
							"internalType": "uint256",
							"name": "boostSpeed",
							"type": "uint256"
						},
						{
							"internalType": "uint256",
							"name": "boostTime",
							"type": "uint256"
						},
						{
							"internalType": "uint256",
							"name": "rateBoost",
							"type": "uint256"
						},
						{
							"internalType": "address",
							"name": "delegate",
							"type": "address"
						},
						{
							"internalType": "enum Status",
							"name": "status",
							"type": "uint8"
						},
						{
							"internalType": "string",
							"name": "origin",
							"type": "string"
						},
						{
							"internalType": "uint256",
							"name": "mintedAmount",
							"type": "uint256"
						},
						{
							"internalType": "uint256",
							"name": "releasePercentage",
							"type": "uint256"
						},
						{
							"internalType": "uint256",
							"name": "lockTime",
							"type": "uint256"
						},
						{
							"internalType": "bytes32",
							"name": "keyHash",
							"type": "bytes32"
						},
						{
							"internalType": "string",
							"name": "haah",
							"type": "string"
						},
						{
							"internalType": "string[]",
							"name": "hihi",
							"type": "string[]"
						}
					],
					"internalType": "struct Code[]",
					"name": "codes",
					"type": "tuple[]"
				}
			],
			"stateMutability": "view",
			"type": "function"
		},
		{
			"inputs": [
				{
					"internalType": "bytes32",
					"name": "role",
					"type": "bytes32"
				}
			],
			"name": "getRoleAdmin",
			"outputs": [
				{
					"internalType": "bytes32",
					"name": "",
					"type": "bytes32"
				}
			],
			"stateMutability": "view",
			"type": "function"
		},
		{
			"inputs": [
				{
					"internalType": "bytes32",
					"name": "role",
					"type": "bytes32"
				},
				{
					"internalType": "address",
					"name": "account",
					"type": "address"
				}
			],
			"name": "grantRole",
			"outputs": [],
			"stateMutability": "nonpayable",
			"type": "function"
		},
		{
			"inputs": [
				{
					"internalType": "bytes32",
					"name": "role",
					"type": "bytes32"
				},
				{
					"internalType": "address",
					"name": "account",
					"type": "address"
				}
			],
			"name": "hasRole",
			"outputs": [
				{
					"internalType": "bool",
					"name": "",
					"type": "bool"
				}
			],
			"stateMutability": "view",
			"type": "function"
		},
		{
			"inputs": [
				{
					"internalType": "bytes32",
					"name": "role",
					"type": "bytes32"
				},
				{
					"internalType": "address",
					"name": "account",
					"type": "address"
				}
			],
			"name": "renounceRole",
			"outputs": [],
			"stateMutability": "nonpayable",
			"type": "function"
		},
		{
			"inputs": [
				{
					"internalType": "bytes32",
					"name": "role",
					"type": "bytes32"
				},
				{
					"internalType": "address",
					"name": "account",
					"type": "address"
				}
			],
			"name": "revokeRole",
			"outputs": [],
			"stateMutability": "nonpayable",
			"type": "function"
		},
		{
			"inputs": [
				{
					"internalType": "address",
					"name": "caller",
					"type": "address"
				},
				{
					"internalType": "bytes32",
					"name": "codeHash",
					"type": "bytes32"
				},
				{
					"internalType": "uint256",
					"name": "newLockTime",
					"type": "uint256"
				},
				{
					"internalType": "uint256",
					"name": "lockRate",
					"type": "uint256"
				}
			],
			"name": "setCodeLockTime",
			"outputs": [
				{
					"internalType": "bool",
					"name": "",
					"type": "bool"
				}
			],
			"stateMutability": "nonpayable",
			"type": "function"
		},
		{
			"inputs": [
				{
					"internalType": "bytes4",
					"name": "interfaceId",
					"type": "bytes4"
				}
			],
			"name": "supportsInterface",
			"outputs": [
				{
					"internalType": "bool",
					"name": "",
					"type": "bool"
				}
			],
			"stateMutability": "view",
			"type": "function"
		},
		{
			"inputs": [
				{
					"internalType": "address",
					"name": "caller",
					"type": "address"
				},
				{
					"internalType": "bytes32[]",
					"name": "codeHashes",
					"type": "bytes32[]"
				}
			],
			"name": "unblockCode",
			"outputs": [
				{
					"internalType": "bool[]",
					"name": "",
					"type": "bool[]"
				}
			],
			"stateMutability": "nonpayable",
			"type": "function"
		},
		{
			"inputs": [
				{
					"internalType": "address",
					"name": "caller",
					"type": "address"
				},
				{
					"internalType": "bytes32",
					"name": "codeHash",
					"type": "bytes32"
				},
				{
					"internalType": "string",
					"name": "rawKey",
					"type": "string"
				}
			],
			"name": "unlockCodeWalletKey",
			"outputs": [
				{
					"internalType": "bool",
					"name": "",
					"type": "bool"
				}
			],
			"stateMutability": "nonpayable",
			"type": "function"
		},
		{
			"inputs": [
				{
					"components": [
						{
							"internalType": "address",
							"name": "owner",
							"type": "address"
						},
						{
							"internalType": "bytes32",
							"name": "codeHash",
							"type": "bytes32"
						},
						{
							"internalType": "uint256",
							"name": "activeTime",
							"type": "uint256"
						},
						{
							"internalType": "uint256",
							"name": "expirationActiveTime",
							"type": "uint256"
						},
						{
							"internalType": "uint256",
							"name": "boostSpeed",
							"type": "uint256"
						},
						{
							"internalType": "uint256",
							"name": "boostTime",
							"type": "uint256"
						},
						{
							"internalType": "uint256",
							"name": "rateBoost",
							"type": "uint256"
						},
						{
							"internalType": "address",
							"name": "delegate",
							"type": "address"
						},
						{
							"internalType": "enum Status",
							"name": "status",
							"type": "uint8"
						},
						{
							"internalType": "string",
							"name": "origin",
							"type": "string"
						},
						{
							"internalType": "uint256",
							"name": "mintedAmount",
							"type": "uint256"
						},
						{
							"internalType": "uint256",
							"name": "releasePercentage",
							"type": "uint256"
						},
						{
							"internalType": "uint256",
							"name": "lockTime",
							"type": "uint256"
						},
						{
							"internalType": "bytes32",
							"name": "keyHash",
							"type": "bytes32"
						},
						{
							"internalType": "string",
							"name": "haah",
							"type": "string"
						},
						{
							"internalType": "string[]",
							"name": "hihi",
							"type": "string[]"
						}
					],
					"internalType": "struct Code",
					"name": "updatedCode",
					"type": "tuple"
				}
			],
			"name": "updateCode",
			"outputs": [
				{
					"internalType": "bool",
					"name": "",
					"type": "bool"
				}
			],
			"stateMutability": "nonpayable",
			"type": "function"
		},
		{
			"inputs": [
				{
					"internalType": "address",
					"name": "caller",
					"type": "address"
				},
				{
					"internalType": "bytes32",
					"name": "codeHash",
					"type": "bytes32"
				},
				{
					"internalType": "string",
					"name": "rawKey",
					"type": "string"
				},
				{
					"internalType": "bytes32",
					"name": "newKeyHash",
					"type": "bytes32"
				}
			],
			"name": "updateCodeWalletKey",
			"outputs": [
				{
					"internalType": "bool",
					"name": "",
					"type": "bool"
				}
			],
			"stateMutability": "nonpayable",
			"type": "function"
		},
		{
			"inputs": [
				{
					"internalType": "bytes32",
					"name": "codeHash",
					"type": "bytes32"
				}
			],
			"name": "updateExpiredCode",
			"outputs": [
				{
					"internalType": "bool",
					"name": "",
					"type": "bool"
				}
			],
			"stateMutability": "nonpayable",
			"type": "function"
		}
	]
}