{
	"data": {
		"bytecode": {
			"linkReferences": {},
			"object": "60806040526178d0806100136000396000f3fe608060405234801561001057600080fd5b50600436106105665760003560e01c8063795b5cd4116102ca578063ba1abc161161018d578063ddcd6408116100f4578063e85b76de116100ad578063f0d4f19c11610087578063f0d4f19c14610e5f578063f2fde38b14610e68578063ff57254914610e7b578063ff69455914610ea457600080fd5b8063e85b76de14610e26578063ebf0c71714610e39578063edaaeed214610e4c57600080fd5b8063ddcd640814610da8578063de6f8fe814610dbb578063e1604b7014610de4578063e5dfb5bf14610ded578063e610e46d14610e00578063e80d938314610e1357600080fd5b8063d19bea6711610146578063d19bea6714610d28578063d205739914610d3b578063d5fcd3bc14610d43578063d6cf2f1114610d4c578063d9796fd114610d75578063da5c834414610d9557600080fd5b8063ba1abc1614610cc0578063bb67535514610cd3578063cae6733314610ce6578063cb249b4314610cf9578063cd05e26914610d0c578063cec643b314610d1f57600080fd5b80639c5c8cbf11610231578063a8223c06116101ea578063a8223c0614610c6c578063a8b90f3f14610c75578063ab36667f14610c7e578063b106b0c914610c91578063b3e2f04314610c9a578063b92fc3aa14610cad57600080fd5b80639c5c8cbf14610ba85780639c5f29c014610bc85780639f7bb6c714610bf4578063a0a92fcb14610c30578063a559934e14610c39578063a645ccec14610c4c57600080fd5b80638a29e2de116102835780638a29e2de14610b115780638c7ab1d714610b245780638da5cb5b14610b375780638eecfb7d14610b485780638ff18d7314610b6857806391eea25f14610b8857600080fd5b8063795b5cd414610a8a5780637b76ac9114610a935780637c148a4814610ab85780637dcdac8a14610acb57806386bd3eab14610ade57806388527d3c14610afe57600080fd5b8063443469581161042d57806367574cb1116103945780636dd0f0221161034d578063715018a611610327578063715018a614610a385780637235e5d614610a40578063776c14c014610a49578063786c11e914610a5c57600080fd5b80636dd0f022146109f25780636e83822b14610a05578063707d64cb14610a2557600080fd5b806367574cb11461095d5780636c23e6bb146109805780636c3fe078146109a35780636c412b5c146109c35780636d1f6249146109cc5780636d93adb7146109df57600080fd5b806357ef7e24116103e657806357ef7e24146108c55780635a272403146108e55780635b11ce4c146108f85780635df0a085146109215780636221a4ed1461092a578063652bbf5e1461093d57600080fd5b8063443469581461082f578063494da41114610842578063499642f81461086c5780634ca751a61461087f5780634decfded1461089f57806355cdaf59146108b257600080fd5b806324d7806c116104d157806330abb2e31161048a57806330abb2e3146107c5578063362efc3d146107d857806337e6dc60146107e15780633cc44a48146107e9578063419e1575146107fc5780634376bb891461081c57600080fd5b806324d7806c146106ee57806325691de414610711578063268607351461074657806329e1d478146107665780632c9387f6146107925780632f48ab7d146107b257600080fd5b8063183736a611610523578063183736a61461061757806318a39bf21461062c5780631b52d64e1461063f578063202c0c2f146106ba5780632133b5fb146106c3578063246c7d69146106d657600080fd5b80630763872e1461056b578063081fc5791461059e5780630b1e7cce146105df578063165abf8b146105e857806316d189cd146105f15780631772503f14610604575b600080fd5b61058b61057936600461709a565b60946020526000908152604090205481565b6040519081526020015b60405180910390f35b6105c76105ac3660046170b7565b606e602052600090815260409020546001600160a01b031681565b6040516001600160a01b039091168152602001610595565b61058b607f5481565b61058b60885481565b61058b6105ff36600461709a565b610eb7565b61058b6106123660046170d0565b610fbe565b61062a61062536600461709a565b611183565b005b61062a61063a3660046170b7565b6115c5565b61068761064d36600461709a565b606c602052600090815260409020546001600160401b0380821691600160401b8104821691600160801b8204811691600160c01b90041684565b604080516001600160401b0395861681529385166020850152918416918301919091529091166060820152608001610595565b61058b60ac5481565b61058b6106d136600461710f565b6115d2565b6106de611698565b6040519015158152602001610595565b6106de6106fc36600461709a565b60a06020526000908152604090205460ff1681565b61073461071f36600461709a565b606d6020526000908152604090205460ff1681565b60405160ff9091168152602001610595565b61058b61075436600461709a565b60996020526000908152604090205481565b6105c761077436600461709a565b6001600160a01b039081166000908152607260205260409020541690565b6107a56107a036600461709a565b611990565b604051610595919061729c565b6065546105c7906001600160a01b031681565b6106de6107d33660046170d0565b611bac565b61058b60825481565b6106de611cfb565b61062a6107f736600461709a565b612126565b61058b61080a36600461709a565b609a6020526000908152604090205481565b61058b61082a3660046170b7565b612150565b6105c761083d36600461710f565b612171565b6106de61085036600461709a565b6001600160a01b03166000908152607560205260409020541590565b61062a61087a36600461710f565b6121a9565b61058b61088d36600461709a565b609c6020526000908152604090205481565b6106de6108ad3660046170b7565b61233b565b6105c76108c036600461710f565b612404565b61058b6108d336600461709a565b609e6020526000908152604090205481565b61062a6108f336600461709a565b612420565b6105c76109063660046170b7565b6000908152606e60205260409020546001600160a01b031690565b61058b60ad5481565b6068546105c7906001600160a01b031681565b61095061094b36600461709a565b61244c565b60405161059591906172af565b6106de61096b36600461709a565b60776020526000908152604090205460ff1681565b61098861252a565b60408051825181526020928301519281019290925201610595565b61058b6109b136600461709a565b60966020526000908152604090205481565b61058b60905481565b6069546105c7906001600160a01b031681565b61058b6109ed3660046170d0565b6125cd565b61058b610a003660046170b7565b6128fb565b610a18610a1336600461709a565b61290b565b6040516105959190617311565b6106de610a33366004617324565b612b35565b61062a612e22565b61058b60925481565b60ab546105c7906001600160a01b031681565b6106de610a6a3660046170d0565b609d60209081526000928352604080842090915290825290205460ff1681565b61058b60865481565b608554610aa39063ffffffff1681565b60405163ffffffff9091168152602001610595565b61062a610ac6366004617349565b612e36565b61058b610ad93660046170b7565b612f80565b61058b610aec36600461709a565b60976020526000908152604090205481565b61058b610b0c36600461709a565b612f90565b61062a610b1f36600461737e565b613041565b6066546105c7906001600160a01b031681565b6033546001600160a01b03166105c7565b61058b610b5636600461709a565b60786020526000908152604090205481565b61058b610b7636600461709a565b609b6020526000908152604090205481565b61058b610b9636600461709a565b60796020526000908152604090205481565b61058b610bb636600461709a565b60986020526000908152604090205481565b6106de610bd636600461709a565b6001600160a01b031660009081526074602052604090205460ff1690565b610c1b610c0236600461709a565b606f602052600090815260409020805460019091015482565b60408051928352602083019190915201610595565b61058b607c5481565b61062a610c4736600461709a565b6134ad565b610c5f610c5a36600461709a565b6134d7565b6040516105959190617427565b61058b60aa5481565b61058b608c5481565b61058b610c8c3660046170b7565b61379f565b61058b60875481565b61058b610ca83660046170b7565b6137af565b6067546105c7906001600160a01b031681565b61058b610cce36600461709a565b6137bf565b61058b610ce13660046170b7565b613870565b61062a610cf43660046170b7565b613880565b6106de610d0736600461710f565b61388d565b610a18610d1a36600461709a565b613936565b61058b60a95481565b60a6546105c7906001600160a01b031681565b61058b613b56565b61058b608f5481565b6105c7610d5a36600461709a565b6073602052600090815260409020546001600160a01b031681565b61058b610d8336600461709a565b60956020526000908152604090205481565b61062a610da336600461709a565b613bce565b61062a610db636600461709a565b613bf8565b6105c7610dc936600461709a565b6072602052600090815260409020546001600160a01b031681565b61058b606b5481565b6106de610dfb366004617483565b613c22565b61058b610e0e3660046170b7565b613f2d565b61062a610e2136600461709a565b613f3d565b610950610e3436600461709a565b613f67565b606a546105c7906001600160a01b031681565b60a8546105c7906001600160a01b031681565b61058b60915481565b61062a610e7636600461709a565b614077565b610e8e610e8936600461709a565b6140f0565b6040516105959a999897969594939291906174d0565b61062a610eb23660046170b7565b6142af565b600080805b6001600160a01b038416600090815260706020526040902054811015610fb7576001600160a01b03841660009081526070602052604081208054607992919084908110610f0b57610f0b61752e565b60009182526020808320909101546001600160a01b03168352820192909252604001902054610f3a908361755a565b6001600160a01b0385166000908152607060205260408120805492945060749284908110610f6a57610f6a61752e565b60009182526020808320909101546001600160a01b0316835282019290925260400190205460ff1615610fa55781610fa18161756d565b9250505b80610faf8161756d565b915050610ebc565b5092915050565b600080805b6001600160a01b038516600090815260706020526040902054811015611179576001600160a01b038516600090815260706020526040812080546074929190849081106110125761101261752e565b60009182526020808320909101546001600160a01b0316835282019290925260400190205460ff161561104d57816110498161756d565b9250505b607d8460ff16815481106110635761106361752e565b90600052602060002001546079600060706000896001600160a01b03166001600160a01b0316815260200190815260200160002084815481106110a8576110a861752e565b60009182526020808320909101546001600160a01b03168352820192909252604001902054111561110657607d8460ff16815481106110e9576110e961752e565b9060005260206000200154826110ff919061755a565b9150611167565b6001600160a01b038516600090815260706020526040812080546079929190849081106111355761113561752e565b60009182526020808320909101546001600160a01b03168352820192909252604001902054611164908361755a565b91505b806111718161756d565b915050610fc3565b5090505b92915050565b600061118e82610eb7565b6001600160a01b038316600090815260706020526040812054607a8054939450909260069081106111c1576111c161752e565b90600052602060002001546111d7856006610fbe565b1061123757506001600160a01b0383166000908152606d602052604090205460069060ff16811115611231576001600160a01b0384166000908152606d60205260409020805460ff191660ff8316179055611231846142bc565b50505050565b607a60058154811061124b5761124b61752e565b9060005260206000200154611261856005610fbe565b1015801561127b5750607c546112788560046125cd565b10155b1561132957506001600160a01b0383166000908152606d602052604090205460059060ff168111156112d5576001600160a01b0384166000908152606d60205260409020805460ff191660ff831617905561123184614369565b6001600160a01b0384166000908152606d602052604090205460ff80831691161115611329576001600160a01b0384166000908152606d60205260409020805460ff191660ff831617905561123184614416565b607a60048154811061133d5761133d61752e565b9060005260206000200154611353856004610fbe565b101580156113955750607b6004815481106113705761137061752e565b9060005260206000200154821015806113955750607c546113928560036125cd565b10155b1561140357506001600160a01b0383166000908152606d602052604090205460049060ff168110156113d3576113ca84614538565b6113d384614416565b6001600160a01b03939093166000908152606d60205260409020805460ff191660ff909416939093179092555050565b607a6003815481106114175761141761752e565b906000526020600020015461142d856003610fbe565b1015801561146f5750607b60038154811061144a5761144a61752e565b90600052602060002001548210158061146f5750607c5461146c8560026125cd565b10155b156114a757506001600160a01b0383166000908152606d6020526040902054600390600460ff90911611156113d3576113ca84614538565b607a6002815481106114bb576114bb61752e565b906000526020600020015483101580156115095750607b6002815481106114e4576114e461752e565b9060005260206000200154821015806115095750607c546115068560016125cd565b10155b1561154157506001600160a01b0383166000908152606d6020526040902054600290600460ff90911611156113d3576113ca84614538565b607a6001815481106115555761155561752e565b9060005260206000200154831015801561158d5750607b60018154811061157e5761157e61752e565b90600052602060002001548210155b1561123157506001600160a01b0383166000908152606d6020526040902054600190600460ff90911611156113d3576113ca84614538565b6115cd614630565b608355565b6000808281036115e357905061117d565b6001600160a01b038416600090815260706020526040902054611606908261755a565b905060005b6001600160a01b038516600090815260706020526040902054811015611179576001600160a01b0385166000908152607060205260409020805461167a91908390811061165a5761165a61752e565b6000918252602090912001546001600160a01b03166106d1600187617586565b611684908361755a565b9150806116908161756d565b91505061160b565b33600090815260a0602052604081205460ff1615156001146116fd5760405162461bcd60e51b815260206004820152601960248201527824b73b30b634b21031b0b63632b916a7b7363c9020b236b4b760391b60448201526064015b60405180910390fd5b6000606b546001600160401b0381111561171957611719617599565b604051908082528060200260200182016040528015611742578160200160208202803683370190505b50905060008060005b606a546001600160a01b031660009081526070602052604090205481101561180157606a546001600160a01b031660009081526070602052604090208054829081106117995761179961752e565b9060005260206000200160009054906101000a90046001600160a01b03168483815181106117c9576117c961752e565b6001600160a01b0390921660209283029190910190910152816117eb8161756d565b92505080806117f99061756d565b91505061174b565b505b8082101561198657600083838151811061181f5761181f61752e565b6020026020010151905082806118349061756d565b6001600160a01b03831660009081526076602052604090205490945042119050801561187d57506001600160a01b03811660009081526074602052604090205460ff1615156001145b156118ab576001600160a01b0381166000908152607460205260409020805460ff191690556118ab8161468a565b6001600160a01b038116600090815260706020526040902054156119805760005b6001600160a01b03821660009081526070602052604090205481101561197e576001600160a01b03821660009081526070602052604090208054829081106119165761191661752e565b9060005260206000200160009054906101000a90046001600160a01b03168584815181106119465761194661752e565b6001600160a01b0390921660209283029190910190910152826119688161756d565b93505080806119769061756d565b9150506118cc565b505b50611803565b6001935050505090565b611998616f2d565b6001600160a01b03821680825260008181526074602090815260408083205460ff161515828601528383526075825280832054818601528383526076825280832054606086015283835260788252808320546080860152928252607081529082902080548351818402810184019094528084529091830182828015611a4657602002820191906000526020600020905b81546001600160a01b03168152600190910190602001808311611a28575b505050505060a08201526001600160a01b03821660009081526071602090815260409182902080548351818402810184019094528084529091830182828015611ab857602002820191906000526020600020905b81546001600160a01b03168152600190910190602001808311611a9a575b505050505060c08201526001600160a01b03918216600081815260726020908152604080832054861660e086015283835260738252808320549095166101008501528282526079815284822054610120850152828252606d81528482205460ff166101408501528282526094815284822054610160850152828252609581528482205461018085015282825260968152848220546101a085015282825260978152848220546101c085015282825260988152848220546101e08501528282526099815284822054610200850152828252609a815284822054610220850152918152609c909152919091205461024082015290565b600060068260ff161115611bc25750600061117d565b6001600160a01b0383166000908152606d60205260409020805460ff191660ff8416908117909155600503611c455760a180546001810182556000919091527faadc37b8ba5645e62f4546802db221593a94729ccbfc5a97d01365a88f6498780180546001600160a01b0319166001600160a01b038516179055611c4583614416565b8160ff16600603611cd45760a2805460018181019092557faaf4f58de99300cfadc4585755f376d5fa747d5bc561d5bd9d710de1f91bf42d0180546001600160a01b0386166001600160a01b0319918216811790925560a1805493840181556000527faadc37b8ba5645e62f4546802db221593a94729ccbfc5a97d01365a88f64987890920180549092161790555b60058260ff161015611cf257611ce983614416565b611cf283614538565b50600192915050565b33600090815260a0602052604081205460ff161515600114611d5b5760405162461bcd60e51b815260206004820152601960248201527824b73b30b634b21031b0b63632b916a7b7363c9020b236b4b760391b60448201526064016116f4565b6000606b546001600160401b03811115611d7757611d77617599565b604051908082528060200260200182016040528015611da0578160200160208202803683370190505b50905060008060005b606a546001600160a01b0316600090815260706020526040902054811015611e5f57606a546001600160a01b03166000908152607060205260409020805482908110611df757611df761752e565b9060005260206000200160009054906101000a90046001600160a01b0316848381518110611e2757611e2761752e565b6001600160a01b039092166020928302919091019091015281611e498161756d565b9250508080611e579061756d565b915050611da9565b505b80821015611986576000838381518110611e7d57611e7d61752e565b602002602001015190508280611e929061756d565b6001600160a01b0383166000908152609b602052604090205490945015905061204b576001600160a01b03811660009081526074602052604090205460ff161515600103611fc7576066546001600160a01b038281166000908152609b602052604090819020549051636cf50d9160e11b8152919092169163d9ea1b2291611f1e9185916004016175af565b6020604051808303816000875af1158015611f3d573d6000803e3d6000fd5b505050506040513d601f19601f82011682018060405250810190611f6191906175c8565b506001600160a01b0381166000818152609b602090815260409182902054825193845290830152428282015260806060830181905260089083015267476f6f6453616c6560c01b60a08301525160008051602061787b8339815191529181900360c00190a15b6001600160a01b0381166000908152609b602090815260408083205460989092528220805491929091611ffb90849061755a565b90915550506001600160a01b0381166000908152609b6020526040812054609080549192909161202c90849061755a565b90915550506001600160a01b0381166000908152609b60205260408120555b6001600160a01b038116600090815260706020526040902054156121205760005b6001600160a01b03821660009081526070602052604090205481101561211e576001600160a01b03821660009081526070602052604090208054829081106120b6576120b661752e565b9060005260206000200160009054906101000a90046001600160a01b03168584815181106120e6576120e661752e565b6001600160a01b0390921660209283029190910190910152826121088161756d565b93505080806121169061756d565b91505061206c565b505b50611e61565b61212e614630565b606980546001600160a01b0319166001600160a01b0392909216919091179055565b608e818154811061216057600080fd5b600091825260209091200154905081565b6071602052816000526040600020818154811061218d57600080fd5b6000918252602090912001546001600160a01b03169150829050565b6069546001600160a01b031633146121d35760405162461bcd60e51b81526004016116f4906175ea565b60006103e860ad54836121e6919061762b565b6121f09190617642565b606654604051636cf50d9160e11b81529192506001600160a01b03169063d9ea1b229061222390869085906004016175af565b6020604051808303816000875af1158015612242573d6000803e3d6000fd5b505050506040513d601f19601f8201168201806040525081019061226691906175c8565b5060008051602061787b83398151915283824260405161228893929190617664565b60405180910390a16000805b608e548110156122f057608254608e82815481106122b4576122b461752e565b90600052602060002001546122c9919061762b565b83106122f057609f546122dc908361755a565b9150806122e88161756d565b915050612294565b506103e86122fe828561762b565b6123089190617642565b6001600160a01b0385166000908152609b60205260408120805490919061233090849061755a565b909155505050505050565b60008161238a5760405162461bcd60e51b815260206004820152601e60248201527f4b76656e747572653a20496e76616c69642050686f6e65204e756d626572000060448201526064016116f4565b336000908152606f60205260409020546123da5760405162461bcd60e51b815260206004820152601160248201527025bb32b73a3ab9329d102737ba1029bab160791b60448201526064016116f4565b50336000908152606f60209081526040808320600190810185905560789092529091209190915590565b6070602052816000526040600020818154811061218d57600080fd5b612428614630565b6001600160a01b0316600090815260a060205260409020805460ff19166001179055565b60606000612459836137bf565b905060006124668461290b565b90506000826001600160401b0381111561248257612482617599565b6040519080825280602002602001820160405280156124bb57816020015b6124a8616f2d565b8152602001906001900390816124a05790505b50905060005b838110156125215760006124ed8483815181106124e0576124e061752e565b6020026020010151611990565b9050808383815181106125025761250261752e565b60200260200101819052505080806125199061756d565b9150506124c1565b50949350505050565b60408051808201909152600080825260208201523360009081526077602052604090205460ff1615156001146125a25760405162461bcd60e51b815260206004820152601f60248201527f4d6574614e6f64653a20506c656173652053756263726962652046697273740060448201526064016116f4565b50336000908152606f6020908152604091829020825180840190935280548352600101549082015290565b6000806125d984612f90565b9050600080826001600160401b038111156125f6576125f6617599565b60405190808252806020026020018201604052801561261f578160200160208202803683370190505b50905060008060005b6001600160a01b03891660009081526070602052604090205481101561275b576001600160a01b03891660009081526070602052604090208054829081106126725761267261752e565b9060005260206000200160009054906101000a90046001600160a01b03168483815181106126a2576126a261752e565b60200260200101906001600160a01b031690816001600160a01b0316815250508760ff16606d6000607060008d6001600160a01b03166001600160a01b0316815260200190815260200160002084815481106127005761270061752e565b60009182526020808320909101546001600160a01b0316835282019290925260400190205460ff161061273b57846127378161756d565b9550505b816127458161756d565b92505080806127539061756d565b915050612628565b505b808210156128ef5760008383815181106127795761277961752e565b60200260200101519050828061278e9061756d565b6001600160a01b0383166000908152607060205260409020549094501590506128e95760005b6001600160a01b0382166000908152607060205260409020548110156128e7576001600160a01b03821660009081526070602052604090208054829081106127fe576127fe61752e565b9060005260206000200160009054906101000a90046001600160a01b031685848151811061282e5761282e61752e565b60200260200101906001600160a01b031690816001600160a01b0316815250508860ff16606d600060706000866001600160a01b03166001600160a01b03168152602001908152602001600020848154811061288c5761288c61752e565b60009182526020808320909101546001600160a01b0316835282019290925260400190205460ff16106128c757856128c38161756d565b9650505b826128d18161756d565b93505080806128df9061756d565b9150506127b4565b505b5061275d565b50919695505050505050565b607d818154811061216057600080fd5b60606000612918836137bf565b90506000816001600160401b0381111561293457612934617599565b60405190808252806020026020018201604052801561295d578160200160208202803683370190505b50905060008060005b6001600160a01b038716600090815260716020526040902054811015612a18576001600160a01b03871660009081526071602052604090208054829081106129b0576129b061752e565b9060005260206000200160009054906101000a90046001600160a01b03168483815181106129e0576129e061752e565b6001600160a01b039092166020928302919091019091015281612a028161756d565b9250508080612a109061756d565b915050612966565b505b80821015612b2b576000838381518110612a3657612a3661752e565b602002602001015190508280612a4b9061756d565b6001600160a01b038316600090815260716020526040902054909450159050612b255760005b6001600160a01b038216600090815260716020526040902054811015612b23576001600160a01b0382166000908152607160205260409020805482908110612abb57612abb61752e565b9060005260206000200160009054906101000a90046001600160a01b0316858481518110612aeb57612aeb61752e565b6001600160a01b039092166020928302919091019091015282612b0d8161756d565b9350508080612b1b9061756d565b915050612a71565b505b50612a1a565b5090949350505050565b6001600160a01b03811660009081526074602052604081205460ff161515600114612bad5760405162461bcd60e51b815260206004820152602260248201527f746869732061646472657373206973206e6f742061637469766520616e796d6f604482015261726560f01b60648201526084016116f4565b60018310158015612bbf575060248311155b612c0b5760405162461bcd60e51b815260206004820152601760248201527f696e76616c6964206e756d626572206f66206d6f6e746800000000000000000060448201526064016116f4565b6001600160a01b03821660009081526077602052604090205460ff161515600114612c715760405162461bcd60e51b815260206004820152601660248201527513995959081d1bc81c9959da5cdd195c88199a5c9cdd60521b60448201526064016116f4565b6084546065546040516370a0823160e01b81523360048201526001600160a01b03909116906370a0823190602401602060405180830381865afa158015612cbc573d6000803e3d6000fd5b505050506040513d601f19601f82011682018060405250810190612ce091906176a1565b1015612d205760405162461bcd60e51b815260206004820152600f60248201526e496e76616c69642042616c616e636560881b60448201526064016116f4565b600083608454612d30919061762b565b6065546066546040516323b872dd60e01b81523360048201526001600160a01b0391821660248201526044810184905292935016906323b872dd906064016020604051808303816000875af1158015612d8d573d6000803e3d6000fd5b505050506040513d601f19601f82011682018060405250810190612db191906175c8565b50612dbc838261470d565b8360a754612dca919061762b565b6001600160a01b038416600090815260766020526040902054612ded919061755a565b6001600160a01b038416600090815260766020526040902055612e0f81614b2b565b612e1881614f02565b5060019392505050565b612e2a614630565b612e3460006152e4565b565b6069546001600160a01b03163314612e605760405162461bcd60e51b81526004016116f4906175ea565b6001600160a01b0383166000908152609c602052604081208054849290612e8890849061755a565b909155505060665460ab5460ac546001600160a01b039283169263d9ea1b229216906103e890612eb8908761762b565b612ec29190617642565b6040518363ffffffff1660e01b8152600401612edf9291906175af565b6020604051808303816000875af1158015612efe573d6000803e3d6000fd5b505050506040513d601f19601f82011682018060405250810190612f2291906175c8565b50612f466103e860aa5484612f37919061762b565b612f419190617642565b615336565b50612f5183826153f4565b8160936000828254612f63919061755a565b90915550612f72905082614b2b565b612f7b82614f02565b505050565b607b818154811061216057600080fd5b6001600160a01b0381166000908152607060205260408120548190612fb5908261755a565b905060005b6001600160a01b038416600090815260706020526040902054811015610fb7576001600160a01b038416600090815260706020526040902080546130239190839081106130095761300961752e565b6000918252602090912001546001600160a01b0316612f90565b61302d908361755a565b9150806130398161756d565b915050612fba565b600054610100900460ff16158080156130615750600054600160ff909116105b8061307b5750303b15801561307b575060005460ff166001145b6130de5760405162461bcd60e51b815260206004820152602e60248201527f496e697469616c697a61626c653a20636f6e747261637420697320616c72656160448201526d191e481a5b9a5d1a585b1a5e995960921b60648201526084016116f4565b6000805460ff191660011790558015613101576000805461ff0019166101001790555b606580546001600160a01b03199081166001600160a01b038c8116919091179092556066805482168b84161790556067805482168a8416179055606880548216868416179055606a805490911691881691909117905561315f61585b565b6040805160e0810182526000815260026020820152601491810191909152606460608201526101f460808201526109c460a082015261c35060c08201526131aa90607a906007616fdf565b506040805160a0810182526000815260026020820152600a91810191909152601e6060820152606460808201526131e590607b906005617030565b506040805160e08101825260008082526020820181905291810191909152601e6060820152609660808201526101f460a082015261271060c082015261322f90607d906007616fdf565b506003607c5560408051610140810182526101f481526064602082015260329181018290526060810191909152601e6080820152601460a0820181905260c0820152600a60e082018190526101008201819052610120820181905261329691607e91616fdf565b5060af607f5560196080908155610320608955610339608a556096608b556040805160a0810182526101f481526064602082015260329181018290526060810191909152601e918101919091526132f1906081906005616fdf565b50620f4240608281905561330690602861762b565b60835560825461331790600a61762b565b6084556085805463ffffffff19166001179055600f608c5560408051610140810182526101f481526064602082015260329181018290526060810191909152601e6080820152601460a0820181905260c0820152600a60e082018190526101008201819052610120820181905261339091608d91616fdf565b506040805160a08101825261012c815261025860208201526104b091810191909152610bb8606082015261177060808201526133d090608e906005616fdf565b506064609f55601460a355600560a45561012760a55533600090815260a060205260409020805460ff1916600117905562278d0060a75561340f61588a565b60a680546001600160a01b038088166001600160a01b03199283161790925560a8805487841690831617905560b460aa556101f460ac81905560ab80549386169390921692909217905560ad5580156134a2576000805461ff0019169055604051600181527f7f26b83ff96e1f2b6a682f133852f6798a09c465da95921460cefb38474024989060200160405180910390a15b505050505050505050565b6134b5614630565b606680546001600160a01b0319166001600160a01b0392909216919091179055565b606060006134e68360026115d2565b90506000816001600160401b0381111561350257613502617599565b60405190808252806020026020018201604052801561354757816020015b60408051808201909152600080825260208201528152602001906001900390816135205790505b5090506000805b6001600160a01b038616600090815260706020526040902054811015612b2b57604051806040016040528060706000896001600160a01b03166001600160a01b0316815260200190815260200160002083815481106135af576135af61752e565b600091825260209182902001546001600160a01b039081168352891691015283518490849081106135e2576135e261752e565b602002602001018190525081806135f89061756d565b92505083821061360c575090949350505050565b60005b6001600160a01b0387166000908152607060208190526040822080549192918590811061363e5761363e61752e565b60009182526020808320909101546001600160a01b0316835282019290925260400190205481101561378c57604051806040016040528060706000607060008c6001600160a01b03166001600160a01b0316815260200190815260200160002086815481106136af576136af61752e565b60009182526020808320909101546001600160a01b0316835282019290925260400190208054849081106136e5576136e561752e565b60009182526020808320909101546001600160a01b0390811684528b16825260708152604090912080549290910191859081106137245761372461752e565b6000918252602090912001546001600160a01b03169052845185908590811061374f5761374f61752e565b602002602001018190525082806137659061756d565b93505084831061377a57509195945050505050565b806137848161756d565b91505061360f565b50806137978161756d565b91505061354e565b607a818154811061216057600080fd5b6081818154811061216057600080fd5b6001600160a01b03811660009081526071602052604081205481906137e4908261755a565b905060005b6001600160a01b038416600090815260716020526040902054811015610fb7576001600160a01b038416600090815260716020526040902080546138529190839081106138385761383861752e565b6000918252602090912001546001600160a01b03166137bf565b61385c908361755a565b9150806138688161756d565b9150506137e9565b608d818154811061216057600080fd5b613888614630565b60a755565b6069546000906001600160a01b031633146138ba5760405162461bcd60e51b81526004016116f4906175ea565b606654604051636cf50d9160e11b81526001600160a01b039091169063d9ea1b22906138ec90869086906004016175af565b6020604051808303816000875af115801561390b573d6000803e3d6000fd5b505050506040513d601f19601f8201168201806040525081019061392f91906175c8565b9392505050565b6060600061394383612f90565b90506000816001600160401b0381111561395f5761395f617599565b604051908082528060200260200182016040528015613988578160200160208202803683370190505b50905060008060005b6001600160a01b038716600090815260706020526040902054811015613a43576001600160a01b03871660009081526070602052604090208054829081106139db576139db61752e565b9060005260206000200160009054906101000a90046001600160a01b0316848381518110613a0b57613a0b61752e565b6001600160a01b039092166020928302919091019091015281613a2d8161756d565b9250508080613a3b9061756d565b915050613991565b505b80821015612b2b576000838381518110613a6157613a6161752e565b602002602001015190508280613a769061756d565b6001600160a01b038316600090815260706020526040902054909450159050613b505760005b6001600160a01b038216600090815260706020526040902054811015613b4e576001600160a01b0382166000908152607060205260409020805482908110613ae657613ae661752e565b9060005260206000200160009054906101000a90046001600160a01b0316858481518110613b1657613b1661752e565b6001600160a01b039092166020928302919091019091015282613b388161756d565b9350508080613b469061756d565b915050613a9c565b505b50613a45565b3360009081526077602052604081205460ff161515600114613bba5760405162461bcd60e51b815260206004820152601f60248201527f4d6574614e6f64653a20506c656173652053756263726962652046697273740060448201526064016116f4565b50336000908152606f602052604090205490565b613bd6614630565b606780546001600160a01b0319166001600160a01b0392909216919091179055565b613c00614630565b606580546001600160a01b0319166001600160a01b0392909216919091179055565b6001600160a01b03811660009081526077602052604081205460ff1615613c785760405162461bcd60e51b815260206004820152600a602482015269149959da5cdd195c995960b21b60448201526064016116f4565b613c82828661590c565b6000608454608354613c94919061755a565b9050600060845486613ca6919061762b565b90506000613cb4828461755a565b6065546040516370a0823160e01b815233600482015291925082916001600160a01b03909116906370a0823190602401602060405180830381865afa158015613d01573d6000803e3d6000fd5b505050506040513d601f19601f82011682018060405250810190613d2591906176a1565b1015613d655760405162461bcd60e51b815260206004820152600f60248201526e496e76616c69642042616c616e636560881b60448201526064016116f4565b6065546066546040516323b872dd60e01b81523360048201526001600160a01b039182166024820152604481018490529116906323b872dd906064016020604051808303816000875af1158015613dc0573d6000803e3d6000fd5b505050506040513d601f19601f82011682018060405250810190613de491906175c8565b50613dee856159eb565b613df985848b615ad0565b613e03858361470d565b6001600160a01b038516600090815260756020526040902042905560a754613e2c90889061762b565b6001600160a01b038616600090815260766020526040902054613e4f919061755a565b6001600160a01b038616600090815260766020526040902055613e7182614b2b565b613e7a82614f02565b600a871115613f1e57608254613e9190601e61762b565b60a96000828254613ea2919061755a565b909155505060685460405163a429a51360e01b81526001600160a01b039091169063a429a51390613ed99088908a906004016175af565b6020604051808303816000875af1158015613ef8573d6000803e3d6000fd5b505050506040513d601f19601f82011682018060405250810190613f1c91906175c8565b505b50600198975050505050505050565b607e818154811061216057600080fd5b613f45614630565b60a680546001600160a01b0319166001600160a01b0392909216919091179055565b6001600160a01b038116600090815260706020526040812054606091906001600160401b03811115613f9b57613f9b617599565b604051908082528060200260200182016040528015613fd457816020015b613fc1616f2d565b815260200190600190039081613fb95790505b50905060005b6001600160a01b038416600090815260706020526040902054811015610fb7576001600160a01b038416600090815260706020526040812080546140439190849081106140295761402961752e565b6000918252602090912001546001600160a01b0316611990565b9050808383815181106140585761405861752e565b602002602001018190525050808061406f9061756d565b915050613fda565b61407f614630565b6001600160a01b0381166140e45760405162461bcd60e51b815260206004820152602660248201527f4f776e61626c653a206e6577206f776e657220697320746865207a65726f206160448201526564647265737360d01b60648201526084016116f4565b6140ed816152e4565b50565b6001600160a01b0381166000908152606d6020908152604080832054607883528184205460708452828520805484518187028101870190955280855260ff9093169591946060949293849384938493849384938493909290919083018282801561418357602002820191906000526020600020905b81546001600160a01b03168152600190910190602001808311614165575b50505050509750609460008c6001600160a01b03166001600160a01b03168152602001908152602001600020549650609560008c6001600160a01b03166001600160a01b03168152602001908152602001600020549550609660008c6001600160a01b03166001600160a01b03168152602001908152602001600020549450609760008c6001600160a01b03166001600160a01b03168152602001908152602001600020549350609860008c6001600160a01b03166001600160a01b03168152602001908152602001600020549250609960008c6001600160a01b03166001600160a01b03168152602001908152602001600020549150609a60008c6001600160a01b03166001600160a01b031681526020019081526020016000205490509193959799509193959799565b6142b7614630565b608455565b60005b60a25481101561431657816001600160a01b031660a282815481106142e6576142e661752e565b6000918252602090912001546001600160a01b031603614304575050565b8061430e8161756d565b9150506142bf565b5060a280546001810182556000919091527faaf4f58de99300cfadc4585755f376d5fa747d5bc561d5bd9d710de1f91bf42d0180546001600160a01b0319166001600160a01b0392909216919091179055565b60005b60a1548110156143c357816001600160a01b031660a182815481106143935761439361752e565b6000918252602090912001546001600160a01b0316036143b1575050565b806143bb8161756d565b91505061436c565b5060a180546001810182556000919091527faadc37b8ba5645e62f4546802db221593a94729ccbfc5a97d01365a88f6498780180546001600160a01b0319166001600160a01b0392909216919091179055565b60005b60a25481101561453457816001600160a01b031660a282815481106144405761444061752e565b6000918252602090912001546001600160a01b0316036145225760a25461446990600190617586565b8110156144eb5760a2805461448090600190617586565b815481106144905761449061752e565b60009182526020909120015460a280546001600160a01b0390921691839081106144bc576144bc61752e565b9060005260206000200160006101000a8154816001600160a01b0302191690836001600160a01b031602179055505b60a28054806144fc576144fc6176ba565b600082815260209020810160001990810180546001600160a01b03191690550190555050565b8061452c8161756d565b915050614419565b5050565b60005b60a15481101561453457816001600160a01b031660a182815481106145625761456261752e565b6000918252602090912001546001600160a01b03160361461e5760a15461458b90600190617586565b81101561460d5760a180546145a290600190617586565b815481106145b2576145b261752e565b60009182526020909120015460a180546001600160a01b0390921691839081106145de576145de61752e565b9060005260206000200160006101000a8154816001600160a01b0302191690836001600160a01b031602179055505b60a18054806144fc576144fc6176ba565b806146288161756d565b91505061453b565b6033546001600160a01b03163314612e345760405162461bcd60e51b815260206004820181905260248201527f4f776e61626c653a2063616c6c6572206973206e6f7420746865206f776e657260448201526064016116f4565b6001600160a01b03808216600090815260726020526040902054165b6001600160a01b03811615614534576001600160a01b03811660009081526079602052604081208054600192906146de908490617586565b909155506146ed905081611183565b6001600160a01b03908116600090815260726020526040902054166146a6565b6001600160a01b03808316600090815260736020526040812054608a549216918491908190819081906103e89061474590899061762b565b61474f9190617642565b60665460a654608b549293506001600160a01b039182169263d9ea1b2292909116906103e890614780908c9061762b565b61478a9190617642565b6040518363ffffffff1660e01b81526004016147a79291906175af565b6020604051808303816000875af11580156147c6573d6000803e3d6000fd5b505050506040513d601f19601f820116820180604052508101906147ea91906175c8565b9250826148095760405162461bcd60e51b81526004016116f4906176d0565b60005b608c548110156134a2576001600160a01b0387166148cb5760665460a6546001600160a01b039182169163d9ea1b2291166148478686617586565b6040518363ffffffff1660e01b81526004016148649291906175af565b6020604051808303816000875af1158015614883573d6000803e3d6000fd5b505050506040513d601f19601f820116820180604052508101906148a791906175c8565b9350836148c65760405162461bcd60e51b81526004016116f4906176d0565b6134a2565b6148df876148da83600161755a565b615ccf565b15614afb576103e8886080546148f5919061762b565b6148ff9190617642565b6001600160a01b03881660009081526074602052604081205491965060ff909116151590036149c55760665460a654604051636cf50d9160e11b81526001600160a01b039283169263d9ea1b229261495e9291169089906004016175af565b6020604051808303816000875af115801561497d573d6000803e3d6000fd5b505050506040513d601f19601f820116820180604052508101906149a191906175c8565b9350836149c05760405162461bcd60e51b81526004016116f4906176d0565b614aa5565b6149cf8786615f1b565b6149d9908461755a565b606654604051636cf50d9160e11b81529194506001600160a01b03169063d9ea1b2290614a0c908a9089906004016175af565b6020604051808303816000875af1158015614a2b573d6000803e3d6000fd5b505050506040513d601f19601f82011682018060405250810190614a4f91906175c8565b50604080516001600160a01b03891681526020810187905242818301526080606082018190526006908201526509ac2e8e4d2f60d31b60a0820152905160008051602061787b8339815191529181900360c00190a15b614aaf858461755a565b6001600160a01b038816600090815260956020526040812080549295508792909190614adc90849061755a565b925050819055508460876000828254614af5919061755a565b90915550505b6001600160a01b038088166000908152607360205260409020541696955080614b238161756d565b91505061480c565b60a15460008115614e075760005b828110156112315760006103e88460a35487614b55919061762b565b614b5f9190617642565b614b699190617642565b90506074600060a18481548110614b8257614b8261752e565b60009182526020808320909101546001600160a01b0316835282019290925260400181205460ff1615159003614c4f5760665460a654604051636cf50d9160e11b81526001600160a01b039283169263d9ea1b2292614be89291169085906004016175af565b6020604051808303816000875af1158015614c07573d6000803e3d6000fd5b505050506040513d601f19601f82011682018060405250810190614c2b91906175c8565b925082614c4a5760405162461bcd60e51b81526004016116f490617711565b614d88565b60665460a180546001600160a01b039092169163d9ea1b22919085908110614c7957614c7961752e565b6000918252602090912001546040516001600160e01b031960e084901b168152614cb1916001600160a01b03169085906004016175af565b6020604051808303816000875af1158015614cd0573d6000803e3d6000fd5b505050506040513d601f19601f82011682018060405250810190614cf491906175c8565b925060008051602061787b83398151915260a18381548110614d1857614d1861752e565b60009182526020918290200154604080516001600160a01b039092168252918101849052428183015260806060820181905260079082015266111a585b5bdb9960ca1b60a082015290519081900360c00190a182614d885760405162461bcd60e51b81526004016116f490617711565b806099600060a18581548110614da057614da061752e565b60009182526020808320909101546001600160a01b0316835282019290925260400181208054909190614dd490849061755a565b925050819055508060916000828254614ded919061755a565b90915550829150614dff90508161756d565b915050614b39565b60665460a65460a3546001600160a01b039283169263d9ea1b229216906103e890614e32908861762b565b614e3c9190617642565b6040518363ffffffff1660e01b8152600401614e599291906175af565b6020604051808303816000875af1158015614e78573d6000803e3d6000fd5b505050506040513d601f19601f82011682018060405250810190614e9c91906175c8565b905080612f7b5760405162461bcd60e51b815260206004820152602e60248201527f4661696c6564207472616e73666572206578747261204469616d6f6e6420626f60448201526d6e757320746f20636f6d70616e7960901b60648201526084016116f4565b60a254600081156151e35760005b828110156112315760006103e88460a45487614f2c919061762b565b614f369190617642565b614f409190617642565b90506074600060a28481548110614f5957614f5961752e565b60009182526020808320909101546001600160a01b0316835282019290925260400181205460ff16151590036150265760665460a654604051636cf50d9160e11b81526001600160a01b039283169263d9ea1b2292614fbf9291169085906004016175af565b6020604051808303816000875af1158015614fde573d6000803e3d6000fd5b505050506040513d601f19601f8201168201806040525081019061500291906175c8565b9250826150215760405162461bcd60e51b81526004016116f490617754565b615164565b60665460a280546001600160a01b039092169163d9ea1b229190859081106150505761505061752e565b6000918252602090912001546040516001600160e01b031960e084901b168152615088916001600160a01b03169085906004016175af565b6020604051808303816000875af11580156150a7573d6000803e3d6000fd5b505050506040513d601f19601f820116820180604052508101906150cb91906175c8565b925060008051602061787b83398151915260a283815481106150ef576150ef61752e565b60009182526020918290200154604080516001600160a01b0390921682529181018490524281830152608060608201819052600c908201526b10dc9bdddb911a585b5bdb9960a21b60a082015290519081900360c00190a1826151645760405162461bcd60e51b81526004016116f490617754565b80609a600060a2858154811061517c5761517c61752e565b60009182526020808320909101546001600160a01b03168352820192909252604001812080549091906151b090849061755a565b9250508190555080609260008282546151c9919061755a565b909155508291506151db90508161756d565b915050614f10565b60665460a65460a4546001600160a01b039283169263d9ea1b229216906103e89061520e908861762b565b6152189190617642565b6040518363ffffffff1660e01b81526004016152359291906175af565b6020604051808303816000875af1158015615254573d6000803e3d6000fd5b505050506040513d601f19601f8201168201806040525081019061527891906175c8565b905080612f7b5760405162461bcd60e51b815260206004820152603460248201527f4661696c6564207472616e736665722065787472612043726f776e204469616d6044820152736f6e6420626f6e757320746f20636f6d70616e7960601b60648201526084016116f4565b603380546001600160a01b038381166001600160a01b0319831681179093556040519116919082907f8be0079c531659141344cd1fd0a4f28419497f9722a3daafe3b4186f6b6457e090600090a35050565b600060a95482106153d457600060a981905560665460a8546001600160a01b039182169263d9ea1b22929091169061536e9086617586565b6040518363ffffffff1660e01b815260040161538b9291906175af565b6020604051808303816000875af11580156153aa573d6000803e3d6000fd5b505050506040513d601f19601f820116820180604052508101906153ce91906175c8565b506153ec565b8160a960008282546153e69190617586565b90915550505b506001919050565b6001600160a01b038083166000908152607360209081526040808320546072909252822054608d80549285169491909116929182916103e891879190849061543e5761543e61752e565b9060005260206000200154615453919061762b565b61545d9190617642565b6001600160a01b03841660009081526074602052604090205490915060ff16151560010361552557606654604051636cf50d9160e11b81526001600160a01b039091169063d9ea1b22906154b790869085906004016175af565b6020604051808303816000875af11580156154d6573d6000803e3d6000fd5b505050506040513d601f19601f820116820180604052508101906154fa91906175c8565b5060008051602061787b83398151915283824260405161551c93929190617664565b60405180910390a15b6001600160a01b0383166000908152609760205260408120805483929061554d90849061755a565b9091555060009050805b608e548110156155b357608254608e82815481106155775761557761752e565b906000526020600020015461558c919061762b565b83106155b357609f5461559f908361755a565b9150806155ab8161756d565b915050615557565b506103e86155c1828861762b565b6155cb9190617642565b6001600160a01b0385166000908152609b6020526040812080549091906155f390849061755a565b90915550600190505b608d54811015615851576001600160a01b03861615615851576156298661562483600161755a565b616517565b15615821576103e887608d83815481106156455761564561752e565b906000526020600020015461565a919061762b565b6156649190617642565b93508315615821576001600160a01b03861660009081526074602052604090205460ff1615156001036157da57606654604051636cf50d9160e11b81526001600160a01b039091169063d9ea1b22906156c390899088906004016175af565b6020604051808303816000875af11580156156e2573d6000803e3d6000fd5b505050506040513d601f19601f8201168201806040525081019061570691906175c8565b506000915060005b608e5481101561576a57608254608e828154811061572e5761572e61752e565b9060005260206000200154615743919061762b565b851061576a57609f54615756908461755a565b9250806157628161756d565b91505061570e565b506103e8615778888461762b565b6157829190617642565b6001600160a01b0387166000908152609b6020526040812080549091906157aa90849061755a565b909155505060405160008051602061787b833981519152906157d190889087904290617664565b60405180910390a15b6001600160a01b0386166000908152609760205260408120805486929061580290849061755a565b9250508190555083608f600082825461581b919061755a565b90915550505b6001600160a01b0395861660009081526073602052604090205490951694806158498161756d565b9150506155fc565b5050505050505050565b600054610100900460ff166158825760405162461bcd60e51b81526004016116f49061779d565b612e3461677e565b6158926167ae565b606754606a54604051630e66b9c960e21b81526001600160a01b039283169263399ae724926158c9929116906001906004016175af565b6020604051808303816000875af11580156158e8573d6000803e3d6000fd5b505050506040513d601f19601f820116820180604052508101906140ed91906175c8565b6000818152606e60205260409020546001600160a01b03166159705760405162461bcd60e51b815260206004820152601f60248201527f4d6574614e6f64653a20496e76616c696420526566666572616c20436f64650060448201526064016116f4565b6000818152606e60209081526040808320546001600160a01b03868116855260729093529281902080546001600160a01b0319169290931691909117909155517f3676d068c24ded926804a731778cd5f0ef23775811e1df9910002bcab2d1c066906159df90849084906175af565b60405180910390a15050565b6067546001600160a01b038281166000818152607260205260408082205490516336e3b0e360e21b81529084166004820152602481019290925292919091169063db8ec38c906044016020604051808303816000875af1158015615a53573d6000803e3d6000fd5b505050506040513d601f19601f82011682018060405250810190615a7791906177e8565b6001600160a01b0390811660008181526071602090815260408083208054600181018255908452828420018054979095166001600160a01b03199788168117909555938252607390529190912080549093161790915550565b606b8054906000615ae08361756d565b90915550506001600160a01b038381166000818152607760209081526040808320805460ff191660019081179091556078835281842087905581518083018352606b5460608b811b6bffffffffffffffffffffffff19169083015242607483015244609483015260b4808301919091528351808303909101815260d4820184528051908501208152808401888152868652606f85528386209151808355905191909201558352606e825280832080546001600160a01b03191685179055928252607290522054168015615c09576001600160a01b0380821660008181526070602090815260408083208054600181018255908452828420018054958a166001600160a01b031996871681179091558352607290915290208054909216179055615c09848461695c565b6001600160a01b0384166000908152606d60209081526040808320805460ff1916905560759091529020429081905560a754615c449161755a565b6001600160a01b0385166000908152607660209081526040808320939093556074905220805460ff19166001179055615c7c84616eaa565b615c8583614b2b565b615c8e83614f02565b7fd704421fb24a7a835d4aa951912e468c80f0865ac478ceadce8cc62dfca7c66984606b54604051615cc19291906175af565b60405180910390a150505050565b6000806001600160a01b0384166000908152606d602052604090205460ff166006811115615cff57615cff617805565b6006811115615d1057615d10617805565b148015615d1e5750600c8211155b15615d2b5750600161117d565b60016001600160a01b0384166000908152606d602052604090205460ff166006811115615d5a57615d5a617805565b6006811115615d6b57615d6b617805565b1480615db4575060026001600160a01b0384166000908152606d602052604090205460ff166006811115615da157615da1617805565b6006811115615db257615db2617805565b145b8015615dc15750600d8211155b15615dce5750600161117d565b60036001600160a01b0384166000908152606d602052604090205460ff166006811115615dfd57615dfd617805565b6006811115615e0e57615e0e617805565b1480615e57575060046001600160a01b0384166000908152606d602052604090205460ff166006811115615e4457615e44617805565b6006811115615e5557615e55617805565b145b8015615e645750600e8211155b15615e715750600161117d565b60056001600160a01b0384166000908152606d602052604090205460ff166006811115615ea057615ea0617805565b6006811115615eb157615eb1617805565b1480615f06575060066001600160a01b0384166000908152606d602052604090205460ff166006811115615ee757615ee7617805565b6006811115615ef857615ef8617805565b148015615f065750600f8211155b15615f135750600161117d565b50600061117d565b6001600160a01b03808316600090815260726020908152604080832054815160808101835284815292830184905290820183905260608201839052919291909116908490839081908190815b6001600160a01b038716156165095781606001516001600160401b0316600503615f9a578397505050505050505061117d565b6001600160a01b0387166000908152606d602052604081205460ff1690600282108015615fc657508215155b15615ffd576001600160a01b03808a166000908152607260205260409020541698975082615ff38161756d565b9350505050615f67565b600182111561602657600184600001818151616019919061781b565b6001600160401b03169052505b600282111561604f57600184602001818151616042919061781b565b6001600160401b03169052505b60038211156160785760018460400181815161606b919061781b565b6001600160401b03169052505b60048211156160a157600184606001818151616094919061781b565b6001600160401b03169052505b6001600160a01b0389166000908152606c6020908152604080832087518154938901519289015160608a01516001600160401b03908116600160c01b026001600160c01b03928216600160801b02929092166fffffffffffffffffffffffffffffffff958216600160401b026fffffffffffffffffffffffffffffffff19909716919093161794909417929092169190911791909117905583900361616d5760816000815481106161545761615461752e565b90600052602060002001548161616a919061755a565b90505b600284600001516001600160401b0316116161af5760816001815481106161965761619661752e565b9060005260206000200154816161ac919061755a565b90505b600384602001516001600160401b0316111580156161ce575060038210155b156162005760816002815481106161e7576161e761752e565b9060005260206000200154816161fd919061755a565b90505b600484604001516001600160401b03161115801561621f575060048210155b156162515760816003815481106162385761623861752e565b90600052602060002001548161624e919061755a565b90505b600584606001516001600160401b031611158015616270575060058210155b156162a25760816004815481106162895761628961752e565b90600052602060002001548161629f919061755a565b90505b6103e86162af8c8361762b565b6162b99190617642565b965080156164e1576001600160a01b03891660009081526074602052604081205460ff16151590036163be5760665460a654604051636cf50d9160e11b81526001600160a01b039283169263d9ea1b229261631b929116908b906004016175af565b6020604051808303816000875af115801561633a573d6000803e3d6000fd5b505050506040513d601f19601f8201168201806040525081019061635e91906175c8565b9450846163b95760405162461bcd60e51b815260206004820152602360248201527f4661696c6564207472616e73666572206d61746368696e6720636f6d6d69737360448201526234b7b760e91b60648201526084016116f4565b61648b565b606654604051636cf50d9160e11b81526001600160a01b039091169063d9ea1b22906163f0908c908b906004016175af565b6020604051808303816000875af115801561640f573d6000803e3d6000fd5b505050506040513d601f19601f8201168201806040525081019061643391906175c8565b50604080516001600160a01b038b168152602081018990524281830152608060608201819052600890820152674d61746368696e6760c01b60a0820152905160008051602061787b8339815191529181900360c00190a15b616495878761755a565b6001600160a01b038a166000908152609660205260408120805492985089929091906164c290849061755a565b9250508190555086608860008282546164db919061755a565b90915550505b6001600160a01b03808a166000908152607260205260409020541698975082615ff38161756d565b509198975050505050505050565b6000806001600160a01b0384166000908152606d602052604090205460ff16600681111561654757616547617805565b600681111561655857616558617805565b148015616566575060018211155b156165735750600161117d565b60016001600160a01b0384166000908152606d602052604090205460ff1660068111156165a2576165a2617805565b60068111156165b3576165b3617805565b1480156165c1575060028211155b156165ce5750600161117d565b60026001600160a01b0384166000908152606d602052604090205460ff1660068111156165fd576165fd617805565b600681111561660e5761660e617805565b14801561661c575060048211155b156166295750600161117d565b60036001600160a01b0384166000908152606d602052604090205460ff16600681111561665857616658617805565b600681111561666957616669617805565b148015616677575060068211155b156166845750600161117d565b60046001600160a01b0384166000908152606d602052604090205460ff1660068111156166b3576166b3617805565b60068111156166c4576166c4617805565b1480156166d2575060088211155b156166df5750600161117d565b60056001600160a01b0384166000908152606d602052604090205460ff16600681111561670e5761670e617805565b600681111561671f5761671f617805565b1480615f06575060066001600160a01b0384166000908152606d602052604090205460ff16600681111561675557616755617805565b600681111561676657616766617805565b148015615f065750600a8211615f135750600161117d565b600054610100900460ff166167a55760405162461bcd60e51b81526004016116f49061779d565b612e34336152e4565b606a546001600160a01b0390811660009081526072602052604090205416156168105760405162461bcd60e51b81526020600482015260146024820152731d1a1a5cc81859191c995cdcc81a5cc81d5cd95960621b60448201526064016116f4565b606b80549060006168208361756d565b9091555050606a80546001600160a01b039081166000908152607760209081526040808320805460ff19908116600190811790925586548616855260748085528386208054831684179055835180850185528854606b8054606083811b6bffffffffffffffffffffffff191690850152429484019490945244609484015260b4808401949094528651808403909401845260d48301875283519388019390932082528187018881529089168852606f8752858820915182555193019290925586548616808652838620548652606e855283862080546001600160a01b0319169091179055865486168552606d9093529281902080549092169091559254905492517fd704421fb24a7a835d4aa951912e468c80f0865ac478ceadce8cc62dfca7c66993616952939290921691906175af565b60405180910390a1565b6001600160a01b038083166000908152607360209081526040808320546072909252822054607f5491841693169190819081906103e89061699e90889061762b565b6169a89190617642565b905060006103e8876089546169bd919061762b565b6169c79190617642565b60665460a654604051636cf50d9160e11b81529293506000926001600160a01b039283169263d9ea1b2292616a039291169087906004016175af565b6020604051808303816000875af1158015616a22573d6000803e3d6000fd5b505050506040513d601f19601f82011682018060405250810190616a4691906175c8565b506103e888607e600081548110616a5f57616a5f61752e565b9060005260206000200154616a74919061762b565b616a7e9190617642565b6001600160a01b03871660009081526074602052604081205491955060ff90911615159003616b265760665460a654604051636cf50d9160e11b81526001600160a01b039283169263d9ea1b2292616add9291169088906004016175af565b6020604051808303816000875af1158015616afc573d6000803e3d6000fd5b505050506040513d601f19601f82011682018060405250810190616b2091906175c8565b50616bc6565b606654604051636cf50d9160e11b81526001600160a01b039091169063d9ea1b2290616b5890899088906004016175af565b6020604051808303816000875af1158015616b77573d6000803e3d6000fd5b505050506040513d601f19601f82011682018060405250810190616b9b91906175c8565b5060008051602061787b833981519152868542604051616bbd9392919061783b565b60405180910390a15b616bd0848261755a565b90508360866000828254616be4919061755a565b90915550600190505b607e54811015616e9e576001600160a01b038816616c8e5760665460a6546001600160a01b039182169163d9ea1b229116616c288587617586565b6040518363ffffffff1660e01b8152600401616c459291906175af565b6020604051808303816000875af1158015616c64573d6000803e3d6000fd5b505050506040513d601f19601f82011682018060405250810190616c8891906175c8565b50616e9e565b6103e889607e8381548110616ca557616ca561752e565b9060005260206000200154616cba919061762b565b616cc49190617642565b9550616cd08882616517565b8015616cf957506001600160a01b03881660009081526074602052604090205460ff1615156001145b15616dd057606654604051636cf50d9160e11b81526001600160a01b039091169063d9ea1b2290616d30908b908a906004016175af565b6020604051808303816000875af1158015616d4f573d6000803e3d6000fd5b505050506040513d601f19601f82011682018060405250810190616d7391906175c8565b5060008051602061787b833981519152888742604051616d959392919061783b565b60405180910390a16001600160a01b03881660009081526094602052604081208054889290616dc590849061755a565b90915550616e4b9050565b60665460a654604051636cf50d9160e11b81526001600160a01b039283169263d9ea1b2292616e06929116908a906004016175af565b6020604051808303816000875af1158015616e25573d6000803e3d6000fd5b505050506040513d601f19601f82011682018060405250810190616e4991906175c8565b505b616e55868361755a565b91508560866000828254616e69919061755a565b90915550506001600160a01b039788166000908152607360205260409020549097169680616e968161756d565b915050616bed565b50505050505050505050565b6001600160a01b03808216600090815260726020526040902054165b6001600160a01b03811615614534576001600160a01b0381166000908152607960205260408120805460019290616efe90849061755a565b90915550616f0d905081611183565b6001600160a01b0390811660009081526072602052604090205416616ec6565b60405180610260016040528060006001600160a01b03168152602001600015158152602001600081526020016000815260200160008019168152602001606081526020016060815260200160006001600160a01b0316815260200160006001600160a01b03168152602001600081526020016000815260200160008152602001600081526020016000815260200160008152602001600081526020016000815260200160008152602001600081525090565b828054828255906000526020600020908101928215617020579160200282015b82811115617020578251829061ffff16905591602001919060010190616fff565b5061702c929150617070565b5090565b828054828255906000526020600020908101928215617020579160200282015b82811115617020578251829060ff16905591602001919060010190617050565b5b8082111561702c5760008155600101617071565b6001600160a01b03811681146140ed57600080fd5b6000602082840312156170ac57600080fd5b813561392f81617085565b6000602082840312156170c957600080fd5b5035919050565b600080604083850312156170e357600080fd5b82356170ee81617085565b9150602083013560ff8116811461710457600080fd5b809150509250929050565b6000806040838503121561712257600080fd5b823561712d81617085565b946020939093013593505050565b600081518084526020808501945080840160005b838110156171745781516001600160a01b03168752958201959082019060010161714f565b509495945050505050565b80516001600160a01b03168252600061026060208301516171a4602086018215159052565b5060408301516040850152606083015160608501526080830151608085015260a08301518160a08601526171da8286018261713b565b91505060c083015184820360c08601526171f4828261713b565b91505060e083015161721160e08601826001600160a01b03169052565b50610100838101516001600160a01b03169085015261012080840151908501526101408084015190850152610160808401519085015261018080840151908501526101a080840151908501526101c080840151908501526101e08084015190850152610200808401519085015261022080840151908501526102409283015192909301919091525090565b60208152600061392f602083018461717f565b6000602080830181845280855180835260408601915060408160051b870101925083870160005b8281101561730457603f198886030184526172f285835161717f565b945092850192908501906001016172d6565b5092979650505050505050565b60208152600061392f602083018461713b565b6000806040838503121561733757600080fd5b82359150602083013561710481617085565b60008060006060848603121561735e57600080fd5b833561736981617085565b95602085013595506040909401359392505050565b600080600080600080600080610100898b03121561739b57600080fd5b88356173a681617085565b975060208901356173b681617085565b965060408901356173c681617085565b955060608901356173d681617085565b945060808901356173e681617085565b935060a08901356173f681617085565b925060c089013561740681617085565b915060e089013561741681617085565b809150509295985092959890939650565b602080825282518282018190526000919060409081850190868401855b8281101561747657815180516001600160a01b0390811686529087015116868501529284019290850190600101617444565b5091979650505050505050565b600080600080600060a0868803121561749b57600080fd5b8535945060208601359350604086013592506060860135915060808601356174c281617085565b809150509295509295909350565b600061014060ff8d1683528b60208401528060408401526174f38184018c61713b565b606084019a909a525050608081019690965260a086019490945260c085019290925260e0840152610100830152610120909101529392505050565b634e487b7160e01b600052603260045260246000fd5b634e487b7160e01b600052601160045260246000fd5b8082018082111561117d5761117d617544565b60006001820161757f5761757f617544565b5060010190565b8181038181111561117d5761117d617544565b634e487b7160e01b600052604160045260246000fd5b6001600160a01b03929092168252602082015260400190565b6000602082840312156175da57600080fd5b8151801515811461392f57600080fd5b60208082526021908201527f496e76616c69642063616c6c65722d6f6e6c795061636b436f6e74726f6c6c656040820152603960f91b606082015260800190565b808202811582820484141761117d5761117d617544565b60008261765f57634e487b7160e01b600052601260045260246000fd5b500490565b6001600160a01b03939093168352602083019190915260408201526080606082018190526004908201526353616c6560e01b60a082015260c00190565b6000602082840312156176b357600080fd5b5051919050565b634e487b7160e01b600052603160045260246000fd5b60208082526021908201527f4661696c6564207472616e73666572206d617472697820636f6d6d697373696f6040820152603760f91b606082015260800190565b60208082526023908201527f4661696c6564207472616e73666572206578747261204469616d6f6e6420626f6040820152626e757360e81b606082015260800190565b60208082526029908201527f4661696c6564207472616e736665722065787472612043726f776e204469616d6040820152686f6e6420626f6e757360b81b606082015260800190565b6020808252602b908201527f496e697469616c697a61626c653a20636f6e7472616374206973206e6f74206960408201526a6e697469616c697a696e6760a81b606082015260800190565b6000602082840312156177fa57600080fd5b815161392f81617085565b634e487b7160e01b600052602160045260246000fd5b6001600160401b03818116838216019080821115610fb757610fb7617544565b6001600160a01b039390931683526020830191909152604082015260806060820181905260069082015265111a5c9958dd60d21b60a082015260c0019056fec653875721be08f80a5e8e9c5924cbd3fc5b4ae8d5da0eff0d0f69a4427c067da264697066735822122075428bb7458e82cab8a2aaee20e11a37df52488d2df0d04c26f1c3480536798e64736f6c63430008130033",
			"opcodes": "PUSH1 0x80 PUSH1 0x40 MSTORE PUSH2 0x78D0 DUP1 PUSH2 0x13 PUSH1 0x0 CODECOPY PUSH1 0x0 RETURN INVALID PUSH1 0x80 PUSH1 0x40 MSTORE CALLVALUE DUP1 ISZERO PUSH2 0x10 JUMPI PUSH1 0x0 DUP1 REVERT JUMPDEST POP PUSH1 0x4 CALLDATASIZE LT PUSH2 0x566 JUMPI PUSH1 0x0 CALLDATALOAD PUSH1 0xE0 SHR DUP1 PUSH4 0x795B5CD4 GT PUSH2 0x2CA JUMPI DUP1 PUSH4 0xBA1ABC16 GT PUSH2 0x18D JUMPI DUP1 PUSH4 0xDDCD6408 GT PUSH2 0xF4 JUMPI DUP1 PUSH4 0xE85B76DE GT PUSH2 0xAD JUMPI DUP1 PUSH4 0xF0D4F19C GT PUSH2 0x87 JUMPI DUP1 PUSH4 0xF0D4F19C EQ PUSH2 0xE5F JUMPI DUP1 PUSH4 0xF2FDE38B EQ PUSH2 0xE68 JUMPI DUP1 PUSH4 0xFF572549 EQ PUSH2 0xE7B JUMPI DUP1 PUSH4 0xFF694559 EQ PUSH2 0xEA4 JUMPI PUSH1 0x0 DUP1 REVERT JUMPDEST DUP1 PUSH4 0xE85B76DE EQ PUSH2 0xE26 JUMPI DUP1 PUSH4 0xEBF0C717 EQ PUSH2 0xE39 JUMPI DUP1 PUSH4 0xEDAAEED2 EQ PUSH2 0xE4C JUMPI PUSH1 0x0 DUP1 REVERT JUMPDEST DUP1 PUSH4 0xDDCD6408 EQ PUSH2 0xDA8 JUMPI DUP1 PUSH4 0xDE6F8FE8 EQ PUSH2 0xDBB JUMPI DUP1 PUSH4 0xE1604B70 EQ PUSH2 0xDE4 JUMPI DUP1 PUSH4 0xE5DFB5BF EQ PUSH2 0xDED JUMPI DUP1 PUSH4 0xE610E46D EQ PUSH2 0xE00 JUMPI DUP1 PUSH4 0xE80D9383 EQ PUSH2 0xE13 JUMPI PUSH1 0x0 DUP1 REVERT JUMPDEST DUP1 PUSH4 0xD19BEA67 GT PUSH2 0x146 JUMPI DUP1 PUSH4 0xD19BEA67 EQ PUSH2 0xD28 JUMPI DUP1 PUSH4 0xD2057399 EQ PUSH2 0xD3B JUMPI DUP1 PUSH4 0xD5FCD3BC EQ PUSH2 0xD43 JUMPI DUP1 PUSH4 0xD6CF2F11 EQ PUSH2 0xD4C JUMPI DUP1 PUSH4 0xD9796FD1 EQ PUSH2 0xD75 JUMPI DUP1 PUSH4 0xDA5C8344 EQ PUSH2 0xD95 JUMPI PUSH1 0x0 DUP1 REVERT JUMPDEST DUP1 PUSH4 0xBA1ABC16 EQ PUSH2 0xCC0 JUMPI DUP1 PUSH4 0xBB675355 EQ PUSH2 0xCD3 JUMPI DUP1 PUSH4 0xCAE67333 EQ PUSH2 0xCE6 JUMPI DUP1 PUSH4 0xCB249B43 EQ PUSH2 0xCF9 JUMPI DUP1 PUSH4 0xCD05E269 EQ PUSH2 0xD0C JUMPI DUP1 PUSH4 0xCEC643B3 EQ PUSH2 0xD1F JUMPI PUSH1 0x0 DUP1 REVERT JUMPDEST DUP1 PUSH4 0x9C5C8CBF GT PUSH2 0x231 JUMPI DUP1 PUSH4 0xA8223C06 GT PUSH2 0x1EA JUMPI DUP1 PUSH4 0xA8223C06 EQ PUSH2 0xC6C JUMPI DUP1 PUSH4 0xA8B90F3F EQ PUSH2 0xC75 JUMPI DUP1 PUSH4 0xAB36667F EQ PUSH2 0xC7E JUMPI DUP1 PUSH4 0xB106B0C9 EQ PUSH2 0xC91 JUMPI DUP1 PUSH4 0xB3E2F043 EQ PUSH2 0xC9A JUMPI DUP1 PUSH4 0xB92FC3AA EQ PUSH2 0xCAD JUMPI PUSH1 0x0 DUP1 REVERT JUMPDEST DUP1 PUSH4 0x9C5C8CBF EQ PUSH2 0xBA8 JUMPI DUP1 PUSH4 0x9C5F29C0 EQ PUSH2 0xBC8 JUMPI DUP1 PUSH4 0x9F7BB6C7 EQ PUSH2 0xBF4 JUMPI DUP1 PUSH4 0xA0A92FCB EQ PUSH2 0xC30 JUMPI DUP1 PUSH4 0xA559934E EQ PUSH2 0xC39 JUMPI DUP1 PUSH4 0xA645CCEC EQ PUSH2 0xC4C JUMPI PUSH1 0x0 DUP1 REVERT JUMPDEST DUP1 PUSH4 0x8A29E2DE GT PUSH2 0x283 JUMPI DUP1 PUSH4 0x8A29E2DE EQ PUSH2 0xB11 JUMPI DUP1 PUSH4 0x8C7AB1D7 EQ PUSH2 0xB24 JUMPI DUP1 PUSH4 0x8DA5CB5B EQ PUSH2 0xB37 JUMPI DUP1 PUSH4 0x8EECFB7D EQ PUSH2 0xB48 JUMPI DUP1 PUSH4 0x8FF18D73 EQ PUSH2 0xB68 JUMPI DUP1 PUSH4 0x91EEA25F EQ PUSH2 0xB88 JUMPI PUSH1 0x0 DUP1 REVERT JUMPDEST DUP1 PUSH4 0x795B5CD4 EQ PUSH2 0xA8A JUMPI DUP1 PUSH4 0x7B76AC91 EQ PUSH2 0xA93 JUMPI DUP1 PUSH4 0x7C148A48 EQ PUSH2 0xAB8 JUMPI DUP1 PUSH4 0x7DCDAC8A EQ PUSH2 0xACB JUMPI DUP1 PUSH4 0x86BD3EAB EQ PUSH2 0xADE JUMPI DUP1 PUSH4 0x88527D3C EQ PUSH2 0xAFE JUMPI PUSH1 0x0 DUP1 REVERT JUMPDEST DUP1 PUSH4 0x44346958 GT PUSH2 0x42D JUMPI DUP1 PUSH4 0x67574CB1 GT PUSH2 0x394 JUMPI DUP1 PUSH4 0x6DD0F022 GT PUSH2 0x34D JUMPI DUP1 PUSH4 0x715018A6 GT PUSH2 0x327 JUMPI DUP1 PUSH4 0x715018A6 EQ PUSH2 0xA38 JUMPI DUP1 PUSH4 0x7235E5D6 EQ PUSH2 0xA40 JUMPI DUP1 PUSH4 0x776C14C0 EQ PUSH2 0xA49 JUMPI DUP1 PUSH4 0x786C11E9 EQ PUSH2 0xA5C JUMPI PUSH1 0x0 DUP1 REVERT JUMPDEST DUP1 PUSH4 0x6DD0F022 EQ PUSH2 0x9F2 JUMPI DUP1 PUSH4 0x6E83822B EQ PUSH2 0xA05 JUMPI DUP1 PUSH4 0x707D64CB EQ PUSH2 0xA25 JUMPI PUSH1 0x0 DUP1 REVERT JUMPDEST DUP1 PUSH4 0x67574CB1 EQ PUSH2 0x95D JUMPI DUP1 PUSH4 0x6C23E6BB EQ PUSH2 0x980 JUMPI DUP1 PUSH4 0x6C3FE078 EQ PUSH2 0x9A3 JUMPI DUP1 PUSH4 0x6C412B5C EQ PUSH2 0x9C3 JUMPI DUP1 PUSH4 0x6D1F6249 EQ PUSH2 0x9CC JUMPI DUP1 PUSH4 0x6D93ADB7 EQ PUSH2 0x9DF JUMPI PUSH1 0x0 DUP1 REVERT JUMPDEST DUP1 PUSH4 0x57EF7E24 GT PUSH2 0x3E6 JUMPI DUP1 PUSH4 0x57EF7E24 EQ PUSH2 0x8C5 JUMPI DUP1 PUSH4 0x5A272403 EQ PUSH2 0x8E5 JUMPI DUP1 PUSH4 0x5B11CE4C EQ PUSH2 0x8F8 JUMPI DUP1 PUSH4 0x5DF0A085 EQ PUSH2 0x921 JUMPI DUP1 PUSH4 0x6221A4ED EQ PUSH2 0x92A JUMPI DUP1 PUSH4 0x652BBF5E EQ PUSH2 0x93D JUMPI PUSH1 0x0 DUP1 REVERT JUMPDEST DUP1 PUSH4 0x44346958 EQ PUSH2 0x82F JUMPI DUP1 PUSH4 0x494DA411 EQ PUSH2 0x842 JUMPI DUP1 PUSH4 0x499642F8 EQ PUSH2 0x86C JUMPI DUP1 PUSH4 0x4CA751A6 EQ PUSH2 0x87F JUMPI DUP1 PUSH4 0x4DECFDED EQ PUSH2 0x89F JUMPI DUP1 PUSH4 0x55CDAF59 EQ PUSH2 0x8B2 JUMPI PUSH1 0x0 DUP1 REVERT JUMPDEST DUP1 PUSH4 0x24D7806C GT PUSH2 0x4D1 JUMPI DUP1 PUSH4 0x30ABB2E3 GT PUSH2 0x48A JUMPI DUP1 PUSH4 0x30ABB2E3 EQ PUSH2 0x7C5 JUMPI DUP1 PUSH4 0x362EFC3D EQ PUSH2 0x7D8 JUMPI DUP1 PUSH4 0x37E6DC60 EQ PUSH2 0x7E1 JUMPI DUP1 PUSH4 0x3CC44A48 EQ PUSH2 0x7E9 JUMPI DUP1 PUSH4 0x419E1575 EQ PUSH2 0x7FC JUMPI DUP1 PUSH4 0x4376BB89 EQ PUSH2 0x81C JUMPI PUSH1 0x0 DUP1 REVERT JUMPDEST DUP1 PUSH4 0x24D7806C EQ PUSH2 0x6EE JUMPI DUP1 PUSH4 0x25691DE4 EQ PUSH2 0x711 JUMPI DUP1 PUSH4 0x26860735 EQ PUSH2 0x746 JUMPI DUP1 PUSH4 0x29E1D478 EQ PUSH2 0x766 JUMPI DUP1 PUSH4 0x2C9387F6 EQ PUSH2 0x792 JUMPI DUP1 PUSH4 0x2F48AB7D EQ PUSH2 0x7B2 JUMPI PUSH1 0x0 DUP1 REVERT JUMPDEST DUP1 PUSH4 0x183736A6 GT PUSH2 0x523 JUMPI DUP1 PUSH4 0x183736A6 EQ PUSH2 0x617 JUMPI DUP1 PUSH4 0x18A39BF2 EQ PUSH2 0x62C JUMPI DUP1 PUSH4 0x1B52D64E EQ PUSH2 0x63F JUMPI DUP1 PUSH4 0x202C0C2F EQ PUSH2 0x6BA JUMPI DUP1 PUSH4 0x2133B5FB EQ PUSH2 0x6C3 JUMPI DUP1 PUSH4 0x246C7D69 EQ PUSH2 0x6D6 JUMPI PUSH1 0x0 DUP1 REVERT JUMPDEST DUP1 PUSH4 0x763872E EQ PUSH2 0x56B JUMPI DUP1 PUSH4 0x81FC579 EQ PUSH2 0x59E JUMPI DUP1 PUSH4 0xB1E7CCE EQ PUSH2 0x5DF JUMPI DUP1 PUSH4 0x165ABF8B EQ PUSH2 0x5E8 JUMPI DUP1 PUSH4 0x16D189CD EQ PUSH2 0x5F1 JUMPI DUP1 PUSH4 0x1772503F EQ PUSH2 0x604 JUMPI JUMPDEST PUSH1 0x0 DUP1 REVERT JUMPDEST PUSH2 0x58B PUSH2 0x579 CALLDATASIZE PUSH1 0x4 PUSH2 0x709A JUMP JUMPDEST PUSH1 0x94 PUSH1 0x20 MSTORE PUSH1 0x0 SWAP1 DUP2 MSTORE PUSH1 0x40 SWAP1 KECCAK256 SLOAD DUP2 JUMP JUMPDEST PUSH1 0x40 MLOAD SWAP1 DUP2 MSTORE PUSH1 0x20 ADD JUMPDEST PUSH1 0x40 MLOAD DUP1 SWAP2 SUB SWAP1 RETURN JUMPDEST PUSH2 0x5C7 PUSH2 0x5AC CALLDATASIZE PUSH1 0x4 PUSH2 0x70B7 JUMP JUMPDEST PUSH1 0x6E PUSH1 0x20 MSTORE PUSH1 0x0 SWAP1 DUP2 MSTORE PUSH1 0x40 SWAP1 KECCAK256 SLOAD PUSH1 0x1 PUSH1 0x1 PUSH1 0xA0 SHL SUB AND DUP2 JUMP JUMPDEST PUSH1 0x40 MLOAD PUSH1 0x1 PUSH1 0x1 PUSH1 0xA0 SHL SUB SWAP1 SWAP2 AND DUP2 MSTORE PUSH1 0x20 ADD PUSH2 0x595 JUMP JUMPDEST PUSH2 0x58B PUSH1 0x7F SLOAD DUP2 JUMP JUMPDEST PUSH2 0x58B PUSH1 0x88 SLOAD DUP2 JUMP JUMPDEST PUSH2 0x58B PUSH2 0x5FF CALLDATASIZE PUSH1 0x4 PUSH2 0x709A JUMP JUMPDEST PUSH2 0xEB7 JUMP JUMPDEST PUSH2 0x58B PUSH2 0x612 CALLDATASIZE PUSH1 0x4 PUSH2 0x70D0 JUMP JUMPDEST PUSH2 0xFBE JUMP JUMPDEST PUSH2 0x62A PUSH2 0x625 CALLDATASIZE PUSH1 0x4 PUSH2 0x709A JUMP JUMPDEST PUSH2 0x1183 JUMP JUMPDEST STOP JUMPDEST PUSH2 0x62A PUSH2 0x63A CALLDATASIZE PUSH1 0x4 PUSH2 0x70B7 JUMP JUMPDEST PUSH2 0x15C5 JUMP JUMPDEST PUSH2 0x687 PUSH2 0x64D CALLDATASIZE PUSH1 0x4 PUSH2 0x709A JUMP JUMPDEST PUSH1 0x6C PUSH1 0x20 MSTORE PUSH1 0x0 SWAP1 DUP2 MSTORE PUSH1 0x40 SWAP1 KECCAK256 SLOAD PUSH1 0x1 PUSH1 0x1 PUSH1 0x40 SHL SUB DUP1 DUP3 AND SWAP2 PUSH1 0x1 PUSH1 0x40 SHL DUP2 DIV DUP3 AND SWAP2 PUSH1 0x1 PUSH1 0x80 SHL DUP3 DIV DUP2 AND SWAP2 PUSH1 0x1 PUSH1 0xC0 SHL SWAP1 DIV AND DUP5 JUMP JUMPDEST PUSH1 0x40 DUP1 MLOAD PUSH1 0x1 PUSH1 0x1 PUSH1 0x40 SHL SUB SWAP6 DUP7 AND DUP2 MSTORE SWAP4 DUP6 AND PUSH1 0x20 DUP6 ADD MSTORE SWAP2 DUP5 AND SWAP2 DUP4 ADD SWAP2 SWAP1 SWAP2 MSTORE SWAP1 SWAP2 AND PUSH1 0x60 DUP3 ADD MSTORE PUSH1 0x80 ADD PUSH2 0x595 JUMP JUMPDEST PUSH2 0x58B PUSH1 0xAC SLOAD DUP2 JUMP JUMPDEST PUSH2 0x58B PUSH2 0x6D1 CALLDATASIZE PUSH1 0x4 PUSH2 0x710F JUMP JUMPDEST PUSH2 0x15D2 JUMP JUMPDEST PUSH2 0x6DE PUSH2 0x1698 JUMP JUMPDEST PUSH1 0x40 MLOAD SWAP1 ISZERO ISZERO DUP2 MSTORE PUSH1 0x20 ADD PUSH2 0x595 JUMP JUMPDEST PUSH2 0x6DE PUSH2 0x6FC CALLDATASIZE PUSH1 0x4 PUSH2 0x709A JUMP JUMPDEST PUSH1 0xA0 PUSH1 0x20 MSTORE PUSH1 0x0 SWAP1 DUP2 MSTORE PUSH1 0x40 SWAP1 KECCAK256 SLOAD PUSH1 0xFF AND DUP2 JUMP JUMPDEST PUSH2 0x734 PUSH2 0x71F CALLDATASIZE PUSH1 0x4 PUSH2 0x709A JUMP JUMPDEST PUSH1 0x6D PUSH1 0x20 MSTORE PUSH1 0x0 SWAP1 DUP2 MSTORE PUSH1 0x40 SWAP1 KECCAK256 SLOAD PUSH1 0xFF AND DUP2 JUMP JUMPDEST PUSH1 0x40 MLOAD PUSH1 0xFF SWAP1 SWAP2 AND DUP2 MSTORE PUSH1 0x20 ADD PUSH2 0x595 JUMP JUMPDEST PUSH2 0x58B PUSH2 0x754 CALLDATASIZE PUSH1 0x4 PUSH2 0x709A JUMP JUMPDEST PUSH1 0x99 PUSH1 0x20 MSTORE PUSH1 0x0 SWAP1 DUP2 MSTORE PUSH1 0x40 SWAP1 KECCAK256 SLOAD DUP2 JUMP JUMPDEST PUSH2 0x5C7 PUSH2 0x774 CALLDATASIZE PUSH1 0x4 PUSH2 0x709A JUMP JUMPDEST PUSH1 0x1 PUSH1 0x1 PUSH1 0xA0 SHL SUB SWAP1 DUP2 AND PUSH1 0x0 SWAP1 DUP2 MSTORE PUSH1 0x72 PUSH1 0x20 MSTORE PUSH1 0x40 SWAP1 KECCAK256 SLOAD AND SWAP1 JUMP JUMPDEST PUSH2 0x7A5 PUSH2 0x7A0 CALLDATASIZE PUSH1 0x4 PUSH2 0x709A JUMP JUMPDEST PUSH2 0x1990 JUMP JUMPDEST PUSH1 0x40 MLOAD PUSH2 0x595 SWAP2 SWAP1 PUSH2 0x729C JUMP JUMPDEST PUSH1 0x65 SLOAD PUSH2 0x5C7 SWAP1 PUSH1 0x1 PUSH1 0x1 PUSH1 0xA0 SHL SUB AND DUP2 JUMP JUMPDEST PUSH2 0x6DE PUSH2 0x7D3 CALLDATASIZE PUSH1 0x4 PUSH2 0x70D0 JUMP JUMPDEST PUSH2 0x1BAC JUMP JUMPDEST PUSH2 0x58B PUSH1 0x82 SLOAD DUP2 JUMP JUMPDEST PUSH2 0x6DE PUSH2 0x1CFB JUMP JUMPDEST PUSH2 0x62A PUSH2 0x7F7 CALLDATASIZE PUSH1 0x4 PUSH2 0x709A JUMP JUMPDEST PUSH2 0x2126 JUMP JUMPDEST PUSH2 0x58B PUSH2 0x80A CALLDATASIZE PUSH1 0x4 PUSH2 0x709A JUMP JUMPDEST PUSH1 0x9A PUSH1 0x20 MSTORE PUSH1 0x0 SWAP1 DUP2 MSTORE PUSH1 0x40 SWAP1 KECCAK256 SLOAD DUP2 JUMP JUMPDEST PUSH2 0x58B PUSH2 0x82A CALLDATASIZE PUSH1 0x4 PUSH2 0x70B7 JUMP JUMPDEST PUSH2 0x2150 JUMP JUMPDEST PUSH2 0x5C7 PUSH2 0x83D CALLDATASIZE PUSH1 0x4 PUSH2 0x710F JUMP JUMPDEST PUSH2 0x2171 JUMP JUMPDEST PUSH2 0x6DE PUSH2 0x850 CALLDATASIZE PUSH1 0x4 PUSH2 0x709A JUMP JUMPDEST PUSH1 0x1 PUSH1 0x1 PUSH1 0xA0 SHL SUB AND PUSH1 0x0 SWAP1 DUP2 MSTORE PUSH1 0x75 PUSH1 0x20 MSTORE PUSH1 0x40 SWAP1 KECCAK256 SLOAD ISZERO SWAP1 JUMP JUMPDEST PUSH2 0x62A PUSH2 0x87A CALLDATASIZE PUSH1 0x4 PUSH2 0x710F JUMP JUMPDEST PUSH2 0x21A9 JUMP JUMPDEST PUSH2 0x58B PUSH2 0x88D CALLDATASIZE PUSH1 0x4 PUSH2 0x709A JUMP JUMPDEST PUSH1 0x9C PUSH1 0x20 MSTORE PUSH1 0x0 SWAP1 DUP2 MSTORE PUSH1 0x40 SWAP1 KECCAK256 SLOAD DUP2 JUMP JUMPDEST PUSH2 0x6DE PUSH2 0x8AD CALLDATASIZE PUSH1 0x4 PUSH2 0x70B7 JUMP JUMPDEST PUSH2 0x233B JUMP JUMPDEST PUSH2 0x5C7 PUSH2 0x8C0 CALLDATASIZE PUSH1 0x4 PUSH2 0x710F JUMP JUMPDEST PUSH2 0x2404 JUMP JUMPDEST PUSH2 0x58B PUSH2 0x8D3 CALLDATASIZE PUSH1 0x4 PUSH2 0x709A JUMP JUMPDEST PUSH1 0x9E PUSH1 0x20 MSTORE PUSH1 0x0 SWAP1 DUP2 MSTORE PUSH1 0x40 SWAP1 KECCAK256 SLOAD DUP2 JUMP JUMPDEST PUSH2 0x62A PUSH2 0x8F3 CALLDATASIZE PUSH1 0x4 PUSH2 0x709A JUMP JUMPDEST PUSH2 0x2420 JUMP JUMPDEST PUSH2 0x5C7 PUSH2 0x906 CALLDATASIZE PUSH1 0x4 PUSH2 0x70B7 JUMP JUMPDEST PUSH1 0x0 SWAP1 DUP2 MSTORE PUSH1 0x6E PUSH1 0x20 MSTORE PUSH1 0x40 SWAP1 KECCAK256 SLOAD PUSH1 0x1 PUSH1 0x1 PUSH1 0xA0 SHL SUB AND SWAP1 JUMP JUMPDEST PUSH2 0x58B PUSH1 0xAD SLOAD DUP2 JUMP JUMPDEST PUSH1 0x68 SLOAD PUSH2 0x5C7 SWAP1 PUSH1 0x1 PUSH1 0x1 PUSH1 0xA0 SHL SUB AND DUP2 JUMP JUMPDEST PUSH2 0x950 PUSH2 0x94B CALLDATASIZE PUSH1 0x4 PUSH2 0x709A JUMP JUMPDEST PUSH2 0x244C JUMP JUMPDEST PUSH1 0x40 MLOAD PUSH2 0x595 SWAP2 SWAP1 PUSH2 0x72AF JUMP JUMPDEST PUSH2 0x6DE PUSH2 0x96B CALLDATASIZE PUSH1 0x4 PUSH2 0x709A JUMP JUMPDEST PUSH1 0x77 PUSH1 0x20 MSTORE PUSH1 0x0 SWAP1 DUP2 MSTORE PUSH1 0x40 SWAP1 KECCAK256 SLOAD PUSH1 0xFF AND DUP2 JUMP JUMPDEST PUSH2 0x988 PUSH2 0x252A JUMP JUMPDEST PUSH1 0x40 DUP1 MLOAD DUP3 MLOAD DUP2 MSTORE PUSH1 0x20 SWAP3 DUP4 ADD MLOAD SWAP3 DUP2 ADD SWAP3 SWAP1 SWAP3 MSTORE ADD PUSH2 0x595 JUMP JUMPDEST PUSH2 0x58B PUSH2 0x9B1 CALLDATASIZE PUSH1 0x4 PUSH2 0x709A JUMP JUMPDEST PUSH1 0x96 PUSH1 0x20 MSTORE PUSH1 0x0 SWAP1 DUP2 MSTORE PUSH1 0x40 SWAP1 KECCAK256 SLOAD DUP2 JUMP JUMPDEST PUSH2 0x58B PUSH1 0x90 SLOAD DUP2 JUMP JUMPDEST PUSH1 0x69 SLOAD PUSH2 0x5C7 SWAP1 PUSH1 0x1 PUSH1 0x1 PUSH1 0xA0 SHL SUB AND DUP2 JUMP JUMPDEST PUSH2 0x58B PUSH2 0x9ED CALLDATASIZE PUSH1 0x4 PUSH2 0x70D0 JUMP JUMPDEST PUSH2 0x25CD JUMP JUMPDEST PUSH2 0x58B PUSH2 0xA00 CALLDATASIZE PUSH1 0x4 PUSH2 0x70B7 JUMP JUMPDEST PUSH2 0x28FB JUMP JUMPDEST PUSH2 0xA18 PUSH2 0xA13 CALLDATASIZE PUSH1 0x4 PUSH2 0x709A JUMP JUMPDEST PUSH2 0x290B JUMP JUMPDEST PUSH1 0x40 MLOAD PUSH2 0x595 SWAP2 SWAP1 PUSH2 0x7311 JUMP JUMPDEST PUSH2 0x6DE PUSH2 0xA33 CALLDATASIZE PUSH1 0x4 PUSH2 0x7324 JUMP JUMPDEST PUSH2 0x2B35 JUMP JUMPDEST PUSH2 0x62A PUSH2 0x2E22 JUMP JUMPDEST PUSH2 0x58B PUSH1 0x92 SLOAD DUP2 JUMP JUMPDEST PUSH1 0xAB SLOAD PUSH2 0x5C7 SWAP1 PUSH1 0x1 PUSH1 0x1 PUSH1 0xA0 SHL SUB AND DUP2 JUMP JUMPDEST PUSH2 0x6DE PUSH2 0xA6A CALLDATASIZE PUSH1 0x4 PUSH2 0x70D0 JUMP JUMPDEST PUSH1 0x9D PUSH1 0x20 SWAP1 DUP2 MSTORE PUSH1 0x0 SWAP3 DUP4 MSTORE PUSH1 0x40 DUP1 DUP5 KECCAK256 SWAP1 SWAP2 MSTORE SWAP1 DUP3 MSTORE SWAP1 KECCAK256 SLOAD PUSH1 0xFF AND DUP2 JUMP JUMPDEST PUSH2 0x58B PUSH1 0x86 SLOAD DUP2 JUMP JUMPDEST PUSH1 0x85 SLOAD PUSH2 0xAA3 SWAP1 PUSH4 0xFFFFFFFF AND DUP2 JUMP JUMPDEST PUSH1 0x40 MLOAD PUSH4 0xFFFFFFFF SWAP1 SWAP2 AND DUP2 MSTORE PUSH1 0x20 ADD PUSH2 0x595 JUMP JUMPDEST PUSH2 0x62A PUSH2 0xAC6 CALLDATASIZE PUSH1 0x4 PUSH2 0x7349 JUMP JUMPDEST PUSH2 0x2E36 JUMP JUMPDEST PUSH2 0x58B PUSH2 0xAD9 CALLDATASIZE PUSH1 0x4 PUSH2 0x70B7 JUMP JUMPDEST PUSH2 0x2F80 JUMP JUMPDEST PUSH2 0x58B PUSH2 0xAEC CALLDATASIZE PUSH1 0x4 PUSH2 0x709A JUMP JUMPDEST PUSH1 0x97 PUSH1 0x20 MSTORE PUSH1 0x0 SWAP1 DUP2 MSTORE PUSH1 0x40 SWAP1 KECCAK256 SLOAD DUP2 JUMP JUMPDEST PUSH2 0x58B PUSH2 0xB0C CALLDATASIZE PUSH1 0x4 PUSH2 0x709A JUMP JUMPDEST PUSH2 0x2F90 JUMP JUMPDEST PUSH2 0x62A PUSH2 0xB1F CALLDATASIZE PUSH1 0x4 PUSH2 0x737E JUMP JUMPDEST PUSH2 0x3041 JUMP JUMPDEST PUSH1 0x66 SLOAD PUSH2 0x5C7 SWAP1 PUSH1 0x1 PUSH1 0x1 PUSH1 0xA0 SHL SUB AND DUP2 JUMP JUMPDEST PUSH1 0x33 SLOAD PUSH1 0x1 PUSH1 0x1 PUSH1 0xA0 SHL SUB AND PUSH2 0x5C7 JUMP JUMPDEST PUSH2 0x58B PUSH2 0xB56 CALLDATASIZE PUSH1 0x4 PUSH2 0x709A JUMP JUMPDEST PUSH1 0x78 PUSH1 0x20 MSTORE PUSH1 0x0 SWAP1 DUP2 MSTORE PUSH1 0x40 SWAP1 KECCAK256 SLOAD DUP2 JUMP JUMPDEST PUSH2 0x58B PUSH2 0xB76 CALLDATASIZE PUSH1 0x4 PUSH2 0x709A JUMP JUMPDEST PUSH1 0x9B PUSH1 0x20 MSTORE PUSH1 0x0 SWAP1 DUP2 MSTORE PUSH1 0x40 SWAP1 KECCAK256 SLOAD DUP2 JUMP JUMPDEST PUSH2 0x58B PUSH2 0xB96 CALLDATASIZE PUSH1 0x4 PUSH2 0x709A JUMP JUMPDEST PUSH1 0x79 PUSH1 0x20 MSTORE PUSH1 0x0 SWAP1 DUP2 MSTORE PUSH1 0x40 SWAP1 KECCAK256 SLOAD DUP2 JUMP JUMPDEST PUSH2 0x58B PUSH2 0xBB6 CALLDATASIZE PUSH1 0x4 PUSH2 0x709A JUMP JUMPDEST PUSH1 0x98 PUSH1 0x20 MSTORE PUSH1 0x0 SWAP1 DUP2 MSTORE PUSH1 0x40 SWAP1 KECCAK256 SLOAD DUP2 JUMP JUMPDEST PUSH2 0x6DE PUSH2 0xBD6 CALLDATASIZE PUSH1 0x4 PUSH2 0x709A JUMP JUMPDEST PUSH1 0x1 PUSH1 0x1 PUSH1 0xA0 SHL SUB AND PUSH1 0x0 SWAP1 DUP2 MSTORE PUSH1 0x74 PUSH1 0x20 MSTORE PUSH1 0x40 SWAP1 KECCAK256 SLOAD PUSH1 0xFF AND SWAP1 JUMP JUMPDEST PUSH2 0xC1B PUSH2 0xC02 CALLDATASIZE PUSH1 0x4 PUSH2 0x709A JUMP JUMPDEST PUSH1 0x6F PUSH1 0x20 MSTORE PUSH1 0x0 SWAP1 DUP2 MSTORE PUSH1 0x40 SWAP1 KECCAK256 DUP1 SLOAD PUSH1 0x1 SWAP1 SWAP2 ADD SLOAD DUP3 JUMP JUMPDEST PUSH1 0x40 DUP1 MLOAD SWAP3 DUP4 MSTORE PUSH1 0x20 DUP4 ADD SWAP2 SWAP1 SWAP2 MSTORE ADD PUSH2 0x595 JUMP JUMPDEST PUSH2 0x58B PUSH1 0x7C SLOAD DUP2 JUMP JUMPDEST PUSH2 0x62A PUSH2 0xC47 CALLDATASIZE PUSH1 0x4 PUSH2 0x709A JUMP JUMPDEST PUSH2 0x34AD JUMP JUMPDEST PUSH2 0xC5F PUSH2 0xC5A CALLDATASIZE PUSH1 0x4 PUSH2 0x709A JUMP JUMPDEST PUSH2 0x34D7 JUMP JUMPDEST PUSH1 0x40 MLOAD PUSH2 0x595 SWAP2 SWAP1 PUSH2 0x7427 JUMP JUMPDEST PUSH2 0x58B PUSH1 0xAA SLOAD DUP2 JUMP JUMPDEST PUSH2 0x58B PUSH1 0x8C SLOAD DUP2 JUMP JUMPDEST PUSH2 0x58B PUSH2 0xC8C CALLDATASIZE PUSH1 0x4 PUSH2 0x70B7 JUMP JUMPDEST PUSH2 0x379F JUMP JUMPDEST PUSH2 0x58B PUSH1 0x87 SLOAD DUP2 JUMP JUMPDEST PUSH2 0x58B PUSH2 0xCA8 CALLDATASIZE PUSH1 0x4 PUSH2 0x70B7 JUMP JUMPDEST PUSH2 0x37AF JUMP JUMPDEST PUSH1 0x67 SLOAD PUSH2 0x5C7 SWAP1 PUSH1 0x1 PUSH1 0x1 PUSH1 0xA0 SHL SUB AND DUP2 JUMP JUMPDEST PUSH2 0x58B PUSH2 0xCCE CALLDATASIZE PUSH1 0x4 PUSH2 0x709A JUMP JUMPDEST PUSH2 0x37BF JUMP JUMPDEST PUSH2 0x58B PUSH2 0xCE1 CALLDATASIZE PUSH1 0x4 PUSH2 0x70B7 JUMP JUMPDEST PUSH2 0x3870 JUMP JUMPDEST PUSH2 0x62A PUSH2 0xCF4 CALLDATASIZE PUSH1 0x4 PUSH2 0x70B7 JUMP JUMPDEST PUSH2 0x3880 JUMP JUMPDEST PUSH2 0x6DE PUSH2 0xD07 CALLDATASIZE PUSH1 0x4 PUSH2 0x710F JUMP JUMPDEST PUSH2 0x388D JUMP JUMPDEST PUSH2 0xA18 PUSH2 0xD1A CALLDATASIZE PUSH1 0x4 PUSH2 0x709A JUMP JUMPDEST PUSH2 0x3936 JUMP JUMPDEST PUSH2 0x58B PUSH1 0xA9 SLOAD DUP2 JUMP JUMPDEST PUSH1 0xA6 SLOAD PUSH2 0x5C7 SWAP1 PUSH1 0x1 PUSH1 0x1 PUSH1 0xA0 SHL SUB AND DUP2 JUMP JUMPDEST PUSH2 0x58B PUSH2 0x3B56 JUMP JUMPDEST PUSH2 0x58B PUSH1 0x8F SLOAD DUP2 JUMP JUMPDEST PUSH2 0x5C7 PUSH2 0xD5A CALLDATASIZE PUSH1 0x4 PUSH2 0x709A JUMP JUMPDEST PUSH1 0x73 PUSH1 0x20 MSTORE PUSH1 0x0 SWAP1 DUP2 MSTORE PUSH1 0x40 SWAP1 KECCAK256 SLOAD PUSH1 0x1 PUSH1 0x1 PUSH1 0xA0 SHL SUB AND DUP2 JUMP JUMPDEST PUSH2 0x58B PUSH2 0xD83 CALLDATASIZE PUSH1 0x4 PUSH2 0x709A JUMP JUMPDEST PUSH1 0x95 PUSH1 0x20 MSTORE PUSH1 0x0 SWAP1 DUP2 MSTORE PUSH1 0x40 SWAP1 KECCAK256 SLOAD DUP2 JUMP JUMPDEST PUSH2 0x62A PUSH2 0xDA3 CALLDATASIZE PUSH1 0x4 PUSH2 0x709A JUMP JUMPDEST PUSH2 0x3BCE JUMP JUMPDEST PUSH2 0x62A PUSH2 0xDB6 CALLDATASIZE PUSH1 0x4 PUSH2 0x709A JUMP JUMPDEST PUSH2 0x3BF8 JUMP JUMPDEST PUSH2 0x5C7 PUSH2 0xDC9 CALLDATASIZE PUSH1 0x4 PUSH2 0x709A JUMP JUMPDEST PUSH1 0x72 PUSH1 0x20 MSTORE PUSH1 0x0 SWAP1 DUP2 MSTORE PUSH1 0x40 SWAP1 KECCAK256 SLOAD PUSH1 0x1 PUSH1 0x1 PUSH1 0xA0 SHL SUB AND DUP2 JUMP JUMPDEST PUSH2 0x58B PUSH1 0x6B SLOAD DUP2 JUMP JUMPDEST PUSH2 0x6DE PUSH2 0xDFB CALLDATASIZE PUSH1 0x4 PUSH2 0x7483 JUMP JUMPDEST PUSH2 0x3C22 JUMP JUMPDEST PUSH2 0x58B PUSH2 0xE0E CALLDATASIZE PUSH1 0x4 PUSH2 0x70B7 JUMP JUMPDEST PUSH2 0x3F2D JUMP JUMPDEST PUSH2 0x62A PUSH2 0xE21 CALLDATASIZE PUSH1 0x4 PUSH2 0x709A JUMP JUMPDEST PUSH2 0x3F3D JUMP JUMPDEST PUSH2 0x950 PUSH2 0xE34 CALLDATASIZE PUSH1 0x4 PUSH2 0x709A JUMP JUMPDEST PUSH2 0x3F67 JUMP JUMPDEST PUSH1 0x6A SLOAD PUSH2 0x5C7 SWAP1 PUSH1 0x1 PUSH1 0x1 PUSH1 0xA0 SHL SUB AND DUP2 JUMP JUMPDEST PUSH1 0xA8 SLOAD PUSH2 0x5C7 SWAP1 PUSH1 0x1 PUSH1 0x1 PUSH1 0xA0 SHL SUB AND DUP2 JUMP JUMPDEST PUSH2 0x58B PUSH1 0x91 SLOAD DUP2 JUMP JUMPDEST PUSH2 0x62A PUSH2 0xE76 CALLDATASIZE PUSH1 0x4 PUSH2 0x709A JUMP JUMPDEST PUSH2 0x4077 JUMP JUMPDEST PUSH2 0xE8E PUSH2 0xE89 CALLDATASIZE PUSH1 0x4 PUSH2 0x709A JUMP JUMPDEST PUSH2 0x40F0 JUMP JUMPDEST PUSH1 0x40 MLOAD PUSH2 0x595 SWAP11 SWAP10 SWAP9 SWAP8 SWAP7 SWAP6 SWAP5 SWAP4 SWAP3 SWAP2 SWAP1 PUSH2 0x74D0 JUMP JUMPDEST PUSH2 0x62A PUSH2 0xEB2 CALLDATASIZE PUSH1 0x4 PUSH2 0x70B7 JUMP JUMPDEST PUSH2 0x42AF JUMP JUMPDEST PUSH1 0x0 DUP1 DUP1 JUMPDEST PUSH1 0x1 PUSH1 0x1 PUSH1 0xA0 SHL SUB DUP5 AND PUSH1 0x0 SWAP1 DUP2 MSTORE PUSH1 0x70 PUSH1 0x20 MSTORE PUSH1 0x40 SWAP1 KECCAK256 SLOAD DUP2 LT ISZERO PUSH2 0xFB7 JUMPI PUSH1 0x1 PUSH1 0x1 PUSH1 0xA0 SHL SUB DUP5 AND PUSH1 0x0 SWAP1 DUP2 MSTORE PUSH1 0x70 PUSH1 0x20 MSTORE PUSH1 0x40 DUP2 KECCAK256 DUP1 SLOAD PUSH1 0x79 SWAP3 SWAP2 SWAP1 DUP5 SWAP1 DUP2 LT PUSH2 0xF0B JUMPI PUSH2 0xF0B PUSH2 0x752E JUMP JUMPDEST PUSH1 0x0 SWAP2 DUP3 MSTORE PUSH1 0x20 DUP1 DUP4 KECCAK256 SWAP1 SWAP2 ADD SLOAD PUSH1 0x1 PUSH1 0x1 PUSH1 0xA0 SHL SUB AND DUP4 MSTORE DUP3 ADD SWAP3 SWAP1 SWAP3 MSTORE PUSH1 0x40 ADD SWAP1 KECCAK256 SLOAD PUSH2 0xF3A SWAP1 DUP4 PUSH2 0x755A JUMP JUMPDEST PUSH1 0x1 PUSH1 0x1 PUSH1 0xA0 SHL SUB DUP6 AND PUSH1 0x0 SWAP1 DUP2 MSTORE PUSH1 0x70 PUSH1 0x20 MSTORE PUSH1 0x40 DUP2 KECCAK256 DUP1 SLOAD SWAP3 SWAP5 POP PUSH1 0x74 SWAP3 DUP5 SWAP1 DUP2 LT PUSH2 0xF6A JUMPI PUSH2 0xF6A PUSH2 0x752E JUMP JUMPDEST PUSH1 0x0 SWAP2 DUP3 MSTORE PUSH1 0x20 DUP1 DUP4 KECCAK256 SWAP1 SWAP2 ADD SLOAD PUSH1 0x1 PUSH1 0x1 PUSH1 0xA0 SHL SUB AND DUP4 MSTORE DUP3 ADD SWAP3 SWAP1 SWAP3 MSTORE PUSH1 0x40 ADD SWAP1 KECCAK256 SLOAD PUSH1 0xFF AND ISZERO PUSH2 0xFA5 JUMPI DUP2 PUSH2 0xFA1 DUP2 PUSH2 0x756D JUMP JUMPDEST SWAP3 POP POP JUMPDEST DUP1 PUSH2 0xFAF DUP2 PUSH2 0x756D JUMP JUMPDEST SWAP2 POP POP PUSH2 0xEBC JUMP JUMPDEST POP SWAP3 SWAP2 POP POP JUMP JUMPDEST PUSH1 0x0 DUP1 DUP1 JUMPDEST PUSH1 0x1 PUSH1 0x1 PUSH1 0xA0 SHL SUB DUP6 AND PUSH1 0x0 SWAP1 DUP2 MSTORE PUSH1 0x70 PUSH1 0x20 MSTORE PUSH1 0x40 SWAP1 KECCAK256 SLOAD DUP2 LT ISZERO PUSH2 0x1179 JUMPI PUSH1 0x1 PUSH1 0x1 PUSH1 0xA0 SHL SUB DUP6 AND PUSH1 0x0 SWAP1 DUP2 MSTORE PUSH1 0x70 PUSH1 0x20 MSTORE PUSH1 0x40 DUP2 KECCAK256 DUP1 SLOAD PUSH1 0x74 SWAP3 SWAP2 SWAP1 DUP5 SWAP1 DUP2 LT PUSH2 0x1012 JUMPI PUSH2 0x1012 PUSH2 0x752E JUMP JUMPDEST PUSH1 0x0 SWAP2 DUP3 MSTORE PUSH1 0x20 DUP1 DUP4 KECCAK256 SWAP1 SWAP2 ADD SLOAD PUSH1 0x1 PUSH1 0x1 PUSH1 0xA0 SHL SUB AND DUP4 MSTORE DUP3 ADD SWAP3 SWAP1 SWAP3 MSTORE PUSH1 0x40 ADD SWAP1 KECCAK256 SLOAD PUSH1 0xFF AND ISZERO PUSH2 0x104D JUMPI DUP2 PUSH2 0x1049 DUP2 PUSH2 0x756D JUMP JUMPDEST SWAP3 POP POP JUMPDEST PUSH1 0x7D DUP5 PUSH1 0xFF AND DUP2 SLOAD DUP2 LT PUSH2 0x1063 JUMPI PUSH2 0x1063 PUSH2 0x752E JUMP JUMPDEST SWAP1 PUSH1 0x0 MSTORE PUSH1 0x20 PUSH1 0x0 KECCAK256 ADD SLOAD PUSH1 0x79 PUSH1 0x0 PUSH1 0x70 PUSH1 0x0 DUP10 PUSH1 0x1 PUSH1 0x1 PUSH1 0xA0 SHL SUB AND PUSH1 0x1 PUSH1 0x1 PUSH1 0xA0 SHL SUB AND DUP2 MSTORE PUSH1 0x20 ADD SWAP1 DUP2 MSTORE PUSH1 0x20 ADD PUSH1 0x0 KECCAK256 DUP5 DUP2 SLOAD DUP2 LT PUSH2 0x10A8 JUMPI PUSH2 0x10A8 PUSH2 0x752E JUMP JUMPDEST PUSH1 0x0 SWAP2 DUP3 MSTORE PUSH1 0x20 DUP1 DUP4 KECCAK256 SWAP1 SWAP2 ADD SLOAD PUSH1 0x1 PUSH1 0x1 PUSH1 0xA0 SHL SUB AND DUP4 MSTORE DUP3 ADD SWAP3 SWAP1 SWAP3 MSTORE PUSH1 0x40 ADD SWAP1 KECCAK256 SLOAD GT ISZERO PUSH2 0x1106 JUMPI PUSH1 0x7D DUP5 PUSH1 0xFF AND DUP2 SLOAD DUP2 LT PUSH2 0x10E9 JUMPI PUSH2 0x10E9 PUSH2 0x752E JUMP JUMPDEST SWAP1 PUSH1 0x0 MSTORE PUSH1 0x20 PUSH1 0x0 KECCAK256 ADD SLOAD DUP3 PUSH2 0x10FF SWAP2 SWAP1 PUSH2 0x755A JUMP JUMPDEST SWAP2 POP PUSH2 0x1167 JUMP JUMPDEST PUSH1 0x1 PUSH1 0x1 PUSH1 0xA0 SHL SUB DUP6 AND PUSH1 0x0 SWAP1 DUP2 MSTORE PUSH1 0x70 PUSH1 0x20 MSTORE PUSH1 0x40 DUP2 KECCAK256 DUP1 SLOAD PUSH1 0x79 SWAP3 SWAP2 SWAP1 DUP5 SWAP1 DUP2 LT PUSH2 0x1135 JUMPI PUSH2 0x1135 PUSH2 0x752E JUMP JUMPDEST PUSH1 0x0 SWAP2 DUP3 MSTORE PUSH1 0x20 DUP1 DUP4 KECCAK256 SWAP1 SWAP2 ADD SLOAD PUSH1 0x1 PUSH1 0x1 PUSH1 0xA0 SHL SUB AND DUP4 MSTORE DUP3 ADD SWAP3 SWAP1 SWAP3 MSTORE PUSH1 0x40 ADD SWAP1 KECCAK256 SLOAD PUSH2 0x1164 SWAP1 DUP4 PUSH2 0x755A JUMP JUMPDEST SWAP2 POP JUMPDEST DUP1 PUSH2 0x1171 DUP2 PUSH2 0x756D JUMP JUMPDEST SWAP2 POP POP PUSH2 0xFC3 JUMP JUMPDEST POP SWAP1 POP JUMPDEST SWAP3 SWAP2 POP POP JUMP JUMPDEST PUSH1 0x0 PUSH2 0x118E DUP3 PUSH2 0xEB7 JUMP JUMPDEST PUSH1 0x1 PUSH1 0x1 PUSH1 0xA0 SHL SUB DUP4 AND PUSH1 0x0 SWAP1 DUP2 MSTORE PUSH1 0x70 PUSH1 0x20 MSTORE PUSH1 0x40 DUP2 KECCAK256 SLOAD PUSH1 0x7A DUP1 SLOAD SWAP4 SWAP5 POP SWAP1 SWAP3 PUSH1 0x6 SWAP1 DUP2 LT PUSH2 0x11C1 JUMPI PUSH2 0x11C1 PUSH2 0x752E JUMP JUMPDEST SWAP1 PUSH1 0x0 MSTORE PUSH1 0x20 PUSH1 0x0 KECCAK256 ADD SLOAD PUSH2 0x11D7 DUP6 PUSH1 0x6 PUSH2 0xFBE JUMP JUMPDEST LT PUSH2 0x1237 JUMPI POP PUSH1 0x1 PUSH1 0x1 PUSH1 0xA0 SHL SUB DUP4 AND PUSH1 0x0 SWAP1 DUP2 MSTORE PUSH1 0x6D PUSH1 0x20 MSTORE PUSH1 0x40 SWAP1 KECCAK256 SLOAD PUSH1 0x6 SWAP1 PUSH1 0xFF AND DUP2 GT ISZERO PUSH2 0x1231 JUMPI PUSH1 0x1 PUSH1 0x1 PUSH1 0xA0 SHL SUB DUP5 AND PUSH1 0x0 SWAP1 DUP2 MSTORE PUSH1 0x6D PUSH1 0x20 MSTORE PUSH1 0x40 SWAP1 KECCAK256 DUP1 SLOAD PUSH1 0xFF NOT AND PUSH1 0xFF DUP4 AND OR SWAP1 SSTORE PUSH2 0x1231 DUP5 PUSH2 0x42BC JUMP JUMPDEST POP POP POP POP JUMP JUMPDEST PUSH1 0x7A PUSH1 0x5 DUP2 SLOAD DUP2 LT PUSH2 0x124B JUMPI PUSH2 0x124B PUSH2 0x752E JUMP JUMPDEST SWAP1 PUSH1 0x0 MSTORE PUSH1 0x20 PUSH1 0x0 KECCAK256 ADD SLOAD PUSH2 0x1261 DUP6 PUSH1 0x5 PUSH2 0xFBE JUMP JUMPDEST LT ISZERO DUP1 ISZERO PUSH2 0x127B JUMPI POP PUSH1 0x7C SLOAD PUSH2 0x1278 DUP6 PUSH1 0x4 PUSH2 0x25CD JUMP JUMPDEST LT ISZERO JUMPDEST ISZERO PUSH2 0x1329 JUMPI POP PUSH1 0x1 PUSH1 0x1 PUSH1 0xA0 SHL SUB DUP4 AND PUSH1 0x0 SWAP1 DUP2 MSTORE PUSH1 0x6D PUSH1 0x20 MSTORE PUSH1 0x40 SWAP1 KECCAK256 SLOAD PUSH1 0x5 SWAP1 PUSH1 0xFF AND DUP2 GT ISZERO PUSH2 0x12D5 JUMPI PUSH1 0x1 PUSH1 0x1 PUSH1 0xA0 SHL SUB DUP5 AND PUSH1 0x0 SWAP1 DUP2 MSTORE PUSH1 0x6D PUSH1 0x20 MSTORE PUSH1 0x40 SWAP1 KECCAK256 DUP1 SLOAD PUSH1 0xFF NOT AND PUSH1 0xFF DUP4 AND OR SWAP1 SSTORE PUSH2 0x1231 DUP5 PUSH2 0x4369 JUMP JUMPDEST PUSH1 0x1 PUSH1 0x1 PUSH1 0xA0 SHL SUB DUP5 AND PUSH1 0x0 SWAP1 DUP2 MSTORE PUSH1 0x6D PUSH1 0x20 MSTORE PUSH1 0x40 SWAP1 KECCAK256 SLOAD PUSH1 0xFF DUP1 DUP4 AND SWAP2 AND GT ISZERO PUSH2 0x1329 JUMPI PUSH1 0x1 PUSH1 0x1 PUSH1 0xA0 SHL SUB DUP5 AND PUSH1 0x0 SWAP1 DUP2 MSTORE PUSH1 0x6D PUSH1 0x20 MSTORE PUSH1 0x40 SWAP1 KECCAK256 DUP1 SLOAD PUSH1 0xFF NOT AND PUSH1 0xFF DUP4 AND OR SWAP1 SSTORE PUSH2 0x1231 DUP5 PUSH2 0x4416 JUMP JUMPDEST PUSH1 0x7A PUSH1 0x4 DUP2 SLOAD DUP2 LT PUSH2 0x133D JUMPI PUSH2 0x133D PUSH2 0x752E JUMP JUMPDEST SWAP1 PUSH1 0x0 MSTORE PUSH1 0x20 PUSH1 0x0 KECCAK256 ADD SLOAD PUSH2 0x1353 DUP6 PUSH1 0x4 PUSH2 0xFBE JUMP JUMPDEST LT ISZERO DUP1 ISZERO PUSH2 0x1395 JUMPI POP PUSH1 0x7B PUSH1 0x4 DUP2 SLOAD DUP2 LT PUSH2 0x1370 JUMPI PUSH2 0x1370 PUSH2 0x752E JUMP JUMPDEST SWAP1 PUSH1 0x0 MSTORE PUSH1 0x20 PUSH1 0x0 KECCAK256 ADD SLOAD DUP3 LT ISZERO DUP1 PUSH2 0x1395 JUMPI POP PUSH1 0x7C SLOAD PUSH2 0x1392 DUP6 PUSH1 0x3 PUSH2 0x25CD JUMP JUMPDEST LT ISZERO JUMPDEST ISZERO PUSH2 0x1403 JUMPI POP PUSH1 0x1 PUSH1 0x1 PUSH1 0xA0 SHL SUB DUP4 AND PUSH1 0x0 SWAP1 DUP2 MSTORE PUSH1 0x6D PUSH1 0x20 MSTORE PUSH1 0x40 SWAP1 KECCAK256 SLOAD PUSH1 0x4 SWAP1 PUSH1 0xFF AND DUP2 LT ISZERO PUSH2 0x13D3 JUMPI PUSH2 0x13CA DUP5 PUSH2 0x4538 JUMP JUMPDEST PUSH2 0x13D3 DUP5 PUSH2 0x4416 JUMP JUMPDEST PUSH1 0x1 PUSH1 0x1 PUSH1 0xA0 SHL SUB SWAP4 SWAP1 SWAP4 AND PUSH1 0x0 SWAP1 DUP2 MSTORE PUSH1 0x6D PUSH1 0x20 MSTORE PUSH1 0x40 SWAP1 KECCAK256 DUP1 SLOAD PUSH1 0xFF NOT AND PUSH1 0xFF SWAP1 SWAP5 AND SWAP4 SWAP1 SWAP4 OR SWAP1 SWAP3 SSTORE POP POP JUMP JUMPDEST PUSH1 0x7A PUSH1 0x3 DUP2 SLOAD DUP2 LT PUSH2 0x1417 JUMPI PUSH2 0x1417 PUSH2 0x752E JUMP JUMPDEST SWAP1 PUSH1 0x0 MSTORE PUSH1 0x20 PUSH1 0x0 KECCAK256 ADD SLOAD PUSH2 0x142D DUP6 PUSH1 0x3 PUSH2 0xFBE JUMP JUMPDEST LT ISZERO DUP1 ISZERO PUSH2 0x146F JUMPI POP PUSH1 0x7B PUSH1 0x3 DUP2 SLOAD DUP2 LT PUSH2 0x144A JUMPI PUSH2 0x144A PUSH2 0x752E JUMP JUMPDEST SWAP1 PUSH1 0x0 MSTORE PUSH1 0x20 PUSH1 0x0 KECCAK256 ADD SLOAD DUP3 LT ISZERO DUP1 PUSH2 0x146F JUMPI POP PUSH1 0x7C SLOAD PUSH2 0x146C DUP6 PUSH1 0x2 PUSH2 0x25CD JUMP JUMPDEST LT ISZERO JUMPDEST ISZERO PUSH2 0x14A7 JUMPI POP PUSH1 0x1 PUSH1 0x1 PUSH1 0xA0 SHL SUB DUP4 AND PUSH1 0x0 SWAP1 DUP2 MSTORE PUSH1 0x6D PUSH1 0x20 MSTORE PUSH1 0x40 SWAP1 KECCAK256 SLOAD PUSH1 0x3 SWAP1 PUSH1 0x4 PUSH1 0xFF SWAP1 SWAP2 AND GT ISZERO PUSH2 0x13D3 JUMPI PUSH2 0x13CA DUP5 PUSH2 0x4538 JUMP JUMPDEST PUSH1 0x7A PUSH1 0x2 DUP2 SLOAD DUP2 LT PUSH2 0x14BB JUMPI PUSH2 0x14BB PUSH2 0x752E JUMP JUMPDEST SWAP1 PUSH1 0x0 MSTORE PUSH1 0x20 PUSH1 0x0 KECCAK256 ADD SLOAD DUP4 LT ISZERO DUP1 ISZERO PUSH2 0x1509 JUMPI POP PUSH1 0x7B PUSH1 0x2 DUP2 SLOAD DUP2 LT PUSH2 0x14E4 JUMPI PUSH2 0x14E4 PUSH2 0x752E JUMP JUMPDEST SWAP1 PUSH1 0x0 MSTORE PUSH1 0x20 PUSH1 0x0 KECCAK256 ADD SLOAD DUP3 LT ISZERO DUP1 PUSH2 0x1509 JUMPI POP PUSH1 0x7C SLOAD PUSH2 0x1506 DUP6 PUSH1 0x1 PUSH2 0x25CD JUMP JUMPDEST LT ISZERO JUMPDEST ISZERO PUSH2 0x1541 JUMPI POP PUSH1 0x1 PUSH1 0x1 PUSH1 0xA0 SHL SUB DUP4 AND PUSH1 0x0 SWAP1 DUP2 MSTORE PUSH1 0x6D PUSH1 0x20 MSTORE PUSH1 0x40 SWAP1 KECCAK256 SLOAD PUSH1 0x2 SWAP1 PUSH1 0x4 PUSH1 0xFF SWAP1 SWAP2 AND GT ISZERO PUSH2 0x13D3 JUMPI PUSH2 0x13CA DUP5 PUSH2 0x4538 JUMP JUMPDEST PUSH1 0x7A PUSH1 0x1 DUP2 SLOAD DUP2 LT PUSH2 0x1555 JUMPI PUSH2 0x1555 PUSH2 0x752E JUMP JUMPDEST SWAP1 PUSH1 0x0 MSTORE PUSH1 0x20 PUSH1 0x0 KECCAK256 ADD SLOAD DUP4 LT ISZERO DUP1 ISZERO PUSH2 0x158D JUMPI POP PUSH1 0x7B PUSH1 0x1 DUP2 SLOAD DUP2 LT PUSH2 0x157E JUMPI PUSH2 0x157E PUSH2 0x752E JUMP JUMPDEST SWAP1 PUSH1 0x0 MSTORE PUSH1 0x20 PUSH1 0x0 KECCAK256 ADD SLOAD DUP3 LT ISZERO JUMPDEST ISZERO PUSH2 0x1231 JUMPI POP PUSH1 0x1 PUSH1 0x1 PUSH1 0xA0 SHL SUB DUP4 AND PUSH1 0x0 SWAP1 DUP2 MSTORE PUSH1 0x6D PUSH1 0x20 MSTORE PUSH1 0x40 SWAP1 KECCAK256 SLOAD PUSH1 0x1 SWAP1 PUSH1 0x4 PUSH1 0xFF SWAP1 SWAP2 AND GT ISZERO PUSH2 0x13D3 JUMPI PUSH2 0x13CA DUP5 PUSH2 0x4538 JUMP JUMPDEST PUSH2 0x15CD PUSH2 0x4630 JUMP JUMPDEST PUSH1 0x83 SSTORE JUMP JUMPDEST PUSH1 0x0 DUP1 DUP3 DUP2 SUB PUSH2 0x15E3 JUMPI SWAP1 POP PUSH2 0x117D JUMP JUMPDEST PUSH1 0x1 PUSH1 0x1 PUSH1 0xA0 SHL SUB DUP5 AND PUSH1 0x0 SWAP1 DUP2 MSTORE PUSH1 0x70 PUSH1 0x20 MSTORE PUSH1 0x40 SWAP1 KECCAK256 SLOAD PUSH2 0x1606 SWAP1 DUP3 PUSH2 0x755A JUMP JUMPDEST SWAP1 POP PUSH1 0x0 JUMPDEST PUSH1 0x1 PUSH1 0x1 PUSH1 0xA0 SHL SUB DUP6 AND PUSH1 0x0 SWAP1 DUP2 MSTORE PUSH1 0x70 PUSH1 0x20 MSTORE PUSH1 0x40 SWAP1 KECCAK256 SLOAD DUP2 LT ISZERO PUSH2 0x1179 JUMPI PUSH1 0x1 PUSH1 0x1 PUSH1 0xA0 SHL SUB DUP6 AND PUSH1 0x0 SWAP1 DUP2 MSTORE PUSH1 0x70 PUSH1 0x20 MSTORE PUSH1 0x40 SWAP1 KECCAK256 DUP1 SLOAD PUSH2 0x167A SWAP2 SWAP1 DUP4 SWAP1 DUP2 LT PUSH2 0x165A JUMPI PUSH2 0x165A PUSH2 0x752E JUMP JUMPDEST PUSH1 0x0 SWAP2 DUP3 MSTORE PUSH1 0x20 SWAP1 SWAP2 KECCAK256 ADD SLOAD PUSH1 0x1 PUSH1 0x1 PUSH1 0xA0 SHL SUB AND PUSH2 0x6D1 PUSH1 0x1 DUP8 PUSH2 0x7586 JUMP JUMPDEST PUSH2 0x1684 SWAP1 DUP4 PUSH2 0x755A JUMP JUMPDEST SWAP2 POP DUP1 PUSH2 0x1690 DUP2 PUSH2 0x756D JUMP JUMPDEST SWAP2 POP POP PUSH2 0x160B JUMP JUMPDEST CALLER PUSH1 0x0 SWAP1 DUP2 MSTORE PUSH1 0xA0 PUSH1 0x20 MSTORE PUSH1 0x40 DUP2 KECCAK256 SLOAD PUSH1 0xFF AND ISZERO ISZERO PUSH1 0x1 EQ PUSH2 0x16FD JUMPI PUSH1 0x40 MLOAD PUSH3 0x461BCD PUSH1 0xE5 SHL DUP2 MSTORE PUSH1 0x20 PUSH1 0x4 DUP3 ADD MSTORE PUSH1 0x19 PUSH1 0x24 DUP3 ADD MSTORE PUSH25 0x24B73B30B634B21031B0B63632B916A7B7363C9020B236B4B7 PUSH1 0x39 SHL PUSH1 0x44 DUP3 ADD MSTORE PUSH1 0x64 ADD JUMPDEST PUSH1 0x40 MLOAD DUP1 SWAP2 SUB SWAP1 REVERT JUMPDEST PUSH1 0x0 PUSH1 0x6B SLOAD PUSH1 0x1 PUSH1 0x1 PUSH1 0x40 SHL SUB DUP2 GT ISZERO PUSH2 0x1719 JUMPI PUSH2 0x1719 PUSH2 0x7599 JUMP JUMPDEST PUSH1 0x40 MLOAD SWAP1 DUP1 DUP3 MSTORE DUP1 PUSH1 0x20 MUL PUSH1 0x20 ADD DUP3 ADD PUSH1 0x40 MSTORE DUP1 ISZERO PUSH2 0x1742 JUMPI DUP2 PUSH1 0x20 ADD PUSH1 0x20 DUP3 MUL DUP1 CALLDATASIZE DUP4 CALLDATACOPY ADD SWAP1 POP JUMPDEST POP SWAP1 POP PUSH1 0x0 DUP1 PUSH1 0x0 JUMPDEST PUSH1 0x6A SLOAD PUSH1 0x1 PUSH1 0x1 PUSH1 0xA0 SHL SUB AND PUSH1 0x0 SWAP1 DUP2 MSTORE PUSH1 0x70 PUSH1 0x20 MSTORE PUSH1 0x40 SWAP1 KECCAK256 SLOAD DUP2 LT ISZERO PUSH2 0x1801 JUMPI PUSH1 0x6A SLOAD PUSH1 0x1 PUSH1 0x1 PUSH1 0xA0 SHL SUB AND PUSH1 0x0 SWAP1 DUP2 MSTORE PUSH1 0x70 PUSH1 0x20 MSTORE PUSH1 0x40 SWAP1 KECCAK256 DUP1 SLOAD DUP3 SWAP1 DUP2 LT PUSH2 0x1799 JUMPI PUSH2 0x1799 PUSH2 0x752E JUMP JUMPDEST SWAP1 PUSH1 0x0 MSTORE PUSH1 0x20 PUSH1 0x0 KECCAK256 ADD PUSH1 0x0 SWAP1 SLOAD SWAP1 PUSH2 0x100 EXP SWAP1 DIV PUSH1 0x1 PUSH1 0x1 PUSH1 0xA0 SHL SUB AND DUP5 DUP4 DUP2 MLOAD DUP2 LT PUSH2 0x17C9 JUMPI PUSH2 0x17C9 PUSH2 0x752E JUMP JUMPDEST PUSH1 0x1 PUSH1 0x1 PUSH1 0xA0 SHL SUB SWAP1 SWAP3 AND PUSH1 0x20 SWAP3 DUP4 MUL SWAP2 SWAP1 SWAP2 ADD SWAP1 SWAP2 ADD MSTORE DUP2 PUSH2 0x17EB DUP2 PUSH2 0x756D JUMP JUMPDEST SWAP3 POP POP DUP1 DUP1 PUSH2 0x17F9 SWAP1 PUSH2 0x756D JUMP JUMPDEST SWAP2 POP POP PUSH2 0x174B JUMP JUMPDEST POP JUMPDEST DUP1 DUP3 LT ISZERO PUSH2 0x1986 JUMPI PUSH1 0x0 DUP4 DUP4 DUP2 MLOAD DUP2 LT PUSH2 0x181F JUMPI PUSH2 0x181F PUSH2 0x752E JUMP JUMPDEST PUSH1 0x20 MUL PUSH1 0x20 ADD ADD MLOAD SWAP1 POP DUP3 DUP1 PUSH2 0x1834 SWAP1 PUSH2 0x756D JUMP JUMPDEST PUSH1 0x1 PUSH1 0x1 PUSH1 0xA0 SHL SUB DUP4 AND PUSH1 0x0 SWAP1 DUP2 MSTORE PUSH1 0x76 PUSH1 0x20 MSTORE PUSH1 0x40 SWAP1 KECCAK256 SLOAD SWAP1 SWAP5 POP TIMESTAMP GT SWAP1 POP DUP1 ISZERO PUSH2 0x187D JUMPI POP PUSH1 0x1 PUSH1 0x1 PUSH1 0xA0 SHL SUB DUP2 AND PUSH1 0x0 SWAP1 DUP2 MSTORE PUSH1 0x74 PUSH1 0x20 MSTORE PUSH1 0x40 SWAP1 KECCAK256 SLOAD PUSH1 0xFF AND ISZERO ISZERO PUSH1 0x1 EQ JUMPDEST ISZERO PUSH2 0x18AB JUMPI PUSH1 0x1 PUSH1 0x1 PUSH1 0xA0 SHL SUB DUP2 AND PUSH1 0x0 SWAP1 DUP2 MSTORE PUSH1 0x74 PUSH1 0x20 MSTORE PUSH1 0x40 SWAP1 KECCAK256 DUP1 SLOAD PUSH1 0xFF NOT AND SWAP1 SSTORE PUSH2 0x18AB DUP2 PUSH2 0x468A JUMP JUMPDEST PUSH1 0x1 PUSH1 0x1 PUSH1 0xA0 SHL SUB DUP2 AND PUSH1 0x0 SWAP1 DUP2 MSTORE PUSH1 0x70 PUSH1 0x20 MSTORE PUSH1 0x40 SWAP1 KECCAK256 SLOAD ISZERO PUSH2 0x1980 JUMPI PUSH1 0x0 JUMPDEST PUSH1 0x1 PUSH1 0x1 PUSH1 0xA0 SHL SUB DUP3 AND PUSH1 0x0 SWAP1 DUP2 MSTORE PUSH1 0x70 PUSH1 0x20 MSTORE PUSH1 0x40 SWAP1 KECCAK256 SLOAD DUP2 LT ISZERO PUSH2 0x197E JUMPI PUSH1 0x1 PUSH1 0x1 PUSH1 0xA0 SHL SUB DUP3 AND PUSH1 0x0 SWAP1 DUP2 MSTORE PUSH1 0x70 PUSH1 0x20 MSTORE PUSH1 0x40 SWAP1 KECCAK256 DUP1 SLOAD DUP3 SWAP1 DUP2 LT PUSH2 0x1916 JUMPI PUSH2 0x1916 PUSH2 0x752E JUMP JUMPDEST SWAP1 PUSH1 0x0 MSTORE PUSH1 0x20 PUSH1 0x0 KECCAK256 ADD PUSH1 0x0 SWAP1 SLOAD SWAP1 PUSH2 0x100 EXP SWAP1 DIV PUSH1 0x1 PUSH1 0x1 PUSH1 0xA0 SHL SUB AND DUP6 DUP5 DUP2 MLOAD DUP2 LT PUSH2 0x1946 JUMPI PUSH2 0x1946 PUSH2 0x752E JUMP JUMPDEST PUSH1 0x1 PUSH1 0x1 PUSH1 0xA0 SHL SUB SWAP1 SWAP3 AND PUSH1 0x20 SWAP3 DUP4 MUL SWAP2 SWAP1 SWAP2 ADD SWAP1 SWAP2 ADD MSTORE DUP3 PUSH2 0x1968 DUP2 PUSH2 0x756D JUMP JUMPDEST SWAP4 POP POP DUP1 DUP1 PUSH2 0x1976 SWAP1 PUSH2 0x756D JUMP JUMPDEST SWAP2 POP POP PUSH2 0x18CC JUMP JUMPDEST POP JUMPDEST POP PUSH2 0x1803 JUMP JUMPDEST PUSH1 0x1 SWAP4 POP POP POP POP SWAP1 JUMP JUMPDEST PUSH2 0x1998 PUSH2 0x6F2D JUMP JUMPDEST PUSH1 0x1 PUSH1 0x1 PUSH1 0xA0 SHL SUB DUP3 AND DUP1 DUP3 MSTORE PUSH1 0x0 DUP2 DUP2 MSTORE PUSH1 0x74 PUSH1 0x20 SWAP1 DUP2 MSTORE PUSH1 0x40 DUP1 DUP4 KECCAK256 SLOAD PUSH1 0xFF AND ISZERO ISZERO DUP3 DUP7 ADD MSTORE DUP4 DUP4 MSTORE PUSH1 0x75 DUP3 MSTORE DUP1 DUP4 KECCAK256 SLOAD DUP2 DUP7 ADD MSTORE DUP4 DUP4 MSTORE PUSH1 0x76 DUP3 MSTORE DUP1 DUP4 KECCAK256 SLOAD PUSH1 0x60 DUP7 ADD MSTORE DUP4 DUP4 MSTORE PUSH1 0x78 DUP3 MSTORE DUP1 DUP4 KECCAK256 SLOAD PUSH1 0x80 DUP7 ADD MSTORE SWAP3 DUP3 MSTORE PUSH1 0x70 DUP2 MSTORE SWAP1 DUP3 SWAP1 KECCAK256 DUP1 SLOAD DUP4 MLOAD DUP2 DUP5 MUL DUP2 ADD DUP5 ADD SWAP1 SWAP5 MSTORE DUP1 DUP5 MSTORE SWAP1 SWAP2 DUP4 ADD DUP3 DUP3 DUP1 ISZERO PUSH2 0x1A46 JUMPI PUSH1 0x20 MUL DUP3 ADD SWAP2 SWAP1 PUSH1 0x0 MSTORE PUSH1 0x20 PUSH1 0x0 KECCAK256 SWAP1 JUMPDEST DUP2 SLOAD PUSH1 0x1 PUSH1 0x1 PUSH1 0xA0 SHL SUB AND DUP2 MSTORE PUSH1 0x1 SWAP1 SWAP2 ADD SWAP1 PUSH1 0x20 ADD DUP1 DUP4 GT PUSH2 0x1A28 JUMPI JUMPDEST POP POP POP POP POP PUSH1 0xA0 DUP3 ADD MSTORE PUSH1 0x1 PUSH1 0x1 PUSH1 0xA0 SHL SUB DUP3 AND PUSH1 0x0 SWAP1 DUP2 MSTORE PUSH1 0x71 PUSH1 0x20 SWAP1 DUP2 MSTORE PUSH1 0x40 SWAP2 DUP3 SWAP1 KECCAK256 DUP1 SLOAD DUP4 MLOAD DUP2 DUP5 MUL DUP2 ADD DUP5 ADD SWAP1 SWAP5 MSTORE DUP1 DUP5 MSTORE SWAP1 SWAP2 DUP4 ADD DUP3 DUP3 DUP1 ISZERO PUSH2 0x1AB8 JUMPI PUSH1 0x20 MUL DUP3 ADD SWAP2 SWAP1 PUSH1 0x0 MSTORE PUSH1 0x20 PUSH1 0x0 KECCAK256 SWAP1 JUMPDEST DUP2 SLOAD PUSH1 0x1 PUSH1 0x1 PUSH1 0xA0 SHL SUB AND DUP2 MSTORE PUSH1 0x1 SWAP1 SWAP2 ADD SWAP1 PUSH1 0x20 ADD DUP1 DUP4 GT PUSH2 0x1A9A JUMPI JUMPDEST POP POP POP POP POP PUSH1 0xC0 DUP3 ADD MSTORE PUSH1 0x1 PUSH1 0x1 PUSH1 0xA0 SHL SUB SWAP2 DUP3 AND PUSH1 0x0 DUP2 DUP2 MSTORE PUSH1 0x72 PUSH1 0x20 SWAP1 DUP2 MSTORE PUSH1 0x40 DUP1 DUP4 KECCAK256 SLOAD DUP7 AND PUSH1 0xE0 DUP7 ADD MSTORE DUP4 DUP4 MSTORE PUSH1 0x73 DUP3 MSTORE DUP1 DUP4 KECCAK256 SLOAD SWAP1 SWAP6 AND PUSH2 0x100 DUP6 ADD MSTORE DUP3 DUP3 MSTORE PUSH1 0x79 DUP2 MSTORE DUP5 DUP3 KECCAK256 SLOAD PUSH2 0x120 DUP6 ADD MSTORE DUP3 DUP3 MSTORE PUSH1 0x6D DUP2 MSTORE DUP5 DUP3 KECCAK256 SLOAD PUSH1 0xFF AND PUSH2 0x140 DUP6 ADD MSTORE DUP3 DUP3 MSTORE PUSH1 0x94 DUP2 MSTORE DUP5 DUP3 KECCAK256 SLOAD PUSH2 0x160 DUP6 ADD MSTORE DUP3 DUP3 MSTORE PUSH1 0x95 DUP2 MSTORE DUP5 DUP3 KECCAK256 SLOAD PUSH2 0x180 DUP6 ADD MSTORE DUP3 DUP3 MSTORE PUSH1 0x96 DUP2 MSTORE DUP5 DUP3 KECCAK256 SLOAD PUSH2 0x1A0 DUP6 ADD MSTORE DUP3 DUP3 MSTORE PUSH1 0x97 DUP2 MSTORE DUP5 DUP3 KECCAK256 SLOAD PUSH2 0x1C0 DUP6 ADD MSTORE DUP3 DUP3 MSTORE PUSH1 0x98 DUP2 MSTORE DUP5 DUP3 KECCAK256 SLOAD PUSH2 0x1E0 DUP6 ADD MSTORE DUP3 DUP3 MSTORE PUSH1 0x99 DUP2 MSTORE DUP5 DUP3 KECCAK256 SLOAD PUSH2 0x200 DUP6 ADD MSTORE DUP3 DUP3 MSTORE PUSH1 0x9A DUP2 MSTORE DUP5 DUP3 KECCAK256 SLOAD PUSH2 0x220 DUP6 ADD MSTORE SWAP2 DUP2 MSTORE PUSH1 0x9C SWAP1 SWAP2 MSTORE SWAP2 SWAP1 SWAP2 KECCAK256 SLOAD PUSH2 0x240 DUP3 ADD MSTORE SWAP1 JUMP JUMPDEST PUSH1 0x0 PUSH1 0x6 DUP3 PUSH1 0xFF AND GT ISZERO PUSH2 0x1BC2 JUMPI POP PUSH1 0x0 PUSH2 0x117D JUMP JUMPDEST PUSH1 0x1 PUSH1 0x1 PUSH1 0xA0 SHL SUB DUP4 AND PUSH1 0x0 SWAP1 DUP2 MSTORE PUSH1 0x6D PUSH1 0x20 MSTORE PUSH1 0x40 SWAP1 KECCAK256 DUP1 SLOAD PUSH1 0xFF NOT AND PUSH1 0xFF DUP5 AND SWAP1 DUP2 OR SWAP1 SWAP2 SSTORE PUSH1 0x5 SUB PUSH2 0x1C45 JUMPI PUSH1 0xA1 DUP1 SLOAD PUSH1 0x1 DUP2 ADD DUP3 SSTORE PUSH1 0x0 SWAP2 SWAP1 SWAP2 MSTORE PUSH32 0xAADC37B8BA5645E62F4546802DB221593A94729CCBFC5A97D01365A88F649878 ADD DUP1 SLOAD PUSH1 0x1 PUSH1 0x1 PUSH1 0xA0 SHL SUB NOT AND PUSH1 0x1 PUSH1 0x1 PUSH1 0xA0 SHL SUB DUP6 AND OR SWAP1 SSTORE PUSH2 0x1C45 DUP4 PUSH2 0x4416 JUMP JUMPDEST DUP2 PUSH1 0xFF AND PUSH1 0x6 SUB PUSH2 0x1CD4 JUMPI PUSH1 0xA2 DUP1 SLOAD PUSH1 0x1 DUP2 DUP2 ADD SWAP1 SWAP3 SSTORE PUSH32 0xAAF4F58DE99300CFADC4585755F376D5FA747D5BC561D5BD9D710DE1F91BF42D ADD DUP1 SLOAD PUSH1 0x1 PUSH1 0x1 PUSH1 0xA0 SHL SUB DUP7 AND PUSH1 0x1 PUSH1 0x1 PUSH1 0xA0 SHL SUB NOT SWAP2 DUP3 AND DUP2 OR SWAP1 SWAP3 SSTORE PUSH1 0xA1 DUP1 SLOAD SWAP4 DUP5 ADD DUP2 SSTORE PUSH1 0x0 MSTORE PUSH32 0xAADC37B8BA5645E62F4546802DB221593A94729CCBFC5A97D01365A88F649878 SWAP1 SWAP3 ADD DUP1 SLOAD SWAP1 SWAP3 AND OR SWAP1 SSTORE JUMPDEST PUSH1 0x5 DUP3 PUSH1 0xFF AND LT ISZERO PUSH2 0x1CF2 JUMPI PUSH2 0x1CE9 DUP4 PUSH2 0x4416 JUMP JUMPDEST PUSH2 0x1CF2 DUP4 PUSH2 0x4538 JUMP JUMPDEST POP PUSH1 0x1 SWAP3 SWAP2 POP POP JUMP JUMPDEST CALLER PUSH1 0x0 SWAP1 DUP2 MSTORE PUSH1 0xA0 PUSH1 0x20 MSTORE PUSH1 0x40 DUP2 KECCAK256 SLOAD PUSH1 0xFF AND ISZERO ISZERO PUSH1 0x1 EQ PUSH2 0x1D5B JUMPI PUSH1 0x40 MLOAD PUSH3 0x461BCD PUSH1 0xE5 SHL DUP2 MSTORE PUSH1 0x20 PUSH1 0x4 DUP3 ADD MSTORE PUSH1 0x19 PUSH1 0x24 DUP3 ADD MSTORE PUSH25 0x24B73B30B634B21031B0B63632B916A7B7363C9020B236B4B7 PUSH1 0x39 SHL PUSH1 0x44 DUP3 ADD MSTORE PUSH1 0x64 ADD PUSH2 0x16F4 JUMP JUMPDEST PUSH1 0x0 PUSH1 0x6B SLOAD PUSH1 0x1 PUSH1 0x1 PUSH1 0x40 SHL SUB DUP2 GT ISZERO PUSH2 0x1D77 JUMPI PUSH2 0x1D77 PUSH2 0x7599 JUMP JUMPDEST PUSH1 0x40 MLOAD SWAP1 DUP1 DUP3 MSTORE DUP1 PUSH1 0x20 MUL PUSH1 0x20 ADD DUP3 ADD PUSH1 0x40 MSTORE DUP1 ISZERO PUSH2 0x1DA0 JUMPI DUP2 PUSH1 0x20 ADD PUSH1 0x20 DUP3 MUL DUP1 CALLDATASIZE DUP4 CALLDATACOPY ADD SWAP1 POP JUMPDEST POP SWAP1 POP PUSH1 0x0 DUP1 PUSH1 0x0 JUMPDEST PUSH1 0x6A SLOAD PUSH1 0x1 PUSH1 0x1 PUSH1 0xA0 SHL SUB AND PUSH1 0x0 SWAP1 DUP2 MSTORE PUSH1 0x70 PUSH1 0x20 MSTORE PUSH1 0x40 SWAP1 KECCAK256 SLOAD DUP2 LT ISZERO PUSH2 0x1E5F JUMPI PUSH1 0x6A SLOAD PUSH1 0x1 PUSH1 0x1 PUSH1 0xA0 SHL SUB AND PUSH1 0x0 SWAP1 DUP2 MSTORE PUSH1 0x70 PUSH1 0x20 MSTORE PUSH1 0x40 SWAP1 KECCAK256 DUP1 SLOAD DUP3 SWAP1 DUP2 LT PUSH2 0x1DF7 JUMPI PUSH2 0x1DF7 PUSH2 0x752E JUMP JUMPDEST SWAP1 PUSH1 0x0 MSTORE PUSH1 0x20 PUSH1 0x0 KECCAK256 ADD PUSH1 0x0 SWAP1 SLOAD SWAP1 PUSH2 0x100 EXP SWAP1 DIV PUSH1 0x1 PUSH1 0x1 PUSH1 0xA0 SHL SUB AND DUP5 DUP4 DUP2 MLOAD DUP2 LT PUSH2 0x1E27 JUMPI PUSH2 0x1E27 PUSH2 0x752E JUMP JUMPDEST PUSH1 0x1 PUSH1 0x1 PUSH1 0xA0 SHL SUB SWAP1 SWAP3 AND PUSH1 0x20 SWAP3 DUP4 MUL SWAP2 SWAP1 SWAP2 ADD SWAP1 SWAP2 ADD MSTORE DUP2 PUSH2 0x1E49 DUP2 PUSH2 0x756D JUMP JUMPDEST SWAP3 POP POP DUP1 DUP1 PUSH2 0x1E57 SWAP1 PUSH2 0x756D JUMP JUMPDEST SWAP2 POP POP PUSH2 0x1DA9 JUMP JUMPDEST POP JUMPDEST DUP1 DUP3 LT ISZERO PUSH2 0x1986 JUMPI PUSH1 0x0 DUP4 DUP4 DUP2 MLOAD DUP2 LT PUSH2 0x1E7D JUMPI PUSH2 0x1E7D PUSH2 0x752E JUMP JUMPDEST PUSH1 0x20 MUL PUSH1 0x20 ADD ADD MLOAD SWAP1 POP DUP3 DUP1 PUSH2 0x1E92 SWAP1 PUSH2 0x756D JUMP JUMPDEST PUSH1 0x1 PUSH1 0x1 PUSH1 0xA0 SHL SUB DUP4 AND PUSH1 0x0 SWAP1 DUP2 MSTORE PUSH1 0x9B PUSH1 0x20 MSTORE PUSH1 0x40 SWAP1 KECCAK256 SLOAD SWAP1 SWAP5 POP ISZERO SWAP1 POP PUSH2 0x204B JUMPI PUSH1 0x1 PUSH1 0x1 PUSH1 0xA0 SHL SUB DUP2 AND PUSH1 0x0 SWAP1 DUP2 MSTORE PUSH1 0x74 PUSH1 0x20 MSTORE PUSH1 0x40 SWAP1 KECCAK256 SLOAD PUSH1 0xFF AND ISZERO ISZERO PUSH1 0x1 SUB PUSH2 0x1FC7 JUMPI PUSH1 0x66 SLOAD PUSH1 0x1 PUSH1 0x1 PUSH1 0xA0 SHL SUB DUP3 DUP2 AND PUSH1 0x0 SWAP1 DUP2 MSTORE PUSH1 0x9B PUSH1 0x20 MSTORE PUSH1 0x40 SWAP1 DUP2 SWAP1 KECCAK256 SLOAD SWAP1 MLOAD PUSH4 0x6CF50D91 PUSH1 0xE1 SHL DUP2 MSTORE SWAP2 SWAP1 SWAP3 AND SWAP2 PUSH4 0xD9EA1B22 SWAP2 PUSH2 0x1F1E SWAP2 DUP6 SWAP2 PUSH1 0x4 ADD PUSH2 0x75AF JUMP JUMPDEST PUSH1 0x20 PUSH1 0x40 MLOAD DUP1 DUP4 SUB DUP2 PUSH1 0x0 DUP8 GAS CALL ISZERO DUP1 ISZERO PUSH2 0x1F3D JUMPI RETURNDATASIZE PUSH1 0x0 DUP1 RETURNDATACOPY RETURNDATASIZE PUSH1 0x0 REVERT JUMPDEST POP POP POP POP PUSH1 0x40 MLOAD RETURNDATASIZE PUSH1 0x1F NOT PUSH1 0x1F DUP3 ADD AND DUP3 ADD DUP1 PUSH1 0x40 MSTORE POP DUP2 ADD SWAP1 PUSH2 0x1F61 SWAP2 SWAP1 PUSH2 0x75C8 JUMP JUMPDEST POP PUSH1 0x1 PUSH1 0x1 PUSH1 0xA0 SHL SUB DUP2 AND PUSH1 0x0 DUP2 DUP2 MSTORE PUSH1 0x9B PUSH1 0x20 SWAP1 DUP2 MSTORE PUSH1 0x40 SWAP2 DUP3 SWAP1 KECCAK256 SLOAD DUP3 MLOAD SWAP4 DUP5 MSTORE SWAP1 DUP4 ADD MSTORE TIMESTAMP DUP3 DUP3 ADD MSTORE PUSH1 0x80 PUSH1 0x60 DUP4 ADD DUP2 SWAP1 MSTORE PUSH1 0x8 SWAP1 DUP4 ADD MSTORE PUSH8 0x476F6F6453616C65 PUSH1 0xC0 SHL PUSH1 0xA0 DUP4 ADD MSTORE MLOAD PUSH1 0x0 DUP1 MLOAD PUSH1 0x20 PUSH2 0x787B DUP4 CODECOPY DUP2 MLOAD SWAP2 MSTORE SWAP2 DUP2 SWAP1 SUB PUSH1 0xC0 ADD SWAP1 LOG1 JUMPDEST PUSH1 0x1 PUSH1 0x1 PUSH1 0xA0 SHL SUB DUP2 AND PUSH1 0x0 SWAP1 DUP2 MSTORE PUSH1 0x9B PUSH1 0x20 SWAP1 DUP2 MSTORE PUSH1 0x40 DUP1 DUP4 KECCAK256 SLOAD PUSH1 0x98 SWAP1 SWAP3 MSTORE DUP3 KECCAK256 DUP1 SLOAD SWAP2 SWAP3 SWAP1 SWAP2 PUSH2 0x1FFB SWAP1 DUP5 SWAP1 PUSH2 0x755A JUMP JUMPDEST SWAP1 SWAP2 SSTORE POP POP PUSH1 0x1 PUSH1 0x1 PUSH1 0xA0 SHL SUB DUP2 AND PUSH1 0x0 SWAP1 DUP2 MSTORE PUSH1 0x9B PUSH1 0x20 MSTORE PUSH1 0x40 DUP2 KECCAK256 SLOAD PUSH1 0x90 DUP1 SLOAD SWAP2 SWAP3 SWAP1 SWAP2 PUSH2 0x202C SWAP1 DUP5 SWAP1 PUSH2 0x755A JUMP JUMPDEST SWAP1 SWAP2 SSTORE POP POP PUSH1 0x1 PUSH1 0x1 PUSH1 0xA0 SHL SUB DUP2 AND PUSH1 0x0 SWAP1 DUP2 MSTORE PUSH1 0x9B PUSH1 0x20 MSTORE PUSH1 0x40 DUP2 KECCAK256 SSTORE JUMPDEST PUSH1 0x1 PUSH1 0x1 PUSH1 0xA0 SHL SUB DUP2 AND PUSH1 0x0 SWAP1 DUP2 MSTORE PUSH1 0x70 PUSH1 0x20 MSTORE PUSH1 0x40 SWAP1 KECCAK256 SLOAD ISZERO PUSH2 0x2120 JUMPI PUSH1 0x0 JUMPDEST PUSH1 0x1 PUSH1 0x1 PUSH1 0xA0 SHL SUB DUP3 AND PUSH1 0x0 SWAP1 DUP2 MSTORE PUSH1 0x70 PUSH1 0x20 MSTORE PUSH1 0x40 SWAP1 KECCAK256 SLOAD DUP2 LT ISZERO PUSH2 0x211E JUMPI PUSH1 0x1 PUSH1 0x1 PUSH1 0xA0 SHL SUB DUP3 AND PUSH1 0x0 SWAP1 DUP2 MSTORE PUSH1 0x70 PUSH1 0x20 MSTORE PUSH1 0x40 SWAP1 KECCAK256 DUP1 SLOAD DUP3 SWAP1 DUP2 LT PUSH2 0x20B6 JUMPI PUSH2 0x20B6 PUSH2 0x752E JUMP JUMPDEST SWAP1 PUSH1 0x0 MSTORE PUSH1 0x20 PUSH1 0x0 KECCAK256 ADD PUSH1 0x0 SWAP1 SLOAD SWAP1 PUSH2 0x100 EXP SWAP1 DIV PUSH1 0x1 PUSH1 0x1 PUSH1 0xA0 SHL SUB AND DUP6 DUP5 DUP2 MLOAD DUP2 LT PUSH2 0x20E6 JUMPI PUSH2 0x20E6 PUSH2 0x752E JUMP JUMPDEST PUSH1 0x1 PUSH1 0x1 PUSH1 0xA0 SHL SUB SWAP1 SWAP3 AND PUSH1 0x20 SWAP3 DUP4 MUL SWAP2 SWAP1 SWAP2 ADD SWAP1 SWAP2 ADD MSTORE DUP3 PUSH2 0x2108 DUP2 PUSH2 0x756D JUMP JUMPDEST SWAP4 POP POP DUP1 DUP1 PUSH2 0x2116 SWAP1 PUSH2 0x756D JUMP JUMPDEST SWAP2 POP POP PUSH2 0x206C JUMP JUMPDEST POP JUMPDEST POP PUSH2 0x1E61 JUMP JUMPDEST PUSH2 0x212E PUSH2 0x4630 JUMP JUMPDEST PUSH1 0x69 DUP1 SLOAD PUSH1 0x1 PUSH1 0x1 PUSH1 0xA0 SHL SUB NOT AND PUSH1 0x1 PUSH1 0x1 PUSH1 0xA0 SHL SUB SWAP3 SWAP1 SWAP3 AND SWAP2 SWAP1 SWAP2 OR SWAP1 SSTORE JUMP JUMPDEST PUSH1 0x8E DUP2 DUP2 SLOAD DUP2 LT PUSH2 0x2160 JUMPI PUSH1 0x0 DUP1 REVERT JUMPDEST PUSH1 0x0 SWAP2 DUP3 MSTORE PUSH1 0x20 SWAP1 SWAP2 KECCAK256 ADD SLOAD SWAP1 POP DUP2 JUMP JUMPDEST PUSH1 0x71 PUSH1 0x20 MSTORE DUP2 PUSH1 0x0 MSTORE PUSH1 0x40 PUSH1 0x0 KECCAK256 DUP2 DUP2 SLOAD DUP2 LT PUSH2 0x218D JUMPI PUSH1 0x0 DUP1 REVERT JUMPDEST PUSH1 0x0 SWAP2 DUP3 MSTORE PUSH1 0x20 SWAP1 SWAP2 KECCAK256 ADD SLOAD PUSH1 0x1 PUSH1 0x1 PUSH1 0xA0 SHL SUB AND SWAP2 POP DUP3 SWAP1 POP JUMP JUMPDEST PUSH1 0x69 SLOAD PUSH1 0x1 PUSH1 0x1 PUSH1 0xA0 SHL SUB AND CALLER EQ PUSH2 0x21D3 JUMPI PUSH1 0x40 MLOAD PUSH3 0x461BCD PUSH1 0xE5 SHL DUP2 MSTORE PUSH1 0x4 ADD PUSH2 0x16F4 SWAP1 PUSH2 0x75EA JUMP JUMPDEST PUSH1 0x0 PUSH2 0x3E8 PUSH1 0xAD SLOAD DUP4 PUSH2 0x21E6 SWAP2 SWAP1 PUSH2 0x762B JUMP JUMPDEST PUSH2 0x21F0 SWAP2 SWAP1 PUSH2 0x7642 JUMP JUMPDEST PUSH1 0x66 SLOAD PUSH1 0x40 MLOAD PUSH4 0x6CF50D91 PUSH1 0xE1 SHL DUP2 MSTORE SWAP2 SWAP3 POP PUSH1 0x1 PUSH1 0x1 PUSH1 0xA0 SHL SUB AND SWAP1 PUSH4 0xD9EA1B22 SWAP1 PUSH2 0x2223 SWAP1 DUP7 SWAP1 DUP6 SWAP1 PUSH1 0x4 ADD PUSH2 0x75AF JUMP JUMPDEST PUSH1 0x20 PUSH1 0x40 MLOAD DUP1 DUP4 SUB DUP2 PUSH1 0x0 DUP8 GAS CALL ISZERO DUP1 ISZERO PUSH2 0x2242 JUMPI RETURNDATASIZE PUSH1 0x0 DUP1 RETURNDATACOPY RETURNDATASIZE PUSH1 0x0 REVERT JUMPDEST POP POP POP POP PUSH1 0x40 MLOAD RETURNDATASIZE PUSH1 0x1F NOT PUSH1 0x1F DUP3 ADD AND DUP3 ADD DUP1 PUSH1 0x40 MSTORE POP DUP2 ADD SWAP1 PUSH2 0x2266 SWAP2 SWAP1 PUSH2 0x75C8 JUMP JUMPDEST POP PUSH1 0x0 DUP1 MLOAD PUSH1 0x20 PUSH2 0x787B DUP4 CODECOPY DUP2 MLOAD SWAP2 MSTORE DUP4 DUP3 TIMESTAMP PUSH1 0x40 MLOAD PUSH2 0x2288 SWAP4 SWAP3 SWAP2 SWAP1 PUSH2 0x7664 JUMP JUMPDEST PUSH1 0x40 MLOAD DUP1 SWAP2 SUB SWAP1 LOG1 PUSH1 0x0 DUP1 JUMPDEST PUSH1 0x8E SLOAD DUP2 LT ISZERO PUSH2 0x22F0 JUMPI PUSH1 0x82 SLOAD PUSH1 0x8E DUP3 DUP2 SLOAD DUP2 LT PUSH2 0x22B4 JUMPI PUSH2 0x22B4 PUSH2 0x752E JUMP JUMPDEST SWAP1 PUSH1 0x0 MSTORE PUSH1 0x20 PUSH1 0x0 KECCAK256 ADD SLOAD PUSH2 0x22C9 SWAP2 SWAP1 PUSH2 0x762B JUMP JUMPDEST DUP4 LT PUSH2 0x22F0 JUMPI PUSH1 0x9F SLOAD PUSH2 0x22DC SWAP1 DUP4 PUSH2 0x755A JUMP JUMPDEST SWAP2 POP DUP1 PUSH2 0x22E8 DUP2 PUSH2 0x756D JUMP JUMPDEST SWAP2 POP POP PUSH2 0x2294 JUMP JUMPDEST POP PUSH2 0x3E8 PUSH2 0x22FE DUP3 DUP6 PUSH2 0x762B JUMP JUMPDEST PUSH2 0x2308 SWAP2 SWAP1 PUSH2 0x7642 JUMP JUMPDEST PUSH1 0x1 PUSH1 0x1 PUSH1 0xA0 SHL SUB DUP6 AND PUSH1 0x0 SWAP1 DUP2 MSTORE PUSH1 0x9B PUSH1 0x20 MSTORE PUSH1 0x40 DUP2 KECCAK256 DUP1 SLOAD SWAP1 SWAP2 SWAP1 PUSH2 0x2330 SWAP1 DUP5 SWAP1 PUSH2 0x755A JUMP JUMPDEST SWAP1 SWAP2 SSTORE POP POP POP POP POP POP JUMP JUMPDEST PUSH1 0x0 DUP2 PUSH2 0x238A JUMPI PUSH1 0x40 MLOAD PUSH3 0x461BCD PUSH1 0xE5 SHL DUP2 MSTORE PUSH1 0x20 PUSH1 0x4 DUP3 ADD MSTORE PUSH1 0x1E PUSH1 0x24 DUP3 ADD MSTORE PUSH32 0x4B76656E747572653A20496E76616C69642050686F6E65204E756D6265720000 PUSH1 0x44 DUP3 ADD MSTORE PUSH1 0x64 ADD PUSH2 0x16F4 JUMP JUMPDEST CALLER PUSH1 0x0 SWAP1 DUP2 MSTORE PUSH1 0x6F PUSH1 0x20 MSTORE PUSH1 0x40 SWAP1 KECCAK256 SLOAD PUSH2 0x23DA JUMPI PUSH1 0x40 MLOAD PUSH3 0x461BCD PUSH1 0xE5 SHL DUP2 MSTORE PUSH1 0x20 PUSH1 0x4 DUP3 ADD MSTORE PUSH1 0x11 PUSH1 0x24 DUP3 ADD MSTORE PUSH17 0x25BB32B73A3AB9329D102737BA1029BAB1 PUSH1 0x79 SHL PUSH1 0x44 DUP3 ADD MSTORE PUSH1 0x64 ADD PUSH2 0x16F4 JUMP JUMPDEST POP CALLER PUSH1 0x0 SWAP1 DUP2 MSTORE PUSH1 0x6F PUSH1 0x20 SWAP1 DUP2 MSTORE PUSH1 0x40 DUP1 DUP4 KECCAK256 PUSH1 0x1 SWAP1 DUP2 ADD DUP6 SWAP1 SSTORE PUSH1 0x78 SWAP1 SWAP3 MSTORE SWAP1 SWAP2 KECCAK256 SWAP2 SWAP1 SWAP2 SSTORE SWAP1 JUMP JUMPDEST PUSH1 0x70 PUSH1 0x20 MSTORE DUP2 PUSH1 0x0 MSTORE PUSH1 0x40 PUSH1 0x0 KECCAK256 DUP2 DUP2 SLOAD DUP2 LT PUSH2 0x218D JUMPI PUSH1 0x0 DUP1 REVERT JUMPDEST PUSH2 0x2428 PUSH2 0x4630 JUMP JUMPDEST PUSH1 0x1 PUSH1 0x1 PUSH1 0xA0 SHL SUB AND PUSH1 0x0 SWAP1 DUP2 MSTORE PUSH1 0xA0 PUSH1 0x20 MSTORE PUSH1 0x40 SWAP1 KECCAK256 DUP1 SLOAD PUSH1 0xFF NOT AND PUSH1 0x1 OR SWAP1 SSTORE JUMP JUMPDEST PUSH1 0x60 PUSH1 0x0 PUSH2 0x2459 DUP4 PUSH2 0x37BF JUMP JUMPDEST SWAP1 POP PUSH1 0x0 PUSH2 0x2466 DUP5 PUSH2 0x290B JUMP JUMPDEST SWAP1 POP PUSH1 0x0 DUP3 PUSH1 0x1 PUSH1 0x1 PUSH1 0x40 SHL SUB DUP2 GT ISZERO PUSH2 0x2482 JUMPI PUSH2 0x2482 PUSH2 0x7599 JUMP JUMPDEST PUSH1 0x40 MLOAD SWAP1 DUP1 DUP3 MSTORE DUP1 PUSH1 0x20 MUL PUSH1 0x20 ADD DUP3 ADD PUSH1 0x40 MSTORE DUP1 ISZERO PUSH2 0x24BB JUMPI DUP2 PUSH1 0x20 ADD JUMPDEST PUSH2 0x24A8 PUSH2 0x6F2D JUMP JUMPDEST DUP2 MSTORE PUSH1 0x20 ADD SWAP1 PUSH1 0x1 SWAP1 SUB SWAP1 DUP2 PUSH2 0x24A0 JUMPI SWAP1 POP JUMPDEST POP SWAP1 POP PUSH1 0x0 JUMPDEST DUP4 DUP2 LT ISZERO PUSH2 0x2521 JUMPI PUSH1 0x0 PUSH2 0x24ED DUP5 DUP4 DUP2 MLOAD DUP2 LT PUSH2 0x24E0 JUMPI PUSH2 0x24E0 PUSH2 0x752E JUMP JUMPDEST PUSH1 0x20 MUL PUSH1 0x20 ADD ADD MLOAD PUSH2 0x1990 JUMP JUMPDEST SWAP1 POP DUP1 DUP4 DUP4 DUP2 MLOAD DUP2 LT PUSH2 0x2502 JUMPI PUSH2 0x2502 PUSH2 0x752E JUMP JUMPDEST PUSH1 0x20 MUL PUSH1 0x20 ADD ADD DUP2 SWAP1 MSTORE POP POP DUP1 DUP1 PUSH2 0x2519 SWAP1 PUSH2 0x756D JUMP JUMPDEST SWAP2 POP POP PUSH2 0x24C1 JUMP JUMPDEST POP SWAP5 SWAP4 POP POP POP POP JUMP JUMPDEST PUSH1 0x40 DUP1 MLOAD DUP1 DUP3 ADD SWAP1 SWAP2 MSTORE PUSH1 0x0 DUP1 DUP3 MSTORE PUSH1 0x20 DUP3 ADD MSTORE CALLER PUSH1 0x0 SWAP1 DUP2 MSTORE PUSH1 0x77 PUSH1 0x20 MSTORE PUSH1 0x40 SWAP1 KECCAK256 SLOAD PUSH1 0xFF AND ISZERO ISZERO PUSH1 0x1 EQ PUSH2 0x25A2 JUMPI PUSH1 0x40 MLOAD PUSH3 0x461BCD PUSH1 0xE5 SHL DUP2 MSTORE PUSH1 0x20 PUSH1 0x4 DUP3 ADD MSTORE PUSH1 0x1F PUSH1 0x24 DUP3 ADD MSTORE PUSH32 0x4D6574614E6F64653A20506C6561736520537562637269626520466972737400 PUSH1 0x44 DUP3 ADD MSTORE PUSH1 0x64 ADD PUSH2 0x16F4 JUMP JUMPDEST POP CALLER PUSH1 0x0 SWAP1 DUP2 MSTORE PUSH1 0x6F PUSH1 0x20 SWAP1 DUP2 MSTORE PUSH1 0x40 SWAP2 DUP3 SWAP1 KECCAK256 DUP3 MLOAD DUP1 DUP5 ADD SWAP1 SWAP4 MSTORE DUP1 SLOAD DUP4 MSTORE PUSH1 0x1 ADD SLOAD SWAP1 DUP3 ADD MSTORE SWAP1 JUMP JUMPDEST PUSH1 0x0 DUP1 PUSH2 0x25D9 DUP5 PUSH2 0x2F90 JUMP JUMPDEST SWAP1 POP PUSH1 0x0 DUP1 DUP3 PUSH1 0x1 PUSH1 0x1 PUSH1 0x40 SHL SUB DUP2 GT ISZERO PUSH2 0x25F6 JUMPI PUSH2 0x25F6 PUSH2 0x7599 JUMP JUMPDEST PUSH1 0x40 MLOAD SWAP1 DUP1 DUP3 MSTORE DUP1 PUSH1 0x20 MUL PUSH1 0x20 ADD DUP3 ADD PUSH1 0x40 MSTORE DUP1 ISZERO PUSH2 0x261F JUMPI DUP2 PUSH1 0x20 ADD PUSH1 0x20 DUP3 MUL DUP1 CALLDATASIZE DUP4 CALLDATACOPY ADD SWAP1 POP JUMPDEST POP SWAP1 POP PUSH1 0x0 DUP1 PUSH1 0x0 JUMPDEST PUSH1 0x1 PUSH1 0x1 PUSH1 0xA0 SHL SUB DUP10 AND PUSH1 0x0 SWAP1 DUP2 MSTORE PUSH1 0x70 PUSH1 0x20 MSTORE PUSH1 0x40 SWAP1 KECCAK256 SLOAD DUP2 LT ISZERO PUSH2 0x275B JUMPI PUSH1 0x1 PUSH1 0x1 PUSH1 0xA0 SHL SUB DUP10 AND PUSH1 0x0 SWAP1 DUP2 MSTORE PUSH1 0x70 PUSH1 0x20 MSTORE PUSH1 0x40 SWAP1 KECCAK256 DUP1 SLOAD DUP3 SWAP1 DUP2 LT PUSH2 0x2672 JUMPI PUSH2 0x2672 PUSH2 0x752E JUMP JUMPDEST SWAP1 PUSH1 0x0 MSTORE PUSH1 0x20 PUSH1 0x0 KECCAK256 ADD PUSH1 0x0 SWAP1 SLOAD SWAP1 PUSH2 0x100 EXP SWAP1 DIV PUSH1 0x1 PUSH1 0x1 PUSH1 0xA0 SHL SUB AND DUP5 DUP4 DUP2 MLOAD DUP2 LT PUSH2 0x26A2 JUMPI PUSH2 0x26A2 PUSH2 0x752E JUMP JUMPDEST PUSH1 0x20 MUL PUSH1 0x20 ADD ADD SWAP1 PUSH1 0x1 PUSH1 0x1 PUSH1 0xA0 SHL SUB AND SWAP1 DUP2 PUSH1 0x1 PUSH1 0x1 PUSH1 0xA0 SHL SUB AND DUP2 MSTORE POP POP DUP8 PUSH1 0xFF AND PUSH1 0x6D PUSH1 0x0 PUSH1 0x70 PUSH1 0x0 DUP14 PUSH1 0x1 PUSH1 0x1 PUSH1 0xA0 SHL SUB AND PUSH1 0x1 PUSH1 0x1 PUSH1 0xA0 SHL SUB AND DUP2 MSTORE PUSH1 0x20 ADD SWAP1 DUP2 MSTORE PUSH1 0x20 ADD PUSH1 0x0 KECCAK256 DUP5 DUP2 SLOAD DUP2 LT PUSH2 0x2700 JUMPI PUSH2 0x2700 PUSH2 0x752E JUMP JUMPDEST PUSH1 0x0 SWAP2 DUP3 MSTORE PUSH1 0x20 DUP1 DUP4 KECCAK256 SWAP1 SWAP2 ADD SLOAD PUSH1 0x1 PUSH1 0x1 PUSH1 0xA0 SHL SUB AND DUP4 MSTORE DUP3 ADD SWAP3 SWAP1 SWAP3 MSTORE PUSH1 0x40 ADD SWAP1 KECCAK256 SLOAD PUSH1 0xFF AND LT PUSH2 0x273B JUMPI DUP5 PUSH2 0x2737 DUP2 PUSH2 0x756D JUMP JUMPDEST SWAP6 POP POP JUMPDEST DUP2 PUSH2 0x2745 DUP2 PUSH2 0x756D JUMP JUMPDEST SWAP3 POP POP DUP1 DUP1 PUSH2 0x2753 SWAP1 PUSH2 0x756D JUMP JUMPDEST SWAP2 POP POP PUSH2 0x2628 JUMP JUMPDEST POP JUMPDEST DUP1 DUP3 LT ISZERO PUSH2 0x28EF JUMPI PUSH1 0x0 DUP4 DUP4 DUP2 MLOAD DUP2 LT PUSH2 0x2779 JUMPI PUSH2 0x2779 PUSH2 0x752E JUMP JUMPDEST PUSH1 0x20 MUL PUSH1 0x20 ADD ADD MLOAD SWAP1 POP DUP3 DUP1 PUSH2 0x278E SWAP1 PUSH2 0x756D JUMP JUMPDEST PUSH1 0x1 PUSH1 0x1 PUSH1 0xA0 SHL SUB DUP4 AND PUSH1 0x0 SWAP1 DUP2 MSTORE PUSH1 0x70 PUSH1 0x20 MSTORE PUSH1 0x40 SWAP1 KECCAK256 SLOAD SWAP1 SWAP5 POP ISZERO SWAP1 POP PUSH2 0x28E9 JUMPI PUSH1 0x0 JUMPDEST PUSH1 0x1 PUSH1 0x1 PUSH1 0xA0 SHL SUB DUP3 AND PUSH1 0x0 SWAP1 DUP2 MSTORE PUSH1 0x70 PUSH1 0x20 MSTORE PUSH1 0x40 SWAP1 KECCAK256 SLOAD DUP2 LT ISZERO PUSH2 0x28E7 JUMPI PUSH1 0x1 PUSH1 0x1 PUSH1 0xA0 SHL SUB DUP3 AND PUSH1 0x0 SWAP1 DUP2 MSTORE PUSH1 0x70 PUSH1 0x20 MSTORE PUSH1 0x40 SWAP1 KECCAK256 DUP1 SLOAD DUP3 SWAP1 DUP2 LT PUSH2 0x27FE JUMPI PUSH2 0x27FE PUSH2 0x752E JUMP JUMPDEST SWAP1 PUSH1 0x0 MSTORE PUSH1 0x20 PUSH1 0x0 KECCAK256 ADD PUSH1 0x0 SWAP1 SLOAD SWAP1 PUSH2 0x100 EXP SWAP1 DIV PUSH1 0x1 PUSH1 0x1 PUSH1 0xA0 SHL SUB AND DUP6 DUP5 DUP2 MLOAD DUP2 LT PUSH2 0x282E JUMPI PUSH2 0x282E PUSH2 0x752E JUMP JUMPDEST PUSH1 0x20 MUL PUSH1 0x20 ADD ADD SWAP1 PUSH1 0x1 PUSH1 0x1 PUSH1 0xA0 SHL SUB AND SWAP1 DUP2 PUSH1 0x1 PUSH1 0x1 PUSH1 0xA0 SHL SUB AND DUP2 MSTORE POP POP DUP9 PUSH1 0xFF AND PUSH1 0x6D PUSH1 0x0 PUSH1 0x70 PUSH1 0x0 DUP7 PUSH1 0x1 PUSH1 0x1 PUSH1 0xA0 SHL SUB AND PUSH1 0x1 PUSH1 0x1 PUSH1 0xA0 SHL SUB AND DUP2 MSTORE PUSH1 0x20 ADD SWAP1 DUP2 MSTORE PUSH1 0x20 ADD PUSH1 0x0 KECCAK256 DUP5 DUP2 SLOAD DUP2 LT PUSH2 0x288C JUMPI PUSH2 0x288C PUSH2 0x752E JUMP JUMPDEST PUSH1 0x0 SWAP2 DUP3 MSTORE PUSH1 0x20 DUP1 DUP4 KECCAK256 SWAP1 SWAP2 ADD SLOAD PUSH1 0x1 PUSH1 0x1 PUSH1 0xA0 SHL SUB AND DUP4 MSTORE DUP3 ADD SWAP3 SWAP1 SWAP3 MSTORE PUSH1 0x40 ADD SWAP1 KECCAK256 SLOAD PUSH1 0xFF AND LT PUSH2 0x28C7 JUMPI DUP6 PUSH2 0x28C3 DUP2 PUSH2 0x756D JUMP JUMPDEST SWAP7 POP POP JUMPDEST DUP3 PUSH2 0x28D1 DUP2 PUSH2 0x756D JUMP JUMPDEST SWAP4 POP POP DUP1 DUP1 PUSH2 0x28DF SWAP1 PUSH2 0x756D JUMP JUMPDEST SWAP2 POP POP PUSH2 0x27B4 JUMP JUMPDEST POP JUMPDEST POP PUSH2 0x275D JUMP JUMPDEST POP SWAP2 SWAP7 SWAP6 POP POP POP POP POP POP JUMP JUMPDEST PUSH1 0x7D DUP2 DUP2 SLOAD DUP2 LT PUSH2 0x2160 JUMPI PUSH1 0x0 DUP1 REVERT JUMPDEST PUSH1 0x60 PUSH1 0x0 PUSH2 0x2918 DUP4 PUSH2 0x37BF JUMP JUMPDEST SWAP1 POP PUSH1 0x0 DUP2 PUSH1 0x1 PUSH1 0x1 PUSH1 0x40 SHL SUB DUP2 GT ISZERO PUSH2 0x2934 JUMPI PUSH2 0x2934 PUSH2 0x7599 JUMP JUMPDEST PUSH1 0x40 MLOAD SWAP1 DUP1 DUP3 MSTORE DUP1 PUSH1 0x20 MUL PUSH1 0x20 ADD DUP3 ADD PUSH1 0x40 MSTORE DUP1 ISZERO PUSH2 0x295D JUMPI DUP2 PUSH1 0x20 ADD PUSH1 0x20 DUP3 MUL DUP1 CALLDATASIZE DUP4 CALLDATACOPY ADD SWAP1 POP JUMPDEST POP SWAP1 POP PUSH1 0x0 DUP1 PUSH1 0x0 JUMPDEST PUSH1 0x1 PUSH1 0x1 PUSH1 0xA0 SHL SUB DUP8 AND PUSH1 0x0 SWAP1 DUP2 MSTORE PUSH1 0x71 PUSH1 0x20 MSTORE PUSH1 0x40 SWAP1 KECCAK256 SLOAD DUP2 LT ISZERO PUSH2 0x2A18 JUMPI PUSH1 0x1 PUSH1 0x1 PUSH1 0xA0 SHL SUB DUP8 AND PUSH1 0x0 SWAP1 DUP2 MSTORE PUSH1 0x71 PUSH1 0x20 MSTORE PUSH1 0x40 SWAP1 KECCAK256 DUP1 SLOAD DUP3 SWAP1 DUP2 LT PUSH2 0x29B0 JUMPI PUSH2 0x29B0 PUSH2 0x752E JUMP JUMPDEST SWAP1 PUSH1 0x0 MSTORE PUSH1 0x20 PUSH1 0x0 KECCAK256 ADD PUSH1 0x0 SWAP1 SLOAD SWAP1 PUSH2 0x100 EXP SWAP1 DIV PUSH1 0x1 PUSH1 0x1 PUSH1 0xA0 SHL SUB AND DUP5 DUP4 DUP2 MLOAD DUP2 LT PUSH2 0x29E0 JUMPI PUSH2 0x29E0 PUSH2 0x752E JUMP JUMPDEST PUSH1 0x1 PUSH1 0x1 PUSH1 0xA0 SHL SUB SWAP1 SWAP3 AND PUSH1 0x20 SWAP3 DUP4 MUL SWAP2 SWAP1 SWAP2 ADD SWAP1 SWAP2 ADD MSTORE DUP2 PUSH2 0x2A02 DUP2 PUSH2 0x756D JUMP JUMPDEST SWAP3 POP POP DUP1 DUP1 PUSH2 0x2A10 SWAP1 PUSH2 0x756D JUMP JUMPDEST SWAP2 POP POP PUSH2 0x2966 JUMP JUMPDEST POP JUMPDEST DUP1 DUP3 LT ISZERO PUSH2 0x2B2B JUMPI PUSH1 0x0 DUP4 DUP4 DUP2 MLOAD DUP2 LT PUSH2 0x2A36 JUMPI PUSH2 0x2A36 PUSH2 0x752E JUMP JUMPDEST PUSH1 0x20 MUL PUSH1 0x20 ADD ADD MLOAD SWAP1 POP DUP3 DUP1 PUSH2 0x2A4B SWAP1 PUSH2 0x756D JUMP JUMPDEST PUSH1 0x1 PUSH1 0x1 PUSH1 0xA0 SHL SUB DUP4 AND PUSH1 0x0 SWAP1 DUP2 MSTORE PUSH1 0x71 PUSH1 0x20 MSTORE PUSH1 0x40 SWAP1 KECCAK256 SLOAD SWAP1 SWAP5 POP ISZERO SWAP1 POP PUSH2 0x2B25 JUMPI PUSH1 0x0 JUMPDEST PUSH1 0x1 PUSH1 0x1 PUSH1 0xA0 SHL SUB DUP3 AND PUSH1 0x0 SWAP1 DUP2 MSTORE PUSH1 0x71 PUSH1 0x20 MSTORE PUSH1 0x40 SWAP1 KECCAK256 SLOAD DUP2 LT ISZERO PUSH2 0x2B23 JUMPI PUSH1 0x1 PUSH1 0x1 PUSH1 0xA0 SHL SUB DUP3 AND PUSH1 0x0 SWAP1 DUP2 MSTORE PUSH1 0x71 PUSH1 0x20 MSTORE PUSH1 0x40 SWAP1 KECCAK256 DUP1 SLOAD DUP3 SWAP1 DUP2 LT PUSH2 0x2ABB JUMPI PUSH2 0x2ABB PUSH2 0x752E JUMP JUMPDEST SWAP1 PUSH1 0x0 MSTORE PUSH1 0x20 PUSH1 0x0 KECCAK256 ADD PUSH1 0x0 SWAP1 SLOAD SWAP1 PUSH2 0x100 EXP SWAP1 DIV PUSH1 0x1 PUSH1 0x1 PUSH1 0xA0 SHL SUB AND DUP6 DUP5 DUP2 MLOAD DUP2 LT PUSH2 0x2AEB JUMPI PUSH2 0x2AEB PUSH2 0x752E JUMP JUMPDEST PUSH1 0x1 PUSH1 0x1 PUSH1 0xA0 SHL SUB SWAP1 SWAP3 AND PUSH1 0x20 SWAP3 DUP4 MUL SWAP2 SWAP1 SWAP2 ADD SWAP1 SWAP2 ADD MSTORE DUP3 PUSH2 0x2B0D DUP2 PUSH2 0x756D JUMP JUMPDEST SWAP4 POP POP DUP1 DUP1 PUSH2 0x2B1B SWAP1 PUSH2 0x756D JUMP JUMPDEST SWAP2 POP POP PUSH2 0x2A71 JUMP JUMPDEST POP JUMPDEST POP PUSH2 0x2A1A JUMP JUMPDEST POP SWAP1 SWAP5 SWAP4 POP POP POP POP JUMP JUMPDEST PUSH1 0x1 PUSH1 0x1 PUSH1 0xA0 SHL SUB DUP2 AND PUSH1 0x0 SWAP1 DUP2 MSTORE PUSH1 0x74 PUSH1 0x20 MSTORE PUSH1 0x40 DUP2 KECCAK256 SLOAD PUSH1 0xFF AND ISZERO ISZERO PUSH1 0x1 EQ PUSH2 0x2BAD JUMPI PUSH1 0x40 MLOAD PUSH3 0x461BCD PUSH1 0xE5 SHL DUP2 MSTORE PUSH1 0x20 PUSH1 0x4 DUP3 ADD MSTORE PUSH1 0x22 PUSH1 0x24 DUP3 ADD MSTORE PUSH32 0x746869732061646472657373206973206E6F742061637469766520616E796D6F PUSH1 0x44 DUP3 ADD MSTORE PUSH2 0x7265 PUSH1 0xF0 SHL PUSH1 0x64 DUP3 ADD MSTORE PUSH1 0x84 ADD PUSH2 0x16F4 JUMP JUMPDEST PUSH1 0x1 DUP4 LT ISZERO DUP1 ISZERO PUSH2 0x2BBF JUMPI POP PUSH1 0x24 DUP4 GT ISZERO JUMPDEST PUSH2 0x2C0B JUMPI PUSH1 0x40 MLOAD PUSH3 0x461BCD PUSH1 0xE5 SHL DUP2 MSTORE PUSH1 0x20 PUSH1 0x4 DUP3 ADD MSTORE PUSH1 0x17 PUSH1 0x24 DUP3 ADD MSTORE PUSH32 0x696E76616C6964206E756D626572206F66206D6F6E7468000000000000000000 PUSH1 0x44 DUP3 ADD MSTORE PUSH1 0x64 ADD PUSH2 0x16F4 JUMP JUMPDEST PUSH1 0x1 PUSH1 0x1 PUSH1 0xA0 SHL SUB DUP3 AND PUSH1 0x0 SWAP1 DUP2 MSTORE PUSH1 0x77 PUSH1 0x20 MSTORE PUSH1 0x40 SWAP1 KECCAK256 SLOAD PUSH1 0xFF AND ISZERO ISZERO PUSH1 0x1 EQ PUSH2 0x2C71 JUMPI PUSH1 0x40 MLOAD PUSH3 0x461BCD PUSH1 0xE5 SHL DUP2 MSTORE PUSH1 0x20 PUSH1 0x4 DUP3 ADD MSTORE PUSH1 0x16 PUSH1 0x24 DUP3 ADD MSTORE PUSH22 0x13995959081D1BC81C9959DA5CDD195C88199A5C9CDD PUSH1 0x52 SHL PUSH1 0x44 DUP3 ADD MSTORE PUSH1 0x64 ADD PUSH2 0x16F4 JUMP JUMPDEST PUSH1 0x84 SLOAD PUSH1 0x65 SLOAD PUSH1 0x40 MLOAD PUSH4 0x70A08231 PUSH1 0xE0 SHL DUP2 MSTORE CALLER PUSH1 0x4 DUP3 ADD MSTORE PUSH1 0x1 PUSH1 0x1 PUSH1 0xA0 SHL SUB SWAP1 SWAP2 AND SWAP1 PUSH4 0x70A08231 SWAP1 PUSH1 0x24 ADD PUSH1 0x20 PUSH1 0x40 MLOAD DUP1 DUP4 SUB DUP2 DUP7 GAS STATICCALL ISZERO DUP1 ISZERO PUSH2 0x2CBC JUMPI RETURNDATASIZE PUSH1 0x0 DUP1 RETURNDATACOPY RETURNDATASIZE PUSH1 0x0 REVERT JUMPDEST POP POP POP POP PUSH1 0x40 MLOAD RETURNDATASIZE PUSH1 0x1F NOT PUSH1 0x1F DUP3 ADD AND DUP3 ADD DUP1 PUSH1 0x40 MSTORE POP DUP2 ADD SWAP1 PUSH2 0x2CE0 SWAP2 SWAP1 PUSH2 0x76A1 JUMP JUMPDEST LT ISZERO PUSH2 0x2D20 JUMPI PUSH1 0x40 MLOAD PUSH3 0x461BCD PUSH1 0xE5 SHL DUP2 MSTORE PUSH1 0x20 PUSH1 0x4 DUP3 ADD MSTORE PUSH1 0xF PUSH1 0x24 DUP3 ADD MSTORE PUSH15 0x496E76616C69642042616C616E6365 PUSH1 0x88 SHL PUSH1 0x44 DUP3 ADD MSTORE PUSH1 0x64 ADD PUSH2 0x16F4 JUMP JUMPDEST PUSH1 0x0 DUP4 PUSH1 0x84 SLOAD PUSH2 0x2D30 SWAP2 SWAP1 PUSH2 0x762B JUMP JUMPDEST PUSH1 0x65 SLOAD PUSH1 0x66 SLOAD PUSH1 0x40 MLOAD PUSH4 0x23B872DD PUSH1 0xE0 SHL DUP2 MSTORE CALLER PUSH1 0x4 DUP3 ADD MSTORE PUSH1 0x1 PUSH1 0x1 PUSH1 0xA0 SHL SUB SWAP2 DUP3 AND PUSH1 0x24 DUP3 ADD MSTORE PUSH1 0x44 DUP2 ADD DUP5 SWAP1 MSTORE SWAP3 SWAP4 POP AND SWAP1 PUSH4 0x23B872DD SWAP1 PUSH1 0x64 ADD PUSH1 0x20 PUSH1 0x40 MLOAD DUP1 DUP4 SUB DUP2 PUSH1 0x0 DUP8 GAS CALL ISZERO DUP1 ISZERO PUSH2 0x2D8D JUMPI RETURNDATASIZE PUSH1 0x0 DUP1 RETURNDATACOPY RETURNDATASIZE PUSH1 0x0 REVERT JUMPDEST POP POP POP POP PUSH1 0x40 MLOAD RETURNDATASIZE PUSH1 0x1F NOT PUSH1 0x1F DUP3 ADD AND DUP3 ADD DUP1 PUSH1 0x40 MSTORE POP DUP2 ADD SWAP1 PUSH2 0x2DB1 SWAP2 SWAP1 PUSH2 0x75C8 JUMP JUMPDEST POP PUSH2 0x2DBC DUP4 DUP3 PUSH2 0x470D JUMP JUMPDEST DUP4 PUSH1 0xA7 SLOAD PUSH2 0x2DCA SWAP2 SWAP1 PUSH2 0x762B JUMP JUMPDEST PUSH1 0x1 PUSH1 0x1 PUSH1 0xA0 SHL SUB DUP5 AND PUSH1 0x0 SWAP1 DUP2 MSTORE PUSH1 0x76 PUSH1 0x20 MSTORE PUSH1 0x40 SWAP1 KECCAK256 SLOAD PUSH2 0x2DED SWAP2 SWAP1 PUSH2 0x755A JUMP JUMPDEST PUSH1 0x1 PUSH1 0x1 PUSH1 0xA0 SHL SUB DUP5 AND PUSH1 0x0 SWAP1 DUP2 MSTORE PUSH1 0x76 PUSH1 0x20 MSTORE PUSH1 0x40 SWAP1 KECCAK256 SSTORE PUSH2 0x2E0F DUP2 PUSH2 0x4B2B JUMP JUMPDEST PUSH2 0x2E18 DUP2 PUSH2 0x4F02 JUMP JUMPDEST POP PUSH1 0x1 SWAP4 SWAP3 POP POP POP JUMP JUMPDEST PUSH2 0x2E2A PUSH2 0x4630 JUMP JUMPDEST PUSH2 0x2E34 PUSH1 0x0 PUSH2 0x52E4 JUMP JUMPDEST JUMP JUMPDEST PUSH1 0x69 SLOAD PUSH1 0x1 PUSH1 0x1 PUSH1 0xA0 SHL SUB AND CALLER EQ PUSH2 0x2E60 JUMPI PUSH1 0x40 MLOAD PUSH3 0x461BCD PUSH1 0xE5 SHL DUP2 MSTORE PUSH1 0x4 ADD PUSH2 0x16F4 SWAP1 PUSH2 0x75EA JUMP JUMPDEST PUSH1 0x1 PUSH1 0x1 PUSH1 0xA0 SHL SUB DUP4 AND PUSH1 0x0 SWAP1 DUP2 MSTORE PUSH1 0x9C PUSH1 0x20 MSTORE PUSH1 0x40 DUP2 KECCAK256 DUP1 SLOAD DUP5 SWAP3 SWAP1 PUSH2 0x2E88 SWAP1 DUP5 SWAP1 PUSH2 0x755A JUMP JUMPDEST SWAP1 SWAP2 SSTORE POP POP PUSH1 0x66 SLOAD PUSH1 0xAB SLOAD PUSH1 0xAC SLOAD PUSH1 0x1 PUSH1 0x1 PUSH1 0xA0 SHL SUB SWAP3 DUP4 AND SWAP3 PUSH4 0xD9EA1B22 SWAP3 AND SWAP1 PUSH2 0x3E8 SWAP1 PUSH2 0x2EB8 SWAP1 DUP8 PUSH2 0x762B JUMP JUMPDEST PUSH2 0x2EC2 SWAP2 SWAP1 PUSH2 0x7642 JUMP JUMPDEST PUSH1 0x40 MLOAD DUP4 PUSH4 0xFFFFFFFF AND PUSH1 0xE0 SHL DUP2 MSTORE PUSH1 0x4 ADD PUSH2 0x2EDF SWAP3 SWAP2 SWAP1 PUSH2 0x75AF JUMP JUMPDEST PUSH1 0x20 PUSH1 0x40 MLOAD DUP1 DUP4 SUB DUP2 PUSH1 0x0 DUP8 GAS CALL ISZERO DUP1 ISZERO PUSH2 0x2EFE JUMPI RETURNDATASIZE PUSH1 0x0 DUP1 RETURNDATACOPY RETURNDATASIZE PUSH1 0x0 REVERT JUMPDEST POP POP POP POP PUSH1 0x40 MLOAD RETURNDATASIZE PUSH1 0x1F NOT PUSH1 0x1F DUP3 ADD AND DUP3 ADD DUP1 PUSH1 0x40 MSTORE POP DUP2 ADD SWAP1 PUSH2 0x2F22 SWAP2 SWAP1 PUSH2 0x75C8 JUMP JUMPDEST POP PUSH2 0x2F46 PUSH2 0x3E8 PUSH1 0xAA SLOAD DUP5 PUSH2 0x2F37 SWAP2 SWAP1 PUSH2 0x762B JUMP JUMPDEST PUSH2 0x2F41 SWAP2 SWAP1 PUSH2 0x7642 JUMP JUMPDEST PUSH2 0x5336 JUMP JUMPDEST POP PUSH2 0x2F51 DUP4 DUP3 PUSH2 0x53F4 JUMP JUMPDEST DUP2 PUSH1 0x93 PUSH1 0x0 DUP3 DUP3 SLOAD PUSH2 0x2F63 SWAP2 SWAP1 PUSH2 0x755A JUMP JUMPDEST SWAP1 SWAP2 SSTORE POP PUSH2 0x2F72 SWAP1 POP DUP3 PUSH2 0x4B2B JUMP JUMPDEST PUSH2 0x2F7B DUP3 PUSH2 0x4F02 JUMP JUMPDEST POP POP POP JUMP JUMPDEST PUSH1 0x7B DUP2 DUP2 SLOAD DUP2 LT PUSH2 0x2160 JUMPI PUSH1 0x0 DUP1 REVERT JUMPDEST PUSH1 0x1 PUSH1 0x1 PUSH1 0xA0 SHL SUB DUP2 AND PUSH1 0x0 SWAP1 DUP2 MSTORE PUSH1 0x70 PUSH1 0x20 MSTORE PUSH1 0x40 DUP2 KECCAK256 SLOAD DUP2 SWAP1 PUSH2 0x2FB5 SWAP1 DUP3 PUSH2 0x755A JUMP JUMPDEST SWAP1 POP PUSH1 0x0 JUMPDEST PUSH1 0x1 PUSH1 0x1 PUSH1 0xA0 SHL SUB DUP5 AND PUSH1 0x0 SWAP1 DUP2 MSTORE PUSH1 0x70 PUSH1 0x20 MSTORE PUSH1 0x40 SWAP1 KECCAK256 SLOAD DUP2 LT ISZERO PUSH2 0xFB7 JUMPI PUSH1 0x1 PUSH1 0x1 PUSH1 0xA0 SHL SUB DUP5 AND PUSH1 0x0 SWAP1 DUP2 MSTORE PUSH1 0x70 PUSH1 0x20 MSTORE PUSH1 0x40 SWAP1 KECCAK256 DUP1 SLOAD PUSH2 0x3023 SWAP2 SWAP1 DUP4 SWAP1 DUP2 LT PUSH2 0x3009 JUMPI PUSH2 0x3009 PUSH2 0x752E JUMP JUMPDEST PUSH1 0x0 SWAP2 DUP3 MSTORE PUSH1 0x20 SWAP1 SWAP2 KECCAK256 ADD SLOAD PUSH1 0x1 PUSH1 0x1 PUSH1 0xA0 SHL SUB AND PUSH2 0x2F90 JUMP JUMPDEST PUSH2 0x302D SWAP1 DUP4 PUSH2 0x755A JUMP JUMPDEST SWAP2 POP DUP1 PUSH2 0x3039 DUP2 PUSH2 0x756D JUMP JUMPDEST SWAP2 POP POP PUSH2 0x2FBA JUMP JUMPDEST PUSH1 0x0 SLOAD PUSH2 0x100 SWAP1 DIV PUSH1 0xFF AND ISZERO DUP1 DUP1 ISZERO PUSH2 0x3061 JUMPI POP PUSH1 0x0 SLOAD PUSH1 0x1 PUSH1 0xFF SWAP1 SWAP2 AND LT JUMPDEST DUP1 PUSH2 0x307B JUMPI POP ADDRESS EXTCODESIZE ISZERO DUP1 ISZERO PUSH2 0x307B JUMPI POP PUSH1 0x0 SLOAD PUSH1 0xFF AND PUSH1 0x1 EQ JUMPDEST PUSH2 0x30DE JUMPI PUSH1 0x40 MLOAD PUSH3 0x461BCD PUSH1 0xE5 SHL DUP2 MSTORE PUSH1 0x20 PUSH1 0x4 DUP3 ADD MSTORE PUSH1 0x2E PUSH1 0x24 DUP3 ADD MSTORE PUSH32 0x496E697469616C697A61626C653A20636F6E747261637420697320616C726561 PUSH1 0x44 DUP3 ADD MSTORE PUSH14 0x191E481A5B9A5D1A585B1A5E9959 PUSH1 0x92 SHL PUSH1 0x64 DUP3 ADD MSTORE PUSH1 0x84 ADD PUSH2 0x16F4 JUMP JUMPDEST PUSH1 0x0 DUP1 SLOAD PUSH1 0xFF NOT AND PUSH1 0x1 OR SWAP1 SSTORE DUP1 ISZERO PUSH2 0x3101 JUMPI PUSH1 0x0 DUP1 SLOAD PUSH2 0xFF00 NOT AND PUSH2 0x100 OR SWAP1 SSTORE JUMPDEST PUSH1 0x65 DUP1 SLOAD PUSH1 0x1 PUSH1 0x1 PUSH1 0xA0 SHL SUB NOT SWAP1 DUP2 AND PUSH1 0x1 PUSH1 0x1 PUSH1 0xA0 SHL SUB DUP13 DUP2 AND SWAP2 SWAP1 SWAP2 OR SWAP1 SWAP3 SSTORE PUSH1 0x66 DUP1 SLOAD DUP3 AND DUP12 DUP5 AND OR SWAP1 SSTORE PUSH1 0x67 DUP1 SLOAD DUP3 AND DUP11 DUP5 AND OR SWAP1 SSTORE PUSH1 0x68 DUP1 SLOAD DUP3 AND DUP7 DUP5 AND OR SWAP1 SSTORE PUSH1 0x6A DUP1 SLOAD SWAP1 SWAP2 AND SWAP2 DUP9 AND SWAP2 SWAP1 SWAP2 OR SWAP1 SSTORE PUSH2 0x315F PUSH2 0x585B JUMP JUMPDEST PUSH1 0x40 DUP1 MLOAD PUSH1 0xE0 DUP2 ADD DUP3 MSTORE PUSH1 0x0 DUP2 MSTORE PUSH1 0x2 PUSH1 0x20 DUP3 ADD MSTORE PUSH1 0x14 SWAP2 DUP2 ADD SWAP2 SWAP1 SWAP2 MSTORE PUSH1 0x64 PUSH1 0x60 DUP3 ADD MSTORE PUSH2 0x1F4 PUSH1 0x80 DUP3 ADD MSTORE PUSH2 0x9C4 PUSH1 0xA0 DUP3 ADD MSTORE PUSH2 0xC350 PUSH1 0xC0 DUP3 ADD MSTORE PUSH2 0x31AA SWAP1 PUSH1 0x7A SWAP1 PUSH1 0x7 PUSH2 0x6FDF JUMP JUMPDEST POP PUSH1 0x40 DUP1 MLOAD PUSH1 0xA0 DUP2 ADD DUP3 MSTORE PUSH1 0x0 DUP2 MSTORE PUSH1 0x2 PUSH1 0x20 DUP3 ADD MSTORE PUSH1 0xA SWAP2 DUP2 ADD SWAP2 SWAP1 SWAP2 MSTORE PUSH1 0x1E PUSH1 0x60 DUP3 ADD MSTORE PUSH1 0x64 PUSH1 0x80 DUP3 ADD MSTORE PUSH2 0x31E5 SWAP1 PUSH1 0x7B SWAP1 PUSH1 0x5 PUSH2 0x7030 JUMP JUMPDEST POP PUSH1 0x40 DUP1 MLOAD PUSH1 0xE0 DUP2 ADD DUP3 MSTORE PUSH1 0x0 DUP1 DUP3 MSTORE PUSH1 0x20 DUP3 ADD DUP2 SWAP1 MSTORE SWAP2 DUP2 ADD SWAP2 SWAP1 SWAP2 MSTORE PUSH1 0x1E PUSH1 0x60 DUP3 ADD MSTORE PUSH1 0x96 PUSH1 0x80 DUP3 ADD MSTORE PUSH2 0x1F4 PUSH1 0xA0 DUP3 ADD MSTORE PUSH2 0x2710 PUSH1 0xC0 DUP3 ADD MSTORE PUSH2 0x322F SWAP1 PUSH1 0x7D SWAP1 PUSH1 0x7 PUSH2 0x6FDF JUMP JUMPDEST POP PUSH1 0x3 PUSH1 0x7C SSTORE PUSH1 0x40 DUP1 MLOAD PUSH2 0x140 DUP2 ADD DUP3 MSTORE PUSH2 0x1F4 DUP2 MSTORE PUSH1 0x64 PUSH1 0x20 DUP3 ADD MSTORE PUSH1 0x32 SWAP2 DUP2 ADD DUP3 SWAP1 MSTORE PUSH1 0x60 DUP2 ADD SWAP2 SWAP1 SWAP2 MSTORE PUSH1 0x1E PUSH1 0x80 DUP3 ADD MSTORE PUSH1 0x14 PUSH1 0xA0 DUP3 ADD DUP2 SWAP1 MSTORE PUSH1 0xC0 DUP3 ADD MSTORE PUSH1 0xA PUSH1 0xE0 DUP3 ADD DUP2 SWAP1 MSTORE PUSH2 0x100 DUP3 ADD DUP2 SWAP1 MSTORE PUSH2 0x120 DUP3 ADD DUP2 SWAP1 MSTORE PUSH2 0x3296 SWAP2 PUSH1 0x7E SWAP2 PUSH2 0x6FDF JUMP JUMPDEST POP PUSH1 0xAF PUSH1 0x7F SSTORE PUSH1 0x19 PUSH1 0x80 SWAP1 DUP2 SSTORE PUSH2 0x320 PUSH1 0x89 SSTORE PUSH2 0x339 PUSH1 0x8A SSTORE PUSH1 0x96 PUSH1 0x8B SSTORE PUSH1 0x40 DUP1 MLOAD PUSH1 0xA0 DUP2 ADD DUP3 MSTORE PUSH2 0x1F4 DUP2 MSTORE PUSH1 0x64 PUSH1 0x20 DUP3 ADD MSTORE PUSH1 0x32 SWAP2 DUP2 ADD DUP3 SWAP1 MSTORE PUSH1 0x60 DUP2 ADD SWAP2 SWAP1 SWAP2 MSTORE PUSH1 0x1E SWAP2 DUP2 ADD SWAP2 SWAP1 SWAP2 MSTORE PUSH2 0x32F1 SWAP1 PUSH1 0x81 SWAP1 PUSH1 0x5 PUSH2 0x6FDF JUMP JUMPDEST POP PUSH3 0xF4240 PUSH1 0x82 DUP2 SWAP1 SSTORE PUSH2 0x3306 SWAP1 PUSH1 0x28 PUSH2 0x762B JUMP JUMPDEST PUSH1 0x83 SSTORE PUSH1 0x82 SLOAD PUSH2 0x3317 SWAP1 PUSH1 0xA PUSH2 0x762B JUMP JUMPDEST PUSH1 0x84 SSTORE PUSH1 0x85 DUP1 SLOAD PUSH4 0xFFFFFFFF NOT AND PUSH1 0x1 OR SWAP1 SSTORE PUSH1 0xF PUSH1 0x8C SSTORE PUSH1 0x40 DUP1 MLOAD PUSH2 0x140 DUP2 ADD DUP3 MSTORE PUSH2 0x1F4 DUP2 MSTORE PUSH1 0x64 PUSH1 0x20 DUP3 ADD MSTORE PUSH1 0x32 SWAP2 DUP2 ADD DUP3 SWAP1 MSTORE PUSH1 0x60 DUP2 ADD SWAP2 SWAP1 SWAP2 MSTORE PUSH1 0x1E PUSH1 0x80 DUP3 ADD MSTORE PUSH1 0x14 PUSH1 0xA0 DUP3 ADD DUP2 SWAP1 MSTORE PUSH1 0xC0 DUP3 ADD MSTORE PUSH1 0xA PUSH1 0xE0 DUP3 ADD DUP2 SWAP1 MSTORE PUSH2 0x100 DUP3 ADD DUP2 SWAP1 MSTORE PUSH2 0x120 DUP3 ADD DUP2 SWAP1 MSTORE PUSH2 0x3390 SWAP2 PUSH1 0x8D SWAP2 PUSH2 0x6FDF JUMP JUMPDEST POP PUSH1 0x40 DUP1 MLOAD PUSH1 0xA0 DUP2 ADD DUP3 MSTORE PUSH2 0x12C DUP2 MSTORE PUSH2 0x258 PUSH1 0x20 DUP3 ADD MSTORE PUSH2 0x4B0 SWAP2 DUP2 ADD SWAP2 SWAP1 SWAP2 MSTORE PUSH2 0xBB8 PUSH1 0x60 DUP3 ADD MSTORE PUSH2 0x1770 PUSH1 0x80 DUP3 ADD MSTORE PUSH2 0x33D0 SWAP1 PUSH1 0x8E SWAP1 PUSH1 0x5 PUSH2 0x6FDF JUMP JUMPDEST POP PUSH1 0x64 PUSH1 0x9F SSTORE PUSH1 0x14 PUSH1 0xA3 SSTORE PUSH1 0x5 PUSH1 0xA4 SSTORE PUSH2 0x127 PUSH1 0xA5 SSTORE CALLER PUSH1 0x0 SWAP1 DUP2 MSTORE PUSH1 0xA0 PUSH1 0x20 MSTORE PUSH1 0x40 SWAP1 KECCAK256 DUP1 SLOAD PUSH1 0xFF NOT AND PUSH1 0x1 OR SWAP1 SSTORE PUSH3 0x278D00 PUSH1 0xA7 SSTORE PUSH2 0x340F PUSH2 0x588A JUMP JUMPDEST PUSH1 0xA6 DUP1 SLOAD PUSH1 0x1 PUSH1 0x1 PUSH1 0xA0 SHL SUB DUP1 DUP9 AND PUSH1 0x1 PUSH1 0x1 PUSH1 0xA0 SHL SUB NOT SWAP3 DUP4 AND OR SWAP1 SWAP3 SSTORE PUSH1 0xA8 DUP1 SLOAD DUP8 DUP5 AND SWAP1 DUP4 AND OR SWAP1 SSTORE PUSH1 0xB4 PUSH1 0xAA SSTORE PUSH2 0x1F4 PUSH1 0xAC DUP2 SWAP1 SSTORE PUSH1 0xAB DUP1 SLOAD SWAP4 DUP7 AND SWAP4 SWAP1 SWAP3 AND SWAP3 SWAP1 SWAP3 OR SWAP1 SSTORE PUSH1 0xAD SSTORE DUP1 ISZERO PUSH2 0x34A2 JUMPI PUSH1 0x0 DUP1 SLOAD PUSH2 0xFF00 NOT AND SWAP1 SSTORE PUSH1 0x40 MLOAD PUSH1 0x1 DUP2 MSTORE PUSH32 0x7F26B83FF96E1F2B6A682F133852F6798A09C465DA95921460CEFB3847402498 SWAP1 PUSH1 0x20 ADD PUSH1 0x40 MLOAD DUP1 SWAP2 SUB SWAP1 LOG1 JUMPDEST POP POP POP POP POP POP POP POP POP JUMP JUMPDEST PUSH2 0x34B5 PUSH2 0x4630 JUMP JUMPDEST PUSH1 0x66 DUP1 SLOAD PUSH1 0x1 PUSH1 0x1 PUSH1 0xA0 SHL SUB NOT AND PUSH1 0x1 PUSH1 0x1 PUSH1 0xA0 SHL SUB SWAP3 SWAP1 SWAP3 AND SWAP2 SWAP1 SWAP2 OR SWAP1 SSTORE JUMP JUMPDEST PUSH1 0x60 PUSH1 0x0 PUSH2 0x34E6 DUP4 PUSH1 0x2 PUSH2 0x15D2 JUMP JUMPDEST SWAP1 POP PUSH1 0x0 DUP2 PUSH1 0x1 PUSH1 0x1 PUSH1 0x40 SHL SUB DUP2 GT ISZERO PUSH2 0x3502 JUMPI PUSH2 0x3502 PUSH2 0x7599 JUMP JUMPDEST PUSH1 0x40 MLOAD SWAP1 DUP1 DUP3 MSTORE DUP1 PUSH1 0x20 MUL PUSH1 0x20 ADD DUP3 ADD PUSH1 0x40 MSTORE DUP1 ISZERO PUSH2 0x3547 JUMPI DUP2 PUSH1 0x20 ADD JUMPDEST PUSH1 0x40 DUP1 MLOAD DUP1 DUP3 ADD SWAP1 SWAP2 MSTORE PUSH1 0x0 DUP1 DUP3 MSTORE PUSH1 0x20 DUP3 ADD MSTORE DUP2 MSTORE PUSH1 0x20 ADD SWAP1 PUSH1 0x1 SWAP1 SUB SWAP1 DUP2 PUSH2 0x3520 JUMPI SWAP1 POP JUMPDEST POP SWAP1 POP PUSH1 0x0 DUP1 JUMPDEST PUSH1 0x1 PUSH1 0x1 PUSH1 0xA0 SHL SUB DUP7 AND PUSH1 0x0 SWAP1 DUP2 MSTORE PUSH1 0x70 PUSH1 0x20 MSTORE PUSH1 0x40 SWAP1 KECCAK256 SLOAD DUP2 LT ISZERO PUSH2 0x2B2B JUMPI PUSH1 0x40 MLOAD DUP1 PUSH1 0x40 ADD PUSH1 0x40 MSTORE DUP1 PUSH1 0x70 PUSH1 0x0 DUP10 PUSH1 0x1 PUSH1 0x1 PUSH1 0xA0 SHL SUB AND PUSH1 0x1 PUSH1 0x1 PUSH1 0xA0 SHL SUB AND DUP2 MSTORE PUSH1 0x20 ADD SWAP1 DUP2 MSTORE PUSH1 0x20 ADD PUSH1 0x0 KECCAK256 DUP4 DUP2 SLOAD DUP2 LT PUSH2 0x35AF JUMPI PUSH2 0x35AF PUSH2 0x752E JUMP JUMPDEST PUSH1 0x0 SWAP2 DUP3 MSTORE PUSH1 0x20 SWAP2 DUP3 SWAP1 KECCAK256 ADD SLOAD PUSH1 0x1 PUSH1 0x1 PUSH1 0xA0 SHL SUB SWAP1 DUP2 AND DUP4 MSTORE DUP10 AND SWAP2 ADD MSTORE DUP4 MLOAD DUP5 SWAP1 DUP5 SWAP1 DUP2 LT PUSH2 0x35E2 JUMPI PUSH2 0x35E2 PUSH2 0x752E JUMP JUMPDEST PUSH1 0x20 MUL PUSH1 0x20 ADD ADD DUP2 SWAP1 MSTORE POP DUP2 DUP1 PUSH2 0x35F8 SWAP1 PUSH2 0x756D JUMP JUMPDEST SWAP3 POP POP DUP4 DUP3 LT PUSH2 0x360C JUMPI POP SWAP1 SWAP5 SWAP4 POP POP POP POP JUMP JUMPDEST PUSH1 0x0 JUMPDEST PUSH1 0x1 PUSH1 0x1 PUSH1 0xA0 SHL SUB DUP8 AND PUSH1 0x0 SWAP1 DUP2 MSTORE PUSH1 0x70 PUSH1 0x20 DUP2 SWAP1 MSTORE PUSH1 0x40 DUP3 KECCAK256 DUP1 SLOAD SWAP2 SWAP3 SWAP2 DUP6 SWAP1 DUP2 LT PUSH2 0x363E JUMPI PUSH2 0x363E PUSH2 0x752E JUMP JUMPDEST PUSH1 0x0 SWAP2 DUP3 MSTORE PUSH1 0x20 DUP1 DUP4 KECCAK256 SWAP1 SWAP2 ADD SLOAD PUSH1 0x1 PUSH1 0x1 PUSH1 0xA0 SHL SUB AND DUP4 MSTORE DUP3 ADD SWAP3 SWAP1 SWAP3 MSTORE PUSH1 0x40 ADD SWAP1 KECCAK256 SLOAD DUP2 LT ISZERO PUSH2 0x378C JUMPI PUSH1 0x40 MLOAD DUP1 PUSH1 0x40 ADD PUSH1 0x40 MSTORE DUP1 PUSH1 0x70 PUSH1 0x0 PUSH1 0x70 PUSH1 0x0 DUP13 PUSH1 0x1 PUSH1 0x1 PUSH1 0xA0 SHL SUB AND PUSH1 0x1 PUSH1 0x1 PUSH1 0xA0 SHL SUB AND DUP2 MSTORE PUSH1 0x20 ADD SWAP1 DUP2 MSTORE PUSH1 0x20 ADD PUSH1 0x0 KECCAK256 DUP7 DUP2 SLOAD DUP2 LT PUSH2 0x36AF JUMPI PUSH2 0x36AF PUSH2 0x752E JUMP JUMPDEST PUSH1 0x0 SWAP2 DUP3 MSTORE PUSH1 0x20 DUP1 DUP4 KECCAK256 SWAP1 SWAP2 ADD SLOAD PUSH1 0x1 PUSH1 0x1 PUSH1 0xA0 SHL SUB AND DUP4 MSTORE DUP3 ADD SWAP3 SWAP1 SWAP3 MSTORE PUSH1 0x40 ADD SWAP1 KECCAK256 DUP1 SLOAD DUP5 SWAP1 DUP2 LT PUSH2 0x36E5 JUMPI PUSH2 0x36E5 PUSH2 0x752E JUMP JUMPDEST PUSH1 0x0 SWAP2 DUP3 MSTORE PUSH1 0x20 DUP1 DUP4 KECCAK256 SWAP1 SWAP2 ADD SLOAD PUSH1 0x1 PUSH1 0x1 PUSH1 0xA0 SHL SUB SWAP1 DUP2 AND DUP5 MSTORE DUP12 AND DUP3 MSTORE PUSH1 0x70 DUP2 MSTORE PUSH1 0x40 SWAP1 SWAP2 KECCAK256 DUP1 SLOAD SWAP3 SWAP1 SWAP2 ADD SWAP2 DUP6 SWAP1 DUP2 LT PUSH2 0x3724 JUMPI PUSH2 0x3724 PUSH2 0x752E JUMP JUMPDEST PUSH1 0x0 SWAP2 DUP3 MSTORE PUSH1 0x20 SWAP1 SWAP2 KECCAK256 ADD SLOAD PUSH1 0x1 PUSH1 0x1 PUSH1 0xA0 SHL SUB AND SWAP1 MSTORE DUP5 MLOAD DUP6 SWAP1 DUP6 SWAP1 DUP2 LT PUSH2 0x374F JUMPI PUSH2 0x374F PUSH2 0x752E JUMP JUMPDEST PUSH1 0x20 MUL PUSH1 0x20 ADD ADD DUP2 SWAP1 MSTORE POP DUP3 DUP1 PUSH2 0x3765 SWAP1 PUSH2 0x756D JUMP JUMPDEST SWAP4 POP POP DUP5 DUP4 LT PUSH2 0x377A JUMPI POP SWAP2 SWAP6 SWAP5 POP POP POP POP POP JUMP JUMPDEST DUP1 PUSH2 0x3784 DUP2 PUSH2 0x756D JUMP JUMPDEST SWAP2 POP POP PUSH2 0x360F JUMP JUMPDEST POP DUP1 PUSH2 0x3797 DUP2 PUSH2 0x756D JUMP JUMPDEST SWAP2 POP POP PUSH2 0x354E JUMP JUMPDEST PUSH1 0x7A DUP2 DUP2 SLOAD DUP2 LT PUSH2 0x2160 JUMPI PUSH1 0x0 DUP1 REVERT JUMPDEST PUSH1 0x81 DUP2 DUP2 SLOAD DUP2 LT PUSH2 0x2160 JUMPI PUSH1 0x0 DUP1 REVERT JUMPDEST PUSH1 0x1 PUSH1 0x1 PUSH1 0xA0 SHL SUB DUP2 AND PUSH1 0x0 SWAP1 DUP2 MSTORE PUSH1 0x71 PUSH1 0x20 MSTORE PUSH1 0x40 DUP2 KECCAK256 SLOAD DUP2 SWAP1 PUSH2 0x37E4 SWAP1 DUP3 PUSH2 0x755A JUMP JUMPDEST SWAP1 POP PUSH1 0x0 JUMPDEST PUSH1 0x1 PUSH1 0x1 PUSH1 0xA0 SHL SUB DUP5 AND PUSH1 0x0 SWAP1 DUP2 MSTORE PUSH1 0x71 PUSH1 0x20 MSTORE PUSH1 0x40 SWAP1 KECCAK256 SLOAD DUP2 LT ISZERO PUSH2 0xFB7 JUMPI PUSH1 0x1 PUSH1 0x1 PUSH1 0xA0 SHL SUB DUP5 AND PUSH1 0x0 SWAP1 DUP2 MSTORE PUSH1 0x71 PUSH1 0x20 MSTORE PUSH1 0x40 SWAP1 KECCAK256 DUP1 SLOAD PUSH2 0x3852 SWAP2 SWAP1 DUP4 SWAP1 DUP2 LT PUSH2 0x3838 JUMPI PUSH2 0x3838 PUSH2 0x752E JUMP JUMPDEST PUSH1 0x0 SWAP2 DUP3 MSTORE PUSH1 0x20 SWAP1 SWAP2 KECCAK256 ADD SLOAD PUSH1 0x1 PUSH1 0x1 PUSH1 0xA0 SHL SUB AND PUSH2 0x37BF JUMP JUMPDEST PUSH2 0x385C SWAP1 DUP4 PUSH2 0x755A JUMP JUMPDEST SWAP2 POP DUP1 PUSH2 0x3868 DUP2 PUSH2 0x756D JUMP JUMPDEST SWAP2 POP POP PUSH2 0x37E9 JUMP JUMPDEST PUSH1 0x8D DUP2 DUP2 SLOAD DUP2 LT PUSH2 0x2160 JUMPI PUSH1 0x0 DUP1 REVERT JUMPDEST PUSH2 0x3888 PUSH2 0x4630 JUMP JUMPDEST PUSH1 0xA7 SSTORE JUMP JUMPDEST PUSH1 0x69 SLOAD PUSH1 0x0 SWAP1 PUSH1 0x1 PUSH1 0x1 PUSH1 0xA0 SHL SUB AND CALLER EQ PUSH2 0x38BA JUMPI PUSH1 0x40 MLOAD PUSH3 0x461BCD PUSH1 0xE5 SHL DUP2 MSTORE PUSH1 0x4 ADD PUSH2 0x16F4 SWAP1 PUSH2 0x75EA JUMP JUMPDEST PUSH1 0x66 SLOAD PUSH1 0x40 MLOAD PUSH4 0x6CF50D91 PUSH1 0xE1 SHL DUP2 MSTORE PUSH1 0x1 PUSH1 0x1 PUSH1 0xA0 SHL SUB SWAP1 SWAP2 AND SWAP1 PUSH4 0xD9EA1B22 SWAP1 PUSH2 0x38EC SWAP1 DUP7 SWAP1 DUP7 SWAP1 PUSH1 0x4 ADD PUSH2 0x75AF JUMP JUMPDEST PUSH1 0x20 PUSH1 0x40 MLOAD DUP1 DUP4 SUB DUP2 PUSH1 0x0 DUP8 GAS CALL ISZERO DUP1 ISZERO PUSH2 0x390B JUMPI RETURNDATASIZE PUSH1 0x0 DUP1 RETURNDATACOPY RETURNDATASIZE PUSH1 0x0 REVERT JUMPDEST POP POP POP POP PUSH1 0x40 MLOAD RETURNDATASIZE PUSH1 0x1F NOT PUSH1 0x1F DUP3 ADD AND DUP3 ADD DUP1 PUSH1 0x40 MSTORE POP DUP2 ADD SWAP1 PUSH2 0x392F SWAP2 SWAP1 PUSH2 0x75C8 JUMP JUMPDEST SWAP4 SWAP3 POP POP POP JUMP JUMPDEST PUSH1 0x60 PUSH1 0x0 PUSH2 0x3943 DUP4 PUSH2 0x2F90 JUMP JUMPDEST SWAP1 POP PUSH1 0x0 DUP2 PUSH1 0x1 PUSH1 0x1 PUSH1 0x40 SHL SUB DUP2 GT ISZERO PUSH2 0x395F JUMPI PUSH2 0x395F PUSH2 0x7599 JUMP JUMPDEST PUSH1 0x40 MLOAD SWAP1 DUP1 DUP3 MSTORE DUP1 PUSH1 0x20 MUL PUSH1 0x20 ADD DUP3 ADD PUSH1 0x40 MSTORE DUP1 ISZERO PUSH2 0x3988 JUMPI DUP2 PUSH1 0x20 ADD PUSH1 0x20 DUP3 MUL DUP1 CALLDATASIZE DUP4 CALLDATACOPY ADD SWAP1 POP JUMPDEST POP SWAP1 POP PUSH1 0x0 DUP1 PUSH1 0x0 JUMPDEST PUSH1 0x1 PUSH1 0x1 PUSH1 0xA0 SHL SUB DUP8 AND PUSH1 0x0 SWAP1 DUP2 MSTORE PUSH1 0x70 PUSH1 0x20 MSTORE PUSH1 0x40 SWAP1 KECCAK256 SLOAD DUP2 LT ISZERO PUSH2 0x3A43 JUMPI PUSH1 0x1 PUSH1 0x1 PUSH1 0xA0 SHL SUB DUP8 AND PUSH1 0x0 SWAP1 DUP2 MSTORE PUSH1 0x70 PUSH1 0x20 MSTORE PUSH1 0x40 SWAP1 KECCAK256 DUP1 SLOAD DUP3 SWAP1 DUP2 LT PUSH2 0x39DB JUMPI PUSH2 0x39DB PUSH2 0x752E JUMP JUMPDEST SWAP1 PUSH1 0x0 MSTORE PUSH1 0x20 PUSH1 0x0 KECCAK256 ADD PUSH1 0x0 SWAP1 SLOAD SWAP1 PUSH2 0x100 EXP SWAP1 DIV PUSH1 0x1 PUSH1 0x1 PUSH1 0xA0 SHL SUB AND DUP5 DUP4 DUP2 MLOAD DUP2 LT PUSH2 0x3A0B JUMPI PUSH2 0x3A0B PUSH2 0x752E JUMP JUMPDEST PUSH1 0x1 PUSH1 0x1 PUSH1 0xA0 SHL SUB SWAP1 SWAP3 AND PUSH1 0x20 SWAP3 DUP4 MUL SWAP2 SWAP1 SWAP2 ADD SWAP1 SWAP2 ADD MSTORE DUP2 PUSH2 0x3A2D DUP2 PUSH2 0x756D JUMP JUMPDEST SWAP3 POP POP DUP1 DUP1 PUSH2 0x3A3B SWAP1 PUSH2 0x756D JUMP JUMPDEST SWAP2 POP POP PUSH2 0x3991 JUMP JUMPDEST POP JUMPDEST DUP1 DUP3 LT ISZERO PUSH2 0x2B2B JUMPI PUSH1 0x0 DUP4 DUP4 DUP2 MLOAD DUP2 LT PUSH2 0x3A61 JUMPI PUSH2 0x3A61 PUSH2 0x752E JUMP JUMPDEST PUSH1 0x20 MUL PUSH1 0x20 ADD ADD MLOAD SWAP1 POP DUP3 DUP1 PUSH2 0x3A76 SWAP1 PUSH2 0x756D JUMP JUMPDEST PUSH1 0x1 PUSH1 0x1 PUSH1 0xA0 SHL SUB DUP4 AND PUSH1 0x0 SWAP1 DUP2 MSTORE PUSH1 0x70 PUSH1 0x20 MSTORE PUSH1 0x40 SWAP1 KECCAK256 SLOAD SWAP1 SWAP5 POP ISZERO SWAP1 POP PUSH2 0x3B50 JUMPI PUSH1 0x0 JUMPDEST PUSH1 0x1 PUSH1 0x1 PUSH1 0xA0 SHL SUB DUP3 AND PUSH1 0x0 SWAP1 DUP2 MSTORE PUSH1 0x70 PUSH1 0x20 MSTORE PUSH1 0x40 SWAP1 KECCAK256 SLOAD DUP2 LT ISZERO PUSH2 0x3B4E JUMPI PUSH1 0x1 PUSH1 0x1 PUSH1 0xA0 SHL SUB DUP3 AND PUSH1 0x0 SWAP1 DUP2 MSTORE PUSH1 0x70 PUSH1 0x20 MSTORE PUSH1 0x40 SWAP1 KECCAK256 DUP1 SLOAD DUP3 SWAP1 DUP2 LT PUSH2 0x3AE6 JUMPI PUSH2 0x3AE6 PUSH2 0x752E JUMP JUMPDEST SWAP1 PUSH1 0x0 MSTORE PUSH1 0x20 PUSH1 0x0 KECCAK256 ADD PUSH1 0x0 SWAP1 SLOAD SWAP1 PUSH2 0x100 EXP SWAP1 DIV PUSH1 0x1 PUSH1 0x1 PUSH1 0xA0 SHL SUB AND DUP6 DUP5 DUP2 MLOAD DUP2 LT PUSH2 0x3B16 JUMPI PUSH2 0x3B16 PUSH2 0x752E JUMP JUMPDEST PUSH1 0x1 PUSH1 0x1 PUSH1 0xA0 SHL SUB SWAP1 SWAP3 AND PUSH1 0x20 SWAP3 DUP4 MUL SWAP2 SWAP1 SWAP2 ADD SWAP1 SWAP2 ADD MSTORE DUP3 PUSH2 0x3B38 DUP2 PUSH2 0x756D JUMP JUMPDEST SWAP4 POP POP DUP1 DUP1 PUSH2 0x3B46 SWAP1 PUSH2 0x756D JUMP JUMPDEST SWAP2 POP POP PUSH2 0x3A9C JUMP JUMPDEST POP JUMPDEST POP PUSH2 0x3A45 JUMP JUMPDEST CALLER PUSH1 0x0 SWAP1 DUP2 MSTORE PUSH1 0x77 PUSH1 0x20 MSTORE PUSH1 0x40 DUP2 KECCAK256 SLOAD PUSH1 0xFF AND ISZERO ISZERO PUSH1 0x1 EQ PUSH2 0x3BBA JUMPI PUSH1 0x40 MLOAD PUSH3 0x461BCD PUSH1 0xE5 SHL DUP2 MSTORE PUSH1 0x20 PUSH1 0x4 DUP3 ADD MSTORE PUSH1 0x1F PUSH1 0x24 DUP3 ADD MSTORE PUSH32 0x4D6574614E6F64653A20506C6561736520537562637269626520466972737400 PUSH1 0x44 DUP3 ADD MSTORE PUSH1 0x64 ADD PUSH2 0x16F4 JUMP JUMPDEST POP CALLER PUSH1 0x0 SWAP1 DUP2 MSTORE PUSH1 0x6F PUSH1 0x20 MSTORE PUSH1 0x40 SWAP1 KECCAK256 SLOAD SWAP1 JUMP JUMPDEST PUSH2 0x3BD6 PUSH2 0x4630 JUMP JUMPDEST PUSH1 0x67 DUP1 SLOAD PUSH1 0x1 PUSH1 0x1 PUSH1 0xA0 SHL SUB NOT AND PUSH1 0x1 PUSH1 0x1 PUSH1 0xA0 SHL SUB SWAP3 SWAP1 SWAP3 AND SWAP2 SWAP1 SWAP2 OR SWAP1 SSTORE JUMP JUMPDEST PUSH2 0x3C00 PUSH2 0x4630 JUMP JUMPDEST PUSH1 0x65 DUP1 SLOAD PUSH1 0x1 PUSH1 0x1 PUSH1 0xA0 SHL SUB NOT AND PUSH1 0x1 PUSH1 0x1 PUSH1 0xA0 SHL SUB SWAP3 SWAP1 SWAP3 AND SWAP2 SWAP1 SWAP2 OR SWAP1 SSTORE JUMP JUMPDEST PUSH1 0x1 PUSH1 0x1 PUSH1 0xA0 SHL SUB DUP2 AND PUSH1 0x0 SWAP1 DUP2 MSTORE PUSH1 0x77 PUSH1 0x20 MSTORE PUSH1 0x40 DUP2 KECCAK256 SLOAD PUSH1 0xFF AND ISZERO PUSH2 0x3C78 JUMPI PUSH1 0x40 MLOAD PUSH3 0x461BCD PUSH1 0xE5 SHL DUP2 MSTORE PUSH1 0x20 PUSH1 0x4 DUP3 ADD MSTORE PUSH1 0xA PUSH1 0x24 DUP3 ADD MSTORE PUSH10 0x149959DA5CDD195C9959 PUSH1 0xB2 SHL PUSH1 0x44 DUP3 ADD MSTORE PUSH1 0x64 ADD PUSH2 0x16F4 JUMP JUMPDEST PUSH2 0x3C82 DUP3 DUP7 PUSH2 0x590C JUMP JUMPDEST PUSH1 0x0 PUSH1 0x84 SLOAD PUSH1 0x83 SLOAD PUSH2 0x3C94 SWAP2 SWAP1 PUSH2 0x755A JUMP JUMPDEST SWAP1 POP PUSH1 0x0 PUSH1 0x84 SLOAD DUP7 PUSH2 0x3CA6 SWAP2 SWAP1 PUSH2 0x762B JUMP JUMPDEST SWAP1 POP PUSH1 0x0 PUSH2 0x3CB4 DUP3 DUP5 PUSH2 0x755A JUMP JUMPDEST PUSH1 0x65 SLOAD PUSH1 0x40 MLOAD PUSH4 0x70A08231 PUSH1 0xE0 SHL DUP2 MSTORE CALLER PUSH1 0x4 DUP3 ADD MSTORE SWAP2 SWAP3 POP DUP3 SWAP2 PUSH1 0x1 PUSH1 0x1 PUSH1 0xA0 SHL SUB SWAP1 SWAP2 AND SWAP1 PUSH4 0x70A08231 SWAP1 PUSH1 0x24 ADD PUSH1 0x20 PUSH1 0x40 MLOAD DUP1 DUP4 SUB DUP2 DUP7 GAS STATICCALL ISZERO DUP1 ISZERO PUSH2 0x3D01 JUMPI RETURNDATASIZE PUSH1 0x0 DUP1 RETURNDATACOPY RETURNDATASIZE PUSH1 0x0 REVERT JUMPDEST POP POP POP POP PUSH1 0x40 MLOAD RETURNDATASIZE PUSH1 0x1F NOT PUSH1 0x1F DUP3 ADD AND DUP3 ADD DUP1 PUSH1 0x40 MSTORE POP DUP2 ADD SWAP1 PUSH2 0x3D25 SWAP2 SWAP1 PUSH2 0x76A1 JUMP JUMPDEST LT ISZERO PUSH2 0x3D65 JUMPI PUSH1 0x40 MLOAD PUSH3 0x461BCD PUSH1 0xE5 SHL DUP2 MSTORE PUSH1 0x20 PUSH1 0x4 DUP3 ADD MSTORE PUSH1 0xF PUSH1 0x24 DUP3 ADD MSTORE PUSH15 0x496E76616C69642042616C616E6365 PUSH1 0x88 SHL PUSH1 0x44 DUP3 ADD MSTORE PUSH1 0x64 ADD PUSH2 0x16F4 JUMP JUMPDEST PUSH1 0x65 SLOAD PUSH1 0x66 SLOAD PUSH1 0x40 MLOAD PUSH4 0x23B872DD PUSH1 0xE0 SHL DUP2 MSTORE CALLER PUSH1 0x4 DUP3 ADD MSTORE PUSH1 0x1 PUSH1 0x1 PUSH1 0xA0 SHL SUB SWAP2 DUP3 AND PUSH1 0x24 DUP3 ADD MSTORE PUSH1 0x44 DUP2 ADD DUP5 SWAP1 MSTORE SWAP2 AND SWAP1 PUSH4 0x23B872DD SWAP1 PUSH1 0x64 ADD PUSH1 0x20 PUSH1 0x40 MLOAD DUP1 DUP4 SUB DUP2 PUSH1 0x0 DUP8 GAS CALL ISZERO DUP1 ISZERO PUSH2 0x3DC0 JUMPI RETURNDATASIZE PUSH1 0x0 DUP1 RETURNDATACOPY RETURNDATASIZE PUSH1 0x0 REVERT JUMPDEST POP POP POP POP PUSH1 0x40 MLOAD RETURNDATASIZE PUSH1 0x1F NOT PUSH1 0x1F DUP3 ADD AND DUP3 ADD DUP1 PUSH1 0x40 MSTORE POP DUP2 ADD SWAP1 PUSH2 0x3DE4 SWAP2 SWAP1 PUSH2 0x75C8 JUMP JUMPDEST POP PUSH2 0x3DEE DUP6 PUSH2 0x59EB JUMP JUMPDEST PUSH2 0x3DF9 DUP6 DUP5 DUP12 PUSH2 0x5AD0 JUMP JUMPDEST PUSH2 0x3E03 DUP6 DUP4 PUSH2 0x470D JUMP JUMPDEST PUSH1 0x1 PUSH1 0x1 PUSH1 0xA0 SHL SUB DUP6 AND PUSH1 0x0 SWAP1 DUP2 MSTORE PUSH1 0x75 PUSH1 0x20 MSTORE PUSH1 0x40 SWAP1 KECCAK256 TIMESTAMP SWAP1 SSTORE PUSH1 0xA7 SLOAD PUSH2 0x3E2C SWAP1 DUP9 SWAP1 PUSH2 0x762B JUMP JUMPDEST PUSH1 0x1 PUSH1 0x1 PUSH1 0xA0 SHL SUB DUP7 AND PUSH1 0x0 SWAP1 DUP2 MSTORE PUSH1 0x76 PUSH1 0x20 MSTORE PUSH1 0x40 SWAP1 KECCAK256 SLOAD PUSH2 0x3E4F SWAP2 SWAP1 PUSH2 0x755A JUMP JUMPDEST PUSH1 0x1 PUSH1 0x1 PUSH1 0xA0 SHL SUB DUP7 AND PUSH1 0x0 SWAP1 DUP2 MSTORE PUSH1 0x76 PUSH1 0x20 MSTORE PUSH1 0x40 SWAP1 KECCAK256 SSTORE PUSH2 0x3E71 DUP3 PUSH2 0x4B2B JUMP JUMPDEST PUSH2 0x3E7A DUP3 PUSH2 0x4F02 JUMP JUMPDEST PUSH1 0xA DUP8 GT ISZERO PUSH2 0x3F1E JUMPI PUSH1 0x82 SLOAD PUSH2 0x3E91 SWAP1 PUSH1 0x1E PUSH2 0x762B JUMP JUMPDEST PUSH1 0xA9 PUSH1 0x0 DUP3 DUP3 SLOAD PUSH2 0x3EA2 SWAP2 SWAP1 PUSH2 0x755A JUMP JUMPDEST SWAP1 SWAP2 SSTORE POP POP PUSH1 0x68 SLOAD PUSH1 0x40 MLOAD PUSH4 0xA429A513 PUSH1 0xE0 SHL DUP2 MSTORE PUSH1 0x1 PUSH1 0x1 PUSH1 0xA0 SHL SUB SWAP1 SWAP2 AND SWAP1 PUSH4 0xA429A513 SWAP1 PUSH2 0x3ED9 SWAP1 DUP9 SWAP1 DUP11 SWAP1 PUSH1 0x4 ADD PUSH2 0x75AF JUMP JUMPDEST PUSH1 0x20 PUSH1 0x40 MLOAD DUP1 DUP4 SUB DUP2 PUSH1 0x0 DUP8 GAS CALL ISZERO DUP1 ISZERO PUSH2 0x3EF8 JUMPI RETURNDATASIZE PUSH1 0x0 DUP1 RETURNDATACOPY RETURNDATASIZE PUSH1 0x0 REVERT JUMPDEST POP POP POP POP PUSH1 0x40 MLOAD RETURNDATASIZE PUSH1 0x1F NOT PUSH1 0x1F DUP3 ADD AND DUP3 ADD DUP1 PUSH1 0x40 MSTORE POP DUP2 ADD SWAP1 PUSH2 0x3F1C SWAP2 SWAP1 PUSH2 0x75C8 JUMP JUMPDEST POP JUMPDEST POP PUSH1 0x1 SWAP9 SWAP8 POP POP POP POP POP POP POP POP JUMP JUMPDEST PUSH1 0x7E DUP2 DUP2 SLOAD DUP2 LT PUSH2 0x2160 JUMPI PUSH1 0x0 DUP1 REVERT JUMPDEST PUSH2 0x3F45 PUSH2 0x4630 JUMP JUMPDEST PUSH1 0xA6 DUP1 SLOAD PUSH1 0x1 PUSH1 0x1 PUSH1 0xA0 SHL SUB NOT AND PUSH1 0x1 PUSH1 0x1 PUSH1 0xA0 SHL SUB SWAP3 SWAP1 SWAP3 AND SWAP2 SWAP1 SWAP2 OR SWAP1 SSTORE JUMP JUMPDEST PUSH1 0x1 PUSH1 0x1 PUSH1 0xA0 SHL SUB DUP2 AND PUSH1 0x0 SWAP1 DUP2 MSTORE PUSH1 0x70 PUSH1 0x20 MSTORE PUSH1 0x40 DUP2 KECCAK256 SLOAD PUSH1 0x60 SWAP2 SWAP1 PUSH1 0x1 PUSH1 0x1 PUSH1 0x40 SHL SUB DUP2 GT ISZERO PUSH2 0x3F9B JUMPI PUSH2 0x3F9B PUSH2 0x7599 JUMP JUMPDEST PUSH1 0x40 MLOAD SWAP1 DUP1 DUP3 MSTORE DUP1 PUSH1 0x20 MUL PUSH1 0x20 ADD DUP3 ADD PUSH1 0x40 MSTORE DUP1 ISZERO PUSH2 0x3FD4 JUMPI DUP2 PUSH1 0x20 ADD JUMPDEST PUSH2 0x3FC1 PUSH2 0x6F2D JUMP JUMPDEST DUP2 MSTORE PUSH1 0x20 ADD SWAP1 PUSH1 0x1 SWAP1 SUB SWAP1 DUP2 PUSH2 0x3FB9 JUMPI SWAP1 POP JUMPDEST POP SWAP1 POP PUSH1 0x0 JUMPDEST PUSH1 0x1 PUSH1 0x1 PUSH1 0xA0 SHL SUB DUP5 AND PUSH1 0x0 SWAP1 DUP2 MSTORE PUSH1 0x70 PUSH1 0x20 MSTORE PUSH1 0x40 SWAP1 KECCAK256 SLOAD DUP2 LT ISZERO PUSH2 0xFB7 JUMPI PUSH1 0x1 PUSH1 0x1 PUSH1 0xA0 SHL SUB DUP5 AND PUSH1 0x0 SWAP1 DUP2 MSTORE PUSH1 0x70 PUSH1 0x20 MSTORE PUSH1 0x40 DUP2 KECCAK256 DUP1 SLOAD PUSH2 0x4043 SWAP2 SWAP1 DUP5 SWAP1 DUP2 LT PUSH2 0x4029 JUMPI PUSH2 0x4029 PUSH2 0x752E JUMP JUMPDEST PUSH1 0x0 SWAP2 DUP3 MSTORE PUSH1 0x20 SWAP1 SWAP2 KECCAK256 ADD SLOAD PUSH1 0x1 PUSH1 0x1 PUSH1 0xA0 SHL SUB AND PUSH2 0x1990 JUMP JUMPDEST SWAP1 POP DUP1 DUP4 DUP4 DUP2 MLOAD DUP2 LT PUSH2 0x4058 JUMPI PUSH2 0x4058 PUSH2 0x752E JUMP JUMPDEST PUSH1 0x20 MUL PUSH1 0x20 ADD ADD DUP2 SWAP1 MSTORE POP POP DUP1 DUP1 PUSH2 0x406F SWAP1 PUSH2 0x756D JUMP JUMPDEST SWAP2 POP POP PUSH2 0x3FDA JUMP JUMPDEST PUSH2 0x407F PUSH2 0x4630 JUMP JUMPDEST PUSH1 0x1 PUSH1 0x1 PUSH1 0xA0 SHL SUB DUP2 AND PUSH2 0x40E4 JUMPI PUSH1 0x40 MLOAD PUSH3 0x461BCD PUSH1 0xE5 SHL DUP2 MSTORE PUSH1 0x20 PUSH1 0x4 DUP3 ADD MSTORE PUSH1 0x26 PUSH1 0x24 DUP3 ADD MSTORE PUSH32 0x4F776E61626C653A206E6577206F776E657220697320746865207A65726F2061 PUSH1 0x44 DUP3 ADD MSTORE PUSH6 0x646472657373 PUSH1 0xD0 SHL PUSH1 0x64 DUP3 ADD MSTORE PUSH1 0x84 ADD PUSH2 0x16F4 JUMP JUMPDEST PUSH2 0x40ED DUP2 PUSH2 0x52E4 JUMP JUMPDEST POP JUMP JUMPDEST PUSH1 0x1 PUSH1 0x1 PUSH1 0xA0 SHL SUB DUP2 AND PUSH1 0x0 SWAP1 DUP2 MSTORE PUSH1 0x6D PUSH1 0x20 SWAP1 DUP2 MSTORE PUSH1 0x40 DUP1 DUP4 KECCAK256 SLOAD PUSH1 0x78 DUP4 MSTORE DUP2 DUP5 KECCAK256 SLOAD PUSH1 0x70 DUP5 MSTORE DUP3 DUP6 KECCAK256 DUP1 SLOAD DUP5 MLOAD DUP2 DUP8 MUL DUP2 ADD DUP8 ADD SWAP1 SWAP6 MSTORE DUP1 DUP6 MSTORE PUSH1 0xFF SWAP1 SWAP4 AND SWAP6 SWAP2 SWAP5 PUSH1 0x60 SWAP5 SWAP3 SWAP4 DUP5 SWAP4 DUP5 SWAP4 DUP5 SWAP4 DUP5 SWAP4 DUP5 SWAP4 DUP5 SWAP4 SWAP1 SWAP3 SWAP1 SWAP2 SWAP1 DUP4 ADD DUP3 DUP3 DUP1 ISZERO PUSH2 0x4183 JUMPI PUSH1 0x20 MUL DUP3 ADD SWAP2 SWAP1 PUSH1 0x0 MSTORE PUSH1 0x20 PUSH1 0x0 KECCAK256 SWAP1 JUMPDEST DUP2 SLOAD PUSH1 0x1 PUSH1 0x1 PUSH1 0xA0 SHL SUB AND DUP2 MSTORE PUSH1 0x1 SWAP1 SWAP2 ADD SWAP1 PUSH1 0x20 ADD DUP1 DUP4 GT PUSH2 0x4165 JUMPI JUMPDEST POP POP POP POP POP SWAP8 POP PUSH1 0x94 PUSH1 0x0 DUP13 PUSH1 0x1 PUSH1 0x1 PUSH1 0xA0 SHL SUB AND PUSH1 0x1 PUSH1 0x1 PUSH1 0xA0 SHL SUB AND DUP2 MSTORE PUSH1 0x20 ADD SWAP1 DUP2 MSTORE PUSH1 0x20 ADD PUSH1 0x0 KECCAK256 SLOAD SWAP7 POP PUSH1 0x95 PUSH1 0x0 DUP13 PUSH1 0x1 PUSH1 0x1 PUSH1 0xA0 SHL SUB AND PUSH1 0x1 PUSH1 0x1 PUSH1 0xA0 SHL SUB AND DUP2 MSTORE PUSH1 0x20 ADD SWAP1 DUP2 MSTORE PUSH1 0x20 ADD PUSH1 0x0 KECCAK256 SLOAD SWAP6 POP PUSH1 0x96 PUSH1 0x0 DUP13 PUSH1 0x1 PUSH1 0x1 PUSH1 0xA0 SHL SUB AND PUSH1 0x1 PUSH1 0x1 PUSH1 0xA0 SHL SUB AND DUP2 MSTORE PUSH1 0x20 ADD SWAP1 DUP2 MSTORE PUSH1 0x20 ADD PUSH1 0x0 KECCAK256 SLOAD SWAP5 POP PUSH1 0x97 PUSH1 0x0 DUP13 PUSH1 0x1 PUSH1 0x1 PUSH1 0xA0 SHL SUB AND PUSH1 0x1 PUSH1 0x1 PUSH1 0xA0 SHL SUB AND DUP2 MSTORE PUSH1 0x20 ADD SWAP1 DUP2 MSTORE PUSH1 0x20 ADD PUSH1 0x0 KECCAK256 SLOAD SWAP4 POP PUSH1 0x98 PUSH1 0x0 DUP13 PUSH1 0x1 PUSH1 0x1 PUSH1 0xA0 SHL SUB AND PUSH1 0x1 PUSH1 0x1 PUSH1 0xA0 SHL SUB AND DUP2 MSTORE PUSH1 0x20 ADD SWAP1 DUP2 MSTORE PUSH1 0x20 ADD PUSH1 0x0 KECCAK256 SLOAD SWAP3 POP PUSH1 0x99 PUSH1 0x0 DUP13 PUSH1 0x1 PUSH1 0x1 PUSH1 0xA0 SHL SUB AND PUSH1 0x1 PUSH1 0x1 PUSH1 0xA0 SHL SUB AND DUP2 MSTORE PUSH1 0x20 ADD SWAP1 DUP2 MSTORE PUSH1 0x20 ADD PUSH1 0x0 KECCAK256 SLOAD SWAP2 POP PUSH1 0x9A PUSH1 0x0 DUP13 PUSH1 0x1 PUSH1 0x1 PUSH1 0xA0 SHL SUB AND PUSH1 0x1 PUSH1 0x1 PUSH1 0xA0 SHL SUB AND DUP2 MSTORE PUSH1 0x20 ADD SWAP1 DUP2 MSTORE PUSH1 0x20 ADD PUSH1 0x0 KECCAK256 SLOAD SWAP1 POP SWAP2 SWAP4 SWAP6 SWAP8 SWAP10 POP SWAP2 SWAP4 SWAP6 SWAP8 SWAP10 JUMP JUMPDEST PUSH2 0x42B7 PUSH2 0x4630 JUMP JUMPDEST PUSH1 0x84 SSTORE JUMP JUMPDEST PUSH1 0x0 JUMPDEST PUSH1 0xA2 SLOAD DUP2 LT ISZERO PUSH2 0x4316 JUMPI DUP2 PUSH1 0x1 PUSH1 0x1 PUSH1 0xA0 SHL SUB AND PUSH1 0xA2 DUP3 DUP2 SLOAD DUP2 LT PUSH2 0x42E6 JUMPI PUSH2 0x42E6 PUSH2 0x752E JUMP JUMPDEST PUSH1 0x0 SWAP2 DUP3 MSTORE PUSH1 0x20 SWAP1 SWAP2 KECCAK256 ADD SLOAD PUSH1 0x1 PUSH1 0x1 PUSH1 0xA0 SHL SUB AND SUB PUSH2 0x4304 JUMPI POP POP JUMP JUMPDEST DUP1 PUSH2 0x430E DUP2 PUSH2 0x756D JUMP JUMPDEST SWAP2 POP POP PUSH2 0x42BF JUMP JUMPDEST POP PUSH1 0xA2 DUP1 SLOAD PUSH1 0x1 DUP2 ADD DUP3 SSTORE PUSH1 0x0 SWAP2 SWAP1 SWAP2 MSTORE PUSH32 0xAAF4F58DE99300CFADC4585755F376D5FA747D5BC561D5BD9D710DE1F91BF42D ADD DUP1 SLOAD PUSH1 0x1 PUSH1 0x1 PUSH1 0xA0 SHL SUB NOT AND PUSH1 0x1 PUSH1 0x1 PUSH1 0xA0 SHL SUB SWAP3 SWAP1 SWAP3 AND SWAP2 SWAP1 SWAP2 OR SWAP1 SSTORE JUMP JUMPDEST PUSH1 0x0 JUMPDEST PUSH1 0xA1 SLOAD DUP2 LT ISZERO PUSH2 0x43C3 JUMPI DUP2 PUSH1 0x1 PUSH1 0x1 PUSH1 0xA0 SHL SUB AND PUSH1 0xA1 DUP3 DUP2 SLOAD DUP2 LT PUSH2 0x4393 JUMPI PUSH2 0x4393 PUSH2 0x752E JUMP JUMPDEST PUSH1 0x0 SWAP2 DUP3 MSTORE PUSH1 0x20 SWAP1 SWAP2 KECCAK256 ADD SLOAD PUSH1 0x1 PUSH1 0x1 PUSH1 0xA0 SHL SUB AND SUB PUSH2 0x43B1 JUMPI POP POP JUMP JUMPDEST DUP1 PUSH2 0x43BB DUP2 PUSH2 0x756D JUMP JUMPDEST SWAP2 POP POP PUSH2 0x436C JUMP JUMPDEST POP PUSH1 0xA1 DUP1 SLOAD PUSH1 0x1 DUP2 ADD DUP3 SSTORE PUSH1 0x0 SWAP2 SWAP1 SWAP2 MSTORE PUSH32 0xAADC37B8BA5645E62F4546802DB221593A94729CCBFC5A97D01365A88F649878 ADD DUP1 SLOAD PUSH1 0x1 PUSH1 0x1 PUSH1 0xA0 SHL SUB NOT AND PUSH1 0x1 PUSH1 0x1 PUSH1 0xA0 SHL SUB SWAP3 SWAP1 SWAP3 AND SWAP2 SWAP1 SWAP2 OR SWAP1 SSTORE JUMP JUMPDEST PUSH1 0x0 JUMPDEST PUSH1 0xA2 SLOAD DUP2 LT ISZERO PUSH2 0x4534 JUMPI DUP2 PUSH1 0x1 PUSH1 0x1 PUSH1 0xA0 SHL SUB AND PUSH1 0xA2 DUP3 DUP2 SLOAD DUP2 LT PUSH2 0x4440 JUMPI PUSH2 0x4440 PUSH2 0x752E JUMP JUMPDEST PUSH1 0x0 SWAP2 DUP3 MSTORE PUSH1 0x20 SWAP1 SWAP2 KECCAK256 ADD SLOAD PUSH1 0x1 PUSH1 0x1 PUSH1 0xA0 SHL SUB AND SUB PUSH2 0x4522 JUMPI PUSH1 0xA2 SLOAD PUSH2 0x4469 SWAP1 PUSH1 0x1 SWAP1 PUSH2 0x7586 JUMP JUMPDEST DUP2 LT ISZERO PUSH2 0x44EB JUMPI PUSH1 0xA2 DUP1 SLOAD PUSH2 0x4480 SWAP1 PUSH1 0x1 SWAP1 PUSH2 0x7586 JUMP JUMPDEST DUP2 SLOAD DUP2 LT PUSH2 0x4490 JUMPI PUSH2 0x4490 PUSH2 0x752E JUMP JUMPDEST PUSH1 0x0 SWAP2 DUP3 MSTORE PUSH1 0x20 SWAP1 SWAP2 KECCAK256 ADD SLOAD PUSH1 0xA2 DUP1 SLOAD PUSH1 0x1 PUSH1 0x1 PUSH1 0xA0 SHL SUB SWAP1 SWAP3 AND SWAP2 DUP4 SWAP1 DUP2 LT PUSH2 0x44BC JUMPI PUSH2 0x44BC PUSH2 0x752E JUMP JUMPDEST SWAP1 PUSH1 0x0 MSTORE PUSH1 0x20 PUSH1 0x0 KECCAK256 ADD PUSH1 0x0 PUSH2 0x100 EXP DUP2 SLOAD DUP2 PUSH1 0x1 PUSH1 0x1 PUSH1 0xA0 SHL SUB MUL NOT AND SWAP1 DUP4 PUSH1 0x1 PUSH1 0x1 PUSH1 0xA0 SHL SUB AND MUL OR SWAP1 SSTORE POP JUMPDEST PUSH1 0xA2 DUP1 SLOAD DUP1 PUSH2 0x44FC JUMPI PUSH2 0x44FC PUSH2 0x76BA JUMP JUMPDEST PUSH1 0x0 DUP3 DUP2 MSTORE PUSH1 0x20 SWAP1 KECCAK256 DUP2 ADD PUSH1 0x0 NOT SWAP1 DUP2 ADD DUP1 SLOAD PUSH1 0x1 PUSH1 0x1 PUSH1 0xA0 SHL SUB NOT AND SWAP1 SSTORE ADD SWAP1 SSTORE POP POP JUMP JUMPDEST DUP1 PUSH2 0x452C DUP2 PUSH2 0x756D JUMP JUMPDEST SWAP2 POP POP PUSH2 0x4419 JUMP JUMPDEST POP POP JUMP JUMPDEST PUSH1 0x0 JUMPDEST PUSH1 0xA1 SLOAD DUP2 LT ISZERO PUSH2 0x4534 JUMPI DUP2 PUSH1 0x1 PUSH1 0x1 PUSH1 0xA0 SHL SUB AND PUSH1 0xA1 DUP3 DUP2 SLOAD DUP2 LT PUSH2 0x4562 JUMPI PUSH2 0x4562 PUSH2 0x752E JUMP JUMPDEST PUSH1 0x0 SWAP2 DUP3 MSTORE PUSH1 0x20 SWAP1 SWAP2 KECCAK256 ADD SLOAD PUSH1 0x1 PUSH1 0x1 PUSH1 0xA0 SHL SUB AND SUB PUSH2 0x461E JUMPI PUSH1 0xA1 SLOAD PUSH2 0x458B SWAP1 PUSH1 0x1 SWAP1 PUSH2 0x7586 JUMP JUMPDEST DUP2 LT ISZERO PUSH2 0x460D JUMPI PUSH1 0xA1 DUP1 SLOAD PUSH2 0x45A2 SWAP1 PUSH1 0x1 SWAP1 PUSH2 0x7586 JUMP JUMPDEST DUP2 SLOAD DUP2 LT PUSH2 0x45B2 JUMPI PUSH2 0x45B2 PUSH2 0x752E JUMP JUMPDEST PUSH1 0x0 SWAP2 DUP3 MSTORE PUSH1 0x20 SWAP1 SWAP2 KECCAK256 ADD SLOAD PUSH1 0xA1 DUP1 SLOAD PUSH1 0x1 PUSH1 0x1 PUSH1 0xA0 SHL SUB SWAP1 SWAP3 AND SWAP2 DUP4 SWAP1 DUP2 LT PUSH2 0x45DE JUMPI PUSH2 0x45DE PUSH2 0x752E JUMP JUMPDEST SWAP1 PUSH1 0x0 MSTORE PUSH1 0x20 PUSH1 0x0 KECCAK256 ADD PUSH1 0x0 PUSH2 0x100 EXP DUP2 SLOAD DUP2 PUSH1 0x1 PUSH1 0x1 PUSH1 0xA0 SHL SUB MUL NOT AND SWAP1 DUP4 PUSH1 0x1 PUSH1 0x1 PUSH1 0xA0 SHL SUB AND MUL OR SWAP1 SSTORE POP JUMPDEST PUSH1 0xA1 DUP1 SLOAD DUP1 PUSH2 0x44FC JUMPI PUSH2 0x44FC PUSH2 0x76BA JUMP JUMPDEST DUP1 PUSH2 0x4628 DUP2 PUSH2 0x756D JUMP JUMPDEST SWAP2 POP POP PUSH2 0x453B JUMP JUMPDEST PUSH1 0x33 SLOAD PUSH1 0x1 PUSH1 0x1 PUSH1 0xA0 SHL SUB AND CALLER EQ PUSH2 0x2E34 JUMPI PUSH1 0x40 MLOAD PUSH3 0x461BCD PUSH1 0xE5 SHL DUP2 MSTORE PUSH1 0x20 PUSH1 0x4 DUP3 ADD DUP2 SWAP1 MSTORE PUSH1 0x24 DUP3 ADD MSTORE PUSH32 0x4F776E61626C653A2063616C6C6572206973206E6F7420746865206F776E6572 PUSH1 0x44 DUP3 ADD MSTORE PUSH1 0x64 ADD PUSH2 0x16F4 JUMP JUMPDEST PUSH1 0x1 PUSH1 0x1 PUSH1 0xA0 SHL SUB DUP1 DUP3 AND PUSH1 0x0 SWAP1 DUP2 MSTORE PUSH1 0x72 PUSH1 0x20 MSTORE PUSH1 0x40 SWAP1 KECCAK256 SLOAD AND JUMPDEST PUSH1 0x1 PUSH1 0x1 PUSH1 0xA0 SHL SUB DUP2 AND ISZERO PUSH2 0x4534 JUMPI PUSH1 0x1 PUSH1 0x1 PUSH1 0xA0 SHL SUB DUP2 AND PUSH1 0x0 SWAP1 DUP2 MSTORE PUSH1 0x79 PUSH1 0x20 MSTORE PUSH1 0x40 DUP2 KECCAK256 DUP1 SLOAD PUSH1 0x1 SWAP3 SWAP1 PUSH2 0x46DE SWAP1 DUP5 SWAP1 PUSH2 0x7586 JUMP JUMPDEST SWAP1 SWAP2 SSTORE POP PUSH2 0x46ED SWAP1 POP DUP2 PUSH2 0x1183 JUMP JUMPDEST PUSH1 0x1 PUSH1 0x1 PUSH1 0xA0 SHL SUB SWAP1 DUP2 AND PUSH1 0x0 SWAP1 DUP2 MSTORE PUSH1 0x72 PUSH1 0x20 MSTORE PUSH1 0x40 SWAP1 KECCAK256 SLOAD AND PUSH2 0x46A6 JUMP JUMPDEST PUSH1 0x1 PUSH1 0x1 PUSH1 0xA0 SHL SUB DUP1 DUP4 AND PUSH1 0x0 SWAP1 DUP2 MSTORE PUSH1 0x73 PUSH1 0x20 MSTORE PUSH1 0x40 DUP2 KECCAK256 SLOAD PUSH1 0x8A SLOAD SWAP3 AND SWAP2 DUP5 SWAP2 SWAP1 DUP2 SWAP1 DUP2 SWAP1 DUP2 SWAP1 PUSH2 0x3E8 SWAP1 PUSH2 0x4745 SWAP1 DUP10 SWAP1 PUSH2 0x762B JUMP JUMPDEST PUSH2 0x474F SWAP2 SWAP1 PUSH2 0x7642 JUMP JUMPDEST PUSH1 0x66 SLOAD PUSH1 0xA6 SLOAD PUSH1 0x8B SLOAD SWAP3 SWAP4 POP PUSH1 0x1 PUSH1 0x1 PUSH1 0xA0 SHL SUB SWAP2 DUP3 AND SWAP3 PUSH4 0xD9EA1B22 SWAP3 SWAP1 SWAP2 AND SWAP1 PUSH2 0x3E8 SWAP1 PUSH2 0x4780 SWAP1 DUP13 SWAP1 PUSH2 0x762B JUMP JUMPDEST PUSH2 0x478A SWAP2 SWAP1 PUSH2 0x7642 JUMP JUMPDEST PUSH1 0x40 MLOAD DUP4 PUSH4 0xFFFFFFFF AND PUSH1 0xE0 SHL DUP2 MSTORE PUSH1 0x4 ADD PUSH2 0x47A7 SWAP3 SWAP2 SWAP1 PUSH2 0x75AF JUMP JUMPDEST PUSH1 0x20 PUSH1 0x40 MLOAD DUP1 DUP4 SUB DUP2 PUSH1 0x0 DUP8 GAS CALL ISZERO DUP1 ISZERO PUSH2 0x47C6 JUMPI RETURNDATASIZE PUSH1 0x0 DUP1 RETURNDATACOPY RETURNDATASIZE PUSH1 0x0 REVERT JUMPDEST POP POP POP POP PUSH1 0x40 MLOAD RETURNDATASIZE PUSH1 0x1F NOT PUSH1 0x1F DUP3 ADD AND DUP3 ADD DUP1 PUSH1 0x40 MSTORE POP DUP2 ADD SWAP1 PUSH2 0x47EA SWAP2 SWAP1 PUSH2 0x75C8 JUMP JUMPDEST SWAP3 POP DUP3 PUSH2 0x4809 JUMPI PUSH1 0x40 MLOAD PUSH3 0x461BCD PUSH1 0xE5 SHL DUP2 MSTORE PUSH1 0x4 ADD PUSH2 0x16F4 SWAP1 PUSH2 0x76D0 JUMP JUMPDEST PUSH1 0x0 JUMPDEST PUSH1 0x8C SLOAD DUP2 LT ISZERO PUSH2 0x34A2 JUMPI PUSH1 0x1 PUSH1 0x1 PUSH1 0xA0 SHL SUB DUP8 AND PUSH2 0x48CB JUMPI PUSH1 0x66 SLOAD PUSH1 0xA6 SLOAD PUSH1 0x1 PUSH1 0x1 PUSH1 0xA0 SHL SUB SWAP2 DUP3 AND SWAP2 PUSH4 0xD9EA1B22 SWAP2 AND PUSH2 0x4847 DUP7 DUP7 PUSH2 0x7586 JUMP JUMPDEST PUSH1 0x40 MLOAD DUP4 PUSH4 0xFFFFFFFF AND PUSH1 0xE0 SHL DUP2 MSTORE PUSH1 0x4 ADD PUSH2 0x4864 SWAP3 SWAP2 SWAP1 PUSH2 0x75AF JUMP JUMPDEST PUSH1 0x20 PUSH1 0x40 MLOAD DUP1 DUP4 SUB DUP2 PUSH1 0x0 DUP8 GAS CALL ISZERO DUP1 ISZERO PUSH2 0x4883 JUMPI RETURNDATASIZE PUSH1 0x0 DUP1 RETURNDATACOPY RETURNDATASIZE PUSH1 0x0 REVERT JUMPDEST POP POP POP POP PUSH1 0x40 MLOAD RETURNDATASIZE PUSH1 0x1F NOT PUSH1 0x1F DUP3 ADD AND DUP3 ADD DUP1 PUSH1 0x40 MSTORE POP DUP2 ADD SWAP1 PUSH2 0x48A7 SWAP2 SWAP1 PUSH2 0x75C8 JUMP JUMPDEST SWAP4 POP DUP4 PUSH2 0x48C6 JUMPI PUSH1 0x40 MLOAD PUSH3 0x461BCD PUSH1 0xE5 SHL DUP2 MSTORE PUSH1 0x4 ADD PUSH2 0x16F4 SWAP1 PUSH2 0x76D0 JUMP JUMPDEST PUSH2 0x34A2 JUMP JUMPDEST PUSH2 0x48DF DUP8 PUSH2 0x48DA DUP4 PUSH1 0x1 PUSH2 0x755A JUMP JUMPDEST PUSH2 0x5CCF JUMP JUMPDEST ISZERO PUSH2 0x4AFB JUMPI PUSH2 0x3E8 DUP9 PUSH1 0x80 SLOAD PUSH2 0x48F5 SWAP2 SWAP1 PUSH2 0x762B JUMP JUMPDEST PUSH2 0x48FF SWAP2 SWAP1 PUSH2 0x7642 JUMP JUMPDEST PUSH1 0x1 PUSH1 0x1 PUSH1 0xA0 SHL SUB DUP9 AND PUSH1 0x0 SWAP1 DUP2 MSTORE PUSH1 0x74 PUSH1 0x20 MSTORE PUSH1 0x40 DUP2 KECCAK256 SLOAD SWAP2 SWAP7 POP PUSH1 0xFF SWAP1 SWAP2 AND ISZERO ISZERO SWAP1 SUB PUSH2 0x49C5 JUMPI PUSH1 0x66 SLOAD PUSH1 0xA6 SLOAD PUSH1 0x40 MLOAD PUSH4 0x6CF50D91 PUSH1 0xE1 SHL DUP2 MSTORE PUSH1 0x1 PUSH1 0x1 PUSH1 0xA0 SHL SUB SWAP3 DUP4 AND SWAP3 PUSH4 0xD9EA1B22 SWAP3 PUSH2 0x495E SWAP3 SWAP2 AND SWAP1 DUP10 SWAP1 PUSH1 0x4 ADD PUSH2 0x75AF JUMP JUMPDEST PUSH1 0x20 PUSH1 0x40 MLOAD DUP1 DUP4 SUB DUP2 PUSH1 0x0 DUP8 GAS CALL ISZERO DUP1 ISZERO PUSH2 0x497D JUMPI RETURNDATASIZE PUSH1 0x0 DUP1 RETURNDATACOPY RETURNDATASIZE PUSH1 0x0 REVERT JUMPDEST POP POP POP POP PUSH1 0x40 MLOAD RETURNDATASIZE PUSH1 0x1F NOT PUSH1 0x1F DUP3 ADD AND DUP3 ADD DUP1 PUSH1 0x40 MSTORE POP DUP2 ADD SWAP1 PUSH2 0x49A1 SWAP2 SWAP1 PUSH2 0x75C8 JUMP JUMPDEST SWAP4 POP DUP4 PUSH2 0x49C0 JUMPI PUSH1 0x40 MLOAD PUSH3 0x461BCD PUSH1 0xE5 SHL DUP2 MSTORE PUSH1 0x4 ADD PUSH2 0x16F4 SWAP1 PUSH2 0x76D0 JUMP JUMPDEST PUSH2 0x4AA5 JUMP JUMPDEST PUSH2 0x49CF DUP8 DUP7 PUSH2 0x5F1B JUMP JUMPDEST PUSH2 0x49D9 SWAP1 DUP5 PUSH2 0x755A JUMP JUMPDEST PUSH1 0x66 SLOAD PUSH1 0x40 MLOAD PUSH4 0x6CF50D91 PUSH1 0xE1 SHL DUP2 MSTORE SWAP2 SWAP5 POP PUSH1 0x1 PUSH1 0x1 PUSH1 0xA0 SHL SUB AND SWAP1 PUSH4 0xD9EA1B22 SWAP1 PUSH2 0x4A0C SWAP1 DUP11 SWAP1 DUP10 SWAP1 PUSH1 0x4 ADD PUSH2 0x75AF JUMP JUMPDEST PUSH1 0x20 PUSH1 0x40 MLOAD DUP1 DUP4 SUB DUP2 PUSH1 0x0 DUP8 GAS CALL ISZERO DUP1 ISZERO PUSH2 0x4A2B JUMPI RETURNDATASIZE PUSH1 0x0 DUP1 RETURNDATACOPY RETURNDATASIZE PUSH1 0x0 REVERT JUMPDEST POP POP POP POP PUSH1 0x40 MLOAD RETURNDATASIZE PUSH1 0x1F NOT PUSH1 0x1F DUP3 ADD AND DUP3 ADD DUP1 PUSH1 0x40 MSTORE POP DUP2 ADD SWAP1 PUSH2 0x4A4F SWAP2 SWAP1 PUSH2 0x75C8 JUMP JUMPDEST POP PUSH1 0x40 DUP1 MLOAD PUSH1 0x1 PUSH1 0x1 PUSH1 0xA0 SHL SUB DUP10 AND DUP2 MSTORE PUSH1 0x20 DUP2 ADD DUP8 SWAP1 MSTORE TIMESTAMP DUP2 DUP4 ADD MSTORE PUSH1 0x80 PUSH1 0x60 DUP3 ADD DUP2 SWAP1 MSTORE PUSH1 0x6 SWAP1 DUP3 ADD MSTORE PUSH6 0x9AC2E8E4D2F PUSH1 0xD3 SHL PUSH1 0xA0 DUP3 ADD MSTORE SWAP1 MLOAD PUSH1 0x0 DUP1 MLOAD PUSH1 0x20 PUSH2 0x787B DUP4 CODECOPY DUP2 MLOAD SWAP2 MSTORE SWAP2 DUP2 SWAP1 SUB PUSH1 0xC0 ADD SWAP1 LOG1 JUMPDEST PUSH2 0x4AAF DUP6 DUP5 PUSH2 0x755A JUMP JUMPDEST PUSH1 0x1 PUSH1 0x1 PUSH1 0xA0 SHL SUB DUP9 AND PUSH1 0x0 SWAP1 DUP2 MSTORE PUSH1 0x95 PUSH1 0x20 MSTORE PUSH1 0x40 DUP2 KECCAK256 DUP1 SLOAD SWAP3 SWAP6 POP DUP8 SWAP3 SWAP1 SWAP2 SWAP1 PUSH2 0x4ADC SWAP1 DUP5 SWAP1 PUSH2 0x755A JUMP JUMPDEST SWAP3 POP POP DUP2 SWAP1 SSTORE POP DUP5 PUSH1 0x87 PUSH1 0x0 DUP3 DUP3 SLOAD PUSH2 0x4AF5 SWAP2 SWAP1 PUSH2 0x755A JUMP JUMPDEST SWAP1 SWAP2 SSTORE POP POP JUMPDEST PUSH1 0x1 PUSH1 0x1 PUSH1 0xA0 SHL SUB DUP1 DUP9 AND PUSH1 0x0 SWAP1 DUP2 MSTORE PUSH1 0x73 PUSH1 0x20 MSTORE PUSH1 0x40 SWAP1 KECCAK256 SLOAD AND SWAP7 SWAP6 POP DUP1 PUSH2 0x4B23 DUP2 PUSH2 0x756D JUMP JUMPDEST SWAP2 POP POP PUSH2 0x480C JUMP JUMPDEST PUSH1 0xA1 SLOAD PUSH1 0x0 DUP2 ISZERO PUSH2 0x4E07 JUMPI PUSH1 0x0 JUMPDEST DUP3 DUP2 LT ISZERO PUSH2 0x1231 JUMPI PUSH1 0x0 PUSH2 0x3E8 DUP5 PUSH1 0xA3 SLOAD DUP8 PUSH2 0x4B55 SWAP2 SWAP1 PUSH2 0x762B JUMP JUMPDEST PUSH2 0x4B5F SWAP2 SWAP1 PUSH2 0x7642 JUMP JUMPDEST PUSH2 0x4B69 SWAP2 SWAP1 PUSH2 0x7642 JUMP JUMPDEST SWAP1 POP PUSH1 0x74 PUSH1 0x0 PUSH1 0xA1 DUP5 DUP2 SLOAD DUP2 LT PUSH2 0x4B82 JUMPI PUSH2 0x4B82 PUSH2 0x752E JUMP JUMPDEST PUSH1 0x0 SWAP2 DUP3 MSTORE PUSH1 0x20 DUP1 DUP4 KECCAK256 SWAP1 SWAP2 ADD SLOAD PUSH1 0x1 PUSH1 0x1 PUSH1 0xA0 SHL SUB AND DUP4 MSTORE DUP3 ADD SWAP3 SWAP1 SWAP3 MSTORE PUSH1 0x40 ADD DUP2 KECCAK256 SLOAD PUSH1 0xFF AND ISZERO ISZERO SWAP1 SUB PUSH2 0x4C4F JUMPI PUSH1 0x66 SLOAD PUSH1 0xA6 SLOAD PUSH1 0x40 MLOAD PUSH4 0x6CF50D91 PUSH1 0xE1 SHL DUP2 MSTORE PUSH1 0x1 PUSH1 0x1 PUSH1 0xA0 SHL SUB SWAP3 DUP4 AND SWAP3 PUSH4 0xD9EA1B22 SWAP3 PUSH2 0x4BE8 SWAP3 SWAP2 AND SWAP1 DUP6 SWAP1 PUSH1 0x4 ADD PUSH2 0x75AF JUMP JUMPDEST PUSH1 0x20 PUSH1 0x40 MLOAD DUP1 DUP4 SUB DUP2 PUSH1 0x0 DUP8 GAS CALL ISZERO DUP1 ISZERO PUSH2 0x4C07 JUMPI RETURNDATASIZE PUSH1 0x0 DUP1 RETURNDATACOPY RETURNDATASIZE PUSH1 0x0 REVERT JUMPDEST POP POP POP POP PUSH1 0x40 MLOAD RETURNDATASIZE PUSH1 0x1F NOT PUSH1 0x1F DUP3 ADD AND DUP3 ADD DUP1 PUSH1 0x40 MSTORE POP DUP2 ADD SWAP1 PUSH2 0x4C2B SWAP2 SWAP1 PUSH2 0x75C8 JUMP JUMPDEST SWAP3 POP DUP3 PUSH2 0x4C4A JUMPI PUSH1 0x40 MLOAD PUSH3 0x461BCD PUSH1 0xE5 SHL DUP2 MSTORE PUSH1 0x4 ADD PUSH2 0x16F4 SWAP1 PUSH2 0x7711 JUMP JUMPDEST PUSH2 0x4D88 JUMP JUMPDEST PUSH1 0x66 SLOAD PUSH1 0xA1 DUP1 SLOAD PUSH1 0x1 PUSH1 0x1 PUSH1 0xA0 SHL SUB SWAP1 SWAP3 AND SWAP2 PUSH4 0xD9EA1B22 SWAP2 SWAP1 DUP6 SWAP1 DUP2 LT PUSH2 0x4C79 JUMPI PUSH2 0x4C79 PUSH2 0x752E JUMP JUMPDEST PUSH1 0x0 SWAP2 DUP3 MSTORE PUSH1 0x20 SWAP1 SWAP2 KECCAK256 ADD SLOAD PUSH1 0x40 MLOAD PUSH1 0x1 PUSH1 0x1 PUSH1 0xE0 SHL SUB NOT PUSH1 0xE0 DUP5 SWAP1 SHL AND DUP2 MSTORE PUSH2 0x4CB1 SWAP2 PUSH1 0x1 PUSH1 0x1 PUSH1 0xA0 SHL SUB AND SWAP1 DUP6 SWAP1 PUSH1 0x4 ADD PUSH2 0x75AF JUMP JUMPDEST PUSH1 0x20 PUSH1 0x40 MLOAD DUP1 DUP4 SUB DUP2 PUSH1 0x0 DUP8 GAS CALL ISZERO DUP1 ISZERO PUSH2 0x4CD0 JUMPI RETURNDATASIZE PUSH1 0x0 DUP1 RETURNDATACOPY RETURNDATASIZE PUSH1 0x0 REVERT JUMPDEST POP POP POP POP PUSH1 0x40 MLOAD RETURNDATASIZE PUSH1 0x1F NOT PUSH1 0x1F DUP3 ADD AND DUP3 ADD DUP1 PUSH1 0x40 MSTORE POP DUP2 ADD SWAP1 PUSH2 0x4CF4 SWAP2 SWAP1 PUSH2 0x75C8 JUMP JUMPDEST SWAP3 POP PUSH1 0x0 DUP1 MLOAD PUSH1 0x20 PUSH2 0x787B DUP4 CODECOPY DUP2 MLOAD SWAP2 MSTORE PUSH1 0xA1 DUP4 DUP2 SLOAD DUP2 LT PUSH2 0x4D18 JUMPI PUSH2 0x4D18 PUSH2 0x752E JUMP JUMPDEST PUSH1 0x0 SWAP2 DUP3 MSTORE PUSH1 0x20 SWAP2 DUP3 SWAP1 KECCAK256 ADD SLOAD PUSH1 0x40 DUP1 MLOAD PUSH1 0x1 PUSH1 0x1 PUSH1 0xA0 SHL SUB SWAP1 SWAP3 AND DUP3 MSTORE SWAP2 DUP2 ADD DUP5 SWAP1 MSTORE TIMESTAMP DUP2 DUP4 ADD MSTORE PUSH1 0x80 PUSH1 0x60 DUP3 ADD DUP2 SWAP1 MSTORE PUSH1 0x7 SWAP1 DUP3 ADD MSTORE PUSH7 0x111A585B5BDB99 PUSH1 0xCA SHL PUSH1 0xA0 DUP3 ADD MSTORE SWAP1 MLOAD SWAP1 DUP2 SWAP1 SUB PUSH1 0xC0 ADD SWAP1 LOG1 DUP3 PUSH2 0x4D88 JUMPI PUSH1 0x40 MLOAD PUSH3 0x461BCD PUSH1 0xE5 SHL DUP2 MSTORE PUSH1 0x4 ADD PUSH2 0x16F4 SWAP1 PUSH2 0x7711 JUMP JUMPDEST DUP1 PUSH1 0x99 PUSH1 0x0 PUSH1 0xA1 DUP6 DUP2 SLOAD DUP2 LT PUSH2 0x4DA0 JUMPI PUSH2 0x4DA0 PUSH2 0x752E JUMP JUMPDEST PUSH1 0x0 SWAP2 DUP3 MSTORE PUSH1 0x20 DUP1 DUP4 KECCAK256 SWAP1 SWAP2 ADD SLOAD PUSH1 0x1 PUSH1 0x1 PUSH1 0xA0 SHL SUB AND DUP4 MSTORE DUP3 ADD SWAP3 SWAP1 SWAP3 MSTORE PUSH1 0x40 ADD DUP2 KECCAK256 DUP1 SLOAD SWAP1 SWAP2 SWAP1 PUSH2 0x4DD4 SWAP1 DUP5 SWAP1 PUSH2 0x755A JUMP JUMPDEST SWAP3 POP POP DUP2 SWAP1 SSTORE POP DUP1 PUSH1 0x91 PUSH1 0x0 DUP3 DUP3 SLOAD PUSH2 0x4DED SWAP2 SWAP1 PUSH2 0x755A JUMP JUMPDEST SWAP1 SWAP2 SSTORE POP DUP3 SWAP2 POP PUSH2 0x4DFF SWAP1 POP DUP2 PUSH2 0x756D JUMP JUMPDEST SWAP2 POP POP PUSH2 0x4B39 JUMP JUMPDEST PUSH1 0x66 SLOAD PUSH1 0xA6 SLOAD PUSH1 0xA3 SLOAD PUSH1 0x1 PUSH1 0x1 PUSH1 0xA0 SHL SUB SWAP3 DUP4 AND SWAP3 PUSH4 0xD9EA1B22 SWAP3 AND SWAP1 PUSH2 0x3E8 SWAP1 PUSH2 0x4E32 SWAP1 DUP9 PUSH2 0x762B JUMP JUMPDEST PUSH2 0x4E3C SWAP2 SWAP1 PUSH2 0x7642 JUMP JUMPDEST PUSH1 0x40 MLOAD DUP4 PUSH4 0xFFFFFFFF AND PUSH1 0xE0 SHL DUP2 MSTORE PUSH1 0x4 ADD PUSH2 0x4E59 SWAP3 SWAP2 SWAP1 PUSH2 0x75AF JUMP JUMPDEST PUSH1 0x20 PUSH1 0x40 MLOAD DUP1 DUP4 SUB DUP2 PUSH1 0x0 DUP8 GAS CALL ISZERO DUP1 ISZERO PUSH2 0x4E78 JUMPI RETURNDATASIZE PUSH1 0x0 DUP1 RETURNDATACOPY RETURNDATASIZE PUSH1 0x0 REVERT JUMPDEST POP POP POP POP PUSH1 0x40 MLOAD RETURNDATASIZE PUSH1 0x1F NOT PUSH1 0x1F DUP3 ADD AND DUP3 ADD DUP1 PUSH1 0x40 MSTORE POP DUP2 ADD SWAP1 PUSH2 0x4E9C SWAP2 SWAP1 PUSH2 0x75C8 JUMP JUMPDEST SWAP1 POP DUP1 PUSH2 0x2F7B JUMPI PUSH1 0x40 MLOAD PUSH3 0x461BCD PUSH1 0xE5 SHL DUP2 MSTORE PUSH1 0x20 PUSH1 0x4 DUP3 ADD MSTORE PUSH1 0x2E PUSH1 0x24 DUP3 ADD MSTORE PUSH32 0x4661696C6564207472616E73666572206578747261204469616D6F6E6420626F PUSH1 0x44 DUP3 ADD MSTORE PUSH14 0x6E757320746F20636F6D70616E79 PUSH1 0x90 SHL PUSH1 0x64 DUP3 ADD MSTORE PUSH1 0x84 ADD PUSH2 0x16F4 JUMP JUMPDEST PUSH1 0xA2 SLOAD PUSH1 0x0 DUP2 ISZERO PUSH2 0x51E3 JUMPI PUSH1 0x0 JUMPDEST DUP3 DUP2 LT ISZERO PUSH2 0x1231 JUMPI PUSH1 0x0 PUSH2 0x3E8 DUP5 PUSH1 0xA4 SLOAD DUP8 PUSH2 0x4F2C SWAP2 SWAP1 PUSH2 0x762B JUMP JUMPDEST PUSH2 0x4F36 SWAP2 SWAP1 PUSH2 0x7642 JUMP JUMPDEST PUSH2 0x4F40 SWAP2 SWAP1 PUSH2 0x7642 JUMP JUMPDEST SWAP1 POP PUSH1 0x74 PUSH1 0x0 PUSH1 0xA2 DUP5 DUP2 SLOAD DUP2 LT PUSH2 0x4F59 JUMPI PUSH2 0x4F59 PUSH2 0x752E JUMP JUMPDEST PUSH1 0x0 SWAP2 DUP3 MSTORE PUSH1 0x20 DUP1 DUP4 KECCAK256 SWAP1 SWAP2 ADD SLOAD PUSH1 0x1 PUSH1 0x1 PUSH1 0xA0 SHL SUB AND DUP4 MSTORE DUP3 ADD SWAP3 SWAP1 SWAP3 MSTORE PUSH1 0x40 ADD DUP2 KECCAK256 SLOAD PUSH1 0xFF AND ISZERO ISZERO SWAP1 SUB PUSH2 0x5026 JUMPI PUSH1 0x66 SLOAD PUSH1 0xA6 SLOAD PUSH1 0x40 MLOAD PUSH4 0x6CF50D91 PUSH1 0xE1 SHL DUP2 MSTORE PUSH1 0x1 PUSH1 0x1 PUSH1 0xA0 SHL SUB SWAP3 DUP4 AND SWAP3 PUSH4 0xD9EA1B22 SWAP3 PUSH2 0x4FBF SWAP3 SWAP2 AND SWAP1 DUP6 SWAP1 PUSH1 0x4 ADD PUSH2 0x75AF JUMP JUMPDEST PUSH1 0x20 PUSH1 0x40 MLOAD DUP1 DUP4 SUB DUP2 PUSH1 0x0 DUP8 GAS CALL ISZERO DUP1 ISZERO PUSH2 0x4FDE JUMPI RETURNDATASIZE PUSH1 0x0 DUP1 RETURNDATACOPY RETURNDATASIZE PUSH1 0x0 REVERT JUMPDEST POP POP POP POP PUSH1 0x40 MLOAD RETURNDATASIZE PUSH1 0x1F NOT PUSH1 0x1F DUP3 ADD AND DUP3 ADD DUP1 PUSH1 0x40 MSTORE POP DUP2 ADD SWAP1 PUSH2 0x5002 SWAP2 SWAP1 PUSH2 0x75C8 JUMP JUMPDEST SWAP3 POP DUP3 PUSH2 0x5021 JUMPI PUSH1 0x40 MLOAD PUSH3 0x461BCD PUSH1 0xE5 SHL DUP2 MSTORE PUSH1 0x4 ADD PUSH2 0x16F4 SWAP1 PUSH2 0x7754 JUMP JUMPDEST PUSH2 0x5164 JUMP JUMPDEST PUSH1 0x66 SLOAD PUSH1 0xA2 DUP1 SLOAD PUSH1 0x1 PUSH1 0x1 PUSH1 0xA0 SHL SUB SWAP1 SWAP3 AND SWAP2 PUSH4 0xD9EA1B22 SWAP2 SWAP1 DUP6 SWAP1 DUP2 LT PUSH2 0x5050 JUMPI PUSH2 0x5050 PUSH2 0x752E JUMP JUMPDEST PUSH1 0x0 SWAP2 DUP3 MSTORE PUSH1 0x20 SWAP1 SWAP2 KECCAK256 ADD SLOAD PUSH1 0x40 MLOAD PUSH1 0x1 PUSH1 0x1 PUSH1 0xE0 SHL SUB NOT PUSH1 0xE0 DUP5 SWAP1 SHL AND DUP2 MSTORE PUSH2 0x5088 SWAP2 PUSH1 0x1 PUSH1 0x1 PUSH1 0xA0 SHL SUB AND SWAP1 DUP6 SWAP1 PUSH1 0x4 ADD PUSH2 0x75AF JUMP JUMPDEST PUSH1 0x20 PUSH1 0x40 MLOAD DUP1 DUP4 SUB DUP2 PUSH1 0x0 DUP8 GAS CALL ISZERO DUP1 ISZERO PUSH2 0x50A7 JUMPI RETURNDATASIZE PUSH1 0x0 DUP1 RETURNDATACOPY RETURNDATASIZE PUSH1 0x0 REVERT JUMPDEST POP POP POP POP PUSH1 0x40 MLOAD RETURNDATASIZE PUSH1 0x1F NOT PUSH1 0x1F DUP3 ADD AND DUP3 ADD DUP1 PUSH1 0x40 MSTORE POP DUP2 ADD SWAP1 PUSH2 0x50CB SWAP2 SWAP1 PUSH2 0x75C8 JUMP JUMPDEST SWAP3 POP PUSH1 0x0 DUP1 MLOAD PUSH1 0x20 PUSH2 0x787B DUP4 CODECOPY DUP2 MLOAD SWAP2 MSTORE PUSH1 0xA2 DUP4 DUP2 SLOAD DUP2 LT PUSH2 0x50EF JUMPI PUSH2 0x50EF PUSH2 0x752E JUMP JUMPDEST PUSH1 0x0 SWAP2 DUP3 MSTORE PUSH1 0x20 SWAP2 DUP3 SWAP1 KECCAK256 ADD SLOAD PUSH1 0x40 DUP1 MLOAD PUSH1 0x1 PUSH1 0x1 PUSH1 0xA0 SHL SUB SWAP1 SWAP3 AND DUP3 MSTORE SWAP2 DUP2 ADD DUP5 SWAP1 MSTORE TIMESTAMP DUP2 DUP4 ADD MSTORE PUSH1 0x80 PUSH1 0x60 DUP3 ADD DUP2 SWAP1 MSTORE PUSH1 0xC SWAP1 DUP3 ADD MSTORE PUSH12 0x10DC9BDDDB911A585B5BDB99 PUSH1 0xA2 SHL PUSH1 0xA0 DUP3 ADD MSTORE SWAP1 MLOAD SWAP1 DUP2 SWAP1 SUB PUSH1 0xC0 ADD SWAP1 LOG1 DUP3 PUSH2 0x5164 JUMPI PUSH1 0x40 MLOAD PUSH3 0x461BCD PUSH1 0xE5 SHL DUP2 MSTORE PUSH1 0x4 ADD PUSH2 0x16F4 SWAP1 PUSH2 0x7754 JUMP JUMPDEST DUP1 PUSH1 0x9A PUSH1 0x0 PUSH1 0xA2 DUP6 DUP2 SLOAD DUP2 LT PUSH2 0x517C JUMPI PUSH2 0x517C PUSH2 0x752E JUMP JUMPDEST PUSH1 0x0 SWAP2 DUP3 MSTORE PUSH1 0x20 DUP1 DUP4 KECCAK256 SWAP1 SWAP2 ADD SLOAD PUSH1 0x1 PUSH1 0x1 PUSH1 0xA0 SHL SUB AND DUP4 MSTORE DUP3 ADD SWAP3 SWAP1 SWAP3 MSTORE PUSH1 0x40 ADD DUP2 KECCAK256 DUP1 SLOAD SWAP1 SWAP2 SWAP1 PUSH2 0x51B0 SWAP1 DUP5 SWAP1 PUSH2 0x755A JUMP JUMPDEST SWAP3 POP POP DUP2 SWAP1 SSTORE POP DUP1 PUSH1 0x92 PUSH1 0x0 DUP3 DUP3 SLOAD PUSH2 0x51C9 SWAP2 SWAP1 PUSH2 0x755A JUMP JUMPDEST SWAP1 SWAP2 SSTORE POP DUP3 SWAP2 POP PUSH2 0x51DB SWAP1 POP DUP2 PUSH2 0x756D JUMP JUMPDEST SWAP2 POP POP PUSH2 0x4F10 JUMP JUMPDEST PUSH1 0x66 SLOAD PUSH1 0xA6 SLOAD PUSH1 0xA4 SLOAD PUSH1 0x1 PUSH1 0x1 PUSH1 0xA0 SHL SUB SWAP3 DUP4 AND SWAP3 PUSH4 0xD9EA1B22 SWAP3 AND SWAP1 PUSH2 0x3E8 SWAP1 PUSH2 0x520E SWAP1 DUP9 PUSH2 0x762B JUMP JUMPDEST PUSH2 0x5218 SWAP2 SWAP1 PUSH2 0x7642 JUMP JUMPDEST PUSH1 0x40 MLOAD DUP4 PUSH4 0xFFFFFFFF AND PUSH1 0xE0 SHL DUP2 MSTORE PUSH1 0x4 ADD PUSH2 0x5235 SWAP3 SWAP2 SWAP1 PUSH2 0x75AF JUMP JUMPDEST PUSH1 0x20 PUSH1 0x40 MLOAD DUP1 DUP4 SUB DUP2 PUSH1 0x0 DUP8 GAS CALL ISZERO DUP1 ISZERO PUSH2 0x5254 JUMPI RETURNDATASIZE PUSH1 0x0 DUP1 RETURNDATACOPY RETURNDATASIZE PUSH1 0x0 REVERT JUMPDEST POP POP POP POP PUSH1 0x40 MLOAD RETURNDATASIZE PUSH1 0x1F NOT PUSH1 0x1F DUP3 ADD AND DUP3 ADD DUP1 PUSH1 0x40 MSTORE POP DUP2 ADD SWAP1 PUSH2 0x5278 SWAP2 SWAP1 PUSH2 0x75C8 JUMP JUMPDEST SWAP1 POP DUP1 PUSH2 0x2F7B JUMPI PUSH1 0x40 MLOAD PUSH3 0x461BCD PUSH1 0xE5 SHL DUP2 MSTORE PUSH1 0x20 PUSH1 0x4 DUP3 ADD MSTORE PUSH1 0x34 PUSH1 0x24 DUP3 ADD MSTORE PUSH32 0x4661696C6564207472616E736665722065787472612043726F776E204469616D PUSH1 0x44 DUP3 ADD MSTORE PUSH20 0x6F6E6420626F6E757320746F20636F6D70616E79 PUSH1 0x60 SHL PUSH1 0x64 DUP3 ADD MSTORE PUSH1 0x84 ADD PUSH2 0x16F4 JUMP JUMPDEST PUSH1 0x33 DUP1 SLOAD PUSH1 0x1 PUSH1 0x1 PUSH1 0xA0 SHL SUB DUP4 DUP2 AND PUSH1 0x1 PUSH1 0x1 PUSH1 0xA0 SHL SUB NOT DUP4 AND DUP2 OR SWAP1 SWAP4 SSTORE PUSH1 0x40 MLOAD SWAP2 AND SWAP2 SWAP1 DUP3 SWAP1 PUSH32 0x8BE0079C531659141344CD1FD0A4F28419497F9722A3DAAFE3B4186F6B6457E0 SWAP1 PUSH1 0x0 SWAP1 LOG3 POP POP JUMP JUMPDEST PUSH1 0x0 PUSH1 0xA9 SLOAD DUP3 LT PUSH2 0x53D4 JUMPI PUSH1 0x0 PUSH1 0xA9 DUP2 SWAP1 SSTORE PUSH1 0x66 SLOAD PUSH1 0xA8 SLOAD PUSH1 0x1 PUSH1 0x1 PUSH1 0xA0 SHL SUB SWAP2 DUP3 AND SWAP3 PUSH4 0xD9EA1B22 SWAP3 SWAP1 SWAP2 AND SWAP1 PUSH2 0x536E SWAP1 DUP7 PUSH2 0x7586 JUMP JUMPDEST PUSH1 0x40 MLOAD DUP4 PUSH4 0xFFFFFFFF AND PUSH1 0xE0 SHL DUP2 MSTORE PUSH1 0x4 ADD PUSH2 0x538B SWAP3 SWAP2 SWAP1 PUSH2 0x75AF JUMP JUMPDEST PUSH1 0x20 PUSH1 0x40 MLOAD DUP1 DUP4 SUB DUP2 PUSH1 0x0 DUP8 GAS CALL ISZERO DUP1 ISZERO PUSH2 0x53AA JUMPI RETURNDATASIZE PUSH1 0x0 DUP1 RETURNDATACOPY RETURNDATASIZE PUSH1 0x0 REVERT JUMPDEST POP POP POP POP PUSH1 0x40 MLOAD RETURNDATASIZE PUSH1 0x1F NOT PUSH1 0x1F DUP3 ADD AND DUP3 ADD DUP1 PUSH1 0x40 MSTORE POP DUP2 ADD SWAP1 PUSH2 0x53CE SWAP2 SWAP1 PUSH2 0x75C8 JUMP JUMPDEST POP PUSH2 0x53EC JUMP JUMPDEST DUP2 PUSH1 0xA9 PUSH1 0x0 DUP3 DUP3 SLOAD PUSH2 0x53E6 SWAP2 SWAP1 PUSH2 0x7586 JUMP JUMPDEST SWAP1 SWAP2 SSTORE POP POP JUMPDEST POP PUSH1 0x1 SWAP2 SWAP1 POP JUMP JUMPDEST PUSH1 0x1 PUSH1 0x1 PUSH1 0xA0 SHL SUB DUP1 DUP4 AND PUSH1 0x0 SWAP1 DUP2 MSTORE PUSH1 0x73 PUSH1 0x20 SWAP1 DUP2 MSTORE PUSH1 0x40 DUP1 DUP4 KECCAK256 SLOAD PUSH1 0x72 SWAP1 SWAP3 MSTORE DUP3 KECCAK256 SLOAD PUSH1 0x8D DUP1 SLOAD SWAP3 DUP6 AND SWAP5 SWAP2 SWAP1 SWAP2 AND SWAP3 SWAP2 DUP3 SWAP2 PUSH2 0x3E8 SWAP2 DUP8 SWAP2 SWAP1 DUP5 SWAP1 PUSH2 0x543E JUMPI PUSH2 0x543E PUSH2 0x752E JUMP JUMPDEST SWAP1 PUSH1 0x0 MSTORE PUSH1 0x20 PUSH1 0x0 KECCAK256 ADD SLOAD PUSH2 0x5453 SWAP2 SWAP1 PUSH2 0x762B JUMP JUMPDEST PUSH2 0x545D SWAP2 SWAP1 PUSH2 0x7642 JUMP JUMPDEST PUSH1 0x1 PUSH1 0x1 PUSH1 0xA0 SHL SUB DUP5 AND PUSH1 0x0 SWAP1 DUP2 MSTORE PUSH1 0x74 PUSH1 0x20 MSTORE PUSH1 0x40 SWAP1 KECCAK256 SLOAD SWAP1 SWAP2 POP PUSH1 0xFF AND ISZERO ISZERO PUSH1 0x1 SUB PUSH2 0x5525 JUMPI PUSH1 0x66 SLOAD PUSH1 0x40 MLOAD PUSH4 0x6CF50D91 PUSH1 0xE1 SHL DUP2 MSTORE PUSH1 0x1 PUSH1 0x1 PUSH1 0xA0 SHL SUB SWAP1 SWAP2 AND SWAP1 PUSH4 0xD9EA1B22 SWAP1 PUSH2 0x54B7 SWAP1 DUP7 SWAP1 DUP6 SWAP1 PUSH1 0x4 ADD PUSH2 0x75AF JUMP JUMPDEST PUSH1 0x20 PUSH1 0x40 MLOAD DUP1 DUP4 SUB DUP2 PUSH1 0x0 DUP8 GAS CALL ISZERO DUP1 ISZERO PUSH2 0x54D6 JUMPI RETURNDATASIZE PUSH1 0x0 DUP1 RETURNDATACOPY RETURNDATASIZE PUSH1 0x0 REVERT JUMPDEST POP POP POP POP PUSH1 0x40 MLOAD RETURNDATASIZE PUSH1 0x1F NOT PUSH1 0x1F DUP3 ADD AND DUP3 ADD DUP1 PUSH1 0x40 MSTORE POP DUP2 ADD SWAP1 PUSH2 0x54FA SWAP2 SWAP1 PUSH2 0x75C8 JUMP JUMPDEST POP PUSH1 0x0 DUP1 MLOAD PUSH1 0x20 PUSH2 0x787B DUP4 CODECOPY DUP2 MLOAD SWAP2 MSTORE DUP4 DUP3 TIMESTAMP PUSH1 0x40 MLOAD PUSH2 0x551C SWAP4 SWAP3 SWAP2 SWAP1 PUSH2 0x7664 JUMP JUMPDEST PUSH1 0x40 MLOAD DUP1 SWAP2 SUB SWAP1 LOG1 JUMPDEST PUSH1 0x1 PUSH1 0x1 PUSH1 0xA0 SHL SUB DUP4 AND PUSH1 0x0 SWAP1 DUP2 MSTORE PUSH1 0x97 PUSH1 0x20 MSTORE PUSH1 0x40 DUP2 KECCAK256 DUP1 SLOAD DUP4 SWAP3 SWAP1 PUSH2 0x554D SWAP1 DUP5 SWAP1 PUSH2 0x755A JUMP JUMPDEST SWAP1 SWAP2 SSTORE POP PUSH1 0x0 SWAP1 POP DUP1 JUMPDEST PUSH1 0x8E SLOAD DUP2 LT ISZERO PUSH2 0x55B3 JUMPI PUSH1 0x82 SLOAD PUSH1 0x8E DUP3 DUP2 SLOAD DUP2 LT PUSH2 0x5577 JUMPI PUSH2 0x5577 PUSH2 0x752E JUMP JUMPDEST SWAP1 PUSH1 0x0 MSTORE PUSH1 0x20 PUSH1 0x0 KECCAK256 ADD SLOAD PUSH2 0x558C SWAP2 SWAP1 PUSH2 0x762B JUMP JUMPDEST DUP4 LT PUSH2 0x55B3 JUMPI PUSH1 0x9F SLOAD PUSH2 0x559F SWAP1 DUP4 PUSH2 0x755A JUMP JUMPDEST SWAP2 POP DUP1 PUSH2 0x55AB DUP2 PUSH2 0x756D JUMP JUMPDEST SWAP2 POP POP PUSH2 0x5557 JUMP JUMPDEST POP PUSH2 0x3E8 PUSH2 0x55C1 DUP3 DUP9 PUSH2 0x762B JUMP JUMPDEST PUSH2 0x55CB SWAP2 SWAP1 PUSH2 0x7642 JUMP JUMPDEST PUSH1 0x1 PUSH1 0x1 PUSH1 0xA0 SHL SUB DUP6 AND PUSH1 0x0 SWAP1 DUP2 MSTORE PUSH1 0x9B PUSH1 0x20 MSTORE PUSH1 0x40 DUP2 KECCAK256 DUP1 SLOAD SWAP1 SWAP2 SWAP1 PUSH2 0x55F3 SWAP1 DUP5 SWAP1 PUSH2 0x755A JUMP JUMPDEST SWAP1 SWAP2 SSTORE POP PUSH1 0x1 SWAP1 POP JUMPDEST PUSH1 0x8D SLOAD DUP2 LT ISZERO PUSH2 0x5851 JUMPI PUSH1 0x1 PUSH1 0x1 PUSH1 0xA0 SHL SUB DUP7 AND ISZERO PUSH2 0x5851 JUMPI PUSH2 0x5629 DUP7 PUSH2 0x5624 DUP4 PUSH1 0x1 PUSH2 0x755A JUMP JUMPDEST PUSH2 0x6517 JUMP JUMPDEST ISZERO PUSH2 0x5821 JUMPI PUSH2 0x3E8 DUP8 PUSH1 0x8D DUP4 DUP2 SLOAD DUP2 LT PUSH2 0x5645 JUMPI PUSH2 0x5645 PUSH2 0x752E JUMP JUMPDEST SWAP1 PUSH1 0x0 MSTORE PUSH1 0x20 PUSH1 0x0 KECCAK256 ADD SLOAD PUSH2 0x565A SWAP2 SWAP1 PUSH2 0x762B JUMP JUMPDEST PUSH2 0x5664 SWAP2 SWAP1 PUSH2 0x7642 JUMP JUMPDEST SWAP4 POP DUP4 ISZERO PUSH2 0x5821 JUMPI PUSH1 0x1 PUSH1 0x1 PUSH1 0xA0 SHL SUB DUP7 AND PUSH1 0x0 SWAP1 DUP2 MSTORE PUSH1 0x74 PUSH1 0x20 MSTORE PUSH1 0x40 SWAP1 KECCAK256 SLOAD PUSH1 0xFF AND ISZERO ISZERO PUSH1 0x1 SUB PUSH2 0x57DA JUMPI PUSH1 0x66 SLOAD PUSH1 0x40 MLOAD PUSH4 0x6CF50D91 PUSH1 0xE1 SHL DUP2 MSTORE PUSH1 0x1 PUSH1 0x1 PUSH1 0xA0 SHL SUB SWAP1 SWAP2 AND SWAP1 PUSH4 0xD9EA1B22 SWAP1 PUSH2 0x56C3 SWAP1 DUP10 SWAP1 DUP9 SWAP1 PUSH1 0x4 ADD PUSH2 0x75AF JUMP JUMPDEST PUSH1 0x20 PUSH1 0x40 MLOAD DUP1 DUP4 SUB DUP2 PUSH1 0x0 DUP8 GAS CALL ISZERO DUP1 ISZERO PUSH2 0x56E2 JUMPI RETURNDATASIZE PUSH1 0x0 DUP1 RETURNDATACOPY RETURNDATASIZE PUSH1 0x0 REVERT JUMPDEST POP POP POP POP PUSH1 0x40 MLOAD RETURNDATASIZE PUSH1 0x1F NOT PUSH1 0x1F DUP3 ADD AND DUP3 ADD DUP1 PUSH1 0x40 MSTORE POP DUP2 ADD SWAP1 PUSH2 0x5706 SWAP2 SWAP1 PUSH2 0x75C8 JUMP JUMPDEST POP PUSH1 0x0 SWAP2 POP PUSH1 0x0 JUMPDEST PUSH1 0x8E SLOAD DUP2 LT ISZERO PUSH2 0x576A JUMPI PUSH1 0x82 SLOAD PUSH1 0x8E DUP3 DUP2 SLOAD DUP2 LT PUSH2 0x572E JUMPI PUSH2 0x572E PUSH2 0x752E JUMP JUMPDEST SWAP1 PUSH1 0x0 MSTORE PUSH1 0x20 PUSH1 0x0 KECCAK256 ADD SLOAD PUSH2 0x5743 SWAP2 SWAP1 PUSH2 0x762B JUMP JUMPDEST DUP6 LT PUSH2 0x576A JUMPI PUSH1 0x9F SLOAD PUSH2 0x5756 SWAP1 DUP5 PUSH2 0x755A JUMP JUMPDEST SWAP3 POP DUP1 PUSH2 0x5762 DUP2 PUSH2 0x756D JUMP JUMPDEST SWAP2 POP POP PUSH2 0x570E JUMP JUMPDEST POP PUSH2 0x3E8 PUSH2 0x5778 DUP9 DUP5 PUSH2 0x762B JUMP JUMPDEST PUSH2 0x5782 SWAP2 SWAP1 PUSH2 0x7642 JUMP JUMPDEST PUSH1 0x1 PUSH1 0x1 PUSH1 0xA0 SHL SUB DUP8 AND PUSH1 0x0 SWAP1 DUP2 MSTORE PUSH1 0x9B PUSH1 0x20 MSTORE PUSH1 0x40 DUP2 KECCAK256 DUP1 SLOAD SWAP1 SWAP2 SWAP1 PUSH2 0x57AA SWAP1 DUP5 SWAP1 PUSH2 0x755A JUMP JUMPDEST SWAP1 SWAP2 SSTORE POP POP PUSH1 0x40 MLOAD PUSH1 0x0 DUP1 MLOAD PUSH1 0x20 PUSH2 0x787B DUP4 CODECOPY DUP2 MLOAD SWAP2 MSTORE SWAP1 PUSH2 0x57D1 SWAP1 DUP9 SWAP1 DUP8 SWAP1 TIMESTAMP SWAP1 PUSH2 0x7664 JUMP JUMPDEST PUSH1 0x40 MLOAD DUP1 SWAP2 SUB SWAP1 LOG1 JUMPDEST PUSH1 0x1 PUSH1 0x1 PUSH1 0xA0 SHL SUB DUP7 AND PUSH1 0x0 SWAP1 DUP2 MSTORE PUSH1 0x97 PUSH1 0x20 MSTORE PUSH1 0x40 DUP2 KECCAK256 DUP1 SLOAD DUP7 SWAP3 SWAP1 PUSH2 0x5802 SWAP1 DUP5 SWAP1 PUSH2 0x755A JUMP JUMPDEST SWAP3 POP POP DUP2 SWAP1 SSTORE POP DUP4 PUSH1 0x8F PUSH1 0x0 DUP3 DUP3 SLOAD PUSH2 0x581B SWAP2 SWAP1 PUSH2 0x755A JUMP JUMPDEST SWAP1 SWAP2 SSTORE POP POP JUMPDEST PUSH1 0x1 PUSH1 0x1 PUSH1 0xA0 SHL SUB SWAP6 DUP7 AND PUSH1 0x0 SWAP1 DUP2 MSTORE PUSH1 0x73 PUSH1 0x20 MSTORE PUSH1 0x40 SWAP1 KECCAK256 SLOAD SWAP1 SWAP6 AND SWAP5 DUP1 PUSH2 0x5849 DUP2 PUSH2 0x756D JUMP JUMPDEST SWAP2 POP POP PUSH2 0x55FC JUMP JUMPDEST POP POP POP POP POP POP POP POP JUMP JUMPDEST PUSH1 0x0 SLOAD PUSH2 0x100 SWAP1 DIV PUSH1 0xFF AND PUSH2 0x5882 JUMPI PUSH1 0x40 MLOAD PUSH3 0x461BCD PUSH1 0xE5 SHL DUP2 MSTORE PUSH1 0x4 ADD PUSH2 0x16F4 SWAP1 PUSH2 0x779D JUMP JUMPDEST PUSH2 0x2E34 PUSH2 0x677E JUMP JUMPDEST PUSH2 0x5892 PUSH2 0x67AE JUMP JUMPDEST PUSH1 0x67 SLOAD PUSH1 0x6A SLOAD PUSH1 0x40 MLOAD PUSH4 0xE66B9C9 PUSH1 0xE2 SHL DUP2 MSTORE PUSH1 0x1 PUSH1 0x1 PUSH1 0xA0 SHL SUB SWAP3 DUP4 AND SWAP3 PUSH4 0x399AE724 SWAP3 PUSH2 0x58C9 SWAP3 SWAP2 AND SWAP1 PUSH1 0x1 SWAP1 PUSH1 0x4 ADD PUSH2 0x75AF JUMP JUMPDEST PUSH1 0x20 PUSH1 0x40 MLOAD DUP1 DUP4 SUB DUP2 PUSH1 0x0 DUP8 GAS CALL ISZERO DUP1 ISZERO PUSH2 0x58E8 JUMPI RETURNDATASIZE PUSH1 0x0 DUP1 RETURNDATACOPY RETURNDATASIZE PUSH1 0x0 REVERT JUMPDEST POP POP POP POP PUSH1 0x40 MLOAD RETURNDATASIZE PUSH1 0x1F NOT PUSH1 0x1F DUP3 ADD AND DUP3 ADD DUP1 PUSH1 0x40 MSTORE POP DUP2 ADD SWAP1 PUSH2 0x40ED SWAP2 SWAP1 PUSH2 0x75C8 JUMP JUMPDEST PUSH1 0x0 DUP2 DUP2 MSTORE PUSH1 0x6E PUSH1 0x20 MSTORE PUSH1 0x40 SWAP1 KECCAK256 SLOAD PUSH1 0x1 PUSH1 0x1 PUSH1 0xA0 SHL SUB AND PUSH2 0x5970 JUMPI PUSH1 0x40 MLOAD PUSH3 0x461BCD PUSH1 0xE5 SHL DUP2 MSTORE PUSH1 0x20 PUSH1 0x4 DUP3 ADD MSTORE PUSH1 0x1F PUSH1 0x24 DUP3 ADD MSTORE PUSH32 0x4D6574614E6F64653A20496E76616C696420526566666572616C20436F646500 PUSH1 0x44 DUP3 ADD MSTORE PUSH1 0x64 ADD PUSH2 0x16F4 JUMP JUMPDEST PUSH1 0x0 DUP2 DUP2 MSTORE PUSH1 0x6E PUSH1 0x20 SWAP1 DUP2 MSTORE PUSH1 0x40 DUP1 DUP4 KECCAK256 SLOAD PUSH1 0x1 PUSH1 0x1 PUSH1 0xA0 SHL SUB DUP7 DUP2 AND DUP6 MSTORE PUSH1 0x72 SWAP1 SWAP4 MSTORE SWAP3 DUP2 SWAP1 KECCAK256 DUP1 SLOAD PUSH1 0x1 PUSH1 0x1 PUSH1 0xA0 SHL SUB NOT AND SWAP3 SWAP1 SWAP4 AND SWAP2 SWAP1 SWAP2 OR SWAP1 SWAP2 SSTORE MLOAD PUSH32 0x3676D068C24DED926804A731778CD5F0EF23775811E1DF9910002BCAB2D1C066 SWAP1 PUSH2 0x59DF SWAP1 DUP5 SWAP1 DUP5 SWAP1 PUSH2 0x75AF JUMP JUMPDEST PUSH1 0x40 MLOAD DUP1 SWAP2 SUB SWAP1 LOG1 POP POP JUMP JUMPDEST PUSH1 0x67 SLOAD PUSH1 0x1 PUSH1 0x1 PUSH1 0xA0 SHL SUB DUP3 DUP2 AND PUSH1 0x0 DUP2 DUP2 MSTORE PUSH1 0x72 PUSH1 0x20 MSTORE PUSH1 0x40 DUP1 DUP3 KECCAK256 SLOAD SWAP1 MLOAD PUSH4 0x36E3B0E3 PUSH1 0xE2 SHL DUP2 MSTORE SWAP1 DUP5 AND PUSH1 0x4 DUP3 ADD MSTORE PUSH1 0x24 DUP2 ADD SWAP3 SWAP1 SWAP3 MSTORE SWAP3 SWAP2 SWAP1 SWAP2 AND SWAP1 PUSH4 0xDB8EC38C SWAP1 PUSH1 0x44 ADD PUSH1 0x20 PUSH1 0x40 MLOAD DUP1 DUP4 SUB DUP2 PUSH1 0x0 DUP8 GAS CALL ISZERO DUP1 ISZERO PUSH2 0x5A53 JUMPI RETURNDATASIZE PUSH1 0x0 DUP1 RETURNDATACOPY RETURNDATASIZE PUSH1 0x0 REVERT JUMPDEST POP POP POP POP PUSH1 0x40 MLOAD RETURNDATASIZE PUSH1 0x1F NOT PUSH1 0x1F DUP3 ADD AND DUP3 ADD DUP1 PUSH1 0x40 MSTORE POP DUP2 ADD SWAP1 PUSH2 0x5A77 SWAP2 SWAP1 PUSH2 0x77E8 JUMP JUMPDEST PUSH1 0x1 PUSH1 0x1 PUSH1 0xA0 SHL SUB SWAP1 DUP2 AND PUSH1 0x0 DUP2 DUP2 MSTORE PUSH1 0x71 PUSH1 0x20 SWAP1 DUP2 MSTORE PUSH1 0x40 DUP1 DUP4 KECCAK256 DUP1 SLOAD PUSH1 0x1 DUP2 ADD DUP3 SSTORE SWAP1 DUP5 MSTORE DUP3 DUP5 KECCAK256 ADD DUP1 SLOAD SWAP8 SWAP1 SWAP6 AND PUSH1 0x1 PUSH1 0x1 PUSH1 0xA0 SHL SUB NOT SWAP8 DUP9 AND DUP2 OR SWAP1 SWAP6 SSTORE SWAP4 DUP3 MSTORE PUSH1 0x73 SWAP1 MSTORE SWAP2 SWAP1 SWAP2 KECCAK256 DUP1 SLOAD SWAP1 SWAP4 AND OR SWAP1 SWAP2 SSTORE POP JUMP JUMPDEST PUSH1 0x6B DUP1 SLOAD SWAP1 PUSH1 0x0 PUSH2 0x5AE0 DUP4 PUSH2 0x756D JUMP JUMPDEST SWAP1 SWAP2 SSTORE POP POP PUSH1 0x1 PUSH1 0x1 PUSH1 0xA0 SHL SUB DUP4 DUP2 AND PUSH1 0x0 DUP2 DUP2 MSTORE PUSH1 0x77 PUSH1 0x20 SWAP1 DUP2 MSTORE PUSH1 0x40 DUP1 DUP4 KECCAK256 DUP1 SLOAD PUSH1 0xFF NOT AND PUSH1 0x1 SWAP1 DUP2 OR SWAP1 SWAP2 SSTORE PUSH1 0x78 DUP4 MSTORE DUP2 DUP5 KECCAK256 DUP8 SWAP1 SSTORE DUP2 MLOAD DUP1 DUP4 ADD DUP4 MSTORE PUSH1 0x6B SLOAD PUSH1 0x60 DUP12 DUP2 SHL PUSH12 0xFFFFFFFFFFFFFFFFFFFFFFFF NOT AND SWAP1 DUP4 ADD MSTORE TIMESTAMP PUSH1 0x74 DUP4 ADD MSTORE PREVRANDAO PUSH1 0x94 DUP4 ADD MSTORE PUSH1 0xB4 DUP1 DUP4 ADD SWAP2 SWAP1 SWAP2 MSTORE DUP4 MLOAD DUP1 DUP4 SUB SWAP1 SWAP2 ADD DUP2 MSTORE PUSH1 0xD4 DUP3 ADD DUP5 MSTORE DUP1 MLOAD SWAP1 DUP6 ADD KECCAK256 DUP2 MSTORE DUP1 DUP5 ADD DUP9 DUP2 MSTORE DUP7 DUP7 MSTORE PUSH1 0x6F DUP6 MSTORE DUP4 DUP7 KECCAK256 SWAP2 MLOAD DUP1 DUP4 SSTORE SWAP1 MLOAD SWAP2 SWAP1 SWAP3 ADD SSTORE DUP4 MSTORE PUSH1 0x6E DUP3 MSTORE DUP1 DUP4 KECCAK256 DUP1 SLOAD PUSH1 0x1 PUSH1 0x1 PUSH1 0xA0 SHL SUB NOT AND DUP6 OR SWAP1 SSTORE SWAP3 DUP3 MSTORE PUSH1 0x72 SWAP1 MSTORE KECCAK256 SLOAD AND DUP1 ISZERO PUSH2 0x5C09 JUMPI PUSH1 0x1 PUSH1 0x1 PUSH1 0xA0 SHL SUB DUP1 DUP3 AND PUSH1 0x0 DUP2 DUP2 MSTORE PUSH1 0x70 PUSH1 0x20 SWAP1 DUP2 MSTORE PUSH1 0x40 DUP1 DUP4 KECCAK256 DUP1 SLOAD PUSH1 0x1 DUP2 ADD DUP3 SSTORE SWAP1 DUP5 MSTORE DUP3 DUP5 KECCAK256 ADD DUP1 SLOAD SWAP6 DUP11 AND PUSH1 0x1 PUSH1 0x1 PUSH1 0xA0 SHL SUB NOT SWAP7 DUP8 AND DUP2 OR SWAP1 SWAP2 SSTORE DUP4 MSTORE PUSH1 0x72 SWAP1 SWAP2 MSTORE SWAP1 KECCAK256 DUP1 SLOAD SWAP1 SWAP3 AND OR SWAP1 SSTORE PUSH2 0x5C09 DUP5 DUP5 PUSH2 0x695C JUMP JUMPDEST PUSH1 0x1 PUSH1 0x1 PUSH1 0xA0 SHL SUB DUP5 AND PUSH1 0x0 SWAP1 DUP2 MSTORE PUSH1 0x6D PUSH1 0x20 SWAP1 DUP2 MSTORE PUSH1 0x40 DUP1 DUP4 KECCAK256 DUP1 SLOAD PUSH1 0xFF NOT AND SWAP1 SSTORE PUSH1 0x75 SWAP1 SWAP2 MSTORE SWAP1 KECCAK256 TIMESTAMP SWAP1 DUP2 SWAP1 SSTORE PUSH1 0xA7 SLOAD PUSH2 0x5C44 SWAP2 PUSH2 0x755A JUMP JUMPDEST PUSH1 0x1 PUSH1 0x1 PUSH1 0xA0 SHL SUB DUP6 AND PUSH1 0x0 SWAP1 DUP2 MSTORE PUSH1 0x76 PUSH1 0x20 SWAP1 DUP2 MSTORE PUSH1 0x40 DUP1 DUP4 KECCAK256 SWAP4 SWAP1 SWAP4 SSTORE PUSH1 0x74 SWAP1 MSTORE KECCAK256 DUP1 SLOAD PUSH1 0xFF NOT AND PUSH1 0x1 OR SWAP1 SSTORE PUSH2 0x5C7C DUP5 PUSH2 0x6EAA JUMP JUMPDEST PUSH2 0x5C85 DUP4 PUSH2 0x4B2B JUMP JUMPDEST PUSH2 0x5C8E DUP4 PUSH2 0x4F02 JUMP JUMPDEST PUSH32 0xD704421FB24A7A835D4AA951912E468C80F0865AC478CEADCE8CC62DFCA7C669 DUP5 PUSH1 0x6B SLOAD PUSH1 0x40 MLOAD PUSH2 0x5CC1 SWAP3 SWAP2 SWAP1 PUSH2 0x75AF JUMP JUMPDEST PUSH1 0x40 MLOAD DUP1 SWAP2 SUB SWAP1 LOG1 POP POP POP POP JUMP JUMPDEST PUSH1 0x0 DUP1 PUSH1 0x1 PUSH1 0x1 PUSH1 0xA0 SHL SUB DUP5 AND PUSH1 0x0 SWAP1 DUP2 MSTORE PUSH1 0x6D PUSH1 0x20 MSTORE PUSH1 0x40 SWAP1 KECCAK256 SLOAD PUSH1 0xFF AND PUSH1 0x6 DUP2 GT ISZERO PUSH2 0x5CFF JUMPI PUSH2 0x5CFF PUSH2 0x7805 JUMP JUMPDEST PUSH1 0x6 DUP2 GT ISZERO PUSH2 0x5D10 JUMPI PUSH2 0x5D10 PUSH2 0x7805 JUMP JUMPDEST EQ DUP1 ISZERO PUSH2 0x5D1E JUMPI POP PUSH1 0xC DUP3 GT ISZERO JUMPDEST ISZERO PUSH2 0x5D2B JUMPI POP PUSH1 0x1 PUSH2 0x117D JUMP JUMPDEST PUSH1 0x1 PUSH1 0x1 PUSH1 0x1 PUSH1 0xA0 SHL SUB DUP5 AND PUSH1 0x0 SWAP1 DUP2 MSTORE PUSH1 0x6D PUSH1 0x20 MSTORE PUSH1 0x40 SWAP1 KECCAK256 SLOAD PUSH1 0xFF AND PUSH1 0x6 DUP2 GT ISZERO PUSH2 0x5D5A JUMPI PUSH2 0x5D5A PUSH2 0x7805 JUMP JUMPDEST PUSH1 0x6 DUP2 GT ISZERO PUSH2 0x5D6B JUMPI PUSH2 0x5D6B PUSH2 0x7805 JUMP JUMPDEST EQ DUP1 PUSH2 0x5DB4 JUMPI POP PUSH1 0x2 PUSH1 0x1 PUSH1 0x1 PUSH1 0xA0 SHL SUB DUP5 AND PUSH1 0x0 SWAP1 DUP2 MSTORE PUSH1 0x6D PUSH1 0x20 MSTORE PUSH1 0x40 SWAP1 KECCAK256 SLOAD PUSH1 0xFF AND PUSH1 0x6 DUP2 GT ISZERO PUSH2 0x5DA1 JUMPI PUSH2 0x5DA1 PUSH2 0x7805 JUMP JUMPDEST PUSH1 0x6 DUP2 GT ISZERO PUSH2 0x5DB2 JUMPI PUSH2 0x5DB2 PUSH2 0x7805 JUMP JUMPDEST EQ JUMPDEST DUP1 ISZERO PUSH2 0x5DC1 JUMPI POP PUSH1 0xD DUP3 GT ISZERO JUMPDEST ISZERO PUSH2 0x5DCE JUMPI POP PUSH1 0x1 PUSH2 0x117D JUMP JUMPDEST PUSH1 0x3 PUSH1 0x1 PUSH1 0x1 PUSH1 0xA0 SHL SUB DUP5 AND PUSH1 0x0 SWAP1 DUP2 MSTORE PUSH1 0x6D PUSH1 0x20 MSTORE PUSH1 0x40 SWAP1 KECCAK256 SLOAD PUSH1 0xFF AND PUSH1 0x6 DUP2 GT ISZERO PUSH2 0x5DFD JUMPI PUSH2 0x5DFD PUSH2 0x7805 JUMP JUMPDEST PUSH1 0x6 DUP2 GT ISZERO PUSH2 0x5E0E JUMPI PUSH2 0x5E0E PUSH2 0x7805 JUMP JUMPDEST EQ DUP1 PUSH2 0x5E57 JUMPI POP PUSH1 0x4 PUSH1 0x1 PUSH1 0x1 PUSH1 0xA0 SHL SUB DUP5 AND PUSH1 0x0 SWAP1 DUP2 MSTORE PUSH1 0x6D PUSH1 0x20 MSTORE PUSH1 0x40 SWAP1 KECCAK256 SLOAD PUSH1 0xFF AND PUSH1 0x6 DUP2 GT ISZERO PUSH2 0x5E44 JUMPI PUSH2 0x5E44 PUSH2 0x7805 JUMP JUMPDEST PUSH1 0x6 DUP2 GT ISZERO PUSH2 0x5E55 JUMPI PUSH2 0x5E55 PUSH2 0x7805 JUMP JUMPDEST EQ JUMPDEST DUP1 ISZERO PUSH2 0x5E64 JUMPI POP PUSH1 0xE DUP3 GT ISZERO JUMPDEST ISZERO PUSH2 0x5E71 JUMPI POP PUSH1 0x1 PUSH2 0x117D JUMP JUMPDEST PUSH1 0x5 PUSH1 0x1 PUSH1 0x1 PUSH1 0xA0 SHL SUB DUP5 AND PUSH1 0x0 SWAP1 DUP2 MSTORE PUSH1 0x6D PUSH1 0x20 MSTORE PUSH1 0x40 SWAP1 KECCAK256 SLOAD PUSH1 0xFF AND PUSH1 0x6 DUP2 GT ISZERO PUSH2 0x5EA0 JUMPI PUSH2 0x5EA0 PUSH2 0x7805 JUMP JUMPDEST PUSH1 0x6 DUP2 GT ISZERO PUSH2 0x5EB1 JUMPI PUSH2 0x5EB1 PUSH2 0x7805 JUMP JUMPDEST EQ DUP1 PUSH2 0x5F06 JUMPI POP PUSH1 0x6 PUSH1 0x1 PUSH1 0x1 PUSH1 0xA0 SHL SUB DUP5 AND PUSH1 0x0 SWAP1 DUP2 MSTORE PUSH1 0x6D PUSH1 0x20 MSTORE PUSH1 0x40 SWAP1 KECCAK256 SLOAD PUSH1 0xFF AND PUSH1 0x6 DUP2 GT ISZERO PUSH2 0x5EE7 JUMPI PUSH2 0x5EE7 PUSH2 0x7805 JUMP JUMPDEST PUSH1 0x6 DUP2 GT ISZERO PUSH2 0x5EF8 JUMPI PUSH2 0x5EF8 PUSH2 0x7805 JUMP JUMPDEST EQ DUP1 ISZERO PUSH2 0x5F06 JUMPI POP PUSH1 0xF DUP3 GT ISZERO JUMPDEST ISZERO PUSH2 0x5F13 JUMPI POP PUSH1 0x1 PUSH2 0x117D JUMP JUMPDEST POP PUSH1 0x0 PUSH2 0x117D JUMP JUMPDEST PUSH1 0x1 PUSH1 0x1 PUSH1 0xA0 SHL SUB DUP1 DUP4 AND PUSH1 0x0 SWAP1 DUP2 MSTORE PUSH1 0x72 PUSH1 0x20 SWAP1 DUP2 MSTORE PUSH1 0x40 DUP1 DUP4 KECCAK256 SLOAD DUP2 MLOAD PUSH1 0x80 DUP2 ADD DUP4 MSTORE DUP5 DUP2 MSTORE SWAP3 DUP4 ADD DUP5 SWAP1 MSTORE SWAP1 DUP3 ADD DUP4 SWAP1 MSTORE PUSH1 0x60 DUP3 ADD DUP4 SWAP1 MSTORE SWAP2 SWAP3 SWAP2 SWAP1 SWAP2 AND SWAP1 DUP5 SWAP1 DUP4 SWAP1 DUP2 SWAP1 DUP2 SWAP1 DUP2 JUMPDEST PUSH1 0x1 PUSH1 0x1 PUSH1 0xA0 SHL SUB DUP8 AND ISZERO PUSH2 0x6509 JUMPI DUP2 PUSH1 0x60 ADD MLOAD PUSH1 0x1 PUSH1 0x1 PUSH1 0x40 SHL SUB AND PUSH1 0x5 SUB PUSH2 0x5F9A JUMPI DUP4 SWAP8 POP POP POP POP POP POP POP POP PUSH2 0x117D JUMP JUMPDEST PUSH1 0x1 PUSH1 0x1 PUSH1 0xA0 SHL SUB DUP8 AND PUSH1 0x0 SWAP1 DUP2 MSTORE PUSH1 0x6D PUSH1 0x20 MSTORE PUSH1 0x40 DUP2 KECCAK256 SLOAD PUSH1 0xFF AND SWAP1 PUSH1 0x2 DUP3 LT DUP1 ISZERO PUSH2 0x5FC6 JUMPI POP DUP3 ISZERO ISZERO JUMPDEST ISZERO PUSH2 0x5FFD JUMPI PUSH1 0x1 PUSH1 0x1 PUSH1 0xA0 SHL SUB DUP1 DUP11 AND PUSH1 0x0 SWAP1 DUP2 MSTORE PUSH1 0x72 PUSH1 0x20 MSTORE PUSH1 0x40 SWAP1 KECCAK256 SLOAD AND SWAP9 SWAP8 POP DUP3 PUSH2 0x5FF3 DUP2 PUSH2 0x756D JUMP JUMPDEST SWAP4 POP POP POP POP PUSH2 0x5F67 JUMP JUMPDEST PUSH1 0x1 DUP3 GT ISZERO PUSH2 0x6026 JUMPI PUSH1 0x1 DUP5 PUSH1 0x0 ADD DUP2 DUP2 MLOAD PUSH2 0x6019 SWAP2 SWAP1 PUSH2 0x781B JUMP JUMPDEST PUSH1 0x1 PUSH1 0x1 PUSH1 0x40 SHL SUB AND SWAP1 MSTORE POP JUMPDEST PUSH1 0x2 DUP3 GT ISZERO PUSH2 0x604F JUMPI PUSH1 0x1 DUP5 PUSH1 0x20 ADD DUP2 DUP2 MLOAD PUSH2 0x6042 SWAP2 SWAP1 PUSH2 0x781B JUMP JUMPDEST PUSH1 0x1 PUSH1 0x1 PUSH1 0x40 SHL SUB AND SWAP1 MSTORE POP JUMPDEST PUSH1 0x3 DUP3 GT ISZERO PUSH2 0x6078 JUMPI PUSH1 0x1 DUP5 PUSH1 0x40 ADD DUP2 DUP2 MLOAD PUSH2 0x606B SWAP2 SWAP1 PUSH2 0x781B JUMP JUMPDEST PUSH1 0x1 PUSH1 0x1 PUSH1 0x40 SHL SUB AND SWAP1 MSTORE POP JUMPDEST PUSH1 0x4 DUP3 GT ISZERO PUSH2 0x60A1 JUMPI PUSH1 0x1 DUP5 PUSH1 0x60 ADD DUP2 DUP2 MLOAD PUSH2 0x6094 SWAP2 SWAP1 PUSH2 0x781B JUMP JUMPDEST PUSH1 0x1 PUSH1 0x1 PUSH1 0x40 SHL SUB AND SWAP1 MSTORE POP JUMPDEST PUSH1 0x1 PUSH1 0x1 PUSH1 0xA0 SHL SUB DUP10 AND PUSH1 0x0 SWAP1 DUP2 MSTORE PUSH1 0x6C PUSH1 0x20 SWAP1 DUP2 MSTORE PUSH1 0x40 DUP1 DUP4 KECCAK256 DUP8 MLOAD DUP2 SLOAD SWAP4 DUP10 ADD MLOAD SWAP3 DUP10 ADD MLOAD PUSH1 0x60 DUP11 ADD MLOAD PUSH1 0x1 PUSH1 0x1 PUSH1 0x40 SHL SUB SWAP1 DUP2 AND PUSH1 0x1 PUSH1 0xC0 SHL MUL PUSH1 0x1 PUSH1 0x1 PUSH1 0xC0 SHL SUB SWAP3 DUP3 AND PUSH1 0x1 PUSH1 0x80 SHL MUL SWAP3 SWAP1 SWAP3 AND PUSH16 0xFFFFFFFFFFFFFFFFFFFFFFFFFFFFFFFF SWAP6 DUP3 AND PUSH1 0x1 PUSH1 0x40 SHL MUL PUSH16 0xFFFFFFFFFFFFFFFFFFFFFFFFFFFFFFFF NOT SWAP1 SWAP8 AND SWAP2 SWAP1 SWAP4 AND OR SWAP5 SWAP1 SWAP5 OR SWAP3 SWAP1 SWAP3 AND SWAP2 SWAP1 SWAP2 OR SWAP2 SWAP1 SWAP2 OR SWAP1 SSTORE DUP4 SWAP1 SUB PUSH2 0x616D JUMPI PUSH1 0x81 PUSH1 0x0 DUP2 SLOAD DUP2 LT PUSH2 0x6154 JUMPI PUSH2 0x6154 PUSH2 0x752E JUMP JUMPDEST SWAP1 PUSH1 0x0 MSTORE PUSH1 0x20 PUSH1 0x0 KECCAK256 ADD SLOAD DUP2 PUSH2 0x616A SWAP2 SWAP1 PUSH2 0x755A JUMP JUMPDEST SWAP1 POP JUMPDEST PUSH1 0x2 DUP5 PUSH1 0x0 ADD MLOAD PUSH1 0x1 PUSH1 0x1 PUSH1 0x40 SHL SUB AND GT PUSH2 0x61AF JUMPI PUSH1 0x81 PUSH1 0x1 DUP2 SLOAD DUP2 LT PUSH2 0x6196 JUMPI PUSH2 0x6196 PUSH2 0x752E JUMP JUMPDEST SWAP1 PUSH1 0x0 MSTORE PUSH1 0x20 PUSH1 0x0 KECCAK256 ADD SLOAD DUP2 PUSH2 0x61AC SWAP2 SWAP1 PUSH2 0x755A JUMP JUMPDEST SWAP1 POP JUMPDEST PUSH1 0x3 DUP5 PUSH1 0x20 ADD MLOAD PUSH1 0x1 PUSH1 0x1 PUSH1 0x40 SHL SUB AND GT ISZERO DUP1 ISZERO PUSH2 0x61CE JUMPI POP PUSH1 0x3 DUP3 LT ISZERO JUMPDEST ISZERO PUSH2 0x6200 JUMPI PUSH1 0x81 PUSH1 0x2 DUP2 SLOAD DUP2 LT PUSH2 0x61E7 JUMPI PUSH2 0x61E7 PUSH2 0x752E JUMP JUMPDEST SWAP1 PUSH1 0x0 MSTORE PUSH1 0x20 PUSH1 0x0 KECCAK256 ADD SLOAD DUP2 PUSH2 0x61FD SWAP2 SWAP1 PUSH2 0x755A JUMP JUMPDEST SWAP1 POP JUMPDEST PUSH1 0x4 DUP5 PUSH1 0x40 ADD MLOAD PUSH1 0x1 PUSH1 0x1 PUSH1 0x40 SHL SUB AND GT ISZERO DUP1 ISZERO PUSH2 0x621F JUMPI POP PUSH1 0x4 DUP3 LT ISZERO JUMPDEST ISZERO PUSH2 0x6251 JUMPI PUSH1 0x81 PUSH1 0x3 DUP2 SLOAD DUP2 LT PUSH2 0x6238 JUMPI PUSH2 0x6238 PUSH2 0x752E JUMP JUMPDEST SWAP1 PUSH1 0x0 MSTORE PUSH1 0x20 PUSH1 0x0 KECCAK256 ADD SLOAD DUP2 PUSH2 0x624E SWAP2 SWAP1 PUSH2 0x755A JUMP JUMPDEST SWAP1 POP JUMPDEST PUSH1 0x5 DUP5 PUSH1 0x60 ADD MLOAD PUSH1 0x1 PUSH1 0x1 PUSH1 0x40 SHL SUB AND GT ISZERO DUP1 ISZERO PUSH2 0x6270 JUMPI POP PUSH1 0x5 DUP3 LT ISZERO JUMPDEST ISZERO PUSH2 0x62A2 JUMPI PUSH1 0x81 PUSH1 0x4 DUP2 SLOAD DUP2 LT PUSH2 0x6289 JUMPI PUSH2 0x6289 PUSH2 0x752E JUMP JUMPDEST SWAP1 PUSH1 0x0 MSTORE PUSH1 0x20 PUSH1 0x0 KECCAK256 ADD SLOAD DUP2 PUSH2 0x629F SWAP2 SWAP1 PUSH2 0x755A JUMP JUMPDEST SWAP1 POP JUMPDEST PUSH2 0x3E8 PUSH2 0x62AF DUP13 DUP4 PUSH2 0x762B JUMP JUMPDEST PUSH2 0x62B9 SWAP2 SWAP1 PUSH2 0x7642 JUMP JUMPDEST SWAP7 POP DUP1 ISZERO PUSH2 0x64E1 JUMPI PUSH1 0x1 PUSH1 0x1 PUSH1 0xA0 SHL SUB DUP10 AND PUSH1 0x0 SWAP1 DUP2 MSTORE PUSH1 0x74 PUSH1 0x20 MSTORE PUSH1 0x40 DUP2 KECCAK256 SLOAD PUSH1 0xFF AND ISZERO ISZERO SWAP1 SUB PUSH2 0x63BE JUMPI PUSH1 0x66 SLOAD PUSH1 0xA6 SLOAD PUSH1 0x40 MLOAD PUSH4 0x6CF50D91 PUSH1 0xE1 SHL DUP2 MSTORE PUSH1 0x1 PUSH1 0x1 PUSH1 0xA0 SHL SUB SWAP3 DUP4 AND SWAP3 PUSH4 0xD9EA1B22 SWAP3 PUSH2 0x631B SWAP3 SWAP2 AND SWAP1 DUP12 SWAP1 PUSH1 0x4 ADD PUSH2 0x75AF JUMP JUMPDEST PUSH1 0x20 PUSH1 0x40 MLOAD DUP1 DUP4 SUB DUP2 PUSH1 0x0 DUP8 GAS CALL ISZERO DUP1 ISZERO PUSH2 0x633A JUMPI RETURNDATASIZE PUSH1 0x0 DUP1 RETURNDATACOPY RETURNDATASIZE PUSH1 0x0 REVERT JUMPDEST POP POP POP POP PUSH1 0x40 MLOAD RETURNDATASIZE PUSH1 0x1F NOT PUSH1 0x1F DUP3 ADD AND DUP3 ADD DUP1 PUSH1 0x40 MSTORE POP DUP2 ADD SWAP1 PUSH2 0x635E SWAP2 SWAP1 PUSH2 0x75C8 JUMP JUMPDEST SWAP5 POP DUP5 PUSH2 0x63B9 JUMPI PUSH1 0x40 MLOAD PUSH3 0x461BCD PUSH1 0xE5 SHL DUP2 MSTORE PUSH1 0x20 PUSH1 0x4 DUP3 ADD MSTORE PUSH1 0x23 PUSH1 0x24 DUP3 ADD MSTORE PUSH32 0x4661696C6564207472616E73666572206D61746368696E6720636F6D6D697373 PUSH1 0x44 DUP3 ADD MSTORE PUSH3 0x34B7B7 PUSH1 0xE9 SHL PUSH1 0x64 DUP3 ADD MSTORE PUSH1 0x84 ADD PUSH2 0x16F4 JUMP JUMPDEST PUSH2 0x648B JUMP JUMPDEST PUSH1 0x66 SLOAD PUSH1 0x40 MLOAD PUSH4 0x6CF50D91 PUSH1 0xE1 SHL DUP2 MSTORE PUSH1 0x1 PUSH1 0x1 PUSH1 0xA0 SHL SUB SWAP1 SWAP2 AND SWAP1 PUSH4 0xD9EA1B22 SWAP1 PUSH2 0x63F0 SWAP1 DUP13 SWAP1 DUP12 SWAP1 PUSH1 0x4 ADD PUSH2 0x75AF JUMP JUMPDEST PUSH1 0x20 PUSH1 0x40 MLOAD DUP1 DUP4 SUB DUP2 PUSH1 0x0 DUP8 GAS CALL ISZERO DUP1 ISZERO PUSH2 0x640F JUMPI RETURNDATASIZE PUSH1 0x0 DUP1 RETURNDATACOPY RETURNDATASIZE PUSH1 0x0 REVERT JUMPDEST POP POP POP POP PUSH1 0x40 MLOAD RETURNDATASIZE PUSH1 0x1F NOT PUSH1 0x1F DUP3 ADD AND DUP3 ADD DUP1 PUSH1 0x40 MSTORE POP DUP2 ADD SWAP1 PUSH2 0x6433 SWAP2 SWAP1 PUSH2 0x75C8 JUMP JUMPDEST POP PUSH1 0x40 DUP1 MLOAD PUSH1 0x1 PUSH1 0x1 PUSH1 0xA0 SHL SUB DUP12 AND DUP2 MSTORE PUSH1 0x20 DUP2 ADD DUP10 SWAP1 MSTORE TIMESTAMP DUP2 DUP4 ADD MSTORE PUSH1 0x80 PUSH1 0x60 DUP3 ADD DUP2 SWAP1 MSTORE PUSH1 0x8 SWAP1 DUP3 ADD MSTORE PUSH8 0x4D61746368696E67 PUSH1 0xC0 SHL PUSH1 0xA0 DUP3 ADD MSTORE SWAP1 MLOAD PUSH1 0x0 DUP1 MLOAD PUSH1 0x20 PUSH2 0x787B DUP4 CODECOPY DUP2 MLOAD SWAP2 MSTORE SWAP2 DUP2 SWAP1 SUB PUSH1 0xC0 ADD SWAP1 LOG1 JUMPDEST PUSH2 0x6495 DUP8 DUP8 PUSH2 0x755A JUMP JUMPDEST PUSH1 0x1 PUSH1 0x1 PUSH1 0xA0 SHL SUB DUP11 AND PUSH1 0x0 SWAP1 DUP2 MSTORE PUSH1 0x96 PUSH1 0x20 MSTORE PUSH1 0x40 DUP2 KECCAK256 DUP1 SLOAD SWAP3 SWAP9 POP DUP10 SWAP3 SWAP1 SWAP2 SWAP1 PUSH2 0x64C2 SWAP1 DUP5 SWAP1 PUSH2 0x755A JUMP JUMPDEST SWAP3 POP POP DUP2 SWAP1 SSTORE POP DUP7 PUSH1 0x88 PUSH1 0x0 DUP3 DUP3 SLOAD PUSH2 0x64DB SWAP2 SWAP1 PUSH2 0x755A JUMP JUMPDEST SWAP1 SWAP2 SSTORE POP POP JUMPDEST PUSH1 0x1 PUSH1 0x1 PUSH1 0xA0 SHL SUB DUP1 DUP11 AND PUSH1 0x0 SWAP1 DUP2 MSTORE PUSH1 0x72 PUSH1 0x20 MSTORE PUSH1 0x40 SWAP1 KECCAK256 SLOAD AND SWAP9 SWAP8 POP DUP3 PUSH2 0x5FF3 DUP2 PUSH2 0x756D JUMP JUMPDEST POP SWAP2 SWAP9 SWAP8 POP POP POP POP POP POP POP POP JUMP JUMPDEST PUSH1 0x0 DUP1 PUSH1 0x1 PUSH1 0x1 PUSH1 0xA0 SHL SUB DUP5 AND PUSH1 0x0 SWAP1 DUP2 MSTORE PUSH1 0x6D PUSH1 0x20 MSTORE PUSH1 0x40 SWAP1 KECCAK256 SLOAD PUSH1 0xFF AND PUSH1 0x6 DUP2 GT ISZERO PUSH2 0x6547 JUMPI PUSH2 0x6547 PUSH2 0x7805 JUMP JUMPDEST PUSH1 0x6 DUP2 GT ISZERO PUSH2 0x6558 JUMPI PUSH2 0x6558 PUSH2 0x7805 JUMP JUMPDEST EQ DUP1 ISZERO PUSH2 0x6566 JUMPI POP PUSH1 0x1 DUP3 GT ISZERO JUMPDEST ISZERO PUSH2 0x6573 JUMPI POP PUSH1 0x1 PUSH2 0x117D JUMP JUMPDEST PUSH1 0x1 PUSH1 0x1 PUSH1 0x1 PUSH1 0xA0 SHL SUB DUP5 AND PUSH1 0x0 SWAP1 DUP2 MSTORE PUSH1 0x6D PUSH1 0x20 MSTORE PUSH1 0x40 SWAP1 KECCAK256 SLOAD PUSH1 0xFF AND PUSH1 0x6 DUP2 GT ISZERO PUSH2 0x65A2 JUMPI PUSH2 0x65A2 PUSH2 0x7805 JUMP JUMPDEST PUSH1 0x6 DUP2 GT ISZERO PUSH2 0x65B3 JUMPI PUSH2 0x65B3 PUSH2 0x7805 JUMP JUMPDEST EQ DUP1 ISZERO PUSH2 0x65C1 JUMPI POP PUSH1 0x2 DUP3 GT ISZERO JUMPDEST ISZERO PUSH2 0x65CE JUMPI POP PUSH1 0x1 PUSH2 0x117D JUMP JUMPDEST PUSH1 0x2 PUSH1 0x1 PUSH1 0x1 PUSH1 0xA0 SHL SUB DUP5 AND PUSH1 0x0 SWAP1 DUP2 MSTORE PUSH1 0x6D PUSH1 0x20 MSTORE PUSH1 0x40 SWAP1 KECCAK256 SLOAD PUSH1 0xFF AND PUSH1 0x6 DUP2 GT ISZERO PUSH2 0x65FD JUMPI PUSH2 0x65FD PUSH2 0x7805 JUMP JUMPDEST PUSH1 0x6 DUP2 GT ISZERO PUSH2 0x660E JUMPI PUSH2 0x660E PUSH2 0x7805 JUMP JUMPDEST EQ DUP1 ISZERO PUSH2 0x661C JUMPI POP PUSH1 0x4 DUP3 GT ISZERO JUMPDEST ISZERO PUSH2 0x6629 JUMPI POP PUSH1 0x1 PUSH2 0x117D JUMP JUMPDEST PUSH1 0x3 PUSH1 0x1 PUSH1 0x1 PUSH1 0xA0 SHL SUB DUP5 AND PUSH1 0x0 SWAP1 DUP2 MSTORE PUSH1 0x6D PUSH1 0x20 MSTORE PUSH1 0x40 SWAP1 KECCAK256 SLOAD PUSH1 0xFF AND PUSH1 0x6 DUP2 GT ISZERO PUSH2 0x6658 JUMPI PUSH2 0x6658 PUSH2 0x7805 JUMP JUMPDEST PUSH1 0x6 DUP2 GT ISZERO PUSH2 0x6669 JUMPI PUSH2 0x6669 PUSH2 0x7805 JUMP JUMPDEST EQ DUP1 ISZERO PUSH2 0x6677 JUMPI POP PUSH1 0x6 DUP3 GT ISZERO JUMPDEST ISZERO PUSH2 0x6684 JUMPI POP PUSH1 0x1 PUSH2 0x117D JUMP JUMPDEST PUSH1 0x4 PUSH1 0x1 PUSH1 0x1 PUSH1 0xA0 SHL SUB DUP5 AND PUSH1 0x0 SWAP1 DUP2 MSTORE PUSH1 0x6D PUSH1 0x20 MSTORE PUSH1 0x40 SWAP1 KECCAK256 SLOAD PUSH1 0xFF AND PUSH1 0x6 DUP2 GT ISZERO PUSH2 0x66B3 JUMPI PUSH2 0x66B3 PUSH2 0x7805 JUMP JUMPDEST PUSH1 0x6 DUP2 GT ISZERO PUSH2 0x66C4 JUMPI PUSH2 0x66C4 PUSH2 0x7805 JUMP JUMPDEST EQ DUP1 ISZERO PUSH2 0x66D2 JUMPI POP PUSH1 0x8 DUP3 GT ISZERO JUMPDEST ISZERO PUSH2 0x66DF JUMPI POP PUSH1 0x1 PUSH2 0x117D JUMP JUMPDEST PUSH1 0x5 PUSH1 0x1 PUSH1 0x1 PUSH1 0xA0 SHL SUB DUP5 AND PUSH1 0x0 SWAP1 DUP2 MSTORE PUSH1 0x6D PUSH1 0x20 MSTORE PUSH1 0x40 SWAP1 KECCAK256 SLOAD PUSH1 0xFF AND PUSH1 0x6 DUP2 GT ISZERO PUSH2 0x670E JUMPI PUSH2 0x670E PUSH2 0x7805 JUMP JUMPDEST PUSH1 0x6 DUP2 GT ISZERO PUSH2 0x671F JUMPI PUSH2 0x671F PUSH2 0x7805 JUMP JUMPDEST EQ DUP1 PUSH2 0x5F06 JUMPI POP PUSH1 0x6 PUSH1 0x1 PUSH1 0x1 PUSH1 0xA0 SHL SUB DUP5 AND PUSH1 0x0 SWAP1 DUP2 MSTORE PUSH1 0x6D PUSH1 0x20 MSTORE PUSH1 0x40 SWAP1 KECCAK256 SLOAD PUSH1 0xFF AND PUSH1 0x6 DUP2 GT ISZERO PUSH2 0x6755 JUMPI PUSH2 0x6755 PUSH2 0x7805 JUMP JUMPDEST PUSH1 0x6 DUP2 GT ISZERO PUSH2 0x6766 JUMPI PUSH2 0x6766 PUSH2 0x7805 JUMP JUMPDEST EQ DUP1 ISZERO PUSH2 0x5F06 JUMPI POP PUSH1 0xA DUP3 GT PUSH2 0x5F13 JUMPI POP PUSH1 0x1 PUSH2 0x117D JUMP JUMPDEST PUSH1 0x0 SLOAD PUSH2 0x100 SWAP1 DIV PUSH1 0xFF AND PUSH2 0x67A5 JUMPI PUSH1 0x40 MLOAD PUSH3 0x461BCD PUSH1 0xE5 SHL DUP2 MSTORE PUSH1 0x4 ADD PUSH2 0x16F4 SWAP1 PUSH2 0x779D JUMP JUMPDEST PUSH2 0x2E34 CALLER PUSH2 0x52E4 JUMP JUMPDEST PUSH1 0x6A SLOAD PUSH1 0x1 PUSH1 0x1 PUSH1 0xA0 SHL SUB SWAP1 DUP2 AND PUSH1 0x0 SWAP1 DUP2 MSTORE PUSH1 0x72 PUSH1 0x20 MSTORE PUSH1 0x40 SWAP1 KECCAK256 SLOAD AND ISZERO PUSH2 0x6810 JUMPI PUSH1 0x40 MLOAD PUSH3 0x461BCD PUSH1 0xE5 SHL DUP2 MSTORE PUSH1 0x20 PUSH1 0x4 DUP3 ADD MSTORE PUSH1 0x14 PUSH1 0x24 DUP3 ADD MSTORE PUSH20 0x1D1A1A5CC81859191C995CDCC81A5CC81D5CD959 PUSH1 0x62 SHL PUSH1 0x44 DUP3 ADD MSTORE PUSH1 0x64 ADD PUSH2 0x16F4 JUMP JUMPDEST PUSH1 0x6B DUP1 SLOAD SWAP1 PUSH1 0x0 PUSH2 0x6820 DUP4 PUSH2 0x756D JUMP JUMPDEST SWAP1 SWAP2 SSTORE POP POP PUSH1 0x6A DUP1 SLOAD PUSH1 0x1 PUSH1 0x1 PUSH1 0xA0 SHL SUB SWAP1 DUP2 AND PUSH1 0x0 SWAP1 DUP2 MSTORE PUSH1 0x77 PUSH1 0x20 SWAP1 DUP2 MSTORE PUSH1 0x40 DUP1 DUP4 KECCAK256 DUP1 SLOAD PUSH1 0xFF NOT SWAP1 DUP2 AND PUSH1 0x1 SWAP1 DUP2 OR SWAP1 SWAP3 SSTORE DUP7 SLOAD DUP7 AND DUP6 MSTORE PUSH1 0x74 DUP1 DUP6 MSTORE DUP4 DUP7 KECCAK256 DUP1 SLOAD DUP4 AND DUP5 OR SWAP1 SSTORE DUP4 MLOAD DUP1 DUP6 ADD DUP6 MSTORE DUP9 SLOAD PUSH1 0x6B DUP1 SLOAD PUSH1 0x60 DUP4 DUP2 SHL PUSH12 0xFFFFFFFFFFFFFFFFFFFFFFFF NOT AND SWAP1 DUP6 ADD MSTORE TIMESTAMP SWAP5 DUP5 ADD SWAP5 SWAP1 SWAP5 MSTORE PREVRANDAO PUSH1 0x94 DUP5 ADD MSTORE PUSH1 0xB4 DUP1 DUP5 ADD SWAP5 SWAP1 SWAP5 MSTORE DUP7 MLOAD DUP1 DUP5 SUB SWAP1 SWAP5 ADD DUP5 MSTORE PUSH1 0xD4 DUP4 ADD DUP8 MSTORE DUP4 MLOAD SWAP4 DUP9 ADD SWAP4 SWAP1 SWAP4 KECCAK256 DUP3 MSTORE DUP2 DUP8 ADD DUP9 DUP2 MSTORE SWAP1 DUP10 AND DUP9 MSTORE PUSH1 0x6F DUP8 MSTORE DUP6 DUP9 KECCAK256 SWAP2 MLOAD DUP3 SSTORE MLOAD SWAP4 ADD SWAP3 SWAP1 SWAP3 SSTORE DUP7 SLOAD DUP7 AND DUP1 DUP7 MSTORE DUP4 DUP7 KECCAK256 SLOAD DUP7 MSTORE PUSH1 0x6E DUP6 MSTORE DUP4 DUP7 KECCAK256 DUP1 SLOAD PUSH1 0x1 PUSH1 0x1 PUSH1 0xA0 SHL SUB NOT AND SWAP1 SWAP2 OR SWAP1 SSTORE DUP7 SLOAD DUP7 AND DUP6 MSTORE PUSH1 0x6D SWAP1 SWAP4 MSTORE SWAP3 DUP2 SWAP1 KECCAK256 DUP1 SLOAD SWAP1 SWAP3 AND SWAP1 SWAP2 SSTORE SWAP3 SLOAD SWAP1 SLOAD SWAP3 MLOAD PUSH32 0xD704421FB24A7A835D4AA951912E468C80F0865AC478CEADCE8CC62DFCA7C669 SWAP4 PUSH2 0x6952 SWAP4 SWAP3 SWAP1 SWAP3 AND SWAP2 SWAP1 PUSH2 0x75AF JUMP JUMPDEST PUSH1 0x40 MLOAD DUP1 SWAP2 SUB SWAP1 LOG1 JUMP JUMPDEST PUSH1 0x1 PUSH1 0x1 PUSH1 0xA0 SHL SUB DUP1 DUP4 AND PUSH1 0x0 SWAP1 DUP2 MSTORE PUSH1 0x73 PUSH1 0x20 SWAP1 DUP2 MSTORE PUSH1 0x40 DUP1 DUP4 KECCAK256 SLOAD PUSH1 0x72 SWAP1 SWAP3 MSTORE DUP3 KECCAK256 SLOAD PUSH1 0x7F SLOAD SWAP2 DUP5 AND SWAP4 AND SWAP2 SWAP1 DUP2 SWAP1 DUP2 SWAP1 PUSH2 0x3E8 SWAP1 PUSH2 0x699E SWAP1 DUP9 SWAP1 PUSH2 0x762B JUMP JUMPDEST PUSH2 0x69A8 SWAP2 SWAP1 PUSH2 0x7642 JUMP JUMPDEST SWAP1 POP PUSH1 0x0 PUSH2 0x3E8 DUP8 PUSH1 0x89 SLOAD PUSH2 0x69BD SWAP2 SWAP1 PUSH2 0x762B JUMP JUMPDEST PUSH2 0x69C7 SWAP2 SWAP1 PUSH2 0x7642 JUMP JUMPDEST PUSH1 0x66 SLOAD PUSH1 0xA6 SLOAD PUSH1 0x40 MLOAD PUSH4 0x6CF50D91 PUSH1 0xE1 SHL DUP2 MSTORE SWAP3 SWAP4 POP PUSH1 0x0 SWAP3 PUSH1 0x1 PUSH1 0x1 PUSH1 0xA0 SHL SUB SWAP3 DUP4 AND SWAP3 PUSH4 0xD9EA1B22 SWAP3 PUSH2 0x6A03 SWAP3 SWAP2 AND SWAP1 DUP8 SWAP1 PUSH1 0x4 ADD PUSH2 0x75AF JUMP JUMPDEST PUSH1 0x20 PUSH1 0x40 MLOAD DUP1 DUP4 SUB DUP2 PUSH1 0x0 DUP8 GAS CALL ISZERO DUP1 ISZERO PUSH2 0x6A22 JUMPI RETURNDATASIZE PUSH1 0x0 DUP1 RETURNDATACOPY RETURNDATASIZE PUSH1 0x0 REVERT JUMPDEST POP POP POP POP PUSH1 0x40 MLOAD RETURNDATASIZE PUSH1 0x1F NOT PUSH1 0x1F DUP3 ADD AND DUP3 ADD DUP1 PUSH1 0x40 MSTORE POP DUP2 ADD SWAP1 PUSH2 0x6A46 SWAP2 SWAP1 PUSH2 0x75C8 JUMP JUMPDEST POP PUSH2 0x3E8 DUP9 PUSH1 0x7E PUSH1 0x0 DUP2 SLOAD DUP2 LT PUSH2 0x6A5F JUMPI PUSH2 0x6A5F PUSH2 0x752E JUMP JUMPDEST SWAP1 PUSH1 0x0 MSTORE PUSH1 0x20 PUSH1 0x0 KECCAK256 ADD SLOAD PUSH2 0x6A74 SWAP2 SWAP1 PUSH2 0x762B JUMP JUMPDEST PUSH2 0x6A7E SWAP2 SWAP1 PUSH2 0x7642 JUMP JUMPDEST PUSH1 0x1 PUSH1 0x1 PUSH1 0xA0 SHL SUB DUP8 AND PUSH1 0x0 SWAP1 DUP2 MSTORE PUSH1 0x74 PUSH1 0x20 MSTORE PUSH1 0x40 DUP2 KECCAK256 SLOAD SWAP2 SWAP6 POP PUSH1 0xFF SWAP1 SWAP2 AND ISZERO ISZERO SWAP1 SUB PUSH2 0x6B26 JUMPI PUSH1 0x66 SLOAD PUSH1 0xA6 SLOAD PUSH1 0x40 MLOAD PUSH4 0x6CF50D91 PUSH1 0xE1 SHL DUP2 MSTORE PUSH1 0x1 PUSH1 0x1 PUSH1 0xA0 SHL SUB SWAP3 DUP4 AND SWAP3 PUSH4 0xD9EA1B22 SWAP3 PUSH2 0x6ADD SWAP3 SWAP2 AND SWAP1 DUP9 SWAP1 PUSH1 0x4 ADD PUSH2 0x75AF JUMP JUMPDEST PUSH1 0x20 PUSH1 0x40 MLOAD DUP1 DUP4 SUB DUP2 PUSH1 0x0 DUP8 GAS CALL ISZERO DUP1 ISZERO PUSH2 0x6AFC JUMPI RETURNDATASIZE PUSH1 0x0 DUP1 RETURNDATACOPY RETURNDATASIZE PUSH1 0x0 REVERT JUMPDEST POP POP POP POP PUSH1 0x40 MLOAD RETURNDATASIZE PUSH1 0x1F NOT PUSH1 0x1F DUP3 ADD AND DUP3 ADD DUP1 PUSH1 0x40 MSTORE POP DUP2 ADD SWAP1 PUSH2 0x6B20 SWAP2 SWAP1 PUSH2 0x75C8 JUMP JUMPDEST POP PUSH2 0x6BC6 JUMP JUMPDEST PUSH1 0x66 SLOAD PUSH1 0x40 MLOAD PUSH4 0x6CF50D91 PUSH1 0xE1 SHL DUP2 MSTORE PUSH1 0x1 PUSH1 0x1 PUSH1 0xA0 SHL SUB SWAP1 SWAP2 AND SWAP1 PUSH4 0xD9EA1B22 SWAP1 PUSH2 0x6B58 SWAP1 DUP10 SWAP1 DUP9 SWAP1 PUSH1 0x4 ADD PUSH2 0x75AF JUMP JUMPDEST PUSH1 0x20 PUSH1 0x40 MLOAD DUP1 DUP4 SUB DUP2 PUSH1 0x0 DUP8 GAS CALL ISZERO DUP1 ISZERO PUSH2 0x6B77 JUMPI RETURNDATASIZE PUSH1 0x0 DUP1 RETURNDATACOPY RETURNDATASIZE PUSH1 0x0 REVERT JUMPDEST POP POP POP POP PUSH1 0x40 MLOAD RETURNDATASIZE PUSH1 0x1F NOT PUSH1 0x1F DUP3 ADD AND DUP3 ADD DUP1 PUSH1 0x40 MSTORE POP DUP2 ADD SWAP1 PUSH2 0x6B9B SWAP2 SWAP1 PUSH2 0x75C8 JUMP JUMPDEST POP PUSH1 0x0 DUP1 MLOAD PUSH1 0x20 PUSH2 0x787B DUP4 CODECOPY DUP2 MLOAD SWAP2 MSTORE DUP7 DUP6 TIMESTAMP PUSH1 0x40 MLOAD PUSH2 0x6BBD SWAP4 SWAP3 SWAP2 SWAP1 PUSH2 0x783B JUMP JUMPDEST PUSH1 0x40 MLOAD DUP1 SWAP2 SUB SWAP1 LOG1 JUMPDEST PUSH2 0x6BD0 DUP5 DUP3 PUSH2 0x755A JUMP JUMPDEST SWAP1 POP DUP4 PUSH1 0x86 PUSH1 0x0 DUP3 DUP3 SLOAD PUSH2 0x6BE4 SWAP2 SWAP1 PUSH2 0x755A JUMP JUMPDEST SWAP1 SWAP2 SSTORE POP PUSH1 0x1 SWAP1 POP JUMPDEST PUSH1 0x7E SLOAD DUP2 LT ISZERO PUSH2 0x6E9E JUMPI PUSH1 0x1 PUSH1 0x1 PUSH1 0xA0 SHL SUB DUP9 AND PUSH2 0x6C8E JUMPI PUSH1 0x66 SLOAD PUSH1 0xA6 SLOAD PUSH1 0x1 PUSH1 0x1 PUSH1 0xA0 SHL SUB SWAP2 DUP3 AND SWAP2 PUSH4 0xD9EA1B22 SWAP2 AND PUSH2 0x6C28 DUP6 DUP8 PUSH2 0x7586 JUMP JUMPDEST PUSH1 0x40 MLOAD DUP4 PUSH4 0xFFFFFFFF AND PUSH1 0xE0 SHL DUP2 MSTORE PUSH1 0x4 ADD PUSH2 0x6C45 SWAP3 SWAP2 SWAP1 PUSH2 0x75AF JUMP JUMPDEST PUSH1 0x20 PUSH1 0x40 MLOAD DUP1 DUP4 SUB DUP2 PUSH1 0x0 DUP8 GAS CALL ISZERO DUP1 ISZERO PUSH2 0x6C64 JUMPI RETURNDATASIZE PUSH1 0x0 DUP1 RETURNDATACOPY RETURNDATASIZE PUSH1 0x0 REVERT JUMPDEST POP POP POP POP PUSH1 0x40 MLOAD RETURNDATASIZE PUSH1 0x1F NOT PUSH1 0x1F DUP3 ADD AND DUP3 ADD DUP1 PUSH1 0x40 MSTORE POP DUP2 ADD SWAP1 PUSH2 0x6C88 SWAP2 SWAP1 PUSH2 0x75C8 JUMP JUMPDEST POP PUSH2 0x6E9E JUMP JUMPDEST PUSH2 0x3E8 DUP10 PUSH1 0x7E DUP4 DUP2 SLOAD DUP2 LT PUSH2 0x6CA5 JUMPI PUSH2 0x6CA5 PUSH2 0x752E JUMP JUMPDEST SWAP1 PUSH1 0x0 MSTORE PUSH1 0x20 PUSH1 0x0 KECCAK256 ADD SLOAD PUSH2 0x6CBA SWAP2 SWAP1 PUSH2 0x762B JUMP JUMPDEST PUSH2 0x6CC4 SWAP2 SWAP1 PUSH2 0x7642 JUMP JUMPDEST SWAP6 POP PUSH2 0x6CD0 DUP9 DUP3 PUSH2 0x6517 JUMP JUMPDEST DUP1 ISZERO PUSH2 0x6CF9 JUMPI POP PUSH1 0x1 PUSH1 0x1 PUSH1 0xA0 SHL SUB DUP9 AND PUSH1 0x0 SWAP1 DUP2 MSTORE PUSH1 0x74 PUSH1 0x20 MSTORE PUSH1 0x40 SWAP1 KECCAK256 SLOAD PUSH1 0xFF AND ISZERO ISZERO PUSH1 0x1 EQ JUMPDEST ISZERO PUSH2 0x6DD0 JUMPI PUSH1 0x66 SLOAD PUSH1 0x40 MLOAD PUSH4 0x6CF50D91 PUSH1 0xE1 SHL DUP2 MSTORE PUSH1 0x1 PUSH1 0x1 PUSH1 0xA0 SHL SUB SWAP1 SWAP2 AND SWAP1 PUSH4 0xD9EA1B22 SWAP1 PUSH2 0x6D30 SWAP1 DUP12 SWAP1 DUP11 SWAP1 PUSH1 0x4 ADD PUSH2 0x75AF JUMP JUMPDEST PUSH1 0x20 PUSH1 0x40 MLOAD DUP1 DUP4 SUB DUP2 PUSH1 0x0 DUP8 GAS CALL ISZERO DUP1 ISZERO PUSH2 0x6D4F JUMPI RETURNDATASIZE PUSH1 0x0 DUP1 RETURNDATACOPY RETURNDATASIZE PUSH1 0x0 REVERT JUMPDEST POP POP POP POP PUSH1 0x40 MLOAD RETURNDATASIZE PUSH1 0x1F NOT PUSH1 0x1F DUP3 ADD AND DUP3 ADD DUP1 PUSH1 0x40 MSTORE POP DUP2 ADD SWAP1 PUSH2 0x6D73 SWAP2 SWAP1 PUSH2 0x75C8 JUMP JUMPDEST POP PUSH1 0x0 DUP1 MLOAD PUSH1 0x20 PUSH2 0x787B DUP4 CODECOPY DUP2 MLOAD SWAP2 MSTORE DUP9 DUP8 TIMESTAMP PUSH1 0x40 MLOAD PUSH2 0x6D95 SWAP4 SWAP3 SWAP2 SWAP1 PUSH2 0x783B JUMP JUMPDEST PUSH1 0x40 MLOAD DUP1 SWAP2 SUB SWAP1 LOG1 PUSH1 0x1 PUSH1 0x1 PUSH1 0xA0 SHL SUB DUP9 AND PUSH1 0x0 SWAP1 DUP2 MSTORE PUSH1 0x94 PUSH1 0x20 MSTORE PUSH1 0x40 DUP2 KECCAK256 DUP1 SLOAD DUP9 SWAP3 SWAP1 PUSH2 0x6DC5 SWAP1 DUP5 SWAP1 PUSH2 0x755A JUMP JUMPDEST SWAP1 SWAP2 SSTORE POP PUSH2 0x6E4B SWAP1 POP JUMP JUMPDEST PUSH1 0x66 SLOAD PUSH1 0xA6 SLOAD PUSH1 0x40 MLOAD PUSH4 0x6CF50D91 PUSH1 0xE1 SHL DUP2 MSTORE PUSH1 0x1 PUSH1 0x1 PUSH1 0xA0 SHL SUB SWAP3 DUP4 AND SWAP3 PUSH4 0xD9EA1B22 SWAP3 PUSH2 0x6E06 SWAP3 SWAP2 AND SWAP1 DUP11 SWAP1 PUSH1 0x4 ADD PUSH2 0x75AF JUMP JUMPDEST PUSH1 0x20 PUSH1 0x40 MLOAD DUP1 DUP4 SUB DUP2 PUSH1 0x0 DUP8 GAS CALL ISZERO DUP1 ISZERO PUSH2 0x6E25 JUMPI RETURNDATASIZE PUSH1 0x0 DUP1 RETURNDATACOPY RETURNDATASIZE PUSH1 0x0 REVERT JUMPDEST POP POP POP POP PUSH1 0x40 MLOAD RETURNDATASIZE PUSH1 0x1F NOT PUSH1 0x1F DUP3 ADD AND DUP3 ADD DUP1 PUSH1 0x40 MSTORE POP DUP2 ADD SWAP1 PUSH2 0x6E49 SWAP2 SWAP1 PUSH2 0x75C8 JUMP JUMPDEST POP JUMPDEST PUSH2 0x6E55 DUP7 DUP4 PUSH2 0x755A JUMP JUMPDEST SWAP2 POP DUP6 PUSH1 0x86 PUSH1 0x0 DUP3 DUP3 SLOAD PUSH2 0x6E69 SWAP2 SWAP1 PUSH2 0x755A JUMP JUMPDEST SWAP1 SWAP2 SSTORE POP POP PUSH1 0x1 PUSH1 0x1 PUSH1 0xA0 SHL SUB SWAP8 DUP9 AND PUSH1 0x0 SWAP1 DUP2 MSTORE PUSH1 0x73 PUSH1 0x20 MSTORE PUSH1 0x40 SWAP1 KECCAK256 SLOAD SWAP1 SWAP8 AND SWAP7 DUP1 PUSH2 0x6E96 DUP2 PUSH2 0x756D JUMP JUMPDEST SWAP2 POP POP PUSH2 0x6BED JUMP JUMPDEST POP POP POP POP POP POP POP POP POP POP JUMP JUMPDEST PUSH1 0x1 PUSH1 0x1 PUSH1 0xA0 SHL SUB DUP1 DUP3 AND PUSH1 0x0 SWAP1 DUP2 MSTORE PUSH1 0x72 PUSH1 0x20 MSTORE PUSH1 0x40 SWAP1 KECCAK256 SLOAD AND JUMPDEST PUSH1 0x1 PUSH1 0x1 PUSH1 0xA0 SHL SUB DUP2 AND ISZERO PUSH2 0x4534 JUMPI PUSH1 0x1 PUSH1 0x1 PUSH1 0xA0 SHL SUB DUP2 AND PUSH1 0x0 SWAP1 DUP2 MSTORE PUSH1 0x79 PUSH1 0x20 MSTORE PUSH1 0x40 DUP2 KECCAK256 DUP1 SLOAD PUSH1 0x1 SWAP3 SWAP1 PUSH2 0x6EFE SWAP1 DUP5 SWAP1 PUSH2 0x755A JUMP JUMPDEST SWAP1 SWAP2 SSTORE POP PUSH2 0x6F0D SWAP1 POP DUP2 PUSH2 0x1183 JUMP JUMPDEST PUSH1 0x1 PUSH1 0x1 PUSH1 0xA0 SHL SUB SWAP1 DUP2 AND PUSH1 0x0 SWAP1 DUP2 MSTORE PUSH1 0x72 PUSH1 0x20 MSTORE PUSH1 0x40 SWAP1 KECCAK256 SLOAD AND PUSH2 0x6EC6 JUMP JUMPDEST PUSH1 0x40 MLOAD DUP1 PUSH2 0x260 ADD PUSH1 0x40 MSTORE DUP1 PUSH1 0x0 PUSH1 0x1 PUSH1 0x1 PUSH1 0xA0 SHL SUB AND DUP2 MSTORE PUSH1 0x20 ADD PUSH1 0x0 ISZERO ISZERO DUP2 MSTORE PUSH1 0x20 ADD PUSH1 0x0 DUP2 MSTORE PUSH1 0x20 ADD PUSH1 0x0 DUP2 MSTORE PUSH1 0x20 ADD PUSH1 0x0 DUP1 NOT AND DUP2 MSTORE PUSH1 0x20 ADD PUSH1 0x60 DUP2 MSTORE PUSH1 0x20 ADD PUSH1 0x60 DUP2 MSTORE PUSH1 0x20 ADD PUSH1 0x0 PUSH1 0x1 PUSH1 0x1 PUSH1 0xA0 SHL SUB AND DUP2 MSTORE PUSH1 0x20 ADD PUSH1 0x0 PUSH1 0x1 PUSH1 0x1 PUSH1 0xA0 SHL SUB AND DUP2 MSTORE PUSH1 0x20 ADD PUSH1 0x0 DUP2 MSTORE PUSH1 0x20 ADD PUSH1 0x0 DUP2 MSTORE PUSH1 0x20 ADD PUSH1 0x0 DUP2 MSTORE PUSH1 0x20 ADD PUSH1 0x0 DUP2 MSTORE PUSH1 0x20 ADD PUSH1 0x0 DUP2 MSTORE PUSH1 0x20 ADD PUSH1 0x0 DUP2 MSTORE PUSH1 0x20 ADD PUSH1 0x0 DUP2 MSTORE PUSH1 0x20 ADD PUSH1 0x0 DUP2 MSTORE PUSH1 0x20 ADD PUSH1 0x0 DUP2 MSTORE PUSH1 0x20 ADD PUSH1 0x0 DUP2 MSTORE POP SWAP1 JUMP JUMPDEST DUP3 DUP1 SLOAD DUP3 DUP3 SSTORE SWAP1 PUSH1 0x0 MSTORE PUSH1 0x20 PUSH1 0x0 KECCAK256 SWAP1 DUP2 ADD SWAP3 DUP3 ISZERO PUSH2 0x7020 JUMPI SWAP2 PUSH1 0x20 MUL DUP3 ADD JUMPDEST DUP3 DUP2 GT ISZERO PUSH2 0x7020 JUMPI DUP3 MLOAD DUP3 SWAP1 PUSH2 0xFFFF AND SWAP1 SSTORE SWAP2 PUSH1 0x20 ADD SWAP2 SWAP1 PUSH1 0x1 ADD SWAP1 PUSH2 0x6FFF JUMP JUMPDEST POP PUSH2 0x702C SWAP3 SWAP2 POP PUSH2 0x7070 JUMP JUMPDEST POP SWAP1 JUMP JUMPDEST DUP3 DUP1 SLOAD DUP3 DUP3 SSTORE SWAP1 PUSH1 0x0 MSTORE PUSH1 0x20 PUSH1 0x0 KECCAK256 SWAP1 DUP2 ADD SWAP3 DUP3 ISZERO PUSH2 0x7020 JUMPI SWAP2 PUSH1 0x20 MUL DUP3 ADD JUMPDEST DUP3 DUP2 GT ISZERO PUSH2 0x7020 JUMPI DUP3 MLOAD DUP3 SWAP1 PUSH1 0xFF AND SWAP1 SSTORE SWAP2 PUSH1 0x20 ADD SWAP2 SWAP1 PUSH1 0x1 ADD SWAP1 PUSH2 0x7050 JUMP JUMPDEST JUMPDEST DUP1 DUP3 GT ISZERO PUSH2 0x702C JUMPI PUSH1 0x0 DUP2 SSTORE PUSH1 0x1 ADD PUSH2 0x7071 JUMP JUMPDEST PUSH1 0x1 PUSH1 0x1 PUSH1 0xA0 SHL SUB DUP2 AND DUP2 EQ PUSH2 0x40ED JUMPI PUSH1 0x0 DUP1 REVERT JUMPDEST PUSH1 0x0 PUSH1 0x20 DUP3 DUP5 SUB SLT ISZERO PUSH2 0x70AC JUMPI PUSH1 0x0 DUP1 REVERT JUMPDEST DUP2 CALLDATALOAD PUSH2 0x392F DUP2 PUSH2 0x7085 JUMP JUMPDEST PUSH1 0x0 PUSH1 0x20 DUP3 DUP5 SUB SLT ISZERO PUSH2 0x70C9 JUMPI PUSH1 0x0 DUP1 REVERT JUMPDEST POP CALLDATALOAD SWAP2 SWAP1 POP JUMP JUMPDEST PUSH1 0x0 DUP1 PUSH1 0x40 DUP4 DUP6 SUB SLT ISZERO PUSH2 0x70E3 JUMPI PUSH1 0x0 DUP1 REVERT JUMPDEST DUP3 CALLDATALOAD PUSH2 0x70EE DUP2 PUSH2 0x7085 JUMP JUMPDEST SWAP2 POP PUSH1 0x20 DUP4 ADD CALLDATALOAD PUSH1 0xFF DUP2 AND DUP2 EQ PUSH2 0x7104 JUMPI PUSH1 0x0 DUP1 REVERT JUMPDEST DUP1 SWAP2 POP POP SWAP3 POP SWAP3 SWAP1 POP JUMP JUMPDEST PUSH1 0x0 DUP1 PUSH1 0x40 DUP4 DUP6 SUB SLT ISZERO PUSH2 0x7122 JUMPI PUSH1 0x0 DUP1 REVERT JUMPDEST DUP3 CALLDATALOAD PUSH2 0x712D DUP2 PUSH2 0x7085 JUMP JUMPDEST SWAP5 PUSH1 0x20 SWAP4 SWAP1 SWAP4 ADD CALLDATALOAD SWAP4 POP POP POP JUMP JUMPDEST PUSH1 0x0 DUP2 MLOAD DUP1 DUP5 MSTORE PUSH1 0x20 DUP1 DUP6 ADD SWAP5 POP DUP1 DUP5 ADD PUSH1 0x0 JUMPDEST DUP4 DUP2 LT ISZERO PUSH2 0x7174 JUMPI DUP2 MLOAD PUSH1 0x1 PUSH1 0x1 PUSH1 0xA0 SHL SUB AND DUP8 MSTORE SWAP6 DUP3 ADD SWAP6 SWAP1 DUP3 ADD SWAP1 PUSH1 0x1 ADD PUSH2 0x714F JUMP JUMPDEST POP SWAP5 SWAP6 SWAP5 POP POP POP POP POP JUMP JUMPDEST DUP1 MLOAD PUSH1 0x1 PUSH1 0x1 PUSH1 0xA0 SHL SUB AND DUP3 MSTORE PUSH1 0x0 PUSH2 0x260 PUSH1 0x20 DUP4 ADD MLOAD PUSH2 0x71A4 PUSH1 0x20 DUP7 ADD DUP3 ISZERO ISZERO SWAP1 MSTORE JUMP JUMPDEST POP PUSH1 0x40 DUP4 ADD MLOAD PUSH1 0x40 DUP6 ADD MSTORE PUSH1 0x60 DUP4 ADD MLOAD PUSH1 0x60 DUP6 ADD MSTORE PUSH1 0x80 DUP4 ADD MLOAD PUSH1 0x80 DUP6 ADD MSTORE PUSH1 0xA0 DUP4 ADD MLOAD DUP2 PUSH1 0xA0 DUP7 ADD MSTORE PUSH2 0x71DA DUP3 DUP7 ADD DUP3 PUSH2 0x713B JUMP JUMPDEST SWAP2 POP POP PUSH1 0xC0 DUP4 ADD MLOAD DUP5 DUP3 SUB PUSH1 0xC0 DUP7 ADD MSTORE PUSH2 0x71F4 DUP3 DUP3 PUSH2 0x713B JUMP JUMPDEST SWAP2 POP POP PUSH1 0xE0 DUP4 ADD MLOAD PUSH2 0x7211 PUSH1 0xE0 DUP7 ADD DUP3 PUSH1 0x1 PUSH1 0x1 PUSH1 0xA0 SHL SUB AND SWAP1 MSTORE JUMP JUMPDEST POP PUSH2 0x100 DUP4 DUP2 ADD MLOAD PUSH1 0x1 PUSH1 0x1 PUSH1 0xA0 SHL SUB AND SWAP1 DUP6 ADD MSTORE PUSH2 0x120 DUP1 DUP5 ADD MLOAD SWAP1 DUP6 ADD MSTORE PUSH2 0x140 DUP1 DUP5 ADD MLOAD SWAP1 DUP6 ADD MSTORE PUSH2 0x160 DUP1 DUP5 ADD MLOAD SWAP1 DUP6 ADD MSTORE PUSH2 0x180 DUP1 DUP5 ADD MLOAD SWAP1 DUP6 ADD MSTORE PUSH2 0x1A0 DUP1 DUP5 ADD MLOAD SWAP1 DUP6 ADD MSTORE PUSH2 0x1C0 DUP1 DUP5 ADD MLOAD SWAP1 DUP6 ADD MSTORE PUSH2 0x1E0 DUP1 DUP5 ADD MLOAD SWAP1 DUP6 ADD MSTORE PUSH2 0x200 DUP1 DUP5 ADD MLOAD SWAP1 DUP6 ADD MSTORE PUSH2 0x220 DUP1 DUP5 ADD MLOAD SWAP1 DUP6 ADD MSTORE PUSH2 0x240 SWAP3 DUP4 ADD MLOAD SWAP3 SWAP1 SWAP4 ADD SWAP2 SWAP1 SWAP2 MSTORE POP SWAP1 JUMP JUMPDEST PUSH1 0x20 DUP2 MSTORE PUSH1 0x0 PUSH2 0x392F PUSH1 0x20 DUP4 ADD DUP5 PUSH2 0x717F JUMP JUMPDEST PUSH1 0x0 PUSH1 0x20 DUP1 DUP4 ADD DUP2 DUP5 MSTORE DUP1 DUP6 MLOAD DUP1 DUP4 MSTORE PUSH1 0x40 DUP7 ADD SWAP2 POP PUSH1 0x40 DUP2 PUSH1 0x5 SHL DUP8 ADD ADD SWAP3 POP DUP4 DUP8 ADD PUSH1 0x0 JUMPDEST DUP3 DUP2 LT ISZERO PUSH2 0x7304 JUMPI PUSH1 0x3F NOT DUP9 DUP7 SUB ADD DUP5 MSTORE PUSH2 0x72F2 DUP6 DUP4 MLOAD PUSH2 0x717F JUMP JUMPDEST SWAP5 POP SWAP3 DUP6 ADD SWAP3 SWAP1 DUP6 ADD SWAP1 PUSH1 0x1 ADD PUSH2 0x72D6 JUMP JUMPDEST POP SWAP3 SWAP8 SWAP7 POP POP POP POP POP POP POP JUMP JUMPDEST PUSH1 0x20 DUP2 MSTORE PUSH1 0x0 PUSH2 0x392F PUSH1 0x20 DUP4 ADD DUP5 PUSH2 0x713B JUMP JUMPDEST PUSH1 0x0 DUP1 PUSH1 0x40 DUP4 DUP6 SUB SLT ISZERO PUSH2 0x7337 JUMPI PUSH1 0x0 DUP1 REVERT JUMPDEST DUP3 CALLDATALOAD SWAP2 POP PUSH1 0x20 DUP4 ADD CALLDATALOAD PUSH2 0x7104 DUP2 PUSH2 0x7085 JUMP JUMPDEST PUSH1 0x0 DUP1 PUSH1 0x0 PUSH1 0x60 DUP5 DUP7 SUB SLT ISZERO PUSH2 0x735E JUMPI PUSH1 0x0 DUP1 REVERT JUMPDEST DUP4 CALLDATALOAD PUSH2 0x7369 DUP2 PUSH2 0x7085 JUMP JUMPDEST SWAP6 PUSH1 0x20 DUP6 ADD CALLDATALOAD SWAP6 POP PUSH1 0x40 SWAP1 SWAP5 ADD CALLDATALOAD SWAP4 SWAP3 POP POP POP JUMP JUMPDEST PUSH1 0x0 DUP1 PUSH1 0x0 DUP1 PUSH1 0x0 DUP1 PUSH1 0x0 DUP1 PUSH2 0x100 DUP10 DUP12 SUB SLT ISZERO PUSH2 0x739B JUMPI PUSH1 0x0 DUP1 REVERT JUMPDEST DUP9 CALLDATALOAD PUSH2 0x73A6 DUP2 PUSH2 0x7085 JUMP JUMPDEST SWAP8 POP PUSH1 0x20 DUP10 ADD CALLDATALOAD PUSH2 0x73B6 DUP2 PUSH2 0x7085 JUMP JUMPDEST SWAP7 POP PUSH1 0x40 DUP10 ADD CALLDATALOAD PUSH2 0x73C6 DUP2 PUSH2 0x7085 JUMP JUMPDEST SWAP6 POP PUSH1 0x60 DUP10 ADD CALLDATALOAD PUSH2 0x73D6 DUP2 PUSH2 0x7085 JUMP JUMPDEST SWAP5 POP PUSH1 0x80 DUP10 ADD CALLDATALOAD PUSH2 0x73E6 DUP2 PUSH2 0x7085 JUMP JUMPDEST SWAP4 POP PUSH1 0xA0 DUP10 ADD CALLDATALOAD PUSH2 0x73F6 DUP2 PUSH2 0x7085 JUMP JUMPDEST SWAP3 POP PUSH1 0xC0 DUP10 ADD CALLDATALOAD PUSH2 0x7406 DUP2 PUSH2 0x7085 JUMP JUMPDEST SWAP2 POP PUSH1 0xE0 DUP10 ADD CALLDATALOAD PUSH2 0x7416 DUP2 PUSH2 0x7085 JUMP JUMPDEST DUP1 SWAP2 POP POP SWAP3 SWAP6 SWAP9 POP SWAP3 SWAP6 SWAP9 SWAP1 SWAP4 SWAP7 POP JUMP JUMPDEST PUSH1 0x20 DUP1 DUP3 MSTORE DUP3 MLOAD DUP3 DUP3 ADD DUP2 SWAP1 MSTORE PUSH1 0x0 SWAP2 SWAP1 PUSH1 0x40 SWAP1 DUP2 DUP6 ADD SWAP1 DUP7 DUP5 ADD DUP6 JUMPDEST DUP3 DUP2 LT ISZERO PUSH2 0x7476 JUMPI DUP2 MLOAD DUP1 MLOAD PUSH1 0x1 PUSH1 0x1 PUSH1 0xA0 SHL SUB SWAP1 DUP2 AND DUP7 MSTORE SWAP1 DUP8 ADD MLOAD AND DUP7 DUP6 ADD MSTORE SWAP3 DUP5 ADD SWAP3 SWAP1 DUP6 ADD SWAP1 PUSH1 0x1 ADD PUSH2 0x7444 JUMP JUMPDEST POP SWAP2 SWAP8 SWAP7 POP POP POP POP POP POP POP JUMP JUMPDEST PUSH1 0x0 DUP1 PUSH1 0x0 DUP1 PUSH1 0x0 PUSH1 0xA0 DUP7 DUP9 SUB SLT ISZERO PUSH2 0x749B JUMPI PUSH1 0x0 DUP1 REVERT JUMPDEST DUP6 CALLDATALOAD SWAP5 POP PUSH1 0x20 DUP7 ADD CALLDATALOAD SWAP4 POP PUSH1 0x40 DUP7 ADD CALLDATALOAD SWAP3 POP PUSH1 0x60 DUP7 ADD CALLDATALOAD SWAP2 POP PUSH1 0x80 DUP7 ADD CALLDATALOAD PUSH2 0x74C2 DUP2 PUSH2 0x7085 JUMP JUMPDEST DUP1 SWAP2 POP POP SWAP3 SWAP6 POP SWAP3 SWAP6 SWAP1 SWAP4 POP JUMP JUMPDEST PUSH1 0x0 PUSH2 0x140 PUSH1 0xFF DUP14 AND DUP4 MSTORE DUP12 PUSH1 0x20 DUP5 ADD MSTORE DUP1 PUSH1 0x40 DUP5 ADD MSTORE PUSH2 0x74F3 DUP2 DUP5 ADD DUP13 PUSH2 0x713B JUMP JUMPDEST PUSH1 0x60 DUP5 ADD SWAP11 SWAP1 SWAP11 MSTORE POP POP PUSH1 0x80 DUP2 ADD SWAP7 SWAP1 SWAP7 MSTORE PUSH1 0xA0 DUP7 ADD SWAP5 SWAP1 SWAP5 MSTORE PUSH1 0xC0 DUP6 ADD SWAP3 SWAP1 SWAP3 MSTORE PUSH1 0xE0 DUP5 ADD MSTORE PUSH2 0x100 DUP4 ADD MSTORE PUSH2 0x120 SWAP1 SWAP2 ADD MSTORE SWAP4 SWAP3 POP POP POP JUMP JUMPDEST PUSH4 0x4E487B71 PUSH1 0xE0 SHL PUSH1 0x0 MSTORE PUSH1 0x32 PUSH1 0x4 MSTORE PUSH1 0x24 PUSH1 0x0 REVERT JUMPDEST PUSH4 0x4E487B71 PUSH1 0xE0 SHL PUSH1 0x0 MSTORE PUSH1 0x11 PUSH1 0x4 MSTORE PUSH1 0x24 PUSH1 0x0 REVERT JUMPDEST DUP1 DUP3 ADD DUP1 DUP3 GT ISZERO PUSH2 0x117D JUMPI PUSH2 0x117D PUSH2 0x7544 JUMP JUMPDEST PUSH1 0x0 PUSH1 0x1 DUP3 ADD PUSH2 0x757F JUMPI PUSH2 0x757F PUSH2 0x7544 JUMP JUMPDEST POP PUSH1 0x1 ADD SWAP1 JUMP JUMPDEST DUP2 DUP2 SUB DUP2 DUP2 GT ISZERO PUSH2 0x117D JUMPI PUSH2 0x117D PUSH2 0x7544 JUMP JUMPDEST PUSH4 0x4E487B71 PUSH1 0xE0 SHL PUSH1 0x0 MSTORE PUSH1 0x41 PUSH1 0x4 MSTORE PUSH1 0x24 PUSH1 0x0 REVERT JUMPDEST PUSH1 0x1 PUSH1 0x1 PUSH1 0xA0 SHL SUB SWAP3 SWAP1 SWAP3 AND DUP3 MSTORE PUSH1 0x20 DUP3 ADD MSTORE PUSH1 0x40 ADD SWAP1 JUMP JUMPDEST PUSH1 0x0 PUSH1 0x20 DUP3 DUP5 SUB SLT ISZERO PUSH2 0x75DA JUMPI PUSH1 0x0 DUP1 REVERT JUMPDEST DUP2 MLOAD DUP1 ISZERO ISZERO DUP2 EQ PUSH2 0x392F JUMPI PUSH1 0x0 DUP1 REVERT JUMPDEST PUSH1 0x20 DUP1 DUP3 MSTORE PUSH1 0x21 SWAP1 DUP3 ADD MSTORE PUSH32 0x496E76616C69642063616C6C65722D6F6E6C795061636B436F6E74726F6C6C65 PUSH1 0x40 DUP3 ADD MSTORE PUSH1 0x39 PUSH1 0xF9 SHL PUSH1 0x60 DUP3 ADD MSTORE PUSH1 0x80 ADD SWAP1 JUMP JUMPDEST DUP1 DUP3 MUL DUP2 ISZERO DUP3 DUP3 DIV DUP5 EQ OR PUSH2 0x117D JUMPI PUSH2 0x117D PUSH2 0x7544 JUMP JUMPDEST PUSH1 0x0 DUP3 PUSH2 0x765F JUMPI PUSH4 0x4E487B71 PUSH1 0xE0 SHL PUSH1 0x0 MSTORE PUSH1 0x12 PUSH1 0x4 MSTORE PUSH1 0x24 PUSH1 0x0 REVERT JUMPDEST POP DIV SWAP1 JUMP JUMPDEST PUSH1 0x1 PUSH1 0x1 PUSH1 0xA0 SHL SUB SWAP4 SWAP1 SWAP4 AND DUP4 MSTORE PUSH1 0x20 DUP4 ADD SWAP2 SWAP1 SWAP2 MSTORE PUSH1 0x40 DUP3 ADD MSTORE PUSH1 0x80 PUSH1 0x60 DUP3 ADD DUP2 SWAP1 MSTORE PUSH1 0x4 SWAP1 DUP3 ADD MSTORE PUSH4 0x53616C65 PUSH1 0xE0 SHL PUSH1 0xA0 DUP3 ADD MSTORE PUSH1 0xC0 ADD SWAP1 JUMP JUMPDEST PUSH1 0x0 PUSH1 0x20 DUP3 DUP5 SUB SLT ISZERO PUSH2 0x76B3 JUMPI PUSH1 0x0 DUP1 REVERT JUMPDEST POP MLOAD SWAP2 SWAP1 POP JUMP JUMPDEST PUSH4 0x4E487B71 PUSH1 0xE0 SHL PUSH1 0x0 MSTORE PUSH1 0x31 PUSH1 0x4 MSTORE PUSH1 0x24 PUSH1 0x0 REVERT JUMPDEST PUSH1 0x20 DUP1 DUP3 MSTORE PUSH1 0x21 SWAP1 DUP3 ADD MSTORE PUSH32 0x4661696C6564207472616E73666572206D617472697820636F6D6D697373696F PUSH1 0x40 DUP3 ADD MSTORE PUSH1 0x37 PUSH1 0xF9 SHL PUSH1 0x60 DUP3 ADD MSTORE PUSH1 0x80 ADD SWAP1 JUMP JUMPDEST PUSH1 0x20 DUP1 DUP3 MSTORE PUSH1 0x23 SWAP1 DUP3 ADD MSTORE PUSH32 0x4661696C6564207472616E73666572206578747261204469616D6F6E6420626F PUSH1 0x40 DUP3 ADD MSTORE PUSH3 0x6E7573 PUSH1 0xE8 SHL PUSH1 0x60 DUP3 ADD MSTORE PUSH1 0x80 ADD SWAP1 JUMP JUMPDEST PUSH1 0x20 DUP1 DUP3 MSTORE PUSH1 0x29 SWAP1 DUP3 ADD MSTORE PUSH32 0x4661696C6564207472616E736665722065787472612043726F776E204469616D PUSH1 0x40 DUP3 ADD MSTORE PUSH9 0x6F6E6420626F6E7573 PUSH1 0xB8 SHL PUSH1 0x60 DUP3 ADD MSTORE PUSH1 0x80 ADD SWAP1 JUMP JUMPDEST PUSH1 0x20 DUP1 DUP3 MSTORE PUSH1 0x2B SWAP1 DUP3 ADD MSTORE PUSH32 0x496E697469616C697A61626C653A20636F6E7472616374206973206E6F742069 PUSH1 0x40 DUP3 ADD MSTORE PUSH11 0x6E697469616C697A696E67 PUSH1 0xA8 SHL PUSH1 0x60 DUP3 ADD MSTORE PUSH1 0x80 ADD SWAP1 JUMP JUMPDEST PUSH1 0x0 PUSH1 0x20 DUP3 DUP5 SUB SLT ISZERO PUSH2 0x77FA JUMPI PUSH1 0x0 DUP1 REVERT JUMPDEST DUP2 MLOAD PUSH2 0x392F DUP2 PUSH2 0x7085 JUMP JUMPDEST PUSH4 0x4E487B71 PUSH1 0xE0 SHL PUSH1 0x0 MSTORE PUSH1 0x21 PUSH1 0x4 MSTORE PUSH1 0x24 PUSH1 0x0 REVERT JUMPDEST PUSH1 0x1 PUSH1 0x1 PUSH1 0x40 SHL SUB DUP2 DUP2 AND DUP4 DUP3 AND ADD SWAP1 DUP1 DUP3 GT ISZERO PUSH2 0xFB7 JUMPI PUSH2 0xFB7 PUSH2 0x7544 JUMP JUMPDEST PUSH1 0x1 PUSH1 0x1 PUSH1 0xA0 SHL SUB SWAP4 SWAP1 SWAP4 AND DUP4 MSTORE PUSH1 0x20 DUP4 ADD SWAP2 SWAP1 SWAP2 MSTORE PUSH1 0x40 DUP3 ADD MSTORE PUSH1 0x80 PUSH1 0x60 DUP3 ADD DUP2 SWAP1 MSTORE PUSH1 0x6 SWAP1 DUP3 ADD MSTORE PUSH6 0x111A5C9958DD PUSH1 0xD2 SHL PUSH1 0xA0 DUP3 ADD MSTORE PUSH1 0xC0 ADD SWAP1 JUMP INVALID 0xC6 MSTORE8 DUP8 JUMPI 0x21 0xBE ADDMOD 0xF8 EXP 0x5E DUP15 SWAP13 MSIZE 0x24 0xCB 0xD3 0xFC JUMPDEST 0x4A 0xE8 0xD5 0xDA 0xE SELFDESTRUCT 0xD 0xF PUSH10 0xA4427C067DA264697066 PUSH20 0x5822122075428BB7458E82CAB8A2AAEE20E11A37 0xDF MSTORE BASEFEE DUP14 0x2D CREATE 0xD0 0x4C 0x26 CALL 0xC3 BASEFEE SDIV CALLDATASIZE PUSH26 0x8E64736F6C634300081300330000000000000000000000000000 "
		},
		"gasEstimates": {
			"creation": {
				"codeDepositCost": "6185600",
				"executionCost": "7655",
				"totalCost": "6193255"
			},
			"external": {
				"CheckActiveMember(address)": "2633",
				"CheckExistMember(address)": "2631",
				"CountTotalChildren(address,uint256)": "infinite",
				"DAO_DT()": "2404",
				"DT()": "2470",
				"DT_DEBT()": "2462",
				"DT_RATE()": "2351",
				"GetCodeRef()": "4658",
				"GetHeadRef(address)": "2696",
				"GetInfoForBinaryTree(address)": "infinite",
				"GetRefCodeOwner(bytes32)": "2589",
				"GetSubInfo()": "6938",
				"GetTotalChildren(address)": "infinite",
				"GetTotalChildrenMatrix(address)": "infinite",
				"GetUserInfo(address)": "infinite",
				"MTN()": "2470",
				"MTN_RATE()": "2419",
				"PaySub(uint256,address)": "infinite",
				"RETAIL_BONUS_RATE()": "2418",
				"RankUpdateBranchRequired()": "2418",
				"Register(bytes32,bytes32,uint256,bytes32,address)": "infinite",
				"SetAdmin(address)": "26858",
				"SetBinaryTree(address)": "26906",
				"SetMasterPool(address)": "26885",
				"SetPackageController(address)": "26863",
				"SetRegisterFee(uint256)": "24579",
				"SetSubFee(uint256)": "24642",
				"SetTimeInActive(uint256)": "24600",
				"SetUsdt(address)": "26796",
				"SetWallet(address)": "26906",
				"TransferCommissionByProduct(address,uint256)": "infinite",
				"TransferCommssion(address,uint256,uint256)": "infinite",
				"TransferRetailBonus(address,uint256)": "infinite",
				"UpdatePhone(bytes32)": "47018",
				"UpdateRank(address,uint8)": "infinite",
				"ViewDirect(address)": "infinite",
				"_calculateTotalChildWithRank(address,uint8)": "infinite",
				"_calculateTotalMaxMember1BranchForUpdateLevel(address,uint8)": "infinite",
				"_calculateTotalMemberForUpdateLevel(address)": "infinite",
				"_updateRank(address)": "infinite",
				"adDirectRate()": "2398",
				"binaryTree()": "2514",
				"childrens(address,uint256)": "4957",
				"childrensMatrix(address,uint256)": "4847",
				"comDirectRate(uint256)": "4719",
				"comMatchingRate(uint256)": "4719",
				"commissionRate(uint256)": "4654",
				"currentRevenueForGoodSaleBonus(address)": "2570",
				"day()": "2404",
				"initialize(address,address,address,address,address,address,address,address)": "infinite",
				"isAdmin(address)": "2594",
				"kCode()": "2493",
				"levelCareerBonus(uint256)": "4742",
				"line(address)": "2641",
				"lineMatrix(address)": "2685",
				"mGenerations(address)": "2830",
				"mIsPaiedCareerBonus(address,uint8)": "2812",
				"mRefCode(bytes32)": "2569",
				"mSub(address)": "2593",
				"mSubInfo(address)": "4764",
				"masterPool()": "2427",
				"maxLineForMatrixBonus()": "2373",
				"mphone(address)": "2636",
				"mtotalMember(address)": "2680",
				"owner()": "2443",
				"packageController()": "2493",
				"payGoodSaleBonusWeekly()": "infinite",
				"ranks(address)": "2619",
				"renounceOwnership()": "infinite",
				"root()": "2448",
				"totalCareerPayment()": "2418",
				"totalExtraCrownDiamondBonus(address)": "2658",
				"totalExtraCrownDiamondPayment()": "2395",
				"totalExtraDiamondBonus(address)": "2615",
				"totalExtraDiamondPayment()": "2372",
				"totalGoodSaleBonus(address)": "2570",
				"totalMatchingBonus(address)": "2614",
				"totalMatchingPayment()": "2420",
				"totalMatrixBonus(address)": "2657",
				"totalMatrixPayment()": "2417",
				"totalMaxMembers1BranchToRankUp(uint256)": "4654",
				"totalMemberF1RequiedToRankUps(uint256)": "4699",
				"totalMemberRequiedToRankUps(uint256)": "4675",
				"totalRevenues(address)": "2658",
				"totalSale(address)": "2637",
				"totalSaleBonus(address)": "2659",
				"totalSalePayment()": "2395",
				"totalSubcriptionBonus(address)": "2572",
				"totalSubscriptionPayment()": "2353",
				"totalUser()": "2395",
				"transferOwnership(address)": "infinite",
				"updateRankDaily()": "infinite",
				"usdt()": "2516",
				"usdtDecimal()": "2374",
				"viewTreeInfo(address)": "infinite",
				"viewTreeMatrixInfo(address)": "infinite",
				"viewtree(address)": "infinite",
				"viewtreeMatrix(address)": "infinite"
			},
			"internal": {
				"PartnerPaymentDebt(uint256)": "infinite",
				"_addBinaryTree(address)": "infinite",
				"_addHeadRef(address,bytes32)": "infinite",
				"_addMemberLevels(address)": "infinite",
				"_bonusForCrownDiamond(uint256)": "infinite",
				"_bonusForDiamond(uint256)": "infinite",
				"_createSubscription(address,uint256,bytes32)": "infinite",
				"_createSubscriptionRoot()": "infinite",
				"_initiationForRoot()": "infinite",
				"_isValidLevel(address,uint256)": "16140",
				"_isValidLevelForMatrix(address,uint256)": "16083",
				"_minusMemberLevels(address)": "infinite",
				"_transferDirectCommission(address,uint256)": "infinite",
				"_transferMatchingBonus(address,uint256)": "infinite",
				"_transferMatrixBonus(address,uint256)": "infinite",
				"_transferSaleCommission(address,uint256)": "infinite",
				"addCrownDiamond(address)": "infinite",
				"addDiamond(address)": "infinite",
				"removeCrownDiamond(address)": "infinite",
				"removeDiamond(address)": "infinite"
			}
		},
		"methodIdentifiers": {
			"CheckActiveMember(address)": "9c5f29c0",
			"CheckExistMember(address)": "494da411",
			"CountTotalChildren(address,uint256)": "2133b5fb",
			"DAO_DT()": "d19bea67",
			"DT()": "edaaeed2",
			"DT_DEBT()": "cec643b3",
			"DT_RATE()": "a8223c06",
			"GetCodeRef()": "d2057399",
			"GetHeadRef(address)": "29e1d478",
			"GetInfoForBinaryTree(address)": "ff572549",
			"GetRefCodeOwner(bytes32)": "5b11ce4c",
			"GetSubInfo()": "6c23e6bb",
			"GetTotalChildren(address)": "88527d3c",
			"GetTotalChildrenMatrix(address)": "ba1abc16",
			"GetUserInfo(address)": "2c9387f6",
			"MTN()": "776c14c0",
			"MTN_RATE()": "202c0c2f",
			"PaySub(uint256,address)": "707d64cb",
			"RETAIL_BONUS_RATE()": "5df0a085",
			"RankUpdateBranchRequired()": "a0a92fcb",
			"Register(bytes32,bytes32,uint256,bytes32,address)": "e5dfb5bf",
			"SetAdmin(address)": "5a272403",
			"SetBinaryTree(address)": "da5c8344",
			"SetMasterPool(address)": "a559934e",
			"SetPackageController(address)": "3cc44a48",
			"SetRegisterFee(uint256)": "18a39bf2",
			"SetSubFee(uint256)": "ff694559",
			"SetTimeInActive(uint256)": "cae67333",
			"SetUsdt(address)": "ddcd6408",
			"SetWallet(address)": "e80d9383",
			"TransferCommissionByProduct(address,uint256)": "cb249b43",
			"TransferCommssion(address,uint256,uint256)": "7c148a48",
			"TransferRetailBonus(address,uint256)": "499642f8",
			"UpdatePhone(bytes32)": "4decfded",
			"UpdateRank(address,uint8)": "30abb2e3",
			"ViewDirect(address)": "a645ccec",
			"_calculateTotalChildWithRank(address,uint8)": "6d93adb7",
			"_calculateTotalMaxMember1BranchForUpdateLevel(address,uint8)": "1772503f",
			"_calculateTotalMemberForUpdateLevel(address)": "16d189cd",
			"_updateRank(address)": "183736a6",
			"adDirectRate()": "0b1e7cce",
			"binaryTree()": "b92fc3aa",
			"childrens(address,uint256)": "55cdaf59",
			"childrensMatrix(address,uint256)": "44346958",
			"comDirectRate(uint256)": "e610e46d",
			"comMatchingRate(uint256)": "b3e2f043",
			"commissionRate(uint256)": "bb675355",
			"currentRevenueForGoodSaleBonus(address)": "57ef7e24",
			"day()": "7b76ac91",
			"initialize(address,address,address,address,address,address,address,address)": "8a29e2de",
			"isAdmin(address)": "24d7806c",
			"kCode()": "6221a4ed",
			"levelCareerBonus(uint256)": "4376bb89",
			"line(address)": "de6f8fe8",
			"lineMatrix(address)": "d6cf2f11",
			"mGenerations(address)": "1b52d64e",
			"mIsPaiedCareerBonus(address,uint8)": "786c11e9",
			"mRefCode(bytes32)": "081fc579",
			"mSub(address)": "67574cb1",
			"mSubInfo(address)": "9f7bb6c7",
			"masterPool()": "8c7ab1d7",
			"maxLineForMatrixBonus()": "a8b90f3f",
			"mphone(address)": "8eecfb7d",
			"mtotalMember(address)": "91eea25f",
			"owner()": "8da5cb5b",
			"packageController()": "6d1f6249",
			"payGoodSaleBonusWeekly()": "37e6dc60",
			"ranks(address)": "25691de4",
			"renounceOwnership()": "715018a6",
			"root()": "ebf0c717",
			"totalCareerPayment()": "6c412b5c",
			"totalExtraCrownDiamondBonus(address)": "419e1575",
			"totalExtraCrownDiamondPayment()": "7235e5d6",
			"totalExtraDiamondBonus(address)": "26860735",
			"totalExtraDiamondPayment()": "f0d4f19c",
			"totalGoodSaleBonus(address)": "9c5c8cbf",
			"totalMatchingBonus(address)": "6c3fe078",
			"totalMatchingPayment()": "165abf8b",
			"totalMatrixBonus(address)": "d9796fd1",
			"totalMatrixPayment()": "b106b0c9",
			"totalMaxMembers1BranchToRankUp(uint256)": "6dd0f022",
			"totalMemberF1RequiedToRankUps(uint256)": "7dcdac8a",
			"totalMemberRequiedToRankUps(uint256)": "ab36667f",
			"totalRevenues(address)": "8ff18d73",
			"totalSale(address)": "4ca751a6",
			"totalSaleBonus(address)": "86bd3eab",
			"totalSalePayment()": "d5fcd3bc",
			"totalSubcriptionBonus(address)": "0763872e",
			"totalSubscriptionPayment()": "795b5cd4",
			"totalUser()": "e1604b70",
			"transferOwnership(address)": "f2fde38b",
			"updateRankDaily()": "246c7d69",
			"usdt()": "2f48ab7d",
			"usdtDecimal()": "362efc3d",
			"viewTreeInfo(address)": "e85b76de",
			"viewTreeMatrixInfo(address)": "652bbf5e",
			"viewtree(address)": "cd05e269",
			"viewtreeMatrix(address)": "6e83822b"
		}
	},
	"abi": [
		{
			"inputs": [],
			"stateMutability": "payable",
			"type": "constructor"
		},
		{
			"anonymous": false,
			"inputs": [
				{
					"indexed": false,
					"internalType": "uint8",
					"name": "version",
					"type": "uint8"
				}
			],
			"name": "Initialized",
			"type": "event"
		},
		{
			"anonymous": false,
			"inputs": [
				{
					"indexed": true,
					"internalType": "address",
					"name": "previousOwner",
					"type": "address"
				},
				{
					"indexed": true,
					"internalType": "address",
					"name": "newOwner",
					"type": "address"
				}
			],
			"name": "OwnershipTransferred",
			"type": "event"
		},
		{
			"anonymous": false,
			"inputs": [
				{
					"indexed": false,
					"internalType": "address",
					"name": "sub",
					"type": "address"
				},
				{
					"indexed": false,
					"internalType": "uint256",
					"name": "amountUsdt",
					"type": "uint256"
				},
				{
					"indexed": false,
					"internalType": "uint256",
					"name": "date",
					"type": "uint256"
				},
				{
					"indexed": false,
					"internalType": "string",
					"name": "typ",
					"type": "string"
				}
			],
			"name": "PayBonus",
			"type": "event"
		},
		{
			"anonymous": false,
			"inputs": [
				{
					"indexed": false,
					"internalType": "address",
					"name": "user",
					"type": "address"
				},
				{
					"indexed": false,
					"internalType": "uint256",
					"name": "id",
					"type": "uint256"
				}
			],
			"name": "Subcribed",
			"type": "event"
		},
		{
			"anonymous": false,
			"inputs": [
				{
					"indexed": false,
					"internalType": "address",
					"name": "user",
					"type": "address"
				},
				{
					"indexed": false,
					"internalType": "bytes32",
					"name": "codeRef",
					"type": "bytes32"
				}
			],
			"name": "eAddHeadRef",
			"type": "event"
		},
		{
			"inputs": [
				{
					"internalType": "address",
					"name": "user",
					"type": "address"
				}
			],
			"name": "CheckActiveMember",
			"outputs": [
				{
					"internalType": "bool",
					"name": "",
					"type": "bool"
				}
			],
			"stateMutability": "view",
			"type": "function"
		},
		{
			"inputs": [
				{
					"internalType": "address",
					"name": "_address",
					"type": "address"
				}
			],
			"name": "CheckExistMember",
			"outputs": [
				{
					"internalType": "bool",
					"name": "",
					"type": "bool"
				}
			],
			"stateMutability": "view",
			"type": "function"
		},
		{
			"inputs": [
				{
					"internalType": "address",
					"name": "user",
					"type": "address"
				},
				{
					"internalType": "uint256",
					"name": "generation",
					"type": "uint256"
				}
			],
			"name": "CountTotalChildren",
			"outputs": [
				{
					"internalType": "uint256",
					"name": "",
					"type": "uint256"
				}
			],
			"stateMutability": "view",
			"type": "function"
		},
		{
			"inputs": [],
			"name": "DAO_DT",
			"outputs": [
				{
					"internalType": "address",
					"name": "",
					"type": "address"
				}
			],
			"stateMutability": "view",
			"type": "function"
		},
		{
			"inputs": [],
			"name": "DT",
			"outputs": [
				{
					"internalType": "address",
					"name": "",
					"type": "address"
				}
			],
			"stateMutability": "view",
			"type": "function"
		},
		{
			"inputs": [],
			"name": "DT_DEBT",
			"outputs": [
				{
					"internalType": "uint256",
					"name": "",
					"type": "uint256"
				}
			],
			"stateMutability": "view",
			"type": "function"
		},
		{
			"inputs": [],
			"name": "DT_RATE",
			"outputs": [
				{
					"internalType": "uint256",
					"name": "",
					"type": "uint256"
				}
			],
			"stateMutability": "view",
			"type": "function"
		},
		{
			"inputs": [],
			"name": "GetCodeRef",
			"outputs": [
				{
					"internalType": "bytes32",
					"name": "",
					"type": "bytes32"
				}
			],
			"stateMutability": "view",
			"type": "function"
		},
		{
			"inputs": [
				{
					"internalType": "address",
					"name": "caller",
					"type": "address"
				}
			],
			"name": "GetHeadRef",
			"outputs": [
				{
					"internalType": "address",
					"name": "",
					"type": "address"
				}
			],
			"stateMutability": "view",
			"type": "function"
		},
		{
			"inputs": [
				{
					"internalType": "address",
					"name": "user",
					"type": "address"
				}
			],
			"name": "GetInfoForBinaryTree",
			"outputs": [
				{
					"internalType": "uint8",
					"name": "rank",
					"type": "uint8"
				},
				{
					"internalType": "bytes32",
					"name": "phone",
					"type": "bytes32"
				},
				{
					"internalType": "address[]",
					"name": "children",
					"type": "address[]"
				},
				{
					"internalType": "uint256",
					"name": "_totalSubcriptionBonus",
					"type": "uint256"
				},
				{
					"internalType": "uint256",
					"name": "_totalMatrixBonus",
					"type": "uint256"
				},
				{
					"internalType": "uint256",
					"name": "_totalMatchingBonus",
					"type": "uint256"
				},
				{
					"internalType": "uint256",
					"name": "_totalSaleBonus",
					"type": "uint256"
				},
				{
					"internalType": "uint256",
					"name": "_totalGoodSaleBonus",
					"type": "uint256"
				},
				{
					"internalType": "uint256",
					"name": "_totalExtraDiamondBonus",
					"type": "uint256"
				},
				{
					"internalType": "uint256",
					"name": "_totalExtraCrownDiamondBonus",
					"type": "uint256"
				}
			],
			"stateMutability": "view",
			"type": "function"
		},
		{
			"inputs": [
				{
					"internalType": "bytes32",
					"name": "refCode",
					"type": "bytes32"
				}
			],
			"name": "GetRefCodeOwner",
			"outputs": [
				{
					"internalType": "address",
					"name": "",
					"type": "address"
				}
			],
			"stateMutability": "view",
			"type": "function"
		},
		{
			"inputs": [],
			"name": "GetSubInfo",
			"outputs": [
				{
					"components": [
						{
							"internalType": "bytes32",
							"name": "codeRef",
							"type": "bytes32"
						},
						{
							"internalType": "bytes32",
							"name": "phone",
							"type": "bytes32"
						}
					],
					"internalType": "struct KVenture.SubcribeInfo",
					"name": "",
					"type": "tuple"
				}
			],
			"stateMutability": "view",
			"type": "function"
		},
		{
			"inputs": [
				{
					"internalType": "address",
					"name": "user",
					"type": "address"
				}
			],
			"name": "GetTotalChildren",
			"outputs": [
				{
					"internalType": "uint256",
					"name": "",
					"type": "uint256"
				}
			],
			"stateMutability": "view",
			"type": "function"
		},
		{
			"inputs": [
				{
					"internalType": "address",
					"name": "user",
					"type": "address"
				}
			],
			"name": "GetTotalChildrenMatrix",
			"outputs": [
				{
					"internalType": "uint256",
					"name": "",
					"type": "uint256"
				}
			],
			"stateMutability": "view",
			"type": "function"
		},
		{
			"inputs": [
				{
					"internalType": "address",
					"name": "user",
					"type": "address"
				}
			],
			"name": "GetUserInfo",
			"outputs": [
				{
					"components": [
						{
							"internalType": "address",
							"name": "add",
							"type": "address"
						},
						{
							"internalType": "bool",
							"name": "IsActive",
							"type": "bool"
						},
						{
							"internalType": "uint256",
							"name": "FirstTimePay",
							"type": "uint256"
						},
						{
							"internalType": "uint256",
							"name": "NextTimePay",
							"type": "uint256"
						},
						{
							"internalType": "bytes32",
							"name": "Mphone",
							"type": "bytes32"
						},
						{
							"internalType": "address[]",
							"name": "Childrens",
							"type": "address[]"
						},
						{
							"internalType": "address[]",
							"name": "ChildrensMatrix",
							"type": "address[]"
						},
						{
							"internalType": "address",
							"name": "Line",
							"type": "address"
						},
						{
							"internalType": "address",
							"name": "LineMatrix",
							"type": "address"
						},
						{
							"internalType": "uint256",
							"name": "MtotalMember",
							"type": "uint256"
						},
						{
							"internalType": "uint256",
							"name": "Rank",
							"type": "uint256"
						},
						{
							"internalType": "uint256",
							"name": "totalSubcriptionBonus",
							"type": "uint256"
						},
						{
							"internalType": "uint256",
							"name": "totalMatrixBonus",
							"type": "uint256"
						},
						{
							"internalType": "uint256",
							"name": "totalMatchingBonus",
							"type": "uint256"
						},
						{
							"internalType": "uint256",
							"name": "totalSaleBonus",
							"type": "uint256"
						},
						{
							"internalType": "uint256",
							"name": "totalGoodSaleBonus",
							"type": "uint256"
						},
						{
							"internalType": "uint256",
							"name": "totalExtraDiamondBonus",
							"type": "uint256"
						},
						{
							"internalType": "uint256",
							"name": "totalExtraCrownDiamondBonus",
							"type": "uint256"
						},
						{
							"internalType": "uint256",
							"name": "totalSale",
							"type": "uint256"
						}
					],
					"internalType": "struct KVenture.UserInfo",
					"name": "userinfo",
					"type": "tuple"
				}
			],
			"stateMutability": "view",
			"type": "function"
		},
		{
			"inputs": [],
			"name": "MTN",
			"outputs": [
				{
					"internalType": "address",
					"name": "",
					"type": "address"
				}
			],
			"stateMutability": "view",
			"type": "function"
		},
		{
			"inputs": [],
			"name": "MTN_RATE",
			"outputs": [
				{
					"internalType": "uint256",
					"name": "",
					"type": "uint256"
				}
			],
			"stateMutability": "view",
			"type": "function"
		},
		{
			"inputs": [
				{
					"internalType": "uint256",
					"name": "monthsNum",
					"type": "uint256"
				},
				{
					"internalType": "address",
					"name": "to",
					"type": "address"
				}
			],
			"name": "PaySub",
			"outputs": [
				{
					"internalType": "bool",
					"name": "",
					"type": "bool"
				}
			],
			"stateMutability": "nonpayable",
			"type": "function"
		},
		{
			"inputs": [],
			"name": "RETAIL_BONUS_RATE",
			"outputs": [
				{
					"internalType": "uint256",
					"name": "",
					"type": "uint256"
				}
			],
			"stateMutability": "view",
			"type": "function"
		},
		{
			"inputs": [],
			"name": "RankUpdateBranchRequired",
			"outputs": [
				{
					"internalType": "uint256",
					"name": "",
					"type": "uint256"
				}
			],
			"stateMutability": "view",
			"type": "function"
		},
		{
			"inputs": [
				{
					"internalType": "bytes32",
					"name": "phone",
					"type": "bytes32"
				},
				{
					"internalType": "bytes32",
					"name": "codeRef",
					"type": "bytes32"
				},
				{
					"internalType": "uint256",
					"name": "month",
					"type": "uint256"
				},
				{
					"internalType": "bytes32",
					"name": "codeHash",
					"type": "bytes32"
				},
				{
					"internalType": "address",
					"name": "to",
					"type": "address"
				}
			],
			"name": "Register",
			"outputs": [
				{
					"internalType": "bool",
					"name": "",
					"type": "bool"
				}
			],
			"stateMutability": "nonpayable",
			"type": "function"
		},
		{
			"inputs": [
				{
					"internalType": "address",
					"name": "_admin",
					"type": "address"
				}
			],
			"name": "SetAdmin",
			"outputs": [],
			"stateMutability": "nonpayable",
			"type": "function"
		},
		{
			"inputs": [
				{
					"internalType": "address",
					"name": "_binaryTree",
					"type": "address"
				}
			],
			"name": "SetBinaryTree",
			"outputs": [],
			"stateMutability": "nonpayable",
			"type": "function"
		},
		{
			"inputs": [
				{
					"internalType": "address",
					"name": "_masterPool",
					"type": "address"
				}
			],
			"name": "SetMasterPool",
			"outputs": [],
			"stateMutability": "nonpayable",
			"type": "function"
		},
		{
			"inputs": [
				{
					"internalType": "address",
					"name": "_packageController",
					"type": "address"
				}
			],
			"name": "SetPackageController",
			"outputs": [],
			"stateMutability": "nonpayable",
			"type": "function"
		},
		{
			"inputs": [
				{
					"internalType": "uint256",
					"name": "_registerFee",
					"type": "uint256"
				}
			],
			"name": "SetRegisterFee",
			"outputs": [],
			"stateMutability": "nonpayable",
			"type": "function"
		},
		{
			"inputs": [
				{
					"internalType": "uint256",
					"name": "_subFee",
					"type": "uint256"
				}
			],
			"name": "SetSubFee",
			"outputs": [],
			"stateMutability": "nonpayable",
			"type": "function"
		},
		{
			"inputs": [
				{
					"internalType": "uint256",
					"name": "_time",
					"type": "uint256"
				}
			],
			"name": "SetTimeInActive",
			"outputs": [],
			"stateMutability": "nonpayable",
			"type": "function"
		},
		{
			"inputs": [
				{
					"internalType": "address",
					"name": "_usdt",
					"type": "address"
				}
			],
			"name": "SetUsdt",
			"outputs": [],
			"stateMutability": "nonpayable",
			"type": "function"
		},
		{
			"inputs": [
				{
					"internalType": "address",
					"name": "_wallet",
					"type": "address"
				}
			],
			"name": "SetWallet",
			"outputs": [],
			"stateMutability": "nonpayable",
			"type": "function"
		},
		{
			"inputs": [
				{
					"internalType": "address",
					"name": "to",
					"type": "address"
				},
				{
					"internalType": "uint256",
					"name": "amount",
					"type": "uint256"
				}
			],
			"name": "TransferCommissionByProduct",
			"outputs": [
				{
					"internalType": "bool",
					"name": "",
					"type": "bool"
				}
			],
			"stateMutability": "nonpayable",
			"type": "function"
		},
		{
			"inputs": [
				{
					"internalType": "address",
					"name": "buyer",
					"type": "address"
				},
				{
					"internalType": "uint256",
					"name": "price",
					"type": "uint256"
				},
				{
					"internalType": "uint256",
					"name": "diffPrice",
					"type": "uint256"
				}
			],
			"name": "TransferCommssion",
			"outputs": [],
			"stateMutability": "nonpayable",
			"type": "function"
		},
		{
			"inputs": [
				{
					"internalType": "address",
					"name": "_address",
					"type": "address"
				},
				{
					"internalType": "uint256",
					"name": "diffPrice",
					"type": "uint256"
				}
			],
			"name": "TransferRetailBonus",
			"outputs": [],
			"stateMutability": "nonpayable",
			"type": "function"
		},
		{
			"inputs": [
				{
					"internalType": "bytes32",
					"name": "newPhone",
					"type": "bytes32"
				}
			],
			"name": "UpdatePhone",
			"outputs": [
				{
					"internalType": "bool",
					"name": "",
					"type": "bool"
				}
			],
			"stateMutability": "nonpayable",
			"type": "function"
		},
		{
			"inputs": [
				{
					"internalType": "address",
					"name": "_address",
					"type": "address"
				},
				{
					"internalType": "uint8",
					"name": "rank",
					"type": "uint8"
				}
			],
			"name": "UpdateRank",
			"outputs": [
				{
					"internalType": "bool",
					"name": "",
					"type": "bool"
				}
			],
			"stateMutability": "nonpayable",
			"type": "function"
		},
		{
			"inputs": [
				{
					"internalType": "address",
					"name": "_rootAddress",
					"type": "address"
				}
			],
			"name": "ViewDirect",
			"outputs": [
				{
					"components": [
						{
							"internalType": "address",
							"name": "node",
							"type": "address"
						},
						{
							"internalType": "address",
							"name": "parent",
							"type": "address"
						}
					],
					"internalType": "struct KVenture.ViewDirectData[]",
					"name": "",
					"type": "tuple[]"
				}
			],
			"stateMutability": "view",
			"type": "function"
		},
		{
			"inputs": [
				{
					"internalType": "address",
					"name": "_address",
					"type": "address"
				},
				{
					"internalType": "uint8",
					"name": "rank",
					"type": "uint8"
				}
			],
			"name": "_calculateTotalChildWithRank",
			"outputs": [
				{
					"internalType": "uint256",
					"name": "",
					"type": "uint256"
				}
			],
			"stateMutability": "view",
			"type": "function"
		},
		{
			"inputs": [
				{
					"internalType": "address",
					"name": "_address",
					"type": "address"
				},
				{
					"internalType": "uint8",
					"name": "level",
					"type": "uint8"
				}
			],
			"name": "_calculateTotalMaxMember1BranchForUpdateLevel",
			"outputs": [
				{
					"internalType": "uint256",
					"name": "",
					"type": "uint256"
				}
			],
			"stateMutability": "view",
			"type": "function"
		},
		{
			"inputs": [
				{
					"internalType": "address",
					"name": "_address",
					"type": "address"
				}
			],
			"name": "_calculateTotalMemberForUpdateLevel",
			"outputs": [
				{
					"internalType": "uint256",
					"name": "",
					"type": "uint256"
				}
			],
			"stateMutability": "view",
			"type": "function"
		},
		{
			"inputs": [
				{
					"internalType": "address",
					"name": "_address",
					"type": "address"
				}
			],
			"name": "_updateRank",
			"outputs": [],
			"stateMutability": "nonpayable",
			"type": "function"
		},
		{
			"inputs": [],
			"name": "adDirectRate",
			"outputs": [
				{
					"internalType": "uint256",
					"name": "",
					"type": "uint256"
				}
			],
			"stateMutability": "view",
			"type": "function"
		},
		{
			"inputs": [],
			"name": "binaryTree",
			"outputs": [
				{
					"internalType": "contract IBinaryTree",
					"name": "",
					"type": "address"
				}
			],
			"stateMutability": "view",
			"type": "function"
		},
		{
			"inputs": [
				{
					"internalType": "address",
					"name": "",
					"type": "address"
				},
				{
					"internalType": "uint256",
					"name": "",
					"type": "uint256"
				}
			],
			"name": "childrens",
			"outputs": [
				{
					"internalType": "address",
					"name": "",
					"type": "address"
				}
			],
			"stateMutability": "view",
			"type": "function"
		},
		{
			"inputs": [
				{
					"internalType": "address",
					"name": "",
					"type": "address"
				},
				{
					"internalType": "uint256",
					"name": "",
					"type": "uint256"
				}
			],
			"name": "childrensMatrix",
			"outputs": [
				{
					"internalType": "address",
					"name": "",
					"type": "address"
				}
			],
			"stateMutability": "view",
			"type": "function"
		},
		{
			"inputs": [
				{
					"internalType": "uint256",
					"name": "",
					"type": "uint256"
				}
			],
			"name": "comDirectRate",
			"outputs": [
				{
					"internalType": "uint256",
					"name": "",
					"type": "uint256"
				}
			],
			"stateMutability": "view",
			"type": "function"
		},
		{
			"inputs": [
				{
					"internalType": "uint256",
					"name": "",
					"type": "uint256"
				}
			],
			"name": "comMatchingRate",
			"outputs": [
				{
					"internalType": "uint256",
					"name": "",
					"type": "uint256"
				}
			],
			"stateMutability": "view",
			"type": "function"
		},
		{
			"inputs": [
				{
					"internalType": "uint256",
					"name": "",
					"type": "uint256"
				}
			],
			"name": "commissionRate",
			"outputs": [
				{
					"internalType": "uint256",
					"name": "",
					"type": "uint256"
				}
			],
			"stateMutability": "view",
			"type": "function"
		},
		{
			"inputs": [
				{
					"internalType": "address",
					"name": "",
					"type": "address"
				}
			],
			"name": "currentRevenueForGoodSaleBonus",
			"outputs": [
				{
					"internalType": "uint256",
					"name": "",
					"type": "uint256"
				}
			],
			"stateMutability": "view",
			"type": "function"
		},
		{
			"inputs": [],
			"name": "day",
			"outputs": [
				{
					"internalType": "uint32",
					"name": "",
					"type": "uint32"
				}
			],
			"stateMutability": "view",
			"type": "function"
		},
		{
			"inputs": [
				{
					"internalType": "address",
					"name": "_usdt",
					"type": "address"
				},
				{
					"internalType": "address",
					"name": "_masterPool",
					"type": "address"
				},
				{
					"internalType": "address",
					"name": "_binaryTree",
					"type": "address"
				},
				{
					"internalType": "address",
					"name": "_root",
					"type": "address"
				},
				{
					"internalType": "address",
					"name": "_wallet",
					"type": "address"
				},
				{
					"internalType": "address",
					"name": "_partnerWallet",
					"type": "address"
				},
				{
					"internalType": "address",
					"name": "_kCode",
					"type": "address"
				},
				{
					"internalType": "address",
					"name": "_mtn",
					"type": "address"
				}
			],
			"name": "initialize",
			"outputs": [],
			"stateMutability": "nonpayable",
			"type": "function"
		},
		{
			"inputs": [
				{
					"internalType": "address",
					"name": "",
					"type": "address"
				}
			],
			"name": "isAdmin",
			"outputs": [
				{
					"internalType": "bool",
					"name": "",
					"type": "bool"
				}
			],
			"stateMutability": "view",
			"type": "function"
		},
		{
			"inputs": [],
			"name": "kCode",
			"outputs": [
				{
					"internalType": "contract KventureCode",
					"name": "",
					"type": "address"
				}
			],
			"stateMutability": "view",
			"type": "function"
		},
		{
			"inputs": [
				{
					"internalType": "uint256",
					"name": "",
					"type": "uint256"
				}
			],
			"name": "levelCareerBonus",
			"outputs": [
				{
					"internalType": "uint256",
					"name": "",
					"type": "uint256"
				}
			],
			"stateMutability": "view",
			"type": "function"
		},
		{
			"inputs": [
				{
					"internalType": "address",
					"name": "",
					"type": "address"
				}
			],
			"name": "line",
			"outputs": [
				{
					"internalType": "address",
					"name": "",
					"type": "address"
				}
			],
			"stateMutability": "view",
			"type": "function"
		},
		{
			"inputs": [
				{
					"internalType": "address",
					"name": "",
					"type": "address"
				}
			],
			"name": "lineMatrix",
			"outputs": [
				{
					"internalType": "address",
					"name": "",
					"type": "address"
				}
			],
			"stateMutability": "view",
			"type": "function"
		},
		{
			"inputs": [
				{
					"internalType": "address",
					"name": "",
					"type": "address"
				}
			],
			"name": "mGenerations",
			"outputs": [
				{
					"internalType": "uint64",
					"name": "Silver",
					"type": "uint64"
				},
				{
					"internalType": "uint64",
					"name": "Gold",
					"type": "uint64"
				},
				{
					"internalType": "uint64",
					"name": "Platinum",
					"type": "uint64"
				},
				{
					"internalType": "uint64",
					"name": "Diamond",
					"type": "uint64"
				}
			],
			"stateMutability": "view",
			"type": "function"
		},
		{
			"inputs": [
				{
					"internalType": "address",
					"name": "",
					"type": "address"
				},
				{
					"internalType": "uint8",
					"name": "",
					"type": "uint8"
				}
			],
			"name": "mIsPaiedCareerBonus",
			"outputs": [
				{
					"internalType": "bool",
					"name": "",
					"type": "bool"
				}
			],
			"stateMutability": "view",
			"type": "function"
		},
		{
			"inputs": [
				{
					"internalType": "bytes32",
					"name": "",
					"type": "bytes32"
				}
			],
			"name": "mRefCode",
			"outputs": [
				{
					"internalType": "address",
					"name": "",
					"type": "address"
				}
			],
			"stateMutability": "view",
			"type": "function"
		},
		{
			"inputs": [
				{
					"internalType": "address",
					"name": "",
					"type": "address"
				}
			],
			"name": "mSub",
			"outputs": [
				{
					"internalType": "bool",
					"name": "",
					"type": "bool"
				}
			],
			"stateMutability": "view",
			"type": "function"
		},
		{
			"inputs": [
				{
					"internalType": "address",
					"name": "",
					"type": "address"
				}
			],
			"name": "mSubInfo",
			"outputs": [
				{
					"internalType": "bytes32",
					"name": "codeRef",
					"type": "bytes32"
				},
				{
					"internalType": "bytes32",
					"name": "phone",
					"type": "bytes32"
				}
			],
			"stateMutability": "view",
			"type": "function"
		},
		{
			"inputs": [],
			"name": "masterPool",
			"outputs": [
				{
					"internalType": "address",
					"name": "",
					"type": "address"
				}
			],
			"stateMutability": "view",
			"type": "function"
		},
		{
			"inputs": [],
			"name": "maxLineForMatrixBonus",
			"outputs": [
				{
					"internalType": "uint256",
					"name": "",
					"type": "uint256"
				}
			],
			"stateMutability": "view",
			"type": "function"
		},
		{
			"inputs": [
				{
					"internalType": "address",
					"name": "",
					"type": "address"
				}
			],
			"name": "mphone",
			"outputs": [
				{
					"internalType": "bytes32",
					"name": "",
					"type": "bytes32"
				}
			],
			"stateMutability": "view",
			"type": "function"
		},
		{
			"inputs": [
				{
					"internalType": "address",
					"name": "",
					"type": "address"
				}
			],
			"name": "mtotalMember",
			"outputs": [
				{
					"internalType": "uint256",
					"name": "",
					"type": "uint256"
				}
			],
			"stateMutability": "view",
			"type": "function"
		},
		{
			"inputs": [],
			"name": "owner",
			"outputs": [
				{
					"internalType": "address",
					"name": "",
					"type": "address"
				}
			],
			"stateMutability": "view",
			"type": "function"
		},
		{
			"inputs": [],
			"name": "packageController",
			"outputs": [
				{
					"internalType": "address",
					"name": "",
					"type": "address"
				}
			],
			"stateMutability": "view",
			"type": "function"
		},
		{
			"inputs": [],
			"name": "payGoodSaleBonusWeekly",
			"outputs": [
				{
					"internalType": "bool",
					"name": "",
					"type": "bool"
				}
			],
			"stateMutability": "nonpayable",
			"type": "function"
		},
		{
			"inputs": [
				{
					"internalType": "address",
					"name": "",
					"type": "address"
				}
			],
			"name": "ranks",
			"outputs": [
				{
					"internalType": "uint8",
					"name": "",
					"type": "uint8"
				}
			],
			"stateMutability": "view",
			"type": "function"
		},
		{
			"inputs": [],
			"name": "renounceOwnership",
			"outputs": [],
			"stateMutability": "nonpayable",
			"type": "function"
		},
		{
			"inputs": [],
			"name": "root",
			"outputs": [
				{
					"internalType": "address",
					"name": "",
					"type": "address"
				}
			],
			"stateMutability": "view",
			"type": "function"
		},
		{
			"inputs": [],
			"name": "totalCareerPayment",
			"outputs": [
				{
					"internalType": "uint256",
					"name": "",
					"type": "uint256"
				}
			],
			"stateMutability": "view",
			"type": "function"
		},
		{
			"inputs": [
				{
					"internalType": "address",
					"name": "",
					"type": "address"
				}
			],
			"name": "totalExtraCrownDiamondBonus",
			"outputs": [
				{
					"internalType": "uint256",
					"name": "",
					"type": "uint256"
				}
			],
			"stateMutability": "view",
			"type": "function"
		},
		{
			"inputs": [],
			"name": "totalExtraCrownDiamondPayment",
			"outputs": [
				{
					"internalType": "uint256",
					"name": "",
					"type": "uint256"
				}
			],
			"stateMutability": "view",
			"type": "function"
		},
		{
			"inputs": [
				{
					"internalType": "address",
					"name": "",
					"type": "address"
				}
			],
			"name": "totalExtraDiamondBonus",
			"outputs": [
				{
					"internalType": "uint256",
					"name": "",
					"type": "uint256"
				}
			],
			"stateMutability": "view",
			"type": "function"
		},
		{
			"inputs": [],
			"name": "totalExtraDiamondPayment",
			"outputs": [
				{
					"internalType": "uint256",
					"name": "",
					"type": "uint256"
				}
			],
			"stateMutability": "view",
			"type": "function"
		},
		{
			"inputs": [
				{
					"internalType": "address",
					"name": "",
					"type": "address"
				}
			],
			"name": "totalGoodSaleBonus",
			"outputs": [
				{
					"internalType": "uint256",
					"name": "",
					"type": "uint256"
				}
			],
			"stateMutability": "view",
			"type": "function"
		},
		{
			"inputs": [
				{
					"internalType": "address",
					"name": "",
					"type": "address"
				}
			],
			"name": "totalMatchingBonus",
			"outputs": [
				{
					"internalType": "uint256",
					"name": "",
					"type": "uint256"
				}
			],
			"stateMutability": "view",
			"type": "function"
		},
		{
			"inputs": [],
			"name": "totalMatchingPayment",
			"outputs": [
				{
					"internalType": "uint256",
					"name": "",
					"type": "uint256"
				}
			],
			"stateMutability": "view",
			"type": "function"
		},
		{
			"inputs": [
				{
					"internalType": "address",
					"name": "",
					"type": "address"
				}
			],
			"name": "totalMatrixBonus",
			"outputs": [
				{
					"internalType": "uint256",
					"name": "",
					"type": "uint256"
				}
			],
			"stateMutability": "view",
			"type": "function"
		},
		{
			"inputs": [],
			"name": "totalMatrixPayment",
			"outputs": [
				{
					"internalType": "uint256",
					"name": "",
					"type": "uint256"
				}
			],
			"stateMutability": "view",
			"type": "function"
		},
		{
			"inputs": [
				{
					"internalType": "uint256",
					"name": "",
					"type": "uint256"
				}
			],
			"name": "totalMaxMembers1BranchToRankUp",
			"outputs": [
				{
					"internalType": "uint256",
					"name": "",
					"type": "uint256"
				}
			],
			"stateMutability": "view",
			"type": "function"
		},
		{
			"inputs": [
				{
					"internalType": "uint256",
					"name": "",
					"type": "uint256"
				}
			],
			"name": "totalMemberF1RequiedToRankUps",
			"outputs": [
				{
					"internalType": "uint256",
					"name": "",
					"type": "uint256"
				}
			],
			"stateMutability": "view",
			"type": "function"
		},
		{
			"inputs": [
				{
					"internalType": "uint256",
					"name": "",
					"type": "uint256"
				}
			],
			"name": "totalMemberRequiedToRankUps",
			"outputs": [
				{
					"internalType": "uint256",
					"name": "",
					"type": "uint256"
				}
			],
			"stateMutability": "view",
			"type": "function"
		},
		{
			"inputs": [
				{
					"internalType": "address",
					"name": "",
					"type": "address"
				}
			],
			"name": "totalRevenues",
			"outputs": [
				{
					"internalType": "uint256",
					"name": "",
					"type": "uint256"
				}
			],
			"stateMutability": "view",
			"type": "function"
		},
		{
			"inputs": [
				{
					"internalType": "address",
					"name": "",
					"type": "address"
				}
			],
			"name": "totalSale",
			"outputs": [
				{
					"internalType": "uint256",
					"name": "",
					"type": "uint256"
				}
			],
			"stateMutability": "view",
			"type": "function"
		},
		{
			"inputs": [
				{
					"internalType": "address",
					"name": "",
					"type": "address"
				}
			],
			"name": "totalSaleBonus",
			"outputs": [
				{
					"internalType": "uint256",
					"name": "",
					"type": "uint256"
				}
			],
			"stateMutability": "view",
			"type": "function"
		},
		{
			"inputs": [],
			"name": "totalSalePayment",
			"outputs": [
				{
					"internalType": "uint256",
					"name": "",
					"type": "uint256"
				}
			],
			"stateMutability": "view",
			"type": "function"
		},
		{
			"inputs": [
				{
					"internalType": "address",
					"name": "",
					"type": "address"
				}
			],
			"name": "totalSubcriptionBonus",
			"outputs": [
				{
					"internalType": "uint256",
					"name": "",
					"type": "uint256"
				}
			],
			"stateMutability": "view",
			"type": "function"
		},
		{
			"inputs": [],
			"name": "totalSubscriptionPayment",
			"outputs": [
				{
					"internalType": "uint256",
					"name": "",
					"type": "uint256"
				}
			],
			"stateMutability": "view",
			"type": "function"
		},
		{
			"inputs": [],
			"name": "totalUser",
			"outputs": [
				{
					"internalType": "uint256",
					"name": "",
					"type": "uint256"
				}
			],
			"stateMutability": "view",
			"type": "function"
		},
		{
			"inputs": [
				{
					"internalType": "address",
					"name": "newOwner",
					"type": "address"
				}
			],
			"name": "transferOwnership",
			"outputs": [],
			"stateMutability": "nonpayable",
			"type": "function"
		},
		{
			"inputs": [],
			"name": "updateRankDaily",
			"outputs": [
				{
					"internalType": "bool",
					"name": "",
					"type": "bool"
				}
			],
			"stateMutability": "nonpayable",
			"type": "function"
		},
		{
			"inputs": [],
			"name": "usdt",
			"outputs": [
				{
					"internalType": "address",
					"name": "",
					"type": "address"
				}
			],
			"stateMutability": "view",
			"type": "function"
		},
		{
			"inputs": [],
			"name": "usdtDecimal",
			"outputs": [
				{
					"internalType": "uint256",
					"name": "",
					"type": "uint256"
				}
			],
			"stateMutability": "view",
			"type": "function"
		},
		{
			"inputs": [
				{
					"internalType": "address",
					"name": "_address",
					"type": "address"
				}
			],
			"name": "viewTreeInfo",
			"outputs": [
				{
					"components": [
						{
							"internalType": "address",
							"name": "add",
							"type": "address"
						},
						{
							"internalType": "bool",
							"name": "IsActive",
							"type": "bool"
						},
						{
							"internalType": "uint256",
							"name": "FirstTimePay",
							"type": "uint256"
						},
						{
							"internalType": "uint256",
							"name": "NextTimePay",
							"type": "uint256"
						},
						{
							"internalType": "bytes32",
							"name": "Mphone",
							"type": "bytes32"
						},
						{
							"internalType": "address[]",
							"name": "Childrens",
							"type": "address[]"
						},
						{
							"internalType": "address[]",
							"name": "ChildrensMatrix",
							"type": "address[]"
						},
						{
							"internalType": "address",
							"name": "Line",
							"type": "address"
						},
						{
							"internalType": "address",
							"name": "LineMatrix",
							"type": "address"
						},
						{
							"internalType": "uint256",
							"name": "MtotalMember",
							"type": "uint256"
						},
						{
							"internalType": "uint256",
							"name": "Rank",
							"type": "uint256"
						},
						{
							"internalType": "uint256",
							"name": "totalSubcriptionBonus",
							"type": "uint256"
						},
						{
							"internalType": "uint256",
							"name": "totalMatrixBonus",
							"type": "uint256"
						},
						{
							"internalType": "uint256",
							"name": "totalMatchingBonus",
							"type": "uint256"
						},
						{
							"internalType": "uint256",
							"name": "totalSaleBonus",
							"type": "uint256"
						},
						{
							"internalType": "uint256",
							"name": "totalGoodSaleBonus",
							"type": "uint256"
						},
						{
							"internalType": "uint256",
							"name": "totalExtraDiamondBonus",
							"type": "uint256"
						},
						{
							"internalType": "uint256",
							"name": "totalExtraCrownDiamondBonus",
							"type": "uint256"
						},
						{
							"internalType": "uint256",
							"name": "totalSale",
							"type": "uint256"
						}
					],
					"internalType": "struct KVenture.UserInfo[]",
					"name": "",
					"type": "tuple[]"
				}
			],
			"stateMutability": "view",
			"type": "function"
		},
		{
			"inputs": [
				{
					"internalType": "address",
					"name": "add",
					"type": "address"
				}
			],
			"name": "viewTreeMatrixInfo",
			"outputs": [
				{
					"components": [
						{
							"internalType": "address",
							"name": "add",
							"type": "address"
						},
						{
							"internalType": "bool",
							"name": "IsActive",
							"type": "bool"
						},
						{
							"internalType": "uint256",
							"name": "FirstTimePay",
							"type": "uint256"
						},
						{
							"internalType": "uint256",
							"name": "NextTimePay",
							"type": "uint256"
						},
						{
							"internalType": "bytes32",
							"name": "Mphone",
							"type": "bytes32"
						},
						{
							"internalType": "address[]",
							"name": "Childrens",
							"type": "address[]"
						},
						{
							"internalType": "address[]",
							"name": "ChildrensMatrix",
							"type": "address[]"
						},
						{
							"internalType": "address",
							"name": "Line",
							"type": "address"
						},
						{
							"internalType": "address",
							"name": "LineMatrix",
							"type": "address"
						},
						{
							"internalType": "uint256",
							"name": "MtotalMember",
							"type": "uint256"
						},
						{
							"internalType": "uint256",
							"name": "Rank",
							"type": "uint256"
						},
						{
							"internalType": "uint256",
							"name": "totalSubcriptionBonus",
							"type": "uint256"
						},
						{
							"internalType": "uint256",
							"name": "totalMatrixBonus",
							"type": "uint256"
						},
						{
							"internalType": "uint256",
							"name": "totalMatchingBonus",
							"type": "uint256"
						},
						{
							"internalType": "uint256",
							"name": "totalSaleBonus",
							"type": "uint256"
						},
						{
							"internalType": "uint256",
							"name": "totalGoodSaleBonus",
							"type": "uint256"
						},
						{
							"internalType": "uint256",
							"name": "totalExtraDiamondBonus",
							"type": "uint256"
						},
						{
							"internalType": "uint256",
							"name": "totalExtraCrownDiamondBonus",
							"type": "uint256"
						},
						{
							"internalType": "uint256",
							"name": "totalSale",
							"type": "uint256"
						}
					],
					"internalType": "struct KVenture.UserInfo[]",
					"name": "",
					"type": "tuple[]"
				}
			],
			"stateMutability": "view",
			"type": "function"
		},
		{
			"inputs": [
				{
					"internalType": "address",
					"name": "add",
					"type": "address"
				}
			],
			"name": "viewtree",
			"outputs": [
				{
					"internalType": "address[]",
					"name": "",
					"type": "address[]"
				}
			],
			"stateMutability": "view",
			"type": "function"
		},
		{
			"inputs": [
				{
					"internalType": "address",
					"name": "add",
					"type": "address"
				}
			],
			"name": "viewtreeMatrix",
			"outputs": [
				{
					"internalType": "address[]",
					"name": "",
					"type": "address[]"
				}
			],
			"stateMutability": "view",
			"type": "function"
		}
	]
}