{
	"data": {
		"bytecode": {
			"linkReferences": {},
			"object": "6080604052606654620000149060016200004b565b606555620f4240606681905560646067556200003290601e6200004b565b6068556069805463ffffffff1916600a17905562000077565b80820281158282048414176200007157634e487b7160e01b600052601160045260246000fd5b92915050565b612d6280620000876000396000f3fe608060405234801561001057600080fd5b50600436106101f05760003560e01c80638fe39efd1161010f578063c01c36d0116100a2578063ddcd640811610071578063ddcd640814610457578063f2fde38b1461046a578063f4b7f3431461047d578063f8525b931461049057600080fd5b8063c01c36d0146103f9578063cb286f191461040c578063cc2a9a5b14610431578063dc30cbb41461044457600080fd5b8063b7182530116100de578063b7182530146103a0578063b935948a146103b3578063bc65fee5146103c6578063bf9ce952146103e657600080fd5b80638fe39efd14610359578063a429a51314610361578063a559934e14610384578063b22a9f9a1461039757600080fd5b8063486f6afe116101875780638c4a876d116101565780638c4a876d1461030d5780638c7ab1d7146103155780638da5cb5b146103285780638ec09c971461033957600080fd5b8063486f6afe146102af57806361b26f27146102c2578063715018a6146102e257806378f25aee146102ec57600080fd5b8063362efc3d116101c3578063362efc3d14610281578063395348dc1461028a578063435a3e501461029357806347ccca021461029c57600080fd5b8063076d5556146101f557806311f1374a146102115780632f48ab7d1461023657806331ae322f14610261575b600080fd5b6101fe606d5481565b6040519081526020015b60405180910390f35b6069546102219063ffffffff1681565b60405163ffffffff9091168152602001610208565b606e54610249906001600160a01b031681565b6040516001600160a01b039091168152602001610208565b61027461026f36600461237a565b6104a3565b60405161020891906123bc565b6101fe60665481565b6101fe60655481565b6101fe60685481565b607154610249906001600160a01b031681565b606f54610249906001600160a01b031681565b6102d56102d0366004612402565b610606565b6040516102089190612573565b6102ea610789565b005b6102ff6102fa3660046125a6565b61079d565b6040516102089291906125c1565b6101fe610e3d565b607054610249906001600160a01b031681565b6033546001600160a01b0316610249565b61034c610347366004612652565b610ea7565b60405161020891906126ee565b6101fe611133565b61037461036f366004612726565b6111a5565b6040519015158152602001610208565b6102ea610392366004612750565b611226565b6101fe60675481565b6102ff6103ae36600461276b565b611250565b6102ea6103c1366004612402565b611900565b6101fe6103d4366004612402565b606b6020526000908152604090205481565b607354610249906001600160a01b031681565b607254610249906001600160a01b031681565b61041f61041a366004612402565b61190d565b6040516102089695949392919061279e565b6102ea61043f3660046127eb565b611a55565b6102ea610452366004612750565b611bf6565b6102ea610465366004612750565b611c20565b6102ea610478366004612750565b611c4a565b61027461048b36600461237a565b611cc3565b6102ea61049e366004612750565b611e18565b606060008267ffffffffffffffff8111156104c0576104c061285f565b6040519080825280602002602001820160405280156104e9578160200160208202803683370190505b5090506000805b60ff81168511156105fa5785858260ff1681811061051057610510612875565b9050602002810190610522919061288b565b6040516020016105339291906128d2565b60408051808303601f1901815291815281516020928301206000818152606a9093529120549092506001600160a01b03163314158061059d5750600080838152606a6020526040902060070154600160a01b900460ff16600381111561059b5761059b61241b565b145b6105e8576000828152606a60205260409020600701805460ff60a01b191690558251600190849060ff84169081106105d7576105d7612875565b911515602092830291909101909101525b806105f2816128f8565b9150506104f0565b50909150505b92915050565b61060e6122bb565b6000828152606a602090815260409182902082516101e08101845281546001600160a01b039081168252600183015493820193909352600282015493810193909352600380820154606085015260048201546080850152600582015460a0850152600682015460c0850152600782015492831660e08501529091610100840191600160a01b90910460ff16908111156106a9576106a961241b565b60038111156106ba576106ba61241b565b81526020016008820180546106ce90612917565b80601f01602080910402602001604051908101604052809291908181526020018280546106fa90612917565b80156107475780601f1061071c57610100808354040283529160200191610747565b820191906000526020600020905b81548152906001019060200180831161072a57829003601f168201915b5050505050815260200160098201548152602001600a8201548152602001600b8201548152602001600c8201548152602001600d820154815250509050919050565b610791611e42565b61079b6000611e9c565b565b6071546040516370a0823160e01b815233600482015260009160609183916001600160a01b0316906370a0823190602401602060405180830381865afa1580156107eb573d6000803e3d6000fd5b505050506040513d601f19601f8201168201806040525081019061080f9190612951565b6069549091506108259063ffffffff168261296a565b6069546108389063ffffffff168661297d565b63ffffffff16111561084e576000925050915091565b60695481906108639063ffffffff168661297d565b63ffffffff161015610b42576069546001935063ffffffff1667ffffffffffffffff8111156108945761089461285f565b6040519080825280602002602001820160405280156108cd57816020015b6108ba6122bb565b8152602001906001900390816108b25790505b50915060005b8251811015610b3b57607154606954606a916000916001600160a01b0390911690632f745c59903390869063ffffffff1661090e818d61297d565b61091891906129a5565b63ffffffff16610928919061296a565b6040516001600160e01b031960e085901b1681526001600160a01b0390921660048301526024820152604401602060405180830381865afa158015610971573d6000803e3d6000fd5b505050506040513d601f19601f820116820180604052508101906109959190612951565b8152602080820192909252604090810160002081516101e08101835281546001600160a01b039081168252600183015494820194909452600282015492810192909252600380820154606084015260048201546080840152600582015460a0840152600682015460c0840152600782015493841660e084015291929091610100840191600160a01b900460ff1690811115610a3257610a3261241b565b6003811115610a4357610a4361241b565b8152602001600882018054610a5790612917565b80601f0160208091040260200160405190810160405280929190818152602001828054610a8390612917565b8015610ad05780601f10610aa557610100808354040283529160200191610ad0565b820191906000526020600020905b815481529060010190602001808311610ab357829003601f168201915b5050505050815260200160098201548152602001600a8201548152602001600b8201548152602001600c8201548152602001600d82015481525050838281518110610b1d57610b1d612875565b60200260200101819052508080610b33906129c9565b9150506108d3565b5050915091565b606954600093508190610b5b9063ffffffff168661297d565b63ffffffff16610b6b91906129e2565b606954610b7e919063ffffffff166129e2565b67ffffffffffffffff811115610b9657610b9661285f565b604051908082528060200260200182016040528015610bcf57816020015b610bbc6122bb565b815260200190600190039081610bb45790505b50915060005b8251811015610b3b57607154606954606a916000916001600160a01b0390911690632f745c59903390869063ffffffff16610c10818d61297d565b610c1a91906129a5565b63ffffffff16610c2a919061296a565b6040516001600160e01b031960e085901b1681526001600160a01b0390921660048301526024820152604401602060405180830381865afa158015610c73573d6000803e3d6000fd5b505050506040513d601f19601f82011682018060405250810190610c979190612951565b8152602080820192909252604090810160002081516101e08101835281546001600160a01b039081168252600183015494820194909452600282015492810192909252600380820154606084015260048201546080840152600582015460a0840152600682015460c0840152600782015493841660e084015291929091610100840191600160a01b900460ff1690811115610d3457610d3461241b565b6003811115610d4557610d4561241b565b8152602001600882018054610d5990612917565b80601f0160208091040260200160405190810160405280929190818152602001828054610d8590612917565b8015610dd25780601f10610da757610100808354040283529160200191610dd2565b820191906000526020600020905b815481529060010190602001808311610db557829003601f168201915b5050505050815260200160098201548152602001600a8201548152602001600b8201548152602001600c8201548152602001600d82015481525050838281518110610e1f57610e1f612875565b60200260200101819052508080610e35906129c9565b915050610bd5565b60008060655490506000624f1a00606d5442610e5991906129e2565b610e6391906129f5565b905060005b818161ffff161015610e9f576064610e8184607d612a17565b610e8b91906129f5565b925080610e9781612a2e565b915050610e68565b509092915050565b6073546060906001600160a01b03163314610f025760405162461bcd60e51b815260206004820152601660248201527512dd995b9d1d5c994e8813db9b1e481c1c9bd91d58dd60521b60448201526064015b60405180910390fd5b8387148015610f115750600087115b610f915760405162461bcd60e51b8152602060048201526044602482018190527f4b76656e747572653a20436f64652048617368204e6f7420457175616c20546f908201527f205175616e74697479206f72205175616e7469747920536d616c6c6572205468606482015263616e203160e01b608482015260a401610ef9565b6001600160a01b0382161561101357606c5488101561100e5760405162461bcd60e51b815260206004820152603360248201527f4b76656e747572653a20436c6f7564204d696e696e67204f6e6c7920466f722060448201527205061636b6167652041626f766520243530303606c1b6064820152608401610ef9565b61106a565b6001600160a01b0382161561106a5760405162461bcd60e51b815260206004820152601f60248201527f4b76656e747572653a204f6e6c7920666f7220636c6f7564206d696e696e67006044820152606401610ef9565b6000611074610e3d565b905060008867ffffffffffffffff8111156110915761109161285f565b6040519080825280602002602001820160405280156110ba578160200160208202803683370190505b50905060005b898110156111245760006110f18d8a8a858181106110e0576110e0612875565b905060200201358c8f888c8c611eee565b90508083838151811061110657611106612875565b6020908102919091010152508061111c816129c9565b9150506110c0565b509a9950505050505050505050565b6071546040516370a0823160e01b81523360048201526000916001600160a01b0316906370a0823190602401602060405180830381865afa15801561117c573d6000803e3d6000fd5b505050506040513d601f19601f820116820180604052508101906111a09190612951565b905090565b6072546000906001600160a01b031633146112025760405162461bcd60e51b815260206004820152601760248201527f4b76656e747572653a204f6e6c79206b76656e747572650000000000000000006044820152606401610ef9565b61121c83836000606854611214610e3d565b600080611eee565b5060019392505050565b61122e611e42565b607080546001600160a01b0319166001600160a01b0392909216919091179055565b6000606061125c611e42565b6071546040516370a0823160e01b81526001600160a01b03858116600483015260009216906370a0823190602401602060405180830381865afa1580156112a7573d6000803e3d6000fd5b505050506040513d601f19601f820116820180604052508101906112cb9190612951565b6069549091506112e19063ffffffff168261296a565b6069546112f49063ffffffff168761297d565b63ffffffff16111561130a5760009250506118f9565b606954819061131f9063ffffffff168761297d565b63ffffffff1610156115fe576069546001935063ffffffff1667ffffffffffffffff8111156113505761135061285f565b60405190808252806020026020018201604052801561138957816020015b6113766122bb565b81526020019060019003908161136e5790505b50915060005b82518110156115f757607154606954606a916000916001600160a01b0390911690632f745c59908990869063ffffffff166113ca818e61297d565b6113d491906129a5565b63ffffffff166113e4919061296a565b6040516001600160e01b031960e085901b1681526001600160a01b0390921660048301526024820152604401602060405180830381865afa15801561142d573d6000803e3d6000fd5b505050506040513d601f19601f820116820180604052508101906114519190612951565b8152602080820192909252604090810160002081516101e08101835281546001600160a01b039081168252600183015494820194909452600282015492810192909252600380820154606084015260048201546080840152600582015460a0840152600682015460c0840152600782015493841660e084015291929091610100840191600160a01b900460ff16908111156114ee576114ee61241b565b60038111156114ff576114ff61241b565b815260200160088201805461151390612917565b80601f016020809104026020016040519081016040528092919081815260200182805461153f90612917565b801561158c5780601f106115615761010080835404028352916020019161158c565b820191906000526020600020905b81548152906001019060200180831161156f57829003601f168201915b5050505050815260200160098201548152602001600a8201548152602001600b8201548152602001600c8201548152602001600d820154815250508382815181106115d9576115d9612875565b602002602001018190525080806115ef906129c9565b91505061138f565b50506118f9565b6069546000935081906116179063ffffffff168761297d565b63ffffffff1661162791906129e2565b60695461163a919063ffffffff166129e2565b67ffffffffffffffff8111156116525761165261285f565b60405190808252806020026020018201604052801561168b57816020015b6116786122bb565b8152602001906001900390816116705790505b50915060005b82518110156115f757607154606954606a916000916001600160a01b0390911690632f745c59908990869063ffffffff166116cc818e61297d565b6116d691906129a5565b63ffffffff166116e6919061296a565b6040516001600160e01b031960e085901b1681526001600160a01b0390921660048301526024820152604401602060405180830381865afa15801561172f573d6000803e3d6000fd5b505050506040513d601f19601f820116820180604052508101906117539190612951565b8152602080820192909252604090810160002081516101e08101835281546001600160a01b039081168252600183015494820194909452600282015492810192909252600380820154606084015260048201546080840152600582015460a0840152600682015460c0840152600782015493841660e084015291929091610100840191600160a01b900460ff16908111156117f0576117f061241b565b60038111156118015761180161241b565b815260200160088201805461181590612917565b80601f016020809104026020016040519081016040528092919081815260200182805461184190612917565b801561188e5780601f106118635761010080835404028352916020019161188e565b820191906000526020600020905b81548152906001019060200180831161187157829003601f168201915b5050505050815260200160098201548152602001600a8201548152602001600b8201548152602001600c8201548152602001600d820154815250508382815181106118db576118db612875565b602002602001018190525080806118f1906129c9565b915050611691565b9250929050565b611908611e42565b606c55565b6074602052600090815260409020805460018201805491929161192f90612917565b80601f016020809104026020016040519081016040528092919081815260200182805461195b90612917565b80156119a85780601f1061197d576101008083540402835291602001916119a8565b820191906000526020600020905b81548152906001019060200180831161198b57829003601f168201915b5050505050908060020154908060030154908060040180546119c990612917565b80601f01602080910402602001604051908101604052809291908181526020018280546119f590612917565b8015611a425780601f10611a1757610100808354040283529160200191611a42565b820191906000526020600020905b815481529060010190602001808311611a2557829003601f168201915b5050506005909301549192505060ff1686565b600054610100900460ff1615808015611a755750600054600160ff909116105b80611a8f5750303b158015611a8f575060005460ff166001145b611af25760405162461bcd60e51b815260206004820152602e60248201527f496e697469616c697a61626c653a20636f6e747261637420697320616c72656160448201526d191e481a5b9a5d1a585b1a5e995960921b6064820152608401610ef9565b6000805460ff191660011790558015611b15576000805461ff0019166101001790555b606e80546001600160a01b03199081166001600160a01b038a811691909117909255607080548216898416179055606f8054821688841617905560728054821685841617905560738054821687841617905560718054909116918516919091179055611b7f612237565b620f424060668190556064606755611b98906001612a17565b606555611ba3612266565b42606d558015611bed576000805461ff0019169055604051600181527f7f26b83ff96e1f2b6a682f133852f6798a09c465da95921460cefb38474024989060200160405180910390a15b50505050505050565b611bfe611e42565b607380546001600160a01b0319166001600160a01b0392909216919091179055565b611c28611e42565b606e80546001600160a01b0319166001600160a01b0392909216919091179055565b611c52611e42565b6001600160a01b038116611cb75760405162461bcd60e51b815260206004820152602660248201527f4f776e61626c653a206e6577206f776e657220697320746865207a65726f206160448201526564647265737360d01b6064820152608401610ef9565b611cc081611e9c565b50565b606060008267ffffffffffffffff811115611ce057611ce061285f565b604051908082528060200260200182016040528015611d09578160200160208202803683370190505b5090506000805b848110156105fa57858582818110611d2a57611d2a612875565b9050602002810190611d3c919061288b565b604051602001611d4d9291906128d2565b60408051808303601f1901815291815281516020928301206000818152606a9093529120549092506001600160a01b031633141580611db8575060016000838152606a6020526040902060070154600160a01b900460ff166003811115611db657611db661241b565b145b611e06576000828152606a60205260409020600701805460ff60a01b1916600160a01b1790558251600190849083908110611df557611df5612875565b911515602092830291909101909101525b80611e10816129c9565b915050611d10565b611e20611e42565b607180546001600160a01b0319166001600160a01b0392909216919091179055565b6033546001600160a01b0316331461079b5760405162461bcd60e51b815260206004820181905260248201527f4f776e61626c653a2063616c6c6572206973206e6f7420746865206f776e65726044820152606401610ef9565b603380546001600160a01b038381166001600160a01b0319831681179093556040519116919082907f8be0079c531659141344cd1fd0a4f28419497f9722a3daafe3b4186f6b6457e090600090a35050565b6000868152606a60205260408120546001600160a01b031615611f535760405162461bcd60e51b815260206004820152601d60248201527f4d6574614e6f64653a204475706c696361746520436f646520486173680000006044820152606401610ef9565b604080516101e0810182526001600160a01b038a16815260208101899052600091810191909152879060608101611f8d426276a70061296a565b81526020018660675489611fa19190612a17565b611fab91906129f5565b8152602001606b6000898152602001908152602001600020548152602001868152602001846001600160a01b03168152602001611fe789612275565b6003811115611ff857611ff861241b565b815260408051808201825260088152674b56454e5455524560c01b6020808301919091528084019190915260008284018190526060808501829052608080860183905260a080870184905260c09687018490528f8452606a855292859020875181546001600160a01b03199081166001600160a01b039283161783559589015160018301559588015160028201559187015160038084019190915590870151600483015591860151600582015593850151600685015560e085015160078501805493841691909416908117845561010086015193926001600160a81b0319161790600160a01b9084908111156120f0576120f061241b565b0217905550610120820151600882019061210a9082612a9e565b506101408201516009820155610160820151600a820155610180820151600b8201556101a0820151600c8201556101c090910151600d90910155607154604051632851206560e21b81526001600160a01b038b81166004830152602482018490529091169063a144819490604401600060405180830381600087803b15801561219257600080fd5b505af11580156121a6573d6000803e3d6000fd5b5050606f5460008b8152606a6020526040908190209051637c94ac8160e11b81526001600160a01b03909216935063f929590292506121e791600401612bdb565b6020604051808303816000875af1158015612206573d6000803e3d6000fd5b505050506040513d601f19601f8201168201806040525081019061222a9190612cc4565b5098975050505050505050565b600054610100900460ff1661225e5760405162461bcd60e51b8152600401610ef990612ce1565b61079b61228b565b60665461190890611388612a17565b600081612283576001610600565b600092915050565b600054610100900460ff166122b25760405162461bcd60e51b8152600401610ef990612ce1565b61079b33611e9c565b604080516101e081018252600080825260208201819052918101829052606081018290526080810182905260a0810182905260c0810182905260e081018290529061010082019081526020016060815260200160008152602001600081526020016000815260200160008019168152602001600081525090565b60008083601f84011261234757600080fd5b50813567ffffffffffffffff81111561235f57600080fd5b6020830191508360208260051b85010111156118f957600080fd5b6000806020838503121561238d57600080fd5b823567ffffffffffffffff8111156123a457600080fd5b6123b085828601612335565b90969095509350505050565b6020808252825182820181905260009190848201906040850190845b818110156123f65783511515835292840192918401916001016123d8565b50909695505050505050565b60006020828403121561241457600080fd5b5035919050565b634e487b7160e01b600052602160045260246000fd5b6004811061244f57634e487b7160e01b600052602160045260246000fd5b9052565b6000815180845260005b818110156124795760208185018101518683018201520161245d565b506000602082860101526020601f19601f83011685010191505092915050565b80516001600160a01b0316825260006101e06020830151602085015260408301516040850152606083015160608501526080830151608085015260a083015160a085015260c083015160c085015260e083015161250160e08601826001600160a01b03169052565b506101008084015161251582870182612431565b505061012080840151828287015261252f83870182612453565b6101408681015190880152610160808701519088015261018080870151908801526101a080870151908801526101c095860151959096019490945250929392505050565b6020815260006125866020830184612499565b9392505050565b803563ffffffff811681146125a157600080fd5b919050565b6000602082840312156125b857600080fd5b6125868261258d565b6000604082018415158352602060408185015281855180845260608601915060608160051b870101935082870160005b8281101561261f57605f1988870301845261260d868351612499565b955092840192908401906001016125f1565b509398975050505050505050565b80356001600160a01b03811681146125a157600080fd5b8015158114611cc057600080fd5b60008060008060008060008060e0898b03121561266e57600080fd5b6126778961262d565b97506020890135965060408901359550606089013561269581612644565b9450608089013567ffffffffffffffff8111156126b157600080fd5b6126bd8b828c01612335565b90955093505060a08901356126d181612644565b91506126df60c08a0161262d565b90509295985092959890939650565b6020808252825182820181905260009190848201906040850190845b818110156123f65783518352928401929184019160010161270a565b6000806040838503121561273957600080fd5b6127428361262d565b946020939093013593505050565b60006020828403121561276257600080fd5b6125868261262d565b6000806040838503121561277e57600080fd5b6127878361258d565b91506127956020840161262d565b90509250929050565b86815260c0602082015260006127b760c0830188612453565b86604084015285606084015282810360808401526127d58186612453565b91505082151560a0830152979650505050505050565b60008060008060008060c0878903121561280457600080fd5b61280d8761262d565b955061281b6020880161262d565b94506128296040880161262d565b93506128376060880161262d565b92506128456080880161262d565b915061285360a0880161262d565b90509295509295509295565b634e487b7160e01b600052604160045260246000fd5b634e487b7160e01b600052603260045260246000fd5b6000808335601e198436030181126128a257600080fd5b83018035915067ffffffffffffffff8211156128bd57600080fd5b6020019150368190038213156118f957600080fd5b8183823760009101908152919050565b634e487b7160e01b600052601160045260246000fd5b600060ff821660ff810361290e5761290e6128e2565b60010192915050565b600181811c9082168061292b57607f821691505b60208210810361294b57634e487b7160e01b600052602260045260246000fd5b50919050565b60006020828403121561296357600080fd5b5051919050565b80820180821115610600576106006128e2565b63ffffffff81811683821602808216919082811461299d5761299d6128e2565b505092915050565b63ffffffff8281168282160390808211156129c2576129c26128e2565b5092915050565b6000600182016129db576129db6128e2565b5060010190565b81810381811115610600576106006128e2565b600082612a1257634e487b7160e01b600052601260045260246000fd5b500490565b8082028115828204841417610600576106006128e2565b600061ffff808316818103612a4557612a456128e2565b6001019392505050565b601f821115612a9957600081815260208120601f850160051c81016020861015612a765750805b601f850160051c820191505b81811015612a9557828155600101612a82565b5050505b505050565b815167ffffffffffffffff811115612ab857612ab861285f565b612acc81612ac68454612917565b84612a4f565b602080601f831160018114612b015760008415612ae95750858301515b600019600386901b1c1916600185901b178555612a95565b600085815260208120601f198616915b82811015612b3057888601518255948401946001909101908401612b11565b5085821015612b4e5787850151600019600388901b60f8161c191681555b5050505050600190811b01905550565b60008154612b6b81612917565b808552602060018381168015612b885760018114612ba257612bd0565b60ff1985168884015283151560051b880183019550612bd0565b866000528260002060005b85811015612bc85781548a8201860152908301908401612bad565b890184019650505b505050505092915050565b60208152612c0460208201612bf784546001600160a01b031690565b6001600160a01b03169052565b600182015460408201526002820154606082015260038201546080820152600482015460a0820152600582015460c0820152600682015460e082015260078201546001600160a01b038116610100830152600090612c6c610120840160ff8360a01c16612431565b506101e080610140840152612c88610200840160088601612b5e565b6009850154610160850152600a850154610180850152600b8501546101a0850152600c8501546101c0850152600d909401549201919091525090565b600060208284031215612cd657600080fd5b815161258681612644565b6020808252602b908201527f496e697469616c697a61626c653a20636f6e7472616374206973206e6f74206960408201526a6e697469616c697a696e6760a81b60608201526080019056fea26469706673582212206b9e03aa512d192b5ee0c70c78bae6534383e99397714ac162a6d87aeaf521d764736f6c63430008130033",
			"opcodes": "PUSH1 0x80 PUSH1 0x40 MSTORE PUSH1 0x66 SLOAD PUSH3 0x14 SWAP1 PUSH1 0x1 PUSH3 0x4B JUMP JUMPDEST PUSH1 0x65 SSTORE PUSH3 0xF4240 PUSH1 0x66 DUP2 SWAP1 SSTORE PUSH1 0x64 PUSH1 0x67 SSTORE PUSH3 0x32 SWAP1 PUSH1 0x1E PUSH3 0x4B JUMP JUMPDEST PUSH1 0x68 SSTORE PUSH1 0x69 DUP1 SLOAD PUSH4 0xFFFFFFFF NOT AND PUSH1 0xA OR SWAP1 SSTORE PUSH3 0x77 JUMP JUMPDEST DUP1 DUP3 MUL DUP2 ISZERO DUP3 DUP3 DIV DUP5 EQ OR PUSH3 0x71 JUMPI PUSH4 0x4E487B71 PUSH1 0xE0 SHL PUSH1 0x0 MSTORE PUSH1 0x11 PUSH1 0x4 MSTORE PUSH1 0x24 PUSH1 0x0 REVERT JUMPDEST SWAP3 SWAP2 POP POP JUMP JUMPDEST PUSH2 0x2D62 DUP1 PUSH3 0x87 PUSH1 0x0 CODECOPY PUSH1 0x0 RETURN INVALID PUSH1 0x80 PUSH1 0x40 MSTORE CALLVALUE DUP1 ISZERO PUSH2 0x10 JUMPI PUSH1 0x0 DUP1 REVERT JUMPDEST POP PUSH1 0x4 CALLDATASIZE LT PUSH2 0x1F0 JUMPI PUSH1 0x0 CALLDATALOAD PUSH1 0xE0 SHR DUP1 PUSH4 0x8FE39EFD GT PUSH2 0x10F JUMPI DUP1 PUSH4 0xC01C36D0 GT PUSH2 0xA2 JUMPI DUP1 PUSH4 0xDDCD6408 GT PUSH2 0x71 JUMPI DUP1 PUSH4 0xDDCD6408 EQ PUSH2 0x457 JUMPI DUP1 PUSH4 0xF2FDE38B EQ PUSH2 0x46A JUMPI DUP1 PUSH4 0xF4B7F343 EQ PUSH2 0x47D JUMPI DUP1 PUSH4 0xF8525B93 EQ PUSH2 0x490 JUMPI PUSH1 0x0 DUP1 REVERT JUMPDEST DUP1 PUSH4 0xC01C36D0 EQ PUSH2 0x3F9 JUMPI DUP1 PUSH4 0xCB286F19 EQ PUSH2 0x40C JUMPI DUP1 PUSH4 0xCC2A9A5B EQ PUSH2 0x431 JUMPI DUP1 PUSH4 0xDC30CBB4 EQ PUSH2 0x444 JUMPI PUSH1 0x0 DUP1 REVERT JUMPDEST DUP1 PUSH4 0xB7182530 GT PUSH2 0xDE JUMPI DUP1 PUSH4 0xB7182530 EQ PUSH2 0x3A0 JUMPI DUP1 PUSH4 0xB935948A EQ PUSH2 0x3B3 JUMPI DUP1 PUSH4 0xBC65FEE5 EQ PUSH2 0x3C6 JUMPI DUP1 PUSH4 0xBF9CE952 EQ PUSH2 0x3E6 JUMPI PUSH1 0x0 DUP1 REVERT JUMPDEST DUP1 PUSH4 0x8FE39EFD EQ PUSH2 0x359 JUMPI DUP1 PUSH4 0xA429A513 EQ PUSH2 0x361 JUMPI DUP1 PUSH4 0xA559934E EQ PUSH2 0x384 JUMPI DUP1 PUSH4 0xB22A9F9A EQ PUSH2 0x397 JUMPI PUSH1 0x0 DUP1 REVERT JUMPDEST DUP1 PUSH4 0x486F6AFE GT PUSH2 0x187 JUMPI DUP1 PUSH4 0x8C4A876D GT PUSH2 0x156 JUMPI DUP1 PUSH4 0x8C4A876D EQ PUSH2 0x30D JUMPI DUP1 PUSH4 0x8C7AB1D7 EQ PUSH2 0x315 JUMPI DUP1 PUSH4 0x8DA5CB5B EQ PUSH2 0x328 JUMPI DUP1 PUSH4 0x8EC09C97 EQ PUSH2 0x339 JUMPI PUSH1 0x0 DUP1 REVERT JUMPDEST DUP1 PUSH4 0x486F6AFE EQ PUSH2 0x2AF JUMPI DUP1 PUSH4 0x61B26F27 EQ PUSH2 0x2C2 JUMPI DUP1 PUSH4 0x715018A6 EQ PUSH2 0x2E2 JUMPI DUP1 PUSH4 0x78F25AEE EQ PUSH2 0x2EC JUMPI PUSH1 0x0 DUP1 REVERT JUMPDEST DUP1 PUSH4 0x362EFC3D GT PUSH2 0x1C3 JUMPI DUP1 PUSH4 0x362EFC3D EQ PUSH2 0x281 JUMPI DUP1 PUSH4 0x395348DC EQ PUSH2 0x28A JUMPI DUP1 PUSH4 0x435A3E50 EQ PUSH2 0x293 JUMPI DUP1 PUSH4 0x47CCCA02 EQ PUSH2 0x29C JUMPI PUSH1 0x0 DUP1 REVERT JUMPDEST DUP1 PUSH4 0x76D5556 EQ PUSH2 0x1F5 JUMPI DUP1 PUSH4 0x11F1374A EQ PUSH2 0x211 JUMPI DUP1 PUSH4 0x2F48AB7D EQ PUSH2 0x236 JUMPI DUP1 PUSH4 0x31AE322F EQ PUSH2 0x261 JUMPI JUMPDEST PUSH1 0x0 DUP1 REVERT JUMPDEST PUSH2 0x1FE PUSH1 0x6D SLOAD DUP2 JUMP JUMPDEST PUSH1 0x40 MLOAD SWAP1 DUP2 MSTORE PUSH1 0x20 ADD JUMPDEST PUSH1 0x40 MLOAD DUP1 SWAP2 SUB SWAP1 RETURN JUMPDEST PUSH1 0x69 SLOAD PUSH2 0x221 SWAP1 PUSH4 0xFFFFFFFF AND DUP2 JUMP JUMPDEST PUSH1 0x40 MLOAD PUSH4 0xFFFFFFFF SWAP1 SWAP2 AND DUP2 MSTORE PUSH1 0x20 ADD PUSH2 0x208 JUMP JUMPDEST PUSH1 0x6E SLOAD PUSH2 0x249 SWAP1 PUSH1 0x1 PUSH1 0x1 PUSH1 0xA0 SHL SUB AND DUP2 JUMP JUMPDEST PUSH1 0x40 MLOAD PUSH1 0x1 PUSH1 0x1 PUSH1 0xA0 SHL SUB SWAP1 SWAP2 AND DUP2 MSTORE PUSH1 0x20 ADD PUSH2 0x208 JUMP JUMPDEST PUSH2 0x274 PUSH2 0x26F CALLDATASIZE PUSH1 0x4 PUSH2 0x237A JUMP JUMPDEST PUSH2 0x4A3 JUMP JUMPDEST PUSH1 0x40 MLOAD PUSH2 0x208 SWAP2 SWAP1 PUSH2 0x23BC JUMP JUMPDEST PUSH2 0x1FE PUSH1 0x66 SLOAD DUP2 JUMP JUMPDEST PUSH2 0x1FE PUSH1 0x65 SLOAD DUP2 JUMP JUMPDEST PUSH2 0x1FE PUSH1 0x68 SLOAD DUP2 JUMP JUMPDEST PUSH1 0x71 SLOAD PUSH2 0x249 SWAP1 PUSH1 0x1 PUSH1 0x1 PUSH1 0xA0 SHL SUB AND DUP2 JUMP JUMPDEST PUSH1 0x6F SLOAD PUSH2 0x249 SWAP1 PUSH1 0x1 PUSH1 0x1 PUSH1 0xA0 SHL SUB AND DUP2 JUMP JUMPDEST PUSH2 0x2D5 PUSH2 0x2D0 CALLDATASIZE PUSH1 0x4 PUSH2 0x2402 JUMP JUMPDEST PUSH2 0x606 JUMP JUMPDEST PUSH1 0x40 MLOAD PUSH2 0x208 SWAP2 SWAP1 PUSH2 0x2573 JUMP JUMPDEST PUSH2 0x2EA PUSH2 0x789 JUMP JUMPDEST STOP JUMPDEST PUSH2 0x2FF PUSH2 0x2FA CALLDATASIZE PUSH1 0x4 PUSH2 0x25A6 JUMP JUMPDEST PUSH2 0x79D JUMP JUMPDEST PUSH1 0x40 MLOAD PUSH2 0x208 SWAP3 SWAP2 SWAP1 PUSH2 0x25C1 JUMP JUMPDEST PUSH2 0x1FE PUSH2 0xE3D JUMP JUMPDEST PUSH1 0x70 SLOAD PUSH2 0x249 SWAP1 PUSH1 0x1 PUSH1 0x1 PUSH1 0xA0 SHL SUB AND DUP2 JUMP JUMPDEST PUSH1 0x33 SLOAD PUSH1 0x1 PUSH1 0x1 PUSH1 0xA0 SHL SUB AND PUSH2 0x249 JUMP JUMPDEST PUSH2 0x34C PUSH2 0x347 CALLDATASIZE PUSH1 0x4 PUSH2 0x2652 JUMP JUMPDEST PUSH2 0xEA7 JUMP JUMPDEST PUSH1 0x40 MLOAD PUSH2 0x208 SWAP2 SWAP1 PUSH2 0x26EE JUMP JUMPDEST PUSH2 0x1FE PUSH2 0x1133 JUMP JUMPDEST PUSH2 0x374 PUSH2 0x36F CALLDATASIZE PUSH1 0x4 PUSH2 0x2726 JUMP JUMPDEST PUSH2 0x11A5 JUMP JUMPDEST PUSH1 0x40 MLOAD SWAP1 ISZERO ISZERO DUP2 MSTORE PUSH1 0x20 ADD PUSH2 0x208 JUMP JUMPDEST PUSH2 0x2EA PUSH2 0x392 CALLDATASIZE PUSH1 0x4 PUSH2 0x2750 JUMP JUMPDEST PUSH2 0x1226 JUMP JUMPDEST PUSH2 0x1FE PUSH1 0x67 SLOAD DUP2 JUMP JUMPDEST PUSH2 0x2FF PUSH2 0x3AE CALLDATASIZE PUSH1 0x4 PUSH2 0x276B JUMP JUMPDEST PUSH2 0x1250 JUMP JUMPDEST PUSH2 0x2EA PUSH2 0x3C1 CALLDATASIZE PUSH1 0x4 PUSH2 0x2402 JUMP JUMPDEST PUSH2 0x1900 JUMP JUMPDEST PUSH2 0x1FE PUSH2 0x3D4 CALLDATASIZE PUSH1 0x4 PUSH2 0x2402 JUMP JUMPDEST PUSH1 0x6B PUSH1 0x20 MSTORE PUSH1 0x0 SWAP1 DUP2 MSTORE PUSH1 0x40 SWAP1 KECCAK256 SLOAD DUP2 JUMP JUMPDEST PUSH1 0x73 SLOAD PUSH2 0x249 SWAP1 PUSH1 0x1 PUSH1 0x1 PUSH1 0xA0 SHL SUB AND DUP2 JUMP JUMPDEST PUSH1 0x72 SLOAD PUSH2 0x249 SWAP1 PUSH1 0x1 PUSH1 0x1 PUSH1 0xA0 SHL SUB AND DUP2 JUMP JUMPDEST PUSH2 0x41F PUSH2 0x41A CALLDATASIZE PUSH1 0x4 PUSH2 0x2402 JUMP JUMPDEST PUSH2 0x190D JUMP JUMPDEST PUSH1 0x40 MLOAD PUSH2 0x208 SWAP7 SWAP6 SWAP5 SWAP4 SWAP3 SWAP2 SWAP1 PUSH2 0x279E JUMP JUMPDEST PUSH2 0x2EA PUSH2 0x43F CALLDATASIZE PUSH1 0x4 PUSH2 0x27EB JUMP JUMPDEST PUSH2 0x1A55 JUMP JUMPDEST PUSH2 0x2EA PUSH2 0x452 CALLDATASIZE PUSH1 0x4 PUSH2 0x2750 JUMP JUMPDEST PUSH2 0x1BF6 JUMP JUMPDEST PUSH2 0x2EA PUSH2 0x465 CALLDATASIZE PUSH1 0x4 PUSH2 0x2750 JUMP JUMPDEST PUSH2 0x1C20 JUMP JUMPDEST PUSH2 0x2EA PUSH2 0x478 CALLDATASIZE PUSH1 0x4 PUSH2 0x2750 JUMP JUMPDEST PUSH2 0x1C4A JUMP JUMPDEST PUSH2 0x274 PUSH2 0x48B CALLDATASIZE PUSH1 0x4 PUSH2 0x237A JUMP JUMPDEST PUSH2 0x1CC3 JUMP JUMPDEST PUSH2 0x2EA PUSH2 0x49E CALLDATASIZE PUSH1 0x4 PUSH2 0x2750 JUMP JUMPDEST PUSH2 0x1E18 JUMP JUMPDEST PUSH1 0x60 PUSH1 0x0 DUP3 PUSH8 0xFFFFFFFFFFFFFFFF DUP2 GT ISZERO PUSH2 0x4C0 JUMPI PUSH2 0x4C0 PUSH2 0x285F JUMP JUMPDEST PUSH1 0x40 MLOAD SWAP1 DUP1 DUP3 MSTORE DUP1 PUSH1 0x20 MUL PUSH1 0x20 ADD DUP3 ADD PUSH1 0x40 MSTORE DUP1 ISZERO PUSH2 0x4E9 JUMPI DUP2 PUSH1 0x20 ADD PUSH1 0x20 DUP3 MUL DUP1 CALLDATASIZE DUP4 CALLDATACOPY ADD SWAP1 POP JUMPDEST POP SWAP1 POP PUSH1 0x0 DUP1 JUMPDEST PUSH1 0xFF DUP2 AND DUP6 GT ISZERO PUSH2 0x5FA JUMPI DUP6 DUP6 DUP3 PUSH1 0xFF AND DUP2 DUP2 LT PUSH2 0x510 JUMPI PUSH2 0x510 PUSH2 0x2875 JUMP JUMPDEST SWAP1 POP PUSH1 0x20 MUL DUP2 ADD SWAP1 PUSH2 0x522 SWAP2 SWAP1 PUSH2 0x288B JUMP JUMPDEST PUSH1 0x40 MLOAD PUSH1 0x20 ADD PUSH2 0x533 SWAP3 SWAP2 SWAP1 PUSH2 0x28D2 JUMP JUMPDEST PUSH1 0x40 DUP1 MLOAD DUP1 DUP4 SUB PUSH1 0x1F NOT ADD DUP2 MSTORE SWAP2 DUP2 MSTORE DUP2 MLOAD PUSH1 0x20 SWAP3 DUP4 ADD KECCAK256 PUSH1 0x0 DUP2 DUP2 MSTORE PUSH1 0x6A SWAP1 SWAP4 MSTORE SWAP2 KECCAK256 SLOAD SWAP1 SWAP3 POP PUSH1 0x1 PUSH1 0x1 PUSH1 0xA0 SHL SUB AND CALLER EQ ISZERO DUP1 PUSH2 0x59D JUMPI POP PUSH1 0x0 DUP1 DUP4 DUP2 MSTORE PUSH1 0x6A PUSH1 0x20 MSTORE PUSH1 0x40 SWAP1 KECCAK256 PUSH1 0x7 ADD SLOAD PUSH1 0x1 PUSH1 0xA0 SHL SWAP1 DIV PUSH1 0xFF AND PUSH1 0x3 DUP2 GT ISZERO PUSH2 0x59B JUMPI PUSH2 0x59B PUSH2 0x241B JUMP JUMPDEST EQ JUMPDEST PUSH2 0x5E8 JUMPI PUSH1 0x0 DUP3 DUP2 MSTORE PUSH1 0x6A PUSH1 0x20 MSTORE PUSH1 0x40 SWAP1 KECCAK256 PUSH1 0x7 ADD DUP1 SLOAD PUSH1 0xFF PUSH1 0xA0 SHL NOT AND SWAP1 SSTORE DUP3 MLOAD PUSH1 0x1 SWAP1 DUP5 SWAP1 PUSH1 0xFF DUP5 AND SWAP1 DUP2 LT PUSH2 0x5D7 JUMPI PUSH2 0x5D7 PUSH2 0x2875 JUMP JUMPDEST SWAP2 ISZERO ISZERO PUSH1 0x20 SWAP3 DUP4 MUL SWAP2 SWAP1 SWAP2 ADD SWAP1 SWAP2 ADD MSTORE JUMPDEST DUP1 PUSH2 0x5F2 DUP2 PUSH2 0x28F8 JUMP JUMPDEST SWAP2 POP POP PUSH2 0x4F0 JUMP JUMPDEST POP SWAP1 SWAP2 POP POP JUMPDEST SWAP3 SWAP2 POP POP JUMP JUMPDEST PUSH2 0x60E PUSH2 0x22BB JUMP JUMPDEST PUSH1 0x0 DUP3 DUP2 MSTORE PUSH1 0x6A PUSH1 0x20 SWAP1 DUP2 MSTORE PUSH1 0x40 SWAP2 DUP3 SWAP1 KECCAK256 DUP3 MLOAD PUSH2 0x1E0 DUP2 ADD DUP5 MSTORE DUP2 SLOAD PUSH1 0x1 PUSH1 0x1 PUSH1 0xA0 SHL SUB SWAP1 DUP2 AND DUP3 MSTORE PUSH1 0x1 DUP4 ADD SLOAD SWAP4 DUP3 ADD SWAP4 SWAP1 SWAP4 MSTORE PUSH1 0x2 DUP3 ADD SLOAD SWAP4 DUP2 ADD SWAP4 SWAP1 SWAP4 MSTORE PUSH1 0x3 DUP1 DUP3 ADD SLOAD PUSH1 0x60 DUP6 ADD MSTORE PUSH1 0x4 DUP3 ADD SLOAD PUSH1 0x80 DUP6 ADD MSTORE PUSH1 0x5 DUP3 ADD SLOAD PUSH1 0xA0 DUP6 ADD MSTORE PUSH1 0x6 DUP3 ADD SLOAD PUSH1 0xC0 DUP6 ADD MSTORE PUSH1 0x7 DUP3 ADD SLOAD SWAP3 DUP4 AND PUSH1 0xE0 DUP6 ADD MSTORE SWAP1 SWAP2 PUSH2 0x100 DUP5 ADD SWAP2 PUSH1 0x1 PUSH1 0xA0 SHL SWAP1 SWAP2 DIV PUSH1 0xFF AND SWAP1 DUP2 GT ISZERO PUSH2 0x6A9 JUMPI PUSH2 0x6A9 PUSH2 0x241B JUMP JUMPDEST PUSH1 0x3 DUP2 GT ISZERO PUSH2 0x6BA JUMPI PUSH2 0x6BA PUSH2 0x241B JUMP JUMPDEST DUP2 MSTORE PUSH1 0x20 ADD PUSH1 0x8 DUP3 ADD DUP1 SLOAD PUSH2 0x6CE SWAP1 PUSH2 0x2917 JUMP JUMPDEST DUP1 PUSH1 0x1F ADD PUSH1 0x20 DUP1 SWAP2 DIV MUL PUSH1 0x20 ADD PUSH1 0x40 MLOAD SWAP1 DUP2 ADD PUSH1 0x40 MSTORE DUP1 SWAP3 SWAP2 SWAP1 DUP2 DUP2 MSTORE PUSH1 0x20 ADD DUP3 DUP1 SLOAD PUSH2 0x6FA SWAP1 PUSH2 0x2917 JUMP JUMPDEST DUP1 ISZERO PUSH2 0x747 JUMPI DUP1 PUSH1 0x1F LT PUSH2 0x71C JUMPI PUSH2 0x100 DUP1 DUP4 SLOAD DIV MUL DUP4 MSTORE SWAP2 PUSH1 0x20 ADD SWAP2 PUSH2 0x747 JUMP JUMPDEST DUP3 ADD SWAP2 SWAP1 PUSH1 0x0 MSTORE PUSH1 0x20 PUSH1 0x0 KECCAK256 SWAP1 JUMPDEST DUP2 SLOAD DUP2 MSTORE SWAP1 PUSH1 0x1 ADD SWAP1 PUSH1 0x20 ADD DUP1 DUP4 GT PUSH2 0x72A JUMPI DUP3 SWAP1 SUB PUSH1 0x1F AND DUP3 ADD SWAP2 JUMPDEST POP POP POP POP POP DUP2 MSTORE PUSH1 0x20 ADD PUSH1 0x9 DUP3 ADD SLOAD DUP2 MSTORE PUSH1 0x20 ADD PUSH1 0xA DUP3 ADD SLOAD DUP2 MSTORE PUSH1 0x20 ADD PUSH1 0xB DUP3 ADD SLOAD DUP2 MSTORE PUSH1 0x20 ADD PUSH1 0xC DUP3 ADD SLOAD DUP2 MSTORE PUSH1 0x20 ADD PUSH1 0xD DUP3 ADD SLOAD DUP2 MSTORE POP POP SWAP1 POP SWAP2 SWAP1 POP JUMP JUMPDEST PUSH2 0x791 PUSH2 0x1E42 JUMP JUMPDEST PUSH2 0x79B PUSH1 0x0 PUSH2 0x1E9C JUMP JUMPDEST JUMP JUMPDEST PUSH1 0x71 SLOAD PUSH1 0x40 MLOAD PUSH4 0x70A08231 PUSH1 0xE0 SHL DUP2 MSTORE CALLER PUSH1 0x4 DUP3 ADD MSTORE PUSH1 0x0 SWAP2 PUSH1 0x60 SWAP2 DUP4 SWAP2 PUSH1 0x1 PUSH1 0x1 PUSH1 0xA0 SHL SUB AND SWAP1 PUSH4 0x70A08231 SWAP1 PUSH1 0x24 ADD PUSH1 0x20 PUSH1 0x40 MLOAD DUP1 DUP4 SUB DUP2 DUP7 GAS STATICCALL ISZERO DUP1 ISZERO PUSH2 0x7EB JUMPI RETURNDATASIZE PUSH1 0x0 DUP1 RETURNDATACOPY RETURNDATASIZE PUSH1 0x0 REVERT JUMPDEST POP POP POP POP PUSH1 0x40 MLOAD RETURNDATASIZE PUSH1 0x1F NOT PUSH1 0x1F DUP3 ADD AND DUP3 ADD DUP1 PUSH1 0x40 MSTORE POP DUP2 ADD SWAP1 PUSH2 0x80F SWAP2 SWAP1 PUSH2 0x2951 JUMP JUMPDEST PUSH1 0x69 SLOAD SWAP1 SWAP2 POP PUSH2 0x825 SWAP1 PUSH4 0xFFFFFFFF AND DUP3 PUSH2 0x296A JUMP JUMPDEST PUSH1 0x69 SLOAD PUSH2 0x838 SWAP1 PUSH4 0xFFFFFFFF AND DUP7 PUSH2 0x297D JUMP JUMPDEST PUSH4 0xFFFFFFFF AND GT ISZERO PUSH2 0x84E JUMPI PUSH1 0x0 SWAP3 POP POP SWAP2 POP SWAP2 JUMP JUMPDEST PUSH1 0x69 SLOAD DUP2 SWAP1 PUSH2 0x863 SWAP1 PUSH4 0xFFFFFFFF AND DUP7 PUSH2 0x297D JUMP JUMPDEST PUSH4 0xFFFFFFFF AND LT ISZERO PUSH2 0xB42 JUMPI PUSH1 0x69 SLOAD PUSH1 0x1 SWAP4 POP PUSH4 0xFFFFFFFF AND PUSH8 0xFFFFFFFFFFFFFFFF DUP2 GT ISZERO PUSH2 0x894 JUMPI PUSH2 0x894 PUSH2 0x285F JUMP JUMPDEST PUSH1 0x40 MLOAD SWAP1 DUP1 DUP3 MSTORE DUP1 PUSH1 0x20 MUL PUSH1 0x20 ADD DUP3 ADD PUSH1 0x40 MSTORE DUP1 ISZERO PUSH2 0x8CD JUMPI DUP2 PUSH1 0x20 ADD JUMPDEST PUSH2 0x8BA PUSH2 0x22BB JUMP JUMPDEST DUP2 MSTORE PUSH1 0x20 ADD SWAP1 PUSH1 0x1 SWAP1 SUB SWAP1 DUP2 PUSH2 0x8B2 JUMPI SWAP1 POP JUMPDEST POP SWAP2 POP PUSH1 0x0 JUMPDEST DUP3 MLOAD DUP2 LT ISZERO PUSH2 0xB3B JUMPI PUSH1 0x71 SLOAD PUSH1 0x69 SLOAD PUSH1 0x6A SWAP2 PUSH1 0x0 SWAP2 PUSH1 0x1 PUSH1 0x1 PUSH1 0xA0 SHL SUB SWAP1 SWAP2 AND SWAP1 PUSH4 0x2F745C59 SWAP1 CALLER SWAP1 DUP7 SWAP1 PUSH4 0xFFFFFFFF AND PUSH2 0x90E DUP2 DUP14 PUSH2 0x297D JUMP JUMPDEST PUSH2 0x918 SWAP2 SWAP1 PUSH2 0x29A5 JUMP JUMPDEST PUSH4 0xFFFFFFFF AND PUSH2 0x928 SWAP2 SWAP1 PUSH2 0x296A JUMP JUMPDEST PUSH1 0x40 MLOAD PUSH1 0x1 PUSH1 0x1 PUSH1 0xE0 SHL SUB NOT PUSH1 0xE0 DUP6 SWAP1 SHL AND DUP2 MSTORE PUSH1 0x1 PUSH1 0x1 PUSH1 0xA0 SHL SUB SWAP1 SWAP3 AND PUSH1 0x4 DUP4 ADD MSTORE PUSH1 0x24 DUP3 ADD MSTORE PUSH1 0x44 ADD PUSH1 0x20 PUSH1 0x40 MLOAD DUP1 DUP4 SUB DUP2 DUP7 GAS STATICCALL ISZERO DUP1 ISZERO PUSH2 0x971 JUMPI RETURNDATASIZE PUSH1 0x0 DUP1 RETURNDATACOPY RETURNDATASIZE PUSH1 0x0 REVERT JUMPDEST POP POP POP POP PUSH1 0x40 MLOAD RETURNDATASIZE PUSH1 0x1F NOT PUSH1 0x1F DUP3 ADD AND DUP3 ADD DUP1 PUSH1 0x40 MSTORE POP DUP2 ADD SWAP1 PUSH2 0x995 SWAP2 SWAP1 PUSH2 0x2951 JUMP JUMPDEST DUP2 MSTORE PUSH1 0x20 DUP1 DUP3 ADD SWAP3 SWAP1 SWAP3 MSTORE PUSH1 0x40 SWAP1 DUP2 ADD PUSH1 0x0 KECCAK256 DUP2 MLOAD PUSH2 0x1E0 DUP2 ADD DUP4 MSTORE DUP2 SLOAD PUSH1 0x1 PUSH1 0x1 PUSH1 0xA0 SHL SUB SWAP1 DUP2 AND DUP3 MSTORE PUSH1 0x1 DUP4 ADD SLOAD SWAP5 DUP3 ADD SWAP5 SWAP1 SWAP5 MSTORE PUSH1 0x2 DUP3 ADD SLOAD SWAP3 DUP2 ADD SWAP3 SWAP1 SWAP3 MSTORE PUSH1 0x3 DUP1 DUP3 ADD SLOAD PUSH1 0x60 DUP5 ADD MSTORE PUSH1 0x4 DUP3 ADD SLOAD PUSH1 0x80 DUP5 ADD MSTORE PUSH1 0x5 DUP3 ADD SLOAD PUSH1 0xA0 DUP5 ADD MSTORE PUSH1 0x6 DUP3 ADD SLOAD PUSH1 0xC0 DUP5 ADD MSTORE PUSH1 0x7 DUP3 ADD SLOAD SWAP4 DUP5 AND PUSH1 0xE0 DUP5 ADD MSTORE SWAP2 SWAP3 SWAP1 SWAP2 PUSH2 0x100 DUP5 ADD SWAP2 PUSH1 0x1 PUSH1 0xA0 SHL SWAP1 DIV PUSH1 0xFF AND SWAP1 DUP2 GT ISZERO PUSH2 0xA32 JUMPI PUSH2 0xA32 PUSH2 0x241B JUMP JUMPDEST PUSH1 0x3 DUP2 GT ISZERO PUSH2 0xA43 JUMPI PUSH2 0xA43 PUSH2 0x241B JUMP JUMPDEST DUP2 MSTORE PUSH1 0x20 ADD PUSH1 0x8 DUP3 ADD DUP1 SLOAD PUSH2 0xA57 SWAP1 PUSH2 0x2917 JUMP JUMPDEST DUP1 PUSH1 0x1F ADD PUSH1 0x20 DUP1 SWAP2 DIV MUL PUSH1 0x20 ADD PUSH1 0x40 MLOAD SWAP1 DUP2 ADD PUSH1 0x40 MSTORE DUP1 SWAP3 SWAP2 SWAP1 DUP2 DUP2 MSTORE PUSH1 0x20 ADD DUP3 DUP1 SLOAD PUSH2 0xA83 SWAP1 PUSH2 0x2917 JUMP JUMPDEST DUP1 ISZERO PUSH2 0xAD0 JUMPI DUP1 PUSH1 0x1F LT PUSH2 0xAA5 JUMPI PUSH2 0x100 DUP1 DUP4 SLOAD DIV MUL DUP4 MSTORE SWAP2 PUSH1 0x20 ADD SWAP2 PUSH2 0xAD0 JUMP JUMPDEST DUP3 ADD SWAP2 SWAP1 PUSH1 0x0 MSTORE PUSH1 0x20 PUSH1 0x0 KECCAK256 SWAP1 JUMPDEST DUP2 SLOAD DUP2 MSTORE SWAP1 PUSH1 0x1 ADD SWAP1 PUSH1 0x20 ADD DUP1 DUP4 GT PUSH2 0xAB3 JUMPI DUP3 SWAP1 SUB PUSH1 0x1F AND DUP3 ADD SWAP2 JUMPDEST POP POP POP POP POP DUP2 MSTORE PUSH1 0x20 ADD PUSH1 0x9 DUP3 ADD SLOAD DUP2 MSTORE PUSH1 0x20 ADD PUSH1 0xA DUP3 ADD SLOAD DUP2 MSTORE PUSH1 0x20 ADD PUSH1 0xB DUP3 ADD SLOAD DUP2 MSTORE PUSH1 0x20 ADD PUSH1 0xC DUP3 ADD SLOAD DUP2 MSTORE PUSH1 0x20 ADD PUSH1 0xD DUP3 ADD SLOAD DUP2 MSTORE POP POP DUP4 DUP3 DUP2 MLOAD DUP2 LT PUSH2 0xB1D JUMPI PUSH2 0xB1D PUSH2 0x2875 JUMP JUMPDEST PUSH1 0x20 MUL PUSH1 0x20 ADD ADD DUP2 SWAP1 MSTORE POP DUP1 DUP1 PUSH2 0xB33 SWAP1 PUSH2 0x29C9 JUMP JUMPDEST SWAP2 POP POP PUSH2 0x8D3 JUMP JUMPDEST POP POP SWAP2 POP SWAP2 JUMP JUMPDEST PUSH1 0x69 SLOAD PUSH1 0x0 SWAP4 POP DUP2 SWAP1 PUSH2 0xB5B SWAP1 PUSH4 0xFFFFFFFF AND DUP7 PUSH2 0x297D JUMP JUMPDEST PUSH4 0xFFFFFFFF AND PUSH2 0xB6B SWAP2 SWAP1 PUSH2 0x29E2 JUMP JUMPDEST PUSH1 0x69 SLOAD PUSH2 0xB7E SWAP2 SWAP1 PUSH4 0xFFFFFFFF AND PUSH2 0x29E2 JUMP JUMPDEST PUSH8 0xFFFFFFFFFFFFFFFF DUP2 GT ISZERO PUSH2 0xB96 JUMPI PUSH2 0xB96 PUSH2 0x285F JUMP JUMPDEST PUSH1 0x40 MLOAD SWAP1 DUP1 DUP3 MSTORE DUP1 PUSH1 0x20 MUL PUSH1 0x20 ADD DUP3 ADD PUSH1 0x40 MSTORE DUP1 ISZERO PUSH2 0xBCF JUMPI DUP2 PUSH1 0x20 ADD JUMPDEST PUSH2 0xBBC PUSH2 0x22BB JUMP JUMPDEST DUP2 MSTORE PUSH1 0x20 ADD SWAP1 PUSH1 0x1 SWAP1 SUB SWAP1 DUP2 PUSH2 0xBB4 JUMPI SWAP1 POP JUMPDEST POP SWAP2 POP PUSH1 0x0 JUMPDEST DUP3 MLOAD DUP2 LT ISZERO PUSH2 0xB3B JUMPI PUSH1 0x71 SLOAD PUSH1 0x69 SLOAD PUSH1 0x6A SWAP2 PUSH1 0x0 SWAP2 PUSH1 0x1 PUSH1 0x1 PUSH1 0xA0 SHL SUB SWAP1 SWAP2 AND SWAP1 PUSH4 0x2F745C59 SWAP1 CALLER SWAP1 DUP7 SWAP1 PUSH4 0xFFFFFFFF AND PUSH2 0xC10 DUP2 DUP14 PUSH2 0x297D JUMP JUMPDEST PUSH2 0xC1A SWAP2 SWAP1 PUSH2 0x29A5 JUMP JUMPDEST PUSH4 0xFFFFFFFF AND PUSH2 0xC2A SWAP2 SWAP1 PUSH2 0x296A JUMP JUMPDEST PUSH1 0x40 MLOAD PUSH1 0x1 PUSH1 0x1 PUSH1 0xE0 SHL SUB NOT PUSH1 0xE0 DUP6 SWAP1 SHL AND DUP2 MSTORE PUSH1 0x1 PUSH1 0x1 PUSH1 0xA0 SHL SUB SWAP1 SWAP3 AND PUSH1 0x4 DUP4 ADD MSTORE PUSH1 0x24 DUP3 ADD MSTORE PUSH1 0x44 ADD PUSH1 0x20 PUSH1 0x40 MLOAD DUP1 DUP4 SUB DUP2 DUP7 GAS STATICCALL ISZERO DUP1 ISZERO PUSH2 0xC73 JUMPI RETURNDATASIZE PUSH1 0x0 DUP1 RETURNDATACOPY RETURNDATASIZE PUSH1 0x0 REVERT JUMPDEST POP POP POP POP PUSH1 0x40 MLOAD RETURNDATASIZE PUSH1 0x1F NOT PUSH1 0x1F DUP3 ADD AND DUP3 ADD DUP1 PUSH1 0x40 MSTORE POP DUP2 ADD SWAP1 PUSH2 0xC97 SWAP2 SWAP1 PUSH2 0x2951 JUMP JUMPDEST DUP2 MSTORE PUSH1 0x20 DUP1 DUP3 ADD SWAP3 SWAP1 SWAP3 MSTORE PUSH1 0x40 SWAP1 DUP2 ADD PUSH1 0x0 KECCAK256 DUP2 MLOAD PUSH2 0x1E0 DUP2 ADD DUP4 MSTORE DUP2 SLOAD PUSH1 0x1 PUSH1 0x1 PUSH1 0xA0 SHL SUB SWAP1 DUP2 AND DUP3 MSTORE PUSH1 0x1 DUP4 ADD SLOAD SWAP5 DUP3 ADD SWAP5 SWAP1 SWAP5 MSTORE PUSH1 0x2 DUP3 ADD SLOAD SWAP3 DUP2 ADD SWAP3 SWAP1 SWAP3 MSTORE PUSH1 0x3 DUP1 DUP3 ADD SLOAD PUSH1 0x60 DUP5 ADD MSTORE PUSH1 0x4 DUP3 ADD SLOAD PUSH1 0x80 DUP5 ADD MSTORE PUSH1 0x5 DUP3 ADD SLOAD PUSH1 0xA0 DUP5 ADD MSTORE PUSH1 0x6 DUP3 ADD SLOAD PUSH1 0xC0 DUP5 ADD MSTORE PUSH1 0x7 DUP3 ADD SLOAD SWAP4 DUP5 AND PUSH1 0xE0 DUP5 ADD MSTORE SWAP2 SWAP3 SWAP1 SWAP2 PUSH2 0x100 DUP5 ADD SWAP2 PUSH1 0x1 PUSH1 0xA0 SHL SWAP1 DIV PUSH1 0xFF AND SWAP1 DUP2 GT ISZERO PUSH2 0xD34 JUMPI PUSH2 0xD34 PUSH2 0x241B JUMP JUMPDEST PUSH1 0x3 DUP2 GT ISZERO PUSH2 0xD45 JUMPI PUSH2 0xD45 PUSH2 0x241B JUMP JUMPDEST DUP2 MSTORE PUSH1 0x20 ADD PUSH1 0x8 DUP3 ADD DUP1 SLOAD PUSH2 0xD59 SWAP1 PUSH2 0x2917 JUMP JUMPDEST DUP1 PUSH1 0x1F ADD PUSH1 0x20 DUP1 SWAP2 DIV MUL PUSH1 0x20 ADD PUSH1 0x40 MLOAD SWAP1 DUP2 ADD PUSH1 0x40 MSTORE DUP1 SWAP3 SWAP2 SWAP1 DUP2 DUP2 MSTORE PUSH1 0x20 ADD DUP3 DUP1 SLOAD PUSH2 0xD85 SWAP1 PUSH2 0x2917 JUMP JUMPDEST DUP1 ISZERO PUSH2 0xDD2 JUMPI DUP1 PUSH1 0x1F LT PUSH2 0xDA7 JUMPI PUSH2 0x100 DUP1 DUP4 SLOAD DIV MUL DUP4 MSTORE SWAP2 PUSH1 0x20 ADD SWAP2 PUSH2 0xDD2 JUMP JUMPDEST DUP3 ADD SWAP2 SWAP1 PUSH1 0x0 MSTORE PUSH1 0x20 PUSH1 0x0 KECCAK256 SWAP1 JUMPDEST DUP2 SLOAD DUP2 MSTORE SWAP1 PUSH1 0x1 ADD SWAP1 PUSH1 0x20 ADD DUP1 DUP4 GT PUSH2 0xDB5 JUMPI DUP3 SWAP1 SUB PUSH1 0x1F AND DUP3 ADD SWAP2 JUMPDEST POP POP POP POP POP DUP2 MSTORE PUSH1 0x20 ADD PUSH1 0x9 DUP3 ADD SLOAD DUP2 MSTORE PUSH1 0x20 ADD PUSH1 0xA DUP3 ADD SLOAD DUP2 MSTORE PUSH1 0x20 ADD PUSH1 0xB DUP3 ADD SLOAD DUP2 MSTORE PUSH1 0x20 ADD PUSH1 0xC DUP3 ADD SLOAD DUP2 MSTORE PUSH1 0x20 ADD PUSH1 0xD DUP3 ADD SLOAD DUP2 MSTORE POP POP DUP4 DUP3 DUP2 MLOAD DUP2 LT PUSH2 0xE1F JUMPI PUSH2 0xE1F PUSH2 0x2875 JUMP JUMPDEST PUSH1 0x20 MUL PUSH1 0x20 ADD ADD DUP2 SWAP1 MSTORE POP DUP1 DUP1 PUSH2 0xE35 SWAP1 PUSH2 0x29C9 JUMP JUMPDEST SWAP2 POP POP PUSH2 0xBD5 JUMP JUMPDEST PUSH1 0x0 DUP1 PUSH1 0x65 SLOAD SWAP1 POP PUSH1 0x0 PUSH3 0x4F1A00 PUSH1 0x6D SLOAD TIMESTAMP PUSH2 0xE59 SWAP2 SWAP1 PUSH2 0x29E2 JUMP JUMPDEST PUSH2 0xE63 SWAP2 SWAP1 PUSH2 0x29F5 JUMP JUMPDEST SWAP1 POP PUSH1 0x0 JUMPDEST DUP2 DUP2 PUSH2 0xFFFF AND LT ISZERO PUSH2 0xE9F JUMPI PUSH1 0x64 PUSH2 0xE81 DUP5 PUSH1 0x7D PUSH2 0x2A17 JUMP JUMPDEST PUSH2 0xE8B SWAP2 SWAP1 PUSH2 0x29F5 JUMP JUMPDEST SWAP3 POP DUP1 PUSH2 0xE97 DUP2 PUSH2 0x2A2E JUMP JUMPDEST SWAP2 POP POP PUSH2 0xE68 JUMP JUMPDEST POP SWAP1 SWAP3 SWAP2 POP POP JUMP JUMPDEST PUSH1 0x73 SLOAD PUSH1 0x60 SWAP1 PUSH1 0x1 PUSH1 0x1 PUSH1 0xA0 SHL SUB AND CALLER EQ PUSH2 0xF02 JUMPI PUSH1 0x40 MLOAD PUSH3 0x461BCD PUSH1 0xE5 SHL DUP2 MSTORE PUSH1 0x20 PUSH1 0x4 DUP3 ADD MSTORE PUSH1 0x16 PUSH1 0x24 DUP3 ADD MSTORE PUSH22 0x12DD995B9D1D5C994E8813DB9B1E481C1C9BD91D58DD PUSH1 0x52 SHL PUSH1 0x44 DUP3 ADD MSTORE PUSH1 0x64 ADD JUMPDEST PUSH1 0x40 MLOAD DUP1 SWAP2 SUB SWAP1 REVERT JUMPDEST DUP4 DUP8 EQ DUP1 ISZERO PUSH2 0xF11 JUMPI POP PUSH1 0x0 DUP8 GT JUMPDEST PUSH2 0xF91 JUMPI PUSH1 0x40 MLOAD PUSH3 0x461BCD PUSH1 0xE5 SHL DUP2 MSTORE PUSH1 0x20 PUSH1 0x4 DUP3 ADD MSTORE PUSH1 0x44 PUSH1 0x24 DUP3 ADD DUP2 SWAP1 MSTORE PUSH32 0x4B76656E747572653A20436F64652048617368204E6F7420457175616C20546F SWAP1 DUP3 ADD MSTORE PUSH32 0x205175616E74697479206F72205175616E7469747920536D616C6C6572205468 PUSH1 0x64 DUP3 ADD MSTORE PUSH4 0x616E2031 PUSH1 0xE0 SHL PUSH1 0x84 DUP3 ADD MSTORE PUSH1 0xA4 ADD PUSH2 0xEF9 JUMP JUMPDEST PUSH1 0x1 PUSH1 0x1 PUSH1 0xA0 SHL SUB DUP3 AND ISZERO PUSH2 0x1013 JUMPI PUSH1 0x6C SLOAD DUP9 LT ISZERO PUSH2 0x100E JUMPI PUSH1 0x40 MLOAD PUSH3 0x461BCD PUSH1 0xE5 SHL DUP2 MSTORE PUSH1 0x20 PUSH1 0x4 DUP3 ADD MSTORE PUSH1 0x33 PUSH1 0x24 DUP3 ADD MSTORE PUSH32 0x4B76656E747572653A20436C6F7564204D696E696E67204F6E6C7920466F7220 PUSH1 0x44 DUP3 ADD MSTORE PUSH19 0x5061636B6167652041626F766520243530303 PUSH1 0x6C SHL PUSH1 0x64 DUP3 ADD MSTORE PUSH1 0x84 ADD PUSH2 0xEF9 JUMP JUMPDEST PUSH2 0x106A JUMP JUMPDEST PUSH1 0x1 PUSH1 0x1 PUSH1 0xA0 SHL SUB DUP3 AND ISZERO PUSH2 0x106A JUMPI PUSH1 0x40 MLOAD PUSH3 0x461BCD PUSH1 0xE5 SHL DUP2 MSTORE PUSH1 0x20 PUSH1 0x4 DUP3 ADD MSTORE PUSH1 0x1F PUSH1 0x24 DUP3 ADD MSTORE PUSH32 0x4B76656E747572653A204F6E6C7920666F7220636C6F7564206D696E696E6700 PUSH1 0x44 DUP3 ADD MSTORE PUSH1 0x64 ADD PUSH2 0xEF9 JUMP JUMPDEST PUSH1 0x0 PUSH2 0x1074 PUSH2 0xE3D JUMP JUMPDEST SWAP1 POP PUSH1 0x0 DUP9 PUSH8 0xFFFFFFFFFFFFFFFF DUP2 GT ISZERO PUSH2 0x1091 JUMPI PUSH2 0x1091 PUSH2 0x285F JUMP JUMPDEST PUSH1 0x40 MLOAD SWAP1 DUP1 DUP3 MSTORE DUP1 PUSH1 0x20 MUL PUSH1 0x20 ADD DUP3 ADD PUSH1 0x40 MSTORE DUP1 ISZERO PUSH2 0x10BA JUMPI DUP2 PUSH1 0x20 ADD PUSH1 0x20 DUP3 MUL DUP1 CALLDATASIZE DUP4 CALLDATACOPY ADD SWAP1 POP JUMPDEST POP SWAP1 POP PUSH1 0x0 JUMPDEST DUP10 DUP2 LT ISZERO PUSH2 0x1124 JUMPI PUSH1 0x0 PUSH2 0x10F1 DUP14 DUP11 DUP11 DUP6 DUP2 DUP2 LT PUSH2 0x10E0 JUMPI PUSH2 0x10E0 PUSH2 0x2875 JUMP JUMPDEST SWAP1 POP PUSH1 0x20 MUL ADD CALLDATALOAD DUP13 DUP16 DUP9 DUP13 DUP13 PUSH2 0x1EEE JUMP JUMPDEST SWAP1 POP DUP1 DUP4 DUP4 DUP2 MLOAD DUP2 LT PUSH2 0x1106 JUMPI PUSH2 0x1106 PUSH2 0x2875 JUMP JUMPDEST PUSH1 0x20 SWAP1 DUP2 MUL SWAP2 SWAP1 SWAP2 ADD ADD MSTORE POP DUP1 PUSH2 0x111C DUP2 PUSH2 0x29C9 JUMP JUMPDEST SWAP2 POP POP PUSH2 0x10C0 JUMP JUMPDEST POP SWAP11 SWAP10 POP POP POP POP POP POP POP POP POP POP JUMP JUMPDEST PUSH1 0x71 SLOAD PUSH1 0x40 MLOAD PUSH4 0x70A08231 PUSH1 0xE0 SHL DUP2 MSTORE CALLER PUSH1 0x4 DUP3 ADD MSTORE PUSH1 0x0 SWAP2 PUSH1 0x1 PUSH1 0x1 PUSH1 0xA0 SHL SUB AND SWAP1 PUSH4 0x70A08231 SWAP1 PUSH1 0x24 ADD PUSH1 0x20 PUSH1 0x40 MLOAD DUP1 DUP4 SUB DUP2 DUP7 GAS STATICCALL ISZERO DUP1 ISZERO PUSH2 0x117C JUMPI RETURNDATASIZE PUSH1 0x0 DUP1 RETURNDATACOPY RETURNDATASIZE PUSH1 0x0 REVERT JUMPDEST POP POP POP POP PUSH1 0x40 MLOAD RETURNDATASIZE PUSH1 0x1F NOT PUSH1 0x1F DUP3 ADD AND DUP3 ADD DUP1 PUSH1 0x40 MSTORE POP DUP2 ADD SWAP1 PUSH2 0x11A0 SWAP2 SWAP1 PUSH2 0x2951 JUMP JUMPDEST SWAP1 POP SWAP1 JUMP JUMPDEST PUSH1 0x72 SLOAD PUSH1 0x0 SWAP1 PUSH1 0x1 PUSH1 0x1 PUSH1 0xA0 SHL SUB AND CALLER EQ PUSH2 0x1202 JUMPI PUSH1 0x40 MLOAD PUSH3 0x461BCD PUSH1 0xE5 SHL DUP2 MSTORE PUSH1 0x20 PUSH1 0x4 DUP3 ADD MSTORE PUSH1 0x17 PUSH1 0x24 DUP3 ADD MSTORE PUSH32 0x4B76656E747572653A204F6E6C79206B76656E74757265000000000000000000 PUSH1 0x44 DUP3 ADD MSTORE PUSH1 0x64 ADD PUSH2 0xEF9 JUMP JUMPDEST PUSH2 0x121C DUP4 DUP4 PUSH1 0x0 PUSH1 0x68 SLOAD PUSH2 0x1214 PUSH2 0xE3D JUMP JUMPDEST PUSH1 0x0 DUP1 PUSH2 0x1EEE JUMP JUMPDEST POP PUSH1 0x1 SWAP4 SWAP3 POP POP POP JUMP JUMPDEST PUSH2 0x122E PUSH2 0x1E42 JUMP JUMPDEST PUSH1 0x70 DUP1 SLOAD PUSH1 0x1 PUSH1 0x1 PUSH1 0xA0 SHL SUB NOT AND PUSH1 0x1 PUSH1 0x1 PUSH1 0xA0 SHL SUB SWAP3 SWAP1 SWAP3 AND SWAP2 SWAP1 SWAP2 OR SWAP1 SSTORE JUMP JUMPDEST PUSH1 0x0 PUSH1 0x60 PUSH2 0x125C PUSH2 0x1E42 JUMP JUMPDEST PUSH1 0x71 SLOAD PUSH1 0x40 MLOAD PUSH4 0x70A08231 PUSH1 0xE0 SHL DUP2 MSTORE PUSH1 0x1 PUSH1 0x1 PUSH1 0xA0 SHL SUB DUP6 DUP2 AND PUSH1 0x4 DUP4 ADD MSTORE PUSH1 0x0 SWAP3 AND SWAP1 PUSH4 0x70A08231 SWAP1 PUSH1 0x24 ADD PUSH1 0x20 PUSH1 0x40 MLOAD DUP1 DUP4 SUB DUP2 DUP7 GAS STATICCALL ISZERO DUP1 ISZERO PUSH2 0x12A7 JUMPI RETURNDATASIZE PUSH1 0x0 DUP1 RETURNDATACOPY RETURNDATASIZE PUSH1 0x0 REVERT JUMPDEST POP POP POP POP PUSH1 0x40 MLOAD RETURNDATASIZE PUSH1 0x1F NOT PUSH1 0x1F DUP3 ADD AND DUP3 ADD DUP1 PUSH1 0x40 MSTORE POP DUP2 ADD SWAP1 PUSH2 0x12CB SWAP2 SWAP1 PUSH2 0x2951 JUMP JUMPDEST PUSH1 0x69 SLOAD SWAP1 SWAP2 POP PUSH2 0x12E1 SWAP1 PUSH4 0xFFFFFFFF AND DUP3 PUSH2 0x296A JUMP JUMPDEST PUSH1 0x69 SLOAD PUSH2 0x12F4 SWAP1 PUSH4 0xFFFFFFFF AND DUP8 PUSH2 0x297D JUMP JUMPDEST PUSH4 0xFFFFFFFF AND GT ISZERO PUSH2 0x130A JUMPI PUSH1 0x0 SWAP3 POP POP PUSH2 0x18F9 JUMP JUMPDEST PUSH1 0x69 SLOAD DUP2 SWAP1 PUSH2 0x131F SWAP1 PUSH4 0xFFFFFFFF AND DUP8 PUSH2 0x297D JUMP JUMPDEST PUSH4 0xFFFFFFFF AND LT ISZERO PUSH2 0x15FE JUMPI PUSH1 0x69 SLOAD PUSH1 0x1 SWAP4 POP PUSH4 0xFFFFFFFF AND PUSH8 0xFFFFFFFFFFFFFFFF DUP2 GT ISZERO PUSH2 0x1350 JUMPI PUSH2 0x1350 PUSH2 0x285F JUMP JUMPDEST PUSH1 0x40 MLOAD SWAP1 DUP1 DUP3 MSTORE DUP1 PUSH1 0x20 MUL PUSH1 0x20 ADD DUP3 ADD PUSH1 0x40 MSTORE DUP1 ISZERO PUSH2 0x1389 JUMPI DUP2 PUSH1 0x20 ADD JUMPDEST PUSH2 0x1376 PUSH2 0x22BB JUMP JUMPDEST DUP2 MSTORE PUSH1 0x20 ADD SWAP1 PUSH1 0x1 SWAP1 SUB SWAP1 DUP2 PUSH2 0x136E JUMPI SWAP1 POP JUMPDEST POP SWAP2 POP PUSH1 0x0 JUMPDEST DUP3 MLOAD DUP2 LT ISZERO PUSH2 0x15F7 JUMPI PUSH1 0x71 SLOAD PUSH1 0x69 SLOAD PUSH1 0x6A SWAP2 PUSH1 0x0 SWAP2 PUSH1 0x1 PUSH1 0x1 PUSH1 0xA0 SHL SUB SWAP1 SWAP2 AND SWAP1 PUSH4 0x2F745C59 SWAP1 DUP10 SWAP1 DUP7 SWAP1 PUSH4 0xFFFFFFFF AND PUSH2 0x13CA DUP2 DUP15 PUSH2 0x297D JUMP JUMPDEST PUSH2 0x13D4 SWAP2 SWAP1 PUSH2 0x29A5 JUMP JUMPDEST PUSH4 0xFFFFFFFF AND PUSH2 0x13E4 SWAP2 SWAP1 PUSH2 0x296A JUMP JUMPDEST PUSH1 0x40 MLOAD PUSH1 0x1 PUSH1 0x1 PUSH1 0xE0 SHL SUB NOT PUSH1 0xE0 DUP6 SWAP1 SHL AND DUP2 MSTORE PUSH1 0x1 PUSH1 0x1 PUSH1 0xA0 SHL SUB SWAP1 SWAP3 AND PUSH1 0x4 DUP4 ADD MSTORE PUSH1 0x24 DUP3 ADD MSTORE PUSH1 0x44 ADD PUSH1 0x20 PUSH1 0x40 MLOAD DUP1 DUP4 SUB DUP2 DUP7 GAS STATICCALL ISZERO DUP1 ISZERO PUSH2 0x142D JUMPI RETURNDATASIZE PUSH1 0x0 DUP1 RETURNDATACOPY RETURNDATASIZE PUSH1 0x0 REVERT JUMPDEST POP POP POP POP PUSH1 0x40 MLOAD RETURNDATASIZE PUSH1 0x1F NOT PUSH1 0x1F DUP3 ADD AND DUP3 ADD DUP1 PUSH1 0x40 MSTORE POP DUP2 ADD SWAP1 PUSH2 0x1451 SWAP2 SWAP1 PUSH2 0x2951 JUMP JUMPDEST DUP2 MSTORE PUSH1 0x20 DUP1 DUP3 ADD SWAP3 SWAP1 SWAP3 MSTORE PUSH1 0x40 SWAP1 DUP2 ADD PUSH1 0x0 KECCAK256 DUP2 MLOAD PUSH2 0x1E0 DUP2 ADD DUP4 MSTORE DUP2 SLOAD PUSH1 0x1 PUSH1 0x1 PUSH1 0xA0 SHL SUB SWAP1 DUP2 AND DUP3 MSTORE PUSH1 0x1 DUP4 ADD SLOAD SWAP5 DUP3 ADD SWAP5 SWAP1 SWAP5 MSTORE PUSH1 0x2 DUP3 ADD SLOAD SWAP3 DUP2 ADD SWAP3 SWAP1 SWAP3 MSTORE PUSH1 0x3 DUP1 DUP3 ADD SLOAD PUSH1 0x60 DUP5 ADD MSTORE PUSH1 0x4 DUP3 ADD SLOAD PUSH1 0x80 DUP5 ADD MSTORE PUSH1 0x5 DUP3 ADD SLOAD PUSH1 0xA0 DUP5 ADD MSTORE PUSH1 0x6 DUP3 ADD SLOAD PUSH1 0xC0 DUP5 ADD MSTORE PUSH1 0x7 DUP3 ADD SLOAD SWAP4 DUP5 AND PUSH1 0xE0 DUP5 ADD MSTORE SWAP2 SWAP3 SWAP1 SWAP2 PUSH2 0x100 DUP5 ADD SWAP2 PUSH1 0x1 PUSH1 0xA0 SHL SWAP1 DIV PUSH1 0xFF AND SWAP1 DUP2 GT ISZERO PUSH2 0x14EE JUMPI PUSH2 0x14EE PUSH2 0x241B JUMP JUMPDEST PUSH1 0x3 DUP2 GT ISZERO PUSH2 0x14FF JUMPI PUSH2 0x14FF PUSH2 0x241B JUMP JUMPDEST DUP2 MSTORE PUSH1 0x20 ADD PUSH1 0x8 DUP3 ADD DUP1 SLOAD PUSH2 0x1513 SWAP1 PUSH2 0x2917 JUMP JUMPDEST DUP1 PUSH1 0x1F ADD PUSH1 0x20 DUP1 SWAP2 DIV MUL PUSH1 0x20 ADD PUSH1 0x40 MLOAD SWAP1 DUP2 ADD PUSH1 0x40 MSTORE DUP1 SWAP3 SWAP2 SWAP1 DUP2 DUP2 MSTORE PUSH1 0x20 ADD DUP3 DUP1 SLOAD PUSH2 0x153F SWAP1 PUSH2 0x2917 JUMP JUMPDEST DUP1 ISZERO PUSH2 0x158C JUMPI DUP1 PUSH1 0x1F LT PUSH2 0x1561 JUMPI PUSH2 0x100 DUP1 DUP4 SLOAD DIV MUL DUP4 MSTORE SWAP2 PUSH1 0x20 ADD SWAP2 PUSH2 0x158C JUMP JUMPDEST DUP3 ADD SWAP2 SWAP1 PUSH1 0x0 MSTORE PUSH1 0x20 PUSH1 0x0 KECCAK256 SWAP1 JUMPDEST DUP2 SLOAD DUP2 MSTORE SWAP1 PUSH1 0x1 ADD SWAP1 PUSH1 0x20 ADD DUP1 DUP4 GT PUSH2 0x156F JUMPI DUP3 SWAP1 SUB PUSH1 0x1F AND DUP3 ADD SWAP2 JUMPDEST POP POP POP POP POP DUP2 MSTORE PUSH1 0x20 ADD PUSH1 0x9 DUP3 ADD SLOAD DUP2 MSTORE PUSH1 0x20 ADD PUSH1 0xA DUP3 ADD SLOAD DUP2 MSTORE PUSH1 0x20 ADD PUSH1 0xB DUP3 ADD SLOAD DUP2 MSTORE PUSH1 0x20 ADD PUSH1 0xC DUP3 ADD SLOAD DUP2 MSTORE PUSH1 0x20 ADD PUSH1 0xD DUP3 ADD SLOAD DUP2 MSTORE POP POP DUP4 DUP3 DUP2 MLOAD DUP2 LT PUSH2 0x15D9 JUMPI PUSH2 0x15D9 PUSH2 0x2875 JUMP JUMPDEST PUSH1 0x20 MUL PUSH1 0x20 ADD ADD DUP2 SWAP1 MSTORE POP DUP1 DUP1 PUSH2 0x15EF SWAP1 PUSH2 0x29C9 JUMP JUMPDEST SWAP2 POP POP PUSH2 0x138F JUMP JUMPDEST POP POP PUSH2 0x18F9 JUMP JUMPDEST PUSH1 0x69 SLOAD PUSH1 0x0 SWAP4 POP DUP2 SWAP1 PUSH2 0x1617 SWAP1 PUSH4 0xFFFFFFFF AND DUP8 PUSH2 0x297D JUMP JUMPDEST PUSH4 0xFFFFFFFF AND PUSH2 0x1627 SWAP2 SWAP1 PUSH2 0x29E2 JUMP JUMPDEST PUSH1 0x69 SLOAD PUSH2 0x163A SWAP2 SWAP1 PUSH4 0xFFFFFFFF AND PUSH2 0x29E2 JUMP JUMPDEST PUSH8 0xFFFFFFFFFFFFFFFF DUP2 GT ISZERO PUSH2 0x1652 JUMPI PUSH2 0x1652 PUSH2 0x285F JUMP JUMPDEST PUSH1 0x40 MLOAD SWAP1 DUP1 DUP3 MSTORE DUP1 PUSH1 0x20 MUL PUSH1 0x20 ADD DUP3 ADD PUSH1 0x40 MSTORE DUP1 ISZERO PUSH2 0x168B JUMPI DUP2 PUSH1 0x20 ADD JUMPDEST PUSH2 0x1678 PUSH2 0x22BB JUMP JUMPDEST DUP2 MSTORE PUSH1 0x20 ADD SWAP1 PUSH1 0x1 SWAP1 SUB SWAP1 DUP2 PUSH2 0x1670 JUMPI SWAP1 POP JUMPDEST POP SWAP2 POP PUSH1 0x0 JUMPDEST DUP3 MLOAD DUP2 LT ISZERO PUSH2 0x15F7 JUMPI PUSH1 0x71 SLOAD PUSH1 0x69 SLOAD PUSH1 0x6A SWAP2 PUSH1 0x0 SWAP2 PUSH1 0x1 PUSH1 0x1 PUSH1 0xA0 SHL SUB SWAP1 SWAP2 AND SWAP1 PUSH4 0x2F745C59 SWAP1 DUP10 SWAP1 DUP7 SWAP1 PUSH4 0xFFFFFFFF AND PUSH2 0x16CC DUP2 DUP15 PUSH2 0x297D JUMP JUMPDEST PUSH2 0x16D6 SWAP2 SWAP1 PUSH2 0x29A5 JUMP JUMPDEST PUSH4 0xFFFFFFFF AND PUSH2 0x16E6 SWAP2 SWAP1 PUSH2 0x296A JUMP JUMPDEST PUSH1 0x40 MLOAD PUSH1 0x1 PUSH1 0x1 PUSH1 0xE0 SHL SUB NOT PUSH1 0xE0 DUP6 SWAP1 SHL AND DUP2 MSTORE PUSH1 0x1 PUSH1 0x1 PUSH1 0xA0 SHL SUB SWAP1 SWAP3 AND PUSH1 0x4 DUP4 ADD MSTORE PUSH1 0x24 DUP3 ADD MSTORE PUSH1 0x44 ADD PUSH1 0x20 PUSH1 0x40 MLOAD DUP1 DUP4 SUB DUP2 DUP7 GAS STATICCALL ISZERO DUP1 ISZERO PUSH2 0x172F JUMPI RETURNDATASIZE PUSH1 0x0 DUP1 RETURNDATACOPY RETURNDATASIZE PUSH1 0x0 REVERT JUMPDEST POP POP POP POP PUSH1 0x40 MLOAD RETURNDATASIZE PUSH1 0x1F NOT PUSH1 0x1F DUP3 ADD AND DUP3 ADD DUP1 PUSH1 0x40 MSTORE POP DUP2 ADD SWAP1 PUSH2 0x1753 SWAP2 SWAP1 PUSH2 0x2951 JUMP JUMPDEST DUP2 MSTORE PUSH1 0x20 DUP1 DUP3 ADD SWAP3 SWAP1 SWAP3 MSTORE PUSH1 0x40 SWAP1 DUP2 ADD PUSH1 0x0 KECCAK256 DUP2 MLOAD PUSH2 0x1E0 DUP2 ADD DUP4 MSTORE DUP2 SLOAD PUSH1 0x1 PUSH1 0x1 PUSH1 0xA0 SHL SUB SWAP1 DUP2 AND DUP3 MSTORE PUSH1 0x1 DUP4 ADD SLOAD SWAP5 DUP3 ADD SWAP5 SWAP1 SWAP5 MSTORE PUSH1 0x2 DUP3 ADD SLOAD SWAP3 DUP2 ADD SWAP3 SWAP1 SWAP3 MSTORE PUSH1 0x3 DUP1 DUP3 ADD SLOAD PUSH1 0x60 DUP5 ADD MSTORE PUSH1 0x4 DUP3 ADD SLOAD PUSH1 0x80 DUP5 ADD MSTORE PUSH1 0x5 DUP3 ADD SLOAD PUSH1 0xA0 DUP5 ADD MSTORE PUSH1 0x6 DUP3 ADD SLOAD PUSH1 0xC0 DUP5 ADD MSTORE PUSH1 0x7 DUP3 ADD SLOAD SWAP4 DUP5 AND PUSH1 0xE0 DUP5 ADD MSTORE SWAP2 SWAP3 SWAP1 SWAP2 PUSH2 0x100 DUP5 ADD SWAP2 PUSH1 0x1 PUSH1 0xA0 SHL SWAP1 DIV PUSH1 0xFF AND SWAP1 DUP2 GT ISZERO PUSH2 0x17F0 JUMPI PUSH2 0x17F0 PUSH2 0x241B JUMP JUMPDEST PUSH1 0x3 DUP2 GT ISZERO PUSH2 0x1801 JUMPI PUSH2 0x1801 PUSH2 0x241B JUMP JUMPDEST DUP2 MSTORE PUSH1 0x20 ADD PUSH1 0x8 DUP3 ADD DUP1 SLOAD PUSH2 0x1815 SWAP1 PUSH2 0x2917 JUMP JUMPDEST DUP1 PUSH1 0x1F ADD PUSH1 0x20 DUP1 SWAP2 DIV MUL PUSH1 0x20 ADD PUSH1 0x40 MLOAD SWAP1 DUP2 ADD PUSH1 0x40 MSTORE DUP1 SWAP3 SWAP2 SWAP1 DUP2 DUP2 MSTORE PUSH1 0x20 ADD DUP3 DUP1 SLOAD PUSH2 0x1841 SWAP1 PUSH2 0x2917 JUMP JUMPDEST DUP1 ISZERO PUSH2 0x188E JUMPI DUP1 PUSH1 0x1F LT PUSH2 0x1863 JUMPI PUSH2 0x100 DUP1 DUP4 SLOAD DIV MUL DUP4 MSTORE SWAP2 PUSH1 0x20 ADD SWAP2 PUSH2 0x188E JUMP JUMPDEST DUP3 ADD SWAP2 SWAP1 PUSH1 0x0 MSTORE PUSH1 0x20 PUSH1 0x0 KECCAK256 SWAP1 JUMPDEST DUP2 SLOAD DUP2 MSTORE SWAP1 PUSH1 0x1 ADD SWAP1 PUSH1 0x20 ADD DUP1 DUP4 GT PUSH2 0x1871 JUMPI DUP3 SWAP1 SUB PUSH1 0x1F AND DUP3 ADD SWAP2 JUMPDEST POP POP POP POP POP DUP2 MSTORE PUSH1 0x20 ADD PUSH1 0x9 DUP3 ADD SLOAD DUP2 MSTORE PUSH1 0x20 ADD PUSH1 0xA DUP3 ADD SLOAD DUP2 MSTORE PUSH1 0x20 ADD PUSH1 0xB DUP3 ADD SLOAD DUP2 MSTORE PUSH1 0x20 ADD PUSH1 0xC DUP3 ADD SLOAD DUP2 MSTORE PUSH1 0x20 ADD PUSH1 0xD DUP3 ADD SLOAD DUP2 MSTORE POP POP DUP4 DUP3 DUP2 MLOAD DUP2 LT PUSH2 0x18DB JUMPI PUSH2 0x18DB PUSH2 0x2875 JUMP JUMPDEST PUSH1 0x20 MUL PUSH1 0x20 ADD ADD DUP2 SWAP1 MSTORE POP DUP1 DUP1 PUSH2 0x18F1 SWAP1 PUSH2 0x29C9 JUMP JUMPDEST SWAP2 POP POP PUSH2 0x1691 JUMP JUMPDEST SWAP3 POP SWAP3 SWAP1 POP JUMP JUMPDEST PUSH2 0x1908 PUSH2 0x1E42 JUMP JUMPDEST PUSH1 0x6C SSTORE JUMP JUMPDEST PUSH1 0x74 PUSH1 0x20 MSTORE PUSH1 0x0 SWAP1 DUP2 MSTORE PUSH1 0x40 SWAP1 KECCAK256 DUP1 SLOAD PUSH1 0x1 DUP3 ADD DUP1 SLOAD SWAP2 SWAP3 SWAP2 PUSH2 0x192F SWAP1 PUSH2 0x2917 JUMP JUMPDEST DUP1 PUSH1 0x1F ADD PUSH1 0x20 DUP1 SWAP2 DIV MUL PUSH1 0x20 ADD PUSH1 0x40 MLOAD SWAP1 DUP2 ADD PUSH1 0x40 MSTORE DUP1 SWAP3 SWAP2 SWAP1 DUP2 DUP2 MSTORE PUSH1 0x20 ADD DUP3 DUP1 SLOAD PUSH2 0x195B SWAP1 PUSH2 0x2917 JUMP JUMPDEST DUP1 ISZERO PUSH2 0x19A8 JUMPI DUP1 PUSH1 0x1F LT PUSH2 0x197D JUMPI PUSH2 0x100 DUP1 DUP4 SLOAD DIV MUL DUP4 MSTORE SWAP2 PUSH1 0x20 ADD SWAP2 PUSH2 0x19A8 JUMP JUMPDEST DUP3 ADD SWAP2 SWAP1 PUSH1 0x0 MSTORE PUSH1 0x20 PUSH1 0x0 KECCAK256 SWAP1 JUMPDEST DUP2 SLOAD DUP2 MSTORE SWAP1 PUSH1 0x1 ADD SWAP1 PUSH1 0x20 ADD DUP1 DUP4 GT PUSH2 0x198B JUMPI DUP3 SWAP1 SUB PUSH1 0x1F AND DUP3 ADD SWAP2 JUMPDEST POP POP POP POP POP SWAP1 DUP1 PUSH1 0x2 ADD SLOAD SWAP1 DUP1 PUSH1 0x3 ADD SLOAD SWAP1 DUP1 PUSH1 0x4 ADD DUP1 SLOAD PUSH2 0x19C9 SWAP1 PUSH2 0x2917 JUMP JUMPDEST DUP1 PUSH1 0x1F ADD PUSH1 0x20 DUP1 SWAP2 DIV MUL PUSH1 0x20 ADD PUSH1 0x40 MLOAD SWAP1 DUP2 ADD PUSH1 0x40 MSTORE DUP1 SWAP3 SWAP2 SWAP1 DUP2 DUP2 MSTORE PUSH1 0x20 ADD DUP3 DUP1 SLOAD PUSH2 0x19F5 SWAP1 PUSH2 0x2917 JUMP JUMPDEST DUP1 ISZERO PUSH2 0x1A42 JUMPI DUP1 PUSH1 0x1F LT PUSH2 0x1A17 JUMPI PUSH2 0x100 DUP1 DUP4 SLOAD DIV MUL DUP4 MSTORE SWAP2 PUSH1 0x20 ADD SWAP2 PUSH2 0x1A42 JUMP JUMPDEST DUP3 ADD SWAP2 SWAP1 PUSH1 0x0 MSTORE PUSH1 0x20 PUSH1 0x0 KECCAK256 SWAP1 JUMPDEST DUP2 SLOAD DUP2 MSTORE SWAP1 PUSH1 0x1 ADD SWAP1 PUSH1 0x20 ADD DUP1 DUP4 GT PUSH2 0x1A25 JUMPI DUP3 SWAP1 SUB PUSH1 0x1F AND DUP3 ADD SWAP2 JUMPDEST POP POP POP PUSH1 0x5 SWAP1 SWAP4 ADD SLOAD SWAP2 SWAP3 POP POP PUSH1 0xFF AND DUP7 JUMP JUMPDEST PUSH1 0x0 SLOAD PUSH2 0x100 SWAP1 DIV PUSH1 0xFF AND ISZERO DUP1 DUP1 ISZERO PUSH2 0x1A75 JUMPI POP PUSH1 0x0 SLOAD PUSH1 0x1 PUSH1 0xFF SWAP1 SWAP2 AND LT JUMPDEST DUP1 PUSH2 0x1A8F JUMPI POP ADDRESS EXTCODESIZE ISZERO DUP1 ISZERO PUSH2 0x1A8F JUMPI POP PUSH1 0x0 SLOAD PUSH1 0xFF AND PUSH1 0x1 EQ JUMPDEST PUSH2 0x1AF2 JUMPI PUSH1 0x40 MLOAD PUSH3 0x461BCD PUSH1 0xE5 SHL DUP2 MSTORE PUSH1 0x20 PUSH1 0x4 DUP3 ADD MSTORE PUSH1 0x2E PUSH1 0x24 DUP3 ADD MSTORE PUSH32 0x496E697469616C697A61626C653A20636F6E747261637420697320616C726561 PUSH1 0x44 DUP3 ADD MSTORE PUSH14 0x191E481A5B9A5D1A585B1A5E9959 PUSH1 0x92 SHL PUSH1 0x64 DUP3 ADD MSTORE PUSH1 0x84 ADD PUSH2 0xEF9 JUMP JUMPDEST PUSH1 0x0 DUP1 SLOAD PUSH1 0xFF NOT AND PUSH1 0x1 OR SWAP1 SSTORE DUP1 ISZERO PUSH2 0x1B15 JUMPI PUSH1 0x0 DUP1 SLOAD PUSH2 0xFF00 NOT AND PUSH2 0x100 OR SWAP1 SSTORE JUMPDEST PUSH1 0x6E DUP1 SLOAD PUSH1 0x1 PUSH1 0x1 PUSH1 0xA0 SHL SUB NOT SWAP1 DUP2 AND PUSH1 0x1 PUSH1 0x1 PUSH1 0xA0 SHL SUB DUP11 DUP2 AND SWAP2 SWAP1 SWAP2 OR SWAP1 SWAP3 SSTORE PUSH1 0x70 DUP1 SLOAD DUP3 AND DUP10 DUP5 AND OR SWAP1 SSTORE PUSH1 0x6F DUP1 SLOAD DUP3 AND DUP9 DUP5 AND OR SWAP1 SSTORE PUSH1 0x72 DUP1 SLOAD DUP3 AND DUP6 DUP5 AND OR SWAP1 SSTORE PUSH1 0x73 DUP1 SLOAD DUP3 AND DUP8 DUP5 AND OR SWAP1 SSTORE PUSH1 0x71 DUP1 SLOAD SWAP1 SWAP2 AND SWAP2 DUP6 AND SWAP2 SWAP1 SWAP2 OR SWAP1 SSTORE PUSH2 0x1B7F PUSH2 0x2237 JUMP JUMPDEST PUSH3 0xF4240 PUSH1 0x66 DUP2 SWAP1 SSTORE PUSH1 0x64 PUSH1 0x67 SSTORE PUSH2 0x1B98 SWAP1 PUSH1 0x1 PUSH2 0x2A17 JUMP JUMPDEST PUSH1 0x65 SSTORE PUSH2 0x1BA3 PUSH2 0x2266 JUMP JUMPDEST TIMESTAMP PUSH1 0x6D SSTORE DUP1 ISZERO PUSH2 0x1BED JUMPI PUSH1 0x0 DUP1 SLOAD PUSH2 0xFF00 NOT AND SWAP1 SSTORE PUSH1 0x40 MLOAD PUSH1 0x1 DUP2 MSTORE PUSH32 0x7F26B83FF96E1F2B6A682F133852F6798A09C465DA95921460CEFB3847402498 SWAP1 PUSH1 0x20 ADD PUSH1 0x40 MLOAD DUP1 SWAP2 SUB SWAP1 LOG1 JUMPDEST POP POP POP POP POP POP POP JUMP JUMPDEST PUSH2 0x1BFE PUSH2 0x1E42 JUMP JUMPDEST PUSH1 0x73 DUP1 SLOAD PUSH1 0x1 PUSH1 0x1 PUSH1 0xA0 SHL SUB NOT AND PUSH1 0x1 PUSH1 0x1 PUSH1 0xA0 SHL SUB SWAP3 SWAP1 SWAP3 AND SWAP2 SWAP1 SWAP2 OR SWAP1 SSTORE JUMP JUMPDEST PUSH2 0x1C28 PUSH2 0x1E42 JUMP JUMPDEST PUSH1 0x6E DUP1 SLOAD PUSH1 0x1 PUSH1 0x1 PUSH1 0xA0 SHL SUB NOT AND PUSH1 0x1 PUSH1 0x1 PUSH1 0xA0 SHL SUB SWAP3 SWAP1 SWAP3 AND SWAP2 SWAP1 SWAP2 OR SWAP1 SSTORE JUMP JUMPDEST PUSH2 0x1C52 PUSH2 0x1E42 JUMP JUMPDEST PUSH1 0x1 PUSH1 0x1 PUSH1 0xA0 SHL SUB DUP2 AND PUSH2 0x1CB7 JUMPI PUSH1 0x40 MLOAD PUSH3 0x461BCD PUSH1 0xE5 SHL DUP2 MSTORE PUSH1 0x20 PUSH1 0x4 DUP3 ADD MSTORE PUSH1 0x26 PUSH1 0x24 DUP3 ADD MSTORE PUSH32 0x4F776E61626C653A206E6577206F776E657220697320746865207A65726F2061 PUSH1 0x44 DUP3 ADD MSTORE PUSH6 0x646472657373 PUSH1 0xD0 SHL PUSH1 0x64 DUP3 ADD MSTORE PUSH1 0x84 ADD PUSH2 0xEF9 JUMP JUMPDEST PUSH2 0x1CC0 DUP2 PUSH2 0x1E9C JUMP JUMPDEST POP JUMP JUMPDEST PUSH1 0x60 PUSH1 0x0 DUP3 PUSH8 0xFFFFFFFFFFFFFFFF DUP2 GT ISZERO PUSH2 0x1CE0 JUMPI PUSH2 0x1CE0 PUSH2 0x285F JUMP JUMPDEST PUSH1 0x40 MLOAD SWAP1 DUP1 DUP3 MSTORE DUP1 PUSH1 0x20 MUL PUSH1 0x20 ADD DUP3 ADD PUSH1 0x40 MSTORE DUP1 ISZERO PUSH2 0x1D09 JUMPI DUP2 PUSH1 0x20 ADD PUSH1 0x20 DUP3 MUL DUP1 CALLDATASIZE DUP4 CALLDATACOPY ADD SWAP1 POP JUMPDEST POP SWAP1 POP PUSH1 0x0 DUP1 JUMPDEST DUP5 DUP2 LT ISZERO PUSH2 0x5FA JUMPI DUP6 DUP6 DUP3 DUP2 DUP2 LT PUSH2 0x1D2A JUMPI PUSH2 0x1D2A PUSH2 0x2875 JUMP JUMPDEST SWAP1 POP PUSH1 0x20 MUL DUP2 ADD SWAP1 PUSH2 0x1D3C SWAP2 SWAP1 PUSH2 0x288B JUMP JUMPDEST PUSH1 0x40 MLOAD PUSH1 0x20 ADD PUSH2 0x1D4D SWAP3 SWAP2 SWAP1 PUSH2 0x28D2 JUMP JUMPDEST PUSH1 0x40 DUP1 MLOAD DUP1 DUP4 SUB PUSH1 0x1F NOT ADD DUP2 MSTORE SWAP2 DUP2 MSTORE DUP2 MLOAD PUSH1 0x20 SWAP3 DUP4 ADD KECCAK256 PUSH1 0x0 DUP2 DUP2 MSTORE PUSH1 0x6A SWAP1 SWAP4 MSTORE SWAP2 KECCAK256 SLOAD SWAP1 SWAP3 POP PUSH1 0x1 PUSH1 0x1 PUSH1 0xA0 SHL SUB AND CALLER EQ ISZERO DUP1 PUSH2 0x1DB8 JUMPI POP PUSH1 0x1 PUSH1 0x0 DUP4 DUP2 MSTORE PUSH1 0x6A PUSH1 0x20 MSTORE PUSH1 0x40 SWAP1 KECCAK256 PUSH1 0x7 ADD SLOAD PUSH1 0x1 PUSH1 0xA0 SHL SWAP1 DIV PUSH1 0xFF AND PUSH1 0x3 DUP2 GT ISZERO PUSH2 0x1DB6 JUMPI PUSH2 0x1DB6 PUSH2 0x241B JUMP JUMPDEST EQ JUMPDEST PUSH2 0x1E06 JUMPI PUSH1 0x0 DUP3 DUP2 MSTORE PUSH1 0x6A PUSH1 0x20 MSTORE PUSH1 0x40 SWAP1 KECCAK256 PUSH1 0x7 ADD DUP1 SLOAD PUSH1 0xFF PUSH1 0xA0 SHL NOT AND PUSH1 0x1 PUSH1 0xA0 SHL OR SWAP1 SSTORE DUP3 MLOAD PUSH1 0x1 SWAP1 DUP5 SWAP1 DUP4 SWAP1 DUP2 LT PUSH2 0x1DF5 JUMPI PUSH2 0x1DF5 PUSH2 0x2875 JUMP JUMPDEST SWAP2 ISZERO ISZERO PUSH1 0x20 SWAP3 DUP4 MUL SWAP2 SWAP1 SWAP2 ADD SWAP1 SWAP2 ADD MSTORE JUMPDEST DUP1 PUSH2 0x1E10 DUP2 PUSH2 0x29C9 JUMP JUMPDEST SWAP2 POP POP PUSH2 0x1D10 JUMP JUMPDEST PUSH2 0x1E20 PUSH2 0x1E42 JUMP JUMPDEST PUSH1 0x71 DUP1 SLOAD PUSH1 0x1 PUSH1 0x1 PUSH1 0xA0 SHL SUB NOT AND PUSH1 0x1 PUSH1 0x1 PUSH1 0xA0 SHL SUB SWAP3 SWAP1 SWAP3 AND SWAP2 SWAP1 SWAP2 OR SWAP1 SSTORE JUMP JUMPDEST PUSH1 0x33 SLOAD PUSH1 0x1 PUSH1 0x1 PUSH1 0xA0 SHL SUB AND CALLER EQ PUSH2 0x79B JUMPI PUSH1 0x40 MLOAD PUSH3 0x461BCD PUSH1 0xE5 SHL DUP2 MSTORE PUSH1 0x20 PUSH1 0x4 DUP3 ADD DUP2 SWAP1 MSTORE PUSH1 0x24 DUP3 ADD MSTORE PUSH32 0x4F776E61626C653A2063616C6C6572206973206E6F7420746865206F776E6572 PUSH1 0x44 DUP3 ADD MSTORE PUSH1 0x64 ADD PUSH2 0xEF9 JUMP JUMPDEST PUSH1 0x33 DUP1 SLOAD PUSH1 0x1 PUSH1 0x1 PUSH1 0xA0 SHL SUB DUP4 DUP2 AND PUSH1 0x1 PUSH1 0x1 PUSH1 0xA0 SHL SUB NOT DUP4 AND DUP2 OR SWAP1 SWAP4 SSTORE PUSH1 0x40 MLOAD SWAP2 AND SWAP2 SWAP1 DUP3 SWAP1 PUSH32 0x8BE0079C531659141344CD1FD0A4F28419497F9722A3DAAFE3B4186F6B6457E0 SWAP1 PUSH1 0x0 SWAP1 LOG3 POP POP JUMP JUMPDEST PUSH1 0x0 DUP7 DUP2 MSTORE PUSH1 0x6A PUSH1 0x20 MSTORE PUSH1 0x40 DUP2 KECCAK256 SLOAD PUSH1 0x1 PUSH1 0x1 PUSH1 0xA0 SHL SUB AND ISZERO PUSH2 0x1F53 JUMPI PUSH1 0x40 MLOAD PUSH3 0x461BCD PUSH1 0xE5 SHL DUP2 MSTORE PUSH1 0x20 PUSH1 0x4 DUP3 ADD MSTORE PUSH1 0x1D PUSH1 0x24 DUP3 ADD MSTORE PUSH32 0x4D6574614E6F64653A204475706C696361746520436F64652048617368000000 PUSH1 0x44 DUP3 ADD MSTORE PUSH1 0x64 ADD PUSH2 0xEF9 JUMP JUMPDEST PUSH1 0x40 DUP1 MLOAD PUSH2 0x1E0 DUP2 ADD DUP3 MSTORE PUSH1 0x1 PUSH1 0x1 PUSH1 0xA0 SHL SUB DUP11 AND DUP2 MSTORE PUSH1 0x20 DUP2 ADD DUP10 SWAP1 MSTORE PUSH1 0x0 SWAP2 DUP2 ADD SWAP2 SWAP1 SWAP2 MSTORE DUP8 SWAP1 PUSH1 0x60 DUP2 ADD PUSH2 0x1F8D TIMESTAMP PUSH3 0x76A700 PUSH2 0x296A JUMP JUMPDEST DUP2 MSTORE PUSH1 0x20 ADD DUP7 PUSH1 0x67 SLOAD DUP10 PUSH2 0x1FA1 SWAP2 SWAP1 PUSH2 0x2A17 JUMP JUMPDEST PUSH2 0x1FAB SWAP2 SWAP1 PUSH2 0x29F5 JUMP JUMPDEST DUP2 MSTORE PUSH1 0x20 ADD PUSH1 0x6B PUSH1 0x0 DUP10 DUP2 MSTORE PUSH1 0x20 ADD SWAP1 DUP2 MSTORE PUSH1 0x20 ADD PUSH1 0x0 KECCAK256 SLOAD DUP2 MSTORE PUSH1 0x20 ADD DUP7 DUP2 MSTORE PUSH1 0x20 ADD DUP5 PUSH1 0x1 PUSH1 0x1 PUSH1 0xA0 SHL SUB AND DUP2 MSTORE PUSH1 0x20 ADD PUSH2 0x1FE7 DUP10 PUSH2 0x2275 JUMP JUMPDEST PUSH1 0x3 DUP2 GT ISZERO PUSH2 0x1FF8 JUMPI PUSH2 0x1FF8 PUSH2 0x241B JUMP JUMPDEST DUP2 MSTORE PUSH1 0x40 DUP1 MLOAD DUP1 DUP3 ADD DUP3 MSTORE PUSH1 0x8 DUP2 MSTORE PUSH8 0x4B56454E54555245 PUSH1 0xC0 SHL PUSH1 0x20 DUP1 DUP4 ADD SWAP2 SWAP1 SWAP2 MSTORE DUP1 DUP5 ADD SWAP2 SWAP1 SWAP2 MSTORE PUSH1 0x0 DUP3 DUP5 ADD DUP2 SWAP1 MSTORE PUSH1 0x60 DUP1 DUP6 ADD DUP3 SWAP1 MSTORE PUSH1 0x80 DUP1 DUP7 ADD DUP4 SWAP1 MSTORE PUSH1 0xA0 DUP1 DUP8 ADD DUP5 SWAP1 MSTORE PUSH1 0xC0 SWAP7 DUP8 ADD DUP5 SWAP1 MSTORE DUP16 DUP5 MSTORE PUSH1 0x6A DUP6 MSTORE SWAP3 DUP6 SWAP1 KECCAK256 DUP8 MLOAD DUP2 SLOAD PUSH1 0x1 PUSH1 0x1 PUSH1 0xA0 SHL SUB NOT SWAP1 DUP2 AND PUSH1 0x1 PUSH1 0x1 PUSH1 0xA0 SHL SUB SWAP3 DUP4 AND OR DUP4 SSTORE SWAP6 DUP10 ADD MLOAD PUSH1 0x1 DUP4 ADD SSTORE SWAP6 DUP9 ADD MLOAD PUSH1 0x2 DUP3 ADD SSTORE SWAP2 DUP8 ADD MLOAD PUSH1 0x3 DUP1 DUP5 ADD SWAP2 SWAP1 SWAP2 SSTORE SWAP1 DUP8 ADD MLOAD PUSH1 0x4 DUP4 ADD SSTORE SWAP2 DUP7 ADD MLOAD PUSH1 0x5 DUP3 ADD SSTORE SWAP4 DUP6 ADD MLOAD PUSH1 0x6 DUP6 ADD SSTORE PUSH1 0xE0 DUP6 ADD MLOAD PUSH1 0x7 DUP6 ADD DUP1 SLOAD SWAP4 DUP5 AND SWAP2 SWAP1 SWAP5 AND SWAP1 DUP2 OR DUP5 SSTORE PUSH2 0x100 DUP7 ADD MLOAD SWAP4 SWAP3 PUSH1 0x1 PUSH1 0x1 PUSH1 0xA8 SHL SUB NOT AND OR SWAP1 PUSH1 0x1 PUSH1 0xA0 SHL SWAP1 DUP5 SWAP1 DUP2 GT ISZERO PUSH2 0x20F0 JUMPI PUSH2 0x20F0 PUSH2 0x241B JUMP JUMPDEST MUL OR SWAP1 SSTORE POP PUSH2 0x120 DUP3 ADD MLOAD PUSH1 0x8 DUP3 ADD SWAP1 PUSH2 0x210A SWAP1 DUP3 PUSH2 0x2A9E JUMP JUMPDEST POP PUSH2 0x140 DUP3 ADD MLOAD PUSH1 0x9 DUP3 ADD SSTORE PUSH2 0x160 DUP3 ADD MLOAD PUSH1 0xA DUP3 ADD SSTORE PUSH2 0x180 DUP3 ADD MLOAD PUSH1 0xB DUP3 ADD SSTORE PUSH2 0x1A0 DUP3 ADD MLOAD PUSH1 0xC DUP3 ADD SSTORE PUSH2 0x1C0 SWAP1 SWAP2 ADD MLOAD PUSH1 0xD SWAP1 SWAP2 ADD SSTORE PUSH1 0x71 SLOAD PUSH1 0x40 MLOAD PUSH4 0x28512065 PUSH1 0xE2 SHL DUP2 MSTORE PUSH1 0x1 PUSH1 0x1 PUSH1 0xA0 SHL SUB DUP12 DUP2 AND PUSH1 0x4 DUP4 ADD MSTORE PUSH1 0x24 DUP3 ADD DUP5 SWAP1 MSTORE SWAP1 SWAP2 AND SWAP1 PUSH4 0xA1448194 SWAP1 PUSH1 0x44 ADD PUSH1 0x0 PUSH1 0x40 MLOAD DUP1 DUP4 SUB DUP2 PUSH1 0x0 DUP8 DUP1 EXTCODESIZE ISZERO DUP1 ISZERO PUSH2 0x2192 JUMPI PUSH1 0x0 DUP1 REVERT JUMPDEST POP GAS CALL ISZERO DUP1 ISZERO PUSH2 0x21A6 JUMPI RETURNDATASIZE PUSH1 0x0 DUP1 RETURNDATACOPY RETURNDATASIZE PUSH1 0x0 REVERT JUMPDEST POP POP PUSH1 0x6F SLOAD PUSH1 0x0 DUP12 DUP2 MSTORE PUSH1 0x6A PUSH1 0x20 MSTORE PUSH1 0x40 SWAP1 DUP2 SWAP1 KECCAK256 SWAP1 MLOAD PUSH4 0x7C94AC81 PUSH1 0xE1 SHL DUP2 MSTORE PUSH1 0x1 PUSH1 0x1 PUSH1 0xA0 SHL SUB SWAP1 SWAP3 AND SWAP4 POP PUSH4 0xF9295902 SWAP3 POP PUSH2 0x21E7 SWAP2 PUSH1 0x4 ADD PUSH2 0x2BDB JUMP JUMPDEST PUSH1 0x20 PUSH1 0x40 MLOAD DUP1 DUP4 SUB DUP2 PUSH1 0x0 DUP8 GAS CALL ISZERO DUP1 ISZERO PUSH2 0x2206 JUMPI RETURNDATASIZE PUSH1 0x0 DUP1 RETURNDATACOPY RETURNDATASIZE PUSH1 0x0 REVERT JUMPDEST POP POP POP POP PUSH1 0x40 MLOAD RETURNDATASIZE PUSH1 0x1F NOT PUSH1 0x1F DUP3 ADD AND DUP3 ADD DUP1 PUSH1 0x40 MSTORE POP DUP2 ADD SWAP1 PUSH2 0x222A SWAP2 SWAP1 PUSH2 0x2CC4 JUMP JUMPDEST POP SWAP9 SWAP8 POP POP POP POP POP POP POP POP JUMP JUMPDEST PUSH1 0x0 SLOAD PUSH2 0x100 SWAP1 DIV PUSH1 0xFF AND PUSH2 0x225E JUMPI PUSH1 0x40 MLOAD PUSH3 0x461BCD PUSH1 0xE5 SHL DUP2 MSTORE PUSH1 0x4 ADD PUSH2 0xEF9 SWAP1 PUSH2 0x2CE1 JUMP JUMPDEST PUSH2 0x79B PUSH2 0x228B JUMP JUMPDEST PUSH1 0x66 SLOAD PUSH2 0x1908 SWAP1 PUSH2 0x1388 PUSH2 0x2A17 JUMP JUMPDEST PUSH1 0x0 DUP2 PUSH2 0x2283 JUMPI PUSH1 0x1 PUSH2 0x600 JUMP JUMPDEST PUSH1 0x0 SWAP3 SWAP2 POP POP JUMP JUMPDEST PUSH1 0x0 SLOAD PUSH2 0x100 SWAP1 DIV PUSH1 0xFF AND PUSH2 0x22B2 JUMPI PUSH1 0x40 MLOAD PUSH3 0x461BCD PUSH1 0xE5 SHL DUP2 MSTORE PUSH1 0x4 ADD PUSH2 0xEF9 SWAP1 PUSH2 0x2CE1 JUMP JUMPDEST PUSH2 0x79B CALLER PUSH2 0x1E9C JUMP JUMPDEST PUSH1 0x40 DUP1 MLOAD PUSH2 0x1E0 DUP2 ADD DUP3 MSTORE PUSH1 0x0 DUP1 DUP3 MSTORE PUSH1 0x20 DUP3 ADD DUP2 SWAP1 MSTORE SWAP2 DUP2 ADD DUP3 SWAP1 MSTORE PUSH1 0x60 DUP2 ADD DUP3 SWAP1 MSTORE PUSH1 0x80 DUP2 ADD DUP3 SWAP1 MSTORE PUSH1 0xA0 DUP2 ADD DUP3 SWAP1 MSTORE PUSH1 0xC0 DUP2 ADD DUP3 SWAP1 MSTORE PUSH1 0xE0 DUP2 ADD DUP3 SWAP1 MSTORE SWAP1 PUSH2 0x100 DUP3 ADD SWAP1 DUP2 MSTORE PUSH1 0x20 ADD PUSH1 0x60 DUP2 MSTORE PUSH1 0x20 ADD PUSH1 0x0 DUP2 MSTORE PUSH1 0x20 ADD PUSH1 0x0 DUP2 MSTORE PUSH1 0x20 ADD PUSH1 0x0 DUP2 MSTORE PUSH1 0x20 ADD PUSH1 0x0 DUP1 NOT AND DUP2 MSTORE PUSH1 0x20 ADD PUSH1 0x0 DUP2 MSTORE POP SWAP1 JUMP JUMPDEST PUSH1 0x0 DUP1 DUP4 PUSH1 0x1F DUP5 ADD SLT PUSH2 0x2347 JUMPI PUSH1 0x0 DUP1 REVERT JUMPDEST POP DUP2 CALLDATALOAD PUSH8 0xFFFFFFFFFFFFFFFF DUP2 GT ISZERO PUSH2 0x235F JUMPI PUSH1 0x0 DUP1 REVERT JUMPDEST PUSH1 0x20 DUP4 ADD SWAP2 POP DUP4 PUSH1 0x20 DUP3 PUSH1 0x5 SHL DUP6 ADD ADD GT ISZERO PUSH2 0x18F9 JUMPI PUSH1 0x0 DUP1 REVERT JUMPDEST PUSH1 0x0 DUP1 PUSH1 0x20 DUP4 DUP6 SUB SLT ISZERO PUSH2 0x238D JUMPI PUSH1 0x0 DUP1 REVERT JUMPDEST DUP3 CALLDATALOAD PUSH8 0xFFFFFFFFFFFFFFFF DUP2 GT ISZERO PUSH2 0x23A4 JUMPI PUSH1 0x0 DUP1 REVERT JUMPDEST PUSH2 0x23B0 DUP6 DUP3 DUP7 ADD PUSH2 0x2335 JUMP JUMPDEST SWAP1 SWAP7 SWAP1 SWAP6 POP SWAP4 POP POP POP POP JUMP JUMPDEST PUSH1 0x20 DUP1 DUP3 MSTORE DUP3 MLOAD DUP3 DUP3 ADD DUP2 SWAP1 MSTORE PUSH1 0x0 SWAP2 SWAP1 DUP5 DUP3 ADD SWAP1 PUSH1 0x40 DUP6 ADD SWAP1 DUP5 JUMPDEST DUP2 DUP2 LT ISZERO PUSH2 0x23F6 JUMPI DUP4 MLOAD ISZERO ISZERO DUP4 MSTORE SWAP3 DUP5 ADD SWAP3 SWAP2 DUP5 ADD SWAP2 PUSH1 0x1 ADD PUSH2 0x23D8 JUMP JUMPDEST POP SWAP1 SWAP7 SWAP6 POP POP POP POP POP POP JUMP JUMPDEST PUSH1 0x0 PUSH1 0x20 DUP3 DUP5 SUB SLT ISZERO PUSH2 0x2414 JUMPI PUSH1 0x0 DUP1 REVERT JUMPDEST POP CALLDATALOAD SWAP2 SWAP1 POP JUMP JUMPDEST PUSH4 0x4E487B71 PUSH1 0xE0 SHL PUSH1 0x0 MSTORE PUSH1 0x21 PUSH1 0x4 MSTORE PUSH1 0x24 PUSH1 0x0 REVERT JUMPDEST PUSH1 0x4 DUP2 LT PUSH2 0x244F JUMPI PUSH4 0x4E487B71 PUSH1 0xE0 SHL PUSH1 0x0 MSTORE PUSH1 0x21 PUSH1 0x4 MSTORE PUSH1 0x24 PUSH1 0x0 REVERT JUMPDEST SWAP1 MSTORE JUMP JUMPDEST PUSH1 0x0 DUP2 MLOAD DUP1 DUP5 MSTORE PUSH1 0x0 JUMPDEST DUP2 DUP2 LT ISZERO PUSH2 0x2479 JUMPI PUSH1 0x20 DUP2 DUP6 ADD DUP2 ADD MLOAD DUP7 DUP4 ADD DUP3 ADD MSTORE ADD PUSH2 0x245D JUMP JUMPDEST POP PUSH1 0x0 PUSH1 0x20 DUP3 DUP7 ADD ADD MSTORE PUSH1 0x20 PUSH1 0x1F NOT PUSH1 0x1F DUP4 ADD AND DUP6 ADD ADD SWAP2 POP POP SWAP3 SWAP2 POP POP JUMP JUMPDEST DUP1 MLOAD PUSH1 0x1 PUSH1 0x1 PUSH1 0xA0 SHL SUB AND DUP3 MSTORE PUSH1 0x0 PUSH2 0x1E0 PUSH1 0x20 DUP4 ADD MLOAD PUSH1 0x20 DUP6 ADD MSTORE PUSH1 0x40 DUP4 ADD MLOAD PUSH1 0x40 DUP6 ADD MSTORE PUSH1 0x60 DUP4 ADD MLOAD PUSH1 0x60 DUP6 ADD MSTORE PUSH1 0x80 DUP4 ADD MLOAD PUSH1 0x80 DUP6 ADD MSTORE PUSH1 0xA0 DUP4 ADD MLOAD PUSH1 0xA0 DUP6 ADD MSTORE PUSH1 0xC0 DUP4 ADD MLOAD PUSH1 0xC0 DUP6 ADD MSTORE PUSH1 0xE0 DUP4 ADD MLOAD PUSH2 0x2501 PUSH1 0xE0 DUP7 ADD DUP3 PUSH1 0x1 PUSH1 0x1 PUSH1 0xA0 SHL SUB AND SWAP1 MSTORE JUMP JUMPDEST POP PUSH2 0x100 DUP1 DUP5 ADD MLOAD PUSH2 0x2515 DUP3 DUP8 ADD DUP3 PUSH2 0x2431 JUMP JUMPDEST POP POP PUSH2 0x120 DUP1 DUP5 ADD MLOAD DUP3 DUP3 DUP8 ADD MSTORE PUSH2 0x252F DUP4 DUP8 ADD DUP3 PUSH2 0x2453 JUMP JUMPDEST PUSH2 0x140 DUP7 DUP2 ADD MLOAD SWAP1 DUP9 ADD MSTORE PUSH2 0x160 DUP1 DUP8 ADD MLOAD SWAP1 DUP9 ADD MSTORE PUSH2 0x180 DUP1 DUP8 ADD MLOAD SWAP1 DUP9 ADD MSTORE PUSH2 0x1A0 DUP1 DUP8 ADD MLOAD SWAP1 DUP9 ADD MSTORE PUSH2 0x1C0 SWAP6 DUP7 ADD MLOAD SWAP6 SWAP1 SWAP7 ADD SWAP5 SWAP1 SWAP5 MSTORE POP SWAP3 SWAP4 SWAP3 POP POP POP JUMP JUMPDEST PUSH1 0x20 DUP2 MSTORE PUSH1 0x0 PUSH2 0x2586 PUSH1 0x20 DUP4 ADD DUP5 PUSH2 0x2499 JUMP JUMPDEST SWAP4 SWAP3 POP POP POP JUMP JUMPDEST DUP1 CALLDATALOAD PUSH4 0xFFFFFFFF DUP2 AND DUP2 EQ PUSH2 0x25A1 JUMPI PUSH1 0x0 DUP1 REVERT JUMPDEST SWAP2 SWAP1 POP JUMP JUMPDEST PUSH1 0x0 PUSH1 0x20 DUP3 DUP5 SUB SLT ISZERO PUSH2 0x25B8 JUMPI PUSH1 0x0 DUP1 REVERT JUMPDEST PUSH2 0x2586 DUP3 PUSH2 0x258D JUMP JUMPDEST PUSH1 0x0 PUSH1 0x40 DUP3 ADD DUP5 ISZERO ISZERO DUP4 MSTORE PUSH1 0x20 PUSH1 0x40 DUP2 DUP6 ADD MSTORE DUP2 DUP6 MLOAD DUP1 DUP5 MSTORE PUSH1 0x60 DUP7 ADD SWAP2 POP PUSH1 0x60 DUP2 PUSH1 0x5 SHL DUP8 ADD ADD SWAP4 POP DUP3 DUP8 ADD PUSH1 0x0 JUMPDEST DUP3 DUP2 LT ISZERO PUSH2 0x261F JUMPI PUSH1 0x5F NOT DUP9 DUP8 SUB ADD DUP5 MSTORE PUSH2 0x260D DUP7 DUP4 MLOAD PUSH2 0x2499 JUMP JUMPDEST SWAP6 POP SWAP3 DUP5 ADD SWAP3 SWAP1 DUP5 ADD SWAP1 PUSH1 0x1 ADD PUSH2 0x25F1 JUMP JUMPDEST POP SWAP4 SWAP9 SWAP8 POP POP POP POP POP POP POP POP JUMP JUMPDEST DUP1 CALLDATALOAD PUSH1 0x1 PUSH1 0x1 PUSH1 0xA0 SHL SUB DUP2 AND DUP2 EQ PUSH2 0x25A1 JUMPI PUSH1 0x0 DUP1 REVERT JUMPDEST DUP1 ISZERO ISZERO DUP2 EQ PUSH2 0x1CC0 JUMPI PUSH1 0x0 DUP1 REVERT JUMPDEST PUSH1 0x0 DUP1 PUSH1 0x0 DUP1 PUSH1 0x0 DUP1 PUSH1 0x0 DUP1 PUSH1 0xE0 DUP10 DUP12 SUB SLT ISZERO PUSH2 0x266E JUMPI PUSH1 0x0 DUP1 REVERT JUMPDEST PUSH2 0x2677 DUP10 PUSH2 0x262D JUMP JUMPDEST SWAP8 POP PUSH1 0x20 DUP10 ADD CALLDATALOAD SWAP7 POP PUSH1 0x40 DUP10 ADD CALLDATALOAD SWAP6 POP PUSH1 0x60 DUP10 ADD CALLDATALOAD PUSH2 0x2695 DUP2 PUSH2 0x2644 JUMP JUMPDEST SWAP5 POP PUSH1 0x80 DUP10 ADD CALLDATALOAD PUSH8 0xFFFFFFFFFFFFFFFF DUP2 GT ISZERO PUSH2 0x26B1 JUMPI PUSH1 0x0 DUP1 REVERT JUMPDEST PUSH2 0x26BD DUP12 DUP3 DUP13 ADD PUSH2 0x2335 JUMP JUMPDEST SWAP1 SWAP6 POP SWAP4 POP POP PUSH1 0xA0 DUP10 ADD CALLDATALOAD PUSH2 0x26D1 DUP2 PUSH2 0x2644 JUMP JUMPDEST SWAP2 POP PUSH2 0x26DF PUSH1 0xC0 DUP11 ADD PUSH2 0x262D JUMP JUMPDEST SWAP1 POP SWAP3 SWAP6 SWAP9 POP SWAP3 SWAP6 SWAP9 SWAP1 SWAP4 SWAP7 POP JUMP JUMPDEST PUSH1 0x20 DUP1 DUP3 MSTORE DUP3 MLOAD DUP3 DUP3 ADD DUP2 SWAP1 MSTORE PUSH1 0x0 SWAP2 SWAP1 DUP5 DUP3 ADD SWAP1 PUSH1 0x40 DUP6 ADD SWAP1 DUP5 JUMPDEST DUP2 DUP2 LT ISZERO PUSH2 0x23F6 JUMPI DUP4 MLOAD DUP4 MSTORE SWAP3 DUP5 ADD SWAP3 SWAP2 DUP5 ADD SWAP2 PUSH1 0x1 ADD PUSH2 0x270A JUMP JUMPDEST PUSH1 0x0 DUP1 PUSH1 0x40 DUP4 DUP6 SUB SLT ISZERO PUSH2 0x2739 JUMPI PUSH1 0x0 DUP1 REVERT JUMPDEST PUSH2 0x2742 DUP4 PUSH2 0x262D JUMP JUMPDEST SWAP5 PUSH1 0x20 SWAP4 SWAP1 SWAP4 ADD CALLDATALOAD SWAP4 POP POP POP JUMP JUMPDEST PUSH1 0x0 PUSH1 0x20 DUP3 DUP5 SUB SLT ISZERO PUSH2 0x2762 JUMPI PUSH1 0x0 DUP1 REVERT JUMPDEST PUSH2 0x2586 DUP3 PUSH2 0x262D JUMP JUMPDEST PUSH1 0x0 DUP1 PUSH1 0x40 DUP4 DUP6 SUB SLT ISZERO PUSH2 0x277E JUMPI PUSH1 0x0 DUP1 REVERT JUMPDEST PUSH2 0x2787 DUP4 PUSH2 0x258D JUMP JUMPDEST SWAP2 POP PUSH2 0x2795 PUSH1 0x20 DUP5 ADD PUSH2 0x262D JUMP JUMPDEST SWAP1 POP SWAP3 POP SWAP3 SWAP1 POP JUMP JUMPDEST DUP7 DUP2 MSTORE PUSH1 0xC0 PUSH1 0x20 DUP3 ADD MSTORE PUSH1 0x0 PUSH2 0x27B7 PUSH1 0xC0 DUP4 ADD DUP9 PUSH2 0x2453 JUMP JUMPDEST DUP7 PUSH1 0x40 DUP5 ADD MSTORE DUP6 PUSH1 0x60 DUP5 ADD MSTORE DUP3 DUP2 SUB PUSH1 0x80 DUP5 ADD MSTORE PUSH2 0x27D5 DUP2 DUP7 PUSH2 0x2453 JUMP JUMPDEST SWAP2 POP POP DUP3 ISZERO ISZERO PUSH1 0xA0 DUP4 ADD MSTORE SWAP8 SWAP7 POP POP POP POP POP POP POP JUMP JUMPDEST PUSH1 0x0 DUP1 PUSH1 0x0 DUP1 PUSH1 0x0 DUP1 PUSH1 0xC0 DUP8 DUP10 SUB SLT ISZERO PUSH2 0x2804 JUMPI PUSH1 0x0 DUP1 REVERT JUMPDEST PUSH2 0x280D DUP8 PUSH2 0x262D JUMP JUMPDEST SWAP6 POP PUSH2 0x281B PUSH1 0x20 DUP9 ADD PUSH2 0x262D JUMP JUMPDEST SWAP5 POP PUSH2 0x2829 PUSH1 0x40 DUP9 ADD PUSH2 0x262D JUMP JUMPDEST SWAP4 POP PUSH2 0x2837 PUSH1 0x60 DUP9 ADD PUSH2 0x262D JUMP JUMPDEST SWAP3 POP PUSH2 0x2845 PUSH1 0x80 DUP9 ADD PUSH2 0x262D JUMP JUMPDEST SWAP2 POP PUSH2 0x2853 PUSH1 0xA0 DUP9 ADD PUSH2 0x262D JUMP JUMPDEST SWAP1 POP SWAP3 SWAP6 POP SWAP3 SWAP6 POP SWAP3 SWAP6 JUMP JUMPDEST PUSH4 0x4E487B71 PUSH1 0xE0 SHL PUSH1 0x0 MSTORE PUSH1 0x41 PUSH1 0x4 MSTORE PUSH1 0x24 PUSH1 0x0 REVERT JUMPDEST PUSH4 0x4E487B71 PUSH1 0xE0 SHL PUSH1 0x0 MSTORE PUSH1 0x32 PUSH1 0x4 MSTORE PUSH1 0x24 PUSH1 0x0 REVERT JUMPDEST PUSH1 0x0 DUP1 DUP4 CALLDATALOAD PUSH1 0x1E NOT DUP5 CALLDATASIZE SUB ADD DUP2 SLT PUSH2 0x28A2 JUMPI PUSH1 0x0 DUP1 REVERT JUMPDEST DUP4 ADD DUP1 CALLDATALOAD SWAP2 POP PUSH8 0xFFFFFFFFFFFFFFFF DUP3 GT ISZERO PUSH2 0x28BD JUMPI PUSH1 0x0 DUP1 REVERT JUMPDEST PUSH1 0x20 ADD SWAP2 POP CALLDATASIZE DUP2 SWAP1 SUB DUP3 SGT ISZERO PUSH2 0x18F9 JUMPI PUSH1 0x0 DUP1 REVERT JUMPDEST DUP2 DUP4 DUP3 CALLDATACOPY PUSH1 0x0 SWAP2 ADD SWAP1 DUP2 MSTORE SWAP2 SWAP1 POP JUMP JUMPDEST PUSH4 0x4E487B71 PUSH1 0xE0 SHL PUSH1 0x0 MSTORE PUSH1 0x11 PUSH1 0x4 MSTORE PUSH1 0x24 PUSH1 0x0 REVERT JUMPDEST PUSH1 0x0 PUSH1 0xFF DUP3 AND PUSH1 0xFF DUP2 SUB PUSH2 0x290E JUMPI PUSH2 0x290E PUSH2 0x28E2 JUMP JUMPDEST PUSH1 0x1 ADD SWAP3 SWAP2 POP POP JUMP JUMPDEST PUSH1 0x1 DUP2 DUP2 SHR SWAP1 DUP3 AND DUP1 PUSH2 0x292B JUMPI PUSH1 0x7F DUP3 AND SWAP2 POP JUMPDEST PUSH1 0x20 DUP3 LT DUP2 SUB PUSH2 0x294B JUMPI PUSH4 0x4E487B71 PUSH1 0xE0 SHL PUSH1 0x0 MSTORE PUSH1 0x22 PUSH1 0x4 MSTORE PUSH1 0x24 PUSH1 0x0 REVERT JUMPDEST POP SWAP2 SWAP1 POP JUMP JUMPDEST PUSH1 0x0 PUSH1 0x20 DUP3 DUP5 SUB SLT ISZERO PUSH2 0x2963 JUMPI PUSH1 0x0 DUP1 REVERT JUMPDEST POP MLOAD SWAP2 SWAP1 POP JUMP JUMPDEST DUP1 DUP3 ADD DUP1 DUP3 GT ISZERO PUSH2 0x600 JUMPI PUSH2 0x600 PUSH2 0x28E2 JUMP JUMPDEST PUSH4 0xFFFFFFFF DUP2 DUP2 AND DUP4 DUP3 AND MUL DUP1 DUP3 AND SWAP2 SWAP1 DUP3 DUP2 EQ PUSH2 0x299D JUMPI PUSH2 0x299D PUSH2 0x28E2 JUMP JUMPDEST POP POP SWAP3 SWAP2 POP POP JUMP JUMPDEST PUSH4 0xFFFFFFFF DUP3 DUP2 AND DUP3 DUP3 AND SUB SWAP1 DUP1 DUP3 GT ISZERO PUSH2 0x29C2 JUMPI PUSH2 0x29C2 PUSH2 0x28E2 JUMP JUMPDEST POP SWAP3 SWAP2 POP POP JUMP JUMPDEST PUSH1 0x0 PUSH1 0x1 DUP3 ADD PUSH2 0x29DB JUMPI PUSH2 0x29DB PUSH2 0x28E2 JUMP JUMPDEST POP PUSH1 0x1 ADD SWAP1 JUMP JUMPDEST DUP2 DUP2 SUB DUP2 DUP2 GT ISZERO PUSH2 0x600 JUMPI PUSH2 0x600 PUSH2 0x28E2 JUMP JUMPDEST PUSH1 0x0 DUP3 PUSH2 0x2A12 JUMPI PUSH4 0x4E487B71 PUSH1 0xE0 SHL PUSH1 0x0 MSTORE PUSH1 0x12 PUSH1 0x4 MSTORE PUSH1 0x24 PUSH1 0x0 REVERT JUMPDEST POP DIV SWAP1 JUMP JUMPDEST DUP1 DUP3 MUL DUP2 ISZERO DUP3 DUP3 DIV DUP5 EQ OR PUSH2 0x600 JUMPI PUSH2 0x600 PUSH2 0x28E2 JUMP JUMPDEST PUSH1 0x0 PUSH2 0xFFFF DUP1 DUP4 AND DUP2 DUP2 SUB PUSH2 0x2A45 JUMPI PUSH2 0x2A45 PUSH2 0x28E2 JUMP JUMPDEST PUSH1 0x1 ADD SWAP4 SWAP3 POP POP POP JUMP JUMPDEST PUSH1 0x1F DUP3 GT ISZERO PUSH2 0x2A99 JUMPI PUSH1 0x0 DUP2 DUP2 MSTORE PUSH1 0x20 DUP2 KECCAK256 PUSH1 0x1F DUP6 ADD PUSH1 0x5 SHR DUP2 ADD PUSH1 0x20 DUP7 LT ISZERO PUSH2 0x2A76 JUMPI POP DUP1 JUMPDEST PUSH1 0x1F DUP6 ADD PUSH1 0x5 SHR DUP3 ADD SWAP2 POP JUMPDEST DUP2 DUP2 LT ISZERO PUSH2 0x2A95 JUMPI DUP3 DUP2 SSTORE PUSH1 0x1 ADD PUSH2 0x2A82 JUMP JUMPDEST POP POP POP JUMPDEST POP POP POP JUMP JUMPDEST DUP2 MLOAD PUSH8 0xFFFFFFFFFFFFFFFF DUP2 GT ISZERO PUSH2 0x2AB8 JUMPI PUSH2 0x2AB8 PUSH2 0x285F JUMP JUMPDEST PUSH2 0x2ACC DUP2 PUSH2 0x2AC6 DUP5 SLOAD PUSH2 0x2917 JUMP JUMPDEST DUP5 PUSH2 0x2A4F JUMP JUMPDEST PUSH1 0x20 DUP1 PUSH1 0x1F DUP4 GT PUSH1 0x1 DUP2 EQ PUSH2 0x2B01 JUMPI PUSH1 0x0 DUP5 ISZERO PUSH2 0x2AE9 JUMPI POP DUP6 DUP4 ADD MLOAD JUMPDEST PUSH1 0x0 NOT PUSH1 0x3 DUP7 SWAP1 SHL SHR NOT AND PUSH1 0x1 DUP6 SWAP1 SHL OR DUP6 SSTORE PUSH2 0x2A95 JUMP JUMPDEST PUSH1 0x0 DUP6 DUP2 MSTORE PUSH1 0x20 DUP2 KECCAK256 PUSH1 0x1F NOT DUP7 AND SWAP2 JUMPDEST DUP3 DUP2 LT ISZERO PUSH2 0x2B30 JUMPI DUP9 DUP7 ADD MLOAD DUP3 SSTORE SWAP5 DUP5 ADD SWAP5 PUSH1 0x1 SWAP1 SWAP2 ADD SWAP1 DUP5 ADD PUSH2 0x2B11 JUMP JUMPDEST POP DUP6 DUP3 LT ISZERO PUSH2 0x2B4E JUMPI DUP8 DUP6 ADD MLOAD PUSH1 0x0 NOT PUSH1 0x3 DUP9 SWAP1 SHL PUSH1 0xF8 AND SHR NOT AND DUP2 SSTORE JUMPDEST POP POP POP POP POP PUSH1 0x1 SWAP1 DUP2 SHL ADD SWAP1 SSTORE POP JUMP JUMPDEST PUSH1 0x0 DUP2 SLOAD PUSH2 0x2B6B DUP2 PUSH2 0x2917 JUMP JUMPDEST DUP1 DUP6 MSTORE PUSH1 0x20 PUSH1 0x1 DUP4 DUP2 AND DUP1 ISZERO PUSH2 0x2B88 JUMPI PUSH1 0x1 DUP2 EQ PUSH2 0x2BA2 JUMPI PUSH2 0x2BD0 JUMP JUMPDEST PUSH1 0xFF NOT DUP6 AND DUP9 DUP5 ADD MSTORE DUP4 ISZERO ISZERO PUSH1 0x5 SHL DUP9 ADD DUP4 ADD SWAP6 POP PUSH2 0x2BD0 JUMP JUMPDEST DUP7 PUSH1 0x0 MSTORE DUP3 PUSH1 0x0 KECCAK256 PUSH1 0x0 JUMPDEST DUP6 DUP2 LT ISZERO PUSH2 0x2BC8 JUMPI DUP2 SLOAD DUP11 DUP3 ADD DUP7 ADD MSTORE SWAP1 DUP4 ADD SWAP1 DUP5 ADD PUSH2 0x2BAD JUMP JUMPDEST DUP10 ADD DUP5 ADD SWAP7 POP POP JUMPDEST POP POP POP POP POP SWAP3 SWAP2 POP POP JUMP JUMPDEST PUSH1 0x20 DUP2 MSTORE PUSH2 0x2C04 PUSH1 0x20 DUP3 ADD PUSH2 0x2BF7 DUP5 SLOAD PUSH1 0x1 PUSH1 0x1 PUSH1 0xA0 SHL SUB AND SWAP1 JUMP JUMPDEST PUSH1 0x1 PUSH1 0x1 PUSH1 0xA0 SHL SUB AND SWAP1 MSTORE JUMP JUMPDEST PUSH1 0x1 DUP3 ADD SLOAD PUSH1 0x40 DUP3 ADD MSTORE PUSH1 0x2 DUP3 ADD SLOAD PUSH1 0x60 DUP3 ADD MSTORE PUSH1 0x3 DUP3 ADD SLOAD PUSH1 0x80 DUP3 ADD MSTORE PUSH1 0x4 DUP3 ADD SLOAD PUSH1 0xA0 DUP3 ADD MSTORE PUSH1 0x5 DUP3 ADD SLOAD PUSH1 0xC0 DUP3 ADD MSTORE PUSH1 0x6 DUP3 ADD SLOAD PUSH1 0xE0 DUP3 ADD MSTORE PUSH1 0x7 DUP3 ADD SLOAD PUSH1 0x1 PUSH1 0x1 PUSH1 0xA0 SHL SUB DUP2 AND PUSH2 0x100 DUP4 ADD MSTORE PUSH1 0x0 SWAP1 PUSH2 0x2C6C PUSH2 0x120 DUP5 ADD PUSH1 0xFF DUP4 PUSH1 0xA0 SHR AND PUSH2 0x2431 JUMP JUMPDEST POP PUSH2 0x1E0 DUP1 PUSH2 0x140 DUP5 ADD MSTORE PUSH2 0x2C88 PUSH2 0x200 DUP5 ADD PUSH1 0x8 DUP7 ADD PUSH2 0x2B5E JUMP JUMPDEST PUSH1 0x9 DUP6 ADD SLOAD PUSH2 0x160 DUP6 ADD MSTORE PUSH1 0xA DUP6 ADD SLOAD PUSH2 0x180 DUP6 ADD MSTORE PUSH1 0xB DUP6 ADD SLOAD PUSH2 0x1A0 DUP6 ADD MSTORE PUSH1 0xC DUP6 ADD SLOAD PUSH2 0x1C0 DUP6 ADD MSTORE PUSH1 0xD SWAP1 SWAP5 ADD SLOAD SWAP3 ADD SWAP2 SWAP1 SWAP2 MSTORE POP SWAP1 JUMP JUMPDEST PUSH1 0x0 PUSH1 0x20 DUP3 DUP5 SUB SLT ISZERO PUSH2 0x2CD6 JUMPI PUSH1 0x0 DUP1 REVERT JUMPDEST DUP2 MLOAD PUSH2 0x2586 DUP2 PUSH2 0x2644 JUMP JUMPDEST PUSH1 0x20 DUP1 DUP3 MSTORE PUSH1 0x2B SWAP1 DUP3 ADD MSTORE PUSH32 0x496E697469616C697A61626C653A20636F6E7472616374206973206E6F742069 PUSH1 0x40 DUP3 ADD MSTORE PUSH11 0x6E697469616C697A696E67 PUSH1 0xA8 SHL PUSH1 0x60 DUP3 ADD MSTORE PUSH1 0x80 ADD SWAP1 JUMP INVALID LOG2 PUSH5 0x6970667358 0x22 SLT KECCAK256 PUSH12 0x9E03AA512D192B5EE0C70C78 0xBA 0xE6 MSTORE8 NUMBER DUP4 0xE9 SWAP4 SWAP8 PUSH18 0x4AC162A6D87AEAF521D764736F6C63430008 SGT STOP CALLER "
		},
		"gasEstimates": {
			"creation": {
				"codeDepositCost": "2323600",
				"executionCost": "infinite",
				"totalCost": "infinite"
			},
			"external": {
				"BlockManyCode(string[])": "infinite",
				"CalculateCurrentRateBoost()": "infinite",
				"GenerateCode(address,uint256,uint256,bool,bytes32[],bool,address)": "infinite",
				"GetMyCode(uint32)": "infinite",
				"GetTotalMyCode()": "infinite",
				"GetUserCode(uint32,address)": "infinite",
				"KCodePrice()": "2374",
				"KGenerateCode(address,bytes32)": "infinite",
				"SetCloudMiningThreshold(uint256)": "24555",
				"SetMasterPool(address)": "26825",
				"SetNFT(address)": "26845",
				"SetProduct(address)": "26846",
				"SetUsdt(address)": "26779",
				"UnblockManyCode(string[])": "infinite",
				"boostSpeedDecimal()": "2396",
				"codePool()": "2383",
				"deployedDate()": "2331",
				"getCodeInfoSmC(bytes32)": "infinite",
				"initialize(address,address,address,address,address,address)": "infinite",
				"kventure()": "2382",
				"mIdToPro(uint256)": "infinite",
				"mValidMiningTime(uint256)": "2516",
				"masterPool()": "2404",
				"nft()": "2449",
				"owner()": "2420",
				"product()": "2448",
				"rateBoost()": "2352",
				"renounceOwnership()": "infinite",
				"returnRIP()": "2382",
				"transferOwnership(address)": "28402",
				"usdt()": "2428",
				"usdtDecimal()": "2330"
			},
			"internal": {
				"_generateCode(address,bytes32,bool,uint256,uint256,bool,address)": "infinite",
				"_initializeConfig()": "24306",
				"_isBlock(bool)": "53"
			}
		},
		"methodIdentifiers": {
			"BlockManyCode(string[])": "31ae322f",
			"CalculateCurrentRateBoost()": "8c4a876d",
			"GenerateCode(address,uint256,uint256,bool,bytes32[],bool,address)": "8ec09c97",
			"GetMyCode(uint32)": "78f25aee",
			"GetTotalMyCode()": "8fe39efd",
			"GetUserCode(uint32,address)": "b7182530",
			"KCodePrice()": "435a3e50",
			"KGenerateCode(address,bytes32)": "a429a513",
			"SetCloudMiningThreshold(uint256)": "b935948a",
			"SetMasterPool(address)": "a559934e",
			"SetNFT(address)": "f8525b93",
			"SetProduct(address)": "dc30cbb4",
			"SetUsdt(address)": "ddcd6408",
			"UnblockManyCode(string[])": "f4b7f343",
			"boostSpeedDecimal()": "b22a9f9a",
			"codePool()": "486f6afe",
			"deployedDate()": "076d5556",
			"getCodeInfoSmC(bytes32)": "61b26f27",
			"initialize(address,address,address,address,address,address)": "cc2a9a5b",
			"kventure()": "c01c36d0",
			"mIdToPro(uint256)": "cb286f19",
			"mValidMiningTime(uint256)": "bc65fee5",
			"masterPool()": "8c7ab1d7",
			"nft()": "47ccca02",
			"owner()": "8da5cb5b",
			"product()": "bf9ce952",
			"rateBoost()": "395348dc",
			"renounceOwnership()": "715018a6",
			"returnRIP()": "11f1374a",
			"transferOwnership(address)": "f2fde38b",
			"usdt()": "2f48ab7d",
			"usdtDecimal()": "362efc3d"
		}
	},
	"abi": [
		{
			"inputs": [],
			"stateMutability": "payable",
			"type": "constructor"
		},
		{
			"anonymous": false,
			"inputs": [
				{
					"indexed": false,
					"internalType": "uint8",
					"name": "version",
					"type": "uint8"
				}
			],
			"name": "Initialized",
			"type": "event"
		},
		{
			"anonymous": false,
			"inputs": [
				{
					"indexed": true,
					"internalType": "address",
					"name": "previousOwner",
					"type": "address"
				},
				{
					"indexed": true,
					"internalType": "address",
					"name": "newOwner",
					"type": "address"
				}
			],
			"name": "OwnershipTransferred",
			"type": "event"
		},
		{
			"inputs": [
				{
					"internalType": "string[]",
					"name": "codeFEs",
					"type": "string[]"
				}
			],
			"name": "BlockManyCode",
			"outputs": [
				{
					"internalType": "bool[]",
					"name": "",
					"type": "bool[]"
				}
			],
			"stateMutability": "nonpayable",
			"type": "function"
		},
		{
			"inputs": [],
			"name": "CalculateCurrentRateBoost",
			"outputs": [
				{
					"internalType": "uint256",
					"name": "",
					"type": "uint256"
				}
			],
			"stateMutability": "view",
			"type": "function"
		},
		{
			"inputs": [
				{
					"internalType": "address",
					"name": "buyer",
					"type": "address"
				},
				{
					"internalType": "uint256",
					"name": "planPrice",
					"type": "uint256"
				},
				{
					"internalType": "uint256",
					"name": "quantity",
					"type": "uint256"
				},
				{
					"internalType": "bool",
					"name": "lock",
					"type": "bool"
				},
				{
					"internalType": "bytes32[]",
					"name": "codeHashes",
					"type": "bytes32[]"
				},
				{
					"internalType": "bool",
					"name": "_cloudMining",
					"type": "bool"
				},
				{
					"internalType": "address",
					"name": "_delegate",
					"type": "address"
				}
			],
			"name": "GenerateCode",
			"outputs": [
				{
					"internalType": "uint256[]",
					"name": "",
					"type": "uint256[]"
				}
			],
			"stateMutability": "nonpayable",
			"type": "function"
		},
		{
			"inputs": [
				{
					"internalType": "uint32",
					"name": "_page",
					"type": "uint32"
				}
			],
			"name": "GetMyCode",
			"outputs": [
				{
					"internalType": "bool",
					"name": "isMore",
					"type": "bool"
				},
				{
					"components": [
						{
							"internalType": "address",
							"name": "owner",
							"type": "address"
						},
						{
							"internalType": "bytes32",
							"name": "codeHash",
							"type": "bytes32"
						},
						{
							"internalType": "uint256",
							"name": "activeTime",
							"type": "uint256"
						},
						{
							"internalType": "uint256",
							"name": "expirationActiveTime",
							"type": "uint256"
						},
						{
							"internalType": "uint256",
							"name": "boostSpeed",
							"type": "uint256"
						},
						{
							"internalType": "uint256",
							"name": "boostTime",
							"type": "uint256"
						},
						{
							"internalType": "uint256",
							"name": "rateBoost",
							"type": "uint256"
						},
						{
							"internalType": "address",
							"name": "delegate",
							"type": "address"
						},
						{
							"internalType": "enum PackageStatus",
							"name": "status",
							"type": "uint8"
						},
						{
							"internalType": "string",
							"name": "origin",
							"type": "string"
						},
						{
							"internalType": "uint256",
							"name": "mintedAmount",
							"type": "uint256"
						},
						{
							"internalType": "uint256",
							"name": "releasePercentage",
							"type": "uint256"
						},
						{
							"internalType": "uint256",
							"name": "lockTime",
							"type": "uint256"
						},
						{
							"internalType": "bytes32",
							"name": "keyHash",
							"type": "bytes32"
						},
						{
							"internalType": "uint256",
							"name": "currentDeposit",
							"type": "uint256"
						}
					],
					"internalType": "struct PackageInfo[]",
					"name": "arrayPack",
					"type": "tuple[]"
				}
			],
			"stateMutability": "view",
			"type": "function"
		},
		{
			"inputs": [],
			"name": "GetTotalMyCode",
			"outputs": [
				{
					"internalType": "uint256",
					"name": "",
					"type": "uint256"
				}
			],
			"stateMutability": "view",
			"type": "function"
		},
		{
			"inputs": [
				{
					"internalType": "uint32",
					"name": "_page",
					"type": "uint32"
				},
				{
					"internalType": "address",
					"name": "_user",
					"type": "address"
				}
			],
			"name": "GetUserCode",
			"outputs": [
				{
					"internalType": "bool",
					"name": "isMore",
					"type": "bool"
				},
				{
					"components": [
						{
							"internalType": "address",
							"name": "owner",
							"type": "address"
						},
						{
							"internalType": "bytes32",
							"name": "codeHash",
							"type": "bytes32"
						},
						{
							"internalType": "uint256",
							"name": "activeTime",
							"type": "uint256"
						},
						{
							"internalType": "uint256",
							"name": "expirationActiveTime",
							"type": "uint256"
						},
						{
							"internalType": "uint256",
							"name": "boostSpeed",
							"type": "uint256"
						},
						{
							"internalType": "uint256",
							"name": "boostTime",
							"type": "uint256"
						},
						{
							"internalType": "uint256",
							"name": "rateBoost",
							"type": "uint256"
						},
						{
							"internalType": "address",
							"name": "delegate",
							"type": "address"
						},
						{
							"internalType": "enum PackageStatus",
							"name": "status",
							"type": "uint8"
						},
						{
							"internalType": "string",
							"name": "origin",
							"type": "string"
						},
						{
							"internalType": "uint256",
							"name": "mintedAmount",
							"type": "uint256"
						},
						{
							"internalType": "uint256",
							"name": "releasePercentage",
							"type": "uint256"
						},
						{
							"internalType": "uint256",
							"name": "lockTime",
							"type": "uint256"
						},
						{
							"internalType": "bytes32",
							"name": "keyHash",
							"type": "bytes32"
						},
						{
							"internalType": "uint256",
							"name": "currentDeposit",
							"type": "uint256"
						}
					],
					"internalType": "struct PackageInfo[]",
					"name": "arrayPack",
					"type": "tuple[]"
				}
			],
			"stateMutability": "view",
			"type": "function"
		},
		{
			"inputs": [],
			"name": "KCodePrice",
			"outputs": [
				{
					"internalType": "uint256",
					"name": "",
					"type": "uint256"
				}
			],
			"stateMutability": "view",
			"type": "function"
		},
		{
			"inputs": [
				{
					"internalType": "address",
					"name": "buyer",
					"type": "address"
				},
				{
					"internalType": "bytes32",
					"name": "codeHash",
					"type": "bytes32"
				}
			],
			"name": "KGenerateCode",
			"outputs": [
				{
					"internalType": "bool",
					"name": "",
					"type": "bool"
				}
			],
			"stateMutability": "nonpayable",
			"type": "function"
		},
		{
			"inputs": [
				{
					"internalType": "uint256",
					"name": "_cloudMiningThreshold",
					"type": "uint256"
				}
			],
			"name": "SetCloudMiningThreshold",
			"outputs": [],
			"stateMutability": "nonpayable",
			"type": "function"
		},
		{
			"inputs": [
				{
					"internalType": "address",
					"name": "_masterPool",
					"type": "address"
				}
			],
			"name": "SetMasterPool",
			"outputs": [],
			"stateMutability": "nonpayable",
			"type": "function"
		},
		{
			"inputs": [
				{
					"internalType": "address",
					"name": "_nft",
					"type": "address"
				}
			],
			"name": "SetNFT",
			"outputs": [],
			"stateMutability": "nonpayable",
			"type": "function"
		},
		{
			"inputs": [
				{
					"internalType": "address",
					"name": "_product",
					"type": "address"
				}
			],
			"name": "SetProduct",
			"outputs": [],
			"stateMutability": "nonpayable",
			"type": "function"
		},
		{
			"inputs": [
				{
					"internalType": "address",
					"name": "_usdt",
					"type": "address"
				}
			],
			"name": "SetUsdt",
			"outputs": [],
			"stateMutability": "nonpayable",
			"type": "function"
		},
		{
			"inputs": [
				{
					"internalType": "string[]",
					"name": "codeFEs",
					"type": "string[]"
				}
			],
			"name": "UnblockManyCode",
			"outputs": [
				{
					"internalType": "bool[]",
					"name": "",
					"type": "bool[]"
				}
			],
			"stateMutability": "nonpayable",
			"type": "function"
		},
		{
			"inputs": [],
			"name": "boostSpeedDecimal",
			"outputs": [
				{
					"internalType": "uint256",
					"name": "",
					"type": "uint256"
				}
			],
			"stateMutability": "view",
			"type": "function"
		},
		{
			"inputs": [],
			"name": "codePool",
			"outputs": [
				{
					"internalType": "contract ICodePool",
					"name": "",
					"type": "address"
				}
			],
			"stateMutability": "view",
			"type": "function"
		},
		{
			"inputs": [],
			"name": "deployedDate",
			"outputs": [
				{
					"internalType": "uint256",
					"name": "",
					"type": "uint256"
				}
			],
			"stateMutability": "view",
			"type": "function"
		},
		{
			"inputs": [
				{
					"internalType": "bytes32",
					"name": "codeHash",
					"type": "bytes32"
				}
			],
			"name": "getCodeInfoSmC",
			"outputs": [
				{
					"components": [
						{
							"internalType": "address",
							"name": "owner",
							"type": "address"
						},
						{
							"internalType": "bytes32",
							"name": "codeHash",
							"type": "bytes32"
						},
						{
							"internalType": "uint256",
							"name": "activeTime",
							"type": "uint256"
						},
						{
							"internalType": "uint256",
							"name": "expirationActiveTime",
							"type": "uint256"
						},
						{
							"internalType": "uint256",
							"name": "boostSpeed",
							"type": "uint256"
						},
						{
							"internalType": "uint256",
							"name": "boostTime",
							"type": "uint256"
						},
						{
							"internalType": "uint256",
							"name": "rateBoost",
							"type": "uint256"
						},
						{
							"internalType": "address",
							"name": "delegate",
							"type": "address"
						},
						{
							"internalType": "enum PackageStatus",
							"name": "status",
							"type": "uint8"
						},
						{
							"internalType": "string",
							"name": "origin",
							"type": "string"
						},
						{
							"internalType": "uint256",
							"name": "mintedAmount",
							"type": "uint256"
						},
						{
							"internalType": "uint256",
							"name": "releasePercentage",
							"type": "uint256"
						},
						{
							"internalType": "uint256",
							"name": "lockTime",
							"type": "uint256"
						},
						{
							"internalType": "bytes32",
							"name": "keyHash",
							"type": "bytes32"
						},
						{
							"internalType": "uint256",
							"name": "currentDeposit",
							"type": "uint256"
						}
					],
					"internalType": "struct PackageInfo",
					"name": "",
					"type": "tuple"
				}
			],
			"stateMutability": "view",
			"type": "function"
		},
		{
			"inputs": [
				{
					"internalType": "address",
					"name": "_trustedUSDT",
					"type": "address"
				},
				{
					"internalType": "address",
					"name": "_masterPool",
					"type": "address"
				},
				{
					"internalType": "address",
					"name": "_codePool",
					"type": "address"
				},
				{
					"internalType": "address",
					"name": "_product",
					"type": "address"
				},
				{
					"internalType": "address",
					"name": "_trustedNFT",
					"type": "address"
				},
				{
					"internalType": "address",
					"name": "_kventure",
					"type": "address"
				}
			],
			"name": "initialize",
			"outputs": [],
			"stateMutability": "nonpayable",
			"type": "function"
		},
		{
			"inputs": [],
			"name": "kventure",
			"outputs": [
				{
					"internalType": "address",
					"name": "",
					"type": "address"
				}
			],
			"stateMutability": "view",
			"type": "function"
		},
		{
			"inputs": [
				{
					"internalType": "uint256",
					"name": "",
					"type": "uint256"
				}
			],
			"name": "mIdToPro",
			"outputs": [
				{
					"internalType": "bytes32",
					"name": "id",
					"type": "bytes32"
				},
				{
					"internalType": "bytes",
					"name": "imgUrl",
					"type": "bytes"
				},
				{
					"internalType": "uint256",
					"name": "memberPrice",
					"type": "uint256"
				},
				{
					"internalType": "uint256",
					"name": "retailPrice",
					"type": "uint256"
				},
				{
					"internalType": "bytes",
					"name": "desc",
					"type": "bytes"
				},
				{
					"internalType": "bool",
					"name": "active",
					"type": "bool"
				}
			],
			"stateMutability": "view",
			"type": "function"
		},
		{
			"inputs": [
				{
					"internalType": "uint256",
					"name": "",
					"type": "uint256"
				}
			],
			"name": "mValidMiningTime",
			"outputs": [
				{
					"internalType": "uint256",
					"name": "",
					"type": "uint256"
				}
			],
			"stateMutability": "view",
			"type": "function"
		},
		{
			"inputs": [],
			"name": "masterPool",
			"outputs": [
				{
					"internalType": "address",
					"name": "",
					"type": "address"
				}
			],
			"stateMutability": "view",
			"type": "function"
		},
		{
			"inputs": [],
			"name": "nft",
			"outputs": [
				{
					"internalType": "address",
					"name": "",
					"type": "address"
				}
			],
			"stateMutability": "view",
			"type": "function"
		},
		{
			"inputs": [],
			"name": "owner",
			"outputs": [
				{
					"internalType": "address",
					"name": "",
					"type": "address"
				}
			],
			"stateMutability": "view",
			"type": "function"
		},
		{
			"inputs": [],
			"name": "product",
			"outputs": [
				{
					"internalType": "address",
					"name": "",
					"type": "address"
				}
			],
			"stateMutability": "view",
			"type": "function"
		},
		{
			"inputs": [],
			"name": "rateBoost",
			"outputs": [
				{
					"internalType": "uint256",
					"name": "",
					"type": "uint256"
				}
			],
			"stateMutability": "view",
			"type": "function"
		},
		{
			"inputs": [],
			"name": "renounceOwnership",
			"outputs": [],
			"stateMutability": "nonpayable",
			"type": "function"
		},
		{
			"inputs": [],
			"name": "returnRIP",
			"outputs": [
				{
					"internalType": "uint32",
					"name": "",
					"type": "uint32"
				}
			],
			"stateMutability": "view",
			"type": "function"
		},
		{
			"inputs": [
				{
					"internalType": "address",
					"name": "newOwner",
					"type": "address"
				}
			],
			"name": "transferOwnership",
			"outputs": [],
			"stateMutability": "nonpayable",
			"type": "function"
		},
		{
			"inputs": [],
			"name": "usdt",
			"outputs": [
				{
					"internalType": "address",
					"name": "",
					"type": "address"
				}
			],
			"stateMutability": "view",
			"type": "function"
		},
		{
			"inputs": [],
			"name": "usdtDecimal",
			"outputs": [
				{
					"internalType": "uint256",
					"name": "",
					"type": "uint256"
				}
			],
			"stateMutability": "view",
			"type": "function"
		}
	]
}