{
	"data": {
		"bytecode": {
			"linkReferences": {},
			"object": "6080604052607d805460ff1916600a179055614bf1806100206000396000f3fe608060405234801561001057600080fd5b50600436106101fb5760003560e01c806371e204881161011a578063a2dd388c116100ad578063ddcd64081161007c578063ddcd6408146104a9578063f2fde38b146104bc578063f522e41f146104cf578063f71dbbd1146104e2578063f8c8765e146104f557600080fd5b8063a2dd388c14610450578063a559934e14610463578063bab9fe3c14610476578063cb286f191461049657600080fd5b806385ba9d36116100e957806385ba9d36146104115780638a933e9a146104245780638c7ab1d71461042c5780638da5cb5b1461043f57600080fd5b806371e20488146103985780637acc0b20146103b95780637b155686146103de5780637f7c0808146103f157600080fd5b8063521144be116101925780635a272403116101615780635a2724031461034a5780635ea577031461035d5780636f5952b11461037d578063715018a61461039057600080fd5b8063521144be1461030857806352c58bc31461031b578063536487041461032e578063566bceef1461034157600080fd5b80631e701140116101ce5780631e7011401461027357806321a78f681461029757806324d7806c146102c25780632f48ab7d146102f557600080fd5b8063062e9cd014610200578063094fd21a1461021e57806311f1374a146102335780631d6e409a14610252575b600080fd5b610208610508565b6040516102159190613d6e565b60405180910390f35b61023161022c366004613e93565b6107cb565b005b607d546102409060ff1681565b60405160ff9091168152602001610215565b6102656102603660046140d1565b610b1e565b604051908152602001610215565b6102866102813660046141c1565b611396565b60405161021595949392919061426d565b6077546102aa906001600160a01b031681565b6040516001600160a01b039091168152602001610215565b6102e56102d03660046142b0565b60736020526000908152604090205460ff1681565b6040519015158152602001610215565b6075546102aa906001600160a01b031681565b6102316103163660046142b0565b6116c9565b6102316103293660046142b0565b6116f3565b61023161033c3660046142d4565b61171d565b61026560745481565b6102316103583660046142b0565b6118f5565b61037061036b3660046141c1565b611921565b604051610215919061435f565b61026561038b366004614372565b611aa0565b610231611ad1565b6103ab6103a6366004614372565b611ae5565b604051610215929190614491565b6103cc6103c73660046141c1565b612633565b604051610215969594939291906144fd565b6103706103ec3660046141c1565b61278e565b6104046103ff3660046141c1565b6127ce565b604051610215919061454a565b6078546102aa906001600160a01b031681565b610208612b0d565b6076546102aa906001600160a01b031681565b6033546001600160a01b03166102aa565b61026561045e3660046141c1565b612cf5565b6102316104713660046142b0565b612d83565b6104896104843660046141c1565b612dad565b604051610215919061455d565b6103cc6104a43660046141c1565b613206565b6102316104b73660046142b0565b613228565b6102316104ca3660046142b0565b613252565b6103cc6104dd3660046141c1565b6132cb565b6102316104f0366004614570565b6132ed565b610231610503366004614654565b613414565b60606000805b60725481101561056b576072818154811061052b5761052b6146a5565b600091825260209091206005600690920201015460ff1615156001036105595781610555816146d1565b9250505b80610563816146d1565b91505061050e565b506000816001600160401b0381111561058657610586613dd0565b6040519080825280602002602001820160405280156105bf57816020015b6105ac613b96565b8152602001906001900390816105a45790505b5090506000805b6072548110156107c257607281815481106105e3576105e36146a5565b600091825260209091206005600690920201015460ff1615156001036107b05760728181548110610616576106166146a5565b90600052602060002090600602016040518060c001604052908160008201548152602001600182018054610649906146ea565b80601f0160208091040260200160405190810160405280929190818152602001828054610675906146ea565b80156106c25780601f10610697576101008083540402835291602001916106c2565b820191906000526020600020905b8154815290600101906020018083116106a557829003601f168201915b5050505050815260200160028201548152602001600382015481526020016004820180546106ef906146ea565b80601f016020809104026020016040519081016040528092919081815260200182805461071b906146ea565b80156107685780601f1061073d57610100808354040283529160200191610768565b820191906000526020600020905b81548152906001019060200180831161074b57829003601f168201915b50505091835250506005919091015460ff1615156020909101528351849084908110610796576107966146a5565b602002602001018190525081806107ac906146d1565b9250505b806107ba816146d1565b9150506105c6565b50909392505050565b3360009081526073602052604090205460ff1615156001146108085760405162461bcd60e51b81526004016107ff90614724565b60405180910390fd5b600061081385612cf5565b905060006072828154811061082a5761082a6146a5565b90600052602060002090600602016040518060c00160405290816000820154815260200160018201805461085d906146ea565b80601f0160208091040260200160405190810160405280929190818152602001828054610889906146ea565b80156108d65780601f106108ab576101008083540402835291602001916108d6565b820191906000526020600020905b8154815290600101906020018083116108b957829003601f168201915b505050505081526020016002820154815260200160038201548152602001600482018054610903906146ea565b80601f016020809104026020016040519081016040528092919081815260200182805461092f906146ea565b801561097c5780601f106109515761010080835404028352916020019161097c565b820191906000526020600020905b81548152906001019060200180831161095f57829003601f168201915b50505091835250506005919091015460ff1615156020918201528101519091506109a7908690613573565b1580156109b45750845115155b156109c157602081018590525b6109cf848260800151613573565b1580156109dc5750835115155b156109e957608081018490525b8060a00151151583151514610a015782151560a08201525b8060728381548110610a1557610a156146a5565b9060005260206000209060060201600082015181600001556020820151816001019081610a4291906147aa565b50604082015160028201556060820151600382015560808201516004820190610a6b90826147aa565b5060a091909101516005909101805460ff19169115159190911790556072805483908110610a9b57610a9b6146a5565b60009182526020808320898452607a909152604090922060069091029091018054825590600180820190610ad190840182614869565b50600282015481600201556003820154816003015560048201816004019081610afa9190614869565b506005918201549101805460ff191660ff9092161515919091179055505050505050565b6077546040516302717ca760e61b81526001600160a01b0383811660048301526000921690639c5f29c090602401602060405180830381865afa158015610b69573d6000803e3d6000fd5b505050506040513d601f19601f82011682018060405250810190610b8d919061493b565b80610c0d57506077546040516316c4739360e21b8152600481018590526000916001600160a01b031690635b11ce4c90602401602060405180830381865afa158015610bdd573d6000803e3d6000fd5b505050506040513d601f19601f82011682018060405250810190610c019190614958565b6001600160a01b031614155b610c595760405162461bcd60e51b815260206004820152601860248201527f4e6f6e206d656d6265722063616e206e6f74206f72646572000000000000000060448201526064016107ff565b88518851148015610c6b575086518851145b8015610c775750865185145b8015610c835750835185145b610ccf5760405162461bcd60e51b815260206004820152601b60248201527f6c656e67746873206f6620617272617973206e6f7420657175616c000000000060448201526064016107ff565b60008060005b8b51811015610e2f576000607a60008e8481518110610cf657610cf66146a5565b602002602001015181526020019081526020016000206002015411610d5d5760405162461bcd60e51b815260206004820152601b60248201527f2070726f6475637420696420646f6573206e6f7420657869737420000000000060448201526064016107ff565b8a8181518110610d6f57610d6f6146a5565b6020026020010151607a60008e8481518110610d8d57610d8d6146a5565b6020026020010151815260200190815260200160002060020154610db19190614975565b610dbb908461498c565b92508a8181518110610dcf57610dcf6146a5565b6020026020010151607a60008e8481518110610ded57610ded6146a5565b6020026020010151815260200190815260200160002060030154610e119190614975565b610e1b908361498c565b915080610e27816146d1565b915050610cd5565b508a516040516bffffffffffffffffffffffff1933606090811b8216602084015287901b16603482015260488101919091524260688201526000906088016040516020818303038152906040528051906020012090506000610e958d8d8d8d8d8d613607565b905060796000876001600160a01b03166001600160a01b0316815260200190815260200160002082908060018154018082558091505060019003906000526020600020016000909190919091505581607b60008481526020019081526020016000206000018190555085607b600084815260200190815260200160002060010160006101000a8154816001600160a01b0302191690836001600160a01b031602179055508c607b60008481526020019081526020016000206002019080519060200190610f63929190613bd1565b506000828152607b602090815260409091208d51610f89926003909201918f0190613bd1565b506000828152607b602090815260409091204260048201558251610fb592600590920191840190613bd1565b506000828152607b602052604090819020600c0180546001600160a01b0319163317905560775490516302717ca760e61b81526001600160a01b03888116600483015288928792911690639c5f29c090602401602060405180830381865afa158015611025573d6000803e3d6000fd5b505050506040513d601f19601f82011682018060405250810190611049919061493b565b6110d857606461105a86605c614975565b611064919061499f565b6077546040516316c4739360e21b8152600481018c90529196508692506001600160a01b031690635b11ce4c90602401602060405180830381865afa1580156110b1573d6000803e3d6000fd5b505050506040513d601f19601f820116820180604052508101906110d59190614958565b91505b6075546040516370a0823160e01b815233600482015282916001600160a01b0316906370a0823190602401602060405180830381865afa158015611120573d6000803e3d6000fd5b505050506040513d601f19601f8201168201806040525081019061114491906149c1565b10156111925760405162461bcd60e51b815260206004820152601960248201527f4b76656e747572653a20496e76616c69642042616c616e63650000000000000060448201526064016107ff565b6075546076546040516323b872dd60e01b81523360048201526001600160a01b039182166024820152604481018490529116906323b872dd906064016020604051808303816000875af11580156111ed573d6000803e3d6000fd5b505050506040513d601f19601f82011682018060405250810190611211919061493b565b506077546040516302717ca760e61b81526001600160a01b038a8116600483015290911690639c5f29c090602401602060405180830381865afa15801561125c573d6000803e3d6000fd5b505050506040513d601f19601f82011682018060405250810190611280919061493b565b6112ff576077546001600160a01b031663499642f8836112a089856149da565b6040516001600160e01b031960e085901b1681526001600160a01b0390921660048301526024820152604401600060405180830381600087803b1580156112e657600080fd5b505af11580156112fa573d6000803e3d6000fd5b505050505b6077546001600160a01b0316637c148a48838861131c818a6149da565b6040516001600160e01b031960e086901b1681526001600160a01b03909316600484015260248301919091526044820152606401600060405180830381600087803b15801561136a57600080fd5b505af115801561137e573d6000803e3d6000fd5b50959850505050505050505098975050505050505050565b607b6020526000908152604090819020805460018201546004830154845160c0810190955260068401805493956001600160a01b03909316949193919291829082906113e1906146ea565b80601f016020809104026020016040519081016040528092919081815260200182805461140d906146ea565b801561145a5780601f1061142f5761010080835404028352916020019161145a565b820191906000526020600020905b81548152906001019060200180831161143d57829003601f168201915b50505050508152602001600182018054611473906146ea565b80601f016020809104026020016040519081016040528092919081815260200182805461149f906146ea565b80156114ec5780601f106114c1576101008083540402835291602001916114ec565b820191906000526020600020905b8154815290600101906020018083116114cf57829003601f168201915b50505050508152602001600282018054611505906146ea565b80601f0160208091040260200160405190810160405280929190818152602001828054611531906146ea565b801561157e5780601f106115535761010080835404028352916020019161157e565b820191906000526020600020905b81548152906001019060200180831161156157829003601f168201915b50505050508152602001600382018054611597906146ea565b80601f01602080910402602001604051908101604052809291908181526020018280546115c3906146ea565b80156116105780601f106115e557610100808354040283529160200191611610565b820191906000526020600020905b8154815290600101906020018083116115f357829003601f168201915b50505050508152602001600482018054611629906146ea565b80601f0160208091040260200160405190810160405280929190818152602001828054611655906146ea565b80156116a25780601f10611677576101008083540402835291602001916116a2565b820191906000526020600020905b81548152906001019060200180831161168557829003601f168201915b505050918352505060059190910154602090910152600c909101546001600160a01b031685565b6116d1613842565b607880546001600160a01b0319166001600160a01b0392909216919091179055565b6116fb613842565b607780546001600160a01b0319166001600160a01b0392909216919091179055565b3360009081526073602052604090205460ff1615156001146117515760405162461bcd60e51b81526004016107ff90614724565b60008585858560405160200161176a94939291906149ed565b60408051601f19818403018152828252805160209182012060c084018352808452908301898152918301889052606083018790526080830186905284151560a084015260728054600181018255600091909152835160069091027fdffbd64cc7c1a7eb27984335d9416d51137a03d3fabec7141025c62663253fe181019182559251919450839290917fdffbd64cc7c1a7eb27984335d9416d51137a03d3fabec7141025c62663253fe29091019061182290826147aa565b5060408201516002820155606082015160038201556080820151600482019061184b90826147aa565b5060a091909101516005909101805460ff19169115159190911790556000828152607a602090815260409091208251815590820151829190600182019061189290826147aa565b506040820151600282015560608201516003820155608082015160048201906118bb90826147aa565b5060a091909101516005909101805460ff1916911515919091179055607480549060006118e7836146d1565b919050555050505050505050565b6118fd613842565b6001600160a01b03166000908152607360205260409020805460ff19166001179055565b611929613b96565b607a60008381526020019081526020016000206040518060c001604052908160008201548152602001600182018054611961906146ea565b80601f016020809104026020016040519081016040528092919081815260200182805461198d906146ea565b80156119da5780601f106119af576101008083540402835291602001916119da565b820191906000526020600020905b8154815290600101906020018083116119bd57829003601f168201915b505050505081526020016002820154815260200160038201548152602001600482018054611a07906146ea565b80601f0160208091040260200160405190810160405280929190818152602001828054611a33906146ea565b8015611a805780601f10611a5557610100808354040283529160200191611a80565b820191906000526020600020905b815481529060010190602001808311611a6357829003601f168201915b50505091835250506005919091015460ff16151560209091015292915050565b60796020528160005260406000208181548110611abc57600080fd5b90600052602060002001600091509150505481565b611ad9613842565b611ae3600061389c565b565b607d546001600160a01b0383166000908152607960205260408120549091606091611b139160ff169061498c565b607d54611b239060ff1685614975565b1115611b32576000915061262c565b6001600160a01b038416600090815260796020526040902054607d54611b5b9060ff1685614975565b10156120ab57607d546001925060ff166001600160401b03811115611b8257611b82613dd0565b604051908082528060200260200182016040528015611bbb57816020015b611ba8613c1c565b815260200190600190039081611ba05790505b50905060005b81518110156120a5576001600160a01b0385166000908152607960205260408120607d54607b929190849060ff16611bf9818a614975565b611c0391906149da565b611c0d919061498c565b81548110611c1d57611c1d6146a5565b6000918252602080832090910154835282810193909352604091820190208151610100810183528154815260018201546001600160a01b031681850152600282018054845181870281018701865281815292959394860193830182828015611ca457602002820191906000526020600020905b815481526020019060010190808311611c90575b5050505050815260200160038201805480602002602001604051908101604052809291908181526020018280548015611cfc57602002820191906000526020600020905b815481526020019060010190808311611ce8575b505050505081526020016004820154815260200160058201805480602002602001604051908101604052809291908181526020018280548015611d5e57602002820191906000526020600020905b815481526020019060010190808311611d4a575b50505050508152602001600682016040518060c0016040529081600082018054611d87906146ea565b80601f0160208091040260200160405190810160405280929190818152602001828054611db3906146ea565b8015611e005780601f10611dd557610100808354040283529160200191611e00565b820191906000526020600020905b815481529060010190602001808311611de357829003601f168201915b50505050508152602001600182018054611e19906146ea565b80601f0160208091040260200160405190810160405280929190818152602001828054611e45906146ea565b8015611e925780601f10611e6757610100808354040283529160200191611e92565b820191906000526020600020905b815481529060010190602001808311611e7557829003601f168201915b50505050508152602001600282018054611eab906146ea565b80601f0160208091040260200160405190810160405280929190818152602001828054611ed7906146ea565b8015611f245780601f10611ef957610100808354040283529160200191611f24565b820191906000526020600020905b815481529060010190602001808311611f0757829003601f168201915b50505050508152602001600382018054611f3d906146ea565b80601f0160208091040260200160405190810160405280929190818152602001828054611f69906146ea565b8015611fb65780601f10611f8b57610100808354040283529160200191611fb6565b820191906000526020600020905b815481529060010190602001808311611f9957829003601f168201915b50505050508152602001600482018054611fcf906146ea565b80601f0160208091040260200160405190810160405280929190818152602001828054611ffb906146ea565b80156120485780601f1061201d57610100808354040283529160200191612048565b820191906000526020600020905b81548152906001019060200180831161202b57829003601f168201915b505050918352505060059190910154602091820152908252600c92909201546001600160a01b03169101528251839083908110612087576120876146a5565b6020026020010181905250808061209d906146d1565b915050611bc1565b5061262c565b6001600160a01b038416600090815260796020526040812054607d54919350906120d89060ff1685614975565b6120e291906149da565b607d546120f2919060ff166149da565b6001600160401b0381111561210957612109613dd0565b60405190808252806020026020018201604052801561214257816020015b61212f613c1c565b8152602001906001900390816121275790505b50905060005b81518110156120a5576001600160a01b0385166000908152607960205260408120607d54607b929190849060ff16612180818a614975565b61218a91906149da565b612194919061498c565b815481106121a4576121a46146a5565b6000918252602080832090910154835282810193909352604091820190208151610100810183528154815260018201546001600160a01b03168185015260028201805484518187028101870186528181529295939486019383018282801561222b57602002820191906000526020600020905b815481526020019060010190808311612217575b505050505081526020016003820180548060200260200160405190810160405280929190818152602001828054801561228357602002820191906000526020600020905b81548152602001906001019080831161226f575b5050505050815260200160048201548152602001600582018054806020026020016040519081016040528092919081815260200182805480156122e557602002820191906000526020600020905b8154815260200190600101908083116122d1575b50505050508152602001600682016040518060c001604052908160008201805461230e906146ea565b80601f016020809104026020016040519081016040528092919081815260200182805461233a906146ea565b80156123875780601f1061235c57610100808354040283529160200191612387565b820191906000526020600020905b81548152906001019060200180831161236a57829003601f168201915b505050505081526020016001820180546123a0906146ea565b80601f01602080910402602001604051908101604052809291908181526020018280546123cc906146ea565b80156124195780601f106123ee57610100808354040283529160200191612419565b820191906000526020600020905b8154815290600101906020018083116123fc57829003601f168201915b50505050508152602001600282018054612432906146ea565b80601f016020809104026020016040519081016040528092919081815260200182805461245e906146ea565b80156124ab5780601f10612480576101008083540402835291602001916124ab565b820191906000526020600020905b81548152906001019060200180831161248e57829003601f168201915b505050505081526020016003820180546124c4906146ea565b80601f01602080910402602001604051908101604052809291908181526020018280546124f0906146ea565b801561253d5780601f106125125761010080835404028352916020019161253d565b820191906000526020600020905b81548152906001019060200180831161252057829003601f168201915b50505050508152602001600482018054612556906146ea565b80601f0160208091040260200160405190810160405280929190818152602001828054612582906146ea565b80156125cf5780601f106125a4576101008083540402835291602001916125cf565b820191906000526020600020905b8154815290600101906020018083116125b257829003601f168201915b505050918352505060059190910154602091820152908252600c92909201546001600160a01b0316910152825183908390811061260e5761260e6146a5565b60200260200101819052508080612624906146d1565b915050612148565b9250929050565b6072818154811061264357600080fd5b60009182526020909120600690910201805460018201805491935090612668906146ea565b80601f0160208091040260200160405190810160405280929190818152602001828054612694906146ea565b80156126e15780601f106126b6576101008083540402835291602001916126e1565b820191906000526020600020905b8154815290600101906020018083116126c457829003601f168201915b505050505090806002015490806003015490806004018054612702906146ea565b80601f016020809104026020016040519081016040528092919081815260200182805461272e906146ea565b801561277b5780601f106127505761010080835404028352916020019161277b565b820191906000526020600020905b81548152906001019060200180831161275e57829003601f168201915b5050506005909301549192505060ff1686565b612796613b96565b607c60008381526020019081526020016000206040518060c001604052908160008201548152602001600182018054611961906146ea565b6128076040518060c001604052806060815260200160608152602001606081526020016060815260200160608152602001600081525090565b6000828152607b602052604090819020815160c08101909252600601805482908290612832906146ea565b80601f016020809104026020016040519081016040528092919081815260200182805461285e906146ea565b80156128ab5780601f10612880576101008083540402835291602001916128ab565b820191906000526020600020905b81548152906001019060200180831161288e57829003601f168201915b505050505081526020016001820180546128c4906146ea565b80601f01602080910402602001604051908101604052809291908181526020018280546128f0906146ea565b801561293d5780601f106129125761010080835404028352916020019161293d565b820191906000526020600020905b81548152906001019060200180831161292057829003601f168201915b50505050508152602001600282018054612956906146ea565b80601f0160208091040260200160405190810160405280929190818152602001828054612982906146ea565b80156129cf5780601f106129a4576101008083540402835291602001916129cf565b820191906000526020600020905b8154815290600101906020018083116129b257829003601f168201915b505050505081526020016003820180546129e8906146ea565b80601f0160208091040260200160405190810160405280929190818152602001828054612a14906146ea565b8015612a615780601f10612a3657610100808354040283529160200191612a61565b820191906000526020600020905b815481529060010190602001808311612a4457829003601f168201915b50505050508152602001600482018054612a7a906146ea565b80601f0160208091040260200160405190810160405280929190818152602001828054612aa6906146ea565b8015612af35780601f10612ac857610100808354040283529160200191612af3565b820191906000526020600020905b815481529060010190602001808311612ad657829003601f168201915b505050505081526020016005820154815250509050919050565b3360009081526073602052604090205460609060ff161515600114612b445760405162461bcd60e51b81526004016107ff90614724565b6072805480602002602001604051908101604052809291908181526020016000905b82821015612cec57838290600052602060002090600602016040518060c001604052908160008201548152602001600182018054612ba3906146ea565b80601f0160208091040260200160405190810160405280929190818152602001828054612bcf906146ea565b8015612c1c5780601f10612bf157610100808354040283529160200191612c1c565b820191906000526020600020905b815481529060010190602001808311612bff57829003601f168201915b505050505081526020016002820154815260200160038201548152602001600482018054612c49906146ea565b80601f0160208091040260200160405190810160405280929190818152602001828054612c75906146ea565b8015612cc25780601f10612c9757610100808354040283529160200191612cc2565b820191906000526020600020905b815481529060010190602001808311612ca557829003601f168201915b50505091835250506005919091015460ff1615156020918201529082526001929092019101612b66565b50505050905090565b6000805b607254811015612d465760728181548110612d1657612d166146a5565b9060005260206000209060060201600001548303612d345792915050565b80612d3e816146d1565b915050612cf9565b5060405162461bcd60e51b8152602060048201526011602482015270141c9bd91d58dd081b9bdd08199bdd5b99607a1b60448201526064016107ff565b612d8b613842565b607680546001600160a01b0319166001600160a01b0392909216919091179055565b612db5613c1c565b6000828152607b60209081526040918290208251610100810184528154815260018201546001600160a01b03168184015260028201805485518186028101860187528181529295939493860193830182828015612e3157602002820191906000526020600020905b815481526020019060010190808311612e1d575b5050505050815260200160038201805480602002602001604051908101604052809291908181526020018280548015612e8957602002820191906000526020600020905b815481526020019060010190808311612e75575b505050505081526020016004820154815260200160058201805480602002602001604051908101604052809291908181526020018280548015612eeb57602002820191906000526020600020905b815481526020019060010190808311612ed7575b50505050508152602001600682016040518060c0016040529081600082018054612f14906146ea565b80601f0160208091040260200160405190810160405280929190818152602001828054612f40906146ea565b8015612f8d5780601f10612f6257610100808354040283529160200191612f8d565b820191906000526020600020905b815481529060010190602001808311612f7057829003601f168201915b50505050508152602001600182018054612fa6906146ea565b80601f0160208091040260200160405190810160405280929190818152602001828054612fd2906146ea565b801561301f5780601f10612ff45761010080835404028352916020019161301f565b820191906000526020600020905b81548152906001019060200180831161300257829003601f168201915b50505050508152602001600282018054613038906146ea565b80601f0160208091040260200160405190810160405280929190818152602001828054613064906146ea565b80156130b15780601f10613086576101008083540402835291602001916130b1565b820191906000526020600020905b81548152906001019060200180831161309457829003601f168201915b505050505081526020016003820180546130ca906146ea565b80601f01602080910402602001604051908101604052809291908181526020018280546130f6906146ea565b80156131435780601f1061311857610100808354040283529160200191613143565b820191906000526020600020905b81548152906001019060200180831161312657829003601f168201915b5050505050815260200160048201805461315c906146ea565b80601f0160208091040260200160405190810160405280929190818152602001828054613188906146ea565b80156131d55780601f106131aa576101008083540402835291602001916131d5565b820191906000526020600020905b8154815290600101906020018083116131b857829003601f168201915b505050918352505060059190910154602091820152908252600c92909201546001600160a01b031691015292915050565b607c6020526000908152604090208054600182018054919291612668906146ea565b613230613842565b607580546001600160a01b0319166001600160a01b0392909216919091179055565b61325a613842565b6001600160a01b0381166132bf5760405162461bcd60e51b815260206004820152602660248201527f4f776e61626c653a206e6577206f776e657220697320746865207a65726f206160448201526564647265737360d01b60648201526084016107ff565b6132c88161389c565b50565b607a6020526000908152604090208054600182018054919291612668906146ea565b6000878152607b60205260409020600101546001600160a01b031633146133565760405162461bcd60e51b815260206004820152601c60248201527f6f6e6c79206f776e6572206f66206f726465722063616e2063616c6c0000000060448201526064016107ff565b6040805160c0810182528781526020808201889052818301879052606082018690526080820185905260a0820184905260008a8152607b90915291909120815182916006019081906133a890826147aa565b50602082015160018201906133bd90826147aa565b50604082015160028201906133d290826147aa565b50606082015160038201906133e790826147aa565b50608082015160048201906133fc90826147aa565b5060a082015181600501559050505050505050505050565b600054610100900460ff16158080156134345750600054600160ff909116105b8061344e5750303b15801561344e575060005460ff166001145b6134b15760405162461bcd60e51b815260206004820152602e60248201527f496e697469616c697a61626c653a20636f6e747261637420697320616c72656160448201526d191e481a5b9a5d1a585b1a5e995960921b60648201526084016107ff565b6000805460ff1916600117905580156134d4576000805461ff0019166101001790555b607580546001600160a01b038088166001600160a01b031992831617909255607680548784169083161790556078805486841690831617905560778054928516929091169190911790556135266138ee565b801561356c576000805461ff0019169055604051600181527f7f26b83ff96e1f2b6a682f133852f6798a09c465da95921460cefb38474024989060200160405180910390a15b5050505050565b6000815183511461358657506000613601565b60005b83518110156135fb578281815181106135a4576135a46146a5565b602001015160f81c60f81b6001600160f81b0319168482815181106135cb576135cb6146a5565b01602001516001600160f81b031916146135e9576000915050613601565b806135f3816146d1565b915050613589565b50600190505b92915050565b60606000805b885181101561364f57878181518110613628576136286146a5565b60200260200101518261363b919061498c565b915080613647816146d1565b91505061360d565b50600080826001600160401b0381111561366b5761366b613dd0565b604051908082528060200260200182016040528015613694578160200160208202803683370190505b50905060005b8a518110156138345760008a82815181106136b7576136b76146a5565b60200260200101516001600160401b038111156136d6576136d6613dd0565b6040519080825280602002602001820160405280156136ff578160200160208202803683370190505b5090506137968c8381518110613717576137176146a5565b60200260200101518c8481518110613731576137316146a5565b60200260200101518c858151811061374b5761374b6146a5565b60200260200101518c8c87818110613765576137656146a5565b90506020028101906137779190614a2e565b8c8881518110613789576137896146a5565b602002602001015161391d565b905060005b81518110156137f8578181815181106137b6576137b66146a5565b60200260200101518482876137cb919061498c565b815181106137db576137db6146a5565b6020908102919091010152806137f0816146d1565b91505061379b565b508a828151811061380b5761380b6146a5565b60200260200101518461381e919061498c565b935050808061382c906146d1565b91505061369a565b509998505050505050505050565b6033546001600160a01b03163314611ae35760405162461bcd60e51b815260206004820181905260248201527f4f776e61626c653a2063616c6c6572206973206e6f7420746865206f776e657260448201526064016107ff565b603380546001600160a01b038381166001600160a01b0319831681179093556040519116919082907f8be0079c531659141344cd1fd0a4f28419497f9722a3daafe3b4186f6b6457e090600090a35050565b600054610100900460ff166139155760405162461bcd60e51b81526004016107ff90614a77565b611ae3613b66565b6000868152607a602052604090205460609061397b5760405162461bcd60e51b815260206004820152601960248201527f70726f6475637420696420646f6573206e6f742065786973740000000000000060448201526064016107ff565b600086116139bc5760405162461bcd60e51b815260206004820152600e60248201526d7175616e746974792077726f6e6760901b60448201526064016107ff565b6000866001600160401b038111156139d6576139d6613dd0565b6040519080825280602002602001820160405280156139ff578160200160208202803683370190505b5060785460008a8152607a602052604090819020600201549051631dcb20f160e31b81529293506001600160a01b039091169163ee59078891613a51913391908c908c908c908c908c90600401614ac2565b6000604051808303816000875af1158015613a70573d6000803e3d6000fd5b505050506040513d6000823e601f3d908101601f19168201604052613a989190810190614b2b565b905060005b8151811015613b5a57607a60008a8152602001908152602001600020607c6000848481518110613acf57613acf6146a5565b602002602001015181526020019081526020016000206000820154816000015560018201816001019081613b039190614869565b50600282015481600201556003820154816003015560048201816004019081613b2c9190614869565b506005918201549101805460ff191660ff909216151591909117905580613b52816146d1565b915050613a9d565b50979650505050505050565b600054610100900460ff16613b8d5760405162461bcd60e51b81526004016107ff90614a77565b611ae33361389c565b6040518060c0016040528060008019168152602001606081526020016000815260200160008152602001606081526020016000151581525090565b828054828255906000526020600020908101928215613c0c579160200282015b82811115613c0c578251825591602001919060010190613bf1565b50613c18929150613ca4565b5090565b6040518061010001604052806000801916815260200160006001600160a01b0316815260200160608152602001606081526020016000815260200160608152602001613c976040518060c001604052806060815260200160608152602001606081526020016060815260200160608152602001600081525090565b8152600060209091015290565b5b80821115613c185760008155600101613ca5565b60005b83811015613cd4578181015183820152602001613cbc565b50506000910152565b60008151808452613cf5816020860160208601613cb9565b601f01601f19169290920160200192915050565b805182526000602082015160c06020850152613d2860c0850182613cdd565b9050604083015160408501526060830151606085015260808301518482036080860152613d558282613cdd565b91505060a0830151151560a08501528091505092915050565b6000602080830181845280855180835260408601915060408160051b870101925083870160005b82811015613dc357603f19888603018452613db1858351613d09565b94509285019290850190600101613d95565b5092979650505050505050565b634e487b7160e01b600052604160045260246000fd5b604051601f8201601f191681016001600160401b0381118282101715613e0e57613e0e613dd0565b604052919050565b600082601f830112613e2757600080fd5b81356001600160401b03811115613e4057613e40613dd0565b613e53601f8201601f1916602001613de6565b818152846020838601011115613e6857600080fd5b816020850160208301376000918101602001919091529392505050565b80151581146132c857600080fd5b60008060008060808587031215613ea957600080fd5b8435935060208501356001600160401b0380821115613ec757600080fd5b613ed388838901613e16565b94506040870135915080821115613ee957600080fd5b50613ef687828801613e16565b9250506060850135613f0781613e85565b939692955090935050565b60006001600160401b03821115613f2b57613f2b613dd0565b5060051b60200190565b600082601f830112613f4657600080fd5b81356020613f5b613f5683613f12565b613de6565b82815260059290921b84018101918181019086841115613f7a57600080fd5b8286015b84811015613f955780358352918301918301613f7e565b509695505050505050565b600082601f830112613fb157600080fd5b81356020613fc1613f5683613f12565b82815260059290921b84018101918181019086841115613fe057600080fd5b8286015b84811015613f95578035613ff781613e85565b8352918301918301613fe4565b60008083601f84011261401657600080fd5b5081356001600160401b0381111561402d57600080fd5b6020830191508360208260051b850101111561262c57600080fd5b6001600160a01b03811681146132c857600080fd5b803561406881614048565b919050565b600082601f83011261407e57600080fd5b8135602061408e613f5683613f12565b82815260059290921b840181019181810190868411156140ad57600080fd5b8286015b84811015613f955780356140c481614048565b83529183019183016140b1565b60008060008060008060008060e0898b0312156140ed57600080fd5b88356001600160401b038082111561410457600080fd5b6141108c838d01613f35565b995060208b013591508082111561412657600080fd5b6141328c838d01613f35565b985060408b013591508082111561414857600080fd5b6141548c838d01613fa0565b975060608b013591508082111561416a57600080fd5b6141768c838d01614004565b909750955060808b013591508082111561418f57600080fd5b5061419c8b828c0161406d565b93505060a089013591506141b260c08a0161405d565b90509295985092959890939650565b6000602082840312156141d357600080fd5b5035919050565b6000815160c084526141ef60c0850182613cdd565b9050602083015184820360208601526142088282613cdd565b915050604083015184820360408601526142228282613cdd565b9150506060830151848203606086015261423c8282613cdd565b915050608083015184820360808601526142568282613cdd565b91505060a083015160a08501528091505092915050565b858152600060018060a01b03808716602084015285604084015260a0606084015261429b60a08401866141da565b91508084166080840152509695505050505050565b6000602082840312156142c257600080fd5b81356142cd81614048565b9392505050565b600080600080600060a086880312156142ec57600080fd5b85356001600160401b038082111561430357600080fd5b61430f89838a01613e16565b96506020880135955060408801359450606088013591508082111561433357600080fd5b5061434088828901613e16565b925050608086013561435181613e85565b809150509295509295909350565b6020815260006142cd6020830184613d09565b6000806040838503121561438557600080fd5b823561439081614048565b946020939093013593505050565b600081518084526020808501945080840160005b838110156143ce578151875295820195908201906001016143b2565b509495945050505050565b60006101008251845260208301516143fc60208601826001600160a01b03169052565b5060408301518160408601526144148286018261439e565b9150506060830151848203606086015261442e828261439e565b9150506080830151608085015260a083015184820360a0860152614452828261439e565b91505060c083015184820360c086015261446c82826141da565b91505060e083015161448960e08601826001600160a01b03169052565b509392505050565b6000604082018415158352602060408185015281855180845260608601915060608160051b870101935082870160005b828110156144ef57605f198887030184526144dd8683516143d9565b955092840192908401906001016144c1565b509398975050505050505050565b86815260c06020820152600061451660c0830188613cdd565b86604084015285606084015282810360808401526145348186613cdd565b91505082151560a0830152979650505050505050565b6020815260006142cd60208301846141da565b6020815260006142cd60208301846143d9565b600080600080600080600060e0888a03121561458b57600080fd5b8735965060208801356001600160401b03808211156145a957600080fd5b6145b58b838c01613e16565b975060408a01359150808211156145cb57600080fd5b6145d78b838c01613e16565b965060608a01359150808211156145ed57600080fd5b6145f98b838c01613e16565b955060808a013591508082111561460f57600080fd5b61461b8b838c01613e16565b945060a08a013591508082111561463157600080fd5b5061463e8a828b01613e16565b92505060c0880135905092959891949750929550565b6000806000806080858703121561466a57600080fd5b843561467581614048565b9350602085013561468581614048565b9250604085013561469581614048565b91506060850135613f0781614048565b634e487b7160e01b600052603260045260246000fd5b634e487b7160e01b600052601160045260246000fd5b6000600182016146e3576146e36146bb565b5060010190565b600181811c908216806146fe57607f821691505b60208210810361471e57634e487b7160e01b600052602260045260246000fd5b50919050565b60208082526019908201527f496e76616c69642063616c6c65722d4f6e6c792041646d696e00000000000000604082015260600190565b601f8211156147a557600081815260208120601f850160051c810160208610156147825750805b601f850160051c820191505b818110156147a15782815560010161478e565b5050505b505050565b81516001600160401b038111156147c3576147c3613dd0565b6147d7816147d184546146ea565b8461475b565b602080601f83116001811461480c57600084156147f45750858301515b600019600386901b1c1916600185901b1785556147a1565b600085815260208120601f198616915b8281101561483b5788860151825594840194600190910190840161481c565b50858210156148595787850151600019600388901b60f8161c191681555b5050505050600190811b01905550565b818103614874575050565b61487e82546146ea565b6001600160401b0381111561489557614895613dd0565b6148a3816147d184546146ea565b6000601f8211600181146148d757600083156148bf5750848201545b600019600385901b1c1916600184901b17845561356c565b600085815260209020601f19841690600086815260209020845b8381101561491157828601548255600195860195909101906020016148f1565b50858310156148595793015460001960f8600387901b161c19169092555050600190811b01905550565b60006020828403121561494d57600080fd5b81516142cd81613e85565b60006020828403121561496a57600080fd5b81516142cd81614048565b8082028115828204841417613601576136016146bb565b80820180821115613601576136016146bb565b6000826149bc57634e487b7160e01b600052601260045260246000fd5b500490565b6000602082840312156149d357600080fd5b5051919050565b81810381811115613601576136016146bb565b600085516149ff818460208a01613cb9565b80830190508581528460208201528351614a20816040840160208801613cb9565b016040019695505050505050565b6000808335601e19843603018112614a4557600080fd5b8301803591506001600160401b03821115614a5f57600080fd5b6020019150600581901b360382131561262c57600080fd5b6020808252602b908201527f496e697469616c697a61626c653a20636f6e7472616374206973206e6f74206960408201526a6e697469616c697a696e6760a81b606082015260800190565b6001600160a01b0388811682526020820188905260408201879052851515606083015260c06080830181905282018490526000906001600160fb1b03851115614b0a57600080fd5b8460051b808760e0860137931660a0830152500160e0019695505050505050565b60006020808385031215614b3e57600080fd5b82516001600160401b03811115614b5457600080fd5b8301601f81018513614b6557600080fd5b8051614b73613f5682613f12565b81815260059190911b82018301908381019087831115614b9257600080fd5b928401925b82841015614bb057835182529284019290840190614b97565b97965050505050505056fea26469706673582212202b73070551252d9b0a17eae38b21cf39ce7acd6b233778ef390c5a9437ae119764736f6c63430008130033",
			"opcodes": "PUSH1 0x80 PUSH1 0x40 MSTORE PUSH1 0x7D DUP1 SLOAD PUSH1 0xFF NOT AND PUSH1 0xA OR SWAP1 SSTORE PUSH2 0x4BF1 DUP1 PUSH2 0x20 PUSH1 0x0 CODECOPY PUSH1 0x0 RETURN INVALID PUSH1 0x80 PUSH1 0x40 MSTORE CALLVALUE DUP1 ISZERO PUSH2 0x10 JUMPI PUSH1 0x0 DUP1 REVERT JUMPDEST POP PUSH1 0x4 CALLDATASIZE LT PUSH2 0x1FB JUMPI PUSH1 0x0 CALLDATALOAD PUSH1 0xE0 SHR DUP1 PUSH4 0x71E20488 GT PUSH2 0x11A JUMPI DUP1 PUSH4 0xA2DD388C GT PUSH2 0xAD JUMPI DUP1 PUSH4 0xDDCD6408 GT PUSH2 0x7C JUMPI DUP1 PUSH4 0xDDCD6408 EQ PUSH2 0x4A9 JUMPI DUP1 PUSH4 0xF2FDE38B EQ PUSH2 0x4BC JUMPI DUP1 PUSH4 0xF522E41F EQ PUSH2 0x4CF JUMPI DUP1 PUSH4 0xF71DBBD1 EQ PUSH2 0x4E2 JUMPI DUP1 PUSH4 0xF8C8765E EQ PUSH2 0x4F5 JUMPI PUSH1 0x0 DUP1 REVERT JUMPDEST DUP1 PUSH4 0xA2DD388C EQ PUSH2 0x450 JUMPI DUP1 PUSH4 0xA559934E EQ PUSH2 0x463 JUMPI DUP1 PUSH4 0xBAB9FE3C EQ PUSH2 0x476 JUMPI DUP1 PUSH4 0xCB286F19 EQ PUSH2 0x496 JUMPI PUSH1 0x0 DUP1 REVERT JUMPDEST DUP1 PUSH4 0x85BA9D36 GT PUSH2 0xE9 JUMPI DUP1 PUSH4 0x85BA9D36 EQ PUSH2 0x411 JUMPI DUP1 PUSH4 0x8A933E9A EQ PUSH2 0x424 JUMPI DUP1 PUSH4 0x8C7AB1D7 EQ PUSH2 0x42C JUMPI DUP1 PUSH4 0x8DA5CB5B EQ PUSH2 0x43F JUMPI PUSH1 0x0 DUP1 REVERT JUMPDEST DUP1 PUSH4 0x71E20488 EQ PUSH2 0x398 JUMPI DUP1 PUSH4 0x7ACC0B20 EQ PUSH2 0x3B9 JUMPI DUP1 PUSH4 0x7B155686 EQ PUSH2 0x3DE JUMPI DUP1 PUSH4 0x7F7C0808 EQ PUSH2 0x3F1 JUMPI PUSH1 0x0 DUP1 REVERT JUMPDEST DUP1 PUSH4 0x521144BE GT PUSH2 0x192 JUMPI DUP1 PUSH4 0x5A272403 GT PUSH2 0x161 JUMPI DUP1 PUSH4 0x5A272403 EQ PUSH2 0x34A JUMPI DUP1 PUSH4 0x5EA57703 EQ PUSH2 0x35D JUMPI DUP1 PUSH4 0x6F5952B1 EQ PUSH2 0x37D JUMPI DUP1 PUSH4 0x715018A6 EQ PUSH2 0x390 JUMPI PUSH1 0x0 DUP1 REVERT JUMPDEST DUP1 PUSH4 0x521144BE EQ PUSH2 0x308 JUMPI DUP1 PUSH4 0x52C58BC3 EQ PUSH2 0x31B JUMPI DUP1 PUSH4 0x53648704 EQ PUSH2 0x32E JUMPI DUP1 PUSH4 0x566BCEEF EQ PUSH2 0x341 JUMPI PUSH1 0x0 DUP1 REVERT JUMPDEST DUP1 PUSH4 0x1E701140 GT PUSH2 0x1CE JUMPI DUP1 PUSH4 0x1E701140 EQ PUSH2 0x273 JUMPI DUP1 PUSH4 0x21A78F68 EQ PUSH2 0x297 JUMPI DUP1 PUSH4 0x24D7806C EQ PUSH2 0x2C2 JUMPI DUP1 PUSH4 0x2F48AB7D EQ PUSH2 0x2F5 JUMPI PUSH1 0x0 DUP1 REVERT JUMPDEST DUP1 PUSH4 0x62E9CD0 EQ PUSH2 0x200 JUMPI DUP1 PUSH4 0x94FD21A EQ PUSH2 0x21E JUMPI DUP1 PUSH4 0x11F1374A EQ PUSH2 0x233 JUMPI DUP1 PUSH4 0x1D6E409A EQ PUSH2 0x252 JUMPI JUMPDEST PUSH1 0x0 DUP1 REVERT JUMPDEST PUSH2 0x208 PUSH2 0x508 JUMP JUMPDEST PUSH1 0x40 MLOAD PUSH2 0x215 SWAP2 SWAP1 PUSH2 0x3D6E JUMP JUMPDEST PUSH1 0x40 MLOAD DUP1 SWAP2 SUB SWAP1 RETURN JUMPDEST PUSH2 0x231 PUSH2 0x22C CALLDATASIZE PUSH1 0x4 PUSH2 0x3E93 JUMP JUMPDEST PUSH2 0x7CB JUMP JUMPDEST STOP JUMPDEST PUSH1 0x7D SLOAD PUSH2 0x240 SWAP1 PUSH1 0xFF AND DUP2 JUMP JUMPDEST PUSH1 0x40 MLOAD PUSH1 0xFF SWAP1 SWAP2 AND DUP2 MSTORE PUSH1 0x20 ADD PUSH2 0x215 JUMP JUMPDEST PUSH2 0x265 PUSH2 0x260 CALLDATASIZE PUSH1 0x4 PUSH2 0x40D1 JUMP JUMPDEST PUSH2 0xB1E JUMP JUMPDEST PUSH1 0x40 MLOAD SWAP1 DUP2 MSTORE PUSH1 0x20 ADD PUSH2 0x215 JUMP JUMPDEST PUSH2 0x286 PUSH2 0x281 CALLDATASIZE PUSH1 0x4 PUSH2 0x41C1 JUMP JUMPDEST PUSH2 0x1396 JUMP JUMPDEST PUSH1 0x40 MLOAD PUSH2 0x215 SWAP6 SWAP5 SWAP4 SWAP3 SWAP2 SWAP1 PUSH2 0x426D JUMP JUMPDEST PUSH1 0x77 SLOAD PUSH2 0x2AA SWAP1 PUSH1 0x1 PUSH1 0x1 PUSH1 0xA0 SHL SUB AND DUP2 JUMP JUMPDEST PUSH1 0x40 MLOAD PUSH1 0x1 PUSH1 0x1 PUSH1 0xA0 SHL SUB SWAP1 SWAP2 AND DUP2 MSTORE PUSH1 0x20 ADD PUSH2 0x215 JUMP JUMPDEST PUSH2 0x2E5 PUSH2 0x2D0 CALLDATASIZE PUSH1 0x4 PUSH2 0x42B0 JUMP JUMPDEST PUSH1 0x73 PUSH1 0x20 MSTORE PUSH1 0x0 SWAP1 DUP2 MSTORE PUSH1 0x40 SWAP1 KECCAK256 SLOAD PUSH1 0xFF AND DUP2 JUMP JUMPDEST PUSH1 0x40 MLOAD SWAP1 ISZERO ISZERO DUP2 MSTORE PUSH1 0x20 ADD PUSH2 0x215 JUMP JUMPDEST PUSH1 0x75 SLOAD PUSH2 0x2AA SWAP1 PUSH1 0x1 PUSH1 0x1 PUSH1 0xA0 SHL SUB AND DUP2 JUMP JUMPDEST PUSH2 0x231 PUSH2 0x316 CALLDATASIZE PUSH1 0x4 PUSH2 0x42B0 JUMP JUMPDEST PUSH2 0x16C9 JUMP JUMPDEST PUSH2 0x231 PUSH2 0x329 CALLDATASIZE PUSH1 0x4 PUSH2 0x42B0 JUMP JUMPDEST PUSH2 0x16F3 JUMP JUMPDEST PUSH2 0x231 PUSH2 0x33C CALLDATASIZE PUSH1 0x4 PUSH2 0x42D4 JUMP JUMPDEST PUSH2 0x171D JUMP JUMPDEST PUSH2 0x265 PUSH1 0x74 SLOAD DUP2 JUMP JUMPDEST PUSH2 0x231 PUSH2 0x358 CALLDATASIZE PUSH1 0x4 PUSH2 0x42B0 JUMP JUMPDEST PUSH2 0x18F5 JUMP JUMPDEST PUSH2 0x370 PUSH2 0x36B CALLDATASIZE PUSH1 0x4 PUSH2 0x41C1 JUMP JUMPDEST PUSH2 0x1921 JUMP JUMPDEST PUSH1 0x40 MLOAD PUSH2 0x215 SWAP2 SWAP1 PUSH2 0x435F JUMP JUMPDEST PUSH2 0x265 PUSH2 0x38B CALLDATASIZE PUSH1 0x4 PUSH2 0x4372 JUMP JUMPDEST PUSH2 0x1AA0 JUMP JUMPDEST PUSH2 0x231 PUSH2 0x1AD1 JUMP JUMPDEST PUSH2 0x3AB PUSH2 0x3A6 CALLDATASIZE PUSH1 0x4 PUSH2 0x4372 JUMP JUMPDEST PUSH2 0x1AE5 JUMP JUMPDEST PUSH1 0x40 MLOAD PUSH2 0x215 SWAP3 SWAP2 SWAP1 PUSH2 0x4491 JUMP JUMPDEST PUSH2 0x3CC PUSH2 0x3C7 CALLDATASIZE PUSH1 0x4 PUSH2 0x41C1 JUMP JUMPDEST PUSH2 0x2633 JUMP JUMPDEST PUSH1 0x40 MLOAD PUSH2 0x215 SWAP7 SWAP6 SWAP5 SWAP4 SWAP3 SWAP2 SWAP1 PUSH2 0x44FD JUMP JUMPDEST PUSH2 0x370 PUSH2 0x3EC CALLDATASIZE PUSH1 0x4 PUSH2 0x41C1 JUMP JUMPDEST PUSH2 0x278E JUMP JUMPDEST PUSH2 0x404 PUSH2 0x3FF CALLDATASIZE PUSH1 0x4 PUSH2 0x41C1 JUMP JUMPDEST PUSH2 0x27CE JUMP JUMPDEST PUSH1 0x40 MLOAD PUSH2 0x215 SWAP2 SWAP1 PUSH2 0x454A JUMP JUMPDEST PUSH1 0x78 SLOAD PUSH2 0x2AA SWAP1 PUSH1 0x1 PUSH1 0x1 PUSH1 0xA0 SHL SUB AND DUP2 JUMP JUMPDEST PUSH2 0x208 PUSH2 0x2B0D JUMP JUMPDEST PUSH1 0x76 SLOAD PUSH2 0x2AA SWAP1 PUSH1 0x1 PUSH1 0x1 PUSH1 0xA0 SHL SUB AND DUP2 JUMP JUMPDEST PUSH1 0x33 SLOAD PUSH1 0x1 PUSH1 0x1 PUSH1 0xA0 SHL SUB AND PUSH2 0x2AA JUMP JUMPDEST PUSH2 0x265 PUSH2 0x45E CALLDATASIZE PUSH1 0x4 PUSH2 0x41C1 JUMP JUMPDEST PUSH2 0x2CF5 JUMP JUMPDEST PUSH2 0x231 PUSH2 0x471 CALLDATASIZE PUSH1 0x4 PUSH2 0x42B0 JUMP JUMPDEST PUSH2 0x2D83 JUMP JUMPDEST PUSH2 0x489 PUSH2 0x484 CALLDATASIZE PUSH1 0x4 PUSH2 0x41C1 JUMP JUMPDEST PUSH2 0x2DAD JUMP JUMPDEST PUSH1 0x40 MLOAD PUSH2 0x215 SWAP2 SWAP1 PUSH2 0x455D JUMP JUMPDEST PUSH2 0x3CC PUSH2 0x4A4 CALLDATASIZE PUSH1 0x4 PUSH2 0x41C1 JUMP JUMPDEST PUSH2 0x3206 JUMP JUMPDEST PUSH2 0x231 PUSH2 0x4B7 CALLDATASIZE PUSH1 0x4 PUSH2 0x42B0 JUMP JUMPDEST PUSH2 0x3228 JUMP JUMPDEST PUSH2 0x231 PUSH2 0x4CA CALLDATASIZE PUSH1 0x4 PUSH2 0x42B0 JUMP JUMPDEST PUSH2 0x3252 JUMP JUMPDEST PUSH2 0x3CC PUSH2 0x4DD CALLDATASIZE PUSH1 0x4 PUSH2 0x41C1 JUMP JUMPDEST PUSH2 0x32CB JUMP JUMPDEST PUSH2 0x231 PUSH2 0x4F0 CALLDATASIZE PUSH1 0x4 PUSH2 0x4570 JUMP JUMPDEST PUSH2 0x32ED JUMP JUMPDEST PUSH2 0x231 PUSH2 0x503 CALLDATASIZE PUSH1 0x4 PUSH2 0x4654 JUMP JUMPDEST PUSH2 0x3414 JUMP JUMPDEST PUSH1 0x60 PUSH1 0x0 DUP1 JUMPDEST PUSH1 0x72 SLOAD DUP2 LT ISZERO PUSH2 0x56B JUMPI PUSH1 0x72 DUP2 DUP2 SLOAD DUP2 LT PUSH2 0x52B JUMPI PUSH2 0x52B PUSH2 0x46A5 JUMP JUMPDEST PUSH1 0x0 SWAP2 DUP3 MSTORE PUSH1 0x20 SWAP1 SWAP2 KECCAK256 PUSH1 0x5 PUSH1 0x6 SWAP1 SWAP3 MUL ADD ADD SLOAD PUSH1 0xFF AND ISZERO ISZERO PUSH1 0x1 SUB PUSH2 0x559 JUMPI DUP2 PUSH2 0x555 DUP2 PUSH2 0x46D1 JUMP JUMPDEST SWAP3 POP POP JUMPDEST DUP1 PUSH2 0x563 DUP2 PUSH2 0x46D1 JUMP JUMPDEST SWAP2 POP POP PUSH2 0x50E JUMP JUMPDEST POP PUSH1 0x0 DUP2 PUSH1 0x1 PUSH1 0x1 PUSH1 0x40 SHL SUB DUP2 GT ISZERO PUSH2 0x586 JUMPI PUSH2 0x586 PUSH2 0x3DD0 JUMP JUMPDEST PUSH1 0x40 MLOAD SWAP1 DUP1 DUP3 MSTORE DUP1 PUSH1 0x20 MUL PUSH1 0x20 ADD DUP3 ADD PUSH1 0x40 MSTORE DUP1 ISZERO PUSH2 0x5BF JUMPI DUP2 PUSH1 0x20 ADD JUMPDEST PUSH2 0x5AC PUSH2 0x3B96 JUMP JUMPDEST DUP2 MSTORE PUSH1 0x20 ADD SWAP1 PUSH1 0x1 SWAP1 SUB SWAP1 DUP2 PUSH2 0x5A4 JUMPI SWAP1 POP JUMPDEST POP SWAP1 POP PUSH1 0x0 DUP1 JUMPDEST PUSH1 0x72 SLOAD DUP2 LT ISZERO PUSH2 0x7C2 JUMPI PUSH1 0x72 DUP2 DUP2 SLOAD DUP2 LT PUSH2 0x5E3 JUMPI PUSH2 0x5E3 PUSH2 0x46A5 JUMP JUMPDEST PUSH1 0x0 SWAP2 DUP3 MSTORE PUSH1 0x20 SWAP1 SWAP2 KECCAK256 PUSH1 0x5 PUSH1 0x6 SWAP1 SWAP3 MUL ADD ADD SLOAD PUSH1 0xFF AND ISZERO ISZERO PUSH1 0x1 SUB PUSH2 0x7B0 JUMPI PUSH1 0x72 DUP2 DUP2 SLOAD DUP2 LT PUSH2 0x616 JUMPI PUSH2 0x616 PUSH2 0x46A5 JUMP JUMPDEST SWAP1 PUSH1 0x0 MSTORE PUSH1 0x20 PUSH1 0x0 KECCAK256 SWAP1 PUSH1 0x6 MUL ADD PUSH1 0x40 MLOAD DUP1 PUSH1 0xC0 ADD PUSH1 0x40 MSTORE SWAP1 DUP2 PUSH1 0x0 DUP3 ADD SLOAD DUP2 MSTORE PUSH1 0x20 ADD PUSH1 0x1 DUP3 ADD DUP1 SLOAD PUSH2 0x649 SWAP1 PUSH2 0x46EA JUMP JUMPDEST DUP1 PUSH1 0x1F ADD PUSH1 0x20 DUP1 SWAP2 DIV MUL PUSH1 0x20 ADD PUSH1 0x40 MLOAD SWAP1 DUP2 ADD PUSH1 0x40 MSTORE DUP1 SWAP3 SWAP2 SWAP1 DUP2 DUP2 MSTORE PUSH1 0x20 ADD DUP3 DUP1 SLOAD PUSH2 0x675 SWAP1 PUSH2 0x46EA JUMP JUMPDEST DUP1 ISZERO PUSH2 0x6C2 JUMPI DUP1 PUSH1 0x1F LT PUSH2 0x697 JUMPI PUSH2 0x100 DUP1 DUP4 SLOAD DIV MUL DUP4 MSTORE SWAP2 PUSH1 0x20 ADD SWAP2 PUSH2 0x6C2 JUMP JUMPDEST DUP3 ADD SWAP2 SWAP1 PUSH1 0x0 MSTORE PUSH1 0x20 PUSH1 0x0 KECCAK256 SWAP1 JUMPDEST DUP2 SLOAD DUP2 MSTORE SWAP1 PUSH1 0x1 ADD SWAP1 PUSH1 0x20 ADD DUP1 DUP4 GT PUSH2 0x6A5 JUMPI DUP3 SWAP1 SUB PUSH1 0x1F AND DUP3 ADD SWAP2 JUMPDEST POP POP POP POP POP DUP2 MSTORE PUSH1 0x20 ADD PUSH1 0x2 DUP3 ADD SLOAD DUP2 MSTORE PUSH1 0x20 ADD PUSH1 0x3 DUP3 ADD SLOAD DUP2 MSTORE PUSH1 0x20 ADD PUSH1 0x4 DUP3 ADD DUP1 SLOAD PUSH2 0x6EF SWAP1 PUSH2 0x46EA JUMP JUMPDEST DUP1 PUSH1 0x1F ADD PUSH1 0x20 DUP1 SWAP2 DIV MUL PUSH1 0x20 ADD PUSH1 0x40 MLOAD SWAP1 DUP2 ADD PUSH1 0x40 MSTORE DUP1 SWAP3 SWAP2 SWAP1 DUP2 DUP2 MSTORE PUSH1 0x20 ADD DUP3 DUP1 SLOAD PUSH2 0x71B SWAP1 PUSH2 0x46EA JUMP JUMPDEST DUP1 ISZERO PUSH2 0x768 JUMPI DUP1 PUSH1 0x1F LT PUSH2 0x73D JUMPI PUSH2 0x100 DUP1 DUP4 SLOAD DIV MUL DUP4 MSTORE SWAP2 PUSH1 0x20 ADD SWAP2 PUSH2 0x768 JUMP JUMPDEST DUP3 ADD SWAP2 SWAP1 PUSH1 0x0 MSTORE PUSH1 0x20 PUSH1 0x0 KECCAK256 SWAP1 JUMPDEST DUP2 SLOAD DUP2 MSTORE SWAP1 PUSH1 0x1 ADD SWAP1 PUSH1 0x20 ADD DUP1 DUP4 GT PUSH2 0x74B JUMPI DUP3 SWAP1 SUB PUSH1 0x1F AND DUP3 ADD SWAP2 JUMPDEST POP POP POP SWAP2 DUP4 MSTORE POP POP PUSH1 0x5 SWAP2 SWAP1 SWAP2 ADD SLOAD PUSH1 0xFF AND ISZERO ISZERO PUSH1 0x20 SWAP1 SWAP2 ADD MSTORE DUP4 MLOAD DUP5 SWAP1 DUP5 SWAP1 DUP2 LT PUSH2 0x796 JUMPI PUSH2 0x796 PUSH2 0x46A5 JUMP JUMPDEST PUSH1 0x20 MUL PUSH1 0x20 ADD ADD DUP2 SWAP1 MSTORE POP DUP2 DUP1 PUSH2 0x7AC SWAP1 PUSH2 0x46D1 JUMP JUMPDEST SWAP3 POP POP JUMPDEST DUP1 PUSH2 0x7BA DUP2 PUSH2 0x46D1 JUMP JUMPDEST SWAP2 POP POP PUSH2 0x5C6 JUMP JUMPDEST POP SWAP1 SWAP4 SWAP3 POP POP POP JUMP JUMPDEST CALLER PUSH1 0x0 SWAP1 DUP2 MSTORE PUSH1 0x73 PUSH1 0x20 MSTORE PUSH1 0x40 SWAP1 KECCAK256 SLOAD PUSH1 0xFF AND ISZERO ISZERO PUSH1 0x1 EQ PUSH2 0x808 JUMPI PUSH1 0x40 MLOAD PUSH3 0x461BCD PUSH1 0xE5 SHL DUP2 MSTORE PUSH1 0x4 ADD PUSH2 0x7FF SWAP1 PUSH2 0x4724 JUMP JUMPDEST PUSH1 0x40 MLOAD DUP1 SWAP2 SUB SWAP1 REVERT JUMPDEST PUSH1 0x0 PUSH2 0x813 DUP6 PUSH2 0x2CF5 JUMP JUMPDEST SWAP1 POP PUSH1 0x0 PUSH1 0x72 DUP3 DUP2 SLOAD DUP2 LT PUSH2 0x82A JUMPI PUSH2 0x82A PUSH2 0x46A5 JUMP JUMPDEST SWAP1 PUSH1 0x0 MSTORE PUSH1 0x20 PUSH1 0x0 KECCAK256 SWAP1 PUSH1 0x6 MUL ADD PUSH1 0x40 MLOAD DUP1 PUSH1 0xC0 ADD PUSH1 0x40 MSTORE SWAP1 DUP2 PUSH1 0x0 DUP3 ADD SLOAD DUP2 MSTORE PUSH1 0x20 ADD PUSH1 0x1 DUP3 ADD DUP1 SLOAD PUSH2 0x85D SWAP1 PUSH2 0x46EA JUMP JUMPDEST DUP1 PUSH1 0x1F ADD PUSH1 0x20 DUP1 SWAP2 DIV MUL PUSH1 0x20 ADD PUSH1 0x40 MLOAD SWAP1 DUP2 ADD PUSH1 0x40 MSTORE DUP1 SWAP3 SWAP2 SWAP1 DUP2 DUP2 MSTORE PUSH1 0x20 ADD DUP3 DUP1 SLOAD PUSH2 0x889 SWAP1 PUSH2 0x46EA JUMP JUMPDEST DUP1 ISZERO PUSH2 0x8D6 JUMPI DUP1 PUSH1 0x1F LT PUSH2 0x8AB JUMPI PUSH2 0x100 DUP1 DUP4 SLOAD DIV MUL DUP4 MSTORE SWAP2 PUSH1 0x20 ADD SWAP2 PUSH2 0x8D6 JUMP JUMPDEST DUP3 ADD SWAP2 SWAP1 PUSH1 0x0 MSTORE PUSH1 0x20 PUSH1 0x0 KECCAK256 SWAP1 JUMPDEST DUP2 SLOAD DUP2 MSTORE SWAP1 PUSH1 0x1 ADD SWAP1 PUSH1 0x20 ADD DUP1 DUP4 GT PUSH2 0x8B9 JUMPI DUP3 SWAP1 SUB PUSH1 0x1F AND DUP3 ADD SWAP2 JUMPDEST POP POP POP POP POP DUP2 MSTORE PUSH1 0x20 ADD PUSH1 0x2 DUP3 ADD SLOAD DUP2 MSTORE PUSH1 0x20 ADD PUSH1 0x3 DUP3 ADD SLOAD DUP2 MSTORE PUSH1 0x20 ADD PUSH1 0x4 DUP3 ADD DUP1 SLOAD PUSH2 0x903 SWAP1 PUSH2 0x46EA JUMP JUMPDEST DUP1 PUSH1 0x1F ADD PUSH1 0x20 DUP1 SWAP2 DIV MUL PUSH1 0x20 ADD PUSH1 0x40 MLOAD SWAP1 DUP2 ADD PUSH1 0x40 MSTORE DUP1 SWAP3 SWAP2 SWAP1 DUP2 DUP2 MSTORE PUSH1 0x20 ADD DUP3 DUP1 SLOAD PUSH2 0x92F SWAP1 PUSH2 0x46EA JUMP JUMPDEST DUP1 ISZERO PUSH2 0x97C JUMPI DUP1 PUSH1 0x1F LT PUSH2 0x951 JUMPI PUSH2 0x100 DUP1 DUP4 SLOAD DIV MUL DUP4 MSTORE SWAP2 PUSH1 0x20 ADD SWAP2 PUSH2 0x97C JUMP JUMPDEST DUP3 ADD SWAP2 SWAP1 PUSH1 0x0 MSTORE PUSH1 0x20 PUSH1 0x0 KECCAK256 SWAP1 JUMPDEST DUP2 SLOAD DUP2 MSTORE SWAP1 PUSH1 0x1 ADD SWAP1 PUSH1 0x20 ADD DUP1 DUP4 GT PUSH2 0x95F JUMPI DUP3 SWAP1 SUB PUSH1 0x1F AND DUP3 ADD SWAP2 JUMPDEST POP POP POP SWAP2 DUP4 MSTORE POP POP PUSH1 0x5 SWAP2 SWAP1 SWAP2 ADD SLOAD PUSH1 0xFF AND ISZERO ISZERO PUSH1 0x20 SWAP2 DUP3 ADD MSTORE DUP2 ADD MLOAD SWAP1 SWAP2 POP PUSH2 0x9A7 SWAP1 DUP7 SWAP1 PUSH2 0x3573 JUMP JUMPDEST ISZERO DUP1 ISZERO PUSH2 0x9B4 JUMPI POP DUP5 MLOAD ISZERO ISZERO JUMPDEST ISZERO PUSH2 0x9C1 JUMPI PUSH1 0x20 DUP2 ADD DUP6 SWAP1 MSTORE JUMPDEST PUSH2 0x9CF DUP5 DUP3 PUSH1 0x80 ADD MLOAD PUSH2 0x3573 JUMP JUMPDEST ISZERO DUP1 ISZERO PUSH2 0x9DC JUMPI POP DUP4 MLOAD ISZERO ISZERO JUMPDEST ISZERO PUSH2 0x9E9 JUMPI PUSH1 0x80 DUP2 ADD DUP5 SWAP1 MSTORE JUMPDEST DUP1 PUSH1 0xA0 ADD MLOAD ISZERO ISZERO DUP4 ISZERO ISZERO EQ PUSH2 0xA01 JUMPI DUP3 ISZERO ISZERO PUSH1 0xA0 DUP3 ADD MSTORE JUMPDEST DUP1 PUSH1 0x72 DUP4 DUP2 SLOAD DUP2 LT PUSH2 0xA15 JUMPI PUSH2 0xA15 PUSH2 0x46A5 JUMP JUMPDEST SWAP1 PUSH1 0x0 MSTORE PUSH1 0x20 PUSH1 0x0 KECCAK256 SWAP1 PUSH1 0x6 MUL ADD PUSH1 0x0 DUP3 ADD MLOAD DUP2 PUSH1 0x0 ADD SSTORE PUSH1 0x20 DUP3 ADD MLOAD DUP2 PUSH1 0x1 ADD SWAP1 DUP2 PUSH2 0xA42 SWAP2 SWAP1 PUSH2 0x47AA JUMP JUMPDEST POP PUSH1 0x40 DUP3 ADD MLOAD PUSH1 0x2 DUP3 ADD SSTORE PUSH1 0x60 DUP3 ADD MLOAD PUSH1 0x3 DUP3 ADD SSTORE PUSH1 0x80 DUP3 ADD MLOAD PUSH1 0x4 DUP3 ADD SWAP1 PUSH2 0xA6B SWAP1 DUP3 PUSH2 0x47AA JUMP JUMPDEST POP PUSH1 0xA0 SWAP2 SWAP1 SWAP2 ADD MLOAD PUSH1 0x5 SWAP1 SWAP2 ADD DUP1 SLOAD PUSH1 0xFF NOT AND SWAP2 ISZERO ISZERO SWAP2 SWAP1 SWAP2 OR SWAP1 SSTORE PUSH1 0x72 DUP1 SLOAD DUP4 SWAP1 DUP2 LT PUSH2 0xA9B JUMPI PUSH2 0xA9B PUSH2 0x46A5 JUMP JUMPDEST PUSH1 0x0 SWAP2 DUP3 MSTORE PUSH1 0x20 DUP1 DUP4 KECCAK256 DUP10 DUP5 MSTORE PUSH1 0x7A SWAP1 SWAP2 MSTORE PUSH1 0x40 SWAP1 SWAP3 KECCAK256 PUSH1 0x6 SWAP1 SWAP2 MUL SWAP1 SWAP2 ADD DUP1 SLOAD DUP3 SSTORE SWAP1 PUSH1 0x1 DUP1 DUP3 ADD SWAP1 PUSH2 0xAD1 SWAP1 DUP5 ADD DUP3 PUSH2 0x4869 JUMP JUMPDEST POP PUSH1 0x2 DUP3 ADD SLOAD DUP2 PUSH1 0x2 ADD SSTORE PUSH1 0x3 DUP3 ADD SLOAD DUP2 PUSH1 0x3 ADD SSTORE PUSH1 0x4 DUP3 ADD DUP2 PUSH1 0x4 ADD SWAP1 DUP2 PUSH2 0xAFA SWAP2 SWAP1 PUSH2 0x4869 JUMP JUMPDEST POP PUSH1 0x5 SWAP2 DUP3 ADD SLOAD SWAP2 ADD DUP1 SLOAD PUSH1 0xFF NOT AND PUSH1 0xFF SWAP1 SWAP3 AND ISZERO ISZERO SWAP2 SWAP1 SWAP2 OR SWAP1 SSTORE POP POP POP POP POP POP JUMP JUMPDEST PUSH1 0x77 SLOAD PUSH1 0x40 MLOAD PUSH4 0x2717CA7 PUSH1 0xE6 SHL DUP2 MSTORE PUSH1 0x1 PUSH1 0x1 PUSH1 0xA0 SHL SUB DUP4 DUP2 AND PUSH1 0x4 DUP4 ADD MSTORE PUSH1 0x0 SWAP3 AND SWAP1 PUSH4 0x9C5F29C0 SWAP1 PUSH1 0x24 ADD PUSH1 0x20 PUSH1 0x40 MLOAD DUP1 DUP4 SUB DUP2 DUP7 GAS STATICCALL ISZERO DUP1 ISZERO PUSH2 0xB69 JUMPI RETURNDATASIZE PUSH1 0x0 DUP1 RETURNDATACOPY RETURNDATASIZE PUSH1 0x0 REVERT JUMPDEST POP POP POP POP PUSH1 0x40 MLOAD RETURNDATASIZE PUSH1 0x1F NOT PUSH1 0x1F DUP3 ADD AND DUP3 ADD DUP1 PUSH1 0x40 MSTORE POP DUP2 ADD SWAP1 PUSH2 0xB8D SWAP2 SWAP1 PUSH2 0x493B JUMP JUMPDEST DUP1 PUSH2 0xC0D JUMPI POP PUSH1 0x77 SLOAD PUSH1 0x40 MLOAD PUSH4 0x16C47393 PUSH1 0xE2 SHL DUP2 MSTORE PUSH1 0x4 DUP2 ADD DUP6 SWAP1 MSTORE PUSH1 0x0 SWAP2 PUSH1 0x1 PUSH1 0x1 PUSH1 0xA0 SHL SUB AND SWAP1 PUSH4 0x5B11CE4C SWAP1 PUSH1 0x24 ADD PUSH1 0x20 PUSH1 0x40 MLOAD DUP1 DUP4 SUB DUP2 DUP7 GAS STATICCALL ISZERO DUP1 ISZERO PUSH2 0xBDD JUMPI RETURNDATASIZE PUSH1 0x0 DUP1 RETURNDATACOPY RETURNDATASIZE PUSH1 0x0 REVERT JUMPDEST POP POP POP POP PUSH1 0x40 MLOAD RETURNDATASIZE PUSH1 0x1F NOT PUSH1 0x1F DUP3 ADD AND DUP3 ADD DUP1 PUSH1 0x40 MSTORE POP DUP2 ADD SWAP1 PUSH2 0xC01 SWAP2 SWAP1 PUSH2 0x4958 JUMP JUMPDEST PUSH1 0x1 PUSH1 0x1 PUSH1 0xA0 SHL SUB AND EQ ISZERO JUMPDEST PUSH2 0xC59 JUMPI PUSH1 0x40 MLOAD PUSH3 0x461BCD PUSH1 0xE5 SHL DUP2 MSTORE PUSH1 0x20 PUSH1 0x4 DUP3 ADD MSTORE PUSH1 0x18 PUSH1 0x24 DUP3 ADD MSTORE PUSH32 0x4E6F6E206D656D6265722063616E206E6F74206F726465720000000000000000 PUSH1 0x44 DUP3 ADD MSTORE PUSH1 0x64 ADD PUSH2 0x7FF JUMP JUMPDEST DUP9 MLOAD DUP9 MLOAD EQ DUP1 ISZERO PUSH2 0xC6B JUMPI POP DUP7 MLOAD DUP9 MLOAD EQ JUMPDEST DUP1 ISZERO PUSH2 0xC77 JUMPI POP DUP7 MLOAD DUP6 EQ JUMPDEST DUP1 ISZERO PUSH2 0xC83 JUMPI POP DUP4 MLOAD DUP6 EQ JUMPDEST PUSH2 0xCCF JUMPI PUSH1 0x40 MLOAD PUSH3 0x461BCD PUSH1 0xE5 SHL DUP2 MSTORE PUSH1 0x20 PUSH1 0x4 DUP3 ADD MSTORE PUSH1 0x1B PUSH1 0x24 DUP3 ADD MSTORE PUSH32 0x6C656E67746873206F6620617272617973206E6F7420657175616C0000000000 PUSH1 0x44 DUP3 ADD MSTORE PUSH1 0x64 ADD PUSH2 0x7FF JUMP JUMPDEST PUSH1 0x0 DUP1 PUSH1 0x0 JUMPDEST DUP12 MLOAD DUP2 LT ISZERO PUSH2 0xE2F JUMPI PUSH1 0x0 PUSH1 0x7A PUSH1 0x0 DUP15 DUP5 DUP2 MLOAD DUP2 LT PUSH2 0xCF6 JUMPI PUSH2 0xCF6 PUSH2 0x46A5 JUMP JUMPDEST PUSH1 0x20 MUL PUSH1 0x20 ADD ADD MLOAD DUP2 MSTORE PUSH1 0x20 ADD SWAP1 DUP2 MSTORE PUSH1 0x20 ADD PUSH1 0x0 KECCAK256 PUSH1 0x2 ADD SLOAD GT PUSH2 0xD5D JUMPI PUSH1 0x40 MLOAD PUSH3 0x461BCD PUSH1 0xE5 SHL DUP2 MSTORE PUSH1 0x20 PUSH1 0x4 DUP3 ADD MSTORE PUSH1 0x1B PUSH1 0x24 DUP3 ADD MSTORE PUSH32 0x2070726F6475637420696420646F6573206E6F74206578697374200000000000 PUSH1 0x44 DUP3 ADD MSTORE PUSH1 0x64 ADD PUSH2 0x7FF JUMP JUMPDEST DUP11 DUP2 DUP2 MLOAD DUP2 LT PUSH2 0xD6F JUMPI PUSH2 0xD6F PUSH2 0x46A5 JUMP JUMPDEST PUSH1 0x20 MUL PUSH1 0x20 ADD ADD MLOAD PUSH1 0x7A PUSH1 0x0 DUP15 DUP5 DUP2 MLOAD DUP2 LT PUSH2 0xD8D JUMPI PUSH2 0xD8D PUSH2 0x46A5 JUMP JUMPDEST PUSH1 0x20 MUL PUSH1 0x20 ADD ADD MLOAD DUP2 MSTORE PUSH1 0x20 ADD SWAP1 DUP2 MSTORE PUSH1 0x20 ADD PUSH1 0x0 KECCAK256 PUSH1 0x2 ADD SLOAD PUSH2 0xDB1 SWAP2 SWAP1 PUSH2 0x4975 JUMP JUMPDEST PUSH2 0xDBB SWAP1 DUP5 PUSH2 0x498C JUMP JUMPDEST SWAP3 POP DUP11 DUP2 DUP2 MLOAD DUP2 LT PUSH2 0xDCF JUMPI PUSH2 0xDCF PUSH2 0x46A5 JUMP JUMPDEST PUSH1 0x20 MUL PUSH1 0x20 ADD ADD MLOAD PUSH1 0x7A PUSH1 0x0 DUP15 DUP5 DUP2 MLOAD DUP2 LT PUSH2 0xDED JUMPI PUSH2 0xDED PUSH2 0x46A5 JUMP JUMPDEST PUSH1 0x20 MUL PUSH1 0x20 ADD ADD MLOAD DUP2 MSTORE PUSH1 0x20 ADD SWAP1 DUP2 MSTORE PUSH1 0x20 ADD PUSH1 0x0 KECCAK256 PUSH1 0x3 ADD SLOAD PUSH2 0xE11 SWAP2 SWAP1 PUSH2 0x4975 JUMP JUMPDEST PUSH2 0xE1B SWAP1 DUP4 PUSH2 0x498C JUMP JUMPDEST SWAP2 POP DUP1 PUSH2 0xE27 DUP2 PUSH2 0x46D1 JUMP JUMPDEST SWAP2 POP POP PUSH2 0xCD5 JUMP JUMPDEST POP DUP11 MLOAD PUSH1 0x40 MLOAD PUSH12 0xFFFFFFFFFFFFFFFFFFFFFFFF NOT CALLER PUSH1 0x60 SWAP1 DUP2 SHL DUP3 AND PUSH1 0x20 DUP5 ADD MSTORE DUP8 SWAP1 SHL AND PUSH1 0x34 DUP3 ADD MSTORE PUSH1 0x48 DUP2 ADD SWAP2 SWAP1 SWAP2 MSTORE TIMESTAMP PUSH1 0x68 DUP3 ADD MSTORE PUSH1 0x0 SWAP1 PUSH1 0x88 ADD PUSH1 0x40 MLOAD PUSH1 0x20 DUP2 DUP4 SUB SUB DUP2 MSTORE SWAP1 PUSH1 0x40 MSTORE DUP1 MLOAD SWAP1 PUSH1 0x20 ADD KECCAK256 SWAP1 POP PUSH1 0x0 PUSH2 0xE95 DUP14 DUP14 DUP14 DUP14 DUP14 DUP14 PUSH2 0x3607 JUMP JUMPDEST SWAP1 POP PUSH1 0x79 PUSH1 0x0 DUP8 PUSH1 0x1 PUSH1 0x1 PUSH1 0xA0 SHL SUB AND PUSH1 0x1 PUSH1 0x1 PUSH1 0xA0 SHL SUB AND DUP2 MSTORE PUSH1 0x20 ADD SWAP1 DUP2 MSTORE PUSH1 0x20 ADD PUSH1 0x0 KECCAK256 DUP3 SWAP1 DUP1 PUSH1 0x1 DUP2 SLOAD ADD DUP1 DUP3 SSTORE DUP1 SWAP2 POP POP PUSH1 0x1 SWAP1 SUB SWAP1 PUSH1 0x0 MSTORE PUSH1 0x20 PUSH1 0x0 KECCAK256 ADD PUSH1 0x0 SWAP1 SWAP2 SWAP1 SWAP2 SWAP1 SWAP2 POP SSTORE DUP2 PUSH1 0x7B PUSH1 0x0 DUP5 DUP2 MSTORE PUSH1 0x20 ADD SWAP1 DUP2 MSTORE PUSH1 0x20 ADD PUSH1 0x0 KECCAK256 PUSH1 0x0 ADD DUP2 SWAP1 SSTORE POP DUP6 PUSH1 0x7B PUSH1 0x0 DUP5 DUP2 MSTORE PUSH1 0x20 ADD SWAP1 DUP2 MSTORE PUSH1 0x20 ADD PUSH1 0x0 KECCAK256 PUSH1 0x1 ADD PUSH1 0x0 PUSH2 0x100 EXP DUP2 SLOAD DUP2 PUSH1 0x1 PUSH1 0x1 PUSH1 0xA0 SHL SUB MUL NOT AND SWAP1 DUP4 PUSH1 0x1 PUSH1 0x1 PUSH1 0xA0 SHL SUB AND MUL OR SWAP1 SSTORE POP DUP13 PUSH1 0x7B PUSH1 0x0 DUP5 DUP2 MSTORE PUSH1 0x20 ADD SWAP1 DUP2 MSTORE PUSH1 0x20 ADD PUSH1 0x0 KECCAK256 PUSH1 0x2 ADD SWAP1 DUP1 MLOAD SWAP1 PUSH1 0x20 ADD SWAP1 PUSH2 0xF63 SWAP3 SWAP2 SWAP1 PUSH2 0x3BD1 JUMP JUMPDEST POP PUSH1 0x0 DUP3 DUP2 MSTORE PUSH1 0x7B PUSH1 0x20 SWAP1 DUP2 MSTORE PUSH1 0x40 SWAP1 SWAP2 KECCAK256 DUP14 MLOAD PUSH2 0xF89 SWAP3 PUSH1 0x3 SWAP1 SWAP3 ADD SWAP2 DUP16 ADD SWAP1 PUSH2 0x3BD1 JUMP JUMPDEST POP PUSH1 0x0 DUP3 DUP2 MSTORE PUSH1 0x7B PUSH1 0x20 SWAP1 DUP2 MSTORE PUSH1 0x40 SWAP1 SWAP2 KECCAK256 TIMESTAMP PUSH1 0x4 DUP3 ADD SSTORE DUP3 MLOAD PUSH2 0xFB5 SWAP3 PUSH1 0x5 SWAP1 SWAP3 ADD SWAP2 DUP5 ADD SWAP1 PUSH2 0x3BD1 JUMP JUMPDEST POP PUSH1 0x0 DUP3 DUP2 MSTORE PUSH1 0x7B PUSH1 0x20 MSTORE PUSH1 0x40 SWAP1 DUP2 SWAP1 KECCAK256 PUSH1 0xC ADD DUP1 SLOAD PUSH1 0x1 PUSH1 0x1 PUSH1 0xA0 SHL SUB NOT AND CALLER OR SWAP1 SSTORE PUSH1 0x77 SLOAD SWAP1 MLOAD PUSH4 0x2717CA7 PUSH1 0xE6 SHL DUP2 MSTORE PUSH1 0x1 PUSH1 0x1 PUSH1 0xA0 SHL SUB DUP9 DUP2 AND PUSH1 0x4 DUP4 ADD MSTORE DUP9 SWAP3 DUP8 SWAP3 SWAP2 AND SWAP1 PUSH4 0x9C5F29C0 SWAP1 PUSH1 0x24 ADD PUSH1 0x20 PUSH1 0x40 MLOAD DUP1 DUP4 SUB DUP2 DUP7 GAS STATICCALL ISZERO DUP1 ISZERO PUSH2 0x1025 JUMPI RETURNDATASIZE PUSH1 0x0 DUP1 RETURNDATACOPY RETURNDATASIZE PUSH1 0x0 REVERT JUMPDEST POP POP POP POP PUSH1 0x40 MLOAD RETURNDATASIZE PUSH1 0x1F NOT PUSH1 0x1F DUP3 ADD AND DUP3 ADD DUP1 PUSH1 0x40 MSTORE POP DUP2 ADD SWAP1 PUSH2 0x1049 SWAP2 SWAP1 PUSH2 0x493B JUMP JUMPDEST PUSH2 0x10D8 JUMPI PUSH1 0x64 PUSH2 0x105A DUP7 PUSH1 0x5C PUSH2 0x4975 JUMP JUMPDEST PUSH2 0x1064 SWAP2 SWAP1 PUSH2 0x499F JUMP JUMPDEST PUSH1 0x77 SLOAD PUSH1 0x40 MLOAD PUSH4 0x16C47393 PUSH1 0xE2 SHL DUP2 MSTORE PUSH1 0x4 DUP2 ADD DUP13 SWAP1 MSTORE SWAP2 SWAP7 POP DUP7 SWAP3 POP PUSH1 0x1 PUSH1 0x1 PUSH1 0xA0 SHL SUB AND SWAP1 PUSH4 0x5B11CE4C SWAP1 PUSH1 0x24 ADD PUSH1 0x20 PUSH1 0x40 MLOAD DUP1 DUP4 SUB DUP2 DUP7 GAS STATICCALL ISZERO DUP1 ISZERO PUSH2 0x10B1 JUMPI RETURNDATASIZE PUSH1 0x0 DUP1 RETURNDATACOPY RETURNDATASIZE PUSH1 0x0 REVERT JUMPDEST POP POP POP POP PUSH1 0x40 MLOAD RETURNDATASIZE PUSH1 0x1F NOT PUSH1 0x1F DUP3 ADD AND DUP3 ADD DUP1 PUSH1 0x40 MSTORE POP DUP2 ADD SWAP1 PUSH2 0x10D5 SWAP2 SWAP1 PUSH2 0x4958 JUMP JUMPDEST SWAP2 POP JUMPDEST PUSH1 0x75 SLOAD PUSH1 0x40 MLOAD PUSH4 0x70A08231 PUSH1 0xE0 SHL DUP2 MSTORE CALLER PUSH1 0x4 DUP3 ADD MSTORE DUP3 SWAP2 PUSH1 0x1 PUSH1 0x1 PUSH1 0xA0 SHL SUB AND SWAP1 PUSH4 0x70A08231 SWAP1 PUSH1 0x24 ADD PUSH1 0x20 PUSH1 0x40 MLOAD DUP1 DUP4 SUB DUP2 DUP7 GAS STATICCALL ISZERO DUP1 ISZERO PUSH2 0x1120 JUMPI RETURNDATASIZE PUSH1 0x0 DUP1 RETURNDATACOPY RETURNDATASIZE PUSH1 0x0 REVERT JUMPDEST POP POP POP POP PUSH1 0x40 MLOAD RETURNDATASIZE PUSH1 0x1F NOT PUSH1 0x1F DUP3 ADD AND DUP3 ADD DUP1 PUSH1 0x40 MSTORE POP DUP2 ADD SWAP1 PUSH2 0x1144 SWAP2 SWAP1 PUSH2 0x49C1 JUMP JUMPDEST LT ISZERO PUSH2 0x1192 JUMPI PUSH1 0x40 MLOAD PUSH3 0x461BCD PUSH1 0xE5 SHL DUP2 MSTORE PUSH1 0x20 PUSH1 0x4 DUP3 ADD MSTORE PUSH1 0x19 PUSH1 0x24 DUP3 ADD MSTORE PUSH32 0x4B76656E747572653A20496E76616C69642042616C616E636500000000000000 PUSH1 0x44 DUP3 ADD MSTORE PUSH1 0x64 ADD PUSH2 0x7FF JUMP JUMPDEST PUSH1 0x75 SLOAD PUSH1 0x76 SLOAD PUSH1 0x40 MLOAD PUSH4 0x23B872DD PUSH1 0xE0 SHL DUP2 MSTORE CALLER PUSH1 0x4 DUP3 ADD MSTORE PUSH1 0x1 PUSH1 0x1 PUSH1 0xA0 SHL SUB SWAP2 DUP3 AND PUSH1 0x24 DUP3 ADD MSTORE PUSH1 0x44 DUP2 ADD DUP5 SWAP1 MSTORE SWAP2 AND SWAP1 PUSH4 0x23B872DD SWAP1 PUSH1 0x64 ADD PUSH1 0x20 PUSH1 0x40 MLOAD DUP1 DUP4 SUB DUP2 PUSH1 0x0 DUP8 GAS CALL ISZERO DUP1 ISZERO PUSH2 0x11ED JUMPI RETURNDATASIZE PUSH1 0x0 DUP1 RETURNDATACOPY RETURNDATASIZE PUSH1 0x0 REVERT JUMPDEST POP POP POP POP PUSH1 0x40 MLOAD RETURNDATASIZE PUSH1 0x1F NOT PUSH1 0x1F DUP3 ADD AND DUP3 ADD DUP1 PUSH1 0x40 MSTORE POP DUP2 ADD SWAP1 PUSH2 0x1211 SWAP2 SWAP1 PUSH2 0x493B JUMP JUMPDEST POP PUSH1 0x77 SLOAD PUSH1 0x40 MLOAD PUSH4 0x2717CA7 PUSH1 0xE6 SHL DUP2 MSTORE PUSH1 0x1 PUSH1 0x1 PUSH1 0xA0 SHL SUB DUP11 DUP2 AND PUSH1 0x4 DUP4 ADD MSTORE SWAP1 SWAP2 AND SWAP1 PUSH4 0x9C5F29C0 SWAP1 PUSH1 0x24 ADD PUSH1 0x20 PUSH1 0x40 MLOAD DUP1 DUP4 SUB DUP2 DUP7 GAS STATICCALL ISZERO DUP1 ISZERO PUSH2 0x125C JUMPI RETURNDATASIZE PUSH1 0x0 DUP1 RETURNDATACOPY RETURNDATASIZE PUSH1 0x0 REVERT JUMPDEST POP POP POP POP PUSH1 0x40 MLOAD RETURNDATASIZE PUSH1 0x1F NOT PUSH1 0x1F DUP3 ADD AND DUP3 ADD DUP1 PUSH1 0x40 MSTORE POP DUP2 ADD SWAP1 PUSH2 0x1280 SWAP2 SWAP1 PUSH2 0x493B JUMP JUMPDEST PUSH2 0x12FF JUMPI PUSH1 0x77 SLOAD PUSH1 0x1 PUSH1 0x1 PUSH1 0xA0 SHL SUB AND PUSH4 0x499642F8 DUP4 PUSH2 0x12A0 DUP10 DUP6 PUSH2 0x49DA JUMP JUMPDEST PUSH1 0x40 MLOAD PUSH1 0x1 PUSH1 0x1 PUSH1 0xE0 SHL SUB NOT PUSH1 0xE0 DUP6 SWAP1 SHL AND DUP2 MSTORE PUSH1 0x1 PUSH1 0x1 PUSH1 0xA0 SHL SUB SWAP1 SWAP3 AND PUSH1 0x4 DUP4 ADD MSTORE PUSH1 0x24 DUP3 ADD MSTORE PUSH1 0x44 ADD PUSH1 0x0 PUSH1 0x40 MLOAD DUP1 DUP4 SUB DUP2 PUSH1 0x0 DUP8 DUP1 EXTCODESIZE ISZERO DUP1 ISZERO PUSH2 0x12E6 JUMPI PUSH1 0x0 DUP1 REVERT JUMPDEST POP GAS CALL ISZERO DUP1 ISZERO PUSH2 0x12FA JUMPI RETURNDATASIZE PUSH1 0x0 DUP1 RETURNDATACOPY RETURNDATASIZE PUSH1 0x0 REVERT JUMPDEST POP POP POP POP JUMPDEST PUSH1 0x77 SLOAD PUSH1 0x1 PUSH1 0x1 PUSH1 0xA0 SHL SUB AND PUSH4 0x7C148A48 DUP4 DUP9 PUSH2 0x131C DUP2 DUP11 PUSH2 0x49DA JUMP JUMPDEST PUSH1 0x40 MLOAD PUSH1 0x1 PUSH1 0x1 PUSH1 0xE0 SHL SUB NOT PUSH1 0xE0 DUP7 SWAP1 SHL AND DUP2 MSTORE PUSH1 0x1 PUSH1 0x1 PUSH1 0xA0 SHL SUB SWAP1 SWAP4 AND PUSH1 0x4 DUP5 ADD MSTORE PUSH1 0x24 DUP4 ADD SWAP2 SWAP1 SWAP2 MSTORE PUSH1 0x44 DUP3 ADD MSTORE PUSH1 0x64 ADD PUSH1 0x0 PUSH1 0x40 MLOAD DUP1 DUP4 SUB DUP2 PUSH1 0x0 DUP8 DUP1 EXTCODESIZE ISZERO DUP1 ISZERO PUSH2 0x136A JUMPI PUSH1 0x0 DUP1 REVERT JUMPDEST POP GAS CALL ISZERO DUP1 ISZERO PUSH2 0x137E JUMPI RETURNDATASIZE PUSH1 0x0 DUP1 RETURNDATACOPY RETURNDATASIZE PUSH1 0x0 REVERT JUMPDEST POP SWAP6 SWAP9 POP POP POP POP POP POP POP POP POP SWAP9 SWAP8 POP POP POP POP POP POP POP POP JUMP JUMPDEST PUSH1 0x7B PUSH1 0x20 MSTORE PUSH1 0x0 SWAP1 DUP2 MSTORE PUSH1 0x40 SWAP1 DUP2 SWAP1 KECCAK256 DUP1 SLOAD PUSH1 0x1 DUP3 ADD SLOAD PUSH1 0x4 DUP4 ADD SLOAD DUP5 MLOAD PUSH1 0xC0 DUP2 ADD SWAP1 SWAP6 MSTORE PUSH1 0x6 DUP5 ADD DUP1 SLOAD SWAP4 SWAP6 PUSH1 0x1 PUSH1 0x1 PUSH1 0xA0 SHL SUB SWAP1 SWAP4 AND SWAP5 SWAP2 SWAP4 SWAP2 SWAP3 SWAP2 DUP3 SWAP1 DUP3 SWAP1 PUSH2 0x13E1 SWAP1 PUSH2 0x46EA JUMP JUMPDEST DUP1 PUSH1 0x1F ADD PUSH1 0x20 DUP1 SWAP2 DIV MUL PUSH1 0x20 ADD PUSH1 0x40 MLOAD SWAP1 DUP2 ADD PUSH1 0x40 MSTORE DUP1 SWAP3 SWAP2 SWAP1 DUP2 DUP2 MSTORE PUSH1 0x20 ADD DUP3 DUP1 SLOAD PUSH2 0x140D SWAP1 PUSH2 0x46EA JUMP JUMPDEST DUP1 ISZERO PUSH2 0x145A JUMPI DUP1 PUSH1 0x1F LT PUSH2 0x142F JUMPI PUSH2 0x100 DUP1 DUP4 SLOAD DIV MUL DUP4 MSTORE SWAP2 PUSH1 0x20 ADD SWAP2 PUSH2 0x145A JUMP JUMPDEST DUP3 ADD SWAP2 SWAP1 PUSH1 0x0 MSTORE PUSH1 0x20 PUSH1 0x0 KECCAK256 SWAP1 JUMPDEST DUP2 SLOAD DUP2 MSTORE SWAP1 PUSH1 0x1 ADD SWAP1 PUSH1 0x20 ADD DUP1 DUP4 GT PUSH2 0x143D JUMPI DUP3 SWAP1 SUB PUSH1 0x1F AND DUP3 ADD SWAP2 JUMPDEST POP POP POP POP POP DUP2 MSTORE PUSH1 0x20 ADD PUSH1 0x1 DUP3 ADD DUP1 SLOAD PUSH2 0x1473 SWAP1 PUSH2 0x46EA JUMP JUMPDEST DUP1 PUSH1 0x1F ADD PUSH1 0x20 DUP1 SWAP2 DIV MUL PUSH1 0x20 ADD PUSH1 0x40 MLOAD SWAP1 DUP2 ADD PUSH1 0x40 MSTORE DUP1 SWAP3 SWAP2 SWAP1 DUP2 DUP2 MSTORE PUSH1 0x20 ADD DUP3 DUP1 SLOAD PUSH2 0x149F SWAP1 PUSH2 0x46EA JUMP JUMPDEST DUP1 ISZERO PUSH2 0x14EC JUMPI DUP1 PUSH1 0x1F LT PUSH2 0x14C1 JUMPI PUSH2 0x100 DUP1 DUP4 SLOAD DIV MUL DUP4 MSTORE SWAP2 PUSH1 0x20 ADD SWAP2 PUSH2 0x14EC JUMP JUMPDEST DUP3 ADD SWAP2 SWAP1 PUSH1 0x0 MSTORE PUSH1 0x20 PUSH1 0x0 KECCAK256 SWAP1 JUMPDEST DUP2 SLOAD DUP2 MSTORE SWAP1 PUSH1 0x1 ADD SWAP1 PUSH1 0x20 ADD DUP1 DUP4 GT PUSH2 0x14CF JUMPI DUP3 SWAP1 SUB PUSH1 0x1F AND DUP3 ADD SWAP2 JUMPDEST POP POP POP POP POP DUP2 MSTORE PUSH1 0x20 ADD PUSH1 0x2 DUP3 ADD DUP1 SLOAD PUSH2 0x1505 SWAP1 PUSH2 0x46EA JUMP JUMPDEST DUP1 PUSH1 0x1F ADD PUSH1 0x20 DUP1 SWAP2 DIV MUL PUSH1 0x20 ADD PUSH1 0x40 MLOAD SWAP1 DUP2 ADD PUSH1 0x40 MSTORE DUP1 SWAP3 SWAP2 SWAP1 DUP2 DUP2 MSTORE PUSH1 0x20 ADD DUP3 DUP1 SLOAD PUSH2 0x1531 SWAP1 PUSH2 0x46EA JUMP JUMPDEST DUP1 ISZERO PUSH2 0x157E JUMPI DUP1 PUSH1 0x1F LT PUSH2 0x1553 JUMPI PUSH2 0x100 DUP1 DUP4 SLOAD DIV MUL DUP4 MSTORE SWAP2 PUSH1 0x20 ADD SWAP2 PUSH2 0x157E JUMP JUMPDEST DUP3 ADD SWAP2 SWAP1 PUSH1 0x0 MSTORE PUSH1 0x20 PUSH1 0x0 KECCAK256 SWAP1 JUMPDEST DUP2 SLOAD DUP2 MSTORE SWAP1 PUSH1 0x1 ADD SWAP1 PUSH1 0x20 ADD DUP1 DUP4 GT PUSH2 0x1561 JUMPI DUP3 SWAP1 SUB PUSH1 0x1F AND DUP3 ADD SWAP2 JUMPDEST POP POP POP POP POP DUP2 MSTORE PUSH1 0x20 ADD PUSH1 0x3 DUP3 ADD DUP1 SLOAD PUSH2 0x1597 SWAP1 PUSH2 0x46EA JUMP JUMPDEST DUP1 PUSH1 0x1F ADD PUSH1 0x20 DUP1 SWAP2 DIV MUL PUSH1 0x20 ADD PUSH1 0x40 MLOAD SWAP1 DUP2 ADD PUSH1 0x40 MSTORE DUP1 SWAP3 SWAP2 SWAP1 DUP2 DUP2 MSTORE PUSH1 0x20 ADD DUP3 DUP1 SLOAD PUSH2 0x15C3 SWAP1 PUSH2 0x46EA JUMP JUMPDEST DUP1 ISZERO PUSH2 0x1610 JUMPI DUP1 PUSH1 0x1F LT PUSH2 0x15E5 JUMPI PUSH2 0x100 DUP1 DUP4 SLOAD DIV MUL DUP4 MSTORE SWAP2 PUSH1 0x20 ADD SWAP2 PUSH2 0x1610 JUMP JUMPDEST DUP3 ADD SWAP2 SWAP1 PUSH1 0x0 MSTORE PUSH1 0x20 PUSH1 0x0 KECCAK256 SWAP1 JUMPDEST DUP2 SLOAD DUP2 MSTORE SWAP1 PUSH1 0x1 ADD SWAP1 PUSH1 0x20 ADD DUP1 DUP4 GT PUSH2 0x15F3 JUMPI DUP3 SWAP1 SUB PUSH1 0x1F AND DUP3 ADD SWAP2 JUMPDEST POP POP POP POP POP DUP2 MSTORE PUSH1 0x20 ADD PUSH1 0x4 DUP3 ADD DUP1 SLOAD PUSH2 0x1629 SWAP1 PUSH2 0x46EA JUMP JUMPDEST DUP1 PUSH1 0x1F ADD PUSH1 0x20 DUP1 SWAP2 DIV MUL PUSH1 0x20 ADD PUSH1 0x40 MLOAD SWAP1 DUP2 ADD PUSH1 0x40 MSTORE DUP1 SWAP3 SWAP2 SWAP1 DUP2 DUP2 MSTORE PUSH1 0x20 ADD DUP3 DUP1 SLOAD PUSH2 0x1655 SWAP1 PUSH2 0x46EA JUMP JUMPDEST DUP1 ISZERO PUSH2 0x16A2 JUMPI DUP1 PUSH1 0x1F LT PUSH2 0x1677 JUMPI PUSH2 0x100 DUP1 DUP4 SLOAD DIV MUL DUP4 MSTORE SWAP2 PUSH1 0x20 ADD SWAP2 PUSH2 0x16A2 JUMP JUMPDEST DUP3 ADD SWAP2 SWAP1 PUSH1 0x0 MSTORE PUSH1 0x20 PUSH1 0x0 KECCAK256 SWAP1 JUMPDEST DUP2 SLOAD DUP2 MSTORE SWAP1 PUSH1 0x1 ADD SWAP1 PUSH1 0x20 ADD DUP1 DUP4 GT PUSH2 0x1685 JUMPI DUP3 SWAP1 SUB PUSH1 0x1F AND DUP3 ADD SWAP2 JUMPDEST POP POP POP SWAP2 DUP4 MSTORE POP POP PUSH1 0x5 SWAP2 SWAP1 SWAP2 ADD SLOAD PUSH1 0x20 SWAP1 SWAP2 ADD MSTORE PUSH1 0xC SWAP1 SWAP2 ADD SLOAD PUSH1 0x1 PUSH1 0x1 PUSH1 0xA0 SHL SUB AND DUP6 JUMP JUMPDEST PUSH2 0x16D1 PUSH2 0x3842 JUMP JUMPDEST PUSH1 0x78 DUP1 SLOAD PUSH1 0x1 PUSH1 0x1 PUSH1 0xA0 SHL SUB NOT AND PUSH1 0x1 PUSH1 0x1 PUSH1 0xA0 SHL SUB SWAP3 SWAP1 SWAP3 AND SWAP2 SWAP1 SWAP2 OR SWAP1 SSTORE JUMP JUMPDEST PUSH2 0x16FB PUSH2 0x3842 JUMP JUMPDEST PUSH1 0x77 DUP1 SLOAD PUSH1 0x1 PUSH1 0x1 PUSH1 0xA0 SHL SUB NOT AND PUSH1 0x1 PUSH1 0x1 PUSH1 0xA0 SHL SUB SWAP3 SWAP1 SWAP3 AND SWAP2 SWAP1 SWAP2 OR SWAP1 SSTORE JUMP JUMPDEST CALLER PUSH1 0x0 SWAP1 DUP2 MSTORE PUSH1 0x73 PUSH1 0x20 MSTORE PUSH1 0x40 SWAP1 KECCAK256 SLOAD PUSH1 0xFF AND ISZERO ISZERO PUSH1 0x1 EQ PUSH2 0x1751 JUMPI PUSH1 0x40 MLOAD PUSH3 0x461BCD PUSH1 0xE5 SHL DUP2 MSTORE PUSH1 0x4 ADD PUSH2 0x7FF SWAP1 PUSH2 0x4724 JUMP JUMPDEST PUSH1 0x0 DUP6 DUP6 DUP6 DUP6 PUSH1 0x40 MLOAD PUSH1 0x20 ADD PUSH2 0x176A SWAP5 SWAP4 SWAP3 SWAP2 SWAP1 PUSH2 0x49ED JUMP JUMPDEST PUSH1 0x40 DUP1 MLOAD PUSH1 0x1F NOT DUP2 DUP5 SUB ADD DUP2 MSTORE DUP3 DUP3 MSTORE DUP1 MLOAD PUSH1 0x20 SWAP2 DUP3 ADD KECCAK256 PUSH1 0xC0 DUP5 ADD DUP4 MSTORE DUP1 DUP5 MSTORE SWAP1 DUP4 ADD DUP10 DUP2 MSTORE SWAP2 DUP4 ADD DUP9 SWAP1 MSTORE PUSH1 0x60 DUP4 ADD DUP8 SWAP1 MSTORE PUSH1 0x80 DUP4 ADD DUP7 SWAP1 MSTORE DUP5 ISZERO ISZERO PUSH1 0xA0 DUP5 ADD MSTORE PUSH1 0x72 DUP1 SLOAD PUSH1 0x1 DUP2 ADD DUP3 SSTORE PUSH1 0x0 SWAP2 SWAP1 SWAP2 MSTORE DUP4 MLOAD PUSH1 0x6 SWAP1 SWAP2 MUL PUSH32 0xDFFBD64CC7C1A7EB27984335D9416D51137A03D3FABEC7141025C62663253FE1 DUP2 ADD SWAP2 DUP3 SSTORE SWAP3 MLOAD SWAP2 SWAP5 POP DUP4 SWAP3 SWAP1 SWAP2 PUSH32 0xDFFBD64CC7C1A7EB27984335D9416D51137A03D3FABEC7141025C62663253FE2 SWAP1 SWAP2 ADD SWAP1 PUSH2 0x1822 SWAP1 DUP3 PUSH2 0x47AA JUMP JUMPDEST POP PUSH1 0x40 DUP3 ADD MLOAD PUSH1 0x2 DUP3 ADD SSTORE PUSH1 0x60 DUP3 ADD MLOAD PUSH1 0x3 DUP3 ADD SSTORE PUSH1 0x80 DUP3 ADD MLOAD PUSH1 0x4 DUP3 ADD SWAP1 PUSH2 0x184B SWAP1 DUP3 PUSH2 0x47AA JUMP JUMPDEST POP PUSH1 0xA0 SWAP2 SWAP1 SWAP2 ADD MLOAD PUSH1 0x5 SWAP1 SWAP2 ADD DUP1 SLOAD PUSH1 0xFF NOT AND SWAP2 ISZERO ISZERO SWAP2 SWAP1 SWAP2 OR SWAP1 SSTORE PUSH1 0x0 DUP3 DUP2 MSTORE PUSH1 0x7A PUSH1 0x20 SWAP1 DUP2 MSTORE PUSH1 0x40 SWAP1 SWAP2 KECCAK256 DUP3 MLOAD DUP2 SSTORE SWAP1 DUP3 ADD MLOAD DUP3 SWAP2 SWAP1 PUSH1 0x1 DUP3 ADD SWAP1 PUSH2 0x1892 SWAP1 DUP3 PUSH2 0x47AA JUMP JUMPDEST POP PUSH1 0x40 DUP3 ADD MLOAD PUSH1 0x2 DUP3 ADD SSTORE PUSH1 0x60 DUP3 ADD MLOAD PUSH1 0x3 DUP3 ADD SSTORE PUSH1 0x80 DUP3 ADD MLOAD PUSH1 0x4 DUP3 ADD SWAP1 PUSH2 0x18BB SWAP1 DUP3 PUSH2 0x47AA JUMP JUMPDEST POP PUSH1 0xA0 SWAP2 SWAP1 SWAP2 ADD MLOAD PUSH1 0x5 SWAP1 SWAP2 ADD DUP1 SLOAD PUSH1 0xFF NOT AND SWAP2 ISZERO ISZERO SWAP2 SWAP1 SWAP2 OR SWAP1 SSTORE PUSH1 0x74 DUP1 SLOAD SWAP1 PUSH1 0x0 PUSH2 0x18E7 DUP4 PUSH2 0x46D1 JUMP JUMPDEST SWAP2 SWAP1 POP SSTORE POP POP POP POP POP POP POP POP JUMP JUMPDEST PUSH2 0x18FD PUSH2 0x3842 JUMP JUMPDEST PUSH1 0x1 PUSH1 0x1 PUSH1 0xA0 SHL SUB AND PUSH1 0x0 SWAP1 DUP2 MSTORE PUSH1 0x73 PUSH1 0x20 MSTORE PUSH1 0x40 SWAP1 KECCAK256 DUP1 SLOAD PUSH1 0xFF NOT AND PUSH1 0x1 OR SWAP1 SSTORE JUMP JUMPDEST PUSH2 0x1929 PUSH2 0x3B96 JUMP JUMPDEST PUSH1 0x7A PUSH1 0x0 DUP4 DUP2 MSTORE PUSH1 0x20 ADD SWAP1 DUP2 MSTORE PUSH1 0x20 ADD PUSH1 0x0 KECCAK256 PUSH1 0x40 MLOAD DUP1 PUSH1 0xC0 ADD PUSH1 0x40 MSTORE SWAP1 DUP2 PUSH1 0x0 DUP3 ADD SLOAD DUP2 MSTORE PUSH1 0x20 ADD PUSH1 0x1 DUP3 ADD DUP1 SLOAD PUSH2 0x1961 SWAP1 PUSH2 0x46EA JUMP JUMPDEST DUP1 PUSH1 0x1F ADD PUSH1 0x20 DUP1 SWAP2 DIV MUL PUSH1 0x20 ADD PUSH1 0x40 MLOAD SWAP1 DUP2 ADD PUSH1 0x40 MSTORE DUP1 SWAP3 SWAP2 SWAP1 DUP2 DUP2 MSTORE PUSH1 0x20 ADD DUP3 DUP1 SLOAD PUSH2 0x198D SWAP1 PUSH2 0x46EA JUMP JUMPDEST DUP1 ISZERO PUSH2 0x19DA JUMPI DUP1 PUSH1 0x1F LT PUSH2 0x19AF JUMPI PUSH2 0x100 DUP1 DUP4 SLOAD DIV MUL DUP4 MSTORE SWAP2 PUSH1 0x20 ADD SWAP2 PUSH2 0x19DA JUMP JUMPDEST DUP3 ADD SWAP2 SWAP1 PUSH1 0x0 MSTORE PUSH1 0x20 PUSH1 0x0 KECCAK256 SWAP1 JUMPDEST DUP2 SLOAD DUP2 MSTORE SWAP1 PUSH1 0x1 ADD SWAP1 PUSH1 0x20 ADD DUP1 DUP4 GT PUSH2 0x19BD JUMPI DUP3 SWAP1 SUB PUSH1 0x1F AND DUP3 ADD SWAP2 JUMPDEST POP POP POP POP POP DUP2 MSTORE PUSH1 0x20 ADD PUSH1 0x2 DUP3 ADD SLOAD DUP2 MSTORE PUSH1 0x20 ADD PUSH1 0x3 DUP3 ADD SLOAD DUP2 MSTORE PUSH1 0x20 ADD PUSH1 0x4 DUP3 ADD DUP1 SLOAD PUSH2 0x1A07 SWAP1 PUSH2 0x46EA JUMP JUMPDEST DUP1 PUSH1 0x1F ADD PUSH1 0x20 DUP1 SWAP2 DIV MUL PUSH1 0x20 ADD PUSH1 0x40 MLOAD SWAP1 DUP2 ADD PUSH1 0x40 MSTORE DUP1 SWAP3 SWAP2 SWAP1 DUP2 DUP2 MSTORE PUSH1 0x20 ADD DUP3 DUP1 SLOAD PUSH2 0x1A33 SWAP1 PUSH2 0x46EA JUMP JUMPDEST DUP1 ISZERO PUSH2 0x1A80 JUMPI DUP1 PUSH1 0x1F LT PUSH2 0x1A55 JUMPI PUSH2 0x100 DUP1 DUP4 SLOAD DIV MUL DUP4 MSTORE SWAP2 PUSH1 0x20 ADD SWAP2 PUSH2 0x1A80 JUMP JUMPDEST DUP3 ADD SWAP2 SWAP1 PUSH1 0x0 MSTORE PUSH1 0x20 PUSH1 0x0 KECCAK256 SWAP1 JUMPDEST DUP2 SLOAD DUP2 MSTORE SWAP1 PUSH1 0x1 ADD SWAP1 PUSH1 0x20 ADD DUP1 DUP4 GT PUSH2 0x1A63 JUMPI DUP3 SWAP1 SUB PUSH1 0x1F AND DUP3 ADD SWAP2 JUMPDEST POP POP POP SWAP2 DUP4 MSTORE POP POP PUSH1 0x5 SWAP2 SWAP1 SWAP2 ADD SLOAD PUSH1 0xFF AND ISZERO ISZERO PUSH1 0x20 SWAP1 SWAP2 ADD MSTORE SWAP3 SWAP2 POP POP JUMP JUMPDEST PUSH1 0x79 PUSH1 0x20 MSTORE DUP2 PUSH1 0x0 MSTORE PUSH1 0x40 PUSH1 0x0 KECCAK256 DUP2 DUP2 SLOAD DUP2 LT PUSH2 0x1ABC JUMPI PUSH1 0x0 DUP1 REVERT JUMPDEST SWAP1 PUSH1 0x0 MSTORE PUSH1 0x20 PUSH1 0x0 KECCAK256 ADD PUSH1 0x0 SWAP2 POP SWAP2 POP POP SLOAD DUP2 JUMP JUMPDEST PUSH2 0x1AD9 PUSH2 0x3842 JUMP JUMPDEST PUSH2 0x1AE3 PUSH1 0x0 PUSH2 0x389C JUMP JUMPDEST JUMP JUMPDEST PUSH1 0x7D SLOAD PUSH1 0x1 PUSH1 0x1 PUSH1 0xA0 SHL SUB DUP4 AND PUSH1 0x0 SWAP1 DUP2 MSTORE PUSH1 0x79 PUSH1 0x20 MSTORE PUSH1 0x40 DUP2 KECCAK256 SLOAD SWAP1 SWAP2 PUSH1 0x60 SWAP2 PUSH2 0x1B13 SWAP2 PUSH1 0xFF AND SWAP1 PUSH2 0x498C JUMP JUMPDEST PUSH1 0x7D SLOAD PUSH2 0x1B23 SWAP1 PUSH1 0xFF AND DUP6 PUSH2 0x4975 JUMP JUMPDEST GT ISZERO PUSH2 0x1B32 JUMPI PUSH1 0x0 SWAP2 POP PUSH2 0x262C JUMP JUMPDEST PUSH1 0x1 PUSH1 0x1 PUSH1 0xA0 SHL SUB DUP5 AND PUSH1 0x0 SWAP1 DUP2 MSTORE PUSH1 0x79 PUSH1 0x20 MSTORE PUSH1 0x40 SWAP1 KECCAK256 SLOAD PUSH1 0x7D SLOAD PUSH2 0x1B5B SWAP1 PUSH1 0xFF AND DUP6 PUSH2 0x4975 JUMP JUMPDEST LT ISZERO PUSH2 0x20AB JUMPI PUSH1 0x7D SLOAD PUSH1 0x1 SWAP3 POP PUSH1 0xFF AND PUSH1 0x1 PUSH1 0x1 PUSH1 0x40 SHL SUB DUP2 GT ISZERO PUSH2 0x1B82 JUMPI PUSH2 0x1B82 PUSH2 0x3DD0 JUMP JUMPDEST PUSH1 0x40 MLOAD SWAP1 DUP1 DUP3 MSTORE DUP1 PUSH1 0x20 MUL PUSH1 0x20 ADD DUP3 ADD PUSH1 0x40 MSTORE DUP1 ISZERO PUSH2 0x1BBB JUMPI DUP2 PUSH1 0x20 ADD JUMPDEST PUSH2 0x1BA8 PUSH2 0x3C1C JUMP JUMPDEST DUP2 MSTORE PUSH1 0x20 ADD SWAP1 PUSH1 0x1 SWAP1 SUB SWAP1 DUP2 PUSH2 0x1BA0 JUMPI SWAP1 POP JUMPDEST POP SWAP1 POP PUSH1 0x0 JUMPDEST DUP2 MLOAD DUP2 LT ISZERO PUSH2 0x20A5 JUMPI PUSH1 0x1 PUSH1 0x1 PUSH1 0xA0 SHL SUB DUP6 AND PUSH1 0x0 SWAP1 DUP2 MSTORE PUSH1 0x79 PUSH1 0x20 MSTORE PUSH1 0x40 DUP2 KECCAK256 PUSH1 0x7D SLOAD PUSH1 0x7B SWAP3 SWAP2 SWAP1 DUP5 SWAP1 PUSH1 0xFF AND PUSH2 0x1BF9 DUP2 DUP11 PUSH2 0x4975 JUMP JUMPDEST PUSH2 0x1C03 SWAP2 SWAP1 PUSH2 0x49DA JUMP JUMPDEST PUSH2 0x1C0D SWAP2 SWAP1 PUSH2 0x498C JUMP JUMPDEST DUP2 SLOAD DUP2 LT PUSH2 0x1C1D JUMPI PUSH2 0x1C1D PUSH2 0x46A5 JUMP JUMPDEST PUSH1 0x0 SWAP2 DUP3 MSTORE PUSH1 0x20 DUP1 DUP4 KECCAK256 SWAP1 SWAP2 ADD SLOAD DUP4 MSTORE DUP3 DUP2 ADD SWAP4 SWAP1 SWAP4 MSTORE PUSH1 0x40 SWAP2 DUP3 ADD SWAP1 KECCAK256 DUP2 MLOAD PUSH2 0x100 DUP2 ADD DUP4 MSTORE DUP2 SLOAD DUP2 MSTORE PUSH1 0x1 DUP3 ADD SLOAD PUSH1 0x1 PUSH1 0x1 PUSH1 0xA0 SHL SUB AND DUP2 DUP6 ADD MSTORE PUSH1 0x2 DUP3 ADD DUP1 SLOAD DUP5 MLOAD DUP2 DUP8 MUL DUP2 ADD DUP8 ADD DUP7 MSTORE DUP2 DUP2 MSTORE SWAP3 SWAP6 SWAP4 SWAP5 DUP7 ADD SWAP4 DUP4 ADD DUP3 DUP3 DUP1 ISZERO PUSH2 0x1CA4 JUMPI PUSH1 0x20 MUL DUP3 ADD SWAP2 SWAP1 PUSH1 0x0 MSTORE PUSH1 0x20 PUSH1 0x0 KECCAK256 SWAP1 JUMPDEST DUP2 SLOAD DUP2 MSTORE PUSH1 0x20 ADD SWAP1 PUSH1 0x1 ADD SWAP1 DUP1 DUP4 GT PUSH2 0x1C90 JUMPI JUMPDEST POP POP POP POP POP DUP2 MSTORE PUSH1 0x20 ADD PUSH1 0x3 DUP3 ADD DUP1 SLOAD DUP1 PUSH1 0x20 MUL PUSH1 0x20 ADD PUSH1 0x40 MLOAD SWAP1 DUP2 ADD PUSH1 0x40 MSTORE DUP1 SWAP3 SWAP2 SWAP1 DUP2 DUP2 MSTORE PUSH1 0x20 ADD DUP3 DUP1 SLOAD DUP1 ISZERO PUSH2 0x1CFC JUMPI PUSH1 0x20 MUL DUP3 ADD SWAP2 SWAP1 PUSH1 0x0 MSTORE PUSH1 0x20 PUSH1 0x0 KECCAK256 SWAP1 JUMPDEST DUP2 SLOAD DUP2 MSTORE PUSH1 0x20 ADD SWAP1 PUSH1 0x1 ADD SWAP1 DUP1 DUP4 GT PUSH2 0x1CE8 JUMPI JUMPDEST POP POP POP POP POP DUP2 MSTORE PUSH1 0x20 ADD PUSH1 0x4 DUP3 ADD SLOAD DUP2 MSTORE PUSH1 0x20 ADD PUSH1 0x5 DUP3 ADD DUP1 SLOAD DUP1 PUSH1 0x20 MUL PUSH1 0x20 ADD PUSH1 0x40 MLOAD SWAP1 DUP2 ADD PUSH1 0x40 MSTORE DUP1 SWAP3 SWAP2 SWAP1 DUP2 DUP2 MSTORE PUSH1 0x20 ADD DUP3 DUP1 SLOAD DUP1 ISZERO PUSH2 0x1D5E JUMPI PUSH1 0x20 MUL DUP3 ADD SWAP2 SWAP1 PUSH1 0x0 MSTORE PUSH1 0x20 PUSH1 0x0 KECCAK256 SWAP1 JUMPDEST DUP2 SLOAD DUP2 MSTORE PUSH1 0x20 ADD SWAP1 PUSH1 0x1 ADD SWAP1 DUP1 DUP4 GT PUSH2 0x1D4A JUMPI JUMPDEST POP POP POP POP POP DUP2 MSTORE PUSH1 0x20 ADD PUSH1 0x6 DUP3 ADD PUSH1 0x40 MLOAD DUP1 PUSH1 0xC0 ADD PUSH1 0x40 MSTORE SWAP1 DUP2 PUSH1 0x0 DUP3 ADD DUP1 SLOAD PUSH2 0x1D87 SWAP1 PUSH2 0x46EA JUMP JUMPDEST DUP1 PUSH1 0x1F ADD PUSH1 0x20 DUP1 SWAP2 DIV MUL PUSH1 0x20 ADD PUSH1 0x40 MLOAD SWAP1 DUP2 ADD PUSH1 0x40 MSTORE DUP1 SWAP3 SWAP2 SWAP1 DUP2 DUP2 MSTORE PUSH1 0x20 ADD DUP3 DUP1 SLOAD PUSH2 0x1DB3 SWAP1 PUSH2 0x46EA JUMP JUMPDEST DUP1 ISZERO PUSH2 0x1E00 JUMPI DUP1 PUSH1 0x1F LT PUSH2 0x1DD5 JUMPI PUSH2 0x100 DUP1 DUP4 SLOAD DIV MUL DUP4 MSTORE SWAP2 PUSH1 0x20 ADD SWAP2 PUSH2 0x1E00 JUMP JUMPDEST DUP3 ADD SWAP2 SWAP1 PUSH1 0x0 MSTORE PUSH1 0x20 PUSH1 0x0 KECCAK256 SWAP1 JUMPDEST DUP2 SLOAD DUP2 MSTORE SWAP1 PUSH1 0x1 ADD SWAP1 PUSH1 0x20 ADD DUP1 DUP4 GT PUSH2 0x1DE3 JUMPI DUP3 SWAP1 SUB PUSH1 0x1F AND DUP3 ADD SWAP2 JUMPDEST POP POP POP POP POP DUP2 MSTORE PUSH1 0x20 ADD PUSH1 0x1 DUP3 ADD DUP1 SLOAD PUSH2 0x1E19 SWAP1 PUSH2 0x46EA JUMP JUMPDEST DUP1 PUSH1 0x1F ADD PUSH1 0x20 DUP1 SWAP2 DIV MUL PUSH1 0x20 ADD PUSH1 0x40 MLOAD SWAP1 DUP2 ADD PUSH1 0x40 MSTORE DUP1 SWAP3 SWAP2 SWAP1 DUP2 DUP2 MSTORE PUSH1 0x20 ADD DUP3 DUP1 SLOAD PUSH2 0x1E45 SWAP1 PUSH2 0x46EA JUMP JUMPDEST DUP1 ISZERO PUSH2 0x1E92 JUMPI DUP1 PUSH1 0x1F LT PUSH2 0x1E67 JUMPI PUSH2 0x100 DUP1 DUP4 SLOAD DIV MUL DUP4 MSTORE SWAP2 PUSH1 0x20 ADD SWAP2 PUSH2 0x1E92 JUMP JUMPDEST DUP3 ADD SWAP2 SWAP1 PUSH1 0x0 MSTORE PUSH1 0x20 PUSH1 0x0 KECCAK256 SWAP1 JUMPDEST DUP2 SLOAD DUP2 MSTORE SWAP1 PUSH1 0x1 ADD SWAP1 PUSH1 0x20 ADD DUP1 DUP4 GT PUSH2 0x1E75 JUMPI DUP3 SWAP1 SUB PUSH1 0x1F AND DUP3 ADD SWAP2 JUMPDEST POP POP POP POP POP DUP2 MSTORE PUSH1 0x20 ADD PUSH1 0x2 DUP3 ADD DUP1 SLOAD PUSH2 0x1EAB SWAP1 PUSH2 0x46EA JUMP JUMPDEST DUP1 PUSH1 0x1F ADD PUSH1 0x20 DUP1 SWAP2 DIV MUL PUSH1 0x20 ADD PUSH1 0x40 MLOAD SWAP1 DUP2 ADD PUSH1 0x40 MSTORE DUP1 SWAP3 SWAP2 SWAP1 DUP2 DUP2 MSTORE PUSH1 0x20 ADD DUP3 DUP1 SLOAD PUSH2 0x1ED7 SWAP1 PUSH2 0x46EA JUMP JUMPDEST DUP1 ISZERO PUSH2 0x1F24 JUMPI DUP1 PUSH1 0x1F LT PUSH2 0x1EF9 JUMPI PUSH2 0x100 DUP1 DUP4 SLOAD DIV MUL DUP4 MSTORE SWAP2 PUSH1 0x20 ADD SWAP2 PUSH2 0x1F24 JUMP JUMPDEST DUP3 ADD SWAP2 SWAP1 PUSH1 0x0 MSTORE PUSH1 0x20 PUSH1 0x0 KECCAK256 SWAP1 JUMPDEST DUP2 SLOAD DUP2 MSTORE SWAP1 PUSH1 0x1 ADD SWAP1 PUSH1 0x20 ADD DUP1 DUP4 GT PUSH2 0x1F07 JUMPI DUP3 SWAP1 SUB PUSH1 0x1F AND DUP3 ADD SWAP2 JUMPDEST POP POP POP POP POP DUP2 MSTORE PUSH1 0x20 ADD PUSH1 0x3 DUP3 ADD DUP1 SLOAD PUSH2 0x1F3D SWAP1 PUSH2 0x46EA JUMP JUMPDEST DUP1 PUSH1 0x1F ADD PUSH1 0x20 DUP1 SWAP2 DIV MUL PUSH1 0x20 ADD PUSH1 0x40 MLOAD SWAP1 DUP2 ADD PUSH1 0x40 MSTORE DUP1 SWAP3 SWAP2 SWAP1 DUP2 DUP2 MSTORE PUSH1 0x20 ADD DUP3 DUP1 SLOAD PUSH2 0x1F69 SWAP1 PUSH2 0x46EA JUMP JUMPDEST DUP1 ISZERO PUSH2 0x1FB6 JUMPI DUP1 PUSH1 0x1F LT PUSH2 0x1F8B JUMPI PUSH2 0x100 DUP1 DUP4 SLOAD DIV MUL DUP4 MSTORE SWAP2 PUSH1 0x20 ADD SWAP2 PUSH2 0x1FB6 JUMP JUMPDEST DUP3 ADD SWAP2 SWAP1 PUSH1 0x0 MSTORE PUSH1 0x20 PUSH1 0x0 KECCAK256 SWAP1 JUMPDEST DUP2 SLOAD DUP2 MSTORE SWAP1 PUSH1 0x1 ADD SWAP1 PUSH1 0x20 ADD DUP1 DUP4 GT PUSH2 0x1F99 JUMPI DUP3 SWAP1 SUB PUSH1 0x1F AND DUP3 ADD SWAP2 JUMPDEST POP POP POP POP POP DUP2 MSTORE PUSH1 0x20 ADD PUSH1 0x4 DUP3 ADD DUP1 SLOAD PUSH2 0x1FCF SWAP1 PUSH2 0x46EA JUMP JUMPDEST DUP1 PUSH1 0x1F ADD PUSH1 0x20 DUP1 SWAP2 DIV MUL PUSH1 0x20 ADD PUSH1 0x40 MLOAD SWAP1 DUP2 ADD PUSH1 0x40 MSTORE DUP1 SWAP3 SWAP2 SWAP1 DUP2 DUP2 MSTORE PUSH1 0x20 ADD DUP3 DUP1 SLOAD PUSH2 0x1FFB SWAP1 PUSH2 0x46EA JUMP JUMPDEST DUP1 ISZERO PUSH2 0x2048 JUMPI DUP1 PUSH1 0x1F LT PUSH2 0x201D JUMPI PUSH2 0x100 DUP1 DUP4 SLOAD DIV MUL DUP4 MSTORE SWAP2 PUSH1 0x20 ADD SWAP2 PUSH2 0x2048 JUMP JUMPDEST DUP3 ADD SWAP2 SWAP1 PUSH1 0x0 MSTORE PUSH1 0x20 PUSH1 0x0 KECCAK256 SWAP1 JUMPDEST DUP2 SLOAD DUP2 MSTORE SWAP1 PUSH1 0x1 ADD SWAP1 PUSH1 0x20 ADD DUP1 DUP4 GT PUSH2 0x202B JUMPI DUP3 SWAP1 SUB PUSH1 0x1F AND DUP3 ADD SWAP2 JUMPDEST POP POP POP SWAP2 DUP4 MSTORE POP POP PUSH1 0x5 SWAP2 SWAP1 SWAP2 ADD SLOAD PUSH1 0x20 SWAP2 DUP3 ADD MSTORE SWAP1 DUP3 MSTORE PUSH1 0xC SWAP3 SWAP1 SWAP3 ADD SLOAD PUSH1 0x1 PUSH1 0x1 PUSH1 0xA0 SHL SUB AND SWAP2 ADD MSTORE DUP3 MLOAD DUP4 SWAP1 DUP4 SWAP1 DUP2 LT PUSH2 0x2087 JUMPI PUSH2 0x2087 PUSH2 0x46A5 JUMP JUMPDEST PUSH1 0x20 MUL PUSH1 0x20 ADD ADD DUP2 SWAP1 MSTORE POP DUP1 DUP1 PUSH2 0x209D SWAP1 PUSH2 0x46D1 JUMP JUMPDEST SWAP2 POP POP PUSH2 0x1BC1 JUMP JUMPDEST POP PUSH2 0x262C JUMP JUMPDEST PUSH1 0x1 PUSH1 0x1 PUSH1 0xA0 SHL SUB DUP5 AND PUSH1 0x0 SWAP1 DUP2 MSTORE PUSH1 0x79 PUSH1 0x20 MSTORE PUSH1 0x40 DUP2 KECCAK256 SLOAD PUSH1 0x7D SLOAD SWAP2 SWAP4 POP SWAP1 PUSH2 0x20D8 SWAP1 PUSH1 0xFF AND DUP6 PUSH2 0x4975 JUMP JUMPDEST PUSH2 0x20E2 SWAP2 SWAP1 PUSH2 0x49DA JUMP JUMPDEST PUSH1 0x7D SLOAD PUSH2 0x20F2 SWAP2 SWAP1 PUSH1 0xFF AND PUSH2 0x49DA JUMP JUMPDEST PUSH1 0x1 PUSH1 0x1 PUSH1 0x40 SHL SUB DUP2 GT ISZERO PUSH2 0x2109 JUMPI PUSH2 0x2109 PUSH2 0x3DD0 JUMP JUMPDEST PUSH1 0x40 MLOAD SWAP1 DUP1 DUP3 MSTORE DUP1 PUSH1 0x20 MUL PUSH1 0x20 ADD DUP3 ADD PUSH1 0x40 MSTORE DUP1 ISZERO PUSH2 0x2142 JUMPI DUP2 PUSH1 0x20 ADD JUMPDEST PUSH2 0x212F PUSH2 0x3C1C JUMP JUMPDEST DUP2 MSTORE PUSH1 0x20 ADD SWAP1 PUSH1 0x1 SWAP1 SUB SWAP1 DUP2 PUSH2 0x2127 JUMPI SWAP1 POP JUMPDEST POP SWAP1 POP PUSH1 0x0 JUMPDEST DUP2 MLOAD DUP2 LT ISZERO PUSH2 0x20A5 JUMPI PUSH1 0x1 PUSH1 0x1 PUSH1 0xA0 SHL SUB DUP6 AND PUSH1 0x0 SWAP1 DUP2 MSTORE PUSH1 0x79 PUSH1 0x20 MSTORE PUSH1 0x40 DUP2 KECCAK256 PUSH1 0x7D SLOAD PUSH1 0x7B SWAP3 SWAP2 SWAP1 DUP5 SWAP1 PUSH1 0xFF AND PUSH2 0x2180 DUP2 DUP11 PUSH2 0x4975 JUMP JUMPDEST PUSH2 0x218A SWAP2 SWAP1 PUSH2 0x49DA JUMP JUMPDEST PUSH2 0x2194 SWAP2 SWAP1 PUSH2 0x498C JUMP JUMPDEST DUP2 SLOAD DUP2 LT PUSH2 0x21A4 JUMPI PUSH2 0x21A4 PUSH2 0x46A5 JUMP JUMPDEST PUSH1 0x0 SWAP2 DUP3 MSTORE PUSH1 0x20 DUP1 DUP4 KECCAK256 SWAP1 SWAP2 ADD SLOAD DUP4 MSTORE DUP3 DUP2 ADD SWAP4 SWAP1 SWAP4 MSTORE PUSH1 0x40 SWAP2 DUP3 ADD SWAP1 KECCAK256 DUP2 MLOAD PUSH2 0x100 DUP2 ADD DUP4 MSTORE DUP2 SLOAD DUP2 MSTORE PUSH1 0x1 DUP3 ADD SLOAD PUSH1 0x1 PUSH1 0x1 PUSH1 0xA0 SHL SUB AND DUP2 DUP6 ADD MSTORE PUSH1 0x2 DUP3 ADD DUP1 SLOAD DUP5 MLOAD DUP2 DUP8 MUL DUP2 ADD DUP8 ADD DUP7 MSTORE DUP2 DUP2 MSTORE SWAP3 SWAP6 SWAP4 SWAP5 DUP7 ADD SWAP4 DUP4 ADD DUP3 DUP3 DUP1 ISZERO PUSH2 0x222B JUMPI PUSH1 0x20 MUL DUP3 ADD SWAP2 SWAP1 PUSH1 0x0 MSTORE PUSH1 0x20 PUSH1 0x0 KECCAK256 SWAP1 JUMPDEST DUP2 SLOAD DUP2 MSTORE PUSH1 0x20 ADD SWAP1 PUSH1 0x1 ADD SWAP1 DUP1 DUP4 GT PUSH2 0x2217 JUMPI JUMPDEST POP POP POP POP POP DUP2 MSTORE PUSH1 0x20 ADD PUSH1 0x3 DUP3 ADD DUP1 SLOAD DUP1 PUSH1 0x20 MUL PUSH1 0x20 ADD PUSH1 0x40 MLOAD SWAP1 DUP2 ADD PUSH1 0x40 MSTORE DUP1 SWAP3 SWAP2 SWAP1 DUP2 DUP2 MSTORE PUSH1 0x20 ADD DUP3 DUP1 SLOAD DUP1 ISZERO PUSH2 0x2283 JUMPI PUSH1 0x20 MUL DUP3 ADD SWAP2 SWAP1 PUSH1 0x0 MSTORE PUSH1 0x20 PUSH1 0x0 KECCAK256 SWAP1 JUMPDEST DUP2 SLOAD DUP2 MSTORE PUSH1 0x20 ADD SWAP1 PUSH1 0x1 ADD SWAP1 DUP1 DUP4 GT PUSH2 0x226F JUMPI JUMPDEST POP POP POP POP POP DUP2 MSTORE PUSH1 0x20 ADD PUSH1 0x4 DUP3 ADD SLOAD DUP2 MSTORE PUSH1 0x20 ADD PUSH1 0x5 DUP3 ADD DUP1 SLOAD DUP1 PUSH1 0x20 MUL PUSH1 0x20 ADD PUSH1 0x40 MLOAD SWAP1 DUP2 ADD PUSH1 0x40 MSTORE DUP1 SWAP3 SWAP2 SWAP1 DUP2 DUP2 MSTORE PUSH1 0x20 ADD DUP3 DUP1 SLOAD DUP1 ISZERO PUSH2 0x22E5 JUMPI PUSH1 0x20 MUL DUP3 ADD SWAP2 SWAP1 PUSH1 0x0 MSTORE PUSH1 0x20 PUSH1 0x0 KECCAK256 SWAP1 JUMPDEST DUP2 SLOAD DUP2 MSTORE PUSH1 0x20 ADD SWAP1 PUSH1 0x1 ADD SWAP1 DUP1 DUP4 GT PUSH2 0x22D1 JUMPI JUMPDEST POP POP POP POP POP DUP2 MSTORE PUSH1 0x20 ADD PUSH1 0x6 DUP3 ADD PUSH1 0x40 MLOAD DUP1 PUSH1 0xC0 ADD PUSH1 0x40 MSTORE SWAP1 DUP2 PUSH1 0x0 DUP3 ADD DUP1 SLOAD PUSH2 0x230E SWAP1 PUSH2 0x46EA JUMP JUMPDEST DUP1 PUSH1 0x1F ADD PUSH1 0x20 DUP1 SWAP2 DIV MUL PUSH1 0x20 ADD PUSH1 0x40 MLOAD SWAP1 DUP2 ADD PUSH1 0x40 MSTORE DUP1 SWAP3 SWAP2 SWAP1 DUP2 DUP2 MSTORE PUSH1 0x20 ADD DUP3 DUP1 SLOAD PUSH2 0x233A SWAP1 PUSH2 0x46EA JUMP JUMPDEST DUP1 ISZERO PUSH2 0x2387 JUMPI DUP1 PUSH1 0x1F LT PUSH2 0x235C JUMPI PUSH2 0x100 DUP1 DUP4 SLOAD DIV MUL DUP4 MSTORE SWAP2 PUSH1 0x20 ADD SWAP2 PUSH2 0x2387 JUMP JUMPDEST DUP3 ADD SWAP2 SWAP1 PUSH1 0x0 MSTORE PUSH1 0x20 PUSH1 0x0 KECCAK256 SWAP1 JUMPDEST DUP2 SLOAD DUP2 MSTORE SWAP1 PUSH1 0x1 ADD SWAP1 PUSH1 0x20 ADD DUP1 DUP4 GT PUSH2 0x236A JUMPI DUP3 SWAP1 SUB PUSH1 0x1F AND DUP3 ADD SWAP2 JUMPDEST POP POP POP POP POP DUP2 MSTORE PUSH1 0x20 ADD PUSH1 0x1 DUP3 ADD DUP1 SLOAD PUSH2 0x23A0 SWAP1 PUSH2 0x46EA JUMP JUMPDEST DUP1 PUSH1 0x1F ADD PUSH1 0x20 DUP1 SWAP2 DIV MUL PUSH1 0x20 ADD PUSH1 0x40 MLOAD SWAP1 DUP2 ADD PUSH1 0x40 MSTORE DUP1 SWAP3 SWAP2 SWAP1 DUP2 DUP2 MSTORE PUSH1 0x20 ADD DUP3 DUP1 SLOAD PUSH2 0x23CC SWAP1 PUSH2 0x46EA JUMP JUMPDEST DUP1 ISZERO PUSH2 0x2419 JUMPI DUP1 PUSH1 0x1F LT PUSH2 0x23EE JUMPI PUSH2 0x100 DUP1 DUP4 SLOAD DIV MUL DUP4 MSTORE SWAP2 PUSH1 0x20 ADD SWAP2 PUSH2 0x2419 JUMP JUMPDEST DUP3 ADD SWAP2 SWAP1 PUSH1 0x0 MSTORE PUSH1 0x20 PUSH1 0x0 KECCAK256 SWAP1 JUMPDEST DUP2 SLOAD DUP2 MSTORE SWAP1 PUSH1 0x1 ADD SWAP1 PUSH1 0x20 ADD DUP1 DUP4 GT PUSH2 0x23FC JUMPI DUP3 SWAP1 SUB PUSH1 0x1F AND DUP3 ADD SWAP2 JUMPDEST POP POP POP POP POP DUP2 MSTORE PUSH1 0x20 ADD PUSH1 0x2 DUP3 ADD DUP1 SLOAD PUSH2 0x2432 SWAP1 PUSH2 0x46EA JUMP JUMPDEST DUP1 PUSH1 0x1F ADD PUSH1 0x20 DUP1 SWAP2 DIV MUL PUSH1 0x20 ADD PUSH1 0x40 MLOAD SWAP1 DUP2 ADD PUSH1 0x40 MSTORE DUP1 SWAP3 SWAP2 SWAP1 DUP2 DUP2 MSTORE PUSH1 0x20 ADD DUP3 DUP1 SLOAD PUSH2 0x245E SWAP1 PUSH2 0x46EA JUMP JUMPDEST DUP1 ISZERO PUSH2 0x24AB JUMPI DUP1 PUSH1 0x1F LT PUSH2 0x2480 JUMPI PUSH2 0x100 DUP1 DUP4 SLOAD DIV MUL DUP4 MSTORE SWAP2 PUSH1 0x20 ADD SWAP2 PUSH2 0x24AB JUMP JUMPDEST DUP3 ADD SWAP2 SWAP1 PUSH1 0x0 MSTORE PUSH1 0x20 PUSH1 0x0 KECCAK256 SWAP1 JUMPDEST DUP2 SLOAD DUP2 MSTORE SWAP1 PUSH1 0x1 ADD SWAP1 PUSH1 0x20 ADD DUP1 DUP4 GT PUSH2 0x248E JUMPI DUP3 SWAP1 SUB PUSH1 0x1F AND DUP3 ADD SWAP2 JUMPDEST POP POP POP POP POP DUP2 MSTORE PUSH1 0x20 ADD PUSH1 0x3 DUP3 ADD DUP1 SLOAD PUSH2 0x24C4 SWAP1 PUSH2 0x46EA JUMP JUMPDEST DUP1 PUSH1 0x1F ADD PUSH1 0x20 DUP1 SWAP2 DIV MUL PUSH1 0x20 ADD PUSH1 0x40 MLOAD SWAP1 DUP2 ADD PUSH1 0x40 MSTORE DUP1 SWAP3 SWAP2 SWAP1 DUP2 DUP2 MSTORE PUSH1 0x20 ADD DUP3 DUP1 SLOAD PUSH2 0x24F0 SWAP1 PUSH2 0x46EA JUMP JUMPDEST DUP1 ISZERO PUSH2 0x253D JUMPI DUP1 PUSH1 0x1F LT PUSH2 0x2512 JUMPI PUSH2 0x100 DUP1 DUP4 SLOAD DIV MUL DUP4 MSTORE SWAP2 PUSH1 0x20 ADD SWAP2 PUSH2 0x253D JUMP JUMPDEST DUP3 ADD SWAP2 SWAP1 PUSH1 0x0 MSTORE PUSH1 0x20 PUSH1 0x0 KECCAK256 SWAP1 JUMPDEST DUP2 SLOAD DUP2 MSTORE SWAP1 PUSH1 0x1 ADD SWAP1 PUSH1 0x20 ADD DUP1 DUP4 GT PUSH2 0x2520 JUMPI DUP3 SWAP1 SUB PUSH1 0x1F AND DUP3 ADD SWAP2 JUMPDEST POP POP POP POP POP DUP2 MSTORE PUSH1 0x20 ADD PUSH1 0x4 DUP3 ADD DUP1 SLOAD PUSH2 0x2556 SWAP1 PUSH2 0x46EA JUMP JUMPDEST DUP1 PUSH1 0x1F ADD PUSH1 0x20 DUP1 SWAP2 DIV MUL PUSH1 0x20 ADD PUSH1 0x40 MLOAD SWAP1 DUP2 ADD PUSH1 0x40 MSTORE DUP1 SWAP3 SWAP2 SWAP1 DUP2 DUP2 MSTORE PUSH1 0x20 ADD DUP3 DUP1 SLOAD PUSH2 0x2582 SWAP1 PUSH2 0x46EA JUMP JUMPDEST DUP1 ISZERO PUSH2 0x25CF JUMPI DUP1 PUSH1 0x1F LT PUSH2 0x25A4 JUMPI PUSH2 0x100 DUP1 DUP4 SLOAD DIV MUL DUP4 MSTORE SWAP2 PUSH1 0x20 ADD SWAP2 PUSH2 0x25CF JUMP JUMPDEST DUP3 ADD SWAP2 SWAP1 PUSH1 0x0 MSTORE PUSH1 0x20 PUSH1 0x0 KECCAK256 SWAP1 JUMPDEST DUP2 SLOAD DUP2 MSTORE SWAP1 PUSH1 0x1 ADD SWAP1 PUSH1 0x20 ADD DUP1 DUP4 GT PUSH2 0x25B2 JUMPI DUP3 SWAP1 SUB PUSH1 0x1F AND DUP3 ADD SWAP2 JUMPDEST POP POP POP SWAP2 DUP4 MSTORE POP POP PUSH1 0x5 SWAP2 SWAP1 SWAP2 ADD SLOAD PUSH1 0x20 SWAP2 DUP3 ADD MSTORE SWAP1 DUP3 MSTORE PUSH1 0xC SWAP3 SWAP1 SWAP3 ADD SLOAD PUSH1 0x1 PUSH1 0x1 PUSH1 0xA0 SHL SUB AND SWAP2 ADD MSTORE DUP3 MLOAD DUP4 SWAP1 DUP4 SWAP1 DUP2 LT PUSH2 0x260E JUMPI PUSH2 0x260E PUSH2 0x46A5 JUMP JUMPDEST PUSH1 0x20 MUL PUSH1 0x20 ADD ADD DUP2 SWAP1 MSTORE POP DUP1 DUP1 PUSH2 0x2624 SWAP1 PUSH2 0x46D1 JUMP JUMPDEST SWAP2 POP POP PUSH2 0x2148 JUMP JUMPDEST SWAP3 POP SWAP3 SWAP1 POP JUMP JUMPDEST PUSH1 0x72 DUP2 DUP2 SLOAD DUP2 LT PUSH2 0x2643 JUMPI PUSH1 0x0 DUP1 REVERT JUMPDEST PUSH1 0x0 SWAP2 DUP3 MSTORE PUSH1 0x20 SWAP1 SWAP2 KECCAK256 PUSH1 0x6 SWAP1 SWAP2 MUL ADD DUP1 SLOAD PUSH1 0x1 DUP3 ADD DUP1 SLOAD SWAP2 SWAP4 POP SWAP1 PUSH2 0x2668 SWAP1 PUSH2 0x46EA JUMP JUMPDEST DUP1 PUSH1 0x1F ADD PUSH1 0x20 DUP1 SWAP2 DIV MUL PUSH1 0x20 ADD PUSH1 0x40 MLOAD SWAP1 DUP2 ADD PUSH1 0x40 MSTORE DUP1 SWAP3 SWAP2 SWAP1 DUP2 DUP2 MSTORE PUSH1 0x20 ADD DUP3 DUP1 SLOAD PUSH2 0x2694 SWAP1 PUSH2 0x46EA JUMP JUMPDEST DUP1 ISZERO PUSH2 0x26E1 JUMPI DUP1 PUSH1 0x1F LT PUSH2 0x26B6 JUMPI PUSH2 0x100 DUP1 DUP4 SLOAD DIV MUL DUP4 MSTORE SWAP2 PUSH1 0x20 ADD SWAP2 PUSH2 0x26E1 JUMP JUMPDEST DUP3 ADD SWAP2 SWAP1 PUSH1 0x0 MSTORE PUSH1 0x20 PUSH1 0x0 KECCAK256 SWAP1 JUMPDEST DUP2 SLOAD DUP2 MSTORE SWAP1 PUSH1 0x1 ADD SWAP1 PUSH1 0x20 ADD DUP1 DUP4 GT PUSH2 0x26C4 JUMPI DUP3 SWAP1 SUB PUSH1 0x1F AND DUP3 ADD SWAP2 JUMPDEST POP POP POP POP POP SWAP1 DUP1 PUSH1 0x2 ADD SLOAD SWAP1 DUP1 PUSH1 0x3 ADD SLOAD SWAP1 DUP1 PUSH1 0x4 ADD DUP1 SLOAD PUSH2 0x2702 SWAP1 PUSH2 0x46EA JUMP JUMPDEST DUP1 PUSH1 0x1F ADD PUSH1 0x20 DUP1 SWAP2 DIV MUL PUSH1 0x20 ADD PUSH1 0x40 MLOAD SWAP1 DUP2 ADD PUSH1 0x40 MSTORE DUP1 SWAP3 SWAP2 SWAP1 DUP2 DUP2 MSTORE PUSH1 0x20 ADD DUP3 DUP1 SLOAD PUSH2 0x272E SWAP1 PUSH2 0x46EA JUMP JUMPDEST DUP1 ISZERO PUSH2 0x277B JUMPI DUP1 PUSH1 0x1F LT PUSH2 0x2750 JUMPI PUSH2 0x100 DUP1 DUP4 SLOAD DIV MUL DUP4 MSTORE SWAP2 PUSH1 0x20 ADD SWAP2 PUSH2 0x277B JUMP JUMPDEST DUP3 ADD SWAP2 SWAP1 PUSH1 0x0 MSTORE PUSH1 0x20 PUSH1 0x0 KECCAK256 SWAP1 JUMPDEST DUP2 SLOAD DUP2 MSTORE SWAP1 PUSH1 0x1 ADD SWAP1 PUSH1 0x20 ADD DUP1 DUP4 GT PUSH2 0x275E JUMPI DUP3 SWAP1 SUB PUSH1 0x1F AND DUP3 ADD SWAP2 JUMPDEST POP POP POP PUSH1 0x5 SWAP1 SWAP4 ADD SLOAD SWAP2 SWAP3 POP POP PUSH1 0xFF AND DUP7 JUMP JUMPDEST PUSH2 0x2796 PUSH2 0x3B96 JUMP JUMPDEST PUSH1 0x7C PUSH1 0x0 DUP4 DUP2 MSTORE PUSH1 0x20 ADD SWAP1 DUP2 MSTORE PUSH1 0x20 ADD PUSH1 0x0 KECCAK256 PUSH1 0x40 MLOAD DUP1 PUSH1 0xC0 ADD PUSH1 0x40 MSTORE SWAP1 DUP2 PUSH1 0x0 DUP3 ADD SLOAD DUP2 MSTORE PUSH1 0x20 ADD PUSH1 0x1 DUP3 ADD DUP1 SLOAD PUSH2 0x1961 SWAP1 PUSH2 0x46EA JUMP JUMPDEST PUSH2 0x2807 PUSH1 0x40 MLOAD DUP1 PUSH1 0xC0 ADD PUSH1 0x40 MSTORE DUP1 PUSH1 0x60 DUP2 MSTORE PUSH1 0x20 ADD PUSH1 0x60 DUP2 MSTORE PUSH1 0x20 ADD PUSH1 0x60 DUP2 MSTORE PUSH1 0x20 ADD PUSH1 0x60 DUP2 MSTORE PUSH1 0x20 ADD PUSH1 0x60 DUP2 MSTORE PUSH1 0x20 ADD PUSH1 0x0 DUP2 MSTORE POP SWAP1 JUMP JUMPDEST PUSH1 0x0 DUP3 DUP2 MSTORE PUSH1 0x7B PUSH1 0x20 MSTORE PUSH1 0x40 SWAP1 DUP2 SWAP1 KECCAK256 DUP2 MLOAD PUSH1 0xC0 DUP2 ADD SWAP1 SWAP3 MSTORE PUSH1 0x6 ADD DUP1 SLOAD DUP3 SWAP1 DUP3 SWAP1 PUSH2 0x2832 SWAP1 PUSH2 0x46EA JUMP JUMPDEST DUP1 PUSH1 0x1F ADD PUSH1 0x20 DUP1 SWAP2 DIV MUL PUSH1 0x20 ADD PUSH1 0x40 MLOAD SWAP1 DUP2 ADD PUSH1 0x40 MSTORE DUP1 SWAP3 SWAP2 SWAP1 DUP2 DUP2 MSTORE PUSH1 0x20 ADD DUP3 DUP1 SLOAD PUSH2 0x285E SWAP1 PUSH2 0x46EA JUMP JUMPDEST DUP1 ISZERO PUSH2 0x28AB JUMPI DUP1 PUSH1 0x1F LT PUSH2 0x2880 JUMPI PUSH2 0x100 DUP1 DUP4 SLOAD DIV MUL DUP4 MSTORE SWAP2 PUSH1 0x20 ADD SWAP2 PUSH2 0x28AB JUMP JUMPDEST DUP3 ADD SWAP2 SWAP1 PUSH1 0x0 MSTORE PUSH1 0x20 PUSH1 0x0 KECCAK256 SWAP1 JUMPDEST DUP2 SLOAD DUP2 MSTORE SWAP1 PUSH1 0x1 ADD SWAP1 PUSH1 0x20 ADD DUP1 DUP4 GT PUSH2 0x288E JUMPI DUP3 SWAP1 SUB PUSH1 0x1F AND DUP3 ADD SWAP2 JUMPDEST POP POP POP POP POP DUP2 MSTORE PUSH1 0x20 ADD PUSH1 0x1 DUP3 ADD DUP1 SLOAD PUSH2 0x28C4 SWAP1 PUSH2 0x46EA JUMP JUMPDEST DUP1 PUSH1 0x1F ADD PUSH1 0x20 DUP1 SWAP2 DIV MUL PUSH1 0x20 ADD PUSH1 0x40 MLOAD SWAP1 DUP2 ADD PUSH1 0x40 MSTORE DUP1 SWAP3 SWAP2 SWAP1 DUP2 DUP2 MSTORE PUSH1 0x20 ADD DUP3 DUP1 SLOAD PUSH2 0x28F0 SWAP1 PUSH2 0x46EA JUMP JUMPDEST DUP1 ISZERO PUSH2 0x293D JUMPI DUP1 PUSH1 0x1F LT PUSH2 0x2912 JUMPI PUSH2 0x100 DUP1 DUP4 SLOAD DIV MUL DUP4 MSTORE SWAP2 PUSH1 0x20 ADD SWAP2 PUSH2 0x293D JUMP JUMPDEST DUP3 ADD SWAP2 SWAP1 PUSH1 0x0 MSTORE PUSH1 0x20 PUSH1 0x0 KECCAK256 SWAP1 JUMPDEST DUP2 SLOAD DUP2 MSTORE SWAP1 PUSH1 0x1 ADD SWAP1 PUSH1 0x20 ADD DUP1 DUP4 GT PUSH2 0x2920 JUMPI DUP3 SWAP1 SUB PUSH1 0x1F AND DUP3 ADD SWAP2 JUMPDEST POP POP POP POP POP DUP2 MSTORE PUSH1 0x20 ADD PUSH1 0x2 DUP3 ADD DUP1 SLOAD PUSH2 0x2956 SWAP1 PUSH2 0x46EA JUMP JUMPDEST DUP1 PUSH1 0x1F ADD PUSH1 0x20 DUP1 SWAP2 DIV MUL PUSH1 0x20 ADD PUSH1 0x40 MLOAD SWAP1 DUP2 ADD PUSH1 0x40 MSTORE DUP1 SWAP3 SWAP2 SWAP1 DUP2 DUP2 MSTORE PUSH1 0x20 ADD DUP3 DUP1 SLOAD PUSH2 0x2982 SWAP1 PUSH2 0x46EA JUMP JUMPDEST DUP1 ISZERO PUSH2 0x29CF JUMPI DUP1 PUSH1 0x1F LT PUSH2 0x29A4 JUMPI PUSH2 0x100 DUP1 DUP4 SLOAD DIV MUL DUP4 MSTORE SWAP2 PUSH1 0x20 ADD SWAP2 PUSH2 0x29CF JUMP JUMPDEST DUP3 ADD SWAP2 SWAP1 PUSH1 0x0 MSTORE PUSH1 0x20 PUSH1 0x0 KECCAK256 SWAP1 JUMPDEST DUP2 SLOAD DUP2 MSTORE SWAP1 PUSH1 0x1 ADD SWAP1 PUSH1 0x20 ADD DUP1 DUP4 GT PUSH2 0x29B2 JUMPI DUP3 SWAP1 SUB PUSH1 0x1F AND DUP3 ADD SWAP2 JUMPDEST POP POP POP POP POP DUP2 MSTORE PUSH1 0x20 ADD PUSH1 0x3 DUP3 ADD DUP1 SLOAD PUSH2 0x29E8 SWAP1 PUSH2 0x46EA JUMP JUMPDEST DUP1 PUSH1 0x1F ADD PUSH1 0x20 DUP1 SWAP2 DIV MUL PUSH1 0x20 ADD PUSH1 0x40 MLOAD SWAP1 DUP2 ADD PUSH1 0x40 MSTORE DUP1 SWAP3 SWAP2 SWAP1 DUP2 DUP2 MSTORE PUSH1 0x20 ADD DUP3 DUP1 SLOAD PUSH2 0x2A14 SWAP1 PUSH2 0x46EA JUMP JUMPDEST DUP1 ISZERO PUSH2 0x2A61 JUMPI DUP1 PUSH1 0x1F LT PUSH2 0x2A36 JUMPI PUSH2 0x100 DUP1 DUP4 SLOAD DIV MUL DUP4 MSTORE SWAP2 PUSH1 0x20 ADD SWAP2 PUSH2 0x2A61 JUMP JUMPDEST DUP3 ADD SWAP2 SWAP1 PUSH1 0x0 MSTORE PUSH1 0x20 PUSH1 0x0 KECCAK256 SWAP1 JUMPDEST DUP2 SLOAD DUP2 MSTORE SWAP1 PUSH1 0x1 ADD SWAP1 PUSH1 0x20 ADD DUP1 DUP4 GT PUSH2 0x2A44 JUMPI DUP3 SWAP1 SUB PUSH1 0x1F AND DUP3 ADD SWAP2 JUMPDEST POP POP POP POP POP DUP2 MSTORE PUSH1 0x20 ADD PUSH1 0x4 DUP3 ADD DUP1 SLOAD PUSH2 0x2A7A SWAP1 PUSH2 0x46EA JUMP JUMPDEST DUP1 PUSH1 0x1F ADD PUSH1 0x20 DUP1 SWAP2 DIV MUL PUSH1 0x20 ADD PUSH1 0x40 MLOAD SWAP1 DUP2 ADD PUSH1 0x40 MSTORE DUP1 SWAP3 SWAP2 SWAP1 DUP2 DUP2 MSTORE PUSH1 0x20 ADD DUP3 DUP1 SLOAD PUSH2 0x2AA6 SWAP1 PUSH2 0x46EA JUMP JUMPDEST DUP1 ISZERO PUSH2 0x2AF3 JUMPI DUP1 PUSH1 0x1F LT PUSH2 0x2AC8 JUMPI PUSH2 0x100 DUP1 DUP4 SLOAD DIV MUL DUP4 MSTORE SWAP2 PUSH1 0x20 ADD SWAP2 PUSH2 0x2AF3 JUMP JUMPDEST DUP3 ADD SWAP2 SWAP1 PUSH1 0x0 MSTORE PUSH1 0x20 PUSH1 0x0 KECCAK256 SWAP1 JUMPDEST DUP2 SLOAD DUP2 MSTORE SWAP1 PUSH1 0x1 ADD SWAP1 PUSH1 0x20 ADD DUP1 DUP4 GT PUSH2 0x2AD6 JUMPI DUP3 SWAP1 SUB PUSH1 0x1F AND DUP3 ADD SWAP2 JUMPDEST POP POP POP POP POP DUP2 MSTORE PUSH1 0x20 ADD PUSH1 0x5 DUP3 ADD SLOAD DUP2 MSTORE POP POP SWAP1 POP SWAP2 SWAP1 POP JUMP JUMPDEST CALLER PUSH1 0x0 SWAP1 DUP2 MSTORE PUSH1 0x73 PUSH1 0x20 MSTORE PUSH1 0x40 SWAP1 KECCAK256 SLOAD PUSH1 0x60 SWAP1 PUSH1 0xFF AND ISZERO ISZERO PUSH1 0x1 EQ PUSH2 0x2B44 JUMPI PUSH1 0x40 MLOAD PUSH3 0x461BCD PUSH1 0xE5 SHL DUP2 MSTORE PUSH1 0x4 ADD PUSH2 0x7FF SWAP1 PUSH2 0x4724 JUMP JUMPDEST PUSH1 0x72 DUP1 SLOAD DUP1 PUSH1 0x20 MUL PUSH1 0x20 ADD PUSH1 0x40 MLOAD SWAP1 DUP2 ADD PUSH1 0x40 MSTORE DUP1 SWAP3 SWAP2 SWAP1 DUP2 DUP2 MSTORE PUSH1 0x20 ADD PUSH1 0x0 SWAP1 JUMPDEST DUP3 DUP3 LT ISZERO PUSH2 0x2CEC JUMPI DUP4 DUP3 SWAP1 PUSH1 0x0 MSTORE PUSH1 0x20 PUSH1 0x0 KECCAK256 SWAP1 PUSH1 0x6 MUL ADD PUSH1 0x40 MLOAD DUP1 PUSH1 0xC0 ADD PUSH1 0x40 MSTORE SWAP1 DUP2 PUSH1 0x0 DUP3 ADD SLOAD DUP2 MSTORE PUSH1 0x20 ADD PUSH1 0x1 DUP3 ADD DUP1 SLOAD PUSH2 0x2BA3 SWAP1 PUSH2 0x46EA JUMP JUMPDEST DUP1 PUSH1 0x1F ADD PUSH1 0x20 DUP1 SWAP2 DIV MUL PUSH1 0x20 ADD PUSH1 0x40 MLOAD SWAP1 DUP2 ADD PUSH1 0x40 MSTORE DUP1 SWAP3 SWAP2 SWAP1 DUP2 DUP2 MSTORE PUSH1 0x20 ADD DUP3 DUP1 SLOAD PUSH2 0x2BCF SWAP1 PUSH2 0x46EA JUMP JUMPDEST DUP1 ISZERO PUSH2 0x2C1C JUMPI DUP1 PUSH1 0x1F LT PUSH2 0x2BF1 JUMPI PUSH2 0x100 DUP1 DUP4 SLOAD DIV MUL DUP4 MSTORE SWAP2 PUSH1 0x20 ADD SWAP2 PUSH2 0x2C1C JUMP JUMPDEST DUP3 ADD SWAP2 SWAP1 PUSH1 0x0 MSTORE PUSH1 0x20 PUSH1 0x0 KECCAK256 SWAP1 JUMPDEST DUP2 SLOAD DUP2 MSTORE SWAP1 PUSH1 0x1 ADD SWAP1 PUSH1 0x20 ADD DUP1 DUP4 GT PUSH2 0x2BFF JUMPI DUP3 SWAP1 SUB PUSH1 0x1F AND DUP3 ADD SWAP2 JUMPDEST POP POP POP POP POP DUP2 MSTORE PUSH1 0x20 ADD PUSH1 0x2 DUP3 ADD SLOAD DUP2 MSTORE PUSH1 0x20 ADD PUSH1 0x3 DUP3 ADD SLOAD DUP2 MSTORE PUSH1 0x20 ADD PUSH1 0x4 DUP3 ADD DUP1 SLOAD PUSH2 0x2C49 SWAP1 PUSH2 0x46EA JUMP JUMPDEST DUP1 PUSH1 0x1F ADD PUSH1 0x20 DUP1 SWAP2 DIV MUL PUSH1 0x20 ADD PUSH1 0x40 MLOAD SWAP1 DUP2 ADD PUSH1 0x40 MSTORE DUP1 SWAP3 SWAP2 SWAP1 DUP2 DUP2 MSTORE PUSH1 0x20 ADD DUP3 DUP1 SLOAD PUSH2 0x2C75 SWAP1 PUSH2 0x46EA JUMP JUMPDEST DUP1 ISZERO PUSH2 0x2CC2 JUMPI DUP1 PUSH1 0x1F LT PUSH2 0x2C97 JUMPI PUSH2 0x100 DUP1 DUP4 SLOAD DIV MUL DUP4 MSTORE SWAP2 PUSH1 0x20 ADD SWAP2 PUSH2 0x2CC2 JUMP JUMPDEST DUP3 ADD SWAP2 SWAP1 PUSH1 0x0 MSTORE PUSH1 0x20 PUSH1 0x0 KECCAK256 SWAP1 JUMPDEST DUP2 SLOAD DUP2 MSTORE SWAP1 PUSH1 0x1 ADD SWAP1 PUSH1 0x20 ADD DUP1 DUP4 GT PUSH2 0x2CA5 JUMPI DUP3 SWAP1 SUB PUSH1 0x1F AND DUP3 ADD SWAP2 JUMPDEST POP POP POP SWAP2 DUP4 MSTORE POP POP PUSH1 0x5 SWAP2 SWAP1 SWAP2 ADD SLOAD PUSH1 0xFF AND ISZERO ISZERO PUSH1 0x20 SWAP2 DUP3 ADD MSTORE SWAP1 DUP3 MSTORE PUSH1 0x1 SWAP3 SWAP1 SWAP3 ADD SWAP2 ADD PUSH2 0x2B66 JUMP JUMPDEST POP POP POP POP SWAP1 POP SWAP1 JUMP JUMPDEST PUSH1 0x0 DUP1 JUMPDEST PUSH1 0x72 SLOAD DUP2 LT ISZERO PUSH2 0x2D46 JUMPI PUSH1 0x72 DUP2 DUP2 SLOAD DUP2 LT PUSH2 0x2D16 JUMPI PUSH2 0x2D16 PUSH2 0x46A5 JUMP JUMPDEST SWAP1 PUSH1 0x0 MSTORE PUSH1 0x20 PUSH1 0x0 KECCAK256 SWAP1 PUSH1 0x6 MUL ADD PUSH1 0x0 ADD SLOAD DUP4 SUB PUSH2 0x2D34 JUMPI SWAP3 SWAP2 POP POP JUMP JUMPDEST DUP1 PUSH2 0x2D3E DUP2 PUSH2 0x46D1 JUMP JUMPDEST SWAP2 POP POP PUSH2 0x2CF9 JUMP JUMPDEST POP PUSH1 0x40 MLOAD PUSH3 0x461BCD PUSH1 0xE5 SHL DUP2 MSTORE PUSH1 0x20 PUSH1 0x4 DUP3 ADD MSTORE PUSH1 0x11 PUSH1 0x24 DUP3 ADD MSTORE PUSH17 0x141C9BD91D58DD081B9BDD08199BDD5B99 PUSH1 0x7A SHL PUSH1 0x44 DUP3 ADD MSTORE PUSH1 0x64 ADD PUSH2 0x7FF JUMP JUMPDEST PUSH2 0x2D8B PUSH2 0x3842 JUMP JUMPDEST PUSH1 0x76 DUP1 SLOAD PUSH1 0x1 PUSH1 0x1 PUSH1 0xA0 SHL SUB NOT AND PUSH1 0x1 PUSH1 0x1 PUSH1 0xA0 SHL SUB SWAP3 SWAP1 SWAP3 AND SWAP2 SWAP1 SWAP2 OR SWAP1 SSTORE JUMP JUMPDEST PUSH2 0x2DB5 PUSH2 0x3C1C JUMP JUMPDEST PUSH1 0x0 DUP3 DUP2 MSTORE PUSH1 0x7B PUSH1 0x20 SWAP1 DUP2 MSTORE PUSH1 0x40 SWAP2 DUP3 SWAP1 KECCAK256 DUP3 MLOAD PUSH2 0x100 DUP2 ADD DUP5 MSTORE DUP2 SLOAD DUP2 MSTORE PUSH1 0x1 DUP3 ADD SLOAD PUSH1 0x1 PUSH1 0x1 PUSH1 0xA0 SHL SUB AND DUP2 DUP5 ADD MSTORE PUSH1 0x2 DUP3 ADD DUP1 SLOAD DUP6 MLOAD DUP2 DUP7 MUL DUP2 ADD DUP7 ADD DUP8 MSTORE DUP2 DUP2 MSTORE SWAP3 SWAP6 SWAP4 SWAP5 SWAP4 DUP7 ADD SWAP4 DUP4 ADD DUP3 DUP3 DUP1 ISZERO PUSH2 0x2E31 JUMPI PUSH1 0x20 MUL DUP3 ADD SWAP2 SWAP1 PUSH1 0x0 MSTORE PUSH1 0x20 PUSH1 0x0 KECCAK256 SWAP1 JUMPDEST DUP2 SLOAD DUP2 MSTORE PUSH1 0x20 ADD SWAP1 PUSH1 0x1 ADD SWAP1 DUP1 DUP4 GT PUSH2 0x2E1D JUMPI JUMPDEST POP POP POP POP POP DUP2 MSTORE PUSH1 0x20 ADD PUSH1 0x3 DUP3 ADD DUP1 SLOAD DUP1 PUSH1 0x20 MUL PUSH1 0x20 ADD PUSH1 0x40 MLOAD SWAP1 DUP2 ADD PUSH1 0x40 MSTORE DUP1 SWAP3 SWAP2 SWAP1 DUP2 DUP2 MSTORE PUSH1 0x20 ADD DUP3 DUP1 SLOAD DUP1 ISZERO PUSH2 0x2E89 JUMPI PUSH1 0x20 MUL DUP3 ADD SWAP2 SWAP1 PUSH1 0x0 MSTORE PUSH1 0x20 PUSH1 0x0 KECCAK256 SWAP1 JUMPDEST DUP2 SLOAD DUP2 MSTORE PUSH1 0x20 ADD SWAP1 PUSH1 0x1 ADD SWAP1 DUP1 DUP4 GT PUSH2 0x2E75 JUMPI JUMPDEST POP POP POP POP POP DUP2 MSTORE PUSH1 0x20 ADD PUSH1 0x4 DUP3 ADD SLOAD DUP2 MSTORE PUSH1 0x20 ADD PUSH1 0x5 DUP3 ADD DUP1 SLOAD DUP1 PUSH1 0x20 MUL PUSH1 0x20 ADD PUSH1 0x40 MLOAD SWAP1 DUP2 ADD PUSH1 0x40 MSTORE DUP1 SWAP3 SWAP2 SWAP1 DUP2 DUP2 MSTORE PUSH1 0x20 ADD DUP3 DUP1 SLOAD DUP1 ISZERO PUSH2 0x2EEB JUMPI PUSH1 0x20 MUL DUP3 ADD SWAP2 SWAP1 PUSH1 0x0 MSTORE PUSH1 0x20 PUSH1 0x0 KECCAK256 SWAP1 JUMPDEST DUP2 SLOAD DUP2 MSTORE PUSH1 0x20 ADD SWAP1 PUSH1 0x1 ADD SWAP1 DUP1 DUP4 GT PUSH2 0x2ED7 JUMPI JUMPDEST POP POP POP POP POP DUP2 MSTORE PUSH1 0x20 ADD PUSH1 0x6 DUP3 ADD PUSH1 0x40 MLOAD DUP1 PUSH1 0xC0 ADD PUSH1 0x40 MSTORE SWAP1 DUP2 PUSH1 0x0 DUP3 ADD DUP1 SLOAD PUSH2 0x2F14 SWAP1 PUSH2 0x46EA JUMP JUMPDEST DUP1 PUSH1 0x1F ADD PUSH1 0x20 DUP1 SWAP2 DIV MUL PUSH1 0x20 ADD PUSH1 0x40 MLOAD SWAP1 DUP2 ADD PUSH1 0x40 MSTORE DUP1 SWAP3 SWAP2 SWAP1 DUP2 DUP2 MSTORE PUSH1 0x20 ADD DUP3 DUP1 SLOAD PUSH2 0x2F40 SWAP1 PUSH2 0x46EA JUMP JUMPDEST DUP1 ISZERO PUSH2 0x2F8D JUMPI DUP1 PUSH1 0x1F LT PUSH2 0x2F62 JUMPI PUSH2 0x100 DUP1 DUP4 SLOAD DIV MUL DUP4 MSTORE SWAP2 PUSH1 0x20 ADD SWAP2 PUSH2 0x2F8D JUMP JUMPDEST DUP3 ADD SWAP2 SWAP1 PUSH1 0x0 MSTORE PUSH1 0x20 PUSH1 0x0 KECCAK256 SWAP1 JUMPDEST DUP2 SLOAD DUP2 MSTORE SWAP1 PUSH1 0x1 ADD SWAP1 PUSH1 0x20 ADD DUP1 DUP4 GT PUSH2 0x2F70 JUMPI DUP3 SWAP1 SUB PUSH1 0x1F AND DUP3 ADD SWAP2 JUMPDEST POP POP POP POP POP DUP2 MSTORE PUSH1 0x20 ADD PUSH1 0x1 DUP3 ADD DUP1 SLOAD PUSH2 0x2FA6 SWAP1 PUSH2 0x46EA JUMP JUMPDEST DUP1 PUSH1 0x1F ADD PUSH1 0x20 DUP1 SWAP2 DIV MUL PUSH1 0x20 ADD PUSH1 0x40 MLOAD SWAP1 DUP2 ADD PUSH1 0x40 MSTORE DUP1 SWAP3 SWAP2 SWAP1 DUP2 DUP2 MSTORE PUSH1 0x20 ADD DUP3 DUP1 SLOAD PUSH2 0x2FD2 SWAP1 PUSH2 0x46EA JUMP JUMPDEST DUP1 ISZERO PUSH2 0x301F JUMPI DUP1 PUSH1 0x1F LT PUSH2 0x2FF4 JUMPI PUSH2 0x100 DUP1 DUP4 SLOAD DIV MUL DUP4 MSTORE SWAP2 PUSH1 0x20 ADD SWAP2 PUSH2 0x301F JUMP JUMPDEST DUP3 ADD SWAP2 SWAP1 PUSH1 0x0 MSTORE PUSH1 0x20 PUSH1 0x0 KECCAK256 SWAP1 JUMPDEST DUP2 SLOAD DUP2 MSTORE SWAP1 PUSH1 0x1 ADD SWAP1 PUSH1 0x20 ADD DUP1 DUP4 GT PUSH2 0x3002 JUMPI DUP3 SWAP1 SUB PUSH1 0x1F AND DUP3 ADD SWAP2 JUMPDEST POP POP POP POP POP DUP2 MSTORE PUSH1 0x20 ADD PUSH1 0x2 DUP3 ADD DUP1 SLOAD PUSH2 0x3038 SWAP1 PUSH2 0x46EA JUMP JUMPDEST DUP1 PUSH1 0x1F ADD PUSH1 0x20 DUP1 SWAP2 DIV MUL PUSH1 0x20 ADD PUSH1 0x40 MLOAD SWAP1 DUP2 ADD PUSH1 0x40 MSTORE DUP1 SWAP3 SWAP2 SWAP1 DUP2 DUP2 MSTORE PUSH1 0x20 ADD DUP3 DUP1 SLOAD PUSH2 0x3064 SWAP1 PUSH2 0x46EA JUMP JUMPDEST DUP1 ISZERO PUSH2 0x30B1 JUMPI DUP1 PUSH1 0x1F LT PUSH2 0x3086 JUMPI PUSH2 0x100 DUP1 DUP4 SLOAD DIV MUL DUP4 MSTORE SWAP2 PUSH1 0x20 ADD SWAP2 PUSH2 0x30B1 JUMP JUMPDEST DUP3 ADD SWAP2 SWAP1 PUSH1 0x0 MSTORE PUSH1 0x20 PUSH1 0x0 KECCAK256 SWAP1 JUMPDEST DUP2 SLOAD DUP2 MSTORE SWAP1 PUSH1 0x1 ADD SWAP1 PUSH1 0x20 ADD DUP1 DUP4 GT PUSH2 0x3094 JUMPI DUP3 SWAP1 SUB PUSH1 0x1F AND DUP3 ADD SWAP2 JUMPDEST POP POP POP POP POP DUP2 MSTORE PUSH1 0x20 ADD PUSH1 0x3 DUP3 ADD DUP1 SLOAD PUSH2 0x30CA SWAP1 PUSH2 0x46EA JUMP JUMPDEST DUP1 PUSH1 0x1F ADD PUSH1 0x20 DUP1 SWAP2 DIV MUL PUSH1 0x20 ADD PUSH1 0x40 MLOAD SWAP1 DUP2 ADD PUSH1 0x40 MSTORE DUP1 SWAP3 SWAP2 SWAP1 DUP2 DUP2 MSTORE PUSH1 0x20 ADD DUP3 DUP1 SLOAD PUSH2 0x30F6 SWAP1 PUSH2 0x46EA JUMP JUMPDEST DUP1 ISZERO PUSH2 0x3143 JUMPI DUP1 PUSH1 0x1F LT PUSH2 0x3118 JUMPI PUSH2 0x100 DUP1 DUP4 SLOAD DIV MUL DUP4 MSTORE SWAP2 PUSH1 0x20 ADD SWAP2 PUSH2 0x3143 JUMP JUMPDEST DUP3 ADD SWAP2 SWAP1 PUSH1 0x0 MSTORE PUSH1 0x20 PUSH1 0x0 KECCAK256 SWAP1 JUMPDEST DUP2 SLOAD DUP2 MSTORE SWAP1 PUSH1 0x1 ADD SWAP1 PUSH1 0x20 ADD DUP1 DUP4 GT PUSH2 0x3126 JUMPI DUP3 SWAP1 SUB PUSH1 0x1F AND DUP3 ADD SWAP2 JUMPDEST POP POP POP POP POP DUP2 MSTORE PUSH1 0x20 ADD PUSH1 0x4 DUP3 ADD DUP1 SLOAD PUSH2 0x315C SWAP1 PUSH2 0x46EA JUMP JUMPDEST DUP1 PUSH1 0x1F ADD PUSH1 0x20 DUP1 SWAP2 DIV MUL PUSH1 0x20 ADD PUSH1 0x40 MLOAD SWAP1 DUP2 ADD PUSH1 0x40 MSTORE DUP1 SWAP3 SWAP2 SWAP1 DUP2 DUP2 MSTORE PUSH1 0x20 ADD DUP3 DUP1 SLOAD PUSH2 0x3188 SWAP1 PUSH2 0x46EA JUMP JUMPDEST DUP1 ISZERO PUSH2 0x31D5 JUMPI DUP1 PUSH1 0x1F LT PUSH2 0x31AA JUMPI PUSH2 0x100 DUP1 DUP4 SLOAD DIV MUL DUP4 MSTORE SWAP2 PUSH1 0x20 ADD SWAP2 PUSH2 0x31D5 JUMP JUMPDEST DUP3 ADD SWAP2 SWAP1 PUSH1 0x0 MSTORE PUSH1 0x20 PUSH1 0x0 KECCAK256 SWAP1 JUMPDEST DUP2 SLOAD DUP2 MSTORE SWAP1 PUSH1 0x1 ADD SWAP1 PUSH1 0x20 ADD DUP1 DUP4 GT PUSH2 0x31B8 JUMPI DUP3 SWAP1 SUB PUSH1 0x1F AND DUP3 ADD SWAP2 JUMPDEST POP POP POP SWAP2 DUP4 MSTORE POP POP PUSH1 0x5 SWAP2 SWAP1 SWAP2 ADD SLOAD PUSH1 0x20 SWAP2 DUP3 ADD MSTORE SWAP1 DUP3 MSTORE PUSH1 0xC SWAP3 SWAP1 SWAP3 ADD SLOAD PUSH1 0x1 PUSH1 0x1 PUSH1 0xA0 SHL SUB AND SWAP2 ADD MSTORE SWAP3 SWAP2 POP POP JUMP JUMPDEST PUSH1 0x7C PUSH1 0x20 MSTORE PUSH1 0x0 SWAP1 DUP2 MSTORE PUSH1 0x40 SWAP1 KECCAK256 DUP1 SLOAD PUSH1 0x1 DUP3 ADD DUP1 SLOAD SWAP2 SWAP3 SWAP2 PUSH2 0x2668 SWAP1 PUSH2 0x46EA JUMP JUMPDEST PUSH2 0x3230 PUSH2 0x3842 JUMP JUMPDEST PUSH1 0x75 DUP1 SLOAD PUSH1 0x1 PUSH1 0x1 PUSH1 0xA0 SHL SUB NOT AND PUSH1 0x1 PUSH1 0x1 PUSH1 0xA0 SHL SUB SWAP3 SWAP1 SWAP3 AND SWAP2 SWAP1 SWAP2 OR SWAP1 SSTORE JUMP JUMPDEST PUSH2 0x325A PUSH2 0x3842 JUMP JUMPDEST PUSH1 0x1 PUSH1 0x1 PUSH1 0xA0 SHL SUB DUP2 AND PUSH2 0x32BF JUMPI PUSH1 0x40 MLOAD PUSH3 0x461BCD PUSH1 0xE5 SHL DUP2 MSTORE PUSH1 0x20 PUSH1 0x4 DUP3 ADD MSTORE PUSH1 0x26 PUSH1 0x24 DUP3 ADD MSTORE PUSH32 0x4F776E61626C653A206E6577206F776E657220697320746865207A65726F2061 PUSH1 0x44 DUP3 ADD MSTORE PUSH6 0x646472657373 PUSH1 0xD0 SHL PUSH1 0x64 DUP3 ADD MSTORE PUSH1 0x84 ADD PUSH2 0x7FF JUMP JUMPDEST PUSH2 0x32C8 DUP2 PUSH2 0x389C JUMP JUMPDEST POP JUMP JUMPDEST PUSH1 0x7A PUSH1 0x20 MSTORE PUSH1 0x0 SWAP1 DUP2 MSTORE PUSH1 0x40 SWAP1 KECCAK256 DUP1 SLOAD PUSH1 0x1 DUP3 ADD DUP1 SLOAD SWAP2 SWAP3 SWAP2 PUSH2 0x2668 SWAP1 PUSH2 0x46EA JUMP JUMPDEST PUSH1 0x0 DUP8 DUP2 MSTORE PUSH1 0x7B PUSH1 0x20 MSTORE PUSH1 0x40 SWAP1 KECCAK256 PUSH1 0x1 ADD SLOAD PUSH1 0x1 PUSH1 0x1 PUSH1 0xA0 SHL SUB AND CALLER EQ PUSH2 0x3356 JUMPI PUSH1 0x40 MLOAD PUSH3 0x461BCD PUSH1 0xE5 SHL DUP2 MSTORE PUSH1 0x20 PUSH1 0x4 DUP3 ADD MSTORE PUSH1 0x1C PUSH1 0x24 DUP3 ADD MSTORE PUSH32 0x6F6E6C79206F776E6572206F66206F726465722063616E2063616C6C00000000 PUSH1 0x44 DUP3 ADD MSTORE PUSH1 0x64 ADD PUSH2 0x7FF JUMP JUMPDEST PUSH1 0x40 DUP1 MLOAD PUSH1 0xC0 DUP2 ADD DUP3 MSTORE DUP8 DUP2 MSTORE PUSH1 0x20 DUP1 DUP3 ADD DUP9 SWAP1 MSTORE DUP2 DUP4 ADD DUP8 SWAP1 MSTORE PUSH1 0x60 DUP3 ADD DUP7 SWAP1 MSTORE PUSH1 0x80 DUP3 ADD DUP6 SWAP1 MSTORE PUSH1 0xA0 DUP3 ADD DUP5 SWAP1 MSTORE PUSH1 0x0 DUP11 DUP2 MSTORE PUSH1 0x7B SWAP1 SWAP2 MSTORE SWAP2 SWAP1 SWAP2 KECCAK256 DUP2 MLOAD DUP3 SWAP2 PUSH1 0x6 ADD SWAP1 DUP2 SWAP1 PUSH2 0x33A8 SWAP1 DUP3 PUSH2 0x47AA JUMP JUMPDEST POP PUSH1 0x20 DUP3 ADD MLOAD PUSH1 0x1 DUP3 ADD SWAP1 PUSH2 0x33BD SWAP1 DUP3 PUSH2 0x47AA JUMP JUMPDEST POP PUSH1 0x40 DUP3 ADD MLOAD PUSH1 0x2 DUP3 ADD SWAP1 PUSH2 0x33D2 SWAP1 DUP3 PUSH2 0x47AA JUMP JUMPDEST POP PUSH1 0x60 DUP3 ADD MLOAD PUSH1 0x3 DUP3 ADD SWAP1 PUSH2 0x33E7 SWAP1 DUP3 PUSH2 0x47AA JUMP JUMPDEST POP PUSH1 0x80 DUP3 ADD MLOAD PUSH1 0x4 DUP3 ADD SWAP1 PUSH2 0x33FC SWAP1 DUP3 PUSH2 0x47AA JUMP JUMPDEST POP PUSH1 0xA0 DUP3 ADD MLOAD DUP2 PUSH1 0x5 ADD SSTORE SWAP1 POP POP POP POP POP POP POP POP POP POP JUMP JUMPDEST PUSH1 0x0 SLOAD PUSH2 0x100 SWAP1 DIV PUSH1 0xFF AND ISZERO DUP1 DUP1 ISZERO PUSH2 0x3434 JUMPI POP PUSH1 0x0 SLOAD PUSH1 0x1 PUSH1 0xFF SWAP1 SWAP2 AND LT JUMPDEST DUP1 PUSH2 0x344E JUMPI POP ADDRESS EXTCODESIZE ISZERO DUP1 ISZERO PUSH2 0x344E JUMPI POP PUSH1 0x0 SLOAD PUSH1 0xFF AND PUSH1 0x1 EQ JUMPDEST PUSH2 0x34B1 JUMPI PUSH1 0x40 MLOAD PUSH3 0x461BCD PUSH1 0xE5 SHL DUP2 MSTORE PUSH1 0x20 PUSH1 0x4 DUP3 ADD MSTORE PUSH1 0x2E PUSH1 0x24 DUP3 ADD MSTORE PUSH32 0x496E697469616C697A61626C653A20636F6E747261637420697320616C726561 PUSH1 0x44 DUP3 ADD MSTORE PUSH14 0x191E481A5B9A5D1A585B1A5E9959 PUSH1 0x92 SHL PUSH1 0x64 DUP3 ADD MSTORE PUSH1 0x84 ADD PUSH2 0x7FF JUMP JUMPDEST PUSH1 0x0 DUP1 SLOAD PUSH1 0xFF NOT AND PUSH1 0x1 OR SWAP1 SSTORE DUP1 ISZERO PUSH2 0x34D4 JUMPI PUSH1 0x0 DUP1 SLOAD PUSH2 0xFF00 NOT AND PUSH2 0x100 OR SWAP1 SSTORE JUMPDEST PUSH1 0x75 DUP1 SLOAD PUSH1 0x1 PUSH1 0x1 PUSH1 0xA0 SHL SUB DUP1 DUP9 AND PUSH1 0x1 PUSH1 0x1 PUSH1 0xA0 SHL SUB NOT SWAP3 DUP4 AND OR SWAP1 SWAP3 SSTORE PUSH1 0x76 DUP1 SLOAD DUP8 DUP5 AND SWAP1 DUP4 AND OR SWAP1 SSTORE PUSH1 0x78 DUP1 SLOAD DUP7 DUP5 AND SWAP1 DUP4 AND OR SWAP1 SSTORE PUSH1 0x77 DUP1 SLOAD SWAP3 DUP6 AND SWAP3 SWAP1 SWAP2 AND SWAP2 SWAP1 SWAP2 OR SWAP1 SSTORE PUSH2 0x3526 PUSH2 0x38EE JUMP JUMPDEST DUP1 ISZERO PUSH2 0x356C JUMPI PUSH1 0x0 DUP1 SLOAD PUSH2 0xFF00 NOT AND SWAP1 SSTORE PUSH1 0x40 MLOAD PUSH1 0x1 DUP2 MSTORE PUSH32 0x7F26B83FF96E1F2B6A682F133852F6798A09C465DA95921460CEFB3847402498 SWAP1 PUSH1 0x20 ADD PUSH1 0x40 MLOAD DUP1 SWAP2 SUB SWAP1 LOG1 JUMPDEST POP POP POP POP POP JUMP JUMPDEST PUSH1 0x0 DUP2 MLOAD DUP4 MLOAD EQ PUSH2 0x3586 JUMPI POP PUSH1 0x0 PUSH2 0x3601 JUMP JUMPDEST PUSH1 0x0 JUMPDEST DUP4 MLOAD DUP2 LT ISZERO PUSH2 0x35FB JUMPI DUP3 DUP2 DUP2 MLOAD DUP2 LT PUSH2 0x35A4 JUMPI PUSH2 0x35A4 PUSH2 0x46A5 JUMP JUMPDEST PUSH1 0x20 ADD ADD MLOAD PUSH1 0xF8 SHR PUSH1 0xF8 SHL PUSH1 0x1 PUSH1 0x1 PUSH1 0xF8 SHL SUB NOT AND DUP5 DUP3 DUP2 MLOAD DUP2 LT PUSH2 0x35CB JUMPI PUSH2 0x35CB PUSH2 0x46A5 JUMP JUMPDEST ADD PUSH1 0x20 ADD MLOAD PUSH1 0x1 PUSH1 0x1 PUSH1 0xF8 SHL SUB NOT AND EQ PUSH2 0x35E9 JUMPI PUSH1 0x0 SWAP2 POP POP PUSH2 0x3601 JUMP JUMPDEST DUP1 PUSH2 0x35F3 DUP2 PUSH2 0x46D1 JUMP JUMPDEST SWAP2 POP POP PUSH2 0x3589 JUMP JUMPDEST POP PUSH1 0x1 SWAP1 POP JUMPDEST SWAP3 SWAP2 POP POP JUMP JUMPDEST PUSH1 0x60 PUSH1 0x0 DUP1 JUMPDEST DUP9 MLOAD DUP2 LT ISZERO PUSH2 0x364F JUMPI DUP8 DUP2 DUP2 MLOAD DUP2 LT PUSH2 0x3628 JUMPI PUSH2 0x3628 PUSH2 0x46A5 JUMP JUMPDEST PUSH1 0x20 MUL PUSH1 0x20 ADD ADD MLOAD DUP3 PUSH2 0x363B SWAP2 SWAP1 PUSH2 0x498C JUMP JUMPDEST SWAP2 POP DUP1 PUSH2 0x3647 DUP2 PUSH2 0x46D1 JUMP JUMPDEST SWAP2 POP POP PUSH2 0x360D JUMP JUMPDEST POP PUSH1 0x0 DUP1 DUP3 PUSH1 0x1 PUSH1 0x1 PUSH1 0x40 SHL SUB DUP2 GT ISZERO PUSH2 0x366B JUMPI PUSH2 0x366B PUSH2 0x3DD0 JUMP JUMPDEST PUSH1 0x40 MLOAD SWAP1 DUP1 DUP3 MSTORE DUP1 PUSH1 0x20 MUL PUSH1 0x20 ADD DUP3 ADD PUSH1 0x40 MSTORE DUP1 ISZERO PUSH2 0x3694 JUMPI DUP2 PUSH1 0x20 ADD PUSH1 0x20 DUP3 MUL DUP1 CALLDATASIZE DUP4 CALLDATACOPY ADD SWAP1 POP JUMPDEST POP SWAP1 POP PUSH1 0x0 JUMPDEST DUP11 MLOAD DUP2 LT ISZERO PUSH2 0x3834 JUMPI PUSH1 0x0 DUP11 DUP3 DUP2 MLOAD DUP2 LT PUSH2 0x36B7 JUMPI PUSH2 0x36B7 PUSH2 0x46A5 JUMP JUMPDEST PUSH1 0x20 MUL PUSH1 0x20 ADD ADD MLOAD PUSH1 0x1 PUSH1 0x1 PUSH1 0x40 SHL SUB DUP2 GT ISZERO PUSH2 0x36D6 JUMPI PUSH2 0x36D6 PUSH2 0x3DD0 JUMP JUMPDEST PUSH1 0x40 MLOAD SWAP1 DUP1 DUP3 MSTORE DUP1 PUSH1 0x20 MUL PUSH1 0x20 ADD DUP3 ADD PUSH1 0x40 MSTORE DUP1 ISZERO PUSH2 0x36FF JUMPI DUP2 PUSH1 0x20 ADD PUSH1 0x20 DUP3 MUL DUP1 CALLDATASIZE DUP4 CALLDATACOPY ADD SWAP1 POP JUMPDEST POP SWAP1 POP PUSH2 0x3796 DUP13 DUP4 DUP2 MLOAD DUP2 LT PUSH2 0x3717 JUMPI PUSH2 0x3717 PUSH2 0x46A5 JUMP JUMPDEST PUSH1 0x20 MUL PUSH1 0x20 ADD ADD MLOAD DUP13 DUP5 DUP2 MLOAD DUP2 LT PUSH2 0x3731 JUMPI PUSH2 0x3731 PUSH2 0x46A5 JUMP JUMPDEST PUSH1 0x20 MUL PUSH1 0x20 ADD ADD MLOAD DUP13 DUP6 DUP2 MLOAD DUP2 LT PUSH2 0x374B JUMPI PUSH2 0x374B PUSH2 0x46A5 JUMP JUMPDEST PUSH1 0x20 MUL PUSH1 0x20 ADD ADD MLOAD DUP13 DUP13 DUP8 DUP2 DUP2 LT PUSH2 0x3765 JUMPI PUSH2 0x3765 PUSH2 0x46A5 JUMP JUMPDEST SWAP1 POP PUSH1 0x20 MUL DUP2 ADD SWAP1 PUSH2 0x3777 SWAP2 SWAP1 PUSH2 0x4A2E JUMP JUMPDEST DUP13 DUP9 DUP2 MLOAD DUP2 LT PUSH2 0x3789 JUMPI PUSH2 0x3789 PUSH2 0x46A5 JUMP JUMPDEST PUSH1 0x20 MUL PUSH1 0x20 ADD ADD MLOAD PUSH2 0x391D JUMP JUMPDEST SWAP1 POP PUSH1 0x0 JUMPDEST DUP2 MLOAD DUP2 LT ISZERO PUSH2 0x37F8 JUMPI DUP2 DUP2 DUP2 MLOAD DUP2 LT PUSH2 0x37B6 JUMPI PUSH2 0x37B6 PUSH2 0x46A5 JUMP JUMPDEST PUSH1 0x20 MUL PUSH1 0x20 ADD ADD MLOAD DUP5 DUP3 DUP8 PUSH2 0x37CB SWAP2 SWAP1 PUSH2 0x498C JUMP JUMPDEST DUP2 MLOAD DUP2 LT PUSH2 0x37DB JUMPI PUSH2 0x37DB PUSH2 0x46A5 JUMP JUMPDEST PUSH1 0x20 SWAP1 DUP2 MUL SWAP2 SWAP1 SWAP2 ADD ADD MSTORE DUP1 PUSH2 0x37F0 DUP2 PUSH2 0x46D1 JUMP JUMPDEST SWAP2 POP POP PUSH2 0x379B JUMP JUMPDEST POP DUP11 DUP3 DUP2 MLOAD DUP2 LT PUSH2 0x380B JUMPI PUSH2 0x380B PUSH2 0x46A5 JUMP JUMPDEST PUSH1 0x20 MUL PUSH1 0x20 ADD ADD MLOAD DUP5 PUSH2 0x381E SWAP2 SWAP1 PUSH2 0x498C JUMP JUMPDEST SWAP4 POP POP DUP1 DUP1 PUSH2 0x382C SWAP1 PUSH2 0x46D1 JUMP JUMPDEST SWAP2 POP POP PUSH2 0x369A JUMP JUMPDEST POP SWAP10 SWAP9 POP POP POP POP POP POP POP POP POP JUMP JUMPDEST PUSH1 0x33 SLOAD PUSH1 0x1 PUSH1 0x1 PUSH1 0xA0 SHL SUB AND CALLER EQ PUSH2 0x1AE3 JUMPI PUSH1 0x40 MLOAD PUSH3 0x461BCD PUSH1 0xE5 SHL DUP2 MSTORE PUSH1 0x20 PUSH1 0x4 DUP3 ADD DUP2 SWAP1 MSTORE PUSH1 0x24 DUP3 ADD MSTORE PUSH32 0x4F776E61626C653A2063616C6C6572206973206E6F7420746865206F776E6572 PUSH1 0x44 DUP3 ADD MSTORE PUSH1 0x64 ADD PUSH2 0x7FF JUMP JUMPDEST PUSH1 0x33 DUP1 SLOAD PUSH1 0x1 PUSH1 0x1 PUSH1 0xA0 SHL SUB DUP4 DUP2 AND PUSH1 0x1 PUSH1 0x1 PUSH1 0xA0 SHL SUB NOT DUP4 AND DUP2 OR SWAP1 SWAP4 SSTORE PUSH1 0x40 MLOAD SWAP2 AND SWAP2 SWAP1 DUP3 SWAP1 PUSH32 0x8BE0079C531659141344CD1FD0A4F28419497F9722A3DAAFE3B4186F6B6457E0 SWAP1 PUSH1 0x0 SWAP1 LOG3 POP POP JUMP JUMPDEST PUSH1 0x0 SLOAD PUSH2 0x100 SWAP1 DIV PUSH1 0xFF AND PUSH2 0x3915 JUMPI PUSH1 0x40 MLOAD PUSH3 0x461BCD PUSH1 0xE5 SHL DUP2 MSTORE PUSH1 0x4 ADD PUSH2 0x7FF SWAP1 PUSH2 0x4A77 JUMP JUMPDEST PUSH2 0x1AE3 PUSH2 0x3B66 JUMP JUMPDEST PUSH1 0x0 DUP7 DUP2 MSTORE PUSH1 0x7A PUSH1 0x20 MSTORE PUSH1 0x40 SWAP1 KECCAK256 SLOAD PUSH1 0x60 SWAP1 PUSH2 0x397B JUMPI PUSH1 0x40 MLOAD PUSH3 0x461BCD PUSH1 0xE5 SHL DUP2 MSTORE PUSH1 0x20 PUSH1 0x4 DUP3 ADD MSTORE PUSH1 0x19 PUSH1 0x24 DUP3 ADD MSTORE PUSH32 0x70726F6475637420696420646F6573206E6F7420657869737400000000000000 PUSH1 0x44 DUP3 ADD MSTORE PUSH1 0x64 ADD PUSH2 0x7FF JUMP JUMPDEST PUSH1 0x0 DUP7 GT PUSH2 0x39BC JUMPI PUSH1 0x40 MLOAD PUSH3 0x461BCD PUSH1 0xE5 SHL DUP2 MSTORE PUSH1 0x20 PUSH1 0x4 DUP3 ADD MSTORE PUSH1 0xE PUSH1 0x24 DUP3 ADD MSTORE PUSH14 0x7175616E746974792077726F6E67 PUSH1 0x90 SHL PUSH1 0x44 DUP3 ADD MSTORE PUSH1 0x64 ADD PUSH2 0x7FF JUMP JUMPDEST PUSH1 0x0 DUP7 PUSH1 0x1 PUSH1 0x1 PUSH1 0x40 SHL SUB DUP2 GT ISZERO PUSH2 0x39D6 JUMPI PUSH2 0x39D6 PUSH2 0x3DD0 JUMP JUMPDEST PUSH1 0x40 MLOAD SWAP1 DUP1 DUP3 MSTORE DUP1 PUSH1 0x20 MUL PUSH1 0x20 ADD DUP3 ADD PUSH1 0x40 MSTORE DUP1 ISZERO PUSH2 0x39FF JUMPI DUP2 PUSH1 0x20 ADD PUSH1 0x20 DUP3 MUL DUP1 CALLDATASIZE DUP4 CALLDATACOPY ADD SWAP1 POP JUMPDEST POP PUSH1 0x78 SLOAD PUSH1 0x0 DUP11 DUP2 MSTORE PUSH1 0x7A PUSH1 0x20 MSTORE PUSH1 0x40 SWAP1 DUP2 SWAP1 KECCAK256 PUSH1 0x2 ADD SLOAD SWAP1 MLOAD PUSH4 0x1DCB20F1 PUSH1 0xE3 SHL DUP2 MSTORE SWAP3 SWAP4 POP PUSH1 0x1 PUSH1 0x1 PUSH1 0xA0 SHL SUB SWAP1 SWAP2 AND SWAP2 PUSH4 0xEE590788 SWAP2 PUSH2 0x3A51 SWAP2 CALLER SWAP2 SWAP1 DUP13 SWAP1 DUP13 SWAP1 DUP13 SWAP1 DUP13 SWAP1 DUP13 SWAP1 PUSH1 0x4 ADD PUSH2 0x4AC2 JUMP JUMPDEST PUSH1 0x0 PUSH1 0x40 MLOAD DUP1 DUP4 SUB DUP2 PUSH1 0x0 DUP8 GAS CALL ISZERO DUP1 ISZERO PUSH2 0x3A70 JUMPI RETURNDATASIZE PUSH1 0x0 DUP1 RETURNDATACOPY RETURNDATASIZE PUSH1 0x0 REVERT JUMPDEST POP POP POP POP PUSH1 0x40 MLOAD RETURNDATASIZE PUSH1 0x0 DUP3 RETURNDATACOPY PUSH1 0x1F RETURNDATASIZE SWAP1 DUP2 ADD PUSH1 0x1F NOT AND DUP3 ADD PUSH1 0x40 MSTORE PUSH2 0x3A98 SWAP2 SWAP1 DUP2 ADD SWAP1 PUSH2 0x4B2B JUMP JUMPDEST SWAP1 POP PUSH1 0x0 JUMPDEST DUP2 MLOAD DUP2 LT ISZERO PUSH2 0x3B5A JUMPI PUSH1 0x7A PUSH1 0x0 DUP11 DUP2 MSTORE PUSH1 0x20 ADD SWAP1 DUP2 MSTORE PUSH1 0x20 ADD PUSH1 0x0 KECCAK256 PUSH1 0x7C PUSH1 0x0 DUP5 DUP5 DUP2 MLOAD DUP2 LT PUSH2 0x3ACF JUMPI PUSH2 0x3ACF PUSH2 0x46A5 JUMP JUMPDEST PUSH1 0x20 MUL PUSH1 0x20 ADD ADD MLOAD DUP2 MSTORE PUSH1 0x20 ADD SWAP1 DUP2 MSTORE PUSH1 0x20 ADD PUSH1 0x0 KECCAK256 PUSH1 0x0 DUP3 ADD SLOAD DUP2 PUSH1 0x0 ADD SSTORE PUSH1 0x1 DUP3 ADD DUP2 PUSH1 0x1 ADD SWAP1 DUP2 PUSH2 0x3B03 SWAP2 SWAP1 PUSH2 0x4869 JUMP JUMPDEST POP PUSH1 0x2 DUP3 ADD SLOAD DUP2 PUSH1 0x2 ADD SSTORE PUSH1 0x3 DUP3 ADD SLOAD DUP2 PUSH1 0x3 ADD SSTORE PUSH1 0x4 DUP3 ADD DUP2 PUSH1 0x4 ADD SWAP1 DUP2 PUSH2 0x3B2C SWAP2 SWAP1 PUSH2 0x4869 JUMP JUMPDEST POP PUSH1 0x5 SWAP2 DUP3 ADD SLOAD SWAP2 ADD DUP1 SLOAD PUSH1 0xFF NOT AND PUSH1 0xFF SWAP1 SWAP3 AND ISZERO ISZERO SWAP2 SWAP1 SWAP2 OR SWAP1 SSTORE DUP1 PUSH2 0x3B52 DUP2 PUSH2 0x46D1 JUMP JUMPDEST SWAP2 POP POP PUSH2 0x3A9D JUMP JUMPDEST POP SWAP8 SWAP7 POP POP POP POP POP POP POP JUMP JUMPDEST PUSH1 0x0 SLOAD PUSH2 0x100 SWAP1 DIV PUSH1 0xFF AND PUSH2 0x3B8D JUMPI PUSH1 0x40 MLOAD PUSH3 0x461BCD PUSH1 0xE5 SHL DUP2 MSTORE PUSH1 0x4 ADD PUSH2 0x7FF SWAP1 PUSH2 0x4A77 JUMP JUMPDEST PUSH2 0x1AE3 CALLER PUSH2 0x389C JUMP JUMPDEST PUSH1 0x40 MLOAD DUP1 PUSH1 0xC0 ADD PUSH1 0x40 MSTORE DUP1 PUSH1 0x0 DUP1 NOT AND DUP2 MSTORE PUSH1 0x20 ADD PUSH1 0x60 DUP2 MSTORE PUSH1 0x20 ADD PUSH1 0x0 DUP2 MSTORE PUSH1 0x20 ADD PUSH1 0x0 DUP2 MSTORE PUSH1 0x20 ADD PUSH1 0x60 DUP2 MSTORE PUSH1 0x20 ADD PUSH1 0x0 ISZERO ISZERO DUP2 MSTORE POP SWAP1 JUMP JUMPDEST DUP3 DUP1 SLOAD DUP3 DUP3 SSTORE SWAP1 PUSH1 0x0 MSTORE PUSH1 0x20 PUSH1 0x0 KECCAK256 SWAP1 DUP2 ADD SWAP3 DUP3 ISZERO PUSH2 0x3C0C JUMPI SWAP2 PUSH1 0x20 MUL DUP3 ADD JUMPDEST DUP3 DUP2 GT ISZERO PUSH2 0x3C0C JUMPI DUP3 MLOAD DUP3 SSTORE SWAP2 PUSH1 0x20 ADD SWAP2 SWAP1 PUSH1 0x1 ADD SWAP1 PUSH2 0x3BF1 JUMP JUMPDEST POP PUSH2 0x3C18 SWAP3 SWAP2 POP PUSH2 0x3CA4 JUMP JUMPDEST POP SWAP1 JUMP JUMPDEST PUSH1 0x40 MLOAD DUP1 PUSH2 0x100 ADD PUSH1 0x40 MSTORE DUP1 PUSH1 0x0 DUP1 NOT AND DUP2 MSTORE PUSH1 0x20 ADD PUSH1 0x0 PUSH1 0x1 PUSH1 0x1 PUSH1 0xA0 SHL SUB AND DUP2 MSTORE PUSH1 0x20 ADD PUSH1 0x60 DUP2 MSTORE PUSH1 0x20 ADD PUSH1 0x60 DUP2 MSTORE PUSH1 0x20 ADD PUSH1 0x0 DUP2 MSTORE PUSH1 0x20 ADD PUSH1 0x60 DUP2 MSTORE PUSH1 0x20 ADD PUSH2 0x3C97 PUSH1 0x40 MLOAD DUP1 PUSH1 0xC0 ADD PUSH1 0x40 MSTORE DUP1 PUSH1 0x60 DUP2 MSTORE PUSH1 0x20 ADD PUSH1 0x60 DUP2 MSTORE PUSH1 0x20 ADD PUSH1 0x60 DUP2 MSTORE PUSH1 0x20 ADD PUSH1 0x60 DUP2 MSTORE PUSH1 0x20 ADD PUSH1 0x60 DUP2 MSTORE PUSH1 0x20 ADD PUSH1 0x0 DUP2 MSTORE POP SWAP1 JUMP JUMPDEST DUP2 MSTORE PUSH1 0x0 PUSH1 0x20 SWAP1 SWAP2 ADD MSTORE SWAP1 JUMP JUMPDEST JUMPDEST DUP1 DUP3 GT ISZERO PUSH2 0x3C18 JUMPI PUSH1 0x0 DUP2 SSTORE PUSH1 0x1 ADD PUSH2 0x3CA5 JUMP JUMPDEST PUSH1 0x0 JUMPDEST DUP4 DUP2 LT ISZERO PUSH2 0x3CD4 JUMPI DUP2 DUP2 ADD MLOAD DUP4 DUP3 ADD MSTORE PUSH1 0x20 ADD PUSH2 0x3CBC JUMP JUMPDEST POP POP PUSH1 0x0 SWAP2 ADD MSTORE JUMP JUMPDEST PUSH1 0x0 DUP2 MLOAD DUP1 DUP5 MSTORE PUSH2 0x3CF5 DUP2 PUSH1 0x20 DUP7 ADD PUSH1 0x20 DUP7 ADD PUSH2 0x3CB9 JUMP JUMPDEST PUSH1 0x1F ADD PUSH1 0x1F NOT AND SWAP3 SWAP1 SWAP3 ADD PUSH1 0x20 ADD SWAP3 SWAP2 POP POP JUMP JUMPDEST DUP1 MLOAD DUP3 MSTORE PUSH1 0x0 PUSH1 0x20 DUP3 ADD MLOAD PUSH1 0xC0 PUSH1 0x20 DUP6 ADD MSTORE PUSH2 0x3D28 PUSH1 0xC0 DUP6 ADD DUP3 PUSH2 0x3CDD JUMP JUMPDEST SWAP1 POP PUSH1 0x40 DUP4 ADD MLOAD PUSH1 0x40 DUP6 ADD MSTORE PUSH1 0x60 DUP4 ADD MLOAD PUSH1 0x60 DUP6 ADD MSTORE PUSH1 0x80 DUP4 ADD MLOAD DUP5 DUP3 SUB PUSH1 0x80 DUP7 ADD MSTORE PUSH2 0x3D55 DUP3 DUP3 PUSH2 0x3CDD JUMP JUMPDEST SWAP2 POP POP PUSH1 0xA0 DUP4 ADD MLOAD ISZERO ISZERO PUSH1 0xA0 DUP6 ADD MSTORE DUP1 SWAP2 POP POP SWAP3 SWAP2 POP POP JUMP JUMPDEST PUSH1 0x0 PUSH1 0x20 DUP1 DUP4 ADD DUP2 DUP5 MSTORE DUP1 DUP6 MLOAD DUP1 DUP4 MSTORE PUSH1 0x40 DUP7 ADD SWAP2 POP PUSH1 0x40 DUP2 PUSH1 0x5 SHL DUP8 ADD ADD SWAP3 POP DUP4 DUP8 ADD PUSH1 0x0 JUMPDEST DUP3 DUP2 LT ISZERO PUSH2 0x3DC3 JUMPI PUSH1 0x3F NOT DUP9 DUP7 SUB ADD DUP5 MSTORE PUSH2 0x3DB1 DUP6 DUP4 MLOAD PUSH2 0x3D09 JUMP JUMPDEST SWAP5 POP SWAP3 DUP6 ADD SWAP3 SWAP1 DUP6 ADD SWAP1 PUSH1 0x1 ADD PUSH2 0x3D95 JUMP JUMPDEST POP SWAP3 SWAP8 SWAP7 POP POP POP POP POP POP POP JUMP JUMPDEST PUSH4 0x4E487B71 PUSH1 0xE0 SHL PUSH1 0x0 MSTORE PUSH1 0x41 PUSH1 0x4 MSTORE PUSH1 0x24 PUSH1 0x0 REVERT JUMPDEST PUSH1 0x40 MLOAD PUSH1 0x1F DUP3 ADD PUSH1 0x1F NOT AND DUP2 ADD PUSH1 0x1 PUSH1 0x1 PUSH1 0x40 SHL SUB DUP2 GT DUP3 DUP3 LT OR ISZERO PUSH2 0x3E0E JUMPI PUSH2 0x3E0E PUSH2 0x3DD0 JUMP JUMPDEST PUSH1 0x40 MSTORE SWAP2 SWAP1 POP JUMP JUMPDEST PUSH1 0x0 DUP3 PUSH1 0x1F DUP4 ADD SLT PUSH2 0x3E27 JUMPI PUSH1 0x0 DUP1 REVERT JUMPDEST DUP2 CALLDATALOAD PUSH1 0x1 PUSH1 0x1 PUSH1 0x40 SHL SUB DUP2 GT ISZERO PUSH2 0x3E40 JUMPI PUSH2 0x3E40 PUSH2 0x3DD0 JUMP JUMPDEST PUSH2 0x3E53 PUSH1 0x1F DUP3 ADD PUSH1 0x1F NOT AND PUSH1 0x20 ADD PUSH2 0x3DE6 JUMP JUMPDEST DUP2 DUP2 MSTORE DUP5 PUSH1 0x20 DUP4 DUP7 ADD ADD GT ISZERO PUSH2 0x3E68 JUMPI PUSH1 0x0 DUP1 REVERT JUMPDEST DUP2 PUSH1 0x20 DUP6 ADD PUSH1 0x20 DUP4 ADD CALLDATACOPY PUSH1 0x0 SWAP2 DUP2 ADD PUSH1 0x20 ADD SWAP2 SWAP1 SWAP2 MSTORE SWAP4 SWAP3 POP POP POP JUMP JUMPDEST DUP1 ISZERO ISZERO DUP2 EQ PUSH2 0x32C8 JUMPI PUSH1 0x0 DUP1 REVERT JUMPDEST PUSH1 0x0 DUP1 PUSH1 0x0 DUP1 PUSH1 0x80 DUP6 DUP8 SUB SLT ISZERO PUSH2 0x3EA9 JUMPI PUSH1 0x0 DUP1 REVERT JUMPDEST DUP5 CALLDATALOAD SWAP4 POP PUSH1 0x20 DUP6 ADD CALLDATALOAD PUSH1 0x1 PUSH1 0x1 PUSH1 0x40 SHL SUB DUP1 DUP3 GT ISZERO PUSH2 0x3EC7 JUMPI PUSH1 0x0 DUP1 REVERT JUMPDEST PUSH2 0x3ED3 DUP9 DUP4 DUP10 ADD PUSH2 0x3E16 JUMP JUMPDEST SWAP5 POP PUSH1 0x40 DUP8 ADD CALLDATALOAD SWAP2 POP DUP1 DUP3 GT ISZERO PUSH2 0x3EE9 JUMPI PUSH1 0x0 DUP1 REVERT JUMPDEST POP PUSH2 0x3EF6 DUP8 DUP3 DUP9 ADD PUSH2 0x3E16 JUMP JUMPDEST SWAP3 POP POP PUSH1 0x60 DUP6 ADD CALLDATALOAD PUSH2 0x3F07 DUP2 PUSH2 0x3E85 JUMP JUMPDEST SWAP4 SWAP7 SWAP3 SWAP6 POP SWAP1 SWAP4 POP POP JUMP JUMPDEST PUSH1 0x0 PUSH1 0x1 PUSH1 0x1 PUSH1 0x40 SHL SUB DUP3 GT ISZERO PUSH2 0x3F2B JUMPI PUSH2 0x3F2B PUSH2 0x3DD0 JUMP JUMPDEST POP PUSH1 0x5 SHL PUSH1 0x20 ADD SWAP1 JUMP JUMPDEST PUSH1 0x0 DUP3 PUSH1 0x1F DUP4 ADD SLT PUSH2 0x3F46 JUMPI PUSH1 0x0 DUP1 REVERT JUMPDEST DUP2 CALLDATALOAD PUSH1 0x20 PUSH2 0x3F5B PUSH2 0x3F56 DUP4 PUSH2 0x3F12 JUMP JUMPDEST PUSH2 0x3DE6 JUMP JUMPDEST DUP3 DUP2 MSTORE PUSH1 0x5 SWAP3 SWAP1 SWAP3 SHL DUP5 ADD DUP2 ADD SWAP2 DUP2 DUP2 ADD SWAP1 DUP7 DUP5 GT ISZERO PUSH2 0x3F7A JUMPI PUSH1 0x0 DUP1 REVERT JUMPDEST DUP3 DUP7 ADD JUMPDEST DUP5 DUP2 LT ISZERO PUSH2 0x3F95 JUMPI DUP1 CALLDATALOAD DUP4 MSTORE SWAP2 DUP4 ADD SWAP2 DUP4 ADD PUSH2 0x3F7E JUMP JUMPDEST POP SWAP7 SWAP6 POP POP POP POP POP POP JUMP JUMPDEST PUSH1 0x0 DUP3 PUSH1 0x1F DUP4 ADD SLT PUSH2 0x3FB1 JUMPI PUSH1 0x0 DUP1 REVERT JUMPDEST DUP2 CALLDATALOAD PUSH1 0x20 PUSH2 0x3FC1 PUSH2 0x3F56 DUP4 PUSH2 0x3F12 JUMP JUMPDEST DUP3 DUP2 MSTORE PUSH1 0x5 SWAP3 SWAP1 SWAP3 SHL DUP5 ADD DUP2 ADD SWAP2 DUP2 DUP2 ADD SWAP1 DUP7 DUP5 GT ISZERO PUSH2 0x3FE0 JUMPI PUSH1 0x0 DUP1 REVERT JUMPDEST DUP3 DUP7 ADD JUMPDEST DUP5 DUP2 LT ISZERO PUSH2 0x3F95 JUMPI DUP1 CALLDATALOAD PUSH2 0x3FF7 DUP2 PUSH2 0x3E85 JUMP JUMPDEST DUP4 MSTORE SWAP2 DUP4 ADD SWAP2 DUP4 ADD PUSH2 0x3FE4 JUMP JUMPDEST PUSH1 0x0 DUP1 DUP4 PUSH1 0x1F DUP5 ADD SLT PUSH2 0x4016 JUMPI PUSH1 0x0 DUP1 REVERT JUMPDEST POP DUP2 CALLDATALOAD PUSH1 0x1 PUSH1 0x1 PUSH1 0x40 SHL SUB DUP2 GT ISZERO PUSH2 0x402D JUMPI PUSH1 0x0 DUP1 REVERT JUMPDEST PUSH1 0x20 DUP4 ADD SWAP2 POP DUP4 PUSH1 0x20 DUP3 PUSH1 0x5 SHL DUP6 ADD ADD GT ISZERO PUSH2 0x262C JUMPI PUSH1 0x0 DUP1 REVERT JUMPDEST PUSH1 0x1 PUSH1 0x1 PUSH1 0xA0 SHL SUB DUP2 AND DUP2 EQ PUSH2 0x32C8 JUMPI PUSH1 0x0 DUP1 REVERT JUMPDEST DUP1 CALLDATALOAD PUSH2 0x4068 DUP2 PUSH2 0x4048 JUMP JUMPDEST SWAP2 SWAP1 POP JUMP JUMPDEST PUSH1 0x0 DUP3 PUSH1 0x1F DUP4 ADD SLT PUSH2 0x407E JUMPI PUSH1 0x0 DUP1 REVERT JUMPDEST DUP2 CALLDATALOAD PUSH1 0x20 PUSH2 0x408E PUSH2 0x3F56 DUP4 PUSH2 0x3F12 JUMP JUMPDEST DUP3 DUP2 MSTORE PUSH1 0x5 SWAP3 SWAP1 SWAP3 SHL DUP5 ADD DUP2 ADD SWAP2 DUP2 DUP2 ADD SWAP1 DUP7 DUP5 GT ISZERO PUSH2 0x40AD JUMPI PUSH1 0x0 DUP1 REVERT JUMPDEST DUP3 DUP7 ADD JUMPDEST DUP5 DUP2 LT ISZERO PUSH2 0x3F95 JUMPI DUP1 CALLDATALOAD PUSH2 0x40C4 DUP2 PUSH2 0x4048 JUMP JUMPDEST DUP4 MSTORE SWAP2 DUP4 ADD SWAP2 DUP4 ADD PUSH2 0x40B1 JUMP JUMPDEST PUSH1 0x0 DUP1 PUSH1 0x0 DUP1 PUSH1 0x0 DUP1 PUSH1 0x0 DUP1 PUSH1 0xE0 DUP10 DUP12 SUB SLT ISZERO PUSH2 0x40ED JUMPI PUSH1 0x0 DUP1 REVERT JUMPDEST DUP9 CALLDATALOAD PUSH1 0x1 PUSH1 0x1 PUSH1 0x40 SHL SUB DUP1 DUP3 GT ISZERO PUSH2 0x4104 JUMPI PUSH1 0x0 DUP1 REVERT JUMPDEST PUSH2 0x4110 DUP13 DUP4 DUP14 ADD PUSH2 0x3F35 JUMP JUMPDEST SWAP10 POP PUSH1 0x20 DUP12 ADD CALLDATALOAD SWAP2 POP DUP1 DUP3 GT ISZERO PUSH2 0x4126 JUMPI PUSH1 0x0 DUP1 REVERT JUMPDEST PUSH2 0x4132 DUP13 DUP4 DUP14 ADD PUSH2 0x3F35 JUMP JUMPDEST SWAP9 POP PUSH1 0x40 DUP12 ADD CALLDATALOAD SWAP2 POP DUP1 DUP3 GT ISZERO PUSH2 0x4148 JUMPI PUSH1 0x0 DUP1 REVERT JUMPDEST PUSH2 0x4154 DUP13 DUP4 DUP14 ADD PUSH2 0x3FA0 JUMP JUMPDEST SWAP8 POP PUSH1 0x60 DUP12 ADD CALLDATALOAD SWAP2 POP DUP1 DUP3 GT ISZERO PUSH2 0x416A JUMPI PUSH1 0x0 DUP1 REVERT JUMPDEST PUSH2 0x4176 DUP13 DUP4 DUP14 ADD PUSH2 0x4004 JUMP JUMPDEST SWAP1 SWAP8 POP SWAP6 POP PUSH1 0x80 DUP12 ADD CALLDATALOAD SWAP2 POP DUP1 DUP3 GT ISZERO PUSH2 0x418F JUMPI PUSH1 0x0 DUP1 REVERT JUMPDEST POP PUSH2 0x419C DUP12 DUP3 DUP13 ADD PUSH2 0x406D JUMP JUMPDEST SWAP4 POP POP PUSH1 0xA0 DUP10 ADD CALLDATALOAD SWAP2 POP PUSH2 0x41B2 PUSH1 0xC0 DUP11 ADD PUSH2 0x405D JUMP JUMPDEST SWAP1 POP SWAP3 SWAP6 SWAP9 POP SWAP3 SWAP6 SWAP9 SWAP1 SWAP4 SWAP7 POP JUMP JUMPDEST PUSH1 0x0 PUSH1 0x20 DUP3 DUP5 SUB SLT ISZERO PUSH2 0x41D3 JUMPI PUSH1 0x0 DUP1 REVERT JUMPDEST POP CALLDATALOAD SWAP2 SWAP1 POP JUMP JUMPDEST PUSH1 0x0 DUP2 MLOAD PUSH1 0xC0 DUP5 MSTORE PUSH2 0x41EF PUSH1 0xC0 DUP6 ADD DUP3 PUSH2 0x3CDD JUMP JUMPDEST SWAP1 POP PUSH1 0x20 DUP4 ADD MLOAD DUP5 DUP3 SUB PUSH1 0x20 DUP7 ADD MSTORE PUSH2 0x4208 DUP3 DUP3 PUSH2 0x3CDD JUMP JUMPDEST SWAP2 POP POP PUSH1 0x40 DUP4 ADD MLOAD DUP5 DUP3 SUB PUSH1 0x40 DUP7 ADD MSTORE PUSH2 0x4222 DUP3 DUP3 PUSH2 0x3CDD JUMP JUMPDEST SWAP2 POP POP PUSH1 0x60 DUP4 ADD MLOAD DUP5 DUP3 SUB PUSH1 0x60 DUP7 ADD MSTORE PUSH2 0x423C DUP3 DUP3 PUSH2 0x3CDD JUMP JUMPDEST SWAP2 POP POP PUSH1 0x80 DUP4 ADD MLOAD DUP5 DUP3 SUB PUSH1 0x80 DUP7 ADD MSTORE PUSH2 0x4256 DUP3 DUP3 PUSH2 0x3CDD JUMP JUMPDEST SWAP2 POP POP PUSH1 0xA0 DUP4 ADD MLOAD PUSH1 0xA0 DUP6 ADD MSTORE DUP1 SWAP2 POP POP SWAP3 SWAP2 POP POP JUMP JUMPDEST DUP6 DUP2 MSTORE PUSH1 0x0 PUSH1 0x1 DUP1 PUSH1 0xA0 SHL SUB DUP1 DUP8 AND PUSH1 0x20 DUP5 ADD MSTORE DUP6 PUSH1 0x40 DUP5 ADD MSTORE PUSH1 0xA0 PUSH1 0x60 DUP5 ADD MSTORE PUSH2 0x429B PUSH1 0xA0 DUP5 ADD DUP7 PUSH2 0x41DA JUMP JUMPDEST SWAP2 POP DUP1 DUP5 AND PUSH1 0x80 DUP5 ADD MSTORE POP SWAP7 SWAP6 POP POP POP POP POP POP JUMP JUMPDEST PUSH1 0x0 PUSH1 0x20 DUP3 DUP5 SUB SLT ISZERO PUSH2 0x42C2 JUMPI PUSH1 0x0 DUP1 REVERT JUMPDEST DUP2 CALLDATALOAD PUSH2 0x42CD DUP2 PUSH2 0x4048 JUMP JUMPDEST SWAP4 SWAP3 POP POP POP JUMP JUMPDEST PUSH1 0x0 DUP1 PUSH1 0x0 DUP1 PUSH1 0x0 PUSH1 0xA0 DUP7 DUP9 SUB SLT ISZERO PUSH2 0x42EC JUMPI PUSH1 0x0 DUP1 REVERT JUMPDEST DUP6 CALLDATALOAD PUSH1 0x1 PUSH1 0x1 PUSH1 0x40 SHL SUB DUP1 DUP3 GT ISZERO PUSH2 0x4303 JUMPI PUSH1 0x0 DUP1 REVERT JUMPDEST PUSH2 0x430F DUP10 DUP4 DUP11 ADD PUSH2 0x3E16 JUMP JUMPDEST SWAP7 POP PUSH1 0x20 DUP9 ADD CALLDATALOAD SWAP6 POP PUSH1 0x40 DUP9 ADD CALLDATALOAD SWAP5 POP PUSH1 0x60 DUP9 ADD CALLDATALOAD SWAP2 POP DUP1 DUP3 GT ISZERO PUSH2 0x4333 JUMPI PUSH1 0x0 DUP1 REVERT JUMPDEST POP PUSH2 0x4340 DUP9 DUP3 DUP10 ADD PUSH2 0x3E16 JUMP JUMPDEST SWAP3 POP POP PUSH1 0x80 DUP7 ADD CALLDATALOAD PUSH2 0x4351 DUP2 PUSH2 0x3E85 JUMP JUMPDEST DUP1 SWAP2 POP POP SWAP3 SWAP6 POP SWAP3 SWAP6 SWAP1 SWAP4 POP JUMP JUMPDEST PUSH1 0x20 DUP2 MSTORE PUSH1 0x0 PUSH2 0x42CD PUSH1 0x20 DUP4 ADD DUP5 PUSH2 0x3D09 JUMP JUMPDEST PUSH1 0x0 DUP1 PUSH1 0x40 DUP4 DUP6 SUB SLT ISZERO PUSH2 0x4385 JUMPI PUSH1 0x0 DUP1 REVERT JUMPDEST DUP3 CALLDATALOAD PUSH2 0x4390 DUP2 PUSH2 0x4048 JUMP JUMPDEST SWAP5 PUSH1 0x20 SWAP4 SWAP1 SWAP4 ADD CALLDATALOAD SWAP4 POP POP POP JUMP JUMPDEST PUSH1 0x0 DUP2 MLOAD DUP1 DUP5 MSTORE PUSH1 0x20 DUP1 DUP6 ADD SWAP5 POP DUP1 DUP5 ADD PUSH1 0x0 JUMPDEST DUP4 DUP2 LT ISZERO PUSH2 0x43CE JUMPI DUP2 MLOAD DUP8 MSTORE SWAP6 DUP3 ADD SWAP6 SWAP1 DUP3 ADD SWAP1 PUSH1 0x1 ADD PUSH2 0x43B2 JUMP JUMPDEST POP SWAP5 SWAP6 SWAP5 POP POP POP POP POP JUMP JUMPDEST PUSH1 0x0 PUSH2 0x100 DUP3 MLOAD DUP5 MSTORE PUSH1 0x20 DUP4 ADD MLOAD PUSH2 0x43FC PUSH1 0x20 DUP7 ADD DUP3 PUSH1 0x1 PUSH1 0x1 PUSH1 0xA0 SHL SUB AND SWAP1 MSTORE JUMP JUMPDEST POP PUSH1 0x40 DUP4 ADD MLOAD DUP2 PUSH1 0x40 DUP7 ADD MSTORE PUSH2 0x4414 DUP3 DUP7 ADD DUP3 PUSH2 0x439E JUMP JUMPDEST SWAP2 POP POP PUSH1 0x60 DUP4 ADD MLOAD DUP5 DUP3 SUB PUSH1 0x60 DUP7 ADD MSTORE PUSH2 0x442E DUP3 DUP3 PUSH2 0x439E JUMP JUMPDEST SWAP2 POP POP PUSH1 0x80 DUP4 ADD MLOAD PUSH1 0x80 DUP6 ADD MSTORE PUSH1 0xA0 DUP4 ADD MLOAD DUP5 DUP3 SUB PUSH1 0xA0 DUP7 ADD MSTORE PUSH2 0x4452 DUP3 DUP3 PUSH2 0x439E JUMP JUMPDEST SWAP2 POP POP PUSH1 0xC0 DUP4 ADD MLOAD DUP5 DUP3 SUB PUSH1 0xC0 DUP7 ADD MSTORE PUSH2 0x446C DUP3 DUP3 PUSH2 0x41DA JUMP JUMPDEST SWAP2 POP POP PUSH1 0xE0 DUP4 ADD MLOAD PUSH2 0x4489 PUSH1 0xE0 DUP7 ADD DUP3 PUSH1 0x1 PUSH1 0x1 PUSH1 0xA0 SHL SUB AND SWAP1 MSTORE JUMP JUMPDEST POP SWAP4 SWAP3 POP POP POP JUMP JUMPDEST PUSH1 0x0 PUSH1 0x40 DUP3 ADD DUP5 ISZERO ISZERO DUP4 MSTORE PUSH1 0x20 PUSH1 0x40 DUP2 DUP6 ADD MSTORE DUP2 DUP6 MLOAD DUP1 DUP5 MSTORE PUSH1 0x60 DUP7 ADD SWAP2 POP PUSH1 0x60 DUP2 PUSH1 0x5 SHL DUP8 ADD ADD SWAP4 POP DUP3 DUP8 ADD PUSH1 0x0 JUMPDEST DUP3 DUP2 LT ISZERO PUSH2 0x44EF JUMPI PUSH1 0x5F NOT DUP9 DUP8 SUB ADD DUP5 MSTORE PUSH2 0x44DD DUP7 DUP4 MLOAD PUSH2 0x43D9 JUMP JUMPDEST SWAP6 POP SWAP3 DUP5 ADD SWAP3 SWAP1 DUP5 ADD SWAP1 PUSH1 0x1 ADD PUSH2 0x44C1 JUMP JUMPDEST POP SWAP4 SWAP9 SWAP8 POP POP POP POP POP POP POP POP JUMP JUMPDEST DUP7 DUP2 MSTORE PUSH1 0xC0 PUSH1 0x20 DUP3 ADD MSTORE PUSH1 0x0 PUSH2 0x4516 PUSH1 0xC0 DUP4 ADD DUP9 PUSH2 0x3CDD JUMP JUMPDEST DUP7 PUSH1 0x40 DUP5 ADD MSTORE DUP6 PUSH1 0x60 DUP5 ADD MSTORE DUP3 DUP2 SUB PUSH1 0x80 DUP5 ADD MSTORE PUSH2 0x4534 DUP2 DUP7 PUSH2 0x3CDD JUMP JUMPDEST SWAP2 POP POP DUP3 ISZERO ISZERO PUSH1 0xA0 DUP4 ADD MSTORE SWAP8 SWAP7 POP POP POP POP POP POP POP JUMP JUMPDEST PUSH1 0x20 DUP2 MSTORE PUSH1 0x0 PUSH2 0x42CD PUSH1 0x20 DUP4 ADD DUP5 PUSH2 0x41DA JUMP JUMPDEST PUSH1 0x20 DUP2 MSTORE PUSH1 0x0 PUSH2 0x42CD PUSH1 0x20 DUP4 ADD DUP5 PUSH2 0x43D9 JUMP JUMPDEST PUSH1 0x0 DUP1 PUSH1 0x0 DUP1 PUSH1 0x0 DUP1 PUSH1 0x0 PUSH1 0xE0 DUP9 DUP11 SUB SLT ISZERO PUSH2 0x458B JUMPI PUSH1 0x0 DUP1 REVERT JUMPDEST DUP8 CALLDATALOAD SWAP7 POP PUSH1 0x20 DUP9 ADD CALLDATALOAD PUSH1 0x1 PUSH1 0x1 PUSH1 0x40 SHL SUB DUP1 DUP3 GT ISZERO PUSH2 0x45A9 JUMPI PUSH1 0x0 DUP1 REVERT JUMPDEST PUSH2 0x45B5 DUP12 DUP4 DUP13 ADD PUSH2 0x3E16 JUMP JUMPDEST SWAP8 POP PUSH1 0x40 DUP11 ADD CALLDATALOAD SWAP2 POP DUP1 DUP3 GT ISZERO PUSH2 0x45CB JUMPI PUSH1 0x0 DUP1 REVERT JUMPDEST PUSH2 0x45D7 DUP12 DUP4 DUP13 ADD PUSH2 0x3E16 JUMP JUMPDEST SWAP7 POP PUSH1 0x60 DUP11 ADD CALLDATALOAD SWAP2 POP DUP1 DUP3 GT ISZERO PUSH2 0x45ED JUMPI PUSH1 0x0 DUP1 REVERT JUMPDEST PUSH2 0x45F9 DUP12 DUP4 DUP13 ADD PUSH2 0x3E16 JUMP JUMPDEST SWAP6 POP PUSH1 0x80 DUP11 ADD CALLDATALOAD SWAP2 POP DUP1 DUP3 GT ISZERO PUSH2 0x460F JUMPI PUSH1 0x0 DUP1 REVERT JUMPDEST PUSH2 0x461B DUP12 DUP4 DUP13 ADD PUSH2 0x3E16 JUMP JUMPDEST SWAP5 POP PUSH1 0xA0 DUP11 ADD CALLDATALOAD SWAP2 POP DUP1 DUP3 GT ISZERO PUSH2 0x4631 JUMPI PUSH1 0x0 DUP1 REVERT JUMPDEST POP PUSH2 0x463E DUP11 DUP3 DUP12 ADD PUSH2 0x3E16 JUMP JUMPDEST SWAP3 POP POP PUSH1 0xC0 DUP9 ADD CALLDATALOAD SWAP1 POP SWAP3 SWAP6 SWAP9 SWAP2 SWAP5 SWAP8 POP SWAP3 SWAP6 POP JUMP JUMPDEST PUSH1 0x0 DUP1 PUSH1 0x0 DUP1 PUSH1 0x80 DUP6 DUP8 SUB SLT ISZERO PUSH2 0x466A JUMPI PUSH1 0x0 DUP1 REVERT JUMPDEST DUP5 CALLDATALOAD PUSH2 0x4675 DUP2 PUSH2 0x4048 JUMP JUMPDEST SWAP4 POP PUSH1 0x20 DUP6 ADD CALLDATALOAD PUSH2 0x4685 DUP2 PUSH2 0x4048 JUMP JUMPDEST SWAP3 POP PUSH1 0x40 DUP6 ADD CALLDATALOAD PUSH2 0x4695 DUP2 PUSH2 0x4048 JUMP JUMPDEST SWAP2 POP PUSH1 0x60 DUP6 ADD CALLDATALOAD PUSH2 0x3F07 DUP2 PUSH2 0x4048 JUMP JUMPDEST PUSH4 0x4E487B71 PUSH1 0xE0 SHL PUSH1 0x0 MSTORE PUSH1 0x32 PUSH1 0x4 MSTORE PUSH1 0x24 PUSH1 0x0 REVERT JUMPDEST PUSH4 0x4E487B71 PUSH1 0xE0 SHL PUSH1 0x0 MSTORE PUSH1 0x11 PUSH1 0x4 MSTORE PUSH1 0x24 PUSH1 0x0 REVERT JUMPDEST PUSH1 0x0 PUSH1 0x1 DUP3 ADD PUSH2 0x46E3 JUMPI PUSH2 0x46E3 PUSH2 0x46BB JUMP JUMPDEST POP PUSH1 0x1 ADD SWAP1 JUMP JUMPDEST PUSH1 0x1 DUP2 DUP2 SHR SWAP1 DUP3 AND DUP1 PUSH2 0x46FE JUMPI PUSH1 0x7F DUP3 AND SWAP2 POP JUMPDEST PUSH1 0x20 DUP3 LT DUP2 SUB PUSH2 0x471E JUMPI PUSH4 0x4E487B71 PUSH1 0xE0 SHL PUSH1 0x0 MSTORE PUSH1 0x22 PUSH1 0x4 MSTORE PUSH1 0x24 PUSH1 0x0 REVERT JUMPDEST POP SWAP2 SWAP1 POP JUMP JUMPDEST PUSH1 0x20 DUP1 DUP3 MSTORE PUSH1 0x19 SWAP1 DUP3 ADD MSTORE PUSH32 0x496E76616C69642063616C6C65722D4F6E6C792041646D696E00000000000000 PUSH1 0x40 DUP3 ADD MSTORE PUSH1 0x60 ADD SWAP1 JUMP JUMPDEST PUSH1 0x1F DUP3 GT ISZERO PUSH2 0x47A5 JUMPI PUSH1 0x0 DUP2 DUP2 MSTORE PUSH1 0x20 DUP2 KECCAK256 PUSH1 0x1F DUP6 ADD PUSH1 0x5 SHR DUP2 ADD PUSH1 0x20 DUP7 LT ISZERO PUSH2 0x4782 JUMPI POP DUP1 JUMPDEST PUSH1 0x1F DUP6 ADD PUSH1 0x5 SHR DUP3 ADD SWAP2 POP JUMPDEST DUP2 DUP2 LT ISZERO PUSH2 0x47A1 JUMPI DUP3 DUP2 SSTORE PUSH1 0x1 ADD PUSH2 0x478E JUMP JUMPDEST POP POP POP JUMPDEST POP POP POP JUMP JUMPDEST DUP2 MLOAD PUSH1 0x1 PUSH1 0x1 PUSH1 0x40 SHL SUB DUP2 GT ISZERO PUSH2 0x47C3 JUMPI PUSH2 0x47C3 PUSH2 0x3DD0 JUMP JUMPDEST PUSH2 0x47D7 DUP2 PUSH2 0x47D1 DUP5 SLOAD PUSH2 0x46EA JUMP JUMPDEST DUP5 PUSH2 0x475B JUMP JUMPDEST PUSH1 0x20 DUP1 PUSH1 0x1F DUP4 GT PUSH1 0x1 DUP2 EQ PUSH2 0x480C JUMPI PUSH1 0x0 DUP5 ISZERO PUSH2 0x47F4 JUMPI POP DUP6 DUP4 ADD MLOAD JUMPDEST PUSH1 0x0 NOT PUSH1 0x3 DUP7 SWAP1 SHL SHR NOT AND PUSH1 0x1 DUP6 SWAP1 SHL OR DUP6 SSTORE PUSH2 0x47A1 JUMP JUMPDEST PUSH1 0x0 DUP6 DUP2 MSTORE PUSH1 0x20 DUP2 KECCAK256 PUSH1 0x1F NOT DUP7 AND SWAP2 JUMPDEST DUP3 DUP2 LT ISZERO PUSH2 0x483B JUMPI DUP9 DUP7 ADD MLOAD DUP3 SSTORE SWAP5 DUP5 ADD SWAP5 PUSH1 0x1 SWAP1 SWAP2 ADD SWAP1 DUP5 ADD PUSH2 0x481C JUMP JUMPDEST POP DUP6 DUP3 LT ISZERO PUSH2 0x4859 JUMPI DUP8 DUP6 ADD MLOAD PUSH1 0x0 NOT PUSH1 0x3 DUP9 SWAP1 SHL PUSH1 0xF8 AND SHR NOT AND DUP2 SSTORE JUMPDEST POP POP POP POP POP PUSH1 0x1 SWAP1 DUP2 SHL ADD SWAP1 SSTORE POP JUMP JUMPDEST DUP2 DUP2 SUB PUSH2 0x4874 JUMPI POP POP JUMP JUMPDEST PUSH2 0x487E DUP3 SLOAD PUSH2 0x46EA JUMP JUMPDEST PUSH1 0x1 PUSH1 0x1 PUSH1 0x40 SHL SUB DUP2 GT ISZERO PUSH2 0x4895 JUMPI PUSH2 0x4895 PUSH2 0x3DD0 JUMP JUMPDEST PUSH2 0x48A3 DUP2 PUSH2 0x47D1 DUP5 SLOAD PUSH2 0x46EA JUMP JUMPDEST PUSH1 0x0 PUSH1 0x1F DUP3 GT PUSH1 0x1 DUP2 EQ PUSH2 0x48D7 JUMPI PUSH1 0x0 DUP4 ISZERO PUSH2 0x48BF JUMPI POP DUP5 DUP3 ADD SLOAD JUMPDEST PUSH1 0x0 NOT PUSH1 0x3 DUP6 SWAP1 SHL SHR NOT AND PUSH1 0x1 DUP5 SWAP1 SHL OR DUP5 SSTORE PUSH2 0x356C JUMP JUMPDEST PUSH1 0x0 DUP6 DUP2 MSTORE PUSH1 0x20 SWAP1 KECCAK256 PUSH1 0x1F NOT DUP5 AND SWAP1 PUSH1 0x0 DUP7 DUP2 MSTORE PUSH1 0x20 SWAP1 KECCAK256 DUP5 JUMPDEST DUP4 DUP2 LT ISZERO PUSH2 0x4911 JUMPI DUP3 DUP7 ADD SLOAD DUP3 SSTORE PUSH1 0x1 SWAP6 DUP7 ADD SWAP6 SWAP1 SWAP2 ADD SWAP1 PUSH1 0x20 ADD PUSH2 0x48F1 JUMP JUMPDEST POP DUP6 DUP4 LT ISZERO PUSH2 0x4859 JUMPI SWAP4 ADD SLOAD PUSH1 0x0 NOT PUSH1 0xF8 PUSH1 0x3 DUP8 SWAP1 SHL AND SHR NOT AND SWAP1 SWAP3 SSTORE POP POP PUSH1 0x1 SWAP1 DUP2 SHL ADD SWAP1 SSTORE POP JUMP JUMPDEST PUSH1 0x0 PUSH1 0x20 DUP3 DUP5 SUB SLT ISZERO PUSH2 0x494D JUMPI PUSH1 0x0 DUP1 REVERT JUMPDEST DUP2 MLOAD PUSH2 0x42CD DUP2 PUSH2 0x3E85 JUMP JUMPDEST PUSH1 0x0 PUSH1 0x20 DUP3 DUP5 SUB SLT ISZERO PUSH2 0x496A JUMPI PUSH1 0x0 DUP1 REVERT JUMPDEST DUP2 MLOAD PUSH2 0x42CD DUP2 PUSH2 0x4048 JUMP JUMPDEST DUP1 DUP3 MUL DUP2 ISZERO DUP3 DUP3 DIV DUP5 EQ OR PUSH2 0x3601 JUMPI PUSH2 0x3601 PUSH2 0x46BB JUMP JUMPDEST DUP1 DUP3 ADD DUP1 DUP3 GT ISZERO PUSH2 0x3601 JUMPI PUSH2 0x3601 PUSH2 0x46BB JUMP JUMPDEST PUSH1 0x0 DUP3 PUSH2 0x49BC JUMPI PUSH4 0x4E487B71 PUSH1 0xE0 SHL PUSH1 0x0 MSTORE PUSH1 0x12 PUSH1 0x4 MSTORE PUSH1 0x24 PUSH1 0x0 REVERT JUMPDEST POP DIV SWAP1 JUMP JUMPDEST PUSH1 0x0 PUSH1 0x20 DUP3 DUP5 SUB SLT ISZERO PUSH2 0x49D3 JUMPI PUSH1 0x0 DUP1 REVERT JUMPDEST POP MLOAD SWAP2 SWAP1 POP JUMP JUMPDEST DUP2 DUP2 SUB DUP2 DUP2 GT ISZERO PUSH2 0x3601 JUMPI PUSH2 0x3601 PUSH2 0x46BB JUMP JUMPDEST PUSH1 0x0 DUP6 MLOAD PUSH2 0x49FF DUP2 DUP5 PUSH1 0x20 DUP11 ADD PUSH2 0x3CB9 JUMP JUMPDEST DUP1 DUP4 ADD SWAP1 POP DUP6 DUP2 MSTORE DUP5 PUSH1 0x20 DUP3 ADD MSTORE DUP4 MLOAD PUSH2 0x4A20 DUP2 PUSH1 0x40 DUP5 ADD PUSH1 0x20 DUP9 ADD PUSH2 0x3CB9 JUMP JUMPDEST ADD PUSH1 0x40 ADD SWAP7 SWAP6 POP POP POP POP POP POP JUMP JUMPDEST PUSH1 0x0 DUP1 DUP4 CALLDATALOAD PUSH1 0x1E NOT DUP5 CALLDATASIZE SUB ADD DUP2 SLT PUSH2 0x4A45 JUMPI PUSH1 0x0 DUP1 REVERT JUMPDEST DUP4 ADD DUP1 CALLDATALOAD SWAP2 POP PUSH1 0x1 PUSH1 0x1 PUSH1 0x40 SHL SUB DUP3 GT ISZERO PUSH2 0x4A5F JUMPI PUSH1 0x0 DUP1 REVERT JUMPDEST PUSH1 0x20 ADD SWAP2 POP PUSH1 0x5 DUP2 SWAP1 SHL CALLDATASIZE SUB DUP3 SGT ISZERO PUSH2 0x262C JUMPI PUSH1 0x0 DUP1 REVERT JUMPDEST PUSH1 0x20 DUP1 DUP3 MSTORE PUSH1 0x2B SWAP1 DUP3 ADD MSTORE PUSH32 0x496E697469616C697A61626C653A20636F6E7472616374206973206E6F742069 PUSH1 0x40 DUP3 ADD MSTORE PUSH11 0x6E697469616C697A696E67 PUSH1 0xA8 SHL PUSH1 0x60 DUP3 ADD MSTORE PUSH1 0x80 ADD SWAP1 JUMP JUMPDEST PUSH1 0x1 PUSH1 0x1 PUSH1 0xA0 SHL SUB DUP9 DUP2 AND DUP3 MSTORE PUSH1 0x20 DUP3 ADD DUP9 SWAP1 MSTORE PUSH1 0x40 DUP3 ADD DUP8 SWAP1 MSTORE DUP6 ISZERO ISZERO PUSH1 0x60 DUP4 ADD MSTORE PUSH1 0xC0 PUSH1 0x80 DUP4 ADD DUP2 SWAP1 MSTORE DUP3 ADD DUP5 SWAP1 MSTORE PUSH1 0x0 SWAP1 PUSH1 0x1 PUSH1 0x1 PUSH1 0xFB SHL SUB DUP6 GT ISZERO PUSH2 0x4B0A JUMPI PUSH1 0x0 DUP1 REVERT JUMPDEST DUP5 PUSH1 0x5 SHL DUP1 DUP8 PUSH1 0xE0 DUP7 ADD CALLDATACOPY SWAP4 AND PUSH1 0xA0 DUP4 ADD MSTORE POP ADD PUSH1 0xE0 ADD SWAP7 SWAP6 POP POP POP POP POP POP JUMP JUMPDEST PUSH1 0x0 PUSH1 0x20 DUP1 DUP4 DUP6 SUB SLT ISZERO PUSH2 0x4B3E JUMPI PUSH1 0x0 DUP1 REVERT JUMPDEST DUP3 MLOAD PUSH1 0x1 PUSH1 0x1 PUSH1 0x40 SHL SUB DUP2 GT ISZERO PUSH2 0x4B54 JUMPI PUSH1 0x0 DUP1 REVERT JUMPDEST DUP4 ADD PUSH1 0x1F DUP2 ADD DUP6 SGT PUSH2 0x4B65 JUMPI PUSH1 0x0 DUP1 REVERT JUMPDEST DUP1 MLOAD PUSH2 0x4B73 PUSH2 0x3F56 DUP3 PUSH2 0x3F12 JUMP JUMPDEST DUP2 DUP2 MSTORE PUSH1 0x5 SWAP2 SWAP1 SWAP2 SHL DUP3 ADD DUP4 ADD SWAP1 DUP4 DUP2 ADD SWAP1 DUP8 DUP4 GT ISZERO PUSH2 0x4B92 JUMPI PUSH1 0x0 DUP1 REVERT JUMPDEST SWAP3 DUP5 ADD SWAP3 JUMPDEST DUP3 DUP5 LT ISZERO PUSH2 0x4BB0 JUMPI DUP4 MLOAD DUP3 MSTORE SWAP3 DUP5 ADD SWAP3 SWAP1 DUP5 ADD SWAP1 PUSH2 0x4B97 JUMP JUMPDEST SWAP8 SWAP7 POP POP POP POP POP POP POP JUMP INVALID LOG2 PUSH5 0x6970667358 0x22 SLT KECCAK256 0x2B PUSH20 0x70551252D9B0A17EAE38B21CF39CE7ACD6B2337 PUSH25 0xEF390C5A9437AE119764736F6C634300081300330000000000 "
		},
		"gasEstimates": {
			"creation": {
				"codeDepositCost": "3888200",
				"executionCost": "28621",
				"totalCost": "3916821"
			},
			"external": {
				"SetAdmin(address)": "26813",
				"SetKventureCode(address)": "26775",
				"SetMasterPool(address)": "26796",
				"SetRef(address)": "26797",
				"SetUsdt(address)": "26773",
				"adminAddProduct(string,uint256,uint256,string,bool)": "infinite",
				"adminUpdateProduct(bytes32,bytes,bytes,bool)": "infinite",
				"adminViewProduct()": "infinite",
				"findProductIndexById(bytes32)": "infinite",
				"getNftDetail(uint256)": "infinite",
				"getOrderInfoById(bytes32)": "infinite",
				"getOrdersInfo(address,uint256)": "infinite",
				"getProductById(bytes32)": "infinite",
				"getShipInfo(bytes32)": "infinite",
				"initialize(address,address,address,address)": "infinite",
				"isAdmin(address)": "2615",
				"kventureCode()": "2382",
				"mIdToPro(uint256)": "infinite",
				"mOrder(bytes32)": "infinite",
				"mOrderArr(address,uint256)": "4827",
				"mProduct(bytes32)": "infinite",
				"masterPool()": "2426",
				"order(bytes32[],uint256[],bool[],bytes32[][],address[],bytes32,address)": "infinite",
				"owner()": "2442",
				"products(uint256)": "infinite",
				"ref()": "2405",
				"renounceOwnership()": "infinite",
				"returnRIP()": "2404",
				"shippingInfo(bytes32,string,string,string,string,string,uint256)": "infinite",
				"totalProduct()": "2407",
				"transferOwnership(address)": "infinite",
				"usdt()": "2449",
				"userViewProduct()": "infinite"
			},
			"internal": {
				"_getTokenIdArr(bytes32[] memory,uint256[] memory,bool[] memory,bytes32[] calldata[] calldata,address[] memory)": "infinite",
				"_order(bytes32,uint256,bool,bytes32[] calldata,address)": "infinite",
				"compareBytes(bytes memory,bytes memory)": "infinite"
			}
		},
		"methodIdentifiers": {
			"SetAdmin(address)": "5a272403",
			"SetKventureCode(address)": "521144be",
			"SetMasterPool(address)": "a559934e",
			"SetRef(address)": "52c58bc3",
			"SetUsdt(address)": "ddcd6408",
			"adminAddProduct(string,uint256,uint256,string,bool)": "53648704",
			"adminUpdateProduct(bytes32,bytes,bytes,bool)": "094fd21a",
			"adminViewProduct()": "8a933e9a",
			"findProductIndexById(bytes32)": "a2dd388c",
			"getNftDetail(uint256)": "7b155686",
			"getOrderInfoById(bytes32)": "bab9fe3c",
			"getOrdersInfo(address,uint256)": "71e20488",
			"getProductById(bytes32)": "5ea57703",
			"getShipInfo(bytes32)": "7f7c0808",
			"initialize(address,address,address,address)": "f8c8765e",
			"isAdmin(address)": "24d7806c",
			"kventureCode()": "85ba9d36",
			"mIdToPro(uint256)": "cb286f19",
			"mOrder(bytes32)": "1e701140",
			"mOrderArr(address,uint256)": "6f5952b1",
			"mProduct(bytes32)": "f522e41f",
			"masterPool()": "8c7ab1d7",
			"order(bytes32[],uint256[],bool[],bytes32[][],address[],bytes32,address)": "1d6e409a",
			"owner()": "8da5cb5b",
			"products(uint256)": "7acc0b20",
			"ref()": "21a78f68",
			"renounceOwnership()": "715018a6",
			"returnRIP()": "11f1374a",
			"shippingInfo(bytes32,string,string,string,string,string,uint256)": "f71dbbd1",
			"totalProduct()": "566bceef",
			"transferOwnership(address)": "f2fde38b",
			"usdt()": "2f48ab7d",
			"userViewProduct()": "062e9cd0"
		}
	},
	"abi": [
		{
			"inputs": [],
			"stateMutability": "payable",
			"type": "constructor"
		},
		{
			"anonymous": false,
			"inputs": [
				{
					"indexed": false,
					"internalType": "uint8",
					"name": "version",
					"type": "uint8"
				}
			],
			"name": "Initialized",
			"type": "event"
		},
		{
			"anonymous": false,
			"inputs": [
				{
					"indexed": true,
					"internalType": "address",
					"name": "previousOwner",
					"type": "address"
				},
				{
					"indexed": true,
					"internalType": "address",
					"name": "newOwner",
					"type": "address"
				}
			],
			"name": "OwnershipTransferred",
			"type": "event"
		},
		{
			"anonymous": false,
			"inputs": [
				{
					"indexed": false,
					"internalType": "address",
					"name": "buyer",
					"type": "address"
				},
				{
					"indexed": false,
					"internalType": "bytes32",
					"name": "orderId",
					"type": "bytes32"
				},
				{
					"indexed": false,
					"internalType": "bytes32[]",
					"name": "productIds",
					"type": "bytes32[]"
				},
				{
					"indexed": false,
					"internalType": "uint256[]",
					"name": "quantities",
					"type": "uint256[]"
				}
			],
			"name": "SaleOrder",
			"type": "event"
		},
		{
			"inputs": [
				{
					"internalType": "address",
					"name": "_admin",
					"type": "address"
				}
			],
			"name": "SetAdmin",
			"outputs": [],
			"stateMutability": "nonpayable",
			"type": "function"
		},
		{
			"inputs": [
				{
					"internalType": "address",
					"name": "_kventureCode",
					"type": "address"
				}
			],
			"name": "SetKventureCode",
			"outputs": [],
			"stateMutability": "nonpayable",
			"type": "function"
		},
		{
			"inputs": [
				{
					"internalType": "address",
					"name": "_masterPool",
					"type": "address"
				}
			],
			"name": "SetMasterPool",
			"outputs": [],
			"stateMutability": "nonpayable",
			"type": "function"
		},
		{
			"inputs": [
				{
					"internalType": "address",
					"name": "_kventure",
					"type": "address"
				}
			],
			"name": "SetRef",
			"outputs": [],
			"stateMutability": "nonpayable",
			"type": "function"
		},
		{
			"inputs": [
				{
					"internalType": "address",
					"name": "_usdt",
					"type": "address"
				}
			],
			"name": "SetUsdt",
			"outputs": [],
			"stateMutability": "nonpayable",
			"type": "function"
		},
		{
			"inputs": [
				{
					"internalType": "string",
					"name": "_imgUrl",
					"type": "string"
				},
				{
					"internalType": "uint256",
					"name": "_memberPrice",
					"type": "uint256"
				},
				{
					"internalType": "uint256",
					"name": "_retailPrice",
					"type": "uint256"
				},
				{
					"internalType": "string",
					"name": "_desc",
					"type": "string"
				},
				{
					"internalType": "bool",
					"name": "_status",
					"type": "bool"
				}
			],
			"name": "adminAddProduct",
			"outputs": [],
			"stateMutability": "nonpayable",
			"type": "function"
		},
		{
			"inputs": [
				{
					"internalType": "bytes32",
					"name": "idProduct",
					"type": "bytes32"
				},
				{
					"internalType": "bytes",
					"name": "_newImgUrl",
					"type": "bytes"
				},
				{
					"internalType": "bytes",
					"name": "_newDesc",
					"type": "bytes"
				},
				{
					"internalType": "bool",
					"name": "_newStatus",
					"type": "bool"
				}
			],
			"name": "adminUpdateProduct",
			"outputs": [],
			"stateMutability": "nonpayable",
			"type": "function"
		},
		{
			"inputs": [],
			"name": "adminViewProduct",
			"outputs": [
				{
					"components": [
						{
							"internalType": "bytes32",
							"name": "id",
							"type": "bytes32"
						},
						{
							"internalType": "bytes",
							"name": "imgUrl",
							"type": "bytes"
						},
						{
							"internalType": "uint256",
							"name": "memberPrice",
							"type": "uint256"
						},
						{
							"internalType": "uint256",
							"name": "retailPrice",
							"type": "uint256"
						},
						{
							"internalType": "bytes",
							"name": "desc",
							"type": "bytes"
						},
						{
							"internalType": "bool",
							"name": "active",
							"type": "bool"
						}
					],
					"internalType": "struct PackageInfoStruct.Product[]",
					"name": "",
					"type": "tuple[]"
				}
			],
			"stateMutability": "view",
			"type": "function"
		},
		{
			"inputs": [
				{
					"internalType": "bytes32",
					"name": "_id",
					"type": "bytes32"
				}
			],
			"name": "findProductIndexById",
			"outputs": [
				{
					"internalType": "uint256",
					"name": "",
					"type": "uint256"
				}
			],
			"stateMutability": "view",
			"type": "function"
		},
		{
			"inputs": [
				{
					"internalType": "uint256",
					"name": "_tokenId",
					"type": "uint256"
				}
			],
			"name": "getNftDetail",
			"outputs": [
				{
					"components": [
						{
							"internalType": "bytes32",
							"name": "id",
							"type": "bytes32"
						},
						{
							"internalType": "bytes",
							"name": "imgUrl",
							"type": "bytes"
						},
						{
							"internalType": "uint256",
							"name": "memberPrice",
							"type": "uint256"
						},
						{
							"internalType": "uint256",
							"name": "retailPrice",
							"type": "uint256"
						},
						{
							"internalType": "bytes",
							"name": "desc",
							"type": "bytes"
						},
						{
							"internalType": "bool",
							"name": "active",
							"type": "bool"
						}
					],
					"internalType": "struct PackageInfoStruct.Product",
					"name": "",
					"type": "tuple"
				}
			],
			"stateMutability": "view",
			"type": "function"
		},
		{
			"inputs": [
				{
					"internalType": "bytes32",
					"name": "orderId",
					"type": "bytes32"
				}
			],
			"name": "getOrderInfoById",
			"outputs": [
				{
					"components": [
						{
							"internalType": "bytes32",
							"name": "id",
							"type": "bytes32"
						},
						{
							"internalType": "address",
							"name": "buyer",
							"type": "address"
						},
						{
							"internalType": "bytes32[]",
							"name": "productIds",
							"type": "bytes32[]"
						},
						{
							"internalType": "uint256[]",
							"name": "quantities",
							"type": "uint256[]"
						},
						{
							"internalType": "uint256",
							"name": "creatAt",
							"type": "uint256"
						},
						{
							"internalType": "uint256[]",
							"name": "tokenIds",
							"type": "uint256[]"
						},
						{
							"components": [
								{
									"internalType": "string",
									"name": "fullname",
									"type": "string"
								},
								{
									"internalType": "string",
									"name": "add",
									"type": "string"
								},
								{
									"internalType": "string",
									"name": "phone",
									"type": "string"
								},
								{
									"internalType": "string",
									"name": "zipcode",
									"type": "string"
								},
								{
									"internalType": "string",
									"name": "email",
									"type": "string"
								},
								{
									"internalType": "uint256",
									"name": "receivingTime",
									"type": "uint256"
								}
							],
							"internalType": "struct PackageInfoStruct.ShippingInfo",
							"name": "shipInfo",
							"type": "tuple"
						},
						{
							"internalType": "address",
							"name": "paymentAdd",
							"type": "address"
						}
					],
					"internalType": "struct PackageInfoStruct.Order",
					"name": "",
					"type": "tuple"
				}
			],
			"stateMutability": "view",
			"type": "function"
		},
		{
			"inputs": [
				{
					"internalType": "address",
					"name": "buyer",
					"type": "address"
				},
				{
					"internalType": "uint256",
					"name": "page",
					"type": "uint256"
				}
			],
			"name": "getOrdersInfo",
			"outputs": [
				{
					"internalType": "bool",
					"name": "isMore",
					"type": "bool"
				},
				{
					"components": [
						{
							"internalType": "bytes32",
							"name": "id",
							"type": "bytes32"
						},
						{
							"internalType": "address",
							"name": "buyer",
							"type": "address"
						},
						{
							"internalType": "bytes32[]",
							"name": "productIds",
							"type": "bytes32[]"
						},
						{
							"internalType": "uint256[]",
							"name": "quantities",
							"type": "uint256[]"
						},
						{
							"internalType": "uint256",
							"name": "creatAt",
							"type": "uint256"
						},
						{
							"internalType": "uint256[]",
							"name": "tokenIds",
							"type": "uint256[]"
						},
						{
							"components": [
								{
									"internalType": "string",
									"name": "fullname",
									"type": "string"
								},
								{
									"internalType": "string",
									"name": "add",
									"type": "string"
								},
								{
									"internalType": "string",
									"name": "phone",
									"type": "string"
								},
								{
									"internalType": "string",
									"name": "zipcode",
									"type": "string"
								},
								{
									"internalType": "string",
									"name": "email",
									"type": "string"
								},
								{
									"internalType": "uint256",
									"name": "receivingTime",
									"type": "uint256"
								}
							],
							"internalType": "struct PackageInfoStruct.ShippingInfo",
							"name": "shipInfo",
							"type": "tuple"
						},
						{
							"internalType": "address",
							"name": "paymentAdd",
							"type": "address"
						}
					],
					"internalType": "struct PackageInfoStruct.Order[]",
					"name": "orderList",
					"type": "tuple[]"
				}
			],
			"stateMutability": "view",
			"type": "function"
		},
		{
			"inputs": [
				{
					"internalType": "bytes32",
					"name": "_id",
					"type": "bytes32"
				}
			],
			"name": "getProductById",
			"outputs": [
				{
					"components": [
						{
							"internalType": "bytes32",
							"name": "id",
							"type": "bytes32"
						},
						{
							"internalType": "bytes",
							"name": "imgUrl",
							"type": "bytes"
						},
						{
							"internalType": "uint256",
							"name": "memberPrice",
							"type": "uint256"
						},
						{
							"internalType": "uint256",
							"name": "retailPrice",
							"type": "uint256"
						},
						{
							"internalType": "bytes",
							"name": "desc",
							"type": "bytes"
						},
						{
							"internalType": "bool",
							"name": "active",
							"type": "bool"
						}
					],
					"internalType": "struct PackageInfoStruct.Product",
					"name": "",
					"type": "tuple"
				}
			],
			"stateMutability": "view",
			"type": "function"
		},
		{
			"inputs": [
				{
					"internalType": "bytes32",
					"name": "_orderId",
					"type": "bytes32"
				}
			],
			"name": "getShipInfo",
			"outputs": [
				{
					"components": [
						{
							"internalType": "string",
							"name": "fullname",
							"type": "string"
						},
						{
							"internalType": "string",
							"name": "add",
							"type": "string"
						},
						{
							"internalType": "string",
							"name": "phone",
							"type": "string"
						},
						{
							"internalType": "string",
							"name": "zipcode",
							"type": "string"
						},
						{
							"internalType": "string",
							"name": "email",
							"type": "string"
						},
						{
							"internalType": "uint256",
							"name": "receivingTime",
							"type": "uint256"
						}
					],
					"internalType": "struct PackageInfoStruct.ShippingInfo",
					"name": "",
					"type": "tuple"
				}
			],
			"stateMutability": "view",
			"type": "function"
		},
		{
			"inputs": [
				{
					"internalType": "address",
					"name": "_trustedUSDT",
					"type": "address"
				},
				{
					"internalType": "address",
					"name": "_masterPool",
					"type": "address"
				},
				{
					"internalType": "address",
					"name": "_kventureCode",
					"type": "address"
				},
				{
					"internalType": "address",
					"name": "_ref",
					"type": "address"
				}
			],
			"name": "initialize",
			"outputs": [],
			"stateMutability": "nonpayable",
			"type": "function"
		},
		{
			"inputs": [
				{
					"internalType": "address",
					"name": "",
					"type": "address"
				}
			],
			"name": "isAdmin",
			"outputs": [
				{
					"internalType": "bool",
					"name": "",
					"type": "bool"
				}
			],
			"stateMutability": "view",
			"type": "function"
		},
		{
			"inputs": [],
			"name": "kventureCode",
			"outputs": [
				{
					"internalType": "contract KventureCode",
					"name": "",
					"type": "address"
				}
			],
			"stateMutability": "view",
			"type": "function"
		},
		{
			"inputs": [
				{
					"internalType": "uint256",
					"name": "tokenIdNft",
					"type": "uint256"
				}
			],
			"name": "mIdToPro",
			"outputs": [
				{
					"internalType": "bytes32",
					"name": "id",
					"type": "bytes32"
				},
				{
					"internalType": "bytes",
					"name": "imgUrl",
					"type": "bytes"
				},
				{
					"internalType": "uint256",
					"name": "memberPrice",
					"type": "uint256"
				},
				{
					"internalType": "uint256",
					"name": "retailPrice",
					"type": "uint256"
				},
				{
					"internalType": "bytes",
					"name": "desc",
					"type": "bytes"
				},
				{
					"internalType": "bool",
					"name": "active",
					"type": "bool"
				}
			],
			"stateMutability": "view",
			"type": "function"
		},
		{
			"inputs": [
				{
					"internalType": "bytes32",
					"name": "idOrder",
					"type": "bytes32"
				}
			],
			"name": "mOrder",
			"outputs": [
				{
					"internalType": "bytes32",
					"name": "id",
					"type": "bytes32"
				},
				{
					"internalType": "address",
					"name": "buyer",
					"type": "address"
				},
				{
					"internalType": "uint256",
					"name": "creatAt",
					"type": "uint256"
				},
				{
					"components": [
						{
							"internalType": "string",
							"name": "fullname",
							"type": "string"
						},
						{
							"internalType": "string",
							"name": "add",
							"type": "string"
						},
						{
							"internalType": "string",
							"name": "phone",
							"type": "string"
						},
						{
							"internalType": "string",
							"name": "zipcode",
							"type": "string"
						},
						{
							"internalType": "string",
							"name": "email",
							"type": "string"
						},
						{
							"internalType": "uint256",
							"name": "receivingTime",
							"type": "uint256"
						}
					],
					"internalType": "struct PackageInfoStruct.ShippingInfo",
					"name": "shipInfo",
					"type": "tuple"
				},
				{
					"internalType": "address",
					"name": "paymentAdd",
					"type": "address"
				}
			],
			"stateMutability": "view",
			"type": "function"
		},
		{
			"inputs": [
				{
					"internalType": "address",
					"name": "",
					"type": "address"
				},
				{
					"internalType": "uint256",
					"name": "",
					"type": "uint256"
				}
			],
			"name": "mOrderArr",
			"outputs": [
				{
					"internalType": "bytes32",
					"name": "",
					"type": "bytes32"
				}
			],
			"stateMutability": "view",
			"type": "function"
		},
		{
			"inputs": [
				{
					"internalType": "bytes32",
					"name": "idProduct",
					"type": "bytes32"
				}
			],
			"name": "mProduct",
			"outputs": [
				{
					"internalType": "bytes32",
					"name": "id",
					"type": "bytes32"
				},
				{
					"internalType": "bytes",
					"name": "imgUrl",
					"type": "bytes"
				},
				{
					"internalType": "uint256",
					"name": "memberPrice",
					"type": "uint256"
				},
				{
					"internalType": "uint256",
					"name": "retailPrice",
					"type": "uint256"
				},
				{
					"internalType": "bytes",
					"name": "desc",
					"type": "bytes"
				},
				{
					"internalType": "bool",
					"name": "active",
					"type": "bool"
				}
			],
			"stateMutability": "view",
			"type": "function"
		},
		{
			"inputs": [],
			"name": "masterPool",
			"outputs": [
				{
					"internalType": "address",
					"name": "",
					"type": "address"
				}
			],
			"stateMutability": "view",
			"type": "function"
		},
		{
			"inputs": [
				{
					"internalType": "bytes32[]",
					"name": "idArr",
					"type": "bytes32[]"
				},
				{
					"internalType": "uint256[]",
					"name": "quaArr",
					"type": "uint256[]"
				},
				{
					"internalType": "bool[]",
					"name": "lockArr",
					"type": "bool[]"
				},
				{
					"internalType": "bytes32[][]",
					"name": "codeHashes",
					"type": "bytes32[][]"
				},
				{
					"internalType": "address[]",
					"name": "delegates",
					"type": "address[]"
				},
				{
					"internalType": "bytes32",
					"name": "codeRef",
					"type": "bytes32"
				},
				{
					"internalType": "address",
					"name": "to",
					"type": "address"
				}
			],
			"name": "order",
			"outputs": [
				{
					"internalType": "bytes32",
					"name": "",
					"type": "bytes32"
				}
			],
			"stateMutability": "nonpayable",
			"type": "function"
		},
		{
			"inputs": [],
			"name": "owner",
			"outputs": [
				{
					"internalType": "address",
					"name": "",
					"type": "address"
				}
			],
			"stateMutability": "view",
			"type": "function"
		},
		{
			"inputs": [
				{
					"internalType": "uint256",
					"name": "",
					"type": "uint256"
				}
			],
			"name": "products",
			"outputs": [
				{
					"internalType": "bytes32",
					"name": "id",
					"type": "bytes32"
				},
				{
					"internalType": "bytes",
					"name": "imgUrl",
					"type": "bytes"
				},
				{
					"internalType": "uint256",
					"name": "memberPrice",
					"type": "uint256"
				},
				{
					"internalType": "uint256",
					"name": "retailPrice",
					"type": "uint256"
				},
				{
					"internalType": "bytes",
					"name": "desc",
					"type": "bytes"
				},
				{
					"internalType": "bool",
					"name": "active",
					"type": "bool"
				}
			],
			"stateMutability": "view",
			"type": "function"
		},
		{
			"inputs": [],
			"name": "ref",
			"outputs": [
				{
					"internalType": "contract KVenture",
					"name": "",
					"type": "address"
				}
			],
			"stateMutability": "view",
			"type": "function"
		},
		{
			"inputs": [],
			"name": "renounceOwnership",
			"outputs": [],
			"stateMutability": "nonpayable",
			"type": "function"
		},
		{
			"inputs": [],
			"name": "returnRIP",
			"outputs": [
				{
					"internalType": "uint8",
					"name": "",
					"type": "uint8"
				}
			],
			"stateMutability": "view",
			"type": "function"
		},
		{
			"inputs": [
				{
					"internalType": "bytes32",
					"name": "_orderId",
					"type": "bytes32"
				},
				{
					"internalType": "string",
					"name": "_fullname",
					"type": "string"
				},
				{
					"internalType": "string",
					"name": "_add",
					"type": "string"
				},
				{
					"internalType": "string",
					"name": "_phone",
					"type": "string"
				},
				{
					"internalType": "string",
					"name": "_zipcode",
					"type": "string"
				},
				{
					"internalType": "string",
					"name": "_email",
					"type": "string"
				},
				{
					"internalType": "uint256",
					"name": "_receivingTime",
					"type": "uint256"
				}
			],
			"name": "shippingInfo",
			"outputs": [],
			"stateMutability": "nonpayable",
			"type": "function"
		},
		{
			"inputs": [],
			"name": "totalProduct",
			"outputs": [
				{
					"internalType": "uint256",
					"name": "",
					"type": "uint256"
				}
			],
			"stateMutability": "view",
			"type": "function"
		},
		{
			"inputs": [
				{
					"internalType": "address",
					"name": "newOwner",
					"type": "address"
				}
			],
			"name": "transferOwnership",
			"outputs": [],
			"stateMutability": "nonpayable",
			"type": "function"
		},
		{
			"inputs": [],
			"name": "usdt",
			"outputs": [
				{
					"internalType": "address",
					"name": "",
					"type": "address"
				}
			],
			"stateMutability": "view",
			"type": "function"
		},
		{
			"inputs": [],
			"name": "userViewProduct",
			"outputs": [
				{
					"components": [
						{
							"internalType": "bytes32",
							"name": "id",
							"type": "bytes32"
						},
						{
							"internalType": "bytes",
							"name": "imgUrl",
							"type": "bytes"
						},
						{
							"internalType": "uint256",
							"name": "memberPrice",
							"type": "uint256"
						},
						{
							"internalType": "uint256",
							"name": "retailPrice",
							"type": "uint256"
						},
						{
							"internalType": "bytes",
							"name": "desc",
							"type": "bytes"
						},
						{
							"internalType": "bool",
							"name": "active",
							"type": "bool"
						}
					],
					"internalType": "struct PackageInfoStruct.Product[]",
					"name": "",
					"type": "tuple[]"
				}
			],
			"stateMutability": "view",
			"type": "function"
		}
	]
}