{
	"code_pool.sol": {
		"CodePool": {
			"abi": [
				{
					"inputs": [],
					"stateMutability": "payable",
					"type": "constructor"
				},
				{
					"anonymous": false,
					"inputs": [
						{
							"indexed": true,
							"internalType": "bytes32",
							"name": "role",
							"type": "bytes32"
						},
						{
							"indexed": true,
							"internalType": "bytes32",
							"name": "previousAdminRole",
							"type": "bytes32"
						},
						{
							"indexed": true,
							"internalType": "bytes32",
							"name": "newAdminRole",
							"type": "bytes32"
						}
					],
					"name": "RoleAdminChanged",
					"type": "event"
				},
				{
					"anonymous": false,
					"inputs": [
						{
							"indexed": true,
							"internalType": "bytes32",
							"name": "role",
							"type": "bytes32"
						},
						{
							"indexed": true,
							"internalType": "address",
							"name": "account",
							"type": "address"
						},
						{
							"indexed": true,
							"internalType": "address",
							"name": "sender",
							"type": "address"
						}
					],
					"name": "RoleGranted",
					"type": "event"
				},
				{
					"anonymous": false,
					"inputs": [
						{
							"indexed": true,
							"internalType": "bytes32",
							"name": "role",
							"type": "bytes32"
						},
						{
							"indexed": true,
							"internalType": "address",
							"name": "account",
							"type": "address"
						},
						{
							"indexed": true,
							"internalType": "address",
							"name": "sender",
							"type": "address"
						}
					],
					"name": "RoleRevoked",
					"type": "event"
				},
				{
					"inputs": [],
					"name": "DEFAULT_ADMIN_ROLE",
					"outputs": [
						{
							"internalType": "bytes32",
							"name": "",
							"type": "bytes32"
						}
					],
					"stateMutability": "view",
					"type": "function"
				},
				{
					"inputs": [],
					"name": "PC_CON",
					"outputs": [
						{
							"internalType": "bytes32",
							"name": "",
							"type": "bytes32"
						}
					],
					"stateMutability": "view",
					"type": "function"
				},
				{
					"inputs": [
						{
							"internalType": "string",
							"name": "codeStr",
							"type": "string"
						},
						{
							"internalType": "address",
							"name": "activator",
							"type": "address"
						}
					],
					"name": "activateCode",
					"outputs": [
						{
							"internalType": "bool",
							"name": "",
							"type": "bool"
						}
					],
					"stateMutability": "nonpayable",
					"type": "function"
				},
				{
					"inputs": [
						{
							"components": [
								{
									"internalType": "address",
									"name": "owner",
									"type": "address"
								},
								{
									"internalType": "bytes32",
									"name": "codeHash",
									"type": "bytes32"
								},
								{
									"internalType": "uint256",
									"name": "activeTime",
									"type": "uint256"
								},
								{
									"internalType": "uint256",
									"name": "expirationActiveTime",
									"type": "uint256"
								},
								{
									"internalType": "uint256",
									"name": "boostSpeed",
									"type": "uint256"
								},
								{
									"internalType": "uint256",
									"name": "boostTime",
									"type": "uint256"
								},
								{
									"internalType": "uint256",
									"name": "rateBoost",
									"type": "uint256"
								},
								{
									"internalType": "address",
									"name": "delegate",
									"type": "address"
								},
								{
									"internalType": "enum Status",
									"name": "status",
									"type": "uint8"
								},
								{
									"internalType": "string",
									"name": "origin",
									"type": "string"
								},
								{
									"internalType": "uint256",
									"name": "mintedAmount",
									"type": "uint256"
								},
								{
									"internalType": "uint256",
									"name": "releasePercentage",
									"type": "uint256"
								},
								{
									"internalType": "uint256",
									"name": "lockTime",
									"type": "uint256"
								},
								{
									"internalType": "bytes32",
									"name": "keyHash",
									"type": "bytes32"
								},
								{
									"internalType": "string",
									"name": "haah",
									"type": "string"
								},
								{
									"internalType": "string[]",
									"name": "hihi",
									"type": "string[]"
								}
							],
							"internalType": "struct Code",
							"name": "code",
							"type": "tuple"
						}
					],
					"name": "addCode",
					"outputs": [
						{
							"internalType": "bool",
							"name": "",
							"type": "bool"
						}
					],
					"stateMutability": "nonpayable",
					"type": "function"
				},
				{
					"inputs": [
						{
							"internalType": "address",
							"name": "caller",
							"type": "address"
						},
						{
							"internalType": "bytes32[]",
							"name": "codeHashes",
							"type": "bytes32[]"
						}
					],
					"name": "blockCode",
					"outputs": [
						{
							"internalType": "bool[]",
							"name": "",
							"type": "bool[]"
						}
					],
					"stateMutability": "nonpayable",
					"type": "function"
				},
				{
					"inputs": [
						{
							"internalType": "bytes32",
							"name": "codeHash",
							"type": "bytes32"
						}
					],
					"name": "burnCode",
					"outputs": [
						{
							"internalType": "bool",
							"name": "",
							"type": "bool"
						}
					],
					"stateMutability": "nonpayable",
					"type": "function"
				},
				{
					"inputs": [
						{
							"internalType": "bytes32",
							"name": "codeHash",
							"type": "bytes32"
						}
					],
					"name": "getCodeInfo",
					"outputs": [
						{
							"components": [
								{
									"internalType": "address",
									"name": "owner",
									"type": "address"
								},
								{
									"internalType": "bytes32",
									"name": "codeHash",
									"type": "bytes32"
								},
								{
									"internalType": "uint256",
									"name": "activeTime",
									"type": "uint256"
								},
								{
									"internalType": "uint256",
									"name": "expirationActiveTime",
									"type": "uint256"
								},
								{
									"internalType": "uint256",
									"name": "boostSpeed",
									"type": "uint256"
								},
								{
									"internalType": "uint256",
									"name": "boostTime",
									"type": "uint256"
								},
								{
									"internalType": "uint256",
									"name": "rateBoost",
									"type": "uint256"
								},
								{
									"internalType": "address",
									"name": "delegate",
									"type": "address"
								},
								{
									"internalType": "enum Status",
									"name": "status",
									"type": "uint8"
								},
								{
									"internalType": "string",
									"name": "origin",
									"type": "string"
								},
								{
									"internalType": "uint256",
									"name": "mintedAmount",
									"type": "uint256"
								},
								{
									"internalType": "uint256",
									"name": "releasePercentage",
									"type": "uint256"
								},
								{
									"internalType": "uint256",
									"name": "lockTime",
									"type": "uint256"
								},
								{
									"internalType": "bytes32",
									"name": "keyHash",
									"type": "bytes32"
								},
								{
									"internalType": "string",
									"name": "haah",
									"type": "string"
								},
								{
									"internalType": "string[]",
									"name": "hihi",
									"type": "string[]"
								}
							],
							"internalType": "struct Code",
							"name": "",
							"type": "tuple"
						}
					],
					"stateMutability": "view",
					"type": "function"
				},
				{
					"inputs": [
						{
							"internalType": "address",
							"name": "caller",
							"type": "address"
						}
					],
					"name": "getCodeList",
					"outputs": [
						{
							"components": [
								{
									"internalType": "address",
									"name": "owner",
									"type": "address"
								},
								{
									"internalType": "bytes32",
									"name": "codeHash",
									"type": "bytes32"
								},
								{
									"internalType": "uint256",
									"name": "activeTime",
									"type": "uint256"
								},
								{
									"internalType": "uint256",
									"name": "expirationActiveTime",
									"type": "uint256"
								},
								{
									"internalType": "uint256",
									"name": "boostSpeed",
									"type": "uint256"
								},
								{
									"internalType": "uint256",
									"name": "boostTime",
									"type": "uint256"
								},
								{
									"internalType": "uint256",
									"name": "rateBoost",
									"type": "uint256"
								},
								{
									"internalType": "address",
									"name": "delegate",
									"type": "address"
								},
								{
									"internalType": "enum Status",
									"name": "status",
									"type": "uint8"
								},
								{
									"internalType": "string",
									"name": "origin",
									"type": "string"
								},
								{
									"internalType": "uint256",
									"name": "mintedAmount",
									"type": "uint256"
								},
								{
									"internalType": "uint256",
									"name": "releasePercentage",
									"type": "uint256"
								},
								{
									"internalType": "uint256",
									"name": "lockTime",
									"type": "uint256"
								},
								{
									"internalType": "bytes32",
									"name": "keyHash",
									"type": "bytes32"
								},
								{
									"internalType": "string",
									"name": "haah",
									"type": "string"
								},
								{
									"internalType": "string[]",
									"name": "hihi",
									"type": "string[]"
								}
							],
							"internalType": "struct Code[]",
							"name": "codes",
							"type": "tuple[]"
						}
					],
					"stateMutability": "view",
					"type": "function"
				},
				{
					"inputs": [
						{
							"internalType": "bytes32",
							"name": "role",
							"type": "bytes32"
						}
					],
					"name": "getRoleAdmin",
					"outputs": [
						{
							"internalType": "bytes32",
							"name": "",
							"type": "bytes32"
						}
					],
					"stateMutability": "view",
					"type": "function"
				},
				{
					"inputs": [
						{
							"internalType": "bytes32",
							"name": "role",
							"type": "bytes32"
						},
						{
							"internalType": "address",
							"name": "account",
							"type": "address"
						}
					],
					"name": "grantRole",
					"outputs": [],
					"stateMutability": "nonpayable",
					"type": "function"
				},
				{
					"inputs": [
						{
							"internalType": "bytes32",
							"name": "role",
							"type": "bytes32"
						},
						{
							"internalType": "address",
							"name": "account",
							"type": "address"
						}
					],
					"name": "hasRole",
					"outputs": [
						{
							"internalType": "bool",
							"name": "",
							"type": "bool"
						}
					],
					"stateMutability": "view",
					"type": "function"
				},
				{
					"inputs": [
						{
							"internalType": "bytes32",
							"name": "role",
							"type": "bytes32"
						},
						{
							"internalType": "address",
							"name": "account",
							"type": "address"
						}
					],
					"name": "renounceRole",
					"outputs": [],
					"stateMutability": "nonpayable",
					"type": "function"
				},
				{
					"inputs": [
						{
							"internalType": "bytes32",
							"name": "role",
							"type": "bytes32"
						},
						{
							"internalType": "address",
							"name": "account",
							"type": "address"
						}
					],
					"name": "revokeRole",
					"outputs": [],
					"stateMutability": "nonpayable",
					"type": "function"
				},
				{
					"inputs": [
						{
							"internalType": "address",
							"name": "caller",
							"type": "address"
						},
						{
							"internalType": "bytes32",
							"name": "codeHash",
							"type": "bytes32"
						},
						{
							"internalType": "uint256",
							"name": "newLockTime",
							"type": "uint256"
						},
						{
							"internalType": "uint256",
							"name": "lockRate",
							"type": "uint256"
						}
					],
					"name": "setCodeLockTime",
					"outputs": [
						{
							"internalType": "bool",
							"name": "",
							"type": "bool"
						}
					],
					"stateMutability": "nonpayable",
					"type": "function"
				},
				{
					"inputs": [
						{
							"internalType": "bytes4",
							"name": "interfaceId",
							"type": "bytes4"
						}
					],
					"name": "supportsInterface",
					"outputs": [
						{
							"internalType": "bool",
							"name": "",
							"type": "bool"
						}
					],
					"stateMutability": "view",
					"type": "function"
				},
				{
					"inputs": [
						{
							"internalType": "address",
							"name": "caller",
							"type": "address"
						},
						{
							"internalType": "bytes32[]",
							"name": "codeHashes",
							"type": "bytes32[]"
						}
					],
					"name": "unblockCode",
					"outputs": [
						{
							"internalType": "bool[]",
							"name": "",
							"type": "bool[]"
						}
					],
					"stateMutability": "nonpayable",
					"type": "function"
				},
				{
					"inputs": [
						{
							"internalType": "address",
							"name": "caller",
							"type": "address"
						},
						{
							"internalType": "bytes32",
							"name": "codeHash",
							"type": "bytes32"
						},
						{
							"internalType": "string",
							"name": "rawKey",
							"type": "string"
						}
					],
					"name": "unlockCodeWalletKey",
					"outputs": [
						{
							"internalType": "bool",
							"name": "",
							"type": "bool"
						}
					],
					"stateMutability": "nonpayable",
					"type": "function"
				},
				{
					"inputs": [
						{
							"components": [
								{
									"internalType": "address",
									"name": "owner",
									"type": "address"
								},
								{
									"internalType": "bytes32",
									"name": "codeHash",
									"type": "bytes32"
								},
								{
									"internalType": "uint256",
									"name": "activeTime",
									"type": "uint256"
								},
								{
									"internalType": "uint256",
									"name": "expirationActiveTime",
									"type": "uint256"
								},
								{
									"internalType": "uint256",
									"name": "boostSpeed",
									"type": "uint256"
								},
								{
									"internalType": "uint256",
									"name": "boostTime",
									"type": "uint256"
								},
								{
									"internalType": "uint256",
									"name": "rateBoost",
									"type": "uint256"
								},
								{
									"internalType": "address",
									"name": "delegate",
									"type": "address"
								},
								{
									"internalType": "enum Status",
									"name": "status",
									"type": "uint8"
								},
								{
									"internalType": "string",
									"name": "origin",
									"type": "string"
								},
								{
									"internalType": "uint256",
									"name": "mintedAmount",
									"type": "uint256"
								},
								{
									"internalType": "uint256",
									"name": "releasePercentage",
									"type": "uint256"
								},
								{
									"internalType": "uint256",
									"name": "lockTime",
									"type": "uint256"
								},
								{
									"internalType": "bytes32",
									"name": "keyHash",
									"type": "bytes32"
								},
								{
									"internalType": "string",
									"name": "haah",
									"type": "string"
								},
								{
									"internalType": "string[]",
									"name": "hihi",
									"type": "string[]"
								}
							],
							"internalType": "struct Code",
							"name": "updatedCode",
							"type": "tuple"
						}
					],
					"name": "updateCode",
					"outputs": [
						{
							"internalType": "bool",
							"name": "",
							"type": "bool"
						}
					],
					"stateMutability": "nonpayable",
					"type": "function"
				},
				{
					"inputs": [
						{
							"internalType": "address",
							"name": "caller",
							"type": "address"
						},
						{
							"internalType": "bytes32",
							"name": "codeHash",
							"type": "bytes32"
						},
						{
							"internalType": "string",
							"name": "rawKey",
							"type": "string"
						},
						{
							"internalType": "bytes32",
							"name": "newKeyHash",
							"type": "bytes32"
						}
					],
					"name": "updateCodeWalletKey",
					"outputs": [
						{
							"internalType": "bool",
							"name": "",
							"type": "bool"
						}
					],
					"stateMutability": "nonpayable",
					"type": "function"
				},
				{
					"inputs": [
						{
							"internalType": "bytes32",
							"name": "codeHash",
							"type": "bytes32"
						}
					],
					"name": "updateExpiredCode",
					"outputs": [
						{
							"internalType": "bool",
							"name": "",
							"type": "bool"
						}
					],
					"stateMutability": "nonpayable",
					"type": "function"
				}
			],
			"devdoc": {
				"events": {
					"RoleAdminChanged(bytes32,bytes32,bytes32)": {
						"details": "Emitted when `newAdminRole` is set as ``role``'s admin role, replacing `previousAdminRole` `DEFAULT_ADMIN_ROLE` is the starting admin for all roles, despite {RoleAdminChanged} not being emitted signaling this. _Available since v3.1._"
					},
					"RoleGranted(bytes32,address,address)": {
						"details": "Emitted when `account` is granted `role`. `sender` is the account that originated the contract call, an admin role bearer except when using {AccessControl-_setupRole}."
					},
					"RoleRevoked(bytes32,address,address)": {
						"details": "Emitted when `account` is revoked `role`. `sender` is the account that originated the contract call:   - if using `revokeRole`, it is the admin role bearer   - if using `renounceRole`, it is the role bearer (i.e. `account`)"
					}
				},
				"kind": "dev",
				"methods": {
					"getRoleAdmin(bytes32)": {
						"details": "Returns the admin role that controls `role`. See {grantRole} and {revokeRole}. To change a role's admin, use {_setRoleAdmin}."
					},
					"grantRole(bytes32,address)": {
						"details": "Grants `role` to `account`. If `account` had not been already granted `role`, emits a {RoleGranted} event. Requirements: - the caller must have ``role``'s admin role. May emit a {RoleGranted} event."
					},
					"hasRole(bytes32,address)": {
						"details": "Returns `true` if `account` has been granted `role`."
					},
					"renounceRole(bytes32,address)": {
						"details": "Revokes `role` from the calling account. Roles are often managed via {grantRole} and {revokeRole}: this function's purpose is to provide a mechanism for accounts to lose their privileges if they are compromised (such as when a trusted device is misplaced). If the calling account had been revoked `role`, emits a {RoleRevoked} event. Requirements: - the caller must be `account`. May emit a {RoleRevoked} event."
					},
					"revokeRole(bytes32,address)": {
						"details": "Revokes `role` from `account`. If `account` had been granted `role`, emits a {RoleRevoked} event. Requirements: - the caller must have ``role``'s admin role. May emit a {RoleRevoked} event."
					},
					"supportsInterface(bytes4)": {
						"details": "See {IERC165-supportsInterface}."
					}
				},
				"version": 1
			},
			"evm": {
				"assembly": "    /* \"code_pool.sol\":274:7483  contract CodePool is ICodePool, AccessControl {... */\n  mstore(0x40, 0x80)\n    /* \"code_pool.sol\":571:613  _grantRole(DEFAULT_ADMIN_ROLE, msg.sender) */\n  tag_3\n    /* \"@openzeppelin/contracts@v4.9.0/access/AccessControl.sol\":2198:2202  0x00 */\n  0x00\n    /* \"code_pool.sol\":602:612  msg.sender */\n  caller\n    /* \"code_pool.sol\":571:581  _grantRole */\n  tag_4\n    /* \"code_pool.sol\":571:613  _grantRole(DEFAULT_ADMIN_ROLE, msg.sender) */\n  jump\t// in\ntag_3:\n    /* \"code_pool.sol\":274:7483  contract CodePool is ICodePool, AccessControl {... */\n  jump(tag_5)\n    /* \"@openzeppelin/contracts@v4.9.0/access/AccessControl.sol\":7587:7820  function _grantRole(bytes32 role, address account) internal virtual {... */\ntag_4:\n    /* \"@openzeppelin/contracts@v4.9.0/access/AccessControl.sol\":3107:3111  bool */\n  0x00\n    /* \"@openzeppelin/contracts@v4.9.0/access/AccessControl.sol\":3130:3142  _roles[role] */\n  dup3\n  dup2\n  mstore\n  0x20\n  dup2\n  dup2\n  mstore\n  0x40\n  dup1\n  dup4\n  keccak256\n  sub(shl(0xa0, 0x01), 0x01)\n    /* \"@openzeppelin/contracts@v4.9.0/access/AccessControl.sol\":3130:3159  _roles[role].members[account] */\n  dup6\n  and\n  dup5\n  mstore\n  swap1\n  swap2\n  mstore\n  swap1\n  keccak256\n  sload\n  0xff\n  and\n    /* \"@openzeppelin/contracts@v4.9.0/access/AccessControl.sol\":7665:7814  if (!hasRole(role, account)) {... */\n  tag_9\n  jumpi\n    /* \"@openzeppelin/contracts@v4.9.0/access/AccessControl.sol\":7708:7714  _roles */\n  0x00\n    /* \"@openzeppelin/contracts@v4.9.0/access/AccessControl.sol\":7708:7720  _roles[role] */\n  dup3\n  dup2\n  mstore\n  0x20\n  dup2\n  dup2\n  mstore\n  0x40\n  dup1\n  dup4\n  keccak256\n  sub(shl(0xa0, 0x01), 0x01)\n    /* \"@openzeppelin/contracts@v4.9.0/access/AccessControl.sol\":7708:7737  _roles[role].members[account] */\n  dup6\n  and\n  dup5\n  mstore\n  swap1\n  swap2\n  mstore\n  swap1\n  keccak256\n    /* \"@openzeppelin/contracts@v4.9.0/access/AccessControl.sol\":7708:7744  _roles[role].members[account] = true */\n  dup1\n  sload\n  not(0xff)\n  and\n    /* \"@openzeppelin/contracts@v4.9.0/access/AccessControl.sol\":7740:7744  true */\n  0x01\n    /* \"@openzeppelin/contracts@v4.9.0/access/AccessControl.sol\":7708:7744  _roles[role].members[account] = true */\n  or\n  swap1\n  sstore\n    /* \"@openzeppelin/contracts@v4.9.0/access/AccessControl.sol\":7790:7802  _msgSender() */\n  tag_10\n    /* \"@openzeppelin/contracts@v4.9.0/utils/Context.sol\":719:729  msg.sender */\n  caller\n  swap1\n    /* \"@openzeppelin/contracts@v4.9.0/utils/Context.sol\":640:736  function _msgSender() internal view virtual returns (address) {... */\n  jump\n    /* \"@openzeppelin/contracts@v4.9.0/access/AccessControl.sol\":7790:7802  _msgSender() */\ntag_10:\n  sub(shl(0xa0, 0x01), 0x01)\n    /* \"@openzeppelin/contracts@v4.9.0/access/AccessControl.sol\":7763:7803  RoleGranted(role, account, _msgSender()) */\n  and\n    /* \"@openzeppelin/contracts@v4.9.0/access/AccessControl.sol\":7781:7788  account */\n  dup2\n  sub(shl(0xa0, 0x01), 0x01)\n    /* \"@openzeppelin/contracts@v4.9.0/access/AccessControl.sol\":7763:7803  RoleGranted(role, account, _msgSender()) */\n  and\n    /* \"@openzeppelin/contracts@v4.9.0/access/AccessControl.sol\":7775:7779  role */\n  dup4\n    /* \"@openzeppelin/contracts@v4.9.0/access/AccessControl.sol\":7763:7803  RoleGranted(role, account, _msgSender()) */\n  0x2f8788117e7eff1d82e926ec794901d17c78024a50270940304540a733656f0d\n  mload(0x40)\n  mload(0x40)\n  dup1\n  swap2\n  sub\n  swap1\n  log4\n    /* \"@openzeppelin/contracts@v4.9.0/access/AccessControl.sol\":7665:7814  if (!hasRole(role, account)) {... */\ntag_9:\n    /* \"@openzeppelin/contracts@v4.9.0/access/AccessControl.sol\":7587:7820  function _grantRole(bytes32 role, address account) internal virtual {... */\n  pop\n  pop\n  jump\t// out\n    /* \"code_pool.sol\":274:7483  contract CodePool is ICodePool, AccessControl {... */\ntag_5:\n  dataSize(sub_0)\n  dup1\n  dataOffset(sub_0)\n  0x00\n  codecopy\n  0x00\n  return\nstop\n\nsub_0: assembly {\n        /* \"code_pool.sol\":274:7483  contract CodePool is ICodePool, AccessControl {... */\n      mstore(0x40, 0x80)\n      callvalue\n      dup1\n      iszero\n      tag_1\n      jumpi\n      0x00\n      dup1\n      revert\n    tag_1:\n      pop\n      jumpi(tag_2, lt(calldatasize, 0x04))\n      shr(0xe0, calldataload(0x00))\n      dup1\n      0x54eecb92\n      gt\n      tag_23\n      jumpi\n      dup1\n      0xa217fddf\n      gt\n      tag_24\n      jumpi\n      dup1\n      0xa217fddf\n      eq\n      tag_18\n      jumpi\n      dup1\n      0xce1dd554\n      eq\n      tag_19\n      jumpi\n      dup1\n      0xd547741f\n      eq\n      tag_20\n      jumpi\n      dup1\n      0xd86a8af3\n      eq\n      tag_21\n      jumpi\n      dup1\n      0xded92c3d\n      eq\n      tag_22\n      jumpi\n      0x00\n      dup1\n      revert\n    tag_24:\n      dup1\n      0x54eecb92\n      eq\n      tag_13\n      jumpi\n      dup1\n      0x76f1a358\n      eq\n      tag_14\n      jumpi\n      dup1\n      0x7e7e8aa2\n      eq\n      tag_15\n      jumpi\n      dup1\n      0x90bc1864\n      eq\n      tag_16\n      jumpi\n      dup1\n      0x91d14854\n      eq\n      tag_17\n      jumpi\n      0x00\n      dup1\n      revert\n    tag_23:\n      dup1\n      0x20382f46\n      gt\n      tag_25\n      jumpi\n      dup1\n      0x20382f46\n      eq\n      tag_8\n      jumpi\n      dup1\n      0x248a9ca3\n      eq\n      tag_9\n      jumpi\n      dup1\n      0x2f2ff15d\n      eq\n      tag_10\n      jumpi\n      dup1\n      0x36568abe\n      eq\n      tag_11\n      jumpi\n      dup1\n      0x3b2c0e5a\n      eq\n      tag_12\n      jumpi\n      0x00\n      dup1\n      revert\n    tag_25:\n      dup1\n      0x01ffc9a7\n      eq\n      tag_3\n      jumpi\n      dup1\n      0x1339f27b\n      eq\n      tag_4\n      jumpi\n      dup1\n      0x134c0377\n      eq\n      tag_5\n      jumpi\n      dup1\n      0x186fbad2\n      eq\n      tag_6\n      jumpi\n      dup1\n      0x19d8bcf0\n      eq\n      tag_7\n      jumpi\n    tag_2:\n      0x00\n      dup1\n      revert\n        /* \"@openzeppelin/contracts@v4.9.0/access/AccessControl.sol\":2732:2934  function supportsInterface(bytes4 interfaceId) public view virtual override returns (bool) {... */\n    tag_3:\n      tag_26\n      tag_27\n      calldatasize\n      0x04\n      tag_28\n      jump\t// in\n    tag_27:\n      tag_29\n      jump\t// in\n    tag_26:\n      mload(0x40)\n        /* \"#utility.yul\":470:484   */\n      swap1\n      iszero\n        /* \"#utility.yul\":463:485   */\n      iszero\n        /* \"#utility.yul\":445:486   */\n      dup2\n      mstore\n        /* \"#utility.yul\":433:435   */\n      0x20\n        /* \"#utility.yul\":418:436   */\n      add\n        /* \"@openzeppelin/contracts@v4.9.0/access/AccessControl.sol\":2732:2934  function supportsInterface(bytes4 interfaceId) public view virtual override returns (bool) {... */\n    tag_30:\n      mload(0x40)\n      dup1\n      swap2\n      sub\n      swap1\n      return\n        /* \"code_pool.sol\":5328:5555  function updateExpiredCode(... */\n    tag_4:\n      tag_26\n      tag_33\n      calldatasize\n      0x04\n      tag_34\n      jump\t// in\n    tag_33:\n      tag_35\n      jump\t// in\n        /* \"code_pool.sol\":2124:2441  function getCodeList(... */\n    tag_5:\n      tag_37\n      tag_38\n      calldatasize\n      0x04\n      tag_39\n      jump\t// in\n    tag_38:\n      tag_40\n      jump\t// in\n    tag_37:\n      mload(0x40)\n      tag_30\n      swap2\n      swap1\n      tag_42\n      jump\t// in\n        /* \"code_pool.sol\":2883:3075  function burnCode(... */\n    tag_6:\n      tag_26\n      tag_44\n      calldatasize\n      0x04\n      tag_34\n      jump\t// in\n    tag_44:\n      tag_45\n      jump\t// in\n        /* \"code_pool.sol\":3081:3259  function getCodeInfo(... */\n    tag_7:\n      tag_47\n      tag_48\n      calldatasize\n      0x04\n      tag_34\n      jump\t// in\n    tag_48:\n      tag_49\n      jump\t// in\n    tag_47:\n      mload(0x40)\n      tag_30\n      swap2\n      swap1\n      tag_51\n      jump\t// in\n        /* \"code_pool.sol\":4108:4711  function blockCode(... */\n    tag_8:\n      tag_52\n      tag_53\n      calldatasize\n      0x04\n      tag_54\n      jump\t// in\n    tag_53:\n      tag_55\n      jump\t// in\n    tag_52:\n      mload(0x40)\n      tag_30\n      swap2\n      swap1\n      tag_57\n      jump\t// in\n        /* \"@openzeppelin/contracts@v4.9.0/access/AccessControl.sol\":4504:4633  function getRoleAdmin(bytes32 role) public view virtual override returns (bytes32) {... */\n    tag_9:\n      tag_58\n      tag_59\n      calldatasize\n      0x04\n      tag_34\n      jump\t// in\n    tag_59:\n        /* \"@openzeppelin/contracts@v4.9.0/access/AccessControl.sol\":4578:4585  bytes32 */\n      0x00\n        /* \"@openzeppelin/contracts@v4.9.0/access/AccessControl.sol\":4604:4616  _roles[role] */\n      swap1\n      dup2\n      mstore\n      0x20\n      dup2\n      swap1\n      mstore\n      0x40\n      swap1\n      keccak256\n        /* \"@openzeppelin/contracts@v4.9.0/access/AccessControl.sol\":4604:4626  _roles[role].adminRole */\n      0x01\n      add\n      sload\n      swap1\n        /* \"@openzeppelin/contracts@v4.9.0/access/AccessControl.sol\":4504:4633  function getRoleAdmin(bytes32 role) public view virtual override returns (bytes32) {... */\n      jump\n    tag_58:\n      mload(0x40)\n        /* \"#utility.yul\":7930:7955   */\n      swap1\n      dup2\n      mstore\n        /* \"#utility.yul\":7918:7920   */\n      0x20\n        /* \"#utility.yul\":7903:7921   */\n      add\n        /* \"@openzeppelin/contracts@v4.9.0/access/AccessControl.sol\":4504:4633  function getRoleAdmin(bytes32 role) public view virtual override returns (bytes32) {... */\n      tag_30\n        /* \"#utility.yul\":7784:7961   */\n      jump\n        /* \"code_pool.sol\":626:841  function grantRole(... */\n    tag_10:\n      tag_63\n      tag_64\n      calldatasize\n      0x04\n      tag_65\n      jump\t// in\n    tag_64:\n      tag_66\n      jump\t// in\n    tag_63:\n      stop\n        /* \"@openzeppelin/contracts@v4.9.0/access/AccessControl.sol\":6038:6252  function renounceRole(bytes32 role, address account) public virtual override {... */\n    tag_11:\n      tag_63\n      tag_68\n      calldatasize\n      0x04\n      tag_65\n      jump\t// in\n    tag_68:\n      tag_69\n      jump\t// in\n        /* \"code_pool.sol\":5561:6310  function setCodeLockTime(... */\n    tag_12:\n      tag_26\n      tag_71\n      calldatasize\n      0x04\n      tag_72\n      jump\t// in\n    tag_71:\n      tag_73\n      jump\t// in\n        /* \"code_pool.sol\":6316:6961  function updateCodeWalletKey(... */\n    tag_13:\n      tag_26\n      tag_76\n      calldatasize\n      0x04\n      tag_77\n      jump\t// in\n    tag_76:\n      tag_78\n      jump\t// in\n        /* \"code_pool.sol\":6967:7481  function unlockCodeWalletKey(... */\n    tag_14:\n      tag_26\n      tag_81\n      calldatasize\n      0x04\n      tag_82\n      jump\t// in\n    tag_81:\n      tag_83\n      jump\t// in\n        /* \"code_pool.sol\":326:397  bytes32 public constant PC_CON = keccak256(\"POOL_CODE_CONTROLLER_ROLE\") */\n    tag_15:\n      tag_58\n      0x00\n      dup1\n      mload\n      0x20\n      data_be3e709ccfa493aa582ab5a8c394c6715fbafb2c07360d03c84529526f351da9\n      dup4\n      codecopy\n      dup2\n      mload\n      swap2\n      mstore\n      dup2\n      jump\n        /* \"code_pool.sol\":3265:4102  function activateCode(... */\n    tag_16:\n      tag_26\n      tag_89\n      calldatasize\n      0x04\n      tag_90\n      jump\t// in\n    tag_89:\n      tag_91\n      jump\t// in\n        /* \"@openzeppelin/contracts@v4.9.0/access/AccessControl.sol\":3021:3166  function hasRole(bytes32 role, address account) public view virtual override returns (bool) {... */\n    tag_17:\n      tag_26\n      tag_94\n      calldatasize\n      0x04\n      tag_65\n      jump\t// in\n    tag_94:\n      tag_95\n      jump\t// in\n        /* \"@openzeppelin/contracts@v4.9.0/access/AccessControl.sol\":2153:2202  bytes32 public constant DEFAULT_ADMIN_ROLE = 0x00 */\n    tag_18:\n      tag_58\n        /* \"@openzeppelin/contracts@v4.9.0/access/AccessControl.sol\":2198:2202  0x00 */\n      0x00\n        /* \"@openzeppelin/contracts@v4.9.0/access/AccessControl.sol\":2153:2202  bytes32 public constant DEFAULT_ADMIN_ROLE = 0x00 */\n      dup2\n      jump\n        /* \"code_pool.sol\":4717:5322  function unblockCode(... */\n    tag_19:\n      tag_52\n      tag_101\n      calldatasize\n      0x04\n      tag_54\n      jump\t// in\n    tag_101:\n      tag_102\n      jump\t// in\n        /* \"code_pool.sol\":847:1353  function revokeRole(... */\n    tag_20:\n      tag_63\n      tag_105\n      calldatasize\n      0x04\n      tag_65\n      jump\t// in\n    tag_105:\n      tag_106\n      jump\t// in\n        /* \"code_pool.sol\":2645:2877  function updateCode(... */\n    tag_21:\n      tag_26\n      tag_108\n      calldatasize\n      0x04\n      tag_109\n      jump\t// in\n    tag_108:\n      tag_110\n      jump\t// in\n        /* \"code_pool.sol\":1359:1699  function addCode(... */\n    tag_22:\n      tag_26\n      tag_113\n      calldatasize\n      0x04\n      tag_109\n      jump\t// in\n    tag_113:\n      tag_114\n      jump\t// in\n        /* \"@openzeppelin/contracts@v4.9.0/access/AccessControl.sol\":2732:2934  function supportsInterface(bytes4 interfaceId) public view virtual override returns (bool) {... */\n    tag_29:\n        /* \"@openzeppelin/contracts@v4.9.0/access/AccessControl.sol\":2817:2821  bool */\n      0x00\n      not(sub(shl(0xe0, 0x01), 0x01))\n        /* \"@openzeppelin/contracts@v4.9.0/access/AccessControl.sol\":2840:2887  interfaceId == type(IAccessControl).interfaceId */\n      dup3\n      and\n      shl(0xe0, 0x7965db0b)\n      eq\n      dup1\n        /* \"@openzeppelin/contracts@v4.9.0/access/AccessControl.sol\":2840:2927  interfaceId == type(IAccessControl).interfaceId || super.supportsInterface(interfaceId) */\n      tag_118\n      jumpi\n      pop\n      shl(0xe0, 0x01ffc9a7)\n      not(sub(shl(0xe0, 0x01), 0x01))\n        /* \"@openzeppelin/contracts@v4.9.0/utils/introspection/ERC165.sol\":937:977  interfaceId == type(IERC165).interfaceId */\n      dup4\n      and\n      eq\n        /* \"@openzeppelin/contracts@v4.9.0/access/AccessControl.sol\":2891:2927  super.supportsInterface(interfaceId) */\n    tag_118:\n        /* \"@openzeppelin/contracts@v4.9.0/access/AccessControl.sol\":2833:2927  return interfaceId == type(IAccessControl).interfaceId || super.supportsInterface(interfaceId) */\n      swap3\n        /* \"@openzeppelin/contracts@v4.9.0/access/AccessControl.sol\":2732:2934  function supportsInterface(bytes4 interfaceId) public view virtual override returns (bool) {... */\n      swap2\n      pop\n      pop\n      jump\t// out\n        /* \"code_pool.sol\":5328:5555  function updateExpiredCode(... */\n    tag_35:\n        /* \"code_pool.sol\":5431:5435  bool */\n      0x00\n      0x00\n      dup1\n      mload\n      0x20\n      data_be3e709ccfa493aa582ab5a8c394c6715fbafb2c07360d03c84529526f351da9\n      dup4\n      codecopy\n      dup2\n      mload\n      swap2\n      mstore\n        /* \"@openzeppelin/contracts@v4.9.0/access/AccessControl.sol\":2631:2647  _checkRole(role) */\n      tag_121\n        /* \"@openzeppelin/contracts@v4.9.0/access/AccessControl.sol\":2642:2646  role */\n      dup2\n        /* \"@openzeppelin/contracts@v4.9.0/access/AccessControl.sol\":2631:2641  _checkRole */\n      tag_122\n        /* \"@openzeppelin/contracts@v4.9.0/access/AccessControl.sol\":2631:2647  _checkRole(role) */\n      jump\t// in\n    tag_121:\n        /* \"code_pool.sol\":5447:5474  _validateCodeHash(codeHash) */\n      tag_124\n        /* \"code_pool.sol\":5465:5473  codeHash */\n      dup4\n        /* \"code_pool.sol\":5447:5464  _validateCodeHash */\n      tag_125\n        /* \"code_pool.sol\":5447:5474  _validateCodeHash(codeHash) */\n      jump\t// in\n    tag_124:\n        /* \"code_pool.sol\":5484:5503  mCodeInfo[codeHash] */\n      0x00\n      dup4\n      dup2\n      mstore\n        /* \"code_pool.sol\":5484:5493  mCodeInfo */\n      0x02\n        /* \"code_pool.sol\":5484:5503  mCodeInfo[codeHash] */\n      0x20\n      mstore\n      0x40\n      swap1\n      keccak256\n        /* \"code_pool.sol\":5484:5510  mCodeInfo[codeHash].status */\n      0x07\n      add\n        /* \"code_pool.sol\":5484:5527  mCodeInfo[codeHash].status = Status.Expired */\n      dup1\n      sload\n      not(shl(0xa0, 0xff))\n      and\n      shl(0xa0, 0x03)\n      or\n      swap1\n      sstore\n      0x01\n      swap2\n      pop\n        /* \"@openzeppelin/contracts@v4.9.0/access/AccessControl.sol\":2657:2658  _ */\n    tag_123:\n        /* \"code_pool.sol\":5328:5555  function updateExpiredCode(... */\n      pop\n      swap2\n      swap1\n      pop\n      jump\t// out\n        /* \"code_pool.sol\":2124:2441  function getCodeList(... */\n    tag_40:\n        /* \"code_pool.sol\":2224:2243  Code[] memory codes */\n      0x60\n      0x00\n      dup1\n      mload\n      0x20\n      data_be3e709ccfa493aa582ab5a8c394c6715fbafb2c07360d03c84529526f351da9\n      dup4\n      codecopy\n      dup2\n      mload\n      swap2\n      mstore\n        /* \"@openzeppelin/contracts@v4.9.0/access/AccessControl.sol\":2631:2647  _checkRole(role) */\n      tag_130\n        /* \"@openzeppelin/contracts@v4.9.0/access/AccessControl.sol\":2642:2646  role */\n      dup2\n        /* \"@openzeppelin/contracts@v4.9.0/access/AccessControl.sol\":2631:2641  _checkRole */\n      tag_122\n        /* \"@openzeppelin/contracts@v4.9.0/access/AccessControl.sol\":2631:2647  _checkRole(role) */\n      jump\t// in\n    tag_130:\n      sub(shl(0xa0, 0x01), 0x01)\n        /* \"code_pool.sol\":2274:2291  mCodeList[caller] */\n      dup4\n      and\n      0x00\n      swap1\n      dup2\n      mstore\n        /* \"code_pool.sol\":2274:2283  mCodeList */\n      0x03\n        /* \"code_pool.sol\":2274:2291  mCodeList[caller] */\n      0x20\n      mstore\n      0x40\n      swap1\n      keccak256\n        /* \"code_pool.sol\":2274:2298  mCodeList[caller].length */\n      sload\n      sub(shl(0x40, 0x01), 0x01)\n        /* \"code_pool.sol\":2263:2299  new Code[](mCodeList[caller].length) */\n      dup2\n      gt\n      iszero\n      tag_133\n      jumpi\n      tag_133\n      tag_134\n      jump\t// in\n    tag_133:\n      mload(0x40)\n      swap1\n      dup1\n      dup3\n      mstore\n      dup1\n      0x20\n      mul\n      0x20\n      add\n      dup3\n      add\n      0x40\n      mstore\n      dup1\n      iszero\n      tag_135\n      jumpi\n      dup2\n      0x20\n      add\n    tag_136:\n      tag_137\n      tag_138\n      jump\t// in\n    tag_137:\n      dup2\n      mstore\n      0x20\n      add\n      swap1\n      0x01\n      swap1\n      sub\n      swap1\n      dup2\n      tag_136\n      jumpi\n      swap1\n      pop\n    tag_135:\n      pop\n        /* \"code_pool.sol\":2255:2299  codes = new Code[](mCodeList[caller].length) */\n      swap2\n      pop\n        /* \"code_pool.sol\":2314:2327  uint256 index */\n      0x00\n        /* \"code_pool.sol\":2309:2435  for (uint256 index; index < codes.length; index++) {... */\n    tag_139:\n        /* \"code_pool.sol\":2337:2342  codes */\n      dup3\n        /* \"code_pool.sol\":2337:2349  codes.length */\n      mload\n        /* \"code_pool.sol\":2329:2334  index */\n      dup2\n        /* \"code_pool.sol\":2329:2349  index < codes.length */\n      lt\n        /* \"code_pool.sol\":2309:2435  for (uint256 index; index < codes.length; index++) {... */\n      iszero\n      tag_140\n      jumpi\n      sub(shl(0xa0, 0x01), 0x01)\n        /* \"code_pool.sol\":2399:2416  mCodeList[caller] */\n      dup5\n      and\n        /* \"code_pool.sol\":2389:2424  mCodeInfo[mCodeList[caller][index]] */\n      0x00\n        /* \"code_pool.sol\":2399:2416  mCodeList[caller] */\n      swap1\n      dup2\n      mstore\n        /* \"code_pool.sol\":2399:2408  mCodeList */\n      0x03\n        /* \"code_pool.sol\":2399:2416  mCodeList[caller] */\n      0x20\n      mstore\n      0x40\n      dup2\n      keccak256\n        /* \"code_pool.sol\":2399:2423  mCodeList[caller][index] */\n      dup1\n      sload\n        /* \"code_pool.sol\":2389:2398  mCodeInfo */\n      0x02\n      swap3\n        /* \"code_pool.sol\":2389:2424  mCodeInfo[mCodeList[caller][index]] */\n      swap2\n        /* \"code_pool.sol\":2399:2416  mCodeList[caller] */\n      swap1\n        /* \"code_pool.sol\":2417:2422  index */\n      dup5\n      swap1\n        /* \"code_pool.sol\":2399:2423  mCodeList[caller][index] */\n      dup2\n      lt\n      tag_143\n      jumpi\n      tag_143\n      tag_144\n      jump\t// in\n    tag_143:\n      0x00\n      swap2\n      dup3\n      mstore\n      0x20\n      dup1\n      dup4\n      keccak256\n      swap1\n      swap2\n      add\n      sload\n        /* \"code_pool.sol\":2389:2424  mCodeInfo[mCodeList[caller][index]] */\n      dup4\n      mstore\n      dup3\n      dup2\n      add\n      swap4\n      swap1\n      swap4\n      mstore\n      0x40\n      swap2\n      dup3\n      add\n      swap1\n      keccak256\n        /* \"code_pool.sol\":2374:2424  codes[index] = mCodeInfo[mCodeList[caller][index]] */\n      dup2\n      mload\n      0x0200\n      dup2\n      add\n      dup4\n      mstore\n      dup2\n      sload\n      sub(shl(0xa0, 0x01), 0x01)\n      swap1\n      dup2\n      and\n      dup3\n      mstore\n      0x01\n      dup4\n      add\n      sload\n      swap5\n      dup3\n      add\n      swap5\n      swap1\n      swap5\n      mstore\n      0x02\n      dup3\n      add\n      sload\n      swap3\n      dup2\n      add\n      swap3\n      swap1\n      swap3\n      mstore\n      0x03\n      dup1\n      dup3\n      add\n      sload\n      0x60\n      dup5\n      add\n      mstore\n      0x04\n      dup3\n      add\n      sload\n      0x80\n      dup5\n      add\n      mstore\n      0x05\n      dup3\n      add\n      sload\n      0xa0\n      dup5\n      add\n      mstore\n      0x06\n      dup3\n      add\n      sload\n      0xc0\n      dup5\n      add\n      mstore\n      0x07\n      dup3\n      add\n      sload\n      swap4\n      dup5\n      and\n      0xe0\n      dup5\n      add\n      mstore\n      swap2\n      swap3\n        /* \"code_pool.sol\":2389:2424  mCodeInfo[mCodeList[caller][index]] */\n      swap1\n      swap2\n        /* \"code_pool.sol\":2374:2424  codes[index] = mCodeInfo[mCodeList[caller][index]] */\n      0x0100\n      dup5\n      add\n      swap2\n      0xff\n      shl(0xa0, 0x01)\n      swap1\n      swap2\n      div\n      and\n      swap1\n      dup2\n      gt\n      iszero\n      tag_147\n      jumpi\n      tag_147\n      tag_128\n      jump\t// in\n    tag_147:\n      0x03\n      dup2\n      gt\n      iszero\n      tag_149\n      jumpi\n      tag_149\n      tag_128\n      jump\t// in\n    tag_149:\n      dup2\n      mstore\n      0x20\n      add\n      0x08\n      dup3\n      add\n      dup1\n      sload\n      tag_150\n      swap1\n      tag_151\n      jump\t// in\n    tag_150:\n      dup1\n      0x1f\n      add\n      0x20\n      dup1\n      swap2\n      div\n      mul\n      0x20\n      add\n      mload(0x40)\n      swap1\n      dup2\n      add\n      0x40\n      mstore\n      dup1\n      swap3\n      swap2\n      swap1\n      dup2\n      dup2\n      mstore\n      0x20\n      add\n      dup3\n      dup1\n      sload\n      tag_152\n      swap1\n      tag_151\n      jump\t// in\n    tag_152:\n      dup1\n      iszero\n      tag_153\n      jumpi\n      dup1\n      0x1f\n      lt\n      tag_154\n      jumpi\n      0x0100\n      dup1\n      dup4\n      sload\n      div\n      mul\n      dup4\n      mstore\n      swap2\n      0x20\n      add\n      swap2\n      jump(tag_153)\n    tag_154:\n      dup3\n      add\n      swap2\n      swap1\n      0x00\n      mstore\n      keccak256(0x00, 0x20)\n      swap1\n    tag_155:\n      dup2\n      sload\n      dup2\n      mstore\n      swap1\n      0x01\n      add\n      swap1\n      0x20\n      add\n      dup1\n      dup4\n      gt\n      tag_155\n      jumpi\n      dup3\n      swap1\n      sub\n      0x1f\n      and\n      dup3\n      add\n      swap2\n    tag_153:\n      pop\n      pop\n      pop\n      pop\n      pop\n      dup2\n      mstore\n      0x20\n      add\n      0x09\n      dup3\n      add\n      sload\n      dup2\n      mstore\n      0x20\n      add\n      0x0a\n      dup3\n      add\n      sload\n      dup2\n      mstore\n      0x20\n      add\n      0x0b\n      dup3\n      add\n      sload\n      dup2\n      mstore\n      0x20\n      add\n      0x0c\n      dup3\n      add\n      sload\n      dup2\n      mstore\n      0x20\n      add\n      0x0d\n      dup3\n      add\n      dup1\n      sload\n      tag_156\n      swap1\n      tag_151\n      jump\t// in\n    tag_156:\n      dup1\n      0x1f\n      add\n      0x20\n      dup1\n      swap2\n      div\n      mul\n      0x20\n      add\n      mload(0x40)\n      swap1\n      dup2\n      add\n      0x40\n      mstore\n      dup1\n      swap3\n      swap2\n      swap1\n      dup2\n      dup2\n      mstore\n      0x20\n      add\n      dup3\n      dup1\n      sload\n      tag_157\n      swap1\n      tag_151\n      jump\t// in\n    tag_157:\n      dup1\n      iszero\n      tag_158\n      jumpi\n      dup1\n      0x1f\n      lt\n      tag_159\n      jumpi\n      0x0100\n      dup1\n      dup4\n      sload\n      div\n      mul\n      dup4\n      mstore\n      swap2\n      0x20\n      add\n      swap2\n      jump(tag_158)\n    tag_159:\n      dup3\n      add\n      swap2\n      swap1\n      0x00\n      mstore\n      keccak256(0x00, 0x20)\n      swap1\n    tag_160:\n      dup2\n      sload\n      dup2\n      mstore\n      swap1\n      0x01\n      add\n      swap1\n      0x20\n      add\n      dup1\n      dup4\n      gt\n      tag_160\n      jumpi\n      dup3\n      swap1\n      sub\n      0x1f\n      and\n      dup3\n      add\n      swap2\n    tag_158:\n      pop\n      pop\n      pop\n      pop\n      pop\n      dup2\n      mstore\n      0x20\n      add\n      0x0e\n      dup3\n      add\n      dup1\n      sload\n      dup1\n      0x20\n      mul\n      0x20\n      add\n      mload(0x40)\n      swap1\n      dup2\n      add\n      0x40\n      mstore\n      dup1\n      swap3\n      swap2\n      swap1\n      dup2\n      dup2\n      mstore\n      0x20\n      add\n      0x00\n      swap1\n    tag_161:\n      dup3\n      dup3\n      lt\n      iszero\n      tag_162\n      jumpi\n      dup4\n      dup3\n      swap1\n      0x00\n      mstore\n      keccak256(0x00, 0x20)\n      add\n      dup1\n      sload\n      tag_164\n      swap1\n      tag_151\n      jump\t// in\n    tag_164:\n      dup1\n      0x1f\n      add\n      0x20\n      dup1\n      swap2\n      div\n      mul\n      0x20\n      add\n      mload(0x40)\n      swap1\n      dup2\n      add\n      0x40\n      mstore\n      dup1\n      swap3\n      swap2\n      swap1\n      dup2\n      dup2\n      mstore\n      0x20\n      add\n      dup3\n      dup1\n      sload\n      tag_165\n      swap1\n      tag_151\n      jump\t// in\n    tag_165:\n      dup1\n      iszero\n      tag_166\n      jumpi\n      dup1\n      0x1f\n      lt\n      tag_167\n      jumpi\n      0x0100\n      dup1\n      dup4\n      sload\n      div\n      mul\n      dup4\n      mstore\n      swap2\n      0x20\n      add\n      swap2\n      jump(tag_166)\n    tag_167:\n      dup3\n      add\n      swap2\n      swap1\n      0x00\n      mstore\n      keccak256(0x00, 0x20)\n      swap1\n    tag_168:\n      dup2\n      sload\n      dup2\n      mstore\n      swap1\n      0x01\n      add\n      swap1\n      0x20\n      add\n      dup1\n      dup4\n      gt\n      tag_168\n      jumpi\n      dup3\n      swap1\n      sub\n      0x1f\n      and\n      dup3\n      add\n      swap2\n    tag_166:\n      pop\n      pop\n      pop\n      pop\n      pop\n      dup2\n      mstore\n      0x20\n      add\n      swap1\n      0x01\n      add\n      swap1\n      jump(tag_161)\n    tag_162:\n      pop\n      pop\n      pop\n      pop\n      dup2\n      mstore\n      pop\n      pop\n        /* \"code_pool.sol\":2374:2379  codes */\n      dup4\n        /* \"code_pool.sol\":2380:2385  index */\n      dup3\n        /* \"code_pool.sol\":2374:2386  codes[index] */\n      dup2\n      mload\n      dup2\n      lt\n      tag_170\n      jumpi\n      tag_170\n      tag_144\n      jump\t// in\n    tag_170:\n      0x20\n      mul\n      0x20\n      add\n      add\n        /* \"code_pool.sol\":2374:2424  codes[index] = mCodeInfo[mCodeList[caller][index]] */\n      dup2\n      swap1\n      mstore\n      pop\n        /* \"code_pool.sol\":2351:2358  index++ */\n      dup1\n      dup1\n      tag_171\n      swap1\n      tag_172\n      jump\t// in\n    tag_171:\n      swap2\n      pop\n      pop\n        /* \"code_pool.sol\":2309:2435  for (uint256 index; index < codes.length; index++) {... */\n      jump(tag_139)\n    tag_140:\n      pop\n        /* \"code_pool.sol\":2124:2441  function getCodeList(... */\n      pop\n      swap2\n      swap1\n      pop\n      jump\t// out\n        /* \"code_pool.sol\":2883:3075  function burnCode(... */\n    tag_45:\n        /* \"code_pool.sol\":2968:2972  bool */\n      0x00\n      0x00\n      dup1\n      mload\n      0x20\n      data_be3e709ccfa493aa582ab5a8c394c6715fbafb2c07360d03c84529526f351da9\n      dup4\n      codecopy\n      dup2\n      mload\n      swap2\n      mstore\n        /* \"@openzeppelin/contracts@v4.9.0/access/AccessControl.sol\":2631:2647  _checkRole(role) */\n      tag_174\n        /* \"@openzeppelin/contracts@v4.9.0/access/AccessControl.sol\":2642:2646  role */\n      dup2\n        /* \"@openzeppelin/contracts@v4.9.0/access/AccessControl.sol\":2631:2641  _checkRole */\n      tag_122\n        /* \"@openzeppelin/contracts@v4.9.0/access/AccessControl.sol\":2631:2647  _checkRole(role) */\n      jump\t// in\n    tag_174:\n        /* \"code_pool.sol\":2984:3011  _validateCodeHash(codeHash) */\n      tag_176\n        /* \"code_pool.sol\":3002:3010  codeHash */\n      dup4\n        /* \"code_pool.sol\":2984:3001  _validateCodeHash */\n      tag_125\n        /* \"code_pool.sol\":2984:3011  _validateCodeHash(codeHash) */\n      jump\t// in\n    tag_176:\n        /* \"code_pool.sol\":3028:3047  mCodeInfo[codeHash] */\n      0x00\n      dup4\n      dup2\n      mstore\n        /* \"code_pool.sol\":3028:3037  mCodeInfo */\n      0x02\n        /* \"code_pool.sol\":3028:3047  mCodeInfo[codeHash] */\n      0x20\n      dup2\n      swap1\n      mstore\n      0x40\n      dup3\n      keccak256\n        /* \"code_pool.sol\":3021:3047  delete mCodeInfo[codeHash] */\n      dup1\n      sload\n      not(sub(shl(0xa0, 0x01), 0x01))\n      and\n      dup2\n      sstore\n      0x01\n      dup2\n      add\n      dup4\n      swap1\n      sstore\n      swap1\n      dup2\n      add\n      dup3\n      swap1\n      sstore\n      0x03\n      dup2\n      add\n      dup3\n      swap1\n      sstore\n      0x04\n      dup2\n      add\n      dup3\n      swap1\n      sstore\n      0x05\n      dup2\n      add\n      dup3\n      swap1\n      sstore\n      0x06\n      dup2\n      add\n      dup3\n      swap1\n      sstore\n      0x07\n      dup2\n      add\n      dup1\n      sload\n      not(sub(shl(0xa8, 0x01), 0x01))\n      and\n      swap1\n      sstore\n        /* \"code_pool.sol\":3028:3047  mCodeInfo[codeHash] */\n      swap1\n        /* \"code_pool.sol\":3021:3047  delete mCodeInfo[codeHash] */\n      tag_177\n      0x08\n      dup4\n      add\n        /* \"code_pool.sol\":3028:3047  mCodeInfo[codeHash] */\n      dup3\n        /* \"code_pool.sol\":3021:3047  delete mCodeInfo[codeHash] */\n      tag_178\n      jump\t// in\n    tag_177:\n      0x09\n      dup3\n      add\n      0x00\n      swap1\n      sstore\n      0x0a\n      dup3\n      add\n      0x00\n      swap1\n      sstore\n      0x0b\n      dup3\n      add\n      0x00\n      swap1\n      sstore\n      0x0c\n      dup3\n      add\n      0x00\n      swap1\n      sstore\n      0x0d\n      dup3\n      add\n      0x00\n      tag_179\n      swap2\n      swap1\n      tag_178\n      jump\t// in\n    tag_179:\n      tag_180\n      0x0e\n      dup4\n      add\n      0x00\n      tag_181\n      jump\t// in\n    tag_180:\n      pop\n        /* \"code_pool.sol\":3064:3068  true */\n      0x01\n      swap5\n        /* \"code_pool.sol\":2883:3075  function burnCode(... */\n      swap4\n      pop\n      pop\n      pop\n      pop\n      jump\t// out\n        /* \"code_pool.sol\":3081:3259  function getCodeInfo(... */\n    tag_49:\n        /* \"code_pool.sol\":3166:3177  Code memory */\n      tag_182\n      tag_138\n      jump\t// in\n    tag_182:\n        /* \"code_pool.sol\":3189:3216  _validateCodeHash(codeHash) */\n      tag_184\n        /* \"code_pool.sol\":3207:3215  codeHash */\n      dup3\n        /* \"code_pool.sol\":3189:3206  _validateCodeHash */\n      tag_125\n        /* \"code_pool.sol\":3189:3216  _validateCodeHash(codeHash) */\n      jump\t// in\n    tag_184:\n        /* \"code_pool.sol\":3233:3252  mCodeInfo[codeHash] */\n      0x00\n      dup3\n      dup2\n      mstore\n        /* \"code_pool.sol\":3233:3242  mCodeInfo */\n      0x02\n        /* \"code_pool.sol\":3233:3252  mCodeInfo[codeHash] */\n      0x20\n      dup2\n      dup2\n      mstore\n      0x40\n      swap3\n      dup4\n      swap1\n      keccak256\n        /* \"code_pool.sol\":3226:3252  return mCodeInfo[codeHash] */\n      dup4\n      mload\n      0x0200\n      dup2\n      add\n      dup6\n      mstore\n      dup2\n      sload\n      sub(shl(0xa0, 0x01), 0x01)\n      swap1\n      dup2\n      and\n      dup3\n      mstore\n      0x01\n      dup4\n      add\n      sload\n      swap4\n      dup3\n      add\n      swap4\n      swap1\n      swap4\n      mstore\n      swap3\n      dup2\n      add\n      sload\n      swap4\n      dup4\n      add\n      swap4\n      swap1\n      swap4\n      mstore\n      0x03\n      dup1\n      dup5\n      add\n      sload\n      0x60\n      dup5\n      add\n      mstore\n      0x04\n      dup5\n      add\n      sload\n      0x80\n      dup5\n      add\n      mstore\n      0x05\n      dup5\n      add\n      sload\n      0xa0\n      dup5\n      add\n      mstore\n      0x06\n      dup5\n      add\n      sload\n      0xc0\n      dup5\n      add\n      mstore\n      0x07\n      dup5\n      add\n      sload\n      swap2\n      dup3\n      and\n      0xe0\n      dup5\n      add\n      mstore\n      swap2\n      swap3\n        /* \"code_pool.sol\":3233:3252  mCodeInfo[codeHash] */\n      swap2\n        /* \"code_pool.sol\":3226:3252  return mCodeInfo[codeHash] */\n      0x0100\n      dup5\n      add\n      swap2\n      shl(0xa0, 0x01)\n      swap1\n      div\n      0xff\n      and\n      swap1\n      dup2\n      gt\n      iszero\n      tag_186\n      jumpi\n      tag_186\n      tag_128\n      jump\t// in\n    tag_186:\n      0x03\n      dup2\n      gt\n      iszero\n      tag_188\n      jumpi\n      tag_188\n      tag_128\n      jump\t// in\n    tag_188:\n      dup2\n      mstore\n      0x20\n      add\n      0x08\n      dup3\n      add\n      dup1\n      sload\n      tag_189\n      swap1\n      tag_151\n      jump\t// in\n    tag_189:\n      dup1\n      0x1f\n      add\n      0x20\n      dup1\n      swap2\n      div\n      mul\n      0x20\n      add\n      mload(0x40)\n      swap1\n      dup2\n      add\n      0x40\n      mstore\n      dup1\n      swap3\n      swap2\n      swap1\n      dup2\n      dup2\n      mstore\n      0x20\n      add\n      dup3\n      dup1\n      sload\n      tag_190\n      swap1\n      tag_151\n      jump\t// in\n    tag_190:\n      dup1\n      iszero\n      tag_191\n      jumpi\n      dup1\n      0x1f\n      lt\n      tag_192\n      jumpi\n      0x0100\n      dup1\n      dup4\n      sload\n      div\n      mul\n      dup4\n      mstore\n      swap2\n      0x20\n      add\n      swap2\n      jump(tag_191)\n    tag_192:\n      dup3\n      add\n      swap2\n      swap1\n      0x00\n      mstore\n      keccak256(0x00, 0x20)\n      swap1\n    tag_193:\n      dup2\n      sload\n      dup2\n      mstore\n      swap1\n      0x01\n      add\n      swap1\n      0x20\n      add\n      dup1\n      dup4\n      gt\n      tag_193\n      jumpi\n      dup3\n      swap1\n      sub\n      0x1f\n      and\n      dup3\n      add\n      swap2\n    tag_191:\n      pop\n      pop\n      pop\n      pop\n      pop\n      dup2\n      mstore\n      0x20\n      add\n      0x09\n      dup3\n      add\n      sload\n      dup2\n      mstore\n      0x20\n      add\n      0x0a\n      dup3\n      add\n      sload\n      dup2\n      mstore\n      0x20\n      add\n      0x0b\n      dup3\n      add\n      sload\n      dup2\n      mstore\n      0x20\n      add\n      0x0c\n      dup3\n      add\n      sload\n      dup2\n      mstore\n      0x20\n      add\n      0x0d\n      dup3\n      add\n      dup1\n      sload\n      tag_194\n      swap1\n      tag_151\n      jump\t// in\n    tag_194:\n      dup1\n      0x1f\n      add\n      0x20\n      dup1\n      swap2\n      div\n      mul\n      0x20\n      add\n      mload(0x40)\n      swap1\n      dup2\n      add\n      0x40\n      mstore\n      dup1\n      swap3\n      swap2\n      swap1\n      dup2\n      dup2\n      mstore\n      0x20\n      add\n      dup3\n      dup1\n      sload\n      tag_195\n      swap1\n      tag_151\n      jump\t// in\n    tag_195:\n      dup1\n      iszero\n      tag_196\n      jumpi\n      dup1\n      0x1f\n      lt\n      tag_197\n      jumpi\n      0x0100\n      dup1\n      dup4\n      sload\n      div\n      mul\n      dup4\n      mstore\n      swap2\n      0x20\n      add\n      swap2\n      jump(tag_196)\n    tag_197:\n      dup3\n      add\n      swap2\n      swap1\n      0x00\n      mstore\n      keccak256(0x00, 0x20)\n      swap1\n    tag_198:\n      dup2\n      sload\n      dup2\n      mstore\n      swap1\n      0x01\n      add\n      swap1\n      0x20\n      add\n      dup1\n      dup4\n      gt\n      tag_198\n      jumpi\n      dup3\n      swap1\n      sub\n      0x1f\n      and\n      dup3\n      add\n      swap2\n    tag_196:\n      pop\n      pop\n      pop\n      pop\n      pop\n      dup2\n      mstore\n      0x20\n      add\n      0x0e\n      dup3\n      add\n      dup1\n      sload\n      dup1\n      0x20\n      mul\n      0x20\n      add\n      mload(0x40)\n      swap1\n      dup2\n      add\n      0x40\n      mstore\n      dup1\n      swap3\n      swap2\n      swap1\n      dup2\n      dup2\n      mstore\n      0x20\n      add\n      0x00\n      swap1\n    tag_199:\n      dup3\n      dup3\n      lt\n      iszero\n      tag_200\n      jumpi\n      dup4\n      dup3\n      swap1\n      0x00\n      mstore\n      keccak256(0x00, 0x20)\n      add\n      dup1\n      sload\n      tag_202\n      swap1\n      tag_151\n      jump\t// in\n    tag_202:\n      dup1\n      0x1f\n      add\n      0x20\n      dup1\n      swap2\n      div\n      mul\n      0x20\n      add\n      mload(0x40)\n      swap1\n      dup2\n      add\n      0x40\n      mstore\n      dup1\n      swap3\n      swap2\n      swap1\n      dup2\n      dup2\n      mstore\n      0x20\n      add\n      dup3\n      dup1\n      sload\n      tag_203\n      swap1\n      tag_151\n      jump\t// in\n    tag_203:\n      dup1\n      iszero\n      tag_204\n      jumpi\n      dup1\n      0x1f\n      lt\n      tag_205\n      jumpi\n      0x0100\n      dup1\n      dup4\n      sload\n      div\n      mul\n      dup4\n      mstore\n      swap2\n      0x20\n      add\n      swap2\n      jump(tag_204)\n    tag_205:\n      dup3\n      add\n      swap2\n      swap1\n      0x00\n      mstore\n      keccak256(0x00, 0x20)\n      swap1\n    tag_206:\n      dup2\n      sload\n      dup2\n      mstore\n      swap1\n      0x01\n      add\n      swap1\n      0x20\n      add\n      dup1\n      dup4\n      gt\n      tag_206\n      jumpi\n      dup3\n      swap1\n      sub\n      0x1f\n      and\n      dup3\n      add\n      swap2\n    tag_204:\n      pop\n      pop\n      pop\n      pop\n      pop\n      dup2\n      mstore\n      0x20\n      add\n      swap1\n      0x01\n      add\n      swap1\n      jump(tag_199)\n    tag_200:\n      pop\n      pop\n      pop\n      swap2\n      mstore\n      pop\n      swap1\n      swap4\n        /* \"code_pool.sol\":3081:3259  function getCodeInfo(... */\n      swap3\n      pop\n      pop\n      pop\n      jump\t// out\n        /* \"code_pool.sol\":4108:4711  function blockCode(... */\n    tag_55:\n        /* \"code_pool.sol\":4238:4251  bool[] memory */\n      0x60\n      0x00\n      dup1\n      mload\n      0x20\n      data_be3e709ccfa493aa582ab5a8c394c6715fbafb2c07360d03c84529526f351da9\n      dup4\n      codecopy\n      dup2\n      mload\n      swap2\n      mstore\n        /* \"@openzeppelin/contracts@v4.9.0/access/AccessControl.sol\":2631:2647  _checkRole(role) */\n      tag_208\n        /* \"@openzeppelin/contracts@v4.9.0/access/AccessControl.sol\":2642:2646  role */\n      dup2\n        /* \"@openzeppelin/contracts@v4.9.0/access/AccessControl.sol\":2631:2641  _checkRole */\n      tag_122\n        /* \"@openzeppelin/contracts@v4.9.0/access/AccessControl.sol\":2631:2647  _checkRole(role) */\n      jump\t// in\n    tag_208:\n        /* \"code_pool.sol\":4263:4283  bool[] memory result */\n      0x00\n        /* \"code_pool.sol\":4297:4307  codeHashes */\n      dup4\n        /* \"code_pool.sol\":4297:4314  codeHashes.length */\n      mload\n      sub(shl(0x40, 0x01), 0x01)\n        /* \"code_pool.sol\":4286:4315  new bool[](codeHashes.length) */\n      dup2\n      gt\n      iszero\n      tag_211\n      jumpi\n      tag_211\n      tag_134\n      jump\t// in\n    tag_211:\n      mload(0x40)\n      swap1\n      dup1\n      dup3\n      mstore\n      dup1\n      0x20\n      mul\n      0x20\n      add\n      dup3\n      add\n      0x40\n      mstore\n      dup1\n      iszero\n      tag_212\n      jumpi\n      dup2\n      0x20\n      add\n      0x20\n      dup3\n      mul\n      dup1\n      calldatasize\n      dup4\n      calldatacopy\n      add\n      swap1\n      pop\n    tag_212:\n      pop\n        /* \"code_pool.sol\":4263:4315  bool[] memory result = new bool[](codeHashes.length) */\n      swap1\n      pop\n        /* \"code_pool.sol\":4330:4342  uint16 index */\n      0x00\n        /* \"code_pool.sol\":4325:4682  for (uint16 index = 0; index < codeHashes.length; index++) {... */\n    tag_213:\n        /* \"code_pool.sol\":4356:4366  codeHashes */\n      dup5\n        /* \"code_pool.sol\":4356:4373  codeHashes.length */\n      mload\n        /* \"code_pool.sol\":4348:4353  index */\n      dup2\n        /* \"code_pool.sol\":4348:4373  index < codeHashes.length */\n      0xffff\n      and\n      lt\n        /* \"code_pool.sol\":4325:4682  for (uint16 index = 0; index < codeHashes.length; index++) {... */\n      iszero\n      tag_214\n      jumpi\n        /* \"code_pool.sol\":4457:4463  caller */\n      dup6\n      sub(shl(0xa0, 0x01), 0x01)\n        /* \"code_pool.sol\":4419:4463  mCodeInfo[codeHashes[index]].owner == caller */\n      and\n        /* \"code_pool.sol\":4419:4428  mCodeInfo */\n      0x02\n        /* \"code_pool.sol\":4419:4447  mCodeInfo[codeHashes[index]] */\n      0x00\n        /* \"code_pool.sol\":4429:4439  codeHashes */\n      dup8\n        /* \"code_pool.sol\":4440:4445  index */\n      dup5\n        /* \"code_pool.sol\":4429:4446  codeHashes[index] */\n      0xffff\n      and\n      dup2\n      mload\n      dup2\n      lt\n      tag_217\n      jumpi\n      tag_217\n      tag_144\n      jump\t// in\n    tag_217:\n      0x20\n      swap1\n      dup2\n      mul\n      swap2\n      swap1\n      swap2\n      add\n      dup2\n      add\n      mload\n        /* \"code_pool.sol\":4419:4447  mCodeInfo[codeHashes[index]] */\n      dup3\n      mstore\n      dup2\n      add\n      swap2\n      swap1\n      swap2\n      mstore\n      0x40\n      add\n      0x00\n      keccak256\n        /* \"code_pool.sol\":4419:4453  mCodeInfo[codeHashes[index]].owner */\n      sload\n      sub(shl(0xa0, 0x01), 0x01)\n      and\n        /* \"code_pool.sol\":4419:4463  mCodeInfo[codeHashes[index]].owner == caller */\n      eq\n        /* \"code_pool.sol\":4419:4536  mCodeInfo[codeHashes[index]].owner == caller &&... */\n      dup1\n      iszero\n      tag_218\n      jumpi\n      pop\n        /* \"code_pool.sol\":4522:4536  Status.Unblock */\n      0x01\n        /* \"code_pool.sol\":4483:4492  mCodeInfo */\n      0x02\n        /* \"code_pool.sol\":4483:4511  mCodeInfo[codeHashes[index]] */\n      0x00\n        /* \"code_pool.sol\":4493:4503  codeHashes */\n      dup8\n        /* \"code_pool.sol\":4504:4509  index */\n      dup5\n        /* \"code_pool.sol\":4493:4510  codeHashes[index] */\n      0xffff\n      and\n      dup2\n      mload\n      dup2\n      lt\n      tag_222\n      jumpi\n      tag_222\n      tag_144\n      jump\t// in\n    tag_222:\n      0x20\n      mul\n      0x20\n      add\n      add\n      mload\n        /* \"code_pool.sol\":4483:4511  mCodeInfo[codeHashes[index]] */\n      dup2\n      mstore\n      0x20\n      add\n      swap1\n      dup2\n      mstore\n      0x20\n      add\n      0x00\n      keccak256\n        /* \"code_pool.sol\":4483:4518  mCodeInfo[codeHashes[index]].status */\n      0x07\n      add\n      0x14\n      swap1\n      sload\n      swap1\n      0x0100\n      exp\n      swap1\n      div\n      0xff\n      and\n        /* \"code_pool.sol\":4483:4536  mCodeInfo[codeHashes[index]].status == Status.Unblock */\n      0x03\n      dup2\n      gt\n      iszero\n      tag_224\n      jumpi\n      tag_224\n      tag_128\n      jump\t// in\n    tag_224:\n      eq\n        /* \"code_pool.sol\":4419:4536  mCodeInfo[codeHashes[index]].owner == caller &&... */\n    tag_218:\n        /* \"code_pool.sol\":4398:4672  if (... */\n      iszero\n      tag_225\n      jumpi\n        /* \"code_pool.sol\":4607:4619  Status.Block */\n      0x00\n        /* \"code_pool.sol\":4569:4578  mCodeInfo */\n      0x02\n        /* \"code_pool.sol\":4569:4597  mCodeInfo[codeHashes[index]] */\n      0x00\n        /* \"code_pool.sol\":4579:4589  codeHashes */\n      dup8\n        /* \"code_pool.sol\":4590:4595  index */\n      dup5\n        /* \"code_pool.sol\":4579:4596  codeHashes[index] */\n      0xffff\n      and\n      dup2\n      mload\n      dup2\n      lt\n      tag_227\n      jumpi\n      tag_227\n      tag_144\n      jump\t// in\n    tag_227:\n      0x20\n      mul\n      0x20\n      add\n      add\n      mload\n        /* \"code_pool.sol\":4569:4597  mCodeInfo[codeHashes[index]] */\n      dup2\n      mstore\n      0x20\n      add\n      swap1\n      dup2\n      mstore\n      0x20\n      add\n      0x00\n      keccak256\n        /* \"code_pool.sol\":4569:4604  mCodeInfo[codeHashes[index]].status */\n      0x07\n      add\n      0x14\n        /* \"code_pool.sol\":4569:4619  mCodeInfo[codeHashes[index]].status = Status.Block */\n      0x0100\n      exp\n      dup2\n      sload\n      dup2\n      0xff\n      mul\n      not\n      and\n      swap1\n      dup4\n      0x03\n      dup2\n      gt\n      iszero\n      tag_229\n      jumpi\n      tag_229\n      tag_128\n      jump\t// in\n    tag_229:\n      mul\n      or\n      swap1\n      sstore\n      pop\n        /* \"code_pool.sol\":4653:4657  true */\n      0x01\n        /* \"code_pool.sol\":4637:4643  result */\n      dup3\n        /* \"code_pool.sol\":4644:4649  index */\n      dup3\n        /* \"code_pool.sol\":4637:4650  result[index] */\n      0xffff\n      and\n      dup2\n      mload\n      dup2\n      lt\n      tag_231\n      jumpi\n      tag_231\n      tag_144\n      jump\t// in\n    tag_231:\n        /* \"code_pool.sol\":4637:4657  result[index] = true */\n      swap2\n      iszero\n      iszero\n        /* \"code_pool.sol\":4637:4650  result[index] */\n      0x20\n      swap3\n      dup4\n      mul\n      swap2\n      swap1\n      swap2\n      add\n      swap1\n      swap2\n      add\n        /* \"code_pool.sol\":4637:4657  result[index] = true */\n      mstore\n        /* \"code_pool.sol\":4398:4672  if (... */\n    tag_225:\n        /* \"code_pool.sol\":4375:4382  index++ */\n      dup1\n      tag_232\n      dup2\n      tag_233\n      jump\t// in\n    tag_232:\n      swap2\n      pop\n      pop\n        /* \"code_pool.sol\":4325:4682  for (uint16 index = 0; index < codeHashes.length; index++) {... */\n      jump(tag_213)\n    tag_214:\n      pop\n        /* \"code_pool.sol\":4698:4704  result */\n      swap5\n        /* \"code_pool.sol\":4108:4711  function blockCode(... */\n      swap4\n      pop\n      pop\n      pop\n      pop\n      jump\t// out\n        /* \"code_pool.sol\":626:841  function grantRole(... */\n    tag_66:\n        /* \"@openzeppelin/contracts@v4.9.0/access/AccessControl.sol\":4578:4585  bytes32 */\n      0x00\n        /* \"@openzeppelin/contracts@v4.9.0/access/AccessControl.sol\":4604:4616  _roles[role] */\n      dup3\n      dup2\n      mstore\n      0x20\n      dup2\n      swap1\n      mstore\n      0x40\n      swap1\n      keccak256\n        /* \"@openzeppelin/contracts@v4.9.0/access/AccessControl.sol\":4604:4626  _roles[role].adminRole */\n      0x01\n      add\n      sload\n        /* \"@openzeppelin/contracts@v4.9.0/access/AccessControl.sol\":2631:2647  _checkRole(role) */\n      tag_237\n        /* \"@openzeppelin/contracts@v4.9.0/access/AccessControl.sol\":2642:2646  role */\n      dup2\n        /* \"@openzeppelin/contracts@v4.9.0/access/AccessControl.sol\":2631:2641  _checkRole */\n      tag_122\n        /* \"@openzeppelin/contracts@v4.9.0/access/AccessControl.sol\":2631:2647  _checkRole(role) */\n      jump\t// in\n    tag_237:\n        /* \"code_pool.sol\":761:792  super._grantRole(role, account) */\n      tag_239\n        /* \"code_pool.sol\":778:782  role */\n      dup4\n        /* \"code_pool.sol\":784:791  account */\n      dup4\n        /* \"code_pool.sol\":761:777  super._grantRole */\n      tag_240\n        /* \"code_pool.sol\":761:792  super._grantRole(role, account) */\n      jump\t// in\n    tag_239:\n      pop\n        /* \"code_pool.sol\":802:820  mRoleArrList[role] */\n      0x00\n      swap2\n      dup3\n      mstore\n        /* \"code_pool.sol\":802:814  mRoleArrList */\n      0x01\n        /* \"code_pool.sol\":802:820  mRoleArrList[role] */\n      0x20\n      dup2\n      dup2\n      mstore\n      0x40\n      dup5\n      keccak256\n        /* \"code_pool.sol\":802:834  mRoleArrList[role].push(account) */\n      dup1\n      sload\n      swap3\n      dup4\n      add\n      dup2\n      sstore\n      dup5\n      mstore\n      swap1\n      swap3\n      keccak256\n      swap1\n      swap2\n      add\n      dup1\n      sload\n      not(sub(shl(0xa0, 0x01), 0x01))\n      and\n      sub(shl(0xa0, 0x01), 0x01)\n      swap1\n      swap3\n      and\n      swap2\n      swap1\n      swap2\n      or\n      swap1\n      sstore\n        /* \"code_pool.sol\":626:841  function grantRole(... */\n      jump\t// out\n        /* \"@openzeppelin/contracts@v4.9.0/access/AccessControl.sol\":6038:6252  function renounceRole(bytes32 role, address account) public virtual override {... */\n    tag_69:\n      sub(shl(0xa0, 0x01), 0x01)\n        /* \"@openzeppelin/contracts@v4.9.0/access/AccessControl.sol\":6133:6156  account == _msgSender() */\n      dup2\n      and\n        /* \"@openzeppelin/contracts@v4.9.0/utils/Context.sol\":719:729  msg.sender */\n      caller\n        /* \"@openzeppelin/contracts@v4.9.0/access/AccessControl.sol\":6133:6156  account == _msgSender() */\n      eq\n        /* \"@openzeppelin/contracts@v4.9.0/access/AccessControl.sol\":6125:6208  require(account == _msgSender(), \"AccessControl: can only renounce roles for self\") */\n      tag_245\n      jumpi\n      mload(0x40)\n      shl(0xe5, 0x461bcd)\n      dup2\n      mstore\n        /* \"#utility.yul\":15266:15268   */\n      0x20\n        /* \"@openzeppelin/contracts@v4.9.0/access/AccessControl.sol\":6125:6208  require(account == _msgSender(), \"AccessControl: can only renounce roles for self\") */\n      0x04\n      dup3\n      add\n        /* \"#utility.yul\":15248:15269   */\n      mstore\n        /* \"#utility.yul\":15305:15307   */\n      0x2f\n        /* \"#utility.yul\":15285:15303   */\n      0x24\n      dup3\n      add\n        /* \"#utility.yul\":15278:15308   */\n      mstore\n        /* \"#utility.yul\":15344:15378   */\n      0x416363657373436f6e74726f6c3a2063616e206f6e6c792072656e6f756e6365\n        /* \"#utility.yul\":15324:15342   */\n      0x44\n      dup3\n      add\n        /* \"#utility.yul\":15317:15379   */\n      mstore\n      shl(0x89, 0x103937b632b9903337b91039b2b633)\n        /* \"#utility.yul\":15395:15413   */\n      0x64\n      dup3\n      add\n        /* \"#utility.yul\":15388:15433   */\n      mstore\n        /* \"#utility.yul\":15450:15469   */\n      0x84\n      add\n        /* \"@openzeppelin/contracts@v4.9.0/access/AccessControl.sol\":6125:6208  require(account == _msgSender(), \"AccessControl: can only renounce roles for self\") */\n    tag_246:\n      mload(0x40)\n      dup1\n      swap2\n      sub\n      swap1\n      revert\n    tag_245:\n        /* \"@openzeppelin/contracts@v4.9.0/access/AccessControl.sol\":6219:6245  _revokeRole(role, account) */\n      tag_248\n        /* \"@openzeppelin/contracts@v4.9.0/access/AccessControl.sol\":6231:6235  role */\n      dup3\n        /* \"@openzeppelin/contracts@v4.9.0/access/AccessControl.sol\":6237:6244  account */\n      dup3\n        /* \"@openzeppelin/contracts@v4.9.0/access/AccessControl.sol\":6219:6230  _revokeRole */\n      tag_249\n        /* \"@openzeppelin/contracts@v4.9.0/access/AccessControl.sol\":6219:6245  _revokeRole(role, account) */\n      jump\t// in\n    tag_248:\n        /* \"@openzeppelin/contracts@v4.9.0/access/AccessControl.sol\":6038:6252  function renounceRole(bytes32 role, address account) public virtual override {... */\n      pop\n      pop\n      jump\t// out\n        /* \"code_pool.sol\":5561:6310  function setCodeLockTime(... */\n    tag_73:\n        /* \"code_pool.sol\":5741:5745  bool */\n      0x00\n      0x00\n      dup1\n      mload\n      0x20\n      data_be3e709ccfa493aa582ab5a8c394c6715fbafb2c07360d03c84529526f351da9\n      dup4\n      codecopy\n      dup2\n      mload\n      swap2\n      mstore\n        /* \"@openzeppelin/contracts@v4.9.0/access/AccessControl.sol\":2631:2647  _checkRole(role) */\n      tag_251\n        /* \"@openzeppelin/contracts@v4.9.0/access/AccessControl.sol\":2642:2646  role */\n      dup2\n        /* \"@openzeppelin/contracts@v4.9.0/access/AccessControl.sol\":2631:2641  _checkRole */\n      tag_122\n        /* \"@openzeppelin/contracts@v4.9.0/access/AccessControl.sol\":2631:2647  _checkRole(role) */\n      jump\t// in\n    tag_251:\n        /* \"code_pool.sol\":5779:5794  block.timestamp */\n      timestamp\n        /* \"code_pool.sol\":5765:5776  newLockTime */\n      dup5\n        /* \"code_pool.sol\":5765:5794  newLockTime > block.timestamp */\n      gt\n        /* \"code_pool.sol\":5757:5826  require(newLockTime > block.timestamp, \"PoolCode: Invalid Lock Time\") */\n      tag_253\n      jumpi\n      mload(0x40)\n      shl(0xe5, 0x461bcd)\n      dup2\n      mstore\n        /* \"#utility.yul\":15682:15684   */\n      0x20\n        /* \"code_pool.sol\":5757:5826  require(newLockTime > block.timestamp, \"PoolCode: Invalid Lock Time\") */\n      0x04\n      dup3\n      add\n        /* \"#utility.yul\":15664:15685   */\n      mstore\n        /* \"#utility.yul\":15721:15723   */\n      0x1b\n        /* \"#utility.yul\":15701:15719   */\n      0x24\n      dup3\n      add\n        /* \"#utility.yul\":15694:15724   */\n      mstore\n        /* \"#utility.yul\":15760:15789   */\n      0x506f6f6c436f64653a20496e76616c6964204c6f636b2054696d650000000000\n        /* \"#utility.yul\":15740:15758   */\n      0x44\n      dup3\n      add\n        /* \"#utility.yul\":15733:15790   */\n      mstore\n        /* \"#utility.yul\":15807:15825   */\n      0x64\n      add\n        /* \"code_pool.sol\":5757:5826  require(newLockTime > block.timestamp, \"PoolCode: Invalid Lock Time\") */\n      tag_246\n        /* \"#utility.yul\":15480:15831   */\n      jump\n        /* \"code_pool.sol\":5757:5826  require(newLockTime > block.timestamp, \"PoolCode: Invalid Lock Time\") */\n    tag_253:\n        /* \"code_pool.sol\":5876:5895  mCodeInfo[codeHash] */\n      0x00\n      dup6\n      dup2\n      mstore\n        /* \"code_pool.sol\":5876:5885  mCodeInfo */\n      0x02\n        /* \"code_pool.sol\":5876:5895  mCodeInfo[codeHash] */\n      0x20\n      mstore\n      0x40\n      swap1\n      keccak256\n        /* \"code_pool.sol\":5876:5904  mCodeInfo[codeHash].lockTime */\n      0x0b\n      add\n      sload\n        /* \"code_pool.sol\":5857:5872  block.timestamp */\n      timestamp\n        /* \"code_pool.sol\":5857:5904  block.timestamp >= mCodeInfo[codeHash].lockTime */\n      lt\n      iszero\n        /* \"code_pool.sol\":5836:5950  require(... */\n      tag_256\n      jumpi\n      mload(0x40)\n      shl(0xe5, 0x461bcd)\n      dup2\n      mstore\n        /* \"#utility.yul\":16038:16040   */\n      0x20\n        /* \"code_pool.sol\":5836:5950  require(... */\n      0x04\n      dup3\n      add\n        /* \"#utility.yul\":16020:16041   */\n      mstore\n        /* \"#utility.yul\":16077:16079   */\n      0x14\n        /* \"#utility.yul\":16057:16075   */\n      0x24\n      dup3\n      add\n        /* \"#utility.yul\":16050:16080   */\n      mstore\n      shl(0x60, 0x506f6f6c436f64653a205374696c6c204c6f636b)\n        /* \"#utility.yul\":16096:16114   */\n      0x44\n      dup3\n      add\n        /* \"#utility.yul\":16089:16139   */\n      mstore\n        /* \"#utility.yul\":16156:16174   */\n      0x64\n      add\n        /* \"code_pool.sol\":5836:5950  require(... */\n      tag_246\n        /* \"#utility.yul\":15836:16180   */\n      jump\n        /* \"code_pool.sol\":5836:5950  require(... */\n    tag_256:\n        /* \"code_pool.sol\":5980:5983  100 */\n      0x64\n        /* \"code_pool.sol\":5968:5976  lockRate */\n      dup4\n        /* \"code_pool.sol\":5968:5983  lockRate <= 100 */\n      gt\n      iszero\n        /* \"code_pool.sol\":5960:6015  require(lockRate <= 100, \"PoolCode: Invalid Lock Rate\") */\n      tag_259\n      jumpi\n      mload(0x40)\n      shl(0xe5, 0x461bcd)\n      dup2\n      mstore\n        /* \"#utility.yul\":16387:16389   */\n      0x20\n        /* \"code_pool.sol\":5960:6015  require(lockRate <= 100, \"PoolCode: Invalid Lock Rate\") */\n      0x04\n      dup3\n      add\n        /* \"#utility.yul\":16369:16390   */\n      mstore\n        /* \"#utility.yul\":16426:16428   */\n      0x1b\n        /* \"#utility.yul\":16406:16424   */\n      0x24\n      dup3\n      add\n        /* \"#utility.yul\":16399:16429   */\n      mstore\n        /* \"#utility.yul\":16465:16494   */\n      0x506f6f6c436f64653a20496e76616c6964204c6f636b20526174650000000000\n        /* \"#utility.yul\":16445:16463   */\n      0x44\n      dup3\n      add\n        /* \"#utility.yul\":16438:16495   */\n      mstore\n        /* \"#utility.yul\":16512:16530   */\n      0x64\n      add\n        /* \"code_pool.sol\":5960:6015  require(lockRate <= 100, \"PoolCode: Invalid Lock Rate\") */\n      tag_246\n        /* \"#utility.yul\":16185:16536   */\n      jump\n        /* \"code_pool.sol\":5960:6015  require(lockRate <= 100, \"PoolCode: Invalid Lock Rate\") */\n    tag_259:\n        /* \"code_pool.sol\":6046:6065  mCodeInfo[codeHash] */\n      0x00\n      dup6\n      dup2\n      mstore\n        /* \"code_pool.sol\":6046:6055  mCodeInfo */\n      0x02\n        /* \"code_pool.sol\":6046:6065  mCodeInfo[codeHash] */\n      0x20\n      mstore\n      0x40\n      swap1\n      keccak256\n        /* \"code_pool.sol\":6046:6071  mCodeInfo[codeHash].owner */\n      sload\n      sub(shl(0xa0, 0x01), 0x01)\n        /* \"code_pool.sol\":6046:6081  mCodeInfo[codeHash].owner == caller */\n      dup8\n      dup2\n      and\n        /* \"code_pool.sol\":6046:6071  mCodeInfo[codeHash].owner */\n      swap2\n      and\n        /* \"code_pool.sol\":6046:6081  mCodeInfo[codeHash].owner == caller */\n      eq\n        /* \"code_pool.sol\":6025:6166  require(... */\n      tag_262\n      jumpi\n      mload(0x40)\n      shl(0xe5, 0x461bcd)\n      dup2\n      mstore\n        /* \"#utility.yul\":16743:16745   */\n      0x20\n        /* \"code_pool.sol\":6025:6166  require(... */\n      0x04\n      dup3\n      add\n        /* \"#utility.yul\":16725:16746   */\n      mstore\n        /* \"#utility.yul\":16782:16784   */\n      0x18\n        /* \"#utility.yul\":16762:16780   */\n      0x24\n      dup3\n      add\n        /* \"#utility.yul\":16755:16785   */\n      mstore\n        /* \"#utility.yul\":16821:16847   */\n      0x506f6f6c436f64653a204e6f7420436f6465204f776e65720000000000000000\n        /* \"#utility.yul\":16801:16819   */\n      0x44\n      dup3\n      add\n        /* \"#utility.yul\":16794:16848   */\n      mstore\n        /* \"#utility.yul\":16865:16883   */\n      0x64\n      add\n        /* \"code_pool.sol\":6025:6166  require(... */\n      tag_246\n        /* \"#utility.yul\":16541:16889   */\n      jump\n        /* \"code_pool.sol\":6025:6166  require(... */\n    tag_262:\n        /* \"code_pool.sol\":6176:6195  mCodeInfo[codeHash] */\n      0x00\n      dup6\n      dup2\n      mstore\n        /* \"code_pool.sol\":6176:6185  mCodeInfo */\n      0x02\n        /* \"code_pool.sol\":6176:6195  mCodeInfo[codeHash] */\n      0x20\n      mstore\n      0x40\n      swap1\n      keccak256\n        /* \"code_pool.sol\":6176:6204  mCodeInfo[codeHash].lockTime */\n      0x0b\n      add\n        /* \"code_pool.sol\":6176:6218  mCodeInfo[codeHash].lockTime = newLockTime */\n      dup5\n      swap1\n      sstore\n        /* \"code_pool.sol\":6268:6282  100 - lockRate */\n      tag_265\n        /* \"code_pool.sol\":6274:6282  lockRate */\n      dup4\n        /* \"code_pool.sol\":6268:6271  100 */\n      0x64\n        /* \"code_pool.sol\":6268:6282  100 - lockRate */\n      tag_266\n      jump\t// in\n    tag_265:\n        /* \"code_pool.sol\":6228:6247  mCodeInfo[codeHash] */\n      0x00\n      dup7\n      dup2\n      mstore\n        /* \"code_pool.sol\":6228:6237  mCodeInfo */\n      0x02\n        /* \"code_pool.sol\":6228:6247  mCodeInfo[codeHash] */\n      0x20\n      mstore\n      0x40\n      swap1\n      keccak256\n        /* \"code_pool.sol\":6228:6265  mCodeInfo[codeHash].releasePercentage */\n      0x0a\n      add\n        /* \"code_pool.sol\":6228:6282  mCodeInfo[codeHash].releasePercentage = 100 - lockRate */\n      sstore\n        /* \"code_pool.sol\":6299:6303  true */\n      0x01\n      swap2\n      pop\n        /* \"code_pool.sol\":5561:6310  function setCodeLockTime(... */\n      pop\n      swap5\n      swap4\n      pop\n      pop\n      pop\n      pop\n      jump\t// out\n        /* \"code_pool.sol\":6316:6961  function updateCodeWalletKey(... */\n    tag_78:\n        /* \"code_pool.sol\":6505:6509  bool */\n      0x00\n      0x00\n      dup1\n      mload\n      0x20\n      data_be3e709ccfa493aa582ab5a8c394c6715fbafb2c07360d03c84529526f351da9\n      dup4\n      codecopy\n      dup2\n      mload\n      swap2\n      mstore\n        /* \"@openzeppelin/contracts@v4.9.0/access/AccessControl.sol\":2631:2647  _checkRole(role) */\n      tag_268\n        /* \"@openzeppelin/contracts@v4.9.0/access/AccessControl.sol\":2642:2646  role */\n      dup2\n        /* \"@openzeppelin/contracts@v4.9.0/access/AccessControl.sol\":2631:2641  _checkRole */\n      tag_122\n        /* \"@openzeppelin/contracts@v4.9.0/access/AccessControl.sol\":2631:2647  _checkRole(role) */\n      jump\t// in\n    tag_268:\n        /* \"code_pool.sol\":6542:6561  mCodeInfo[codeHash] */\n      0x00\n      dup7\n      dup2\n      mstore\n        /* \"code_pool.sol\":6542:6551  mCodeInfo */\n      0x02\n        /* \"code_pool.sol\":6542:6561  mCodeInfo[codeHash] */\n      0x20\n      mstore\n      0x40\n      swap1\n      keccak256\n        /* \"code_pool.sol\":6542:6567  mCodeInfo[codeHash].owner */\n      sload\n      sub(shl(0xa0, 0x01), 0x01)\n        /* \"code_pool.sol\":6542:6577  mCodeInfo[codeHash].owner == caller */\n      dup9\n      dup2\n      and\n        /* \"code_pool.sol\":6542:6567  mCodeInfo[codeHash].owner */\n      swap2\n      and\n        /* \"code_pool.sol\":6542:6577  mCodeInfo[codeHash].owner == caller */\n      eq\n        /* \"code_pool.sol\":6521:6631  require(... */\n      tag_270\n      jumpi\n      mload(0x40)\n      shl(0xe5, 0x461bcd)\n      dup2\n      mstore\n        /* \"#utility.yul\":17229:17231   */\n      0x20\n        /* \"code_pool.sol\":6521:6631  require(... */\n      0x04\n      dup3\n      add\n        /* \"#utility.yul\":17211:17232   */\n      mstore\n        /* \"#utility.yul\":17268:17270   */\n      0x1c\n        /* \"#utility.yul\":17248:17266   */\n      0x24\n      dup3\n      add\n        /* \"#utility.yul\":17241:17271   */\n      mstore\n        /* \"#utility.yul\":17307:17337   */\n      0x506f6f6c436f64653a20496e76616c69642057616c6c6574204b657900000000\n        /* \"#utility.yul\":17287:17305   */\n      0x44\n      dup3\n      add\n        /* \"#utility.yul\":17280:17338   */\n      mstore\n        /* \"#utility.yul\":17355:17373   */\n      0x64\n      add\n        /* \"code_pool.sol\":6521:6631  require(... */\n      tag_246\n        /* \"#utility.yul\":17027:17379   */\n      jump\n        /* \"code_pool.sol\":6521:6631  require(... */\n    tag_270:\n        /* \"code_pool.sol\":6684:6685  0 */\n      0x00\n        /* \"code_pool.sol\":6645:6664  mCodeInfo[codeHash] */\n      dup7\n      dup2\n      mstore\n        /* \"code_pool.sol\":6645:6654  mCodeInfo */\n      0x02\n        /* \"code_pool.sol\":6645:6664  mCodeInfo[codeHash] */\n      0x20\n      mstore\n      0x40\n      swap1\n      keccak256\n        /* \"code_pool.sol\":6645:6672  mCodeInfo[codeHash].keyHash */\n      0x0c\n      add\n      sload\n        /* \"code_pool.sol\":6645:6686  mCodeInfo[codeHash].keyHash != bytes32(0) */\n      iszero\n        /* \"code_pool.sol\":6641:6884  if (mCodeInfo[codeHash].keyHash != bytes32(0)) {... */\n      tag_276\n      jumpi\n        /* \"code_pool.sol\":6805:6811  rawKey */\n      dup5\n      dup5\n        /* \"code_pool.sol\":6788:6812  abi.encodePacked(rawKey) */\n      add(0x20, mload(0x40))\n      tag_274\n      swap3\n      swap2\n      swap1\n      tag_275\n      jump\t// in\n    tag_274:\n      0x40\n      dup1\n      mload\n      not(0x1f)\n      dup2\n      dup5\n      sub\n      add\n      dup2\n      mstore\n      swap2\n      dup2\n      mstore\n        /* \"code_pool.sol\":6778:6813  keccak256(abi.encodePacked(rawKey)) */\n      dup2\n      mload\n        /* \"code_pool.sol\":6788:6812  abi.encodePacked(rawKey) */\n      0x20\n        /* \"code_pool.sol\":6778:6813  keccak256(abi.encodePacked(rawKey)) */\n      swap3\n      dup4\n      add\n      keccak256\n        /* \"code_pool.sol\":6727:6746  mCodeInfo[codeHash] */\n      0x00\n      dup10\n      dup2\n      mstore\n        /* \"code_pool.sol\":6727:6736  mCodeInfo */\n      0x02\n        /* \"code_pool.sol\":6727:6746  mCodeInfo[codeHash] */\n      swap1\n      swap4\n      mstore\n      swap2\n      keccak256\n        /* \"code_pool.sol\":6727:6754  mCodeInfo[codeHash].keyHash */\n      0x0c\n      add\n      sload\n        /* \"code_pool.sol\":6727:6813  mCodeInfo[codeHash].keyHash ==... */\n      eq\n        /* \"code_pool.sol\":6702:6873  require(... */\n      tag_276\n      jumpi\n      mload(0x40)\n      shl(0xe5, 0x461bcd)\n      dup2\n      mstore\n        /* \"#utility.yul\":17864:17866   */\n      0x20\n        /* \"code_pool.sol\":6702:6873  require(... */\n      0x04\n      dup3\n      add\n        /* \"#utility.yul\":17846:17867   */\n      mstore\n        /* \"#utility.yul\":17903:17905   */\n      0x1a\n        /* \"#utility.yul\":17883:17901   */\n      0x24\n      dup3\n      add\n        /* \"#utility.yul\":17876:17906   */\n      mstore\n        /* \"#utility.yul\":17942:17970   */\n      0x506f6f6c436f64653a20496e76616c6964206b65792068617368000000000000\n        /* \"#utility.yul\":17922:17940   */\n      0x44\n      dup3\n      add\n        /* \"#utility.yul\":17915:17971   */\n      mstore\n        /* \"#utility.yul\":17988:18006   */\n      0x64\n      add\n        /* \"code_pool.sol\":6702:6873  require(... */\n      tag_246\n        /* \"#utility.yul\":17662:18012   */\n      jump\n        /* \"code_pool.sol\":6702:6873  require(... */\n    tag_276:\n      pop\n      pop\n        /* \"code_pool.sol\":6893:6912  mCodeInfo[codeHash] */\n      0x00\n      swap4\n      dup5\n      mstore\n        /* \"code_pool.sol\":6893:6902  mCodeInfo */\n      0x02\n        /* \"code_pool.sol\":6893:6912  mCodeInfo[codeHash] */\n      0x20\n      mstore\n      0x40\n      swap1\n      swap4\n      keccak256\n        /* \"code_pool.sol\":6893:6920  mCodeInfo[codeHash].keyHash */\n      0x0c\n      add\n        /* \"code_pool.sol\":6893:6933  mCodeInfo[codeHash].keyHash = newKeyHash */\n      swap3\n      swap1\n      swap3\n      sstore\n      pop\n        /* \"code_pool.sol\":6950:6954  true */\n      0x01\n      swap3\n        /* \"code_pool.sol\":6316:6961  function updateCodeWalletKey(... */\n      swap2\n      pop\n      pop\n      jump\t// out\n        /* \"code_pool.sol\":6967:7481  function unlockCodeWalletKey(... */\n    tag_83:\n        /* \"code_pool.sol\":7128:7132  bool */\n      0x00\n      0x00\n      dup1\n      mload\n      0x20\n      data_be3e709ccfa493aa582ab5a8c394c6715fbafb2c07360d03c84529526f351da9\n      dup4\n      codecopy\n      dup2\n      mload\n      swap2\n      mstore\n        /* \"@openzeppelin/contracts@v4.9.0/access/AccessControl.sol\":2631:2647  _checkRole(role) */\n      tag_280\n        /* \"@openzeppelin/contracts@v4.9.0/access/AccessControl.sol\":2642:2646  role */\n      dup2\n        /* \"@openzeppelin/contracts@v4.9.0/access/AccessControl.sol\":2631:2641  _checkRole */\n      tag_122\n        /* \"@openzeppelin/contracts@v4.9.0/access/AccessControl.sol\":2631:2647  _checkRole(role) */\n      jump\t// in\n    tag_280:\n        /* \"code_pool.sol\":7165:7184  mCodeInfo[codeHash] */\n      0x00\n      dup6\n      dup2\n      mstore\n        /* \"code_pool.sol\":7165:7174  mCodeInfo */\n      0x02\n        /* \"code_pool.sol\":7165:7184  mCodeInfo[codeHash] */\n      0x20\n      mstore\n      0x40\n      swap1\n      keccak256\n        /* \"code_pool.sol\":7165:7190  mCodeInfo[codeHash].owner */\n      sload\n      sub(shl(0xa0, 0x01), 0x01)\n        /* \"code_pool.sol\":7165:7200  mCodeInfo[codeHash].owner == caller */\n      dup8\n      dup2\n      and\n        /* \"code_pool.sol\":7165:7190  mCodeInfo[codeHash].owner */\n      swap2\n      and\n        /* \"code_pool.sol\":7165:7200  mCodeInfo[codeHash].owner == caller */\n      eq\n        /* \"code_pool.sol\":7144:7254  require(... */\n      tag_282\n      jumpi\n      mload(0x40)\n      shl(0xe5, 0x461bcd)\n      dup2\n      mstore\n        /* \"#utility.yul\":17229:17231   */\n      0x20\n        /* \"code_pool.sol\":7144:7254  require(... */\n      0x04\n      dup3\n      add\n        /* \"#utility.yul\":17211:17232   */\n      mstore\n        /* \"#utility.yul\":17268:17270   */\n      0x1c\n        /* \"#utility.yul\":17248:17266   */\n      0x24\n      dup3\n      add\n        /* \"#utility.yul\":17241:17271   */\n      mstore\n        /* \"#utility.yul\":17307:17337   */\n      0x506f6f6c436f64653a20496e76616c69642057616c6c6574204b657900000000\n        /* \"#utility.yul\":17287:17305   */\n      0x44\n      dup3\n      add\n        /* \"#utility.yul\":17280:17338   */\n      mstore\n        /* \"#utility.yul\":17355:17373   */\n      0x64\n      add\n        /* \"code_pool.sol\":7144:7254  require(... */\n      tag_246\n        /* \"#utility.yul\":17027:17379   */\n      jump\n        /* \"code_pool.sol\":7144:7254  require(... */\n    tag_282:\n        /* \"code_pool.sol\":7343:7349  rawKey */\n      dup4\n      dup4\n        /* \"code_pool.sol\":7326:7350  abi.encodePacked(rawKey) */\n      add(0x20, mload(0x40))\n      tag_284\n      swap3\n      swap2\n      swap1\n      tag_275\n      jump\t// in\n    tag_284:\n      0x40\n      dup1\n      mload\n      not(0x1f)\n      dup2\n      dup5\n      sub\n      add\n      dup2\n      mstore\n      swap2\n      dup2\n      mstore\n        /* \"code_pool.sol\":7316:7351  keccak256(abi.encodePacked(rawKey)) */\n      dup2\n      mload\n        /* \"code_pool.sol\":7326:7350  abi.encodePacked(rawKey) */\n      0x20\n        /* \"code_pool.sol\":7316:7351  keccak256(abi.encodePacked(rawKey)) */\n      swap3\n      dup4\n      add\n      keccak256\n        /* \"code_pool.sol\":7285:7304  mCodeInfo[codeHash] */\n      0x00\n      dup9\n      dup2\n      mstore\n        /* \"code_pool.sol\":7285:7294  mCodeInfo */\n      0x02\n        /* \"code_pool.sol\":7285:7304  mCodeInfo[codeHash] */\n      swap1\n      swap4\n      mstore\n      swap2\n      keccak256\n        /* \"code_pool.sol\":7285:7312  mCodeInfo[codeHash].keyHash */\n      0x0c\n      add\n      sload\n        /* \"code_pool.sol\":7285:7351  mCodeInfo[codeHash].keyHash == keccak256(abi.encodePacked(rawKey)) */\n      eq\n        /* \"code_pool.sol\":7264:7403  require(... */\n      tag_285\n      jumpi\n      mload(0x40)\n      shl(0xe5, 0x461bcd)\n      dup2\n      mstore\n        /* \"#utility.yul\":17864:17866   */\n      0x20\n        /* \"code_pool.sol\":7264:7403  require(... */\n      0x04\n      dup3\n      add\n        /* \"#utility.yul\":17846:17867   */\n      mstore\n        /* \"#utility.yul\":17903:17905   */\n      0x1a\n        /* \"#utility.yul\":17883:17901   */\n      0x24\n      dup3\n      add\n        /* \"#utility.yul\":17876:17906   */\n      mstore\n        /* \"#utility.yul\":17942:17970   */\n      0x506f6f6c436f64653a20496e76616c6964206b65792068617368000000000000\n        /* \"#utility.yul\":17922:17940   */\n      0x44\n      dup3\n      add\n        /* \"#utility.yul\":17915:17971   */\n      mstore\n        /* \"#utility.yul\":17988:18006   */\n      0x64\n      add\n        /* \"code_pool.sol\":7264:7403  require(... */\n      tag_246\n        /* \"#utility.yul\":17662:18012   */\n      jump\n        /* \"code_pool.sol\":7264:7403  require(... */\n    tag_285:\n      pop\n      pop\n      pop\n        /* \"code_pool.sol\":7451:7452  0 */\n      0x00\n        /* \"code_pool.sol\":7413:7432  mCodeInfo[codeHash] */\n      swap2\n      dup3\n      mstore\n      pop\n        /* \"code_pool.sol\":7413:7422  mCodeInfo */\n      0x02\n        /* \"code_pool.sol\":7413:7432  mCodeInfo[codeHash] */\n      0x20\n      mstore\n      0x40\n      dup2\n      keccak256\n        /* \"code_pool.sol\":7413:7440  mCodeInfo[codeHash].keyHash */\n      0x0c\n      add\n        /* \"code_pool.sol\":7413:7453  mCodeInfo[codeHash].keyHash = bytes32(0) */\n      sstore\n      pop\n        /* \"code_pool.sol\":7470:7474  true */\n      0x01\n      swap1\n        /* \"code_pool.sol\":6967:7481  function unlockCodeWalletKey(... */\n      jump\t// out\n        /* \"code_pool.sol\":3265:4102  function activateCode(... */\n    tag_91:\n        /* \"code_pool.sol\":3395:3399  bool */\n      0x00\n      0x00\n      dup1\n      mload\n      0x20\n      data_be3e709ccfa493aa582ab5a8c394c6715fbafb2c07360d03c84529526f351da9\n      dup4\n      codecopy\n      dup2\n      mload\n      swap2\n      mstore\n        /* \"@openzeppelin/contracts@v4.9.0/access/AccessControl.sol\":2631:2647  _checkRole(role) */\n      tag_288\n        /* \"@openzeppelin/contracts@v4.9.0/access/AccessControl.sol\":2642:2646  role */\n      dup2\n        /* \"@openzeppelin/contracts@v4.9.0/access/AccessControl.sol\":2631:2641  _checkRole */\n      tag_122\n        /* \"@openzeppelin/contracts@v4.9.0/access/AccessControl.sol\":2631:2647  _checkRole(role) */\n      jump\t// in\n    tag_288:\n        /* \"code_pool.sol\":3411:3427  bytes32 codeHash */\n      0x00\n        /* \"code_pool.sol\":3457:3464  codeStr */\n      dup5\n        /* \"code_pool.sol\":3440:3465  abi.encodePacked(codeStr) */\n      add(0x20, mload(0x40))\n      tag_290\n      swap2\n      swap1\n      tag_291\n      jump\t// in\n    tag_290:\n      mload(0x40)\n      0x20\n      dup2\n      dup4\n      sub\n      sub\n      dup2\n      mstore\n      swap1\n      0x40\n      mstore\n        /* \"code_pool.sol\":3430:3466  keccak256(abi.encodePacked(codeStr)) */\n      dup1\n      mload\n      swap1\n      0x20\n      add\n      keccak256\n        /* \"code_pool.sol\":3411:3466  bytes32 codeHash = keccak256(abi.encodePacked(codeStr)) */\n      swap1\n      pop\n        /* \"code_pool.sol\":3476:3503  _validateCodeHash(codeHash) */\n      tag_292\n        /* \"code_pool.sol\":3494:3502  codeHash */\n      dup2\n        /* \"code_pool.sol\":3476:3493  _validateCodeHash */\n      tag_125\n        /* \"code_pool.sol\":3476:3503  _validateCodeHash(codeHash) */\n      jump\t// in\n    tag_292:\n        /* \"code_pool.sol\":3534:3553  mCodeInfo[codeHash] */\n      0x00\n      dup2\n      dup2\n      mstore\n        /* \"code_pool.sol\":3534:3543  mCodeInfo */\n      0x02\n        /* \"code_pool.sol\":3534:3553  mCodeInfo[codeHash] */\n      0x20\n      mstore\n      0x40\n      swap1\n      keccak256\n        /* \"code_pool.sol\":3534:3574  mCodeInfo[codeHash].expirationActiveTime */\n      0x03\n      add\n      sload\n        /* \"code_pool.sol\":3578:3593  block.timestamp */\n      timestamp\n      gt\n        /* \"code_pool.sol\":3534:3593  mCodeInfo[codeHash].expirationActiveTime >= block.timestamp */\n      iszero\n        /* \"code_pool.sol\":3513:3652  require(... */\n      tag_293\n      jumpi\n      mload(0x40)\n      shl(0xe5, 0x461bcd)\n      dup2\n      mstore\n        /* \"#utility.yul\":18513:18515   */\n      0x20\n        /* \"code_pool.sol\":3513:3652  require(... */\n      0x04\n      dup3\n      add\n        /* \"#utility.yul\":18495:18516   */\n      mstore\n        /* \"#utility.yul\":18552:18554   */\n      0x21\n        /* \"#utility.yul\":18532:18550   */\n      0x24\n      dup3\n      add\n        /* \"#utility.yul\":18525:18555   */\n      mstore\n        /* \"#utility.yul\":18591:18625   */\n      0x506f6f6c436f64653a20457870697265642041637469766174696f6e2054696d\n        /* \"#utility.yul\":18571:18589   */\n      0x44\n      dup3\n      add\n        /* \"#utility.yul\":18564:18626   */\n      mstore\n      shl(0xf8, 0x65)\n        /* \"#utility.yul\":18642:18660   */\n      0x64\n      dup3\n      add\n        /* \"#utility.yul\":18635:18666   */\n      mstore\n        /* \"#utility.yul\":18683:18702   */\n      0x84\n      add\n        /* \"code_pool.sol\":3513:3652  require(... */\n      tag_246\n        /* \"#utility.yul\":18311:18708   */\n      jump\n        /* \"code_pool.sol\":3513:3652  require(... */\n    tag_293:\n        /* \"code_pool.sol\":3713:3727  Status.Unblock */\n      0x01\n        /* \"code_pool.sol\":3683:3702  mCodeInfo[codeHash] */\n      0x00\n      dup3\n      dup2\n      mstore\n        /* \"code_pool.sol\":3683:3692  mCodeInfo */\n      0x02\n        /* \"code_pool.sol\":3683:3702  mCodeInfo[codeHash] */\n      0x20\n      mstore\n      0x40\n      swap1\n      keccak256\n        /* \"code_pool.sol\":3683:3709  mCodeInfo[codeHash].status */\n      0x07\n      add\n      sload\n      shl(0xa0, 0x01)\n      swap1\n      div\n      0xff\n      and\n        /* \"code_pool.sol\":3683:3727  mCodeInfo[codeHash].status == Status.Unblock */\n      0x03\n      dup2\n      gt\n      iszero\n      tag_299\n      jumpi\n      tag_299\n      tag_128\n      jump\t// in\n    tag_299:\n      eq\n        /* \"code_pool.sol\":3662:3781  require(... */\n      tag_300\n      jumpi\n      mload(0x40)\n      shl(0xe5, 0x461bcd)\n      dup2\n      mstore\n        /* \"#utility.yul\":18915:18917   */\n      0x20\n        /* \"code_pool.sol\":3662:3781  require(... */\n      0x04\n      dup3\n      add\n        /* \"#utility.yul\":18897:18918   */\n      mstore\n        /* \"#utility.yul\":18954:18956   */\n      0x1c\n        /* \"#utility.yul\":18934:18952   */\n      0x24\n      dup3\n      add\n        /* \"#utility.yul\":18927:18957   */\n      mstore\n        /* \"#utility.yul\":18993:19023   */\n      0x506f6f6c436f64653a204e6f7420556e626c6f636b656420436f646500000000\n        /* \"#utility.yul\":18973:18991   */\n      0x44\n      dup3\n      add\n        /* \"#utility.yul\":18966:19024   */\n      mstore\n        /* \"#utility.yul\":19041:19059   */\n      0x64\n      add\n        /* \"code_pool.sol\":3662:3781  require(... */\n      tag_246\n        /* \"#utility.yul\":18713:19065   */\n      jump\n        /* \"code_pool.sol\":3662:3781  require(... */\n    tag_300:\n        /* \"code_pool.sol\":3807:3826  mCodeInfo[codeHash] */\n      0x00\n      dup2\n      dup2\n      mstore\n        /* \"code_pool.sol\":3807:3816  mCodeInfo */\n      0x02\n        /* \"code_pool.sol\":3807:3826  mCodeInfo[codeHash] */\n      0x20\n      mstore\n      0x40\n      swap1\n      keccak256\n        /* \"code_pool.sol\":3807:3832  mCodeInfo[codeHash].owner */\n      sload\n        /* \"code_pool.sol\":3791:3843  _removeCodeHash(mCodeInfo[codeHash].owner, codeHash) */\n      tag_303\n      swap1\n      sub(shl(0xa0, 0x01), 0x01)\n        /* \"code_pool.sol\":3807:3832  mCodeInfo[codeHash].owner */\n      and\n        /* \"code_pool.sol\":3817:3825  codeHash */\n      dup3\n        /* \"code_pool.sol\":3791:3806  _removeCodeHash */\n      tag_304\n        /* \"code_pool.sol\":3791:3843  _removeCodeHash(mCodeInfo[codeHash].owner, codeHash) */\n      jump\t// in\n    tag_303:\n        /* \"code_pool.sol\":3853:3872  mCodeInfo[codeHash] */\n      0x00\n      dup2\n      dup2\n      mstore\n        /* \"code_pool.sol\":3882:3895  Status.Active */\n      0x02\n        /* \"code_pool.sol\":3853:3872  mCodeInfo[codeHash] */\n      0x20\n      dup2\n      dup2\n      mstore\n      0x40\n      dup1\n      dup5\n      keccak256\n        /* \"code_pool.sol\":3853:3879  mCodeInfo[codeHash].status */\n      0x07\n      dup2\n      add\n        /* \"code_pool.sol\":3853:3895  mCodeInfo[codeHash].status = Status.Active */\n      dup1\n      sload\n      not(shl(0xa0, 0xff))\n      and\n      shl(0xa1, 0x01)\n      or\n      swap1\n      sstore\n        /* \"code_pool.sol\":3938:3953  block.timestamp */\n      timestamp\n        /* \"code_pool.sol\":3905:3935  mCodeInfo[codeHash].activeTime */\n      swap4\n      dup2\n      add\n        /* \"code_pool.sol\":3905:3953  mCodeInfo[codeHash].activeTime = block.timestamp */\n      swap4\n      swap1\n      swap4\n      sstore\n        /* \"code_pool.sol\":3963:4000  mCodeInfo[codeHash].owner = activator */\n      dup3\n      sload\n      not(sub(shl(0xa0, 0x01), 0x01))\n      and\n      sub(shl(0xa0, 0x01), 0x01)\n      swap9\n      swap1\n      swap9\n      and\n      swap8\n      dup9\n      or\n      swap1\n      swap3\n      sstore\n        /* \"code_pool.sol\":4010:4030  mCodeList[activator] */\n      swap6\n      dup3\n      mstore\n        /* \"code_pool.sol\":4010:4019  mCodeList */\n      0x03\n        /* \"code_pool.sol\":4010:4030  mCodeList[activator] */\n      dup7\n      mstore\n      dup2\n      keccak256\n        /* \"code_pool.sol\":4010:4045  mCodeList[activator].push(codeHash) */\n      dup1\n      sload\n      0x01\n      dup2\n      dup2\n      add\n      dup4\n      sstore\n      swap2\n      dup4\n      mstore\n      swap6\n      swap1\n      swap2\n      keccak256\n      swap1\n      swap5\n      add\n      sstore\n      pop\n      swap1\n      swap3\n      swap2\n      pop\n      pop\n        /* \"code_pool.sol\":3265:4102  function activateCode(... */\n      jump\t// out\n        /* \"@openzeppelin/contracts@v4.9.0/access/AccessControl.sol\":3021:3166  function hasRole(bytes32 role, address account) public view virtual override returns (bool) {... */\n    tag_95:\n        /* \"@openzeppelin/contracts@v4.9.0/access/AccessControl.sol\":3107:3111  bool */\n      0x00\n        /* \"@openzeppelin/contracts@v4.9.0/access/AccessControl.sol\":3130:3142  _roles[role] */\n      swap2\n      dup3\n      mstore\n      0x20\n      dup3\n      dup2\n      mstore\n      0x40\n      dup1\n      dup5\n      keccak256\n      sub(shl(0xa0, 0x01), 0x01)\n        /* \"@openzeppelin/contracts@v4.9.0/access/AccessControl.sol\":3130:3159  _roles[role].members[account] */\n      swap4\n      swap1\n      swap4\n      and\n      dup5\n      mstore\n      swap2\n      swap1\n      mstore\n      swap1\n      keccak256\n      sload\n      0xff\n      and\n      swap1\n        /* \"@openzeppelin/contracts@v4.9.0/access/AccessControl.sol\":3021:3166  function hasRole(bytes32 role, address account) public view virtual override returns (bool) {... */\n      jump\t// out\n        /* \"code_pool.sol\":4717:5322  function unblockCode(... */\n    tag_102:\n        /* \"code_pool.sol\":4849:4862  bool[] memory */\n      0x60\n      0x00\n      dup1\n      mload\n      0x20\n      data_be3e709ccfa493aa582ab5a8c394c6715fbafb2c07360d03c84529526f351da9\n      dup4\n      codecopy\n      dup2\n      mload\n      swap2\n      mstore\n        /* \"@openzeppelin/contracts@v4.9.0/access/AccessControl.sol\":2631:2647  _checkRole(role) */\n      tag_310\n        /* \"@openzeppelin/contracts@v4.9.0/access/AccessControl.sol\":2642:2646  role */\n      dup2\n        /* \"@openzeppelin/contracts@v4.9.0/access/AccessControl.sol\":2631:2641  _checkRole */\n      tag_122\n        /* \"@openzeppelin/contracts@v4.9.0/access/AccessControl.sol\":2631:2647  _checkRole(role) */\n      jump\t// in\n    tag_310:\n        /* \"code_pool.sol\":4874:4894  bool[] memory result */\n      0x00\n        /* \"code_pool.sol\":4908:4918  codeHashes */\n      dup4\n        /* \"code_pool.sol\":4908:4925  codeHashes.length */\n      mload\n      sub(shl(0x40, 0x01), 0x01)\n        /* \"code_pool.sol\":4897:4926  new bool[](codeHashes.length) */\n      dup2\n      gt\n      iszero\n      tag_313\n      jumpi\n      tag_313\n      tag_134\n      jump\t// in\n    tag_313:\n      mload(0x40)\n      swap1\n      dup1\n      dup3\n      mstore\n      dup1\n      0x20\n      mul\n      0x20\n      add\n      dup3\n      add\n      0x40\n      mstore\n      dup1\n      iszero\n      tag_314\n      jumpi\n      dup2\n      0x20\n      add\n      0x20\n      dup3\n      mul\n      dup1\n      calldatasize\n      dup4\n      calldatacopy\n      add\n      swap1\n      pop\n    tag_314:\n      pop\n        /* \"code_pool.sol\":4874:4926  bool[] memory result = new bool[](codeHashes.length) */\n      swap1\n      pop\n        /* \"code_pool.sol\":4941:4953  uint16 index */\n      0x00\n        /* \"code_pool.sol\":4936:5293  for (uint16 index = 0; index < codeHashes.length; index++) {... */\n    tag_315:\n        /* \"code_pool.sol\":4967:4977  codeHashes */\n      dup5\n        /* \"code_pool.sol\":4967:4984  codeHashes.length */\n      mload\n        /* \"code_pool.sol\":4959:4964  index */\n      dup2\n        /* \"code_pool.sol\":4959:4984  index < codeHashes.length */\n      0xffff\n      and\n      lt\n        /* \"code_pool.sol\":4936:5293  for (uint16 index = 0; index < codeHashes.length; index++) {... */\n      iszero\n      tag_214\n      jumpi\n        /* \"code_pool.sol\":5068:5074  caller */\n      dup6\n      sub(shl(0xa0, 0x01), 0x01)\n        /* \"code_pool.sol\":5030:5074  mCodeInfo[codeHashes[index]].owner == caller */\n      and\n        /* \"code_pool.sol\":5030:5039  mCodeInfo */\n      0x02\n        /* \"code_pool.sol\":5030:5058  mCodeInfo[codeHashes[index]] */\n      0x00\n        /* \"code_pool.sol\":5040:5050  codeHashes */\n      dup8\n        /* \"code_pool.sol\":5051:5056  index */\n      dup5\n        /* \"code_pool.sol\":5040:5057  codeHashes[index] */\n      0xffff\n      and\n      dup2\n      mload\n      dup2\n      lt\n      tag_319\n      jumpi\n      tag_319\n      tag_144\n      jump\t// in\n    tag_319:\n      0x20\n      swap1\n      dup2\n      mul\n      swap2\n      swap1\n      swap2\n      add\n      dup2\n      add\n      mload\n        /* \"code_pool.sol\":5030:5058  mCodeInfo[codeHashes[index]] */\n      dup3\n      mstore\n      dup2\n      add\n      swap2\n      swap1\n      swap2\n      mstore\n      0x40\n      add\n      0x00\n      keccak256\n        /* \"code_pool.sol\":5030:5064  mCodeInfo[codeHashes[index]].owner */\n      sload\n      sub(shl(0xa0, 0x01), 0x01)\n      and\n        /* \"code_pool.sol\":5030:5074  mCodeInfo[codeHashes[index]].owner == caller */\n      eq\n        /* \"code_pool.sol\":5030:5145  mCodeInfo[codeHashes[index]].owner == caller &&... */\n      dup1\n      iszero\n      tag_320\n      jumpi\n      pop\n        /* \"code_pool.sol\":5133:5145  Status.Block */\n      0x00\n        /* \"code_pool.sol\":5094:5103  mCodeInfo */\n      0x02\n        /* \"code_pool.sol\":5094:5122  mCodeInfo[codeHashes[index]] */\n      0x00\n        /* \"code_pool.sol\":5104:5114  codeHashes */\n      dup8\n        /* \"code_pool.sol\":5115:5120  index */\n      dup5\n        /* \"code_pool.sol\":5104:5121  codeHashes[index] */\n      0xffff\n      and\n      dup2\n      mload\n      dup2\n      lt\n      tag_324\n      jumpi\n      tag_324\n      tag_144\n      jump\t// in\n    tag_324:\n      0x20\n      mul\n      0x20\n      add\n      add\n      mload\n        /* \"code_pool.sol\":5094:5122  mCodeInfo[codeHashes[index]] */\n      dup2\n      mstore\n      0x20\n      add\n      swap1\n      dup2\n      mstore\n      0x20\n      add\n      0x00\n      keccak256\n        /* \"code_pool.sol\":5094:5129  mCodeInfo[codeHashes[index]].status */\n      0x07\n      add\n      0x14\n      swap1\n      sload\n      swap1\n      0x0100\n      exp\n      swap1\n      div\n      0xff\n      and\n        /* \"code_pool.sol\":5094:5145  mCodeInfo[codeHashes[index]].status == Status.Block */\n      0x03\n      dup2\n      gt\n      iszero\n      tag_326\n      jumpi\n      tag_326\n      tag_128\n      jump\t// in\n    tag_326:\n      eq\n        /* \"code_pool.sol\":5030:5145  mCodeInfo[codeHashes[index]].owner == caller &&... */\n    tag_320:\n        /* \"code_pool.sol\":5009:5283  if (... */\n      iszero\n      tag_327\n      jumpi\n        /* \"code_pool.sol\":5216:5230  Status.Unblock */\n      0x01\n        /* \"code_pool.sol\":5178:5187  mCodeInfo */\n      0x02\n        /* \"code_pool.sol\":5178:5206  mCodeInfo[codeHashes[index]] */\n      0x00\n        /* \"code_pool.sol\":5188:5198  codeHashes */\n      dup8\n        /* \"code_pool.sol\":5199:5204  index */\n      dup5\n        /* \"code_pool.sol\":5188:5205  codeHashes[index] */\n      0xffff\n      and\n      dup2\n      mload\n      dup2\n      lt\n      tag_329\n      jumpi\n      tag_329\n      tag_144\n      jump\t// in\n    tag_329:\n      0x20\n      mul\n      0x20\n      add\n      add\n      mload\n        /* \"code_pool.sol\":5178:5206  mCodeInfo[codeHashes[index]] */\n      dup2\n      mstore\n      0x20\n      add\n      swap1\n      dup2\n      mstore\n      0x20\n      add\n      0x00\n      keccak256\n        /* \"code_pool.sol\":5178:5213  mCodeInfo[codeHashes[index]].status */\n      0x07\n      add\n      0x14\n        /* \"code_pool.sol\":5178:5230  mCodeInfo[codeHashes[index]].status = Status.Unblock */\n      0x0100\n      exp\n      dup2\n      sload\n      dup2\n      0xff\n      mul\n      not\n      and\n      swap1\n      dup4\n      0x03\n      dup2\n      gt\n      iszero\n      tag_331\n      jumpi\n      tag_331\n      tag_128\n      jump\t// in\n    tag_331:\n      mul\n      or\n      swap1\n      sstore\n      pop\n        /* \"code_pool.sol\":5264:5268  true */\n      0x01\n        /* \"code_pool.sol\":5248:5254  result */\n      dup3\n        /* \"code_pool.sol\":5255:5260  index */\n      dup3\n        /* \"code_pool.sol\":5248:5261  result[index] */\n      0xffff\n      and\n      dup2\n      mload\n      dup2\n      lt\n      tag_333\n      jumpi\n      tag_333\n      tag_144\n      jump\t// in\n    tag_333:\n        /* \"code_pool.sol\":5248:5268  result[index] = true */\n      swap2\n      iszero\n      iszero\n        /* \"code_pool.sol\":5248:5261  result[index] */\n      0x20\n      swap3\n      dup4\n      mul\n      swap2\n      swap1\n      swap2\n      add\n      swap1\n      swap2\n      add\n        /* \"code_pool.sol\":5248:5268  result[index] = true */\n      mstore\n        /* \"code_pool.sol\":5009:5283  if (... */\n    tag_327:\n        /* \"code_pool.sol\":4986:4993  index++ */\n      dup1\n      tag_334\n      dup2\n      tag_233\n      jump\t// in\n    tag_334:\n      swap2\n      pop\n      pop\n        /* \"code_pool.sol\":4936:5293  for (uint16 index = 0; index < codeHashes.length; index++) {... */\n      jump(tag_315)\n        /* \"code_pool.sol\":847:1353  function revokeRole(... */\n    tag_106:\n        /* \"@openzeppelin/contracts@v4.9.0/access/AccessControl.sol\":4578:4585  bytes32 */\n      0x00\n        /* \"@openzeppelin/contracts@v4.9.0/access/AccessControl.sol\":4604:4616  _roles[role] */\n      dup3\n      dup2\n      mstore\n      0x20\n      dup2\n      swap1\n      mstore\n      0x40\n      swap1\n      keccak256\n        /* \"@openzeppelin/contracts@v4.9.0/access/AccessControl.sol\":4604:4626  _roles[role].adminRole */\n      0x01\n      add\n      sload\n        /* \"@openzeppelin/contracts@v4.9.0/access/AccessControl.sol\":2631:2647  _checkRole(role) */\n      tag_337\n        /* \"@openzeppelin/contracts@v4.9.0/access/AccessControl.sol\":2642:2646  role */\n      dup2\n        /* \"@openzeppelin/contracts@v4.9.0/access/AccessControl.sol\":2631:2641  _checkRole */\n      tag_122\n        /* \"@openzeppelin/contracts@v4.9.0/access/AccessControl.sol\":2631:2647  _checkRole(role) */\n      jump\t// in\n    tag_337:\n        /* \"code_pool.sol\":983:1015  super._revokeRole(role, account) */\n      tag_339\n        /* \"code_pool.sol\":1001:1005  role */\n      dup4\n        /* \"code_pool.sol\":1007:1014  account */\n      dup4\n        /* \"code_pool.sol\":983:1000  super._revokeRole */\n      tag_249\n        /* \"code_pool.sol\":983:1015  super._revokeRole(role, account) */\n      jump\t// in\n    tag_339:\n        /* \"code_pool.sol\":1030:1041  uint8 index */\n      0x00\n        /* \"code_pool.sol\":1025:1347  for (uint8 index = 0; index > mRoleArrList[role].length; index++) {... */\n    tag_340:\n        /* \"code_pool.sol\":1055:1073  mRoleArrList[role] */\n      0x00\n      dup5\n      dup2\n      mstore\n        /* \"code_pool.sol\":1055:1067  mRoleArrList */\n      0x01\n        /* \"code_pool.sol\":1055:1073  mRoleArrList[role] */\n      0x20\n      mstore\n      0x40\n      swap1\n      keccak256\n        /* \"code_pool.sol\":1055:1080  mRoleArrList[role].length */\n      sload\n        /* \"code_pool.sol\":1047:1080  index > mRoleArrList[role].length */\n      0xff\n      dup3\n      and\n      gt\n        /* \"code_pool.sol\":1025:1347  for (uint8 index = 0; index > mRoleArrList[role].length; index++) {... */\n      iszero\n      tag_341\n      jumpi\n        /* \"code_pool.sol\":1109:1127  mRoleArrList[role] */\n      0x00\n      dup5\n      dup2\n      mstore\n        /* \"code_pool.sol\":1109:1121  mRoleArrList */\n      0x01\n        /* \"code_pool.sol\":1109:1127  mRoleArrList[role] */\n      0x20\n      mstore\n      0x40\n      swap1\n      keccak256\n        /* \"code_pool.sol\":1109:1134  mRoleArrList[role][index] */\n      dup1\n      sload\n      sub(shl(0xa0, 0x01), 0x01)\n        /* \"code_pool.sol\":1109:1145  mRoleArrList[role][index] == account */\n      dup6\n      and\n      swap2\n        /* \"code_pool.sol\":1109:1127  mRoleArrList[role] */\n      swap1\n        /* \"code_pool.sol\":1109:1134  mRoleArrList[role][index] */\n      0xff\n      dup5\n      and\n      swap1\n      dup2\n      lt\n      tag_344\n      jumpi\n      tag_344\n      tag_144\n      jump\t// in\n    tag_344:\n      0x00\n      swap2\n      dup3\n      mstore\n      0x20\n      swap1\n      swap2\n      keccak256\n      add\n      sload\n      sub(shl(0xa0, 0x01), 0x01)\n      and\n        /* \"code_pool.sol\":1109:1145  mRoleArrList[role][index] == account */\n      sub\n        /* \"code_pool.sol\":1105:1337  if (mRoleArrList[role][index] == account) {... */\n      tag_346\n      jumpi\n        /* \"code_pool.sol\":1193:1211  mRoleArrList[role] */\n      0x00\n      dup5\n      dup2\n      mstore\n        /* \"code_pool.sol\":1193:1205  mRoleArrList */\n      0x01\n        /* \"code_pool.sol\":1193:1211  mRoleArrList[role] */\n      0x20\n      dup2\n      swap1\n      mstore\n      0x40\n      swap1\n      swap2\n      keccak256\n        /* \"code_pool.sol\":1233:1258  mRoleArrList[role].length */\n      dup1\n      sload\n        /* \"code_pool.sol\":1193:1211  mRoleArrList[role] */\n      swap1\n      swap2\n        /* \"code_pool.sol\":1233:1262  mRoleArrList[role].length - 1 */\n      tag_347\n      swap2\n      tag_266\n      jump\t// in\n    tag_347:\n        /* \"code_pool.sol\":1193:1280  mRoleArrList[role][... */\n      dup2\n      sload\n      dup2\n      lt\n      tag_349\n      jumpi\n      tag_349\n      tag_144\n      jump\t// in\n    tag_349:\n      0x00\n      swap2\n      dup3\n      mstore\n      0x20\n      dup1\n      dup4\n      keccak256\n      swap1\n      swap2\n      add\n      sload\n        /* \"code_pool.sol\":1165:1183  mRoleArrList[role] */\n      dup7\n      dup4\n      mstore\n        /* \"code_pool.sol\":1193:1280  mRoleArrList[role][... */\n      0x01\n        /* \"code_pool.sol\":1165:1183  mRoleArrList[role] */\n      swap1\n      swap2\n      mstore\n      0x40\n      swap1\n      swap2\n      keccak256\n        /* \"code_pool.sol\":1165:1190  mRoleArrList[role][index] */\n      dup1\n      sload\n      sub(shl(0xa0, 0x01), 0x01)\n        /* \"code_pool.sol\":1193:1280  mRoleArrList[role][... */\n      swap1\n      swap3\n      and\n      swap2\n        /* \"code_pool.sol\":1165:1190  mRoleArrList[role][index] */\n      0xff\n      dup5\n      and\n      swap1\n      dup2\n      lt\n      tag_352\n      jumpi\n      tag_352\n      tag_144\n      jump\t// in\n    tag_352:\n      0x00\n      swap2\n      dup3\n      mstore\n      0x20\n      dup1\n      dup4\n      keccak256\n      swap2\n      swap1\n      swap2\n      add\n        /* \"code_pool.sol\":1165:1280  mRoleArrList[role][index] = mRoleArrList[role][... */\n      dup1\n      sload\n      not(sub(shl(0xa0, 0x01), 0x01))\n      and\n      sub(shl(0xa0, 0x01), 0x01)\n      swap5\n      swap1\n      swap5\n      and\n      swap4\n      swap1\n      swap4\n      or\n      swap1\n      swap3\n      sstore\n        /* \"code_pool.sol\":1298:1316  mRoleArrList[role] */\n      dup6\n      dup2\n      mstore\n      0x01\n      swap1\n      swap2\n      mstore\n      0x40\n      swap1\n      keccak256\n        /* \"code_pool.sol\":1298:1322  mRoleArrList[role].pop() */\n      dup1\n      sload\n      dup1\n      tag_355\n      jumpi\n      tag_355\n      tag_356\n      jump\t// in\n    tag_355:\n      0x00\n      dup3\n      dup2\n      mstore\n      0x20\n      swap1\n      keccak256\n      dup2\n      add\n      not(0x00)\n      swap1\n      dup2\n      add\n      dup1\n      sload\n      not(sub(shl(0xa0, 0x01), 0x01))\n      and\n      swap1\n      sstore\n      add\n      swap1\n      sstore\n        /* \"code_pool.sol\":1105:1337  if (mRoleArrList[role][index] == account) {... */\n    tag_346:\n        /* \"code_pool.sol\":1082:1089  index++ */\n      dup1\n      tag_358\n      dup2\n      tag_359\n      jump\t// in\n    tag_358:\n      swap2\n      pop\n      pop\n        /* \"code_pool.sol\":1025:1347  for (uint8 index = 0; index > mRoleArrList[role].length; index++) {... */\n      jump(tag_340)\n    tag_341:\n      pop\n        /* \"code_pool.sol\":847:1353  function revokeRole(... */\n      pop\n      pop\n      pop\n      jump\t// out\n        /* \"code_pool.sol\":2645:2877  function updateCode(... */\n    tag_110:\n        /* \"code_pool.sol\":2739:2743  bool */\n      0x00\n      0x00\n      dup1\n      mload\n      0x20\n      data_be3e709ccfa493aa582ab5a8c394c6715fbafb2c07360d03c84529526f351da9\n      dup4\n      codecopy\n      dup2\n      mload\n      swap2\n      mstore\n        /* \"@openzeppelin/contracts@v4.9.0/access/AccessControl.sol\":2631:2647  _checkRole(role) */\n      tag_361\n        /* \"@openzeppelin/contracts@v4.9.0/access/AccessControl.sol\":2642:2646  role */\n      dup2\n        /* \"@openzeppelin/contracts@v4.9.0/access/AccessControl.sol\":2631:2641  _checkRole */\n      tag_122\n        /* \"@openzeppelin/contracts@v4.9.0/access/AccessControl.sol\":2631:2647  _checkRole(role) */\n      jump\t// in\n    tag_361:\n        /* \"code_pool.sol\":2755:2794  _validateCodeHash(updatedCode.codeHash) */\n      tag_363\n        /* \"code_pool.sol\":2773:2784  updatedCode */\n      dup4\n        /* \"code_pool.sol\":2773:2793  updatedCode.codeHash */\n      0x20\n      add\n      mload\n        /* \"code_pool.sol\":2755:2772  _validateCodeHash */\n      tag_125\n        /* \"code_pool.sol\":2755:2794  _validateCodeHash(updatedCode.codeHash) */\n      jump\t// in\n    tag_363:\n        /* \"code_pool.sol\":2814:2834  updatedCode.codeHash */\n      0x20\n      dup1\n      dup5\n      add\n      dup1\n      mload\n        /* \"code_pool.sol\":2804:2835  mCodeInfo[updatedCode.codeHash] */\n      0x00\n      swap1\n      dup2\n      mstore\n        /* \"code_pool.sol\":2804:2813  mCodeInfo */\n      0x02\n        /* \"code_pool.sol\":2804:2835  mCodeInfo[updatedCode.codeHash] */\n      swap3\n      dup4\n      swap1\n      mstore\n      0x40\n      swap1\n      dup2\n      swap1\n      keccak256\n        /* \"code_pool.sol\":2804:2849  mCodeInfo[updatedCode.codeHash] = updatedCode */\n      dup7\n      mload\n      dup2\n      sload\n      sub(shl(0xa0, 0x01), 0x01)\n      swap2\n      dup3\n      and\n      not(sub(shl(0xa0, 0x01), 0x01))\n      swap2\n      dup3\n      and\n      or\n      dup4\n      sstore\n      swap4\n      mload\n      0x01\n      dup4\n      add\n      sstore\n      swap2\n      dup8\n      add\n      mload\n      swap4\n      dup2\n      add\n      swap4\n      swap1\n      swap4\n      sstore\n      0x60\n      dup7\n      add\n      mload\n      0x03\n      dup1\n      dup6\n      add\n      swap2\n      swap1\n      swap2\n      sstore\n      0x80\n      dup8\n      add\n      mload\n      0x04\n      dup6\n      add\n      sstore\n      0xa0\n      dup8\n      add\n      mload\n      0x05\n      dup6\n      add\n      sstore\n      0xc0\n      dup8\n      add\n      mload\n      0x06\n      dup6\n      add\n      sstore\n      0xe0\n      dup8\n      add\n      mload\n      0x07\n      dup6\n      add\n      dup1\n      sload\n      swap2\n      swap1\n      swap4\n      and\n      swap4\n      dup2\n      and\n      dup5\n      or\n      dup4\n      sstore\n      0x0100\n      dup9\n      add\n      mload\n        /* \"code_pool.sol\":2838:2849  updatedCode */\n      dup9\n      swap6\n        /* \"code_pool.sol\":2804:2835  mCodeInfo[updatedCode.codeHash] */\n      swap5\n        /* \"code_pool.sol\":2804:2849  mCodeInfo[updatedCode.codeHash] = updatedCode */\n      swap1\n      swap4\n      swap3\n      not(sub(shl(0xa8, 0x01), 0x01))\n      swap1\n      swap3\n      and\n      or\n      swap1\n      shl(0xa0, 0x01)\n      swap1\n      dup5\n      swap1\n      dup2\n      gt\n      iszero\n      tag_365\n      jumpi\n      tag_365\n      tag_128\n      jump\t// in\n    tag_365:\n      mul\n      or\n      swap1\n      sstore\n      pop\n      0x0120\n      dup3\n      add\n      mload\n      0x08\n      dup3\n      add\n      swap1\n      tag_366\n      swap1\n      dup3\n      tag_367\n      jump\t// in\n    tag_366:\n      pop\n      0x0140\n      dup3\n      add\n      mload\n      0x09\n      dup3\n      add\n      sstore\n      0x0160\n      dup3\n      add\n      mload\n      0x0a\n      dup3\n      add\n      sstore\n      0x0180\n      dup3\n      add\n      mload\n      0x0b\n      dup3\n      add\n      sstore\n      0x01a0\n      dup3\n      add\n      mload\n      0x0c\n      dup3\n      add\n      sstore\n      0x01c0\n      dup3\n      add\n      mload\n      0x0d\n      dup3\n      add\n      swap1\n      tag_368\n      swap1\n      dup3\n      tag_367\n      jump\t// in\n    tag_368:\n      pop\n      0x01e0\n      dup3\n      add\n      mload\n      dup1\n      mload\n      tag_369\n      swap2\n      0x0e\n      dup5\n      add\n      swap2\n      0x20\n      swap1\n      swap2\n      add\n      swap1\n      tag_370\n      jump\t// in\n    tag_369:\n      pop\n        /* \"code_pool.sol\":2866:2870  true */\n      0x01\n      swap6\n        /* \"code_pool.sol\":2645:2877  function updateCode(... */\n      swap5\n      pop\n      pop\n      pop\n      pop\n      pop\n      jump\t// out\n        /* \"code_pool.sol\":1359:1699  function addCode(... */\n    tag_114:\n        /* \"code_pool.sol\":1452:1456  bool */\n      0x00\n      0x00\n      dup1\n      mload\n      0x20\n      data_be3e709ccfa493aa582ab5a8c394c6715fbafb2c07360d03c84529526f351da9\n      dup4\n      codecopy\n      dup2\n      mload\n      swap2\n      mstore\n        /* \"@openzeppelin/contracts@v4.9.0/access/AccessControl.sol\":2631:2647  _checkRole(role) */\n      tag_372\n        /* \"@openzeppelin/contracts@v4.9.0/access/AccessControl.sol\":2642:2646  role */\n      dup2\n        /* \"@openzeppelin/contracts@v4.9.0/access/AccessControl.sol\":2631:2641  _checkRole */\n      tag_122\n        /* \"@openzeppelin/contracts@v4.9.0/access/AccessControl.sol\":2631:2647  _checkRole(role) */\n      jump\t// in\n    tag_372:\n        /* \"code_pool.sol\":1499:1512  code.codeHash */\n      0x20\n      dup1\n      dup5\n      add\n      mload\n        /* \"code_pool.sol\":1531:1532  0 */\n      0x00\n        /* \"code_pool.sol\":1489:1513  mCodeInfo[code.codeHash] */\n      swap1\n      dup2\n      mstore\n        /* \"code_pool.sol\":1489:1498  mCodeInfo */\n      0x02\n        /* \"code_pool.sol\":1489:1513  mCodeInfo[code.codeHash] */\n      swap1\n      swap2\n      mstore\n      0x40\n      swap1\n      keccak256\n        /* \"code_pool.sol\":1489:1519  mCodeInfo[code.codeHash].owner */\n      sload\n      sub(shl(0xa0, 0x01), 0x01)\n      and\n        /* \"code_pool.sol\":1489:1533  mCodeInfo[code.codeHash].owner == address(0) */\n      iszero\n        /* \"code_pool.sol\":1468:1579  require(... */\n      tag_374\n      jumpi\n      mload(0x40)\n      shl(0xe5, 0x461bcd)\n      dup2\n      mstore\n        /* \"#utility.yul\":21788:21790   */\n      0x20\n        /* \"code_pool.sol\":1468:1579  require(... */\n      0x04\n      dup3\n      add\n        /* \"#utility.yul\":21770:21791   */\n      mstore\n        /* \"#utility.yul\":21827:21829   */\n      0x14\n        /* \"#utility.yul\":21807:21825   */\n      0x24\n      dup3\n      add\n        /* \"#utility.yul\":21800:21830   */\n      mstore\n      shl(0x62, 0x141bdbdb10dbd9194e8810dbd91948115e1a5cdd)\n        /* \"#utility.yul\":21846:21864   */\n      0x44\n      dup3\n      add\n        /* \"#utility.yul\":21839:21889   */\n      mstore\n        /* \"#utility.yul\":21906:21924   */\n      0x64\n      add\n        /* \"code_pool.sol\":1468:1579  require(... */\n      tag_246\n        /* \"#utility.yul\":21586:21930   */\n      jump\n        /* \"code_pool.sol\":1468:1579  require(... */\n    tag_374:\n        /* \"code_pool.sol\":1599:1612  code.codeHash */\n      0x20\n      dup1\n      dup5\n      add\n      dup1\n      mload\n        /* \"code_pool.sol\":1589:1613  mCodeInfo[code.codeHash] */\n      0x00\n      swap1\n      dup2\n      mstore\n        /* \"code_pool.sol\":1589:1598  mCodeInfo */\n      0x02\n        /* \"code_pool.sol\":1589:1613  mCodeInfo[code.codeHash] */\n      swap3\n      dup4\n      swap1\n      mstore\n      0x40\n      swap1\n      dup2\n      swap1\n      keccak256\n        /* \"code_pool.sol\":1589:1620  mCodeInfo[code.codeHash] = code */\n      dup7\n      mload\n      dup2\n      sload\n      sub(shl(0xa0, 0x01), 0x01)\n      swap2\n      dup3\n      and\n      not(sub(shl(0xa0, 0x01), 0x01))\n      swap2\n      dup3\n      and\n      or\n      dup4\n      sstore\n      swap4\n      mload\n      0x01\n      dup4\n      add\n      sstore\n      swap2\n      dup8\n      add\n      mload\n      swap4\n      dup2\n      add\n      swap4\n      swap1\n      swap4\n      sstore\n      0x60\n      dup7\n      add\n      mload\n      0x03\n      dup1\n      dup6\n      add\n      swap2\n      swap1\n      swap2\n      sstore\n      0x80\n      dup8\n      add\n      mload\n      0x04\n      dup6\n      add\n      sstore\n      0xa0\n      dup8\n      add\n      mload\n      0x05\n      dup6\n      add\n      sstore\n      0xc0\n      dup8\n      add\n      mload\n      0x06\n      dup6\n      add\n      sstore\n      0xe0\n      dup8\n      add\n      mload\n      0x07\n      dup6\n      add\n      dup1\n      sload\n      swap2\n      swap1\n      swap4\n      and\n      swap4\n      dup2\n      and\n      dup5\n      or\n      dup4\n      sstore\n      0x0100\n      dup9\n      add\n      mload\n        /* \"code_pool.sol\":1616:1620  code */\n      dup9\n      swap6\n        /* \"code_pool.sol\":1589:1613  mCodeInfo[code.codeHash] */\n      swap5\n        /* \"code_pool.sol\":1589:1620  mCodeInfo[code.codeHash] = code */\n      swap1\n      swap4\n      swap3\n      not(sub(shl(0xa8, 0x01), 0x01))\n      swap1\n      swap3\n      and\n      or\n      swap1\n      shl(0xa0, 0x01)\n      swap1\n      dup5\n      swap1\n      dup2\n      gt\n      iszero\n      tag_378\n      jumpi\n      tag_378\n      tag_128\n      jump\t// in\n    tag_378:\n      mul\n      or\n      swap1\n      sstore\n      pop\n      0x0120\n      dup3\n      add\n      mload\n      0x08\n      dup3\n      add\n      swap1\n      tag_379\n      swap1\n      dup3\n      tag_367\n      jump\t// in\n    tag_379:\n      pop\n      0x0140\n      dup3\n      add\n      mload\n      0x09\n      dup3\n      add\n      sstore\n      0x0160\n      dup3\n      add\n      mload\n      0x0a\n      dup3\n      add\n      sstore\n      0x0180\n      dup3\n      add\n      mload\n      0x0b\n      dup3\n      add\n      sstore\n      0x01a0\n      dup3\n      add\n      mload\n      0x0c\n      dup3\n      add\n      sstore\n      0x01c0\n      dup3\n      add\n      mload\n      0x0d\n      dup3\n      add\n      swap1\n      tag_380\n      swap1\n      dup3\n      tag_367\n      jump\t// in\n    tag_380:\n      pop\n      0x01e0\n      dup3\n      add\n      mload\n      dup1\n      mload\n      tag_381\n      swap2\n      0x0e\n      dup5\n      add\n      swap2\n      0x20\n      swap1\n      swap2\n      add\n      swap1\n      tag_370\n      jump\t// in\n    tag_381:\n      pop\n      pop\n        /* \"code_pool.sol\":1640:1650  code.owner */\n      dup4\n      mload\n      sub(shl(0xa0, 0x01), 0x01)\n        /* \"code_pool.sol\":1630:1651  mCodeList[code.owner] */\n      and\n      0x00\n      swap1\n      dup2\n      mstore\n        /* \"code_pool.sol\":1630:1639  mCodeList */\n      0x03\n        /* \"code_pool.sol\":1630:1651  mCodeList[code.owner] */\n      0x20\n      swap1\n      dup2\n      mstore\n      0x40\n      dup3\n      keccak256\n        /* \"code_pool.sol\":1657:1670  code.codeHash */\n      swap6\n      dup2\n      add\n      mload\n        /* \"code_pool.sol\":1630:1671  mCodeList[code.owner].push(code.codeHash) */\n      dup7\n      sload\n      0x01\n      dup1\n      dup3\n      add\n      dup10\n      sstore\n      swap8\n      dup5\n      mstore\n      swap2\n      swap1\n      swap3\n      keccak256\n      add\n      sstore\n      pop\n      swap2\n      swap3\n        /* \"code_pool.sol\":1359:1699  function addCode(... */\n      swap2\n      pop\n      pop\n      jump\t// out\n        /* \"@openzeppelin/contracts@v4.9.0/access/AccessControl.sol\":3460:3563  function _checkRole(bytes32 role) internal view virtual {... */\n    tag_122:\n        /* \"@openzeppelin/contracts@v4.9.0/access/AccessControl.sol\":3526:3556  _checkRole(role, _msgSender()) */\n      tag_385\n        /* \"@openzeppelin/contracts@v4.9.0/access/AccessControl.sol\":3537:3541  role */\n      dup2\n        /* \"@openzeppelin/contracts@v4.9.0/utils/Context.sol\":719:729  msg.sender */\n      caller\n        /* \"@openzeppelin/contracts@v4.9.0/access/AccessControl.sol\":3526:3536  _checkRole */\n      tag_387\n        /* \"@openzeppelin/contracts@v4.9.0/access/AccessControl.sol\":3526:3556  _checkRole(role, _msgSender()) */\n      jump\t// in\n    tag_385:\n        /* \"@openzeppelin/contracts@v4.9.0/access/AccessControl.sol\":3460:3563  function _checkRole(bytes32 role) internal view virtual {... */\n      pop\n      jump\t// out\n        /* \"code_pool.sol\":2447:2639  function _validateCodeHash(bytes32 oldCodeHash) internal view {... */\n    tag_125:\n        /* \"code_pool.sol\":2580:2581  0 */\n      0x00\n        /* \"code_pool.sol\":2540:2562  mCodeInfo[oldCodeHash] */\n      dup2\n      dup2\n      mstore\n        /* \"code_pool.sol\":2540:2549  mCodeInfo */\n      0x02\n        /* \"code_pool.sol\":2540:2562  mCodeInfo[oldCodeHash] */\n      0x20\n      mstore\n      0x40\n      swap1\n      keccak256\n        /* \"code_pool.sol\":2540:2568  mCodeInfo[oldCodeHash].owner */\n      sload\n      sub(shl(0xa0, 0x01), 0x01)\n      and\n        /* \"code_pool.sol\":2519:2632  require(... */\n      tag_385\n      jumpi\n      mload(0x40)\n      shl(0xe5, 0x461bcd)\n      dup2\n      mstore\n        /* \"#utility.yul\":22137:22139   */\n      0x20\n        /* \"code_pool.sol\":2519:2632  require(... */\n      0x04\n      dup3\n      add\n        /* \"#utility.yul\":22119:22140   */\n      mstore\n        /* \"#utility.yul\":22176:22178   */\n      0x18\n        /* \"#utility.yul\":22156:22174   */\n      0x24\n      dup3\n      add\n        /* \"#utility.yul\":22149:22179   */\n      mstore\n        /* \"#utility.yul\":22215:22241   */\n      0x506f6f6c436f64653a20436f6465204e6f742045786973740000000000000000\n        /* \"#utility.yul\":22195:22213   */\n      0x44\n      dup3\n      add\n        /* \"#utility.yul\":22188:22242   */\n      mstore\n        /* \"#utility.yul\":22259:22277   */\n      0x64\n      add\n        /* \"code_pool.sol\":2519:2632  require(... */\n      tag_246\n        /* \"#utility.yul\":21935:22283   */\n      jump\n        /* \"@openzeppelin/contracts@v4.9.0/access/AccessControl.sol\":7587:7820  function _grantRole(bytes32 role, address account) internal virtual {... */\n    tag_240:\n        /* \"@openzeppelin/contracts@v4.9.0/access/AccessControl.sol\":7670:7692  hasRole(role, account) */\n      tag_393\n        /* \"@openzeppelin/contracts@v4.9.0/access/AccessControl.sol\":7678:7682  role */\n      dup3\n        /* \"@openzeppelin/contracts@v4.9.0/access/AccessControl.sol\":7684:7691  account */\n      dup3\n        /* \"@openzeppelin/contracts@v4.9.0/access/AccessControl.sol\":7670:7677  hasRole */\n      tag_95\n        /* \"@openzeppelin/contracts@v4.9.0/access/AccessControl.sol\":7670:7692  hasRole(role, account) */\n      jump\t// in\n    tag_393:\n        /* \"@openzeppelin/contracts@v4.9.0/access/AccessControl.sol\":7665:7814  if (!hasRole(role, account)) {... */\n      tag_248\n      jumpi\n        /* \"@openzeppelin/contracts@v4.9.0/access/AccessControl.sol\":7708:7714  _roles */\n      0x00\n        /* \"@openzeppelin/contracts@v4.9.0/access/AccessControl.sol\":7708:7720  _roles[role] */\n      dup3\n      dup2\n      mstore\n      0x20\n      dup2\n      dup2\n      mstore\n      0x40\n      dup1\n      dup4\n      keccak256\n      sub(shl(0xa0, 0x01), 0x01)\n        /* \"@openzeppelin/contracts@v4.9.0/access/AccessControl.sol\":7708:7737  _roles[role].members[account] */\n      dup6\n      and\n      dup5\n      mstore\n      swap1\n      swap2\n      mstore\n      swap1\n      keccak256\n        /* \"@openzeppelin/contracts@v4.9.0/access/AccessControl.sol\":7708:7744  _roles[role].members[account] = true */\n      dup1\n      sload\n      not(0xff)\n      and\n        /* \"@openzeppelin/contracts@v4.9.0/access/AccessControl.sol\":7740:7744  true */\n      0x01\n        /* \"@openzeppelin/contracts@v4.9.0/access/AccessControl.sol\":7708:7744  _roles[role].members[account] = true */\n      or\n      swap1\n      sstore\n        /* \"@openzeppelin/contracts@v4.9.0/access/AccessControl.sol\":7790:7802  _msgSender() */\n      tag_395\n        /* \"@openzeppelin/contracts@v4.9.0/utils/Context.sol\":719:729  msg.sender */\n      caller\n      swap1\n        /* \"@openzeppelin/contracts@v4.9.0/utils/Context.sol\":640:736  function _msgSender() internal view virtual returns (address) {... */\n      jump\n        /* \"@openzeppelin/contracts@v4.9.0/access/AccessControl.sol\":7790:7802  _msgSender() */\n    tag_395:\n      sub(shl(0xa0, 0x01), 0x01)\n        /* \"@openzeppelin/contracts@v4.9.0/access/AccessControl.sol\":7763:7803  RoleGranted(role, account, _msgSender()) */\n      and\n        /* \"@openzeppelin/contracts@v4.9.0/access/AccessControl.sol\":7781:7788  account */\n      dup2\n      sub(shl(0xa0, 0x01), 0x01)\n        /* \"@openzeppelin/contracts@v4.9.0/access/AccessControl.sol\":7763:7803  RoleGranted(role, account, _msgSender()) */\n      and\n        /* \"@openzeppelin/contracts@v4.9.0/access/AccessControl.sol\":7775:7779  role */\n      dup4\n        /* \"@openzeppelin/contracts@v4.9.0/access/AccessControl.sol\":7763:7803  RoleGranted(role, account, _msgSender()) */\n      0x2f8788117e7eff1d82e926ec794901d17c78024a50270940304540a733656f0d\n      mload(0x40)\n      mload(0x40)\n      dup1\n      swap2\n      sub\n      swap1\n      log4\n        /* \"@openzeppelin/contracts@v4.9.0/access/AccessControl.sol\":7587:7820  function _grantRole(bytes32 role, address account) internal virtual {... */\n      pop\n      pop\n      jump\t// out\n        /* \"@openzeppelin/contracts@v4.9.0/access/AccessControl.sol\":7991:8225  function _revokeRole(bytes32 role, address account) internal virtual {... */\n    tag_249:\n        /* \"@openzeppelin/contracts@v4.9.0/access/AccessControl.sol\":8074:8096  hasRole(role, account) */\n      tag_398\n        /* \"@openzeppelin/contracts@v4.9.0/access/AccessControl.sol\":8082:8086  role */\n      dup3\n        /* \"@openzeppelin/contracts@v4.9.0/access/AccessControl.sol\":8088:8095  account */\n      dup3\n        /* \"@openzeppelin/contracts@v4.9.0/access/AccessControl.sol\":8074:8081  hasRole */\n      tag_95\n        /* \"@openzeppelin/contracts@v4.9.0/access/AccessControl.sol\":8074:8096  hasRole(role, account) */\n      jump\t// in\n    tag_398:\n        /* \"@openzeppelin/contracts@v4.9.0/access/AccessControl.sol\":8070:8219  if (hasRole(role, account)) {... */\n      iszero\n      tag_248\n      jumpi\n        /* \"@openzeppelin/contracts@v4.9.0/access/AccessControl.sol\":8144:8149  false */\n      0x00\n        /* \"@openzeppelin/contracts@v4.9.0/access/AccessControl.sol\":8112:8124  _roles[role] */\n      dup3\n      dup2\n      mstore\n      0x20\n      dup2\n      dup2\n      mstore\n      0x40\n      dup1\n      dup4\n      keccak256\n      sub(shl(0xa0, 0x01), 0x01)\n        /* \"@openzeppelin/contracts@v4.9.0/access/AccessControl.sol\":8112:8141  _roles[role].members[account] */\n      dup6\n      and\n      dup1\n      dup6\n      mstore\n      swap3\n      mstore\n      dup1\n      dup4\n      keccak256\n        /* \"@openzeppelin/contracts@v4.9.0/access/AccessControl.sol\":8112:8149  _roles[role].members[account] = false */\n      dup1\n      sload\n      not(0xff)\n      and\n      swap1\n      sstore\n        /* \"@openzeppelin/contracts@v4.9.0/access/AccessControl.sol\":8168:8208  RoleRevoked(role, account, _msgSender()) */\n      mload\n        /* \"@openzeppelin/contracts@v4.9.0/utils/Context.sol\":719:729  msg.sender */\n      caller\n      swap3\n        /* \"@openzeppelin/contracts@v4.9.0/access/AccessControl.sol\":8112:8124  _roles[role] */\n      dup6\n      swap2\n        /* \"@openzeppelin/contracts@v4.9.0/access/AccessControl.sol\":8168:8208  RoleRevoked(role, account, _msgSender()) */\n      0xf6391f5c32d9c69d2a47ea670b442974b53935d1edc7fd64eb21e047a839171b\n      swap2\n        /* \"@openzeppelin/contracts@v4.9.0/access/AccessControl.sol\":8144:8149  false */\n      swap1\n        /* \"@openzeppelin/contracts@v4.9.0/access/AccessControl.sol\":8168:8208  RoleRevoked(role, account, _msgSender()) */\n      log4\n        /* \"@openzeppelin/contracts@v4.9.0/access/AccessControl.sol\":7991:8225  function _revokeRole(bytes32 role, address account) internal virtual {... */\n      pop\n      pop\n      jump\t// out\n        /* \"code_pool.sol\":1705:2118  function _removeCodeHash(address oldOwner, bytes32 codeHash) internal {... */\n    tag_304:\n        /* \"code_pool.sol\":1790:1803  uint256 index */\n      0x00\n        /* \"code_pool.sol\":1785:2112  for (uint256 index; index < mCodeList[oldOwner].length; index++) {... */\n    tag_402:\n      sub(shl(0xa0, 0x01), 0x01)\n        /* \"code_pool.sol\":1813:1832  mCodeList[oldOwner] */\n      dup4\n      and\n      0x00\n      swap1\n      dup2\n      mstore\n        /* \"code_pool.sol\":1813:1822  mCodeList */\n      0x03\n        /* \"code_pool.sol\":1813:1832  mCodeList[oldOwner] */\n      0x20\n      mstore\n      0x40\n      swap1\n      keccak256\n        /* \"code_pool.sol\":1813:1839  mCodeList[oldOwner].length */\n      sload\n        /* \"code_pool.sol\":1805:1839  index < mCodeList[oldOwner].length */\n      dup2\n      lt\n        /* \"code_pool.sol\":1785:2112  for (uint256 index; index < mCodeList[oldOwner].length; index++) {... */\n      iszero\n      tag_403\n      jumpi\n      sub(shl(0xa0, 0x01), 0x01)\n        /* \"code_pool.sol\":1868:1887  mCodeList[oldOwner] */\n      dup4\n      and\n      0x00\n      swap1\n      dup2\n      mstore\n        /* \"code_pool.sol\":1868:1877  mCodeList */\n      0x03\n        /* \"code_pool.sol\":1868:1887  mCodeList[oldOwner] */\n      0x20\n      mstore\n      0x40\n      swap1\n      keccak256\n        /* \"code_pool.sol\":1868:1894  mCodeList[oldOwner][index] */\n      dup1\n      sload\n        /* \"code_pool.sol\":1898:1906  codeHash */\n      dup4\n      swap2\n        /* \"code_pool.sol\":1868:1887  mCodeList[oldOwner] */\n      swap1\n        /* \"code_pool.sol\":1888:1893  index */\n      dup4\n      swap1\n        /* \"code_pool.sol\":1868:1894  mCodeList[oldOwner][index] */\n      dup2\n      lt\n      tag_406\n      jumpi\n      tag_406\n      tag_144\n      jump\t// in\n    tag_406:\n      swap1\n      0x00\n      mstore\n      keccak256(0x00, 0x20)\n      add\n      sload\n        /* \"code_pool.sol\":1868:1906  mCodeList[oldOwner][index] == codeHash */\n      sub\n        /* \"code_pool.sol\":1864:2102  if (mCodeList[oldOwner][index] == codeHash) {... */\n      tag_408\n      jumpi\n      sub(shl(0xa0, 0x01), 0x01)\n        /* \"code_pool.sol\":1955:1974  mCodeList[oldOwner] */\n      dup4\n      and\n      0x00\n      swap1\n      dup2\n      mstore\n        /* \"code_pool.sol\":1955:1964  mCodeList */\n      0x03\n        /* \"code_pool.sol\":1955:1974  mCodeList[oldOwner] */\n      0x20\n      mstore\n      0x40\n      swap1\n      keccak256\n        /* \"code_pool.sol\":1996:2022  mCodeList[oldOwner].length */\n      dup1\n      sload\n        /* \"code_pool.sol\":1996:2026  mCodeList[oldOwner].length - 1 */\n      tag_409\n      swap1\n        /* \"code_pool.sol\":2025:2026  1 */\n      0x01\n      swap1\n        /* \"code_pool.sol\":1996:2026  mCodeList[oldOwner].length - 1 */\n      tag_266\n      jump\t// in\n    tag_409:\n        /* \"code_pool.sol\":1955:2044  mCodeList[oldOwner][... */\n      dup2\n      sload\n      dup2\n      lt\n      tag_411\n      jumpi\n      tag_411\n      tag_144\n      jump\t// in\n    tag_411:\n      swap1\n      0x00\n      mstore\n      keccak256(0x00, 0x20)\n      add\n      sload\n        /* \"code_pool.sol\":1926:1935  mCodeList */\n      0x03\n        /* \"code_pool.sol\":1926:1945  mCodeList[oldOwner] */\n      0x00\n        /* \"code_pool.sol\":1936:1944  oldOwner */\n      dup6\n      sub(shl(0xa0, 0x01), 0x01)\n        /* \"code_pool.sol\":1926:1945  mCodeList[oldOwner] */\n      and\n      sub(shl(0xa0, 0x01), 0x01)\n      and\n      dup2\n      mstore\n      0x20\n      add\n      swap1\n      dup2\n      mstore\n      0x20\n      add\n      0x00\n      keccak256\n        /* \"code_pool.sol\":1946:1951  index */\n      dup3\n        /* \"code_pool.sol\":1926:1952  mCodeList[oldOwner][index] */\n      dup2\n      sload\n      dup2\n      lt\n      tag_414\n      jumpi\n      tag_414\n      tag_144\n      jump\t// in\n    tag_414:\n      0x00\n      swap2\n      dup3\n      mstore\n      0x20\n      dup1\n      dup4\n      keccak256\n      swap1\n      swap2\n      add\n        /* \"code_pool.sol\":1926:2044  mCodeList[oldOwner][index] = mCodeList[oldOwner][... */\n      swap3\n      swap1\n      swap3\n      sstore\n      sub(shl(0xa0, 0x01), 0x01)\n        /* \"code_pool.sol\":2062:2081  mCodeList[oldOwner] */\n      dup6\n      and\n      dup2\n      mstore\n        /* \"code_pool.sol\":2062:2071  mCodeList */\n      0x03\n        /* \"code_pool.sol\":2062:2081  mCodeList[oldOwner] */\n      swap1\n      swap2\n      mstore\n      0x40\n      swap1\n      keccak256\n        /* \"code_pool.sol\":2062:2087  mCodeList[oldOwner].pop() */\n      dup1\n      sload\n      dup1\n      tag_417\n      jumpi\n      tag_417\n      tag_356\n      jump\t// in\n    tag_417:\n      0x01\n      swap1\n      sub\n      dup2\n      dup2\n      swap1\n      0x00\n      mstore\n      keccak256(0x00, 0x20)\n      add\n      0x00\n      swap1\n      sstore\n      swap1\n      sstore\n        /* \"code_pool.sol\":1864:2102  if (mCodeList[oldOwner][index] == codeHash) {... */\n    tag_408:\n        /* \"code_pool.sol\":1841:1848  index++ */\n      dup1\n      tag_419\n      dup2\n      tag_172\n      jump\t// in\n    tag_419:\n      swap2\n      pop\n      pop\n        /* \"code_pool.sol\":1785:2112  for (uint256 index; index < mCodeList[oldOwner].length; index++) {... */\n      jump(tag_402)\n    tag_403:\n      pop\n        /* \"code_pool.sol\":1705:2118  function _removeCodeHash(address oldOwner, bytes32 codeHash) internal {... */\n      pop\n      pop\n      jump\t// out\n        /* \"@openzeppelin/contracts@v4.9.0/access/AccessControl.sol\":3844:4323  function _checkRole(bytes32 role, address account) internal view virtual {... */\n    tag_387:\n        /* \"@openzeppelin/contracts@v4.9.0/access/AccessControl.sol\":3932:3954  hasRole(role, account) */\n      tag_421\n        /* \"@openzeppelin/contracts@v4.9.0/access/AccessControl.sol\":3940:3944  role */\n      dup3\n        /* \"@openzeppelin/contracts@v4.9.0/access/AccessControl.sol\":3946:3953  account */\n      dup3\n        /* \"@openzeppelin/contracts@v4.9.0/access/AccessControl.sol\":3932:3939  hasRole */\n      tag_95\n        /* \"@openzeppelin/contracts@v4.9.0/access/AccessControl.sol\":3932:3954  hasRole(role, account) */\n      jump\t// in\n    tag_421:\n        /* \"@openzeppelin/contracts@v4.9.0/access/AccessControl.sol\":3927:4317  if (!hasRole(role, account)) {... */\n      tag_248\n      jumpi\n        /* \"@openzeppelin/contracts@v4.9.0/access/AccessControl.sol\":4115:4143  Strings.toHexString(account) */\n      tag_423\n        /* \"@openzeppelin/contracts@v4.9.0/access/AccessControl.sol\":4135:4142  account */\n      dup2\n        /* \"@openzeppelin/contracts@v4.9.0/access/AccessControl.sol\":4115:4134  Strings.toHexString */\n      tag_424\n        /* \"@openzeppelin/contracts@v4.9.0/access/AccessControl.sol\":4115:4143  Strings.toHexString(account) */\n      jump\t// in\n    tag_423:\n        /* \"@openzeppelin/contracts@v4.9.0/access/AccessControl.sol\":4214:4252  Strings.toHexString(uint256(role), 32) */\n      tag_425\n        /* \"@openzeppelin/contracts@v4.9.0/access/AccessControl.sol\":4242:4246  role */\n      dup4\n        /* \"@openzeppelin/contracts@v4.9.0/access/AccessControl.sol\":4249:4251  32 */\n      0x20\n        /* \"@openzeppelin/contracts@v4.9.0/access/AccessControl.sol\":4214:4233  Strings.toHexString */\n      tag_426\n        /* \"@openzeppelin/contracts@v4.9.0/access/AccessControl.sol\":4214:4252  Strings.toHexString(uint256(role), 32) */\n      jump\t// in\n    tag_425:\n        /* \"@openzeppelin/contracts@v4.9.0/access/AccessControl.sol\":4022:4274  abi.encodePacked(... */\n      add(0x20, mload(0x40))\n      tag_427\n      swap3\n      swap2\n      swap1\n      tag_428\n      jump\t// in\n    tag_427:\n      0x40\n      dup1\n      mload\n      not(0x1f)\n      dup2\n      dup5\n      sub\n      add\n      dup2\n      mstore\n      swap1\n      dup3\n      swap1\n      mstore\n      shl(0xe5, 0x461bcd)\n        /* \"@openzeppelin/contracts@v4.9.0/access/AccessControl.sol\":3970:4306  revert(... */\n      dup3\n      mstore\n      tag_246\n      swap2\n      0x04\n      add\n      tag_430\n      jump\t// in\n        /* \"@openzeppelin/contracts@v4.9.0/utils/Strings.sol\":2407:2556  function toHexString(address addr) internal pure returns (string memory) {... */\n    tag_424:\n        /* \"@openzeppelin/contracts@v4.9.0/utils/Strings.sol\":2465:2478  string memory */\n      0x60\n        /* \"@openzeppelin/contracts@v4.9.0/utils/Strings.sol\":2497:2549  toHexString(uint256(uint160(addr)), _ADDRESS_LENGTH) */\n      tag_118\n      sub(shl(0xa0, 0x01), 0x01)\n        /* \"@openzeppelin/contracts@v4.9.0/utils/Strings.sol\":2509:2531  uint256(uint160(addr)) */\n      dup4\n      and\n        /* \"@openzeppelin/contracts@v4.9.0/utils/Strings.sol\":343:345  20 */\n      0x14\n        /* \"@openzeppelin/contracts@v4.9.0/utils/Strings.sol\":1818:2255  function toHexString(uint256 value, uint256 length) internal pure returns (string memory) {... */\n    tag_426:\n        /* \"@openzeppelin/contracts@v4.9.0/utils/Strings.sol\":1893:1906  string memory */\n      0x60\n        /* \"@openzeppelin/contracts@v4.9.0/utils/Strings.sol\":1918:1937  bytes memory buffer */\n      0x00\n        /* \"@openzeppelin/contracts@v4.9.0/utils/Strings.sol\":1950:1960  2 * length */\n      tag_434\n        /* \"@openzeppelin/contracts@v4.9.0/utils/Strings.sol\":1954:1960  length */\n      dup4\n        /* \"@openzeppelin/contracts@v4.9.0/utils/Strings.sol\":1950:1951  2 */\n      0x02\n        /* \"@openzeppelin/contracts@v4.9.0/utils/Strings.sol\":1950:1960  2 * length */\n      tag_435\n      jump\t// in\n    tag_434:\n        /* \"@openzeppelin/contracts@v4.9.0/utils/Strings.sol\":1950:1964  2 * length + 2 */\n      tag_436\n      swap1\n        /* \"@openzeppelin/contracts@v4.9.0/utils/Strings.sol\":1963:1964  2 */\n      0x02\n        /* \"@openzeppelin/contracts@v4.9.0/utils/Strings.sol\":1950:1964  2 * length + 2 */\n      tag_437\n      jump\t// in\n    tag_436:\n      sub(shl(0x40, 0x01), 0x01)\n        /* \"@openzeppelin/contracts@v4.9.0/utils/Strings.sol\":1940:1965  new bytes(2 * length + 2) */\n      dup2\n      gt\n      iszero\n      tag_439\n      jumpi\n      tag_439\n      tag_134\n      jump\t// in\n    tag_439:\n      mload(0x40)\n      swap1\n      dup1\n      dup3\n      mstore\n      dup1\n      0x1f\n      add\n      not(0x1f)\n      and\n      0x20\n      add\n      dup3\n      add\n      0x40\n      mstore\n      dup1\n      iszero\n      tag_440\n      jumpi\n      0x20\n      dup3\n      add\n      dup2\n      dup1\n      calldatasize\n      dup4\n      calldatacopy\n      add\n      swap1\n      pop\n    tag_440:\n      pop\n        /* \"@openzeppelin/contracts@v4.9.0/utils/Strings.sol\":1918:1965  bytes memory buffer = new bytes(2 * length + 2) */\n      swap1\n      pop\n      shl(0xfc, 0x03)\n        /* \"@openzeppelin/contracts@v4.9.0/utils/Strings.sol\":1975:1981  buffer */\n      dup2\n        /* \"@openzeppelin/contracts@v4.9.0/utils/Strings.sol\":1982:1983  0 */\n      0x00\n        /* \"@openzeppelin/contracts@v4.9.0/utils/Strings.sol\":1975:1984  buffer[0] */\n      dup2\n      mload\n      dup2\n      lt\n      tag_442\n      jumpi\n      tag_442\n      tag_144\n      jump\t// in\n    tag_442:\n      0x20\n      add\n      add\n        /* \"@openzeppelin/contracts@v4.9.0/utils/Strings.sol\":1975:1990  buffer[0] = \"0\" */\n      swap1\n      not(sub(shl(0xf8, 0x01), 0x01))\n      and\n      swap1\n      dup2\n      0x00\n      byte\n      swap1\n      mstore8\n      pop\n      shl(0xfb, 0x0f)\n        /* \"@openzeppelin/contracts@v4.9.0/utils/Strings.sol\":2000:2006  buffer */\n      dup2\n        /* \"@openzeppelin/contracts@v4.9.0/utils/Strings.sol\":2007:2008  1 */\n      0x01\n        /* \"@openzeppelin/contracts@v4.9.0/utils/Strings.sol\":2000:2009  buffer[1] */\n      dup2\n      mload\n      dup2\n      lt\n      tag_444\n      jumpi\n      tag_444\n      tag_144\n      jump\t// in\n    tag_444:\n      0x20\n      add\n      add\n        /* \"@openzeppelin/contracts@v4.9.0/utils/Strings.sol\":2000:2015  buffer[1] = \"x\" */\n      swap1\n      not(sub(shl(0xf8, 0x01), 0x01))\n      and\n      swap1\n      dup2\n      0x00\n      byte\n      swap1\n      mstore8\n      pop\n        /* \"@openzeppelin/contracts@v4.9.0/utils/Strings.sol\":2030:2039  uint256 i */\n      0x00\n        /* \"@openzeppelin/contracts@v4.9.0/utils/Strings.sol\":2042:2052  2 * length */\n      tag_448\n        /* \"@openzeppelin/contracts@v4.9.0/utils/Strings.sol\":2046:2052  length */\n      dup5\n        /* \"@openzeppelin/contracts@v4.9.0/utils/Strings.sol\":2042:2043  2 */\n      0x02\n        /* \"@openzeppelin/contracts@v4.9.0/utils/Strings.sol\":2042:2052  2 * length */\n      tag_435\n      jump\t// in\n    tag_448:\n        /* \"@openzeppelin/contracts@v4.9.0/utils/Strings.sol\":2042:2056  2 * length + 1 */\n      tag_449\n      swap1\n        /* \"@openzeppelin/contracts@v4.9.0/utils/Strings.sol\":2055:2056  1 */\n      0x01\n        /* \"@openzeppelin/contracts@v4.9.0/utils/Strings.sol\":2042:2056  2 * length + 1 */\n      tag_437\n      jump\t// in\n    tag_449:\n        /* \"@openzeppelin/contracts@v4.9.0/utils/Strings.sol\":2030:2056  uint256 i = 2 * length + 1 */\n      swap1\n      pop\n        /* \"@openzeppelin/contracts@v4.9.0/utils/Strings.sol\":2025:2153  for (uint256 i = 2 * length + 1; i > 1; --i) {... */\n    tag_445:\n        /* \"@openzeppelin/contracts@v4.9.0/utils/Strings.sol\":2062:2063  1 */\n      0x01\n        /* \"@openzeppelin/contracts@v4.9.0/utils/Strings.sol\":2058:2059  i */\n      dup2\n        /* \"@openzeppelin/contracts@v4.9.0/utils/Strings.sol\":2058:2063  i > 1 */\n      gt\n        /* \"@openzeppelin/contracts@v4.9.0/utils/Strings.sol\":2025:2153  for (uint256 i = 2 * length + 1; i > 1; --i) {... */\n      iszero\n      tag_446\n      jumpi\n      shl(0x81, 0x181899199a1a9b1b9c1cb0b131b232b3)\n        /* \"@openzeppelin/contracts@v4.9.0/utils/Strings.sol\":2105:2110  value */\n      dup6\n        /* \"@openzeppelin/contracts@v4.9.0/utils/Strings.sol\":2113:2116  0xf */\n      0x0f\n        /* \"@openzeppelin/contracts@v4.9.0/utils/Strings.sol\":2105:2116  value & 0xf */\n      and\n        /* \"@openzeppelin/contracts@v4.9.0/utils/Strings.sol\":2096:2117  _SYMBOLS[value & 0xf] */\n      0x10\n      dup2\n      lt\n      tag_451\n      jumpi\n      tag_451\n      tag_144\n      jump\t// in\n    tag_451:\n      byte\n      0xf8\n      shl\n        /* \"@openzeppelin/contracts@v4.9.0/utils/Strings.sol\":2084:2090  buffer */\n      dup3\n        /* \"@openzeppelin/contracts@v4.9.0/utils/Strings.sol\":2091:2092  i */\n      dup3\n        /* \"@openzeppelin/contracts@v4.9.0/utils/Strings.sol\":2084:2093  buffer[i] */\n      dup2\n      mload\n      dup2\n      lt\n      tag_453\n      jumpi\n      tag_453\n      tag_144\n      jump\t// in\n    tag_453:\n      0x20\n      add\n      add\n        /* \"@openzeppelin/contracts@v4.9.0/utils/Strings.sol\":2084:2117  buffer[i] = _SYMBOLS[value & 0xf] */\n      swap1\n      not(sub(shl(0xf8, 0x01), 0x01))\n      and\n      swap1\n      dup2\n      0x00\n      byte\n      swap1\n      mstore8\n      pop\n        /* \"@openzeppelin/contracts@v4.9.0/utils/Strings.sol\":2141:2142  4 */\n      0x04\n        /* \"@openzeppelin/contracts@v4.9.0/utils/Strings.sol\":2131:2142  value >>= 4 */\n      swap5\n      swap1\n      swap5\n      shr\n      swap4\n        /* \"@openzeppelin/contracts@v4.9.0/utils/Strings.sol\":2065:2068  --i */\n      tag_454\n      dup2\n      tag_455\n      jump\t// in\n    tag_454:\n      swap1\n      pop\n        /* \"@openzeppelin/contracts@v4.9.0/utils/Strings.sol\":2025:2153  for (uint256 i = 2 * length + 1; i > 1; --i) {... */\n      jump(tag_445)\n    tag_446:\n      pop\n        /* \"@openzeppelin/contracts@v4.9.0/utils/Strings.sol\":2170:2180  value == 0 */\n      dup4\n      iszero\n        /* \"@openzeppelin/contracts@v4.9.0/utils/Strings.sol\":2162:2217  require(value == 0, \"Strings: hex length insufficient\") */\n      tag_456\n      jumpi\n      mload(0x40)\n      shl(0xe5, 0x461bcd)\n      dup2\n      mstore\n        /* \"#utility.yul\":23976:23978   */\n      0x20\n        /* \"@openzeppelin/contracts@v4.9.0/utils/Strings.sol\":2162:2217  require(value == 0, \"Strings: hex length insufficient\") */\n      0x04\n      dup3\n      add\n        /* \"#utility.yul\":23958:23979   */\n      dup2\n      swap1\n      mstore\n        /* \"#utility.yul\":23995:24013   */\n      0x24\n      dup3\n      add\n        /* \"#utility.yul\":23988:24018   */\n      mstore\n        /* \"#utility.yul\":24054:24088   */\n      0x537472696e67733a20686578206c656e67746820696e73756666696369656e74\n        /* \"#utility.yul\":24034:24052   */\n      0x44\n      dup3\n      add\n        /* \"#utility.yul\":24027:24089   */\n      mstore\n        /* \"#utility.yul\":24106:24124   */\n      0x64\n      add\n        /* \"@openzeppelin/contracts@v4.9.0/utils/Strings.sol\":2162:2217  require(value == 0, \"Strings: hex length insufficient\") */\n      tag_246\n        /* \"#utility.yul\":23774:24130   */\n      jump\n        /* \"@openzeppelin/contracts@v4.9.0/utils/Strings.sol\":2162:2217  require(value == 0, \"Strings: hex length insufficient\") */\n    tag_456:\n        /* \"@openzeppelin/contracts@v4.9.0/utils/Strings.sol\":2241:2247  buffer */\n      swap4\n        /* \"@openzeppelin/contracts@v4.9.0/utils/Strings.sol\":1818:2255  function toHexString(uint256 value, uint256 length) internal pure returns (string memory) {... */\n      swap3\n      pop\n      pop\n      pop\n      jump\t// out\n    tag_138:\n      0x40\n      dup1\n      mload\n      0x0200\n      dup2\n      add\n      dup3\n      mstore\n      0x00\n      dup1\n      dup3\n      mstore\n      0x20\n      dup3\n      add\n      dup2\n      swap1\n      mstore\n      swap2\n      dup2\n      add\n      dup3\n      swap1\n      mstore\n      0x60\n      dup2\n      add\n      dup3\n      swap1\n      mstore\n      0x80\n      dup2\n      add\n      dup3\n      swap1\n      mstore\n      0xa0\n      dup2\n      add\n      dup3\n      swap1\n      mstore\n      0xc0\n      dup2\n      add\n      dup3\n      swap1\n      mstore\n      0xe0\n      dup2\n      add\n      dup3\n      swap1\n      mstore\n      swap1\n      0x0100\n      dup3\n      add\n      swap1\n      dup2\n      mstore\n      0x20\n      add\n      0x60\n      dup2\n      mstore\n      0x20\n      add\n      0x00\n      dup2\n      mstore\n      0x20\n      add\n      0x00\n      dup2\n      mstore\n      0x20\n      add\n      0x00\n      dup2\n      mstore\n      0x20\n      add\n      0x00\n      dup1\n      not\n      and\n      dup2\n      mstore\n      0x20\n      add\n      0x60\n      dup2\n      mstore\n      0x20\n      add\n      0x60\n      dup2\n      mstore\n      pop\n      swap1\n      jump\t// out\n    tag_178:\n      pop\n      dup1\n      sload\n      tag_461\n      swap1\n      tag_151\n      jump\t// in\n    tag_461:\n      0x00\n      dup3\n      sstore\n      dup1\n      0x1f\n      lt\n      tag_463\n      jumpi\n      pop\n      pop\n      jump\t// out\n    tag_463:\n      0x1f\n      add\n      0x20\n      swap1\n      div\n      swap1\n      0x00\n      mstore\n      keccak256(0x00, 0x20)\n      swap1\n      dup2\n      add\n      swap1\n      tag_385\n      swap2\n      swap1\n      tag_465\n      jump\t// in\n    tag_181:\n      pop\n      dup1\n      sload\n      0x00\n      dup3\n      sstore\n      swap1\n      0x00\n      mstore\n      keccak256(0x00, 0x20)\n      swap1\n      dup2\n      add\n      swap1\n      tag_385\n      swap2\n      swap1\n      tag_468\n      jump\t// in\n    tag_370:\n      dup3\n      dup1\n      sload\n      dup3\n      dup3\n      sstore\n      swap1\n      0x00\n      mstore\n      keccak256(0x00, 0x20)\n      swap1\n      dup2\n      add\n      swap3\n      dup3\n      iszero\n      tag_471\n      jumpi\n      swap2\n      0x20\n      mul\n      dup3\n      add\n    tag_470:\n      dup3\n      dup2\n      gt\n      iszero\n      tag_471\n      jumpi\n      dup3\n      mload\n      dup3\n      swap1\n      tag_472\n      swap1\n      dup3\n      tag_367\n      jump\t// in\n    tag_472:\n      pop\n      swap2\n      0x20\n      add\n      swap2\n      swap1\n      0x01\n      add\n      swap1\n      jump(tag_470)\n    tag_471:\n      pop\n      tag_473\n      swap3\n      swap2\n      pop\n      tag_468\n      jump\t// in\n    tag_473:\n      pop\n      swap1\n      jump\t// out\n    tag_465:\n    tag_474:\n      dup1\n      dup3\n      gt\n      iszero\n      tag_473\n      jumpi\n      0x00\n      dup2\n      sstore\n      0x01\n      add\n      jump(tag_474)\n    tag_468:\n      dup1\n      dup3\n      gt\n      iszero\n      tag_473\n      jumpi\n      0x00\n      tag_478\n      dup3\n      dup3\n      tag_178\n      jump\t// in\n    tag_478:\n      pop\n      0x01\n      add\n      jump(tag_468)\n        /* \"#utility.yul\":14:300   */\n    tag_28:\n        /* \"#utility.yul\":72:78   */\n      0x00\n        /* \"#utility.yul\":125:127   */\n      0x20\n        /* \"#utility.yul\":113:122   */\n      dup3\n        /* \"#utility.yul\":104:111   */\n      dup5\n        /* \"#utility.yul\":100:123   */\n      sub\n        /* \"#utility.yul\":96:128   */\n      slt\n        /* \"#utility.yul\":93:145   */\n      iszero\n      tag_499\n      jumpi\n        /* \"#utility.yul\":141:142   */\n      0x00\n        /* \"#utility.yul\":138:139   */\n      dup1\n        /* \"#utility.yul\":131:143   */\n      revert\n        /* \"#utility.yul\":93:145   */\n    tag_499:\n        /* \"#utility.yul\":167:190   */\n      dup2\n      calldataload\n      not(sub(shl(0xe0, 0x01), 0x01))\n        /* \"#utility.yul\":219:251   */\n      dup2\n      and\n        /* \"#utility.yul\":209:252   */\n      dup2\n      eq\n        /* \"#utility.yul\":199:270   */\n      tag_456\n      jumpi\n        /* \"#utility.yul\":266:267   */\n      0x00\n        /* \"#utility.yul\":263:264   */\n      dup1\n        /* \"#utility.yul\":256:268   */\n      revert\n        /* \"#utility.yul\":497:677   */\n    tag_34:\n        /* \"#utility.yul\":556:562   */\n      0x00\n        /* \"#utility.yul\":609:611   */\n      0x20\n        /* \"#utility.yul\":597:606   */\n      dup3\n        /* \"#utility.yul\":588:595   */\n      dup5\n        /* \"#utility.yul\":584:607   */\n      sub\n        /* \"#utility.yul\":580:612   */\n      slt\n        /* \"#utility.yul\":577:629   */\n      iszero\n      tag_503\n      jumpi\n        /* \"#utility.yul\":625:626   */\n      0x00\n        /* \"#utility.yul\":622:623   */\n      dup1\n        /* \"#utility.yul\":615:627   */\n      revert\n        /* \"#utility.yul\":577:629   */\n    tag_503:\n      pop\n        /* \"#utility.yul\":648:671   */\n      calldataload\n      swap2\n        /* \"#utility.yul\":497:677   */\n      swap1\n      pop\n      jump\t// out\n        /* \"#utility.yul\":682:855   */\n    tag_479:\n        /* \"#utility.yul\":750:770   */\n      dup1\n      calldataload\n      sub(shl(0xa0, 0x01), 0x01)\n        /* \"#utility.yul\":799:830   */\n      dup2\n      and\n        /* \"#utility.yul\":789:831   */\n      dup2\n      eq\n        /* \"#utility.yul\":779:849   */\n      tag_505\n      jumpi\n        /* \"#utility.yul\":845:846   */\n      0x00\n        /* \"#utility.yul\":842:843   */\n      dup1\n        /* \"#utility.yul\":835:847   */\n      revert\n        /* \"#utility.yul\":779:849   */\n    tag_505:\n        /* \"#utility.yul\":682:855   */\n      swap2\n      swap1\n      pop\n      jump\t// out\n        /* \"#utility.yul\":860:1046   */\n    tag_39:\n        /* \"#utility.yul\":919:925   */\n      0x00\n        /* \"#utility.yul\":972:974   */\n      0x20\n        /* \"#utility.yul\":960:969   */\n      dup3\n        /* \"#utility.yul\":951:958   */\n      dup5\n        /* \"#utility.yul\":947:970   */\n      sub\n        /* \"#utility.yul\":943:975   */\n      slt\n        /* \"#utility.yul\":940:992   */\n      iszero\n      tag_507\n      jumpi\n        /* \"#utility.yul\":988:989   */\n      0x00\n        /* \"#utility.yul\":985:986   */\n      dup1\n        /* \"#utility.yul\":978:990   */\n      revert\n        /* \"#utility.yul\":940:992   */\n    tag_507:\n        /* \"#utility.yul\":1011:1040   */\n      tag_456\n        /* \"#utility.yul\":1030:1039   */\n      dup3\n        /* \"#utility.yul\":1011:1040   */\n      tag_479\n      jump\t// in\n        /* \"#utility.yul\":1160:1287   */\n    tag_128:\n        /* \"#utility.yul\":1221:1231   */\n      0x4e487b71\n        /* \"#utility.yul\":1216:1219   */\n      0xe0\n        /* \"#utility.yul\":1212:1232   */\n      shl\n        /* \"#utility.yul\":1209:1210   */\n      0x00\n        /* \"#utility.yul\":1202:1233   */\n      mstore\n        /* \"#utility.yul\":1252:1256   */\n      0x21\n        /* \"#utility.yul\":1249:1250   */\n      0x04\n        /* \"#utility.yul\":1242:1257   */\n      mstore\n        /* \"#utility.yul\":1276:1280   */\n      0x24\n        /* \"#utility.yul\":1273:1274   */\n      0x00\n        /* \"#utility.yul\":1266:1281   */\n      revert\n        /* \"#utility.yul\":1292:1526   */\n    tag_481:\n        /* \"#utility.yul\":1370:1371   */\n      0x04\n        /* \"#utility.yul\":1363:1368   */\n      dup2\n        /* \"#utility.yul\":1360:1372   */\n      lt\n        /* \"#utility.yul\":1350:1493   */\n      tag_512\n      jumpi\n        /* \"#utility.yul\":1415:1425   */\n      0x4e487b71\n        /* \"#utility.yul\":1410:1413   */\n      0xe0\n        /* \"#utility.yul\":1406:1426   */\n      shl\n        /* \"#utility.yul\":1403:1404   */\n      0x00\n        /* \"#utility.yul\":1396:1427   */\n      mstore\n        /* \"#utility.yul\":1450:1454   */\n      0x21\n        /* \"#utility.yul\":1447:1448   */\n      0x04\n        /* \"#utility.yul\":1440:1455   */\n      mstore\n        /* \"#utility.yul\":1478:1482   */\n      0x24\n        /* \"#utility.yul\":1475:1476   */\n      0x00\n        /* \"#utility.yul\":1468:1483   */\n      revert\n        /* \"#utility.yul\":1350:1493   */\n    tag_512:\n        /* \"#utility.yul\":1502:1520   */\n      swap1\n      mstore\n        /* \"#utility.yul\":1292:1526   */\n      jump\t// out\n        /* \"#utility.yul\":1531:1781   */\n    tag_482:\n        /* \"#utility.yul\":1616:1617   */\n      0x00\n        /* \"#utility.yul\":1626:1739   */\n    tag_514:\n        /* \"#utility.yul\":1640:1646   */\n      dup4\n        /* \"#utility.yul\":1637:1638   */\n      dup2\n        /* \"#utility.yul\":1634:1647   */\n      lt\n        /* \"#utility.yul\":1626:1739   */\n      iszero\n      tag_516\n      jumpi\n        /* \"#utility.yul\":1716:1727   */\n      dup2\n      dup2\n      add\n        /* \"#utility.yul\":1710:1728   */\n      mload\n        /* \"#utility.yul\":1697:1708   */\n      dup4\n      dup3\n      add\n        /* \"#utility.yul\":1690:1729   */\n      mstore\n        /* \"#utility.yul\":1662:1664   */\n      0x20\n        /* \"#utility.yul\":1655:1665   */\n      add\n        /* \"#utility.yul\":1626:1739   */\n      jump(tag_514)\n    tag_516:\n      pop\n      pop\n        /* \"#utility.yul\":1773:1774   */\n      0x00\n        /* \"#utility.yul\":1755:1771   */\n      swap2\n      add\n        /* \"#utility.yul\":1748:1775   */\n      mstore\n        /* \"#utility.yul\":1531:1781   */\n      jump\t// out\n        /* \"#utility.yul\":1786:2057   */\n    tag_483:\n        /* \"#utility.yul\":1828:1831   */\n      0x00\n        /* \"#utility.yul\":1866:1871   */\n      dup2\n        /* \"#utility.yul\":1860:1872   */\n      mload\n        /* \"#utility.yul\":1893:1899   */\n      dup1\n        /* \"#utility.yul\":1888:1891   */\n      dup5\n        /* \"#utility.yul\":1881:1900   */\n      mstore\n        /* \"#utility.yul\":1909:1985   */\n      tag_518\n        /* \"#utility.yul\":1978:1984   */\n      dup2\n        /* \"#utility.yul\":1971:1975   */\n      0x20\n        /* \"#utility.yul\":1966:1969   */\n      dup7\n        /* \"#utility.yul\":1962:1976   */\n      add\n        /* \"#utility.yul\":1955:1959   */\n      0x20\n        /* \"#utility.yul\":1948:1953   */\n      dup7\n        /* \"#utility.yul\":1944:1960   */\n      add\n        /* \"#utility.yul\":1909:1985   */\n      tag_482\n      jump\t// in\n    tag_518:\n        /* \"#utility.yul\":2039:2041   */\n      0x1f\n        /* \"#utility.yul\":2018:2033   */\n      add\n      not(0x1f)\n        /* \"#utility.yul\":2014:2043   */\n      and\n        /* \"#utility.yul\":2005:2044   */\n      swap3\n      swap1\n      swap3\n      add\n        /* \"#utility.yul\":2046:2050   */\n      0x20\n        /* \"#utility.yul\":2001:2051   */\n      add\n      swap3\n        /* \"#utility.yul\":1786:2057   */\n      swap2\n      pop\n      pop\n      jump\t// out\n        /* \"#utility.yul\":2062:2629   */\n    tag_484:\n        /* \"#utility.yul\":2114:2117   */\n      0x00\n        /* \"#utility.yul\":2152:2157   */\n      dup2\n        /* \"#utility.yul\":2146:2158   */\n      mload\n        /* \"#utility.yul\":2179:2185   */\n      dup1\n        /* \"#utility.yul\":2174:2177   */\n      dup5\n        /* \"#utility.yul\":2167:2186   */\n      mstore\n        /* \"#utility.yul\":2205:2209   */\n      0x20\n        /* \"#utility.yul\":2234:2236   */\n      dup1\n        /* \"#utility.yul\":2229:2232   */\n      dup6\n        /* \"#utility.yul\":2225:2237   */\n      add\n        /* \"#utility.yul\":2218:2237   */\n      swap5\n      pop\n        /* \"#utility.yul\":2259:2262   */\n      dup5\n        /* \"#utility.yul\":2299:2305   */\n      dup3\n        /* \"#utility.yul\":2296:2297   */\n      0x05\n        /* \"#utility.yul\":2292:2306   */\n      shl\n        /* \"#utility.yul\":2287:2290   */\n      dup7\n        /* \"#utility.yul\":2283:2307   */\n      add\n        /* \"#utility.yul\":2341:2343   */\n      dup3\n        /* \"#utility.yul\":2334:2339   */\n      dup7\n        /* \"#utility.yul\":2330:2344   */\n      add\n        /* \"#utility.yul\":2362:2363   */\n      0x00\n        /* \"#utility.yul\":2372:2603   */\n    tag_520:\n        /* \"#utility.yul\":2386:2392   */\n      dup6\n        /* \"#utility.yul\":2383:2384   */\n      dup2\n        /* \"#utility.yul\":2380:2393   */\n      lt\n        /* \"#utility.yul\":2372:2603   */\n      iszero\n      tag_522\n      jumpi\n        /* \"#utility.yul\":2457:2462   */\n      dup4\n        /* \"#utility.yul\":2451:2455   */\n      dup4\n        /* \"#utility.yul\":2447:2463   */\n      sub\n        /* \"#utility.yul\":2442:2445   */\n      dup10\n        /* \"#utility.yul\":2435:2464   */\n      mstore\n        /* \"#utility.yul\":2485:2523   */\n      tag_523\n        /* \"#utility.yul\":2518:2522   */\n      dup4\n        /* \"#utility.yul\":2509:2515   */\n      dup4\n        /* \"#utility.yul\":2503:2516   */\n      mload\n        /* \"#utility.yul\":2485:2523   */\n      tag_483\n      jump\t// in\n    tag_523:\n        /* \"#utility.yul\":2581:2593   */\n      swap9\n      dup6\n      add\n      swap9\n        /* \"#utility.yul\":2477:2523   */\n      swap3\n      pop\n        /* \"#utility.yul\":2546:2561   */\n      swap1\n      dup5\n      add\n      swap1\n        /* \"#utility.yul\":2408:2409   */\n      0x01\n        /* \"#utility.yul\":2401:2410   */\n      add\n        /* \"#utility.yul\":2372:2603   */\n      jump(tag_520)\n    tag_522:\n      pop\n        /* \"#utility.yul\":2619:2623   */\n      swap1\n      swap8\n        /* \"#utility.yul\":2062:2629   */\n      swap7\n      pop\n      pop\n      pop\n      pop\n      pop\n      pop\n      pop\n      jump\t// out\n        /* \"#utility.yul\":2634:4211   */\n    tag_485:\n        /* \"#utility.yul\":2743:2755   */\n      dup1\n      mload\n      sub(shl(0xa0, 0x01), 0x01)\n        /* \"#utility.yul\":1117:1148   */\n      and\n        /* \"#utility.yul\":1105:1149   */\n      dup3\n      mstore\n        /* \"#utility.yul\":2681:2684   */\n      0x00\n        /* \"#utility.yul\":2709:2715   */\n      0x0200\n        /* \"#utility.yul\":2810:2814   */\n      0x20\n        /* \"#utility.yul\":2803:2808   */\n      dup4\n        /* \"#utility.yul\":2799:2815   */\n      add\n        /* \"#utility.yul\":2793:2816   */\n      mload\n        /* \"#utility.yul\":2786:2790   */\n      0x20\n        /* \"#utility.yul\":2781:2784   */\n      dup6\n        /* \"#utility.yul\":2777:2791   */\n      add\n        /* \"#utility.yul\":2770:2817   */\n      mstore\n        /* \"#utility.yul\":2866:2870   */\n      0x40\n        /* \"#utility.yul\":2859:2864   */\n      dup4\n        /* \"#utility.yul\":2855:2871   */\n      add\n        /* \"#utility.yul\":2849:2872   */\n      mload\n        /* \"#utility.yul\":2842:2846   */\n      0x40\n        /* \"#utility.yul\":2837:2840   */\n      dup6\n        /* \"#utility.yul\":2833:2847   */\n      add\n        /* \"#utility.yul\":2826:2873   */\n      mstore\n        /* \"#utility.yul\":2922:2926   */\n      0x60\n        /* \"#utility.yul\":2915:2920   */\n      dup4\n        /* \"#utility.yul\":2911:2927   */\n      add\n        /* \"#utility.yul\":2905:2928   */\n      mload\n        /* \"#utility.yul\":2898:2902   */\n      0x60\n        /* \"#utility.yul\":2893:2896   */\n      dup6\n        /* \"#utility.yul\":2889:2903   */\n      add\n        /* \"#utility.yul\":2882:2929   */\n      mstore\n        /* \"#utility.yul\":2978:2982   */\n      0x80\n        /* \"#utility.yul\":2971:2976   */\n      dup4\n        /* \"#utility.yul\":2967:2983   */\n      add\n        /* \"#utility.yul\":2961:2984   */\n      mload\n        /* \"#utility.yul\":2954:2958   */\n      0x80\n        /* \"#utility.yul\":2949:2952   */\n      dup6\n        /* \"#utility.yul\":2945:2959   */\n      add\n        /* \"#utility.yul\":2938:2985   */\n      mstore\n        /* \"#utility.yul\":3034:3038   */\n      0xa0\n        /* \"#utility.yul\":3027:3032   */\n      dup4\n        /* \"#utility.yul\":3023:3039   */\n      add\n        /* \"#utility.yul\":3017:3040   */\n      mload\n        /* \"#utility.yul\":3010:3014   */\n      0xa0\n        /* \"#utility.yul\":3005:3008   */\n      dup6\n        /* \"#utility.yul\":3001:3015   */\n      add\n        /* \"#utility.yul\":2994:3041   */\n      mstore\n        /* \"#utility.yul\":3090:3094   */\n      0xc0\n        /* \"#utility.yul\":3083:3088   */\n      dup4\n        /* \"#utility.yul\":3079:3095   */\n      add\n        /* \"#utility.yul\":3073:3096   */\n      mload\n        /* \"#utility.yul\":3066:3070   */\n      0xc0\n        /* \"#utility.yul\":3061:3064   */\n      dup6\n        /* \"#utility.yul\":3057:3071   */\n      add\n        /* \"#utility.yul\":3050:3097   */\n      mstore\n        /* \"#utility.yul\":3143:3147   */\n      0xe0\n        /* \"#utility.yul\":3136:3141   */\n      dup4\n        /* \"#utility.yul\":3132:3148   */\n      add\n        /* \"#utility.yul\":3126:3149   */\n      mload\n        /* \"#utility.yul\":3158:3206   */\n      tag_526\n        /* \"#utility.yul\":3200:3204   */\n      0xe0\n        /* \"#utility.yul\":3195:3198   */\n      dup7\n        /* \"#utility.yul\":3191:3205   */\n      add\n        /* \"#utility.yul\":3177:3189   */\n      dup3\n      sub(shl(0xa0, 0x01), 0x01)\n        /* \"#utility.yul\":1117:1148   */\n      and\n        /* \"#utility.yul\":1105:1149   */\n      swap1\n      mstore\n        /* \"#utility.yul\":1051:1155   */\n      jump\n        /* \"#utility.yul\":3158:3206   */\n    tag_526:\n      pop\n        /* \"#utility.yul\":3225:3231   */\n      0x0100\n        /* \"#utility.yul\":3279:3281   */\n      dup1\n        /* \"#utility.yul\":3272:3277   */\n      dup5\n        /* \"#utility.yul\":3268:3282   */\n      add\n        /* \"#utility.yul\":3262:3283   */\n      mload\n        /* \"#utility.yul\":3292:3344   */\n      tag_527\n        /* \"#utility.yul\":3340:3342   */\n      dup3\n        /* \"#utility.yul\":3335:3338   */\n      dup8\n        /* \"#utility.yul\":3331:3343   */\n      add\n        /* \"#utility.yul\":3315:3329   */\n      dup3\n        /* \"#utility.yul\":3292:3344   */\n      tag_481\n      jump\t// in\n    tag_527:\n      pop\n      pop\n        /* \"#utility.yul\":3363:3369   */\n      0x0120\n        /* \"#utility.yul\":3417:3419   */\n      dup1\n        /* \"#utility.yul\":3410:3415   */\n      dup5\n        /* \"#utility.yul\":3406:3420   */\n      add\n        /* \"#utility.yul\":3400:3421   */\n      mload\n        /* \"#utility.yul\":3451:3453   */\n      dup3\n        /* \"#utility.yul\":3446:3448   */\n      dup3\n        /* \"#utility.yul\":3441:3444   */\n      dup8\n        /* \"#utility.yul\":3437:3449   */\n      add\n        /* \"#utility.yul\":3430:3454   */\n      mstore\n        /* \"#utility.yul\":3475:3522   */\n      tag_528\n        /* \"#utility.yul\":3518:3520   */\n      dup4\n        /* \"#utility.yul\":3513:3516   */\n      dup8\n        /* \"#utility.yul\":3509:3521   */\n      add\n        /* \"#utility.yul\":3493:3507   */\n      dup3\n        /* \"#utility.yul\":3475:3522   */\n      tag_483\n      jump\t// in\n    tag_528:\n        /* \"#utility.yul\":3541:3547   */\n      0x0140\n        /* \"#utility.yul\":3583:3597   */\n      dup7\n      dup2\n      add\n        /* \"#utility.yul\":3577:3598   */\n      mload\n        /* \"#utility.yul\":3563:3575   */\n      swap1\n      dup9\n      add\n        /* \"#utility.yul\":3556:3599   */\n      mstore\n        /* \"#utility.yul\":3618:3624   */\n      0x0160\n        /* \"#utility.yul\":3660:3674   */\n      dup1\n      dup8\n      add\n        /* \"#utility.yul\":3654:3675   */\n      mload\n        /* \"#utility.yul\":3640:3652   */\n      swap1\n      dup9\n      add\n        /* \"#utility.yul\":3633:3676   */\n      mstore\n        /* \"#utility.yul\":3695:3701   */\n      0x0180\n        /* \"#utility.yul\":3737:3751   */\n      dup1\n      dup8\n      add\n        /* \"#utility.yul\":3731:3752   */\n      mload\n        /* \"#utility.yul\":3717:3729   */\n      swap1\n      dup9\n      add\n        /* \"#utility.yul\":3710:3753   */\n      mstore\n        /* \"#utility.yul\":3772:3778   */\n      0x01a0\n        /* \"#utility.yul\":3814:3828   */\n      dup1\n      dup8\n      add\n        /* \"#utility.yul\":3808:3829   */\n      mload\n        /* \"#utility.yul\":3794:3806   */\n      swap1\n      dup9\n      add\n        /* \"#utility.yul\":3787:3830   */\n      mstore\n        /* \"#utility.yul\":3849:3855   */\n      0x01c0\n        /* \"#utility.yul\":3892:3906   */\n      dup1\n      dup8\n      add\n        /* \"#utility.yul\":3886:3907   */\n      mload\n        /* \"#utility.yul\":3937:3951   */\n      dup9\n      dup4\n      sub\n        /* \"#utility.yul\":3923:3935   */\n      dup3\n      dup11\n      add\n        /* \"#utility.yul\":3916:3952   */\n      mstore\n        /* \"#utility.yul\":3463:3522   */\n      swap2\n      swap5\n      pop\n        /* \"#utility.yul\":3849:3855   */\n      swap3\n      pop\n        /* \"#utility.yul\":3886:3907   */\n      swap1\n      pop\n        /* \"#utility.yul\":3975:4014   */\n      tag_529\n        /* \"#utility.yul\":3463:3522   */\n      dup4\n        /* \"#utility.yul\":3886:3907   */\n      dup3\n        /* \"#utility.yul\":3975:4014   */\n      tag_483\n      jump\t// in\n    tag_529:\n        /* \"#utility.yul\":3961:4014   */\n      swap3\n      pop\n      pop\n      pop\n        /* \"#utility.yul\":4033:4039   */\n      0x01e0\n        /* \"#utility.yul\":4087:4089   */\n      dup1\n        /* \"#utility.yul\":4080:4085   */\n      dup5\n        /* \"#utility.yul\":4076:4090   */\n      add\n        /* \"#utility.yul\":4070:4091   */\n      mload\n        /* \"#utility.yul\":4133:4136   */\n      dup6\n        /* \"#utility.yul\":4125:4131   */\n      dup4\n        /* \"#utility.yul\":4121:4137   */\n      sub\n        /* \"#utility.yul\":4116:4118   */\n      dup3\n        /* \"#utility.yul\":4111:4114   */\n      dup8\n        /* \"#utility.yul\":4107:4119   */\n      add\n        /* \"#utility.yul\":4100:4138   */\n      mstore\n        /* \"#utility.yul\":4154:4205   */\n      tag_530\n        /* \"#utility.yul\":4198:4204   */\n      dup4\n        /* \"#utility.yul\":4182:4196   */\n      dup3\n        /* \"#utility.yul\":4154:4205   */\n      tag_484\n      jump\t// in\n    tag_530:\n        /* \"#utility.yul\":4147:4205   */\n      swap7\n        /* \"#utility.yul\":2634:4211   */\n      swap6\n      pop\n      pop\n      pop\n      pop\n      pop\n      pop\n      jump\t// out\n        /* \"#utility.yul\":4216:5048   */\n    tag_42:\n        /* \"#utility.yul\":4402:4406   */\n      0x00\n        /* \"#utility.yul\":4431:4433   */\n      0x20\n        /* \"#utility.yul\":4471:4473   */\n      dup1\n        /* \"#utility.yul\":4460:4469   */\n      dup4\n        /* \"#utility.yul\":4456:4474   */\n      add\n        /* \"#utility.yul\":4501:4503   */\n      dup2\n        /* \"#utility.yul\":4490:4499   */\n      dup5\n        /* \"#utility.yul\":4483:4504   */\n      mstore\n        /* \"#utility.yul\":4524:4530   */\n      dup1\n        /* \"#utility.yul\":4559:4565   */\n      dup6\n        /* \"#utility.yul\":4553:4566   */\n      mload\n        /* \"#utility.yul\":4590:4596   */\n      dup1\n        /* \"#utility.yul\":4582:4588   */\n      dup4\n        /* \"#utility.yul\":4575:4597   */\n      mstore\n        /* \"#utility.yul\":4628:4630   */\n      0x40\n        /* \"#utility.yul\":4617:4626   */\n      dup7\n        /* \"#utility.yul\":4613:4631   */\n      add\n        /* \"#utility.yul\":4606:4631   */\n      swap2\n      pop\n        /* \"#utility.yul\":4690:4692   */\n      0x40\n        /* \"#utility.yul\":4680:4686   */\n      dup2\n        /* \"#utility.yul\":4677:4678   */\n      0x05\n        /* \"#utility.yul\":4673:4687   */\n      shl\n        /* \"#utility.yul\":4662:4671   */\n      dup8\n        /* \"#utility.yul\":4658:4688   */\n      add\n        /* \"#utility.yul\":4654:4693   */\n      add\n        /* \"#utility.yul\":4640:4693   */\n      swap3\n      pop\n        /* \"#utility.yul\":4728:4730   */\n      dup4\n        /* \"#utility.yul\":4720:4726   */\n      dup8\n        /* \"#utility.yul\":4716:4731   */\n      add\n        /* \"#utility.yul\":4749:4750   */\n      0x00\n        /* \"#utility.yul\":4759:5019   */\n    tag_532:\n        /* \"#utility.yul\":4773:4779   */\n      dup3\n        /* \"#utility.yul\":4770:4771   */\n      dup2\n        /* \"#utility.yul\":4767:4780   */\n      lt\n        /* \"#utility.yul\":4759:5019   */\n      iszero\n      tag_534\n      jumpi\n        /* \"#utility.yul\":4866:4868   */\n      0x3f\n        /* \"#utility.yul\":4862:4869   */\n      not\n        /* \"#utility.yul\":4850:4859   */\n      dup9\n        /* \"#utility.yul\":4842:4848   */\n      dup7\n        /* \"#utility.yul\":4838:4860   */\n      sub\n        /* \"#utility.yul\":4834:4870   */\n      add\n        /* \"#utility.yul\":4829:4832   */\n      dup5\n        /* \"#utility.yul\":4822:4871   */\n      mstore\n        /* \"#utility.yul\":4894:4939   */\n      tag_535\n        /* \"#utility.yul\":4932:4938   */\n      dup6\n        /* \"#utility.yul\":4923:4929   */\n      dup4\n        /* \"#utility.yul\":4917:4930   */\n      mload\n        /* \"#utility.yul\":4894:4939   */\n      tag_485\n      jump\t// in\n    tag_535:\n        /* \"#utility.yul\":4884:4939   */\n      swap5\n      pop\n        /* \"#utility.yul\":4997:5009   */\n      swap3\n      dup6\n      add\n      swap3\n        /* \"#utility.yul\":4962:4977   */\n      swap1\n      dup6\n      add\n      swap1\n        /* \"#utility.yul\":4795:4796   */\n      0x01\n        /* \"#utility.yul\":4788:4797   */\n      add\n        /* \"#utility.yul\":4759:5019   */\n      jump(tag_532)\n    tag_534:\n      pop\n        /* \"#utility.yul\":5036:5042   */\n      swap3\n      swap8\n        /* \"#utility.yul\":4216:5048   */\n      swap7\n      pop\n      pop\n      pop\n      pop\n      pop\n      pop\n      pop\n      jump\t// out\n        /* \"#utility.yul\":5053:5302   */\n    tag_51:\n        /* \"#utility.yul\":5226:5228   */\n      0x20\n        /* \"#utility.yul\":5215:5224   */\n      dup2\n        /* \"#utility.yul\":5208:5229   */\n      mstore\n        /* \"#utility.yul\":5189:5193   */\n      0x00\n        /* \"#utility.yul\":5246:5296   */\n      tag_456\n        /* \"#utility.yul\":5292:5294   */\n      0x20\n        /* \"#utility.yul\":5281:5290   */\n      dup4\n        /* \"#utility.yul\":5277:5295   */\n      add\n        /* \"#utility.yul\":5269:5275   */\n      dup5\n        /* \"#utility.yul\":5246:5296   */\n      tag_485\n      jump\t// in\n        /* \"#utility.yul\":5307:5434   */\n    tag_134:\n        /* \"#utility.yul\":5368:5378   */\n      0x4e487b71\n        /* \"#utility.yul\":5363:5366   */\n      0xe0\n        /* \"#utility.yul\":5359:5379   */\n      shl\n        /* \"#utility.yul\":5356:5357   */\n      0x00\n        /* \"#utility.yul\":5349:5380   */\n      mstore\n        /* \"#utility.yul\":5399:5403   */\n      0x41\n        /* \"#utility.yul\":5396:5397   */\n      0x04\n        /* \"#utility.yul\":5389:5404   */\n      mstore\n        /* \"#utility.yul\":5423:5427   */\n      0x24\n        /* \"#utility.yul\":5420:5421   */\n      0x00\n        /* \"#utility.yul\":5413:5428   */\n      revert\n        /* \"#utility.yul\":5439:5694   */\n    tag_486:\n        /* \"#utility.yul\":5511:5513   */\n      0x40\n        /* \"#utility.yul\":5505:5514   */\n      mload\n        /* \"#utility.yul\":5553:5559   */\n      0x0200\n        /* \"#utility.yul\":5541:5560   */\n      dup2\n      add\n      sub(shl(0x40, 0x01), 0x01)\n        /* \"#utility.yul\":5575:5609   */\n      dup2\n      gt\n        /* \"#utility.yul\":5611:5633   */\n      dup3\n      dup3\n      lt\n        /* \"#utility.yul\":5572:5634   */\n      or\n        /* \"#utility.yul\":5569:5657   */\n      iszero\n      tag_541\n      jumpi\n        /* \"#utility.yul\":5637:5655   */\n      tag_541\n      tag_134\n      jump\t// in\n    tag_541:\n        /* \"#utility.yul\":5673:5675   */\n      0x40\n        /* \"#utility.yul\":5666:5688   */\n      mstore\n        /* \"#utility.yul\":5439:5694   */\n      swap1\n      jump\t// out\n        /* \"#utility.yul\":5699:5974   */\n    tag_487:\n        /* \"#utility.yul\":5770:5772   */\n      0x40\n        /* \"#utility.yul\":5764:5773   */\n      mload\n        /* \"#utility.yul\":5835:5837   */\n      0x1f\n        /* \"#utility.yul\":5816:5829   */\n      dup3\n      add\n      not(0x1f)\n        /* \"#utility.yul\":5812:5839   */\n      and\n        /* \"#utility.yul\":5800:5840   */\n      dup2\n      add\n      sub(shl(0x40, 0x01), 0x01)\n        /* \"#utility.yul\":5855:5889   */\n      dup2\n      gt\n        /* \"#utility.yul\":5891:5913   */\n      dup3\n      dup3\n      lt\n        /* \"#utility.yul\":5852:5914   */\n      or\n        /* \"#utility.yul\":5849:5937   */\n      iszero\n      tag_544\n      jumpi\n        /* \"#utility.yul\":5917:5935   */\n      tag_544\n      tag_134\n      jump\t// in\n    tag_544:\n        /* \"#utility.yul\":5953:5955   */\n      0x40\n        /* \"#utility.yul\":5946:5968   */\n      mstore\n        /* \"#utility.yul\":5699:5974   */\n      swap2\n      swap1\n      pop\n      jump\t// out\n        /* \"#utility.yul\":5979:6162   */\n    tag_488:\n        /* \"#utility.yul\":6039:6043   */\n      0x00\n      sub(shl(0x40, 0x01), 0x01)\n        /* \"#utility.yul\":6064:6070   */\n      dup3\n        /* \"#utility.yul\":6061:6091   */\n      gt\n        /* \"#utility.yul\":6058:6114   */\n      iszero\n      tag_547\n      jumpi\n        /* \"#utility.yul\":6094:6112   */\n      tag_547\n      tag_134\n      jump\t// in\n    tag_547:\n      pop\n        /* \"#utility.yul\":6139:6140   */\n      0x05\n        /* \"#utility.yul\":6135:6149   */\n      shl\n        /* \"#utility.yul\":6151:6155   */\n      0x20\n        /* \"#utility.yul\":6131:6156   */\n      add\n      swap1\n        /* \"#utility.yul\":5979:6162   */\n      jump\t// out\n        /* \"#utility.yul\":6167:7132   */\n    tag_54:\n        /* \"#utility.yul\":6260:6266   */\n      0x00\n        /* \"#utility.yul\":6268:6274   */\n      dup1\n        /* \"#utility.yul\":6321:6323   */\n      0x40\n        /* \"#utility.yul\":6309:6318   */\n      dup4\n        /* \"#utility.yul\":6300:6307   */\n      dup6\n        /* \"#utility.yul\":6296:6319   */\n      sub\n        /* \"#utility.yul\":6292:6324   */\n      slt\n        /* \"#utility.yul\":6289:6341   */\n      iszero\n      tag_549\n      jumpi\n        /* \"#utility.yul\":6337:6338   */\n      0x00\n        /* \"#utility.yul\":6334:6335   */\n      dup1\n        /* \"#utility.yul\":6327:6339   */\n      revert\n        /* \"#utility.yul\":6289:6341   */\n    tag_549:\n        /* \"#utility.yul\":6360:6389   */\n      tag_550\n        /* \"#utility.yul\":6379:6388   */\n      dup4\n        /* \"#utility.yul\":6360:6389   */\n      tag_479\n      jump\t// in\n    tag_550:\n        /* \"#utility.yul\":6350:6389   */\n      swap2\n      pop\n        /* \"#utility.yul\":6408:6410   */\n      0x20\n        /* \"#utility.yul\":6461:6463   */\n      dup1\n        /* \"#utility.yul\":6450:6459   */\n      dup5\n        /* \"#utility.yul\":6446:6464   */\n      add\n        /* \"#utility.yul\":6433:6465   */\n      calldataload\n      sub(shl(0x40, 0x01), 0x01)\n        /* \"#utility.yul\":6480:6486   */\n      dup2\n        /* \"#utility.yul\":6477:6507   */\n      gt\n        /* \"#utility.yul\":6474:6524   */\n      iszero\n      tag_551\n      jumpi\n        /* \"#utility.yul\":6520:6521   */\n      0x00\n        /* \"#utility.yul\":6517:6518   */\n      dup1\n        /* \"#utility.yul\":6510:6522   */\n      revert\n        /* \"#utility.yul\":6474:6524   */\n    tag_551:\n        /* \"#utility.yul\":6543:6565   */\n      dup5\n      add\n        /* \"#utility.yul\":6596:6600   */\n      0x1f\n        /* \"#utility.yul\":6588:6601   */\n      dup2\n      add\n        /* \"#utility.yul\":6584:6611   */\n      dup7\n      sgt\n        /* \"#utility.yul\":6574:6629   */\n      tag_552\n      jumpi\n        /* \"#utility.yul\":6625:6626   */\n      0x00\n        /* \"#utility.yul\":6622:6623   */\n      dup1\n        /* \"#utility.yul\":6615:6627   */\n      revert\n        /* \"#utility.yul\":6574:6629   */\n    tag_552:\n        /* \"#utility.yul\":6661:6663   */\n      dup1\n        /* \"#utility.yul\":6648:6664   */\n      calldataload\n        /* \"#utility.yul\":6684:6744   */\n      tag_553\n        /* \"#utility.yul\":6700:6743   */\n      tag_554\n        /* \"#utility.yul\":6740:6742   */\n      dup3\n        /* \"#utility.yul\":6700:6743   */\n      tag_488\n      jump\t// in\n    tag_554:\n        /* \"#utility.yul\":6684:6744   */\n      tag_487\n      jump\t// in\n    tag_553:\n        /* \"#utility.yul\":6778:6793   */\n      dup2\n      dup2\n      mstore\n        /* \"#utility.yul\":6860:6861   */\n      0x05\n        /* \"#utility.yul\":6856:6866   */\n      swap2\n      swap1\n      swap2\n      shl\n        /* \"#utility.yul\":6848:6867   */\n      dup3\n      add\n        /* \"#utility.yul\":6844:6872   */\n      dup4\n      add\n      swap1\n        /* \"#utility.yul\":6809:6821   */\n      dup4\n      dup2\n      add\n      swap1\n        /* \"#utility.yul\":6884:6903   */\n      dup9\n      dup4\n      gt\n        /* \"#utility.yul\":6881:6920   */\n      iszero\n      tag_555\n      jumpi\n        /* \"#utility.yul\":6916:6917   */\n      0x00\n        /* \"#utility.yul\":6913:6914   */\n      dup1\n        /* \"#utility.yul\":6906:6918   */\n      revert\n        /* \"#utility.yul\":6881:6920   */\n    tag_555:\n        /* \"#utility.yul\":6940:6951   */\n      swap3\n      dup5\n      add\n      swap3\n        /* \"#utility.yul\":6960:7102   */\n    tag_556:\n        /* \"#utility.yul\":6976:6982   */\n      dup3\n        /* \"#utility.yul\":6971:6974   */\n      dup5\n        /* \"#utility.yul\":6968:6983   */\n      lt\n        /* \"#utility.yul\":6960:7102   */\n      iszero\n      tag_558\n      jumpi\n        /* \"#utility.yul\":7042:7059   */\n      dup4\n      calldataload\n        /* \"#utility.yul\":7030:7060   */\n      dup3\n      mstore\n        /* \"#utility.yul\":6993:7005   */\n      swap3\n      dup5\n      add\n      swap3\n        /* \"#utility.yul\":7080:7092   */\n      swap1\n      dup5\n      add\n      swap1\n        /* \"#utility.yul\":6960:7102   */\n      jump(tag_556)\n    tag_558:\n        /* \"#utility.yul\":7121:7126   */\n      dup1\n        /* \"#utility.yul\":7111:7126   */\n      swap6\n      pop\n      pop\n      pop\n      pop\n      pop\n      pop\n        /* \"#utility.yul\":6167:7132   */\n      swap3\n      pop\n      swap3\n      swap1\n      pop\n      jump\t// out\n        /* \"#utility.yul\":7137:7779   */\n    tag_57:\n        /* \"#utility.yul\":7302:7304   */\n      0x20\n        /* \"#utility.yul\":7354:7375   */\n      dup1\n      dup3\n      mstore\n        /* \"#utility.yul\":7424:7437   */\n      dup3\n      mload\n        /* \"#utility.yul\":7327:7345   */\n      dup3\n      dup3\n      add\n        /* \"#utility.yul\":7446:7468   */\n      dup2\n      swap1\n      mstore\n        /* \"#utility.yul\":7273:7277   */\n      0x00\n      swap2\n        /* \"#utility.yul\":7302:7304   */\n      swap1\n        /* \"#utility.yul\":7525:7540   */\n      dup5\n      dup3\n      add\n      swap1\n        /* \"#utility.yul\":7499:7501   */\n      0x40\n        /* \"#utility.yul\":7484:7502   */\n      dup6\n      add\n      swap1\n        /* \"#utility.yul\":7273:7277   */\n      dup5\n        /* \"#utility.yul\":7568:7753   */\n    tag_560:\n        /* \"#utility.yul\":7582:7588   */\n      dup2\n        /* \"#utility.yul\":7579:7580   */\n      dup2\n        /* \"#utility.yul\":7576:7589   */\n      lt\n        /* \"#utility.yul\":7568:7753   */\n      iszero\n      tag_562\n      jumpi\n        /* \"#utility.yul\":7657:7670   */\n      dup4\n      mload\n        /* \"#utility.yul\":7650:7671   */\n      iszero\n        /* \"#utility.yul\":7643:7672   */\n      iszero\n        /* \"#utility.yul\":7631:7673   */\n      dup4\n      mstore\n        /* \"#utility.yul\":7728:7743   */\n      swap3\n      dup5\n      add\n      swap3\n        /* \"#utility.yul\":7693:7705   */\n      swap2\n      dup5\n      add\n      swap2\n        /* \"#utility.yul\":7604:7605   */\n      0x01\n        /* \"#utility.yul\":7597:7606   */\n      add\n        /* \"#utility.yul\":7568:7753   */\n      jump(tag_560)\n    tag_562:\n      pop\n        /* \"#utility.yul\":7770:7773   */\n      swap1\n      swap7\n        /* \"#utility.yul\":7137:7779   */\n      swap6\n      pop\n      pop\n      pop\n      pop\n      pop\n      pop\n      jump\t// out\n        /* \"#utility.yul\":7966:8220   */\n    tag_65:\n        /* \"#utility.yul\":8034:8040   */\n      0x00\n        /* \"#utility.yul\":8042:8048   */\n      dup1\n        /* \"#utility.yul\":8095:8097   */\n      0x40\n        /* \"#utility.yul\":8083:8092   */\n      dup4\n        /* \"#utility.yul\":8074:8081   */\n      dup6\n        /* \"#utility.yul\":8070:8093   */\n      sub\n        /* \"#utility.yul\":8066:8098   */\n      slt\n        /* \"#utility.yul\":8063:8115   */\n      iszero\n      tag_565\n      jumpi\n        /* \"#utility.yul\":8111:8112   */\n      0x00\n        /* \"#utility.yul\":8108:8109   */\n      dup1\n        /* \"#utility.yul\":8101:8113   */\n      revert\n        /* \"#utility.yul\":8063:8115   */\n    tag_565:\n        /* \"#utility.yul\":8147:8156   */\n      dup3\n        /* \"#utility.yul\":8134:8157   */\n      calldataload\n        /* \"#utility.yul\":8124:8157   */\n      swap2\n      pop\n        /* \"#utility.yul\":8176:8214   */\n      tag_566\n        /* \"#utility.yul\":8210:8212   */\n      0x20\n        /* \"#utility.yul\":8199:8208   */\n      dup5\n        /* \"#utility.yul\":8195:8213   */\n      add\n        /* \"#utility.yul\":8176:8214   */\n      tag_479\n      jump\t// in\n    tag_566:\n        /* \"#utility.yul\":8166:8214   */\n      swap1\n      pop\n        /* \"#utility.yul\":7966:8220   */\n      swap3\n      pop\n      swap3\n      swap1\n      pop\n      jump\t// out\n        /* \"#utility.yul\":8225:8616   */\n    tag_72:\n        /* \"#utility.yul\":8311:8317   */\n      0x00\n        /* \"#utility.yul\":8319:8325   */\n      dup1\n        /* \"#utility.yul\":8327:8333   */\n      0x00\n        /* \"#utility.yul\":8335:8341   */\n      dup1\n        /* \"#utility.yul\":8388:8391   */\n      0x80\n        /* \"#utility.yul\":8376:8385   */\n      dup6\n        /* \"#utility.yul\":8367:8374   */\n      dup8\n        /* \"#utility.yul\":8363:8386   */\n      sub\n        /* \"#utility.yul\":8359:8392   */\n      slt\n        /* \"#utility.yul\":8356:8409   */\n      iszero\n      tag_568\n      jumpi\n        /* \"#utility.yul\":8405:8406   */\n      0x00\n        /* \"#utility.yul\":8402:8403   */\n      dup1\n        /* \"#utility.yul\":8395:8407   */\n      revert\n        /* \"#utility.yul\":8356:8409   */\n    tag_568:\n        /* \"#utility.yul\":8428:8457   */\n      tag_569\n        /* \"#utility.yul\":8447:8456   */\n      dup6\n        /* \"#utility.yul\":8428:8457   */\n      tag_479\n      jump\t// in\n    tag_569:\n        /* \"#utility.yul\":8418:8457   */\n      swap7\n        /* \"#utility.yul\":8504:8506   */\n      0x20\n        /* \"#utility.yul\":8489:8507   */\n      dup7\n      add\n        /* \"#utility.yul\":8476:8508   */\n      calldataload\n      swap7\n      pop\n        /* \"#utility.yul\":8555:8557   */\n      0x40\n        /* \"#utility.yul\":8540:8558   */\n      dup7\n      add\n        /* \"#utility.yul\":8527:8559   */\n      calldataload\n      swap6\n        /* \"#utility.yul\":8606:8608   */\n      0x60\n        /* \"#utility.yul\":8591:8609   */\n      add\n        /* \"#utility.yul\":8578:8610   */\n      calldataload\n      swap5\n      pop\n        /* \"#utility.yul\":8225:8616   */\n      swap3\n      pop\n      pop\n      pop\n      jump\t// out\n        /* \"#utility.yul\":8621:8969   */\n    tag_489:\n        /* \"#utility.yul\":8673:8681   */\n      0x00\n        /* \"#utility.yul\":8683:8689   */\n      dup1\n        /* \"#utility.yul\":8737:8740   */\n      dup4\n        /* \"#utility.yul\":8730:8734   */\n      0x1f\n        /* \"#utility.yul\":8722:8728   */\n      dup5\n        /* \"#utility.yul\":8718:8735   */\n      add\n        /* \"#utility.yul\":8714:8741   */\n      slt\n        /* \"#utility.yul\":8704:8759   */\n      tag_571\n      jumpi\n        /* \"#utility.yul\":8755:8756   */\n      0x00\n        /* \"#utility.yul\":8752:8753   */\n      dup1\n        /* \"#utility.yul\":8745:8757   */\n      revert\n        /* \"#utility.yul\":8704:8759   */\n    tag_571:\n      pop\n        /* \"#utility.yul\":8778:8798   */\n      dup2\n      calldataload\n      sub(shl(0x40, 0x01), 0x01)\n        /* \"#utility.yul\":8810:8840   */\n      dup2\n      gt\n        /* \"#utility.yul\":8807:8857   */\n      iszero\n      tag_572\n      jumpi\n        /* \"#utility.yul\":8853:8854   */\n      0x00\n        /* \"#utility.yul\":8850:8851   */\n      dup1\n        /* \"#utility.yul\":8843:8855   */\n      revert\n        /* \"#utility.yul\":8807:8857   */\n    tag_572:\n        /* \"#utility.yul\":8890:8894   */\n      0x20\n        /* \"#utility.yul\":8882:8888   */\n      dup4\n        /* \"#utility.yul\":8878:8895   */\n      add\n        /* \"#utility.yul\":8866:8895   */\n      swap2\n      pop\n        /* \"#utility.yul\":8942:8945   */\n      dup4\n        /* \"#utility.yul\":8935:8939   */\n      0x20\n        /* \"#utility.yul\":8926:8932   */\n      dup3\n        /* \"#utility.yul\":8918:8924   */\n      dup6\n        /* \"#utility.yul\":8914:8933   */\n      add\n        /* \"#utility.yul\":8910:8940   */\n      add\n        /* \"#utility.yul\":8907:8946   */\n      gt\n        /* \"#utility.yul\":8904:8963   */\n      iszero\n      tag_573\n      jumpi\n        /* \"#utility.yul\":8959:8960   */\n      0x00\n        /* \"#utility.yul\":8956:8957   */\n      dup1\n        /* \"#utility.yul\":8949:8961   */\n      revert\n        /* \"#utility.yul\":8904:8963   */\n    tag_573:\n        /* \"#utility.yul\":8621:8969   */\n      swap3\n      pop\n      swap3\n      swap1\n      pop\n      jump\t// out\n        /* \"#utility.yul\":8974:9596   */\n    tag_77:\n        /* \"#utility.yul\":9072:9078   */\n      0x00\n        /* \"#utility.yul\":9080:9086   */\n      dup1\n        /* \"#utility.yul\":9088:9094   */\n      0x00\n        /* \"#utility.yul\":9096:9102   */\n      dup1\n        /* \"#utility.yul\":9104:9110   */\n      0x00\n        /* \"#utility.yul\":9157:9160   */\n      0x80\n        /* \"#utility.yul\":9145:9154   */\n      dup7\n        /* \"#utility.yul\":9136:9143   */\n      dup9\n        /* \"#utility.yul\":9132:9155   */\n      sub\n        /* \"#utility.yul\":9128:9161   */\n      slt\n        /* \"#utility.yul\":9125:9178   */\n      iszero\n      tag_575\n      jumpi\n        /* \"#utility.yul\":9174:9175   */\n      0x00\n        /* \"#utility.yul\":9171:9172   */\n      dup1\n        /* \"#utility.yul\":9164:9176   */\n      revert\n        /* \"#utility.yul\":9125:9178   */\n    tag_575:\n        /* \"#utility.yul\":9197:9226   */\n      tag_576\n        /* \"#utility.yul\":9216:9225   */\n      dup7\n        /* \"#utility.yul\":9197:9226   */\n      tag_479\n      jump\t// in\n    tag_576:\n        /* \"#utility.yul\":9187:9226   */\n      swap5\n      pop\n        /* \"#utility.yul\":9273:9275   */\n      0x20\n        /* \"#utility.yul\":9262:9271   */\n      dup7\n        /* \"#utility.yul\":9258:9276   */\n      add\n        /* \"#utility.yul\":9245:9277   */\n      calldataload\n        /* \"#utility.yul\":9235:9277   */\n      swap4\n      pop\n        /* \"#utility.yul\":9328:9330   */\n      0x40\n        /* \"#utility.yul\":9317:9326   */\n      dup7\n        /* \"#utility.yul\":9313:9331   */\n      add\n        /* \"#utility.yul\":9300:9332   */\n      calldataload\n      sub(shl(0x40, 0x01), 0x01)\n        /* \"#utility.yul\":9347:9353   */\n      dup2\n        /* \"#utility.yul\":9344:9374   */\n      gt\n        /* \"#utility.yul\":9341:9391   */\n      iszero\n      tag_577\n      jumpi\n        /* \"#utility.yul\":9387:9388   */\n      0x00\n        /* \"#utility.yul\":9384:9385   */\n      dup1\n        /* \"#utility.yul\":9377:9389   */\n      revert\n        /* \"#utility.yul\":9341:9391   */\n    tag_577:\n        /* \"#utility.yul\":9426:9485   */\n      tag_578\n        /* \"#utility.yul\":9477:9484   */\n      dup9\n        /* \"#utility.yul\":9468:9474   */\n      dup3\n        /* \"#utility.yul\":9457:9466   */\n      dup10\n        /* \"#utility.yul\":9453:9475   */\n      add\n        /* \"#utility.yul\":9426:9485   */\n      tag_489\n      jump\t// in\n    tag_578:\n        /* \"#utility.yul\":8974:9596   */\n      swap7\n      swap10\n      swap6\n      swap9\n      pop\n        /* \"#utility.yul\":9504:9512   */\n      swap7\n        /* \"#utility.yul\":9586:9588   */\n      0x60\n        /* \"#utility.yul\":9571:9589   */\n      add\n        /* \"#utility.yul\":9558:9590   */\n      calldataload\n      swap5\n        /* \"#utility.yul\":8974:9596   */\n      swap4\n      pop\n      pop\n      pop\n      pop\n      jump\t// out\n        /* \"#utility.yul\":9601:10154   */\n    tag_82:\n        /* \"#utility.yul\":9690:9696   */\n      0x00\n        /* \"#utility.yul\":9698:9704   */\n      dup1\n        /* \"#utility.yul\":9706:9712   */\n      0x00\n        /* \"#utility.yul\":9714:9720   */\n      dup1\n        /* \"#utility.yul\":9767:9769   */\n      0x60\n        /* \"#utility.yul\":9755:9764   */\n      dup6\n        /* \"#utility.yul\":9746:9753   */\n      dup8\n        /* \"#utility.yul\":9742:9765   */\n      sub\n        /* \"#utility.yul\":9738:9770   */\n      slt\n        /* \"#utility.yul\":9735:9787   */\n      iszero\n      tag_580\n      jumpi\n        /* \"#utility.yul\":9783:9784   */\n      0x00\n        /* \"#utility.yul\":9780:9781   */\n      dup1\n        /* \"#utility.yul\":9773:9785   */\n      revert\n        /* \"#utility.yul\":9735:9787   */\n    tag_580:\n        /* \"#utility.yul\":9806:9835   */\n      tag_581\n        /* \"#utility.yul\":9825:9834   */\n      dup6\n        /* \"#utility.yul\":9806:9835   */\n      tag_479\n      jump\t// in\n    tag_581:\n        /* \"#utility.yul\":9796:9835   */\n      swap4\n      pop\n        /* \"#utility.yul\":9882:9884   */\n      0x20\n        /* \"#utility.yul\":9871:9880   */\n      dup6\n        /* \"#utility.yul\":9867:9885   */\n      add\n        /* \"#utility.yul\":9854:9886   */\n      calldataload\n        /* \"#utility.yul\":9844:9886   */\n      swap3\n      pop\n        /* \"#utility.yul\":9937:9939   */\n      0x40\n        /* \"#utility.yul\":9926:9935   */\n      dup6\n        /* \"#utility.yul\":9922:9940   */\n      add\n        /* \"#utility.yul\":9909:9941   */\n      calldataload\n      sub(shl(0x40, 0x01), 0x01)\n        /* \"#utility.yul\":9956:9962   */\n      dup2\n        /* \"#utility.yul\":9953:9983   */\n      gt\n        /* \"#utility.yul\":9950:10000   */\n      iszero\n      tag_582\n      jumpi\n        /* \"#utility.yul\":9996:9997   */\n      0x00\n        /* \"#utility.yul\":9993:9994   */\n      dup1\n        /* \"#utility.yul\":9986:9998   */\n      revert\n        /* \"#utility.yul\":9950:10000   */\n    tag_582:\n        /* \"#utility.yul\":10035:10094   */\n      tag_583\n        /* \"#utility.yul\":10086:10093   */\n      dup8\n        /* \"#utility.yul\":10077:10083   */\n      dup3\n        /* \"#utility.yul\":10066:10075   */\n      dup9\n        /* \"#utility.yul\":10062:10084   */\n      add\n        /* \"#utility.yul\":10035:10094   */\n      tag_489\n      jump\t// in\n    tag_583:\n        /* \"#utility.yul\":9601:10154   */\n      swap6\n      swap9\n      swap5\n      swap8\n      pop\n        /* \"#utility.yul\":10113:10121   */\n      swap6\n      pop\n      pop\n      pop\n      pop\n        /* \"#utility.yul\":9601:10154   */\n      jump\t// out\n        /* \"#utility.yul\":10159:10690   */\n    tag_490:\n        /* \"#utility.yul\":10202:10207   */\n      0x00\n        /* \"#utility.yul\":10255:10258   */\n      dup3\n        /* \"#utility.yul\":10248:10252   */\n      0x1f\n        /* \"#utility.yul\":10240:10246   */\n      dup4\n        /* \"#utility.yul\":10236:10253   */\n      add\n        /* \"#utility.yul\":10232:10259   */\n      slt\n        /* \"#utility.yul\":10222:10277   */\n      tag_585\n      jumpi\n        /* \"#utility.yul\":10273:10274   */\n      0x00\n        /* \"#utility.yul\":10270:10271   */\n      dup1\n        /* \"#utility.yul\":10263:10275   */\n      revert\n        /* \"#utility.yul\":10222:10277   */\n    tag_585:\n        /* \"#utility.yul\":10309:10315   */\n      dup2\n        /* \"#utility.yul\":10296:10316   */\n      calldataload\n      sub(shl(0x40, 0x01), 0x01)\n        /* \"#utility.yul\":10331:10333   */\n      dup2\n        /* \"#utility.yul\":10328:10354   */\n      gt\n        /* \"#utility.yul\":10325:10377   */\n      iszero\n      tag_587\n      jumpi\n        /* \"#utility.yul\":10357:10375   */\n      tag_587\n      tag_134\n      jump\t// in\n    tag_587:\n        /* \"#utility.yul\":10401:10456   */\n      tag_588\n        /* \"#utility.yul\":10444:10446   */\n      0x1f\n        /* \"#utility.yul\":10425:10438   */\n      dup3\n      add\n      not(0x1f)\n        /* \"#utility.yul\":10421:10448   */\n      and\n        /* \"#utility.yul\":10450:10454   */\n      0x20\n        /* \"#utility.yul\":10417:10455   */\n      add\n        /* \"#utility.yul\":10401:10456   */\n      tag_487\n      jump\t// in\n    tag_588:\n        /* \"#utility.yul\":10481:10483   */\n      dup2\n        /* \"#utility.yul\":10472:10479   */\n      dup2\n        /* \"#utility.yul\":10465:10484   */\n      mstore\n        /* \"#utility.yul\":10527:10530   */\n      dup5\n        /* \"#utility.yul\":10520:10524   */\n      0x20\n        /* \"#utility.yul\":10515:10517   */\n      dup4\n        /* \"#utility.yul\":10507:10513   */\n      dup7\n        /* \"#utility.yul\":10503:10518   */\n      add\n        /* \"#utility.yul\":10499:10525   */\n      add\n        /* \"#utility.yul\":10496:10531   */\n      gt\n        /* \"#utility.yul\":10493:10548   */\n      iszero\n      tag_589\n      jumpi\n        /* \"#utility.yul\":10544:10545   */\n      0x00\n        /* \"#utility.yul\":10541:10542   */\n      dup1\n        /* \"#utility.yul\":10534:10546   */\n      revert\n        /* \"#utility.yul\":10493:10548   */\n    tag_589:\n        /* \"#utility.yul\":10609:10611   */\n      dup2\n        /* \"#utility.yul\":10602:10606   */\n      0x20\n        /* \"#utility.yul\":10594:10600   */\n      dup6\n        /* \"#utility.yul\":10590:10607   */\n      add\n        /* \"#utility.yul\":10583:10587   */\n      0x20\n        /* \"#utility.yul\":10574:10581   */\n      dup4\n        /* \"#utility.yul\":10570:10588   */\n      add\n        /* \"#utility.yul\":10557:10612   */\n      calldatacopy\n        /* \"#utility.yul\":10657:10658   */\n      0x00\n        /* \"#utility.yul\":10632:10648   */\n      swap2\n      dup2\n      add\n        /* \"#utility.yul\":10650:10654   */\n      0x20\n        /* \"#utility.yul\":10628:10655   */\n      add\n        /* \"#utility.yul\":10621:10659   */\n      swap2\n      swap1\n      swap2\n      mstore\n        /* \"#utility.yul\":10636:10643   */\n      swap4\n        /* \"#utility.yul\":10159:10690   */\n      swap3\n      pop\n      pop\n      pop\n      jump\t// out\n        /* \"#utility.yul\":10695:11091   */\n    tag_90:\n        /* \"#utility.yul\":10773:10779   */\n      0x00\n        /* \"#utility.yul\":10781:10787   */\n      dup1\n        /* \"#utility.yul\":10834:10836   */\n      0x40\n        /* \"#utility.yul\":10822:10831   */\n      dup4\n        /* \"#utility.yul\":10813:10820   */\n      dup6\n        /* \"#utility.yul\":10809:10832   */\n      sub\n        /* \"#utility.yul\":10805:10837   */\n      slt\n        /* \"#utility.yul\":10802:10854   */\n      iszero\n      tag_591\n      jumpi\n        /* \"#utility.yul\":10850:10851   */\n      0x00\n        /* \"#utility.yul\":10847:10848   */\n      dup1\n        /* \"#utility.yul\":10840:10852   */\n      revert\n        /* \"#utility.yul\":10802:10854   */\n    tag_591:\n        /* \"#utility.yul\":10890:10899   */\n      dup3\n        /* \"#utility.yul\":10877:10900   */\n      calldataload\n      sub(shl(0x40, 0x01), 0x01)\n        /* \"#utility.yul\":10915:10921   */\n      dup2\n        /* \"#utility.yul\":10912:10942   */\n      gt\n        /* \"#utility.yul\":10909:10959   */\n      iszero\n      tag_592\n      jumpi\n        /* \"#utility.yul\":10955:10956   */\n      0x00\n        /* \"#utility.yul\":10952:10953   */\n      dup1\n        /* \"#utility.yul\":10945:10957   */\n      revert\n        /* \"#utility.yul\":10909:10959   */\n    tag_592:\n        /* \"#utility.yul\":10978:11028   */\n      tag_593\n        /* \"#utility.yul\":11020:11027   */\n      dup6\n        /* \"#utility.yul\":11011:11017   */\n      dup3\n        /* \"#utility.yul\":11000:11009   */\n      dup7\n        /* \"#utility.yul\":10996:11018   */\n      add\n        /* \"#utility.yul\":10978:11028   */\n      tag_490\n      jump\t// in\n    tag_593:\n        /* \"#utility.yul\":10968:11028   */\n      swap3\n      pop\n      pop\n        /* \"#utility.yul\":11047:11085   */\n      tag_566\n        /* \"#utility.yul\":11081:11083   */\n      0x20\n        /* \"#utility.yul\":11070:11079   */\n      dup5\n        /* \"#utility.yul\":11066:11084   */\n      add\n        /* \"#utility.yul\":11047:11085   */\n      tag_479\n      jump\t// in\n        /* \"#utility.yul\":11096:11243   */\n    tag_491:\n        /* \"#utility.yul\":11168:11188   */\n      dup1\n      calldataload\n        /* \"#utility.yul\":11217:11218   */\n      0x04\n        /* \"#utility.yul\":11207:11219   */\n      dup2\n      lt\n        /* \"#utility.yul\":11197:11237   */\n      tag_505\n      jumpi\n        /* \"#utility.yul\":11233:11234   */\n      0x00\n        /* \"#utility.yul\":11230:11231   */\n      dup1\n        /* \"#utility.yul\":11223:11235   */\n      revert\n        /* \"#utility.yul\":11248:12136   */\n    tag_492:\n        /* \"#utility.yul\":11301:11306   */\n      0x00\n        /* \"#utility.yul\":11354:11357   */\n      dup3\n        /* \"#utility.yul\":11347:11351   */\n      0x1f\n        /* \"#utility.yul\":11339:11345   */\n      dup4\n        /* \"#utility.yul\":11335:11352   */\n      add\n        /* \"#utility.yul\":11331:11358   */\n      slt\n        /* \"#utility.yul\":11321:11376   */\n      tag_598\n      jumpi\n        /* \"#utility.yul\":11372:11373   */\n      0x00\n        /* \"#utility.yul\":11369:11370   */\n      dup1\n        /* \"#utility.yul\":11362:11374   */\n      revert\n        /* \"#utility.yul\":11321:11376   */\n    tag_598:\n        /* \"#utility.yul\":11408:11414   */\n      dup2\n        /* \"#utility.yul\":11395:11415   */\n      calldataload\n        /* \"#utility.yul\":11434:11438   */\n      0x20\n        /* \"#utility.yul\":11458:11518   */\n      tag_599\n        /* \"#utility.yul\":11474:11517   */\n      tag_554\n        /* \"#utility.yul\":11514:11516   */\n      dup4\n        /* \"#utility.yul\":11474:11517   */\n      tag_488\n      jump\t// in\n        /* \"#utility.yul\":11458:11518   */\n    tag_599:\n        /* \"#utility.yul\":11552:11567   */\n      dup3\n      dup2\n      mstore\n        /* \"#utility.yul\":11638:11639   */\n      0x05\n        /* \"#utility.yul\":11634:11644   */\n      swap3\n      swap1\n      swap3\n      shl\n        /* \"#utility.yul\":11622:11645   */\n      dup5\n      add\n        /* \"#utility.yul\":11618:11650   */\n      dup2\n      add\n      swap2\n        /* \"#utility.yul\":11583:11595   */\n      dup2\n      dup2\n      add\n      swap1\n        /* \"#utility.yul\":11662:11677   */\n      dup7\n      dup5\n      gt\n        /* \"#utility.yul\":11659:11694   */\n      iszero\n      tag_601\n      jumpi\n        /* \"#utility.yul\":11690:11691   */\n      0x00\n        /* \"#utility.yul\":11687:11688   */\n      dup1\n        /* \"#utility.yul\":11680:11692   */\n      revert\n        /* \"#utility.yul\":11659:11694   */\n    tag_601:\n        /* \"#utility.yul\":11726:11728   */\n      dup3\n        /* \"#utility.yul\":11718:11724   */\n      dup7\n        /* \"#utility.yul\":11714:11729   */\n      add\n        /* \"#utility.yul\":11738:12107   */\n    tag_602:\n        /* \"#utility.yul\":11754:11760   */\n      dup5\n        /* \"#utility.yul\":11749:11752   */\n      dup2\n        /* \"#utility.yul\":11746:11761   */\n      lt\n        /* \"#utility.yul\":11738:12107   */\n      iszero\n      tag_604\n      jumpi\n        /* \"#utility.yul\":11840:11843   */\n      dup1\n        /* \"#utility.yul\":11827:11844   */\n      calldataload\n      sub(shl(0x40, 0x01), 0x01)\n        /* \"#utility.yul\":11863:11874   */\n      dup2\n        /* \"#utility.yul\":11860:11895   */\n      gt\n        /* \"#utility.yul\":11857:11982   */\n      iszero\n      tag_605\n      jumpi\n        /* \"#utility.yul\":11936:11937   */\n      0x00\n        /* \"#utility.yul\":11965:11967   */\n      dup1\n        /* \"#utility.yul\":11961:11963   */\n      dup2\n        /* \"#utility.yul\":11954:11968   */\n      revert\n        /* \"#utility.yul\":11857:11982   */\n    tag_605:\n        /* \"#utility.yul\":12007:12064   */\n      tag_606\n        /* \"#utility.yul\":12060:12063   */\n      dup10\n        /* \"#utility.yul\":12055:12057   */\n      dup7\n        /* \"#utility.yul\":12041:12052   */\n      dup4\n        /* \"#utility.yul\":12033:12039   */\n      dup12\n        /* \"#utility.yul\":12029:12053   */\n      add\n        /* \"#utility.yul\":12025:12058   */\n      add\n        /* \"#utility.yul\":12007:12064   */\n      tag_490\n      jump\t// in\n    tag_606:\n        /* \"#utility.yul\":11995:12065   */\n      dup5\n      mstore\n      pop\n        /* \"#utility.yul\":12085:12097   */\n      swap2\n      dup4\n      add\n      swap2\n        /* \"#utility.yul\":11771:11783   */\n      dup4\n      add\n        /* \"#utility.yul\":11738:12107   */\n      jump(tag_602)\n    tag_604:\n      pop\n        /* \"#utility.yul\":12125:12130   */\n      swap7\n        /* \"#utility.yul\":11248:12136   */\n      swap6\n      pop\n      pop\n      pop\n      pop\n      pop\n      pop\n      jump\t// out\n        /* \"#utility.yul\":12141:14068   */\n    tag_109:\n        /* \"#utility.yul\":12222:12228   */\n      0x00\n        /* \"#utility.yul\":12275:12277   */\n      0x20\n        /* \"#utility.yul\":12263:12272   */\n      dup3\n        /* \"#utility.yul\":12254:12261   */\n      dup5\n        /* \"#utility.yul\":12250:12273   */\n      sub\n        /* \"#utility.yul\":12246:12278   */\n      slt\n        /* \"#utility.yul\":12243:12295   */\n      iszero\n      tag_608\n      jumpi\n        /* \"#utility.yul\":12291:12292   */\n      0x00\n        /* \"#utility.yul\":12288:12289   */\n      dup1\n        /* \"#utility.yul\":12281:12293   */\n      revert\n        /* \"#utility.yul\":12243:12295   */\n    tag_608:\n        /* \"#utility.yul\":12331:12340   */\n      dup2\n        /* \"#utility.yul\":12318:12341   */\n      calldataload\n      sub(shl(0x40, 0x01), 0x01)\n        /* \"#utility.yul\":12401:12403   */\n      dup1\n        /* \"#utility.yul\":12393:12399   */\n      dup3\n        /* \"#utility.yul\":12390:12404   */\n      gt\n        /* \"#utility.yul\":12387:12421   */\n      iszero\n      tag_609\n      jumpi\n        /* \"#utility.yul\":12417:12418   */\n      0x00\n        /* \"#utility.yul\":12414:12415   */\n      dup1\n        /* \"#utility.yul\":12407:12419   */\n      revert\n        /* \"#utility.yul\":12387:12421   */\n    tag_609:\n        /* \"#utility.yul\":12440:12462   */\n      swap1\n      dup4\n      add\n      swap1\n        /* \"#utility.yul\":12496:12502   */\n      0x0200\n        /* \"#utility.yul\":12478:12494   */\n      dup3\n      dup7\n      sub\n        /* \"#utility.yul\":12474:12503   */\n      slt\n        /* \"#utility.yul\":12471:12520   */\n      iszero\n      tag_610\n      jumpi\n        /* \"#utility.yul\":12516:12517   */\n      0x00\n        /* \"#utility.yul\":12513:12514   */\n      dup1\n        /* \"#utility.yul\":12506:12518   */\n      revert\n        /* \"#utility.yul\":12471:12520   */\n    tag_610:\n        /* \"#utility.yul\":12542:12564   */\n      tag_611\n      tag_486\n      jump\t// in\n    tag_611:\n        /* \"#utility.yul\":12587:12609   */\n      tag_612\n        /* \"#utility.yul\":12606:12608   */\n      dup4\n        /* \"#utility.yul\":12587:12609   */\n      tag_479\n      jump\t// in\n    tag_612:\n        /* \"#utility.yul\":12580:12585   */\n      dup2\n        /* \"#utility.yul\":12573:12610   */\n      mstore\n        /* \"#utility.yul\":12663:12665   */\n      0x20\n        /* \"#utility.yul\":12659:12661   */\n      dup4\n        /* \"#utility.yul\":12655:12666   */\n      add\n        /* \"#utility.yul\":12642:12667   */\n      calldataload\n        /* \"#utility.yul\":12637:12639   */\n      0x20\n        /* \"#utility.yul\":12630:12635   */\n      dup3\n        /* \"#utility.yul\":12626:12640   */\n      add\n        /* \"#utility.yul\":12619:12668   */\n      mstore\n        /* \"#utility.yul\":12721:12723   */\n      0x40\n        /* \"#utility.yul\":12717:12719   */\n      dup4\n        /* \"#utility.yul\":12713:12724   */\n      add\n        /* \"#utility.yul\":12700:12725   */\n      calldataload\n        /* \"#utility.yul\":12695:12697   */\n      0x40\n        /* \"#utility.yul\":12688:12693   */\n      dup3\n        /* \"#utility.yul\":12684:12698   */\n      add\n        /* \"#utility.yul\":12677:12726   */\n      mstore\n        /* \"#utility.yul\":12779:12781   */\n      0x60\n        /* \"#utility.yul\":12775:12777   */\n      dup4\n        /* \"#utility.yul\":12771:12782   */\n      add\n        /* \"#utility.yul\":12758:12783   */\n      calldataload\n        /* \"#utility.yul\":12753:12755   */\n      0x60\n        /* \"#utility.yul\":12746:12751   */\n      dup3\n        /* \"#utility.yul\":12742:12756   */\n      add\n        /* \"#utility.yul\":12735:12784   */\n      mstore\n        /* \"#utility.yul\":12838:12841   */\n      0x80\n        /* \"#utility.yul\":12834:12836   */\n      dup4\n        /* \"#utility.yul\":12830:12842   */\n      add\n        /* \"#utility.yul\":12817:12843   */\n      calldataload\n        /* \"#utility.yul\":12811:12814   */\n      0x80\n        /* \"#utility.yul\":12804:12809   */\n      dup3\n        /* \"#utility.yul\":12800:12815   */\n      add\n        /* \"#utility.yul\":12793:12844   */\n      mstore\n        /* \"#utility.yul\":12898:12901   */\n      0xa0\n        /* \"#utility.yul\":12894:12896   */\n      dup4\n        /* \"#utility.yul\":12890:12902   */\n      add\n        /* \"#utility.yul\":12877:12903   */\n      calldataload\n        /* \"#utility.yul\":12871:12874   */\n      0xa0\n        /* \"#utility.yul\":12864:12869   */\n      dup3\n        /* \"#utility.yul\":12860:12875   */\n      add\n        /* \"#utility.yul\":12853:12904   */\n      mstore\n        /* \"#utility.yul\":12958:12961   */\n      0xc0\n        /* \"#utility.yul\":12954:12956   */\n      dup4\n        /* \"#utility.yul\":12950:12962   */\n      add\n        /* \"#utility.yul\":12937:12963   */\n      calldataload\n        /* \"#utility.yul\":12931:12934   */\n      0xc0\n        /* \"#utility.yul\":12924:12929   */\n      dup3\n        /* \"#utility.yul\":12920:12935   */\n      add\n        /* \"#utility.yul\":12913:12964   */\n      mstore\n        /* \"#utility.yul\":12997:13029   */\n      tag_613\n        /* \"#utility.yul\":13024:13027   */\n      0xe0\n        /* \"#utility.yul\":13020:13022   */\n      dup5\n        /* \"#utility.yul\":13016:13028   */\n      add\n        /* \"#utility.yul\":12997:13029   */\n      tag_479\n      jump\t// in\n    tag_613:\n        /* \"#utility.yul\":12991:12994   */\n      0xe0\n        /* \"#utility.yul\":12984:12989   */\n      dup3\n        /* \"#utility.yul\":12980:12995   */\n      add\n        /* \"#utility.yul\":12973:13030   */\n      mstore\n        /* \"#utility.yul\":13049:13052   */\n      0x0100\n        /* \"#utility.yul\":13084:13119   */\n      tag_614\n        /* \"#utility.yul\":13115:13117   */\n      dup2\n        /* \"#utility.yul\":13111:13113   */\n      dup6\n        /* \"#utility.yul\":13107:13118   */\n      add\n        /* \"#utility.yul\":13084:13119   */\n      tag_491\n      jump\t// in\n    tag_614:\n        /* \"#utility.yul\":13068:13082   */\n      swap1\n      dup3\n      add\n        /* \"#utility.yul\":13061:13120   */\n      mstore\n        /* \"#utility.yul\":13139:13142   */\n      0x0120\n        /* \"#utility.yul\":13180:13191   */\n      dup4\n      dup2\n      add\n        /* \"#utility.yul\":13167:13192   */\n      calldataload\n        /* \"#utility.yul\":13204:13220   */\n      dup4\n      dup2\n      gt\n        /* \"#utility.yul\":13201:13237   */\n      iszero\n      tag_615\n      jumpi\n        /* \"#utility.yul\":13233:13234   */\n      0x00\n        /* \"#utility.yul\":13230:13231   */\n      dup1\n        /* \"#utility.yul\":13223:13235   */\n      revert\n        /* \"#utility.yul\":13201:13237   */\n    tag_615:\n        /* \"#utility.yul\":13269:13314   */\n      tag_616\n        /* \"#utility.yul\":13306:13313   */\n      dup9\n        /* \"#utility.yul\":13295:13303   */\n      dup3\n        /* \"#utility.yul\":13291:13293   */\n      dup8\n        /* \"#utility.yul\":13287:13304   */\n      add\n        /* \"#utility.yul\":13269:13314   */\n      tag_490\n      jump\t// in\n    tag_616:\n        /* \"#utility.yul\":13253:13267   */\n      swap2\n      dup4\n      add\n        /* \"#utility.yul\":13246:13315   */\n      swap2\n      swap1\n      swap2\n      mstore\n      pop\n        /* \"#utility.yul\":13334:13337   */\n      0x0140\n        /* \"#utility.yul\":13382:13393   */\n      dup4\n      dup2\n      add\n        /* \"#utility.yul\":13369:13394   */\n      calldataload\n        /* \"#utility.yul\":13353:13367   */\n      swap1\n      dup3\n      add\n        /* \"#utility.yul\":13346:13395   */\n      mstore\n        /* \"#utility.yul\":13414:13417   */\n      0x0160\n        /* \"#utility.yul\":13462:13473   */\n      dup1\n      dup5\n      add\n        /* \"#utility.yul\":13449:13474   */\n      calldataload\n        /* \"#utility.yul\":13433:13447   */\n      swap1\n      dup3\n      add\n        /* \"#utility.yul\":13426:13475   */\n      mstore\n        /* \"#utility.yul\":13494:13497   */\n      0x0180\n        /* \"#utility.yul\":13542:13553   */\n      dup1\n      dup5\n      add\n        /* \"#utility.yul\":13529:13554   */\n      calldataload\n        /* \"#utility.yul\":13513:13527   */\n      swap1\n      dup3\n      add\n        /* \"#utility.yul\":13506:13555   */\n      mstore\n        /* \"#utility.yul\":13574:13577   */\n      0x01a0\n        /* \"#utility.yul\":13622:13633   */\n      dup1\n      dup5\n      add\n        /* \"#utility.yul\":13609:13634   */\n      calldataload\n        /* \"#utility.yul\":13593:13607   */\n      swap1\n      dup3\n      add\n        /* \"#utility.yul\":13586:13635   */\n      mstore\n        /* \"#utility.yul\":13654:13657   */\n      0x01c0\n        /* \"#utility.yul\":13695:13706   */\n      dup1\n      dup5\n      add\n        /* \"#utility.yul\":13682:13707   */\n      calldataload\n        /* \"#utility.yul\":13719:13735   */\n      dup4\n      dup2\n      gt\n        /* \"#utility.yul\":13716:13752   */\n      iszero\n      tag_617\n      jumpi\n        /* \"#utility.yul\":13748:13749   */\n      0x00\n        /* \"#utility.yul\":13745:13746   */\n      dup1\n        /* \"#utility.yul\":13738:13750   */\n      revert\n        /* \"#utility.yul\":13716:13752   */\n    tag_617:\n        /* \"#utility.yul\":13784:13829   */\n      tag_618\n        /* \"#utility.yul\":13821:13828   */\n      dup9\n        /* \"#utility.yul\":13810:13818   */\n      dup3\n        /* \"#utility.yul\":13806:13808   */\n      dup8\n        /* \"#utility.yul\":13802:13819   */\n      add\n        /* \"#utility.yul\":13784:13829   */\n      tag_490\n      jump\t// in\n    tag_618:\n        /* \"#utility.yul\":13779:13781   */\n      dup3\n        /* \"#utility.yul\":13772:13777   */\n      dup5\n        /* \"#utility.yul\":13768:13782   */\n      add\n        /* \"#utility.yul\":13761:13830   */\n      mstore\n      pop\n      pop\n        /* \"#utility.yul\":13850:13853   */\n      0x01e0\n        /* \"#utility.yul\":13899:13902   */\n      dup1\n        /* \"#utility.yul\":13895:13897   */\n      dup5\n        /* \"#utility.yul\":13891:13903   */\n      add\n        /* \"#utility.yul\":13878:13904   */\n      calldataload\n        /* \"#utility.yul\":13929:13931   */\n      dup4\n        /* \"#utility.yul\":13919:13927   */\n      dup2\n        /* \"#utility.yul\":13916:13932   */\n      gt\n        /* \"#utility.yul\":13913:13949   */\n      iszero\n      tag_619\n      jumpi\n        /* \"#utility.yul\":13945:13946   */\n      0x00\n        /* \"#utility.yul\":13942:13943   */\n      dup1\n        /* \"#utility.yul\":13935:13947   */\n      revert\n        /* \"#utility.yul\":13913:13949   */\n    tag_619:\n        /* \"#utility.yul\":13982:14037   */\n      tag_620\n        /* \"#utility.yul\":14029:14036   */\n      dup9\n        /* \"#utility.yul\":14018:14026   */\n      dup3\n        /* \"#utility.yul\":14014:14016   */\n      dup8\n        /* \"#utility.yul\":14010:14027   */\n      add\n        /* \"#utility.yul\":13982:14037   */\n      tag_492\n      jump\t// in\n    tag_620:\n        /* \"#utility.yul\":13965:13980   */\n      swap2\n      dup4\n      add\n        /* \"#utility.yul\":13958:14038   */\n      swap2\n      swap1\n      swap2\n      mstore\n      pop\n        /* \"#utility.yul\":13969:13974   */\n      swap6\n        /* \"#utility.yul\":12141:14068   */\n      swap5\n      pop\n      pop\n      pop\n      pop\n      pop\n      jump\t// out\n        /* \"#utility.yul\":14073:14200   */\n    tag_144:\n        /* \"#utility.yul\":14134:14144   */\n      0x4e487b71\n        /* \"#utility.yul\":14129:14132   */\n      0xe0\n        /* \"#utility.yul\":14125:14145   */\n      shl\n        /* \"#utility.yul\":14122:14123   */\n      0x00\n        /* \"#utility.yul\":14115:14146   */\n      mstore\n        /* \"#utility.yul\":14165:14169   */\n      0x32\n        /* \"#utility.yul\":14162:14163   */\n      0x04\n        /* \"#utility.yul\":14155:14170   */\n      mstore\n        /* \"#utility.yul\":14189:14193   */\n      0x24\n        /* \"#utility.yul\":14186:14187   */\n      0x00\n        /* \"#utility.yul\":14179:14194   */\n      revert\n        /* \"#utility.yul\":14205:14585   */\n    tag_151:\n        /* \"#utility.yul\":14284:14285   */\n      0x01\n        /* \"#utility.yul\":14280:14292   */\n      dup2\n      dup2\n      shr\n      swap1\n        /* \"#utility.yul\":14327:14339   */\n      dup3\n      and\n      dup1\n        /* \"#utility.yul\":14348:14409   */\n      tag_623\n      jumpi\n        /* \"#utility.yul\":14402:14406   */\n      0x7f\n        /* \"#utility.yul\":14394:14400   */\n      dup3\n        /* \"#utility.yul\":14390:14407   */\n      and\n        /* \"#utility.yul\":14380:14407   */\n      swap2\n      pop\n        /* \"#utility.yul\":14348:14409   */\n    tag_623:\n        /* \"#utility.yul\":14455:14457   */\n      0x20\n        /* \"#utility.yul\":14447:14453   */\n      dup3\n        /* \"#utility.yul\":14444:14458   */\n      lt\n        /* \"#utility.yul\":14424:14442   */\n      dup2\n        /* \"#utility.yul\":14421:14459   */\n      sub\n        /* \"#utility.yul\":14418:14579   */\n      tag_123\n      jumpi\n        /* \"#utility.yul\":14501:14511   */\n      0x4e487b71\n        /* \"#utility.yul\":14496:14499   */\n      0xe0\n        /* \"#utility.yul\":14492:14512   */\n      shl\n        /* \"#utility.yul\":14489:14490   */\n      0x00\n        /* \"#utility.yul\":14482:14513   */\n      mstore\n        /* \"#utility.yul\":14536:14540   */\n      0x22\n        /* \"#utility.yul\":14533:14534   */\n      0x04\n        /* \"#utility.yul\":14526:14541   */\n      mstore\n        /* \"#utility.yul\":14564:14568   */\n      0x24\n        /* \"#utility.yul\":14561:14562   */\n      0x00\n        /* \"#utility.yul\":14554:14569   */\n      revert\n        /* \"#utility.yul\":14590:14717   */\n    tag_493:\n        /* \"#utility.yul\":14651:14661   */\n      0x4e487b71\n        /* \"#utility.yul\":14646:14649   */\n      0xe0\n        /* \"#utility.yul\":14642:14662   */\n      shl\n        /* \"#utility.yul\":14639:14640   */\n      0x00\n        /* \"#utility.yul\":14632:14663   */\n      mstore\n        /* \"#utility.yul\":14682:14686   */\n      0x11\n        /* \"#utility.yul\":14679:14680   */\n      0x04\n        /* \"#utility.yul\":14672:14687   */\n      mstore\n        /* \"#utility.yul\":14706:14710   */\n      0x24\n        /* \"#utility.yul\":14703:14704   */\n      0x00\n        /* \"#utility.yul\":14696:14711   */\n      revert\n        /* \"#utility.yul\":14722:14857   */\n    tag_172:\n        /* \"#utility.yul\":14761:14764   */\n      0x00\n        /* \"#utility.yul\":14782:14799   */\n      0x01\n      dup3\n      add\n        /* \"#utility.yul\":14779:14822   */\n      tag_628\n      jumpi\n        /* \"#utility.yul\":14802:14820   */\n      tag_628\n      tag_493\n      jump\t// in\n    tag_628:\n      pop\n        /* \"#utility.yul\":14849:14850   */\n      0x01\n        /* \"#utility.yul\":14838:14851   */\n      add\n      swap1\n        /* \"#utility.yul\":14722:14857   */\n      jump\t// out\n        /* \"#utility.yul\":14862:15059   */\n    tag_233:\n        /* \"#utility.yul\":14900:14903   */\n      0x00\n        /* \"#utility.yul\":14928:14934   */\n      0xffff\n        /* \"#utility.yul\":14969:14971   */\n      dup1\n        /* \"#utility.yul\":14962:14967   */\n      dup4\n        /* \"#utility.yul\":14958:14972   */\n      and\n        /* \"#utility.yul\":14996:14998   */\n      dup2\n        /* \"#utility.yul\":14987:14994   */\n      dup2\n        /* \"#utility.yul\":14984:14999   */\n      sub\n        /* \"#utility.yul\":14981:15022   */\n      tag_631\n      jumpi\n        /* \"#utility.yul\":15002:15020   */\n      tag_631\n      tag_493\n      jump\t// in\n    tag_631:\n        /* \"#utility.yul\":15051:15052   */\n      0x01\n        /* \"#utility.yul\":15038:15053   */\n      add\n      swap4\n        /* \"#utility.yul\":14862:15059   */\n      swap3\n      pop\n      pop\n      pop\n      jump\t// out\n        /* \"#utility.yul\":16894:17022   */\n    tag_266:\n        /* \"#utility.yul\":16961:16970   */\n      dup2\n      dup2\n      sub\n        /* \"#utility.yul\":16982:16993   */\n      dup2\n      dup2\n      gt\n        /* \"#utility.yul\":16979:17016   */\n      iszero\n      tag_118\n      jumpi\n        /* \"#utility.yul\":16996:17014   */\n      tag_118\n      tag_493\n      jump\t// in\n        /* \"#utility.yul\":17384:17657   */\n    tag_275:\n        /* \"#utility.yul\":17569:17575   */\n      dup2\n        /* \"#utility.yul\":17561:17567   */\n      dup4\n        /* \"#utility.yul\":17556:17559   */\n      dup3\n        /* \"#utility.yul\":17543:17576   */\n      calldatacopy\n        /* \"#utility.yul\":17525:17528   */\n      0x00\n        /* \"#utility.yul\":17595:17611   */\n      swap2\n      add\n        /* \"#utility.yul\":17620:17633   */\n      swap1\n      dup2\n      mstore\n        /* \"#utility.yul\":17595:17611   */\n      swap2\n        /* \"#utility.yul\":17384:17657   */\n      swap1\n      pop\n      jump\t// out\n        /* \"#utility.yul\":18017:18306   */\n    tag_291:\n        /* \"#utility.yul\":18148:18151   */\n      0x00\n        /* \"#utility.yul\":18186:18192   */\n      dup3\n        /* \"#utility.yul\":18180:18193   */\n      mload\n        /* \"#utility.yul\":18202:18268   */\n      tag_644\n        /* \"#utility.yul\":18261:18267   */\n      dup2\n        /* \"#utility.yul\":18256:18259   */\n      dup5\n        /* \"#utility.yul\":18249:18253   */\n      0x20\n        /* \"#utility.yul\":18241:18247   */\n      dup8\n        /* \"#utility.yul\":18237:18254   */\n      add\n        /* \"#utility.yul\":18202:18268   */\n      tag_482\n      jump\t// in\n    tag_644:\n        /* \"#utility.yul\":18284:18300   */\n      swap2\n      swap1\n      swap2\n      add\n      swap3\n        /* \"#utility.yul\":18017:18306   */\n      swap2\n      pop\n      pop\n      jump\t// out\n        /* \"#utility.yul\":19070:19197   */\n    tag_356:\n        /* \"#utility.yul\":19131:19141   */\n      0x4e487b71\n        /* \"#utility.yul\":19126:19129   */\n      0xe0\n        /* \"#utility.yul\":19122:19142   */\n      shl\n        /* \"#utility.yul\":19119:19120   */\n      0x00\n        /* \"#utility.yul\":19112:19143   */\n      mstore\n        /* \"#utility.yul\":19162:19166   */\n      0x31\n        /* \"#utility.yul\":19159:19160   */\n      0x04\n        /* \"#utility.yul\":19152:19167   */\n      mstore\n        /* \"#utility.yul\":19186:19190   */\n      0x24\n        /* \"#utility.yul\":19183:19184   */\n      0x00\n        /* \"#utility.yul\":19176:19191   */\n      revert\n        /* \"#utility.yul\":19202:19377   */\n    tag_359:\n        /* \"#utility.yul\":19239:19242   */\n      0x00\n        /* \"#utility.yul\":19283:19287   */\n      0xff\n        /* \"#utility.yul\":19276:19281   */\n      dup3\n        /* \"#utility.yul\":19272:19288   */\n      and\n        /* \"#utility.yul\":19312:19316   */\n      0xff\n        /* \"#utility.yul\":19303:19310   */\n      dup2\n        /* \"#utility.yul\":19300:19317   */\n      sub\n        /* \"#utility.yul\":19297:19340   */\n      tag_650\n      jumpi\n        /* \"#utility.yul\":19320:19338   */\n      tag_650\n      tag_493\n      jump\t// in\n    tag_650:\n        /* \"#utility.yul\":19369:19370   */\n      0x01\n        /* \"#utility.yul\":19356:19371   */\n      add\n      swap3\n        /* \"#utility.yul\":19202:19377   */\n      swap2\n      pop\n      pop\n      jump\t// out\n        /* \"#utility.yul\":19508:20053   */\n    tag_495:\n        /* \"#utility.yul\":19610:19612   */\n      0x1f\n        /* \"#utility.yul\":19605:19608   */\n      dup3\n        /* \"#utility.yul\":19602:19613   */\n      gt\n        /* \"#utility.yul\":19599:20047   */\n      iszero\n      tag_403\n      jumpi\n        /* \"#utility.yul\":19646:19647   */\n      0x00\n        /* \"#utility.yul\":19671:19676   */\n      dup2\n        /* \"#utility.yul\":19667:19669   */\n      dup2\n        /* \"#utility.yul\":19660:19677   */\n      mstore\n        /* \"#utility.yul\":19716:19720   */\n      0x20\n        /* \"#utility.yul\":19712:19714   */\n      dup2\n        /* \"#utility.yul\":19702:19721   */\n      keccak256\n        /* \"#utility.yul\":19786:19788   */\n      0x1f\n        /* \"#utility.yul\":19774:19784   */\n      dup6\n        /* \"#utility.yul\":19770:19789   */\n      add\n        /* \"#utility.yul\":19767:19768   */\n      0x05\n        /* \"#utility.yul\":19763:19790   */\n      shr\n        /* \"#utility.yul\":19757:19761   */\n      dup2\n        /* \"#utility.yul\":19753:19791   */\n      add\n        /* \"#utility.yul\":19822:19826   */\n      0x20\n        /* \"#utility.yul\":19810:19820   */\n      dup7\n        /* \"#utility.yul\":19807:19827   */\n      lt\n        /* \"#utility.yul\":19804:19851   */\n      iszero\n      tag_654\n      jumpi\n      pop\n        /* \"#utility.yul\":19845:19849   */\n      dup1\n        /* \"#utility.yul\":19804:19851   */\n    tag_654:\n        /* \"#utility.yul\":19900:19902   */\n      0x1f\n        /* \"#utility.yul\":19895:19898   */\n      dup6\n        /* \"#utility.yul\":19891:19903   */\n      add\n        /* \"#utility.yul\":19888:19889   */\n      0x05\n        /* \"#utility.yul\":19884:19904   */\n      shr\n        /* \"#utility.yul\":19878:19882   */\n      dup3\n        /* \"#utility.yul\":19874:19905   */\n      add\n        /* \"#utility.yul\":19864:19905   */\n      swap2\n      pop\n        /* \"#utility.yul\":19955:20037   */\n    tag_655:\n        /* \"#utility.yul\":19973:19975   */\n      dup2\n        /* \"#utility.yul\":19966:19971   */\n      dup2\n        /* \"#utility.yul\":19963:19976   */\n      lt\n        /* \"#utility.yul\":19955:20037   */\n      iszero\n      tag_657\n      jumpi\n        /* \"#utility.yul\":20018:20035   */\n      dup3\n      dup2\n      sstore\n        /* \"#utility.yul\":19999:20000   */\n      0x01\n        /* \"#utility.yul\":19988:20001   */\n      add\n        /* \"#utility.yul\":19955:20037   */\n      jump(tag_655)\n    tag_657:\n        /* \"#utility.yul\":19959:19962   */\n      pop\n      pop\n      pop\n        /* \"#utility.yul\":19508:20053   */\n      pop\n      pop\n      pop\n      jump\t// out\n        /* \"#utility.yul\":20229:21581   */\n    tag_367:\n        /* \"#utility.yul\":20355:20358   */\n      dup2\n        /* \"#utility.yul\":20349:20359   */\n      mload\n      sub(shl(0x40, 0x01), 0x01)\n        /* \"#utility.yul\":20374:20380   */\n      dup2\n        /* \"#utility.yul\":20371:20401   */\n      gt\n        /* \"#utility.yul\":20368:20424   */\n      iszero\n      tag_661\n      jumpi\n        /* \"#utility.yul\":20404:20422   */\n      tag_661\n      tag_134\n      jump\t// in\n    tag_661:\n        /* \"#utility.yul\":20433:20530   */\n      tag_662\n        /* \"#utility.yul\":20523:20529   */\n      dup2\n        /* \"#utility.yul\":20483:20521   */\n      tag_663\n        /* \"#utility.yul\":20515:20519   */\n      dup5\n        /* \"#utility.yul\":20509:20520   */\n      sload\n        /* \"#utility.yul\":20483:20521   */\n      tag_151\n      jump\t// in\n    tag_663:\n        /* \"#utility.yul\":20477:20481   */\n      dup5\n        /* \"#utility.yul\":20433:20530   */\n      tag_495\n      jump\t// in\n    tag_662:\n        /* \"#utility.yul\":20585:20589   */\n      0x20\n      dup1\n        /* \"#utility.yul\":20649:20651   */\n      0x1f\n        /* \"#utility.yul\":20638:20652   */\n      dup4\n      gt\n        /* \"#utility.yul\":20666:20667   */\n      0x01\n        /* \"#utility.yul\":20661:21324   */\n      dup2\n      eq\n      tag_665\n      jumpi\n        /* \"#utility.yul\":21368:21369   */\n      0x00\n        /* \"#utility.yul\":21385:21391   */\n      dup5\n        /* \"#utility.yul\":21382:21471   */\n      iszero\n      tag_666\n      jumpi\n      pop\n        /* \"#utility.yul\":21437:21456   */\n      dup6\n      dup4\n      add\n        /* \"#utility.yul\":21431:21457   */\n      mload\n        /* \"#utility.yul\":21382:21471   */\n    tag_666:\n      not(0x00)\n        /* \"#utility.yul\":20186:20187   */\n      0x03\n        /* \"#utility.yul\":20182:20193   */\n      dup7\n      swap1\n      shl\n        /* \"#utility.yul\":20178:20202   */\n      shr\n        /* \"#utility.yul\":20174:20203   */\n      not\n        /* \"#utility.yul\":20164:20204   */\n      and\n        /* \"#utility.yul\":20210:20211   */\n      0x01\n        /* \"#utility.yul\":20206:20217   */\n      dup6\n      swap1\n      shl\n        /* \"#utility.yul\":20161:20218   */\n      or\n        /* \"#utility.yul\":21484:21565   */\n      dup6\n      sstore\n        /* \"#utility.yul\":20631:21575   */\n      jump(tag_657)\n        /* \"#utility.yul\":20661:21324   */\n    tag_665:\n        /* \"#utility.yul\":19455:19456   */\n      0x00\n        /* \"#utility.yul\":19448:19462   */\n      dup6\n      dup2\n      mstore\n        /* \"#utility.yul\":19492:19496   */\n      0x20\n        /* \"#utility.yul\":19479:19497   */\n      dup2\n      keccak256\n      not(0x1f)\n        /* \"#utility.yul\":20697:20717   */\n      dup7\n      and\n      swap2\n        /* \"#utility.yul\":20815:21051   */\n    tag_669:\n        /* \"#utility.yul\":20829:20836   */\n      dup3\n        /* \"#utility.yul\":20826:20827   */\n      dup2\n        /* \"#utility.yul\":20823:20837   */\n      lt\n        /* \"#utility.yul\":20815:21051   */\n      iszero\n      tag_671\n      jumpi\n        /* \"#utility.yul\":20918:20937   */\n      dup9\n      dup7\n      add\n        /* \"#utility.yul\":20912:20938   */\n      mload\n        /* \"#utility.yul\":20897:20939   */\n      dup3\n      sstore\n        /* \"#utility.yul\":21010:21037   */\n      swap5\n      dup5\n      add\n      swap5\n        /* \"#utility.yul\":20978:20979   */\n      0x01\n        /* \"#utility.yul\":20966:20980   */\n      swap1\n      swap2\n      add\n      swap1\n        /* \"#utility.yul\":20845:20864   */\n      dup5\n      add\n        /* \"#utility.yul\":20815:21051   */\n      jump(tag_669)\n    tag_671:\n        /* \"#utility.yul\":20819:20822   */\n      pop\n        /* \"#utility.yul\":21079:21085   */\n      dup6\n        /* \"#utility.yul\":21070:21077   */\n      dup3\n        /* \"#utility.yul\":21067:21086   */\n      lt\n        /* \"#utility.yul\":21064:21265   */\n      iszero\n      tag_672\n      jumpi\n        /* \"#utility.yul\":21140:21159   */\n      dup8\n      dup6\n      add\n        /* \"#utility.yul\":21134:21160   */\n      mload\n      not(0x00)\n        /* \"#utility.yul\":21223:21224   */\n      0x03\n        /* \"#utility.yul\":21219:21233   */\n      dup9\n      swap1\n      shl\n        /* \"#utility.yul\":21235:21238   */\n      0xf8\n        /* \"#utility.yul\":21215:21239   */\n      and\n        /* \"#utility.yul\":21211:21248   */\n      shr\n        /* \"#utility.yul\":21207:21249   */\n      not\n        /* \"#utility.yul\":21192:21250   */\n      and\n        /* \"#utility.yul\":21177:21251   */\n      dup2\n      sstore\n        /* \"#utility.yul\":21064:21265   */\n    tag_672:\n      pop\n      pop\n      pop\n      pop\n      pop\n        /* \"#utility.yul\":21311:21312   */\n      0x01\n        /* \"#utility.yul\":21295:21309   */\n      swap1\n      dup2\n      shl\n        /* \"#utility.yul\":21291:21313   */\n      add\n        /* \"#utility.yul\":21278:21314   */\n      swap1\n      sstore\n      pop\n        /* \"#utility.yul\":20229:21581   */\n      jump\t// out\n        /* \"#utility.yul\":22288:23100   */\n    tag_428:\n        /* \"#utility.yul\":22699:22724   */\n      0x416363657373436f6e74726f6c3a206163636f756e7420000000000000000000\n        /* \"#utility.yul\":22694:22697   */\n      dup2\n        /* \"#utility.yul\":22687:22725   */\n      mstore\n        /* \"#utility.yul\":22669:22672   */\n      0x00\n        /* \"#utility.yul\":22754:22760   */\n      dup4\n        /* \"#utility.yul\":22748:22761   */\n      mload\n        /* \"#utility.yul\":22770:22845   */\n      tag_676\n        /* \"#utility.yul\":22838:22844   */\n      dup2\n        /* \"#utility.yul\":22833:22835   */\n      0x17\n        /* \"#utility.yul\":22828:22831   */\n      dup6\n        /* \"#utility.yul\":22824:22836   */\n      add\n        /* \"#utility.yul\":22817:22821   */\n      0x20\n        /* \"#utility.yul\":22809:22815   */\n      dup9\n        /* \"#utility.yul\":22805:22822   */\n      add\n        /* \"#utility.yul\":22770:22845   */\n      tag_482\n      jump\t// in\n    tag_676:\n      shl(0x7d, 0x01034b99036b4b9b9b4b733903937b6329)\n        /* \"#utility.yul\":22904:22906   */\n      0x17\n        /* \"#utility.yul\":22864:22880   */\n      swap2\n      dup5\n      add\n        /* \"#utility.yul\":22896:22907   */\n      swap2\n      dup3\n      add\n        /* \"#utility.yul\":22889:22929   */\n      mstore\n        /* \"#utility.yul\":22954:22967   */\n      dup4\n      mload\n        /* \"#utility.yul\":22976:23052   */\n      tag_677\n        /* \"#utility.yul\":22954:22967   */\n      dup2\n        /* \"#utility.yul\":23038:23040   */\n      0x28\n        /* \"#utility.yul\":23030:23041   */\n      dup5\n      add\n        /* \"#utility.yul\":23023:23027   */\n      0x20\n        /* \"#utility.yul\":23011:23028   */\n      dup9\n      add\n        /* \"#utility.yul\":22976:23052   */\n      tag_482\n      jump\t// in\n    tag_677:\n        /* \"#utility.yul\":23072:23089   */\n      add\n        /* \"#utility.yul\":23091:23093   */\n      0x28\n        /* \"#utility.yul\":23068:23094   */\n      add\n      swap5\n        /* \"#utility.yul\":22288:23100   */\n      swap4\n      pop\n      pop\n      pop\n      pop\n      jump\t// out\n        /* \"#utility.yul\":23105:23325   */\n    tag_430:\n        /* \"#utility.yul\":23254:23256   */\n      0x20\n        /* \"#utility.yul\":23243:23252   */\n      dup2\n        /* \"#utility.yul\":23236:23257   */\n      mstore\n        /* \"#utility.yul\":23217:23221   */\n      0x00\n        /* \"#utility.yul\":23274:23319   */\n      tag_456\n        /* \"#utility.yul\":23315:23317   */\n      0x20\n        /* \"#utility.yul\":23304:23313   */\n      dup4\n        /* \"#utility.yul\":23300:23318   */\n      add\n        /* \"#utility.yul\":23292:23298   */\n      dup5\n        /* \"#utility.yul\":23274:23319   */\n      tag_483\n      jump\t// in\n        /* \"#utility.yul\":23330:23498   */\n    tag_435:\n        /* \"#utility.yul\":23403:23412   */\n      dup1\n      dup3\n      mul\n        /* \"#utility.yul\":23434:23443   */\n      dup2\n      iszero\n        /* \"#utility.yul\":23451:23466   */\n      dup3\n      dup3\n      div\n        /* \"#utility.yul\":23445:23467   */\n      dup5\n      eq\n        /* \"#utility.yul\":23431:23468   */\n      or\n        /* \"#utility.yul\":23421:23492   */\n      tag_118\n      jumpi\n        /* \"#utility.yul\":23472:23490   */\n      tag_118\n      tag_493\n      jump\t// in\n        /* \"#utility.yul\":23503:23628   */\n    tag_437:\n        /* \"#utility.yul\":23568:23577   */\n      dup1\n      dup3\n      add\n        /* \"#utility.yul\":23589:23599   */\n      dup1\n      dup3\n      gt\n        /* \"#utility.yul\":23586:23622   */\n      iszero\n      tag_118\n      jumpi\n        /* \"#utility.yul\":23602:23620   */\n      tag_118\n      tag_493\n      jump\t// in\n        /* \"#utility.yul\":23633:23769   */\n    tag_455:\n        /* \"#utility.yul\":23672:23675   */\n      0x00\n        /* \"#utility.yul\":23700:23705   */\n      dup2\n        /* \"#utility.yul\":23690:23729   */\n      tag_688\n      jumpi\n        /* \"#utility.yul\":23709:23727   */\n      tag_688\n      tag_493\n      jump\t// in\n    tag_688:\n      pop\n      not(0x00)\n        /* \"#utility.yul\":23745:23763   */\n      add\n      swap1\n        /* \"#utility.yul\":23633:23769   */\n      jump\t// out\n    stop\n    data_be3e709ccfa493aa582ab5a8c394c6715fbafb2c07360d03c84529526f351da9 ce5b4dffeb636293708c79f81c22e23cd9e58de35c143478790754258cb2cd38\n\n    auxdata: 0xa2646970667358221220580e9320aeeab9c8b3aae111168c6728d792ce86e1d9ab7fada01854d0a3f16764736f6c63430008130033\n}\n",
				"bytecode": {
					"linkReferences": {},
					"object": "60806040526200001160003362000017565b620000b8565b6000828152602081815260408083206001600160a01b038516845290915290205460ff16620000b4576000828152602081815260408083206001600160a01b03851684529091529020805460ff19166001179055620000733390565b6001600160a01b0316816001600160a01b0316837f2f8788117e7eff1d82e926ec794901d17c78024a50270940304540a733656f0d60405160405180910390a45b5050565b612beb80620000c86000396000f3fe608060405234801561001057600080fd5b506004361061012c5760003560e01c806354eecb92116100ad578063a217fddf11610071578063a217fddf146102ac578063ce1dd554146102b4578063d547741f146102c7578063d86a8af3146102da578063ded92c3d146102ed57600080fd5b806354eecb921461024b57806376f1a3581461025e5780637e7e8aa21461027157806390bc18641461028657806391d148541461029957600080fd5b806320382f46116100f457806320382f46146101bf578063248a9ca3146101df5780632f2ff15d1461021057806336568abe146102255780633b2c0e5a1461023857600080fd5b806301ffc9a7146101315780631339f27b14610159578063134c03771461016c578063186fbad21461018c57806319d8bcf01461019f575b600080fd5b61014461013f366004612053565b610300565b60405190151581526020015b60405180910390f35b61014461016736600461207d565b610337565b61017f61017a3660046120b2565b610387565b60405161015091906122ae565b61014461019a36600461207d565b610762565b6101b26101ad36600461207d565b610835565b6040516101509190612310565b6101d26101cd3660046123b5565b610b20565b604051610150919061245d565b6102026101ed36600461207d565b60009081526020819052604090206001015490565b604051908152602001610150565b61022361021e3660046124a3565b610cdb565b005b6102236102333660046124a3565b610d3f565b6101446102463660046124cf565b610dc2565b610144610259366004612550565b610f7b565b61014461026c3660046125b1565b6110be565b610202600080516020612b9683398151915281565b610144610294366004612679565b6111e5565b6101446102a73660046124a3565b6113ad565b610202600081565b6101d26102c23660046123b5565b6113d6565b6102236102d53660046124a3565b611588565b6101446102e8366004612756565b6116ff565b6101446102fb366004612756565b611866565b60006001600160e01b03198216637965db0b60e01b148061033157506301ffc9a760e01b6001600160e01b03198316145b92915050565b6000600080516020612b9683398151915261035181611a51565b61035a83611a5e565b6000838152600260205260409020600701805460ff60a01b1916600360a01b179055600191505b50919050565b6060600080516020612b968339815191526103a181611a51565b6001600160a01b0383166000908152600360205260409020546001600160401b038111156103d1576103d1612323565b60405190808252806020026020018201604052801561040a57816020015b6103f7611ef2565b8152602001906001900390816103ef5790505b50915060005b825181101561075b576001600160a01b03841660009081526003602052604081208054600292919084908110610448576104486128b1565b60009182526020808320909101548352828101939093526040918201902081516102008101835281546001600160a01b039081168252600183015494820194909452600282015492810192909252600380820154606084015260048201546080840152600582015460a0840152600682015460c0840152600782015493841660e08401529192909161010084019160ff600160a01b90910416908111156104f1576104f16120cd565b6003811115610502576105026120cd565b8152602001600882018054610516906128c7565b80601f0160208091040260200160405190810160405280929190818152602001828054610542906128c7565b801561058f5780601f106105645761010080835404028352916020019161058f565b820191906000526020600020905b81548152906001019060200180831161057257829003601f168201915b5050505050815260200160098201548152602001600a8201548152602001600b8201548152602001600c8201548152602001600d820180546105d0906128c7565b80601f01602080910402602001604051908101604052809291908181526020018280546105fc906128c7565b80156106495780601f1061061e57610100808354040283529160200191610649565b820191906000526020600020905b81548152906001019060200180831161062c57829003601f168201915b50505050508152602001600e8201805480602002602001604051908101604052809291908181526020016000905b82821015610723578382906000526020600020018054610696906128c7565b80601f01602080910402602001604051908101604052809291908181526020018280546106c2906128c7565b801561070f5780601f106106e45761010080835404028352916020019161070f565b820191906000526020600020905b8154815290600101906020018083116106f257829003601f168201915b505050505081526020019060010190610677565b505050508152505083828151811061073d5761073d6128b1565b6020026020010181905250808061075390612911565b915050610410565b5050919050565b6000600080516020612b9683398151915261077c81611a51565b61078583611a5e565b6000838152600260208190526040822080546001600160a01b031916815560018101839055908101829055600381018290556004810182905560058101829055600681018290556007810180546001600160a81b0319169055906107ec6008830182611f73565b6009820160009055600a820160009055600b820160009055600c820160009055600d8201600061081c9190611f73565b61082a600e83016000611fad565b506001949350505050565b61083d611ef2565b61084682611a5e565b60008281526002602081815260409283902083516102008101855281546001600160a01b0390811682526001830154938201939093529281015493830193909352600380840154606084015260048401546080840152600584015460a0840152600684015460c0840152600784015491821660e0840152919291610100840191600160a01b900460ff16908111156108e0576108e06120cd565b60038111156108f1576108f16120cd565b8152602001600882018054610905906128c7565b80601f0160208091040260200160405190810160405280929190818152602001828054610931906128c7565b801561097e5780601f106109535761010080835404028352916020019161097e565b820191906000526020600020905b81548152906001019060200180831161096157829003601f168201915b5050505050815260200160098201548152602001600a8201548152602001600b8201548152602001600c8201548152602001600d820180546109bf906128c7565b80601f01602080910402602001604051908101604052809291908181526020018280546109eb906128c7565b8015610a385780601f10610a0d57610100808354040283529160200191610a38565b820191906000526020600020905b815481529060010190602001808311610a1b57829003601f168201915b50505050508152602001600e8201805480602002602001604051908101604052809291908181526020016000905b82821015610b12578382906000526020600020018054610a85906128c7565b80601f0160208091040260200160405190810160405280929190818152602001828054610ab1906128c7565b8015610afe5780601f10610ad357610100808354040283529160200191610afe565b820191906000526020600020905b815481529060010190602001808311610ae157829003601f168201915b505050505081526020019060010190610a66565b505050915250909392505050565b6060600080516020612b96833981519152610b3a81611a51565b600083516001600160401b03811115610b5557610b55612323565b604051908082528060200260200182016040528015610b7e578160200160208202803683370190505b50905060005b84518161ffff161015610cd257856001600160a01b031660026000878461ffff1681518110610bb557610bb56128b1565b6020908102919091018101518252810191909152604001600020546001600160a01b0316148015610c375750600160026000878461ffff1681518110610bfd57610bfd6128b1565b6020026020010151815260200190815260200160002060070160149054906101000a900460ff166003811115610c3557610c356120cd565b145b15610cc057600060026000878461ffff1681518110610c5857610c586128b1565b6020026020010151815260200190815260200160002060070160146101000a81548160ff02191690836003811115610c9257610c926120cd565b02179055506001828261ffff1681518110610caf57610caf6128b1565b911515602092830291909101909101525b80610cca8161292a565b915050610b84565b50949350505050565b600082815260208190526040902060010154610cf681611a51565b610d008383611ac2565b506000918252600160208181526040842080549283018155845290922090910180546001600160a01b0319166001600160a01b03909216919091179055565b6001600160a01b0381163314610db45760405162461bcd60e51b815260206004820152602f60248201527f416363657373436f6e74726f6c3a2063616e206f6e6c792072656e6f756e636560448201526e103937b632b9903337b91039b2b63360891b60648201526084015b60405180910390fd5b610dbe8282611b46565b5050565b6000600080516020612b96833981519152610ddc81611a51565b428411610e2b5760405162461bcd60e51b815260206004820152601b60248201527f506f6f6c436f64653a20496e76616c6964204c6f636b2054696d6500000000006044820152606401610dab565b6000858152600260205260409020600b0154421015610e835760405162461bcd60e51b8152602060048201526014602482015273506f6f6c436f64653a205374696c6c204c6f636b60601b6044820152606401610dab565b6064831115610ed45760405162461bcd60e51b815260206004820152601b60248201527f506f6f6c436f64653a20496e76616c6964204c6f636b205261746500000000006044820152606401610dab565b6000858152600260205260409020546001600160a01b03878116911614610f3d5760405162461bcd60e51b815260206004820152601860248201527f506f6f6c436f64653a204e6f7420436f6465204f776e657200000000000000006044820152606401610dab565b6000858152600260205260409020600b01849055610f5c83606461294b565b6000868152600260205260409020600a01556001915050949350505050565b6000600080516020612b96833981519152610f9581611a51565b6000868152600260205260409020546001600160a01b03888116911614610ffe5760405162461bcd60e51b815260206004820152601c60248201527f506f6f6c436f64653a20496e76616c69642057616c6c6574204b6579000000006044820152606401610dab565b6000868152600260205260409020600c01541561109d57848460405160200161102892919061295e565b60408051601f198184030181529181528151602092830120600089815260029093529120600c01541461109d5760405162461bcd60e51b815260206004820152601a60248201527f506f6f6c436f64653a20496e76616c6964206b657920686173680000000000006044820152606401610dab565b5050600093845260026020526040909320600c019290925550600192915050565b6000600080516020612b968339815191526110d881611a51565b6000858152600260205260409020546001600160a01b038781169116146111415760405162461bcd60e51b815260206004820152601c60248201527f506f6f6c436f64653a20496e76616c69642057616c6c6574204b6579000000006044820152606401610dab565b838360405160200161115492919061295e565b60408051601f198184030181529181528151602092830120600088815260029093529120600c0154146111c95760405162461bcd60e51b815260206004820152601a60248201527f506f6f6c436f64653a20496e76616c6964206b657920686173680000000000006044820152606401610dab565b505050600091825250600260205260408120600c015550600190565b6000600080516020612b968339815191526111ff81611a51565b600084604051602001611212919061296e565b60405160208183030381529060405280519060200120905061123381611a5e565b60008181526002602052604090206003015442111561129e5760405162461bcd60e51b815260206004820152602160248201527f506f6f6c436f64653a20457870697265642041637469766174696f6e2054696d6044820152606560f81b6064820152608401610dab565b6001600082815260026020526040902060070154600160a01b900460ff1660038111156112cd576112cd6120cd565b1461131a5760405162461bcd60e51b815260206004820152601c60248201527f506f6f6c436f64653a204e6f7420556e626c6f636b656420436f6465000000006044820152606401610dab565b60008181526002602052604090205461133c906001600160a01b031682611bab565b600081815260026020818152604080842060078101805460ff60a01b1916600160a11b179055429381019390935582546001600160a01b0319166001600160a01b03989098169788179092559582526003865281208054600181810183559183529590912090940155509092915050565b6000918252602082815260408084206001600160a01b0393909316845291905290205460ff1690565b6060600080516020612b968339815191526113f081611a51565b600083516001600160401b0381111561140b5761140b612323565b604051908082528060200260200182016040528015611434578160200160208202803683370190505b50905060005b84518161ffff161015610cd257856001600160a01b031660026000878461ffff168151811061146b5761146b6128b1565b6020908102919091018101518252810191909152604001600020546001600160a01b03161480156114ed5750600060026000878461ffff16815181106114b3576114b36128b1565b6020026020010151815260200190815260200160002060070160149054906101000a900460ff1660038111156114eb576114eb6120cd565b145b1561157657600160026000878461ffff168151811061150e5761150e6128b1565b6020026020010151815260200190815260200160002060070160146101000a81548160ff02191690836003811115611548576115486120cd565b02179055506001828261ffff1681518110611565576115656128b1565b911515602092830291909101909101525b806115808161292a565b91505061143a565b6000828152602081905260409020600101546115a381611a51565b6115ad8383611b46565b60005b60008481526001602052604090205460ff821611156116f957600084815260016020526040902080546001600160a01b038516919060ff84169081106115f8576115f86128b1565b6000918252602090912001546001600160a01b0316036116e7576000848152600160208190526040909120805490916116309161294b565b81548110611640576116406128b1565b60009182526020808320909101548683526001909152604090912080546001600160a01b039092169160ff841690811061167c5761167c6128b1565b600091825260208083209190910180546001600160a01b0319166001600160a01b0394909416939093179092558581526001909152604090208054806116c4576116c461298a565b600082815260209020810160001990810180546001600160a01b03191690550190555b806116f1816129a0565b9150506115b0565b50505050565b6000600080516020612b9683398151915261171981611a51565b6117268360200151611a5e565b602080840180516000908152600292839052604090819020865181546001600160a01b039182166001600160a01b031991821617835593516001830155918701519381019390935560608601516003808501919091556080870151600485015560a0870151600585015560c0870151600685015560e087015160078501805491909316938116841783556101008801518895949093926001600160a81b03199092161790600160a01b9084908111156117e1576117e16120cd565b021790555061012082015160088201906117fb9082612a0d565b506101408201516009820155610160820151600a820155610180820151600b8201556101a0820151600c8201556101c0820151600d82019061183d9082612a0d565b506101e0820151805161185a91600e840191602090910190611fcb565b50600195945050505050565b6000600080516020612b9683398151915261188081611a51565b6020808401516000908152600290915260409020546001600160a01b0316156118e25760405162461bcd60e51b8152602060048201526014602482015273141bdbdb10dbd9194e8810dbd91948115e1a5cdd60621b6044820152606401610dab565b602080840180516000908152600292839052604090819020865181546001600160a01b039182166001600160a01b031991821617835593516001830155918701519381019390935560608601516003808501919091556080870151600485015560a0870151600585015560c0870151600685015560e087015160078501805491909316938116841783556101008801518895949093926001600160a81b03199092161790600160a01b90849081111561199d5761199d6120cd565b021790555061012082015160088201906119b79082612a0d565b506101408201516009820155610160820151600a820155610180820151600b8201556101a0820151600c8201556101c0820151600d8201906119f99082612a0d565b506101e08201518051611a1691600e840191602090910190611fcb565b505083516001600160a01b03166000908152600360209081526040822095810151865460018082018955978452919092200155509192915050565b611a5b8133611ce5565b50565b6000818152600260205260409020546001600160a01b0316611a5b5760405162461bcd60e51b815260206004820152601860248201527f506f6f6c436f64653a20436f6465204e6f7420457869737400000000000000006044820152606401610dab565b611acc82826113ad565b610dbe576000828152602081815260408083206001600160a01b03851684529091529020805460ff19166001179055611b023390565b6001600160a01b0316816001600160a01b0316837f2f8788117e7eff1d82e926ec794901d17c78024a50270940304540a733656f0d60405160405180910390a45050565b611b5082826113ad565b15610dbe576000828152602081815260408083206001600160a01b0385168085529252808320805460ff1916905551339285917ff6391f5c32d9c69d2a47ea670b442974b53935d1edc7fd64eb21e047a839171b9190a45050565b60005b6001600160a01b038316600090815260036020526040902054811015611ce0576001600160a01b0383166000908152600360205260409020805483919083908110611bfb57611bfb6128b1565b906000526020600020015403611cce576001600160a01b03831660009081526003602052604090208054611c319060019061294b565b81548110611c4157611c416128b1565b906000526020600020015460036000856001600160a01b03166001600160a01b031681526020019081526020016000208281548110611c8257611c826128b1565b60009182526020808320909101929092556001600160a01b0385168152600390915260409020805480611cb757611cb761298a565b600190038181906000526020600020016000905590555b80611cd881612911565b915050611bae565b505050565b611cef82826113ad565b610dbe57611cfc81611d3e565b611d07836020611d50565b604051602001611d18929190612acc565b60408051601f198184030181529082905262461bcd60e51b8252610dab91600401612b41565b60606103316001600160a01b03831660145b60606000611d5f836002612b54565b611d6a906002612b6b565b6001600160401b03811115611d8157611d81612323565b6040519080825280601f01601f191660200182016040528015611dab576020820181803683370190505b509050600360fc1b81600081518110611dc657611dc66128b1565b60200101906001600160f81b031916908160001a905350600f60fb1b81600181518110611df557611df56128b1565b60200101906001600160f81b031916908160001a9053506000611e19846002612b54565b611e24906001612b6b565b90505b6001811115611e9c576f181899199a1a9b1b9c1cb0b131b232b360811b85600f1660108110611e5857611e586128b1565b1a60f81b828281518110611e6e57611e6e6128b1565b60200101906001600160f81b031916908160001a90535060049490941c93611e9581612b7e565b9050611e27565b508315611eeb5760405162461bcd60e51b815260206004820181905260248201527f537472696e67733a20686578206c656e67746820696e73756666696369656e746044820152606401610dab565b9392505050565b6040805161020081018252600080825260208201819052918101829052606081018290526080810182905260a0810182905260c0810182905260e08101829052906101008201908152602001606081526020016000815260200160008152602001600081526020016000801916815260200160608152602001606081525090565b508054611f7f906128c7565b6000825580601f10611f8f575050565b601f016020900490600052602060002090810190611a5b9190612021565b5080546000825590600052602060002090810190611a5b9190612036565b828054828255906000526020600020908101928215612011579160200282015b8281111561201157825182906120019082612a0d565b5091602001919060010190611feb565b5061201d929150612036565b5090565b5b8082111561201d5760008155600101612022565b8082111561201d57600061204a8282611f73565b50600101612036565b60006020828403121561206557600080fd5b81356001600160e01b031981168114611eeb57600080fd5b60006020828403121561208f57600080fd5b5035919050565b80356001600160a01b03811681146120ad57600080fd5b919050565b6000602082840312156120c457600080fd5b611eeb82612096565b634e487b7160e01b600052602160045260246000fd5b6004811061210157634e487b7160e01b600052602160045260246000fd5b9052565b60005b83811015612120578181015183820152602001612108565b50506000910152565b60008151808452612141816020860160208601612105565b601f01601f19169290920160200192915050565b6000815180845260208085019450848260051b860182860160005b8581101561219a578383038952612188838351612129565b98850198925090840190600101612170565b5090979650505050505050565b80516001600160a01b0316825260006102006020830151602085015260408301516040850152606083015160608501526080830151608085015260a083015160a085015260c083015160c085015260e083015161220f60e08601826001600160a01b03169052565b5061010080840151612223828701826120e3565b505061012080840151828287015261223d83870182612129565b6101408681015190880152610160808701519088015261018080870151908801526101a080870151908801526101c080870151888303828a0152919450925090506122888382612129565b925050506101e080840151858303828701526122a48382612155565b9695505050505050565b6000602080830181845280855180835260408601915060408160051b870101925083870160005b8281101561230357603f198886030184526122f18583516121a7565b945092850192908501906001016122d5565b5092979650505050505050565b602081526000611eeb60208301846121a7565b634e487b7160e01b600052604160045260246000fd5b60405161020081016001600160401b038111828210171561235c5761235c612323565b60405290565b604051601f8201601f191681016001600160401b038111828210171561238a5761238a612323565b604052919050565b60006001600160401b038211156123ab576123ab612323565b5060051b60200190565b600080604083850312156123c857600080fd5b6123d183612096565b91506020808401356001600160401b038111156123ed57600080fd5b8401601f810186136123fe57600080fd5b803561241161240c82612392565b612362565b81815260059190911b8201830190838101908883111561243057600080fd5b928401925b8284101561244e57833582529284019290840190612435565b80955050505050509250929050565b6020808252825182820181905260009190848201906040850190845b81811015612497578351151583529284019291840191600101612479565b50909695505050505050565b600080604083850312156124b657600080fd5b823591506124c660208401612096565b90509250929050565b600080600080608085870312156124e557600080fd5b6124ee85612096565b966020860135965060408601359560600135945092505050565b60008083601f84011261251a57600080fd5b5081356001600160401b0381111561253157600080fd5b60208301915083602082850101111561254957600080fd5b9250929050565b60008060008060006080868803121561256857600080fd5b61257186612096565b94506020860135935060408601356001600160401b0381111561259357600080fd5b61259f88828901612508565b96999598509660600135949350505050565b600080600080606085870312156125c757600080fd5b6125d085612096565b93506020850135925060408501356001600160401b038111156125f257600080fd5b6125fe87828801612508565b95989497509550505050565b600082601f83011261261b57600080fd5b81356001600160401b0381111561263457612634612323565b612647601f8201601f1916602001612362565b81815284602083860101111561265c57600080fd5b816020850160208301376000918101602001919091529392505050565b6000806040838503121561268c57600080fd5b82356001600160401b038111156126a257600080fd5b6126ae8582860161260a565b9250506124c660208401612096565b8035600481106120ad57600080fd5b600082601f8301126126dd57600080fd5b813560206126ed61240c83612392565b82815260059290921b8401810191818101908684111561270c57600080fd5b8286015b8481101561274b5780356001600160401b0381111561272f5760008081fd5b61273d8986838b010161260a565b845250918301918301612710565b509695505050505050565b60006020828403121561276857600080fd5b81356001600160401b038082111561277f57600080fd5b90830190610200828603121561279457600080fd5b61279c612339565b6127a583612096565b81526020830135602082015260408301356040820152606083013560608201526080830135608082015260a083013560a082015260c083013560c08201526127ef60e08401612096565b60e08201526101006128028185016126bd565b90820152610120838101358381111561281a57600080fd5b6128268882870161260a565b91830191909152506101408381013590820152610160808401359082015261018080840135908201526101a080840135908201526101c0808401358381111561286e57600080fd5b61287a8882870161260a565b8284015250506101e0808401358381111561289457600080fd5b6128a0888287016126cc565b918301919091525095945050505050565b634e487b7160e01b600052603260045260246000fd5b600181811c908216806128db57607f821691505b60208210810361038157634e487b7160e01b600052602260045260246000fd5b634e487b7160e01b600052601160045260246000fd5b600060018201612923576129236128fb565b5060010190565b600061ffff808316818103612941576129416128fb565b6001019392505050565b81810381811115610331576103316128fb565b8183823760009101908152919050565b60008251612980818460208701612105565b9190910192915050565b634e487b7160e01b600052603160045260246000fd5b600060ff821660ff81036129b6576129b66128fb565b60010192915050565b601f821115611ce057600081815260208120601f850160051c810160208610156129e65750805b601f850160051c820191505b81811015612a05578281556001016129f2565b505050505050565b81516001600160401b03811115612a2657612a26612323565b612a3a81612a3484546128c7565b846129bf565b602080601f831160018114612a6f5760008415612a575750858301515b600019600386901b1c1916600185901b178555612a05565b600085815260208120601f198616915b82811015612a9e57888601518255948401946001909101908401612a7f565b5085821015612abc5787850151600019600388901b60f8161c191681555b5050505050600190811b01905550565b7f416363657373436f6e74726f6c3a206163636f756e7420000000000000000000815260008351612b04816017850160208801612105565b7001034b99036b4b9b9b4b733903937b6329607d1b6017918401918201528351612b35816028840160208801612105565b01602801949350505050565b602081526000611eeb6020830184612129565b8082028115828204841417610331576103316128fb565b80820180821115610331576103316128fb565b600081612b8d57612b8d6128fb565b50600019019056fece5b4dffeb636293708c79f81c22e23cd9e58de35c143478790754258cb2cd38a2646970667358221220580e9320aeeab9c8b3aae111168c6728d792ce86e1d9ab7fada01854d0a3f16764736f6c63430008130033",
					"opcodes": "PUSH1 0x80 PUSH1 0x40 MSTORE PUSH3 0x11 PUSH1 0x0 CALLER PUSH3 0x17 JUMP JUMPDEST PUSH3 0xB8 JUMP JUMPDEST PUSH1 0x0 DUP3 DUP2 MSTORE PUSH1 0x20 DUP2 DUP2 MSTORE PUSH1 0x40 DUP1 DUP4 KECCAK256 PUSH1 0x1 PUSH1 0x1 PUSH1 0xA0 SHL SUB DUP6 AND DUP5 MSTORE SWAP1 SWAP2 MSTORE SWAP1 KECCAK256 SLOAD PUSH1 0xFF AND PUSH3 0xB4 JUMPI PUSH1 0x0 DUP3 DUP2 MSTORE PUSH1 0x20 DUP2 DUP2 MSTORE PUSH1 0x40 DUP1 DUP4 KECCAK256 PUSH1 0x1 PUSH1 0x1 PUSH1 0xA0 SHL SUB DUP6 AND DUP5 MSTORE SWAP1 SWAP2 MSTORE SWAP1 KECCAK256 DUP1 SLOAD PUSH1 0xFF NOT AND PUSH1 0x1 OR SWAP1 SSTORE PUSH3 0x73 CALLER SWAP1 JUMP JUMPDEST PUSH1 0x1 PUSH1 0x1 PUSH1 0xA0 SHL SUB AND DUP2 PUSH1 0x1 PUSH1 0x1 PUSH1 0xA0 SHL SUB AND DUP4 PUSH32 0x2F8788117E7EFF1D82E926EC794901D17C78024A50270940304540A733656F0D PUSH1 0x40 MLOAD PUSH1 0x40 MLOAD DUP1 SWAP2 SUB SWAP1 LOG4 JUMPDEST POP POP JUMP JUMPDEST PUSH2 0x2BEB DUP1 PUSH3 0xC8 PUSH1 0x0 CODECOPY PUSH1 0x0 RETURN INVALID PUSH1 0x80 PUSH1 0x40 MSTORE CALLVALUE DUP1 ISZERO PUSH2 0x10 JUMPI PUSH1 0x0 DUP1 REVERT JUMPDEST POP PUSH1 0x4 CALLDATASIZE LT PUSH2 0x12C JUMPI PUSH1 0x0 CALLDATALOAD PUSH1 0xE0 SHR DUP1 PUSH4 0x54EECB92 GT PUSH2 0xAD JUMPI DUP1 PUSH4 0xA217FDDF GT PUSH2 0x71 JUMPI DUP1 PUSH4 0xA217FDDF EQ PUSH2 0x2AC JUMPI DUP1 PUSH4 0xCE1DD554 EQ PUSH2 0x2B4 JUMPI DUP1 PUSH4 0xD547741F EQ PUSH2 0x2C7 JUMPI DUP1 PUSH4 0xD86A8AF3 EQ PUSH2 0x2DA JUMPI DUP1 PUSH4 0xDED92C3D EQ PUSH2 0x2ED JUMPI PUSH1 0x0 DUP1 REVERT JUMPDEST DUP1 PUSH4 0x54EECB92 EQ PUSH2 0x24B JUMPI DUP1 PUSH4 0x76F1A358 EQ PUSH2 0x25E JUMPI DUP1 PUSH4 0x7E7E8AA2 EQ PUSH2 0x271 JUMPI DUP1 PUSH4 0x90BC1864 EQ PUSH2 0x286 JUMPI DUP1 PUSH4 0x91D14854 EQ PUSH2 0x299 JUMPI PUSH1 0x0 DUP1 REVERT JUMPDEST DUP1 PUSH4 0x20382F46 GT PUSH2 0xF4 JUMPI DUP1 PUSH4 0x20382F46 EQ PUSH2 0x1BF JUMPI DUP1 PUSH4 0x248A9CA3 EQ PUSH2 0x1DF JUMPI DUP1 PUSH4 0x2F2FF15D EQ PUSH2 0x210 JUMPI DUP1 PUSH4 0x36568ABE EQ PUSH2 0x225 JUMPI DUP1 PUSH4 0x3B2C0E5A EQ PUSH2 0x238 JUMPI PUSH1 0x0 DUP1 REVERT JUMPDEST DUP1 PUSH4 0x1FFC9A7 EQ PUSH2 0x131 JUMPI DUP1 PUSH4 0x1339F27B EQ PUSH2 0x159 JUMPI DUP1 PUSH4 0x134C0377 EQ PUSH2 0x16C JUMPI DUP1 PUSH4 0x186FBAD2 EQ PUSH2 0x18C JUMPI DUP1 PUSH4 0x19D8BCF0 EQ PUSH2 0x19F JUMPI JUMPDEST PUSH1 0x0 DUP1 REVERT JUMPDEST PUSH2 0x144 PUSH2 0x13F CALLDATASIZE PUSH1 0x4 PUSH2 0x2053 JUMP JUMPDEST PUSH2 0x300 JUMP JUMPDEST PUSH1 0x40 MLOAD SWAP1 ISZERO ISZERO DUP2 MSTORE PUSH1 0x20 ADD JUMPDEST PUSH1 0x40 MLOAD DUP1 SWAP2 SUB SWAP1 RETURN JUMPDEST PUSH2 0x144 PUSH2 0x167 CALLDATASIZE PUSH1 0x4 PUSH2 0x207D JUMP JUMPDEST PUSH2 0x337 JUMP JUMPDEST PUSH2 0x17F PUSH2 0x17A CALLDATASIZE PUSH1 0x4 PUSH2 0x20B2 JUMP JUMPDEST PUSH2 0x387 JUMP JUMPDEST PUSH1 0x40 MLOAD PUSH2 0x150 SWAP2 SWAP1 PUSH2 0x22AE JUMP JUMPDEST PUSH2 0x144 PUSH2 0x19A CALLDATASIZE PUSH1 0x4 PUSH2 0x207D JUMP JUMPDEST PUSH2 0x762 JUMP JUMPDEST PUSH2 0x1B2 PUSH2 0x1AD CALLDATASIZE PUSH1 0x4 PUSH2 0x207D JUMP JUMPDEST PUSH2 0x835 JUMP JUMPDEST PUSH1 0x40 MLOAD PUSH2 0x150 SWAP2 SWAP1 PUSH2 0x2310 JUMP JUMPDEST PUSH2 0x1D2 PUSH2 0x1CD CALLDATASIZE PUSH1 0x4 PUSH2 0x23B5 JUMP JUMPDEST PUSH2 0xB20 JUMP JUMPDEST PUSH1 0x40 MLOAD PUSH2 0x150 SWAP2 SWAP1 PUSH2 0x245D JUMP JUMPDEST PUSH2 0x202 PUSH2 0x1ED CALLDATASIZE PUSH1 0x4 PUSH2 0x207D JUMP JUMPDEST PUSH1 0x0 SWAP1 DUP2 MSTORE PUSH1 0x20 DUP2 SWAP1 MSTORE PUSH1 0x40 SWAP1 KECCAK256 PUSH1 0x1 ADD SLOAD SWAP1 JUMP JUMPDEST PUSH1 0x40 MLOAD SWAP1 DUP2 MSTORE PUSH1 0x20 ADD PUSH2 0x150 JUMP JUMPDEST PUSH2 0x223 PUSH2 0x21E CALLDATASIZE PUSH1 0x4 PUSH2 0x24A3 JUMP JUMPDEST PUSH2 0xCDB JUMP JUMPDEST STOP JUMPDEST PUSH2 0x223 PUSH2 0x233 CALLDATASIZE PUSH1 0x4 PUSH2 0x24A3 JUMP JUMPDEST PUSH2 0xD3F JUMP JUMPDEST PUSH2 0x144 PUSH2 0x246 CALLDATASIZE PUSH1 0x4 PUSH2 0x24CF JUMP JUMPDEST PUSH2 0xDC2 JUMP JUMPDEST PUSH2 0x144 PUSH2 0x259 CALLDATASIZE PUSH1 0x4 PUSH2 0x2550 JUMP JUMPDEST PUSH2 0xF7B JUMP JUMPDEST PUSH2 0x144 PUSH2 0x26C CALLDATASIZE PUSH1 0x4 PUSH2 0x25B1 JUMP JUMPDEST PUSH2 0x10BE JUMP JUMPDEST PUSH2 0x202 PUSH1 0x0 DUP1 MLOAD PUSH1 0x20 PUSH2 0x2B96 DUP4 CODECOPY DUP2 MLOAD SWAP2 MSTORE DUP2 JUMP JUMPDEST PUSH2 0x144 PUSH2 0x294 CALLDATASIZE PUSH1 0x4 PUSH2 0x2679 JUMP JUMPDEST PUSH2 0x11E5 JUMP JUMPDEST PUSH2 0x144 PUSH2 0x2A7 CALLDATASIZE PUSH1 0x4 PUSH2 0x24A3 JUMP JUMPDEST PUSH2 0x13AD JUMP JUMPDEST PUSH2 0x202 PUSH1 0x0 DUP2 JUMP JUMPDEST PUSH2 0x1D2 PUSH2 0x2C2 CALLDATASIZE PUSH1 0x4 PUSH2 0x23B5 JUMP JUMPDEST PUSH2 0x13D6 JUMP JUMPDEST PUSH2 0x223 PUSH2 0x2D5 CALLDATASIZE PUSH1 0x4 PUSH2 0x24A3 JUMP JUMPDEST PUSH2 0x1588 JUMP JUMPDEST PUSH2 0x144 PUSH2 0x2E8 CALLDATASIZE PUSH1 0x4 PUSH2 0x2756 JUMP JUMPDEST PUSH2 0x16FF JUMP JUMPDEST PUSH2 0x144 PUSH2 0x2FB CALLDATASIZE PUSH1 0x4 PUSH2 0x2756 JUMP JUMPDEST PUSH2 0x1866 JUMP JUMPDEST PUSH1 0x0 PUSH1 0x1 PUSH1 0x1 PUSH1 0xE0 SHL SUB NOT DUP3 AND PUSH4 0x7965DB0B PUSH1 0xE0 SHL EQ DUP1 PUSH2 0x331 JUMPI POP PUSH4 0x1FFC9A7 PUSH1 0xE0 SHL PUSH1 0x1 PUSH1 0x1 PUSH1 0xE0 SHL SUB NOT DUP4 AND EQ JUMPDEST SWAP3 SWAP2 POP POP JUMP JUMPDEST PUSH1 0x0 PUSH1 0x0 DUP1 MLOAD PUSH1 0x20 PUSH2 0x2B96 DUP4 CODECOPY DUP2 MLOAD SWAP2 MSTORE PUSH2 0x351 DUP2 PUSH2 0x1A51 JUMP JUMPDEST PUSH2 0x35A DUP4 PUSH2 0x1A5E JUMP JUMPDEST PUSH1 0x0 DUP4 DUP2 MSTORE PUSH1 0x2 PUSH1 0x20 MSTORE PUSH1 0x40 SWAP1 KECCAK256 PUSH1 0x7 ADD DUP1 SLOAD PUSH1 0xFF PUSH1 0xA0 SHL NOT AND PUSH1 0x3 PUSH1 0xA0 SHL OR SWAP1 SSTORE PUSH1 0x1 SWAP2 POP JUMPDEST POP SWAP2 SWAP1 POP JUMP JUMPDEST PUSH1 0x60 PUSH1 0x0 DUP1 MLOAD PUSH1 0x20 PUSH2 0x2B96 DUP4 CODECOPY DUP2 MLOAD SWAP2 MSTORE PUSH2 0x3A1 DUP2 PUSH2 0x1A51 JUMP JUMPDEST PUSH1 0x1 PUSH1 0x1 PUSH1 0xA0 SHL SUB DUP4 AND PUSH1 0x0 SWAP1 DUP2 MSTORE PUSH1 0x3 PUSH1 0x20 MSTORE PUSH1 0x40 SWAP1 KECCAK256 SLOAD PUSH1 0x1 PUSH1 0x1 PUSH1 0x40 SHL SUB DUP2 GT ISZERO PUSH2 0x3D1 JUMPI PUSH2 0x3D1 PUSH2 0x2323 JUMP JUMPDEST PUSH1 0x40 MLOAD SWAP1 DUP1 DUP3 MSTORE DUP1 PUSH1 0x20 MUL PUSH1 0x20 ADD DUP3 ADD PUSH1 0x40 MSTORE DUP1 ISZERO PUSH2 0x40A JUMPI DUP2 PUSH1 0x20 ADD JUMPDEST PUSH2 0x3F7 PUSH2 0x1EF2 JUMP JUMPDEST DUP2 MSTORE PUSH1 0x20 ADD SWAP1 PUSH1 0x1 SWAP1 SUB SWAP1 DUP2 PUSH2 0x3EF JUMPI SWAP1 POP JUMPDEST POP SWAP2 POP PUSH1 0x0 JUMPDEST DUP3 MLOAD DUP2 LT ISZERO PUSH2 0x75B JUMPI PUSH1 0x1 PUSH1 0x1 PUSH1 0xA0 SHL SUB DUP5 AND PUSH1 0x0 SWAP1 DUP2 MSTORE PUSH1 0x3 PUSH1 0x20 MSTORE PUSH1 0x40 DUP2 KECCAK256 DUP1 SLOAD PUSH1 0x2 SWAP3 SWAP2 SWAP1 DUP5 SWAP1 DUP2 LT PUSH2 0x448 JUMPI PUSH2 0x448 PUSH2 0x28B1 JUMP JUMPDEST PUSH1 0x0 SWAP2 DUP3 MSTORE PUSH1 0x20 DUP1 DUP4 KECCAK256 SWAP1 SWAP2 ADD SLOAD DUP4 MSTORE DUP3 DUP2 ADD SWAP4 SWAP1 SWAP4 MSTORE PUSH1 0x40 SWAP2 DUP3 ADD SWAP1 KECCAK256 DUP2 MLOAD PUSH2 0x200 DUP2 ADD DUP4 MSTORE DUP2 SLOAD PUSH1 0x1 PUSH1 0x1 PUSH1 0xA0 SHL SUB SWAP1 DUP2 AND DUP3 MSTORE PUSH1 0x1 DUP4 ADD SLOAD SWAP5 DUP3 ADD SWAP5 SWAP1 SWAP5 MSTORE PUSH1 0x2 DUP3 ADD SLOAD SWAP3 DUP2 ADD SWAP3 SWAP1 SWAP3 MSTORE PUSH1 0x3 DUP1 DUP3 ADD SLOAD PUSH1 0x60 DUP5 ADD MSTORE PUSH1 0x4 DUP3 ADD SLOAD PUSH1 0x80 DUP5 ADD MSTORE PUSH1 0x5 DUP3 ADD SLOAD PUSH1 0xA0 DUP5 ADD MSTORE PUSH1 0x6 DUP3 ADD SLOAD PUSH1 0xC0 DUP5 ADD MSTORE PUSH1 0x7 DUP3 ADD SLOAD SWAP4 DUP5 AND PUSH1 0xE0 DUP5 ADD MSTORE SWAP2 SWAP3 SWAP1 SWAP2 PUSH2 0x100 DUP5 ADD SWAP2 PUSH1 0xFF PUSH1 0x1 PUSH1 0xA0 SHL SWAP1 SWAP2 DIV AND SWAP1 DUP2 GT ISZERO PUSH2 0x4F1 JUMPI PUSH2 0x4F1 PUSH2 0x20CD JUMP JUMPDEST PUSH1 0x3 DUP2 GT ISZERO PUSH2 0x502 JUMPI PUSH2 0x502 PUSH2 0x20CD JUMP JUMPDEST DUP2 MSTORE PUSH1 0x20 ADD PUSH1 0x8 DUP3 ADD DUP1 SLOAD PUSH2 0x516 SWAP1 PUSH2 0x28C7 JUMP JUMPDEST DUP1 PUSH1 0x1F ADD PUSH1 0x20 DUP1 SWAP2 DIV MUL PUSH1 0x20 ADD PUSH1 0x40 MLOAD SWAP1 DUP2 ADD PUSH1 0x40 MSTORE DUP1 SWAP3 SWAP2 SWAP1 DUP2 DUP2 MSTORE PUSH1 0x20 ADD DUP3 DUP1 SLOAD PUSH2 0x542 SWAP1 PUSH2 0x28C7 JUMP JUMPDEST DUP1 ISZERO PUSH2 0x58F JUMPI DUP1 PUSH1 0x1F LT PUSH2 0x564 JUMPI PUSH2 0x100 DUP1 DUP4 SLOAD DIV MUL DUP4 MSTORE SWAP2 PUSH1 0x20 ADD SWAP2 PUSH2 0x58F JUMP JUMPDEST DUP3 ADD SWAP2 SWAP1 PUSH1 0x0 MSTORE PUSH1 0x20 PUSH1 0x0 KECCAK256 SWAP1 JUMPDEST DUP2 SLOAD DUP2 MSTORE SWAP1 PUSH1 0x1 ADD SWAP1 PUSH1 0x20 ADD DUP1 DUP4 GT PUSH2 0x572 JUMPI DUP3 SWAP1 SUB PUSH1 0x1F AND DUP3 ADD SWAP2 JUMPDEST POP POP POP POP POP DUP2 MSTORE PUSH1 0x20 ADD PUSH1 0x9 DUP3 ADD SLOAD DUP2 MSTORE PUSH1 0x20 ADD PUSH1 0xA DUP3 ADD SLOAD DUP2 MSTORE PUSH1 0x20 ADD PUSH1 0xB DUP3 ADD SLOAD DUP2 MSTORE PUSH1 0x20 ADD PUSH1 0xC DUP3 ADD SLOAD DUP2 MSTORE PUSH1 0x20 ADD PUSH1 0xD DUP3 ADD DUP1 SLOAD PUSH2 0x5D0 SWAP1 PUSH2 0x28C7 JUMP JUMPDEST DUP1 PUSH1 0x1F ADD PUSH1 0x20 DUP1 SWAP2 DIV MUL PUSH1 0x20 ADD PUSH1 0x40 MLOAD SWAP1 DUP2 ADD PUSH1 0x40 MSTORE DUP1 SWAP3 SWAP2 SWAP1 DUP2 DUP2 MSTORE PUSH1 0x20 ADD DUP3 DUP1 SLOAD PUSH2 0x5FC SWAP1 PUSH2 0x28C7 JUMP JUMPDEST DUP1 ISZERO PUSH2 0x649 JUMPI DUP1 PUSH1 0x1F LT PUSH2 0x61E JUMPI PUSH2 0x100 DUP1 DUP4 SLOAD DIV MUL DUP4 MSTORE SWAP2 PUSH1 0x20 ADD SWAP2 PUSH2 0x649 JUMP JUMPDEST DUP3 ADD SWAP2 SWAP1 PUSH1 0x0 MSTORE PUSH1 0x20 PUSH1 0x0 KECCAK256 SWAP1 JUMPDEST DUP2 SLOAD DUP2 MSTORE SWAP1 PUSH1 0x1 ADD SWAP1 PUSH1 0x20 ADD DUP1 DUP4 GT PUSH2 0x62C JUMPI DUP3 SWAP1 SUB PUSH1 0x1F AND DUP3 ADD SWAP2 JUMPDEST POP POP POP POP POP DUP2 MSTORE PUSH1 0x20 ADD PUSH1 0xE DUP3 ADD DUP1 SLOAD DUP1 PUSH1 0x20 MUL PUSH1 0x20 ADD PUSH1 0x40 MLOAD SWAP1 DUP2 ADD PUSH1 0x40 MSTORE DUP1 SWAP3 SWAP2 SWAP1 DUP2 DUP2 MSTORE PUSH1 0x20 ADD PUSH1 0x0 SWAP1 JUMPDEST DUP3 DUP3 LT ISZERO PUSH2 0x723 JUMPI DUP4 DUP3 SWAP1 PUSH1 0x0 MSTORE PUSH1 0x20 PUSH1 0x0 KECCAK256 ADD DUP1 SLOAD PUSH2 0x696 SWAP1 PUSH2 0x28C7 JUMP JUMPDEST DUP1 PUSH1 0x1F ADD PUSH1 0x20 DUP1 SWAP2 DIV MUL PUSH1 0x20 ADD PUSH1 0x40 MLOAD SWAP1 DUP2 ADD PUSH1 0x40 MSTORE DUP1 SWAP3 SWAP2 SWAP1 DUP2 DUP2 MSTORE PUSH1 0x20 ADD DUP3 DUP1 SLOAD PUSH2 0x6C2 SWAP1 PUSH2 0x28C7 JUMP JUMPDEST DUP1 ISZERO PUSH2 0x70F JUMPI DUP1 PUSH1 0x1F LT PUSH2 0x6E4 JUMPI PUSH2 0x100 DUP1 DUP4 SLOAD DIV MUL DUP4 MSTORE SWAP2 PUSH1 0x20 ADD SWAP2 PUSH2 0x70F JUMP JUMPDEST DUP3 ADD SWAP2 SWAP1 PUSH1 0x0 MSTORE PUSH1 0x20 PUSH1 0x0 KECCAK256 SWAP1 JUMPDEST DUP2 SLOAD DUP2 MSTORE SWAP1 PUSH1 0x1 ADD SWAP1 PUSH1 0x20 ADD DUP1 DUP4 GT PUSH2 0x6F2 JUMPI DUP3 SWAP1 SUB PUSH1 0x1F AND DUP3 ADD SWAP2 JUMPDEST POP POP POP POP POP DUP2 MSTORE PUSH1 0x20 ADD SWAP1 PUSH1 0x1 ADD SWAP1 PUSH2 0x677 JUMP JUMPDEST POP POP POP POP DUP2 MSTORE POP POP DUP4 DUP3 DUP2 MLOAD DUP2 LT PUSH2 0x73D JUMPI PUSH2 0x73D PUSH2 0x28B1 JUMP JUMPDEST PUSH1 0x20 MUL PUSH1 0x20 ADD ADD DUP2 SWAP1 MSTORE POP DUP1 DUP1 PUSH2 0x753 SWAP1 PUSH2 0x2911 JUMP JUMPDEST SWAP2 POP POP PUSH2 0x410 JUMP JUMPDEST POP POP SWAP2 SWAP1 POP JUMP JUMPDEST PUSH1 0x0 PUSH1 0x0 DUP1 MLOAD PUSH1 0x20 PUSH2 0x2B96 DUP4 CODECOPY DUP2 MLOAD SWAP2 MSTORE PUSH2 0x77C DUP2 PUSH2 0x1A51 JUMP JUMPDEST PUSH2 0x785 DUP4 PUSH2 0x1A5E JUMP JUMPDEST PUSH1 0x0 DUP4 DUP2 MSTORE PUSH1 0x2 PUSH1 0x20 DUP2 SWAP1 MSTORE PUSH1 0x40 DUP3 KECCAK256 DUP1 SLOAD PUSH1 0x1 PUSH1 0x1 PUSH1 0xA0 SHL SUB NOT AND DUP2 SSTORE PUSH1 0x1 DUP2 ADD DUP4 SWAP1 SSTORE SWAP1 DUP2 ADD DUP3 SWAP1 SSTORE PUSH1 0x3 DUP2 ADD DUP3 SWAP1 SSTORE PUSH1 0x4 DUP2 ADD DUP3 SWAP1 SSTORE PUSH1 0x5 DUP2 ADD DUP3 SWAP1 SSTORE PUSH1 0x6 DUP2 ADD DUP3 SWAP1 SSTORE PUSH1 0x7 DUP2 ADD DUP1 SLOAD PUSH1 0x1 PUSH1 0x1 PUSH1 0xA8 SHL SUB NOT AND SWAP1 SSTORE SWAP1 PUSH2 0x7EC PUSH1 0x8 DUP4 ADD DUP3 PUSH2 0x1F73 JUMP JUMPDEST PUSH1 0x9 DUP3 ADD PUSH1 0x0 SWAP1 SSTORE PUSH1 0xA DUP3 ADD PUSH1 0x0 SWAP1 SSTORE PUSH1 0xB DUP3 ADD PUSH1 0x0 SWAP1 SSTORE PUSH1 0xC DUP3 ADD PUSH1 0x0 SWAP1 SSTORE PUSH1 0xD DUP3 ADD PUSH1 0x0 PUSH2 0x81C SWAP2 SWAP1 PUSH2 0x1F73 JUMP JUMPDEST PUSH2 0x82A PUSH1 0xE DUP4 ADD PUSH1 0x0 PUSH2 0x1FAD JUMP JUMPDEST POP PUSH1 0x1 SWAP5 SWAP4 POP POP POP POP JUMP JUMPDEST PUSH2 0x83D PUSH2 0x1EF2 JUMP JUMPDEST PUSH2 0x846 DUP3 PUSH2 0x1A5E JUMP JUMPDEST PUSH1 0x0 DUP3 DUP2 MSTORE PUSH1 0x2 PUSH1 0x20 DUP2 DUP2 MSTORE PUSH1 0x40 SWAP3 DUP4 SWAP1 KECCAK256 DUP4 MLOAD PUSH2 0x200 DUP2 ADD DUP6 MSTORE DUP2 SLOAD PUSH1 0x1 PUSH1 0x1 PUSH1 0xA0 SHL SUB SWAP1 DUP2 AND DUP3 MSTORE PUSH1 0x1 DUP4 ADD SLOAD SWAP4 DUP3 ADD SWAP4 SWAP1 SWAP4 MSTORE SWAP3 DUP2 ADD SLOAD SWAP4 DUP4 ADD SWAP4 SWAP1 SWAP4 MSTORE PUSH1 0x3 DUP1 DUP5 ADD SLOAD PUSH1 0x60 DUP5 ADD MSTORE PUSH1 0x4 DUP5 ADD SLOAD PUSH1 0x80 DUP5 ADD MSTORE PUSH1 0x5 DUP5 ADD SLOAD PUSH1 0xA0 DUP5 ADD MSTORE PUSH1 0x6 DUP5 ADD SLOAD PUSH1 0xC0 DUP5 ADD MSTORE PUSH1 0x7 DUP5 ADD SLOAD SWAP2 DUP3 AND PUSH1 0xE0 DUP5 ADD MSTORE SWAP2 SWAP3 SWAP2 PUSH2 0x100 DUP5 ADD SWAP2 PUSH1 0x1 PUSH1 0xA0 SHL SWAP1 DIV PUSH1 0xFF AND SWAP1 DUP2 GT ISZERO PUSH2 0x8E0 JUMPI PUSH2 0x8E0 PUSH2 0x20CD JUMP JUMPDEST PUSH1 0x3 DUP2 GT ISZERO PUSH2 0x8F1 JUMPI PUSH2 0x8F1 PUSH2 0x20CD JUMP JUMPDEST DUP2 MSTORE PUSH1 0x20 ADD PUSH1 0x8 DUP3 ADD DUP1 SLOAD PUSH2 0x905 SWAP1 PUSH2 0x28C7 JUMP JUMPDEST DUP1 PUSH1 0x1F ADD PUSH1 0x20 DUP1 SWAP2 DIV MUL PUSH1 0x20 ADD PUSH1 0x40 MLOAD SWAP1 DUP2 ADD PUSH1 0x40 MSTORE DUP1 SWAP3 SWAP2 SWAP1 DUP2 DUP2 MSTORE PUSH1 0x20 ADD DUP3 DUP1 SLOAD PUSH2 0x931 SWAP1 PUSH2 0x28C7 JUMP JUMPDEST DUP1 ISZERO PUSH2 0x97E JUMPI DUP1 PUSH1 0x1F LT PUSH2 0x953 JUMPI PUSH2 0x100 DUP1 DUP4 SLOAD DIV MUL DUP4 MSTORE SWAP2 PUSH1 0x20 ADD SWAP2 PUSH2 0x97E JUMP JUMPDEST DUP3 ADD SWAP2 SWAP1 PUSH1 0x0 MSTORE PUSH1 0x20 PUSH1 0x0 KECCAK256 SWAP1 JUMPDEST DUP2 SLOAD DUP2 MSTORE SWAP1 PUSH1 0x1 ADD SWAP1 PUSH1 0x20 ADD DUP1 DUP4 GT PUSH2 0x961 JUMPI DUP3 SWAP1 SUB PUSH1 0x1F AND DUP3 ADD SWAP2 JUMPDEST POP POP POP POP POP DUP2 MSTORE PUSH1 0x20 ADD PUSH1 0x9 DUP3 ADD SLOAD DUP2 MSTORE PUSH1 0x20 ADD PUSH1 0xA DUP3 ADD SLOAD DUP2 MSTORE PUSH1 0x20 ADD PUSH1 0xB DUP3 ADD SLOAD DUP2 MSTORE PUSH1 0x20 ADD PUSH1 0xC DUP3 ADD SLOAD DUP2 MSTORE PUSH1 0x20 ADD PUSH1 0xD DUP3 ADD DUP1 SLOAD PUSH2 0x9BF SWAP1 PUSH2 0x28C7 JUMP JUMPDEST DUP1 PUSH1 0x1F ADD PUSH1 0x20 DUP1 SWAP2 DIV MUL PUSH1 0x20 ADD PUSH1 0x40 MLOAD SWAP1 DUP2 ADD PUSH1 0x40 MSTORE DUP1 SWAP3 SWAP2 SWAP1 DUP2 DUP2 MSTORE PUSH1 0x20 ADD DUP3 DUP1 SLOAD PUSH2 0x9EB SWAP1 PUSH2 0x28C7 JUMP JUMPDEST DUP1 ISZERO PUSH2 0xA38 JUMPI DUP1 PUSH1 0x1F LT PUSH2 0xA0D JUMPI PUSH2 0x100 DUP1 DUP4 SLOAD DIV MUL DUP4 MSTORE SWAP2 PUSH1 0x20 ADD SWAP2 PUSH2 0xA38 JUMP JUMPDEST DUP3 ADD SWAP2 SWAP1 PUSH1 0x0 MSTORE PUSH1 0x20 PUSH1 0x0 KECCAK256 SWAP1 JUMPDEST DUP2 SLOAD DUP2 MSTORE SWAP1 PUSH1 0x1 ADD SWAP1 PUSH1 0x20 ADD DUP1 DUP4 GT PUSH2 0xA1B JUMPI DUP3 SWAP1 SUB PUSH1 0x1F AND DUP3 ADD SWAP2 JUMPDEST POP POP POP POP POP DUP2 MSTORE PUSH1 0x20 ADD PUSH1 0xE DUP3 ADD DUP1 SLOAD DUP1 PUSH1 0x20 MUL PUSH1 0x20 ADD PUSH1 0x40 MLOAD SWAP1 DUP2 ADD PUSH1 0x40 MSTORE DUP1 SWAP3 SWAP2 SWAP1 DUP2 DUP2 MSTORE PUSH1 0x20 ADD PUSH1 0x0 SWAP1 JUMPDEST DUP3 DUP3 LT ISZERO PUSH2 0xB12 JUMPI DUP4 DUP3 SWAP1 PUSH1 0x0 MSTORE PUSH1 0x20 PUSH1 0x0 KECCAK256 ADD DUP1 SLOAD PUSH2 0xA85 SWAP1 PUSH2 0x28C7 JUMP JUMPDEST DUP1 PUSH1 0x1F ADD PUSH1 0x20 DUP1 SWAP2 DIV MUL PUSH1 0x20 ADD PUSH1 0x40 MLOAD SWAP1 DUP2 ADD PUSH1 0x40 MSTORE DUP1 SWAP3 SWAP2 SWAP1 DUP2 DUP2 MSTORE PUSH1 0x20 ADD DUP3 DUP1 SLOAD PUSH2 0xAB1 SWAP1 PUSH2 0x28C7 JUMP JUMPDEST DUP1 ISZERO PUSH2 0xAFE JUMPI DUP1 PUSH1 0x1F LT PUSH2 0xAD3 JUMPI PUSH2 0x100 DUP1 DUP4 SLOAD DIV MUL DUP4 MSTORE SWAP2 PUSH1 0x20 ADD SWAP2 PUSH2 0xAFE JUMP JUMPDEST DUP3 ADD SWAP2 SWAP1 PUSH1 0x0 MSTORE PUSH1 0x20 PUSH1 0x0 KECCAK256 SWAP1 JUMPDEST DUP2 SLOAD DUP2 MSTORE SWAP1 PUSH1 0x1 ADD SWAP1 PUSH1 0x20 ADD DUP1 DUP4 GT PUSH2 0xAE1 JUMPI DUP3 SWAP1 SUB PUSH1 0x1F AND DUP3 ADD SWAP2 JUMPDEST POP POP POP POP POP DUP2 MSTORE PUSH1 0x20 ADD SWAP1 PUSH1 0x1 ADD SWAP1 PUSH2 0xA66 JUMP JUMPDEST POP POP POP SWAP2 MSTORE POP SWAP1 SWAP4 SWAP3 POP POP POP JUMP JUMPDEST PUSH1 0x60 PUSH1 0x0 DUP1 MLOAD PUSH1 0x20 PUSH2 0x2B96 DUP4 CODECOPY DUP2 MLOAD SWAP2 MSTORE PUSH2 0xB3A DUP2 PUSH2 0x1A51 JUMP JUMPDEST PUSH1 0x0 DUP4 MLOAD PUSH1 0x1 PUSH1 0x1 PUSH1 0x40 SHL SUB DUP2 GT ISZERO PUSH2 0xB55 JUMPI PUSH2 0xB55 PUSH2 0x2323 JUMP JUMPDEST PUSH1 0x40 MLOAD SWAP1 DUP1 DUP3 MSTORE DUP1 PUSH1 0x20 MUL PUSH1 0x20 ADD DUP3 ADD PUSH1 0x40 MSTORE DUP1 ISZERO PUSH2 0xB7E JUMPI DUP2 PUSH1 0x20 ADD PUSH1 0x20 DUP3 MUL DUP1 CALLDATASIZE DUP4 CALLDATACOPY ADD SWAP1 POP JUMPDEST POP SWAP1 POP PUSH1 0x0 JUMPDEST DUP5 MLOAD DUP2 PUSH2 0xFFFF AND LT ISZERO PUSH2 0xCD2 JUMPI DUP6 PUSH1 0x1 PUSH1 0x1 PUSH1 0xA0 SHL SUB AND PUSH1 0x2 PUSH1 0x0 DUP8 DUP5 PUSH2 0xFFFF AND DUP2 MLOAD DUP2 LT PUSH2 0xBB5 JUMPI PUSH2 0xBB5 PUSH2 0x28B1 JUMP JUMPDEST PUSH1 0x20 SWAP1 DUP2 MUL SWAP2 SWAP1 SWAP2 ADD DUP2 ADD MLOAD DUP3 MSTORE DUP2 ADD SWAP2 SWAP1 SWAP2 MSTORE PUSH1 0x40 ADD PUSH1 0x0 KECCAK256 SLOAD PUSH1 0x1 PUSH1 0x1 PUSH1 0xA0 SHL SUB AND EQ DUP1 ISZERO PUSH2 0xC37 JUMPI POP PUSH1 0x1 PUSH1 0x2 PUSH1 0x0 DUP8 DUP5 PUSH2 0xFFFF AND DUP2 MLOAD DUP2 LT PUSH2 0xBFD JUMPI PUSH2 0xBFD PUSH2 0x28B1 JUMP JUMPDEST PUSH1 0x20 MUL PUSH1 0x20 ADD ADD MLOAD DUP2 MSTORE PUSH1 0x20 ADD SWAP1 DUP2 MSTORE PUSH1 0x20 ADD PUSH1 0x0 KECCAK256 PUSH1 0x7 ADD PUSH1 0x14 SWAP1 SLOAD SWAP1 PUSH2 0x100 EXP SWAP1 DIV PUSH1 0xFF AND PUSH1 0x3 DUP2 GT ISZERO PUSH2 0xC35 JUMPI PUSH2 0xC35 PUSH2 0x20CD JUMP JUMPDEST EQ JUMPDEST ISZERO PUSH2 0xCC0 JUMPI PUSH1 0x0 PUSH1 0x2 PUSH1 0x0 DUP8 DUP5 PUSH2 0xFFFF AND DUP2 MLOAD DUP2 LT PUSH2 0xC58 JUMPI PUSH2 0xC58 PUSH2 0x28B1 JUMP JUMPDEST PUSH1 0x20 MUL PUSH1 0x20 ADD ADD MLOAD DUP2 MSTORE PUSH1 0x20 ADD SWAP1 DUP2 MSTORE PUSH1 0x20 ADD PUSH1 0x0 KECCAK256 PUSH1 0x7 ADD PUSH1 0x14 PUSH2 0x100 EXP DUP2 SLOAD DUP2 PUSH1 0xFF MUL NOT AND SWAP1 DUP4 PUSH1 0x3 DUP2 GT ISZERO PUSH2 0xC92 JUMPI PUSH2 0xC92 PUSH2 0x20CD JUMP JUMPDEST MUL OR SWAP1 SSTORE POP PUSH1 0x1 DUP3 DUP3 PUSH2 0xFFFF AND DUP2 MLOAD DUP2 LT PUSH2 0xCAF JUMPI PUSH2 0xCAF PUSH2 0x28B1 JUMP JUMPDEST SWAP2 ISZERO ISZERO PUSH1 0x20 SWAP3 DUP4 MUL SWAP2 SWAP1 SWAP2 ADD SWAP1 SWAP2 ADD MSTORE JUMPDEST DUP1 PUSH2 0xCCA DUP2 PUSH2 0x292A JUMP JUMPDEST SWAP2 POP POP PUSH2 0xB84 JUMP JUMPDEST POP SWAP5 SWAP4 POP POP POP POP JUMP JUMPDEST PUSH1 0x0 DUP3 DUP2 MSTORE PUSH1 0x20 DUP2 SWAP1 MSTORE PUSH1 0x40 SWAP1 KECCAK256 PUSH1 0x1 ADD SLOAD PUSH2 0xCF6 DUP2 PUSH2 0x1A51 JUMP JUMPDEST PUSH2 0xD00 DUP4 DUP4 PUSH2 0x1AC2 JUMP JUMPDEST POP PUSH1 0x0 SWAP2 DUP3 MSTORE PUSH1 0x1 PUSH1 0x20 DUP2 DUP2 MSTORE PUSH1 0x40 DUP5 KECCAK256 DUP1 SLOAD SWAP3 DUP4 ADD DUP2 SSTORE DUP5 MSTORE SWAP1 SWAP3 KECCAK256 SWAP1 SWAP2 ADD DUP1 SLOAD PUSH1 0x1 PUSH1 0x1 PUSH1 0xA0 SHL SUB NOT AND PUSH1 0x1 PUSH1 0x1 PUSH1 0xA0 SHL SUB SWAP1 SWAP3 AND SWAP2 SWAP1 SWAP2 OR SWAP1 SSTORE JUMP JUMPDEST PUSH1 0x1 PUSH1 0x1 PUSH1 0xA0 SHL SUB DUP2 AND CALLER EQ PUSH2 0xDB4 JUMPI PUSH1 0x40 MLOAD PUSH3 0x461BCD PUSH1 0xE5 SHL DUP2 MSTORE PUSH1 0x20 PUSH1 0x4 DUP3 ADD MSTORE PUSH1 0x2F PUSH1 0x24 DUP3 ADD MSTORE PUSH32 0x416363657373436F6E74726F6C3A2063616E206F6E6C792072656E6F756E6365 PUSH1 0x44 DUP3 ADD MSTORE PUSH15 0x103937B632B9903337B91039B2B633 PUSH1 0x89 SHL PUSH1 0x64 DUP3 ADD MSTORE PUSH1 0x84 ADD JUMPDEST PUSH1 0x40 MLOAD DUP1 SWAP2 SUB SWAP1 REVERT JUMPDEST PUSH2 0xDBE DUP3 DUP3 PUSH2 0x1B46 JUMP JUMPDEST POP POP JUMP JUMPDEST PUSH1 0x0 PUSH1 0x0 DUP1 MLOAD PUSH1 0x20 PUSH2 0x2B96 DUP4 CODECOPY DUP2 MLOAD SWAP2 MSTORE PUSH2 0xDDC DUP2 PUSH2 0x1A51 JUMP JUMPDEST TIMESTAMP DUP5 GT PUSH2 0xE2B JUMPI PUSH1 0x40 MLOAD PUSH3 0x461BCD PUSH1 0xE5 SHL DUP2 MSTORE PUSH1 0x20 PUSH1 0x4 DUP3 ADD MSTORE PUSH1 0x1B PUSH1 0x24 DUP3 ADD MSTORE PUSH32 0x506F6F6C436F64653A20496E76616C6964204C6F636B2054696D650000000000 PUSH1 0x44 DUP3 ADD MSTORE PUSH1 0x64 ADD PUSH2 0xDAB JUMP JUMPDEST PUSH1 0x0 DUP6 DUP2 MSTORE PUSH1 0x2 PUSH1 0x20 MSTORE PUSH1 0x40 SWAP1 KECCAK256 PUSH1 0xB ADD SLOAD TIMESTAMP LT ISZERO PUSH2 0xE83 JUMPI PUSH1 0x40 MLOAD PUSH3 0x461BCD PUSH1 0xE5 SHL DUP2 MSTORE PUSH1 0x20 PUSH1 0x4 DUP3 ADD MSTORE PUSH1 0x14 PUSH1 0x24 DUP3 ADD MSTORE PUSH20 0x506F6F6C436F64653A205374696C6C204C6F636B PUSH1 0x60 SHL PUSH1 0x44 DUP3 ADD MSTORE PUSH1 0x64 ADD PUSH2 0xDAB JUMP JUMPDEST PUSH1 0x64 DUP4 GT ISZERO PUSH2 0xED4 JUMPI PUSH1 0x40 MLOAD PUSH3 0x461BCD PUSH1 0xE5 SHL DUP2 MSTORE PUSH1 0x20 PUSH1 0x4 DUP3 ADD MSTORE PUSH1 0x1B PUSH1 0x24 DUP3 ADD MSTORE PUSH32 0x506F6F6C436F64653A20496E76616C6964204C6F636B20526174650000000000 PUSH1 0x44 DUP3 ADD MSTORE PUSH1 0x64 ADD PUSH2 0xDAB JUMP JUMPDEST PUSH1 0x0 DUP6 DUP2 MSTORE PUSH1 0x2 PUSH1 0x20 MSTORE PUSH1 0x40 SWAP1 KECCAK256 SLOAD PUSH1 0x1 PUSH1 0x1 PUSH1 0xA0 SHL SUB DUP8 DUP2 AND SWAP2 AND EQ PUSH2 0xF3D JUMPI PUSH1 0x40 MLOAD PUSH3 0x461BCD PUSH1 0xE5 SHL DUP2 MSTORE PUSH1 0x20 PUSH1 0x4 DUP3 ADD MSTORE PUSH1 0x18 PUSH1 0x24 DUP3 ADD MSTORE PUSH32 0x506F6F6C436F64653A204E6F7420436F6465204F776E65720000000000000000 PUSH1 0x44 DUP3 ADD MSTORE PUSH1 0x64 ADD PUSH2 0xDAB JUMP JUMPDEST PUSH1 0x0 DUP6 DUP2 MSTORE PUSH1 0x2 PUSH1 0x20 MSTORE PUSH1 0x40 SWAP1 KECCAK256 PUSH1 0xB ADD DUP5 SWAP1 SSTORE PUSH2 0xF5C DUP4 PUSH1 0x64 PUSH2 0x294B JUMP JUMPDEST PUSH1 0x0 DUP7 DUP2 MSTORE PUSH1 0x2 PUSH1 0x20 MSTORE PUSH1 0x40 SWAP1 KECCAK256 PUSH1 0xA ADD SSTORE PUSH1 0x1 SWAP2 POP POP SWAP5 SWAP4 POP POP POP POP JUMP JUMPDEST PUSH1 0x0 PUSH1 0x0 DUP1 MLOAD PUSH1 0x20 PUSH2 0x2B96 DUP4 CODECOPY DUP2 MLOAD SWAP2 MSTORE PUSH2 0xF95 DUP2 PUSH2 0x1A51 JUMP JUMPDEST PUSH1 0x0 DUP7 DUP2 MSTORE PUSH1 0x2 PUSH1 0x20 MSTORE PUSH1 0x40 SWAP1 KECCAK256 SLOAD PUSH1 0x1 PUSH1 0x1 PUSH1 0xA0 SHL SUB DUP9 DUP2 AND SWAP2 AND EQ PUSH2 0xFFE JUMPI PUSH1 0x40 MLOAD PUSH3 0x461BCD PUSH1 0xE5 SHL DUP2 MSTORE PUSH1 0x20 PUSH1 0x4 DUP3 ADD MSTORE PUSH1 0x1C PUSH1 0x24 DUP3 ADD MSTORE PUSH32 0x506F6F6C436F64653A20496E76616C69642057616C6C6574204B657900000000 PUSH1 0x44 DUP3 ADD MSTORE PUSH1 0x64 ADD PUSH2 0xDAB JUMP JUMPDEST PUSH1 0x0 DUP7 DUP2 MSTORE PUSH1 0x2 PUSH1 0x20 MSTORE PUSH1 0x40 SWAP1 KECCAK256 PUSH1 0xC ADD SLOAD ISZERO PUSH2 0x109D JUMPI DUP5 DUP5 PUSH1 0x40 MLOAD PUSH1 0x20 ADD PUSH2 0x1028 SWAP3 SWAP2 SWAP1 PUSH2 0x295E JUMP JUMPDEST PUSH1 0x40 DUP1 MLOAD PUSH1 0x1F NOT DUP2 DUP5 SUB ADD DUP2 MSTORE SWAP2 DUP2 MSTORE DUP2 MLOAD PUSH1 0x20 SWAP3 DUP4 ADD KECCAK256 PUSH1 0x0 DUP10 DUP2 MSTORE PUSH1 0x2 SWAP1 SWAP4 MSTORE SWAP2 KECCAK256 PUSH1 0xC ADD SLOAD EQ PUSH2 0x109D JUMPI PUSH1 0x40 MLOAD PUSH3 0x461BCD PUSH1 0xE5 SHL DUP2 MSTORE PUSH1 0x20 PUSH1 0x4 DUP3 ADD MSTORE PUSH1 0x1A PUSH1 0x24 DUP3 ADD MSTORE PUSH32 0x506F6F6C436F64653A20496E76616C6964206B65792068617368000000000000 PUSH1 0x44 DUP3 ADD MSTORE PUSH1 0x64 ADD PUSH2 0xDAB JUMP JUMPDEST POP POP PUSH1 0x0 SWAP4 DUP5 MSTORE PUSH1 0x2 PUSH1 0x20 MSTORE PUSH1 0x40 SWAP1 SWAP4 KECCAK256 PUSH1 0xC ADD SWAP3 SWAP1 SWAP3 SSTORE POP PUSH1 0x1 SWAP3 SWAP2 POP POP JUMP JUMPDEST PUSH1 0x0 PUSH1 0x0 DUP1 MLOAD PUSH1 0x20 PUSH2 0x2B96 DUP4 CODECOPY DUP2 MLOAD SWAP2 MSTORE PUSH2 0x10D8 DUP2 PUSH2 0x1A51 JUMP JUMPDEST PUSH1 0x0 DUP6 DUP2 MSTORE PUSH1 0x2 PUSH1 0x20 MSTORE PUSH1 0x40 SWAP1 KECCAK256 SLOAD PUSH1 0x1 PUSH1 0x1 PUSH1 0xA0 SHL SUB DUP8 DUP2 AND SWAP2 AND EQ PUSH2 0x1141 JUMPI PUSH1 0x40 MLOAD PUSH3 0x461BCD PUSH1 0xE5 SHL DUP2 MSTORE PUSH1 0x20 PUSH1 0x4 DUP3 ADD MSTORE PUSH1 0x1C PUSH1 0x24 DUP3 ADD MSTORE PUSH32 0x506F6F6C436F64653A20496E76616C69642057616C6C6574204B657900000000 PUSH1 0x44 DUP3 ADD MSTORE PUSH1 0x64 ADD PUSH2 0xDAB JUMP JUMPDEST DUP4 DUP4 PUSH1 0x40 MLOAD PUSH1 0x20 ADD PUSH2 0x1154 SWAP3 SWAP2 SWAP1 PUSH2 0x295E JUMP JUMPDEST PUSH1 0x40 DUP1 MLOAD PUSH1 0x1F NOT DUP2 DUP5 SUB ADD DUP2 MSTORE SWAP2 DUP2 MSTORE DUP2 MLOAD PUSH1 0x20 SWAP3 DUP4 ADD KECCAK256 PUSH1 0x0 DUP9 DUP2 MSTORE PUSH1 0x2 SWAP1 SWAP4 MSTORE SWAP2 KECCAK256 PUSH1 0xC ADD SLOAD EQ PUSH2 0x11C9 JUMPI PUSH1 0x40 MLOAD PUSH3 0x461BCD PUSH1 0xE5 SHL DUP2 MSTORE PUSH1 0x20 PUSH1 0x4 DUP3 ADD MSTORE PUSH1 0x1A PUSH1 0x24 DUP3 ADD MSTORE PUSH32 0x506F6F6C436F64653A20496E76616C6964206B65792068617368000000000000 PUSH1 0x44 DUP3 ADD MSTORE PUSH1 0x64 ADD PUSH2 0xDAB JUMP JUMPDEST POP POP POP PUSH1 0x0 SWAP2 DUP3 MSTORE POP PUSH1 0x2 PUSH1 0x20 MSTORE PUSH1 0x40 DUP2 KECCAK256 PUSH1 0xC ADD SSTORE POP PUSH1 0x1 SWAP1 JUMP JUMPDEST PUSH1 0x0 PUSH1 0x0 DUP1 MLOAD PUSH1 0x20 PUSH2 0x2B96 DUP4 CODECOPY DUP2 MLOAD SWAP2 MSTORE PUSH2 0x11FF DUP2 PUSH2 0x1A51 JUMP JUMPDEST PUSH1 0x0 DUP5 PUSH1 0x40 MLOAD PUSH1 0x20 ADD PUSH2 0x1212 SWAP2 SWAP1 PUSH2 0x296E JUMP JUMPDEST PUSH1 0x40 MLOAD PUSH1 0x20 DUP2 DUP4 SUB SUB DUP2 MSTORE SWAP1 PUSH1 0x40 MSTORE DUP1 MLOAD SWAP1 PUSH1 0x20 ADD KECCAK256 SWAP1 POP PUSH2 0x1233 DUP2 PUSH2 0x1A5E JUMP JUMPDEST PUSH1 0x0 DUP2 DUP2 MSTORE PUSH1 0x2 PUSH1 0x20 MSTORE PUSH1 0x40 SWAP1 KECCAK256 PUSH1 0x3 ADD SLOAD TIMESTAMP GT ISZERO PUSH2 0x129E JUMPI PUSH1 0x40 MLOAD PUSH3 0x461BCD PUSH1 0xE5 SHL DUP2 MSTORE PUSH1 0x20 PUSH1 0x4 DUP3 ADD MSTORE PUSH1 0x21 PUSH1 0x24 DUP3 ADD MSTORE PUSH32 0x506F6F6C436F64653A20457870697265642041637469766174696F6E2054696D PUSH1 0x44 DUP3 ADD MSTORE PUSH1 0x65 PUSH1 0xF8 SHL PUSH1 0x64 DUP3 ADD MSTORE PUSH1 0x84 ADD PUSH2 0xDAB JUMP JUMPDEST PUSH1 0x1 PUSH1 0x0 DUP3 DUP2 MSTORE PUSH1 0x2 PUSH1 0x20 MSTORE PUSH1 0x40 SWAP1 KECCAK256 PUSH1 0x7 ADD SLOAD PUSH1 0x1 PUSH1 0xA0 SHL SWAP1 DIV PUSH1 0xFF AND PUSH1 0x3 DUP2 GT ISZERO PUSH2 0x12CD JUMPI PUSH2 0x12CD PUSH2 0x20CD JUMP JUMPDEST EQ PUSH2 0x131A JUMPI PUSH1 0x40 MLOAD PUSH3 0x461BCD PUSH1 0xE5 SHL DUP2 MSTORE PUSH1 0x20 PUSH1 0x4 DUP3 ADD MSTORE PUSH1 0x1C PUSH1 0x24 DUP3 ADD MSTORE PUSH32 0x506F6F6C436F64653A204E6F7420556E626C6F636B656420436F646500000000 PUSH1 0x44 DUP3 ADD MSTORE PUSH1 0x64 ADD PUSH2 0xDAB JUMP JUMPDEST PUSH1 0x0 DUP2 DUP2 MSTORE PUSH1 0x2 PUSH1 0x20 MSTORE PUSH1 0x40 SWAP1 KECCAK256 SLOAD PUSH2 0x133C SWAP1 PUSH1 0x1 PUSH1 0x1 PUSH1 0xA0 SHL SUB AND DUP3 PUSH2 0x1BAB JUMP JUMPDEST PUSH1 0x0 DUP2 DUP2 MSTORE PUSH1 0x2 PUSH1 0x20 DUP2 DUP2 MSTORE PUSH1 0x40 DUP1 DUP5 KECCAK256 PUSH1 0x7 DUP2 ADD DUP1 SLOAD PUSH1 0xFF PUSH1 0xA0 SHL NOT AND PUSH1 0x1 PUSH1 0xA1 SHL OR SWAP1 SSTORE TIMESTAMP SWAP4 DUP2 ADD SWAP4 SWAP1 SWAP4 SSTORE DUP3 SLOAD PUSH1 0x1 PUSH1 0x1 PUSH1 0xA0 SHL SUB NOT AND PUSH1 0x1 PUSH1 0x1 PUSH1 0xA0 SHL SUB SWAP9 SWAP1 SWAP9 AND SWAP8 DUP9 OR SWAP1 SWAP3 SSTORE SWAP6 DUP3 MSTORE PUSH1 0x3 DUP7 MSTORE DUP2 KECCAK256 DUP1 SLOAD PUSH1 0x1 DUP2 DUP2 ADD DUP4 SSTORE SWAP2 DUP4 MSTORE SWAP6 SWAP1 SWAP2 KECCAK256 SWAP1 SWAP5 ADD SSTORE POP SWAP1 SWAP3 SWAP2 POP POP JUMP JUMPDEST PUSH1 0x0 SWAP2 DUP3 MSTORE PUSH1 0x20 DUP3 DUP2 MSTORE PUSH1 0x40 DUP1 DUP5 KECCAK256 PUSH1 0x1 PUSH1 0x1 PUSH1 0xA0 SHL SUB SWAP4 SWAP1 SWAP4 AND DUP5 MSTORE SWAP2 SWAP1 MSTORE SWAP1 KECCAK256 SLOAD PUSH1 0xFF AND SWAP1 JUMP JUMPDEST PUSH1 0x60 PUSH1 0x0 DUP1 MLOAD PUSH1 0x20 PUSH2 0x2B96 DUP4 CODECOPY DUP2 MLOAD SWAP2 MSTORE PUSH2 0x13F0 DUP2 PUSH2 0x1A51 JUMP JUMPDEST PUSH1 0x0 DUP4 MLOAD PUSH1 0x1 PUSH1 0x1 PUSH1 0x40 SHL SUB DUP2 GT ISZERO PUSH2 0x140B JUMPI PUSH2 0x140B PUSH2 0x2323 JUMP JUMPDEST PUSH1 0x40 MLOAD SWAP1 DUP1 DUP3 MSTORE DUP1 PUSH1 0x20 MUL PUSH1 0x20 ADD DUP3 ADD PUSH1 0x40 MSTORE DUP1 ISZERO PUSH2 0x1434 JUMPI DUP2 PUSH1 0x20 ADD PUSH1 0x20 DUP3 MUL DUP1 CALLDATASIZE DUP4 CALLDATACOPY ADD SWAP1 POP JUMPDEST POP SWAP1 POP PUSH1 0x0 JUMPDEST DUP5 MLOAD DUP2 PUSH2 0xFFFF AND LT ISZERO PUSH2 0xCD2 JUMPI DUP6 PUSH1 0x1 PUSH1 0x1 PUSH1 0xA0 SHL SUB AND PUSH1 0x2 PUSH1 0x0 DUP8 DUP5 PUSH2 0xFFFF AND DUP2 MLOAD DUP2 LT PUSH2 0x146B JUMPI PUSH2 0x146B PUSH2 0x28B1 JUMP JUMPDEST PUSH1 0x20 SWAP1 DUP2 MUL SWAP2 SWAP1 SWAP2 ADD DUP2 ADD MLOAD DUP3 MSTORE DUP2 ADD SWAP2 SWAP1 SWAP2 MSTORE PUSH1 0x40 ADD PUSH1 0x0 KECCAK256 SLOAD PUSH1 0x1 PUSH1 0x1 PUSH1 0xA0 SHL SUB AND EQ DUP1 ISZERO PUSH2 0x14ED JUMPI POP PUSH1 0x0 PUSH1 0x2 PUSH1 0x0 DUP8 DUP5 PUSH2 0xFFFF AND DUP2 MLOAD DUP2 LT PUSH2 0x14B3 JUMPI PUSH2 0x14B3 PUSH2 0x28B1 JUMP JUMPDEST PUSH1 0x20 MUL PUSH1 0x20 ADD ADD MLOAD DUP2 MSTORE PUSH1 0x20 ADD SWAP1 DUP2 MSTORE PUSH1 0x20 ADD PUSH1 0x0 KECCAK256 PUSH1 0x7 ADD PUSH1 0x14 SWAP1 SLOAD SWAP1 PUSH2 0x100 EXP SWAP1 DIV PUSH1 0xFF AND PUSH1 0x3 DUP2 GT ISZERO PUSH2 0x14EB JUMPI PUSH2 0x14EB PUSH2 0x20CD JUMP JUMPDEST EQ JUMPDEST ISZERO PUSH2 0x1576 JUMPI PUSH1 0x1 PUSH1 0x2 PUSH1 0x0 DUP8 DUP5 PUSH2 0xFFFF AND DUP2 MLOAD DUP2 LT PUSH2 0x150E JUMPI PUSH2 0x150E PUSH2 0x28B1 JUMP JUMPDEST PUSH1 0x20 MUL PUSH1 0x20 ADD ADD MLOAD DUP2 MSTORE PUSH1 0x20 ADD SWAP1 DUP2 MSTORE PUSH1 0x20 ADD PUSH1 0x0 KECCAK256 PUSH1 0x7 ADD PUSH1 0x14 PUSH2 0x100 EXP DUP2 SLOAD DUP2 PUSH1 0xFF MUL NOT AND SWAP1 DUP4 PUSH1 0x3 DUP2 GT ISZERO PUSH2 0x1548 JUMPI PUSH2 0x1548 PUSH2 0x20CD JUMP JUMPDEST MUL OR SWAP1 SSTORE POP PUSH1 0x1 DUP3 DUP3 PUSH2 0xFFFF AND DUP2 MLOAD DUP2 LT PUSH2 0x1565 JUMPI PUSH2 0x1565 PUSH2 0x28B1 JUMP JUMPDEST SWAP2 ISZERO ISZERO PUSH1 0x20 SWAP3 DUP4 MUL SWAP2 SWAP1 SWAP2 ADD SWAP1 SWAP2 ADD MSTORE JUMPDEST DUP1 PUSH2 0x1580 DUP2 PUSH2 0x292A JUMP JUMPDEST SWAP2 POP POP PUSH2 0x143A JUMP JUMPDEST PUSH1 0x0 DUP3 DUP2 MSTORE PUSH1 0x20 DUP2 SWAP1 MSTORE PUSH1 0x40 SWAP1 KECCAK256 PUSH1 0x1 ADD SLOAD PUSH2 0x15A3 DUP2 PUSH2 0x1A51 JUMP JUMPDEST PUSH2 0x15AD DUP4 DUP4 PUSH2 0x1B46 JUMP JUMPDEST PUSH1 0x0 JUMPDEST PUSH1 0x0 DUP5 DUP2 MSTORE PUSH1 0x1 PUSH1 0x20 MSTORE PUSH1 0x40 SWAP1 KECCAK256 SLOAD PUSH1 0xFF DUP3 AND GT ISZERO PUSH2 0x16F9 JUMPI PUSH1 0x0 DUP5 DUP2 MSTORE PUSH1 0x1 PUSH1 0x20 MSTORE PUSH1 0x40 SWAP1 KECCAK256 DUP1 SLOAD PUSH1 0x1 PUSH1 0x1 PUSH1 0xA0 SHL SUB DUP6 AND SWAP2 SWAP1 PUSH1 0xFF DUP5 AND SWAP1 DUP2 LT PUSH2 0x15F8 JUMPI PUSH2 0x15F8 PUSH2 0x28B1 JUMP JUMPDEST PUSH1 0x0 SWAP2 DUP3 MSTORE PUSH1 0x20 SWAP1 SWAP2 KECCAK256 ADD SLOAD PUSH1 0x1 PUSH1 0x1 PUSH1 0xA0 SHL SUB AND SUB PUSH2 0x16E7 JUMPI PUSH1 0x0 DUP5 DUP2 MSTORE PUSH1 0x1 PUSH1 0x20 DUP2 SWAP1 MSTORE PUSH1 0x40 SWAP1 SWAP2 KECCAK256 DUP1 SLOAD SWAP1 SWAP2 PUSH2 0x1630 SWAP2 PUSH2 0x294B JUMP JUMPDEST DUP2 SLOAD DUP2 LT PUSH2 0x1640 JUMPI PUSH2 0x1640 PUSH2 0x28B1 JUMP JUMPDEST PUSH1 0x0 SWAP2 DUP3 MSTORE PUSH1 0x20 DUP1 DUP4 KECCAK256 SWAP1 SWAP2 ADD SLOAD DUP7 DUP4 MSTORE PUSH1 0x1 SWAP1 SWAP2 MSTORE PUSH1 0x40 SWAP1 SWAP2 KECCAK256 DUP1 SLOAD PUSH1 0x1 PUSH1 0x1 PUSH1 0xA0 SHL SUB SWAP1 SWAP3 AND SWAP2 PUSH1 0xFF DUP5 AND SWAP1 DUP2 LT PUSH2 0x167C JUMPI PUSH2 0x167C PUSH2 0x28B1 JUMP JUMPDEST PUSH1 0x0 SWAP2 DUP3 MSTORE PUSH1 0x20 DUP1 DUP4 KECCAK256 SWAP2 SWAP1 SWAP2 ADD DUP1 SLOAD PUSH1 0x1 PUSH1 0x1 PUSH1 0xA0 SHL SUB NOT AND PUSH1 0x1 PUSH1 0x1 PUSH1 0xA0 SHL SUB SWAP5 SWAP1 SWAP5 AND SWAP4 SWAP1 SWAP4 OR SWAP1 SWAP3 SSTORE DUP6 DUP2 MSTORE PUSH1 0x1 SWAP1 SWAP2 MSTORE PUSH1 0x40 SWAP1 KECCAK256 DUP1 SLOAD DUP1 PUSH2 0x16C4 JUMPI PUSH2 0x16C4 PUSH2 0x298A JUMP JUMPDEST PUSH1 0x0 DUP3 DUP2 MSTORE PUSH1 0x20 SWAP1 KECCAK256 DUP2 ADD PUSH1 0x0 NOT SWAP1 DUP2 ADD DUP1 SLOAD PUSH1 0x1 PUSH1 0x1 PUSH1 0xA0 SHL SUB NOT AND SWAP1 SSTORE ADD SWAP1 SSTORE JUMPDEST DUP1 PUSH2 0x16F1 DUP2 PUSH2 0x29A0 JUMP JUMPDEST SWAP2 POP POP PUSH2 0x15B0 JUMP JUMPDEST POP POP POP POP JUMP JUMPDEST PUSH1 0x0 PUSH1 0x0 DUP1 MLOAD PUSH1 0x20 PUSH2 0x2B96 DUP4 CODECOPY DUP2 MLOAD SWAP2 MSTORE PUSH2 0x1719 DUP2 PUSH2 0x1A51 JUMP JUMPDEST PUSH2 0x1726 DUP4 PUSH1 0x20 ADD MLOAD PUSH2 0x1A5E JUMP JUMPDEST PUSH1 0x20 DUP1 DUP5 ADD DUP1 MLOAD PUSH1 0x0 SWAP1 DUP2 MSTORE PUSH1 0x2 SWAP3 DUP4 SWAP1 MSTORE PUSH1 0x40 SWAP1 DUP2 SWAP1 KECCAK256 DUP7 MLOAD DUP2 SLOAD PUSH1 0x1 PUSH1 0x1 PUSH1 0xA0 SHL SUB SWAP2 DUP3 AND PUSH1 0x1 PUSH1 0x1 PUSH1 0xA0 SHL SUB NOT SWAP2 DUP3 AND OR DUP4 SSTORE SWAP4 MLOAD PUSH1 0x1 DUP4 ADD SSTORE SWAP2 DUP8 ADD MLOAD SWAP4 DUP2 ADD SWAP4 SWAP1 SWAP4 SSTORE PUSH1 0x60 DUP7 ADD MLOAD PUSH1 0x3 DUP1 DUP6 ADD SWAP2 SWAP1 SWAP2 SSTORE PUSH1 0x80 DUP8 ADD MLOAD PUSH1 0x4 DUP6 ADD SSTORE PUSH1 0xA0 DUP8 ADD MLOAD PUSH1 0x5 DUP6 ADD SSTORE PUSH1 0xC0 DUP8 ADD MLOAD PUSH1 0x6 DUP6 ADD SSTORE PUSH1 0xE0 DUP8 ADD MLOAD PUSH1 0x7 DUP6 ADD DUP1 SLOAD SWAP2 SWAP1 SWAP4 AND SWAP4 DUP2 AND DUP5 OR DUP4 SSTORE PUSH2 0x100 DUP9 ADD MLOAD DUP9 SWAP6 SWAP5 SWAP1 SWAP4 SWAP3 PUSH1 0x1 PUSH1 0x1 PUSH1 0xA8 SHL SUB NOT SWAP1 SWAP3 AND OR SWAP1 PUSH1 0x1 PUSH1 0xA0 SHL SWAP1 DUP5 SWAP1 DUP2 GT ISZERO PUSH2 0x17E1 JUMPI PUSH2 0x17E1 PUSH2 0x20CD JUMP JUMPDEST MUL OR SWAP1 SSTORE POP PUSH2 0x120 DUP3 ADD MLOAD PUSH1 0x8 DUP3 ADD SWAP1 PUSH2 0x17FB SWAP1 DUP3 PUSH2 0x2A0D JUMP JUMPDEST POP PUSH2 0x140 DUP3 ADD MLOAD PUSH1 0x9 DUP3 ADD SSTORE PUSH2 0x160 DUP3 ADD MLOAD PUSH1 0xA DUP3 ADD SSTORE PUSH2 0x180 DUP3 ADD MLOAD PUSH1 0xB DUP3 ADD SSTORE PUSH2 0x1A0 DUP3 ADD MLOAD PUSH1 0xC DUP3 ADD SSTORE PUSH2 0x1C0 DUP3 ADD MLOAD PUSH1 0xD DUP3 ADD SWAP1 PUSH2 0x183D SWAP1 DUP3 PUSH2 0x2A0D JUMP JUMPDEST POP PUSH2 0x1E0 DUP3 ADD MLOAD DUP1 MLOAD PUSH2 0x185A SWAP2 PUSH1 0xE DUP5 ADD SWAP2 PUSH1 0x20 SWAP1 SWAP2 ADD SWAP1 PUSH2 0x1FCB JUMP JUMPDEST POP PUSH1 0x1 SWAP6 SWAP5 POP POP POP POP POP JUMP JUMPDEST PUSH1 0x0 PUSH1 0x0 DUP1 MLOAD PUSH1 0x20 PUSH2 0x2B96 DUP4 CODECOPY DUP2 MLOAD SWAP2 MSTORE PUSH2 0x1880 DUP2 PUSH2 0x1A51 JUMP JUMPDEST PUSH1 0x20 DUP1 DUP5 ADD MLOAD PUSH1 0x0 SWAP1 DUP2 MSTORE PUSH1 0x2 SWAP1 SWAP2 MSTORE PUSH1 0x40 SWAP1 KECCAK256 SLOAD PUSH1 0x1 PUSH1 0x1 PUSH1 0xA0 SHL SUB AND ISZERO PUSH2 0x18E2 JUMPI PUSH1 0x40 MLOAD PUSH3 0x461BCD PUSH1 0xE5 SHL DUP2 MSTORE PUSH1 0x20 PUSH1 0x4 DUP3 ADD MSTORE PUSH1 0x14 PUSH1 0x24 DUP3 ADD MSTORE PUSH20 0x141BDBDB10DBD9194E8810DBD91948115E1A5CDD PUSH1 0x62 SHL PUSH1 0x44 DUP3 ADD MSTORE PUSH1 0x64 ADD PUSH2 0xDAB JUMP JUMPDEST PUSH1 0x20 DUP1 DUP5 ADD DUP1 MLOAD PUSH1 0x0 SWAP1 DUP2 MSTORE PUSH1 0x2 SWAP3 DUP4 SWAP1 MSTORE PUSH1 0x40 SWAP1 DUP2 SWAP1 KECCAK256 DUP7 MLOAD DUP2 SLOAD PUSH1 0x1 PUSH1 0x1 PUSH1 0xA0 SHL SUB SWAP2 DUP3 AND PUSH1 0x1 PUSH1 0x1 PUSH1 0xA0 SHL SUB NOT SWAP2 DUP3 AND OR DUP4 SSTORE SWAP4 MLOAD PUSH1 0x1 DUP4 ADD SSTORE SWAP2 DUP8 ADD MLOAD SWAP4 DUP2 ADD SWAP4 SWAP1 SWAP4 SSTORE PUSH1 0x60 DUP7 ADD MLOAD PUSH1 0x3 DUP1 DUP6 ADD SWAP2 SWAP1 SWAP2 SSTORE PUSH1 0x80 DUP8 ADD MLOAD PUSH1 0x4 DUP6 ADD SSTORE PUSH1 0xA0 DUP8 ADD MLOAD PUSH1 0x5 DUP6 ADD SSTORE PUSH1 0xC0 DUP8 ADD MLOAD PUSH1 0x6 DUP6 ADD SSTORE PUSH1 0xE0 DUP8 ADD MLOAD PUSH1 0x7 DUP6 ADD DUP1 SLOAD SWAP2 SWAP1 SWAP4 AND SWAP4 DUP2 AND DUP5 OR DUP4 SSTORE PUSH2 0x100 DUP9 ADD MLOAD DUP9 SWAP6 SWAP5 SWAP1 SWAP4 SWAP3 PUSH1 0x1 PUSH1 0x1 PUSH1 0xA8 SHL SUB NOT SWAP1 SWAP3 AND OR SWAP1 PUSH1 0x1 PUSH1 0xA0 SHL SWAP1 DUP5 SWAP1 DUP2 GT ISZERO PUSH2 0x199D JUMPI PUSH2 0x199D PUSH2 0x20CD JUMP JUMPDEST MUL OR SWAP1 SSTORE POP PUSH2 0x120 DUP3 ADD MLOAD PUSH1 0x8 DUP3 ADD SWAP1 PUSH2 0x19B7 SWAP1 DUP3 PUSH2 0x2A0D JUMP JUMPDEST POP PUSH2 0x140 DUP3 ADD MLOAD PUSH1 0x9 DUP3 ADD SSTORE PUSH2 0x160 DUP3 ADD MLOAD PUSH1 0xA DUP3 ADD SSTORE PUSH2 0x180 DUP3 ADD MLOAD PUSH1 0xB DUP3 ADD SSTORE PUSH2 0x1A0 DUP3 ADD MLOAD PUSH1 0xC DUP3 ADD SSTORE PUSH2 0x1C0 DUP3 ADD MLOAD PUSH1 0xD DUP3 ADD SWAP1 PUSH2 0x19F9 SWAP1 DUP3 PUSH2 0x2A0D JUMP JUMPDEST POP PUSH2 0x1E0 DUP3 ADD MLOAD DUP1 MLOAD PUSH2 0x1A16 SWAP2 PUSH1 0xE DUP5 ADD SWAP2 PUSH1 0x20 SWAP1 SWAP2 ADD SWAP1 PUSH2 0x1FCB JUMP JUMPDEST POP POP DUP4 MLOAD PUSH1 0x1 PUSH1 0x1 PUSH1 0xA0 SHL SUB AND PUSH1 0x0 SWAP1 DUP2 MSTORE PUSH1 0x3 PUSH1 0x20 SWAP1 DUP2 MSTORE PUSH1 0x40 DUP3 KECCAK256 SWAP6 DUP2 ADD MLOAD DUP7 SLOAD PUSH1 0x1 DUP1 DUP3 ADD DUP10 SSTORE SWAP8 DUP5 MSTORE SWAP2 SWAP1 SWAP3 KECCAK256 ADD SSTORE POP SWAP2 SWAP3 SWAP2 POP POP JUMP JUMPDEST PUSH2 0x1A5B DUP2 CALLER PUSH2 0x1CE5 JUMP JUMPDEST POP JUMP JUMPDEST PUSH1 0x0 DUP2 DUP2 MSTORE PUSH1 0x2 PUSH1 0x20 MSTORE PUSH1 0x40 SWAP1 KECCAK256 SLOAD PUSH1 0x1 PUSH1 0x1 PUSH1 0xA0 SHL SUB AND PUSH2 0x1A5B JUMPI PUSH1 0x40 MLOAD PUSH3 0x461BCD PUSH1 0xE5 SHL DUP2 MSTORE PUSH1 0x20 PUSH1 0x4 DUP3 ADD MSTORE PUSH1 0x18 PUSH1 0x24 DUP3 ADD MSTORE PUSH32 0x506F6F6C436F64653A20436F6465204E6F742045786973740000000000000000 PUSH1 0x44 DUP3 ADD MSTORE PUSH1 0x64 ADD PUSH2 0xDAB JUMP JUMPDEST PUSH2 0x1ACC DUP3 DUP3 PUSH2 0x13AD JUMP JUMPDEST PUSH2 0xDBE JUMPI PUSH1 0x0 DUP3 DUP2 MSTORE PUSH1 0x20 DUP2 DUP2 MSTORE PUSH1 0x40 DUP1 DUP4 KECCAK256 PUSH1 0x1 PUSH1 0x1 PUSH1 0xA0 SHL SUB DUP6 AND DUP5 MSTORE SWAP1 SWAP2 MSTORE SWAP1 KECCAK256 DUP1 SLOAD PUSH1 0xFF NOT AND PUSH1 0x1 OR SWAP1 SSTORE PUSH2 0x1B02 CALLER SWAP1 JUMP JUMPDEST PUSH1 0x1 PUSH1 0x1 PUSH1 0xA0 SHL SUB AND DUP2 PUSH1 0x1 PUSH1 0x1 PUSH1 0xA0 SHL SUB AND DUP4 PUSH32 0x2F8788117E7EFF1D82E926EC794901D17C78024A50270940304540A733656F0D PUSH1 0x40 MLOAD PUSH1 0x40 MLOAD DUP1 SWAP2 SUB SWAP1 LOG4 POP POP JUMP JUMPDEST PUSH2 0x1B50 DUP3 DUP3 PUSH2 0x13AD JUMP JUMPDEST ISZERO PUSH2 0xDBE JUMPI PUSH1 0x0 DUP3 DUP2 MSTORE PUSH1 0x20 DUP2 DUP2 MSTORE PUSH1 0x40 DUP1 DUP4 KECCAK256 PUSH1 0x1 PUSH1 0x1 PUSH1 0xA0 SHL SUB DUP6 AND DUP1 DUP6 MSTORE SWAP3 MSTORE DUP1 DUP4 KECCAK256 DUP1 SLOAD PUSH1 0xFF NOT AND SWAP1 SSTORE MLOAD CALLER SWAP3 DUP6 SWAP2 PUSH32 0xF6391F5C32D9C69D2A47EA670B442974B53935D1EDC7FD64EB21E047A839171B SWAP2 SWAP1 LOG4 POP POP JUMP JUMPDEST PUSH1 0x0 JUMPDEST PUSH1 0x1 PUSH1 0x1 PUSH1 0xA0 SHL SUB DUP4 AND PUSH1 0x0 SWAP1 DUP2 MSTORE PUSH1 0x3 PUSH1 0x20 MSTORE PUSH1 0x40 SWAP1 KECCAK256 SLOAD DUP2 LT ISZERO PUSH2 0x1CE0 JUMPI PUSH1 0x1 PUSH1 0x1 PUSH1 0xA0 SHL SUB DUP4 AND PUSH1 0x0 SWAP1 DUP2 MSTORE PUSH1 0x3 PUSH1 0x20 MSTORE PUSH1 0x40 SWAP1 KECCAK256 DUP1 SLOAD DUP4 SWAP2 SWAP1 DUP4 SWAP1 DUP2 LT PUSH2 0x1BFB JUMPI PUSH2 0x1BFB PUSH2 0x28B1 JUMP JUMPDEST SWAP1 PUSH1 0x0 MSTORE PUSH1 0x20 PUSH1 0x0 KECCAK256 ADD SLOAD SUB PUSH2 0x1CCE JUMPI PUSH1 0x1 PUSH1 0x1 PUSH1 0xA0 SHL SUB DUP4 AND PUSH1 0x0 SWAP1 DUP2 MSTORE PUSH1 0x3 PUSH1 0x20 MSTORE PUSH1 0x40 SWAP1 KECCAK256 DUP1 SLOAD PUSH2 0x1C31 SWAP1 PUSH1 0x1 SWAP1 PUSH2 0x294B JUMP JUMPDEST DUP2 SLOAD DUP2 LT PUSH2 0x1C41 JUMPI PUSH2 0x1C41 PUSH2 0x28B1 JUMP JUMPDEST SWAP1 PUSH1 0x0 MSTORE PUSH1 0x20 PUSH1 0x0 KECCAK256 ADD SLOAD PUSH1 0x3 PUSH1 0x0 DUP6 PUSH1 0x1 PUSH1 0x1 PUSH1 0xA0 SHL SUB AND PUSH1 0x1 PUSH1 0x1 PUSH1 0xA0 SHL SUB AND DUP2 MSTORE PUSH1 0x20 ADD SWAP1 DUP2 MSTORE PUSH1 0x20 ADD PUSH1 0x0 KECCAK256 DUP3 DUP2 SLOAD DUP2 LT PUSH2 0x1C82 JUMPI PUSH2 0x1C82 PUSH2 0x28B1 JUMP JUMPDEST PUSH1 0x0 SWAP2 DUP3 MSTORE PUSH1 0x20 DUP1 DUP4 KECCAK256 SWAP1 SWAP2 ADD SWAP3 SWAP1 SWAP3 SSTORE PUSH1 0x1 PUSH1 0x1 PUSH1 0xA0 SHL SUB DUP6 AND DUP2 MSTORE PUSH1 0x3 SWAP1 SWAP2 MSTORE PUSH1 0x40 SWAP1 KECCAK256 DUP1 SLOAD DUP1 PUSH2 0x1CB7 JUMPI PUSH2 0x1CB7 PUSH2 0x298A JUMP JUMPDEST PUSH1 0x1 SWAP1 SUB DUP2 DUP2 SWAP1 PUSH1 0x0 MSTORE PUSH1 0x20 PUSH1 0x0 KECCAK256 ADD PUSH1 0x0 SWAP1 SSTORE SWAP1 SSTORE JUMPDEST DUP1 PUSH2 0x1CD8 DUP2 PUSH2 0x2911 JUMP JUMPDEST SWAP2 POP POP PUSH2 0x1BAE JUMP JUMPDEST POP POP POP JUMP JUMPDEST PUSH2 0x1CEF DUP3 DUP3 PUSH2 0x13AD JUMP JUMPDEST PUSH2 0xDBE JUMPI PUSH2 0x1CFC DUP2 PUSH2 0x1D3E JUMP JUMPDEST PUSH2 0x1D07 DUP4 PUSH1 0x20 PUSH2 0x1D50 JUMP JUMPDEST PUSH1 0x40 MLOAD PUSH1 0x20 ADD PUSH2 0x1D18 SWAP3 SWAP2 SWAP1 PUSH2 0x2ACC JUMP JUMPDEST PUSH1 0x40 DUP1 MLOAD PUSH1 0x1F NOT DUP2 DUP5 SUB ADD DUP2 MSTORE SWAP1 DUP3 SWAP1 MSTORE PUSH3 0x461BCD PUSH1 0xE5 SHL DUP3 MSTORE PUSH2 0xDAB SWAP2 PUSH1 0x4 ADD PUSH2 0x2B41 JUMP JUMPDEST PUSH1 0x60 PUSH2 0x331 PUSH1 0x1 PUSH1 0x1 PUSH1 0xA0 SHL SUB DUP4 AND PUSH1 0x14 JUMPDEST PUSH1 0x60 PUSH1 0x0 PUSH2 0x1D5F DUP4 PUSH1 0x2 PUSH2 0x2B54 JUMP JUMPDEST PUSH2 0x1D6A SWAP1 PUSH1 0x2 PUSH2 0x2B6B JUMP JUMPDEST PUSH1 0x1 PUSH1 0x1 PUSH1 0x40 SHL SUB DUP2 GT ISZERO PUSH2 0x1D81 JUMPI PUSH2 0x1D81 PUSH2 0x2323 JUMP JUMPDEST PUSH1 0x40 MLOAD SWAP1 DUP1 DUP3 MSTORE DUP1 PUSH1 0x1F ADD PUSH1 0x1F NOT AND PUSH1 0x20 ADD DUP3 ADD PUSH1 0x40 MSTORE DUP1 ISZERO PUSH2 0x1DAB JUMPI PUSH1 0x20 DUP3 ADD DUP2 DUP1 CALLDATASIZE DUP4 CALLDATACOPY ADD SWAP1 POP JUMPDEST POP SWAP1 POP PUSH1 0x3 PUSH1 0xFC SHL DUP2 PUSH1 0x0 DUP2 MLOAD DUP2 LT PUSH2 0x1DC6 JUMPI PUSH2 0x1DC6 PUSH2 0x28B1 JUMP JUMPDEST PUSH1 0x20 ADD ADD SWAP1 PUSH1 0x1 PUSH1 0x1 PUSH1 0xF8 SHL SUB NOT AND SWAP1 DUP2 PUSH1 0x0 BYTE SWAP1 MSTORE8 POP PUSH1 0xF PUSH1 0xFB SHL DUP2 PUSH1 0x1 DUP2 MLOAD DUP2 LT PUSH2 0x1DF5 JUMPI PUSH2 0x1DF5 PUSH2 0x28B1 JUMP JUMPDEST PUSH1 0x20 ADD ADD SWAP1 PUSH1 0x1 PUSH1 0x1 PUSH1 0xF8 SHL SUB NOT AND SWAP1 DUP2 PUSH1 0x0 BYTE SWAP1 MSTORE8 POP PUSH1 0x0 PUSH2 0x1E19 DUP5 PUSH1 0x2 PUSH2 0x2B54 JUMP JUMPDEST PUSH2 0x1E24 SWAP1 PUSH1 0x1 PUSH2 0x2B6B JUMP JUMPDEST SWAP1 POP JUMPDEST PUSH1 0x1 DUP2 GT ISZERO PUSH2 0x1E9C JUMPI PUSH16 0x181899199A1A9B1B9C1CB0B131B232B3 PUSH1 0x81 SHL DUP6 PUSH1 0xF AND PUSH1 0x10 DUP2 LT PUSH2 0x1E58 JUMPI PUSH2 0x1E58 PUSH2 0x28B1 JUMP JUMPDEST BYTE PUSH1 0xF8 SHL DUP3 DUP3 DUP2 MLOAD DUP2 LT PUSH2 0x1E6E JUMPI PUSH2 0x1E6E PUSH2 0x28B1 JUMP JUMPDEST PUSH1 0x20 ADD ADD SWAP1 PUSH1 0x1 PUSH1 0x1 PUSH1 0xF8 SHL SUB NOT AND SWAP1 DUP2 PUSH1 0x0 BYTE SWAP1 MSTORE8 POP PUSH1 0x4 SWAP5 SWAP1 SWAP5 SHR SWAP4 PUSH2 0x1E95 DUP2 PUSH2 0x2B7E JUMP JUMPDEST SWAP1 POP PUSH2 0x1E27 JUMP JUMPDEST POP DUP4 ISZERO PUSH2 0x1EEB JUMPI PUSH1 0x40 MLOAD PUSH3 0x461BCD PUSH1 0xE5 SHL DUP2 MSTORE PUSH1 0x20 PUSH1 0x4 DUP3 ADD DUP2 SWAP1 MSTORE PUSH1 0x24 DUP3 ADD MSTORE PUSH32 0x537472696E67733A20686578206C656E67746820696E73756666696369656E74 PUSH1 0x44 DUP3 ADD MSTORE PUSH1 0x64 ADD PUSH2 0xDAB JUMP JUMPDEST SWAP4 SWAP3 POP POP POP JUMP JUMPDEST PUSH1 0x40 DUP1 MLOAD PUSH2 0x200 DUP2 ADD DUP3 MSTORE PUSH1 0x0 DUP1 DUP3 MSTORE PUSH1 0x20 DUP3 ADD DUP2 SWAP1 MSTORE SWAP2 DUP2 ADD DUP3 SWAP1 MSTORE PUSH1 0x60 DUP2 ADD DUP3 SWAP1 MSTORE PUSH1 0x80 DUP2 ADD DUP3 SWAP1 MSTORE PUSH1 0xA0 DUP2 ADD DUP3 SWAP1 MSTORE PUSH1 0xC0 DUP2 ADD DUP3 SWAP1 MSTORE PUSH1 0xE0 DUP2 ADD DUP3 SWAP1 MSTORE SWAP1 PUSH2 0x100 DUP3 ADD SWAP1 DUP2 MSTORE PUSH1 0x20 ADD PUSH1 0x60 DUP2 MSTORE PUSH1 0x20 ADD PUSH1 0x0 DUP2 MSTORE PUSH1 0x20 ADD PUSH1 0x0 DUP2 MSTORE PUSH1 0x20 ADD PUSH1 0x0 DUP2 MSTORE PUSH1 0x20 ADD PUSH1 0x0 DUP1 NOT AND DUP2 MSTORE PUSH1 0x20 ADD PUSH1 0x60 DUP2 MSTORE PUSH1 0x20 ADD PUSH1 0x60 DUP2 MSTORE POP SWAP1 JUMP JUMPDEST POP DUP1 SLOAD PUSH2 0x1F7F SWAP1 PUSH2 0x28C7 JUMP JUMPDEST PUSH1 0x0 DUP3 SSTORE DUP1 PUSH1 0x1F LT PUSH2 0x1F8F JUMPI POP POP JUMP JUMPDEST PUSH1 0x1F ADD PUSH1 0x20 SWAP1 DIV SWAP1 PUSH1 0x0 MSTORE PUSH1 0x20 PUSH1 0x0 KECCAK256 SWAP1 DUP2 ADD SWAP1 PUSH2 0x1A5B SWAP2 SWAP1 PUSH2 0x2021 JUMP JUMPDEST POP DUP1 SLOAD PUSH1 0x0 DUP3 SSTORE SWAP1 PUSH1 0x0 MSTORE PUSH1 0x20 PUSH1 0x0 KECCAK256 SWAP1 DUP2 ADD SWAP1 PUSH2 0x1A5B SWAP2 SWAP1 PUSH2 0x2036 JUMP JUMPDEST DUP3 DUP1 SLOAD DUP3 DUP3 SSTORE SWAP1 PUSH1 0x0 MSTORE PUSH1 0x20 PUSH1 0x0 KECCAK256 SWAP1 DUP2 ADD SWAP3 DUP3 ISZERO PUSH2 0x2011 JUMPI SWAP2 PUSH1 0x20 MUL DUP3 ADD JUMPDEST DUP3 DUP2 GT ISZERO PUSH2 0x2011 JUMPI DUP3 MLOAD DUP3 SWAP1 PUSH2 0x2001 SWAP1 DUP3 PUSH2 0x2A0D JUMP JUMPDEST POP SWAP2 PUSH1 0x20 ADD SWAP2 SWAP1 PUSH1 0x1 ADD SWAP1 PUSH2 0x1FEB JUMP JUMPDEST POP PUSH2 0x201D SWAP3 SWAP2 POP PUSH2 0x2036 JUMP JUMPDEST POP SWAP1 JUMP JUMPDEST JUMPDEST DUP1 DUP3 GT ISZERO PUSH2 0x201D JUMPI PUSH1 0x0 DUP2 SSTORE PUSH1 0x1 ADD PUSH2 0x2022 JUMP JUMPDEST DUP1 DUP3 GT ISZERO PUSH2 0x201D JUMPI PUSH1 0x0 PUSH2 0x204A DUP3 DUP3 PUSH2 0x1F73 JUMP JUMPDEST POP PUSH1 0x1 ADD PUSH2 0x2036 JUMP JUMPDEST PUSH1 0x0 PUSH1 0x20 DUP3 DUP5 SUB SLT ISZERO PUSH2 0x2065 JUMPI PUSH1 0x0 DUP1 REVERT JUMPDEST DUP2 CALLDATALOAD PUSH1 0x1 PUSH1 0x1 PUSH1 0xE0 SHL SUB NOT DUP2 AND DUP2 EQ PUSH2 0x1EEB JUMPI PUSH1 0x0 DUP1 REVERT JUMPDEST PUSH1 0x0 PUSH1 0x20 DUP3 DUP5 SUB SLT ISZERO PUSH2 0x208F JUMPI PUSH1 0x0 DUP1 REVERT JUMPDEST POP CALLDATALOAD SWAP2 SWAP1 POP JUMP JUMPDEST DUP1 CALLDATALOAD PUSH1 0x1 PUSH1 0x1 PUSH1 0xA0 SHL SUB DUP2 AND DUP2 EQ PUSH2 0x20AD JUMPI PUSH1 0x0 DUP1 REVERT JUMPDEST SWAP2 SWAP1 POP JUMP JUMPDEST PUSH1 0x0 PUSH1 0x20 DUP3 DUP5 SUB SLT ISZERO PUSH2 0x20C4 JUMPI PUSH1 0x0 DUP1 REVERT JUMPDEST PUSH2 0x1EEB DUP3 PUSH2 0x2096 JUMP JUMPDEST PUSH4 0x4E487B71 PUSH1 0xE0 SHL PUSH1 0x0 MSTORE PUSH1 0x21 PUSH1 0x4 MSTORE PUSH1 0x24 PUSH1 0x0 REVERT JUMPDEST PUSH1 0x4 DUP2 LT PUSH2 0x2101 JUMPI PUSH4 0x4E487B71 PUSH1 0xE0 SHL PUSH1 0x0 MSTORE PUSH1 0x21 PUSH1 0x4 MSTORE PUSH1 0x24 PUSH1 0x0 REVERT JUMPDEST SWAP1 MSTORE JUMP JUMPDEST PUSH1 0x0 JUMPDEST DUP4 DUP2 LT ISZERO PUSH2 0x2120 JUMPI DUP2 DUP2 ADD MLOAD DUP4 DUP3 ADD MSTORE PUSH1 0x20 ADD PUSH2 0x2108 JUMP JUMPDEST POP POP PUSH1 0x0 SWAP2 ADD MSTORE JUMP JUMPDEST PUSH1 0x0 DUP2 MLOAD DUP1 DUP5 MSTORE PUSH2 0x2141 DUP2 PUSH1 0x20 DUP7 ADD PUSH1 0x20 DUP7 ADD PUSH2 0x2105 JUMP JUMPDEST PUSH1 0x1F ADD PUSH1 0x1F NOT AND SWAP3 SWAP1 SWAP3 ADD PUSH1 0x20 ADD SWAP3 SWAP2 POP POP JUMP JUMPDEST PUSH1 0x0 DUP2 MLOAD DUP1 DUP5 MSTORE PUSH1 0x20 DUP1 DUP6 ADD SWAP5 POP DUP5 DUP3 PUSH1 0x5 SHL DUP7 ADD DUP3 DUP7 ADD PUSH1 0x0 JUMPDEST DUP6 DUP2 LT ISZERO PUSH2 0x219A JUMPI DUP4 DUP4 SUB DUP10 MSTORE PUSH2 0x2188 DUP4 DUP4 MLOAD PUSH2 0x2129 JUMP JUMPDEST SWAP9 DUP6 ADD SWAP9 SWAP3 POP SWAP1 DUP5 ADD SWAP1 PUSH1 0x1 ADD PUSH2 0x2170 JUMP JUMPDEST POP SWAP1 SWAP8 SWAP7 POP POP POP POP POP POP POP JUMP JUMPDEST DUP1 MLOAD PUSH1 0x1 PUSH1 0x1 PUSH1 0xA0 SHL SUB AND DUP3 MSTORE PUSH1 0x0 PUSH2 0x200 PUSH1 0x20 DUP4 ADD MLOAD PUSH1 0x20 DUP6 ADD MSTORE PUSH1 0x40 DUP4 ADD MLOAD PUSH1 0x40 DUP6 ADD MSTORE PUSH1 0x60 DUP4 ADD MLOAD PUSH1 0x60 DUP6 ADD MSTORE PUSH1 0x80 DUP4 ADD MLOAD PUSH1 0x80 DUP6 ADD MSTORE PUSH1 0xA0 DUP4 ADD MLOAD PUSH1 0xA0 DUP6 ADD MSTORE PUSH1 0xC0 DUP4 ADD MLOAD PUSH1 0xC0 DUP6 ADD MSTORE PUSH1 0xE0 DUP4 ADD MLOAD PUSH2 0x220F PUSH1 0xE0 DUP7 ADD DUP3 PUSH1 0x1 PUSH1 0x1 PUSH1 0xA0 SHL SUB AND SWAP1 MSTORE JUMP JUMPDEST POP PUSH2 0x100 DUP1 DUP5 ADD MLOAD PUSH2 0x2223 DUP3 DUP8 ADD DUP3 PUSH2 0x20E3 JUMP JUMPDEST POP POP PUSH2 0x120 DUP1 DUP5 ADD MLOAD DUP3 DUP3 DUP8 ADD MSTORE PUSH2 0x223D DUP4 DUP8 ADD DUP3 PUSH2 0x2129 JUMP JUMPDEST PUSH2 0x140 DUP7 DUP2 ADD MLOAD SWAP1 DUP9 ADD MSTORE PUSH2 0x160 DUP1 DUP8 ADD MLOAD SWAP1 DUP9 ADD MSTORE PUSH2 0x180 DUP1 DUP8 ADD MLOAD SWAP1 DUP9 ADD MSTORE PUSH2 0x1A0 DUP1 DUP8 ADD MLOAD SWAP1 DUP9 ADD MSTORE PUSH2 0x1C0 DUP1 DUP8 ADD MLOAD DUP9 DUP4 SUB DUP3 DUP11 ADD MSTORE SWAP2 SWAP5 POP SWAP3 POP SWAP1 POP PUSH2 0x2288 DUP4 DUP3 PUSH2 0x2129 JUMP JUMPDEST SWAP3 POP POP POP PUSH2 0x1E0 DUP1 DUP5 ADD MLOAD DUP6 DUP4 SUB DUP3 DUP8 ADD MSTORE PUSH2 0x22A4 DUP4 DUP3 PUSH2 0x2155 JUMP JUMPDEST SWAP7 SWAP6 POP POP POP POP POP POP JUMP JUMPDEST PUSH1 0x0 PUSH1 0x20 DUP1 DUP4 ADD DUP2 DUP5 MSTORE DUP1 DUP6 MLOAD DUP1 DUP4 MSTORE PUSH1 0x40 DUP7 ADD SWAP2 POP PUSH1 0x40 DUP2 PUSH1 0x5 SHL DUP8 ADD ADD SWAP3 POP DUP4 DUP8 ADD PUSH1 0x0 JUMPDEST DUP3 DUP2 LT ISZERO PUSH2 0x2303 JUMPI PUSH1 0x3F NOT DUP9 DUP7 SUB ADD DUP5 MSTORE PUSH2 0x22F1 DUP6 DUP4 MLOAD PUSH2 0x21A7 JUMP JUMPDEST SWAP5 POP SWAP3 DUP6 ADD SWAP3 SWAP1 DUP6 ADD SWAP1 PUSH1 0x1 ADD PUSH2 0x22D5 JUMP JUMPDEST POP SWAP3 SWAP8 SWAP7 POP POP POP POP POP POP POP JUMP JUMPDEST PUSH1 0x20 DUP2 MSTORE PUSH1 0x0 PUSH2 0x1EEB PUSH1 0x20 DUP4 ADD DUP5 PUSH2 0x21A7 JUMP JUMPDEST PUSH4 0x4E487B71 PUSH1 0xE0 SHL PUSH1 0x0 MSTORE PUSH1 0x41 PUSH1 0x4 MSTORE PUSH1 0x24 PUSH1 0x0 REVERT JUMPDEST PUSH1 0x40 MLOAD PUSH2 0x200 DUP2 ADD PUSH1 0x1 PUSH1 0x1 PUSH1 0x40 SHL SUB DUP2 GT DUP3 DUP3 LT OR ISZERO PUSH2 0x235C JUMPI PUSH2 0x235C PUSH2 0x2323 JUMP JUMPDEST PUSH1 0x40 MSTORE SWAP1 JUMP JUMPDEST PUSH1 0x40 MLOAD PUSH1 0x1F DUP3 ADD PUSH1 0x1F NOT AND DUP2 ADD PUSH1 0x1 PUSH1 0x1 PUSH1 0x40 SHL SUB DUP2 GT DUP3 DUP3 LT OR ISZERO PUSH2 0x238A JUMPI PUSH2 0x238A PUSH2 0x2323 JUMP JUMPDEST PUSH1 0x40 MSTORE SWAP2 SWAP1 POP JUMP JUMPDEST PUSH1 0x0 PUSH1 0x1 PUSH1 0x1 PUSH1 0x40 SHL SUB DUP3 GT ISZERO PUSH2 0x23AB JUMPI PUSH2 0x23AB PUSH2 0x2323 JUMP JUMPDEST POP PUSH1 0x5 SHL PUSH1 0x20 ADD SWAP1 JUMP JUMPDEST PUSH1 0x0 DUP1 PUSH1 0x40 DUP4 DUP6 SUB SLT ISZERO PUSH2 0x23C8 JUMPI PUSH1 0x0 DUP1 REVERT JUMPDEST PUSH2 0x23D1 DUP4 PUSH2 0x2096 JUMP JUMPDEST SWAP2 POP PUSH1 0x20 DUP1 DUP5 ADD CALLDATALOAD PUSH1 0x1 PUSH1 0x1 PUSH1 0x40 SHL SUB DUP2 GT ISZERO PUSH2 0x23ED JUMPI PUSH1 0x0 DUP1 REVERT JUMPDEST DUP5 ADD PUSH1 0x1F DUP2 ADD DUP7 SGT PUSH2 0x23FE JUMPI PUSH1 0x0 DUP1 REVERT JUMPDEST DUP1 CALLDATALOAD PUSH2 0x2411 PUSH2 0x240C DUP3 PUSH2 0x2392 JUMP JUMPDEST PUSH2 0x2362 JUMP JUMPDEST DUP2 DUP2 MSTORE PUSH1 0x5 SWAP2 SWAP1 SWAP2 SHL DUP3 ADD DUP4 ADD SWAP1 DUP4 DUP2 ADD SWAP1 DUP9 DUP4 GT ISZERO PUSH2 0x2430 JUMPI PUSH1 0x0 DUP1 REVERT JUMPDEST SWAP3 DUP5 ADD SWAP3 JUMPDEST DUP3 DUP5 LT ISZERO PUSH2 0x244E JUMPI DUP4 CALLDATALOAD DUP3 MSTORE SWAP3 DUP5 ADD SWAP3 SWAP1 DUP5 ADD SWAP1 PUSH2 0x2435 JUMP JUMPDEST DUP1 SWAP6 POP POP POP POP POP POP SWAP3 POP SWAP3 SWAP1 POP JUMP JUMPDEST PUSH1 0x20 DUP1 DUP3 MSTORE DUP3 MLOAD DUP3 DUP3 ADD DUP2 SWAP1 MSTORE PUSH1 0x0 SWAP2 SWAP1 DUP5 DUP3 ADD SWAP1 PUSH1 0x40 DUP6 ADD SWAP1 DUP5 JUMPDEST DUP2 DUP2 LT ISZERO PUSH2 0x2497 JUMPI DUP4 MLOAD ISZERO ISZERO DUP4 MSTORE SWAP3 DUP5 ADD SWAP3 SWAP2 DUP5 ADD SWAP2 PUSH1 0x1 ADD PUSH2 0x2479 JUMP JUMPDEST POP SWAP1 SWAP7 SWAP6 POP POP POP POP POP POP JUMP JUMPDEST PUSH1 0x0 DUP1 PUSH1 0x40 DUP4 DUP6 SUB SLT ISZERO PUSH2 0x24B6 JUMPI PUSH1 0x0 DUP1 REVERT JUMPDEST DUP3 CALLDATALOAD SWAP2 POP PUSH2 0x24C6 PUSH1 0x20 DUP5 ADD PUSH2 0x2096 JUMP JUMPDEST SWAP1 POP SWAP3 POP SWAP3 SWAP1 POP JUMP JUMPDEST PUSH1 0x0 DUP1 PUSH1 0x0 DUP1 PUSH1 0x80 DUP6 DUP8 SUB SLT ISZERO PUSH2 0x24E5 JUMPI PUSH1 0x0 DUP1 REVERT JUMPDEST PUSH2 0x24EE DUP6 PUSH2 0x2096 JUMP JUMPDEST SWAP7 PUSH1 0x20 DUP7 ADD CALLDATALOAD SWAP7 POP PUSH1 0x40 DUP7 ADD CALLDATALOAD SWAP6 PUSH1 0x60 ADD CALLDATALOAD SWAP5 POP SWAP3 POP POP POP JUMP JUMPDEST PUSH1 0x0 DUP1 DUP4 PUSH1 0x1F DUP5 ADD SLT PUSH2 0x251A JUMPI PUSH1 0x0 DUP1 REVERT JUMPDEST POP DUP2 CALLDATALOAD PUSH1 0x1 PUSH1 0x1 PUSH1 0x40 SHL SUB DUP2 GT ISZERO PUSH2 0x2531 JUMPI PUSH1 0x0 DUP1 REVERT JUMPDEST PUSH1 0x20 DUP4 ADD SWAP2 POP DUP4 PUSH1 0x20 DUP3 DUP6 ADD ADD GT ISZERO PUSH2 0x2549 JUMPI PUSH1 0x0 DUP1 REVERT JUMPDEST SWAP3 POP SWAP3 SWAP1 POP JUMP JUMPDEST PUSH1 0x0 DUP1 PUSH1 0x0 DUP1 PUSH1 0x0 PUSH1 0x80 DUP7 DUP9 SUB SLT ISZERO PUSH2 0x2568 JUMPI PUSH1 0x0 DUP1 REVERT JUMPDEST PUSH2 0x2571 DUP7 PUSH2 0x2096 JUMP JUMPDEST SWAP5 POP PUSH1 0x20 DUP7 ADD CALLDATALOAD SWAP4 POP PUSH1 0x40 DUP7 ADD CALLDATALOAD PUSH1 0x1 PUSH1 0x1 PUSH1 0x40 SHL SUB DUP2 GT ISZERO PUSH2 0x2593 JUMPI PUSH1 0x0 DUP1 REVERT JUMPDEST PUSH2 0x259F DUP9 DUP3 DUP10 ADD PUSH2 0x2508 JUMP JUMPDEST SWAP7 SWAP10 SWAP6 SWAP9 POP SWAP7 PUSH1 0x60 ADD CALLDATALOAD SWAP5 SWAP4 POP POP POP POP JUMP JUMPDEST PUSH1 0x0 DUP1 PUSH1 0x0 DUP1 PUSH1 0x60 DUP6 DUP8 SUB SLT ISZERO PUSH2 0x25C7 JUMPI PUSH1 0x0 DUP1 REVERT JUMPDEST PUSH2 0x25D0 DUP6 PUSH2 0x2096 JUMP JUMPDEST SWAP4 POP PUSH1 0x20 DUP6 ADD CALLDATALOAD SWAP3 POP PUSH1 0x40 DUP6 ADD CALLDATALOAD PUSH1 0x1 PUSH1 0x1 PUSH1 0x40 SHL SUB DUP2 GT ISZERO PUSH2 0x25F2 JUMPI PUSH1 0x0 DUP1 REVERT JUMPDEST PUSH2 0x25FE DUP8 DUP3 DUP9 ADD PUSH2 0x2508 JUMP JUMPDEST SWAP6 SWAP9 SWAP5 SWAP8 POP SWAP6 POP POP POP POP JUMP JUMPDEST PUSH1 0x0 DUP3 PUSH1 0x1F DUP4 ADD SLT PUSH2 0x261B JUMPI PUSH1 0x0 DUP1 REVERT JUMPDEST DUP2 CALLDATALOAD PUSH1 0x1 PUSH1 0x1 PUSH1 0x40 SHL SUB DUP2 GT ISZERO PUSH2 0x2634 JUMPI PUSH2 0x2634 PUSH2 0x2323 JUMP JUMPDEST PUSH2 0x2647 PUSH1 0x1F DUP3 ADD PUSH1 0x1F NOT AND PUSH1 0x20 ADD PUSH2 0x2362 JUMP JUMPDEST DUP2 DUP2 MSTORE DUP5 PUSH1 0x20 DUP4 DUP7 ADD ADD GT ISZERO PUSH2 0x265C JUMPI PUSH1 0x0 DUP1 REVERT JUMPDEST DUP2 PUSH1 0x20 DUP6 ADD PUSH1 0x20 DUP4 ADD CALLDATACOPY PUSH1 0x0 SWAP2 DUP2 ADD PUSH1 0x20 ADD SWAP2 SWAP1 SWAP2 MSTORE SWAP4 SWAP3 POP POP POP JUMP JUMPDEST PUSH1 0x0 DUP1 PUSH1 0x40 DUP4 DUP6 SUB SLT ISZERO PUSH2 0x268C JUMPI PUSH1 0x0 DUP1 REVERT JUMPDEST DUP3 CALLDATALOAD PUSH1 0x1 PUSH1 0x1 PUSH1 0x40 SHL SUB DUP2 GT ISZERO PUSH2 0x26A2 JUMPI PUSH1 0x0 DUP1 REVERT JUMPDEST PUSH2 0x26AE DUP6 DUP3 DUP7 ADD PUSH2 0x260A JUMP JUMPDEST SWAP3 POP POP PUSH2 0x24C6 PUSH1 0x20 DUP5 ADD PUSH2 0x2096 JUMP JUMPDEST DUP1 CALLDATALOAD PUSH1 0x4 DUP2 LT PUSH2 0x20AD JUMPI PUSH1 0x0 DUP1 REVERT JUMPDEST PUSH1 0x0 DUP3 PUSH1 0x1F DUP4 ADD SLT PUSH2 0x26DD JUMPI PUSH1 0x0 DUP1 REVERT JUMPDEST DUP2 CALLDATALOAD PUSH1 0x20 PUSH2 0x26ED PUSH2 0x240C DUP4 PUSH2 0x2392 JUMP JUMPDEST DUP3 DUP2 MSTORE PUSH1 0x5 SWAP3 SWAP1 SWAP3 SHL DUP5 ADD DUP2 ADD SWAP2 DUP2 DUP2 ADD SWAP1 DUP7 DUP5 GT ISZERO PUSH2 0x270C JUMPI PUSH1 0x0 DUP1 REVERT JUMPDEST DUP3 DUP7 ADD JUMPDEST DUP5 DUP2 LT ISZERO PUSH2 0x274B JUMPI DUP1 CALLDATALOAD PUSH1 0x1 PUSH1 0x1 PUSH1 0x40 SHL SUB DUP2 GT ISZERO PUSH2 0x272F JUMPI PUSH1 0x0 DUP1 DUP2 REVERT JUMPDEST PUSH2 0x273D DUP10 DUP7 DUP4 DUP12 ADD ADD PUSH2 0x260A JUMP JUMPDEST DUP5 MSTORE POP SWAP2 DUP4 ADD SWAP2 DUP4 ADD PUSH2 0x2710 JUMP JUMPDEST POP SWAP7 SWAP6 POP POP POP POP POP POP JUMP JUMPDEST PUSH1 0x0 PUSH1 0x20 DUP3 DUP5 SUB SLT ISZERO PUSH2 0x2768 JUMPI PUSH1 0x0 DUP1 REVERT JUMPDEST DUP2 CALLDATALOAD PUSH1 0x1 PUSH1 0x1 PUSH1 0x40 SHL SUB DUP1 DUP3 GT ISZERO PUSH2 0x277F JUMPI PUSH1 0x0 DUP1 REVERT JUMPDEST SWAP1 DUP4 ADD SWAP1 PUSH2 0x200 DUP3 DUP7 SUB SLT ISZERO PUSH2 0x2794 JUMPI PUSH1 0x0 DUP1 REVERT JUMPDEST PUSH2 0x279C PUSH2 0x2339 JUMP JUMPDEST PUSH2 0x27A5 DUP4 PUSH2 0x2096 JUMP JUMPDEST DUP2 MSTORE PUSH1 0x20 DUP4 ADD CALLDATALOAD PUSH1 0x20 DUP3 ADD MSTORE PUSH1 0x40 DUP4 ADD CALLDATALOAD PUSH1 0x40 DUP3 ADD MSTORE PUSH1 0x60 DUP4 ADD CALLDATALOAD PUSH1 0x60 DUP3 ADD MSTORE PUSH1 0x80 DUP4 ADD CALLDATALOAD PUSH1 0x80 DUP3 ADD MSTORE PUSH1 0xA0 DUP4 ADD CALLDATALOAD PUSH1 0xA0 DUP3 ADD MSTORE PUSH1 0xC0 DUP4 ADD CALLDATALOAD PUSH1 0xC0 DUP3 ADD MSTORE PUSH2 0x27EF PUSH1 0xE0 DUP5 ADD PUSH2 0x2096 JUMP JUMPDEST PUSH1 0xE0 DUP3 ADD MSTORE PUSH2 0x100 PUSH2 0x2802 DUP2 DUP6 ADD PUSH2 0x26BD JUMP JUMPDEST SWAP1 DUP3 ADD MSTORE PUSH2 0x120 DUP4 DUP2 ADD CALLDATALOAD DUP4 DUP2 GT ISZERO PUSH2 0x281A JUMPI PUSH1 0x0 DUP1 REVERT JUMPDEST PUSH2 0x2826 DUP9 DUP3 DUP8 ADD PUSH2 0x260A JUMP JUMPDEST SWAP2 DUP4 ADD SWAP2 SWAP1 SWAP2 MSTORE POP PUSH2 0x140 DUP4 DUP2 ADD CALLDATALOAD SWAP1 DUP3 ADD MSTORE PUSH2 0x160 DUP1 DUP5 ADD CALLDATALOAD SWAP1 DUP3 ADD MSTORE PUSH2 0x180 DUP1 DUP5 ADD CALLDATALOAD SWAP1 DUP3 ADD MSTORE PUSH2 0x1A0 DUP1 DUP5 ADD CALLDATALOAD SWAP1 DUP3 ADD MSTORE PUSH2 0x1C0 DUP1 DUP5 ADD CALLDATALOAD DUP4 DUP2 GT ISZERO PUSH2 0x286E JUMPI PUSH1 0x0 DUP1 REVERT JUMPDEST PUSH2 0x287A DUP9 DUP3 DUP8 ADD PUSH2 0x260A JUMP JUMPDEST DUP3 DUP5 ADD MSTORE POP POP PUSH2 0x1E0 DUP1 DUP5 ADD CALLDATALOAD DUP4 DUP2 GT ISZERO PUSH2 0x2894 JUMPI PUSH1 0x0 DUP1 REVERT JUMPDEST PUSH2 0x28A0 DUP9 DUP3 DUP8 ADD PUSH2 0x26CC JUMP JUMPDEST SWAP2 DUP4 ADD SWAP2 SWAP1 SWAP2 MSTORE POP SWAP6 SWAP5 POP POP POP POP POP JUMP JUMPDEST PUSH4 0x4E487B71 PUSH1 0xE0 SHL PUSH1 0x0 MSTORE PUSH1 0x32 PUSH1 0x4 MSTORE PUSH1 0x24 PUSH1 0x0 REVERT JUMPDEST PUSH1 0x1 DUP2 DUP2 SHR SWAP1 DUP3 AND DUP1 PUSH2 0x28DB JUMPI PUSH1 0x7F DUP3 AND SWAP2 POP JUMPDEST PUSH1 0x20 DUP3 LT DUP2 SUB PUSH2 0x381 JUMPI PUSH4 0x4E487B71 PUSH1 0xE0 SHL PUSH1 0x0 MSTORE PUSH1 0x22 PUSH1 0x4 MSTORE PUSH1 0x24 PUSH1 0x0 REVERT JUMPDEST PUSH4 0x4E487B71 PUSH1 0xE0 SHL PUSH1 0x0 MSTORE PUSH1 0x11 PUSH1 0x4 MSTORE PUSH1 0x24 PUSH1 0x0 REVERT JUMPDEST PUSH1 0x0 PUSH1 0x1 DUP3 ADD PUSH2 0x2923 JUMPI PUSH2 0x2923 PUSH2 0x28FB JUMP JUMPDEST POP PUSH1 0x1 ADD SWAP1 JUMP JUMPDEST PUSH1 0x0 PUSH2 0xFFFF DUP1 DUP4 AND DUP2 DUP2 SUB PUSH2 0x2941 JUMPI PUSH2 0x2941 PUSH2 0x28FB JUMP JUMPDEST PUSH1 0x1 ADD SWAP4 SWAP3 POP POP POP JUMP JUMPDEST DUP2 DUP2 SUB DUP2 DUP2 GT ISZERO PUSH2 0x331 JUMPI PUSH2 0x331 PUSH2 0x28FB JUMP JUMPDEST DUP2 DUP4 DUP3 CALLDATACOPY PUSH1 0x0 SWAP2 ADD SWAP1 DUP2 MSTORE SWAP2 SWAP1 POP JUMP JUMPDEST PUSH1 0x0 DUP3 MLOAD PUSH2 0x2980 DUP2 DUP5 PUSH1 0x20 DUP8 ADD PUSH2 0x2105 JUMP JUMPDEST SWAP2 SWAP1 SWAP2 ADD SWAP3 SWAP2 POP POP JUMP JUMPDEST PUSH4 0x4E487B71 PUSH1 0xE0 SHL PUSH1 0x0 MSTORE PUSH1 0x31 PUSH1 0x4 MSTORE PUSH1 0x24 PUSH1 0x0 REVERT JUMPDEST PUSH1 0x0 PUSH1 0xFF DUP3 AND PUSH1 0xFF DUP2 SUB PUSH2 0x29B6 JUMPI PUSH2 0x29B6 PUSH2 0x28FB JUMP JUMPDEST PUSH1 0x1 ADD SWAP3 SWAP2 POP POP JUMP JUMPDEST PUSH1 0x1F DUP3 GT ISZERO PUSH2 0x1CE0 JUMPI PUSH1 0x0 DUP2 DUP2 MSTORE PUSH1 0x20 DUP2 KECCAK256 PUSH1 0x1F DUP6 ADD PUSH1 0x5 SHR DUP2 ADD PUSH1 0x20 DUP7 LT ISZERO PUSH2 0x29E6 JUMPI POP DUP1 JUMPDEST PUSH1 0x1F DUP6 ADD PUSH1 0x5 SHR DUP3 ADD SWAP2 POP JUMPDEST DUP2 DUP2 LT ISZERO PUSH2 0x2A05 JUMPI DUP3 DUP2 SSTORE PUSH1 0x1 ADD PUSH2 0x29F2 JUMP JUMPDEST POP POP POP POP POP POP JUMP JUMPDEST DUP2 MLOAD PUSH1 0x1 PUSH1 0x1 PUSH1 0x40 SHL SUB DUP2 GT ISZERO PUSH2 0x2A26 JUMPI PUSH2 0x2A26 PUSH2 0x2323 JUMP JUMPDEST PUSH2 0x2A3A DUP2 PUSH2 0x2A34 DUP5 SLOAD PUSH2 0x28C7 JUMP JUMPDEST DUP5 PUSH2 0x29BF JUMP JUMPDEST PUSH1 0x20 DUP1 PUSH1 0x1F DUP4 GT PUSH1 0x1 DUP2 EQ PUSH2 0x2A6F JUMPI PUSH1 0x0 DUP5 ISZERO PUSH2 0x2A57 JUMPI POP DUP6 DUP4 ADD MLOAD JUMPDEST PUSH1 0x0 NOT PUSH1 0x3 DUP7 SWAP1 SHL SHR NOT AND PUSH1 0x1 DUP6 SWAP1 SHL OR DUP6 SSTORE PUSH2 0x2A05 JUMP JUMPDEST PUSH1 0x0 DUP6 DUP2 MSTORE PUSH1 0x20 DUP2 KECCAK256 PUSH1 0x1F NOT DUP7 AND SWAP2 JUMPDEST DUP3 DUP2 LT ISZERO PUSH2 0x2A9E JUMPI DUP9 DUP7 ADD MLOAD DUP3 SSTORE SWAP5 DUP5 ADD SWAP5 PUSH1 0x1 SWAP1 SWAP2 ADD SWAP1 DUP5 ADD PUSH2 0x2A7F JUMP JUMPDEST POP DUP6 DUP3 LT ISZERO PUSH2 0x2ABC JUMPI DUP8 DUP6 ADD MLOAD PUSH1 0x0 NOT PUSH1 0x3 DUP9 SWAP1 SHL PUSH1 0xF8 AND SHR NOT AND DUP2 SSTORE JUMPDEST POP POP POP POP POP PUSH1 0x1 SWAP1 DUP2 SHL ADD SWAP1 SSTORE POP JUMP JUMPDEST PUSH32 0x416363657373436F6E74726F6C3A206163636F756E7420000000000000000000 DUP2 MSTORE PUSH1 0x0 DUP4 MLOAD PUSH2 0x2B04 DUP2 PUSH1 0x17 DUP6 ADD PUSH1 0x20 DUP9 ADD PUSH2 0x2105 JUMP JUMPDEST PUSH17 0x1034B99036B4B9B9B4B733903937B6329 PUSH1 0x7D SHL PUSH1 0x17 SWAP2 DUP5 ADD SWAP2 DUP3 ADD MSTORE DUP4 MLOAD PUSH2 0x2B35 DUP2 PUSH1 0x28 DUP5 ADD PUSH1 0x20 DUP9 ADD PUSH2 0x2105 JUMP JUMPDEST ADD PUSH1 0x28 ADD SWAP5 SWAP4 POP POP POP POP JUMP JUMPDEST PUSH1 0x20 DUP2 MSTORE PUSH1 0x0 PUSH2 0x1EEB PUSH1 0x20 DUP4 ADD DUP5 PUSH2 0x2129 JUMP JUMPDEST DUP1 DUP3 MUL DUP2 ISZERO DUP3 DUP3 DIV DUP5 EQ OR PUSH2 0x331 JUMPI PUSH2 0x331 PUSH2 0x28FB JUMP JUMPDEST DUP1 DUP3 ADD DUP1 DUP3 GT ISZERO PUSH2 0x331 JUMPI PUSH2 0x331 PUSH2 0x28FB JUMP JUMPDEST PUSH1 0x0 DUP2 PUSH2 0x2B8D JUMPI PUSH2 0x2B8D PUSH2 0x28FB JUMP JUMPDEST POP PUSH1 0x0 NOT ADD SWAP1 JUMP INVALID 0xCE JUMPDEST 0x4D SELFDESTRUCT 0xEB PUSH4 0x6293708C PUSH26 0xF81C22E23CD9E58DE35C143478790754258CB2CD38A264697066 PUSH20 0x58221220580E9320AEEAB9C8B3AAE111168C6728 0xD7 SWAP3 0xCE DUP7 0xE1 0xD9 0xAB PUSH32 0xADA01854D0A3F16764736F6C6343000813003300000000000000000000000000 "
				},
				"gasEstimates": {
					"creation": {
						"codeDepositCost": "2248600",
						"executionCost": "31040",
						"totalCost": "2279640"
					},
					"external": {
						"DEFAULT_ADMIN_ROLE()": "217",
						"PC_CON()": "infinite",
						"activateCode(string,address)": "infinite",
						"addCode((address,bytes32,uint256,uint256,uint256,uint256,uint256,address,uint8,string,uint256,uint256,uint256,bytes32,string,string[]))": "infinite",
						"blockCode(address,bytes32[])": "infinite",
						"burnCode(bytes32)": "infinite",
						"getCodeInfo(bytes32)": "infinite",
						"getCodeList(address)": "infinite",
						"getRoleAdmin(bytes32)": "2492",
						"grantRole(bytes32,address)": "infinite",
						"hasRole(bytes32,address)": "2762",
						"renounceRole(bytes32,address)": "29084",
						"revokeRole(bytes32,address)": "infinite",
						"setCodeLockTime(address,bytes32,uint256,uint256)": "infinite",
						"supportsInterface(bytes4)": "450",
						"unblockCode(address,bytes32[])": "infinite",
						"unlockCodeWalletKey(address,bytes32,string)": "infinite",
						"updateCode((address,bytes32,uint256,uint256,uint256,uint256,uint256,address,uint8,string,uint256,uint256,uint256,bytes32,string,string[]))": "infinite",
						"updateCodeWalletKey(address,bytes32,string,bytes32)": "infinite",
						"updateExpiredCode(bytes32)": "infinite"
					},
					"internal": {
						"_removeCodeHash(address,bytes32)": "infinite",
						"_validateCodeHash(bytes32)": "infinite"
					}
				},
				"methodIdentifiers": {
					"DEFAULT_ADMIN_ROLE()": "a217fddf",
					"PC_CON()": "7e7e8aa2",
					"activateCode(string,address)": "90bc1864",
					"addCode((address,bytes32,uint256,uint256,uint256,uint256,uint256,address,uint8,string,uint256,uint256,uint256,bytes32,string,string[]))": "ded92c3d",
					"blockCode(address,bytes32[])": "20382f46",
					"burnCode(bytes32)": "186fbad2",
					"getCodeInfo(bytes32)": "19d8bcf0",
					"getCodeList(address)": "134c0377",
					"getRoleAdmin(bytes32)": "248a9ca3",
					"grantRole(bytes32,address)": "2f2ff15d",
					"hasRole(bytes32,address)": "91d14854",
					"renounceRole(bytes32,address)": "36568abe",
					"revokeRole(bytes32,address)": "d547741f",
					"setCodeLockTime(address,bytes32,uint256,uint256)": "3b2c0e5a",
					"supportsInterface(bytes4)": "01ffc9a7",
					"unblockCode(address,bytes32[])": "ce1dd554",
					"unlockCodeWalletKey(address,bytes32,string)": "76f1a358",
					"updateCode((address,bytes32,uint256,uint256,uint256,uint256,uint256,address,uint8,string,uint256,uint256,uint256,bytes32,string,string[]))": "d86a8af3",
					"updateCodeWalletKey(address,bytes32,string,bytes32)": "54eecb92",
					"updateExpiredCode(bytes32)": "1339f27b"
				}
			},
			"storageLayout": {
				"storage": [
					{
						"astId": 24,
						"contract": "code_pool.sol:CodePool",
						"label": "_roles",
						"offset": 0,
						"slot": "0",
						"type": "t_mapping(t_bytes32,t_struct(RoleData)19_storage)"
					},
					{
						"astId": 1780,
						"contract": "code_pool.sol:CodePool",
						"label": "mRoleArrList",
						"offset": 0,
						"slot": "1",
						"type": "t_mapping(t_bytes32,t_array(t_address)dyn_storage)"
					},
					{
						"astId": 1785,
						"contract": "code_pool.sol:CodePool",
						"label": "mCodeInfo",
						"offset": 0,
						"slot": "2",
						"type": "t_mapping(t_bytes32,t_struct(Code)2634_storage)"
					},
					{
						"astId": 1790,
						"contract": "code_pool.sol:CodePool",
						"label": "mCodeList",
						"offset": 0,
						"slot": "3",
						"type": "t_mapping(t_address,t_array(t_bytes32)dyn_storage)"
					}
				],
				"types": {
					"t_address": {
						"encoding": "inplace",
						"label": "address",
						"numberOfBytes": "20"
					},
					"t_array(t_address)dyn_storage": {
						"base": "t_address",
						"encoding": "dynamic_array",
						"label": "address[]",
						"numberOfBytes": "32"
					},
					"t_array(t_bytes32)dyn_storage": {
						"base": "t_bytes32",
						"encoding": "dynamic_array",
						"label": "bytes32[]",
						"numberOfBytes": "32"
					},
					"t_array(t_string_storage)dyn_storage": {
						"base": "t_string_storage",
						"encoding": "dynamic_array",
						"label": "string[]",
						"numberOfBytes": "32"
					},
					"t_bool": {
						"encoding": "inplace",
						"label": "bool",
						"numberOfBytes": "1"
					},
					"t_bytes32": {
						"encoding": "inplace",
						"label": "bytes32",
						"numberOfBytes": "32"
					},
					"t_enum(Status)2599": {
						"encoding": "inplace",
						"label": "enum Status",
						"numberOfBytes": "1"
					},
					"t_mapping(t_address,t_array(t_bytes32)dyn_storage)": {
						"encoding": "mapping",
						"key": "t_address",
						"label": "mapping(address => bytes32[])",
						"numberOfBytes": "32",
						"value": "t_array(t_bytes32)dyn_storage"
					},
					"t_mapping(t_address,t_bool)": {
						"encoding": "mapping",
						"key": "t_address",
						"label": "mapping(address => bool)",
						"numberOfBytes": "32",
						"value": "t_bool"
					},
					"t_mapping(t_bytes32,t_array(t_address)dyn_storage)": {
						"encoding": "mapping",
						"key": "t_bytes32",
						"label": "mapping(bytes32 => address[])",
						"numberOfBytes": "32",
						"value": "t_array(t_address)dyn_storage"
					},
					"t_mapping(t_bytes32,t_struct(Code)2634_storage)": {
						"encoding": "mapping",
						"key": "t_bytes32",
						"label": "mapping(bytes32 => struct Code)",
						"numberOfBytes": "32",
						"value": "t_struct(Code)2634_storage"
					},
					"t_mapping(t_bytes32,t_struct(RoleData)19_storage)": {
						"encoding": "mapping",
						"key": "t_bytes32",
						"label": "mapping(bytes32 => struct AccessControl.RoleData)",
						"numberOfBytes": "32",
						"value": "t_struct(RoleData)19_storage"
					},
					"t_string_storage": {
						"encoding": "bytes",
						"label": "string",
						"numberOfBytes": "32"
					},
					"t_struct(Code)2634_storage": {
						"encoding": "inplace",
						"label": "struct Code",
						"members": [
							{
								"astId": 2601,
								"contract": "code_pool.sol:CodePool",
								"label": "owner",
								"offset": 0,
								"slot": "0",
								"type": "t_address"
							},
							{
								"astId": 2603,
								"contract": "code_pool.sol:CodePool",
								"label": "codeHash",
								"offset": 0,
								"slot": "1",
								"type": "t_bytes32"
							},
							{
								"astId": 2605,
								"contract": "code_pool.sol:CodePool",
								"label": "activeTime",
								"offset": 0,
								"slot": "2",
								"type": "t_uint256"
							},
							{
								"astId": 2607,
								"contract": "code_pool.sol:CodePool",
								"label": "expirationActiveTime",
								"offset": 0,
								"slot": "3",
								"type": "t_uint256"
							},
							{
								"astId": 2609,
								"contract": "code_pool.sol:CodePool",
								"label": "boostSpeed",
								"offset": 0,
								"slot": "4",
								"type": "t_uint256"
							},
							{
								"astId": 2611,
								"contract": "code_pool.sol:CodePool",
								"label": "boostTime",
								"offset": 0,
								"slot": "5",
								"type": "t_uint256"
							},
							{
								"astId": 2613,
								"contract": "code_pool.sol:CodePool",
								"label": "rateBoost",
								"offset": 0,
								"slot": "6",
								"type": "t_uint256"
							},
							{
								"astId": 2615,
								"contract": "code_pool.sol:CodePool",
								"label": "delegate",
								"offset": 0,
								"slot": "7",
								"type": "t_address"
							},
							{
								"astId": 2618,
								"contract": "code_pool.sol:CodePool",
								"label": "status",
								"offset": 20,
								"slot": "7",
								"type": "t_enum(Status)2599"
							},
							{
								"astId": 2620,
								"contract": "code_pool.sol:CodePool",
								"label": "origin",
								"offset": 0,
								"slot": "8",
								"type": "t_string_storage"
							},
							{
								"astId": 2622,
								"contract": "code_pool.sol:CodePool",
								"label": "mintedAmount",
								"offset": 0,
								"slot": "9",
								"type": "t_uint256"
							},
							{
								"astId": 2624,
								"contract": "code_pool.sol:CodePool",
								"label": "releasePercentage",
								"offset": 0,
								"slot": "10",
								"type": "t_uint256"
							},
							{
								"astId": 2626,
								"contract": "code_pool.sol:CodePool",
								"label": "lockTime",
								"offset": 0,
								"slot": "11",
								"type": "t_uint256"
							},
							{
								"astId": 2628,
								"contract": "code_pool.sol:CodePool",
								"label": "keyHash",
								"offset": 0,
								"slot": "12",
								"type": "t_bytes32"
							},
							{
								"astId": 2630,
								"contract": "code_pool.sol:CodePool",
								"label": "haah",
								"offset": 0,
								"slot": "13",
								"type": "t_string_storage"
							},
							{
								"astId": 2633,
								"contract": "code_pool.sol:CodePool",
								"label": "hihi",
								"offset": 0,
								"slot": "14",
								"type": "t_array(t_string_storage)dyn_storage"
							}
						],
						"numberOfBytes": "480"
					},
					"t_struct(RoleData)19_storage": {
						"encoding": "inplace",
						"label": "struct AccessControl.RoleData",
						"members": [
							{
								"astId": 16,
								"contract": "code_pool.sol:CodePool",
								"label": "members",
								"offset": 0,
								"slot": "0",
								"type": "t_mapping(t_address,t_bool)"
							},
							{
								"astId": 18,
								"contract": "code_pool.sol:CodePool",
								"label": "adminRole",
								"offset": 0,
								"slot": "1",
								"type": "t_bytes32"
							}
						],
						"numberOfBytes": "64"
					},
					"t_uint256": {
						"encoding": "inplace",
						"label": "uint256",
						"numberOfBytes": "32"
					}
				}
			},
			"userdoc": {
				"kind": "user",
				"methods": {},
				"version": 1
			}
		}
	}
}