{
	"GenerateCode.sol": {
		"KventureCode": {
			"abi": [
				{
					"inputs": [],
					"stateMutability": "payable",
					"type": "constructor"
				},
				{
					"anonymous": false,
					"inputs": [
						{
							"indexed": false,
							"internalType": "uint8",
							"name": "version",
							"type": "uint8"
						}
					],
					"name": "Initialized",
					"type": "event"
				},
				{
					"anonymous": false,
					"inputs": [
						{
							"indexed": true,
							"internalType": "address",
							"name": "previousOwner",
							"type": "address"
						},
						{
							"indexed": true,
							"internalType": "address",
							"name": "newOwner",
							"type": "address"
						}
					],
					"name": "OwnershipTransferred",
					"type": "event"
				},
				{
					"inputs": [
						{
							"internalType": "string[]",
							"name": "codeFEs",
							"type": "string[]"
						}
					],
					"name": "BlockManyCode",
					"outputs": [
						{
							"internalType": "bool[]",
							"name": "",
							"type": "bool[]"
						}
					],
					"stateMutability": "nonpayable",
					"type": "function"
				},
				{
					"inputs": [],
					"name": "CalculateCurrentRateBoost",
					"outputs": [
						{
							"internalType": "uint256",
							"name": "",
							"type": "uint256"
						}
					],
					"stateMutability": "view",
					"type": "function"
				},
				{
					"inputs": [
						{
							"internalType": "address",
							"name": "buyer",
							"type": "address"
						},
						{
							"internalType": "uint256",
							"name": "planPrice",
							"type": "uint256"
						},
						{
							"internalType": "uint256",
							"name": "quantity",
							"type": "uint256"
						},
						{
							"internalType": "bool",
							"name": "lock",
							"type": "bool"
						},
						{
							"internalType": "bytes32[]",
							"name": "codeHashes",
							"type": "bytes32[]"
						},
						{
							"internalType": "bool",
							"name": "_cloudMining",
							"type": "bool"
						},
						{
							"internalType": "address",
							"name": "_delegate",
							"type": "address"
						}
					],
					"name": "GenerateCode",
					"outputs": [
						{
							"internalType": "uint256[]",
							"name": "",
							"type": "uint256[]"
						}
					],
					"stateMutability": "nonpayable",
					"type": "function"
				},
				{
					"inputs": [
						{
							"internalType": "uint32",
							"name": "_page",
							"type": "uint32"
						}
					],
					"name": "GetMyCode",
					"outputs": [
						{
							"internalType": "bool",
							"name": "isMore",
							"type": "bool"
						},
						{
							"components": [
								{
									"internalType": "address",
									"name": "owner",
									"type": "address"
								},
								{
									"internalType": "bytes32",
									"name": "codeHash",
									"type": "bytes32"
								},
								{
									"internalType": "uint256",
									"name": "activeTime",
									"type": "uint256"
								},
								{
									"internalType": "uint256",
									"name": "expirationActiveTime",
									"type": "uint256"
								},
								{
									"internalType": "uint256",
									"name": "boostSpeed",
									"type": "uint256"
								},
								{
									"internalType": "uint256",
									"name": "boostTime",
									"type": "uint256"
								},
								{
									"internalType": "uint256",
									"name": "rateBoost",
									"type": "uint256"
								},
								{
									"internalType": "address",
									"name": "delegate",
									"type": "address"
								},
								{
									"internalType": "enum PackageStatus",
									"name": "status",
									"type": "uint8"
								},
								{
									"internalType": "string",
									"name": "origin",
									"type": "string"
								},
								{
									"internalType": "uint256",
									"name": "mintedAmount",
									"type": "uint256"
								},
								{
									"internalType": "uint256",
									"name": "releasePercentage",
									"type": "uint256"
								},
								{
									"internalType": "uint256",
									"name": "lockTime",
									"type": "uint256"
								},
								{
									"internalType": "bytes32",
									"name": "keyHash",
									"type": "bytes32"
								},
								{
									"internalType": "uint256",
									"name": "currentDeposit",
									"type": "uint256"
								}
							],
							"internalType": "struct PackageInfo[]",
							"name": "arrayPack",
							"type": "tuple[]"
						}
					],
					"stateMutability": "view",
					"type": "function"
				},
				{
					"inputs": [],
					"name": "GetTotalMyCode",
					"outputs": [
						{
							"internalType": "uint256",
							"name": "",
							"type": "uint256"
						}
					],
					"stateMutability": "view",
					"type": "function"
				},
				{
					"inputs": [
						{
							"internalType": "uint32",
							"name": "_page",
							"type": "uint32"
						},
						{
							"internalType": "address",
							"name": "_user",
							"type": "address"
						}
					],
					"name": "GetUserCode",
					"outputs": [
						{
							"internalType": "bool",
							"name": "isMore",
							"type": "bool"
						},
						{
							"components": [
								{
									"internalType": "address",
									"name": "owner",
									"type": "address"
								},
								{
									"internalType": "bytes32",
									"name": "codeHash",
									"type": "bytes32"
								},
								{
									"internalType": "uint256",
									"name": "activeTime",
									"type": "uint256"
								},
								{
									"internalType": "uint256",
									"name": "expirationActiveTime",
									"type": "uint256"
								},
								{
									"internalType": "uint256",
									"name": "boostSpeed",
									"type": "uint256"
								},
								{
									"internalType": "uint256",
									"name": "boostTime",
									"type": "uint256"
								},
								{
									"internalType": "uint256",
									"name": "rateBoost",
									"type": "uint256"
								},
								{
									"internalType": "address",
									"name": "delegate",
									"type": "address"
								},
								{
									"internalType": "enum PackageStatus",
									"name": "status",
									"type": "uint8"
								},
								{
									"internalType": "string",
									"name": "origin",
									"type": "string"
								},
								{
									"internalType": "uint256",
									"name": "mintedAmount",
									"type": "uint256"
								},
								{
									"internalType": "uint256",
									"name": "releasePercentage",
									"type": "uint256"
								},
								{
									"internalType": "uint256",
									"name": "lockTime",
									"type": "uint256"
								},
								{
									"internalType": "bytes32",
									"name": "keyHash",
									"type": "bytes32"
								},
								{
									"internalType": "uint256",
									"name": "currentDeposit",
									"type": "uint256"
								}
							],
							"internalType": "struct PackageInfo[]",
							"name": "arrayPack",
							"type": "tuple[]"
						}
					],
					"stateMutability": "view",
					"type": "function"
				},
				{
					"inputs": [],
					"name": "KCodePrice",
					"outputs": [
						{
							"internalType": "uint256",
							"name": "",
							"type": "uint256"
						}
					],
					"stateMutability": "view",
					"type": "function"
				},
				{
					"inputs": [
						{
							"internalType": "address",
							"name": "buyer",
							"type": "address"
						},
						{
							"internalType": "bytes32",
							"name": "codeHash",
							"type": "bytes32"
						}
					],
					"name": "KGenerateCode",
					"outputs": [
						{
							"internalType": "bool",
							"name": "",
							"type": "bool"
						}
					],
					"stateMutability": "nonpayable",
					"type": "function"
				},
				{
					"inputs": [
						{
							"internalType": "uint256",
							"name": "_cloudMiningThreshold",
							"type": "uint256"
						}
					],
					"name": "SetCloudMiningThreshold",
					"outputs": [],
					"stateMutability": "nonpayable",
					"type": "function"
				},
				{
					"inputs": [
						{
							"internalType": "address",
							"name": "_masterPool",
							"type": "address"
						}
					],
					"name": "SetMasterPool",
					"outputs": [],
					"stateMutability": "nonpayable",
					"type": "function"
				},
				{
					"inputs": [
						{
							"internalType": "address",
							"name": "_nft",
							"type": "address"
						}
					],
					"name": "SetNFT",
					"outputs": [],
					"stateMutability": "nonpayable",
					"type": "function"
				},
				{
					"inputs": [
						{
							"internalType": "address",
							"name": "_product",
							"type": "address"
						}
					],
					"name": "SetProduct",
					"outputs": [],
					"stateMutability": "nonpayable",
					"type": "function"
				},
				{
					"inputs": [
						{
							"internalType": "address",
							"name": "_usdt",
							"type": "address"
						}
					],
					"name": "SetUsdt",
					"outputs": [],
					"stateMutability": "nonpayable",
					"type": "function"
				},
				{
					"inputs": [
						{
							"internalType": "string[]",
							"name": "codeFEs",
							"type": "string[]"
						}
					],
					"name": "UnblockManyCode",
					"outputs": [
						{
							"internalType": "bool[]",
							"name": "",
							"type": "bool[]"
						}
					],
					"stateMutability": "nonpayable",
					"type": "function"
				},
				{
					"inputs": [],
					"name": "boostSpeedDecimal",
					"outputs": [
						{
							"internalType": "uint256",
							"name": "",
							"type": "uint256"
						}
					],
					"stateMutability": "view",
					"type": "function"
				},
				{
					"inputs": [],
					"name": "codePool",
					"outputs": [
						{
							"internalType": "contract ICodePool",
							"name": "",
							"type": "address"
						}
					],
					"stateMutability": "view",
					"type": "function"
				},
				{
					"inputs": [],
					"name": "deployedDate",
					"outputs": [
						{
							"internalType": "uint256",
							"name": "",
							"type": "uint256"
						}
					],
					"stateMutability": "view",
					"type": "function"
				},
				{
					"inputs": [
						{
							"internalType": "bytes32",
							"name": "codeHash",
							"type": "bytes32"
						}
					],
					"name": "getCodeInfoSmC",
					"outputs": [
						{
							"components": [
								{
									"internalType": "address",
									"name": "owner",
									"type": "address"
								},
								{
									"internalType": "bytes32",
									"name": "codeHash",
									"type": "bytes32"
								},
								{
									"internalType": "uint256",
									"name": "activeTime",
									"type": "uint256"
								},
								{
									"internalType": "uint256",
									"name": "expirationActiveTime",
									"type": "uint256"
								},
								{
									"internalType": "uint256",
									"name": "boostSpeed",
									"type": "uint256"
								},
								{
									"internalType": "uint256",
									"name": "boostTime",
									"type": "uint256"
								},
								{
									"internalType": "uint256",
									"name": "rateBoost",
									"type": "uint256"
								},
								{
									"internalType": "address",
									"name": "delegate",
									"type": "address"
								},
								{
									"internalType": "enum PackageStatus",
									"name": "status",
									"type": "uint8"
								},
								{
									"internalType": "string",
									"name": "origin",
									"type": "string"
								},
								{
									"internalType": "uint256",
									"name": "mintedAmount",
									"type": "uint256"
								},
								{
									"internalType": "uint256",
									"name": "releasePercentage",
									"type": "uint256"
								},
								{
									"internalType": "uint256",
									"name": "lockTime",
									"type": "uint256"
								},
								{
									"internalType": "bytes32",
									"name": "keyHash",
									"type": "bytes32"
								},
								{
									"internalType": "uint256",
									"name": "currentDeposit",
									"type": "uint256"
								}
							],
							"internalType": "struct PackageInfo",
							"name": "",
							"type": "tuple"
						}
					],
					"stateMutability": "view",
					"type": "function"
				},
				{
					"inputs": [
						{
							"internalType": "address",
							"name": "_trustedUSDT",
							"type": "address"
						},
						{
							"internalType": "address",
							"name": "_masterPool",
							"type": "address"
						},
						{
							"internalType": "address",
							"name": "_codePool",
							"type": "address"
						},
						{
							"internalType": "address",
							"name": "_product",
							"type": "address"
						},
						{
							"internalType": "address",
							"name": "_trustedNFT",
							"type": "address"
						},
						{
							"internalType": "address",
							"name": "_kventure",
							"type": "address"
						}
					],
					"name": "initialize",
					"outputs": [],
					"stateMutability": "nonpayable",
					"type": "function"
				},
				{
					"inputs": [],
					"name": "kventure",
					"outputs": [
						{
							"internalType": "address",
							"name": "",
							"type": "address"
						}
					],
					"stateMutability": "view",
					"type": "function"
				},
				{
					"inputs": [
						{
							"internalType": "uint256",
							"name": "",
							"type": "uint256"
						}
					],
					"name": "mIdToPro",
					"outputs": [
						{
							"internalType": "bytes32",
							"name": "id",
							"type": "bytes32"
						},
						{
							"internalType": "bytes",
							"name": "imgUrl",
							"type": "bytes"
						},
						{
							"internalType": "uint256",
							"name": "memberPrice",
							"type": "uint256"
						},
						{
							"internalType": "uint256",
							"name": "retailPrice",
							"type": "uint256"
						},
						{
							"internalType": "bytes",
							"name": "desc",
							"type": "bytes"
						},
						{
							"internalType": "bool",
							"name": "active",
							"type": "bool"
						}
					],
					"stateMutability": "view",
					"type": "function"
				},
				{
					"inputs": [
						{
							"internalType": "uint256",
							"name": "",
							"type": "uint256"
						}
					],
					"name": "mValidMiningTime",
					"outputs": [
						{
							"internalType": "uint256",
							"name": "",
							"type": "uint256"
						}
					],
					"stateMutability": "view",
					"type": "function"
				},
				{
					"inputs": [],
					"name": "masterPool",
					"outputs": [
						{
							"internalType": "address",
							"name": "",
							"type": "address"
						}
					],
					"stateMutability": "view",
					"type": "function"
				},
				{
					"inputs": [],
					"name": "nft",
					"outputs": [
						{
							"internalType": "address",
							"name": "",
							"type": "address"
						}
					],
					"stateMutability": "view",
					"type": "function"
				},
				{
					"inputs": [],
					"name": "owner",
					"outputs": [
						{
							"internalType": "address",
							"name": "",
							"type": "address"
						}
					],
					"stateMutability": "view",
					"type": "function"
				},
				{
					"inputs": [],
					"name": "product",
					"outputs": [
						{
							"internalType": "address",
							"name": "",
							"type": "address"
						}
					],
					"stateMutability": "view",
					"type": "function"
				},
				{
					"inputs": [],
					"name": "rateBoost",
					"outputs": [
						{
							"internalType": "uint256",
							"name": "",
							"type": "uint256"
						}
					],
					"stateMutability": "view",
					"type": "function"
				},
				{
					"inputs": [],
					"name": "renounceOwnership",
					"outputs": [],
					"stateMutability": "nonpayable",
					"type": "function"
				},
				{
					"inputs": [],
					"name": "returnRIP",
					"outputs": [
						{
							"internalType": "uint32",
							"name": "",
							"type": "uint32"
						}
					],
					"stateMutability": "view",
					"type": "function"
				},
				{
					"inputs": [
						{
							"internalType": "address",
							"name": "newOwner",
							"type": "address"
						}
					],
					"name": "transferOwnership",
					"outputs": [],
					"stateMutability": "nonpayable",
					"type": "function"
				},
				{
					"inputs": [],
					"name": "usdt",
					"outputs": [
						{
							"internalType": "address",
							"name": "",
							"type": "address"
						}
					],
					"stateMutability": "view",
					"type": "function"
				},
				{
					"inputs": [],
					"name": "usdtDecimal",
					"outputs": [
						{
							"internalType": "uint256",
							"name": "",
							"type": "uint256"
						}
					],
					"stateMutability": "view",
					"type": "function"
				}
			],
			"devdoc": {
				"events": {
					"Initialized(uint8)": {
						"details": "Triggered when the contract has been initialized or reinitialized."
					}
				},
				"kind": "dev",
				"methods": {
					"owner()": {
						"details": "Returns the address of the current owner."
					},
					"renounceOwnership()": {
						"details": "Leaves the contract without owner. It will not be possible to call `onlyOwner` functions. Can only be called by the current owner. NOTE: Renouncing ownership will leave the contract without an owner, thereby disabling any functionality that is only available to the owner."
					},
					"transferOwnership(address)": {
						"details": "Transfers ownership of the contract to a new account (`newOwner`). Can only be called by the current owner."
					}
				},
				"version": 1
			},
			"evm": {
				"assembly": "    /* \"GenerateCode.sol\":2103:14661  contract KventureCode is Initializable, OwnableUpgradeable, PackageInfoStruct {... */\n  mstore(0x40, 0x80)\n    /* \"GenerateCode.sol\":2215:2226  usdtDecimal */\n  sload(0x66)\n    /* \"GenerateCode.sol\":2211:2226  1 * usdtDecimal */\n  tag_1\n  swap1\n    /* \"GenerateCode.sol\":2211:2212  1 */\n  0x01\n    /* \"GenerateCode.sol\":2211:2226  1 * usdtDecimal */\n  tag_2\n  jump\t// in\ntag_1:\n    /* \"GenerateCode.sol\":2187:2226  uint public rateBoost = 1 * usdtDecimal */\n  0x65\n  sstore\n    /* \"GenerateCode.sol\":2273:2280  10 ** 6 */\n  0x0f4240\n    /* \"GenerateCode.sol\":2244:2280  uint256 public usdtDecimal = 10 ** 6 */\n  0x66\n  dup2\n  swap1\n  sstore\n    /* \"GenerateCode.sol\":2321:2328  10 ** 2 */\n  0x64\n    /* \"GenerateCode.sol\":2286:2328  uint256 public boostSpeedDecimal = 10 ** 2 */\n  0x67\n  sstore\n    /* \"GenerateCode.sol\":2362:2378  usdtDecimal * 30 */\n  tag_3\n  swap1\n    /* \"GenerateCode.sol\":2376:2378  30 */\n  0x1e\n    /* \"GenerateCode.sol\":2362:2378  usdtDecimal * 30 */\n  tag_2\n  jump\t// in\ntag_3:\n    /* \"GenerateCode.sol\":2334:2378  uint256 public KCodePrice = usdtDecimal * 30 */\n  0x68\n  sstore\n    /* \"GenerateCode.sol\":2384:2412  uint32 public returnRIP = 10 */\n  0x69\n  dup1\n  sload\n  not(0xffffffff)\n  and\n    /* \"GenerateCode.sol\":2410:2412  10 */\n  0x0a\n    /* \"GenerateCode.sol\":2384:2412  uint32 public returnRIP = 10 */\n  or\n  swap1\n  sstore\n    /* \"GenerateCode.sol\":2103:14661  contract KventureCode is Initializable, OwnableUpgradeable, PackageInfoStruct {... */\n  jump(tag_7)\n    /* \"#utility.yul\":14:279   */\ntag_2:\n    /* \"#utility.yul\":87:96   */\n  dup1\n  dup3\n  mul\n    /* \"#utility.yul\":118:127   */\n  dup2\n  iszero\n    /* \"#utility.yul\":135:150   */\n  dup3\n  dup3\n  div\n    /* \"#utility.yul\":129:151   */\n  dup5\n  eq\n    /* \"#utility.yul\":115:152   */\n  or\n    /* \"#utility.yul\":105:273   */\n  tag_9\n  jumpi\n    /* \"#utility.yul\":195:205   */\n  0x4e487b71\n    /* \"#utility.yul\":190:193   */\n  0xe0\n    /* \"#utility.yul\":186:206   */\n  shl\n    /* \"#utility.yul\":183:184   */\n  0x00\n    /* \"#utility.yul\":176:207   */\n  mstore\n    /* \"#utility.yul\":230:234   */\n  0x11\n    /* \"#utility.yul\":227:228   */\n  0x04\n    /* \"#utility.yul\":220:235   */\n  mstore\n    /* \"#utility.yul\":258:262   */\n  0x24\n    /* \"#utility.yul\":255:256   */\n  0x00\n    /* \"#utility.yul\":248:263   */\n  revert\n    /* \"#utility.yul\":105:273   */\ntag_9:\n    /* \"#utility.yul\":14:279   */\n  swap3\n  swap2\n  pop\n  pop\n  jump\t// out\ntag_7:\n    /* \"GenerateCode.sol\":2103:14661  contract KventureCode is Initializable, OwnableUpgradeable, PackageInfoStruct {... */\n  dataSize(sub_0)\n  dup1\n  dataOffset(sub_0)\n  0x00\n  codecopy\n  0x00\n  return\nstop\n\nsub_0: assembly {\n        /* \"GenerateCode.sol\":2103:14661  contract KventureCode is Initializable, OwnableUpgradeable, PackageInfoStruct {... */\n      mstore(0x40, 0x80)\n      callvalue\n      dup1\n      iszero\n      tag_1\n      jumpi\n      0x00\n      dup1\n      revert\n    tag_1:\n      pop\n      jumpi(tag_2, lt(calldatasize, 0x04))\n      shr(0xe0, calldataload(0x00))\n      dup1\n      0x8fe39efd\n      gt\n      tag_35\n      jumpi\n      dup1\n      0xc01c36d0\n      gt\n      tag_36\n      jumpi\n      dup1\n      0xddcd6408\n      gt\n      tag_37\n      jumpi\n      dup1\n      0xddcd6408\n      eq\n      tag_31\n      jumpi\n      dup1\n      0xf2fde38b\n      eq\n      tag_32\n      jumpi\n      dup1\n      0xf4b7f343\n      eq\n      tag_33\n      jumpi\n      dup1\n      0xf8525b93\n      eq\n      tag_34\n      jumpi\n      0x00\n      dup1\n      revert\n    tag_37:\n      dup1\n      0xc01c36d0\n      eq\n      tag_27\n      jumpi\n      dup1\n      0xcb286f19\n      eq\n      tag_28\n      jumpi\n      dup1\n      0xcc2a9a5b\n      eq\n      tag_29\n      jumpi\n      dup1\n      0xdc30cbb4\n      eq\n      tag_30\n      jumpi\n      0x00\n      dup1\n      revert\n    tag_36:\n      dup1\n      0xb7182530\n      gt\n      tag_38\n      jumpi\n      dup1\n      0xb7182530\n      eq\n      tag_23\n      jumpi\n      dup1\n      0xb935948a\n      eq\n      tag_24\n      jumpi\n      dup1\n      0xbc65fee5\n      eq\n      tag_25\n      jumpi\n      dup1\n      0xbf9ce952\n      eq\n      tag_26\n      jumpi\n      0x00\n      dup1\n      revert\n    tag_38:\n      dup1\n      0x8fe39efd\n      eq\n      tag_19\n      jumpi\n      dup1\n      0xa429a513\n      eq\n      tag_20\n      jumpi\n      dup1\n      0xa559934e\n      eq\n      tag_21\n      jumpi\n      dup1\n      0xb22a9f9a\n      eq\n      tag_22\n      jumpi\n      0x00\n      dup1\n      revert\n    tag_35:\n      dup1\n      0x486f6afe\n      gt\n      tag_39\n      jumpi\n      dup1\n      0x8c4a876d\n      gt\n      tag_40\n      jumpi\n      dup1\n      0x8c4a876d\n      eq\n      tag_15\n      jumpi\n      dup1\n      0x8c7ab1d7\n      eq\n      tag_16\n      jumpi\n      dup1\n      0x8da5cb5b\n      eq\n      tag_17\n      jumpi\n      dup1\n      0x8ec09c97\n      eq\n      tag_18\n      jumpi\n      0x00\n      dup1\n      revert\n    tag_40:\n      dup1\n      0x486f6afe\n      eq\n      tag_11\n      jumpi\n      dup1\n      0x61b26f27\n      eq\n      tag_12\n      jumpi\n      dup1\n      0x715018a6\n      eq\n      tag_13\n      jumpi\n      dup1\n      0x78f25aee\n      eq\n      tag_14\n      jumpi\n      0x00\n      dup1\n      revert\n    tag_39:\n      dup1\n      0x362efc3d\n      gt\n      tag_41\n      jumpi\n      dup1\n      0x362efc3d\n      eq\n      tag_7\n      jumpi\n      dup1\n      0x395348dc\n      eq\n      tag_8\n      jumpi\n      dup1\n      0x435a3e50\n      eq\n      tag_9\n      jumpi\n      dup1\n      0x47ccca02\n      eq\n      tag_10\n      jumpi\n      0x00\n      dup1\n      revert\n    tag_41:\n      dup1\n      0x076d5556\n      eq\n      tag_3\n      jumpi\n      dup1\n      0x11f1374a\n      eq\n      tag_4\n      jumpi\n      dup1\n      0x2f48ab7d\n      eq\n      tag_5\n      jumpi\n      dup1\n      0x31ae322f\n      eq\n      tag_6\n      jumpi\n    tag_2:\n      0x00\n      dup1\n      revert\n        /* \"GenerateCode.sol\":2623:2647  uint public deployedDate */\n    tag_3:\n      tag_42\n      sload(0x6d)\n      dup2\n      jump\n    tag_42:\n      mload(0x40)\n        /* \"#utility.yul\":160:185   */\n      swap1\n      dup2\n      mstore\n        /* \"#utility.yul\":148:150   */\n      0x20\n        /* \"#utility.yul\":133:151   */\n      add\n        /* \"GenerateCode.sol\":2623:2647  uint public deployedDate */\n    tag_44:\n      mload(0x40)\n      dup1\n      swap2\n      sub\n      swap1\n      return\n        /* \"GenerateCode.sol\":2384:2412  uint32 public returnRIP = 10 */\n    tag_4:\n      sload(0x69)\n      tag_46\n      swap1\n      0xffffffff\n      and\n      dup2\n      jump\n    tag_46:\n      mload(0x40)\n        /* \"#utility.yul\":370:380   */\n      0xffffffff\n        /* \"#utility.yul\":358:381   */\n      swap1\n      swap2\n      and\n        /* \"#utility.yul\":340:382   */\n      dup2\n      mstore\n        /* \"#utility.yul\":328:330   */\n      0x20\n        /* \"#utility.yul\":313:331   */\n      add\n        /* \"GenerateCode.sol\":2384:2412  uint32 public returnRIP = 10 */\n      tag_44\n        /* \"#utility.yul\":196:388   */\n      jump\n        /* \"GenerateCode.sol\":2654:2673  address public usdt */\n    tag_5:\n      sload(0x6e)\n      tag_50\n      swap1\n      sub(shl(0xa0, 0x01), 0x01)\n      and\n      dup2\n      jump\n    tag_50:\n      mload(0x40)\n      sub(shl(0xa0, 0x01), 0x01)\n        /* \"#utility.yul\":666:698   */\n      swap1\n      swap2\n      and\n        /* \"#utility.yul\":648:699   */\n      dup2\n      mstore\n        /* \"#utility.yul\":636:638   */\n      0x20\n        /* \"#utility.yul\":621:639   */\n      add\n        /* \"GenerateCode.sol\":2654:2673  address public usdt */\n      tag_44\n        /* \"#utility.yul\":502:705   */\n      jump\n        /* \"GenerateCode.sol\":10718:11379  function BlockManyCode(... */\n    tag_6:\n      tag_54\n      tag_55\n      calldatasize\n      0x04\n      tag_56\n      jump\t// in\n    tag_55:\n      tag_57\n      jump\t// in\n    tag_54:\n      mload(0x40)\n      tag_44\n      swap2\n      swap1\n      tag_59\n      jump\t// in\n        /* \"GenerateCode.sol\":2244:2280  uint256 public usdtDecimal = 10 ** 6 */\n    tag_7:\n      tag_42\n      sload(0x66)\n      dup2\n      jump\n        /* \"GenerateCode.sol\":2187:2226  uint public rateBoost = 1 * usdtDecimal */\n    tag_8:\n      tag_42\n      sload(0x65)\n      dup2\n      jump\n        /* \"GenerateCode.sol\":2334:2378  uint256 public KCodePrice = usdtDecimal * 30 */\n    tag_9:\n      tag_42\n      sload(0x68)\n      dup2\n      jump\n        /* \"GenerateCode.sol\":2741:2759  address public nft */\n    tag_10:\n      sload(0x71)\n      tag_50\n      swap1\n      sub(shl(0xa0, 0x01), 0x01)\n      and\n      dup2\n      jump\n        /* \"GenerateCode.sol\":2679:2704  ICodePool public codePool */\n    tag_11:\n      sload(0x6f)\n      tag_50\n      swap1\n      sub(shl(0xa0, 0x01), 0x01)\n      and\n      dup2\n      jump\n        /* \"GenerateCode.sol\":11532:11677  function getCodeInfoSmC(... */\n    tag_12:\n      tag_76\n      tag_77\n      calldatasize\n      0x04\n      tag_78\n      jump\t// in\n    tag_77:\n      tag_79\n      jump\t// in\n    tag_76:\n      mload(0x40)\n      tag_44\n      swap2\n      swap1\n      tag_81\n      jump\t// in\n        /* \"@openzeppelin/contracts-upgradeable@v4.9.0/access/OwnableUpgradeable.sol\":2064:2165  function renounceOwnership() public virtual onlyOwner {... */\n    tag_13:\n      tag_82\n      tag_83\n      jump\t// in\n    tag_82:\n      stop\n        /* \"GenerateCode.sol\":12325:13426  function GetMyCode(uint32 _page) ... */\n    tag_14:\n      tag_84\n      tag_85\n      calldatasize\n      0x04\n      tag_86\n      jump\t// in\n    tag_85:\n      tag_87\n      jump\t// in\n    tag_84:\n      mload(0x40)\n      tag_44\n      swap3\n      swap2\n      swap1\n      tag_89\n      jump\t// in\n        /* \"GenerateCode.sol\":5775:6120  function CalculateCurrentRateBoost() public view returns (uint) {... */\n    tag_15:\n      tag_42\n      tag_91\n      jump\t// in\n        /* \"GenerateCode.sol\":2710:2735  address public masterPool */\n    tag_16:\n      sload(0x70)\n      tag_50\n      swap1\n      sub(shl(0xa0, 0x01), 0x01)\n      and\n      dup2\n      jump\n        /* \"@openzeppelin/contracts-upgradeable@v4.9.0/access/OwnableUpgradeable.sol\":1441:1526  function owner() public view virtual returns (address) {... */\n    tag_17:\n        /* \"@openzeppelin/contracts-upgradeable@v4.9.0/access/OwnableUpgradeable.sol\":1513:1519  _owner */\n      and(sub(shl(0xa0, 0x01), 0x01), sload(0x33))\n        /* \"@openzeppelin/contracts-upgradeable@v4.9.0/access/OwnableUpgradeable.sol\":1441:1526  function owner() public view virtual returns (address) {... */\n      jump(tag_50)\n        /* \"GenerateCode.sol\":6126:7627  function GenerateCode(... */\n    tag_18:\n      tag_99\n      tag_100\n      calldatasize\n      0x04\n      tag_101\n      jump\t// in\n    tag_100:\n      tag_102\n      jump\t// in\n    tag_99:\n      mload(0x40)\n      tag_44\n      swap2\n      swap1\n      tag_104\n      jump\t// in\n        /* \"GenerateCode.sol\":14550:14659  function GetTotalMyCode() external view returns(uint) {... */\n    tag_19:\n      tag_42\n      tag_106\n      jump\t// in\n        /* \"GenerateCode.sol\":7634:7978  function KGenerateCode(... */\n    tag_20:\n      tag_108\n      tag_109\n      calldatasize\n      0x04\n      tag_110\n      jump\t// in\n    tag_109:\n      tag_111\n      jump\t// in\n    tag_108:\n      mload(0x40)\n        /* \"#utility.yul\":8664:8678   */\n      swap1\n      iszero\n        /* \"#utility.yul\":8657:8679   */\n      iszero\n        /* \"#utility.yul\":8639:8680   */\n      dup2\n      mstore\n        /* \"#utility.yul\":8627:8629   */\n      0x20\n        /* \"#utility.yul\":8612:8630   */\n      add\n        /* \"GenerateCode.sol\":7634:7978  function KGenerateCode(... */\n      tag_44\n        /* \"#utility.yul\":8499:8686   */\n      jump\n        /* \"GenerateCode.sol\":4196:4300  function SetMasterPool(address _masterPool) external onlyOwner {... */\n    tag_21:\n      tag_82\n      tag_115\n      calldatasize\n      0x04\n      tag_116\n      jump\t// in\n    tag_115:\n      tag_117\n      jump\t// in\n        /* \"GenerateCode.sol\":2286:2328  uint256 public boostSpeedDecimal = 10 ** 2 */\n    tag_22:\n      tag_42\n      sload(0x67)\n      dup2\n      jump\n        /* \"GenerateCode.sol\":13432:14544  function GetUserCode(uint32 _page, address _user) ... */\n    tag_23:\n      tag_84\n      tag_122\n      calldatasize\n      0x04\n      tag_123\n      jump\t// in\n    tag_122:\n      tag_124\n      jump\t// in\n        /* \"GenerateCode.sol\":4402:4546  function SetCloudMiningThreshold(uint256 _cloudMiningThreshold) external onlyOwner {... */\n    tag_24:\n      tag_82\n      tag_127\n      calldatasize\n      0x04\n      tag_78\n      jump\t// in\n    tag_127:\n      tag_129\n      jump\t// in\n        /* \"GenerateCode.sol\":2531:2582  mapping(uint256 => uint256) public mValidMiningTime */\n    tag_25:\n      tag_42\n      tag_131\n      calldatasize\n      0x04\n      tag_78\n      jump\t// in\n    tag_131:\n      mstore(0x20, 0x6b)\n      0x00\n      swap1\n      dup2\n      mstore\n      0x40\n      swap1\n      keccak256\n      sload\n      dup2\n      jump\n        /* \"GenerateCode.sol\":2827:2849  address public product */\n    tag_26:\n      sload(0x73)\n      tag_50\n      swap1\n      sub(shl(0xa0, 0x01), 0x01)\n      and\n      dup2\n      jump\n        /* \"GenerateCode.sol\":2765:2788  address public kventure */\n    tag_27:\n      sload(0x72)\n      tag_50\n      swap1\n      sub(shl(0xa0, 0x01), 0x01)\n      and\n      dup2\n      jump\n        /* \"GenerateCode.sol\":2855:2895  mapping(uint => Product) public mIdToPro */\n    tag_28:\n      tag_140\n      tag_141\n      calldatasize\n      0x04\n      tag_78\n      jump\t// in\n    tag_141:\n      tag_142\n      jump\t// in\n    tag_140:\n      mload(0x40)\n      tag_44\n      swap7\n      swap6\n      swap5\n      swap4\n      swap3\n      swap2\n      swap1\n      tag_144\n      jump\t// in\n        /* \"GenerateCode.sol\":2932:3649  function initialize(... */\n    tag_29:\n      tag_82\n      tag_146\n      calldatasize\n      0x04\n      tag_147\n      jump\t// in\n    tag_146:\n      tag_148\n      jump\t// in\n        /* \"GenerateCode.sol\":4305:4397  function SetProduct(address _product) external onlyOwner {... */\n    tag_30:\n      tag_82\n      tag_150\n      calldatasize\n      0x04\n      tag_116\n      jump\t// in\n    tag_150:\n      tag_151\n      jump\t// in\n        /* \"GenerateCode.sol\":4110:4190  function SetUsdt(address _usdt) external onlyOwner {... */\n    tag_31:\n      tag_82\n      tag_153\n      calldatasize\n      0x04\n      tag_116\n      jump\t// in\n    tag_153:\n      tag_154\n      jump\t// in\n        /* \"@openzeppelin/contracts-upgradeable@v4.9.0/access/OwnableUpgradeable.sol\":2314:2512  function transferOwnership(address newOwner) public virtual onlyOwner {... */\n    tag_32:\n      tag_82\n      tag_156\n      calldatasize\n      0x04\n      tag_116\n      jump\t// in\n    tag_156:\n      tag_157\n      jump\t// in\n        /* \"GenerateCode.sol\":10046:10712  function UnblockManyCode(... */\n    tag_33:\n      tag_54\n      tag_159\n      calldatasize\n      0x04\n      tag_56\n      jump\t// in\n    tag_159:\n      tag_160\n      jump\t// in\n        /* \"GenerateCode.sol\":4028:4104  function SetNFT(address _nft) external onlyOwner {... */\n    tag_34:\n      tag_82\n      tag_163\n      calldatasize\n      0x04\n      tag_116\n      jump\t// in\n    tag_163:\n      tag_164\n      jump\t// in\n        /* \"GenerateCode.sol\":10718:11379  function BlockManyCode(... */\n    tag_57:\n        /* \"GenerateCode.sol\":10800:10813  bool[] memory */\n      0x60\n        /* \"GenerateCode.sol\":10825:10846  bool[] memory success */\n      0x00\n        /* \"GenerateCode.sol\":10860:10867  codeFEs */\n      dup3\n        /* \"GenerateCode.sol\":10849:10875  new bool[](codeFEs.length) */\n      0xffffffffffffffff\n      dup2\n      gt\n      iszero\n      tag_167\n      jumpi\n      tag_167\n      tag_168\n      jump\t// in\n    tag_167:\n      mload(0x40)\n      swap1\n      dup1\n      dup3\n      mstore\n      dup1\n      0x20\n      mul\n      0x20\n      add\n      dup3\n      add\n      0x40\n      mstore\n      dup1\n      iszero\n      tag_169\n      jumpi\n      dup2\n      0x20\n      add\n      0x20\n      dup3\n      mul\n      dup1\n      calldatasize\n      dup4\n      calldatacopy\n      add\n      swap1\n      pop\n    tag_169:\n      pop\n        /* \"GenerateCode.sol\":10825:10875  bool[] memory success = new bool[](codeFEs.length) */\n      swap1\n      pop\n        /* \"GenerateCode.sol\":10885:10901  bytes32 codeHash */\n      0x00\n      dup1\n        /* \"GenerateCode.sol\":10911:11349  for (uint8 index = 0; index < codeFEs.length; index++) {... */\n    tag_170:\n        /* \"GenerateCode.sol\":10933:10955  index < codeFEs.length */\n      0xff\n      dup2\n      and\n      dup6\n      gt\n        /* \"GenerateCode.sol\":10911:11349  for (uint8 index = 0; index < codeFEs.length; index++) {... */\n      iszero\n      tag_171\n      jumpi\n        /* \"GenerateCode.sol\":11018:11025  codeFEs */\n      dup6\n      dup6\n        /* \"GenerateCode.sol\":11026:11031  index */\n      dup3\n        /* \"GenerateCode.sol\":11018:11032  codeFEs[index] */\n      0xff\n      and\n      dup2\n      dup2\n      lt\n      tag_174\n      jumpi\n      tag_174\n      tag_175\n      jump\t// in\n    tag_174:\n      swap1\n      pop\n      0x20\n      mul\n      dup2\n      add\n      swap1\n      tag_176\n      swap2\n      swap1\n      tag_177\n      jump\t// in\n    tag_176:\n        /* \"GenerateCode.sol\":11001:11033  abi.encodePacked(codeFEs[index]) */\n      add(0x20, mload(0x40))\n      tag_178\n      swap3\n      swap2\n      swap1\n      tag_179\n      jump\t// in\n    tag_178:\n      0x40\n      dup1\n      mload\n      dup1\n      dup4\n      sub\n      not(0x1f)\n      add\n      dup2\n      mstore\n      swap2\n      dup2\n      mstore\n        /* \"GenerateCode.sol\":10991:11034  keccak256(abi.encodePacked(codeFEs[index])) */\n      dup2\n      mload\n        /* \"GenerateCode.sol\":11001:11033  abi.encodePacked(codeFEs[index]) */\n      0x20\n        /* \"GenerateCode.sol\":10991:11034  keccak256(abi.encodePacked(codeFEs[index])) */\n      swap3\n      dup4\n      add\n      keccak256\n        /* \"GenerateCode.sol\":11083:11105  mPackageInfo[codeHash] */\n      0x00\n      dup2\n      dup2\n      mstore\n        /* \"GenerateCode.sol\":11083:11095  mPackageInfo */\n      0x6a\n        /* \"GenerateCode.sol\":11083:11105  mPackageInfo[codeHash] */\n      swap1\n      swap4\n      mstore\n      swap2\n      keccak256\n        /* \"GenerateCode.sol\":11083:11111  mPackageInfo[codeHash].owner */\n      sload\n        /* \"GenerateCode.sol\":10991:11034  keccak256(abi.encodePacked(codeFEs[index])) */\n      swap1\n      swap3\n      pop\n      sub(shl(0xa0, 0x01), 0x01)\n        /* \"GenerateCode.sol\":11083:11111  mPackageInfo[codeHash].owner */\n      and\n        /* \"GenerateCode.sol\":11069:11079  msg.sender */\n      caller\n        /* \"GenerateCode.sol\":11069:11111  msg.sender != mPackageInfo[codeHash].owner */\n      eq\n      iszero\n      dup1\n        /* \"GenerateCode.sol\":11069:11183  msg.sender != mPackageInfo[codeHash].owner ||... */\n      tag_180\n      jumpi\n      pop\n        /* \"GenerateCode.sol\":11164:11183  PackageStatus.Block */\n      0x00\n        /* \"GenerateCode.sol\":11131:11153  mPackageInfo[codeHash] */\n      dup1\n      dup4\n      dup2\n      mstore\n        /* \"GenerateCode.sol\":11131:11143  mPackageInfo */\n      0x6a\n        /* \"GenerateCode.sol\":11131:11153  mPackageInfo[codeHash] */\n      0x20\n      mstore\n      0x40\n      swap1\n      keccak256\n        /* \"GenerateCode.sol\":11131:11160  mPackageInfo[codeHash].status */\n      0x07\n      add\n      sload\n      shl(0xa0, 0x01)\n      swap1\n      div\n      0xff\n      and\n        /* \"GenerateCode.sol\":11131:11183  mPackageInfo[codeHash].status == PackageStatus.Block */\n      0x03\n      dup2\n      gt\n      iszero\n      tag_185\n      jumpi\n      tag_185\n      tag_183\n      jump\t// in\n    tag_185:\n      eq\n        /* \"GenerateCode.sol\":11069:11183  msg.sender != mPackageInfo[codeHash].owner ||... */\n    tag_180:\n        /* \"GenerateCode.sol\":11216:11224  continue */\n      tag_172\n        /* \"GenerateCode.sol\":11048:11239  if (... */\n      jumpi\n        /* \"GenerateCode.sol\":11284:11303  PackageStatus.Block */\n      0x00\n        /* \"GenerateCode.sol\":11252:11274  mPackageInfo[codeHash] */\n      dup3\n      dup2\n      mstore\n        /* \"GenerateCode.sol\":11252:11264  mPackageInfo */\n      0x6a\n        /* \"GenerateCode.sol\":11252:11274  mPackageInfo[codeHash] */\n      0x20\n      mstore\n      0x40\n      swap1\n      keccak256\n        /* \"GenerateCode.sol\":11252:11281  mPackageInfo[codeHash].status */\n      0x07\n      add\n        /* \"GenerateCode.sol\":11252:11303  mPackageInfo[codeHash].status = PackageStatus.Block */\n      dup1\n      sload\n      not(shl(0xa0, 0xff))\n      and\n      swap1\n      sstore\n        /* \"GenerateCode.sol\":11317:11331  success[index] */\n      dup3\n      mload\n      0x01\n      swap1\n        /* \"GenerateCode.sol\":11317:11324  success */\n      dup5\n      swap1\n        /* \"GenerateCode.sol\":11317:11331  success[index] */\n      0xff\n      dup5\n      and\n      swap1\n      dup2\n      lt\n      tag_190\n      jumpi\n      tag_190\n      tag_175\n      jump\t// in\n    tag_190:\n        /* \"GenerateCode.sol\":11317:11338  success[index] = true */\n      swap2\n      iszero\n      iszero\n        /* \"GenerateCode.sol\":11317:11331  success[index] */\n      0x20\n      swap3\n      dup4\n      mul\n      swap2\n      swap1\n      swap2\n      add\n      swap1\n      swap2\n      add\n        /* \"GenerateCode.sol\":11317:11338  success[index] = true */\n      mstore\n        /* \"GenerateCode.sol\":10911:11349  for (uint8 index = 0; index < codeFEs.length; index++) {... */\n    tag_172:\n        /* \"GenerateCode.sol\":10957:10964  index++ */\n      dup1\n      tag_191\n      dup2\n      tag_192\n      jump\t// in\n    tag_191:\n      swap2\n      pop\n      pop\n        /* \"GenerateCode.sol\":10911:11349  for (uint8 index = 0; index < codeFEs.length; index++) {... */\n      jump(tag_170)\n    tag_171:\n      pop\n        /* \"GenerateCode.sol\":11365:11372  success */\n      swap1\n      swap2\n      pop\n      pop\n        /* \"GenerateCode.sol\":10718:11379  function BlockManyCode(... */\n    tag_165:\n      swap3\n      swap2\n      pop\n      pop\n      jump\t// out\n        /* \"GenerateCode.sol\":11532:11677  function getCodeInfoSmC(... */\n    tag_79:\n        /* \"GenerateCode.sol\":11611:11629  PackageInfo memory */\n      tag_193\n      tag_194\n      jump\t// in\n    tag_193:\n        /* \"GenerateCode.sol\":11648:11670  mPackageInfo[codeHash] */\n      0x00\n      dup3\n      dup2\n      mstore\n        /* \"GenerateCode.sol\":11648:11660  mPackageInfo */\n      0x6a\n        /* \"GenerateCode.sol\":11648:11670  mPackageInfo[codeHash] */\n      0x20\n      swap1\n      dup2\n      mstore\n      0x40\n      swap2\n      dup3\n      swap1\n      keccak256\n        /* \"GenerateCode.sol\":11641:11670  return mPackageInfo[codeHash] */\n      dup3\n      mload\n      0x01e0\n      dup2\n      add\n      dup5\n      mstore\n      dup2\n      sload\n      sub(shl(0xa0, 0x01), 0x01)\n      swap1\n      dup2\n      and\n      dup3\n      mstore\n      0x01\n      dup4\n      add\n      sload\n      swap4\n      dup3\n      add\n      swap4\n      swap1\n      swap4\n      mstore\n      0x02\n      dup3\n      add\n      sload\n      swap4\n      dup2\n      add\n      swap4\n      swap1\n      swap4\n      mstore\n      0x03\n      dup1\n      dup3\n      add\n      sload\n      0x60\n      dup6\n      add\n      mstore\n      0x04\n      dup3\n      add\n      sload\n      0x80\n      dup6\n      add\n      mstore\n      0x05\n      dup3\n      add\n      sload\n      0xa0\n      dup6\n      add\n      mstore\n      0x06\n      dup3\n      add\n      sload\n      0xc0\n      dup6\n      add\n      mstore\n      0x07\n      dup3\n      add\n      sload\n      swap3\n      dup4\n      and\n      0xe0\n      dup6\n      add\n      mstore\n        /* \"GenerateCode.sol\":11648:11670  mPackageInfo[codeHash] */\n      swap1\n      swap2\n        /* \"GenerateCode.sol\":11641:11670  return mPackageInfo[codeHash] */\n      0x0100\n      dup5\n      add\n      swap2\n      shl(0xa0, 0x01)\n      swap1\n      swap2\n      div\n      0xff\n      and\n      swap1\n      dup2\n      gt\n      iszero\n      tag_197\n      jumpi\n      tag_197\n      tag_183\n      jump\t// in\n    tag_197:\n      0x03\n      dup2\n      gt\n      iszero\n      tag_199\n      jumpi\n      tag_199\n      tag_183\n      jump\t// in\n    tag_199:\n      dup2\n      mstore\n      0x20\n      add\n      0x08\n      dup3\n      add\n      dup1\n      sload\n      tag_200\n      swap1\n      tag_201\n      jump\t// in\n    tag_200:\n      dup1\n      0x1f\n      add\n      0x20\n      dup1\n      swap2\n      div\n      mul\n      0x20\n      add\n      mload(0x40)\n      swap1\n      dup2\n      add\n      0x40\n      mstore\n      dup1\n      swap3\n      swap2\n      swap1\n      dup2\n      dup2\n      mstore\n      0x20\n      add\n      dup3\n      dup1\n      sload\n      tag_202\n      swap1\n      tag_201\n      jump\t// in\n    tag_202:\n      dup1\n      iszero\n      tag_203\n      jumpi\n      dup1\n      0x1f\n      lt\n      tag_204\n      jumpi\n      0x0100\n      dup1\n      dup4\n      sload\n      div\n      mul\n      dup4\n      mstore\n      swap2\n      0x20\n      add\n      swap2\n      jump(tag_203)\n    tag_204:\n      dup3\n      add\n      swap2\n      swap1\n      0x00\n      mstore\n      keccak256(0x00, 0x20)\n      swap1\n    tag_205:\n      dup2\n      sload\n      dup2\n      mstore\n      swap1\n      0x01\n      add\n      swap1\n      0x20\n      add\n      dup1\n      dup4\n      gt\n      tag_205\n      jumpi\n      dup3\n      swap1\n      sub\n      0x1f\n      and\n      dup3\n      add\n      swap2\n    tag_203:\n      pop\n      pop\n      pop\n      pop\n      pop\n      dup2\n      mstore\n      0x20\n      add\n      0x09\n      dup3\n      add\n      sload\n      dup2\n      mstore\n      0x20\n      add\n      0x0a\n      dup3\n      add\n      sload\n      dup2\n      mstore\n      0x20\n      add\n      0x0b\n      dup3\n      add\n      sload\n      dup2\n      mstore\n      0x20\n      add\n      0x0c\n      dup3\n      add\n      sload\n      dup2\n      mstore\n      0x20\n      add\n      0x0d\n      dup3\n      add\n      sload\n      dup2\n      mstore\n      pop\n      pop\n      swap1\n      pop\n        /* \"GenerateCode.sol\":11532:11677  function getCodeInfoSmC(... */\n      swap2\n      swap1\n      pop\n      jump\t// out\n        /* \"@openzeppelin/contracts-upgradeable@v4.9.0/access/OwnableUpgradeable.sol\":2064:2165  function renounceOwnership() public virtual onlyOwner {... */\n    tag_83:\n        /* \"@openzeppelin/contracts-upgradeable@v4.9.0/access/OwnableUpgradeable.sol\":1334:1347  _checkOwner() */\n      tag_207\n        /* \"@openzeppelin/contracts-upgradeable@v4.9.0/access/OwnableUpgradeable.sol\":1334:1345  _checkOwner */\n      tag_208\n        /* \"@openzeppelin/contracts-upgradeable@v4.9.0/access/OwnableUpgradeable.sol\":1334:1347  _checkOwner() */\n      jump\t// in\n    tag_207:\n        /* \"@openzeppelin/contracts-upgradeable@v4.9.0/access/OwnableUpgradeable.sol\":2128:2158  _transferOwnership(address(0)) */\n      tag_210\n        /* \"@openzeppelin/contracts-upgradeable@v4.9.0/access/OwnableUpgradeable.sol\":2155:2156  0 */\n      0x00\n        /* \"@openzeppelin/contracts-upgradeable@v4.9.0/access/OwnableUpgradeable.sol\":2128:2146  _transferOwnership */\n      tag_211\n        /* \"@openzeppelin/contracts-upgradeable@v4.9.0/access/OwnableUpgradeable.sol\":2128:2158  _transferOwnership(address(0)) */\n      jump\t// in\n    tag_210:\n        /* \"@openzeppelin/contracts-upgradeable@v4.9.0/access/OwnableUpgradeable.sol\":2064:2165  function renounceOwnership() public virtual onlyOwner {... */\n      jump\t// out\n        /* \"GenerateCode.sol\":12325:13426  function GetMyCode(uint32 _page) ... */\n    tag_87:\n        /* \"GenerateCode.sol\":12469:12472  nft */\n      sload(0x71)\n        /* \"GenerateCode.sol\":12464:12495  INFT(nft).balanceOf(msg.sender) */\n      mload(0x40)\n      shl(0xe0, 0x70a08231)\n      dup2\n      mstore\n        /* \"GenerateCode.sol\":12484:12494  msg.sender */\n      caller\n        /* \"GenerateCode.sol\":12464:12495  INFT(nft).balanceOf(msg.sender) */\n      0x04\n      dup3\n      add\n        /* \"#utility.yul\":648:699   */\n      mstore\n        /* \"GenerateCode.sol\":12395:12406  bool isMore */\n      0x00\n      swap2\n        /* \"GenerateCode.sol\":12408:12438  PackageInfo[] memory arrayPack */\n      0x60\n      swap2\n        /* \"GenerateCode.sol\":12395:12406  bool isMore */\n      dup4\n      swap2\n      sub(shl(0xa0, 0x01), 0x01)\n        /* \"GenerateCode.sol\":12469:12472  nft */\n      and\n      swap1\n        /* \"GenerateCode.sol\":12464:12483  INFT(nft).balanceOf */\n      0x70a08231\n      swap1\n        /* \"#utility.yul\":621:639   */\n      0x24\n      add\n        /* \"GenerateCode.sol\":12464:12495  INFT(nft).balanceOf(msg.sender) */\n      0x20\n      mload(0x40)\n      dup1\n      dup4\n      sub\n      dup2\n      dup7\n      gas\n      staticcall\n      iszero\n      dup1\n      iszero\n      tag_215\n      jumpi\n      returndatasize\n      0x00\n      dup1\n      returndatacopy\n      revert(0x00, returndatasize)\n    tag_215:\n      pop\n      pop\n      pop\n      pop\n      mload(0x40)\n      returndatasize\n      not(0x1f)\n      0x1f\n      dup3\n      add\n      and\n      dup3\n      add\n      dup1\n      0x40\n      mstore\n      pop\n      dup2\n      add\n      swap1\n      tag_216\n      swap2\n      swap1\n      tag_217\n      jump\t// in\n    tag_216:\n        /* \"GenerateCode.sol\":12538:12547  returnRIP */\n      sload(0x69)\n        /* \"GenerateCode.sol\":12450:12495  uint length = INFT(nft).balanceOf(msg.sender) */\n      swap1\n      swap2\n      pop\n        /* \"GenerateCode.sol\":12529:12547  length + returnRIP */\n      tag_218\n      swap1\n        /* \"GenerateCode.sol\":12538:12547  returnRIP */\n      0xffffffff\n      and\n        /* \"GenerateCode.sol\":12450:12495  uint length = INFT(nft).balanceOf(msg.sender) */\n      dup3\n        /* \"GenerateCode.sol\":12529:12547  length + returnRIP */\n      tag_219\n      jump\t// in\n    tag_218:\n        /* \"GenerateCode.sol\":12517:12526  returnRIP */\n      sload(0x69)\n        /* \"GenerateCode.sol\":12509:12526  _page * returnRIP */\n      tag_220\n      swap1\n        /* \"GenerateCode.sol\":12517:12526  returnRIP */\n      0xffffffff\n      and\n        /* \"GenerateCode.sol\":12509:12514  _page */\n      dup7\n        /* \"GenerateCode.sol\":12509:12526  _page * returnRIP */\n      tag_221\n      jump\t// in\n    tag_220:\n        /* \"GenerateCode.sol\":12509:12547  _page * returnRIP > length + returnRIP */\n      0xffffffff\n      and\n      gt\n        /* \"GenerateCode.sol\":12505:13420  if (_page * returnRIP > length + returnRIP) { ... */\n      iszero\n      tag_222\n      jumpi\n        /* \"GenerateCode.sol\":12571:12576  false */\n      0x00\n        /* \"GenerateCode.sol\":12564:12588  return(false, arrayPack) */\n      swap3\n      pop\n      pop\n        /* \"GenerateCode.sol\":12325:13426  function GetMyCode(uint32 _page) ... */\n      swap2\n      pop\n      swap2\n      jump\t// out\n        /* \"GenerateCode.sol\":12505:13420  if (_page * returnRIP > length + returnRIP) { ... */\n    tag_222:\n        /* \"GenerateCode.sol\":12629:12638  returnRIP */\n      sload(0x69)\n        /* \"GenerateCode.sol\":12641:12647  length */\n      dup2\n      swap1\n        /* \"GenerateCode.sol\":12623:12638  _page*returnRIP */\n      tag_224\n      swap1\n        /* \"GenerateCode.sol\":12629:12638  returnRIP */\n      0xffffffff\n      and\n        /* \"GenerateCode.sol\":12623:12628  _page */\n      dup7\n        /* \"GenerateCode.sol\":12623:12638  _page*returnRIP */\n      tag_221\n      jump\t// in\n    tag_224:\n        /* \"GenerateCode.sol\":12623:12647  _page*returnRIP < length */\n      0xffffffff\n      and\n      lt\n        /* \"GenerateCode.sol\":12619:13410  if (_page*returnRIP < length ) {... */\n      iszero\n      tag_225\n      jumpi\n        /* \"GenerateCode.sol\":12729:12738  returnRIP */\n      sload(0x69)\n        /* \"GenerateCode.sol\":12677:12681  true */\n      0x01\n      swap4\n      pop\n        /* \"GenerateCode.sol\":12729:12738  returnRIP */\n      0xffffffff\n      and\n        /* \"GenerateCode.sol\":12711:12739  new PackageInfo[](returnRIP) */\n      0xffffffffffffffff\n      dup2\n      gt\n      iszero\n      tag_227\n      jumpi\n      tag_227\n      tag_168\n      jump\t// in\n    tag_227:\n      mload(0x40)\n      swap1\n      dup1\n      dup3\n      mstore\n      dup1\n      0x20\n      mul\n      0x20\n      add\n      dup3\n      add\n      0x40\n      mstore\n      dup1\n      iszero\n      tag_228\n      jumpi\n      dup2\n      0x20\n      add\n    tag_229:\n      tag_230\n      tag_194\n      jump\t// in\n    tag_230:\n      dup2\n      mstore\n      0x20\n      add\n      swap1\n      0x01\n      swap1\n      sub\n      swap1\n      dup2\n      tag_229\n      jumpi\n      swap1\n      pop\n    tag_228:\n      pop\n        /* \"GenerateCode.sol\":12699:12739  arrayPack = new PackageInfo[](returnRIP) */\n      swap2\n      pop\n        /* \"GenerateCode.sol\":12762:12768  uint i */\n      0x00\n        /* \"GenerateCode.sol\":12757:12956  for (uint i = 0; i < arrayPack.length; i++) {... */\n    tag_231:\n        /* \"GenerateCode.sol\":12778:12787  arrayPack */\n      dup3\n        /* \"GenerateCode.sol\":12778:12794  arrayPack.length */\n      mload\n        /* \"GenerateCode.sol\":12774:12775  i */\n      dup2\n        /* \"GenerateCode.sol\":12774:12794  i < arrayPack.length */\n      lt\n        /* \"GenerateCode.sol\":12757:12956  for (uint i = 0; i < arrayPack.length; i++) {... */\n      iszero\n      tag_232\n      jumpi\n        /* \"GenerateCode.sol\":12868:12871  nft */\n      sload(0x71)\n        /* \"GenerateCode.sol\":12922:12931  returnRIP */\n      sload(0x69)\n        /* \"GenerateCode.sol\":12842:12854  mPackageInfo */\n      0x6a\n      swap2\n        /* \"GenerateCode.sol\":12842:12937  mPackageInfo[bytes32(INFT(nft).tokenOfOwnerByIndex(msg.sender,_page*returnRIP - returnRIP +i))] */\n      0x00\n      swap2\n      sub(shl(0xa0, 0x01), 0x01)\n        /* \"GenerateCode.sol\":12868:12871  nft */\n      swap1\n      swap2\n      and\n      swap1\n        /* \"GenerateCode.sol\":12863:12892  INFT(nft).tokenOfOwnerByIndex */\n      0x2f745c59\n      swap1\n        /* \"GenerateCode.sol\":12893:12903  msg.sender */\n      caller\n      swap1\n        /* \"GenerateCode.sol\":12933:12934  i */\n      dup7\n      swap1\n        /* \"GenerateCode.sol\":12922:12931  returnRIP */\n      0xffffffff\n      and\n        /* \"GenerateCode.sol\":12904:12919  _page*returnRIP */\n      tag_234\n        /* \"GenerateCode.sol\":12922:12931  returnRIP */\n      dup2\n        /* \"GenerateCode.sol\":12904:12909  _page */\n      dup14\n        /* \"GenerateCode.sol\":12904:12919  _page*returnRIP */\n      tag_221\n      jump\t// in\n    tag_234:\n        /* \"GenerateCode.sol\":12904:12931  _page*returnRIP - returnRIP */\n      tag_235\n      swap2\n      swap1\n      tag_236\n      jump\t// in\n    tag_235:\n        /* \"GenerateCode.sol\":12904:12934  _page*returnRIP - returnRIP +i */\n      0xffffffff\n      and\n      tag_237\n      swap2\n      swap1\n      tag_219\n      jump\t// in\n    tag_237:\n        /* \"GenerateCode.sol\":12863:12935  INFT(nft).tokenOfOwnerByIndex(msg.sender,_page*returnRIP - returnRIP +i) */\n      mload(0x40)\n      not(sub(shl(0xe0, 0x01), 0x01))\n      0xe0\n      dup6\n      swap1\n      shl\n      and\n      dup2\n      mstore\n      sub(shl(0xa0, 0x01), 0x01)\n        /* \"#utility.yul\":13287:13319   */\n      swap1\n      swap3\n      and\n        /* \"GenerateCode.sol\":12863:12935  INFT(nft).tokenOfOwnerByIndex(msg.sender,_page*returnRIP - returnRIP +i) */\n      0x04\n      dup4\n      add\n        /* \"#utility.yul\":13269:13320   */\n      mstore\n        /* \"#utility.yul\":13336:13354   */\n      0x24\n      dup3\n      add\n        /* \"#utility.yul\":13329:13363   */\n      mstore\n        /* \"#utility.yul\":13242:13260   */\n      0x44\n      add\n        /* \"GenerateCode.sol\":12863:12935  INFT(nft).tokenOfOwnerByIndex(msg.sender,_page*returnRIP - returnRIP +i) */\n      0x20\n      mload(0x40)\n      dup1\n      dup4\n      sub\n      dup2\n      dup7\n      gas\n      staticcall\n      iszero\n      dup1\n      iszero\n      tag_241\n      jumpi\n      returndatasize\n      0x00\n      dup1\n      returndatacopy\n      revert(0x00, returndatasize)\n    tag_241:\n      pop\n      pop\n      pop\n      pop\n      mload(0x40)\n      returndatasize\n      not(0x1f)\n      0x1f\n      dup3\n      add\n      and\n      dup3\n      add\n      dup1\n      0x40\n      mstore\n      pop\n      dup2\n      add\n      swap1\n      tag_242\n      swap2\n      swap1\n      tag_217\n      jump\t// in\n    tag_242:\n        /* \"GenerateCode.sol\":12842:12937  mPackageInfo[bytes32(INFT(nft).tokenOfOwnerByIndex(msg.sender,_page*returnRIP - returnRIP +i))] */\n      dup2\n      mstore\n      0x20\n      dup1\n      dup3\n      add\n      swap3\n      swap1\n      swap3\n      mstore\n      0x40\n      swap1\n      dup2\n      add\n      0x00\n      keccak256\n        /* \"GenerateCode.sol\":12827:12937  arrayPack[i] = mPackageInfo[bytes32(INFT(nft).tokenOfOwnerByIndex(msg.sender,_page*returnRIP - returnRIP +i))] */\n      dup2\n      mload\n      0x01e0\n      dup2\n      add\n      dup4\n      mstore\n      dup2\n      sload\n      sub(shl(0xa0, 0x01), 0x01)\n      swap1\n      dup2\n      and\n      dup3\n      mstore\n      0x01\n      dup4\n      add\n      sload\n      swap5\n      dup3\n      add\n      swap5\n      swap1\n      swap5\n      mstore\n      0x02\n      dup3\n      add\n      sload\n      swap3\n      dup2\n      add\n      swap3\n      swap1\n      swap3\n      mstore\n      0x03\n      dup1\n      dup3\n      add\n      sload\n      0x60\n      dup5\n      add\n      mstore\n      0x04\n      dup3\n      add\n      sload\n      0x80\n      dup5\n      add\n      mstore\n      0x05\n      dup3\n      add\n      sload\n      0xa0\n      dup5\n      add\n      mstore\n      0x06\n      dup3\n      add\n      sload\n      0xc0\n      dup5\n      add\n      mstore\n      0x07\n      dup3\n      add\n      sload\n      swap4\n      dup5\n      and\n      0xe0\n      dup5\n      add\n      mstore\n      swap2\n      swap3\n        /* \"GenerateCode.sol\":12842:12937  mPackageInfo[bytes32(INFT(nft).tokenOfOwnerByIndex(msg.sender,_page*returnRIP - returnRIP +i))] */\n      swap1\n      swap2\n        /* \"GenerateCode.sol\":12827:12937  arrayPack[i] = mPackageInfo[bytes32(INFT(nft).tokenOfOwnerByIndex(msg.sender,_page*returnRIP - returnRIP +i))] */\n      0x0100\n      dup5\n      add\n      swap2\n      shl(0xa0, 0x01)\n      swap1\n      div\n      0xff\n      and\n      swap1\n      dup2\n      gt\n      iszero\n      tag_244\n      jumpi\n      tag_244\n      tag_183\n      jump\t// in\n    tag_244:\n      0x03\n      dup2\n      gt\n      iszero\n      tag_246\n      jumpi\n      tag_246\n      tag_183\n      jump\t// in\n    tag_246:\n      dup2\n      mstore\n      0x20\n      add\n      0x08\n      dup3\n      add\n      dup1\n      sload\n      tag_247\n      swap1\n      tag_201\n      jump\t// in\n    tag_247:\n      dup1\n      0x1f\n      add\n      0x20\n      dup1\n      swap2\n      div\n      mul\n      0x20\n      add\n      mload(0x40)\n      swap1\n      dup2\n      add\n      0x40\n      mstore\n      dup1\n      swap3\n      swap2\n      swap1\n      dup2\n      dup2\n      mstore\n      0x20\n      add\n      dup3\n      dup1\n      sload\n      tag_248\n      swap1\n      tag_201\n      jump\t// in\n    tag_248:\n      dup1\n      iszero\n      tag_249\n      jumpi\n      dup1\n      0x1f\n      lt\n      tag_250\n      jumpi\n      0x0100\n      dup1\n      dup4\n      sload\n      div\n      mul\n      dup4\n      mstore\n      swap2\n      0x20\n      add\n      swap2\n      jump(tag_249)\n    tag_250:\n      dup3\n      add\n      swap2\n      swap1\n      0x00\n      mstore\n      keccak256(0x00, 0x20)\n      swap1\n    tag_251:\n      dup2\n      sload\n      dup2\n      mstore\n      swap1\n      0x01\n      add\n      swap1\n      0x20\n      add\n      dup1\n      dup4\n      gt\n      tag_251\n      jumpi\n      dup3\n      swap1\n      sub\n      0x1f\n      and\n      dup3\n      add\n      swap2\n    tag_249:\n      pop\n      pop\n      pop\n      pop\n      pop\n      dup2\n      mstore\n      0x20\n      add\n      0x09\n      dup3\n      add\n      sload\n      dup2\n      mstore\n      0x20\n      add\n      0x0a\n      dup3\n      add\n      sload\n      dup2\n      mstore\n      0x20\n      add\n      0x0b\n      dup3\n      add\n      sload\n      dup2\n      mstore\n      0x20\n      add\n      0x0c\n      dup3\n      add\n      sload\n      dup2\n      mstore\n      0x20\n      add\n      0x0d\n      dup3\n      add\n      sload\n      dup2\n      mstore\n      pop\n      pop\n        /* \"GenerateCode.sol\":12827:12836  arrayPack */\n      dup4\n        /* \"GenerateCode.sol\":12837:12838  i */\n      dup3\n        /* \"GenerateCode.sol\":12827:12839  arrayPack[i] */\n      dup2\n      mload\n      dup2\n      lt\n      tag_253\n      jumpi\n      tag_253\n      tag_175\n      jump\t// in\n    tag_253:\n      0x20\n      mul\n      0x20\n      add\n      add\n        /* \"GenerateCode.sol\":12827:12937  arrayPack[i] = mPackageInfo[bytes32(INFT(nft).tokenOfOwnerByIndex(msg.sender,_page*returnRIP - returnRIP +i))] */\n      dup2\n      swap1\n      mstore\n      pop\n        /* \"GenerateCode.sol\":12796:12799  i++ */\n      dup1\n      dup1\n      tag_254\n      swap1\n      tag_255\n      jump\t// in\n    tag_254:\n      swap2\n      pop\n      pop\n        /* \"GenerateCode.sol\":12757:12956  for (uint i = 0; i < arrayPack.length; i++) {... */\n      jump(tag_231)\n    tag_232:\n      pop\n        /* \"GenerateCode.sol\":12973:12999  return (isMore, arrayPack) */\n      pop\n        /* \"GenerateCode.sol\":12325:13426  function GetMyCode(uint32 _page) ... */\n      swap2\n      pop\n      swap2\n      jump\t// out\n        /* \"GenerateCode.sol\":12619:13410  if (_page*returnRIP < length ) {... */\n    tag_225:\n        /* \"GenerateCode.sol\":13118:13127  returnRIP */\n      sload(0x69)\n        /* \"GenerateCode.sol\":13047:13052  false */\n      0x00\n      swap4\n      pop\n        /* \"GenerateCode.sol\":13130:13136  length */\n      dup2\n      swap1\n        /* \"GenerateCode.sol\":13112:13127  _page*returnRIP */\n      tag_257\n      swap1\n        /* \"GenerateCode.sol\":13118:13127  returnRIP */\n      0xffffffff\n      and\n        /* \"GenerateCode.sol\":13112:13117  _page */\n      dup7\n        /* \"GenerateCode.sol\":13112:13127  _page*returnRIP */\n      tag_221\n      jump\t// in\n    tag_257:\n        /* \"GenerateCode.sol\":13112:13136  _page*returnRIP - length */\n      0xffffffff\n      and\n      tag_258\n      swap2\n      swap1\n      tag_259\n      jump\t// in\n    tag_258:\n        /* \"GenerateCode.sol\":13100:13109  returnRIP */\n      sload(0x69)\n        /* \"GenerateCode.sol\":13100:13137  returnRIP -(_page*returnRIP - length) */\n      tag_260\n      swap2\n      swap1\n        /* \"GenerateCode.sol\":13100:13109  returnRIP */\n      0xffffffff\n      and\n        /* \"GenerateCode.sol\":13100:13137  returnRIP -(_page*returnRIP - length) */\n      tag_259\n      jump\t// in\n    tag_260:\n        /* \"GenerateCode.sol\":13082:13138  new PackageInfo[](returnRIP -(_page*returnRIP - length)) */\n      0xffffffffffffffff\n      dup2\n      gt\n      iszero\n      tag_262\n      jumpi\n      tag_262\n      tag_168\n      jump\t// in\n    tag_262:\n      mload(0x40)\n      swap1\n      dup1\n      dup3\n      mstore\n      dup1\n      0x20\n      mul\n      0x20\n      add\n      dup3\n      add\n      0x40\n      mstore\n      dup1\n      iszero\n      tag_263\n      jumpi\n      dup2\n      0x20\n      add\n    tag_264:\n      tag_265\n      tag_194\n      jump\t// in\n    tag_265:\n      dup2\n      mstore\n      0x20\n      add\n      swap1\n      0x01\n      swap1\n      sub\n      swap1\n      dup2\n      tag_264\n      jumpi\n      swap1\n      pop\n    tag_263:\n      pop\n        /* \"GenerateCode.sol\":13070:13138  arrayPack = new PackageInfo[](returnRIP -(_page*returnRIP - length)) */\n      swap2\n      pop\n        /* \"GenerateCode.sol\":13162:13168  uint i */\n      0x00\n        /* \"GenerateCode.sol\":13157:13352  for (uint i = 0; i < arrayPack.length; i++) {... */\n    tag_266:\n        /* \"GenerateCode.sol\":13178:13187  arrayPack */\n      dup3\n        /* \"GenerateCode.sol\":13178:13194  arrayPack.length */\n      mload\n        /* \"GenerateCode.sol\":13174:13175  i */\n      dup2\n        /* \"GenerateCode.sol\":13174:13194  i < arrayPack.length */\n      lt\n        /* \"GenerateCode.sol\":13157:13352  for (uint i = 0; i < arrayPack.length; i++) {... */\n      iszero\n      tag_232\n      jumpi\n        /* \"GenerateCode.sol\":13264:13267  nft */\n      sload(0x71)\n        /* \"GenerateCode.sol\":13318:13327  returnRIP */\n      sload(0x69)\n        /* \"GenerateCode.sol\":13238:13250  mPackageInfo */\n      0x6a\n      swap2\n        /* \"GenerateCode.sol\":13238:13333  mPackageInfo[bytes32(INFT(nft).tokenOfOwnerByIndex(msg.sender,_page*returnRIP - returnRIP +i))] */\n      0x00\n      swap2\n      sub(shl(0xa0, 0x01), 0x01)\n        /* \"GenerateCode.sol\":13264:13267  nft */\n      swap1\n      swap2\n      and\n      swap1\n        /* \"GenerateCode.sol\":13259:13288  INFT(nft).tokenOfOwnerByIndex */\n      0x2f745c59\n      swap1\n        /* \"GenerateCode.sol\":13289:13299  msg.sender */\n      caller\n      swap1\n        /* \"GenerateCode.sol\":13329:13330  i */\n      dup7\n      swap1\n        /* \"GenerateCode.sol\":13318:13327  returnRIP */\n      0xffffffff\n      and\n        /* \"GenerateCode.sol\":13300:13315  _page*returnRIP */\n      tag_269\n        /* \"GenerateCode.sol\":13318:13327  returnRIP */\n      dup2\n        /* \"GenerateCode.sol\":13300:13305  _page */\n      dup14\n        /* \"GenerateCode.sol\":13300:13315  _page*returnRIP */\n      tag_221\n      jump\t// in\n    tag_269:\n        /* \"GenerateCode.sol\":13300:13327  _page*returnRIP - returnRIP */\n      tag_270\n      swap2\n      swap1\n      tag_236\n      jump\t// in\n    tag_270:\n        /* \"GenerateCode.sol\":13300:13330  _page*returnRIP - returnRIP +i */\n      0xffffffff\n      and\n      tag_271\n      swap2\n      swap1\n      tag_219\n      jump\t// in\n    tag_271:\n        /* \"GenerateCode.sol\":13259:13331  INFT(nft).tokenOfOwnerByIndex(msg.sender,_page*returnRIP - returnRIP +i) */\n      mload(0x40)\n      not(sub(shl(0xe0, 0x01), 0x01))\n      0xe0\n      dup6\n      swap1\n      shl\n      and\n      dup2\n      mstore\n      sub(shl(0xa0, 0x01), 0x01)\n        /* \"#utility.yul\":13287:13319   */\n      swap1\n      swap3\n      and\n        /* \"GenerateCode.sol\":13259:13331  INFT(nft).tokenOfOwnerByIndex(msg.sender,_page*returnRIP - returnRIP +i) */\n      0x04\n      dup4\n      add\n        /* \"#utility.yul\":13269:13320   */\n      mstore\n        /* \"#utility.yul\":13336:13354   */\n      0x24\n      dup3\n      add\n        /* \"#utility.yul\":13329:13363   */\n      mstore\n        /* \"#utility.yul\":13242:13260   */\n      0x44\n      add\n        /* \"GenerateCode.sol\":13259:13331  INFT(nft).tokenOfOwnerByIndex(msg.sender,_page*returnRIP - returnRIP +i) */\n      0x20\n      mload(0x40)\n      dup1\n      dup4\n      sub\n      dup2\n      dup7\n      gas\n      staticcall\n      iszero\n      dup1\n      iszero\n      tag_274\n      jumpi\n      returndatasize\n      0x00\n      dup1\n      returndatacopy\n      revert(0x00, returndatasize)\n    tag_274:\n      pop\n      pop\n      pop\n      pop\n      mload(0x40)\n      returndatasize\n      not(0x1f)\n      0x1f\n      dup3\n      add\n      and\n      dup3\n      add\n      dup1\n      0x40\n      mstore\n      pop\n      dup2\n      add\n      swap1\n      tag_275\n      swap2\n      swap1\n      tag_217\n      jump\t// in\n    tag_275:\n        /* \"GenerateCode.sol\":13238:13333  mPackageInfo[bytes32(INFT(nft).tokenOfOwnerByIndex(msg.sender,_page*returnRIP - returnRIP +i))] */\n      dup2\n      mstore\n      0x20\n      dup1\n      dup3\n      add\n      swap3\n      swap1\n      swap3\n      mstore\n      0x40\n      swap1\n      dup2\n      add\n      0x00\n      keccak256\n        /* \"GenerateCode.sol\":13223:13333  arrayPack[i] = mPackageInfo[bytes32(INFT(nft).tokenOfOwnerByIndex(msg.sender,_page*returnRIP - returnRIP +i))] */\n      dup2\n      mload\n      0x01e0\n      dup2\n      add\n      dup4\n      mstore\n      dup2\n      sload\n      sub(shl(0xa0, 0x01), 0x01)\n      swap1\n      dup2\n      and\n      dup3\n      mstore\n      0x01\n      dup4\n      add\n      sload\n      swap5\n      dup3\n      add\n      swap5\n      swap1\n      swap5\n      mstore\n      0x02\n      dup3\n      add\n      sload\n      swap3\n      dup2\n      add\n      swap3\n      swap1\n      swap3\n      mstore\n      0x03\n      dup1\n      dup3\n      add\n      sload\n      0x60\n      dup5\n      add\n      mstore\n      0x04\n      dup3\n      add\n      sload\n      0x80\n      dup5\n      add\n      mstore\n      0x05\n      dup3\n      add\n      sload\n      0xa0\n      dup5\n      add\n      mstore\n      0x06\n      dup3\n      add\n      sload\n      0xc0\n      dup5\n      add\n      mstore\n      0x07\n      dup3\n      add\n      sload\n      swap4\n      dup5\n      and\n      0xe0\n      dup5\n      add\n      mstore\n      swap2\n      swap3\n        /* \"GenerateCode.sol\":13238:13333  mPackageInfo[bytes32(INFT(nft).tokenOfOwnerByIndex(msg.sender,_page*returnRIP - returnRIP +i))] */\n      swap1\n      swap2\n        /* \"GenerateCode.sol\":13223:13333  arrayPack[i] = mPackageInfo[bytes32(INFT(nft).tokenOfOwnerByIndex(msg.sender,_page*returnRIP - returnRIP +i))] */\n      0x0100\n      dup5\n      add\n      swap2\n      shl(0xa0, 0x01)\n      swap1\n      div\n      0xff\n      and\n      swap1\n      dup2\n      gt\n      iszero\n      tag_277\n      jumpi\n      tag_277\n      tag_183\n      jump\t// in\n    tag_277:\n      0x03\n      dup2\n      gt\n      iszero\n      tag_279\n      jumpi\n      tag_279\n      tag_183\n      jump\t// in\n    tag_279:\n      dup2\n      mstore\n      0x20\n      add\n      0x08\n      dup3\n      add\n      dup1\n      sload\n      tag_280\n      swap1\n      tag_201\n      jump\t// in\n    tag_280:\n      dup1\n      0x1f\n      add\n      0x20\n      dup1\n      swap2\n      div\n      mul\n      0x20\n      add\n      mload(0x40)\n      swap1\n      dup2\n      add\n      0x40\n      mstore\n      dup1\n      swap3\n      swap2\n      swap1\n      dup2\n      dup2\n      mstore\n      0x20\n      add\n      dup3\n      dup1\n      sload\n      tag_281\n      swap1\n      tag_201\n      jump\t// in\n    tag_281:\n      dup1\n      iszero\n      tag_282\n      jumpi\n      dup1\n      0x1f\n      lt\n      tag_283\n      jumpi\n      0x0100\n      dup1\n      dup4\n      sload\n      div\n      mul\n      dup4\n      mstore\n      swap2\n      0x20\n      add\n      swap2\n      jump(tag_282)\n    tag_283:\n      dup3\n      add\n      swap2\n      swap1\n      0x00\n      mstore\n      keccak256(0x00, 0x20)\n      swap1\n    tag_284:\n      dup2\n      sload\n      dup2\n      mstore\n      swap1\n      0x01\n      add\n      swap1\n      0x20\n      add\n      dup1\n      dup4\n      gt\n      tag_284\n      jumpi\n      dup3\n      swap1\n      sub\n      0x1f\n      and\n      dup3\n      add\n      swap2\n    tag_282:\n      pop\n      pop\n      pop\n      pop\n      pop\n      dup2\n      mstore\n      0x20\n      add\n      0x09\n      dup3\n      add\n      sload\n      dup2\n      mstore\n      0x20\n      add\n      0x0a\n      dup3\n      add\n      sload\n      dup2\n      mstore\n      0x20\n      add\n      0x0b\n      dup3\n      add\n      sload\n      dup2\n      mstore\n      0x20\n      add\n      0x0c\n      dup3\n      add\n      sload\n      dup2\n      mstore\n      0x20\n      add\n      0x0d\n      dup3\n      add\n      sload\n      dup2\n      mstore\n      pop\n      pop\n        /* \"GenerateCode.sol\":13223:13232  arrayPack */\n      dup4\n        /* \"GenerateCode.sol\":13233:13234  i */\n      dup3\n        /* \"GenerateCode.sol\":13223:13235  arrayPack[i] */\n      dup2\n      mload\n      dup2\n      lt\n      tag_286\n      jumpi\n      tag_286\n      tag_175\n      jump\t// in\n    tag_286:\n      0x20\n      mul\n      0x20\n      add\n      add\n        /* \"GenerateCode.sol\":13223:13333  arrayPack[i] = mPackageInfo[bytes32(INFT(nft).tokenOfOwnerByIndex(msg.sender,_page*returnRIP - returnRIP +i))] */\n      dup2\n      swap1\n      mstore\n      pop\n        /* \"GenerateCode.sol\":13196:13199  i++ */\n      dup1\n      dup1\n      tag_287\n      swap1\n      tag_255\n      jump\t// in\n    tag_287:\n      swap2\n      pop\n      pop\n        /* \"GenerateCode.sol\":13157:13352  for (uint i = 0; i < arrayPack.length; i++) {... */\n      jump(tag_266)\n        /* \"GenerateCode.sol\":5775:6120  function CalculateCurrentRateBoost() public view returns (uint) {... */\n    tag_91:\n        /* \"GenerateCode.sol\":5833:5837  uint */\n      0x00\n        /* \"GenerateCode.sol\":5849:5873  uint256 currentRateBoost */\n      dup1\n        /* \"GenerateCode.sol\":5876:5885  rateBoost */\n      sload(0x65)\n        /* \"GenerateCode.sol\":5849:5885  uint256 currentRateBoost = rateBoost */\n      swap1\n      pop\n        /* \"GenerateCode.sol\":5895:5905  uint count */\n      0x00\n        /* \"GenerateCode.sol\":5943:5950  60 days */\n      0x4f1a00\n        /* \"GenerateCode.sol\":5927:5939  deployedDate */\n      sload(0x6d)\n        /* \"GenerateCode.sol\":5909:5924  block.timestamp */\n      timestamp\n        /* \"GenerateCode.sol\":5909:5939  block.timestamp - deployedDate */\n      tag_289\n      swap2\n      swap1\n      tag_259\n      jump\t// in\n    tag_289:\n        /* \"GenerateCode.sol\":5908:5950  (block.timestamp - deployedDate) / 60 days */\n      tag_290\n      swap2\n      swap1\n      tag_291\n      jump\t// in\n    tag_290:\n        /* \"GenerateCode.sol\":5895:5950  uint count = (block.timestamp - deployedDate) / 60 days */\n      swap1\n      pop\n        /* \"GenerateCode.sol\":5965:5977  uint16 index */\n      0x00\n        /* \"GenerateCode.sol\":5960:6081  for (uint16 index = 0; index < count; index++) {... */\n    tag_292:\n        /* \"GenerateCode.sol\":5991:5996  count */\n      dup2\n        /* \"GenerateCode.sol\":5983:5988  index */\n      dup2\n        /* \"GenerateCode.sol\":5983:5996  index < count */\n      0xffff\n      and\n      lt\n        /* \"GenerateCode.sol\":5960:6081  for (uint16 index = 0; index < count; index++) {... */\n      iszero\n      tag_293\n      jumpi\n        /* \"GenerateCode.sol\":6067:6070  100 */\n      0x64\n        /* \"GenerateCode.sol\":6041:6063  currentRateBoost * 125 */\n      tag_295\n        /* \"GenerateCode.sol\":6041:6057  currentRateBoost */\n      dup5\n        /* \"GenerateCode.sol\":6060:6063  125 */\n      0x7d\n        /* \"GenerateCode.sol\":6041:6063  currentRateBoost * 125 */\n      tag_296\n      jump\t// in\n    tag_295:\n        /* \"GenerateCode.sol\":6040:6070  (currentRateBoost * 125) / 100 */\n      tag_297\n      swap2\n      swap1\n      tag_291\n      jump\t// in\n    tag_297:\n        /* \"GenerateCode.sol\":6021:6070  currentRateBoost = (currentRateBoost * 125) / 100 */\n      swap3\n      pop\n        /* \"GenerateCode.sol\":5998:6005  index++ */\n      dup1\n      tag_298\n      dup2\n      tag_299\n      jump\t// in\n    tag_298:\n      swap2\n      pop\n      pop\n        /* \"GenerateCode.sol\":5960:6081  for (uint16 index = 0; index < count; index++) {... */\n      jump(tag_292)\n    tag_293:\n      pop\n        /* \"GenerateCode.sol\":6097:6113  currentRateBoost */\n      swap1\n      swap3\n        /* \"GenerateCode.sol\":5775:6120  function CalculateCurrentRateBoost() public view returns (uint) {... */\n      swap2\n      pop\n      pop\n      jump\t// out\n        /* \"GenerateCode.sol\":6126:7627  function GenerateCode(... */\n    tag_102:\n        /* \"GenerateCode.sol\":3971:3978  product */\n      sload(0x73)\n        /* \"GenerateCode.sol\":6393:6406  uint[] memory */\n      0x60\n      swap1\n      sub(shl(0xa0, 0x01), 0x01)\n        /* \"GenerateCode.sol\":3971:3978  product */\n      and\n        /* \"GenerateCode.sol\":3957:3967  msg.sender */\n      caller\n        /* \"GenerateCode.sol\":3957:3978  msg.sender == product */\n      eq\n        /* \"GenerateCode.sol\":3949:4005  require(msg.sender == product, \"Kventure: Only product\") */\n      tag_302\n      jumpi\n      mload(0x40)\n      shl(0xe5, 0x461bcd)\n      dup2\n      mstore\n        /* \"#utility.yul\":14446:14448   */\n      0x20\n        /* \"GenerateCode.sol\":3949:4005  require(msg.sender == product, \"Kventure: Only product\") */\n      0x04\n      dup3\n      add\n        /* \"#utility.yul\":14428:14449   */\n      mstore\n        /* \"#utility.yul\":14485:14487   */\n      0x16\n        /* \"#utility.yul\":14465:14483   */\n      0x24\n      dup3\n      add\n        /* \"#utility.yul\":14458:14488   */\n      mstore\n      shl(0x52, 0x12dd995b9d1d5c994e8813db9b1e481c1c9bd91d58dd)\n        /* \"#utility.yul\":14504:14522   */\n      0x44\n      dup3\n      add\n        /* \"#utility.yul\":14497:14549   */\n      mstore\n        /* \"#utility.yul\":14566:14584   */\n      0x64\n      add\n        /* \"GenerateCode.sol\":3949:4005  require(msg.sender == product, \"Kventure: Only product\") */\n    tag_303:\n      mload(0x40)\n      dup1\n      swap2\n      sub\n      swap1\n      revert\n    tag_302:\n        /* \"GenerateCode.sol\":6439:6468  codeHashes.length == quantity */\n      dup4\n      dup8\n      eq\n        /* \"GenerateCode.sol\":6439:6484  codeHashes.length == quantity && quantity > 0 */\n      dup1\n      iszero\n      tag_306\n      jumpi\n      pop\n        /* \"GenerateCode.sol\":6483:6484  0 */\n      0x00\n        /* \"GenerateCode.sol\":6472:6480  quantity */\n      dup8\n        /* \"GenerateCode.sol\":6472:6484  quantity > 0 */\n      gt\n        /* \"GenerateCode.sol\":6439:6484  codeHashes.length == quantity && quantity > 0 */\n    tag_306:\n        /* \"GenerateCode.sol\":6418:6578  require(... */\n      tag_307\n      jumpi\n      mload(0x40)\n      shl(0xe5, 0x461bcd)\n      dup2\n      mstore\n        /* \"#utility.yul\":14797:14799   */\n      0x20\n        /* \"GenerateCode.sol\":6418:6578  require(... */\n      0x04\n      dup3\n      add\n        /* \"#utility.yul\":14779:14800   */\n      mstore\n        /* \"#utility.yul\":14836:14838   */\n      0x44\n        /* \"#utility.yul\":14816:14834   */\n      0x24\n      dup3\n      add\n        /* \"#utility.yul\":14809:14839   */\n      dup2\n      swap1\n      mstore\n        /* \"#utility.yul\":14875:14909   */\n      0x4b76656e747572653a20436f64652048617368204e6f7420457175616c20546f\n        /* \"#utility.yul\":14855:14873   */\n      swap1\n      dup3\n      add\n        /* \"#utility.yul\":14848:14910   */\n      mstore\n        /* \"#utility.yul\":14946:14980   */\n      0x205175616e74697479206f72205175616e7469747920536d616c6c6572205468\n        /* \"#utility.yul\":14926:14944   */\n      0x64\n      dup3\n      add\n        /* \"#utility.yul\":14919:14981   */\n      mstore\n      shl(0xe0, 0x616e2031)\n        /* \"#utility.yul\":14997:15016   */\n      0x84\n      dup3\n      add\n        /* \"#utility.yul\":14990:15025   */\n      mstore\n        /* \"#utility.yul\":15042:15061   */\n      0xa4\n      add\n        /* \"GenerateCode.sol\":6418:6578  require(... */\n      tag_303\n        /* \"#utility.yul\":14595:15067   */\n      jump\n        /* \"GenerateCode.sol\":6418:6578  require(... */\n    tag_307:\n      sub(shl(0xa0, 0x01), 0x01)\n        /* \"GenerateCode.sol\":6656:6679  _delegate != address(0) */\n      dup3\n      and\n      iszero\n        /* \"GenerateCode.sol\":6652:7152  if (_delegate != address(0)) {... */\n      tag_310\n      jumpi\n        /* \"GenerateCode.sol\":6733:6753  cloudMiningThreshold */\n      sload(0x6c)\n        /* \"GenerateCode.sol\":6720:6729  planPrice */\n      dup9\n        /* \"GenerateCode.sol\":6720:6753  planPrice >= cloudMiningThreshold */\n      lt\n      iszero\n        /* \"GenerateCode.sol\":6695:6838  require(... */\n      tag_311\n      jumpi\n      mload(0x40)\n      shl(0xe5, 0x461bcd)\n      dup2\n      mstore\n        /* \"#utility.yul\":15274:15276   */\n      0x20\n        /* \"GenerateCode.sol\":6695:6838  require(... */\n      0x04\n      dup3\n      add\n        /* \"#utility.yul\":15256:15277   */\n      mstore\n        /* \"#utility.yul\":15313:15315   */\n      0x33\n        /* \"#utility.yul\":15293:15311   */\n      0x24\n      dup3\n      add\n        /* \"#utility.yul\":15286:15316   */\n      mstore\n        /* \"#utility.yul\":15352:15386   */\n      0x4b76656e747572653a20436c6f7564204d696e696e67204f6e6c7920466f7220\n        /* \"#utility.yul\":15332:15350   */\n      0x44\n      dup3\n      add\n        /* \"#utility.yul\":15325:15387   */\n      mstore\n      shl(0x6c, 0x05061636b6167652041626f766520243530303)\n        /* \"#utility.yul\":15403:15421   */\n      0x64\n      dup3\n      add\n        /* \"#utility.yul\":15396:15445   */\n      mstore\n        /* \"#utility.yul\":15462:15481   */\n      0x84\n      add\n        /* \"GenerateCode.sol\":6695:6838  require(... */\n      tag_303\n        /* \"#utility.yul\":15072:15487   */\n      jump\n        /* \"GenerateCode.sol\":6695:6838  require(... */\n    tag_311:\n        /* \"GenerateCode.sol\":6652:7152  if (_delegate != address(0)) {... */\n      jump(tag_315)\n    tag_310:\n      sub(shl(0xa0, 0x01), 0x01)\n        /* \"GenerateCode.sol\":7082:7105  _delegate == address(0) */\n      dup3\n      and\n      iszero\n        /* \"GenerateCode.sol\":7074:7141  require(_delegate == address(0), \"Kventure: Only for cloud mining\") */\n      tag_315\n      jumpi\n      mload(0x40)\n      shl(0xe5, 0x461bcd)\n      dup2\n      mstore\n        /* \"#utility.yul\":15694:15696   */\n      0x20\n        /* \"GenerateCode.sol\":7074:7141  require(_delegate == address(0), \"Kventure: Only for cloud mining\") */\n      0x04\n      dup3\n      add\n        /* \"#utility.yul\":15676:15697   */\n      mstore\n        /* \"#utility.yul\":15733:15735   */\n      0x1f\n        /* \"#utility.yul\":15713:15731   */\n      0x24\n      dup3\n      add\n        /* \"#utility.yul\":15706:15736   */\n      mstore\n        /* \"#utility.yul\":15772:15805   */\n      0x4b76656e747572653a204f6e6c7920666f7220636c6f7564206d696e696e6700\n        /* \"#utility.yul\":15752:15770   */\n      0x44\n      dup3\n      add\n        /* \"#utility.yul\":15745:15806   */\n      mstore\n        /* \"#utility.yul\":15823:15841   */\n      0x64\n      add\n        /* \"GenerateCode.sol\":7074:7141  require(_delegate == address(0), \"Kventure: Only for cloud mining\") */\n      tag_303\n        /* \"#utility.yul\":15492:15847   */\n      jump\n        /* \"GenerateCode.sol\":7074:7141  require(_delegate == address(0), \"Kventure: Only for cloud mining\") */\n    tag_315:\n        /* \"GenerateCode.sol\":7162:7183  uint currentRateBoost */\n      0x00\n        /* \"GenerateCode.sol\":7186:7213  CalculateCurrentRateBoost() */\n      tag_318\n        /* \"GenerateCode.sol\":7186:7211  CalculateCurrentRateBoost */\n      tag_91\n        /* \"GenerateCode.sol\":7186:7213  CalculateCurrentRateBoost() */\n      jump\t// in\n    tag_318:\n        /* \"GenerateCode.sol\":7162:7213  uint currentRateBoost = CalculateCurrentRateBoost() */\n      swap1\n      pop\n        /* \"GenerateCode.sol\":7223:7243  uint [] memory codes */\n      0x00\n        /* \"GenerateCode.sol\":7257:7265  quantity */\n      dup9\n        /* \"GenerateCode.sol\":7246:7266  new uint[](quantity) */\n      0xffffffffffffffff\n      dup2\n      gt\n      iszero\n      tag_320\n      jumpi\n      tag_320\n      tag_168\n      jump\t// in\n    tag_320:\n      mload(0x40)\n      swap1\n      dup1\n      dup3\n      mstore\n      dup1\n      0x20\n      mul\n      0x20\n      add\n      dup3\n      add\n      0x40\n      mstore\n      dup1\n      iszero\n      tag_321\n      jumpi\n      dup2\n      0x20\n      add\n      0x20\n      dup3\n      mul\n      dup1\n      calldatasize\n      dup4\n      calldatacopy\n      add\n      swap1\n      pop\n    tag_321:\n      pop\n        /* \"GenerateCode.sol\":7223:7266  uint [] memory codes = new uint[](quantity) */\n      swap1\n      pop\n        /* \"GenerateCode.sol\":7282:7288  uint i */\n      0x00\n        /* \"GenerateCode.sol\":7277:7598  for (uint i = 0; i < quantity; i++) {... */\n    tag_322:\n        /* \"GenerateCode.sol\":7298:7306  quantity */\n      dup10\n        /* \"GenerateCode.sol\":7294:7295  i */\n      dup2\n        /* \"GenerateCode.sol\":7294:7306  i < quantity */\n      lt\n        /* \"GenerateCode.sol\":7277:7598  for (uint i = 0; i < quantity; i++) {... */\n      iszero\n      tag_323\n      jumpi\n        /* \"GenerateCode.sol\":7327:7336  uint code */\n      0x00\n        /* \"GenerateCode.sol\":7339:7560  _generateCode(... */\n      tag_325\n        /* \"GenerateCode.sol\":7370:7375  buyer */\n      dup14\n        /* \"GenerateCode.sol\":7393:7403  codeHashes */\n      dup11\n      dup11\n        /* \"GenerateCode.sol\":7404:7405  i */\n      dup6\n        /* \"GenerateCode.sol\":7393:7406  codeHashes[i] */\n      dup2\n      dup2\n      lt\n      tag_327\n      jumpi\n      tag_327\n      tag_175\n      jump\t// in\n    tag_327:\n      swap1\n      pop\n      0x20\n      mul\n      add\n      calldataload\n        /* \"GenerateCode.sol\":7424:7428  lock */\n      dup13\n        /* \"GenerateCode.sol\":7446:7455  planPrice */\n      dup16\n        /* \"GenerateCode.sol\":7473:7489  currentRateBoost */\n      dup9\n        /* \"GenerateCode.sol\":7507:7519  _cloudMining */\n      dup13\n        /* \"GenerateCode.sol\":7537:7546  _delegate */\n      dup13\n        /* \"GenerateCode.sol\":7339:7352  _generateCode */\n      tag_328\n        /* \"GenerateCode.sol\":7339:7560  _generateCode(... */\n      jump\t// in\n    tag_325:\n        /* \"GenerateCode.sol\":7327:7560  uint code = _generateCode(... */\n      swap1\n      pop\n        /* \"GenerateCode.sol\":7583:7587  code */\n      dup1\n        /* \"GenerateCode.sol\":7574:7579  codes */\n      dup4\n        /* \"GenerateCode.sol\":7580:7581  i */\n      dup4\n        /* \"GenerateCode.sol\":7574:7582  codes[i] */\n      dup2\n      mload\n      dup2\n      lt\n      tag_330\n      jumpi\n      tag_330\n      tag_175\n      jump\t// in\n    tag_330:\n      0x20\n      swap1\n      dup2\n      mul\n      swap2\n      swap1\n      swap2\n      add\n      add\n        /* \"GenerateCode.sol\":7574:7587  codes[i]=code */\n      mstore\n      pop\n        /* \"GenerateCode.sol\":7308:7311  i++ */\n      dup1\n      tag_331\n      dup2\n      tag_255\n      jump\t// in\n    tag_331:\n      swap2\n      pop\n      pop\n        /* \"GenerateCode.sol\":7277:7598  for (uint i = 0; i < quantity; i++) {... */\n      jump(tag_322)\n    tag_323:\n      pop\n        /* \"GenerateCode.sol\":7615:7620  codes */\n      swap11\n        /* \"GenerateCode.sol\":6126:7627  function GenerateCode(... */\n      swap10\n      pop\n      pop\n      pop\n      pop\n      pop\n      pop\n      pop\n      pop\n      pop\n      pop\n      jump\t// out\n        /* \"GenerateCode.sol\":14550:14659  function GetTotalMyCode() external view returns(uint) {... */\n    tag_106:\n        /* \"GenerateCode.sol\":14626:14629  nft */\n      sload(0x71)\n        /* \"GenerateCode.sol\":14621:14652  INFT(nft).balanceOf(msg.sender) */\n      mload(0x40)\n      shl(0xe0, 0x70a08231)\n      dup2\n      mstore\n        /* \"GenerateCode.sol\":14641:14651  msg.sender */\n      caller\n        /* \"GenerateCode.sol\":14621:14652  INFT(nft).balanceOf(msg.sender) */\n      0x04\n      dup3\n      add\n        /* \"#utility.yul\":648:699   */\n      mstore\n        /* \"GenerateCode.sol\":14598:14602  uint */\n      0x00\n      swap2\n      sub(shl(0xa0, 0x01), 0x01)\n        /* \"GenerateCode.sol\":14626:14629  nft */\n      and\n      swap1\n        /* \"GenerateCode.sol\":14621:14640  INFT(nft).balanceOf */\n      0x70a08231\n      swap1\n        /* \"#utility.yul\":621:639   */\n      0x24\n      add\n        /* \"GenerateCode.sol\":14621:14652  INFT(nft).balanceOf(msg.sender) */\n      0x20\n      mload(0x40)\n      dup1\n      dup4\n      sub\n      dup2\n      dup7\n      gas\n      staticcall\n      iszero\n      dup1\n      iszero\n      tag_335\n      jumpi\n      returndatasize\n      0x00\n      dup1\n      returndatacopy\n      revert(0x00, returndatasize)\n    tag_335:\n      pop\n      pop\n      pop\n      pop\n      mload(0x40)\n      returndatasize\n      not(0x1f)\n      0x1f\n      dup3\n      add\n      and\n      dup3\n      add\n      dup1\n      0x40\n      mstore\n      pop\n      dup2\n      add\n      swap1\n      tag_336\n      swap2\n      swap1\n      tag_217\n      jump\t// in\n    tag_336:\n        /* \"GenerateCode.sol\":14614:14652  return INFT(nft).balanceOf(msg.sender) */\n      swap1\n      pop\n        /* \"GenerateCode.sol\":14550:14659  function GetTotalMyCode() external view returns(uint) {... */\n      swap1\n      jump\t// out\n        /* \"GenerateCode.sol\":7634:7978  function KGenerateCode(... */\n    tag_111:\n        /* \"GenerateCode.sol\":3852:3860  kventure */\n      sload(0x72)\n        /* \"GenerateCode.sol\":7743:7747  bool */\n      0x00\n      swap1\n      sub(shl(0xa0, 0x01), 0x01)\n        /* \"GenerateCode.sol\":3852:3860  kventure */\n      and\n        /* \"GenerateCode.sol\":3838:3848  msg.sender */\n      caller\n        /* \"GenerateCode.sol\":3838:3860  msg.sender == kventure */\n      eq\n        /* \"GenerateCode.sol\":3830:3888  require(msg.sender == kventure, \"Kventure: Only kventure\") */\n      tag_338\n      jumpi\n      mload(0x40)\n      shl(0xe5, 0x461bcd)\n      dup2\n      mstore\n        /* \"#utility.yul\":16054:16056   */\n      0x20\n        /* \"GenerateCode.sol\":3830:3888  require(msg.sender == kventure, \"Kventure: Only kventure\") */\n      0x04\n      dup3\n      add\n        /* \"#utility.yul\":16036:16057   */\n      mstore\n        /* \"#utility.yul\":16093:16095   */\n      0x17\n        /* \"#utility.yul\":16073:16091   */\n      0x24\n      dup3\n      add\n        /* \"#utility.yul\":16066:16096   */\n      mstore\n        /* \"#utility.yul\":16132:16157   */\n      0x4b76656e747572653a204f6e6c79206b76656e74757265000000000000000000\n        /* \"#utility.yul\":16112:16130   */\n      0x44\n      dup3\n      add\n        /* \"#utility.yul\":16105:16158   */\n      mstore\n        /* \"#utility.yul\":16175:16193   */\n      0x64\n      add\n        /* \"GenerateCode.sol\":3830:3888  require(msg.sender == kventure, \"Kventure: Only kventure\") */\n      tag_303\n        /* \"#utility.yul\":15852:16199   */\n      jump\n        /* \"GenerateCode.sol\":3830:3888  require(msg.sender == kventure, \"Kventure: Only kventure\") */\n    tag_338:\n        /* \"GenerateCode.sol\":7759:7950  _generateCode(... */\n      tag_342\n        /* \"GenerateCode.sol\":7786:7791  buyer */\n      dup4\n        /* \"GenerateCode.sol\":7805:7813  codeHash */\n      dup4\n        /* \"GenerateCode.sol\":7827:7832  false */\n      0x00\n        /* \"GenerateCode.sol\":7846:7856  KCodePrice */\n      sload(0x68)\n        /* \"GenerateCode.sol\":7870:7897  CalculateCurrentRateBoost() */\n      tag_343\n        /* \"GenerateCode.sol\":7870:7895  CalculateCurrentRateBoost */\n      tag_91\n        /* \"GenerateCode.sol\":7870:7897  CalculateCurrentRateBoost() */\n      jump\t// in\n    tag_343:\n        /* \"GenerateCode.sol\":7911:7916  false */\n      0x00\n        /* \"GenerateCode.sol\":7938:7939  0 */\n      dup1\n        /* \"GenerateCode.sol\":7759:7772  _generateCode */\n      tag_328\n        /* \"GenerateCode.sol\":7759:7950  _generateCode(... */\n      jump\t// in\n    tag_342:\n      pop\n        /* \"GenerateCode.sol\":7967:7971  true */\n      0x01\n      swap4\n        /* \"GenerateCode.sol\":7634:7978  function KGenerateCode(... */\n      swap3\n      pop\n      pop\n      pop\n      jump\t// out\n        /* \"GenerateCode.sol\":4196:4300  function SetMasterPool(address _masterPool) external onlyOwner {... */\n    tag_117:\n        /* \"@openzeppelin/contracts-upgradeable@v4.9.0/access/OwnableUpgradeable.sol\":1334:1347  _checkOwner() */\n      tag_345\n        /* \"@openzeppelin/contracts-upgradeable@v4.9.0/access/OwnableUpgradeable.sol\":1334:1345  _checkOwner */\n      tag_208\n        /* \"@openzeppelin/contracts-upgradeable@v4.9.0/access/OwnableUpgradeable.sol\":1334:1347  _checkOwner() */\n      jump\t// in\n    tag_345:\n        /* \"GenerateCode.sol\":4269:4279  masterPool */\n      0x70\n        /* \"GenerateCode.sol\":4269:4293  masterPool = _masterPool */\n      dup1\n      sload\n      not(sub(shl(0xa0, 0x01), 0x01))\n      and\n      sub(shl(0xa0, 0x01), 0x01)\n      swap3\n      swap1\n      swap3\n      and\n      swap2\n      swap1\n      swap2\n      or\n      swap1\n      sstore\n        /* \"GenerateCode.sol\":4196:4300  function SetMasterPool(address _masterPool) external onlyOwner {... */\n      jump\t// out\n        /* \"GenerateCode.sol\":13432:14544  function GetUserCode(uint32 _page, address _user) ... */\n    tag_124:\n        /* \"GenerateCode.sol\":13528:13539  bool isMore */\n      0x00\n        /* \"GenerateCode.sol\":13541:13571  PackageInfo[] memory arrayPack */\n      0x60\n        /* \"@openzeppelin/contracts-upgradeable@v4.9.0/access/OwnableUpgradeable.sol\":1334:1347  _checkOwner() */\n      tag_348\n        /* \"@openzeppelin/contracts-upgradeable@v4.9.0/access/OwnableUpgradeable.sol\":1334:1345  _checkOwner */\n      tag_208\n        /* \"@openzeppelin/contracts-upgradeable@v4.9.0/access/OwnableUpgradeable.sol\":1334:1347  _checkOwner() */\n      jump\t// in\n    tag_348:\n        /* \"GenerateCode.sol\":13602:13605  nft */\n      sload(0x71)\n        /* \"GenerateCode.sol\":13597:13623  INFT(nft).balanceOf(_user) */\n      mload(0x40)\n      shl(0xe0, 0x70a08231)\n      dup2\n      mstore\n      sub(shl(0xa0, 0x01), 0x01)\n        /* \"#utility.yul\":666:698   */\n      dup6\n      dup2\n      and\n        /* \"GenerateCode.sol\":13597:13623  INFT(nft).balanceOf(_user) */\n      0x04\n      dup4\n      add\n        /* \"#utility.yul\":648:699   */\n      mstore\n        /* \"GenerateCode.sol\":13583:13594  uint length */\n      0x00\n      swap3\n        /* \"GenerateCode.sol\":13602:13605  nft */\n      and\n      swap1\n        /* \"GenerateCode.sol\":13597:13616  INFT(nft).balanceOf */\n      0x70a08231\n      swap1\n        /* \"#utility.yul\":621:639   */\n      0x24\n      add\n        /* \"GenerateCode.sol\":13597:13623  INFT(nft).balanceOf(_user) */\n      0x20\n      mload(0x40)\n      dup1\n      dup4\n      sub\n      dup2\n      dup7\n      gas\n      staticcall\n      iszero\n      dup1\n      iszero\n      tag_352\n      jumpi\n      returndatasize\n      0x00\n      dup1\n      returndatacopy\n      revert(0x00, returndatasize)\n    tag_352:\n      pop\n      pop\n      pop\n      pop\n      mload(0x40)\n      returndatasize\n      not(0x1f)\n      0x1f\n      dup3\n      add\n      and\n      dup3\n      add\n      dup1\n      0x40\n      mstore\n      pop\n      dup2\n      add\n      swap1\n      tag_353\n      swap2\n      swap1\n      tag_217\n      jump\t// in\n    tag_353:\n        /* \"GenerateCode.sol\":13666:13675  returnRIP */\n      sload(0x69)\n        /* \"GenerateCode.sol\":13583:13623  uint length = INFT(nft).balanceOf(_user) */\n      swap1\n      swap2\n      pop\n        /* \"GenerateCode.sol\":13657:13675  length + returnRIP */\n      tag_354\n      swap1\n        /* \"GenerateCode.sol\":13666:13675  returnRIP */\n      0xffffffff\n      and\n        /* \"GenerateCode.sol\":13583:13623  uint length = INFT(nft).balanceOf(_user) */\n      dup3\n        /* \"GenerateCode.sol\":13657:13675  length + returnRIP */\n      tag_219\n      jump\t// in\n    tag_354:\n        /* \"GenerateCode.sol\":13645:13654  returnRIP */\n      sload(0x69)\n        /* \"GenerateCode.sol\":13637:13654  _page * returnRIP */\n      tag_355\n      swap1\n        /* \"GenerateCode.sol\":13645:13654  returnRIP */\n      0xffffffff\n      and\n        /* \"GenerateCode.sol\":13637:13642  _page */\n      dup8\n        /* \"GenerateCode.sol\":13637:13654  _page * returnRIP */\n      tag_221\n      jump\t// in\n    tag_355:\n        /* \"GenerateCode.sol\":13637:13675  _page * returnRIP > length + returnRIP */\n      0xffffffff\n      and\n      gt\n        /* \"GenerateCode.sol\":13633:14538  if (_page * returnRIP > length + returnRIP) { ... */\n      iszero\n      tag_356\n      jumpi\n        /* \"GenerateCode.sol\":13699:13704  false */\n      0x00\n        /* \"GenerateCode.sol\":13692:13716  return(false, arrayPack) */\n      swap3\n      pop\n      pop\n      jump(tag_349)\n        /* \"GenerateCode.sol\":13633:14538  if (_page * returnRIP > length + returnRIP) { ... */\n    tag_356:\n        /* \"GenerateCode.sol\":13757:13766  returnRIP */\n      sload(0x69)\n        /* \"GenerateCode.sol\":13769:13775  length */\n      dup2\n      swap1\n        /* \"GenerateCode.sol\":13751:13766  _page*returnRIP */\n      tag_358\n      swap1\n        /* \"GenerateCode.sol\":13757:13766  returnRIP */\n      0xffffffff\n      and\n        /* \"GenerateCode.sol\":13751:13756  _page */\n      dup8\n        /* \"GenerateCode.sol\":13751:13766  _page*returnRIP */\n      tag_221\n      jump\t// in\n    tag_358:\n        /* \"GenerateCode.sol\":13751:13775  _page*returnRIP < length */\n      0xffffffff\n      and\n      lt\n        /* \"GenerateCode.sol\":13747:14528  if (_page*returnRIP < length ) {... */\n      iszero\n      tag_359\n      jumpi\n        /* \"GenerateCode.sol\":13857:13866  returnRIP */\n      sload(0x69)\n        /* \"GenerateCode.sol\":13805:13809  true */\n      0x01\n      swap4\n      pop\n        /* \"GenerateCode.sol\":13857:13866  returnRIP */\n      0xffffffff\n      and\n        /* \"GenerateCode.sol\":13839:13867  new PackageInfo[](returnRIP) */\n      0xffffffffffffffff\n      dup2\n      gt\n      iszero\n      tag_361\n      jumpi\n      tag_361\n      tag_168\n      jump\t// in\n    tag_361:\n      mload(0x40)\n      swap1\n      dup1\n      dup3\n      mstore\n      dup1\n      0x20\n      mul\n      0x20\n      add\n      dup3\n      add\n      0x40\n      mstore\n      dup1\n      iszero\n      tag_362\n      jumpi\n      dup2\n      0x20\n      add\n    tag_363:\n      tag_364\n      tag_194\n      jump\t// in\n    tag_364:\n      dup2\n      mstore\n      0x20\n      add\n      swap1\n      0x01\n      swap1\n      sub\n      swap1\n      dup2\n      tag_363\n      jumpi\n      swap1\n      pop\n    tag_362:\n      pop\n        /* \"GenerateCode.sol\":13827:13867  arrayPack = new PackageInfo[](returnRIP) */\n      swap2\n      pop\n        /* \"GenerateCode.sol\":13890:13896  uint i */\n      0x00\n        /* \"GenerateCode.sol\":13885:14079  for (uint i = 0; i < arrayPack.length; i++) {... */\n    tag_365:\n        /* \"GenerateCode.sol\":13906:13915  arrayPack */\n      dup3\n        /* \"GenerateCode.sol\":13906:13922  arrayPack.length */\n      mload\n        /* \"GenerateCode.sol\":13902:13903  i */\n      dup2\n        /* \"GenerateCode.sol\":13902:13922  i < arrayPack.length */\n      lt\n        /* \"GenerateCode.sol\":13885:14079  for (uint i = 0; i < arrayPack.length; i++) {... */\n      iszero\n      tag_366\n      jumpi\n        /* \"GenerateCode.sol\":13996:13999  nft */\n      sload(0x71)\n        /* \"GenerateCode.sol\":14045:14054  returnRIP */\n      sload(0x69)\n        /* \"GenerateCode.sol\":13970:13982  mPackageInfo */\n      0x6a\n      swap2\n        /* \"GenerateCode.sol\":13970:14060  mPackageInfo[bytes32(INFT(nft).tokenOfOwnerByIndex(_user,_page*returnRIP - returnRIP +i))] */\n      0x00\n      swap2\n      sub(shl(0xa0, 0x01), 0x01)\n        /* \"GenerateCode.sol\":13996:13999  nft */\n      swap1\n      swap2\n      and\n      swap1\n        /* \"GenerateCode.sol\":13991:14020  INFT(nft).tokenOfOwnerByIndex */\n      0x2f745c59\n      swap1\n        /* \"GenerateCode.sol\":14021:14026  _user */\n      dup10\n      swap1\n        /* \"GenerateCode.sol\":14056:14057  i */\n      dup7\n      swap1\n        /* \"GenerateCode.sol\":14045:14054  returnRIP */\n      0xffffffff\n      and\n        /* \"GenerateCode.sol\":14027:14042  _page*returnRIP */\n      tag_368\n        /* \"GenerateCode.sol\":14045:14054  returnRIP */\n      dup2\n        /* \"GenerateCode.sol\":14027:14032  _page */\n      dup15\n        /* \"GenerateCode.sol\":14027:14042  _page*returnRIP */\n      tag_221\n      jump\t// in\n    tag_368:\n        /* \"GenerateCode.sol\":14027:14054  _page*returnRIP - returnRIP */\n      tag_369\n      swap2\n      swap1\n      tag_236\n      jump\t// in\n    tag_369:\n        /* \"GenerateCode.sol\":14027:14057  _page*returnRIP - returnRIP +i */\n      0xffffffff\n      and\n      tag_370\n      swap2\n      swap1\n      tag_219\n      jump\t// in\n    tag_370:\n        /* \"GenerateCode.sol\":13991:14058  INFT(nft).tokenOfOwnerByIndex(_user,_page*returnRIP - returnRIP +i) */\n      mload(0x40)\n      not(sub(shl(0xe0, 0x01), 0x01))\n      0xe0\n      dup6\n      swap1\n      shl\n      and\n      dup2\n      mstore\n      sub(shl(0xa0, 0x01), 0x01)\n        /* \"#utility.yul\":13287:13319   */\n      swap1\n      swap3\n      and\n        /* \"GenerateCode.sol\":13991:14058  INFT(nft).tokenOfOwnerByIndex(_user,_page*returnRIP - returnRIP +i) */\n      0x04\n      dup4\n      add\n        /* \"#utility.yul\":13269:13320   */\n      mstore\n        /* \"#utility.yul\":13336:13354   */\n      0x24\n      dup3\n      add\n        /* \"#utility.yul\":13329:13363   */\n      mstore\n        /* \"#utility.yul\":13242:13260   */\n      0x44\n      add\n        /* \"GenerateCode.sol\":13991:14058  INFT(nft).tokenOfOwnerByIndex(_user,_page*returnRIP - returnRIP +i) */\n      0x20\n      mload(0x40)\n      dup1\n      dup4\n      sub\n      dup2\n      dup7\n      gas\n      staticcall\n      iszero\n      dup1\n      iszero\n      tag_373\n      jumpi\n      returndatasize\n      0x00\n      dup1\n      returndatacopy\n      revert(0x00, returndatasize)\n    tag_373:\n      pop\n      pop\n      pop\n      pop\n      mload(0x40)\n      returndatasize\n      not(0x1f)\n      0x1f\n      dup3\n      add\n      and\n      dup3\n      add\n      dup1\n      0x40\n      mstore\n      pop\n      dup2\n      add\n      swap1\n      tag_374\n      swap2\n      swap1\n      tag_217\n      jump\t// in\n    tag_374:\n        /* \"GenerateCode.sol\":13970:14060  mPackageInfo[bytes32(INFT(nft).tokenOfOwnerByIndex(_user,_page*returnRIP - returnRIP +i))] */\n      dup2\n      mstore\n      0x20\n      dup1\n      dup3\n      add\n      swap3\n      swap1\n      swap3\n      mstore\n      0x40\n      swap1\n      dup2\n      add\n      0x00\n      keccak256\n        /* \"GenerateCode.sol\":13955:14060  arrayPack[i] = mPackageInfo[bytes32(INFT(nft).tokenOfOwnerByIndex(_user,_page*returnRIP - returnRIP +i))] */\n      dup2\n      mload\n      0x01e0\n      dup2\n      add\n      dup4\n      mstore\n      dup2\n      sload\n      sub(shl(0xa0, 0x01), 0x01)\n      swap1\n      dup2\n      and\n      dup3\n      mstore\n      0x01\n      dup4\n      add\n      sload\n      swap5\n      dup3\n      add\n      swap5\n      swap1\n      swap5\n      mstore\n      0x02\n      dup3\n      add\n      sload\n      swap3\n      dup2\n      add\n      swap3\n      swap1\n      swap3\n      mstore\n      0x03\n      dup1\n      dup3\n      add\n      sload\n      0x60\n      dup5\n      add\n      mstore\n      0x04\n      dup3\n      add\n      sload\n      0x80\n      dup5\n      add\n      mstore\n      0x05\n      dup3\n      add\n      sload\n      0xa0\n      dup5\n      add\n      mstore\n      0x06\n      dup3\n      add\n      sload\n      0xc0\n      dup5\n      add\n      mstore\n      0x07\n      dup3\n      add\n      sload\n      swap4\n      dup5\n      and\n      0xe0\n      dup5\n      add\n      mstore\n      swap2\n      swap3\n        /* \"GenerateCode.sol\":13970:14060  mPackageInfo[bytes32(INFT(nft).tokenOfOwnerByIndex(_user,_page*returnRIP - returnRIP +i))] */\n      swap1\n      swap2\n        /* \"GenerateCode.sol\":13955:14060  arrayPack[i] = mPackageInfo[bytes32(INFT(nft).tokenOfOwnerByIndex(_user,_page*returnRIP - returnRIP +i))] */\n      0x0100\n      dup5\n      add\n      swap2\n      shl(0xa0, 0x01)\n      swap1\n      div\n      0xff\n      and\n      swap1\n      dup2\n      gt\n      iszero\n      tag_376\n      jumpi\n      tag_376\n      tag_183\n      jump\t// in\n    tag_376:\n      0x03\n      dup2\n      gt\n      iszero\n      tag_378\n      jumpi\n      tag_378\n      tag_183\n      jump\t// in\n    tag_378:\n      dup2\n      mstore\n      0x20\n      add\n      0x08\n      dup3\n      add\n      dup1\n      sload\n      tag_379\n      swap1\n      tag_201\n      jump\t// in\n    tag_379:\n      dup1\n      0x1f\n      add\n      0x20\n      dup1\n      swap2\n      div\n      mul\n      0x20\n      add\n      mload(0x40)\n      swap1\n      dup2\n      add\n      0x40\n      mstore\n      dup1\n      swap3\n      swap2\n      swap1\n      dup2\n      dup2\n      mstore\n      0x20\n      add\n      dup3\n      dup1\n      sload\n      tag_380\n      swap1\n      tag_201\n      jump\t// in\n    tag_380:\n      dup1\n      iszero\n      tag_381\n      jumpi\n      dup1\n      0x1f\n      lt\n      tag_382\n      jumpi\n      0x0100\n      dup1\n      dup4\n      sload\n      div\n      mul\n      dup4\n      mstore\n      swap2\n      0x20\n      add\n      swap2\n      jump(tag_381)\n    tag_382:\n      dup3\n      add\n      swap2\n      swap1\n      0x00\n      mstore\n      keccak256(0x00, 0x20)\n      swap1\n    tag_383:\n      dup2\n      sload\n      dup2\n      mstore\n      swap1\n      0x01\n      add\n      swap1\n      0x20\n      add\n      dup1\n      dup4\n      gt\n      tag_383\n      jumpi\n      dup3\n      swap1\n      sub\n      0x1f\n      and\n      dup3\n      add\n      swap2\n    tag_381:\n      pop\n      pop\n      pop\n      pop\n      pop\n      dup2\n      mstore\n      0x20\n      add\n      0x09\n      dup3\n      add\n      sload\n      dup2\n      mstore\n      0x20\n      add\n      0x0a\n      dup3\n      add\n      sload\n      dup2\n      mstore\n      0x20\n      add\n      0x0b\n      dup3\n      add\n      sload\n      dup2\n      mstore\n      0x20\n      add\n      0x0c\n      dup3\n      add\n      sload\n      dup2\n      mstore\n      0x20\n      add\n      0x0d\n      dup3\n      add\n      sload\n      dup2\n      mstore\n      pop\n      pop\n        /* \"GenerateCode.sol\":13955:13964  arrayPack */\n      dup4\n        /* \"GenerateCode.sol\":13965:13966  i */\n      dup3\n        /* \"GenerateCode.sol\":13955:13967  arrayPack[i] */\n      dup2\n      mload\n      dup2\n      lt\n      tag_385\n      jumpi\n      tag_385\n      tag_175\n      jump\t// in\n    tag_385:\n      0x20\n      mul\n      0x20\n      add\n      add\n        /* \"GenerateCode.sol\":13955:14060  arrayPack[i] = mPackageInfo[bytes32(INFT(nft).tokenOfOwnerByIndex(_user,_page*returnRIP - returnRIP +i))] */\n      dup2\n      swap1\n      mstore\n      pop\n        /* \"GenerateCode.sol\":13924:13927  i++ */\n      dup1\n      dup1\n      tag_386\n      swap1\n      tag_255\n      jump\t// in\n    tag_386:\n      swap2\n      pop\n      pop\n        /* \"GenerateCode.sol\":13885:14079  for (uint i = 0; i < arrayPack.length; i++) {... */\n      jump(tag_365)\n    tag_366:\n      pop\n        /* \"GenerateCode.sol\":14096:14122  return (isMore, arrayPack) */\n      pop\n      jump(tag_349)\n        /* \"GenerateCode.sol\":13747:14528  if (_page*returnRIP < length ) {... */\n    tag_359:\n        /* \"GenerateCode.sol\":14241:14250  returnRIP */\n      sload(0x69)\n        /* \"GenerateCode.sol\":14170:14175  false */\n      0x00\n      swap4\n      pop\n        /* \"GenerateCode.sol\":14253:14259  length */\n      dup2\n      swap1\n        /* \"GenerateCode.sol\":14235:14250  _page*returnRIP */\n      tag_388\n      swap1\n        /* \"GenerateCode.sol\":14241:14250  returnRIP */\n      0xffffffff\n      and\n        /* \"GenerateCode.sol\":14235:14240  _page */\n      dup8\n        /* \"GenerateCode.sol\":14235:14250  _page*returnRIP */\n      tag_221\n      jump\t// in\n    tag_388:\n        /* \"GenerateCode.sol\":14235:14259  _page*returnRIP - length */\n      0xffffffff\n      and\n      tag_389\n      swap2\n      swap1\n      tag_259\n      jump\t// in\n    tag_389:\n        /* \"GenerateCode.sol\":14223:14232  returnRIP */\n      sload(0x69)\n        /* \"GenerateCode.sol\":14223:14260  returnRIP -(_page*returnRIP - length) */\n      tag_390\n      swap2\n      swap1\n        /* \"GenerateCode.sol\":14223:14232  returnRIP */\n      0xffffffff\n      and\n        /* \"GenerateCode.sol\":14223:14260  returnRIP -(_page*returnRIP - length) */\n      tag_259\n      jump\t// in\n    tag_390:\n        /* \"GenerateCode.sol\":14205:14261  new PackageInfo[](returnRIP -(_page*returnRIP - length)) */\n      0xffffffffffffffff\n      dup2\n      gt\n      iszero\n      tag_392\n      jumpi\n      tag_392\n      tag_168\n      jump\t// in\n    tag_392:\n      mload(0x40)\n      swap1\n      dup1\n      dup3\n      mstore\n      dup1\n      0x20\n      mul\n      0x20\n      add\n      dup3\n      add\n      0x40\n      mstore\n      dup1\n      iszero\n      tag_393\n      jumpi\n      dup2\n      0x20\n      add\n    tag_394:\n      tag_395\n      tag_194\n      jump\t// in\n    tag_395:\n      dup2\n      mstore\n      0x20\n      add\n      swap1\n      0x01\n      swap1\n      sub\n      swap1\n      dup2\n      tag_394\n      jumpi\n      swap1\n      pop\n    tag_393:\n      pop\n        /* \"GenerateCode.sol\":14193:14261  arrayPack = new PackageInfo[](returnRIP -(_page*returnRIP - length)) */\n      swap2\n      pop\n        /* \"GenerateCode.sol\":14285:14291  uint i */\n      0x00\n        /* \"GenerateCode.sol\":14280:14470  for (uint i = 0; i < arrayPack.length; i++) {... */\n    tag_396:\n        /* \"GenerateCode.sol\":14301:14310  arrayPack */\n      dup3\n        /* \"GenerateCode.sol\":14301:14317  arrayPack.length */\n      mload\n        /* \"GenerateCode.sol\":14297:14298  i */\n      dup2\n        /* \"GenerateCode.sol\":14297:14317  i < arrayPack.length */\n      lt\n        /* \"GenerateCode.sol\":14280:14470  for (uint i = 0; i < arrayPack.length; i++) {... */\n      iszero\n      tag_366\n      jumpi\n        /* \"GenerateCode.sol\":14387:14390  nft */\n      sload(0x71)\n        /* \"GenerateCode.sol\":14436:14445  returnRIP */\n      sload(0x69)\n        /* \"GenerateCode.sol\":14361:14373  mPackageInfo */\n      0x6a\n      swap2\n        /* \"GenerateCode.sol\":14361:14451  mPackageInfo[bytes32(INFT(nft).tokenOfOwnerByIndex(_user,_page*returnRIP - returnRIP +i))] */\n      0x00\n      swap2\n      sub(shl(0xa0, 0x01), 0x01)\n        /* \"GenerateCode.sol\":14387:14390  nft */\n      swap1\n      swap2\n      and\n      swap1\n        /* \"GenerateCode.sol\":14382:14411  INFT(nft).tokenOfOwnerByIndex */\n      0x2f745c59\n      swap1\n        /* \"GenerateCode.sol\":14412:14417  _user */\n      dup10\n      swap1\n        /* \"GenerateCode.sol\":14447:14448  i */\n      dup7\n      swap1\n        /* \"GenerateCode.sol\":14436:14445  returnRIP */\n      0xffffffff\n      and\n        /* \"GenerateCode.sol\":14418:14433  _page*returnRIP */\n      tag_399\n        /* \"GenerateCode.sol\":14436:14445  returnRIP */\n      dup2\n        /* \"GenerateCode.sol\":14418:14423  _page */\n      dup15\n        /* \"GenerateCode.sol\":14418:14433  _page*returnRIP */\n      tag_221\n      jump\t// in\n    tag_399:\n        /* \"GenerateCode.sol\":14418:14445  _page*returnRIP - returnRIP */\n      tag_400\n      swap2\n      swap1\n      tag_236\n      jump\t// in\n    tag_400:\n        /* \"GenerateCode.sol\":14418:14448  _page*returnRIP - returnRIP +i */\n      0xffffffff\n      and\n      tag_401\n      swap2\n      swap1\n      tag_219\n      jump\t// in\n    tag_401:\n        /* \"GenerateCode.sol\":14382:14449  INFT(nft).tokenOfOwnerByIndex(_user,_page*returnRIP - returnRIP +i) */\n      mload(0x40)\n      not(sub(shl(0xe0, 0x01), 0x01))\n      0xe0\n      dup6\n      swap1\n      shl\n      and\n      dup2\n      mstore\n      sub(shl(0xa0, 0x01), 0x01)\n        /* \"#utility.yul\":13287:13319   */\n      swap1\n      swap3\n      and\n        /* \"GenerateCode.sol\":14382:14449  INFT(nft).tokenOfOwnerByIndex(_user,_page*returnRIP - returnRIP +i) */\n      0x04\n      dup4\n      add\n        /* \"#utility.yul\":13269:13320   */\n      mstore\n        /* \"#utility.yul\":13336:13354   */\n      0x24\n      dup3\n      add\n        /* \"#utility.yul\":13329:13363   */\n      mstore\n        /* \"#utility.yul\":13242:13260   */\n      0x44\n      add\n        /* \"GenerateCode.sol\":14382:14449  INFT(nft).tokenOfOwnerByIndex(_user,_page*returnRIP - returnRIP +i) */\n      0x20\n      mload(0x40)\n      dup1\n      dup4\n      sub\n      dup2\n      dup7\n      gas\n      staticcall\n      iszero\n      dup1\n      iszero\n      tag_404\n      jumpi\n      returndatasize\n      0x00\n      dup1\n      returndatacopy\n      revert(0x00, returndatasize)\n    tag_404:\n      pop\n      pop\n      pop\n      pop\n      mload(0x40)\n      returndatasize\n      not(0x1f)\n      0x1f\n      dup3\n      add\n      and\n      dup3\n      add\n      dup1\n      0x40\n      mstore\n      pop\n      dup2\n      add\n      swap1\n      tag_405\n      swap2\n      swap1\n      tag_217\n      jump\t// in\n    tag_405:\n        /* \"GenerateCode.sol\":14361:14451  mPackageInfo[bytes32(INFT(nft).tokenOfOwnerByIndex(_user,_page*returnRIP - returnRIP +i))] */\n      dup2\n      mstore\n      0x20\n      dup1\n      dup3\n      add\n      swap3\n      swap1\n      swap3\n      mstore\n      0x40\n      swap1\n      dup2\n      add\n      0x00\n      keccak256\n        /* \"GenerateCode.sol\":14346:14451  arrayPack[i] = mPackageInfo[bytes32(INFT(nft).tokenOfOwnerByIndex(_user,_page*returnRIP - returnRIP +i))] */\n      dup2\n      mload\n      0x01e0\n      dup2\n      add\n      dup4\n      mstore\n      dup2\n      sload\n      sub(shl(0xa0, 0x01), 0x01)\n      swap1\n      dup2\n      and\n      dup3\n      mstore\n      0x01\n      dup4\n      add\n      sload\n      swap5\n      dup3\n      add\n      swap5\n      swap1\n      swap5\n      mstore\n      0x02\n      dup3\n      add\n      sload\n      swap3\n      dup2\n      add\n      swap3\n      swap1\n      swap3\n      mstore\n      0x03\n      dup1\n      dup3\n      add\n      sload\n      0x60\n      dup5\n      add\n      mstore\n      0x04\n      dup3\n      add\n      sload\n      0x80\n      dup5\n      add\n      mstore\n      0x05\n      dup3\n      add\n      sload\n      0xa0\n      dup5\n      add\n      mstore\n      0x06\n      dup3\n      add\n      sload\n      0xc0\n      dup5\n      add\n      mstore\n      0x07\n      dup3\n      add\n      sload\n      swap4\n      dup5\n      and\n      0xe0\n      dup5\n      add\n      mstore\n      swap2\n      swap3\n        /* \"GenerateCode.sol\":14361:14451  mPackageInfo[bytes32(INFT(nft).tokenOfOwnerByIndex(_user,_page*returnRIP - returnRIP +i))] */\n      swap1\n      swap2\n        /* \"GenerateCode.sol\":14346:14451  arrayPack[i] = mPackageInfo[bytes32(INFT(nft).tokenOfOwnerByIndex(_user,_page*returnRIP - returnRIP +i))] */\n      0x0100\n      dup5\n      add\n      swap2\n      shl(0xa0, 0x01)\n      swap1\n      div\n      0xff\n      and\n      swap1\n      dup2\n      gt\n      iszero\n      tag_407\n      jumpi\n      tag_407\n      tag_183\n      jump\t// in\n    tag_407:\n      0x03\n      dup2\n      gt\n      iszero\n      tag_409\n      jumpi\n      tag_409\n      tag_183\n      jump\t// in\n    tag_409:\n      dup2\n      mstore\n      0x20\n      add\n      0x08\n      dup3\n      add\n      dup1\n      sload\n      tag_410\n      swap1\n      tag_201\n      jump\t// in\n    tag_410:\n      dup1\n      0x1f\n      add\n      0x20\n      dup1\n      swap2\n      div\n      mul\n      0x20\n      add\n      mload(0x40)\n      swap1\n      dup2\n      add\n      0x40\n      mstore\n      dup1\n      swap3\n      swap2\n      swap1\n      dup2\n      dup2\n      mstore\n      0x20\n      add\n      dup3\n      dup1\n      sload\n      tag_411\n      swap1\n      tag_201\n      jump\t// in\n    tag_411:\n      dup1\n      iszero\n      tag_412\n      jumpi\n      dup1\n      0x1f\n      lt\n      tag_413\n      jumpi\n      0x0100\n      dup1\n      dup4\n      sload\n      div\n      mul\n      dup4\n      mstore\n      swap2\n      0x20\n      add\n      swap2\n      jump(tag_412)\n    tag_413:\n      dup3\n      add\n      swap2\n      swap1\n      0x00\n      mstore\n      keccak256(0x00, 0x20)\n      swap1\n    tag_414:\n      dup2\n      sload\n      dup2\n      mstore\n      swap1\n      0x01\n      add\n      swap1\n      0x20\n      add\n      dup1\n      dup4\n      gt\n      tag_414\n      jumpi\n      dup3\n      swap1\n      sub\n      0x1f\n      and\n      dup3\n      add\n      swap2\n    tag_412:\n      pop\n      pop\n      pop\n      pop\n      pop\n      dup2\n      mstore\n      0x20\n      add\n      0x09\n      dup3\n      add\n      sload\n      dup2\n      mstore\n      0x20\n      add\n      0x0a\n      dup3\n      add\n      sload\n      dup2\n      mstore\n      0x20\n      add\n      0x0b\n      dup3\n      add\n      sload\n      dup2\n      mstore\n      0x20\n      add\n      0x0c\n      dup3\n      add\n      sload\n      dup2\n      mstore\n      0x20\n      add\n      0x0d\n      dup3\n      add\n      sload\n      dup2\n      mstore\n      pop\n      pop\n        /* \"GenerateCode.sol\":14346:14355  arrayPack */\n      dup4\n        /* \"GenerateCode.sol\":14356:14357  i */\n      dup3\n        /* \"GenerateCode.sol\":14346:14358  arrayPack[i] */\n      dup2\n      mload\n      dup2\n      lt\n      tag_416\n      jumpi\n      tag_416\n      tag_175\n      jump\t// in\n    tag_416:\n      0x20\n      mul\n      0x20\n      add\n      add\n        /* \"GenerateCode.sol\":14346:14451  arrayPack[i] = mPackageInfo[bytes32(INFT(nft).tokenOfOwnerByIndex(_user,_page*returnRIP - returnRIP +i))] */\n      dup2\n      swap1\n      mstore\n      pop\n        /* \"GenerateCode.sol\":14319:14322  i++ */\n      dup1\n      dup1\n      tag_417\n      swap1\n      tag_255\n      jump\t// in\n    tag_417:\n      swap2\n      pop\n      pop\n        /* \"GenerateCode.sol\":14280:14470  for (uint i = 0; i < arrayPack.length; i++) {... */\n      jump(tag_396)\n        /* \"@openzeppelin/contracts-upgradeable@v4.9.0/access/OwnableUpgradeable.sol\":1357:1358  _ */\n    tag_349:\n        /* \"GenerateCode.sol\":13432:14544  function GetUserCode(uint32 _page, address _user) ... */\n      swap3\n      pop\n      swap3\n      swap1\n      pop\n      jump\t// out\n        /* \"GenerateCode.sol\":4402:4546  function SetCloudMiningThreshold(uint256 _cloudMiningThreshold) external onlyOwner {... */\n    tag_129:\n        /* \"@openzeppelin/contracts-upgradeable@v4.9.0/access/OwnableUpgradeable.sol\":1334:1347  _checkOwner() */\n      tag_419\n        /* \"@openzeppelin/contracts-upgradeable@v4.9.0/access/OwnableUpgradeable.sol\":1334:1345  _checkOwner */\n      tag_208\n        /* \"@openzeppelin/contracts-upgradeable@v4.9.0/access/OwnableUpgradeable.sol\":1334:1347  _checkOwner() */\n      jump\t// in\n    tag_419:\n        /* \"GenerateCode.sol\":4495:4515  cloudMiningThreshold */\n      0x6c\n        /* \"GenerateCode.sol\":4495:4539  cloudMiningThreshold = _cloudMiningThreshold */\n      sstore\n        /* \"GenerateCode.sol\":4402:4546  function SetCloudMiningThreshold(uint256 _cloudMiningThreshold) external onlyOwner {... */\n      jump\t// out\n        /* \"GenerateCode.sol\":2855:2895  mapping(uint => Product) public mIdToPro */\n    tag_142:\n      mstore(0x20, 0x74)\n      0x00\n      swap1\n      dup2\n      mstore\n      0x40\n      swap1\n      keccak256\n      dup1\n      sload\n      0x01\n      dup3\n      add\n      dup1\n      sload\n      swap2\n      swap3\n      swap2\n      tag_421\n      swap1\n      tag_201\n      jump\t// in\n    tag_421:\n      dup1\n      0x1f\n      add\n      0x20\n      dup1\n      swap2\n      div\n      mul\n      0x20\n      add\n      mload(0x40)\n      swap1\n      dup2\n      add\n      0x40\n      mstore\n      dup1\n      swap3\n      swap2\n      swap1\n      dup2\n      dup2\n      mstore\n      0x20\n      add\n      dup3\n      dup1\n      sload\n      tag_422\n      swap1\n      tag_201\n      jump\t// in\n    tag_422:\n      dup1\n      iszero\n      tag_423\n      jumpi\n      dup1\n      0x1f\n      lt\n      tag_424\n      jumpi\n      0x0100\n      dup1\n      dup4\n      sload\n      div\n      mul\n      dup4\n      mstore\n      swap2\n      0x20\n      add\n      swap2\n      jump(tag_423)\n    tag_424:\n      dup3\n      add\n      swap2\n      swap1\n      0x00\n      mstore\n      keccak256(0x00, 0x20)\n      swap1\n    tag_425:\n      dup2\n      sload\n      dup2\n      mstore\n      swap1\n      0x01\n      add\n      swap1\n      0x20\n      add\n      dup1\n      dup4\n      gt\n      tag_425\n      jumpi\n      dup3\n      swap1\n      sub\n      0x1f\n      and\n      dup3\n      add\n      swap2\n    tag_423:\n      pop\n      pop\n      pop\n      pop\n      pop\n      swap1\n      dup1\n      0x02\n      add\n      sload\n      swap1\n      dup1\n      0x03\n      add\n      sload\n      swap1\n      dup1\n      0x04\n      add\n      dup1\n      sload\n      tag_426\n      swap1\n      tag_201\n      jump\t// in\n    tag_426:\n      dup1\n      0x1f\n      add\n      0x20\n      dup1\n      swap2\n      div\n      mul\n      0x20\n      add\n      mload(0x40)\n      swap1\n      dup2\n      add\n      0x40\n      mstore\n      dup1\n      swap3\n      swap2\n      swap1\n      dup2\n      dup2\n      mstore\n      0x20\n      add\n      dup3\n      dup1\n      sload\n      tag_427\n      swap1\n      tag_201\n      jump\t// in\n    tag_427:\n      dup1\n      iszero\n      tag_428\n      jumpi\n      dup1\n      0x1f\n      lt\n      tag_429\n      jumpi\n      0x0100\n      dup1\n      dup4\n      sload\n      div\n      mul\n      dup4\n      mstore\n      swap2\n      0x20\n      add\n      swap2\n      jump(tag_428)\n    tag_429:\n      dup3\n      add\n      swap2\n      swap1\n      0x00\n      mstore\n      keccak256(0x00, 0x20)\n      swap1\n    tag_430:\n      dup2\n      sload\n      dup2\n      mstore\n      swap1\n      0x01\n      add\n      swap1\n      0x20\n      add\n      dup1\n      dup4\n      gt\n      tag_430\n      jumpi\n      dup3\n      swap1\n      sub\n      0x1f\n      and\n      dup3\n      add\n      swap2\n    tag_428:\n      pop\n      pop\n      pop\n      0x05\n      swap1\n      swap4\n      add\n      sload\n      swap2\n      swap3\n      pop\n      pop\n      0xff\n      and\n      dup7\n      jump\t// out\n        /* \"GenerateCode.sol\":2932:3649  function initialize(... */\n    tag_148:\n        /* \"@openzeppelin/contracts-upgradeable@v4.9.0/proxy/utils/Initializable.sol\":3279:3298  bool isTopLevelCall */\n      0x00\n        /* \"@openzeppelin/contracts-upgradeable@v4.9.0/proxy/utils/Initializable.sol\":3302:3315  _initializing */\n      sload\n      0x0100\n      swap1\n      div\n      0xff\n      and\n        /* \"@openzeppelin/contracts-upgradeable@v4.9.0/proxy/utils/Initializable.sol\":3301:3315  !_initializing */\n      iszero\n      dup1\n        /* \"@openzeppelin/contracts-upgradeable@v4.9.0/proxy/utils/Initializable.sol\":3347:3381  isTopLevelCall && _initialized < 1 */\n      dup1\n      iszero\n      tag_432\n      jumpi\n      pop\n        /* \"@openzeppelin/contracts-upgradeable@v4.9.0/proxy/utils/Initializable.sol\":3365:3377  _initialized */\n      sload(0x00)\n        /* \"@openzeppelin/contracts-upgradeable@v4.9.0/proxy/utils/Initializable.sol\":3380:3381  1 */\n      0x01\n        /* \"@openzeppelin/contracts-upgradeable@v4.9.0/proxy/utils/Initializable.sol\":3365:3377  _initialized */\n      0xff\n      swap1\n      swap2\n      and\n        /* \"@openzeppelin/contracts-upgradeable@v4.9.0/proxy/utils/Initializable.sol\":3365:3381  _initialized < 1 */\n      lt\n        /* \"@openzeppelin/contracts-upgradeable@v4.9.0/proxy/utils/Initializable.sol\":3347:3381  isTopLevelCall && _initialized < 1 */\n    tag_432:\n        /* \"@openzeppelin/contracts-upgradeable@v4.9.0/proxy/utils/Initializable.sol\":3346:3454  (isTopLevelCall && _initialized < 1) || (!AddressUpgradeable.isContract(address(this)) && _initialized == 1) */\n      dup1\n      tag_436\n      jumpi\n      pop\n        /* \"@openzeppelin/contracts-upgradeable@v4.9.0/proxy/utils/Initializable.sol\":3426:3430  this */\n      address\n        /* \"@openzeppelin/contracts-upgradeable@v4.9.0/utils/AddressUpgradeable.sol\":1713:1732  account.code.length */\n      extcodesize\n        /* \"@openzeppelin/contracts-upgradeable@v4.9.0/utils/AddressUpgradeable.sol\":1713:1736  account.code.length > 0 */\n      iszero\n      dup1\n      iszero\n        /* \"@openzeppelin/contracts-upgradeable@v4.9.0/proxy/utils/Initializable.sol\":3387:3453  !AddressUpgradeable.isContract(address(this)) && _initialized == 1 */\n      tag_436\n      jumpi\n      pop\n        /* \"@openzeppelin/contracts-upgradeable@v4.9.0/proxy/utils/Initializable.sol\":3436:3448  _initialized */\n      and(0xff, sload(0x00))\n      0x01\n        /* \"@openzeppelin/contracts-upgradeable@v4.9.0/proxy/utils/Initializable.sol\":3436:3453  _initialized == 1 */\n      eq\n        /* \"@openzeppelin/contracts-upgradeable@v4.9.0/proxy/utils/Initializable.sol\":3387:3453  !AddressUpgradeable.isContract(address(this)) && _initialized == 1 */\n    tag_436:\n        /* \"@openzeppelin/contracts-upgradeable@v4.9.0/proxy/utils/Initializable.sol\":3325:3526  require(... */\n      tag_437\n      jumpi\n      mload(0x40)\n      shl(0xe5, 0x461bcd)\n      dup2\n      mstore\n        /* \"#utility.yul\":16406:16408   */\n      0x20\n        /* \"@openzeppelin/contracts-upgradeable@v4.9.0/proxy/utils/Initializable.sol\":3325:3526  require(... */\n      0x04\n      dup3\n      add\n        /* \"#utility.yul\":16388:16409   */\n      mstore\n        /* \"#utility.yul\":16445:16447   */\n      0x2e\n        /* \"#utility.yul\":16425:16443   */\n      0x24\n      dup3\n      add\n        /* \"#utility.yul\":16418:16448   */\n      mstore\n        /* \"#utility.yul\":16484:16518   */\n      0x496e697469616c697a61626c653a20636f6e747261637420697320616c726561\n        /* \"#utility.yul\":16464:16482   */\n      0x44\n      dup3\n      add\n        /* \"#utility.yul\":16457:16519   */\n      mstore\n      shl(0x92, 0x191e481a5b9a5d1a585b1a5e9959)\n        /* \"#utility.yul\":16535:16553   */\n      0x64\n      dup3\n      add\n        /* \"#utility.yul\":16528:16572   */\n      mstore\n        /* \"#utility.yul\":16589:16608   */\n      0x84\n      add\n        /* \"@openzeppelin/contracts-upgradeable@v4.9.0/proxy/utils/Initializable.sol\":3325:3526  require(... */\n      tag_303\n        /* \"#utility.yul\":16204:16614   */\n      jump\n        /* \"@openzeppelin/contracts-upgradeable@v4.9.0/proxy/utils/Initializable.sol\":3325:3526  require(... */\n    tag_437:\n        /* \"@openzeppelin/contracts-upgradeable@v4.9.0/proxy/utils/Initializable.sol\":3536:3548  _initialized */\n      0x00\n        /* \"@openzeppelin/contracts-upgradeable@v4.9.0/proxy/utils/Initializable.sol\":3536:3552  _initialized = 1 */\n      dup1\n      sload\n      not(0xff)\n      and\n        /* \"@openzeppelin/contracts-upgradeable@v4.9.0/proxy/utils/Initializable.sol\":3551:3552  1 */\n      0x01\n        /* \"@openzeppelin/contracts-upgradeable@v4.9.0/proxy/utils/Initializable.sol\":3536:3552  _initialized = 1 */\n      or\n      swap1\n      sstore\n        /* \"@openzeppelin/contracts-upgradeable@v4.9.0/proxy/utils/Initializable.sol\":3562:3627  if (isTopLevelCall) {... */\n      dup1\n      iszero\n      tag_440\n      jumpi\n        /* \"@openzeppelin/contracts-upgradeable@v4.9.0/proxy/utils/Initializable.sol\":3596:3609  _initializing */\n      0x00\n        /* \"@openzeppelin/contracts-upgradeable@v4.9.0/proxy/utils/Initializable.sol\":3596:3616  _initializing = true */\n      dup1\n      sload\n      not(0xff00)\n      and\n      0x0100\n      or\n      swap1\n      sstore\n        /* \"@openzeppelin/contracts-upgradeable@v4.9.0/proxy/utils/Initializable.sol\":3562:3627  if (isTopLevelCall) {... */\n    tag_440:\n        /* \"GenerateCode.sol\":3183:3187  usdt */\n      0x6e\n        /* \"GenerateCode.sol\":3183:3202  usdt = _trustedUSDT */\n      dup1\n      sload\n      not(sub(shl(0xa0, 0x01), 0x01))\n      swap1\n      dup2\n      and\n      sub(shl(0xa0, 0x01), 0x01)\n      dup11\n      dup2\n      and\n      swap2\n      swap1\n      swap2\n      or\n      swap1\n      swap3\n      sstore\n        /* \"GenerateCode.sol\":3212:3222  masterPool */\n      0x70\n        /* \"GenerateCode.sol\":3212:3236  masterPool = _masterPool */\n      dup1\n      sload\n      dup3\n      and\n      dup10\n      dup5\n      and\n      or\n      swap1\n      sstore\n        /* \"GenerateCode.sol\":3287:3295  codePool */\n      0x6f\n        /* \"GenerateCode.sol\":3287:3318  codePool = ICodePool(_codePool) */\n      dup1\n      sload\n      dup3\n      and\n      dup9\n      dup5\n      and\n      or\n      swap1\n      sstore\n        /* \"GenerateCode.sol\":3328:3336  kventure */\n      0x72\n        /* \"GenerateCode.sol\":3328:3348  kventure = _kventure */\n      dup1\n      sload\n      dup3\n      and\n      dup6\n      dup5\n      and\n      or\n      swap1\n      sstore\n        /* \"GenerateCode.sol\":3358:3365  product */\n      0x73\n        /* \"GenerateCode.sol\":3358:3376  product = _product */\n      dup1\n      sload\n      dup3\n      and\n      dup8\n      dup5\n      and\n      or\n      swap1\n      sstore\n        /* \"GenerateCode.sol\":3386:3389  nft */\n      0x71\n        /* \"GenerateCode.sol\":3386:3403  nft = _trustedNFT */\n      dup1\n      sload\n      swap1\n      swap2\n      and\n      swap2\n      dup6\n      and\n      swap2\n      swap1\n      swap2\n      or\n      swap1\n      sstore\n        /* \"GenerateCode.sol\":3413:3429  __Ownable_init() */\n      tag_442\n        /* \"GenerateCode.sol\":3413:3427  __Ownable_init */\n      tag_443\n        /* \"GenerateCode.sol\":3413:3429  __Ownable_init() */\n      jump\t// in\n    tag_442:\n        /* \"GenerateCode.sol\":3481:3488  10 ** 6 */\n      0x0f4240\n        /* \"GenerateCode.sol\":3467:3478  usdtDecimal */\n      0x66\n        /* \"GenerateCode.sol\":3467:3488  usdtDecimal = 10 ** 6 */\n      dup2\n      swap1\n      sstore\n        /* \"GenerateCode.sol\":3518:3525  10 ** 2 */\n      0x64\n        /* \"GenerateCode.sol\":3498:3515  boostSpeedDecimal */\n      0x67\n        /* \"GenerateCode.sol\":3498:3525  boostSpeedDecimal = 10 ** 2 */\n      sstore\n        /* \"GenerateCode.sol\":3547:3562  1 * usdtDecimal */\n      tag_444\n      swap1\n        /* \"GenerateCode.sol\":3547:3548  1 */\n      0x01\n        /* \"GenerateCode.sol\":3547:3562  1 * usdtDecimal */\n      tag_296\n      jump\t// in\n    tag_444:\n        /* \"GenerateCode.sol\":3535:3544  rateBoost */\n      0x65\n        /* \"GenerateCode.sol\":3535:3562  rateBoost = 1 * usdtDecimal */\n      sstore\n        /* \"GenerateCode.sol\":3583:3602  _initializeConfig() */\n      tag_445\n        /* \"GenerateCode.sol\":3583:3600  _initializeConfig */\n      tag_446\n        /* \"GenerateCode.sol\":3583:3602  _initializeConfig() */\n      jump\t// in\n    tag_445:\n        /* \"GenerateCode.sol\":3627:3642  block.timestamp */\n      timestamp\n        /* \"GenerateCode.sol\":3612:3624  deployedDate */\n      0x6d\n        /* \"GenerateCode.sol\":3612:3642  deployedDate = block.timestamp */\n      sstore\n        /* \"@openzeppelin/contracts-upgradeable@v4.9.0/proxy/utils/Initializable.sol\":3647:3746  if (isTopLevelCall) {... */\n      dup1\n      iszero\n      tag_447\n      jumpi\n        /* \"@openzeppelin/contracts-upgradeable@v4.9.0/proxy/utils/Initializable.sol\":3697:3702  false */\n      0x00\n        /* \"@openzeppelin/contracts-upgradeable@v4.9.0/proxy/utils/Initializable.sol\":3681:3702  _initializing = false */\n      dup1\n      sload\n      not(0xff00)\n      and\n      swap1\n      sstore\n        /* \"@openzeppelin/contracts-upgradeable@v4.9.0/proxy/utils/Initializable.sol\":3721:3735  Initialized(1) */\n      mload(0x40)\n      0x01\n        /* \"#utility.yul\":16771:16807   */\n      dup2\n      mstore\n        /* \"@openzeppelin/contracts-upgradeable@v4.9.0/proxy/utils/Initializable.sol\":3721:3735  Initialized(1) */\n      0x7f26b83ff96e1f2b6a682f133852f6798a09c465da95921460cefb3847402498\n      swap1\n        /* \"#utility.yul\":16759:16761   */\n      0x20\n        /* \"#utility.yul\":16744:16762   */\n      add\n        /* \"@openzeppelin/contracts-upgradeable@v4.9.0/proxy/utils/Initializable.sol\":3721:3735  Initialized(1) */\n      mload(0x40)\n      dup1\n      swap2\n      sub\n      swap1\n      log1\n        /* \"@openzeppelin/contracts-upgradeable@v4.9.0/proxy/utils/Initializable.sol\":3647:3746  if (isTopLevelCall) {... */\n    tag_447:\n        /* \"@openzeppelin/contracts-upgradeable@v4.9.0/proxy/utils/Initializable.sol\":3269:3752  {... */\n      pop\n        /* \"GenerateCode.sol\":2932:3649  function initialize(... */\n      pop\n      pop\n      pop\n      pop\n      pop\n      pop\n      jump\t// out\n        /* \"GenerateCode.sol\":4305:4397  function SetProduct(address _product) external onlyOwner {... */\n    tag_151:\n        /* \"@openzeppelin/contracts-upgradeable@v4.9.0/access/OwnableUpgradeable.sol\":1334:1347  _checkOwner() */\n      tag_451\n        /* \"@openzeppelin/contracts-upgradeable@v4.9.0/access/OwnableUpgradeable.sol\":1334:1345  _checkOwner */\n      tag_208\n        /* \"@openzeppelin/contracts-upgradeable@v4.9.0/access/OwnableUpgradeable.sol\":1334:1347  _checkOwner() */\n      jump\t// in\n    tag_451:\n        /* \"GenerateCode.sol\":4372:4379  product */\n      0x73\n        /* \"GenerateCode.sol\":4372:4390  product = _product */\n      dup1\n      sload\n      not(sub(shl(0xa0, 0x01), 0x01))\n      and\n      sub(shl(0xa0, 0x01), 0x01)\n      swap3\n      swap1\n      swap3\n      and\n      swap2\n      swap1\n      swap2\n      or\n      swap1\n      sstore\n        /* \"GenerateCode.sol\":4305:4397  function SetProduct(address _product) external onlyOwner {... */\n      jump\t// out\n        /* \"GenerateCode.sol\":4110:4190  function SetUsdt(address _usdt) external onlyOwner {... */\n    tag_154:\n        /* \"@openzeppelin/contracts-upgradeable@v4.9.0/access/OwnableUpgradeable.sol\":1334:1347  _checkOwner() */\n      tag_454\n        /* \"@openzeppelin/contracts-upgradeable@v4.9.0/access/OwnableUpgradeable.sol\":1334:1345  _checkOwner */\n      tag_208\n        /* \"@openzeppelin/contracts-upgradeable@v4.9.0/access/OwnableUpgradeable.sol\":1334:1347  _checkOwner() */\n      jump\t// in\n    tag_454:\n        /* \"GenerateCode.sol\":4171:4175  usdt */\n      0x6e\n        /* \"GenerateCode.sol\":4171:4183  usdt = _usdt */\n      dup1\n      sload\n      not(sub(shl(0xa0, 0x01), 0x01))\n      and\n      sub(shl(0xa0, 0x01), 0x01)\n      swap3\n      swap1\n      swap3\n      and\n      swap2\n      swap1\n      swap2\n      or\n      swap1\n      sstore\n        /* \"GenerateCode.sol\":4110:4190  function SetUsdt(address _usdt) external onlyOwner {... */\n      jump\t// out\n        /* \"@openzeppelin/contracts-upgradeable@v4.9.0/access/OwnableUpgradeable.sol\":2314:2512  function transferOwnership(address newOwner) public virtual onlyOwner {... */\n    tag_157:\n        /* \"@openzeppelin/contracts-upgradeable@v4.9.0/access/OwnableUpgradeable.sol\":1334:1347  _checkOwner() */\n      tag_457\n        /* \"@openzeppelin/contracts-upgradeable@v4.9.0/access/OwnableUpgradeable.sol\":1334:1345  _checkOwner */\n      tag_208\n        /* \"@openzeppelin/contracts-upgradeable@v4.9.0/access/OwnableUpgradeable.sol\":1334:1347  _checkOwner() */\n      jump\t// in\n    tag_457:\n      sub(shl(0xa0, 0x01), 0x01)\n        /* \"@openzeppelin/contracts-upgradeable@v4.9.0/access/OwnableUpgradeable.sol\":2402:2424  newOwner != address(0) */\n      dup2\n      and\n        /* \"@openzeppelin/contracts-upgradeable@v4.9.0/access/OwnableUpgradeable.sol\":2394:2467  require(newOwner != address(0), \"Ownable: new owner is the zero address\") */\n      tag_459\n      jumpi\n      mload(0x40)\n      shl(0xe5, 0x461bcd)\n      dup2\n      mstore\n        /* \"#utility.yul\":17020:17022   */\n      0x20\n        /* \"@openzeppelin/contracts-upgradeable@v4.9.0/access/OwnableUpgradeable.sol\":2394:2467  require(newOwner != address(0), \"Ownable: new owner is the zero address\") */\n      0x04\n      dup3\n      add\n        /* \"#utility.yul\":17002:17023   */\n      mstore\n        /* \"#utility.yul\":17059:17061   */\n      0x26\n        /* \"#utility.yul\":17039:17057   */\n      0x24\n      dup3\n      add\n        /* \"#utility.yul\":17032:17062   */\n      mstore\n        /* \"#utility.yul\":17098:17132   */\n      0x4f776e61626c653a206e6577206f776e657220697320746865207a65726f2061\n        /* \"#utility.yul\":17078:17096   */\n      0x44\n      dup3\n      add\n        /* \"#utility.yul\":17071:17133   */\n      mstore\n      shl(0xd0, 0x646472657373)\n        /* \"#utility.yul\":17149:17167   */\n      0x64\n      dup3\n      add\n        /* \"#utility.yul\":17142:17178   */\n      mstore\n        /* \"#utility.yul\":17195:17214   */\n      0x84\n      add\n        /* \"@openzeppelin/contracts-upgradeable@v4.9.0/access/OwnableUpgradeable.sol\":2394:2467  require(newOwner != address(0), \"Ownable: new owner is the zero address\") */\n      tag_303\n        /* \"#utility.yul\":16818:17220   */\n      jump\n        /* \"@openzeppelin/contracts-upgradeable@v4.9.0/access/OwnableUpgradeable.sol\":2394:2467  require(newOwner != address(0), \"Ownable: new owner is the zero address\") */\n    tag_459:\n        /* \"@openzeppelin/contracts-upgradeable@v4.9.0/access/OwnableUpgradeable.sol\":2477:2505  _transferOwnership(newOwner) */\n      tag_462\n        /* \"@openzeppelin/contracts-upgradeable@v4.9.0/access/OwnableUpgradeable.sol\":2496:2504  newOwner */\n      dup2\n        /* \"@openzeppelin/contracts-upgradeable@v4.9.0/access/OwnableUpgradeable.sol\":2477:2495  _transferOwnership */\n      tag_211\n        /* \"@openzeppelin/contracts-upgradeable@v4.9.0/access/OwnableUpgradeable.sol\":2477:2505  _transferOwnership(newOwner) */\n      jump\t// in\n    tag_462:\n        /* \"@openzeppelin/contracts-upgradeable@v4.9.0/access/OwnableUpgradeable.sol\":2314:2512  function transferOwnership(address newOwner) public virtual onlyOwner {... */\n      pop\n      jump\t// out\n        /* \"GenerateCode.sol\":10046:10712  function UnblockManyCode(... */\n    tag_160:\n        /* \"GenerateCode.sol\":10130:10143  bool[] memory */\n      0x60\n        /* \"GenerateCode.sol\":10155:10176  bool[] memory success */\n      0x00\n        /* \"GenerateCode.sol\":10190:10197  codeFEs */\n      dup3\n        /* \"GenerateCode.sol\":10179:10205  new bool[](codeFEs.length) */\n      0xffffffffffffffff\n      dup2\n      gt\n      iszero\n      tag_465\n      jumpi\n      tag_465\n      tag_168\n      jump\t// in\n    tag_465:\n      mload(0x40)\n      swap1\n      dup1\n      dup3\n      mstore\n      dup1\n      0x20\n      mul\n      0x20\n      add\n      dup3\n      add\n      0x40\n      mstore\n      dup1\n      iszero\n      tag_466\n      jumpi\n      dup2\n      0x20\n      add\n      0x20\n      dup3\n      mul\n      dup1\n      calldatasize\n      dup4\n      calldatacopy\n      add\n      swap1\n      pop\n    tag_466:\n      pop\n        /* \"GenerateCode.sol\":10155:10205  bool[] memory success = new bool[](codeFEs.length) */\n      swap1\n      pop\n        /* \"GenerateCode.sol\":10215:10231  bytes32 codeHash */\n      0x00\n      dup1\n        /* \"GenerateCode.sol\":10241:10682  for (uint index = 0; index < codeFEs.length; index++) {... */\n    tag_467:\n        /* \"GenerateCode.sol\":10262:10284  index < codeFEs.length */\n      dup5\n      dup2\n      lt\n        /* \"GenerateCode.sol\":10241:10682  for (uint index = 0; index < codeFEs.length; index++) {... */\n      iszero\n      tag_171\n      jumpi\n        /* \"GenerateCode.sol\":10347:10354  codeFEs */\n      dup6\n      dup6\n        /* \"GenerateCode.sol\":10355:10360  index */\n      dup3\n        /* \"GenerateCode.sol\":10347:10361  codeFEs[index] */\n      dup2\n      dup2\n      lt\n      tag_471\n      jumpi\n      tag_471\n      tag_175\n      jump\t// in\n    tag_471:\n      swap1\n      pop\n      0x20\n      mul\n      dup2\n      add\n      swap1\n      tag_472\n      swap2\n      swap1\n      tag_177\n      jump\t// in\n    tag_472:\n        /* \"GenerateCode.sol\":10330:10362  abi.encodePacked(codeFEs[index]) */\n      add(0x20, mload(0x40))\n      tag_473\n      swap3\n      swap2\n      swap1\n      tag_179\n      jump\t// in\n    tag_473:\n      0x40\n      dup1\n      mload\n      dup1\n      dup4\n      sub\n      not(0x1f)\n      add\n      dup2\n      mstore\n      swap2\n      dup2\n      mstore\n        /* \"GenerateCode.sol\":10320:10363  keccak256(abi.encodePacked(codeFEs[index])) */\n      dup2\n      mload\n        /* \"GenerateCode.sol\":10330:10362  abi.encodePacked(codeFEs[index]) */\n      0x20\n        /* \"GenerateCode.sol\":10320:10363  keccak256(abi.encodePacked(codeFEs[index])) */\n      swap3\n      dup4\n      add\n      keccak256\n        /* \"GenerateCode.sol\":10412:10434  mPackageInfo[codeHash] */\n      0x00\n      dup2\n      dup2\n      mstore\n        /* \"GenerateCode.sol\":10412:10424  mPackageInfo */\n      0x6a\n        /* \"GenerateCode.sol\":10412:10434  mPackageInfo[codeHash] */\n      swap1\n      swap4\n      mstore\n      swap2\n      keccak256\n        /* \"GenerateCode.sol\":10412:10440  mPackageInfo[codeHash].owner */\n      sload\n        /* \"GenerateCode.sol\":10320:10363  keccak256(abi.encodePacked(codeFEs[index])) */\n      swap1\n      swap3\n      pop\n      sub(shl(0xa0, 0x01), 0x01)\n        /* \"GenerateCode.sol\":10412:10440  mPackageInfo[codeHash].owner */\n      and\n        /* \"GenerateCode.sol\":10398:10408  msg.sender */\n      caller\n        /* \"GenerateCode.sol\":10398:10440  msg.sender != mPackageInfo[codeHash].owner */\n      eq\n      iszero\n      dup1\n        /* \"GenerateCode.sol\":10398:10514  msg.sender != mPackageInfo[codeHash].owner ||... */\n      tag_474\n      jumpi\n      pop\n        /* \"GenerateCode.sol\":10493:10514  PackageStatus.Unblock */\n      0x01\n        /* \"GenerateCode.sol\":10460:10482  mPackageInfo[codeHash] */\n      0x00\n      dup4\n      dup2\n      mstore\n        /* \"GenerateCode.sol\":10460:10472  mPackageInfo */\n      0x6a\n        /* \"GenerateCode.sol\":10460:10482  mPackageInfo[codeHash] */\n      0x20\n      mstore\n      0x40\n      swap1\n      keccak256\n        /* \"GenerateCode.sol\":10460:10489  mPackageInfo[codeHash].status */\n      0x07\n      add\n      sload\n      shl(0xa0, 0x01)\n      swap1\n      div\n      0xff\n      and\n        /* \"GenerateCode.sol\":10460:10514  mPackageInfo[codeHash].status == PackageStatus.Unblock */\n      0x03\n      dup2\n      gt\n      iszero\n      tag_478\n      jumpi\n      tag_478\n      tag_183\n      jump\t// in\n    tag_478:\n      eq\n        /* \"GenerateCode.sol\":10398:10514  msg.sender != mPackageInfo[codeHash].owner ||... */\n    tag_474:\n        /* \"GenerateCode.sol\":10547:10555  continue */\n      tag_469\n        /* \"GenerateCode.sol\":10377:10570  if (... */\n      jumpi\n        /* \"GenerateCode.sol\":10583:10605  mPackageInfo[codeHash] */\n      0x00\n      dup3\n      dup2\n      mstore\n        /* \"GenerateCode.sol\":10583:10595  mPackageInfo */\n      0x6a\n        /* \"GenerateCode.sol\":10583:10605  mPackageInfo[codeHash] */\n      0x20\n      mstore\n      0x40\n      swap1\n      keccak256\n        /* \"GenerateCode.sol\":10583:10612  mPackageInfo[codeHash].status */\n      0x07\n      add\n        /* \"GenerateCode.sol\":10583:10636  mPackageInfo[codeHash].status = PackageStatus.Unblock */\n      dup1\n      sload\n      not(shl(0xa0, 0xff))\n      and\n      shl(0xa0, 0x01)\n      or\n      swap1\n      sstore\n        /* \"GenerateCode.sol\":10650:10664  success[index] */\n      dup3\n      mload\n      0x01\n      swap1\n      dup5\n      swap1\n        /* \"GenerateCode.sol\":10658:10663  index */\n      dup4\n      swap1\n        /* \"GenerateCode.sol\":10650:10664  success[index] */\n      dup2\n      lt\n      tag_483\n      jumpi\n      tag_483\n      tag_175\n      jump\t// in\n    tag_483:\n        /* \"GenerateCode.sol\":10650:10671  success[index] = true */\n      swap2\n      iszero\n      iszero\n        /* \"GenerateCode.sol\":10650:10664  success[index] */\n      0x20\n      swap3\n      dup4\n      mul\n      swap2\n      swap1\n      swap2\n      add\n      swap1\n      swap2\n      add\n        /* \"GenerateCode.sol\":10650:10671  success[index] = true */\n      mstore\n        /* \"GenerateCode.sol\":10241:10682  for (uint index = 0; index < codeFEs.length; index++) {... */\n    tag_469:\n        /* \"GenerateCode.sol\":10286:10293  index++ */\n      dup1\n      tag_484\n      dup2\n      tag_255\n      jump\t// in\n    tag_484:\n      swap2\n      pop\n      pop\n        /* \"GenerateCode.sol\":10241:10682  for (uint index = 0; index < codeFEs.length; index++) {... */\n      jump(tag_467)\n        /* \"GenerateCode.sol\":4028:4104  function SetNFT(address _nft) external onlyOwner {... */\n    tag_164:\n        /* \"@openzeppelin/contracts-upgradeable@v4.9.0/access/OwnableUpgradeable.sol\":1334:1347  _checkOwner() */\n      tag_486\n        /* \"@openzeppelin/contracts-upgradeable@v4.9.0/access/OwnableUpgradeable.sol\":1334:1345  _checkOwner */\n      tag_208\n        /* \"@openzeppelin/contracts-upgradeable@v4.9.0/access/OwnableUpgradeable.sol\":1334:1347  _checkOwner() */\n      jump\t// in\n    tag_486:\n        /* \"GenerateCode.sol\":4087:4090  nft */\n      0x71\n        /* \"GenerateCode.sol\":4087:4097  nft = _nft */\n      dup1\n      sload\n      not(sub(shl(0xa0, 0x01), 0x01))\n      and\n      sub(shl(0xa0, 0x01), 0x01)\n      swap3\n      swap1\n      swap3\n      and\n      swap2\n      swap1\n      swap2\n      or\n      swap1\n      sstore\n        /* \"GenerateCode.sol\":4028:4104  function SetNFT(address _nft) external onlyOwner {... */\n      jump\t// out\n        /* \"@openzeppelin/contracts-upgradeable@v4.9.0/access/OwnableUpgradeable.sol\":1599:1729  function _checkOwner() internal view virtual {... */\n    tag_208:\n        /* \"@openzeppelin/contracts-upgradeable@v4.9.0/access/OwnableUpgradeable.sol\":1513:1519  _owner */\n      and(sub(shl(0xa0, 0x01), 0x01), sload(0x33))\n        /* \"@openzeppelin/contracts-upgradeable@v4.9.0/utils/ContextUpgradeable.sol\":929:939  msg.sender */\n      caller\n        /* \"@openzeppelin/contracts-upgradeable@v4.9.0/access/OwnableUpgradeable.sol\":1662:1685  owner() == _msgSender() */\n      eq\n        /* \"@openzeppelin/contracts-upgradeable@v4.9.0/access/OwnableUpgradeable.sol\":1654:1722  require(owner() == _msgSender(), \"Ownable: caller is not the owner\") */\n      tag_210\n      jumpi\n      mload(0x40)\n      shl(0xe5, 0x461bcd)\n      dup2\n      mstore\n        /* \"#utility.yul\":17427:17429   */\n      0x20\n        /* \"@openzeppelin/contracts-upgradeable@v4.9.0/access/OwnableUpgradeable.sol\":1654:1722  require(owner() == _msgSender(), \"Ownable: caller is not the owner\") */\n      0x04\n      dup3\n      add\n        /* \"#utility.yul\":17409:17430   */\n      dup2\n      swap1\n      mstore\n        /* \"#utility.yul\":17446:17464   */\n      0x24\n      dup3\n      add\n        /* \"#utility.yul\":17439:17469   */\n      mstore\n        /* \"#utility.yul\":17505:17539   */\n      0x4f776e61626c653a2063616c6c6572206973206e6f7420746865206f776e6572\n        /* \"#utility.yul\":17485:17503   */\n      0x44\n      dup3\n      add\n        /* \"#utility.yul\":17478:17540   */\n      mstore\n        /* \"#utility.yul\":17557:17575   */\n      0x64\n      add\n        /* \"@openzeppelin/contracts-upgradeable@v4.9.0/access/OwnableUpgradeable.sol\":1654:1722  require(owner() == _msgSender(), \"Ownable: caller is not the owner\") */\n      tag_303\n        /* \"#utility.yul\":17225:17581   */\n      jump\n        /* \"@openzeppelin/contracts-upgradeable@v4.9.0/access/OwnableUpgradeable.sol\":2666:2853  function _transferOwnership(address newOwner) internal virtual {... */\n    tag_211:\n        /* \"@openzeppelin/contracts-upgradeable@v4.9.0/access/OwnableUpgradeable.sol\":2758:2764  _owner */\n      0x33\n      dup1\n      sload\n      sub(shl(0xa0, 0x01), 0x01)\n        /* \"@openzeppelin/contracts-upgradeable@v4.9.0/access/OwnableUpgradeable.sol\":2774:2791  _owner = newOwner */\n      dup4\n      dup2\n      and\n      not(sub(shl(0xa0, 0x01), 0x01))\n      dup4\n      and\n      dup2\n      or\n      swap1\n      swap4\n      sstore\n        /* \"@openzeppelin/contracts-upgradeable@v4.9.0/access/OwnableUpgradeable.sol\":2806:2846  OwnershipTransferred(oldOwner, newOwner) */\n      mload(0x40)\n        /* \"@openzeppelin/contracts-upgradeable@v4.9.0/access/OwnableUpgradeable.sol\":2758:2764  _owner */\n      swap2\n      and\n      swap2\n        /* \"@openzeppelin/contracts-upgradeable@v4.9.0/access/OwnableUpgradeable.sol\":2774:2791  _owner = newOwner */\n      swap1\n        /* \"@openzeppelin/contracts-upgradeable@v4.9.0/access/OwnableUpgradeable.sol\":2758:2764  _owner */\n      dup3\n      swap1\n        /* \"@openzeppelin/contracts-upgradeable@v4.9.0/access/OwnableUpgradeable.sol\":2806:2846  OwnershipTransferred(oldOwner, newOwner) */\n      0x8be0079c531659141344cd1fd0a4f28419497f9722a3daafe3b4186f6b6457e0\n      swap1\n        /* \"@openzeppelin/contracts-upgradeable@v4.9.0/access/OwnableUpgradeable.sol\":2739:2755  address oldOwner */\n      0x00\n      swap1\n        /* \"@openzeppelin/contracts-upgradeable@v4.9.0/access/OwnableUpgradeable.sol\":2806:2846  OwnershipTransferred(oldOwner, newOwner) */\n      log3\n        /* \"@openzeppelin/contracts-upgradeable@v4.9.0/access/OwnableUpgradeable.sol\":2729:2853  {... */\n      pop\n        /* \"@openzeppelin/contracts-upgradeable@v4.9.0/access/OwnableUpgradeable.sol\":2666:2853  function _transferOwnership(address newOwner) internal virtual {... */\n      pop\n      jump\t// out\n        /* \"GenerateCode.sol\":7984:9886  function _generateCode(... */\n    tag_328:\n        /* \"GenerateCode.sol\":8203:8207  uint */\n      0x00\n        /* \"GenerateCode.sol\":8239:8261  mPackageInfo[codeHash] */\n      dup7\n      dup2\n      mstore\n        /* \"GenerateCode.sol\":8239:8251  mPackageInfo */\n      0x6a\n        /* \"GenerateCode.sol\":8239:8261  mPackageInfo[codeHash] */\n      0x20\n      mstore\n      0x40\n      dup2\n      keccak256\n        /* \"GenerateCode.sol\":8239:8267  mPackageInfo[codeHash].owner */\n      sload\n      sub(shl(0xa0, 0x01), 0x01)\n      and\n        /* \"GenerateCode.sol\":8239:8281  mPackageInfo[codeHash].owner == address(0) */\n      iszero\n        /* \"GenerateCode.sol\":8218:8336  require(... */\n      tag_497\n      jumpi\n      mload(0x40)\n      shl(0xe5, 0x461bcd)\n      dup2\n      mstore\n        /* \"#utility.yul\":17788:17790   */\n      0x20\n        /* \"GenerateCode.sol\":8218:8336  require(... */\n      0x04\n      dup3\n      add\n        /* \"#utility.yul\":17770:17791   */\n      mstore\n        /* \"#utility.yul\":17827:17829   */\n      0x1d\n        /* \"#utility.yul\":17807:17825   */\n      0x24\n      dup3\n      add\n        /* \"#utility.yul\":17800:17830   */\n      mstore\n        /* \"#utility.yul\":17866:17897   */\n      0x4d6574614e6f64653a204475706c696361746520436f64652048617368000000\n        /* \"#utility.yul\":17846:17864   */\n      0x44\n      dup3\n      add\n        /* \"#utility.yul\":17839:17898   */\n      mstore\n        /* \"#utility.yul\":17915:17933   */\n      0x64\n      add\n        /* \"GenerateCode.sol\":8218:8336  require(... */\n      tag_303\n        /* \"#utility.yul\":17586:17939   */\n      jump\n        /* \"GenerateCode.sol\":8218:8336  require(... */\n    tag_497:\n        /* \"GenerateCode.sol\":9014:9609  PackageInfo({... */\n      0x40\n      dup1\n      mload\n      0x01e0\n      dup2\n      add\n      dup3\n      mstore\n      sub(shl(0xa0, 0x01), 0x01)\n      dup11\n      and\n      dup2\n      mstore\n      0x20\n      dup2\n      add\n      dup10\n      swap1\n      mstore\n        /* \"GenerateCode.sol\":8346:8355  uint code */\n      0x00\n        /* \"GenerateCode.sol\":9014:9609  PackageInfo({... */\n      swap2\n      dup2\n      add\n      swap2\n      swap1\n      swap2\n      mstore\n        /* \"GenerateCode.sol\":8363:8371  codeHash */\n      dup8\n      swap1\n        /* \"GenerateCode.sol\":9014:9609  PackageInfo({... */\n      0x60\n      dup2\n      add\n        /* \"GenerateCode.sol\":9147:9172  block.timestamp + 90 days */\n      tag_500\n        /* \"GenerateCode.sol\":9147:9162  block.timestamp */\n      timestamp\n        /* \"GenerateCode.sol\":9165:9172  90 days */\n      0x76a700\n        /* \"GenerateCode.sol\":9147:9172  block.timestamp + 90 days */\n      tag_219\n      jump\t// in\n    tag_500:\n        /* \"GenerateCode.sol\":9014:9609  PackageInfo({... */\n      dup2\n      mstore\n      0x20\n      add\n        /* \"GenerateCode.sol\":9233:9243  _rateBoost */\n      dup7\n        /* \"GenerateCode.sol\":9212:9229  boostSpeedDecimal */\n      sload(0x67)\n        /* \"GenerateCode.sol\":9199:9209  _planPrice */\n      dup10\n        /* \"GenerateCode.sol\":9199:9229  _planPrice * boostSpeedDecimal */\n      tag_501\n      swap2\n      swap1\n      tag_296\n      jump\t// in\n    tag_501:\n        /* \"GenerateCode.sol\":9198:9243  (_planPrice * boostSpeedDecimal) / _rateBoost */\n      tag_502\n      swap2\n      swap1\n      tag_291\n      jump\t// in\n    tag_502:\n        /* \"GenerateCode.sol\":9014:9609  PackageInfo({... */\n      dup2\n      mstore\n      0x20\n      add\n        /* \"GenerateCode.sol\":9268:9284  mValidMiningTime */\n      0x6b\n        /* \"GenerateCode.sol\":9268:9296  mValidMiningTime[_planPrice] */\n      0x00\n        /* \"GenerateCode.sol\":9285:9295  _planPrice */\n      dup10\n        /* \"GenerateCode.sol\":9268:9296  mValidMiningTime[_planPrice] */\n      dup2\n      mstore\n      0x20\n      add\n      swap1\n      dup2\n      mstore\n      0x20\n      add\n      0x00\n      keccak256\n      sload\n        /* \"GenerateCode.sol\":9014:9609  PackageInfo({... */\n      dup2\n      mstore\n      0x20\n      add\n        /* \"GenerateCode.sol\":9321:9331  _rateBoost */\n      dup7\n        /* \"GenerateCode.sol\":9014:9609  PackageInfo({... */\n      dup2\n      mstore\n      0x20\n      add\n        /* \"GenerateCode.sol\":9355:9364  _delegate */\n      dup5\n      sub(shl(0xa0, 0x01), 0x01)\n        /* \"GenerateCode.sol\":9014:9609  PackageInfo({... */\n      and\n      dup2\n      mstore\n      0x20\n      add\n        /* \"GenerateCode.sol\":9386:9401  _isBlock(_lock) */\n      tag_503\n        /* \"GenerateCode.sol\":9395:9400  _lock */\n      dup10\n        /* \"GenerateCode.sol\":9386:9394  _isBlock */\n      tag_504\n        /* \"GenerateCode.sol\":9386:9401  _isBlock(_lock) */\n      jump\t// in\n    tag_503:\n        /* \"GenerateCode.sol\":9014:9609  PackageInfo({... */\n      0x03\n      dup2\n      gt\n      iszero\n      tag_506\n      jumpi\n      tag_506\n      tag_183\n      jump\t// in\n    tag_506:\n      dup2\n      mstore\n      0x40\n      dup1\n      mload\n      dup1\n      dup3\n      add\n      dup3\n      mstore\n      0x08\n      dup2\n      mstore\n      shl(0xc0, 0x4b56454e54555245)\n      0x20\n      dup1\n      dup4\n      add\n      swap2\n      swap1\n      swap2\n      mstore\n      dup1\n      dup5\n      add\n      swap2\n      swap1\n      swap2\n      mstore\n      0x00\n      dup3\n      dup5\n      add\n      dup2\n      swap1\n      mstore\n      0x60\n      dup1\n      dup6\n      add\n      dup3\n      swap1\n      mstore\n      0x80\n      dup1\n      dup7\n      add\n      dup4\n      swap1\n      mstore\n      0xa0\n      dup1\n      dup8\n      add\n      dup5\n      swap1\n      mstore\n      0xc0\n      swap7\n      dup8\n      add\n      dup5\n      swap1\n      mstore\n        /* \"GenerateCode.sol\":8989:9011  mPackageInfo[codeHash] */\n      dup16\n      dup5\n      mstore\n        /* \"GenerateCode.sol\":8989:9001  mPackageInfo */\n      0x6a\n        /* \"GenerateCode.sol\":8989:9011  mPackageInfo[codeHash] */\n      dup6\n      mstore\n      swap3\n      dup6\n      swap1\n      keccak256\n        /* \"GenerateCode.sol\":8989:9609  mPackageInfo[codeHash] = PackageInfo({... */\n      dup8\n      mload\n      dup2\n      sload\n      not(sub(shl(0xa0, 0x01), 0x01))\n      swap1\n      dup2\n      and\n      sub(shl(0xa0, 0x01), 0x01)\n      swap3\n      dup4\n      and\n      or\n      dup4\n      sstore\n      swap6\n      dup10\n      add\n      mload\n      0x01\n      dup4\n      add\n      sstore\n      swap6\n      dup9\n      add\n      mload\n      0x02\n      dup3\n      add\n      sstore\n      swap2\n      dup8\n      add\n      mload\n      0x03\n      dup1\n      dup5\n      add\n      swap2\n      swap1\n      swap2\n      sstore\n      swap1\n      dup8\n      add\n      mload\n      0x04\n      dup4\n      add\n      sstore\n      swap2\n      dup7\n      add\n      mload\n      0x05\n      dup3\n      add\n      sstore\n      swap4\n      dup6\n      add\n      mload\n      0x06\n      dup6\n      add\n      sstore\n      0xe0\n      dup6\n      add\n      mload\n      0x07\n      dup6\n      add\n      dup1\n      sload\n      swap4\n      dup5\n      and\n      swap2\n      swap1\n      swap5\n      and\n      swap1\n      dup2\n      or\n      dup5\n      sstore\n      0x0100\n      dup7\n      add\n      mload\n      swap4\n      swap3\n      not(sub(shl(0xa8, 0x01), 0x01))\n      and\n      or\n      swap1\n      shl(0xa0, 0x01)\n      swap1\n      dup5\n      swap1\n      dup2\n      gt\n      iszero\n      tag_508\n      jumpi\n      tag_508\n      tag_183\n      jump\t// in\n    tag_508:\n      mul\n      or\n      swap1\n      sstore\n      pop\n      0x0120\n      dup3\n      add\n      mload\n      0x08\n      dup3\n      add\n      swap1\n      tag_509\n      swap1\n      dup3\n      tag_510\n      jump\t// in\n    tag_509:\n      pop\n      0x0140\n      dup3\n      add\n      mload\n      0x09\n      dup3\n      add\n      sstore\n      0x0160\n      dup3\n      add\n      mload\n      0x0a\n      dup3\n      add\n      sstore\n      0x0180\n      dup3\n      add\n      mload\n      0x0b\n      dup3\n      add\n      sstore\n      0x01a0\n      dup3\n      add\n      mload\n      0x0c\n      dup3\n      add\n      sstore\n      0x01c0\n      swap1\n      swap2\n      add\n      mload\n      0x0d\n      swap1\n      swap2\n      add\n      sstore\n        /* \"GenerateCode.sol\":9624:9627  nft */\n      sload(0x71)\n        /* \"GenerateCode.sol\":9619:9649  INFT(nft).safeMint(buyer,code) */\n      mload(0x40)\n      shl(0xe2, 0x28512065)\n      dup2\n      mstore\n      sub(shl(0xa0, 0x01), 0x01)\n        /* \"#utility.yul\":13287:13319   */\n      dup12\n      dup2\n      and\n        /* \"GenerateCode.sol\":9619:9649  INFT(nft).safeMint(buyer,code) */\n      0x04\n      dup4\n      add\n        /* \"#utility.yul\":13269:13320   */\n      mstore\n        /* \"#utility.yul\":13336:13354   */\n      0x24\n      dup3\n      add\n        /* \"#utility.yul\":13329:13363   */\n      dup5\n      swap1\n      mstore\n        /* \"GenerateCode.sol\":9624:9627  nft */\n      swap1\n      swap2\n      and\n      swap1\n        /* \"GenerateCode.sol\":9619:9637  INFT(nft).safeMint */\n      0xa1448194\n      swap1\n        /* \"#utility.yul\":13242:13260   */\n      0x44\n      add\n        /* \"GenerateCode.sol\":9619:9649  INFT(nft).safeMint(buyer,code) */\n      0x00\n      mload(0x40)\n      dup1\n      dup4\n      sub\n      dup2\n      0x00\n      dup8\n      dup1\n      extcodesize\n      iszero\n      dup1\n      iszero\n      tag_512\n      jumpi\n      0x00\n      dup1\n      revert\n    tag_512:\n      pop\n      gas\n      call\n      iszero\n      dup1\n      iszero\n      tag_514\n      jumpi\n      returndatasize\n      0x00\n      dup1\n      returndatacopy\n      revert(0x00, returndatasize)\n    tag_514:\n      pop\n      pop\n        /* \"GenerateCode.sol\":9659:9667  codePool */\n      sload(0x6f)\n      0x00\n        /* \"GenerateCode.sol\":9676:9698  mPackageInfo[codeHash] */\n      dup12\n      dup2\n      mstore\n        /* \"GenerateCode.sol\":9676:9688  mPackageInfo */\n      0x6a\n        /* \"GenerateCode.sol\":9676:9698  mPackageInfo[codeHash] */\n      0x20\n      mstore\n      0x40\n      swap1\n      dup2\n      swap1\n      keccak256\n        /* \"GenerateCode.sol\":9659:9699  codePool.addCode(mPackageInfo[codeHash]) */\n      swap1\n      mload\n      shl(0xe1, 0x7c94ac81)\n      dup2\n      mstore\n      sub(shl(0xa0, 0x01), 0x01)\n        /* \"GenerateCode.sol\":9659:9667  codePool */\n      swap1\n      swap3\n      and\n      swap4\n      pop\n        /* \"GenerateCode.sol\":9659:9675  codePool.addCode */\n      0xf9295902\n      swap3\n      pop\n        /* \"GenerateCode.sol\":9659:9699  codePool.addCode(mPackageInfo[codeHash]) */\n      tag_515\n      swap2\n      0x04\n      add\n      tag_516\n      jump\t// in\n    tag_515:\n      0x20\n      mload(0x40)\n      dup1\n      dup4\n      sub\n      dup2\n      0x00\n      dup8\n      gas\n      call\n      iszero\n      dup1\n      iszero\n      tag_518\n      jumpi\n      returndatasize\n      0x00\n      dup1\n      returndatacopy\n      revert(0x00, returndatasize)\n    tag_518:\n      pop\n      pop\n      pop\n      pop\n      mload(0x40)\n      returndatasize\n      not(0x1f)\n      0x1f\n      dup3\n      add\n      and\n      dup3\n      add\n      dup1\n      0x40\n      mstore\n      pop\n      dup2\n      add\n      swap1\n      tag_519\n      swap2\n      swap1\n      tag_520\n      jump\t// in\n    tag_519:\n      pop\n        /* \"GenerateCode.sol\":9875:9879  code */\n      swap9\n        /* \"GenerateCode.sol\":7984:9886  function _generateCode(... */\n      swap8\n      pop\n      pop\n      pop\n      pop\n      pop\n      pop\n      pop\n      pop\n      jump\t// out\n        /* \"@openzeppelin/contracts-upgradeable@v4.9.0/access/OwnableUpgradeable.sol\":1003:1098  function __Ownable_init() internal onlyInitializing {... */\n    tag_443:\n        /* \"@openzeppelin/contracts-upgradeable@v4.9.0/proxy/utils/Initializable.sol\":5374:5387  _initializing */\n      sload(0x00)\n      0x0100\n      swap1\n      div\n      0xff\n      and\n        /* \"@openzeppelin/contracts-upgradeable@v4.9.0/proxy/utils/Initializable.sol\":5366:5435  require(_initializing, \"Initializable: contract is not initializing\") */\n      tag_523\n      jumpi\n      mload(0x40)\n      shl(0xe5, 0x461bcd)\n      dup2\n      mstore\n      0x04\n      add\n      tag_303\n      swap1\n      tag_525\n      jump\t// in\n    tag_523:\n        /* \"@openzeppelin/contracts-upgradeable@v4.9.0/access/OwnableUpgradeable.sol\":1065:1091  __Ownable_init_unchained() */\n      tag_210\n        /* \"@openzeppelin/contracts-upgradeable@v4.9.0/access/OwnableUpgradeable.sol\":1065:1089  __Ownable_init_unchained */\n      tag_528\n        /* \"@openzeppelin/contracts-upgradeable@v4.9.0/access/OwnableUpgradeable.sol\":1065:1091  __Ownable_init_unchained() */\n      jump\t// in\n        /* \"GenerateCode.sol\":4552:5769  function _initializeConfig() internal {... */\n    tag_446:\n        /* \"GenerateCode.sol\":4631:4642  usdtDecimal */\n      sload(0x66)\n        /* \"GenerateCode.sol\":4623:4642  5_000 * usdtDecimal */\n      tag_419\n      swap1\n        /* \"GenerateCode.sol\":4623:4628  5_000 */\n      0x1388\n        /* \"GenerateCode.sol\":4623:4642  5_000 * usdtDecimal */\n      tag_296\n      jump\t// in\n        /* \"GenerateCode.sol\":11385:11526  function _isBlock(bool lock) internal pure returns (PackageStatus) {... */\n    tag_504:\n        /* \"GenerateCode.sol\":11437:11450  PackageStatus */\n      0x00\n        /* \"GenerateCode.sol\":11469:11473  lock */\n      dup2\n        /* \"GenerateCode.sol\":11469:11519  lock ? PackageStatus.Block : PackageStatus.Unblock */\n      tag_533\n      jumpi\n        /* \"GenerateCode.sol\":11498:11519  PackageStatus.Unblock */\n      0x01\n        /* \"GenerateCode.sol\":11469:11519  lock ? PackageStatus.Block : PackageStatus.Unblock */\n      jump(tag_165)\n    tag_533:\n        /* \"GenerateCode.sol\":11476:11495  PackageStatus.Block */\n      0x00\n        /* \"GenerateCode.sol\":11462:11519  return lock ? PackageStatus.Block : PackageStatus.Unblock */\n      swap3\n        /* \"GenerateCode.sol\":11385:11526  function _isBlock(bool lock) internal pure returns (PackageStatus) {... */\n      swap2\n      pop\n      pop\n      jump\t// out\n        /* \"@openzeppelin/contracts-upgradeable@v4.9.0/access/OwnableUpgradeable.sol\":1104:1215  function __Ownable_init_unchained() internal onlyInitializing {... */\n    tag_528:\n        /* \"@openzeppelin/contracts-upgradeable@v4.9.0/proxy/utils/Initializable.sol\":5374:5387  _initializing */\n      sload(0x00)\n      0x0100\n      swap1\n      div\n      0xff\n      and\n        /* \"@openzeppelin/contracts-upgradeable@v4.9.0/proxy/utils/Initializable.sol\":5366:5435  require(_initializing, \"Initializable: contract is not initializing\") */\n      tag_536\n      jumpi\n      mload(0x40)\n      shl(0xe5, 0x461bcd)\n      dup2\n      mstore\n      0x04\n      add\n      tag_303\n      swap1\n      tag_525\n      jump\t// in\n    tag_536:\n        /* \"@openzeppelin/contracts-upgradeable@v4.9.0/access/OwnableUpgradeable.sol\":1176:1208  _transferOwnership(_msgSender()) */\n      tag_210\n        /* \"@openzeppelin/contracts-upgradeable@v4.9.0/utils/ContextUpgradeable.sol\":929:939  msg.sender */\n      caller\n        /* \"@openzeppelin/contracts-upgradeable@v4.9.0/access/OwnableUpgradeable.sol\":1176:1194  _transferOwnership */\n      tag_211\n        /* \"@openzeppelin/contracts-upgradeable@v4.9.0/access/OwnableUpgradeable.sol\":1176:1208  _transferOwnership(_msgSender()) */\n      jump\t// in\n    tag_194:\n      0x40\n      dup1\n      mload\n      0x01e0\n      dup2\n      add\n      dup3\n      mstore\n      0x00\n      dup1\n      dup3\n      mstore\n      0x20\n      dup3\n      add\n      dup2\n      swap1\n      mstore\n      swap2\n      dup2\n      add\n      dup3\n      swap1\n      mstore\n      0x60\n      dup2\n      add\n      dup3\n      swap1\n      mstore\n      0x80\n      dup2\n      add\n      dup3\n      swap1\n      mstore\n      0xa0\n      dup2\n      add\n      dup3\n      swap1\n      mstore\n      0xc0\n      dup2\n      add\n      dup3\n      swap1\n      mstore\n      0xe0\n      dup2\n      add\n      dup3\n      swap1\n      mstore\n      swap1\n      0x0100\n      dup3\n      add\n      swap1\n      dup2\n      mstore\n      0x20\n      add\n      0x60\n      dup2\n      mstore\n      0x20\n      add\n      0x00\n      dup2\n      mstore\n      0x20\n      add\n      0x00\n      dup2\n      mstore\n      0x20\n      add\n      0x00\n      dup2\n      mstore\n      0x20\n      add\n      0x00\n      dup1\n      not\n      and\n      dup2\n      mstore\n      0x20\n      add\n      0x00\n      dup2\n      mstore\n      pop\n      swap1\n      jump\t// out\n        /* \"#utility.yul\":710:1085   */\n    tag_544:\n        /* \"#utility.yul\":781:789   */\n      0x00\n        /* \"#utility.yul\":791:797   */\n      dup1\n        /* \"#utility.yul\":845:848   */\n      dup4\n        /* \"#utility.yul\":838:842   */\n      0x1f\n        /* \"#utility.yul\":830:836   */\n      dup5\n        /* \"#utility.yul\":826:843   */\n      add\n        /* \"#utility.yul\":822:849   */\n      slt\n        /* \"#utility.yul\":812:867   */\n      tag_563\n      jumpi\n        /* \"#utility.yul\":863:864   */\n      0x00\n        /* \"#utility.yul\":860:861   */\n      dup1\n        /* \"#utility.yul\":853:865   */\n      revert\n        /* \"#utility.yul\":812:867   */\n    tag_563:\n      pop\n        /* \"#utility.yul\":886:906   */\n      dup2\n      calldataload\n        /* \"#utility.yul\":929:947   */\n      0xffffffffffffffff\n        /* \"#utility.yul\":918:948   */\n      dup2\n      gt\n        /* \"#utility.yul\":915:965   */\n      iszero\n      tag_564\n      jumpi\n        /* \"#utility.yul\":961:962   */\n      0x00\n        /* \"#utility.yul\":958:959   */\n      dup1\n        /* \"#utility.yul\":951:963   */\n      revert\n        /* \"#utility.yul\":915:965   */\n    tag_564:\n        /* \"#utility.yul\":998:1002   */\n      0x20\n        /* \"#utility.yul\":990:996   */\n      dup4\n        /* \"#utility.yul\":986:1003   */\n      add\n        /* \"#utility.yul\":974:1003   */\n      swap2\n      pop\n        /* \"#utility.yul\":1058:1061   */\n      dup4\n        /* \"#utility.yul\":1051:1055   */\n      0x20\n        /* \"#utility.yul\":1041:1047   */\n      dup3\n        /* \"#utility.yul\":1038:1039   */\n      0x05\n        /* \"#utility.yul\":1034:1048   */\n      shl\n        /* \"#utility.yul\":1026:1032   */\n      dup6\n        /* \"#utility.yul\":1022:1049   */\n      add\n        /* \"#utility.yul\":1018:1056   */\n      add\n        /* \"#utility.yul\":1015:1062   */\n      gt\n        /* \"#utility.yul\":1012:1079   */\n      iszero\n      tag_349\n      jumpi\n        /* \"#utility.yul\":1075:1076   */\n      0x00\n        /* \"#utility.yul\":1072:1073   */\n      dup1\n        /* \"#utility.yul\":1065:1077   */\n      revert\n        /* \"#utility.yul\":1090:1547   */\n    tag_56:\n        /* \"#utility.yul\":1188:1194   */\n      0x00\n        /* \"#utility.yul\":1196:1202   */\n      dup1\n        /* \"#utility.yul\":1249:1251   */\n      0x20\n        /* \"#utility.yul\":1237:1246   */\n      dup4\n        /* \"#utility.yul\":1228:1235   */\n      dup6\n        /* \"#utility.yul\":1224:1247   */\n      sub\n        /* \"#utility.yul\":1220:1252   */\n      slt\n        /* \"#utility.yul\":1217:1269   */\n      iszero\n      tag_567\n      jumpi\n        /* \"#utility.yul\":1265:1266   */\n      0x00\n        /* \"#utility.yul\":1262:1263   */\n      dup1\n        /* \"#utility.yul\":1255:1267   */\n      revert\n        /* \"#utility.yul\":1217:1269   */\n    tag_567:\n        /* \"#utility.yul\":1305:1314   */\n      dup3\n        /* \"#utility.yul\":1292:1315   */\n      calldataload\n        /* \"#utility.yul\":1338:1356   */\n      0xffffffffffffffff\n        /* \"#utility.yul\":1330:1336   */\n      dup2\n        /* \"#utility.yul\":1327:1357   */\n      gt\n        /* \"#utility.yul\":1324:1374   */\n      iszero\n      tag_568\n      jumpi\n        /* \"#utility.yul\":1370:1371   */\n      0x00\n        /* \"#utility.yul\":1367:1368   */\n      dup1\n        /* \"#utility.yul\":1360:1372   */\n      revert\n        /* \"#utility.yul\":1324:1374   */\n    tag_568:\n        /* \"#utility.yul\":1409:1487   */\n      tag_569\n        /* \"#utility.yul\":1479:1486   */\n      dup6\n        /* \"#utility.yul\":1470:1476   */\n      dup3\n        /* \"#utility.yul\":1459:1468   */\n      dup7\n        /* \"#utility.yul\":1455:1477   */\n      add\n        /* \"#utility.yul\":1409:1487   */\n      tag_544\n      jump\t// in\n    tag_569:\n        /* \"#utility.yul\":1506:1514   */\n      swap1\n      swap7\n        /* \"#utility.yul\":1383:1487   */\n      swap1\n      swap6\n      pop\n        /* \"#utility.yul\":1090:1547   */\n      swap4\n      pop\n      pop\n      pop\n      pop\n      jump\t// out\n        /* \"#utility.yul\":1552:2194   */\n    tag_59:\n        /* \"#utility.yul\":1717:1719   */\n      0x20\n        /* \"#utility.yul\":1769:1790   */\n      dup1\n      dup3\n      mstore\n        /* \"#utility.yul\":1839:1852   */\n      dup3\n      mload\n        /* \"#utility.yul\":1742:1760   */\n      dup3\n      dup3\n      add\n        /* \"#utility.yul\":1861:1883   */\n      dup2\n      swap1\n      mstore\n        /* \"#utility.yul\":1688:1692   */\n      0x00\n      swap2\n        /* \"#utility.yul\":1717:1719   */\n      swap1\n        /* \"#utility.yul\":1940:1955   */\n      dup5\n      dup3\n      add\n      swap1\n        /* \"#utility.yul\":1914:1916   */\n      0x40\n        /* \"#utility.yul\":1899:1917   */\n      dup6\n      add\n      swap1\n        /* \"#utility.yul\":1688:1692   */\n      dup5\n        /* \"#utility.yul\":1983:2168   */\n    tag_571:\n        /* \"#utility.yul\":1997:2003   */\n      dup2\n        /* \"#utility.yul\":1994:1995   */\n      dup2\n        /* \"#utility.yul\":1991:2004   */\n      lt\n        /* \"#utility.yul\":1983:2168   */\n      iszero\n      tag_573\n      jumpi\n        /* \"#utility.yul\":2072:2085   */\n      dup4\n      mload\n        /* \"#utility.yul\":2065:2086   */\n      iszero\n        /* \"#utility.yul\":2058:2087   */\n      iszero\n        /* \"#utility.yul\":2046:2088   */\n      dup4\n      mstore\n        /* \"#utility.yul\":2143:2158   */\n      swap3\n      dup5\n      add\n      swap3\n        /* \"#utility.yul\":2108:2120   */\n      swap2\n      dup5\n      add\n      swap2\n        /* \"#utility.yul\":2019:2020   */\n      0x01\n        /* \"#utility.yul\":2012:2021   */\n      add\n        /* \"#utility.yul\":1983:2168   */\n      jump(tag_571)\n    tag_573:\n      pop\n        /* \"#utility.yul\":2185:2188   */\n      swap1\n      swap7\n        /* \"#utility.yul\":1552:2194   */\n      swap6\n      pop\n      pop\n      pop\n      pop\n      pop\n      pop\n      jump\t// out\n        /* \"#utility.yul\":2424:2604   */\n    tag_78:\n        /* \"#utility.yul\":2483:2489   */\n      0x00\n        /* \"#utility.yul\":2536:2538   */\n      0x20\n        /* \"#utility.yul\":2524:2533   */\n      dup3\n        /* \"#utility.yul\":2515:2522   */\n      dup5\n        /* \"#utility.yul\":2511:2534   */\n      sub\n        /* \"#utility.yul\":2507:2539   */\n      slt\n        /* \"#utility.yul\":2504:2556   */\n      iszero\n      tag_576\n      jumpi\n        /* \"#utility.yul\":2552:2553   */\n      0x00\n        /* \"#utility.yul\":2549:2550   */\n      dup1\n        /* \"#utility.yul\":2542:2554   */\n      revert\n        /* \"#utility.yul\":2504:2556   */\n    tag_576:\n      pop\n        /* \"#utility.yul\":2575:2598   */\n      calldataload\n      swap2\n        /* \"#utility.yul\":2424:2604   */\n      swap1\n      pop\n      jump\t// out\n        /* \"#utility.yul\":2609:2736   */\n    tag_183:\n        /* \"#utility.yul\":2670:2680   */\n      0x4e487b71\n        /* \"#utility.yul\":2665:2668   */\n      0xe0\n        /* \"#utility.yul\":2661:2681   */\n      shl\n        /* \"#utility.yul\":2658:2659   */\n      0x00\n        /* \"#utility.yul\":2651:2682   */\n      mstore\n        /* \"#utility.yul\":2701:2705   */\n      0x21\n        /* \"#utility.yul\":2698:2699   */\n      0x04\n        /* \"#utility.yul\":2691:2706   */\n      mstore\n        /* \"#utility.yul\":2725:2729   */\n      0x24\n        /* \"#utility.yul\":2722:2723   */\n      0x00\n        /* \"#utility.yul\":2715:2730   */\n      revert\n        /* \"#utility.yul\":2741:2982   */\n    tag_545:\n        /* \"#utility.yul\":2826:2827   */\n      0x04\n        /* \"#utility.yul\":2819:2824   */\n      dup2\n        /* \"#utility.yul\":2816:2828   */\n      lt\n        /* \"#utility.yul\":2806:2949   */\n      tag_579\n      jumpi\n        /* \"#utility.yul\":2871:2881   */\n      0x4e487b71\n        /* \"#utility.yul\":2866:2869   */\n      0xe0\n        /* \"#utility.yul\":2862:2882   */\n      shl\n        /* \"#utility.yul\":2859:2860   */\n      0x00\n        /* \"#utility.yul\":2852:2883   */\n      mstore\n        /* \"#utility.yul\":2906:2910   */\n      0x21\n        /* \"#utility.yul\":2903:2904   */\n      0x04\n        /* \"#utility.yul\":2896:2911   */\n      mstore\n        /* \"#utility.yul\":2934:2938   */\n      0x24\n        /* \"#utility.yul\":2931:2932   */\n      0x00\n        /* \"#utility.yul\":2924:2939   */\n      revert\n        /* \"#utility.yul\":2806:2949   */\n    tag_579:\n        /* \"#utility.yul\":2958:2976   */\n      swap1\n      mstore\n        /* \"#utility.yul\":2741:2982   */\n      jump\t// out\n        /* \"#utility.yul\":2987:3410   */\n    tag_546:\n        /* \"#utility.yul\":3029:3032   */\n      0x00\n        /* \"#utility.yul\":3067:3072   */\n      dup2\n        /* \"#utility.yul\":3061:3073   */\n      mload\n        /* \"#utility.yul\":3094:3100   */\n      dup1\n        /* \"#utility.yul\":3089:3092   */\n      dup5\n        /* \"#utility.yul\":3082:3101   */\n      mstore\n        /* \"#utility.yul\":3119:3120   */\n      0x00\n        /* \"#utility.yul\":3129:3291   */\n    tag_581:\n        /* \"#utility.yul\":3143:3149   */\n      dup2\n        /* \"#utility.yul\":3140:3141   */\n      dup2\n        /* \"#utility.yul\":3137:3150   */\n      lt\n        /* \"#utility.yul\":3129:3291   */\n      iszero\n      tag_583\n      jumpi\n        /* \"#utility.yul\":3205:3209   */\n      0x20\n        /* \"#utility.yul\":3261:3274   */\n      dup2\n      dup6\n      add\n        /* \"#utility.yul\":3257:3279   */\n      dup2\n      add\n        /* \"#utility.yul\":3251:3280   */\n      mload\n        /* \"#utility.yul\":3233:3244   */\n      dup7\n      dup4\n      add\n        /* \"#utility.yul\":3229:3249   */\n      dup3\n      add\n        /* \"#utility.yul\":3222:3281   */\n      mstore\n        /* \"#utility.yul\":3158:3170   */\n      add\n        /* \"#utility.yul\":3129:3291   */\n      jump(tag_581)\n    tag_583:\n        /* \"#utility.yul\":3133:3136   */\n      pop\n        /* \"#utility.yul\":3336:3337   */\n      0x00\n        /* \"#utility.yul\":3329:3333   */\n      0x20\n        /* \"#utility.yul\":3320:3326   */\n      dup3\n        /* \"#utility.yul\":3315:3318   */\n      dup7\n        /* \"#utility.yul\":3311:3327   */\n      add\n        /* \"#utility.yul\":3307:3334   */\n      add\n        /* \"#utility.yul\":3300:3338   */\n      mstore\n        /* \"#utility.yul\":3399:3403   */\n      0x20\n        /* \"#utility.yul\":3392:3394   */\n      0x1f\n        /* \"#utility.yul\":3388:3395   */\n      not\n        /* \"#utility.yul\":3383:3385   */\n      0x1f\n        /* \"#utility.yul\":3375:3381   */\n      dup4\n        /* \"#utility.yul\":3371:3386   */\n      add\n        /* \"#utility.yul\":3367:3396   */\n      and\n        /* \"#utility.yul\":3362:3365   */\n      dup6\n        /* \"#utility.yul\":3358:3397   */\n      add\n        /* \"#utility.yul\":3354:3404   */\n      add\n        /* \"#utility.yul\":3347:3404   */\n      swap2\n      pop\n      pop\n        /* \"#utility.yul\":2987:3410   */\n      swap3\n      swap2\n      pop\n      pop\n      jump\t// out\n        /* \"#utility.yul\":3415:4728   */\n    tag_547:\n        /* \"#utility.yul\":3531:3543   */\n      dup1\n      mload\n      sub(shl(0xa0, 0x01), 0x01)\n        /* \"#utility.yul\":459:490   */\n      and\n        /* \"#utility.yul\":447:491   */\n      dup3\n      mstore\n        /* \"#utility.yul\":3469:3472   */\n      0x00\n        /* \"#utility.yul\":3497:3503   */\n      0x01e0\n        /* \"#utility.yul\":3598:3602   */\n      0x20\n        /* \"#utility.yul\":3591:3596   */\n      dup4\n        /* \"#utility.yul\":3587:3603   */\n      add\n        /* \"#utility.yul\":3581:3604   */\n      mload\n        /* \"#utility.yul\":3574:3578   */\n      0x20\n        /* \"#utility.yul\":3569:3572   */\n      dup6\n        /* \"#utility.yul\":3565:3579   */\n      add\n        /* \"#utility.yul\":3558:3605   */\n      mstore\n        /* \"#utility.yul\":3654:3658   */\n      0x40\n        /* \"#utility.yul\":3647:3652   */\n      dup4\n        /* \"#utility.yul\":3643:3659   */\n      add\n        /* \"#utility.yul\":3637:3660   */\n      mload\n        /* \"#utility.yul\":3630:3634   */\n      0x40\n        /* \"#utility.yul\":3625:3628   */\n      dup6\n        /* \"#utility.yul\":3621:3635   */\n      add\n        /* \"#utility.yul\":3614:3661   */\n      mstore\n        /* \"#utility.yul\":3710:3714   */\n      0x60\n        /* \"#utility.yul\":3703:3708   */\n      dup4\n        /* \"#utility.yul\":3699:3715   */\n      add\n        /* \"#utility.yul\":3693:3716   */\n      mload\n        /* \"#utility.yul\":3686:3690   */\n      0x60\n        /* \"#utility.yul\":3681:3684   */\n      dup6\n        /* \"#utility.yul\":3677:3691   */\n      add\n        /* \"#utility.yul\":3670:3717   */\n      mstore\n        /* \"#utility.yul\":3766:3770   */\n      0x80\n        /* \"#utility.yul\":3759:3764   */\n      dup4\n        /* \"#utility.yul\":3755:3771   */\n      add\n        /* \"#utility.yul\":3749:3772   */\n      mload\n        /* \"#utility.yul\":3742:3746   */\n      0x80\n        /* \"#utility.yul\":3737:3740   */\n      dup6\n        /* \"#utility.yul\":3733:3747   */\n      add\n        /* \"#utility.yul\":3726:3773   */\n      mstore\n        /* \"#utility.yul\":3822:3826   */\n      0xa0\n        /* \"#utility.yul\":3815:3820   */\n      dup4\n        /* \"#utility.yul\":3811:3827   */\n      add\n        /* \"#utility.yul\":3805:3828   */\n      mload\n        /* \"#utility.yul\":3798:3802   */\n      0xa0\n        /* \"#utility.yul\":3793:3796   */\n      dup6\n        /* \"#utility.yul\":3789:3803   */\n      add\n        /* \"#utility.yul\":3782:3829   */\n      mstore\n        /* \"#utility.yul\":3878:3882   */\n      0xc0\n        /* \"#utility.yul\":3871:3876   */\n      dup4\n        /* \"#utility.yul\":3867:3883   */\n      add\n        /* \"#utility.yul\":3861:3884   */\n      mload\n        /* \"#utility.yul\":3854:3858   */\n      0xc0\n        /* \"#utility.yul\":3849:3852   */\n      dup6\n        /* \"#utility.yul\":3845:3859   */\n      add\n        /* \"#utility.yul\":3838:3885   */\n      mstore\n        /* \"#utility.yul\":3931:3935   */\n      0xe0\n        /* \"#utility.yul\":3924:3929   */\n      dup4\n        /* \"#utility.yul\":3920:3936   */\n      add\n        /* \"#utility.yul\":3914:3937   */\n      mload\n        /* \"#utility.yul\":3946:3994   */\n      tag_586\n        /* \"#utility.yul\":3988:3992   */\n      0xe0\n        /* \"#utility.yul\":3983:3986   */\n      dup7\n        /* \"#utility.yul\":3979:3993   */\n      add\n        /* \"#utility.yul\":3965:3977   */\n      dup3\n      sub(shl(0xa0, 0x01), 0x01)\n        /* \"#utility.yul\":459:490   */\n      and\n        /* \"#utility.yul\":447:491   */\n      swap1\n      mstore\n        /* \"#utility.yul\":393:497   */\n      jump\n        /* \"#utility.yul\":3946:3994   */\n    tag_586:\n      pop\n        /* \"#utility.yul\":4013:4019   */\n      0x0100\n        /* \"#utility.yul\":4067:4069   */\n      dup1\n        /* \"#utility.yul\":4060:4065   */\n      dup5\n        /* \"#utility.yul\":4056:4070   */\n      add\n        /* \"#utility.yul\":4050:4071   */\n      mload\n        /* \"#utility.yul\":4080:4139   */\n      tag_587\n        /* \"#utility.yul\":4135:4137   */\n      dup3\n        /* \"#utility.yul\":4130:4133   */\n      dup8\n        /* \"#utility.yul\":4126:4138   */\n      add\n        /* \"#utility.yul\":4110:4124   */\n      dup3\n        /* \"#utility.yul\":4080:4139   */\n      tag_545\n      jump\t// in\n    tag_587:\n      pop\n      pop\n        /* \"#utility.yul\":4158:4164   */\n      0x0120\n        /* \"#utility.yul\":4212:4214   */\n      dup1\n        /* \"#utility.yul\":4205:4210   */\n      dup5\n        /* \"#utility.yul\":4201:4215   */\n      add\n        /* \"#utility.yul\":4195:4216   */\n      mload\n        /* \"#utility.yul\":4246:4248   */\n      dup3\n        /* \"#utility.yul\":4241:4243   */\n      dup3\n        /* \"#utility.yul\":4236:4239   */\n      dup8\n        /* \"#utility.yul\":4232:4244   */\n      add\n        /* \"#utility.yul\":4225:4249   */\n      mstore\n        /* \"#utility.yul\":4270:4317   */\n      tag_588\n        /* \"#utility.yul\":4313:4315   */\n      dup4\n        /* \"#utility.yul\":4308:4311   */\n      dup8\n        /* \"#utility.yul\":4304:4316   */\n      add\n        /* \"#utility.yul\":4288:4302   */\n      dup3\n        /* \"#utility.yul\":4270:4317   */\n      tag_546\n      jump\t// in\n    tag_588:\n        /* \"#utility.yul\":4336:4342   */\n      0x0140\n        /* \"#utility.yul\":4378:4392   */\n      dup7\n      dup2\n      add\n        /* \"#utility.yul\":4372:4393   */\n      mload\n        /* \"#utility.yul\":4358:4370   */\n      swap1\n      dup9\n      add\n        /* \"#utility.yul\":4351:4394   */\n      mstore\n        /* \"#utility.yul\":4413:4419   */\n      0x0160\n        /* \"#utility.yul\":4455:4469   */\n      dup1\n      dup8\n      add\n        /* \"#utility.yul\":4449:4470   */\n      mload\n        /* \"#utility.yul\":4435:4447   */\n      swap1\n      dup9\n      add\n        /* \"#utility.yul\":4428:4471   */\n      mstore\n        /* \"#utility.yul\":4490:4496   */\n      0x0180\n        /* \"#utility.yul\":4532:4546   */\n      dup1\n      dup8\n      add\n        /* \"#utility.yul\":4526:4547   */\n      mload\n        /* \"#utility.yul\":4512:4524   */\n      swap1\n      dup9\n      add\n        /* \"#utility.yul\":4505:4548   */\n      mstore\n        /* \"#utility.yul\":4567:4573   */\n      0x01a0\n        /* \"#utility.yul\":4609:4623   */\n      dup1\n      dup8\n      add\n        /* \"#utility.yul\":4603:4624   */\n      mload\n        /* \"#utility.yul\":4589:4601   */\n      swap1\n      dup9\n      add\n        /* \"#utility.yul\":4582:4625   */\n      mstore\n        /* \"#utility.yul\":4644:4650   */\n      0x01c0\n        /* \"#utility.yul\":4686:4700   */\n      swap6\n      dup7\n      add\n        /* \"#utility.yul\":4680:4701   */\n      mload\n        /* \"#utility.yul\":4666:4678   */\n      swap6\n      swap1\n      swap7\n      add\n        /* \"#utility.yul\":4659:4702   */\n      swap5\n      swap1\n      swap5\n      mstore\n      pop\n        /* \"#utility.yul\":4258:4317   */\n      swap3\n      swap4\n        /* \"#utility.yul\":3415:4728   */\n      swap3\n      pop\n      pop\n      pop\n      jump\t// out\n        /* \"#utility.yul\":4733:5001   */\n    tag_81:\n        /* \"#utility.yul\":4918:4920   */\n      0x20\n        /* \"#utility.yul\":4907:4916   */\n      dup2\n        /* \"#utility.yul\":4900:4921   */\n      mstore\n        /* \"#utility.yul\":4881:4885   */\n      0x00\n        /* \"#utility.yul\":4938:4995   */\n      tag_590\n        /* \"#utility.yul\":4991:4993   */\n      0x20\n        /* \"#utility.yul\":4980:4989   */\n      dup4\n        /* \"#utility.yul\":4976:4994   */\n      add\n        /* \"#utility.yul\":4968:4974   */\n      dup5\n        /* \"#utility.yul\":4938:4995   */\n      tag_547\n      jump\t// in\n    tag_590:\n        /* \"#utility.yul\":4930:4995   */\n      swap4\n        /* \"#utility.yul\":4733:5001   */\n      swap3\n      pop\n      pop\n      pop\n      jump\t// out\n        /* \"#utility.yul\":5006:5169   */\n    tag_548:\n        /* \"#utility.yul\":5073:5093   */\n      dup1\n      calldataload\n        /* \"#utility.yul\":5133:5143   */\n      0xffffffff\n        /* \"#utility.yul\":5122:5144   */\n      dup2\n      and\n        /* \"#utility.yul\":5112:5145   */\n      dup2\n      eq\n        /* \"#utility.yul\":5102:5163   */\n      tag_592\n      jumpi\n        /* \"#utility.yul\":5159:5160   */\n      0x00\n        /* \"#utility.yul\":5156:5157   */\n      dup1\n        /* \"#utility.yul\":5149:5161   */\n      revert\n        /* \"#utility.yul\":5102:5163   */\n    tag_592:\n        /* \"#utility.yul\":5006:5169   */\n      swap2\n      swap1\n      pop\n      jump\t// out\n        /* \"#utility.yul\":5174:5358   */\n    tag_86:\n        /* \"#utility.yul\":5232:5238   */\n      0x00\n        /* \"#utility.yul\":5285:5287   */\n      0x20\n        /* \"#utility.yul\":5273:5282   */\n      dup3\n        /* \"#utility.yul\":5264:5271   */\n      dup5\n        /* \"#utility.yul\":5260:5283   */\n      sub\n        /* \"#utility.yul\":5256:5288   */\n      slt\n        /* \"#utility.yul\":5253:5305   */\n      iszero\n      tag_594\n      jumpi\n        /* \"#utility.yul\":5301:5302   */\n      0x00\n        /* \"#utility.yul\":5298:5299   */\n      dup1\n        /* \"#utility.yul\":5291:5303   */\n      revert\n        /* \"#utility.yul\":5253:5305   */\n    tag_594:\n        /* \"#utility.yul\":5324:5352   */\n      tag_590\n        /* \"#utility.yul\":5342:5351   */\n      dup3\n        /* \"#utility.yul\":5324:5352   */\n      tag_548\n      jump\t// in\n        /* \"#utility.yul\":5363:6295   */\n    tag_89:\n        /* \"#utility.yul\":5583:5587   */\n      0x00\n        /* \"#utility.yul\":5631:5633   */\n      0x40\n        /* \"#utility.yul\":5620:5629   */\n      dup3\n        /* \"#utility.yul\":5616:5634   */\n      add\n        /* \"#utility.yul\":5675:5681   */\n      dup5\n        /* \"#utility.yul\":5668:5682   */\n      iszero\n        /* \"#utility.yul\":5661:5683   */\n      iszero\n        /* \"#utility.yul\":5650:5659   */\n      dup4\n        /* \"#utility.yul\":5643:5684   */\n      mstore\n        /* \"#utility.yul\":5703:5705   */\n      0x20\n        /* \"#utility.yul\":5741:5743   */\n      0x40\n        /* \"#utility.yul\":5736:5738   */\n      dup2\n        /* \"#utility.yul\":5725:5734   */\n      dup6\n        /* \"#utility.yul\":5721:5739   */\n      add\n        /* \"#utility.yul\":5714:5744   */\n      mstore\n        /* \"#utility.yul\":5764:5770   */\n      dup2\n        /* \"#utility.yul\":5799:5805   */\n      dup6\n        /* \"#utility.yul\":5793:5806   */\n      mload\n        /* \"#utility.yul\":5830:5836   */\n      dup1\n        /* \"#utility.yul\":5822:5828   */\n      dup5\n        /* \"#utility.yul\":5815:5837   */\n      mstore\n        /* \"#utility.yul\":5868:5870   */\n      0x60\n        /* \"#utility.yul\":5857:5866   */\n      dup7\n        /* \"#utility.yul\":5853:5871   */\n      add\n        /* \"#utility.yul\":5846:5871   */\n      swap2\n      pop\n        /* \"#utility.yul\":5930:5932   */\n      0x60\n        /* \"#utility.yul\":5920:5926   */\n      dup2\n        /* \"#utility.yul\":5917:5918   */\n      0x05\n        /* \"#utility.yul\":5913:5927   */\n      shl\n        /* \"#utility.yul\":5902:5911   */\n      dup8\n        /* \"#utility.yul\":5898:5928   */\n      add\n        /* \"#utility.yul\":5894:5933   */\n      add\n        /* \"#utility.yul\":5880:5933   */\n      swap4\n      pop\n        /* \"#utility.yul\":5968:5970   */\n      dup3\n        /* \"#utility.yul\":5960:5966   */\n      dup8\n        /* \"#utility.yul\":5956:5971   */\n      add\n        /* \"#utility.yul\":5989:5990   */\n      0x00\n        /* \"#utility.yul\":5999:6266   */\n    tag_597:\n        /* \"#utility.yul\":6013:6019   */\n      dup3\n        /* \"#utility.yul\":6010:6011   */\n      dup2\n        /* \"#utility.yul\":6007:6020   */\n      lt\n        /* \"#utility.yul\":5999:6266   */\n      iszero\n      tag_599\n      jumpi\n        /* \"#utility.yul\":6106:6108   */\n      0x5f\n        /* \"#utility.yul\":6102:6109   */\n      not\n        /* \"#utility.yul\":6090:6099   */\n      dup9\n        /* \"#utility.yul\":6082:6088   */\n      dup8\n        /* \"#utility.yul\":6078:6100   */\n      sub\n        /* \"#utility.yul\":6074:6110   */\n      add\n        /* \"#utility.yul\":6069:6072   */\n      dup5\n        /* \"#utility.yul\":6062:6111   */\n      mstore\n        /* \"#utility.yul\":6134:6186   */\n      tag_600\n        /* \"#utility.yul\":6179:6185   */\n      dup7\n        /* \"#utility.yul\":6170:6176   */\n      dup4\n        /* \"#utility.yul\":6164:6177   */\n      mload\n        /* \"#utility.yul\":6134:6186   */\n      tag_547\n      jump\t// in\n    tag_600:\n        /* \"#utility.yul\":6124:6186   */\n      swap6\n      pop\n        /* \"#utility.yul\":6244:6256   */\n      swap3\n      dup5\n      add\n      swap3\n        /* \"#utility.yul\":6209:6224   */\n      swap1\n      dup5\n      add\n      swap1\n        /* \"#utility.yul\":6035:6036   */\n      0x01\n        /* \"#utility.yul\":6028:6037   */\n      add\n        /* \"#utility.yul\":5999:6266   */\n      jump(tag_597)\n    tag_599:\n      pop\n        /* \"#utility.yul\":6283:6289   */\n      swap4\n      swap9\n        /* \"#utility.yul\":5363:6295   */\n      swap8\n      pop\n      pop\n      pop\n      pop\n      pop\n      pop\n      pop\n      pop\n      jump\t// out\n        /* \"#utility.yul\":6300:6473   */\n    tag_549:\n        /* \"#utility.yul\":6368:6388   */\n      dup1\n      calldataload\n      sub(shl(0xa0, 0x01), 0x01)\n        /* \"#utility.yul\":6417:6448   */\n      dup2\n      and\n        /* \"#utility.yul\":6407:6449   */\n      dup2\n      eq\n        /* \"#utility.yul\":6397:6467   */\n      tag_592\n      jumpi\n        /* \"#utility.yul\":6463:6464   */\n      0x00\n        /* \"#utility.yul\":6460:6461   */\n      dup1\n        /* \"#utility.yul\":6453:6465   */\n      revert\n        /* \"#utility.yul\":6478:6596   */\n    tag_550:\n        /* \"#utility.yul\":6564:6569   */\n      dup1\n        /* \"#utility.yul\":6557:6570   */\n      iszero\n        /* \"#utility.yul\":6550:6571   */\n      iszero\n        /* \"#utility.yul\":6543:6548   */\n      dup2\n        /* \"#utility.yul\":6540:6572   */\n      eq\n        /* \"#utility.yul\":6530:6590   */\n      tag_462\n      jumpi\n        /* \"#utility.yul\":6586:6587   */\n      0x00\n        /* \"#utility.yul\":6583:6584   */\n      dup1\n        /* \"#utility.yul\":6576:6588   */\n      revert\n        /* \"#utility.yul\":6601:7598   */\n    tag_101:\n        /* \"#utility.yul\":6735:6741   */\n      0x00\n        /* \"#utility.yul\":6743:6749   */\n      dup1\n        /* \"#utility.yul\":6751:6757   */\n      0x00\n        /* \"#utility.yul\":6759:6765   */\n      dup1\n        /* \"#utility.yul\":6767:6773   */\n      0x00\n        /* \"#utility.yul\":6775:6781   */\n      dup1\n        /* \"#utility.yul\":6783:6789   */\n      0x00\n        /* \"#utility.yul\":6791:6797   */\n      dup1\n        /* \"#utility.yul\":6844:6847   */\n      0xe0\n        /* \"#utility.yul\":6832:6841   */\n      dup10\n        /* \"#utility.yul\":6823:6830   */\n      dup12\n        /* \"#utility.yul\":6819:6842   */\n      sub\n        /* \"#utility.yul\":6815:6848   */\n      slt\n        /* \"#utility.yul\":6812:6865   */\n      iszero\n      tag_606\n      jumpi\n        /* \"#utility.yul\":6861:6862   */\n      0x00\n        /* \"#utility.yul\":6858:6859   */\n      dup1\n        /* \"#utility.yul\":6851:6863   */\n      revert\n        /* \"#utility.yul\":6812:6865   */\n    tag_606:\n        /* \"#utility.yul\":6884:6913   */\n      tag_607\n        /* \"#utility.yul\":6903:6912   */\n      dup10\n        /* \"#utility.yul\":6884:6913   */\n      tag_549\n      jump\t// in\n    tag_607:\n        /* \"#utility.yul\":6874:6913   */\n      swap8\n      pop\n        /* \"#utility.yul\":6960:6962   */\n      0x20\n        /* \"#utility.yul\":6949:6958   */\n      dup10\n        /* \"#utility.yul\":6945:6963   */\n      add\n        /* \"#utility.yul\":6932:6964   */\n      calldataload\n        /* \"#utility.yul\":6922:6964   */\n      swap7\n      pop\n        /* \"#utility.yul\":7011:7013   */\n      0x40\n        /* \"#utility.yul\":7000:7009   */\n      dup10\n        /* \"#utility.yul\":6996:7014   */\n      add\n        /* \"#utility.yul\":6983:7015   */\n      calldataload\n        /* \"#utility.yul\":6973:7015   */\n      swap6\n      pop\n        /* \"#utility.yul\":7065:7067   */\n      0x60\n        /* \"#utility.yul\":7054:7063   */\n      dup10\n        /* \"#utility.yul\":7050:7068   */\n      add\n        /* \"#utility.yul\":7037:7069   */\n      calldataload\n        /* \"#utility.yul\":7078:7106   */\n      tag_608\n        /* \"#utility.yul\":7100:7105   */\n      dup2\n        /* \"#utility.yul\":7078:7106   */\n      tag_550\n      jump\t// in\n    tag_608:\n        /* \"#utility.yul\":7125:7130   */\n      swap5\n      pop\n        /* \"#utility.yul\":7181:7184   */\n      0x80\n        /* \"#utility.yul\":7166:7185   */\n      dup10\n      add\n        /* \"#utility.yul\":7153:7186   */\n      calldataload\n        /* \"#utility.yul\":7209:7227   */\n      0xffffffffffffffff\n        /* \"#utility.yul\":7198:7228   */\n      dup2\n      gt\n        /* \"#utility.yul\":7195:7245   */\n      iszero\n      tag_609\n      jumpi\n        /* \"#utility.yul\":7241:7242   */\n      0x00\n        /* \"#utility.yul\":7238:7239   */\n      dup1\n        /* \"#utility.yul\":7231:7243   */\n      revert\n        /* \"#utility.yul\":7195:7245   */\n    tag_609:\n        /* \"#utility.yul\":7280:7358   */\n      tag_610\n        /* \"#utility.yul\":7350:7357   */\n      dup12\n        /* \"#utility.yul\":7341:7347   */\n      dup3\n        /* \"#utility.yul\":7330:7339   */\n      dup13\n        /* \"#utility.yul\":7326:7348   */\n      add\n        /* \"#utility.yul\":7280:7358   */\n      tag_544\n      jump\t// in\n    tag_610:\n        /* \"#utility.yul\":7377:7385   */\n      swap1\n      swap6\n      pop\n        /* \"#utility.yul\":7254:7358   */\n      swap4\n      pop\n      pop\n        /* \"#utility.yul\":7464:7467   */\n      0xa0\n        /* \"#utility.yul\":7449:7468   */\n      dup10\n      add\n        /* \"#utility.yul\":7436:7469   */\n      calldataload\n        /* \"#utility.yul\":7478:7508   */\n      tag_611\n        /* \"#utility.yul\":7436:7469   */\n      dup2\n        /* \"#utility.yul\":7478:7508   */\n      tag_550\n      jump\t// in\n    tag_611:\n        /* \"#utility.yul\":7527:7534   */\n      swap2\n      pop\n        /* \"#utility.yul\":7553:7592   */\n      tag_612\n        /* \"#utility.yul\":7587:7590   */\n      0xc0\n        /* \"#utility.yul\":7572:7591   */\n      dup11\n      add\n        /* \"#utility.yul\":7553:7592   */\n      tag_549\n      jump\t// in\n    tag_612:\n        /* \"#utility.yul\":7543:7592   */\n      swap1\n      pop\n        /* \"#utility.yul\":6601:7598   */\n      swap3\n      swap6\n      swap9\n      pop\n      swap3\n      swap6\n      swap9\n      swap1\n      swap4\n      swap7\n      pop\n      jump\t// out\n        /* \"#utility.yul\":7603:8235   */\n    tag_104:\n        /* \"#utility.yul\":7774:7776   */\n      0x20\n        /* \"#utility.yul\":7826:7847   */\n      dup1\n      dup3\n      mstore\n        /* \"#utility.yul\":7896:7909   */\n      dup3\n      mload\n        /* \"#utility.yul\":7799:7817   */\n      dup3\n      dup3\n      add\n        /* \"#utility.yul\":7918:7940   */\n      dup2\n      swap1\n      mstore\n        /* \"#utility.yul\":7745:7749   */\n      0x00\n      swap2\n        /* \"#utility.yul\":7774:7776   */\n      swap1\n        /* \"#utility.yul\":7997:8012   */\n      dup5\n      dup3\n      add\n      swap1\n        /* \"#utility.yul\":7971:7973   */\n      0x40\n        /* \"#utility.yul\":7956:7974   */\n      dup6\n      add\n      swap1\n        /* \"#utility.yul\":7745:7749   */\n      dup5\n        /* \"#utility.yul\":8040:8209   */\n    tag_614:\n        /* \"#utility.yul\":8054:8060   */\n      dup2\n        /* \"#utility.yul\":8051:8052   */\n      dup2\n        /* \"#utility.yul\":8048:8061   */\n      lt\n        /* \"#utility.yul\":8040:8209   */\n      iszero\n      tag_573\n      jumpi\n        /* \"#utility.yul\":8115:8128   */\n      dup4\n      mload\n        /* \"#utility.yul\":8103:8129   */\n      dup4\n      mstore\n        /* \"#utility.yul\":8184:8199   */\n      swap3\n      dup5\n      add\n      swap3\n        /* \"#utility.yul\":8149:8161   */\n      swap2\n      dup5\n      add\n      swap2\n        /* \"#utility.yul\":8076:8077   */\n      0x01\n        /* \"#utility.yul\":8069:8078   */\n      add\n        /* \"#utility.yul\":8040:8209   */\n      jump(tag_614)\n        /* \"#utility.yul\":8240:8494   */\n    tag_110:\n        /* \"#utility.yul\":8308:8314   */\n      0x00\n        /* \"#utility.yul\":8316:8322   */\n      dup1\n        /* \"#utility.yul\":8369:8371   */\n      0x40\n        /* \"#utility.yul\":8357:8366   */\n      dup4\n        /* \"#utility.yul\":8348:8355   */\n      dup6\n        /* \"#utility.yul\":8344:8367   */\n      sub\n        /* \"#utility.yul\":8340:8372   */\n      slt\n        /* \"#utility.yul\":8337:8389   */\n      iszero\n      tag_618\n      jumpi\n        /* \"#utility.yul\":8385:8386   */\n      0x00\n        /* \"#utility.yul\":8382:8383   */\n      dup1\n        /* \"#utility.yul\":8375:8387   */\n      revert\n        /* \"#utility.yul\":8337:8389   */\n    tag_618:\n        /* \"#utility.yul\":8408:8437   */\n      tag_619\n        /* \"#utility.yul\":8427:8436   */\n      dup4\n        /* \"#utility.yul\":8408:8437   */\n      tag_549\n      jump\t// in\n    tag_619:\n        /* \"#utility.yul\":8398:8437   */\n      swap5\n        /* \"#utility.yul\":8484:8486   */\n      0x20\n        /* \"#utility.yul\":8469:8487   */\n      swap4\n      swap1\n      swap4\n      add\n        /* \"#utility.yul\":8456:8488   */\n      calldataload\n      swap4\n      pop\n      pop\n      pop\n        /* \"#utility.yul\":8240:8494   */\n      jump\t// out\n        /* \"#utility.yul\":8691:8877   */\n    tag_116:\n        /* \"#utility.yul\":8750:8756   */\n      0x00\n        /* \"#utility.yul\":8803:8805   */\n      0x20\n        /* \"#utility.yul\":8791:8800   */\n      dup3\n        /* \"#utility.yul\":8782:8789   */\n      dup5\n        /* \"#utility.yul\":8778:8801   */\n      sub\n        /* \"#utility.yul\":8774:8806   */\n      slt\n        /* \"#utility.yul\":8771:8823   */\n      iszero\n      tag_622\n      jumpi\n        /* \"#utility.yul\":8819:8820   */\n      0x00\n        /* \"#utility.yul\":8816:8817   */\n      dup1\n        /* \"#utility.yul\":8809:8821   */\n      revert\n        /* \"#utility.yul\":8771:8823   */\n    tag_622:\n        /* \"#utility.yul\":8842:8871   */\n      tag_590\n        /* \"#utility.yul\":8861:8870   */\n      dup3\n        /* \"#utility.yul\":8842:8871   */\n      tag_549\n      jump\t// in\n        /* \"#utility.yul\":8882:9140   */\n    tag_123:\n        /* \"#utility.yul\":8949:8955   */\n      0x00\n        /* \"#utility.yul\":8957:8963   */\n      dup1\n        /* \"#utility.yul\":9010:9012   */\n      0x40\n        /* \"#utility.yul\":8998:9007   */\n      dup4\n        /* \"#utility.yul\":8989:8996   */\n      dup6\n        /* \"#utility.yul\":8985:9008   */\n      sub\n        /* \"#utility.yul\":8981:9013   */\n      slt\n        /* \"#utility.yul\":8978:9030   */\n      iszero\n      tag_625\n      jumpi\n        /* \"#utility.yul\":9026:9027   */\n      0x00\n        /* \"#utility.yul\":9023:9024   */\n      dup1\n        /* \"#utility.yul\":9016:9028   */\n      revert\n        /* \"#utility.yul\":8978:9030   */\n    tag_625:\n        /* \"#utility.yul\":9049:9077   */\n      tag_626\n        /* \"#utility.yul\":9067:9076   */\n      dup4\n        /* \"#utility.yul\":9049:9077   */\n      tag_548\n      jump\t// in\n    tag_626:\n        /* \"#utility.yul\":9039:9077   */\n      swap2\n      pop\n        /* \"#utility.yul\":9096:9134   */\n      tag_627\n        /* \"#utility.yul\":9130:9132   */\n      0x20\n        /* \"#utility.yul\":9119:9128   */\n      dup5\n        /* \"#utility.yul\":9115:9133   */\n      add\n        /* \"#utility.yul\":9096:9134   */\n      tag_549\n      jump\t// in\n    tag_627:\n        /* \"#utility.yul\":9086:9134   */\n      swap1\n      pop\n        /* \"#utility.yul\":8882:9140   */\n      swap3\n      pop\n      swap3\n      swap1\n      pop\n      jump\t// out\n        /* \"#utility.yul\":9330:10007   */\n    tag_144:\n        /* \"#utility.yul\":9629:9635   */\n      dup7\n        /* \"#utility.yul\":9618:9627   */\n      dup2\n        /* \"#utility.yul\":9611:9636   */\n      mstore\n        /* \"#utility.yul\":9672:9675   */\n      0xc0\n        /* \"#utility.yul\":9667:9669   */\n      0x20\n        /* \"#utility.yul\":9656:9665   */\n      dup3\n        /* \"#utility.yul\":9652:9670   */\n      add\n        /* \"#utility.yul\":9645:9676   */\n      mstore\n        /* \"#utility.yul\":9592:9596   */\n      0x00\n        /* \"#utility.yul\":9699:9745   */\n      tag_631\n        /* \"#utility.yul\":9740:9743   */\n      0xc0\n        /* \"#utility.yul\":9729:9738   */\n      dup4\n        /* \"#utility.yul\":9725:9744   */\n      add\n        /* \"#utility.yul\":9717:9723   */\n      dup9\n        /* \"#utility.yul\":9699:9745   */\n      tag_546\n      jump\t// in\n    tag_631:\n        /* \"#utility.yul\":9781:9787   */\n      dup7\n        /* \"#utility.yul\":9776:9778   */\n      0x40\n        /* \"#utility.yul\":9765:9774   */\n      dup5\n        /* \"#utility.yul\":9761:9779   */\n      add\n        /* \"#utility.yul\":9754:9788   */\n      mstore\n        /* \"#utility.yul\":9824:9830   */\n      dup6\n        /* \"#utility.yul\":9819:9821   */\n      0x60\n        /* \"#utility.yul\":9808:9817   */\n      dup5\n        /* \"#utility.yul\":9804:9822   */\n      add\n        /* \"#utility.yul\":9797:9831   */\n      mstore\n        /* \"#utility.yul\":9880:9889   */\n      dup3\n        /* \"#utility.yul\":9872:9878   */\n      dup2\n        /* \"#utility.yul\":9868:9890   */\n      sub\n        /* \"#utility.yul\":9862:9865   */\n      0x80\n        /* \"#utility.yul\":9851:9860   */\n      dup5\n        /* \"#utility.yul\":9847:9866   */\n      add\n        /* \"#utility.yul\":9840:9891   */\n      mstore\n        /* \"#utility.yul\":9908:9941   */\n      tag_632\n        /* \"#utility.yul\":9934:9940   */\n      dup2\n        /* \"#utility.yul\":9926:9932   */\n      dup7\n        /* \"#utility.yul\":9908:9941   */\n      tag_546\n      jump\t// in\n    tag_632:\n        /* \"#utility.yul\":9900:9941   */\n      swap2\n      pop\n      pop\n        /* \"#utility.yul\":9992:9998   */\n      dup3\n        /* \"#utility.yul\":9985:9999   */\n      iszero\n        /* \"#utility.yul\":9978:10000   */\n      iszero\n        /* \"#utility.yul\":9972:9975   */\n      0xa0\n        /* \"#utility.yul\":9961:9970   */\n      dup4\n        /* \"#utility.yul\":9957:9976   */\n      add\n        /* \"#utility.yul\":9950:10001   */\n      mstore\n        /* \"#utility.yul\":9330:10007   */\n      swap8\n      swap7\n      pop\n      pop\n      pop\n      pop\n      pop\n      pop\n      pop\n      jump\t// out\n        /* \"#utility.yul\":10012:10571   */\n    tag_147:\n        /* \"#utility.yul\":10116:10122   */\n      0x00\n        /* \"#utility.yul\":10124:10130   */\n      dup1\n        /* \"#utility.yul\":10132:10138   */\n      0x00\n        /* \"#utility.yul\":10140:10146   */\n      dup1\n        /* \"#utility.yul\":10148:10154   */\n      0x00\n        /* \"#utility.yul\":10156:10162   */\n      dup1\n        /* \"#utility.yul\":10209:10212   */\n      0xc0\n        /* \"#utility.yul\":10197:10206   */\n      dup8\n        /* \"#utility.yul\":10188:10195   */\n      dup10\n        /* \"#utility.yul\":10184:10207   */\n      sub\n        /* \"#utility.yul\":10180:10213   */\n      slt\n        /* \"#utility.yul\":10177:10230   */\n      iszero\n      tag_634\n      jumpi\n        /* \"#utility.yul\":10226:10227   */\n      0x00\n        /* \"#utility.yul\":10223:10224   */\n      dup1\n        /* \"#utility.yul\":10216:10228   */\n      revert\n        /* \"#utility.yul\":10177:10230   */\n    tag_634:\n        /* \"#utility.yul\":10249:10278   */\n      tag_635\n        /* \"#utility.yul\":10268:10277   */\n      dup8\n        /* \"#utility.yul\":10249:10278   */\n      tag_549\n      jump\t// in\n    tag_635:\n        /* \"#utility.yul\":10239:10278   */\n      swap6\n      pop\n        /* \"#utility.yul\":10297:10335   */\n      tag_636\n        /* \"#utility.yul\":10331:10333   */\n      0x20\n        /* \"#utility.yul\":10320:10329   */\n      dup9\n        /* \"#utility.yul\":10316:10334   */\n      add\n        /* \"#utility.yul\":10297:10335   */\n      tag_549\n      jump\t// in\n    tag_636:\n        /* \"#utility.yul\":10287:10335   */\n      swap5\n      pop\n        /* \"#utility.yul\":10354:10392   */\n      tag_637\n        /* \"#utility.yul\":10388:10390   */\n      0x40\n        /* \"#utility.yul\":10377:10386   */\n      dup9\n        /* \"#utility.yul\":10373:10391   */\n      add\n        /* \"#utility.yul\":10354:10392   */\n      tag_549\n      jump\t// in\n    tag_637:\n        /* \"#utility.yul\":10344:10392   */\n      swap4\n      pop\n        /* \"#utility.yul\":10411:10449   */\n      tag_638\n        /* \"#utility.yul\":10445:10447   */\n      0x60\n        /* \"#utility.yul\":10434:10443   */\n      dup9\n        /* \"#utility.yul\":10430:10448   */\n      add\n        /* \"#utility.yul\":10411:10449   */\n      tag_549\n      jump\t// in\n    tag_638:\n        /* \"#utility.yul\":10401:10449   */\n      swap3\n      pop\n        /* \"#utility.yul\":10468:10507   */\n      tag_639\n        /* \"#utility.yul\":10502:10505   */\n      0x80\n        /* \"#utility.yul\":10491:10500   */\n      dup9\n        /* \"#utility.yul\":10487:10506   */\n      add\n        /* \"#utility.yul\":10468:10507   */\n      tag_549\n      jump\t// in\n    tag_639:\n        /* \"#utility.yul\":10458:10507   */\n      swap2\n      pop\n        /* \"#utility.yul\":10526:10565   */\n      tag_640\n        /* \"#utility.yul\":10560:10563   */\n      0xa0\n        /* \"#utility.yul\":10549:10558   */\n      dup9\n        /* \"#utility.yul\":10545:10564   */\n      add\n        /* \"#utility.yul\":10526:10565   */\n      tag_549\n      jump\t// in\n    tag_640:\n        /* \"#utility.yul\":10516:10565   */\n      swap1\n      pop\n        /* \"#utility.yul\":10012:10571   */\n      swap3\n      swap6\n      pop\n      swap3\n      swap6\n      pop\n      swap3\n      swap6\n      jump\t// out\n        /* \"#utility.yul\":10576:10703   */\n    tag_168:\n        /* \"#utility.yul\":10637:10647   */\n      0x4e487b71\n        /* \"#utility.yul\":10632:10635   */\n      0xe0\n        /* \"#utility.yul\":10628:10648   */\n      shl\n        /* \"#utility.yul\":10625:10626   */\n      0x00\n        /* \"#utility.yul\":10618:10649   */\n      mstore\n        /* \"#utility.yul\":10668:10672   */\n      0x41\n        /* \"#utility.yul\":10665:10666   */\n      0x04\n        /* \"#utility.yul\":10658:10673   */\n      mstore\n        /* \"#utility.yul\":10692:10696   */\n      0x24\n        /* \"#utility.yul\":10689:10690   */\n      0x00\n        /* \"#utility.yul\":10682:10697   */\n      revert\n        /* \"#utility.yul\":10708:10835   */\n    tag_175:\n        /* \"#utility.yul\":10769:10779   */\n      0x4e487b71\n        /* \"#utility.yul\":10764:10767   */\n      0xe0\n        /* \"#utility.yul\":10760:10780   */\n      shl\n        /* \"#utility.yul\":10757:10758   */\n      0x00\n        /* \"#utility.yul\":10750:10781   */\n      mstore\n        /* \"#utility.yul\":10800:10804   */\n      0x32\n        /* \"#utility.yul\":10797:10798   */\n      0x04\n        /* \"#utility.yul\":10790:10805   */\n      mstore\n        /* \"#utility.yul\":10824:10828   */\n      0x24\n        /* \"#utility.yul\":10821:10822   */\n      0x00\n        /* \"#utility.yul\":10814:10829   */\n      revert\n        /* \"#utility.yul\":10840:11362   */\n    tag_177:\n        /* \"#utility.yul\":10918:10922   */\n      0x00\n        /* \"#utility.yul\":10924:10930   */\n      dup1\n        /* \"#utility.yul\":10984:10995   */\n      dup4\n        /* \"#utility.yul\":10971:10996   */\n      calldataload\n        /* \"#utility.yul\":11078:11080   */\n      0x1e\n        /* \"#utility.yul\":11074:11081   */\n      not\n        /* \"#utility.yul\":11063:11071   */\n      dup5\n        /* \"#utility.yul\":11047:11061   */\n      calldatasize\n        /* \"#utility.yul\":11043:11072   */\n      sub\n        /* \"#utility.yul\":11039:11082   */\n      add\n        /* \"#utility.yul\":11019:11037   */\n      dup2\n        /* \"#utility.yul\":11015:11083   */\n      slt\n        /* \"#utility.yul\":11005:11101   */\n      tag_644\n      jumpi\n        /* \"#utility.yul\":11097:11098   */\n      0x00\n        /* \"#utility.yul\":11094:11095   */\n      dup1\n        /* \"#utility.yul\":11087:11099   */\n      revert\n        /* \"#utility.yul\":11005:11101   */\n    tag_644:\n        /* \"#utility.yul\":11124:11157   */\n      dup4\n      add\n        /* \"#utility.yul\":11176:11196   */\n      dup1\n      calldataload\n      swap2\n      pop\n        /* \"#utility.yul\":11219:11237   */\n      0xffffffffffffffff\n        /* \"#utility.yul\":11208:11238   */\n      dup3\n      gt\n        /* \"#utility.yul\":11205:11255   */\n      iszero\n      tag_645\n      jumpi\n        /* \"#utility.yul\":11251:11252   */\n      0x00\n        /* \"#utility.yul\":11248:11249   */\n      dup1\n        /* \"#utility.yul\":11241:11253   */\n      revert\n        /* \"#utility.yul\":11205:11255   */\n    tag_645:\n        /* \"#utility.yul\":11284:11288   */\n      0x20\n        /* \"#utility.yul\":11272:11289   */\n      add\n      swap2\n      pop\n        /* \"#utility.yul\":11315:11329   */\n      calldatasize\n        /* \"#utility.yul\":11311:11338   */\n      dup2\n      swap1\n      sub\n        /* \"#utility.yul\":11301:11339   */\n      dup3\n      sgt\n        /* \"#utility.yul\":11298:11356   */\n      iszero\n      tag_349\n      jumpi\n        /* \"#utility.yul\":11352:11353   */\n      0x00\n        /* \"#utility.yul\":11349:11350   */\n      dup1\n        /* \"#utility.yul\":11342:11354   */\n      revert\n        /* \"#utility.yul\":11367:11640   */\n    tag_179:\n        /* \"#utility.yul\":11552:11558   */\n      dup2\n        /* \"#utility.yul\":11544:11550   */\n      dup4\n        /* \"#utility.yul\":11539:11542   */\n      dup3\n        /* \"#utility.yul\":11526:11559   */\n      calldatacopy\n        /* \"#utility.yul\":11508:11511   */\n      0x00\n        /* \"#utility.yul\":11578:11594   */\n      swap2\n      add\n        /* \"#utility.yul\":11603:11616   */\n      swap1\n      dup2\n      mstore\n        /* \"#utility.yul\":11578:11594   */\n      swap2\n        /* \"#utility.yul\":11367:11640   */\n      swap1\n      pop\n      jump\t// out\n        /* \"#utility.yul\":11645:11772   */\n    tag_551:\n        /* \"#utility.yul\":11706:11716   */\n      0x4e487b71\n        /* \"#utility.yul\":11701:11704   */\n      0xe0\n        /* \"#utility.yul\":11697:11717   */\n      shl\n        /* \"#utility.yul\":11694:11695   */\n      0x00\n        /* \"#utility.yul\":11687:11718   */\n      mstore\n        /* \"#utility.yul\":11737:11741   */\n      0x11\n        /* \"#utility.yul\":11734:11735   */\n      0x04\n        /* \"#utility.yul\":11727:11742   */\n      mstore\n        /* \"#utility.yul\":11761:11765   */\n      0x24\n        /* \"#utility.yul\":11758:11759   */\n      0x00\n        /* \"#utility.yul\":11751:11766   */\n      revert\n        /* \"#utility.yul\":11777:11952   */\n    tag_192:\n        /* \"#utility.yul\":11814:11817   */\n      0x00\n        /* \"#utility.yul\":11858:11862   */\n      0xff\n        /* \"#utility.yul\":11851:11856   */\n      dup3\n        /* \"#utility.yul\":11847:11863   */\n      and\n        /* \"#utility.yul\":11887:11891   */\n      0xff\n        /* \"#utility.yul\":11878:11885   */\n      dup2\n        /* \"#utility.yul\":11875:11892   */\n      sub\n        /* \"#utility.yul\":11872:11915   */\n      tag_651\n      jumpi\n        /* \"#utility.yul\":11895:11913   */\n      tag_651\n      tag_551\n      jump\t// in\n    tag_651:\n        /* \"#utility.yul\":11944:11945   */\n      0x01\n        /* \"#utility.yul\":11931:11946   */\n      add\n      swap3\n        /* \"#utility.yul\":11777:11952   */\n      swap2\n      pop\n      pop\n      jump\t// out\n        /* \"#utility.yul\":11957:12337   */\n    tag_201:\n        /* \"#utility.yul\":12036:12037   */\n      0x01\n        /* \"#utility.yul\":12032:12044   */\n      dup2\n      dup2\n      shr\n      swap1\n        /* \"#utility.yul\":12079:12091   */\n      dup3\n      and\n      dup1\n        /* \"#utility.yul\":12100:12161   */\n      tag_653\n      jumpi\n        /* \"#utility.yul\":12154:12158   */\n      0x7f\n        /* \"#utility.yul\":12146:12152   */\n      dup3\n        /* \"#utility.yul\":12142:12159   */\n      and\n        /* \"#utility.yul\":12132:12159   */\n      swap2\n      pop\n        /* \"#utility.yul\":12100:12161   */\n    tag_653:\n        /* \"#utility.yul\":12207:12209   */\n      0x20\n        /* \"#utility.yul\":12199:12205   */\n      dup3\n        /* \"#utility.yul\":12196:12210   */\n      lt\n        /* \"#utility.yul\":12176:12194   */\n      dup2\n        /* \"#utility.yul\":12173:12211   */\n      sub\n        /* \"#utility.yul\":12170:12331   */\n      tag_654\n      jumpi\n        /* \"#utility.yul\":12253:12263   */\n      0x4e487b71\n        /* \"#utility.yul\":12248:12251   */\n      0xe0\n        /* \"#utility.yul\":12244:12264   */\n      shl\n        /* \"#utility.yul\":12241:12242   */\n      0x00\n        /* \"#utility.yul\":12234:12265   */\n      mstore\n        /* \"#utility.yul\":12288:12292   */\n      0x22\n        /* \"#utility.yul\":12285:12286   */\n      0x04\n        /* \"#utility.yul\":12278:12293   */\n      mstore\n        /* \"#utility.yul\":12316:12320   */\n      0x24\n        /* \"#utility.yul\":12313:12314   */\n      0x00\n        /* \"#utility.yul\":12306:12321   */\n      revert\n        /* \"#utility.yul\":12170:12331   */\n    tag_654:\n      pop\n        /* \"#utility.yul\":11957:12337   */\n      swap2\n      swap1\n      pop\n      jump\t// out\n        /* \"#utility.yul\":12342:12526   */\n    tag_217:\n        /* \"#utility.yul\":12412:12418   */\n      0x00\n        /* \"#utility.yul\":12465:12467   */\n      0x20\n        /* \"#utility.yul\":12453:12462   */\n      dup3\n        /* \"#utility.yul\":12444:12451   */\n      dup5\n        /* \"#utility.yul\":12440:12463   */\n      sub\n        /* \"#utility.yul\":12436:12468   */\n      slt\n        /* \"#utility.yul\":12433:12485   */\n      iszero\n      tag_656\n      jumpi\n        /* \"#utility.yul\":12481:12482   */\n      0x00\n        /* \"#utility.yul\":12478:12479   */\n      dup1\n        /* \"#utility.yul\":12471:12483   */\n      revert\n        /* \"#utility.yul\":12433:12485   */\n    tag_656:\n      pop\n        /* \"#utility.yul\":12504:12520   */\n      mload\n      swap2\n        /* \"#utility.yul\":12342:12526   */\n      swap1\n      pop\n      jump\t// out\n        /* \"#utility.yul\":12531:12656   */\n    tag_219:\n        /* \"#utility.yul\":12596:12605   */\n      dup1\n      dup3\n      add\n        /* \"#utility.yul\":12617:12627   */\n      dup1\n      dup3\n      gt\n        /* \"#utility.yul\":12614:12650   */\n      iszero\n      tag_165\n      jumpi\n        /* \"#utility.yul\":12630:12648   */\n      tag_165\n      tag_551\n      jump\t// in\n        /* \"#utility.yul\":12661:12910   */\n    tag_221:\n        /* \"#utility.yul\":12732:12742   */\n      0xffffffff\n        /* \"#utility.yul\":12774:12784   */\n      dup2\n      dup2\n      and\n        /* \"#utility.yul\":12786:12796   */\n      dup4\n      dup3\n      and\n        /* \"#utility.yul\":12770:12797   */\n      mul\n        /* \"#utility.yul\":12817:12837   */\n      dup1\n      dup3\n      and\n      swap2\n        /* \"#utility.yul\":12732:12742   */\n      swap1\n        /* \"#utility.yul\":12856:12880   */\n      dup3\n      dup2\n      eq\n        /* \"#utility.yul\":12846:12904   */\n      tag_662\n      jumpi\n        /* \"#utility.yul\":12884:12902   */\n      tag_662\n      tag_551\n      jump\t// in\n    tag_662:\n        /* \"#utility.yul\":12846:12904   */\n      pop\n      pop\n        /* \"#utility.yul\":12661:12910   */\n      swap3\n      swap2\n      pop\n      pop\n      jump\t// out\n        /* \"#utility.yul\":12915:13090   */\n    tag_236:\n        /* \"#utility.yul\":12983:12993   */\n      0xffffffff\n        /* \"#utility.yul\":13026:13036   */\n      dup3\n      dup2\n      and\n        /* \"#utility.yul\":13014:13024   */\n      dup3\n      dup3\n      and\n        /* \"#utility.yul\":13010:13037   */\n      sub\n      swap1\n        /* \"#utility.yul\":13049:13061   */\n      dup1\n      dup3\n      gt\n        /* \"#utility.yul\":13046:13084   */\n      iszero\n      tag_665\n      jumpi\n        /* \"#utility.yul\":13064:13082   */\n      tag_665\n      tag_551\n      jump\t// in\n    tag_665:\n        /* \"#utility.yul\":13046:13084   */\n      pop\n        /* \"#utility.yul\":12915:13090   */\n      swap3\n      swap2\n      pop\n      pop\n      jump\t// out\n        /* \"#utility.yul\":13374:13509   */\n    tag_255:\n        /* \"#utility.yul\":13413:13416   */\n      0x00\n        /* \"#utility.yul\":13434:13451   */\n      0x01\n      dup3\n      add\n        /* \"#utility.yul\":13431:13474   */\n      tag_669\n      jumpi\n        /* \"#utility.yul\":13454:13472   */\n      tag_669\n      tag_551\n      jump\t// in\n    tag_669:\n      pop\n        /* \"#utility.yul\":13501:13502   */\n      0x01\n        /* \"#utility.yul\":13490:13503   */\n      add\n      swap1\n        /* \"#utility.yul\":13374:13509   */\n      jump\t// out\n        /* \"#utility.yul\":13514:13642   */\n    tag_259:\n        /* \"#utility.yul\":13581:13590   */\n      dup2\n      dup2\n      sub\n        /* \"#utility.yul\":13602:13613   */\n      dup2\n      dup2\n      gt\n        /* \"#utility.yul\":13599:13636   */\n      iszero\n      tag_165\n      jumpi\n        /* \"#utility.yul\":13616:13634   */\n      tag_165\n      tag_551\n      jump\t// in\n        /* \"#utility.yul\":13647:13864   */\n    tag_291:\n        /* \"#utility.yul\":13687:13688   */\n      0x00\n        /* \"#utility.yul\":13713:13714   */\n      dup3\n        /* \"#utility.yul\":13703:13835   */\n      tag_674\n      jumpi\n        /* \"#utility.yul\":13757:13767   */\n      0x4e487b71\n        /* \"#utility.yul\":13752:13755   */\n      0xe0\n        /* \"#utility.yul\":13748:13768   */\n      shl\n        /* \"#utility.yul\":13745:13746   */\n      0x00\n        /* \"#utility.yul\":13738:13769   */\n      mstore\n        /* \"#utility.yul\":13792:13796   */\n      0x12\n        /* \"#utility.yul\":13789:13790   */\n      0x04\n        /* \"#utility.yul\":13782:13797   */\n      mstore\n        /* \"#utility.yul\":13820:13824   */\n      0x24\n        /* \"#utility.yul\":13817:13818   */\n      0x00\n        /* \"#utility.yul\":13810:13825   */\n      revert\n        /* \"#utility.yul\":13703:13835   */\n    tag_674:\n      pop\n        /* \"#utility.yul\":13849:13858   */\n      div\n      swap1\n        /* \"#utility.yul\":13647:13864   */\n      jump\t// out\n        /* \"#utility.yul\":13869:14037   */\n    tag_296:\n        /* \"#utility.yul\":13942:13951   */\n      dup1\n      dup3\n      mul\n        /* \"#utility.yul\":13973:13982   */\n      dup2\n      iszero\n        /* \"#utility.yul\":13990:14005   */\n      dup3\n      dup3\n      div\n        /* \"#utility.yul\":13984:14006   */\n      dup5\n      eq\n        /* \"#utility.yul\":13970:14007   */\n      or\n        /* \"#utility.yul\":13960:14031   */\n      tag_165\n      jumpi\n        /* \"#utility.yul\":14011:14029   */\n      tag_165\n      tag_551\n      jump\t// in\n        /* \"#utility.yul\":14042:14239   */\n    tag_299:\n        /* \"#utility.yul\":14080:14083   */\n      0x00\n        /* \"#utility.yul\":14108:14114   */\n      0xffff\n        /* \"#utility.yul\":14149:14151   */\n      dup1\n        /* \"#utility.yul\":14142:14147   */\n      dup4\n        /* \"#utility.yul\":14138:14152   */\n      and\n        /* \"#utility.yul\":14176:14178   */\n      dup2\n        /* \"#utility.yul\":14167:14174   */\n      dup2\n        /* \"#utility.yul\":14164:14179   */\n      sub\n        /* \"#utility.yul\":14161:14202   */\n      tag_680\n      jumpi\n        /* \"#utility.yul\":14182:14200   */\n      tag_680\n      tag_551\n      jump\t// in\n    tag_680:\n        /* \"#utility.yul\":14231:14232   */\n      0x01\n        /* \"#utility.yul\":14218:14233   */\n      add\n      swap4\n        /* \"#utility.yul\":14042:14239   */\n      swap3\n      pop\n      pop\n      pop\n      jump\t// out\n        /* \"#utility.yul\":18070:18615   */\n    tag_553:\n        /* \"#utility.yul\":18172:18174   */\n      0x1f\n        /* \"#utility.yul\":18167:18170   */\n      dup3\n        /* \"#utility.yul\":18164:18175   */\n      gt\n        /* \"#utility.yul\":18161:18609   */\n      iszero\n      tag_693\n      jumpi\n        /* \"#utility.yul\":18208:18209   */\n      0x00\n        /* \"#utility.yul\":18233:18238   */\n      dup2\n        /* \"#utility.yul\":18229:18231   */\n      dup2\n        /* \"#utility.yul\":18222:18239   */\n      mstore\n        /* \"#utility.yul\":18278:18282   */\n      0x20\n        /* \"#utility.yul\":18274:18276   */\n      dup2\n        /* \"#utility.yul\":18264:18283   */\n      keccak256\n        /* \"#utility.yul\":18348:18350   */\n      0x1f\n        /* \"#utility.yul\":18336:18346   */\n      dup6\n        /* \"#utility.yul\":18332:18351   */\n      add\n        /* \"#utility.yul\":18329:18330   */\n      0x05\n        /* \"#utility.yul\":18325:18352   */\n      shr\n        /* \"#utility.yul\":18319:18323   */\n      dup2\n        /* \"#utility.yul\":18315:18353   */\n      add\n        /* \"#utility.yul\":18384:18388   */\n      0x20\n        /* \"#utility.yul\":18372:18382   */\n      dup7\n        /* \"#utility.yul\":18369:18389   */\n      lt\n        /* \"#utility.yul\":18366:18413   */\n      iszero\n      tag_694\n      jumpi\n      pop\n        /* \"#utility.yul\":18407:18411   */\n      dup1\n        /* \"#utility.yul\":18366:18413   */\n    tag_694:\n        /* \"#utility.yul\":18462:18464   */\n      0x1f\n        /* \"#utility.yul\":18457:18460   */\n      dup6\n        /* \"#utility.yul\":18453:18465   */\n      add\n        /* \"#utility.yul\":18450:18451   */\n      0x05\n        /* \"#utility.yul\":18446:18466   */\n      shr\n        /* \"#utility.yul\":18440:18444   */\n      dup3\n        /* \"#utility.yul\":18436:18467   */\n      add\n        /* \"#utility.yul\":18426:18467   */\n      swap2\n      pop\n        /* \"#utility.yul\":18517:18599   */\n    tag_695:\n        /* \"#utility.yul\":18535:18537   */\n      dup2\n        /* \"#utility.yul\":18528:18533   */\n      dup2\n        /* \"#utility.yul\":18525:18538   */\n      lt\n        /* \"#utility.yul\":18517:18599   */\n      iszero\n      tag_697\n      jumpi\n        /* \"#utility.yul\":18580:18597   */\n      dup3\n      dup2\n      sstore\n        /* \"#utility.yul\":18561:18562   */\n      0x01\n        /* \"#utility.yul\":18550:18563   */\n      add\n        /* \"#utility.yul\":18517:18599   */\n      jump(tag_695)\n    tag_697:\n        /* \"#utility.yul\":18521:18524   */\n      pop\n      pop\n      pop\n        /* \"#utility.yul\":18161:18609   */\n    tag_693:\n        /* \"#utility.yul\":18070:18615   */\n      pop\n      pop\n      pop\n      jump\t// out\n        /* \"#utility.yul\":18791:20143   */\n    tag_510:\n        /* \"#utility.yul\":18917:18920   */\n      dup2\n        /* \"#utility.yul\":18911:18921   */\n      mload\n        /* \"#utility.yul\":18944:18962   */\n      0xffffffffffffffff\n        /* \"#utility.yul\":18936:18942   */\n      dup2\n        /* \"#utility.yul\":18933:18963   */\n      gt\n        /* \"#utility.yul\":18930:18986   */\n      iszero\n      tag_701\n      jumpi\n        /* \"#utility.yul\":18966:18984   */\n      tag_701\n      tag_168\n      jump\t// in\n    tag_701:\n        /* \"#utility.yul\":18995:19092   */\n      tag_702\n        /* \"#utility.yul\":19085:19091   */\n      dup2\n        /* \"#utility.yul\":19045:19083   */\n      tag_703\n        /* \"#utility.yul\":19077:19081   */\n      dup5\n        /* \"#utility.yul\":19071:19082   */\n      sload\n        /* \"#utility.yul\":19045:19083   */\n      tag_201\n      jump\t// in\n    tag_703:\n        /* \"#utility.yul\":19039:19043   */\n      dup5\n        /* \"#utility.yul\":18995:19092   */\n      tag_553\n      jump\t// in\n    tag_702:\n        /* \"#utility.yul\":19147:19151   */\n      0x20\n      dup1\n        /* \"#utility.yul\":19211:19213   */\n      0x1f\n        /* \"#utility.yul\":19200:19214   */\n      dup4\n      gt\n        /* \"#utility.yul\":19228:19229   */\n      0x01\n        /* \"#utility.yul\":19223:19886   */\n      dup2\n      eq\n      tag_705\n      jumpi\n        /* \"#utility.yul\":19930:19931   */\n      0x00\n        /* \"#utility.yul\":19947:19953   */\n      dup5\n        /* \"#utility.yul\":19944:20033   */\n      iszero\n      tag_706\n      jumpi\n      pop\n        /* \"#utility.yul\":19999:20018   */\n      dup6\n      dup4\n      add\n        /* \"#utility.yul\":19993:20019   */\n      mload\n        /* \"#utility.yul\":19944:20033   */\n    tag_706:\n      not(0x00)\n        /* \"#utility.yul\":18748:18749   */\n      0x03\n        /* \"#utility.yul\":18744:18755   */\n      dup7\n      swap1\n      shl\n        /* \"#utility.yul\":18740:18764   */\n      shr\n        /* \"#utility.yul\":18736:18765   */\n      not\n        /* \"#utility.yul\":18726:18766   */\n      and\n        /* \"#utility.yul\":18772:18773   */\n      0x01\n        /* \"#utility.yul\":18768:18779   */\n      dup6\n      swap1\n      shl\n        /* \"#utility.yul\":18723:18780   */\n      or\n        /* \"#utility.yul\":20046:20127   */\n      dup6\n      sstore\n        /* \"#utility.yul\":19193:20137   */\n      jump(tag_697)\n        /* \"#utility.yul\":19223:19886   */\n    tag_705:\n        /* \"#utility.yul\":18017:18018   */\n      0x00\n        /* \"#utility.yul\":18010:18024   */\n      dup6\n      dup2\n      mstore\n        /* \"#utility.yul\":18054:18058   */\n      0x20\n        /* \"#utility.yul\":18041:18059   */\n      dup2\n      keccak256\n      not(0x1f)\n        /* \"#utility.yul\":19259:19279   */\n      dup7\n      and\n      swap2\n        /* \"#utility.yul\":19377:19613   */\n    tag_709:\n        /* \"#utility.yul\":19391:19398   */\n      dup3\n        /* \"#utility.yul\":19388:19389   */\n      dup2\n        /* \"#utility.yul\":19385:19399   */\n      lt\n        /* \"#utility.yul\":19377:19613   */\n      iszero\n      tag_711\n      jumpi\n        /* \"#utility.yul\":19480:19499   */\n      dup9\n      dup7\n      add\n        /* \"#utility.yul\":19474:19500   */\n      mload\n        /* \"#utility.yul\":19459:19501   */\n      dup3\n      sstore\n        /* \"#utility.yul\":19572:19599   */\n      swap5\n      dup5\n      add\n      swap5\n        /* \"#utility.yul\":19540:19541   */\n      0x01\n        /* \"#utility.yul\":19528:19542   */\n      swap1\n      swap2\n      add\n      swap1\n        /* \"#utility.yul\":19407:19426   */\n      dup5\n      add\n        /* \"#utility.yul\":19377:19613   */\n      jump(tag_709)\n    tag_711:\n        /* \"#utility.yul\":19381:19384   */\n      pop\n        /* \"#utility.yul\":19641:19647   */\n      dup6\n        /* \"#utility.yul\":19632:19639   */\n      dup3\n        /* \"#utility.yul\":19629:19648   */\n      lt\n        /* \"#utility.yul\":19626:19827   */\n      iszero\n      tag_712\n      jumpi\n        /* \"#utility.yul\":19702:19721   */\n      dup8\n      dup6\n      add\n        /* \"#utility.yul\":19696:19722   */\n      mload\n      not(0x00)\n        /* \"#utility.yul\":19785:19786   */\n      0x03\n        /* \"#utility.yul\":19781:19795   */\n      dup9\n      swap1\n      shl\n        /* \"#utility.yul\":19797:19800   */\n      0xf8\n        /* \"#utility.yul\":19777:19801   */\n      and\n        /* \"#utility.yul\":19773:19810   */\n      shr\n        /* \"#utility.yul\":19769:19811   */\n      not\n        /* \"#utility.yul\":19754:19812   */\n      and\n        /* \"#utility.yul\":19739:19813   */\n      dup2\n      sstore\n        /* \"#utility.yul\":19626:19827   */\n    tag_712:\n      pop\n      pop\n      pop\n      pop\n      pop\n        /* \"#utility.yul\":19873:19874   */\n      0x01\n        /* \"#utility.yul\":19857:19871   */\n      swap1\n      dup2\n      shl\n        /* \"#utility.yul\":19853:19875   */\n      add\n        /* \"#utility.yul\":19840:19876   */\n      swap1\n      sstore\n      pop\n        /* \"#utility.yul\":18791:20143   */\n      jump\t// out\n        /* \"#utility.yul\":20291:21063   */\n    tag_556:\n        /* \"#utility.yul\":20341:20344   */\n      0x00\n        /* \"#utility.yul\":20382:20387   */\n      dup2\n        /* \"#utility.yul\":20376:20388   */\n      sload\n        /* \"#utility.yul\":20411:20447   */\n      tag_715\n        /* \"#utility.yul\":20437:20446   */\n      dup2\n        /* \"#utility.yul\":20411:20447   */\n      tag_201\n      jump\t// in\n    tag_715:\n        /* \"#utility.yul\":20456:20475   */\n      dup1\n      dup6\n      mstore\n        /* \"#utility.yul\":20494:20498   */\n      0x20\n        /* \"#utility.yul\":20517:20518   */\n      0x01\n        /* \"#utility.yul\":20534:20552   */\n      dup4\n      dup2\n      and\n        /* \"#utility.yul\":20561:20707   */\n      dup1\n      iszero\n      tag_717\n      jumpi\n        /* \"#utility.yul\":20721:20722   */\n      0x01\n        /* \"#utility.yul\":20716:21057   */\n      dup2\n      eq\n      tag_718\n      jumpi\n        /* \"#utility.yul\":20527:21057   */\n      jump(tag_716)\n        /* \"#utility.yul\":20561:20707   */\n    tag_717:\n      not(0xff)\n        /* \"#utility.yul\":20603:20627   */\n      dup6\n      and\n        /* \"#utility.yul\":20589:20601   */\n      dup9\n      dup5\n      add\n        /* \"#utility.yul\":20582:20628   */\n      mstore\n        /* \"#utility.yul\":20675:20689   */\n      dup4\n      iszero\n        /* \"#utility.yul\":20668:20690   */\n      iszero\n        /* \"#utility.yul\":20665:20666   */\n      0x05\n        /* \"#utility.yul\":20661:20691   */\n      shl\n        /* \"#utility.yul\":20652:20692   */\n      dup9\n      add\n        /* \"#utility.yul\":20648:20697   */\n      dup4\n      add\n      swap6\n      pop\n        /* \"#utility.yul\":20561:20707   */\n      jump(tag_716)\n        /* \"#utility.yul\":20716:21057   */\n    tag_718:\n        /* \"#utility.yul\":20747:20752   */\n      dup7\n        /* \"#utility.yul\":20744:20745   */\n      0x00\n        /* \"#utility.yul\":20737:20753   */\n      mstore\n        /* \"#utility.yul\":20794:20796   */\n      dup3\n        /* \"#utility.yul\":20791:20792   */\n      0x00\n        /* \"#utility.yul\":20781:20797   */\n      keccak256\n        /* \"#utility.yul\":20819:20820   */\n      0x00\n        /* \"#utility.yul\":20833:21007   */\n    tag_719:\n        /* \"#utility.yul\":20847:20853   */\n      dup6\n        /* \"#utility.yul\":20844:20845   */\n      dup2\n        /* \"#utility.yul\":20841:20854   */\n      lt\n        /* \"#utility.yul\":20833:21007   */\n      iszero\n      tag_721\n      jumpi\n        /* \"#utility.yul\":20934:20948   */\n      dup2\n      sload\n        /* \"#utility.yul\":20916:20927   */\n      dup11\n      dup3\n      add\n        /* \"#utility.yul\":20912:20932   */\n      dup7\n      add\n        /* \"#utility.yul\":20905:20949   */\n      mstore\n        /* \"#utility.yul\":20977:20993   */\n      swap1\n      dup4\n      add\n      swap1\n        /* \"#utility.yul\":20862:20872   */\n      dup5\n      add\n        /* \"#utility.yul\":20833:21007   */\n      jump(tag_719)\n    tag_721:\n        /* \"#utility.yul\":21031:21042   */\n      dup10\n      add\n        /* \"#utility.yul\":21027:21047   */\n      dup5\n      add\n      swap7\n      pop\n      pop\n        /* \"#utility.yul\":20527:21057   */\n    tag_716:\n      pop\n      pop\n      pop\n      pop\n      pop\n        /* \"#utility.yul\":20291:21063   */\n      swap3\n      swap2\n      pop\n      pop\n      jump\t// out\n        /* \"#utility.yul\":21068:22446   */\n    tag_516:\n        /* \"#utility.yul\":21250:21252   */\n      0x20\n        /* \"#utility.yul\":21239:21248   */\n      dup2\n        /* \"#utility.yul\":21232:21253   */\n      mstore\n        /* \"#utility.yul\":21262:21359   */\n      tag_723\n        /* \"#utility.yul\":21355:21357   */\n      0x20\n        /* \"#utility.yul\":21344:21353   */\n      dup3\n        /* \"#utility.yul\":21340:21358   */\n      add\n        /* \"#utility.yul\":21281:21338   */\n      tag_724\n        /* \"#utility.yul\":21330:21336   */\n      dup5\n        /* \"#utility.yul\":21324:21337   */\n      sload\n      sub(shl(0xa0, 0x01), 0x01)\n        /* \"#utility.yul\":20244:20280   */\n      and\n      swap1\n        /* \"#utility.yul\":20148:20286   */\n      jump\n        /* \"#utility.yul\":21281:21338   */\n    tag_724:\n      sub(shl(0xa0, 0x01), 0x01)\n        /* \"#utility.yul\":459:490   */\n      and\n        /* \"#utility.yul\":447:491   */\n      swap1\n      mstore\n        /* \"#utility.yul\":393:497   */\n      jump\n        /* \"#utility.yul\":21262:21359   */\n    tag_723:\n        /* \"#utility.yul\":21413:21417   */\n      0x01\n        /* \"#utility.yul\":21401:21418   */\n      dup3\n      add\n        /* \"#utility.yul\":21395:21419   */\n      sload\n        /* \"#utility.yul\":21390:21392   */\n      0x40\n        /* \"#utility.yul\":21375:21393   */\n      dup3\n      add\n        /* \"#utility.yul\":21368:21420   */\n      mstore\n        /* \"#utility.yul\":21474:21478   */\n      0x02\n        /* \"#utility.yul\":21462:21479   */\n      dup3\n      add\n        /* \"#utility.yul\":21456:21480   */\n      sload\n        /* \"#utility.yul\":21451:21453   */\n      0x60\n        /* \"#utility.yul\":21436:21454   */\n      dup3\n      add\n        /* \"#utility.yul\":21429:21481   */\n      mstore\n        /* \"#utility.yul\":21536:21540   */\n      0x03\n        /* \"#utility.yul\":21524:21541   */\n      dup3\n      add\n        /* \"#utility.yul\":21518:21542   */\n      sload\n        /* \"#utility.yul\":21512:21515   */\n      0x80\n        /* \"#utility.yul\":21497:21516   */\n      dup3\n      add\n        /* \"#utility.yul\":21490:21543   */\n      mstore\n        /* \"#utility.yul\":21598:21602   */\n      0x04\n        /* \"#utility.yul\":21586:21603   */\n      dup3\n      add\n        /* \"#utility.yul\":21580:21604   */\n      sload\n        /* \"#utility.yul\":21574:21577   */\n      0xa0\n        /* \"#utility.yul\":21559:21578   */\n      dup3\n      add\n        /* \"#utility.yul\":21552:21605   */\n      mstore\n        /* \"#utility.yul\":21660:21664   */\n      0x05\n        /* \"#utility.yul\":21648:21665   */\n      dup3\n      add\n        /* \"#utility.yul\":21642:21666   */\n      sload\n        /* \"#utility.yul\":21636:21639   */\n      0xc0\n        /* \"#utility.yul\":21621:21640   */\n      dup3\n      add\n        /* \"#utility.yul\":21614:21667   */\n      mstore\n        /* \"#utility.yul\":21722:21726   */\n      0x06\n        /* \"#utility.yul\":21710:21727   */\n      dup3\n      add\n        /* \"#utility.yul\":21704:21728   */\n      sload\n        /* \"#utility.yul\":21698:21701   */\n      0xe0\n        /* \"#utility.yul\":21683:21702   */\n      dup3\n      add\n        /* \"#utility.yul\":21676:21729   */\n      mstore\n        /* \"#utility.yul\":21773:21777   */\n      0x07\n        /* \"#utility.yul\":21761:21778   */\n      dup3\n      add\n        /* \"#utility.yul\":21755:21779   */\n      sload\n      sub(shl(0xa0, 0x01), 0x01)\n        /* \"#utility.yul\":21807:21842   */\n      dup2\n      and\n        /* \"#utility.yul\":21859:21862   */\n      0x0100\n        /* \"#utility.yul\":21844:21863   */\n      dup4\n      add\n        /* \"#utility.yul\":447:491   */\n      mstore\n      0x00\n      swap1\n        /* \"#utility.yul\":21873:21955   */\n      tag_726\n        /* \"#utility.yul\":21950:21953   */\n      0x0120\n        /* \"#utility.yul\":21939:21948   */\n      dup5\n        /* \"#utility.yul\":21935:21954   */\n      add\n        /* \"#utility.yul\":21928:21932   */\n      0xff\n        /* \"#utility.yul\":21916:21925   */\n      dup4\n        /* \"#utility.yul\":21911:21914   */\n      0xa0\n        /* \"#utility.yul\":21907:21926   */\n      shr\n        /* \"#utility.yul\":21903:21933   */\n      and\n        /* \"#utility.yul\":21873:21955   */\n      tag_545\n      jump\t// in\n    tag_726:\n      pop\n        /* \"#utility.yul\":21974:21980   */\n      0x01e0\n        /* \"#utility.yul\":22017:22019   */\n      dup1\n        /* \"#utility.yul\":22011:22014   */\n      0x0140\n        /* \"#utility.yul\":22000:22009   */\n      dup5\n        /* \"#utility.yul\":21996:22015   */\n      add\n        /* \"#utility.yul\":21989:22020   */\n      mstore\n        /* \"#utility.yul\":22043:22108   */\n      tag_727\n        /* \"#utility.yul\":22103:22106   */\n      0x0200\n        /* \"#utility.yul\":22092:22101   */\n      dup5\n        /* \"#utility.yul\":22088:22107   */\n      add\n        /* \"#utility.yul\":22081:22085   */\n      0x08\n        /* \"#utility.yul\":22073:22079   */\n      dup7\n        /* \"#utility.yul\":22069:22086   */\n      add\n        /* \"#utility.yul\":22043:22108   */\n      tag_556\n      jump\t// in\n    tag_727:\n        /* \"#utility.yul\":22163:22167   */\n      0x09\n        /* \"#utility.yul\":22151:22168   */\n      dup6\n      add\n        /* \"#utility.yul\":22145:22169   */\n      sload\n        /* \"#utility.yul\":22139:22142   */\n      0x0160\n        /* \"#utility.yul\":22124:22143   */\n      dup6\n      add\n        /* \"#utility.yul\":22117:22170   */\n      mstore\n        /* \"#utility.yul\":22225:22229   */\n      0x0a\n        /* \"#utility.yul\":22213:22230   */\n      dup6\n      add\n        /* \"#utility.yul\":22207:22231   */\n      sload\n        /* \"#utility.yul\":22201:22204   */\n      0x0180\n        /* \"#utility.yul\":22186:22205   */\n      dup6\n      add\n        /* \"#utility.yul\":22179:22232   */\n      mstore\n        /* \"#utility.yul\":22287:22291   */\n      0x0b\n        /* \"#utility.yul\":22275:22292   */\n      dup6\n      add\n        /* \"#utility.yul\":22269:22293   */\n      sload\n        /* \"#utility.yul\":22263:22266   */\n      0x01a0\n        /* \"#utility.yul\":22248:22267   */\n      dup6\n      add\n        /* \"#utility.yul\":22241:22294   */\n      mstore\n        /* \"#utility.yul\":22349:22353   */\n      0x0c\n        /* \"#utility.yul\":22337:22354   */\n      dup6\n      add\n        /* \"#utility.yul\":22331:22355   */\n      sload\n        /* \"#utility.yul\":22325:22328   */\n      0x01c0\n        /* \"#utility.yul\":22310:22329   */\n      dup6\n      add\n        /* \"#utility.yul\":22303:22356   */\n      mstore\n        /* \"#utility.yul\":22410:22414   */\n      0x0d\n        /* \"#utility.yul\":22398:22415   */\n      swap1\n      swap5\n      add\n        /* \"#utility.yul\":22392:22416   */\n      sload\n        /* \"#utility.yul\":22372:22390   */\n      swap3\n      add\n        /* \"#utility.yul\":22365:22417   */\n      swap2\n      swap1\n      swap2\n      mstore\n      pop\n        /* \"#utility.yul\":22434:22440   */\n      swap1\n        /* \"#utility.yul\":21068:22446   */\n      jump\t// out\n        /* \"#utility.yul\":22451:22696   */\n    tag_520:\n        /* \"#utility.yul\":22518:22524   */\n      0x00\n        /* \"#utility.yul\":22571:22573   */\n      0x20\n        /* \"#utility.yul\":22559:22568   */\n      dup3\n        /* \"#utility.yul\":22550:22557   */\n      dup5\n        /* \"#utility.yul\":22546:22569   */\n      sub\n        /* \"#utility.yul\":22542:22574   */\n      slt\n        /* \"#utility.yul\":22539:22591   */\n      iszero\n      tag_729\n      jumpi\n        /* \"#utility.yul\":22587:22588   */\n      0x00\n        /* \"#utility.yul\":22584:22585   */\n      dup1\n        /* \"#utility.yul\":22577:22589   */\n      revert\n        /* \"#utility.yul\":22539:22591   */\n    tag_729:\n        /* \"#utility.yul\":22619:22628   */\n      dup2\n        /* \"#utility.yul\":22613:22629   */\n      mload\n        /* \"#utility.yul\":22638:22666   */\n      tag_590\n        /* \"#utility.yul\":22660:22665   */\n      dup2\n        /* \"#utility.yul\":22638:22666   */\n      tag_550\n      jump\t// in\n        /* \"#utility.yul\":22701:23108   */\n    tag_525:\n        /* \"#utility.yul\":22903:22905   */\n      0x20\n        /* \"#utility.yul\":22885:22906   */\n      dup1\n      dup3\n      mstore\n        /* \"#utility.yul\":22942:22944   */\n      0x2b\n        /* \"#utility.yul\":22922:22940   */\n      swap1\n      dup3\n      add\n        /* \"#utility.yul\":22915:22945   */\n      mstore\n        /* \"#utility.yul\":22981:23015   */\n      0x496e697469616c697a61626c653a20636f6e7472616374206973206e6f742069\n        /* \"#utility.yul\":22976:22978   */\n      0x40\n        /* \"#utility.yul\":22961:22979   */\n      dup3\n      add\n        /* \"#utility.yul\":22954:23016   */\n      mstore\n      shl(0xa8, 0x6e697469616c697a696e67)\n        /* \"#utility.yul\":23047:23049   */\n      0x60\n        /* \"#utility.yul\":23032:23050   */\n      dup3\n      add\n        /* \"#utility.yul\":23025:23066   */\n      mstore\n        /* \"#utility.yul\":23098:23101   */\n      0x80\n        /* \"#utility.yul\":23083:23102   */\n      add\n      swap1\n        /* \"#utility.yul\":22701:23108   */\n      jump\t// out\n\n    auxdata: 0xa26469706673582212206b9e03aa512d192b5ee0c70c78bae6534383e99397714ac162a6d87aeaf521d764736f6c63430008130033\n}\n",
				"bytecode": {
					"linkReferences": {},
					"object": "6080604052606654620000149060016200004b565b606555620f4240606681905560646067556200003290601e6200004b565b6068556069805463ffffffff1916600a17905562000077565b80820281158282048414176200007157634e487b7160e01b600052601160045260246000fd5b92915050565b612d6280620000876000396000f3fe608060405234801561001057600080fd5b50600436106101f05760003560e01c80638fe39efd1161010f578063c01c36d0116100a2578063ddcd640811610071578063ddcd640814610457578063f2fde38b1461046a578063f4b7f3431461047d578063f8525b931461049057600080fd5b8063c01c36d0146103f9578063cb286f191461040c578063cc2a9a5b14610431578063dc30cbb41461044457600080fd5b8063b7182530116100de578063b7182530146103a0578063b935948a146103b3578063bc65fee5146103c6578063bf9ce952146103e657600080fd5b80638fe39efd14610359578063a429a51314610361578063a559934e14610384578063b22a9f9a1461039757600080fd5b8063486f6afe116101875780638c4a876d116101565780638c4a876d1461030d5780638c7ab1d7146103155780638da5cb5b146103285780638ec09c971461033957600080fd5b8063486f6afe146102af57806361b26f27146102c2578063715018a6146102e257806378f25aee146102ec57600080fd5b8063362efc3d116101c3578063362efc3d14610281578063395348dc1461028a578063435a3e501461029357806347ccca021461029c57600080fd5b8063076d5556146101f557806311f1374a146102115780632f48ab7d1461023657806331ae322f14610261575b600080fd5b6101fe606d5481565b6040519081526020015b60405180910390f35b6069546102219063ffffffff1681565b60405163ffffffff9091168152602001610208565b606e54610249906001600160a01b031681565b6040516001600160a01b039091168152602001610208565b61027461026f36600461237a565b6104a3565b60405161020891906123bc565b6101fe60665481565b6101fe60655481565b6101fe60685481565b607154610249906001600160a01b031681565b606f54610249906001600160a01b031681565b6102d56102d0366004612402565b610606565b6040516102089190612573565b6102ea610789565b005b6102ff6102fa3660046125a6565b61079d565b6040516102089291906125c1565b6101fe610e3d565b607054610249906001600160a01b031681565b6033546001600160a01b0316610249565b61034c610347366004612652565b610ea7565b60405161020891906126ee565b6101fe611133565b61037461036f366004612726565b6111a5565b6040519015158152602001610208565b6102ea610392366004612750565b611226565b6101fe60675481565b6102ff6103ae36600461276b565b611250565b6102ea6103c1366004612402565b611900565b6101fe6103d4366004612402565b606b6020526000908152604090205481565b607354610249906001600160a01b031681565b607254610249906001600160a01b031681565b61041f61041a366004612402565b61190d565b6040516102089695949392919061279e565b6102ea61043f3660046127eb565b611a55565b6102ea610452366004612750565b611bf6565b6102ea610465366004612750565b611c20565b6102ea610478366004612750565b611c4a565b61027461048b36600461237a565b611cc3565b6102ea61049e366004612750565b611e18565b606060008267ffffffffffffffff8111156104c0576104c061285f565b6040519080825280602002602001820160405280156104e9578160200160208202803683370190505b5090506000805b60ff81168511156105fa5785858260ff1681811061051057610510612875565b9050602002810190610522919061288b565b6040516020016105339291906128d2565b60408051808303601f1901815291815281516020928301206000818152606a9093529120549092506001600160a01b03163314158061059d5750600080838152606a6020526040902060070154600160a01b900460ff16600381111561059b5761059b61241b565b145b6105e8576000828152606a60205260409020600701805460ff60a01b191690558251600190849060ff84169081106105d7576105d7612875565b911515602092830291909101909101525b806105f2816128f8565b9150506104f0565b50909150505b92915050565b61060e6122bb565b6000828152606a602090815260409182902082516101e08101845281546001600160a01b039081168252600183015493820193909352600282015493810193909352600380820154606085015260048201546080850152600582015460a0850152600682015460c0850152600782015492831660e08501529091610100840191600160a01b90910460ff16908111156106a9576106a961241b565b60038111156106ba576106ba61241b565b81526020016008820180546106ce90612917565b80601f01602080910402602001604051908101604052809291908181526020018280546106fa90612917565b80156107475780601f1061071c57610100808354040283529160200191610747565b820191906000526020600020905b81548152906001019060200180831161072a57829003601f168201915b5050505050815260200160098201548152602001600a8201548152602001600b8201548152602001600c8201548152602001600d820154815250509050919050565b610791611e42565b61079b6000611e9c565b565b6071546040516370a0823160e01b815233600482015260009160609183916001600160a01b0316906370a0823190602401602060405180830381865afa1580156107eb573d6000803e3d6000fd5b505050506040513d601f19601f8201168201806040525081019061080f9190612951565b6069549091506108259063ffffffff168261296a565b6069546108389063ffffffff168661297d565b63ffffffff16111561084e576000925050915091565b60695481906108639063ffffffff168661297d565b63ffffffff161015610b42576069546001935063ffffffff1667ffffffffffffffff8111156108945761089461285f565b6040519080825280602002602001820160405280156108cd57816020015b6108ba6122bb565b8152602001906001900390816108b25790505b50915060005b8251811015610b3b57607154606954606a916000916001600160a01b0390911690632f745c59903390869063ffffffff1661090e818d61297d565b61091891906129a5565b63ffffffff16610928919061296a565b6040516001600160e01b031960e085901b1681526001600160a01b0390921660048301526024820152604401602060405180830381865afa158015610971573d6000803e3d6000fd5b505050506040513d601f19601f820116820180604052508101906109959190612951565b8152602080820192909252604090810160002081516101e08101835281546001600160a01b039081168252600183015494820194909452600282015492810192909252600380820154606084015260048201546080840152600582015460a0840152600682015460c0840152600782015493841660e084015291929091610100840191600160a01b900460ff1690811115610a3257610a3261241b565b6003811115610a4357610a4361241b565b8152602001600882018054610a5790612917565b80601f0160208091040260200160405190810160405280929190818152602001828054610a8390612917565b8015610ad05780601f10610aa557610100808354040283529160200191610ad0565b820191906000526020600020905b815481529060010190602001808311610ab357829003601f168201915b5050505050815260200160098201548152602001600a8201548152602001600b8201548152602001600c8201548152602001600d82015481525050838281518110610b1d57610b1d612875565b60200260200101819052508080610b33906129c9565b9150506108d3565b5050915091565b606954600093508190610b5b9063ffffffff168661297d565b63ffffffff16610b6b91906129e2565b606954610b7e919063ffffffff166129e2565b67ffffffffffffffff811115610b9657610b9661285f565b604051908082528060200260200182016040528015610bcf57816020015b610bbc6122bb565b815260200190600190039081610bb45790505b50915060005b8251811015610b3b57607154606954606a916000916001600160a01b0390911690632f745c59903390869063ffffffff16610c10818d61297d565b610c1a91906129a5565b63ffffffff16610c2a919061296a565b6040516001600160e01b031960e085901b1681526001600160a01b0390921660048301526024820152604401602060405180830381865afa158015610c73573d6000803e3d6000fd5b505050506040513d601f19601f82011682018060405250810190610c979190612951565b8152602080820192909252604090810160002081516101e08101835281546001600160a01b039081168252600183015494820194909452600282015492810192909252600380820154606084015260048201546080840152600582015460a0840152600682015460c0840152600782015493841660e084015291929091610100840191600160a01b900460ff1690811115610d3457610d3461241b565b6003811115610d4557610d4561241b565b8152602001600882018054610d5990612917565b80601f0160208091040260200160405190810160405280929190818152602001828054610d8590612917565b8015610dd25780601f10610da757610100808354040283529160200191610dd2565b820191906000526020600020905b815481529060010190602001808311610db557829003601f168201915b5050505050815260200160098201548152602001600a8201548152602001600b8201548152602001600c8201548152602001600d82015481525050838281518110610e1f57610e1f612875565b60200260200101819052508080610e35906129c9565b915050610bd5565b60008060655490506000624f1a00606d5442610e5991906129e2565b610e6391906129f5565b905060005b818161ffff161015610e9f576064610e8184607d612a17565b610e8b91906129f5565b925080610e9781612a2e565b915050610e68565b509092915050565b6073546060906001600160a01b03163314610f025760405162461bcd60e51b815260206004820152601660248201527512dd995b9d1d5c994e8813db9b1e481c1c9bd91d58dd60521b60448201526064015b60405180910390fd5b8387148015610f115750600087115b610f915760405162461bcd60e51b8152602060048201526044602482018190527f4b76656e747572653a20436f64652048617368204e6f7420457175616c20546f908201527f205175616e74697479206f72205175616e7469747920536d616c6c6572205468606482015263616e203160e01b608482015260a401610ef9565b6001600160a01b0382161561101357606c5488101561100e5760405162461bcd60e51b815260206004820152603360248201527f4b76656e747572653a20436c6f7564204d696e696e67204f6e6c7920466f722060448201527205061636b6167652041626f766520243530303606c1b6064820152608401610ef9565b61106a565b6001600160a01b0382161561106a5760405162461bcd60e51b815260206004820152601f60248201527f4b76656e747572653a204f6e6c7920666f7220636c6f7564206d696e696e67006044820152606401610ef9565b6000611074610e3d565b905060008867ffffffffffffffff8111156110915761109161285f565b6040519080825280602002602001820160405280156110ba578160200160208202803683370190505b50905060005b898110156111245760006110f18d8a8a858181106110e0576110e0612875565b905060200201358c8f888c8c611eee565b90508083838151811061110657611106612875565b6020908102919091010152508061111c816129c9565b9150506110c0565b509a9950505050505050505050565b6071546040516370a0823160e01b81523360048201526000916001600160a01b0316906370a0823190602401602060405180830381865afa15801561117c573d6000803e3d6000fd5b505050506040513d601f19601f820116820180604052508101906111a09190612951565b905090565b6072546000906001600160a01b031633146112025760405162461bcd60e51b815260206004820152601760248201527f4b76656e747572653a204f6e6c79206b76656e747572650000000000000000006044820152606401610ef9565b61121c83836000606854611214610e3d565b600080611eee565b5060019392505050565b61122e611e42565b607080546001600160a01b0319166001600160a01b0392909216919091179055565b6000606061125c611e42565b6071546040516370a0823160e01b81526001600160a01b03858116600483015260009216906370a0823190602401602060405180830381865afa1580156112a7573d6000803e3d6000fd5b505050506040513d601f19601f820116820180604052508101906112cb9190612951565b6069549091506112e19063ffffffff168261296a565b6069546112f49063ffffffff168761297d565b63ffffffff16111561130a5760009250506118f9565b606954819061131f9063ffffffff168761297d565b63ffffffff1610156115fe576069546001935063ffffffff1667ffffffffffffffff8111156113505761135061285f565b60405190808252806020026020018201604052801561138957816020015b6113766122bb565b81526020019060019003908161136e5790505b50915060005b82518110156115f757607154606954606a916000916001600160a01b0390911690632f745c59908990869063ffffffff166113ca818e61297d565b6113d491906129a5565b63ffffffff166113e4919061296a565b6040516001600160e01b031960e085901b1681526001600160a01b0390921660048301526024820152604401602060405180830381865afa15801561142d573d6000803e3d6000fd5b505050506040513d601f19601f820116820180604052508101906114519190612951565b8152602080820192909252604090810160002081516101e08101835281546001600160a01b039081168252600183015494820194909452600282015492810192909252600380820154606084015260048201546080840152600582015460a0840152600682015460c0840152600782015493841660e084015291929091610100840191600160a01b900460ff16908111156114ee576114ee61241b565b60038111156114ff576114ff61241b565b815260200160088201805461151390612917565b80601f016020809104026020016040519081016040528092919081815260200182805461153f90612917565b801561158c5780601f106115615761010080835404028352916020019161158c565b820191906000526020600020905b81548152906001019060200180831161156f57829003601f168201915b5050505050815260200160098201548152602001600a8201548152602001600b8201548152602001600c8201548152602001600d820154815250508382815181106115d9576115d9612875565b602002602001018190525080806115ef906129c9565b91505061138f565b50506118f9565b6069546000935081906116179063ffffffff168761297d565b63ffffffff1661162791906129e2565b60695461163a919063ffffffff166129e2565b67ffffffffffffffff8111156116525761165261285f565b60405190808252806020026020018201604052801561168b57816020015b6116786122bb565b8152602001906001900390816116705790505b50915060005b82518110156115f757607154606954606a916000916001600160a01b0390911690632f745c59908990869063ffffffff166116cc818e61297d565b6116d691906129a5565b63ffffffff166116e6919061296a565b6040516001600160e01b031960e085901b1681526001600160a01b0390921660048301526024820152604401602060405180830381865afa15801561172f573d6000803e3d6000fd5b505050506040513d601f19601f820116820180604052508101906117539190612951565b8152602080820192909252604090810160002081516101e08101835281546001600160a01b039081168252600183015494820194909452600282015492810192909252600380820154606084015260048201546080840152600582015460a0840152600682015460c0840152600782015493841660e084015291929091610100840191600160a01b900460ff16908111156117f0576117f061241b565b60038111156118015761180161241b565b815260200160088201805461181590612917565b80601f016020809104026020016040519081016040528092919081815260200182805461184190612917565b801561188e5780601f106118635761010080835404028352916020019161188e565b820191906000526020600020905b81548152906001019060200180831161187157829003601f168201915b5050505050815260200160098201548152602001600a8201548152602001600b8201548152602001600c8201548152602001600d820154815250508382815181106118db576118db612875565b602002602001018190525080806118f1906129c9565b915050611691565b9250929050565b611908611e42565b606c55565b6074602052600090815260409020805460018201805491929161192f90612917565b80601f016020809104026020016040519081016040528092919081815260200182805461195b90612917565b80156119a85780601f1061197d576101008083540402835291602001916119a8565b820191906000526020600020905b81548152906001019060200180831161198b57829003601f168201915b5050505050908060020154908060030154908060040180546119c990612917565b80601f01602080910402602001604051908101604052809291908181526020018280546119f590612917565b8015611a425780601f10611a1757610100808354040283529160200191611a42565b820191906000526020600020905b815481529060010190602001808311611a2557829003601f168201915b5050506005909301549192505060ff1686565b600054610100900460ff1615808015611a755750600054600160ff909116105b80611a8f5750303b158015611a8f575060005460ff166001145b611af25760405162461bcd60e51b815260206004820152602e60248201527f496e697469616c697a61626c653a20636f6e747261637420697320616c72656160448201526d191e481a5b9a5d1a585b1a5e995960921b6064820152608401610ef9565b6000805460ff191660011790558015611b15576000805461ff0019166101001790555b606e80546001600160a01b03199081166001600160a01b038a811691909117909255607080548216898416179055606f8054821688841617905560728054821685841617905560738054821687841617905560718054909116918516919091179055611b7f612237565b620f424060668190556064606755611b98906001612a17565b606555611ba3612266565b42606d558015611bed576000805461ff0019169055604051600181527f7f26b83ff96e1f2b6a682f133852f6798a09c465da95921460cefb38474024989060200160405180910390a15b50505050505050565b611bfe611e42565b607380546001600160a01b0319166001600160a01b0392909216919091179055565b611c28611e42565b606e80546001600160a01b0319166001600160a01b0392909216919091179055565b611c52611e42565b6001600160a01b038116611cb75760405162461bcd60e51b815260206004820152602660248201527f4f776e61626c653a206e6577206f776e657220697320746865207a65726f206160448201526564647265737360d01b6064820152608401610ef9565b611cc081611e9c565b50565b606060008267ffffffffffffffff811115611ce057611ce061285f565b604051908082528060200260200182016040528015611d09578160200160208202803683370190505b5090506000805b848110156105fa57858582818110611d2a57611d2a612875565b9050602002810190611d3c919061288b565b604051602001611d4d9291906128d2565b60408051808303601f1901815291815281516020928301206000818152606a9093529120549092506001600160a01b031633141580611db8575060016000838152606a6020526040902060070154600160a01b900460ff166003811115611db657611db661241b565b145b611e06576000828152606a60205260409020600701805460ff60a01b1916600160a01b1790558251600190849083908110611df557611df5612875565b911515602092830291909101909101525b80611e10816129c9565b915050611d10565b611e20611e42565b607180546001600160a01b0319166001600160a01b0392909216919091179055565b6033546001600160a01b0316331461079b5760405162461bcd60e51b815260206004820181905260248201527f4f776e61626c653a2063616c6c6572206973206e6f7420746865206f776e65726044820152606401610ef9565b603380546001600160a01b038381166001600160a01b0319831681179093556040519116919082907f8be0079c531659141344cd1fd0a4f28419497f9722a3daafe3b4186f6b6457e090600090a35050565b6000868152606a60205260408120546001600160a01b031615611f535760405162461bcd60e51b815260206004820152601d60248201527f4d6574614e6f64653a204475706c696361746520436f646520486173680000006044820152606401610ef9565b604080516101e0810182526001600160a01b038a16815260208101899052600091810191909152879060608101611f8d426276a70061296a565b81526020018660675489611fa19190612a17565b611fab91906129f5565b8152602001606b6000898152602001908152602001600020548152602001868152602001846001600160a01b03168152602001611fe789612275565b6003811115611ff857611ff861241b565b815260408051808201825260088152674b56454e5455524560c01b6020808301919091528084019190915260008284018190526060808501829052608080860183905260a080870184905260c09687018490528f8452606a855292859020875181546001600160a01b03199081166001600160a01b039283161783559589015160018301559588015160028201559187015160038084019190915590870151600483015591860151600582015593850151600685015560e085015160078501805493841691909416908117845561010086015193926001600160a81b0319161790600160a01b9084908111156120f0576120f061241b565b0217905550610120820151600882019061210a9082612a9e565b506101408201516009820155610160820151600a820155610180820151600b8201556101a0820151600c8201556101c090910151600d90910155607154604051632851206560e21b81526001600160a01b038b81166004830152602482018490529091169063a144819490604401600060405180830381600087803b15801561219257600080fd5b505af11580156121a6573d6000803e3d6000fd5b5050606f5460008b8152606a6020526040908190209051637c94ac8160e11b81526001600160a01b03909216935063f929590292506121e791600401612bdb565b6020604051808303816000875af1158015612206573d6000803e3d6000fd5b505050506040513d601f19601f8201168201806040525081019061222a9190612cc4565b5098975050505050505050565b600054610100900460ff1661225e5760405162461bcd60e51b8152600401610ef990612ce1565b61079b61228b565b60665461190890611388612a17565b600081612283576001610600565b600092915050565b600054610100900460ff166122b25760405162461bcd60e51b8152600401610ef990612ce1565b61079b33611e9c565b604080516101e081018252600080825260208201819052918101829052606081018290526080810182905260a0810182905260c0810182905260e081018290529061010082019081526020016060815260200160008152602001600081526020016000815260200160008019168152602001600081525090565b60008083601f84011261234757600080fd5b50813567ffffffffffffffff81111561235f57600080fd5b6020830191508360208260051b85010111156118f957600080fd5b6000806020838503121561238d57600080fd5b823567ffffffffffffffff8111156123a457600080fd5b6123b085828601612335565b90969095509350505050565b6020808252825182820181905260009190848201906040850190845b818110156123f65783511515835292840192918401916001016123d8565b50909695505050505050565b60006020828403121561241457600080fd5b5035919050565b634e487b7160e01b600052602160045260246000fd5b6004811061244f57634e487b7160e01b600052602160045260246000fd5b9052565b6000815180845260005b818110156124795760208185018101518683018201520161245d565b506000602082860101526020601f19601f83011685010191505092915050565b80516001600160a01b0316825260006101e06020830151602085015260408301516040850152606083015160608501526080830151608085015260a083015160a085015260c083015160c085015260e083015161250160e08601826001600160a01b03169052565b506101008084015161251582870182612431565b505061012080840151828287015261252f83870182612453565b6101408681015190880152610160808701519088015261018080870151908801526101a080870151908801526101c095860151959096019490945250929392505050565b6020815260006125866020830184612499565b9392505050565b803563ffffffff811681146125a157600080fd5b919050565b6000602082840312156125b857600080fd5b6125868261258d565b6000604082018415158352602060408185015281855180845260608601915060608160051b870101935082870160005b8281101561261f57605f1988870301845261260d868351612499565b955092840192908401906001016125f1565b509398975050505050505050565b80356001600160a01b03811681146125a157600080fd5b8015158114611cc057600080fd5b60008060008060008060008060e0898b03121561266e57600080fd5b6126778961262d565b97506020890135965060408901359550606089013561269581612644565b9450608089013567ffffffffffffffff8111156126b157600080fd5b6126bd8b828c01612335565b90955093505060a08901356126d181612644565b91506126df60c08a0161262d565b90509295985092959890939650565b6020808252825182820181905260009190848201906040850190845b818110156123f65783518352928401929184019160010161270a565b6000806040838503121561273957600080fd5b6127428361262d565b946020939093013593505050565b60006020828403121561276257600080fd5b6125868261262d565b6000806040838503121561277e57600080fd5b6127878361258d565b91506127956020840161262d565b90509250929050565b86815260c0602082015260006127b760c0830188612453565b86604084015285606084015282810360808401526127d58186612453565b91505082151560a0830152979650505050505050565b60008060008060008060c0878903121561280457600080fd5b61280d8761262d565b955061281b6020880161262d565b94506128296040880161262d565b93506128376060880161262d565b92506128456080880161262d565b915061285360a0880161262d565b90509295509295509295565b634e487b7160e01b600052604160045260246000fd5b634e487b7160e01b600052603260045260246000fd5b6000808335601e198436030181126128a257600080fd5b83018035915067ffffffffffffffff8211156128bd57600080fd5b6020019150368190038213156118f957600080fd5b8183823760009101908152919050565b634e487b7160e01b600052601160045260246000fd5b600060ff821660ff810361290e5761290e6128e2565b60010192915050565b600181811c9082168061292b57607f821691505b60208210810361294b57634e487b7160e01b600052602260045260246000fd5b50919050565b60006020828403121561296357600080fd5b5051919050565b80820180821115610600576106006128e2565b63ffffffff81811683821602808216919082811461299d5761299d6128e2565b505092915050565b63ffffffff8281168282160390808211156129c2576129c26128e2565b5092915050565b6000600182016129db576129db6128e2565b5060010190565b81810381811115610600576106006128e2565b600082612a1257634e487b7160e01b600052601260045260246000fd5b500490565b8082028115828204841417610600576106006128e2565b600061ffff808316818103612a4557612a456128e2565b6001019392505050565b601f821115612a9957600081815260208120601f850160051c81016020861015612a765750805b601f850160051c820191505b81811015612a9557828155600101612a82565b5050505b505050565b815167ffffffffffffffff811115612ab857612ab861285f565b612acc81612ac68454612917565b84612a4f565b602080601f831160018114612b015760008415612ae95750858301515b600019600386901b1c1916600185901b178555612a95565b600085815260208120601f198616915b82811015612b3057888601518255948401946001909101908401612b11565b5085821015612b4e5787850151600019600388901b60f8161c191681555b5050505050600190811b01905550565b60008154612b6b81612917565b808552602060018381168015612b885760018114612ba257612bd0565b60ff1985168884015283151560051b880183019550612bd0565b866000528260002060005b85811015612bc85781548a8201860152908301908401612bad565b890184019650505b505050505092915050565b60208152612c0460208201612bf784546001600160a01b031690565b6001600160a01b03169052565b600182015460408201526002820154606082015260038201546080820152600482015460a0820152600582015460c0820152600682015460e082015260078201546001600160a01b038116610100830152600090612c6c610120840160ff8360a01c16612431565b506101e080610140840152612c88610200840160088601612b5e565b6009850154610160850152600a850154610180850152600b8501546101a0850152600c8501546101c0850152600d909401549201919091525090565b600060208284031215612cd657600080fd5b815161258681612644565b6020808252602b908201527f496e697469616c697a61626c653a20636f6e7472616374206973206e6f74206960408201526a6e697469616c697a696e6760a81b60608201526080019056fea26469706673582212206b9e03aa512d192b5ee0c70c78bae6534383e99397714ac162a6d87aeaf521d764736f6c63430008130033",
					"opcodes": "PUSH1 0x80 PUSH1 0x40 MSTORE PUSH1 0x66 SLOAD PUSH3 0x14 SWAP1 PUSH1 0x1 PUSH3 0x4B JUMP JUMPDEST PUSH1 0x65 SSTORE PUSH3 0xF4240 PUSH1 0x66 DUP2 SWAP1 SSTORE PUSH1 0x64 PUSH1 0x67 SSTORE PUSH3 0x32 SWAP1 PUSH1 0x1E PUSH3 0x4B JUMP JUMPDEST PUSH1 0x68 SSTORE PUSH1 0x69 DUP1 SLOAD PUSH4 0xFFFFFFFF NOT AND PUSH1 0xA OR SWAP1 SSTORE PUSH3 0x77 JUMP JUMPDEST DUP1 DUP3 MUL DUP2 ISZERO DUP3 DUP3 DIV DUP5 EQ OR PUSH3 0x71 JUMPI PUSH4 0x4E487B71 PUSH1 0xE0 SHL PUSH1 0x0 MSTORE PUSH1 0x11 PUSH1 0x4 MSTORE PUSH1 0x24 PUSH1 0x0 REVERT JUMPDEST SWAP3 SWAP2 POP POP JUMP JUMPDEST PUSH2 0x2D62 DUP1 PUSH3 0x87 PUSH1 0x0 CODECOPY PUSH1 0x0 RETURN INVALID PUSH1 0x80 PUSH1 0x40 MSTORE CALLVALUE DUP1 ISZERO PUSH2 0x10 JUMPI PUSH1 0x0 DUP1 REVERT JUMPDEST POP PUSH1 0x4 CALLDATASIZE LT PUSH2 0x1F0 JUMPI PUSH1 0x0 CALLDATALOAD PUSH1 0xE0 SHR DUP1 PUSH4 0x8FE39EFD GT PUSH2 0x10F JUMPI DUP1 PUSH4 0xC01C36D0 GT PUSH2 0xA2 JUMPI DUP1 PUSH4 0xDDCD6408 GT PUSH2 0x71 JUMPI DUP1 PUSH4 0xDDCD6408 EQ PUSH2 0x457 JUMPI DUP1 PUSH4 0xF2FDE38B EQ PUSH2 0x46A JUMPI DUP1 PUSH4 0xF4B7F343 EQ PUSH2 0x47D JUMPI DUP1 PUSH4 0xF8525B93 EQ PUSH2 0x490 JUMPI PUSH1 0x0 DUP1 REVERT JUMPDEST DUP1 PUSH4 0xC01C36D0 EQ PUSH2 0x3F9 JUMPI DUP1 PUSH4 0xCB286F19 EQ PUSH2 0x40C JUMPI DUP1 PUSH4 0xCC2A9A5B EQ PUSH2 0x431 JUMPI DUP1 PUSH4 0xDC30CBB4 EQ PUSH2 0x444 JUMPI PUSH1 0x0 DUP1 REVERT JUMPDEST DUP1 PUSH4 0xB7182530 GT PUSH2 0xDE JUMPI DUP1 PUSH4 0xB7182530 EQ PUSH2 0x3A0 JUMPI DUP1 PUSH4 0xB935948A EQ PUSH2 0x3B3 JUMPI DUP1 PUSH4 0xBC65FEE5 EQ PUSH2 0x3C6 JUMPI DUP1 PUSH4 0xBF9CE952 EQ PUSH2 0x3E6 JUMPI PUSH1 0x0 DUP1 REVERT JUMPDEST DUP1 PUSH4 0x8FE39EFD EQ PUSH2 0x359 JUMPI DUP1 PUSH4 0xA429A513 EQ PUSH2 0x361 JUMPI DUP1 PUSH4 0xA559934E EQ PUSH2 0x384 JUMPI DUP1 PUSH4 0xB22A9F9A EQ PUSH2 0x397 JUMPI PUSH1 0x0 DUP1 REVERT JUMPDEST DUP1 PUSH4 0x486F6AFE GT PUSH2 0x187 JUMPI DUP1 PUSH4 0x8C4A876D GT PUSH2 0x156 JUMPI DUP1 PUSH4 0x8C4A876D EQ PUSH2 0x30D JUMPI DUP1 PUSH4 0x8C7AB1D7 EQ PUSH2 0x315 JUMPI DUP1 PUSH4 0x8DA5CB5B EQ PUSH2 0x328 JUMPI DUP1 PUSH4 0x8EC09C97 EQ PUSH2 0x339 JUMPI PUSH1 0x0 DUP1 REVERT JUMPDEST DUP1 PUSH4 0x486F6AFE EQ PUSH2 0x2AF JUMPI DUP1 PUSH4 0x61B26F27 EQ PUSH2 0x2C2 JUMPI DUP1 PUSH4 0x715018A6 EQ PUSH2 0x2E2 JUMPI DUP1 PUSH4 0x78F25AEE EQ PUSH2 0x2EC JUMPI PUSH1 0x0 DUP1 REVERT JUMPDEST DUP1 PUSH4 0x362EFC3D GT PUSH2 0x1C3 JUMPI DUP1 PUSH4 0x362EFC3D EQ PUSH2 0x281 JUMPI DUP1 PUSH4 0x395348DC EQ PUSH2 0x28A JUMPI DUP1 PUSH4 0x435A3E50 EQ PUSH2 0x293 JUMPI DUP1 PUSH4 0x47CCCA02 EQ PUSH2 0x29C JUMPI PUSH1 0x0 DUP1 REVERT JUMPDEST DUP1 PUSH4 0x76D5556 EQ PUSH2 0x1F5 JUMPI DUP1 PUSH4 0x11F1374A EQ PUSH2 0x211 JUMPI DUP1 PUSH4 0x2F48AB7D EQ PUSH2 0x236 JUMPI DUP1 PUSH4 0x31AE322F EQ PUSH2 0x261 JUMPI JUMPDEST PUSH1 0x0 DUP1 REVERT JUMPDEST PUSH2 0x1FE PUSH1 0x6D SLOAD DUP2 JUMP JUMPDEST PUSH1 0x40 MLOAD SWAP1 DUP2 MSTORE PUSH1 0x20 ADD JUMPDEST PUSH1 0x40 MLOAD DUP1 SWAP2 SUB SWAP1 RETURN JUMPDEST PUSH1 0x69 SLOAD PUSH2 0x221 SWAP1 PUSH4 0xFFFFFFFF AND DUP2 JUMP JUMPDEST PUSH1 0x40 MLOAD PUSH4 0xFFFFFFFF SWAP1 SWAP2 AND DUP2 MSTORE PUSH1 0x20 ADD PUSH2 0x208 JUMP JUMPDEST PUSH1 0x6E SLOAD PUSH2 0x249 SWAP1 PUSH1 0x1 PUSH1 0x1 PUSH1 0xA0 SHL SUB AND DUP2 JUMP JUMPDEST PUSH1 0x40 MLOAD PUSH1 0x1 PUSH1 0x1 PUSH1 0xA0 SHL SUB SWAP1 SWAP2 AND DUP2 MSTORE PUSH1 0x20 ADD PUSH2 0x208 JUMP JUMPDEST PUSH2 0x274 PUSH2 0x26F CALLDATASIZE PUSH1 0x4 PUSH2 0x237A JUMP JUMPDEST PUSH2 0x4A3 JUMP JUMPDEST PUSH1 0x40 MLOAD PUSH2 0x208 SWAP2 SWAP1 PUSH2 0x23BC JUMP JUMPDEST PUSH2 0x1FE PUSH1 0x66 SLOAD DUP2 JUMP JUMPDEST PUSH2 0x1FE PUSH1 0x65 SLOAD DUP2 JUMP JUMPDEST PUSH2 0x1FE PUSH1 0x68 SLOAD DUP2 JUMP JUMPDEST PUSH1 0x71 SLOAD PUSH2 0x249 SWAP1 PUSH1 0x1 PUSH1 0x1 PUSH1 0xA0 SHL SUB AND DUP2 JUMP JUMPDEST PUSH1 0x6F SLOAD PUSH2 0x249 SWAP1 PUSH1 0x1 PUSH1 0x1 PUSH1 0xA0 SHL SUB AND DUP2 JUMP JUMPDEST PUSH2 0x2D5 PUSH2 0x2D0 CALLDATASIZE PUSH1 0x4 PUSH2 0x2402 JUMP JUMPDEST PUSH2 0x606 JUMP JUMPDEST PUSH1 0x40 MLOAD PUSH2 0x208 SWAP2 SWAP1 PUSH2 0x2573 JUMP JUMPDEST PUSH2 0x2EA PUSH2 0x789 JUMP JUMPDEST STOP JUMPDEST PUSH2 0x2FF PUSH2 0x2FA CALLDATASIZE PUSH1 0x4 PUSH2 0x25A6 JUMP JUMPDEST PUSH2 0x79D JUMP JUMPDEST PUSH1 0x40 MLOAD PUSH2 0x208 SWAP3 SWAP2 SWAP1 PUSH2 0x25C1 JUMP JUMPDEST PUSH2 0x1FE PUSH2 0xE3D JUMP JUMPDEST PUSH1 0x70 SLOAD PUSH2 0x249 SWAP1 PUSH1 0x1 PUSH1 0x1 PUSH1 0xA0 SHL SUB AND DUP2 JUMP JUMPDEST PUSH1 0x33 SLOAD PUSH1 0x1 PUSH1 0x1 PUSH1 0xA0 SHL SUB AND PUSH2 0x249 JUMP JUMPDEST PUSH2 0x34C PUSH2 0x347 CALLDATASIZE PUSH1 0x4 PUSH2 0x2652 JUMP JUMPDEST PUSH2 0xEA7 JUMP JUMPDEST PUSH1 0x40 MLOAD PUSH2 0x208 SWAP2 SWAP1 PUSH2 0x26EE JUMP JUMPDEST PUSH2 0x1FE PUSH2 0x1133 JUMP JUMPDEST PUSH2 0x374 PUSH2 0x36F CALLDATASIZE PUSH1 0x4 PUSH2 0x2726 JUMP JUMPDEST PUSH2 0x11A5 JUMP JUMPDEST PUSH1 0x40 MLOAD SWAP1 ISZERO ISZERO DUP2 MSTORE PUSH1 0x20 ADD PUSH2 0x208 JUMP JUMPDEST PUSH2 0x2EA PUSH2 0x392 CALLDATASIZE PUSH1 0x4 PUSH2 0x2750 JUMP JUMPDEST PUSH2 0x1226 JUMP JUMPDEST PUSH2 0x1FE PUSH1 0x67 SLOAD DUP2 JUMP JUMPDEST PUSH2 0x2FF PUSH2 0x3AE CALLDATASIZE PUSH1 0x4 PUSH2 0x276B JUMP JUMPDEST PUSH2 0x1250 JUMP JUMPDEST PUSH2 0x2EA PUSH2 0x3C1 CALLDATASIZE PUSH1 0x4 PUSH2 0x2402 JUMP JUMPDEST PUSH2 0x1900 JUMP JUMPDEST PUSH2 0x1FE PUSH2 0x3D4 CALLDATASIZE PUSH1 0x4 PUSH2 0x2402 JUMP JUMPDEST PUSH1 0x6B PUSH1 0x20 MSTORE PUSH1 0x0 SWAP1 DUP2 MSTORE PUSH1 0x40 SWAP1 KECCAK256 SLOAD DUP2 JUMP JUMPDEST PUSH1 0x73 SLOAD PUSH2 0x249 SWAP1 PUSH1 0x1 PUSH1 0x1 PUSH1 0xA0 SHL SUB AND DUP2 JUMP JUMPDEST PUSH1 0x72 SLOAD PUSH2 0x249 SWAP1 PUSH1 0x1 PUSH1 0x1 PUSH1 0xA0 SHL SUB AND DUP2 JUMP JUMPDEST PUSH2 0x41F PUSH2 0x41A CALLDATASIZE PUSH1 0x4 PUSH2 0x2402 JUMP JUMPDEST PUSH2 0x190D JUMP JUMPDEST PUSH1 0x40 MLOAD PUSH2 0x208 SWAP7 SWAP6 SWAP5 SWAP4 SWAP3 SWAP2 SWAP1 PUSH2 0x279E JUMP JUMPDEST PUSH2 0x2EA PUSH2 0x43F CALLDATASIZE PUSH1 0x4 PUSH2 0x27EB JUMP JUMPDEST PUSH2 0x1A55 JUMP JUMPDEST PUSH2 0x2EA PUSH2 0x452 CALLDATASIZE PUSH1 0x4 PUSH2 0x2750 JUMP JUMPDEST PUSH2 0x1BF6 JUMP JUMPDEST PUSH2 0x2EA PUSH2 0x465 CALLDATASIZE PUSH1 0x4 PUSH2 0x2750 JUMP JUMPDEST PUSH2 0x1C20 JUMP JUMPDEST PUSH2 0x2EA PUSH2 0x478 CALLDATASIZE PUSH1 0x4 PUSH2 0x2750 JUMP JUMPDEST PUSH2 0x1C4A JUMP JUMPDEST PUSH2 0x274 PUSH2 0x48B CALLDATASIZE PUSH1 0x4 PUSH2 0x237A JUMP JUMPDEST PUSH2 0x1CC3 JUMP JUMPDEST PUSH2 0x2EA PUSH2 0x49E CALLDATASIZE PUSH1 0x4 PUSH2 0x2750 JUMP JUMPDEST PUSH2 0x1E18 JUMP JUMPDEST PUSH1 0x60 PUSH1 0x0 DUP3 PUSH8 0xFFFFFFFFFFFFFFFF DUP2 GT ISZERO PUSH2 0x4C0 JUMPI PUSH2 0x4C0 PUSH2 0x285F JUMP JUMPDEST PUSH1 0x40 MLOAD SWAP1 DUP1 DUP3 MSTORE DUP1 PUSH1 0x20 MUL PUSH1 0x20 ADD DUP3 ADD PUSH1 0x40 MSTORE DUP1 ISZERO PUSH2 0x4E9 JUMPI DUP2 PUSH1 0x20 ADD PUSH1 0x20 DUP3 MUL DUP1 CALLDATASIZE DUP4 CALLDATACOPY ADD SWAP1 POP JUMPDEST POP SWAP1 POP PUSH1 0x0 DUP1 JUMPDEST PUSH1 0xFF DUP2 AND DUP6 GT ISZERO PUSH2 0x5FA JUMPI DUP6 DUP6 DUP3 PUSH1 0xFF AND DUP2 DUP2 LT PUSH2 0x510 JUMPI PUSH2 0x510 PUSH2 0x2875 JUMP JUMPDEST SWAP1 POP PUSH1 0x20 MUL DUP2 ADD SWAP1 PUSH2 0x522 SWAP2 SWAP1 PUSH2 0x288B JUMP JUMPDEST PUSH1 0x40 MLOAD PUSH1 0x20 ADD PUSH2 0x533 SWAP3 SWAP2 SWAP1 PUSH2 0x28D2 JUMP JUMPDEST PUSH1 0x40 DUP1 MLOAD DUP1 DUP4 SUB PUSH1 0x1F NOT ADD DUP2 MSTORE SWAP2 DUP2 MSTORE DUP2 MLOAD PUSH1 0x20 SWAP3 DUP4 ADD KECCAK256 PUSH1 0x0 DUP2 DUP2 MSTORE PUSH1 0x6A SWAP1 SWAP4 MSTORE SWAP2 KECCAK256 SLOAD SWAP1 SWAP3 POP PUSH1 0x1 PUSH1 0x1 PUSH1 0xA0 SHL SUB AND CALLER EQ ISZERO DUP1 PUSH2 0x59D JUMPI POP PUSH1 0x0 DUP1 DUP4 DUP2 MSTORE PUSH1 0x6A PUSH1 0x20 MSTORE PUSH1 0x40 SWAP1 KECCAK256 PUSH1 0x7 ADD SLOAD PUSH1 0x1 PUSH1 0xA0 SHL SWAP1 DIV PUSH1 0xFF AND PUSH1 0x3 DUP2 GT ISZERO PUSH2 0x59B JUMPI PUSH2 0x59B PUSH2 0x241B JUMP JUMPDEST EQ JUMPDEST PUSH2 0x5E8 JUMPI PUSH1 0x0 DUP3 DUP2 MSTORE PUSH1 0x6A PUSH1 0x20 MSTORE PUSH1 0x40 SWAP1 KECCAK256 PUSH1 0x7 ADD DUP1 SLOAD PUSH1 0xFF PUSH1 0xA0 SHL NOT AND SWAP1 SSTORE DUP3 MLOAD PUSH1 0x1 SWAP1 DUP5 SWAP1 PUSH1 0xFF DUP5 AND SWAP1 DUP2 LT PUSH2 0x5D7 JUMPI PUSH2 0x5D7 PUSH2 0x2875 JUMP JUMPDEST SWAP2 ISZERO ISZERO PUSH1 0x20 SWAP3 DUP4 MUL SWAP2 SWAP1 SWAP2 ADD SWAP1 SWAP2 ADD MSTORE JUMPDEST DUP1 PUSH2 0x5F2 DUP2 PUSH2 0x28F8 JUMP JUMPDEST SWAP2 POP POP PUSH2 0x4F0 JUMP JUMPDEST POP SWAP1 SWAP2 POP POP JUMPDEST SWAP3 SWAP2 POP POP JUMP JUMPDEST PUSH2 0x60E PUSH2 0x22BB JUMP JUMPDEST PUSH1 0x0 DUP3 DUP2 MSTORE PUSH1 0x6A PUSH1 0x20 SWAP1 DUP2 MSTORE PUSH1 0x40 SWAP2 DUP3 SWAP1 KECCAK256 DUP3 MLOAD PUSH2 0x1E0 DUP2 ADD DUP5 MSTORE DUP2 SLOAD PUSH1 0x1 PUSH1 0x1 PUSH1 0xA0 SHL SUB SWAP1 DUP2 AND DUP3 MSTORE PUSH1 0x1 DUP4 ADD SLOAD SWAP4 DUP3 ADD SWAP4 SWAP1 SWAP4 MSTORE PUSH1 0x2 DUP3 ADD SLOAD SWAP4 DUP2 ADD SWAP4 SWAP1 SWAP4 MSTORE PUSH1 0x3 DUP1 DUP3 ADD SLOAD PUSH1 0x60 DUP6 ADD MSTORE PUSH1 0x4 DUP3 ADD SLOAD PUSH1 0x80 DUP6 ADD MSTORE PUSH1 0x5 DUP3 ADD SLOAD PUSH1 0xA0 DUP6 ADD MSTORE PUSH1 0x6 DUP3 ADD SLOAD PUSH1 0xC0 DUP6 ADD MSTORE PUSH1 0x7 DUP3 ADD SLOAD SWAP3 DUP4 AND PUSH1 0xE0 DUP6 ADD MSTORE SWAP1 SWAP2 PUSH2 0x100 DUP5 ADD SWAP2 PUSH1 0x1 PUSH1 0xA0 SHL SWAP1 SWAP2 DIV PUSH1 0xFF AND SWAP1 DUP2 GT ISZERO PUSH2 0x6A9 JUMPI PUSH2 0x6A9 PUSH2 0x241B JUMP JUMPDEST PUSH1 0x3 DUP2 GT ISZERO PUSH2 0x6BA JUMPI PUSH2 0x6BA PUSH2 0x241B JUMP JUMPDEST DUP2 MSTORE PUSH1 0x20 ADD PUSH1 0x8 DUP3 ADD DUP1 SLOAD PUSH2 0x6CE SWAP1 PUSH2 0x2917 JUMP JUMPDEST DUP1 PUSH1 0x1F ADD PUSH1 0x20 DUP1 SWAP2 DIV MUL PUSH1 0x20 ADD PUSH1 0x40 MLOAD SWAP1 DUP2 ADD PUSH1 0x40 MSTORE DUP1 SWAP3 SWAP2 SWAP1 DUP2 DUP2 MSTORE PUSH1 0x20 ADD DUP3 DUP1 SLOAD PUSH2 0x6FA SWAP1 PUSH2 0x2917 JUMP JUMPDEST DUP1 ISZERO PUSH2 0x747 JUMPI DUP1 PUSH1 0x1F LT PUSH2 0x71C JUMPI PUSH2 0x100 DUP1 DUP4 SLOAD DIV MUL DUP4 MSTORE SWAP2 PUSH1 0x20 ADD SWAP2 PUSH2 0x747 JUMP JUMPDEST DUP3 ADD SWAP2 SWAP1 PUSH1 0x0 MSTORE PUSH1 0x20 PUSH1 0x0 KECCAK256 SWAP1 JUMPDEST DUP2 SLOAD DUP2 MSTORE SWAP1 PUSH1 0x1 ADD SWAP1 PUSH1 0x20 ADD DUP1 DUP4 GT PUSH2 0x72A JUMPI DUP3 SWAP1 SUB PUSH1 0x1F AND DUP3 ADD SWAP2 JUMPDEST POP POP POP POP POP DUP2 MSTORE PUSH1 0x20 ADD PUSH1 0x9 DUP3 ADD SLOAD DUP2 MSTORE PUSH1 0x20 ADD PUSH1 0xA DUP3 ADD SLOAD DUP2 MSTORE PUSH1 0x20 ADD PUSH1 0xB DUP3 ADD SLOAD DUP2 MSTORE PUSH1 0x20 ADD PUSH1 0xC DUP3 ADD SLOAD DUP2 MSTORE PUSH1 0x20 ADD PUSH1 0xD DUP3 ADD SLOAD DUP2 MSTORE POP POP SWAP1 POP SWAP2 SWAP1 POP JUMP JUMPDEST PUSH2 0x791 PUSH2 0x1E42 JUMP JUMPDEST PUSH2 0x79B PUSH1 0x0 PUSH2 0x1E9C JUMP JUMPDEST JUMP JUMPDEST PUSH1 0x71 SLOAD PUSH1 0x40 MLOAD PUSH4 0x70A08231 PUSH1 0xE0 SHL DUP2 MSTORE CALLER PUSH1 0x4 DUP3 ADD MSTORE PUSH1 0x0 SWAP2 PUSH1 0x60 SWAP2 DUP4 SWAP2 PUSH1 0x1 PUSH1 0x1 PUSH1 0xA0 SHL SUB AND SWAP1 PUSH4 0x70A08231 SWAP1 PUSH1 0x24 ADD PUSH1 0x20 PUSH1 0x40 MLOAD DUP1 DUP4 SUB DUP2 DUP7 GAS STATICCALL ISZERO DUP1 ISZERO PUSH2 0x7EB JUMPI RETURNDATASIZE PUSH1 0x0 DUP1 RETURNDATACOPY RETURNDATASIZE PUSH1 0x0 REVERT JUMPDEST POP POP POP POP PUSH1 0x40 MLOAD RETURNDATASIZE PUSH1 0x1F NOT PUSH1 0x1F DUP3 ADD AND DUP3 ADD DUP1 PUSH1 0x40 MSTORE POP DUP2 ADD SWAP1 PUSH2 0x80F SWAP2 SWAP1 PUSH2 0x2951 JUMP JUMPDEST PUSH1 0x69 SLOAD SWAP1 SWAP2 POP PUSH2 0x825 SWAP1 PUSH4 0xFFFFFFFF AND DUP3 PUSH2 0x296A JUMP JUMPDEST PUSH1 0x69 SLOAD PUSH2 0x838 SWAP1 PUSH4 0xFFFFFFFF AND DUP7 PUSH2 0x297D JUMP JUMPDEST PUSH4 0xFFFFFFFF AND GT ISZERO PUSH2 0x84E JUMPI PUSH1 0x0 SWAP3 POP POP SWAP2 POP SWAP2 JUMP JUMPDEST PUSH1 0x69 SLOAD DUP2 SWAP1 PUSH2 0x863 SWAP1 PUSH4 0xFFFFFFFF AND DUP7 PUSH2 0x297D JUMP JUMPDEST PUSH4 0xFFFFFFFF AND LT ISZERO PUSH2 0xB42 JUMPI PUSH1 0x69 SLOAD PUSH1 0x1 SWAP4 POP PUSH4 0xFFFFFFFF AND PUSH8 0xFFFFFFFFFFFFFFFF DUP2 GT ISZERO PUSH2 0x894 JUMPI PUSH2 0x894 PUSH2 0x285F JUMP JUMPDEST PUSH1 0x40 MLOAD SWAP1 DUP1 DUP3 MSTORE DUP1 PUSH1 0x20 MUL PUSH1 0x20 ADD DUP3 ADD PUSH1 0x40 MSTORE DUP1 ISZERO PUSH2 0x8CD JUMPI DUP2 PUSH1 0x20 ADD JUMPDEST PUSH2 0x8BA PUSH2 0x22BB JUMP JUMPDEST DUP2 MSTORE PUSH1 0x20 ADD SWAP1 PUSH1 0x1 SWAP1 SUB SWAP1 DUP2 PUSH2 0x8B2 JUMPI SWAP1 POP JUMPDEST POP SWAP2 POP PUSH1 0x0 JUMPDEST DUP3 MLOAD DUP2 LT ISZERO PUSH2 0xB3B JUMPI PUSH1 0x71 SLOAD PUSH1 0x69 SLOAD PUSH1 0x6A SWAP2 PUSH1 0x0 SWAP2 PUSH1 0x1 PUSH1 0x1 PUSH1 0xA0 SHL SUB SWAP1 SWAP2 AND SWAP1 PUSH4 0x2F745C59 SWAP1 CALLER SWAP1 DUP7 SWAP1 PUSH4 0xFFFFFFFF AND PUSH2 0x90E DUP2 DUP14 PUSH2 0x297D JUMP JUMPDEST PUSH2 0x918 SWAP2 SWAP1 PUSH2 0x29A5 JUMP JUMPDEST PUSH4 0xFFFFFFFF AND PUSH2 0x928 SWAP2 SWAP1 PUSH2 0x296A JUMP JUMPDEST PUSH1 0x40 MLOAD PUSH1 0x1 PUSH1 0x1 PUSH1 0xE0 SHL SUB NOT PUSH1 0xE0 DUP6 SWAP1 SHL AND DUP2 MSTORE PUSH1 0x1 PUSH1 0x1 PUSH1 0xA0 SHL SUB SWAP1 SWAP3 AND PUSH1 0x4 DUP4 ADD MSTORE PUSH1 0x24 DUP3 ADD MSTORE PUSH1 0x44 ADD PUSH1 0x20 PUSH1 0x40 MLOAD DUP1 DUP4 SUB DUP2 DUP7 GAS STATICCALL ISZERO DUP1 ISZERO PUSH2 0x971 JUMPI RETURNDATASIZE PUSH1 0x0 DUP1 RETURNDATACOPY RETURNDATASIZE PUSH1 0x0 REVERT JUMPDEST POP POP POP POP PUSH1 0x40 MLOAD RETURNDATASIZE PUSH1 0x1F NOT PUSH1 0x1F DUP3 ADD AND DUP3 ADD DUP1 PUSH1 0x40 MSTORE POP DUP2 ADD SWAP1 PUSH2 0x995 SWAP2 SWAP1 PUSH2 0x2951 JUMP JUMPDEST DUP2 MSTORE PUSH1 0x20 DUP1 DUP3 ADD SWAP3 SWAP1 SWAP3 MSTORE PUSH1 0x40 SWAP1 DUP2 ADD PUSH1 0x0 KECCAK256 DUP2 MLOAD PUSH2 0x1E0 DUP2 ADD DUP4 MSTORE DUP2 SLOAD PUSH1 0x1 PUSH1 0x1 PUSH1 0xA0 SHL SUB SWAP1 DUP2 AND DUP3 MSTORE PUSH1 0x1 DUP4 ADD SLOAD SWAP5 DUP3 ADD SWAP5 SWAP1 SWAP5 MSTORE PUSH1 0x2 DUP3 ADD SLOAD SWAP3 DUP2 ADD SWAP3 SWAP1 SWAP3 MSTORE PUSH1 0x3 DUP1 DUP3 ADD SLOAD PUSH1 0x60 DUP5 ADD MSTORE PUSH1 0x4 DUP3 ADD SLOAD PUSH1 0x80 DUP5 ADD MSTORE PUSH1 0x5 DUP3 ADD SLOAD PUSH1 0xA0 DUP5 ADD MSTORE PUSH1 0x6 DUP3 ADD SLOAD PUSH1 0xC0 DUP5 ADD MSTORE PUSH1 0x7 DUP3 ADD SLOAD SWAP4 DUP5 AND PUSH1 0xE0 DUP5 ADD MSTORE SWAP2 SWAP3 SWAP1 SWAP2 PUSH2 0x100 DUP5 ADD SWAP2 PUSH1 0x1 PUSH1 0xA0 SHL SWAP1 DIV PUSH1 0xFF AND SWAP1 DUP2 GT ISZERO PUSH2 0xA32 JUMPI PUSH2 0xA32 PUSH2 0x241B JUMP JUMPDEST PUSH1 0x3 DUP2 GT ISZERO PUSH2 0xA43 JUMPI PUSH2 0xA43 PUSH2 0x241B JUMP JUMPDEST DUP2 MSTORE PUSH1 0x20 ADD PUSH1 0x8 DUP3 ADD DUP1 SLOAD PUSH2 0xA57 SWAP1 PUSH2 0x2917 JUMP JUMPDEST DUP1 PUSH1 0x1F ADD PUSH1 0x20 DUP1 SWAP2 DIV MUL PUSH1 0x20 ADD PUSH1 0x40 MLOAD SWAP1 DUP2 ADD PUSH1 0x40 MSTORE DUP1 SWAP3 SWAP2 SWAP1 DUP2 DUP2 MSTORE PUSH1 0x20 ADD DUP3 DUP1 SLOAD PUSH2 0xA83 SWAP1 PUSH2 0x2917 JUMP JUMPDEST DUP1 ISZERO PUSH2 0xAD0 JUMPI DUP1 PUSH1 0x1F LT PUSH2 0xAA5 JUMPI PUSH2 0x100 DUP1 DUP4 SLOAD DIV MUL DUP4 MSTORE SWAP2 PUSH1 0x20 ADD SWAP2 PUSH2 0xAD0 JUMP JUMPDEST DUP3 ADD SWAP2 SWAP1 PUSH1 0x0 MSTORE PUSH1 0x20 PUSH1 0x0 KECCAK256 SWAP1 JUMPDEST DUP2 SLOAD DUP2 MSTORE SWAP1 PUSH1 0x1 ADD SWAP1 PUSH1 0x20 ADD DUP1 DUP4 GT PUSH2 0xAB3 JUMPI DUP3 SWAP1 SUB PUSH1 0x1F AND DUP3 ADD SWAP2 JUMPDEST POP POP POP POP POP DUP2 MSTORE PUSH1 0x20 ADD PUSH1 0x9 DUP3 ADD SLOAD DUP2 MSTORE PUSH1 0x20 ADD PUSH1 0xA DUP3 ADD SLOAD DUP2 MSTORE PUSH1 0x20 ADD PUSH1 0xB DUP3 ADD SLOAD DUP2 MSTORE PUSH1 0x20 ADD PUSH1 0xC DUP3 ADD SLOAD DUP2 MSTORE PUSH1 0x20 ADD PUSH1 0xD DUP3 ADD SLOAD DUP2 MSTORE POP POP DUP4 DUP3 DUP2 MLOAD DUP2 LT PUSH2 0xB1D JUMPI PUSH2 0xB1D PUSH2 0x2875 JUMP JUMPDEST PUSH1 0x20 MUL PUSH1 0x20 ADD ADD DUP2 SWAP1 MSTORE POP DUP1 DUP1 PUSH2 0xB33 SWAP1 PUSH2 0x29C9 JUMP JUMPDEST SWAP2 POP POP PUSH2 0x8D3 JUMP JUMPDEST POP POP SWAP2 POP SWAP2 JUMP JUMPDEST PUSH1 0x69 SLOAD PUSH1 0x0 SWAP4 POP DUP2 SWAP1 PUSH2 0xB5B SWAP1 PUSH4 0xFFFFFFFF AND DUP7 PUSH2 0x297D JUMP JUMPDEST PUSH4 0xFFFFFFFF AND PUSH2 0xB6B SWAP2 SWAP1 PUSH2 0x29E2 JUMP JUMPDEST PUSH1 0x69 SLOAD PUSH2 0xB7E SWAP2 SWAP1 PUSH4 0xFFFFFFFF AND PUSH2 0x29E2 JUMP JUMPDEST PUSH8 0xFFFFFFFFFFFFFFFF DUP2 GT ISZERO PUSH2 0xB96 JUMPI PUSH2 0xB96 PUSH2 0x285F JUMP JUMPDEST PUSH1 0x40 MLOAD SWAP1 DUP1 DUP3 MSTORE DUP1 PUSH1 0x20 MUL PUSH1 0x20 ADD DUP3 ADD PUSH1 0x40 MSTORE DUP1 ISZERO PUSH2 0xBCF JUMPI DUP2 PUSH1 0x20 ADD JUMPDEST PUSH2 0xBBC PUSH2 0x22BB JUMP JUMPDEST DUP2 MSTORE PUSH1 0x20 ADD SWAP1 PUSH1 0x1 SWAP1 SUB SWAP1 DUP2 PUSH2 0xBB4 JUMPI SWAP1 POP JUMPDEST POP SWAP2 POP PUSH1 0x0 JUMPDEST DUP3 MLOAD DUP2 LT ISZERO PUSH2 0xB3B JUMPI PUSH1 0x71 SLOAD PUSH1 0x69 SLOAD PUSH1 0x6A SWAP2 PUSH1 0x0 SWAP2 PUSH1 0x1 PUSH1 0x1 PUSH1 0xA0 SHL SUB SWAP1 SWAP2 AND SWAP1 PUSH4 0x2F745C59 SWAP1 CALLER SWAP1 DUP7 SWAP1 PUSH4 0xFFFFFFFF AND PUSH2 0xC10 DUP2 DUP14 PUSH2 0x297D JUMP JUMPDEST PUSH2 0xC1A SWAP2 SWAP1 PUSH2 0x29A5 JUMP JUMPDEST PUSH4 0xFFFFFFFF AND PUSH2 0xC2A SWAP2 SWAP1 PUSH2 0x296A JUMP JUMPDEST PUSH1 0x40 MLOAD PUSH1 0x1 PUSH1 0x1 PUSH1 0xE0 SHL SUB NOT PUSH1 0xE0 DUP6 SWAP1 SHL AND DUP2 MSTORE PUSH1 0x1 PUSH1 0x1 PUSH1 0xA0 SHL SUB SWAP1 SWAP3 AND PUSH1 0x4 DUP4 ADD MSTORE PUSH1 0x24 DUP3 ADD MSTORE PUSH1 0x44 ADD PUSH1 0x20 PUSH1 0x40 MLOAD DUP1 DUP4 SUB DUP2 DUP7 GAS STATICCALL ISZERO DUP1 ISZERO PUSH2 0xC73 JUMPI RETURNDATASIZE PUSH1 0x0 DUP1 RETURNDATACOPY RETURNDATASIZE PUSH1 0x0 REVERT JUMPDEST POP POP POP POP PUSH1 0x40 MLOAD RETURNDATASIZE PUSH1 0x1F NOT PUSH1 0x1F DUP3 ADD AND DUP3 ADD DUP1 PUSH1 0x40 MSTORE POP DUP2 ADD SWAP1 PUSH2 0xC97 SWAP2 SWAP1 PUSH2 0x2951 JUMP JUMPDEST DUP2 MSTORE PUSH1 0x20 DUP1 DUP3 ADD SWAP3 SWAP1 SWAP3 MSTORE PUSH1 0x40 SWAP1 DUP2 ADD PUSH1 0x0 KECCAK256 DUP2 MLOAD PUSH2 0x1E0 DUP2 ADD DUP4 MSTORE DUP2 SLOAD PUSH1 0x1 PUSH1 0x1 PUSH1 0xA0 SHL SUB SWAP1 DUP2 AND DUP3 MSTORE PUSH1 0x1 DUP4 ADD SLOAD SWAP5 DUP3 ADD SWAP5 SWAP1 SWAP5 MSTORE PUSH1 0x2 DUP3 ADD SLOAD SWAP3 DUP2 ADD SWAP3 SWAP1 SWAP3 MSTORE PUSH1 0x3 DUP1 DUP3 ADD SLOAD PUSH1 0x60 DUP5 ADD MSTORE PUSH1 0x4 DUP3 ADD SLOAD PUSH1 0x80 DUP5 ADD MSTORE PUSH1 0x5 DUP3 ADD SLOAD PUSH1 0xA0 DUP5 ADD MSTORE PUSH1 0x6 DUP3 ADD SLOAD PUSH1 0xC0 DUP5 ADD MSTORE PUSH1 0x7 DUP3 ADD SLOAD SWAP4 DUP5 AND PUSH1 0xE0 DUP5 ADD MSTORE SWAP2 SWAP3 SWAP1 SWAP2 PUSH2 0x100 DUP5 ADD SWAP2 PUSH1 0x1 PUSH1 0xA0 SHL SWAP1 DIV PUSH1 0xFF AND SWAP1 DUP2 GT ISZERO PUSH2 0xD34 JUMPI PUSH2 0xD34 PUSH2 0x241B JUMP JUMPDEST PUSH1 0x3 DUP2 GT ISZERO PUSH2 0xD45 JUMPI PUSH2 0xD45 PUSH2 0x241B JUMP JUMPDEST DUP2 MSTORE PUSH1 0x20 ADD PUSH1 0x8 DUP3 ADD DUP1 SLOAD PUSH2 0xD59 SWAP1 PUSH2 0x2917 JUMP JUMPDEST DUP1 PUSH1 0x1F ADD PUSH1 0x20 DUP1 SWAP2 DIV MUL PUSH1 0x20 ADD PUSH1 0x40 MLOAD SWAP1 DUP2 ADD PUSH1 0x40 MSTORE DUP1 SWAP3 SWAP2 SWAP1 DUP2 DUP2 MSTORE PUSH1 0x20 ADD DUP3 DUP1 SLOAD PUSH2 0xD85 SWAP1 PUSH2 0x2917 JUMP JUMPDEST DUP1 ISZERO PUSH2 0xDD2 JUMPI DUP1 PUSH1 0x1F LT PUSH2 0xDA7 JUMPI PUSH2 0x100 DUP1 DUP4 SLOAD DIV MUL DUP4 MSTORE SWAP2 PUSH1 0x20 ADD SWAP2 PUSH2 0xDD2 JUMP JUMPDEST DUP3 ADD SWAP2 SWAP1 PUSH1 0x0 MSTORE PUSH1 0x20 PUSH1 0x0 KECCAK256 SWAP1 JUMPDEST DUP2 SLOAD DUP2 MSTORE SWAP1 PUSH1 0x1 ADD SWAP1 PUSH1 0x20 ADD DUP1 DUP4 GT PUSH2 0xDB5 JUMPI DUP3 SWAP1 SUB PUSH1 0x1F AND DUP3 ADD SWAP2 JUMPDEST POP POP POP POP POP DUP2 MSTORE PUSH1 0x20 ADD PUSH1 0x9 DUP3 ADD SLOAD DUP2 MSTORE PUSH1 0x20 ADD PUSH1 0xA DUP3 ADD SLOAD DUP2 MSTORE PUSH1 0x20 ADD PUSH1 0xB DUP3 ADD SLOAD DUP2 MSTORE PUSH1 0x20 ADD PUSH1 0xC DUP3 ADD SLOAD DUP2 MSTORE PUSH1 0x20 ADD PUSH1 0xD DUP3 ADD SLOAD DUP2 MSTORE POP POP DUP4 DUP3 DUP2 MLOAD DUP2 LT PUSH2 0xE1F JUMPI PUSH2 0xE1F PUSH2 0x2875 JUMP JUMPDEST PUSH1 0x20 MUL PUSH1 0x20 ADD ADD DUP2 SWAP1 MSTORE POP DUP1 DUP1 PUSH2 0xE35 SWAP1 PUSH2 0x29C9 JUMP JUMPDEST SWAP2 POP POP PUSH2 0xBD5 JUMP JUMPDEST PUSH1 0x0 DUP1 PUSH1 0x65 SLOAD SWAP1 POP PUSH1 0x0 PUSH3 0x4F1A00 PUSH1 0x6D SLOAD TIMESTAMP PUSH2 0xE59 SWAP2 SWAP1 PUSH2 0x29E2 JUMP JUMPDEST PUSH2 0xE63 SWAP2 SWAP1 PUSH2 0x29F5 JUMP JUMPDEST SWAP1 POP PUSH1 0x0 JUMPDEST DUP2 DUP2 PUSH2 0xFFFF AND LT ISZERO PUSH2 0xE9F JUMPI PUSH1 0x64 PUSH2 0xE81 DUP5 PUSH1 0x7D PUSH2 0x2A17 JUMP JUMPDEST PUSH2 0xE8B SWAP2 SWAP1 PUSH2 0x29F5 JUMP JUMPDEST SWAP3 POP DUP1 PUSH2 0xE97 DUP2 PUSH2 0x2A2E JUMP JUMPDEST SWAP2 POP POP PUSH2 0xE68 JUMP JUMPDEST POP SWAP1 SWAP3 SWAP2 POP POP JUMP JUMPDEST PUSH1 0x73 SLOAD PUSH1 0x60 SWAP1 PUSH1 0x1 PUSH1 0x1 PUSH1 0xA0 SHL SUB AND CALLER EQ PUSH2 0xF02 JUMPI PUSH1 0x40 MLOAD PUSH3 0x461BCD PUSH1 0xE5 SHL DUP2 MSTORE PUSH1 0x20 PUSH1 0x4 DUP3 ADD MSTORE PUSH1 0x16 PUSH1 0x24 DUP3 ADD MSTORE PUSH22 0x12DD995B9D1D5C994E8813DB9B1E481C1C9BD91D58DD PUSH1 0x52 SHL PUSH1 0x44 DUP3 ADD MSTORE PUSH1 0x64 ADD JUMPDEST PUSH1 0x40 MLOAD DUP1 SWAP2 SUB SWAP1 REVERT JUMPDEST DUP4 DUP8 EQ DUP1 ISZERO PUSH2 0xF11 JUMPI POP PUSH1 0x0 DUP8 GT JUMPDEST PUSH2 0xF91 JUMPI PUSH1 0x40 MLOAD PUSH3 0x461BCD PUSH1 0xE5 SHL DUP2 MSTORE PUSH1 0x20 PUSH1 0x4 DUP3 ADD MSTORE PUSH1 0x44 PUSH1 0x24 DUP3 ADD DUP2 SWAP1 MSTORE PUSH32 0x4B76656E747572653A20436F64652048617368204E6F7420457175616C20546F SWAP1 DUP3 ADD MSTORE PUSH32 0x205175616E74697479206F72205175616E7469747920536D616C6C6572205468 PUSH1 0x64 DUP3 ADD MSTORE PUSH4 0x616E2031 PUSH1 0xE0 SHL PUSH1 0x84 DUP3 ADD MSTORE PUSH1 0xA4 ADD PUSH2 0xEF9 JUMP JUMPDEST PUSH1 0x1 PUSH1 0x1 PUSH1 0xA0 SHL SUB DUP3 AND ISZERO PUSH2 0x1013 JUMPI PUSH1 0x6C SLOAD DUP9 LT ISZERO PUSH2 0x100E JUMPI PUSH1 0x40 MLOAD PUSH3 0x461BCD PUSH1 0xE5 SHL DUP2 MSTORE PUSH1 0x20 PUSH1 0x4 DUP3 ADD MSTORE PUSH1 0x33 PUSH1 0x24 DUP3 ADD MSTORE PUSH32 0x4B76656E747572653A20436C6F7564204D696E696E67204F6E6C7920466F7220 PUSH1 0x44 DUP3 ADD MSTORE PUSH19 0x5061636B6167652041626F766520243530303 PUSH1 0x6C SHL PUSH1 0x64 DUP3 ADD MSTORE PUSH1 0x84 ADD PUSH2 0xEF9 JUMP JUMPDEST PUSH2 0x106A JUMP JUMPDEST PUSH1 0x1 PUSH1 0x1 PUSH1 0xA0 SHL SUB DUP3 AND ISZERO PUSH2 0x106A JUMPI PUSH1 0x40 MLOAD PUSH3 0x461BCD PUSH1 0xE5 SHL DUP2 MSTORE PUSH1 0x20 PUSH1 0x4 DUP3 ADD MSTORE PUSH1 0x1F PUSH1 0x24 DUP3 ADD MSTORE PUSH32 0x4B76656E747572653A204F6E6C7920666F7220636C6F7564206D696E696E6700 PUSH1 0x44 DUP3 ADD MSTORE PUSH1 0x64 ADD PUSH2 0xEF9 JUMP JUMPDEST PUSH1 0x0 PUSH2 0x1074 PUSH2 0xE3D JUMP JUMPDEST SWAP1 POP PUSH1 0x0 DUP9 PUSH8 0xFFFFFFFFFFFFFFFF DUP2 GT ISZERO PUSH2 0x1091 JUMPI PUSH2 0x1091 PUSH2 0x285F JUMP JUMPDEST PUSH1 0x40 MLOAD SWAP1 DUP1 DUP3 MSTORE DUP1 PUSH1 0x20 MUL PUSH1 0x20 ADD DUP3 ADD PUSH1 0x40 MSTORE DUP1 ISZERO PUSH2 0x10BA JUMPI DUP2 PUSH1 0x20 ADD PUSH1 0x20 DUP3 MUL DUP1 CALLDATASIZE DUP4 CALLDATACOPY ADD SWAP1 POP JUMPDEST POP SWAP1 POP PUSH1 0x0 JUMPDEST DUP10 DUP2 LT ISZERO PUSH2 0x1124 JUMPI PUSH1 0x0 PUSH2 0x10F1 DUP14 DUP11 DUP11 DUP6 DUP2 DUP2 LT PUSH2 0x10E0 JUMPI PUSH2 0x10E0 PUSH2 0x2875 JUMP JUMPDEST SWAP1 POP PUSH1 0x20 MUL ADD CALLDATALOAD DUP13 DUP16 DUP9 DUP13 DUP13 PUSH2 0x1EEE JUMP JUMPDEST SWAP1 POP DUP1 DUP4 DUP4 DUP2 MLOAD DUP2 LT PUSH2 0x1106 JUMPI PUSH2 0x1106 PUSH2 0x2875 JUMP JUMPDEST PUSH1 0x20 SWAP1 DUP2 MUL SWAP2 SWAP1 SWAP2 ADD ADD MSTORE POP DUP1 PUSH2 0x111C DUP2 PUSH2 0x29C9 JUMP JUMPDEST SWAP2 POP POP PUSH2 0x10C0 JUMP JUMPDEST POP SWAP11 SWAP10 POP POP POP POP POP POP POP POP POP POP JUMP JUMPDEST PUSH1 0x71 SLOAD PUSH1 0x40 MLOAD PUSH4 0x70A08231 PUSH1 0xE0 SHL DUP2 MSTORE CALLER PUSH1 0x4 DUP3 ADD MSTORE PUSH1 0x0 SWAP2 PUSH1 0x1 PUSH1 0x1 PUSH1 0xA0 SHL SUB AND SWAP1 PUSH4 0x70A08231 SWAP1 PUSH1 0x24 ADD PUSH1 0x20 PUSH1 0x40 MLOAD DUP1 DUP4 SUB DUP2 DUP7 GAS STATICCALL ISZERO DUP1 ISZERO PUSH2 0x117C JUMPI RETURNDATASIZE PUSH1 0x0 DUP1 RETURNDATACOPY RETURNDATASIZE PUSH1 0x0 REVERT JUMPDEST POP POP POP POP PUSH1 0x40 MLOAD RETURNDATASIZE PUSH1 0x1F NOT PUSH1 0x1F DUP3 ADD AND DUP3 ADD DUP1 PUSH1 0x40 MSTORE POP DUP2 ADD SWAP1 PUSH2 0x11A0 SWAP2 SWAP1 PUSH2 0x2951 JUMP JUMPDEST SWAP1 POP SWAP1 JUMP JUMPDEST PUSH1 0x72 SLOAD PUSH1 0x0 SWAP1 PUSH1 0x1 PUSH1 0x1 PUSH1 0xA0 SHL SUB AND CALLER EQ PUSH2 0x1202 JUMPI PUSH1 0x40 MLOAD PUSH3 0x461BCD PUSH1 0xE5 SHL DUP2 MSTORE PUSH1 0x20 PUSH1 0x4 DUP3 ADD MSTORE PUSH1 0x17 PUSH1 0x24 DUP3 ADD MSTORE PUSH32 0x4B76656E747572653A204F6E6C79206B76656E74757265000000000000000000 PUSH1 0x44 DUP3 ADD MSTORE PUSH1 0x64 ADD PUSH2 0xEF9 JUMP JUMPDEST PUSH2 0x121C DUP4 DUP4 PUSH1 0x0 PUSH1 0x68 SLOAD PUSH2 0x1214 PUSH2 0xE3D JUMP JUMPDEST PUSH1 0x0 DUP1 PUSH2 0x1EEE JUMP JUMPDEST POP PUSH1 0x1 SWAP4 SWAP3 POP POP POP JUMP JUMPDEST PUSH2 0x122E PUSH2 0x1E42 JUMP JUMPDEST PUSH1 0x70 DUP1 SLOAD PUSH1 0x1 PUSH1 0x1 PUSH1 0xA0 SHL SUB NOT AND PUSH1 0x1 PUSH1 0x1 PUSH1 0xA0 SHL SUB SWAP3 SWAP1 SWAP3 AND SWAP2 SWAP1 SWAP2 OR SWAP1 SSTORE JUMP JUMPDEST PUSH1 0x0 PUSH1 0x60 PUSH2 0x125C PUSH2 0x1E42 JUMP JUMPDEST PUSH1 0x71 SLOAD PUSH1 0x40 MLOAD PUSH4 0x70A08231 PUSH1 0xE0 SHL DUP2 MSTORE PUSH1 0x1 PUSH1 0x1 PUSH1 0xA0 SHL SUB DUP6 DUP2 AND PUSH1 0x4 DUP4 ADD MSTORE PUSH1 0x0 SWAP3 AND SWAP1 PUSH4 0x70A08231 SWAP1 PUSH1 0x24 ADD PUSH1 0x20 PUSH1 0x40 MLOAD DUP1 DUP4 SUB DUP2 DUP7 GAS STATICCALL ISZERO DUP1 ISZERO PUSH2 0x12A7 JUMPI RETURNDATASIZE PUSH1 0x0 DUP1 RETURNDATACOPY RETURNDATASIZE PUSH1 0x0 REVERT JUMPDEST POP POP POP POP PUSH1 0x40 MLOAD RETURNDATASIZE PUSH1 0x1F NOT PUSH1 0x1F DUP3 ADD AND DUP3 ADD DUP1 PUSH1 0x40 MSTORE POP DUP2 ADD SWAP1 PUSH2 0x12CB SWAP2 SWAP1 PUSH2 0x2951 JUMP JUMPDEST PUSH1 0x69 SLOAD SWAP1 SWAP2 POP PUSH2 0x12E1 SWAP1 PUSH4 0xFFFFFFFF AND DUP3 PUSH2 0x296A JUMP JUMPDEST PUSH1 0x69 SLOAD PUSH2 0x12F4 SWAP1 PUSH4 0xFFFFFFFF AND DUP8 PUSH2 0x297D JUMP JUMPDEST PUSH4 0xFFFFFFFF AND GT ISZERO PUSH2 0x130A JUMPI PUSH1 0x0 SWAP3 POP POP PUSH2 0x18F9 JUMP JUMPDEST PUSH1 0x69 SLOAD DUP2 SWAP1 PUSH2 0x131F SWAP1 PUSH4 0xFFFFFFFF AND DUP8 PUSH2 0x297D JUMP JUMPDEST PUSH4 0xFFFFFFFF AND LT ISZERO PUSH2 0x15FE JUMPI PUSH1 0x69 SLOAD PUSH1 0x1 SWAP4 POP PUSH4 0xFFFFFFFF AND PUSH8 0xFFFFFFFFFFFFFFFF DUP2 GT ISZERO PUSH2 0x1350 JUMPI PUSH2 0x1350 PUSH2 0x285F JUMP JUMPDEST PUSH1 0x40 MLOAD SWAP1 DUP1 DUP3 MSTORE DUP1 PUSH1 0x20 MUL PUSH1 0x20 ADD DUP3 ADD PUSH1 0x40 MSTORE DUP1 ISZERO PUSH2 0x1389 JUMPI DUP2 PUSH1 0x20 ADD JUMPDEST PUSH2 0x1376 PUSH2 0x22BB JUMP JUMPDEST DUP2 MSTORE PUSH1 0x20 ADD SWAP1 PUSH1 0x1 SWAP1 SUB SWAP1 DUP2 PUSH2 0x136E JUMPI SWAP1 POP JUMPDEST POP SWAP2 POP PUSH1 0x0 JUMPDEST DUP3 MLOAD DUP2 LT ISZERO PUSH2 0x15F7 JUMPI PUSH1 0x71 SLOAD PUSH1 0x69 SLOAD PUSH1 0x6A SWAP2 PUSH1 0x0 SWAP2 PUSH1 0x1 PUSH1 0x1 PUSH1 0xA0 SHL SUB SWAP1 SWAP2 AND SWAP1 PUSH4 0x2F745C59 SWAP1 DUP10 SWAP1 DUP7 SWAP1 PUSH4 0xFFFFFFFF AND PUSH2 0x13CA DUP2 DUP15 PUSH2 0x297D JUMP JUMPDEST PUSH2 0x13D4 SWAP2 SWAP1 PUSH2 0x29A5 JUMP JUMPDEST PUSH4 0xFFFFFFFF AND PUSH2 0x13E4 SWAP2 SWAP1 PUSH2 0x296A JUMP JUMPDEST PUSH1 0x40 MLOAD PUSH1 0x1 PUSH1 0x1 PUSH1 0xE0 SHL SUB NOT PUSH1 0xE0 DUP6 SWAP1 SHL AND DUP2 MSTORE PUSH1 0x1 PUSH1 0x1 PUSH1 0xA0 SHL SUB SWAP1 SWAP3 AND PUSH1 0x4 DUP4 ADD MSTORE PUSH1 0x24 DUP3 ADD MSTORE PUSH1 0x44 ADD PUSH1 0x20 PUSH1 0x40 MLOAD DUP1 DUP4 SUB DUP2 DUP7 GAS STATICCALL ISZERO DUP1 ISZERO PUSH2 0x142D JUMPI RETURNDATASIZE PUSH1 0x0 DUP1 RETURNDATACOPY RETURNDATASIZE PUSH1 0x0 REVERT JUMPDEST POP POP POP POP PUSH1 0x40 MLOAD RETURNDATASIZE PUSH1 0x1F NOT PUSH1 0x1F DUP3 ADD AND DUP3 ADD DUP1 PUSH1 0x40 MSTORE POP DUP2 ADD SWAP1 PUSH2 0x1451 SWAP2 SWAP1 PUSH2 0x2951 JUMP JUMPDEST DUP2 MSTORE PUSH1 0x20 DUP1 DUP3 ADD SWAP3 SWAP1 SWAP3 MSTORE PUSH1 0x40 SWAP1 DUP2 ADD PUSH1 0x0 KECCAK256 DUP2 MLOAD PUSH2 0x1E0 DUP2 ADD DUP4 MSTORE DUP2 SLOAD PUSH1 0x1 PUSH1 0x1 PUSH1 0xA0 SHL SUB SWAP1 DUP2 AND DUP3 MSTORE PUSH1 0x1 DUP4 ADD SLOAD SWAP5 DUP3 ADD SWAP5 SWAP1 SWAP5 MSTORE PUSH1 0x2 DUP3 ADD SLOAD SWAP3 DUP2 ADD SWAP3 SWAP1 SWAP3 MSTORE PUSH1 0x3 DUP1 DUP3 ADD SLOAD PUSH1 0x60 DUP5 ADD MSTORE PUSH1 0x4 DUP3 ADD SLOAD PUSH1 0x80 DUP5 ADD MSTORE PUSH1 0x5 DUP3 ADD SLOAD PUSH1 0xA0 DUP5 ADD MSTORE PUSH1 0x6 DUP3 ADD SLOAD PUSH1 0xC0 DUP5 ADD MSTORE PUSH1 0x7 DUP3 ADD SLOAD SWAP4 DUP5 AND PUSH1 0xE0 DUP5 ADD MSTORE SWAP2 SWAP3 SWAP1 SWAP2 PUSH2 0x100 DUP5 ADD SWAP2 PUSH1 0x1 PUSH1 0xA0 SHL SWAP1 DIV PUSH1 0xFF AND SWAP1 DUP2 GT ISZERO PUSH2 0x14EE JUMPI PUSH2 0x14EE PUSH2 0x241B JUMP JUMPDEST PUSH1 0x3 DUP2 GT ISZERO PUSH2 0x14FF JUMPI PUSH2 0x14FF PUSH2 0x241B JUMP JUMPDEST DUP2 MSTORE PUSH1 0x20 ADD PUSH1 0x8 DUP3 ADD DUP1 SLOAD PUSH2 0x1513 SWAP1 PUSH2 0x2917 JUMP JUMPDEST DUP1 PUSH1 0x1F ADD PUSH1 0x20 DUP1 SWAP2 DIV MUL PUSH1 0x20 ADD PUSH1 0x40 MLOAD SWAP1 DUP2 ADD PUSH1 0x40 MSTORE DUP1 SWAP3 SWAP2 SWAP1 DUP2 DUP2 MSTORE PUSH1 0x20 ADD DUP3 DUP1 SLOAD PUSH2 0x153F SWAP1 PUSH2 0x2917 JUMP JUMPDEST DUP1 ISZERO PUSH2 0x158C JUMPI DUP1 PUSH1 0x1F LT PUSH2 0x1561 JUMPI PUSH2 0x100 DUP1 DUP4 SLOAD DIV MUL DUP4 MSTORE SWAP2 PUSH1 0x20 ADD SWAP2 PUSH2 0x158C JUMP JUMPDEST DUP3 ADD SWAP2 SWAP1 PUSH1 0x0 MSTORE PUSH1 0x20 PUSH1 0x0 KECCAK256 SWAP1 JUMPDEST DUP2 SLOAD DUP2 MSTORE SWAP1 PUSH1 0x1 ADD SWAP1 PUSH1 0x20 ADD DUP1 DUP4 GT PUSH2 0x156F JUMPI DUP3 SWAP1 SUB PUSH1 0x1F AND DUP3 ADD SWAP2 JUMPDEST POP POP POP POP POP DUP2 MSTORE PUSH1 0x20 ADD PUSH1 0x9 DUP3 ADD SLOAD DUP2 MSTORE PUSH1 0x20 ADD PUSH1 0xA DUP3 ADD SLOAD DUP2 MSTORE PUSH1 0x20 ADD PUSH1 0xB DUP3 ADD SLOAD DUP2 MSTORE PUSH1 0x20 ADD PUSH1 0xC DUP3 ADD SLOAD DUP2 MSTORE PUSH1 0x20 ADD PUSH1 0xD DUP3 ADD SLOAD DUP2 MSTORE POP POP DUP4 DUP3 DUP2 MLOAD DUP2 LT PUSH2 0x15D9 JUMPI PUSH2 0x15D9 PUSH2 0x2875 JUMP JUMPDEST PUSH1 0x20 MUL PUSH1 0x20 ADD ADD DUP2 SWAP1 MSTORE POP DUP1 DUP1 PUSH2 0x15EF SWAP1 PUSH2 0x29C9 JUMP JUMPDEST SWAP2 POP POP PUSH2 0x138F JUMP JUMPDEST POP POP PUSH2 0x18F9 JUMP JUMPDEST PUSH1 0x69 SLOAD PUSH1 0x0 SWAP4 POP DUP2 SWAP1 PUSH2 0x1617 SWAP1 PUSH4 0xFFFFFFFF AND DUP8 PUSH2 0x297D JUMP JUMPDEST PUSH4 0xFFFFFFFF AND PUSH2 0x1627 SWAP2 SWAP1 PUSH2 0x29E2 JUMP JUMPDEST PUSH1 0x69 SLOAD PUSH2 0x163A SWAP2 SWAP1 PUSH4 0xFFFFFFFF AND PUSH2 0x29E2 JUMP JUMPDEST PUSH8 0xFFFFFFFFFFFFFFFF DUP2 GT ISZERO PUSH2 0x1652 JUMPI PUSH2 0x1652 PUSH2 0x285F JUMP JUMPDEST PUSH1 0x40 MLOAD SWAP1 DUP1 DUP3 MSTORE DUP1 PUSH1 0x20 MUL PUSH1 0x20 ADD DUP3 ADD PUSH1 0x40 MSTORE DUP1 ISZERO PUSH2 0x168B JUMPI DUP2 PUSH1 0x20 ADD JUMPDEST PUSH2 0x1678 PUSH2 0x22BB JUMP JUMPDEST DUP2 MSTORE PUSH1 0x20 ADD SWAP1 PUSH1 0x1 SWAP1 SUB SWAP1 DUP2 PUSH2 0x1670 JUMPI SWAP1 POP JUMPDEST POP SWAP2 POP PUSH1 0x0 JUMPDEST DUP3 MLOAD DUP2 LT ISZERO PUSH2 0x15F7 JUMPI PUSH1 0x71 SLOAD PUSH1 0x69 SLOAD PUSH1 0x6A SWAP2 PUSH1 0x0 SWAP2 PUSH1 0x1 PUSH1 0x1 PUSH1 0xA0 SHL SUB SWAP1 SWAP2 AND SWAP1 PUSH4 0x2F745C59 SWAP1 DUP10 SWAP1 DUP7 SWAP1 PUSH4 0xFFFFFFFF AND PUSH2 0x16CC DUP2 DUP15 PUSH2 0x297D JUMP JUMPDEST PUSH2 0x16D6 SWAP2 SWAP1 PUSH2 0x29A5 JUMP JUMPDEST PUSH4 0xFFFFFFFF AND PUSH2 0x16E6 SWAP2 SWAP1 PUSH2 0x296A JUMP JUMPDEST PUSH1 0x40 MLOAD PUSH1 0x1 PUSH1 0x1 PUSH1 0xE0 SHL SUB NOT PUSH1 0xE0 DUP6 SWAP1 SHL AND DUP2 MSTORE PUSH1 0x1 PUSH1 0x1 PUSH1 0xA0 SHL SUB SWAP1 SWAP3 AND PUSH1 0x4 DUP4 ADD MSTORE PUSH1 0x24 DUP3 ADD MSTORE PUSH1 0x44 ADD PUSH1 0x20 PUSH1 0x40 MLOAD DUP1 DUP4 SUB DUP2 DUP7 GAS STATICCALL ISZERO DUP1 ISZERO PUSH2 0x172F JUMPI RETURNDATASIZE PUSH1 0x0 DUP1 RETURNDATACOPY RETURNDATASIZE PUSH1 0x0 REVERT JUMPDEST POP POP POP POP PUSH1 0x40 MLOAD RETURNDATASIZE PUSH1 0x1F NOT PUSH1 0x1F DUP3 ADD AND DUP3 ADD DUP1 PUSH1 0x40 MSTORE POP DUP2 ADD SWAP1 PUSH2 0x1753 SWAP2 SWAP1 PUSH2 0x2951 JUMP JUMPDEST DUP2 MSTORE PUSH1 0x20 DUP1 DUP3 ADD SWAP3 SWAP1 SWAP3 MSTORE PUSH1 0x40 SWAP1 DUP2 ADD PUSH1 0x0 KECCAK256 DUP2 MLOAD PUSH2 0x1E0 DUP2 ADD DUP4 MSTORE DUP2 SLOAD PUSH1 0x1 PUSH1 0x1 PUSH1 0xA0 SHL SUB SWAP1 DUP2 AND DUP3 MSTORE PUSH1 0x1 DUP4 ADD SLOAD SWAP5 DUP3 ADD SWAP5 SWAP1 SWAP5 MSTORE PUSH1 0x2 DUP3 ADD SLOAD SWAP3 DUP2 ADD SWAP3 SWAP1 SWAP3 MSTORE PUSH1 0x3 DUP1 DUP3 ADD SLOAD PUSH1 0x60 DUP5 ADD MSTORE PUSH1 0x4 DUP3 ADD SLOAD PUSH1 0x80 DUP5 ADD MSTORE PUSH1 0x5 DUP3 ADD SLOAD PUSH1 0xA0 DUP5 ADD MSTORE PUSH1 0x6 DUP3 ADD SLOAD PUSH1 0xC0 DUP5 ADD MSTORE PUSH1 0x7 DUP3 ADD SLOAD SWAP4 DUP5 AND PUSH1 0xE0 DUP5 ADD MSTORE SWAP2 SWAP3 SWAP1 SWAP2 PUSH2 0x100 DUP5 ADD SWAP2 PUSH1 0x1 PUSH1 0xA0 SHL SWAP1 DIV PUSH1 0xFF AND SWAP1 DUP2 GT ISZERO PUSH2 0x17F0 JUMPI PUSH2 0x17F0 PUSH2 0x241B JUMP JUMPDEST PUSH1 0x3 DUP2 GT ISZERO PUSH2 0x1801 JUMPI PUSH2 0x1801 PUSH2 0x241B JUMP JUMPDEST DUP2 MSTORE PUSH1 0x20 ADD PUSH1 0x8 DUP3 ADD DUP1 SLOAD PUSH2 0x1815 SWAP1 PUSH2 0x2917 JUMP JUMPDEST DUP1 PUSH1 0x1F ADD PUSH1 0x20 DUP1 SWAP2 DIV MUL PUSH1 0x20 ADD PUSH1 0x40 MLOAD SWAP1 DUP2 ADD PUSH1 0x40 MSTORE DUP1 SWAP3 SWAP2 SWAP1 DUP2 DUP2 MSTORE PUSH1 0x20 ADD DUP3 DUP1 SLOAD PUSH2 0x1841 SWAP1 PUSH2 0x2917 JUMP JUMPDEST DUP1 ISZERO PUSH2 0x188E JUMPI DUP1 PUSH1 0x1F LT PUSH2 0x1863 JUMPI PUSH2 0x100 DUP1 DUP4 SLOAD DIV MUL DUP4 MSTORE SWAP2 PUSH1 0x20 ADD SWAP2 PUSH2 0x188E JUMP JUMPDEST DUP3 ADD SWAP2 SWAP1 PUSH1 0x0 MSTORE PUSH1 0x20 PUSH1 0x0 KECCAK256 SWAP1 JUMPDEST DUP2 SLOAD DUP2 MSTORE SWAP1 PUSH1 0x1 ADD SWAP1 PUSH1 0x20 ADD DUP1 DUP4 GT PUSH2 0x1871 JUMPI DUP3 SWAP1 SUB PUSH1 0x1F AND DUP3 ADD SWAP2 JUMPDEST POP POP POP POP POP DUP2 MSTORE PUSH1 0x20 ADD PUSH1 0x9 DUP3 ADD SLOAD DUP2 MSTORE PUSH1 0x20 ADD PUSH1 0xA DUP3 ADD SLOAD DUP2 MSTORE PUSH1 0x20 ADD PUSH1 0xB DUP3 ADD SLOAD DUP2 MSTORE PUSH1 0x20 ADD PUSH1 0xC DUP3 ADD SLOAD DUP2 MSTORE PUSH1 0x20 ADD PUSH1 0xD DUP3 ADD SLOAD DUP2 MSTORE POP POP DUP4 DUP3 DUP2 MLOAD DUP2 LT PUSH2 0x18DB JUMPI PUSH2 0x18DB PUSH2 0x2875 JUMP JUMPDEST PUSH1 0x20 MUL PUSH1 0x20 ADD ADD DUP2 SWAP1 MSTORE POP DUP1 DUP1 PUSH2 0x18F1 SWAP1 PUSH2 0x29C9 JUMP JUMPDEST SWAP2 POP POP PUSH2 0x1691 JUMP JUMPDEST SWAP3 POP SWAP3 SWAP1 POP JUMP JUMPDEST PUSH2 0x1908 PUSH2 0x1E42 JUMP JUMPDEST PUSH1 0x6C SSTORE JUMP JUMPDEST PUSH1 0x74 PUSH1 0x20 MSTORE PUSH1 0x0 SWAP1 DUP2 MSTORE PUSH1 0x40 SWAP1 KECCAK256 DUP1 SLOAD PUSH1 0x1 DUP3 ADD DUP1 SLOAD SWAP2 SWAP3 SWAP2 PUSH2 0x192F SWAP1 PUSH2 0x2917 JUMP JUMPDEST DUP1 PUSH1 0x1F ADD PUSH1 0x20 DUP1 SWAP2 DIV MUL PUSH1 0x20 ADD PUSH1 0x40 MLOAD SWAP1 DUP2 ADD PUSH1 0x40 MSTORE DUP1 SWAP3 SWAP2 SWAP1 DUP2 DUP2 MSTORE PUSH1 0x20 ADD DUP3 DUP1 SLOAD PUSH2 0x195B SWAP1 PUSH2 0x2917 JUMP JUMPDEST DUP1 ISZERO PUSH2 0x19A8 JUMPI DUP1 PUSH1 0x1F LT PUSH2 0x197D JUMPI PUSH2 0x100 DUP1 DUP4 SLOAD DIV MUL DUP4 MSTORE SWAP2 PUSH1 0x20 ADD SWAP2 PUSH2 0x19A8 JUMP JUMPDEST DUP3 ADD SWAP2 SWAP1 PUSH1 0x0 MSTORE PUSH1 0x20 PUSH1 0x0 KECCAK256 SWAP1 JUMPDEST DUP2 SLOAD DUP2 MSTORE SWAP1 PUSH1 0x1 ADD SWAP1 PUSH1 0x20 ADD DUP1 DUP4 GT PUSH2 0x198B JUMPI DUP3 SWAP1 SUB PUSH1 0x1F AND DUP3 ADD SWAP2 JUMPDEST POP POP POP POP POP SWAP1 DUP1 PUSH1 0x2 ADD SLOAD SWAP1 DUP1 PUSH1 0x3 ADD SLOAD SWAP1 DUP1 PUSH1 0x4 ADD DUP1 SLOAD PUSH2 0x19C9 SWAP1 PUSH2 0x2917 JUMP JUMPDEST DUP1 PUSH1 0x1F ADD PUSH1 0x20 DUP1 SWAP2 DIV MUL PUSH1 0x20 ADD PUSH1 0x40 MLOAD SWAP1 DUP2 ADD PUSH1 0x40 MSTORE DUP1 SWAP3 SWAP2 SWAP1 DUP2 DUP2 MSTORE PUSH1 0x20 ADD DUP3 DUP1 SLOAD PUSH2 0x19F5 SWAP1 PUSH2 0x2917 JUMP JUMPDEST DUP1 ISZERO PUSH2 0x1A42 JUMPI DUP1 PUSH1 0x1F LT PUSH2 0x1A17 JUMPI PUSH2 0x100 DUP1 DUP4 SLOAD DIV MUL DUP4 MSTORE SWAP2 PUSH1 0x20 ADD SWAP2 PUSH2 0x1A42 JUMP JUMPDEST DUP3 ADD SWAP2 SWAP1 PUSH1 0x0 MSTORE PUSH1 0x20 PUSH1 0x0 KECCAK256 SWAP1 JUMPDEST DUP2 SLOAD DUP2 MSTORE SWAP1 PUSH1 0x1 ADD SWAP1 PUSH1 0x20 ADD DUP1 DUP4 GT PUSH2 0x1A25 JUMPI DUP3 SWAP1 SUB PUSH1 0x1F AND DUP3 ADD SWAP2 JUMPDEST POP POP POP PUSH1 0x5 SWAP1 SWAP4 ADD SLOAD SWAP2 SWAP3 POP POP PUSH1 0xFF AND DUP7 JUMP JUMPDEST PUSH1 0x0 SLOAD PUSH2 0x100 SWAP1 DIV PUSH1 0xFF AND ISZERO DUP1 DUP1 ISZERO PUSH2 0x1A75 JUMPI POP PUSH1 0x0 SLOAD PUSH1 0x1 PUSH1 0xFF SWAP1 SWAP2 AND LT JUMPDEST DUP1 PUSH2 0x1A8F JUMPI POP ADDRESS EXTCODESIZE ISZERO DUP1 ISZERO PUSH2 0x1A8F JUMPI POP PUSH1 0x0 SLOAD PUSH1 0xFF AND PUSH1 0x1 EQ JUMPDEST PUSH2 0x1AF2 JUMPI PUSH1 0x40 MLOAD PUSH3 0x461BCD PUSH1 0xE5 SHL DUP2 MSTORE PUSH1 0x20 PUSH1 0x4 DUP3 ADD MSTORE PUSH1 0x2E PUSH1 0x24 DUP3 ADD MSTORE PUSH32 0x496E697469616C697A61626C653A20636F6E747261637420697320616C726561 PUSH1 0x44 DUP3 ADD MSTORE PUSH14 0x191E481A5B9A5D1A585B1A5E9959 PUSH1 0x92 SHL PUSH1 0x64 DUP3 ADD MSTORE PUSH1 0x84 ADD PUSH2 0xEF9 JUMP JUMPDEST PUSH1 0x0 DUP1 SLOAD PUSH1 0xFF NOT AND PUSH1 0x1 OR SWAP1 SSTORE DUP1 ISZERO PUSH2 0x1B15 JUMPI PUSH1 0x0 DUP1 SLOAD PUSH2 0xFF00 NOT AND PUSH2 0x100 OR SWAP1 SSTORE JUMPDEST PUSH1 0x6E DUP1 SLOAD PUSH1 0x1 PUSH1 0x1 PUSH1 0xA0 SHL SUB NOT SWAP1 DUP2 AND PUSH1 0x1 PUSH1 0x1 PUSH1 0xA0 SHL SUB DUP11 DUP2 AND SWAP2 SWAP1 SWAP2 OR SWAP1 SWAP3 SSTORE PUSH1 0x70 DUP1 SLOAD DUP3 AND DUP10 DUP5 AND OR SWAP1 SSTORE PUSH1 0x6F DUP1 SLOAD DUP3 AND DUP9 DUP5 AND OR SWAP1 SSTORE PUSH1 0x72 DUP1 SLOAD DUP3 AND DUP6 DUP5 AND OR SWAP1 SSTORE PUSH1 0x73 DUP1 SLOAD DUP3 AND DUP8 DUP5 AND OR SWAP1 SSTORE PUSH1 0x71 DUP1 SLOAD SWAP1 SWAP2 AND SWAP2 DUP6 AND SWAP2 SWAP1 SWAP2 OR SWAP1 SSTORE PUSH2 0x1B7F PUSH2 0x2237 JUMP JUMPDEST PUSH3 0xF4240 PUSH1 0x66 DUP2 SWAP1 SSTORE PUSH1 0x64 PUSH1 0x67 SSTORE PUSH2 0x1B98 SWAP1 PUSH1 0x1 PUSH2 0x2A17 JUMP JUMPDEST PUSH1 0x65 SSTORE PUSH2 0x1BA3 PUSH2 0x2266 JUMP JUMPDEST TIMESTAMP PUSH1 0x6D SSTORE DUP1 ISZERO PUSH2 0x1BED JUMPI PUSH1 0x0 DUP1 SLOAD PUSH2 0xFF00 NOT AND SWAP1 SSTORE PUSH1 0x40 MLOAD PUSH1 0x1 DUP2 MSTORE PUSH32 0x7F26B83FF96E1F2B6A682F133852F6798A09C465DA95921460CEFB3847402498 SWAP1 PUSH1 0x20 ADD PUSH1 0x40 MLOAD DUP1 SWAP2 SUB SWAP1 LOG1 JUMPDEST POP POP POP POP POP POP POP JUMP JUMPDEST PUSH2 0x1BFE PUSH2 0x1E42 JUMP JUMPDEST PUSH1 0x73 DUP1 SLOAD PUSH1 0x1 PUSH1 0x1 PUSH1 0xA0 SHL SUB NOT AND PUSH1 0x1 PUSH1 0x1 PUSH1 0xA0 SHL SUB SWAP3 SWAP1 SWAP3 AND SWAP2 SWAP1 SWAP2 OR SWAP1 SSTORE JUMP JUMPDEST PUSH2 0x1C28 PUSH2 0x1E42 JUMP JUMPDEST PUSH1 0x6E DUP1 SLOAD PUSH1 0x1 PUSH1 0x1 PUSH1 0xA0 SHL SUB NOT AND PUSH1 0x1 PUSH1 0x1 PUSH1 0xA0 SHL SUB SWAP3 SWAP1 SWAP3 AND SWAP2 SWAP1 SWAP2 OR SWAP1 SSTORE JUMP JUMPDEST PUSH2 0x1C52 PUSH2 0x1E42 JUMP JUMPDEST PUSH1 0x1 PUSH1 0x1 PUSH1 0xA0 SHL SUB DUP2 AND PUSH2 0x1CB7 JUMPI PUSH1 0x40 MLOAD PUSH3 0x461BCD PUSH1 0xE5 SHL DUP2 MSTORE PUSH1 0x20 PUSH1 0x4 DUP3 ADD MSTORE PUSH1 0x26 PUSH1 0x24 DUP3 ADD MSTORE PUSH32 0x4F776E61626C653A206E6577206F776E657220697320746865207A65726F2061 PUSH1 0x44 DUP3 ADD MSTORE PUSH6 0x646472657373 PUSH1 0xD0 SHL PUSH1 0x64 DUP3 ADD MSTORE PUSH1 0x84 ADD PUSH2 0xEF9 JUMP JUMPDEST PUSH2 0x1CC0 DUP2 PUSH2 0x1E9C JUMP JUMPDEST POP JUMP JUMPDEST PUSH1 0x60 PUSH1 0x0 DUP3 PUSH8 0xFFFFFFFFFFFFFFFF DUP2 GT ISZERO PUSH2 0x1CE0 JUMPI PUSH2 0x1CE0 PUSH2 0x285F JUMP JUMPDEST PUSH1 0x40 MLOAD SWAP1 DUP1 DUP3 MSTORE DUP1 PUSH1 0x20 MUL PUSH1 0x20 ADD DUP3 ADD PUSH1 0x40 MSTORE DUP1 ISZERO PUSH2 0x1D09 JUMPI DUP2 PUSH1 0x20 ADD PUSH1 0x20 DUP3 MUL DUP1 CALLDATASIZE DUP4 CALLDATACOPY ADD SWAP1 POP JUMPDEST POP SWAP1 POP PUSH1 0x0 DUP1 JUMPDEST DUP5 DUP2 LT ISZERO PUSH2 0x5FA JUMPI DUP6 DUP6 DUP3 DUP2 DUP2 LT PUSH2 0x1D2A JUMPI PUSH2 0x1D2A PUSH2 0x2875 JUMP JUMPDEST SWAP1 POP PUSH1 0x20 MUL DUP2 ADD SWAP1 PUSH2 0x1D3C SWAP2 SWAP1 PUSH2 0x288B JUMP JUMPDEST PUSH1 0x40 MLOAD PUSH1 0x20 ADD PUSH2 0x1D4D SWAP3 SWAP2 SWAP1 PUSH2 0x28D2 JUMP JUMPDEST PUSH1 0x40 DUP1 MLOAD DUP1 DUP4 SUB PUSH1 0x1F NOT ADD DUP2 MSTORE SWAP2 DUP2 MSTORE DUP2 MLOAD PUSH1 0x20 SWAP3 DUP4 ADD KECCAK256 PUSH1 0x0 DUP2 DUP2 MSTORE PUSH1 0x6A SWAP1 SWAP4 MSTORE SWAP2 KECCAK256 SLOAD SWAP1 SWAP3 POP PUSH1 0x1 PUSH1 0x1 PUSH1 0xA0 SHL SUB AND CALLER EQ ISZERO DUP1 PUSH2 0x1DB8 JUMPI POP PUSH1 0x1 PUSH1 0x0 DUP4 DUP2 MSTORE PUSH1 0x6A PUSH1 0x20 MSTORE PUSH1 0x40 SWAP1 KECCAK256 PUSH1 0x7 ADD SLOAD PUSH1 0x1 PUSH1 0xA0 SHL SWAP1 DIV PUSH1 0xFF AND PUSH1 0x3 DUP2 GT ISZERO PUSH2 0x1DB6 JUMPI PUSH2 0x1DB6 PUSH2 0x241B JUMP JUMPDEST EQ JUMPDEST PUSH2 0x1E06 JUMPI PUSH1 0x0 DUP3 DUP2 MSTORE PUSH1 0x6A PUSH1 0x20 MSTORE PUSH1 0x40 SWAP1 KECCAK256 PUSH1 0x7 ADD DUP1 SLOAD PUSH1 0xFF PUSH1 0xA0 SHL NOT AND PUSH1 0x1 PUSH1 0xA0 SHL OR SWAP1 SSTORE DUP3 MLOAD PUSH1 0x1 SWAP1 DUP5 SWAP1 DUP4 SWAP1 DUP2 LT PUSH2 0x1DF5 JUMPI PUSH2 0x1DF5 PUSH2 0x2875 JUMP JUMPDEST SWAP2 ISZERO ISZERO PUSH1 0x20 SWAP3 DUP4 MUL SWAP2 SWAP1 SWAP2 ADD SWAP1 SWAP2 ADD MSTORE JUMPDEST DUP1 PUSH2 0x1E10 DUP2 PUSH2 0x29C9 JUMP JUMPDEST SWAP2 POP POP PUSH2 0x1D10 JUMP JUMPDEST PUSH2 0x1E20 PUSH2 0x1E42 JUMP JUMPDEST PUSH1 0x71 DUP1 SLOAD PUSH1 0x1 PUSH1 0x1 PUSH1 0xA0 SHL SUB NOT AND PUSH1 0x1 PUSH1 0x1 PUSH1 0xA0 SHL SUB SWAP3 SWAP1 SWAP3 AND SWAP2 SWAP1 SWAP2 OR SWAP1 SSTORE JUMP JUMPDEST PUSH1 0x33 SLOAD PUSH1 0x1 PUSH1 0x1 PUSH1 0xA0 SHL SUB AND CALLER EQ PUSH2 0x79B JUMPI PUSH1 0x40 MLOAD PUSH3 0x461BCD PUSH1 0xE5 SHL DUP2 MSTORE PUSH1 0x20 PUSH1 0x4 DUP3 ADD DUP2 SWAP1 MSTORE PUSH1 0x24 DUP3 ADD MSTORE PUSH32 0x4F776E61626C653A2063616C6C6572206973206E6F7420746865206F776E6572 PUSH1 0x44 DUP3 ADD MSTORE PUSH1 0x64 ADD PUSH2 0xEF9 JUMP JUMPDEST PUSH1 0x33 DUP1 SLOAD PUSH1 0x1 PUSH1 0x1 PUSH1 0xA0 SHL SUB DUP4 DUP2 AND PUSH1 0x1 PUSH1 0x1 PUSH1 0xA0 SHL SUB NOT DUP4 AND DUP2 OR SWAP1 SWAP4 SSTORE PUSH1 0x40 MLOAD SWAP2 AND SWAP2 SWAP1 DUP3 SWAP1 PUSH32 0x8BE0079C531659141344CD1FD0A4F28419497F9722A3DAAFE3B4186F6B6457E0 SWAP1 PUSH1 0x0 SWAP1 LOG3 POP POP JUMP JUMPDEST PUSH1 0x0 DUP7 DUP2 MSTORE PUSH1 0x6A PUSH1 0x20 MSTORE PUSH1 0x40 DUP2 KECCAK256 SLOAD PUSH1 0x1 PUSH1 0x1 PUSH1 0xA0 SHL SUB AND ISZERO PUSH2 0x1F53 JUMPI PUSH1 0x40 MLOAD PUSH3 0x461BCD PUSH1 0xE5 SHL DUP2 MSTORE PUSH1 0x20 PUSH1 0x4 DUP3 ADD MSTORE PUSH1 0x1D PUSH1 0x24 DUP3 ADD MSTORE PUSH32 0x4D6574614E6F64653A204475706C696361746520436F64652048617368000000 PUSH1 0x44 DUP3 ADD MSTORE PUSH1 0x64 ADD PUSH2 0xEF9 JUMP JUMPDEST PUSH1 0x40 DUP1 MLOAD PUSH2 0x1E0 DUP2 ADD DUP3 MSTORE PUSH1 0x1 PUSH1 0x1 PUSH1 0xA0 SHL SUB DUP11 AND DUP2 MSTORE PUSH1 0x20 DUP2 ADD DUP10 SWAP1 MSTORE PUSH1 0x0 SWAP2 DUP2 ADD SWAP2 SWAP1 SWAP2 MSTORE DUP8 SWAP1 PUSH1 0x60 DUP2 ADD PUSH2 0x1F8D TIMESTAMP PUSH3 0x76A700 PUSH2 0x296A JUMP JUMPDEST DUP2 MSTORE PUSH1 0x20 ADD DUP7 PUSH1 0x67 SLOAD DUP10 PUSH2 0x1FA1 SWAP2 SWAP1 PUSH2 0x2A17 JUMP JUMPDEST PUSH2 0x1FAB SWAP2 SWAP1 PUSH2 0x29F5 JUMP JUMPDEST DUP2 MSTORE PUSH1 0x20 ADD PUSH1 0x6B PUSH1 0x0 DUP10 DUP2 MSTORE PUSH1 0x20 ADD SWAP1 DUP2 MSTORE PUSH1 0x20 ADD PUSH1 0x0 KECCAK256 SLOAD DUP2 MSTORE PUSH1 0x20 ADD DUP7 DUP2 MSTORE PUSH1 0x20 ADD DUP5 PUSH1 0x1 PUSH1 0x1 PUSH1 0xA0 SHL SUB AND DUP2 MSTORE PUSH1 0x20 ADD PUSH2 0x1FE7 DUP10 PUSH2 0x2275 JUMP JUMPDEST PUSH1 0x3 DUP2 GT ISZERO PUSH2 0x1FF8 JUMPI PUSH2 0x1FF8 PUSH2 0x241B JUMP JUMPDEST DUP2 MSTORE PUSH1 0x40 DUP1 MLOAD DUP1 DUP3 ADD DUP3 MSTORE PUSH1 0x8 DUP2 MSTORE PUSH8 0x4B56454E54555245 PUSH1 0xC0 SHL PUSH1 0x20 DUP1 DUP4 ADD SWAP2 SWAP1 SWAP2 MSTORE DUP1 DUP5 ADD SWAP2 SWAP1 SWAP2 MSTORE PUSH1 0x0 DUP3 DUP5 ADD DUP2 SWAP1 MSTORE PUSH1 0x60 DUP1 DUP6 ADD DUP3 SWAP1 MSTORE PUSH1 0x80 DUP1 DUP7 ADD DUP4 SWAP1 MSTORE PUSH1 0xA0 DUP1 DUP8 ADD DUP5 SWAP1 MSTORE PUSH1 0xC0 SWAP7 DUP8 ADD DUP5 SWAP1 MSTORE DUP16 DUP5 MSTORE PUSH1 0x6A DUP6 MSTORE SWAP3 DUP6 SWAP1 KECCAK256 DUP8 MLOAD DUP2 SLOAD PUSH1 0x1 PUSH1 0x1 PUSH1 0xA0 SHL SUB NOT SWAP1 DUP2 AND PUSH1 0x1 PUSH1 0x1 PUSH1 0xA0 SHL SUB SWAP3 DUP4 AND OR DUP4 SSTORE SWAP6 DUP10 ADD MLOAD PUSH1 0x1 DUP4 ADD SSTORE SWAP6 DUP9 ADD MLOAD PUSH1 0x2 DUP3 ADD SSTORE SWAP2 DUP8 ADD MLOAD PUSH1 0x3 DUP1 DUP5 ADD SWAP2 SWAP1 SWAP2 SSTORE SWAP1 DUP8 ADD MLOAD PUSH1 0x4 DUP4 ADD SSTORE SWAP2 DUP7 ADD MLOAD PUSH1 0x5 DUP3 ADD SSTORE SWAP4 DUP6 ADD MLOAD PUSH1 0x6 DUP6 ADD SSTORE PUSH1 0xE0 DUP6 ADD MLOAD PUSH1 0x7 DUP6 ADD DUP1 SLOAD SWAP4 DUP5 AND SWAP2 SWAP1 SWAP5 AND SWAP1 DUP2 OR DUP5 SSTORE PUSH2 0x100 DUP7 ADD MLOAD SWAP4 SWAP3 PUSH1 0x1 PUSH1 0x1 PUSH1 0xA8 SHL SUB NOT AND OR SWAP1 PUSH1 0x1 PUSH1 0xA0 SHL SWAP1 DUP5 SWAP1 DUP2 GT ISZERO PUSH2 0x20F0 JUMPI PUSH2 0x20F0 PUSH2 0x241B JUMP JUMPDEST MUL OR SWAP1 SSTORE POP PUSH2 0x120 DUP3 ADD MLOAD PUSH1 0x8 DUP3 ADD SWAP1 PUSH2 0x210A SWAP1 DUP3 PUSH2 0x2A9E JUMP JUMPDEST POP PUSH2 0x140 DUP3 ADD MLOAD PUSH1 0x9 DUP3 ADD SSTORE PUSH2 0x160 DUP3 ADD MLOAD PUSH1 0xA DUP3 ADD SSTORE PUSH2 0x180 DUP3 ADD MLOAD PUSH1 0xB DUP3 ADD SSTORE PUSH2 0x1A0 DUP3 ADD MLOAD PUSH1 0xC DUP3 ADD SSTORE PUSH2 0x1C0 SWAP1 SWAP2 ADD MLOAD PUSH1 0xD SWAP1 SWAP2 ADD SSTORE PUSH1 0x71 SLOAD PUSH1 0x40 MLOAD PUSH4 0x28512065 PUSH1 0xE2 SHL DUP2 MSTORE PUSH1 0x1 PUSH1 0x1 PUSH1 0xA0 SHL SUB DUP12 DUP2 AND PUSH1 0x4 DUP4 ADD MSTORE PUSH1 0x24 DUP3 ADD DUP5 SWAP1 MSTORE SWAP1 SWAP2 AND SWAP1 PUSH4 0xA1448194 SWAP1 PUSH1 0x44 ADD PUSH1 0x0 PUSH1 0x40 MLOAD DUP1 DUP4 SUB DUP2 PUSH1 0x0 DUP8 DUP1 EXTCODESIZE ISZERO DUP1 ISZERO PUSH2 0x2192 JUMPI PUSH1 0x0 DUP1 REVERT JUMPDEST POP GAS CALL ISZERO DUP1 ISZERO PUSH2 0x21A6 JUMPI RETURNDATASIZE PUSH1 0x0 DUP1 RETURNDATACOPY RETURNDATASIZE PUSH1 0x0 REVERT JUMPDEST POP POP PUSH1 0x6F SLOAD PUSH1 0x0 DUP12 DUP2 MSTORE PUSH1 0x6A PUSH1 0x20 MSTORE PUSH1 0x40 SWAP1 DUP2 SWAP1 KECCAK256 SWAP1 MLOAD PUSH4 0x7C94AC81 PUSH1 0xE1 SHL DUP2 MSTORE PUSH1 0x1 PUSH1 0x1 PUSH1 0xA0 SHL SUB SWAP1 SWAP3 AND SWAP4 POP PUSH4 0xF9295902 SWAP3 POP PUSH2 0x21E7 SWAP2 PUSH1 0x4 ADD PUSH2 0x2BDB JUMP JUMPDEST PUSH1 0x20 PUSH1 0x40 MLOAD DUP1 DUP4 SUB DUP2 PUSH1 0x0 DUP8 GAS CALL ISZERO DUP1 ISZERO PUSH2 0x2206 JUMPI RETURNDATASIZE PUSH1 0x0 DUP1 RETURNDATACOPY RETURNDATASIZE PUSH1 0x0 REVERT JUMPDEST POP POP POP POP PUSH1 0x40 MLOAD RETURNDATASIZE PUSH1 0x1F NOT PUSH1 0x1F DUP3 ADD AND DUP3 ADD DUP1 PUSH1 0x40 MSTORE POP DUP2 ADD SWAP1 PUSH2 0x222A SWAP2 SWAP1 PUSH2 0x2CC4 JUMP JUMPDEST POP SWAP9 SWAP8 POP POP POP POP POP POP POP POP JUMP JUMPDEST PUSH1 0x0 SLOAD PUSH2 0x100 SWAP1 DIV PUSH1 0xFF AND PUSH2 0x225E JUMPI PUSH1 0x40 MLOAD PUSH3 0x461BCD PUSH1 0xE5 SHL DUP2 MSTORE PUSH1 0x4 ADD PUSH2 0xEF9 SWAP1 PUSH2 0x2CE1 JUMP JUMPDEST PUSH2 0x79B PUSH2 0x228B JUMP JUMPDEST PUSH1 0x66 SLOAD PUSH2 0x1908 SWAP1 PUSH2 0x1388 PUSH2 0x2A17 JUMP JUMPDEST PUSH1 0x0 DUP2 PUSH2 0x2283 JUMPI PUSH1 0x1 PUSH2 0x600 JUMP JUMPDEST PUSH1 0x0 SWAP3 SWAP2 POP POP JUMP JUMPDEST PUSH1 0x0 SLOAD PUSH2 0x100 SWAP1 DIV PUSH1 0xFF AND PUSH2 0x22B2 JUMPI PUSH1 0x40 MLOAD PUSH3 0x461BCD PUSH1 0xE5 SHL DUP2 MSTORE PUSH1 0x4 ADD PUSH2 0xEF9 SWAP1 PUSH2 0x2CE1 JUMP JUMPDEST PUSH2 0x79B CALLER PUSH2 0x1E9C JUMP JUMPDEST PUSH1 0x40 DUP1 MLOAD PUSH2 0x1E0 DUP2 ADD DUP3 MSTORE PUSH1 0x0 DUP1 DUP3 MSTORE PUSH1 0x20 DUP3 ADD DUP2 SWAP1 MSTORE SWAP2 DUP2 ADD DUP3 SWAP1 MSTORE PUSH1 0x60 DUP2 ADD DUP3 SWAP1 MSTORE PUSH1 0x80 DUP2 ADD DUP3 SWAP1 MSTORE PUSH1 0xA0 DUP2 ADD DUP3 SWAP1 MSTORE PUSH1 0xC0 DUP2 ADD DUP3 SWAP1 MSTORE PUSH1 0xE0 DUP2 ADD DUP3 SWAP1 MSTORE SWAP1 PUSH2 0x100 DUP3 ADD SWAP1 DUP2 MSTORE PUSH1 0x20 ADD PUSH1 0x60 DUP2 MSTORE PUSH1 0x20 ADD PUSH1 0x0 DUP2 MSTORE PUSH1 0x20 ADD PUSH1 0x0 DUP2 MSTORE PUSH1 0x20 ADD PUSH1 0x0 DUP2 MSTORE PUSH1 0x20 ADD PUSH1 0x0 DUP1 NOT AND DUP2 MSTORE PUSH1 0x20 ADD PUSH1 0x0 DUP2 MSTORE POP SWAP1 JUMP JUMPDEST PUSH1 0x0 DUP1 DUP4 PUSH1 0x1F DUP5 ADD SLT PUSH2 0x2347 JUMPI PUSH1 0x0 DUP1 REVERT JUMPDEST POP DUP2 CALLDATALOAD PUSH8 0xFFFFFFFFFFFFFFFF DUP2 GT ISZERO PUSH2 0x235F JUMPI PUSH1 0x0 DUP1 REVERT JUMPDEST PUSH1 0x20 DUP4 ADD SWAP2 POP DUP4 PUSH1 0x20 DUP3 PUSH1 0x5 SHL DUP6 ADD ADD GT ISZERO PUSH2 0x18F9 JUMPI PUSH1 0x0 DUP1 REVERT JUMPDEST PUSH1 0x0 DUP1 PUSH1 0x20 DUP4 DUP6 SUB SLT ISZERO PUSH2 0x238D JUMPI PUSH1 0x0 DUP1 REVERT JUMPDEST DUP3 CALLDATALOAD PUSH8 0xFFFFFFFFFFFFFFFF DUP2 GT ISZERO PUSH2 0x23A4 JUMPI PUSH1 0x0 DUP1 REVERT JUMPDEST PUSH2 0x23B0 DUP6 DUP3 DUP7 ADD PUSH2 0x2335 JUMP JUMPDEST SWAP1 SWAP7 SWAP1 SWAP6 POP SWAP4 POP POP POP POP JUMP JUMPDEST PUSH1 0x20 DUP1 DUP3 MSTORE DUP3 MLOAD DUP3 DUP3 ADD DUP2 SWAP1 MSTORE PUSH1 0x0 SWAP2 SWAP1 DUP5 DUP3 ADD SWAP1 PUSH1 0x40 DUP6 ADD SWAP1 DUP5 JUMPDEST DUP2 DUP2 LT ISZERO PUSH2 0x23F6 JUMPI DUP4 MLOAD ISZERO ISZERO DUP4 MSTORE SWAP3 DUP5 ADD SWAP3 SWAP2 DUP5 ADD SWAP2 PUSH1 0x1 ADD PUSH2 0x23D8 JUMP JUMPDEST POP SWAP1 SWAP7 SWAP6 POP POP POP POP POP POP JUMP JUMPDEST PUSH1 0x0 PUSH1 0x20 DUP3 DUP5 SUB SLT ISZERO PUSH2 0x2414 JUMPI PUSH1 0x0 DUP1 REVERT JUMPDEST POP CALLDATALOAD SWAP2 SWAP1 POP JUMP JUMPDEST PUSH4 0x4E487B71 PUSH1 0xE0 SHL PUSH1 0x0 MSTORE PUSH1 0x21 PUSH1 0x4 MSTORE PUSH1 0x24 PUSH1 0x0 REVERT JUMPDEST PUSH1 0x4 DUP2 LT PUSH2 0x244F JUMPI PUSH4 0x4E487B71 PUSH1 0xE0 SHL PUSH1 0x0 MSTORE PUSH1 0x21 PUSH1 0x4 MSTORE PUSH1 0x24 PUSH1 0x0 REVERT JUMPDEST SWAP1 MSTORE JUMP JUMPDEST PUSH1 0x0 DUP2 MLOAD DUP1 DUP5 MSTORE PUSH1 0x0 JUMPDEST DUP2 DUP2 LT ISZERO PUSH2 0x2479 JUMPI PUSH1 0x20 DUP2 DUP6 ADD DUP2 ADD MLOAD DUP7 DUP4 ADD DUP3 ADD MSTORE ADD PUSH2 0x245D JUMP JUMPDEST POP PUSH1 0x0 PUSH1 0x20 DUP3 DUP7 ADD ADD MSTORE PUSH1 0x20 PUSH1 0x1F NOT PUSH1 0x1F DUP4 ADD AND DUP6 ADD ADD SWAP2 POP POP SWAP3 SWAP2 POP POP JUMP JUMPDEST DUP1 MLOAD PUSH1 0x1 PUSH1 0x1 PUSH1 0xA0 SHL SUB AND DUP3 MSTORE PUSH1 0x0 PUSH2 0x1E0 PUSH1 0x20 DUP4 ADD MLOAD PUSH1 0x20 DUP6 ADD MSTORE PUSH1 0x40 DUP4 ADD MLOAD PUSH1 0x40 DUP6 ADD MSTORE PUSH1 0x60 DUP4 ADD MLOAD PUSH1 0x60 DUP6 ADD MSTORE PUSH1 0x80 DUP4 ADD MLOAD PUSH1 0x80 DUP6 ADD MSTORE PUSH1 0xA0 DUP4 ADD MLOAD PUSH1 0xA0 DUP6 ADD MSTORE PUSH1 0xC0 DUP4 ADD MLOAD PUSH1 0xC0 DUP6 ADD MSTORE PUSH1 0xE0 DUP4 ADD MLOAD PUSH2 0x2501 PUSH1 0xE0 DUP7 ADD DUP3 PUSH1 0x1 PUSH1 0x1 PUSH1 0xA0 SHL SUB AND SWAP1 MSTORE JUMP JUMPDEST POP PUSH2 0x100 DUP1 DUP5 ADD MLOAD PUSH2 0x2515 DUP3 DUP8 ADD DUP3 PUSH2 0x2431 JUMP JUMPDEST POP POP PUSH2 0x120 DUP1 DUP5 ADD MLOAD DUP3 DUP3 DUP8 ADD MSTORE PUSH2 0x252F DUP4 DUP8 ADD DUP3 PUSH2 0x2453 JUMP JUMPDEST PUSH2 0x140 DUP7 DUP2 ADD MLOAD SWAP1 DUP9 ADD MSTORE PUSH2 0x160 DUP1 DUP8 ADD MLOAD SWAP1 DUP9 ADD MSTORE PUSH2 0x180 DUP1 DUP8 ADD MLOAD SWAP1 DUP9 ADD MSTORE PUSH2 0x1A0 DUP1 DUP8 ADD MLOAD SWAP1 DUP9 ADD MSTORE PUSH2 0x1C0 SWAP6 DUP7 ADD MLOAD SWAP6 SWAP1 SWAP7 ADD SWAP5 SWAP1 SWAP5 MSTORE POP SWAP3 SWAP4 SWAP3 POP POP POP JUMP JUMPDEST PUSH1 0x20 DUP2 MSTORE PUSH1 0x0 PUSH2 0x2586 PUSH1 0x20 DUP4 ADD DUP5 PUSH2 0x2499 JUMP JUMPDEST SWAP4 SWAP3 POP POP POP JUMP JUMPDEST DUP1 CALLDATALOAD PUSH4 0xFFFFFFFF DUP2 AND DUP2 EQ PUSH2 0x25A1 JUMPI PUSH1 0x0 DUP1 REVERT JUMPDEST SWAP2 SWAP1 POP JUMP JUMPDEST PUSH1 0x0 PUSH1 0x20 DUP3 DUP5 SUB SLT ISZERO PUSH2 0x25B8 JUMPI PUSH1 0x0 DUP1 REVERT JUMPDEST PUSH2 0x2586 DUP3 PUSH2 0x258D JUMP JUMPDEST PUSH1 0x0 PUSH1 0x40 DUP3 ADD DUP5 ISZERO ISZERO DUP4 MSTORE PUSH1 0x20 PUSH1 0x40 DUP2 DUP6 ADD MSTORE DUP2 DUP6 MLOAD DUP1 DUP5 MSTORE PUSH1 0x60 DUP7 ADD SWAP2 POP PUSH1 0x60 DUP2 PUSH1 0x5 SHL DUP8 ADD ADD SWAP4 POP DUP3 DUP8 ADD PUSH1 0x0 JUMPDEST DUP3 DUP2 LT ISZERO PUSH2 0x261F JUMPI PUSH1 0x5F NOT DUP9 DUP8 SUB ADD DUP5 MSTORE PUSH2 0x260D DUP7 DUP4 MLOAD PUSH2 0x2499 JUMP JUMPDEST SWAP6 POP SWAP3 DUP5 ADD SWAP3 SWAP1 DUP5 ADD SWAP1 PUSH1 0x1 ADD PUSH2 0x25F1 JUMP JUMPDEST POP SWAP4 SWAP9 SWAP8 POP POP POP POP POP POP POP POP JUMP JUMPDEST DUP1 CALLDATALOAD PUSH1 0x1 PUSH1 0x1 PUSH1 0xA0 SHL SUB DUP2 AND DUP2 EQ PUSH2 0x25A1 JUMPI PUSH1 0x0 DUP1 REVERT JUMPDEST DUP1 ISZERO ISZERO DUP2 EQ PUSH2 0x1CC0 JUMPI PUSH1 0x0 DUP1 REVERT JUMPDEST PUSH1 0x0 DUP1 PUSH1 0x0 DUP1 PUSH1 0x0 DUP1 PUSH1 0x0 DUP1 PUSH1 0xE0 DUP10 DUP12 SUB SLT ISZERO PUSH2 0x266E JUMPI PUSH1 0x0 DUP1 REVERT JUMPDEST PUSH2 0x2677 DUP10 PUSH2 0x262D JUMP JUMPDEST SWAP8 POP PUSH1 0x20 DUP10 ADD CALLDATALOAD SWAP7 POP PUSH1 0x40 DUP10 ADD CALLDATALOAD SWAP6 POP PUSH1 0x60 DUP10 ADD CALLDATALOAD PUSH2 0x2695 DUP2 PUSH2 0x2644 JUMP JUMPDEST SWAP5 POP PUSH1 0x80 DUP10 ADD CALLDATALOAD PUSH8 0xFFFFFFFFFFFFFFFF DUP2 GT ISZERO PUSH2 0x26B1 JUMPI PUSH1 0x0 DUP1 REVERT JUMPDEST PUSH2 0x26BD DUP12 DUP3 DUP13 ADD PUSH2 0x2335 JUMP JUMPDEST SWAP1 SWAP6 POP SWAP4 POP POP PUSH1 0xA0 DUP10 ADD CALLDATALOAD PUSH2 0x26D1 DUP2 PUSH2 0x2644 JUMP JUMPDEST SWAP2 POP PUSH2 0x26DF PUSH1 0xC0 DUP11 ADD PUSH2 0x262D JUMP JUMPDEST SWAP1 POP SWAP3 SWAP6 SWAP9 POP SWAP3 SWAP6 SWAP9 SWAP1 SWAP4 SWAP7 POP JUMP JUMPDEST PUSH1 0x20 DUP1 DUP3 MSTORE DUP3 MLOAD DUP3 DUP3 ADD DUP2 SWAP1 MSTORE PUSH1 0x0 SWAP2 SWAP1 DUP5 DUP3 ADD SWAP1 PUSH1 0x40 DUP6 ADD SWAP1 DUP5 JUMPDEST DUP2 DUP2 LT ISZERO PUSH2 0x23F6 JUMPI DUP4 MLOAD DUP4 MSTORE SWAP3 DUP5 ADD SWAP3 SWAP2 DUP5 ADD SWAP2 PUSH1 0x1 ADD PUSH2 0x270A JUMP JUMPDEST PUSH1 0x0 DUP1 PUSH1 0x40 DUP4 DUP6 SUB SLT ISZERO PUSH2 0x2739 JUMPI PUSH1 0x0 DUP1 REVERT JUMPDEST PUSH2 0x2742 DUP4 PUSH2 0x262D JUMP JUMPDEST SWAP5 PUSH1 0x20 SWAP4 SWAP1 SWAP4 ADD CALLDATALOAD SWAP4 POP POP POP JUMP JUMPDEST PUSH1 0x0 PUSH1 0x20 DUP3 DUP5 SUB SLT ISZERO PUSH2 0x2762 JUMPI PUSH1 0x0 DUP1 REVERT JUMPDEST PUSH2 0x2586 DUP3 PUSH2 0x262D JUMP JUMPDEST PUSH1 0x0 DUP1 PUSH1 0x40 DUP4 DUP6 SUB SLT ISZERO PUSH2 0x277E JUMPI PUSH1 0x0 DUP1 REVERT JUMPDEST PUSH2 0x2787 DUP4 PUSH2 0x258D JUMP JUMPDEST SWAP2 POP PUSH2 0x2795 PUSH1 0x20 DUP5 ADD PUSH2 0x262D JUMP JUMPDEST SWAP1 POP SWAP3 POP SWAP3 SWAP1 POP JUMP JUMPDEST DUP7 DUP2 MSTORE PUSH1 0xC0 PUSH1 0x20 DUP3 ADD MSTORE PUSH1 0x0 PUSH2 0x27B7 PUSH1 0xC0 DUP4 ADD DUP9 PUSH2 0x2453 JUMP JUMPDEST DUP7 PUSH1 0x40 DUP5 ADD MSTORE DUP6 PUSH1 0x60 DUP5 ADD MSTORE DUP3 DUP2 SUB PUSH1 0x80 DUP5 ADD MSTORE PUSH2 0x27D5 DUP2 DUP7 PUSH2 0x2453 JUMP JUMPDEST SWAP2 POP POP DUP3 ISZERO ISZERO PUSH1 0xA0 DUP4 ADD MSTORE SWAP8 SWAP7 POP POP POP POP POP POP POP JUMP JUMPDEST PUSH1 0x0 DUP1 PUSH1 0x0 DUP1 PUSH1 0x0 DUP1 PUSH1 0xC0 DUP8 DUP10 SUB SLT ISZERO PUSH2 0x2804 JUMPI PUSH1 0x0 DUP1 REVERT JUMPDEST PUSH2 0x280D DUP8 PUSH2 0x262D JUMP JUMPDEST SWAP6 POP PUSH2 0x281B PUSH1 0x20 DUP9 ADD PUSH2 0x262D JUMP JUMPDEST SWAP5 POP PUSH2 0x2829 PUSH1 0x40 DUP9 ADD PUSH2 0x262D JUMP JUMPDEST SWAP4 POP PUSH2 0x2837 PUSH1 0x60 DUP9 ADD PUSH2 0x262D JUMP JUMPDEST SWAP3 POP PUSH2 0x2845 PUSH1 0x80 DUP9 ADD PUSH2 0x262D JUMP JUMPDEST SWAP2 POP PUSH2 0x2853 PUSH1 0xA0 DUP9 ADD PUSH2 0x262D JUMP JUMPDEST SWAP1 POP SWAP3 SWAP6 POP SWAP3 SWAP6 POP SWAP3 SWAP6 JUMP JUMPDEST PUSH4 0x4E487B71 PUSH1 0xE0 SHL PUSH1 0x0 MSTORE PUSH1 0x41 PUSH1 0x4 MSTORE PUSH1 0x24 PUSH1 0x0 REVERT JUMPDEST PUSH4 0x4E487B71 PUSH1 0xE0 SHL PUSH1 0x0 MSTORE PUSH1 0x32 PUSH1 0x4 MSTORE PUSH1 0x24 PUSH1 0x0 REVERT JUMPDEST PUSH1 0x0 DUP1 DUP4 CALLDATALOAD PUSH1 0x1E NOT DUP5 CALLDATASIZE SUB ADD DUP2 SLT PUSH2 0x28A2 JUMPI PUSH1 0x0 DUP1 REVERT JUMPDEST DUP4 ADD DUP1 CALLDATALOAD SWAP2 POP PUSH8 0xFFFFFFFFFFFFFFFF DUP3 GT ISZERO PUSH2 0x28BD JUMPI PUSH1 0x0 DUP1 REVERT JUMPDEST PUSH1 0x20 ADD SWAP2 POP CALLDATASIZE DUP2 SWAP1 SUB DUP3 SGT ISZERO PUSH2 0x18F9 JUMPI PUSH1 0x0 DUP1 REVERT JUMPDEST DUP2 DUP4 DUP3 CALLDATACOPY PUSH1 0x0 SWAP2 ADD SWAP1 DUP2 MSTORE SWAP2 SWAP1 POP JUMP JUMPDEST PUSH4 0x4E487B71 PUSH1 0xE0 SHL PUSH1 0x0 MSTORE PUSH1 0x11 PUSH1 0x4 MSTORE PUSH1 0x24 PUSH1 0x0 REVERT JUMPDEST PUSH1 0x0 PUSH1 0xFF DUP3 AND PUSH1 0xFF DUP2 SUB PUSH2 0x290E JUMPI PUSH2 0x290E PUSH2 0x28E2 JUMP JUMPDEST PUSH1 0x1 ADD SWAP3 SWAP2 POP POP JUMP JUMPDEST PUSH1 0x1 DUP2 DUP2 SHR SWAP1 DUP3 AND DUP1 PUSH2 0x292B JUMPI PUSH1 0x7F DUP3 AND SWAP2 POP JUMPDEST PUSH1 0x20 DUP3 LT DUP2 SUB PUSH2 0x294B JUMPI PUSH4 0x4E487B71 PUSH1 0xE0 SHL PUSH1 0x0 MSTORE PUSH1 0x22 PUSH1 0x4 MSTORE PUSH1 0x24 PUSH1 0x0 REVERT JUMPDEST POP SWAP2 SWAP1 POP JUMP JUMPDEST PUSH1 0x0 PUSH1 0x20 DUP3 DUP5 SUB SLT ISZERO PUSH2 0x2963 JUMPI PUSH1 0x0 DUP1 REVERT JUMPDEST POP MLOAD SWAP2 SWAP1 POP JUMP JUMPDEST DUP1 DUP3 ADD DUP1 DUP3 GT ISZERO PUSH2 0x600 JUMPI PUSH2 0x600 PUSH2 0x28E2 JUMP JUMPDEST PUSH4 0xFFFFFFFF DUP2 DUP2 AND DUP4 DUP3 AND MUL DUP1 DUP3 AND SWAP2 SWAP1 DUP3 DUP2 EQ PUSH2 0x299D JUMPI PUSH2 0x299D PUSH2 0x28E2 JUMP JUMPDEST POP POP SWAP3 SWAP2 POP POP JUMP JUMPDEST PUSH4 0xFFFFFFFF DUP3 DUP2 AND DUP3 DUP3 AND SUB SWAP1 DUP1 DUP3 GT ISZERO PUSH2 0x29C2 JUMPI PUSH2 0x29C2 PUSH2 0x28E2 JUMP JUMPDEST POP SWAP3 SWAP2 POP POP JUMP JUMPDEST PUSH1 0x0 PUSH1 0x1 DUP3 ADD PUSH2 0x29DB JUMPI PUSH2 0x29DB PUSH2 0x28E2 JUMP JUMPDEST POP PUSH1 0x1 ADD SWAP1 JUMP JUMPDEST DUP2 DUP2 SUB DUP2 DUP2 GT ISZERO PUSH2 0x600 JUMPI PUSH2 0x600 PUSH2 0x28E2 JUMP JUMPDEST PUSH1 0x0 DUP3 PUSH2 0x2A12 JUMPI PUSH4 0x4E487B71 PUSH1 0xE0 SHL PUSH1 0x0 MSTORE PUSH1 0x12 PUSH1 0x4 MSTORE PUSH1 0x24 PUSH1 0x0 REVERT JUMPDEST POP DIV SWAP1 JUMP JUMPDEST DUP1 DUP3 MUL DUP2 ISZERO DUP3 DUP3 DIV DUP5 EQ OR PUSH2 0x600 JUMPI PUSH2 0x600 PUSH2 0x28E2 JUMP JUMPDEST PUSH1 0x0 PUSH2 0xFFFF DUP1 DUP4 AND DUP2 DUP2 SUB PUSH2 0x2A45 JUMPI PUSH2 0x2A45 PUSH2 0x28E2 JUMP JUMPDEST PUSH1 0x1 ADD SWAP4 SWAP3 POP POP POP JUMP JUMPDEST PUSH1 0x1F DUP3 GT ISZERO PUSH2 0x2A99 JUMPI PUSH1 0x0 DUP2 DUP2 MSTORE PUSH1 0x20 DUP2 KECCAK256 PUSH1 0x1F DUP6 ADD PUSH1 0x5 SHR DUP2 ADD PUSH1 0x20 DUP7 LT ISZERO PUSH2 0x2A76 JUMPI POP DUP1 JUMPDEST PUSH1 0x1F DUP6 ADD PUSH1 0x5 SHR DUP3 ADD SWAP2 POP JUMPDEST DUP2 DUP2 LT ISZERO PUSH2 0x2A95 JUMPI DUP3 DUP2 SSTORE PUSH1 0x1 ADD PUSH2 0x2A82 JUMP JUMPDEST POP POP POP JUMPDEST POP POP POP JUMP JUMPDEST DUP2 MLOAD PUSH8 0xFFFFFFFFFFFFFFFF DUP2 GT ISZERO PUSH2 0x2AB8 JUMPI PUSH2 0x2AB8 PUSH2 0x285F JUMP JUMPDEST PUSH2 0x2ACC DUP2 PUSH2 0x2AC6 DUP5 SLOAD PUSH2 0x2917 JUMP JUMPDEST DUP5 PUSH2 0x2A4F JUMP JUMPDEST PUSH1 0x20 DUP1 PUSH1 0x1F DUP4 GT PUSH1 0x1 DUP2 EQ PUSH2 0x2B01 JUMPI PUSH1 0x0 DUP5 ISZERO PUSH2 0x2AE9 JUMPI POP DUP6 DUP4 ADD MLOAD JUMPDEST PUSH1 0x0 NOT PUSH1 0x3 DUP7 SWAP1 SHL SHR NOT AND PUSH1 0x1 DUP6 SWAP1 SHL OR DUP6 SSTORE PUSH2 0x2A95 JUMP JUMPDEST PUSH1 0x0 DUP6 DUP2 MSTORE PUSH1 0x20 DUP2 KECCAK256 PUSH1 0x1F NOT DUP7 AND SWAP2 JUMPDEST DUP3 DUP2 LT ISZERO PUSH2 0x2B30 JUMPI DUP9 DUP7 ADD MLOAD DUP3 SSTORE SWAP5 DUP5 ADD SWAP5 PUSH1 0x1 SWAP1 SWAP2 ADD SWAP1 DUP5 ADD PUSH2 0x2B11 JUMP JUMPDEST POP DUP6 DUP3 LT ISZERO PUSH2 0x2B4E JUMPI DUP8 DUP6 ADD MLOAD PUSH1 0x0 NOT PUSH1 0x3 DUP9 SWAP1 SHL PUSH1 0xF8 AND SHR NOT AND DUP2 SSTORE JUMPDEST POP POP POP POP POP PUSH1 0x1 SWAP1 DUP2 SHL ADD SWAP1 SSTORE POP JUMP JUMPDEST PUSH1 0x0 DUP2 SLOAD PUSH2 0x2B6B DUP2 PUSH2 0x2917 JUMP JUMPDEST DUP1 DUP6 MSTORE PUSH1 0x20 PUSH1 0x1 DUP4 DUP2 AND DUP1 ISZERO PUSH2 0x2B88 JUMPI PUSH1 0x1 DUP2 EQ PUSH2 0x2BA2 JUMPI PUSH2 0x2BD0 JUMP JUMPDEST PUSH1 0xFF NOT DUP6 AND DUP9 DUP5 ADD MSTORE DUP4 ISZERO ISZERO PUSH1 0x5 SHL DUP9 ADD DUP4 ADD SWAP6 POP PUSH2 0x2BD0 JUMP JUMPDEST DUP7 PUSH1 0x0 MSTORE DUP3 PUSH1 0x0 KECCAK256 PUSH1 0x0 JUMPDEST DUP6 DUP2 LT ISZERO PUSH2 0x2BC8 JUMPI DUP2 SLOAD DUP11 DUP3 ADD DUP7 ADD MSTORE SWAP1 DUP4 ADD SWAP1 DUP5 ADD PUSH2 0x2BAD JUMP JUMPDEST DUP10 ADD DUP5 ADD SWAP7 POP POP JUMPDEST POP POP POP POP POP SWAP3 SWAP2 POP POP JUMP JUMPDEST PUSH1 0x20 DUP2 MSTORE PUSH2 0x2C04 PUSH1 0x20 DUP3 ADD PUSH2 0x2BF7 DUP5 SLOAD PUSH1 0x1 PUSH1 0x1 PUSH1 0xA0 SHL SUB AND SWAP1 JUMP JUMPDEST PUSH1 0x1 PUSH1 0x1 PUSH1 0xA0 SHL SUB AND SWAP1 MSTORE JUMP JUMPDEST PUSH1 0x1 DUP3 ADD SLOAD PUSH1 0x40 DUP3 ADD MSTORE PUSH1 0x2 DUP3 ADD SLOAD PUSH1 0x60 DUP3 ADD MSTORE PUSH1 0x3 DUP3 ADD SLOAD PUSH1 0x80 DUP3 ADD MSTORE PUSH1 0x4 DUP3 ADD SLOAD PUSH1 0xA0 DUP3 ADD MSTORE PUSH1 0x5 DUP3 ADD SLOAD PUSH1 0xC0 DUP3 ADD MSTORE PUSH1 0x6 DUP3 ADD SLOAD PUSH1 0xE0 DUP3 ADD MSTORE PUSH1 0x7 DUP3 ADD SLOAD PUSH1 0x1 PUSH1 0x1 PUSH1 0xA0 SHL SUB DUP2 AND PUSH2 0x100 DUP4 ADD MSTORE PUSH1 0x0 SWAP1 PUSH2 0x2C6C PUSH2 0x120 DUP5 ADD PUSH1 0xFF DUP4 PUSH1 0xA0 SHR AND PUSH2 0x2431 JUMP JUMPDEST POP PUSH2 0x1E0 DUP1 PUSH2 0x140 DUP5 ADD MSTORE PUSH2 0x2C88 PUSH2 0x200 DUP5 ADD PUSH1 0x8 DUP7 ADD PUSH2 0x2B5E JUMP JUMPDEST PUSH1 0x9 DUP6 ADD SLOAD PUSH2 0x160 DUP6 ADD MSTORE PUSH1 0xA DUP6 ADD SLOAD PUSH2 0x180 DUP6 ADD MSTORE PUSH1 0xB DUP6 ADD SLOAD PUSH2 0x1A0 DUP6 ADD MSTORE PUSH1 0xC DUP6 ADD SLOAD PUSH2 0x1C0 DUP6 ADD MSTORE PUSH1 0xD SWAP1 SWAP5 ADD SLOAD SWAP3 ADD SWAP2 SWAP1 SWAP2 MSTORE POP SWAP1 JUMP JUMPDEST PUSH1 0x0 PUSH1 0x20 DUP3 DUP5 SUB SLT ISZERO PUSH2 0x2CD6 JUMPI PUSH1 0x0 DUP1 REVERT JUMPDEST DUP2 MLOAD PUSH2 0x2586 DUP2 PUSH2 0x2644 JUMP JUMPDEST PUSH1 0x20 DUP1 DUP3 MSTORE PUSH1 0x2B SWAP1 DUP3 ADD MSTORE PUSH32 0x496E697469616C697A61626C653A20636F6E7472616374206973206E6F742069 PUSH1 0x40 DUP3 ADD MSTORE PUSH11 0x6E697469616C697A696E67 PUSH1 0xA8 SHL PUSH1 0x60 DUP3 ADD MSTORE PUSH1 0x80 ADD SWAP1 JUMP INVALID LOG2 PUSH5 0x6970667358 0x22 SLT KECCAK256 PUSH12 0x9E03AA512D192B5EE0C70C78 0xBA 0xE6 MSTORE8 NUMBER DUP4 0xE9 SWAP4 SWAP8 PUSH18 0x4AC162A6D87AEAF521D764736F6C63430008 SGT STOP CALLER "
				},
				"gasEstimates": {
					"creation": {
						"codeDepositCost": "2323600",
						"executionCost": "infinite",
						"totalCost": "infinite"
					},
					"external": {
						"BlockManyCode(string[])": "infinite",
						"CalculateCurrentRateBoost()": "infinite",
						"GenerateCode(address,uint256,uint256,bool,bytes32[],bool,address)": "infinite",
						"GetMyCode(uint32)": "infinite",
						"GetTotalMyCode()": "infinite",
						"GetUserCode(uint32,address)": "infinite",
						"KCodePrice()": "2374",
						"KGenerateCode(address,bytes32)": "infinite",
						"SetCloudMiningThreshold(uint256)": "24555",
						"SetMasterPool(address)": "26825",
						"SetNFT(address)": "26845",
						"SetProduct(address)": "26846",
						"SetUsdt(address)": "26779",
						"UnblockManyCode(string[])": "infinite",
						"boostSpeedDecimal()": "2396",
						"codePool()": "2383",
						"deployedDate()": "2331",
						"getCodeInfoSmC(bytes32)": "infinite",
						"initialize(address,address,address,address,address,address)": "infinite",
						"kventure()": "2382",
						"mIdToPro(uint256)": "infinite",
						"mValidMiningTime(uint256)": "2516",
						"masterPool()": "2404",
						"nft()": "2449",
						"owner()": "2420",
						"product()": "2448",
						"rateBoost()": "2352",
						"renounceOwnership()": "infinite",
						"returnRIP()": "2382",
						"transferOwnership(address)": "28402",
						"usdt()": "2428",
						"usdtDecimal()": "2330"
					},
					"internal": {
						"_generateCode(address,bytes32,bool,uint256,uint256,bool,address)": "infinite",
						"_initializeConfig()": "24306",
						"_isBlock(bool)": "53"
					}
				},
				"methodIdentifiers": {
					"BlockManyCode(string[])": "31ae322f",
					"CalculateCurrentRateBoost()": "8c4a876d",
					"GenerateCode(address,uint256,uint256,bool,bytes32[],bool,address)": "8ec09c97",
					"GetMyCode(uint32)": "78f25aee",
					"GetTotalMyCode()": "8fe39efd",
					"GetUserCode(uint32,address)": "b7182530",
					"KCodePrice()": "435a3e50",
					"KGenerateCode(address,bytes32)": "a429a513",
					"SetCloudMiningThreshold(uint256)": "b935948a",
					"SetMasterPool(address)": "a559934e",
					"SetNFT(address)": "f8525b93",
					"SetProduct(address)": "dc30cbb4",
					"SetUsdt(address)": "ddcd6408",
					"UnblockManyCode(string[])": "f4b7f343",
					"boostSpeedDecimal()": "b22a9f9a",
					"codePool()": "486f6afe",
					"deployedDate()": "076d5556",
					"getCodeInfoSmC(bytes32)": "61b26f27",
					"initialize(address,address,address,address,address,address)": "cc2a9a5b",
					"kventure()": "c01c36d0",
					"mIdToPro(uint256)": "cb286f19",
					"mValidMiningTime(uint256)": "bc65fee5",
					"masterPool()": "8c7ab1d7",
					"nft()": "47ccca02",
					"owner()": "8da5cb5b",
					"product()": "bf9ce952",
					"rateBoost()": "395348dc",
					"renounceOwnership()": "715018a6",
					"returnRIP()": "11f1374a",
					"transferOwnership(address)": "f2fde38b",
					"usdt()": "2f48ab7d",
					"usdtDecimal()": "362efc3d"
				}
			},
			"storageLayout": {
				"storage": [
					{
						"astId": 138,
						"contract": "GenerateCode.sol:KventureCode",
						"label": "_initialized",
						"offset": 0,
						"slot": "0",
						"type": "t_uint8"
					},
					{
						"astId": 141,
						"contract": "GenerateCode.sol:KventureCode",
						"label": "_initializing",
						"offset": 1,
						"slot": "0",
						"type": "t_bool"
					},
					{
						"astId": 671,
						"contract": "GenerateCode.sol:KventureCode",
						"label": "__gap",
						"offset": 0,
						"slot": "1",
						"type": "t_array(t_uint256)50_storage"
					},
					{
						"astId": 10,
						"contract": "GenerateCode.sol:KventureCode",
						"label": "_owner",
						"offset": 0,
						"slot": "51",
						"type": "t_address"
					},
					{
						"astId": 130,
						"contract": "GenerateCode.sol:KventureCode",
						"label": "__gap",
						"offset": 0,
						"slot": "52",
						"type": "t_array(t_uint256)49_storage"
					},
					{
						"astId": 1006,
						"contract": "GenerateCode.sol:KventureCode",
						"label": "rateBoost",
						"offset": 0,
						"slot": "101",
						"type": "t_uint256"
					},
					{
						"astId": 1011,
						"contract": "GenerateCode.sol:KventureCode",
						"label": "usdtDecimal",
						"offset": 0,
						"slot": "102",
						"type": "t_uint256"
					},
					{
						"astId": 1016,
						"contract": "GenerateCode.sol:KventureCode",
						"label": "boostSpeedDecimal",
						"offset": 0,
						"slot": "103",
						"type": "t_uint256"
					},
					{
						"astId": 1021,
						"contract": "GenerateCode.sol:KventureCode",
						"label": "KCodePrice",
						"offset": 0,
						"slot": "104",
						"type": "t_uint256"
					},
					{
						"astId": 1024,
						"contract": "GenerateCode.sol:KventureCode",
						"label": "returnRIP",
						"offset": 0,
						"slot": "105",
						"type": "t_uint32"
					},
					{
						"astId": 1029,
						"contract": "GenerateCode.sol:KventureCode",
						"label": "mPackageInfo",
						"offset": 0,
						"slot": "106",
						"type": "t_mapping(t_bytes32,t_struct(PackageInfo)784_storage)"
					},
					{
						"astId": 1033,
						"contract": "GenerateCode.sol:KventureCode",
						"label": "mValidMiningTime",
						"offset": 0,
						"slot": "107",
						"type": "t_mapping(t_uint256,t_uint256)"
					},
					{
						"astId": 1035,
						"contract": "GenerateCode.sol:KventureCode",
						"label": "cloudMiningThreshold",
						"offset": 0,
						"slot": "108",
						"type": "t_uint256"
					},
					{
						"astId": 1037,
						"contract": "GenerateCode.sol:KventureCode",
						"label": "deployedDate",
						"offset": 0,
						"slot": "109",
						"type": "t_uint256"
					},
					{
						"astId": 1039,
						"contract": "GenerateCode.sol:KventureCode",
						"label": "usdt",
						"offset": 0,
						"slot": "110",
						"type": "t_address"
					},
					{
						"astId": 1042,
						"contract": "GenerateCode.sol:KventureCode",
						"label": "codePool",
						"offset": 0,
						"slot": "111",
						"type": "t_contract(ICodePool)995"
					},
					{
						"astId": 1044,
						"contract": "GenerateCode.sol:KventureCode",
						"label": "masterPool",
						"offset": 0,
						"slot": "112",
						"type": "t_address"
					},
					{
						"astId": 1046,
						"contract": "GenerateCode.sol:KventureCode",
						"label": "nft",
						"offset": 0,
						"slot": "113",
						"type": "t_address"
					},
					{
						"astId": 1048,
						"contract": "GenerateCode.sol:KventureCode",
						"label": "kventure",
						"offset": 0,
						"slot": "114",
						"type": "t_address"
					},
					{
						"astId": 1050,
						"contract": "GenerateCode.sol:KventureCode",
						"label": "product",
						"offset": 0,
						"slot": "115",
						"type": "t_address"
					},
					{
						"astId": 1055,
						"contract": "GenerateCode.sol:KventureCode",
						"label": "mIdToPro",
						"offset": 0,
						"slot": "116",
						"type": "t_mapping(t_uint256,t_struct(Product)802_storage)"
					}
				],
				"types": {
					"t_address": {
						"encoding": "inplace",
						"label": "address",
						"numberOfBytes": "20"
					},
					"t_array(t_uint256)49_storage": {
						"base": "t_uint256",
						"encoding": "inplace",
						"label": "uint256[49]",
						"numberOfBytes": "1568"
					},
					"t_array(t_uint256)50_storage": {
						"base": "t_uint256",
						"encoding": "inplace",
						"label": "uint256[50]",
						"numberOfBytes": "1600"
					},
					"t_bool": {
						"encoding": "inplace",
						"label": "bool",
						"numberOfBytes": "1"
					},
					"t_bytes32": {
						"encoding": "inplace",
						"label": "bytes32",
						"numberOfBytes": "32"
					},
					"t_bytes_storage": {
						"encoding": "bytes",
						"label": "bytes",
						"numberOfBytes": "32"
					},
					"t_contract(ICodePool)995": {
						"encoding": "inplace",
						"label": "contract ICodePool",
						"numberOfBytes": "20"
					},
					"t_enum(PackageStatus)789": {
						"encoding": "inplace",
						"label": "enum PackageStatus",
						"numberOfBytes": "1"
					},
					"t_mapping(t_bytes32,t_struct(PackageInfo)784_storage)": {
						"encoding": "mapping",
						"key": "t_bytes32",
						"label": "mapping(bytes32 => struct PackageInfo)",
						"numberOfBytes": "32",
						"value": "t_struct(PackageInfo)784_storage"
					},
					"t_mapping(t_uint256,t_struct(Product)802_storage)": {
						"encoding": "mapping",
						"key": "t_uint256",
						"label": "mapping(uint256 => struct PackageInfoStruct.Product)",
						"numberOfBytes": "32",
						"value": "t_struct(Product)802_storage"
					},
					"t_mapping(t_uint256,t_uint256)": {
						"encoding": "mapping",
						"key": "t_uint256",
						"label": "mapping(uint256 => uint256)",
						"numberOfBytes": "32",
						"value": "t_uint256"
					},
					"t_string_storage": {
						"encoding": "bytes",
						"label": "string",
						"numberOfBytes": "32"
					},
					"t_struct(PackageInfo)784_storage": {
						"encoding": "inplace",
						"label": "struct PackageInfo",
						"members": [
							{
								"astId": 754,
								"contract": "GenerateCode.sol:KventureCode",
								"label": "owner",
								"offset": 0,
								"slot": "0",
								"type": "t_address"
							},
							{
								"astId": 756,
								"contract": "GenerateCode.sol:KventureCode",
								"label": "codeHash",
								"offset": 0,
								"slot": "1",
								"type": "t_bytes32"
							},
							{
								"astId": 758,
								"contract": "GenerateCode.sol:KventureCode",
								"label": "activeTime",
								"offset": 0,
								"slot": "2",
								"type": "t_uint256"
							},
							{
								"astId": 760,
								"contract": "GenerateCode.sol:KventureCode",
								"label": "expirationActiveTime",
								"offset": 0,
								"slot": "3",
								"type": "t_uint256"
							},
							{
								"astId": 762,
								"contract": "GenerateCode.sol:KventureCode",
								"label": "boostSpeed",
								"offset": 0,
								"slot": "4",
								"type": "t_uint256"
							},
							{
								"astId": 764,
								"contract": "GenerateCode.sol:KventureCode",
								"label": "boostTime",
								"offset": 0,
								"slot": "5",
								"type": "t_uint256"
							},
							{
								"astId": 766,
								"contract": "GenerateCode.sol:KventureCode",
								"label": "rateBoost",
								"offset": 0,
								"slot": "6",
								"type": "t_uint256"
							},
							{
								"astId": 768,
								"contract": "GenerateCode.sol:KventureCode",
								"label": "delegate",
								"offset": 0,
								"slot": "7",
								"type": "t_address"
							},
							{
								"astId": 771,
								"contract": "GenerateCode.sol:KventureCode",
								"label": "status",
								"offset": 20,
								"slot": "7",
								"type": "t_enum(PackageStatus)789"
							},
							{
								"astId": 773,
								"contract": "GenerateCode.sol:KventureCode",
								"label": "origin",
								"offset": 0,
								"slot": "8",
								"type": "t_string_storage"
							},
							{
								"astId": 775,
								"contract": "GenerateCode.sol:KventureCode",
								"label": "mintedAmount",
								"offset": 0,
								"slot": "9",
								"type": "t_uint256"
							},
							{
								"astId": 777,
								"contract": "GenerateCode.sol:KventureCode",
								"label": "releasePercentage",
								"offset": 0,
								"slot": "10",
								"type": "t_uint256"
							},
							{
								"astId": 779,
								"contract": "GenerateCode.sol:KventureCode",
								"label": "lockTime",
								"offset": 0,
								"slot": "11",
								"type": "t_uint256"
							},
							{
								"astId": 781,
								"contract": "GenerateCode.sol:KventureCode",
								"label": "keyHash",
								"offset": 0,
								"slot": "12",
								"type": "t_bytes32"
							},
							{
								"astId": 783,
								"contract": "GenerateCode.sol:KventureCode",
								"label": "currentDeposit",
								"offset": 0,
								"slot": "13",
								"type": "t_uint256"
							}
						],
						"numberOfBytes": "448"
					},
					"t_struct(Product)802_storage": {
						"encoding": "inplace",
						"label": "struct PackageInfoStruct.Product",
						"members": [
							{
								"astId": 791,
								"contract": "GenerateCode.sol:KventureCode",
								"label": "id",
								"offset": 0,
								"slot": "0",
								"type": "t_bytes32"
							},
							{
								"astId": 793,
								"contract": "GenerateCode.sol:KventureCode",
								"label": "imgUrl",
								"offset": 0,
								"slot": "1",
								"type": "t_bytes_storage"
							},
							{
								"astId": 795,
								"contract": "GenerateCode.sol:KventureCode",
								"label": "memberPrice",
								"offset": 0,
								"slot": "2",
								"type": "t_uint256"
							},
							{
								"astId": 797,
								"contract": "GenerateCode.sol:KventureCode",
								"label": "retailPrice",
								"offset": 0,
								"slot": "3",
								"type": "t_uint256"
							},
							{
								"astId": 799,
								"contract": "GenerateCode.sol:KventureCode",
								"label": "desc",
								"offset": 0,
								"slot": "4",
								"type": "t_bytes_storage"
							},
							{
								"astId": 801,
								"contract": "GenerateCode.sol:KventureCode",
								"label": "active",
								"offset": 0,
								"slot": "5",
								"type": "t_bool"
							}
						],
						"numberOfBytes": "192"
					},
					"t_uint256": {
						"encoding": "inplace",
						"label": "uint256",
						"numberOfBytes": "32"
					},
					"t_uint32": {
						"encoding": "inplace",
						"label": "uint32",
						"numberOfBytes": "4"
					},
					"t_uint8": {
						"encoding": "inplace",
						"label": "uint8",
						"numberOfBytes": "1"
					}
				}
			},
			"userdoc": {
				"kind": "user",
				"methods": {},
				"version": 1
			}
		}
	}
}