{
	"GenerateCode.sol": {
		"KventureCode": {
			"abi": [
				{
					"inputs": [],
					"stateMutability": "payable",
					"type": "constructor"
				},
				{
					"anonymous": false,
					"inputs": [
						{
							"indexed": false,
							"internalType": "uint8",
							"name": "version",
							"type": "uint8"
						}
					],
					"name": "Initialized",
					"type": "event"
				},
				{
					"anonymous": false,
					"inputs": [
						{
							"indexed": true,
							"internalType": "address",
							"name": "previousOwner",
							"type": "address"
						},
						{
							"indexed": true,
							"internalType": "address",
							"name": "newOwner",
							"type": "address"
						}
					],
					"name": "OwnershipTransferred",
					"type": "event"
				},
				{
					"inputs": [
						{
							"internalType": "string[]",
							"name": "codeFEs",
							"type": "string[]"
						}
					],
					"name": "BlockManyCode",
					"outputs": [
						{
							"internalType": "bool[]",
							"name": "",
							"type": "bool[]"
						}
					],
					"stateMutability": "nonpayable",
					"type": "function"
				},
				{
					"inputs": [],
					"name": "CalculateCurrentRateBoost",
					"outputs": [
						{
							"internalType": "uint256",
							"name": "",
							"type": "uint256"
						}
					],
					"stateMutability": "view",
					"type": "function"
				},
				{
					"inputs": [
						{
							"internalType": "address",
							"name": "buyer",
							"type": "address"
						},
						{
							"internalType": "uint256",
							"name": "planPrice",
							"type": "uint256"
						},
						{
							"internalType": "uint256",
							"name": "quantity",
							"type": "uint256"
						},
						{
							"internalType": "bool",
							"name": "lock",
							"type": "bool"
						},
						{
							"internalType": "bytes32[]",
							"name": "codeHashes",
							"type": "bytes32[]"
						},
						{
							"internalType": "address",
							"name": "_delegate",
							"type": "address"
						}
					],
					"name": "GenerateCode",
					"outputs": [
						{
							"internalType": "uint256[]",
							"name": "",
							"type": "uint256[]"
						}
					],
					"stateMutability": "nonpayable",
					"type": "function"
				},
				{
					"inputs": [
						{
							"internalType": "uint32",
							"name": "_page",
							"type": "uint32"
						}
					],
					"name": "GetMyCode",
					"outputs": [
						{
							"internalType": "bool",
							"name": "isMore",
							"type": "bool"
						},
						{
							"components": [
								{
									"internalType": "address",
									"name": "owner",
									"type": "address"
								},
								{
									"internalType": "bytes32",
									"name": "codeHash",
									"type": "bytes32"
								},
								{
									"internalType": "uint256",
									"name": "activeTime",
									"type": "uint256"
								},
								{
									"internalType": "uint256",
									"name": "expirationActiveTime",
									"type": "uint256"
								},
								{
									"internalType": "uint256",
									"name": "boostSpeed",
									"type": "uint256"
								},
								{
									"internalType": "uint256",
									"name": "boostTime",
									"type": "uint256"
								},
								{
									"internalType": "uint256",
									"name": "rateBoost",
									"type": "uint256"
								},
								{
									"internalType": "address",
									"name": "delegate",
									"type": "address"
								},
								{
									"internalType": "enum PackageStatus",
									"name": "status",
									"type": "uint8"
								},
								{
									"internalType": "string",
									"name": "origin",
									"type": "string"
								},
								{
									"internalType": "uint256",
									"name": "mintedAmount",
									"type": "uint256"
								},
								{
									"internalType": "uint256",
									"name": "releasePercentage",
									"type": "uint256"
								},
								{
									"internalType": "uint256",
									"name": "lockTime",
									"type": "uint256"
								},
								{
									"internalType": "bytes32",
									"name": "keyHash",
									"type": "bytes32"
								},
								{
									"internalType": "uint256",
									"name": "currentDeposit",
									"type": "uint256"
								}
							],
							"internalType": "struct PackageInfo[]",
							"name": "arrayPack",
							"type": "tuple[]"
						}
					],
					"stateMutability": "view",
					"type": "function"
				},
				{
					"inputs": [],
					"name": "GetTotalMyCode",
					"outputs": [
						{
							"internalType": "uint256",
							"name": "",
							"type": "uint256"
						}
					],
					"stateMutability": "view",
					"type": "function"
				},
				{
					"inputs": [
						{
							"internalType": "uint32",
							"name": "_page",
							"type": "uint32"
						},
						{
							"internalType": "address",
							"name": "_user",
							"type": "address"
						}
					],
					"name": "GetUserCode",
					"outputs": [
						{
							"internalType": "bool",
							"name": "isMore",
							"type": "bool"
						},
						{
							"components": [
								{
									"internalType": "address",
									"name": "owner",
									"type": "address"
								},
								{
									"internalType": "bytes32",
									"name": "codeHash",
									"type": "bytes32"
								},
								{
									"internalType": "uint256",
									"name": "activeTime",
									"type": "uint256"
								},
								{
									"internalType": "uint256",
									"name": "expirationActiveTime",
									"type": "uint256"
								},
								{
									"internalType": "uint256",
									"name": "boostSpeed",
									"type": "uint256"
								},
								{
									"internalType": "uint256",
									"name": "boostTime",
									"type": "uint256"
								},
								{
									"internalType": "uint256",
									"name": "rateBoost",
									"type": "uint256"
								},
								{
									"internalType": "address",
									"name": "delegate",
									"type": "address"
								},
								{
									"internalType": "enum PackageStatus",
									"name": "status",
									"type": "uint8"
								},
								{
									"internalType": "string",
									"name": "origin",
									"type": "string"
								},
								{
									"internalType": "uint256",
									"name": "mintedAmount",
									"type": "uint256"
								},
								{
									"internalType": "uint256",
									"name": "releasePercentage",
									"type": "uint256"
								},
								{
									"internalType": "uint256",
									"name": "lockTime",
									"type": "uint256"
								},
								{
									"internalType": "bytes32",
									"name": "keyHash",
									"type": "bytes32"
								},
								{
									"internalType": "uint256",
									"name": "currentDeposit",
									"type": "uint256"
								}
							],
							"internalType": "struct PackageInfo[]",
							"name": "arrayPack",
							"type": "tuple[]"
						}
					],
					"stateMutability": "view",
					"type": "function"
				},
				{
					"inputs": [],
					"name": "KCodePrice",
					"outputs": [
						{
							"internalType": "uint256",
							"name": "",
							"type": "uint256"
						}
					],
					"stateMutability": "view",
					"type": "function"
				},
				{
					"inputs": [
						{
							"internalType": "address",
							"name": "buyer",
							"type": "address"
						},
						{
							"internalType": "bytes32",
							"name": "codeHash",
							"type": "bytes32"
						}
					],
					"name": "KGenerateCode",
					"outputs": [
						{
							"internalType": "bool",
							"name": "",
							"type": "bool"
						}
					],
					"stateMutability": "nonpayable",
					"type": "function"
				},
				{
					"inputs": [
						{
							"internalType": "uint256",
							"name": "_cloudMiningThreshold",
							"type": "uint256"
						}
					],
					"name": "SetCloudMiningThreshold",
					"outputs": [],
					"stateMutability": "nonpayable",
					"type": "function"
				},
				{
					"inputs": [
						{
							"internalType": "address",
							"name": "_masterPool",
							"type": "address"
						}
					],
					"name": "SetMasterPool",
					"outputs": [],
					"stateMutability": "nonpayable",
					"type": "function"
				},
				{
					"inputs": [
						{
							"internalType": "address",
							"name": "_nft",
							"type": "address"
						}
					],
					"name": "SetNFT",
					"outputs": [],
					"stateMutability": "nonpayable",
					"type": "function"
				},
				{
					"inputs": [
						{
							"internalType": "address",
							"name": "_product",
							"type": "address"
						}
					],
					"name": "SetProduct",
					"outputs": [],
					"stateMutability": "nonpayable",
					"type": "function"
				},
				{
					"inputs": [
						{
							"internalType": "address",
							"name": "_usdt",
							"type": "address"
						}
					],
					"name": "SetUsdt",
					"outputs": [],
					"stateMutability": "nonpayable",
					"type": "function"
				},
				{
					"inputs": [
						{
							"internalType": "string[]",
							"name": "codeFEs",
							"type": "string[]"
						}
					],
					"name": "UnblockManyCode",
					"outputs": [
						{
							"internalType": "bool[]",
							"name": "",
							"type": "bool[]"
						}
					],
					"stateMutability": "nonpayable",
					"type": "function"
				},
				{
					"inputs": [],
					"name": "boostSpeedDecimal",
					"outputs": [
						{
							"internalType": "uint256",
							"name": "",
							"type": "uint256"
						}
					],
					"stateMutability": "view",
					"type": "function"
				},
				{
					"inputs": [],
					"name": "codePool",
					"outputs": [
						{
							"internalType": "contract ICodePool",
							"name": "",
							"type": "address"
						}
					],
					"stateMutability": "view",
					"type": "function"
				},
				{
					"inputs": [],
					"name": "deployedDate",
					"outputs": [
						{
							"internalType": "uint256",
							"name": "",
							"type": "uint256"
						}
					],
					"stateMutability": "view",
					"type": "function"
				},
				{
					"inputs": [
						{
							"internalType": "bytes32",
							"name": "codeHash",
							"type": "bytes32"
						}
					],
					"name": "getCodeInfoSmC",
					"outputs": [
						{
							"components": [
								{
									"internalType": "address",
									"name": "owner",
									"type": "address"
								},
								{
									"internalType": "bytes32",
									"name": "codeHash",
									"type": "bytes32"
								},
								{
									"internalType": "uint256",
									"name": "activeTime",
									"type": "uint256"
								},
								{
									"internalType": "uint256",
									"name": "expirationActiveTime",
									"type": "uint256"
								},
								{
									"internalType": "uint256",
									"name": "boostSpeed",
									"type": "uint256"
								},
								{
									"internalType": "uint256",
									"name": "boostTime",
									"type": "uint256"
								},
								{
									"internalType": "uint256",
									"name": "rateBoost",
									"type": "uint256"
								},
								{
									"internalType": "address",
									"name": "delegate",
									"type": "address"
								},
								{
									"internalType": "enum PackageStatus",
									"name": "status",
									"type": "uint8"
								},
								{
									"internalType": "string",
									"name": "origin",
									"type": "string"
								},
								{
									"internalType": "uint256",
									"name": "mintedAmount",
									"type": "uint256"
								},
								{
									"internalType": "uint256",
									"name": "releasePercentage",
									"type": "uint256"
								},
								{
									"internalType": "uint256",
									"name": "lockTime",
									"type": "uint256"
								},
								{
									"internalType": "bytes32",
									"name": "keyHash",
									"type": "bytes32"
								},
								{
									"internalType": "uint256",
									"name": "currentDeposit",
									"type": "uint256"
								}
							],
							"internalType": "struct PackageInfo",
							"name": "",
							"type": "tuple"
						}
					],
					"stateMutability": "view",
					"type": "function"
				},
				{
					"inputs": [
						{
							"internalType": "address",
							"name": "_trustedUSDT",
							"type": "address"
						},
						{
							"internalType": "address",
							"name": "_masterPool",
							"type": "address"
						},
						{
							"internalType": "address",
							"name": "_codePool",
							"type": "address"
						},
						{
							"internalType": "address",
							"name": "_product",
							"type": "address"
						},
						{
							"internalType": "address",
							"name": "_trustedNFT",
							"type": "address"
						},
						{
							"internalType": "address",
							"name": "_kventure",
							"type": "address"
						}
					],
					"name": "initialize",
					"outputs": [],
					"stateMutability": "nonpayable",
					"type": "function"
				},
				{
					"inputs": [],
					"name": "kventure",
					"outputs": [
						{
							"internalType": "address",
							"name": "",
							"type": "address"
						}
					],
					"stateMutability": "view",
					"type": "function"
				},
				{
					"inputs": [
						{
							"internalType": "uint256",
							"name": "",
							"type": "uint256"
						}
					],
					"name": "mIdToPro",
					"outputs": [
						{
							"internalType": "bytes32",
							"name": "id",
							"type": "bytes32"
						},
						{
							"internalType": "bytes",
							"name": "imgUrl",
							"type": "bytes"
						},
						{
							"internalType": "uint256",
							"name": "memberPrice",
							"type": "uint256"
						},
						{
							"internalType": "uint256",
							"name": "retailPrice",
							"type": "uint256"
						},
						{
							"internalType": "bytes",
							"name": "desc",
							"type": "bytes"
						},
						{
							"internalType": "bool",
							"name": "active",
							"type": "bool"
						}
					],
					"stateMutability": "view",
					"type": "function"
				},
				{
					"inputs": [
						{
							"internalType": "uint256",
							"name": "",
							"type": "uint256"
						}
					],
					"name": "mValidMiningTime",
					"outputs": [
						{
							"internalType": "uint256",
							"name": "",
							"type": "uint256"
						}
					],
					"stateMutability": "view",
					"type": "function"
				},
				{
					"inputs": [],
					"name": "masterPool",
					"outputs": [
						{
							"internalType": "address",
							"name": "",
							"type": "address"
						}
					],
					"stateMutability": "view",
					"type": "function"
				},
				{
					"inputs": [],
					"name": "nft",
					"outputs": [
						{
							"internalType": "address",
							"name": "",
							"type": "address"
						}
					],
					"stateMutability": "view",
					"type": "function"
				},
				{
					"inputs": [],
					"name": "owner",
					"outputs": [
						{
							"internalType": "address",
							"name": "",
							"type": "address"
						}
					],
					"stateMutability": "view",
					"type": "function"
				},
				{
					"inputs": [],
					"name": "product",
					"outputs": [
						{
							"internalType": "address",
							"name": "",
							"type": "address"
						}
					],
					"stateMutability": "view",
					"type": "function"
				},
				{
					"inputs": [],
					"name": "rateBoost",
					"outputs": [
						{
							"internalType": "uint256",
							"name": "",
							"type": "uint256"
						}
					],
					"stateMutability": "view",
					"type": "function"
				},
				{
					"inputs": [],
					"name": "renounceOwnership",
					"outputs": [],
					"stateMutability": "nonpayable",
					"type": "function"
				},
				{
					"inputs": [],
					"name": "returnRIP",
					"outputs": [
						{
							"internalType": "uint32",
							"name": "",
							"type": "uint32"
						}
					],
					"stateMutability": "view",
					"type": "function"
				},
				{
					"inputs": [
						{
							"internalType": "address",
							"name": "newOwner",
							"type": "address"
						}
					],
					"name": "transferOwnership",
					"outputs": [],
					"stateMutability": "nonpayable",
					"type": "function"
				},
				{
					"inputs": [],
					"name": "usdt",
					"outputs": [
						{
							"internalType": "address",
							"name": "",
							"type": "address"
						}
					],
					"stateMutability": "view",
					"type": "function"
				},
				{
					"inputs": [],
					"name": "usdtDecimal",
					"outputs": [
						{
							"internalType": "uint256",
							"name": "",
							"type": "uint256"
						}
					],
					"stateMutability": "view",
					"type": "function"
				}
			],
			"devdoc": {
				"events": {
					"Initialized(uint8)": {
						"details": "Triggered when the contract has been initialized or reinitialized."
					}
				},
				"kind": "dev",
				"methods": {
					"owner()": {
						"details": "Returns the address of the current owner."
					},
					"renounceOwnership()": {
						"details": "Leaves the contract without owner. It will not be possible to call `onlyOwner` functions. Can only be called by the current owner. NOTE: Renouncing ownership will leave the contract without an owner, thereby disabling any functionality that is only available to the owner."
					},
					"transferOwnership(address)": {
						"details": "Transfers ownership of the contract to a new account (`newOwner`). Can only be called by the current owner."
					}
				},
				"version": 1
			},
			"evm": {
				"assembly": "    /* \"GenerateCode.sol\":2103:14675  contract KventureCode is Initializable, OwnableUpgradeable, PackageInfoStruct {... */\n  mstore(0x40, 0x80)\n    /* \"GenerateCode.sol\":2215:2226  usdtDecimal */\n  sload(0x66)\n    /* \"GenerateCode.sol\":2211:2226  1 * usdtDecimal */\n  tag_1\n  swap1\n    /* \"GenerateCode.sol\":2211:2212  1 */\n  0x01\n    /* \"GenerateCode.sol\":2211:2226  1 * usdtDecimal */\n  tag_2\n  jump\t// in\ntag_1:\n    /* \"GenerateCode.sol\":2187:2226  uint public rateBoost = 1 * usdtDecimal */\n  0x65\n  sstore\n    /* \"GenerateCode.sol\":2273:2280  10 ** 6 */\n  0x0f4240\n    /* \"GenerateCode.sol\":2244:2280  uint256 public usdtDecimal = 10 ** 6 */\n  0x66\n  dup2\n  swap1\n  sstore\n    /* \"GenerateCode.sol\":2321:2328  10 ** 2 */\n  0x64\n    /* \"GenerateCode.sol\":2286:2328  uint256 public boostSpeedDecimal = 10 ** 2 */\n  0x67\n  sstore\n    /* \"GenerateCode.sol\":2362:2378  usdtDecimal * 30 */\n  tag_3\n  swap1\n    /* \"GenerateCode.sol\":2376:2378  30 */\n  0x1e\n    /* \"GenerateCode.sol\":2362:2378  usdtDecimal * 30 */\n  tag_2\n  jump\t// in\ntag_3:\n    /* \"GenerateCode.sol\":2334:2378  uint256 public KCodePrice = usdtDecimal * 30 */\n  0x68\n  sstore\n    /* \"GenerateCode.sol\":2384:2412  uint32 public returnRIP = 10 */\n  0x69\n  dup1\n  sload\n  not(0xffffffff)\n  and\n    /* \"GenerateCode.sol\":2410:2412  10 */\n  0x0a\n    /* \"GenerateCode.sol\":2384:2412  uint32 public returnRIP = 10 */\n  or\n  swap1\n  sstore\n    /* \"GenerateCode.sol\":2103:14675  contract KventureCode is Initializable, OwnableUpgradeable, PackageInfoStruct {... */\n  jump(tag_7)\n    /* \"#utility.yul\":14:279   */\ntag_2:\n    /* \"#utility.yul\":87:96   */\n  dup1\n  dup3\n  mul\n    /* \"#utility.yul\":118:127   */\n  dup2\n  iszero\n    /* \"#utility.yul\":135:150   */\n  dup3\n  dup3\n  div\n    /* \"#utility.yul\":129:151   */\n  dup5\n  eq\n    /* \"#utility.yul\":115:152   */\n  or\n    /* \"#utility.yul\":105:273   */\n  tag_9\n  jumpi\n    /* \"#utility.yul\":195:205   */\n  0x4e487b71\n    /* \"#utility.yul\":190:193   */\n  0xe0\n    /* \"#utility.yul\":186:206   */\n  shl\n    /* \"#utility.yul\":183:184   */\n  0x00\n    /* \"#utility.yul\":176:207   */\n  mstore\n    /* \"#utility.yul\":230:234   */\n  0x11\n    /* \"#utility.yul\":227:228   */\n  0x04\n    /* \"#utility.yul\":220:235   */\n  mstore\n    /* \"#utility.yul\":258:262   */\n  0x24\n    /* \"#utility.yul\":255:256   */\n  0x00\n    /* \"#utility.yul\":248:263   */\n  revert\n    /* \"#utility.yul\":105:273   */\ntag_9:\n    /* \"#utility.yul\":14:279   */\n  swap3\n  swap2\n  pop\n  pop\n  jump\t// out\ntag_7:\n    /* \"GenerateCode.sol\":2103:14675  contract KventureCode is Initializable, OwnableUpgradeable, PackageInfoStruct {... */\n  dataSize(sub_0)\n  dup1\n  dataOffset(sub_0)\n  0x00\n  codecopy\n  0x00\n  return\nstop\n\nsub_0: assembly {\n        /* \"GenerateCode.sol\":2103:14675  contract KventureCode is Initializable, OwnableUpgradeable, PackageInfoStruct {... */\n      mstore(0x40, 0x80)\n      callvalue\n      dup1\n      iszero\n      tag_1\n      jumpi\n      0x00\n      dup1\n      revert\n    tag_1:\n      pop\n      jumpi(tag_2, lt(calldatasize, 0x04))\n      shr(0xe0, calldataload(0x00))\n      dup1\n      0xa429a513\n      gt\n      tag_35\n      jumpi\n      dup1\n      0xcb286f19\n      gt\n      tag_36\n      jumpi\n      dup1\n      0xee590788\n      gt\n      tag_37\n      jumpi\n      dup1\n      0xee590788\n      eq\n      tag_31\n      jumpi\n      dup1\n      0xf2fde38b\n      eq\n      tag_32\n      jumpi\n      dup1\n      0xf4b7f343\n      eq\n      tag_33\n      jumpi\n      dup1\n      0xf8525b93\n      eq\n      tag_34\n      jumpi\n      0x00\n      dup1\n      revert\n    tag_37:\n      dup1\n      0xcb286f19\n      eq\n      tag_27\n      jumpi\n      dup1\n      0xcc2a9a5b\n      eq\n      tag_28\n      jumpi\n      dup1\n      0xdc30cbb4\n      eq\n      tag_29\n      jumpi\n      dup1\n      0xddcd6408\n      eq\n      tag_30\n      jumpi\n      0x00\n      dup1\n      revert\n    tag_36:\n      dup1\n      0xb935948a\n      gt\n      tag_38\n      jumpi\n      dup1\n      0xb935948a\n      eq\n      tag_23\n      jumpi\n      dup1\n      0xbc65fee5\n      eq\n      tag_24\n      jumpi\n      dup1\n      0xbf9ce952\n      eq\n      tag_25\n      jumpi\n      dup1\n      0xc01c36d0\n      eq\n      tag_26\n      jumpi\n      0x00\n      dup1\n      revert\n    tag_38:\n      dup1\n      0xa429a513\n      eq\n      tag_19\n      jumpi\n      dup1\n      0xa559934e\n      eq\n      tag_20\n      jumpi\n      dup1\n      0xb22a9f9a\n      eq\n      tag_21\n      jumpi\n      dup1\n      0xb7182530\n      eq\n      tag_22\n      jumpi\n      0x00\n      dup1\n      revert\n    tag_35:\n      dup1\n      0x486f6afe\n      gt\n      tag_39\n      jumpi\n      dup1\n      0x8c4a876d\n      gt\n      tag_40\n      jumpi\n      dup1\n      0x8c4a876d\n      eq\n      tag_15\n      jumpi\n      dup1\n      0x8c7ab1d7\n      eq\n      tag_16\n      jumpi\n      dup1\n      0x8da5cb5b\n      eq\n      tag_17\n      jumpi\n      dup1\n      0x8fe39efd\n      eq\n      tag_18\n      jumpi\n      0x00\n      dup1\n      revert\n    tag_40:\n      dup1\n      0x486f6afe\n      eq\n      tag_11\n      jumpi\n      dup1\n      0x61b26f27\n      eq\n      tag_12\n      jumpi\n      dup1\n      0x715018a6\n      eq\n      tag_13\n      jumpi\n      dup1\n      0x78f25aee\n      eq\n      tag_14\n      jumpi\n      0x00\n      dup1\n      revert\n    tag_39:\n      dup1\n      0x362efc3d\n      gt\n      tag_41\n      jumpi\n      dup1\n      0x362efc3d\n      eq\n      tag_7\n      jumpi\n      dup1\n      0x395348dc\n      eq\n      tag_8\n      jumpi\n      dup1\n      0x435a3e50\n      eq\n      tag_9\n      jumpi\n      dup1\n      0x47ccca02\n      eq\n      tag_10\n      jumpi\n      0x00\n      dup1\n      revert\n    tag_41:\n      dup1\n      0x076d5556\n      eq\n      tag_3\n      jumpi\n      dup1\n      0x11f1374a\n      eq\n      tag_4\n      jumpi\n      dup1\n      0x2f48ab7d\n      eq\n      tag_5\n      jumpi\n      dup1\n      0x31ae322f\n      eq\n      tag_6\n      jumpi\n    tag_2:\n      0x00\n      dup1\n      revert\n        /* \"GenerateCode.sol\":2623:2647  uint public deployedDate */\n    tag_3:\n      tag_42\n      sload(0x6d)\n      dup2\n      jump\n    tag_42:\n      mload(0x40)\n        /* \"#utility.yul\":160:185   */\n      swap1\n      dup2\n      mstore\n        /* \"#utility.yul\":148:150   */\n      0x20\n        /* \"#utility.yul\":133:151   */\n      add\n        /* \"GenerateCode.sol\":2623:2647  uint public deployedDate */\n    tag_44:\n      mload(0x40)\n      dup1\n      swap2\n      sub\n      swap1\n      return\n        /* \"GenerateCode.sol\":2384:2412  uint32 public returnRIP = 10 */\n    tag_4:\n      sload(0x69)\n      tag_46\n      swap1\n      0xffffffff\n      and\n      dup2\n      jump\n    tag_46:\n      mload(0x40)\n        /* \"#utility.yul\":370:380   */\n      0xffffffff\n        /* \"#utility.yul\":358:381   */\n      swap1\n      swap2\n      and\n        /* \"#utility.yul\":340:382   */\n      dup2\n      mstore\n        /* \"#utility.yul\":328:330   */\n      0x20\n        /* \"#utility.yul\":313:331   */\n      add\n        /* \"GenerateCode.sol\":2384:2412  uint32 public returnRIP = 10 */\n      tag_44\n        /* \"#utility.yul\":196:388   */\n      jump\n        /* \"GenerateCode.sol\":2654:2673  address public usdt */\n    tag_5:\n      sload(0x6e)\n      tag_50\n      swap1\n      sub(shl(0xa0, 0x01), 0x01)\n      and\n      dup2\n      jump\n    tag_50:\n      mload(0x40)\n      sub(shl(0xa0, 0x01), 0x01)\n        /* \"#utility.yul\":666:698   */\n      swap1\n      swap2\n      and\n        /* \"#utility.yul\":648:699   */\n      dup2\n      mstore\n        /* \"#utility.yul\":636:638   */\n      0x20\n        /* \"#utility.yul\":621:639   */\n      add\n        /* \"GenerateCode.sol\":2654:2673  address public usdt */\n      tag_44\n        /* \"#utility.yul\":502:705   */\n      jump\n        /* \"GenerateCode.sol\":10732:11393  function BlockManyCode(... */\n    tag_6:\n      tag_54\n      tag_55\n      calldatasize\n      0x04\n      tag_56\n      jump\t// in\n    tag_55:\n      tag_57\n      jump\t// in\n    tag_54:\n      mload(0x40)\n      tag_44\n      swap2\n      swap1\n      tag_59\n      jump\t// in\n        /* \"GenerateCode.sol\":2244:2280  uint256 public usdtDecimal = 10 ** 6 */\n    tag_7:\n      tag_42\n      sload(0x66)\n      dup2\n      jump\n        /* \"GenerateCode.sol\":2187:2226  uint public rateBoost = 1 * usdtDecimal */\n    tag_8:\n      tag_42\n      sload(0x65)\n      dup2\n      jump\n        /* \"GenerateCode.sol\":2334:2378  uint256 public KCodePrice = usdtDecimal * 30 */\n    tag_9:\n      tag_42\n      sload(0x68)\n      dup2\n      jump\n        /* \"GenerateCode.sol\":2741:2759  address public nft */\n    tag_10:\n      sload(0x71)\n      tag_50\n      swap1\n      sub(shl(0xa0, 0x01), 0x01)\n      and\n      dup2\n      jump\n        /* \"GenerateCode.sol\":2679:2704  ICodePool public codePool */\n    tag_11:\n      sload(0x6f)\n      tag_50\n      swap1\n      sub(shl(0xa0, 0x01), 0x01)\n      and\n      dup2\n      jump\n        /* \"GenerateCode.sol\":11546:11691  function getCodeInfoSmC(... */\n    tag_12:\n      tag_76\n      tag_77\n      calldatasize\n      0x04\n      tag_78\n      jump\t// in\n    tag_77:\n      tag_79\n      jump\t// in\n    tag_76:\n      mload(0x40)\n      tag_44\n      swap2\n      swap1\n      tag_81\n      jump\t// in\n        /* \"@openzeppelin/contracts-upgradeable@v4.9.0/access/OwnableUpgradeable.sol\":2064:2165  function renounceOwnership() public virtual onlyOwner {... */\n    tag_13:\n      tag_82\n      tag_83\n      jump\t// in\n    tag_82:\n      stop\n        /* \"GenerateCode.sol\":12339:13440  function GetMyCode(uint32 _page) ... */\n    tag_14:\n      tag_84\n      tag_85\n      calldatasize\n      0x04\n      tag_86\n      jump\t// in\n    tag_85:\n      tag_87\n      jump\t// in\n    tag_84:\n      mload(0x40)\n      tag_44\n      swap3\n      swap2\n      swap1\n      tag_89\n      jump\t// in\n        /* \"GenerateCode.sol\":5775:6120  function CalculateCurrentRateBoost() public view returns (uint) {... */\n    tag_15:\n      tag_42\n      tag_91\n      jump\t// in\n        /* \"GenerateCode.sol\":2710:2735  address public masterPool */\n    tag_16:\n      sload(0x70)\n      tag_50\n      swap1\n      sub(shl(0xa0, 0x01), 0x01)\n      and\n      dup2\n      jump\n        /* \"@openzeppelin/contracts-upgradeable@v4.9.0/access/OwnableUpgradeable.sol\":1441:1526  function owner() public view virtual returns (address) {... */\n    tag_17:\n        /* \"@openzeppelin/contracts-upgradeable@v4.9.0/access/OwnableUpgradeable.sol\":1513:1519  _owner */\n      and(sub(shl(0xa0, 0x01), 0x01), sload(0x33))\n        /* \"@openzeppelin/contracts-upgradeable@v4.9.0/access/OwnableUpgradeable.sol\":1441:1526  function owner() public view virtual returns (address) {... */\n      jump(tag_50)\n        /* \"GenerateCode.sol\":14564:14673  function GetTotalMyCode() external view returns(uint) {... */\n    tag_18:\n      tag_42\n      tag_100\n      jump\t// in\n        /* \"GenerateCode.sol\":7640:7987  function KGenerateCode(... */\n    tag_19:\n      tag_102\n      tag_103\n      calldatasize\n      0x04\n      tag_104\n      jump\t// in\n    tag_103:\n      tag_105\n      jump\t// in\n    tag_102:\n      mload(0x40)\n        /* \"#utility.yul\":6902:6916   */\n      swap1\n      iszero\n        /* \"#utility.yul\":6895:6917   */\n      iszero\n        /* \"#utility.yul\":6877:6918   */\n      dup2\n      mstore\n        /* \"#utility.yul\":6865:6867   */\n      0x20\n        /* \"#utility.yul\":6850:6868   */\n      add\n        /* \"GenerateCode.sol\":7640:7987  function KGenerateCode(... */\n      tag_44\n        /* \"#utility.yul\":6737:6924   */\n      jump\n        /* \"GenerateCode.sol\":4196:4300  function SetMasterPool(address _masterPool) external onlyOwner {... */\n    tag_20:\n      tag_82\n      tag_109\n      calldatasize\n      0x04\n      tag_110\n      jump\t// in\n    tag_109:\n      tag_111\n      jump\t// in\n        /* \"GenerateCode.sol\":2286:2328  uint256 public boostSpeedDecimal = 10 ** 2 */\n    tag_21:\n      tag_42\n      sload(0x67)\n      dup2\n      jump\n        /* \"GenerateCode.sol\":13446:14558  function GetUserCode(uint32 _page, address _user) ... */\n    tag_22:\n      tag_84\n      tag_116\n      calldatasize\n      0x04\n      tag_117\n      jump\t// in\n    tag_116:\n      tag_118\n      jump\t// in\n        /* \"GenerateCode.sol\":4402:4546  function SetCloudMiningThreshold(uint256 _cloudMiningThreshold) external onlyOwner {... */\n    tag_23:\n      tag_82\n      tag_121\n      calldatasize\n      0x04\n      tag_78\n      jump\t// in\n    tag_121:\n      tag_123\n      jump\t// in\n        /* \"GenerateCode.sol\":2531:2582  mapping(uint256 => uint256) public mValidMiningTime */\n    tag_24:\n      tag_42\n      tag_125\n      calldatasize\n      0x04\n      tag_78\n      jump\t// in\n    tag_125:\n      mstore(0x20, 0x6b)\n      0x00\n      swap1\n      dup2\n      mstore\n      0x40\n      swap1\n      keccak256\n      sload\n      dup2\n      jump\n        /* \"GenerateCode.sol\":2827:2849  address public product */\n    tag_25:\n      sload(0x73)\n      tag_50\n      swap1\n      sub(shl(0xa0, 0x01), 0x01)\n      and\n      dup2\n      jump\n        /* \"GenerateCode.sol\":2765:2788  address public kventure */\n    tag_26:\n      sload(0x72)\n      tag_50\n      swap1\n      sub(shl(0xa0, 0x01), 0x01)\n      and\n      dup2\n      jump\n        /* \"GenerateCode.sol\":2855:2895  mapping(uint => Product) public mIdToPro */\n    tag_27:\n      tag_134\n      tag_135\n      calldatasize\n      0x04\n      tag_78\n      jump\t// in\n    tag_135:\n      tag_136\n      jump\t// in\n    tag_134:\n      mload(0x40)\n      tag_44\n      swap7\n      swap6\n      swap5\n      swap4\n      swap3\n      swap2\n      swap1\n      tag_138\n      jump\t// in\n        /* \"GenerateCode.sol\":2932:3649  function initialize(... */\n    tag_28:\n      tag_82\n      tag_140\n      calldatasize\n      0x04\n      tag_141\n      jump\t// in\n    tag_140:\n      tag_142\n      jump\t// in\n        /* \"GenerateCode.sol\":4305:4397  function SetProduct(address _product) external onlyOwner {... */\n    tag_29:\n      tag_82\n      tag_144\n      calldatasize\n      0x04\n      tag_110\n      jump\t// in\n    tag_144:\n      tag_145\n      jump\t// in\n        /* \"GenerateCode.sol\":4110:4190  function SetUsdt(address _usdt) external onlyOwner {... */\n    tag_30:\n      tag_82\n      tag_147\n      calldatasize\n      0x04\n      tag_110\n      jump\t// in\n    tag_147:\n      tag_148\n      jump\t// in\n        /* \"GenerateCode.sol\":6126:7633  function GenerateCode(... */\n    tag_31:\n      tag_149\n      tag_150\n      calldatasize\n      0x04\n      tag_151\n      jump\t// in\n    tag_150:\n      tag_152\n      jump\t// in\n    tag_149:\n      mload(0x40)\n      tag_44\n      swap2\n      swap1\n      tag_154\n      jump\t// in\n        /* \"@openzeppelin/contracts-upgradeable@v4.9.0/access/OwnableUpgradeable.sol\":2314:2512  function transferOwnership(address newOwner) public virtual onlyOwner {... */\n    tag_32:\n      tag_82\n      tag_156\n      calldatasize\n      0x04\n      tag_110\n      jump\t// in\n    tag_156:\n      tag_157\n      jump\t// in\n        /* \"GenerateCode.sol\":10060:10726  function UnblockManyCode(... */\n    tag_33:\n      tag_54\n      tag_159\n      calldatasize\n      0x04\n      tag_56\n      jump\t// in\n    tag_159:\n      tag_160\n      jump\t// in\n        /* \"GenerateCode.sol\":4028:4104  function SetNFT(address _nft) external onlyOwner {... */\n    tag_34:\n      tag_82\n      tag_163\n      calldatasize\n      0x04\n      tag_110\n      jump\t// in\n    tag_163:\n      tag_164\n      jump\t// in\n        /* \"GenerateCode.sol\":10732:11393  function BlockManyCode(... */\n    tag_57:\n        /* \"GenerateCode.sol\":10814:10827  bool[] memory */\n      0x60\n        /* \"GenerateCode.sol\":10839:10860  bool[] memory success */\n      0x00\n        /* \"GenerateCode.sol\":10874:10881  codeFEs */\n      dup3\n        /* \"GenerateCode.sol\":10863:10889  new bool[](codeFEs.length) */\n      0xffffffffffffffff\n      dup2\n      gt\n      iszero\n      tag_167\n      jumpi\n      tag_167\n      tag_168\n      jump\t// in\n    tag_167:\n      mload(0x40)\n      swap1\n      dup1\n      dup3\n      mstore\n      dup1\n      0x20\n      mul\n      0x20\n      add\n      dup3\n      add\n      0x40\n      mstore\n      dup1\n      iszero\n      tag_169\n      jumpi\n      dup2\n      0x20\n      add\n      0x20\n      dup3\n      mul\n      dup1\n      calldatasize\n      dup4\n      calldatacopy\n      add\n      swap1\n      pop\n    tag_169:\n      pop\n        /* \"GenerateCode.sol\":10839:10889  bool[] memory success = new bool[](codeFEs.length) */\n      swap1\n      pop\n        /* \"GenerateCode.sol\":10899:10915  bytes32 codeHash */\n      0x00\n      dup1\n        /* \"GenerateCode.sol\":10925:11363  for (uint8 index = 0; index < codeFEs.length; index++) {... */\n    tag_170:\n        /* \"GenerateCode.sol\":10947:10969  index < codeFEs.length */\n      0xff\n      dup2\n      and\n      dup6\n      gt\n        /* \"GenerateCode.sol\":10925:11363  for (uint8 index = 0; index < codeFEs.length; index++) {... */\n      iszero\n      tag_171\n      jumpi\n        /* \"GenerateCode.sol\":11032:11039  codeFEs */\n      dup6\n      dup6\n        /* \"GenerateCode.sol\":11040:11045  index */\n      dup3\n        /* \"GenerateCode.sol\":11032:11046  codeFEs[index] */\n      0xff\n      and\n      dup2\n      dup2\n      lt\n      tag_174\n      jumpi\n      tag_174\n      tag_175\n      jump\t// in\n    tag_174:\n      swap1\n      pop\n      0x20\n      mul\n      dup2\n      add\n      swap1\n      tag_176\n      swap2\n      swap1\n      tag_177\n      jump\t// in\n    tag_176:\n        /* \"GenerateCode.sol\":11015:11047  abi.encodePacked(codeFEs[index]) */\n      add(0x20, mload(0x40))\n      tag_178\n      swap3\n      swap2\n      swap1\n      tag_179\n      jump\t// in\n    tag_178:\n      0x40\n      dup1\n      mload\n      dup1\n      dup4\n      sub\n      not(0x1f)\n      add\n      dup2\n      mstore\n      swap2\n      dup2\n      mstore\n        /* \"GenerateCode.sol\":11005:11048  keccak256(abi.encodePacked(codeFEs[index])) */\n      dup2\n      mload\n        /* \"GenerateCode.sol\":11015:11047  abi.encodePacked(codeFEs[index]) */\n      0x20\n        /* \"GenerateCode.sol\":11005:11048  keccak256(abi.encodePacked(codeFEs[index])) */\n      swap3\n      dup4\n      add\n      keccak256\n        /* \"GenerateCode.sol\":11097:11119  mPackageInfo[codeHash] */\n      0x00\n      dup2\n      dup2\n      mstore\n        /* \"GenerateCode.sol\":11097:11109  mPackageInfo */\n      0x6a\n        /* \"GenerateCode.sol\":11097:11119  mPackageInfo[codeHash] */\n      swap1\n      swap4\n      mstore\n      swap2\n      keccak256\n        /* \"GenerateCode.sol\":11097:11125  mPackageInfo[codeHash].owner */\n      sload\n        /* \"GenerateCode.sol\":11005:11048  keccak256(abi.encodePacked(codeFEs[index])) */\n      swap1\n      swap3\n      pop\n      sub(shl(0xa0, 0x01), 0x01)\n        /* \"GenerateCode.sol\":11097:11125  mPackageInfo[codeHash].owner */\n      and\n        /* \"GenerateCode.sol\":11083:11093  msg.sender */\n      caller\n        /* \"GenerateCode.sol\":11083:11125  msg.sender != mPackageInfo[codeHash].owner */\n      eq\n      iszero\n      dup1\n        /* \"GenerateCode.sol\":11083:11197  msg.sender != mPackageInfo[codeHash].owner ||... */\n      tag_180\n      jumpi\n      pop\n        /* \"GenerateCode.sol\":11178:11197  PackageStatus.Block */\n      0x00\n        /* \"GenerateCode.sol\":11145:11167  mPackageInfo[codeHash] */\n      dup1\n      dup4\n      dup2\n      mstore\n        /* \"GenerateCode.sol\":11145:11157  mPackageInfo */\n      0x6a\n        /* \"GenerateCode.sol\":11145:11167  mPackageInfo[codeHash] */\n      0x20\n      mstore\n      0x40\n      swap1\n      keccak256\n        /* \"GenerateCode.sol\":11145:11174  mPackageInfo[codeHash].status */\n      0x07\n      add\n      sload\n      shl(0xa0, 0x01)\n      swap1\n      div\n      0xff\n      and\n        /* \"GenerateCode.sol\":11145:11197  mPackageInfo[codeHash].status == PackageStatus.Block */\n      0x03\n      dup2\n      gt\n      iszero\n      tag_185\n      jumpi\n      tag_185\n      tag_183\n      jump\t// in\n    tag_185:\n      eq\n        /* \"GenerateCode.sol\":11083:11197  msg.sender != mPackageInfo[codeHash].owner ||... */\n    tag_180:\n        /* \"GenerateCode.sol\":11230:11238  continue */\n      tag_172\n        /* \"GenerateCode.sol\":11062:11253  if (... */\n      jumpi\n        /* \"GenerateCode.sol\":11298:11317  PackageStatus.Block */\n      0x00\n        /* \"GenerateCode.sol\":11266:11288  mPackageInfo[codeHash] */\n      dup3\n      dup2\n      mstore\n        /* \"GenerateCode.sol\":11266:11278  mPackageInfo */\n      0x6a\n        /* \"GenerateCode.sol\":11266:11288  mPackageInfo[codeHash] */\n      0x20\n      mstore\n      0x40\n      swap1\n      keccak256\n        /* \"GenerateCode.sol\":11266:11295  mPackageInfo[codeHash].status */\n      0x07\n      add\n        /* \"GenerateCode.sol\":11266:11317  mPackageInfo[codeHash].status = PackageStatus.Block */\n      dup1\n      sload\n      not(shl(0xa0, 0xff))\n      and\n      swap1\n      sstore\n        /* \"GenerateCode.sol\":11331:11345  success[index] */\n      dup3\n      mload\n      0x01\n      swap1\n        /* \"GenerateCode.sol\":11331:11338  success */\n      dup5\n      swap1\n        /* \"GenerateCode.sol\":11331:11345  success[index] */\n      0xff\n      dup5\n      and\n      swap1\n      dup2\n      lt\n      tag_190\n      jumpi\n      tag_190\n      tag_175\n      jump\t// in\n    tag_190:\n        /* \"GenerateCode.sol\":11331:11352  success[index] = true */\n      swap2\n      iszero\n      iszero\n        /* \"GenerateCode.sol\":11331:11345  success[index] */\n      0x20\n      swap3\n      dup4\n      mul\n      swap2\n      swap1\n      swap2\n      add\n      swap1\n      swap2\n      add\n        /* \"GenerateCode.sol\":11331:11352  success[index] = true */\n      mstore\n        /* \"GenerateCode.sol\":10925:11363  for (uint8 index = 0; index < codeFEs.length; index++) {... */\n    tag_172:\n        /* \"GenerateCode.sol\":10971:10978  index++ */\n      dup1\n      tag_191\n      dup2\n      tag_192\n      jump\t// in\n    tag_191:\n      swap2\n      pop\n      pop\n        /* \"GenerateCode.sol\":10925:11363  for (uint8 index = 0; index < codeFEs.length; index++) {... */\n      jump(tag_170)\n    tag_171:\n      pop\n        /* \"GenerateCode.sol\":11379:11386  success */\n      swap1\n      swap2\n      pop\n      pop\n        /* \"GenerateCode.sol\":10732:11393  function BlockManyCode(... */\n    tag_165:\n      swap3\n      swap2\n      pop\n      pop\n      jump\t// out\n        /* \"GenerateCode.sol\":11546:11691  function getCodeInfoSmC(... */\n    tag_79:\n        /* \"GenerateCode.sol\":11625:11643  PackageInfo memory */\n      tag_193\n      tag_194\n      jump\t// in\n    tag_193:\n        /* \"GenerateCode.sol\":11662:11684  mPackageInfo[codeHash] */\n      0x00\n      dup3\n      dup2\n      mstore\n        /* \"GenerateCode.sol\":11662:11674  mPackageInfo */\n      0x6a\n        /* \"GenerateCode.sol\":11662:11684  mPackageInfo[codeHash] */\n      0x20\n      swap1\n      dup2\n      mstore\n      0x40\n      swap2\n      dup3\n      swap1\n      keccak256\n        /* \"GenerateCode.sol\":11655:11684  return mPackageInfo[codeHash] */\n      dup3\n      mload\n      0x01e0\n      dup2\n      add\n      dup5\n      mstore\n      dup2\n      sload\n      sub(shl(0xa0, 0x01), 0x01)\n      swap1\n      dup2\n      and\n      dup3\n      mstore\n      0x01\n      dup4\n      add\n      sload\n      swap4\n      dup3\n      add\n      swap4\n      swap1\n      swap4\n      mstore\n      0x02\n      dup3\n      add\n      sload\n      swap4\n      dup2\n      add\n      swap4\n      swap1\n      swap4\n      mstore\n      0x03\n      dup1\n      dup3\n      add\n      sload\n      0x60\n      dup6\n      add\n      mstore\n      0x04\n      dup3\n      add\n      sload\n      0x80\n      dup6\n      add\n      mstore\n      0x05\n      dup3\n      add\n      sload\n      0xa0\n      dup6\n      add\n      mstore\n      0x06\n      dup3\n      add\n      sload\n      0xc0\n      dup6\n      add\n      mstore\n      0x07\n      dup3\n      add\n      sload\n      swap3\n      dup4\n      and\n      0xe0\n      dup6\n      add\n      mstore\n        /* \"GenerateCode.sol\":11662:11684  mPackageInfo[codeHash] */\n      swap1\n      swap2\n        /* \"GenerateCode.sol\":11655:11684  return mPackageInfo[codeHash] */\n      0x0100\n      dup5\n      add\n      swap2\n      shl(0xa0, 0x01)\n      swap1\n      swap2\n      div\n      0xff\n      and\n      swap1\n      dup2\n      gt\n      iszero\n      tag_197\n      jumpi\n      tag_197\n      tag_183\n      jump\t// in\n    tag_197:\n      0x03\n      dup2\n      gt\n      iszero\n      tag_199\n      jumpi\n      tag_199\n      tag_183\n      jump\t// in\n    tag_199:\n      dup2\n      mstore\n      0x20\n      add\n      0x08\n      dup3\n      add\n      dup1\n      sload\n      tag_200\n      swap1\n      tag_201\n      jump\t// in\n    tag_200:\n      dup1\n      0x1f\n      add\n      0x20\n      dup1\n      swap2\n      div\n      mul\n      0x20\n      add\n      mload(0x40)\n      swap1\n      dup2\n      add\n      0x40\n      mstore\n      dup1\n      swap3\n      swap2\n      swap1\n      dup2\n      dup2\n      mstore\n      0x20\n      add\n      dup3\n      dup1\n      sload\n      tag_202\n      swap1\n      tag_201\n      jump\t// in\n    tag_202:\n      dup1\n      iszero\n      tag_203\n      jumpi\n      dup1\n      0x1f\n      lt\n      tag_204\n      jumpi\n      0x0100\n      dup1\n      dup4\n      sload\n      div\n      mul\n      dup4\n      mstore\n      swap2\n      0x20\n      add\n      swap2\n      jump(tag_203)\n    tag_204:\n      dup3\n      add\n      swap2\n      swap1\n      0x00\n      mstore\n      keccak256(0x00, 0x20)\n      swap1\n    tag_205:\n      dup2\n      sload\n      dup2\n      mstore\n      swap1\n      0x01\n      add\n      swap1\n      0x20\n      add\n      dup1\n      dup4\n      gt\n      tag_205\n      jumpi\n      dup3\n      swap1\n      sub\n      0x1f\n      and\n      dup3\n      add\n      swap2\n    tag_203:\n      pop\n      pop\n      pop\n      pop\n      pop\n      dup2\n      mstore\n      0x20\n      add\n      0x09\n      dup3\n      add\n      sload\n      dup2\n      mstore\n      0x20\n      add\n      0x0a\n      dup3\n      add\n      sload\n      dup2\n      mstore\n      0x20\n      add\n      0x0b\n      dup3\n      add\n      sload\n      dup2\n      mstore\n      0x20\n      add\n      0x0c\n      dup3\n      add\n      sload\n      dup2\n      mstore\n      0x20\n      add\n      0x0d\n      dup3\n      add\n      sload\n      dup2\n      mstore\n      pop\n      pop\n      swap1\n      pop\n        /* \"GenerateCode.sol\":11546:11691  function getCodeInfoSmC(... */\n      swap2\n      swap1\n      pop\n      jump\t// out\n        /* \"@openzeppelin/contracts-upgradeable@v4.9.0/access/OwnableUpgradeable.sol\":2064:2165  function renounceOwnership() public virtual onlyOwner {... */\n    tag_83:\n        /* \"@openzeppelin/contracts-upgradeable@v4.9.0/access/OwnableUpgradeable.sol\":1334:1347  _checkOwner() */\n      tag_207\n        /* \"@openzeppelin/contracts-upgradeable@v4.9.0/access/OwnableUpgradeable.sol\":1334:1345  _checkOwner */\n      tag_208\n        /* \"@openzeppelin/contracts-upgradeable@v4.9.0/access/OwnableUpgradeable.sol\":1334:1347  _checkOwner() */\n      jump\t// in\n    tag_207:\n        /* \"@openzeppelin/contracts-upgradeable@v4.9.0/access/OwnableUpgradeable.sol\":2128:2158  _transferOwnership(address(0)) */\n      tag_210\n        /* \"@openzeppelin/contracts-upgradeable@v4.9.0/access/OwnableUpgradeable.sol\":2155:2156  0 */\n      0x00\n        /* \"@openzeppelin/contracts-upgradeable@v4.9.0/access/OwnableUpgradeable.sol\":2128:2146  _transferOwnership */\n      tag_211\n        /* \"@openzeppelin/contracts-upgradeable@v4.9.0/access/OwnableUpgradeable.sol\":2128:2158  _transferOwnership(address(0)) */\n      jump\t// in\n    tag_210:\n        /* \"@openzeppelin/contracts-upgradeable@v4.9.0/access/OwnableUpgradeable.sol\":2064:2165  function renounceOwnership() public virtual onlyOwner {... */\n      jump\t// out\n        /* \"GenerateCode.sol\":12339:13440  function GetMyCode(uint32 _page) ... */\n    tag_87:\n        /* \"GenerateCode.sol\":12483:12486  nft */\n      sload(0x71)\n        /* \"GenerateCode.sol\":12478:12509  INFT(nft).balanceOf(msg.sender) */\n      mload(0x40)\n      shl(0xe0, 0x70a08231)\n      dup2\n      mstore\n        /* \"GenerateCode.sol\":12498:12508  msg.sender */\n      caller\n        /* \"GenerateCode.sol\":12478:12509  INFT(nft).balanceOf(msg.sender) */\n      0x04\n      dup3\n      add\n        /* \"#utility.yul\":648:699   */\n      mstore\n        /* \"GenerateCode.sol\":12409:12420  bool isMore */\n      0x00\n      swap2\n        /* \"GenerateCode.sol\":12422:12452  PackageInfo[] memory arrayPack */\n      0x60\n      swap2\n        /* \"GenerateCode.sol\":12409:12420  bool isMore */\n      dup4\n      swap2\n      sub(shl(0xa0, 0x01), 0x01)\n        /* \"GenerateCode.sol\":12483:12486  nft */\n      and\n      swap1\n        /* \"GenerateCode.sol\":12478:12497  INFT(nft).balanceOf */\n      0x70a08231\n      swap1\n        /* \"#utility.yul\":621:639   */\n      0x24\n      add\n        /* \"GenerateCode.sol\":12478:12509  INFT(nft).balanceOf(msg.sender) */\n      0x20\n      mload(0x40)\n      dup1\n      dup4\n      sub\n      dup2\n      dup7\n      gas\n      staticcall\n      iszero\n      dup1\n      iszero\n      tag_215\n      jumpi\n      returndatasize\n      0x00\n      dup1\n      returndatacopy\n      revert(0x00, returndatasize)\n    tag_215:\n      pop\n      pop\n      pop\n      pop\n      mload(0x40)\n      returndatasize\n      not(0x1f)\n      0x1f\n      dup3\n      add\n      and\n      dup3\n      add\n      dup1\n      0x40\n      mstore\n      pop\n      dup2\n      add\n      swap1\n      tag_216\n      swap2\n      swap1\n      tag_217\n      jump\t// in\n    tag_216:\n        /* \"GenerateCode.sol\":12552:12561  returnRIP */\n      sload(0x69)\n        /* \"GenerateCode.sol\":12464:12509  uint length = INFT(nft).balanceOf(msg.sender) */\n      swap1\n      swap2\n      pop\n        /* \"GenerateCode.sol\":12543:12561  length + returnRIP */\n      tag_218\n      swap1\n        /* \"GenerateCode.sol\":12552:12561  returnRIP */\n      0xffffffff\n      and\n        /* \"GenerateCode.sol\":12464:12509  uint length = INFT(nft).balanceOf(msg.sender) */\n      dup3\n        /* \"GenerateCode.sol\":12543:12561  length + returnRIP */\n      tag_219\n      jump\t// in\n    tag_218:\n        /* \"GenerateCode.sol\":12531:12540  returnRIP */\n      sload(0x69)\n        /* \"GenerateCode.sol\":12523:12540  _page * returnRIP */\n      tag_220\n      swap1\n        /* \"GenerateCode.sol\":12531:12540  returnRIP */\n      0xffffffff\n      and\n        /* \"GenerateCode.sol\":12523:12528  _page */\n      dup7\n        /* \"GenerateCode.sol\":12523:12540  _page * returnRIP */\n      tag_221\n      jump\t// in\n    tag_220:\n        /* \"GenerateCode.sol\":12523:12561  _page * returnRIP > length + returnRIP */\n      0xffffffff\n      and\n      gt\n        /* \"GenerateCode.sol\":12519:13434  if (_page * returnRIP > length + returnRIP) { ... */\n      iszero\n      tag_222\n      jumpi\n        /* \"GenerateCode.sol\":12585:12590  false */\n      0x00\n        /* \"GenerateCode.sol\":12578:12602  return(false, arrayPack) */\n      swap3\n      pop\n      pop\n        /* \"GenerateCode.sol\":12339:13440  function GetMyCode(uint32 _page) ... */\n      swap2\n      pop\n      swap2\n      jump\t// out\n        /* \"GenerateCode.sol\":12519:13434  if (_page * returnRIP > length + returnRIP) { ... */\n    tag_222:\n        /* \"GenerateCode.sol\":12643:12652  returnRIP */\n      sload(0x69)\n        /* \"GenerateCode.sol\":12655:12661  length */\n      dup2\n      swap1\n        /* \"GenerateCode.sol\":12637:12652  _page*returnRIP */\n      tag_224\n      swap1\n        /* \"GenerateCode.sol\":12643:12652  returnRIP */\n      0xffffffff\n      and\n        /* \"GenerateCode.sol\":12637:12642  _page */\n      dup7\n        /* \"GenerateCode.sol\":12637:12652  _page*returnRIP */\n      tag_221\n      jump\t// in\n    tag_224:\n        /* \"GenerateCode.sol\":12637:12661  _page*returnRIP < length */\n      0xffffffff\n      and\n      lt\n        /* \"GenerateCode.sol\":12633:13424  if (_page*returnRIP < length ) {... */\n      iszero\n      tag_225\n      jumpi\n        /* \"GenerateCode.sol\":12743:12752  returnRIP */\n      sload(0x69)\n        /* \"GenerateCode.sol\":12691:12695  true */\n      0x01\n      swap4\n      pop\n        /* \"GenerateCode.sol\":12743:12752  returnRIP */\n      0xffffffff\n      and\n        /* \"GenerateCode.sol\":12725:12753  new PackageInfo[](returnRIP) */\n      0xffffffffffffffff\n      dup2\n      gt\n      iszero\n      tag_227\n      jumpi\n      tag_227\n      tag_168\n      jump\t// in\n    tag_227:\n      mload(0x40)\n      swap1\n      dup1\n      dup3\n      mstore\n      dup1\n      0x20\n      mul\n      0x20\n      add\n      dup3\n      add\n      0x40\n      mstore\n      dup1\n      iszero\n      tag_228\n      jumpi\n      dup2\n      0x20\n      add\n    tag_229:\n      tag_230\n      tag_194\n      jump\t// in\n    tag_230:\n      dup2\n      mstore\n      0x20\n      add\n      swap1\n      0x01\n      swap1\n      sub\n      swap1\n      dup2\n      tag_229\n      jumpi\n      swap1\n      pop\n    tag_228:\n      pop\n        /* \"GenerateCode.sol\":12713:12753  arrayPack = new PackageInfo[](returnRIP) */\n      swap2\n      pop\n        /* \"GenerateCode.sol\":12776:12782  uint i */\n      0x00\n        /* \"GenerateCode.sol\":12771:12970  for (uint i = 0; i < arrayPack.length; i++) {... */\n    tag_231:\n        /* \"GenerateCode.sol\":12792:12801  arrayPack */\n      dup3\n        /* \"GenerateCode.sol\":12792:12808  arrayPack.length */\n      mload\n        /* \"GenerateCode.sol\":12788:12789  i */\n      dup2\n        /* \"GenerateCode.sol\":12788:12808  i < arrayPack.length */\n      lt\n        /* \"GenerateCode.sol\":12771:12970  for (uint i = 0; i < arrayPack.length; i++) {... */\n      iszero\n      tag_232\n      jumpi\n        /* \"GenerateCode.sol\":12882:12885  nft */\n      sload(0x71)\n        /* \"GenerateCode.sol\":12936:12945  returnRIP */\n      sload(0x69)\n        /* \"GenerateCode.sol\":12856:12868  mPackageInfo */\n      0x6a\n      swap2\n        /* \"GenerateCode.sol\":12856:12951  mPackageInfo[bytes32(INFT(nft).tokenOfOwnerByIndex(msg.sender,_page*returnRIP - returnRIP +i))] */\n      0x00\n      swap2\n      sub(shl(0xa0, 0x01), 0x01)\n        /* \"GenerateCode.sol\":12882:12885  nft */\n      swap1\n      swap2\n      and\n      swap1\n        /* \"GenerateCode.sol\":12877:12906  INFT(nft).tokenOfOwnerByIndex */\n      0x2f745c59\n      swap1\n        /* \"GenerateCode.sol\":12907:12917  msg.sender */\n      caller\n      swap1\n        /* \"GenerateCode.sol\":12947:12948  i */\n      dup7\n      swap1\n        /* \"GenerateCode.sol\":12936:12945  returnRIP */\n      0xffffffff\n      and\n        /* \"GenerateCode.sol\":12918:12933  _page*returnRIP */\n      tag_234\n        /* \"GenerateCode.sol\":12936:12945  returnRIP */\n      dup2\n        /* \"GenerateCode.sol\":12918:12923  _page */\n      dup14\n        /* \"GenerateCode.sol\":12918:12933  _page*returnRIP */\n      tag_221\n      jump\t// in\n    tag_234:\n        /* \"GenerateCode.sol\":12918:12945  _page*returnRIP - returnRIP */\n      tag_235\n      swap2\n      swap1\n      tag_236\n      jump\t// in\n    tag_235:\n        /* \"GenerateCode.sol\":12918:12948  _page*returnRIP - returnRIP +i */\n      0xffffffff\n      and\n      tag_237\n      swap2\n      swap1\n      tag_219\n      jump\t// in\n    tag_237:\n        /* \"GenerateCode.sol\":12877:12949  INFT(nft).tokenOfOwnerByIndex(msg.sender,_page*returnRIP - returnRIP +i) */\n      mload(0x40)\n      not(sub(shl(0xe0, 0x01), 0x01))\n      0xe0\n      dup6\n      swap1\n      shl\n      and\n      dup2\n      mstore\n      sub(shl(0xa0, 0x01), 0x01)\n        /* \"#utility.yul\":13151:13183   */\n      swap1\n      swap3\n      and\n        /* \"GenerateCode.sol\":12877:12949  INFT(nft).tokenOfOwnerByIndex(msg.sender,_page*returnRIP - returnRIP +i) */\n      0x04\n      dup4\n      add\n        /* \"#utility.yul\":13133:13184   */\n      mstore\n        /* \"#utility.yul\":13200:13218   */\n      0x24\n      dup3\n      add\n        /* \"#utility.yul\":13193:13227   */\n      mstore\n        /* \"#utility.yul\":13106:13124   */\n      0x44\n      add\n        /* \"GenerateCode.sol\":12877:12949  INFT(nft).tokenOfOwnerByIndex(msg.sender,_page*returnRIP - returnRIP +i) */\n      0x20\n      mload(0x40)\n      dup1\n      dup4\n      sub\n      dup2\n      dup7\n      gas\n      staticcall\n      iszero\n      dup1\n      iszero\n      tag_241\n      jumpi\n      returndatasize\n      0x00\n      dup1\n      returndatacopy\n      revert(0x00, returndatasize)\n    tag_241:\n      pop\n      pop\n      pop\n      pop\n      mload(0x40)\n      returndatasize\n      not(0x1f)\n      0x1f\n      dup3\n      add\n      and\n      dup3\n      add\n      dup1\n      0x40\n      mstore\n      pop\n      dup2\n      add\n      swap1\n      tag_242\n      swap2\n      swap1\n      tag_217\n      jump\t// in\n    tag_242:\n        /* \"GenerateCode.sol\":12856:12951  mPackageInfo[bytes32(INFT(nft).tokenOfOwnerByIndex(msg.sender,_page*returnRIP - returnRIP +i))] */\n      dup2\n      mstore\n      0x20\n      dup1\n      dup3\n      add\n      swap3\n      swap1\n      swap3\n      mstore\n      0x40\n      swap1\n      dup2\n      add\n      0x00\n      keccak256\n        /* \"GenerateCode.sol\":12841:12951  arrayPack[i] = mPackageInfo[bytes32(INFT(nft).tokenOfOwnerByIndex(msg.sender,_page*returnRIP - returnRIP +i))] */\n      dup2\n      mload\n      0x01e0\n      dup2\n      add\n      dup4\n      mstore\n      dup2\n      sload\n      sub(shl(0xa0, 0x01), 0x01)\n      swap1\n      dup2\n      and\n      dup3\n      mstore\n      0x01\n      dup4\n      add\n      sload\n      swap5\n      dup3\n      add\n      swap5\n      swap1\n      swap5\n      mstore\n      0x02\n      dup3\n      add\n      sload\n      swap3\n      dup2\n      add\n      swap3\n      swap1\n      swap3\n      mstore\n      0x03\n      dup1\n      dup3\n      add\n      sload\n      0x60\n      dup5\n      add\n      mstore\n      0x04\n      dup3\n      add\n      sload\n      0x80\n      dup5\n      add\n      mstore\n      0x05\n      dup3\n      add\n      sload\n      0xa0\n      dup5\n      add\n      mstore\n      0x06\n      dup3\n      add\n      sload\n      0xc0\n      dup5\n      add\n      mstore\n      0x07\n      dup3\n      add\n      sload\n      swap4\n      dup5\n      and\n      0xe0\n      dup5\n      add\n      mstore\n      swap2\n      swap3\n        /* \"GenerateCode.sol\":12856:12951  mPackageInfo[bytes32(INFT(nft).tokenOfOwnerByIndex(msg.sender,_page*returnRIP - returnRIP +i))] */\n      swap1\n      swap2\n        /* \"GenerateCode.sol\":12841:12951  arrayPack[i] = mPackageInfo[bytes32(INFT(nft).tokenOfOwnerByIndex(msg.sender,_page*returnRIP - returnRIP +i))] */\n      0x0100\n      dup5\n      add\n      swap2\n      shl(0xa0, 0x01)\n      swap1\n      div\n      0xff\n      and\n      swap1\n      dup2\n      gt\n      iszero\n      tag_244\n      jumpi\n      tag_244\n      tag_183\n      jump\t// in\n    tag_244:\n      0x03\n      dup2\n      gt\n      iszero\n      tag_246\n      jumpi\n      tag_246\n      tag_183\n      jump\t// in\n    tag_246:\n      dup2\n      mstore\n      0x20\n      add\n      0x08\n      dup3\n      add\n      dup1\n      sload\n      tag_247\n      swap1\n      tag_201\n      jump\t// in\n    tag_247:\n      dup1\n      0x1f\n      add\n      0x20\n      dup1\n      swap2\n      div\n      mul\n      0x20\n      add\n      mload(0x40)\n      swap1\n      dup2\n      add\n      0x40\n      mstore\n      dup1\n      swap3\n      swap2\n      swap1\n      dup2\n      dup2\n      mstore\n      0x20\n      add\n      dup3\n      dup1\n      sload\n      tag_248\n      swap1\n      tag_201\n      jump\t// in\n    tag_248:\n      dup1\n      iszero\n      tag_249\n      jumpi\n      dup1\n      0x1f\n      lt\n      tag_250\n      jumpi\n      0x0100\n      dup1\n      dup4\n      sload\n      div\n      mul\n      dup4\n      mstore\n      swap2\n      0x20\n      add\n      swap2\n      jump(tag_249)\n    tag_250:\n      dup3\n      add\n      swap2\n      swap1\n      0x00\n      mstore\n      keccak256(0x00, 0x20)\n      swap1\n    tag_251:\n      dup2\n      sload\n      dup2\n      mstore\n      swap1\n      0x01\n      add\n      swap1\n      0x20\n      add\n      dup1\n      dup4\n      gt\n      tag_251\n      jumpi\n      dup3\n      swap1\n      sub\n      0x1f\n      and\n      dup3\n      add\n      swap2\n    tag_249:\n      pop\n      pop\n      pop\n      pop\n      pop\n      dup2\n      mstore\n      0x20\n      add\n      0x09\n      dup3\n      add\n      sload\n      dup2\n      mstore\n      0x20\n      add\n      0x0a\n      dup3\n      add\n      sload\n      dup2\n      mstore\n      0x20\n      add\n      0x0b\n      dup3\n      add\n      sload\n      dup2\n      mstore\n      0x20\n      add\n      0x0c\n      dup3\n      add\n      sload\n      dup2\n      mstore\n      0x20\n      add\n      0x0d\n      dup3\n      add\n      sload\n      dup2\n      mstore\n      pop\n      pop\n        /* \"GenerateCode.sol\":12841:12850  arrayPack */\n      dup4\n        /* \"GenerateCode.sol\":12851:12852  i */\n      dup3\n        /* \"GenerateCode.sol\":12841:12853  arrayPack[i] */\n      dup2\n      mload\n      dup2\n      lt\n      tag_253\n      jumpi\n      tag_253\n      tag_175\n      jump\t// in\n    tag_253:\n      0x20\n      mul\n      0x20\n      add\n      add\n        /* \"GenerateCode.sol\":12841:12951  arrayPack[i] = mPackageInfo[bytes32(INFT(nft).tokenOfOwnerByIndex(msg.sender,_page*returnRIP - returnRIP +i))] */\n      dup2\n      swap1\n      mstore\n      pop\n        /* \"GenerateCode.sol\":12810:12813  i++ */\n      dup1\n      dup1\n      tag_254\n      swap1\n      tag_255\n      jump\t// in\n    tag_254:\n      swap2\n      pop\n      pop\n        /* \"GenerateCode.sol\":12771:12970  for (uint i = 0; i < arrayPack.length; i++) {... */\n      jump(tag_231)\n    tag_232:\n      pop\n        /* \"GenerateCode.sol\":12987:13013  return (isMore, arrayPack) */\n      pop\n        /* \"GenerateCode.sol\":12339:13440  function GetMyCode(uint32 _page) ... */\n      swap2\n      pop\n      swap2\n      jump\t// out\n        /* \"GenerateCode.sol\":12633:13424  if (_page*returnRIP < length ) {... */\n    tag_225:\n        /* \"GenerateCode.sol\":13132:13141  returnRIP */\n      sload(0x69)\n        /* \"GenerateCode.sol\":13061:13066  false */\n      0x00\n      swap4\n      pop\n        /* \"GenerateCode.sol\":13144:13150  length */\n      dup2\n      swap1\n        /* \"GenerateCode.sol\":13126:13141  _page*returnRIP */\n      tag_257\n      swap1\n        /* \"GenerateCode.sol\":13132:13141  returnRIP */\n      0xffffffff\n      and\n        /* \"GenerateCode.sol\":13126:13131  _page */\n      dup7\n        /* \"GenerateCode.sol\":13126:13141  _page*returnRIP */\n      tag_221\n      jump\t// in\n    tag_257:\n        /* \"GenerateCode.sol\":13126:13150  _page*returnRIP - length */\n      0xffffffff\n      and\n      tag_258\n      swap2\n      swap1\n      tag_259\n      jump\t// in\n    tag_258:\n        /* \"GenerateCode.sol\":13114:13123  returnRIP */\n      sload(0x69)\n        /* \"GenerateCode.sol\":13114:13151  returnRIP -(_page*returnRIP - length) */\n      tag_260\n      swap2\n      swap1\n        /* \"GenerateCode.sol\":13114:13123  returnRIP */\n      0xffffffff\n      and\n        /* \"GenerateCode.sol\":13114:13151  returnRIP -(_page*returnRIP - length) */\n      tag_259\n      jump\t// in\n    tag_260:\n        /* \"GenerateCode.sol\":13096:13152  new PackageInfo[](returnRIP -(_page*returnRIP - length)) */\n      0xffffffffffffffff\n      dup2\n      gt\n      iszero\n      tag_262\n      jumpi\n      tag_262\n      tag_168\n      jump\t// in\n    tag_262:\n      mload(0x40)\n      swap1\n      dup1\n      dup3\n      mstore\n      dup1\n      0x20\n      mul\n      0x20\n      add\n      dup3\n      add\n      0x40\n      mstore\n      dup1\n      iszero\n      tag_263\n      jumpi\n      dup2\n      0x20\n      add\n    tag_264:\n      tag_265\n      tag_194\n      jump\t// in\n    tag_265:\n      dup2\n      mstore\n      0x20\n      add\n      swap1\n      0x01\n      swap1\n      sub\n      swap1\n      dup2\n      tag_264\n      jumpi\n      swap1\n      pop\n    tag_263:\n      pop\n        /* \"GenerateCode.sol\":13084:13152  arrayPack = new PackageInfo[](returnRIP -(_page*returnRIP - length)) */\n      swap2\n      pop\n        /* \"GenerateCode.sol\":13176:13182  uint i */\n      0x00\n        /* \"GenerateCode.sol\":13171:13366  for (uint i = 0; i < arrayPack.length; i++) {... */\n    tag_266:\n        /* \"GenerateCode.sol\":13192:13201  arrayPack */\n      dup3\n        /* \"GenerateCode.sol\":13192:13208  arrayPack.length */\n      mload\n        /* \"GenerateCode.sol\":13188:13189  i */\n      dup2\n        /* \"GenerateCode.sol\":13188:13208  i < arrayPack.length */\n      lt\n        /* \"GenerateCode.sol\":13171:13366  for (uint i = 0; i < arrayPack.length; i++) {... */\n      iszero\n      tag_232\n      jumpi\n        /* \"GenerateCode.sol\":13278:13281  nft */\n      sload(0x71)\n        /* \"GenerateCode.sol\":13332:13341  returnRIP */\n      sload(0x69)\n        /* \"GenerateCode.sol\":13252:13264  mPackageInfo */\n      0x6a\n      swap2\n        /* \"GenerateCode.sol\":13252:13347  mPackageInfo[bytes32(INFT(nft).tokenOfOwnerByIndex(msg.sender,_page*returnRIP - returnRIP +i))] */\n      0x00\n      swap2\n      sub(shl(0xa0, 0x01), 0x01)\n        /* \"GenerateCode.sol\":13278:13281  nft */\n      swap1\n      swap2\n      and\n      swap1\n        /* \"GenerateCode.sol\":13273:13302  INFT(nft).tokenOfOwnerByIndex */\n      0x2f745c59\n      swap1\n        /* \"GenerateCode.sol\":13303:13313  msg.sender */\n      caller\n      swap1\n        /* \"GenerateCode.sol\":13343:13344  i */\n      dup7\n      swap1\n        /* \"GenerateCode.sol\":13332:13341  returnRIP */\n      0xffffffff\n      and\n        /* \"GenerateCode.sol\":13314:13329  _page*returnRIP */\n      tag_269\n        /* \"GenerateCode.sol\":13332:13341  returnRIP */\n      dup2\n        /* \"GenerateCode.sol\":13314:13319  _page */\n      dup14\n        /* \"GenerateCode.sol\":13314:13329  _page*returnRIP */\n      tag_221\n      jump\t// in\n    tag_269:\n        /* \"GenerateCode.sol\":13314:13341  _page*returnRIP - returnRIP */\n      tag_270\n      swap2\n      swap1\n      tag_236\n      jump\t// in\n    tag_270:\n        /* \"GenerateCode.sol\":13314:13344  _page*returnRIP - returnRIP +i */\n      0xffffffff\n      and\n      tag_271\n      swap2\n      swap1\n      tag_219\n      jump\t// in\n    tag_271:\n        /* \"GenerateCode.sol\":13273:13345  INFT(nft).tokenOfOwnerByIndex(msg.sender,_page*returnRIP - returnRIP +i) */\n      mload(0x40)\n      not(sub(shl(0xe0, 0x01), 0x01))\n      0xe0\n      dup6\n      swap1\n      shl\n      and\n      dup2\n      mstore\n      sub(shl(0xa0, 0x01), 0x01)\n        /* \"#utility.yul\":13151:13183   */\n      swap1\n      swap3\n      and\n        /* \"GenerateCode.sol\":13273:13345  INFT(nft).tokenOfOwnerByIndex(msg.sender,_page*returnRIP - returnRIP +i) */\n      0x04\n      dup4\n      add\n        /* \"#utility.yul\":13133:13184   */\n      mstore\n        /* \"#utility.yul\":13200:13218   */\n      0x24\n      dup3\n      add\n        /* \"#utility.yul\":13193:13227   */\n      mstore\n        /* \"#utility.yul\":13106:13124   */\n      0x44\n      add\n        /* \"GenerateCode.sol\":13273:13345  INFT(nft).tokenOfOwnerByIndex(msg.sender,_page*returnRIP - returnRIP +i) */\n      0x20\n      mload(0x40)\n      dup1\n      dup4\n      sub\n      dup2\n      dup7\n      gas\n      staticcall\n      iszero\n      dup1\n      iszero\n      tag_274\n      jumpi\n      returndatasize\n      0x00\n      dup1\n      returndatacopy\n      revert(0x00, returndatasize)\n    tag_274:\n      pop\n      pop\n      pop\n      pop\n      mload(0x40)\n      returndatasize\n      not(0x1f)\n      0x1f\n      dup3\n      add\n      and\n      dup3\n      add\n      dup1\n      0x40\n      mstore\n      pop\n      dup2\n      add\n      swap1\n      tag_275\n      swap2\n      swap1\n      tag_217\n      jump\t// in\n    tag_275:\n        /* \"GenerateCode.sol\":13252:13347  mPackageInfo[bytes32(INFT(nft).tokenOfOwnerByIndex(msg.sender,_page*returnRIP - returnRIP +i))] */\n      dup2\n      mstore\n      0x20\n      dup1\n      dup3\n      add\n      swap3\n      swap1\n      swap3\n      mstore\n      0x40\n      swap1\n      dup2\n      add\n      0x00\n      keccak256\n        /* \"GenerateCode.sol\":13237:13347  arrayPack[i] = mPackageInfo[bytes32(INFT(nft).tokenOfOwnerByIndex(msg.sender,_page*returnRIP - returnRIP +i))] */\n      dup2\n      mload\n      0x01e0\n      dup2\n      add\n      dup4\n      mstore\n      dup2\n      sload\n      sub(shl(0xa0, 0x01), 0x01)\n      swap1\n      dup2\n      and\n      dup3\n      mstore\n      0x01\n      dup4\n      add\n      sload\n      swap5\n      dup3\n      add\n      swap5\n      swap1\n      swap5\n      mstore\n      0x02\n      dup3\n      add\n      sload\n      swap3\n      dup2\n      add\n      swap3\n      swap1\n      swap3\n      mstore\n      0x03\n      dup1\n      dup3\n      add\n      sload\n      0x60\n      dup5\n      add\n      mstore\n      0x04\n      dup3\n      add\n      sload\n      0x80\n      dup5\n      add\n      mstore\n      0x05\n      dup3\n      add\n      sload\n      0xa0\n      dup5\n      add\n      mstore\n      0x06\n      dup3\n      add\n      sload\n      0xc0\n      dup5\n      add\n      mstore\n      0x07\n      dup3\n      add\n      sload\n      swap4\n      dup5\n      and\n      0xe0\n      dup5\n      add\n      mstore\n      swap2\n      swap3\n        /* \"GenerateCode.sol\":13252:13347  mPackageInfo[bytes32(INFT(nft).tokenOfOwnerByIndex(msg.sender,_page*returnRIP - returnRIP +i))] */\n      swap1\n      swap2\n        /* \"GenerateCode.sol\":13237:13347  arrayPack[i] = mPackageInfo[bytes32(INFT(nft).tokenOfOwnerByIndex(msg.sender,_page*returnRIP - returnRIP +i))] */\n      0x0100\n      dup5\n      add\n      swap2\n      shl(0xa0, 0x01)\n      swap1\n      div\n      0xff\n      and\n      swap1\n      dup2\n      gt\n      iszero\n      tag_277\n      jumpi\n      tag_277\n      tag_183\n      jump\t// in\n    tag_277:\n      0x03\n      dup2\n      gt\n      iszero\n      tag_279\n      jumpi\n      tag_279\n      tag_183\n      jump\t// in\n    tag_279:\n      dup2\n      mstore\n      0x20\n      add\n      0x08\n      dup3\n      add\n      dup1\n      sload\n      tag_280\n      swap1\n      tag_201\n      jump\t// in\n    tag_280:\n      dup1\n      0x1f\n      add\n      0x20\n      dup1\n      swap2\n      div\n      mul\n      0x20\n      add\n      mload(0x40)\n      swap1\n      dup2\n      add\n      0x40\n      mstore\n      dup1\n      swap3\n      swap2\n      swap1\n      dup2\n      dup2\n      mstore\n      0x20\n      add\n      dup3\n      dup1\n      sload\n      tag_281\n      swap1\n      tag_201\n      jump\t// in\n    tag_281:\n      dup1\n      iszero\n      tag_282\n      jumpi\n      dup1\n      0x1f\n      lt\n      tag_283\n      jumpi\n      0x0100\n      dup1\n      dup4\n      sload\n      div\n      mul\n      dup4\n      mstore\n      swap2\n      0x20\n      add\n      swap2\n      jump(tag_282)\n    tag_283:\n      dup3\n      add\n      swap2\n      swap1\n      0x00\n      mstore\n      keccak256(0x00, 0x20)\n      swap1\n    tag_284:\n      dup2\n      sload\n      dup2\n      mstore\n      swap1\n      0x01\n      add\n      swap1\n      0x20\n      add\n      dup1\n      dup4\n      gt\n      tag_284\n      jumpi\n      dup3\n      swap1\n      sub\n      0x1f\n      and\n      dup3\n      add\n      swap2\n    tag_282:\n      pop\n      pop\n      pop\n      pop\n      pop\n      dup2\n      mstore\n      0x20\n      add\n      0x09\n      dup3\n      add\n      sload\n      dup2\n      mstore\n      0x20\n      add\n      0x0a\n      dup3\n      add\n      sload\n      dup2\n      mstore\n      0x20\n      add\n      0x0b\n      dup3\n      add\n      sload\n      dup2\n      mstore\n      0x20\n      add\n      0x0c\n      dup3\n      add\n      sload\n      dup2\n      mstore\n      0x20\n      add\n      0x0d\n      dup3\n      add\n      sload\n      dup2\n      mstore\n      pop\n      pop\n        /* \"GenerateCode.sol\":13237:13246  arrayPack */\n      dup4\n        /* \"GenerateCode.sol\":13247:13248  i */\n      dup3\n        /* \"GenerateCode.sol\":13237:13249  arrayPack[i] */\n      dup2\n      mload\n      dup2\n      lt\n      tag_286\n      jumpi\n      tag_286\n      tag_175\n      jump\t// in\n    tag_286:\n      0x20\n      mul\n      0x20\n      add\n      add\n        /* \"GenerateCode.sol\":13237:13347  arrayPack[i] = mPackageInfo[bytes32(INFT(nft).tokenOfOwnerByIndex(msg.sender,_page*returnRIP - returnRIP +i))] */\n      dup2\n      swap1\n      mstore\n      pop\n        /* \"GenerateCode.sol\":13210:13213  i++ */\n      dup1\n      dup1\n      tag_287\n      swap1\n      tag_255\n      jump\t// in\n    tag_287:\n      swap2\n      pop\n      pop\n        /* \"GenerateCode.sol\":13171:13366  for (uint i = 0; i < arrayPack.length; i++) {... */\n      jump(tag_266)\n        /* \"GenerateCode.sol\":5775:6120  function CalculateCurrentRateBoost() public view returns (uint) {... */\n    tag_91:\n        /* \"GenerateCode.sol\":5833:5837  uint */\n      0x00\n        /* \"GenerateCode.sol\":5849:5873  uint256 currentRateBoost */\n      dup1\n        /* \"GenerateCode.sol\":5876:5885  rateBoost */\n      sload(0x65)\n        /* \"GenerateCode.sol\":5849:5885  uint256 currentRateBoost = rateBoost */\n      swap1\n      pop\n        /* \"GenerateCode.sol\":5895:5905  uint count */\n      0x00\n        /* \"GenerateCode.sol\":5943:5950  60 days */\n      0x4f1a00\n        /* \"GenerateCode.sol\":5927:5939  deployedDate */\n      sload(0x6d)\n        /* \"GenerateCode.sol\":5909:5924  block.timestamp */\n      timestamp\n        /* \"GenerateCode.sol\":5909:5939  block.timestamp - deployedDate */\n      tag_289\n      swap2\n      swap1\n      tag_259\n      jump\t// in\n    tag_289:\n        /* \"GenerateCode.sol\":5908:5950  (block.timestamp - deployedDate) / 60 days */\n      tag_290\n      swap2\n      swap1\n      tag_291\n      jump\t// in\n    tag_290:\n        /* \"GenerateCode.sol\":5895:5950  uint count = (block.timestamp - deployedDate) / 60 days */\n      swap1\n      pop\n        /* \"GenerateCode.sol\":5965:5977  uint16 index */\n      0x00\n        /* \"GenerateCode.sol\":5960:6081  for (uint16 index = 0; index < count; index++) {... */\n    tag_292:\n        /* \"GenerateCode.sol\":5991:5996  count */\n      dup2\n        /* \"GenerateCode.sol\":5983:5988  index */\n      dup2\n        /* \"GenerateCode.sol\":5983:5996  index < count */\n      0xffff\n      and\n      lt\n        /* \"GenerateCode.sol\":5960:6081  for (uint16 index = 0; index < count; index++) {... */\n      iszero\n      tag_293\n      jumpi\n        /* \"GenerateCode.sol\":6067:6070  100 */\n      0x64\n        /* \"GenerateCode.sol\":6041:6063  currentRateBoost * 125 */\n      tag_295\n        /* \"GenerateCode.sol\":6041:6057  currentRateBoost */\n      dup5\n        /* \"GenerateCode.sol\":6060:6063  125 */\n      0x7d\n        /* \"GenerateCode.sol\":6041:6063  currentRateBoost * 125 */\n      tag_296\n      jump\t// in\n    tag_295:\n        /* \"GenerateCode.sol\":6040:6070  (currentRateBoost * 125) / 100 */\n      tag_297\n      swap2\n      swap1\n      tag_291\n      jump\t// in\n    tag_297:\n        /* \"GenerateCode.sol\":6021:6070  currentRateBoost = (currentRateBoost * 125) / 100 */\n      swap3\n      pop\n        /* \"GenerateCode.sol\":5998:6005  index++ */\n      dup1\n      tag_298\n      dup2\n      tag_299\n      jump\t// in\n    tag_298:\n      swap2\n      pop\n      pop\n        /* \"GenerateCode.sol\":5960:6081  for (uint16 index = 0; index < count; index++) {... */\n      jump(tag_292)\n    tag_293:\n      pop\n        /* \"GenerateCode.sol\":6097:6113  currentRateBoost */\n      swap1\n      swap3\n        /* \"GenerateCode.sol\":5775:6120  function CalculateCurrentRateBoost() public view returns (uint) {... */\n      swap2\n      pop\n      pop\n      jump\t// out\n        /* \"GenerateCode.sol\":14564:14673  function GetTotalMyCode() external view returns(uint) {... */\n    tag_100:\n        /* \"GenerateCode.sol\":14640:14643  nft */\n      sload(0x71)\n        /* \"GenerateCode.sol\":14635:14666  INFT(nft).balanceOf(msg.sender) */\n      mload(0x40)\n      shl(0xe0, 0x70a08231)\n      dup2\n      mstore\n        /* \"GenerateCode.sol\":14655:14665  msg.sender */\n      caller\n        /* \"GenerateCode.sol\":14635:14666  INFT(nft).balanceOf(msg.sender) */\n      0x04\n      dup3\n      add\n        /* \"#utility.yul\":648:699   */\n      mstore\n        /* \"GenerateCode.sol\":14612:14616  uint */\n      0x00\n      swap2\n      sub(shl(0xa0, 0x01), 0x01)\n        /* \"GenerateCode.sol\":14640:14643  nft */\n      and\n      swap1\n        /* \"GenerateCode.sol\":14635:14654  INFT(nft).balanceOf */\n      0x70a08231\n      swap1\n        /* \"#utility.yul\":621:639   */\n      0x24\n      add\n        /* \"GenerateCode.sol\":14635:14666  INFT(nft).balanceOf(msg.sender) */\n      0x20\n      mload(0x40)\n      dup1\n      dup4\n      sub\n      dup2\n      dup7\n      gas\n      staticcall\n      iszero\n      dup1\n      iszero\n      tag_304\n      jumpi\n      returndatasize\n      0x00\n      dup1\n      returndatacopy\n      revert(0x00, returndatasize)\n    tag_304:\n      pop\n      pop\n      pop\n      pop\n      mload(0x40)\n      returndatasize\n      not(0x1f)\n      0x1f\n      dup3\n      add\n      and\n      dup3\n      add\n      dup1\n      0x40\n      mstore\n      pop\n      dup2\n      add\n      swap1\n      tag_305\n      swap2\n      swap1\n      tag_217\n      jump\t// in\n    tag_305:\n        /* \"GenerateCode.sol\":14628:14666  return INFT(nft).balanceOf(msg.sender) */\n      swap1\n      pop\n        /* \"GenerateCode.sol\":14564:14673  function GetTotalMyCode() external view returns(uint) {... */\n      swap1\n      jump\t// out\n        /* \"GenerateCode.sol\":7640:7987  function KGenerateCode(... */\n    tag_105:\n        /* \"GenerateCode.sol\":3852:3860  kventure */\n      sload(0x72)\n        /* \"GenerateCode.sol\":7749:7753  bool */\n      0x00\n      swap1\n      sub(shl(0xa0, 0x01), 0x01)\n        /* \"GenerateCode.sol\":3852:3860  kventure */\n      and\n        /* \"GenerateCode.sol\":3838:3848  msg.sender */\n      caller\n        /* \"GenerateCode.sol\":3838:3860  msg.sender == kventure */\n      eq\n        /* \"GenerateCode.sol\":3830:3888  require(msg.sender == kventure, \"Kventure: Only kventure\") */\n      tag_307\n      jumpi\n      mload(0x40)\n      shl(0xe5, 0x461bcd)\n      dup2\n      mstore\n        /* \"#utility.yul\":14310:14312   */\n      0x20\n        /* \"GenerateCode.sol\":3830:3888  require(msg.sender == kventure, \"Kventure: Only kventure\") */\n      0x04\n      dup3\n      add\n        /* \"#utility.yul\":14292:14313   */\n      mstore\n        /* \"#utility.yul\":14349:14351   */\n      0x17\n        /* \"#utility.yul\":14329:14347   */\n      0x24\n      dup3\n      add\n        /* \"#utility.yul\":14322:14352   */\n      mstore\n        /* \"#utility.yul\":14388:14413   */\n      0x4b76656e747572653a204f6e6c79206b76656e74757265000000000000000000\n        /* \"#utility.yul\":14368:14386   */\n      0x44\n      dup3\n      add\n        /* \"#utility.yul\":14361:14414   */\n      mstore\n        /* \"#utility.yul\":14431:14449   */\n      0x64\n      add\n        /* \"GenerateCode.sol\":3830:3888  require(msg.sender == kventure, \"Kventure: Only kventure\") */\n    tag_308:\n      mload(0x40)\n      dup1\n      swap2\n      sub\n      swap1\n      revert\n    tag_307:\n        /* \"GenerateCode.sol\":7765:7959  _generateCode(... */\n      tag_311\n        /* \"GenerateCode.sol\":7792:7797  buyer */\n      dup4\n        /* \"GenerateCode.sol\":7811:7819  codeHash */\n      dup4\n        /* \"GenerateCode.sol\":7833:7838  false */\n      0x00\n        /* \"GenerateCode.sol\":7852:7862  KCodePrice */\n      sload(0x68)\n        /* \"GenerateCode.sol\":7876:7903  CalculateCurrentRateBoost() */\n      tag_312\n        /* \"GenerateCode.sol\":7876:7901  CalculateCurrentRateBoost */\n      tag_91\n        /* \"GenerateCode.sol\":7876:7903  CalculateCurrentRateBoost() */\n      jump\t// in\n    tag_312:\n        /* \"GenerateCode.sol\":7947:7948  0 */\n      0x00\n        /* \"GenerateCode.sol\":7765:7778  _generateCode */\n      tag_313\n        /* \"GenerateCode.sol\":7765:7959  _generateCode(... */\n      jump\t// in\n    tag_311:\n      pop\n        /* \"GenerateCode.sol\":7976:7980  true */\n      0x01\n      swap4\n        /* \"GenerateCode.sol\":7640:7987  function KGenerateCode(... */\n      swap3\n      pop\n      pop\n      pop\n      jump\t// out\n        /* \"GenerateCode.sol\":4196:4300  function SetMasterPool(address _masterPool) external onlyOwner {... */\n    tag_111:\n        /* \"@openzeppelin/contracts-upgradeable@v4.9.0/access/OwnableUpgradeable.sol\":1334:1347  _checkOwner() */\n      tag_315\n        /* \"@openzeppelin/contracts-upgradeable@v4.9.0/access/OwnableUpgradeable.sol\":1334:1345  _checkOwner */\n      tag_208\n        /* \"@openzeppelin/contracts-upgradeable@v4.9.0/access/OwnableUpgradeable.sol\":1334:1347  _checkOwner() */\n      jump\t// in\n    tag_315:\n        /* \"GenerateCode.sol\":4269:4279  masterPool */\n      0x70\n        /* \"GenerateCode.sol\":4269:4293  masterPool = _masterPool */\n      dup1\n      sload\n      not(sub(shl(0xa0, 0x01), 0x01))\n      and\n      sub(shl(0xa0, 0x01), 0x01)\n      swap3\n      swap1\n      swap3\n      and\n      swap2\n      swap1\n      swap2\n      or\n      swap1\n      sstore\n        /* \"GenerateCode.sol\":4196:4300  function SetMasterPool(address _masterPool) external onlyOwner {... */\n      jump\t// out\n        /* \"GenerateCode.sol\":13446:14558  function GetUserCode(uint32 _page, address _user) ... */\n    tag_118:\n        /* \"GenerateCode.sol\":13542:13553  bool isMore */\n      0x00\n        /* \"GenerateCode.sol\":13555:13585  PackageInfo[] memory arrayPack */\n      0x60\n        /* \"@openzeppelin/contracts-upgradeable@v4.9.0/access/OwnableUpgradeable.sol\":1334:1347  _checkOwner() */\n      tag_318\n        /* \"@openzeppelin/contracts-upgradeable@v4.9.0/access/OwnableUpgradeable.sol\":1334:1345  _checkOwner */\n      tag_208\n        /* \"@openzeppelin/contracts-upgradeable@v4.9.0/access/OwnableUpgradeable.sol\":1334:1347  _checkOwner() */\n      jump\t// in\n    tag_318:\n        /* \"GenerateCode.sol\":13616:13619  nft */\n      sload(0x71)\n        /* \"GenerateCode.sol\":13611:13637  INFT(nft).balanceOf(_user) */\n      mload(0x40)\n      shl(0xe0, 0x70a08231)\n      dup2\n      mstore\n      sub(shl(0xa0, 0x01), 0x01)\n        /* \"#utility.yul\":666:698   */\n      dup6\n      dup2\n      and\n        /* \"GenerateCode.sol\":13611:13637  INFT(nft).balanceOf(_user) */\n      0x04\n      dup4\n      add\n        /* \"#utility.yul\":648:699   */\n      mstore\n        /* \"GenerateCode.sol\":13597:13608  uint length */\n      0x00\n      swap3\n        /* \"GenerateCode.sol\":13616:13619  nft */\n      and\n      swap1\n        /* \"GenerateCode.sol\":13611:13630  INFT(nft).balanceOf */\n      0x70a08231\n      swap1\n        /* \"#utility.yul\":621:639   */\n      0x24\n      add\n        /* \"GenerateCode.sol\":13611:13637  INFT(nft).balanceOf(_user) */\n      0x20\n      mload(0x40)\n      dup1\n      dup4\n      sub\n      dup2\n      dup7\n      gas\n      staticcall\n      iszero\n      dup1\n      iszero\n      tag_322\n      jumpi\n      returndatasize\n      0x00\n      dup1\n      returndatacopy\n      revert(0x00, returndatasize)\n    tag_322:\n      pop\n      pop\n      pop\n      pop\n      mload(0x40)\n      returndatasize\n      not(0x1f)\n      0x1f\n      dup3\n      add\n      and\n      dup3\n      add\n      dup1\n      0x40\n      mstore\n      pop\n      dup2\n      add\n      swap1\n      tag_323\n      swap2\n      swap1\n      tag_217\n      jump\t// in\n    tag_323:\n        /* \"GenerateCode.sol\":13680:13689  returnRIP */\n      sload(0x69)\n        /* \"GenerateCode.sol\":13597:13637  uint length = INFT(nft).balanceOf(_user) */\n      swap1\n      swap2\n      pop\n        /* \"GenerateCode.sol\":13671:13689  length + returnRIP */\n      tag_324\n      swap1\n        /* \"GenerateCode.sol\":13680:13689  returnRIP */\n      0xffffffff\n      and\n        /* \"GenerateCode.sol\":13597:13637  uint length = INFT(nft).balanceOf(_user) */\n      dup3\n        /* \"GenerateCode.sol\":13671:13689  length + returnRIP */\n      tag_219\n      jump\t// in\n    tag_324:\n        /* \"GenerateCode.sol\":13659:13668  returnRIP */\n      sload(0x69)\n        /* \"GenerateCode.sol\":13651:13668  _page * returnRIP */\n      tag_325\n      swap1\n        /* \"GenerateCode.sol\":13659:13668  returnRIP */\n      0xffffffff\n      and\n        /* \"GenerateCode.sol\":13651:13656  _page */\n      dup8\n        /* \"GenerateCode.sol\":13651:13668  _page * returnRIP */\n      tag_221\n      jump\t// in\n    tag_325:\n        /* \"GenerateCode.sol\":13651:13689  _page * returnRIP > length + returnRIP */\n      0xffffffff\n      and\n      gt\n        /* \"GenerateCode.sol\":13647:14552  if (_page * returnRIP > length + returnRIP) { ... */\n      iszero\n      tag_326\n      jumpi\n        /* \"GenerateCode.sol\":13713:13718  false */\n      0x00\n        /* \"GenerateCode.sol\":13706:13730  return(false, arrayPack) */\n      swap3\n      pop\n      pop\n      jump(tag_319)\n        /* \"GenerateCode.sol\":13647:14552  if (_page * returnRIP > length + returnRIP) { ... */\n    tag_326:\n        /* \"GenerateCode.sol\":13771:13780  returnRIP */\n      sload(0x69)\n        /* \"GenerateCode.sol\":13783:13789  length */\n      dup2\n      swap1\n        /* \"GenerateCode.sol\":13765:13780  _page*returnRIP */\n      tag_328\n      swap1\n        /* \"GenerateCode.sol\":13771:13780  returnRIP */\n      0xffffffff\n      and\n        /* \"GenerateCode.sol\":13765:13770  _page */\n      dup8\n        /* \"GenerateCode.sol\":13765:13780  _page*returnRIP */\n      tag_221\n      jump\t// in\n    tag_328:\n        /* \"GenerateCode.sol\":13765:13789  _page*returnRIP < length */\n      0xffffffff\n      and\n      lt\n        /* \"GenerateCode.sol\":13761:14542  if (_page*returnRIP < length ) {... */\n      iszero\n      tag_329\n      jumpi\n        /* \"GenerateCode.sol\":13871:13880  returnRIP */\n      sload(0x69)\n        /* \"GenerateCode.sol\":13819:13823  true */\n      0x01\n      swap4\n      pop\n        /* \"GenerateCode.sol\":13871:13880  returnRIP */\n      0xffffffff\n      and\n        /* \"GenerateCode.sol\":13853:13881  new PackageInfo[](returnRIP) */\n      0xffffffffffffffff\n      dup2\n      gt\n      iszero\n      tag_331\n      jumpi\n      tag_331\n      tag_168\n      jump\t// in\n    tag_331:\n      mload(0x40)\n      swap1\n      dup1\n      dup3\n      mstore\n      dup1\n      0x20\n      mul\n      0x20\n      add\n      dup3\n      add\n      0x40\n      mstore\n      dup1\n      iszero\n      tag_332\n      jumpi\n      dup2\n      0x20\n      add\n    tag_333:\n      tag_334\n      tag_194\n      jump\t// in\n    tag_334:\n      dup2\n      mstore\n      0x20\n      add\n      swap1\n      0x01\n      swap1\n      sub\n      swap1\n      dup2\n      tag_333\n      jumpi\n      swap1\n      pop\n    tag_332:\n      pop\n        /* \"GenerateCode.sol\":13841:13881  arrayPack = new PackageInfo[](returnRIP) */\n      swap2\n      pop\n        /* \"GenerateCode.sol\":13904:13910  uint i */\n      0x00\n        /* \"GenerateCode.sol\":13899:14093  for (uint i = 0; i < arrayPack.length; i++) {... */\n    tag_335:\n        /* \"GenerateCode.sol\":13920:13929  arrayPack */\n      dup3\n        /* \"GenerateCode.sol\":13920:13936  arrayPack.length */\n      mload\n        /* \"GenerateCode.sol\":13916:13917  i */\n      dup2\n        /* \"GenerateCode.sol\":13916:13936  i < arrayPack.length */\n      lt\n        /* \"GenerateCode.sol\":13899:14093  for (uint i = 0; i < arrayPack.length; i++) {... */\n      iszero\n      tag_336\n      jumpi\n        /* \"GenerateCode.sol\":14010:14013  nft */\n      sload(0x71)\n        /* \"GenerateCode.sol\":14059:14068  returnRIP */\n      sload(0x69)\n        /* \"GenerateCode.sol\":13984:13996  mPackageInfo */\n      0x6a\n      swap2\n        /* \"GenerateCode.sol\":13984:14074  mPackageInfo[bytes32(INFT(nft).tokenOfOwnerByIndex(_user,_page*returnRIP - returnRIP +i))] */\n      0x00\n      swap2\n      sub(shl(0xa0, 0x01), 0x01)\n        /* \"GenerateCode.sol\":14010:14013  nft */\n      swap1\n      swap2\n      and\n      swap1\n        /* \"GenerateCode.sol\":14005:14034  INFT(nft).tokenOfOwnerByIndex */\n      0x2f745c59\n      swap1\n        /* \"GenerateCode.sol\":14035:14040  _user */\n      dup10\n      swap1\n        /* \"GenerateCode.sol\":14070:14071  i */\n      dup7\n      swap1\n        /* \"GenerateCode.sol\":14059:14068  returnRIP */\n      0xffffffff\n      and\n        /* \"GenerateCode.sol\":14041:14056  _page*returnRIP */\n      tag_338\n        /* \"GenerateCode.sol\":14059:14068  returnRIP */\n      dup2\n        /* \"GenerateCode.sol\":14041:14046  _page */\n      dup15\n        /* \"GenerateCode.sol\":14041:14056  _page*returnRIP */\n      tag_221\n      jump\t// in\n    tag_338:\n        /* \"GenerateCode.sol\":14041:14068  _page*returnRIP - returnRIP */\n      tag_339\n      swap2\n      swap1\n      tag_236\n      jump\t// in\n    tag_339:\n        /* \"GenerateCode.sol\":14041:14071  _page*returnRIP - returnRIP +i */\n      0xffffffff\n      and\n      tag_340\n      swap2\n      swap1\n      tag_219\n      jump\t// in\n    tag_340:\n        /* \"GenerateCode.sol\":14005:14072  INFT(nft).tokenOfOwnerByIndex(_user,_page*returnRIP - returnRIP +i) */\n      mload(0x40)\n      not(sub(shl(0xe0, 0x01), 0x01))\n      0xe0\n      dup6\n      swap1\n      shl\n      and\n      dup2\n      mstore\n      sub(shl(0xa0, 0x01), 0x01)\n        /* \"#utility.yul\":13151:13183   */\n      swap1\n      swap3\n      and\n        /* \"GenerateCode.sol\":14005:14072  INFT(nft).tokenOfOwnerByIndex(_user,_page*returnRIP - returnRIP +i) */\n      0x04\n      dup4\n      add\n        /* \"#utility.yul\":13133:13184   */\n      mstore\n        /* \"#utility.yul\":13200:13218   */\n      0x24\n      dup3\n      add\n        /* \"#utility.yul\":13193:13227   */\n      mstore\n        /* \"#utility.yul\":13106:13124   */\n      0x44\n      add\n        /* \"GenerateCode.sol\":14005:14072  INFT(nft).tokenOfOwnerByIndex(_user,_page*returnRIP - returnRIP +i) */\n      0x20\n      mload(0x40)\n      dup1\n      dup4\n      sub\n      dup2\n      dup7\n      gas\n      staticcall\n      iszero\n      dup1\n      iszero\n      tag_343\n      jumpi\n      returndatasize\n      0x00\n      dup1\n      returndatacopy\n      revert(0x00, returndatasize)\n    tag_343:\n      pop\n      pop\n      pop\n      pop\n      mload(0x40)\n      returndatasize\n      not(0x1f)\n      0x1f\n      dup3\n      add\n      and\n      dup3\n      add\n      dup1\n      0x40\n      mstore\n      pop\n      dup2\n      add\n      swap1\n      tag_344\n      swap2\n      swap1\n      tag_217\n      jump\t// in\n    tag_344:\n        /* \"GenerateCode.sol\":13984:14074  mPackageInfo[bytes32(INFT(nft).tokenOfOwnerByIndex(_user,_page*returnRIP - returnRIP +i))] */\n      dup2\n      mstore\n      0x20\n      dup1\n      dup3\n      add\n      swap3\n      swap1\n      swap3\n      mstore\n      0x40\n      swap1\n      dup2\n      add\n      0x00\n      keccak256\n        /* \"GenerateCode.sol\":13969:14074  arrayPack[i] = mPackageInfo[bytes32(INFT(nft).tokenOfOwnerByIndex(_user,_page*returnRIP - returnRIP +i))] */\n      dup2\n      mload\n      0x01e0\n      dup2\n      add\n      dup4\n      mstore\n      dup2\n      sload\n      sub(shl(0xa0, 0x01), 0x01)\n      swap1\n      dup2\n      and\n      dup3\n      mstore\n      0x01\n      dup4\n      add\n      sload\n      swap5\n      dup3\n      add\n      swap5\n      swap1\n      swap5\n      mstore\n      0x02\n      dup3\n      add\n      sload\n      swap3\n      dup2\n      add\n      swap3\n      swap1\n      swap3\n      mstore\n      0x03\n      dup1\n      dup3\n      add\n      sload\n      0x60\n      dup5\n      add\n      mstore\n      0x04\n      dup3\n      add\n      sload\n      0x80\n      dup5\n      add\n      mstore\n      0x05\n      dup3\n      add\n      sload\n      0xa0\n      dup5\n      add\n      mstore\n      0x06\n      dup3\n      add\n      sload\n      0xc0\n      dup5\n      add\n      mstore\n      0x07\n      dup3\n      add\n      sload\n      swap4\n      dup5\n      and\n      0xe0\n      dup5\n      add\n      mstore\n      swap2\n      swap3\n        /* \"GenerateCode.sol\":13984:14074  mPackageInfo[bytes32(INFT(nft).tokenOfOwnerByIndex(_user,_page*returnRIP - returnRIP +i))] */\n      swap1\n      swap2\n        /* \"GenerateCode.sol\":13969:14074  arrayPack[i] = mPackageInfo[bytes32(INFT(nft).tokenOfOwnerByIndex(_user,_page*returnRIP - returnRIP +i))] */\n      0x0100\n      dup5\n      add\n      swap2\n      shl(0xa0, 0x01)\n      swap1\n      div\n      0xff\n      and\n      swap1\n      dup2\n      gt\n      iszero\n      tag_346\n      jumpi\n      tag_346\n      tag_183\n      jump\t// in\n    tag_346:\n      0x03\n      dup2\n      gt\n      iszero\n      tag_348\n      jumpi\n      tag_348\n      tag_183\n      jump\t// in\n    tag_348:\n      dup2\n      mstore\n      0x20\n      add\n      0x08\n      dup3\n      add\n      dup1\n      sload\n      tag_349\n      swap1\n      tag_201\n      jump\t// in\n    tag_349:\n      dup1\n      0x1f\n      add\n      0x20\n      dup1\n      swap2\n      div\n      mul\n      0x20\n      add\n      mload(0x40)\n      swap1\n      dup2\n      add\n      0x40\n      mstore\n      dup1\n      swap3\n      swap2\n      swap1\n      dup2\n      dup2\n      mstore\n      0x20\n      add\n      dup3\n      dup1\n      sload\n      tag_350\n      swap1\n      tag_201\n      jump\t// in\n    tag_350:\n      dup1\n      iszero\n      tag_351\n      jumpi\n      dup1\n      0x1f\n      lt\n      tag_352\n      jumpi\n      0x0100\n      dup1\n      dup4\n      sload\n      div\n      mul\n      dup4\n      mstore\n      swap2\n      0x20\n      add\n      swap2\n      jump(tag_351)\n    tag_352:\n      dup3\n      add\n      swap2\n      swap1\n      0x00\n      mstore\n      keccak256(0x00, 0x20)\n      swap1\n    tag_353:\n      dup2\n      sload\n      dup2\n      mstore\n      swap1\n      0x01\n      add\n      swap1\n      0x20\n      add\n      dup1\n      dup4\n      gt\n      tag_353\n      jumpi\n      dup3\n      swap1\n      sub\n      0x1f\n      and\n      dup3\n      add\n      swap2\n    tag_351:\n      pop\n      pop\n      pop\n      pop\n      pop\n      dup2\n      mstore\n      0x20\n      add\n      0x09\n      dup3\n      add\n      sload\n      dup2\n      mstore\n      0x20\n      add\n      0x0a\n      dup3\n      add\n      sload\n      dup2\n      mstore\n      0x20\n      add\n      0x0b\n      dup3\n      add\n      sload\n      dup2\n      mstore\n      0x20\n      add\n      0x0c\n      dup3\n      add\n      sload\n      dup2\n      mstore\n      0x20\n      add\n      0x0d\n      dup3\n      add\n      sload\n      dup2\n      mstore\n      pop\n      pop\n        /* \"GenerateCode.sol\":13969:13978  arrayPack */\n      dup4\n        /* \"GenerateCode.sol\":13979:13980  i */\n      dup3\n        /* \"GenerateCode.sol\":13969:13981  arrayPack[i] */\n      dup2\n      mload\n      dup2\n      lt\n      tag_355\n      jumpi\n      tag_355\n      tag_175\n      jump\t// in\n    tag_355:\n      0x20\n      mul\n      0x20\n      add\n      add\n        /* \"GenerateCode.sol\":13969:14074  arrayPack[i] = mPackageInfo[bytes32(INFT(nft).tokenOfOwnerByIndex(_user,_page*returnRIP - returnRIP +i))] */\n      dup2\n      swap1\n      mstore\n      pop\n        /* \"GenerateCode.sol\":13938:13941  i++ */\n      dup1\n      dup1\n      tag_356\n      swap1\n      tag_255\n      jump\t// in\n    tag_356:\n      swap2\n      pop\n      pop\n        /* \"GenerateCode.sol\":13899:14093  for (uint i = 0; i < arrayPack.length; i++) {... */\n      jump(tag_335)\n    tag_336:\n      pop\n        /* \"GenerateCode.sol\":14110:14136  return (isMore, arrayPack) */\n      pop\n      jump(tag_319)\n        /* \"GenerateCode.sol\":13761:14542  if (_page*returnRIP < length ) {... */\n    tag_329:\n        /* \"GenerateCode.sol\":14255:14264  returnRIP */\n      sload(0x69)\n        /* \"GenerateCode.sol\":14184:14189  false */\n      0x00\n      swap4\n      pop\n        /* \"GenerateCode.sol\":14267:14273  length */\n      dup2\n      swap1\n        /* \"GenerateCode.sol\":14249:14264  _page*returnRIP */\n      tag_358\n      swap1\n        /* \"GenerateCode.sol\":14255:14264  returnRIP */\n      0xffffffff\n      and\n        /* \"GenerateCode.sol\":14249:14254  _page */\n      dup8\n        /* \"GenerateCode.sol\":14249:14264  _page*returnRIP */\n      tag_221\n      jump\t// in\n    tag_358:\n        /* \"GenerateCode.sol\":14249:14273  _page*returnRIP - length */\n      0xffffffff\n      and\n      tag_359\n      swap2\n      swap1\n      tag_259\n      jump\t// in\n    tag_359:\n        /* \"GenerateCode.sol\":14237:14246  returnRIP */\n      sload(0x69)\n        /* \"GenerateCode.sol\":14237:14274  returnRIP -(_page*returnRIP - length) */\n      tag_360\n      swap2\n      swap1\n        /* \"GenerateCode.sol\":14237:14246  returnRIP */\n      0xffffffff\n      and\n        /* \"GenerateCode.sol\":14237:14274  returnRIP -(_page*returnRIP - length) */\n      tag_259\n      jump\t// in\n    tag_360:\n        /* \"GenerateCode.sol\":14219:14275  new PackageInfo[](returnRIP -(_page*returnRIP - length)) */\n      0xffffffffffffffff\n      dup2\n      gt\n      iszero\n      tag_362\n      jumpi\n      tag_362\n      tag_168\n      jump\t// in\n    tag_362:\n      mload(0x40)\n      swap1\n      dup1\n      dup3\n      mstore\n      dup1\n      0x20\n      mul\n      0x20\n      add\n      dup3\n      add\n      0x40\n      mstore\n      dup1\n      iszero\n      tag_363\n      jumpi\n      dup2\n      0x20\n      add\n    tag_364:\n      tag_365\n      tag_194\n      jump\t// in\n    tag_365:\n      dup2\n      mstore\n      0x20\n      add\n      swap1\n      0x01\n      swap1\n      sub\n      swap1\n      dup2\n      tag_364\n      jumpi\n      swap1\n      pop\n    tag_363:\n      pop\n        /* \"GenerateCode.sol\":14207:14275  arrayPack = new PackageInfo[](returnRIP -(_page*returnRIP - length)) */\n      swap2\n      pop\n        /* \"GenerateCode.sol\":14299:14305  uint i */\n      0x00\n        /* \"GenerateCode.sol\":14294:14484  for (uint i = 0; i < arrayPack.length; i++) {... */\n    tag_366:\n        /* \"GenerateCode.sol\":14315:14324  arrayPack */\n      dup3\n        /* \"GenerateCode.sol\":14315:14331  arrayPack.length */\n      mload\n        /* \"GenerateCode.sol\":14311:14312  i */\n      dup2\n        /* \"GenerateCode.sol\":14311:14331  i < arrayPack.length */\n      lt\n        /* \"GenerateCode.sol\":14294:14484  for (uint i = 0; i < arrayPack.length; i++) {... */\n      iszero\n      tag_336\n      jumpi\n        /* \"GenerateCode.sol\":14401:14404  nft */\n      sload(0x71)\n        /* \"GenerateCode.sol\":14450:14459  returnRIP */\n      sload(0x69)\n        /* \"GenerateCode.sol\":14375:14387  mPackageInfo */\n      0x6a\n      swap2\n        /* \"GenerateCode.sol\":14375:14465  mPackageInfo[bytes32(INFT(nft).tokenOfOwnerByIndex(_user,_page*returnRIP - returnRIP +i))] */\n      0x00\n      swap2\n      sub(shl(0xa0, 0x01), 0x01)\n        /* \"GenerateCode.sol\":14401:14404  nft */\n      swap1\n      swap2\n      and\n      swap1\n        /* \"GenerateCode.sol\":14396:14425  INFT(nft).tokenOfOwnerByIndex */\n      0x2f745c59\n      swap1\n        /* \"GenerateCode.sol\":14426:14431  _user */\n      dup10\n      swap1\n        /* \"GenerateCode.sol\":14461:14462  i */\n      dup7\n      swap1\n        /* \"GenerateCode.sol\":14450:14459  returnRIP */\n      0xffffffff\n      and\n        /* \"GenerateCode.sol\":14432:14447  _page*returnRIP */\n      tag_369\n        /* \"GenerateCode.sol\":14450:14459  returnRIP */\n      dup2\n        /* \"GenerateCode.sol\":14432:14437  _page */\n      dup15\n        /* \"GenerateCode.sol\":14432:14447  _page*returnRIP */\n      tag_221\n      jump\t// in\n    tag_369:\n        /* \"GenerateCode.sol\":14432:14459  _page*returnRIP - returnRIP */\n      tag_370\n      swap2\n      swap1\n      tag_236\n      jump\t// in\n    tag_370:\n        /* \"GenerateCode.sol\":14432:14462  _page*returnRIP - returnRIP +i */\n      0xffffffff\n      and\n      tag_371\n      swap2\n      swap1\n      tag_219\n      jump\t// in\n    tag_371:\n        /* \"GenerateCode.sol\":14396:14463  INFT(nft).tokenOfOwnerByIndex(_user,_page*returnRIP - returnRIP +i) */\n      mload(0x40)\n      not(sub(shl(0xe0, 0x01), 0x01))\n      0xe0\n      dup6\n      swap1\n      shl\n      and\n      dup2\n      mstore\n      sub(shl(0xa0, 0x01), 0x01)\n        /* \"#utility.yul\":13151:13183   */\n      swap1\n      swap3\n      and\n        /* \"GenerateCode.sol\":14396:14463  INFT(nft).tokenOfOwnerByIndex(_user,_page*returnRIP - returnRIP +i) */\n      0x04\n      dup4\n      add\n        /* \"#utility.yul\":13133:13184   */\n      mstore\n        /* \"#utility.yul\":13200:13218   */\n      0x24\n      dup3\n      add\n        /* \"#utility.yul\":13193:13227   */\n      mstore\n        /* \"#utility.yul\":13106:13124   */\n      0x44\n      add\n        /* \"GenerateCode.sol\":14396:14463  INFT(nft).tokenOfOwnerByIndex(_user,_page*returnRIP - returnRIP +i) */\n      0x20\n      mload(0x40)\n      dup1\n      dup4\n      sub\n      dup2\n      dup7\n      gas\n      staticcall\n      iszero\n      dup1\n      iszero\n      tag_374\n      jumpi\n      returndatasize\n      0x00\n      dup1\n      returndatacopy\n      revert(0x00, returndatasize)\n    tag_374:\n      pop\n      pop\n      pop\n      pop\n      mload(0x40)\n      returndatasize\n      not(0x1f)\n      0x1f\n      dup3\n      add\n      and\n      dup3\n      add\n      dup1\n      0x40\n      mstore\n      pop\n      dup2\n      add\n      swap1\n      tag_375\n      swap2\n      swap1\n      tag_217\n      jump\t// in\n    tag_375:\n        /* \"GenerateCode.sol\":14375:14465  mPackageInfo[bytes32(INFT(nft).tokenOfOwnerByIndex(_user,_page*returnRIP - returnRIP +i))] */\n      dup2\n      mstore\n      0x20\n      dup1\n      dup3\n      add\n      swap3\n      swap1\n      swap3\n      mstore\n      0x40\n      swap1\n      dup2\n      add\n      0x00\n      keccak256\n        /* \"GenerateCode.sol\":14360:14465  arrayPack[i] = mPackageInfo[bytes32(INFT(nft).tokenOfOwnerByIndex(_user,_page*returnRIP - returnRIP +i))] */\n      dup2\n      mload\n      0x01e0\n      dup2\n      add\n      dup4\n      mstore\n      dup2\n      sload\n      sub(shl(0xa0, 0x01), 0x01)\n      swap1\n      dup2\n      and\n      dup3\n      mstore\n      0x01\n      dup4\n      add\n      sload\n      swap5\n      dup3\n      add\n      swap5\n      swap1\n      swap5\n      mstore\n      0x02\n      dup3\n      add\n      sload\n      swap3\n      dup2\n      add\n      swap3\n      swap1\n      swap3\n      mstore\n      0x03\n      dup1\n      dup3\n      add\n      sload\n      0x60\n      dup5\n      add\n      mstore\n      0x04\n      dup3\n      add\n      sload\n      0x80\n      dup5\n      add\n      mstore\n      0x05\n      dup3\n      add\n      sload\n      0xa0\n      dup5\n      add\n      mstore\n      0x06\n      dup3\n      add\n      sload\n      0xc0\n      dup5\n      add\n      mstore\n      0x07\n      dup3\n      add\n      sload\n      swap4\n      dup5\n      and\n      0xe0\n      dup5\n      add\n      mstore\n      swap2\n      swap3\n        /* \"GenerateCode.sol\":14375:14465  mPackageInfo[bytes32(INFT(nft).tokenOfOwnerByIndex(_user,_page*returnRIP - returnRIP +i))] */\n      swap1\n      swap2\n        /* \"GenerateCode.sol\":14360:14465  arrayPack[i] = mPackageInfo[bytes32(INFT(nft).tokenOfOwnerByIndex(_user,_page*returnRIP - returnRIP +i))] */\n      0x0100\n      dup5\n      add\n      swap2\n      shl(0xa0, 0x01)\n      swap1\n      div\n      0xff\n      and\n      swap1\n      dup2\n      gt\n      iszero\n      tag_377\n      jumpi\n      tag_377\n      tag_183\n      jump\t// in\n    tag_377:\n      0x03\n      dup2\n      gt\n      iszero\n      tag_379\n      jumpi\n      tag_379\n      tag_183\n      jump\t// in\n    tag_379:\n      dup2\n      mstore\n      0x20\n      add\n      0x08\n      dup3\n      add\n      dup1\n      sload\n      tag_380\n      swap1\n      tag_201\n      jump\t// in\n    tag_380:\n      dup1\n      0x1f\n      add\n      0x20\n      dup1\n      swap2\n      div\n      mul\n      0x20\n      add\n      mload(0x40)\n      swap1\n      dup2\n      add\n      0x40\n      mstore\n      dup1\n      swap3\n      swap2\n      swap1\n      dup2\n      dup2\n      mstore\n      0x20\n      add\n      dup3\n      dup1\n      sload\n      tag_381\n      swap1\n      tag_201\n      jump\t// in\n    tag_381:\n      dup1\n      iszero\n      tag_382\n      jumpi\n      dup1\n      0x1f\n      lt\n      tag_383\n      jumpi\n      0x0100\n      dup1\n      dup4\n      sload\n      div\n      mul\n      dup4\n      mstore\n      swap2\n      0x20\n      add\n      swap2\n      jump(tag_382)\n    tag_383:\n      dup3\n      add\n      swap2\n      swap1\n      0x00\n      mstore\n      keccak256(0x00, 0x20)\n      swap1\n    tag_384:\n      dup2\n      sload\n      dup2\n      mstore\n      swap1\n      0x01\n      add\n      swap1\n      0x20\n      add\n      dup1\n      dup4\n      gt\n      tag_384\n      jumpi\n      dup3\n      swap1\n      sub\n      0x1f\n      and\n      dup3\n      add\n      swap2\n    tag_382:\n      pop\n      pop\n      pop\n      pop\n      pop\n      dup2\n      mstore\n      0x20\n      add\n      0x09\n      dup3\n      add\n      sload\n      dup2\n      mstore\n      0x20\n      add\n      0x0a\n      dup3\n      add\n      sload\n      dup2\n      mstore\n      0x20\n      add\n      0x0b\n      dup3\n      add\n      sload\n      dup2\n      mstore\n      0x20\n      add\n      0x0c\n      dup3\n      add\n      sload\n      dup2\n      mstore\n      0x20\n      add\n      0x0d\n      dup3\n      add\n      sload\n      dup2\n      mstore\n      pop\n      pop\n        /* \"GenerateCode.sol\":14360:14369  arrayPack */\n      dup4\n        /* \"GenerateCode.sol\":14370:14371  i */\n      dup3\n        /* \"GenerateCode.sol\":14360:14372  arrayPack[i] */\n      dup2\n      mload\n      dup2\n      lt\n      tag_386\n      jumpi\n      tag_386\n      tag_175\n      jump\t// in\n    tag_386:\n      0x20\n      mul\n      0x20\n      add\n      add\n        /* \"GenerateCode.sol\":14360:14465  arrayPack[i] = mPackageInfo[bytes32(INFT(nft).tokenOfOwnerByIndex(_user,_page*returnRIP - returnRIP +i))] */\n      dup2\n      swap1\n      mstore\n      pop\n        /* \"GenerateCode.sol\":14333:14336  i++ */\n      dup1\n      dup1\n      tag_387\n      swap1\n      tag_255\n      jump\t// in\n    tag_387:\n      swap2\n      pop\n      pop\n        /* \"GenerateCode.sol\":14294:14484  for (uint i = 0; i < arrayPack.length; i++) {... */\n      jump(tag_366)\n        /* \"@openzeppelin/contracts-upgradeable@v4.9.0/access/OwnableUpgradeable.sol\":1357:1358  _ */\n    tag_319:\n        /* \"GenerateCode.sol\":13446:14558  function GetUserCode(uint32 _page, address _user) ... */\n      swap3\n      pop\n      swap3\n      swap1\n      pop\n      jump\t// out\n        /* \"GenerateCode.sol\":4402:4546  function SetCloudMiningThreshold(uint256 _cloudMiningThreshold) external onlyOwner {... */\n    tag_123:\n        /* \"@openzeppelin/contracts-upgradeable@v4.9.0/access/OwnableUpgradeable.sol\":1334:1347  _checkOwner() */\n      tag_389\n        /* \"@openzeppelin/contracts-upgradeable@v4.9.0/access/OwnableUpgradeable.sol\":1334:1345  _checkOwner */\n      tag_208\n        /* \"@openzeppelin/contracts-upgradeable@v4.9.0/access/OwnableUpgradeable.sol\":1334:1347  _checkOwner() */\n      jump\t// in\n    tag_389:\n        /* \"GenerateCode.sol\":4495:4515  cloudMiningThreshold */\n      0x6c\n        /* \"GenerateCode.sol\":4495:4539  cloudMiningThreshold = _cloudMiningThreshold */\n      sstore\n        /* \"GenerateCode.sol\":4402:4546  function SetCloudMiningThreshold(uint256 _cloudMiningThreshold) external onlyOwner {... */\n      jump\t// out\n        /* \"GenerateCode.sol\":2855:2895  mapping(uint => Product) public mIdToPro */\n    tag_136:\n      mstore(0x20, 0x74)\n      0x00\n      swap1\n      dup2\n      mstore\n      0x40\n      swap1\n      keccak256\n      dup1\n      sload\n      0x01\n      dup3\n      add\n      dup1\n      sload\n      swap2\n      swap3\n      swap2\n      tag_391\n      swap1\n      tag_201\n      jump\t// in\n    tag_391:\n      dup1\n      0x1f\n      add\n      0x20\n      dup1\n      swap2\n      div\n      mul\n      0x20\n      add\n      mload(0x40)\n      swap1\n      dup2\n      add\n      0x40\n      mstore\n      dup1\n      swap3\n      swap2\n      swap1\n      dup2\n      dup2\n      mstore\n      0x20\n      add\n      dup3\n      dup1\n      sload\n      tag_392\n      swap1\n      tag_201\n      jump\t// in\n    tag_392:\n      dup1\n      iszero\n      tag_393\n      jumpi\n      dup1\n      0x1f\n      lt\n      tag_394\n      jumpi\n      0x0100\n      dup1\n      dup4\n      sload\n      div\n      mul\n      dup4\n      mstore\n      swap2\n      0x20\n      add\n      swap2\n      jump(tag_393)\n    tag_394:\n      dup3\n      add\n      swap2\n      swap1\n      0x00\n      mstore\n      keccak256(0x00, 0x20)\n      swap1\n    tag_395:\n      dup2\n      sload\n      dup2\n      mstore\n      swap1\n      0x01\n      add\n      swap1\n      0x20\n      add\n      dup1\n      dup4\n      gt\n      tag_395\n      jumpi\n      dup3\n      swap1\n      sub\n      0x1f\n      and\n      dup3\n      add\n      swap2\n    tag_393:\n      pop\n      pop\n      pop\n      pop\n      pop\n      swap1\n      dup1\n      0x02\n      add\n      sload\n      swap1\n      dup1\n      0x03\n      add\n      sload\n      swap1\n      dup1\n      0x04\n      add\n      dup1\n      sload\n      tag_396\n      swap1\n      tag_201\n      jump\t// in\n    tag_396:\n      dup1\n      0x1f\n      add\n      0x20\n      dup1\n      swap2\n      div\n      mul\n      0x20\n      add\n      mload(0x40)\n      swap1\n      dup2\n      add\n      0x40\n      mstore\n      dup1\n      swap3\n      swap2\n      swap1\n      dup2\n      dup2\n      mstore\n      0x20\n      add\n      dup3\n      dup1\n      sload\n      tag_397\n      swap1\n      tag_201\n      jump\t// in\n    tag_397:\n      dup1\n      iszero\n      tag_398\n      jumpi\n      dup1\n      0x1f\n      lt\n      tag_399\n      jumpi\n      0x0100\n      dup1\n      dup4\n      sload\n      div\n      mul\n      dup4\n      mstore\n      swap2\n      0x20\n      add\n      swap2\n      jump(tag_398)\n    tag_399:\n      dup3\n      add\n      swap2\n      swap1\n      0x00\n      mstore\n      keccak256(0x00, 0x20)\n      swap1\n    tag_400:\n      dup2\n      sload\n      dup2\n      mstore\n      swap1\n      0x01\n      add\n      swap1\n      0x20\n      add\n      dup1\n      dup4\n      gt\n      tag_400\n      jumpi\n      dup3\n      swap1\n      sub\n      0x1f\n      and\n      dup3\n      add\n      swap2\n    tag_398:\n      pop\n      pop\n      pop\n      0x05\n      swap1\n      swap4\n      add\n      sload\n      swap2\n      swap3\n      pop\n      pop\n      0xff\n      and\n      dup7\n      jump\t// out\n        /* \"GenerateCode.sol\":2932:3649  function initialize(... */\n    tag_142:\n        /* \"@openzeppelin/contracts-upgradeable@v4.9.0/proxy/utils/Initializable.sol\":3279:3298  bool isTopLevelCall */\n      0x00\n        /* \"@openzeppelin/contracts-upgradeable@v4.9.0/proxy/utils/Initializable.sol\":3302:3315  _initializing */\n      sload\n      0x0100\n      swap1\n      div\n      0xff\n      and\n        /* \"@openzeppelin/contracts-upgradeable@v4.9.0/proxy/utils/Initializable.sol\":3301:3315  !_initializing */\n      iszero\n      dup1\n        /* \"@openzeppelin/contracts-upgradeable@v4.9.0/proxy/utils/Initializable.sol\":3347:3381  isTopLevelCall && _initialized < 1 */\n      dup1\n      iszero\n      tag_402\n      jumpi\n      pop\n        /* \"@openzeppelin/contracts-upgradeable@v4.9.0/proxy/utils/Initializable.sol\":3365:3377  _initialized */\n      sload(0x00)\n        /* \"@openzeppelin/contracts-upgradeable@v4.9.0/proxy/utils/Initializable.sol\":3380:3381  1 */\n      0x01\n        /* \"@openzeppelin/contracts-upgradeable@v4.9.0/proxy/utils/Initializable.sol\":3365:3377  _initialized */\n      0xff\n      swap1\n      swap2\n      and\n        /* \"@openzeppelin/contracts-upgradeable@v4.9.0/proxy/utils/Initializable.sol\":3365:3381  _initialized < 1 */\n      lt\n        /* \"@openzeppelin/contracts-upgradeable@v4.9.0/proxy/utils/Initializable.sol\":3347:3381  isTopLevelCall && _initialized < 1 */\n    tag_402:\n        /* \"@openzeppelin/contracts-upgradeable@v4.9.0/proxy/utils/Initializable.sol\":3346:3454  (isTopLevelCall && _initialized < 1) || (!AddressUpgradeable.isContract(address(this)) && _initialized == 1) */\n      dup1\n      tag_406\n      jumpi\n      pop\n        /* \"@openzeppelin/contracts-upgradeable@v4.9.0/proxy/utils/Initializable.sol\":3426:3430  this */\n      address\n        /* \"@openzeppelin/contracts-upgradeable@v4.9.0/utils/AddressUpgradeable.sol\":1713:1732  account.code.length */\n      extcodesize\n        /* \"@openzeppelin/contracts-upgradeable@v4.9.0/utils/AddressUpgradeable.sol\":1713:1736  account.code.length > 0 */\n      iszero\n      dup1\n      iszero\n        /* \"@openzeppelin/contracts-upgradeable@v4.9.0/proxy/utils/Initializable.sol\":3387:3453  !AddressUpgradeable.isContract(address(this)) && _initialized == 1 */\n      tag_406\n      jumpi\n      pop\n        /* \"@openzeppelin/contracts-upgradeable@v4.9.0/proxy/utils/Initializable.sol\":3436:3448  _initialized */\n      and(0xff, sload(0x00))\n      0x01\n        /* \"@openzeppelin/contracts-upgradeable@v4.9.0/proxy/utils/Initializable.sol\":3436:3453  _initialized == 1 */\n      eq\n        /* \"@openzeppelin/contracts-upgradeable@v4.9.0/proxy/utils/Initializable.sol\":3387:3453  !AddressUpgradeable.isContract(address(this)) && _initialized == 1 */\n    tag_406:\n        /* \"@openzeppelin/contracts-upgradeable@v4.9.0/proxy/utils/Initializable.sol\":3325:3526  require(... */\n      tag_407\n      jumpi\n      mload(0x40)\n      shl(0xe5, 0x461bcd)\n      dup2\n      mstore\n        /* \"#utility.yul\":14662:14664   */\n      0x20\n        /* \"@openzeppelin/contracts-upgradeable@v4.9.0/proxy/utils/Initializable.sol\":3325:3526  require(... */\n      0x04\n      dup3\n      add\n        /* \"#utility.yul\":14644:14665   */\n      mstore\n        /* \"#utility.yul\":14701:14703   */\n      0x2e\n        /* \"#utility.yul\":14681:14699   */\n      0x24\n      dup3\n      add\n        /* \"#utility.yul\":14674:14704   */\n      mstore\n        /* \"#utility.yul\":14740:14774   */\n      0x496e697469616c697a61626c653a20636f6e747261637420697320616c726561\n        /* \"#utility.yul\":14720:14738   */\n      0x44\n      dup3\n      add\n        /* \"#utility.yul\":14713:14775   */\n      mstore\n      shl(0x92, 0x191e481a5b9a5d1a585b1a5e9959)\n        /* \"#utility.yul\":14791:14809   */\n      0x64\n      dup3\n      add\n        /* \"#utility.yul\":14784:14828   */\n      mstore\n        /* \"#utility.yul\":14845:14864   */\n      0x84\n      add\n        /* \"@openzeppelin/contracts-upgradeable@v4.9.0/proxy/utils/Initializable.sol\":3325:3526  require(... */\n      tag_308\n        /* \"#utility.yul\":14460:14870   */\n      jump\n        /* \"@openzeppelin/contracts-upgradeable@v4.9.0/proxy/utils/Initializable.sol\":3325:3526  require(... */\n    tag_407:\n        /* \"@openzeppelin/contracts-upgradeable@v4.9.0/proxy/utils/Initializable.sol\":3536:3548  _initialized */\n      0x00\n        /* \"@openzeppelin/contracts-upgradeable@v4.9.0/proxy/utils/Initializable.sol\":3536:3552  _initialized = 1 */\n      dup1\n      sload\n      not(0xff)\n      and\n        /* \"@openzeppelin/contracts-upgradeable@v4.9.0/proxy/utils/Initializable.sol\":3551:3552  1 */\n      0x01\n        /* \"@openzeppelin/contracts-upgradeable@v4.9.0/proxy/utils/Initializable.sol\":3536:3552  _initialized = 1 */\n      or\n      swap1\n      sstore\n        /* \"@openzeppelin/contracts-upgradeable@v4.9.0/proxy/utils/Initializable.sol\":3562:3627  if (isTopLevelCall) {... */\n      dup1\n      iszero\n      tag_410\n      jumpi\n        /* \"@openzeppelin/contracts-upgradeable@v4.9.0/proxy/utils/Initializable.sol\":3596:3609  _initializing */\n      0x00\n        /* \"@openzeppelin/contracts-upgradeable@v4.9.0/proxy/utils/Initializable.sol\":3596:3616  _initializing = true */\n      dup1\n      sload\n      not(0xff00)\n      and\n      0x0100\n      or\n      swap1\n      sstore\n        /* \"@openzeppelin/contracts-upgradeable@v4.9.0/proxy/utils/Initializable.sol\":3562:3627  if (isTopLevelCall) {... */\n    tag_410:\n        /* \"GenerateCode.sol\":3183:3187  usdt */\n      0x6e\n        /* \"GenerateCode.sol\":3183:3202  usdt = _trustedUSDT */\n      dup1\n      sload\n      not(sub(shl(0xa0, 0x01), 0x01))\n      swap1\n      dup2\n      and\n      sub(shl(0xa0, 0x01), 0x01)\n      dup11\n      dup2\n      and\n      swap2\n      swap1\n      swap2\n      or\n      swap1\n      swap3\n      sstore\n        /* \"GenerateCode.sol\":3212:3222  masterPool */\n      0x70\n        /* \"GenerateCode.sol\":3212:3236  masterPool = _masterPool */\n      dup1\n      sload\n      dup3\n      and\n      dup10\n      dup5\n      and\n      or\n      swap1\n      sstore\n        /* \"GenerateCode.sol\":3287:3295  codePool */\n      0x6f\n        /* \"GenerateCode.sol\":3287:3318  codePool = ICodePool(_codePool) */\n      dup1\n      sload\n      dup3\n      and\n      dup9\n      dup5\n      and\n      or\n      swap1\n      sstore\n        /* \"GenerateCode.sol\":3328:3336  kventure */\n      0x72\n        /* \"GenerateCode.sol\":3328:3348  kventure = _kventure */\n      dup1\n      sload\n      dup3\n      and\n      dup6\n      dup5\n      and\n      or\n      swap1\n      sstore\n        /* \"GenerateCode.sol\":3358:3365  product */\n      0x73\n        /* \"GenerateCode.sol\":3358:3376  product = _product */\n      dup1\n      sload\n      dup3\n      and\n      dup8\n      dup5\n      and\n      or\n      swap1\n      sstore\n        /* \"GenerateCode.sol\":3386:3389  nft */\n      0x71\n        /* \"GenerateCode.sol\":3386:3403  nft = _trustedNFT */\n      dup1\n      sload\n      swap1\n      swap2\n      and\n      swap2\n      dup6\n      and\n      swap2\n      swap1\n      swap2\n      or\n      swap1\n      sstore\n        /* \"GenerateCode.sol\":3413:3429  __Ownable_init() */\n      tag_412\n        /* \"GenerateCode.sol\":3413:3427  __Ownable_init */\n      tag_413\n        /* \"GenerateCode.sol\":3413:3429  __Ownable_init() */\n      jump\t// in\n    tag_412:\n        /* \"GenerateCode.sol\":3481:3488  10 ** 6 */\n      0x0f4240\n        /* \"GenerateCode.sol\":3467:3478  usdtDecimal */\n      0x66\n        /* \"GenerateCode.sol\":3467:3488  usdtDecimal = 10 ** 6 */\n      dup2\n      swap1\n      sstore\n        /* \"GenerateCode.sol\":3518:3525  10 ** 2 */\n      0x64\n        /* \"GenerateCode.sol\":3498:3515  boostSpeedDecimal */\n      0x67\n        /* \"GenerateCode.sol\":3498:3525  boostSpeedDecimal = 10 ** 2 */\n      sstore\n        /* \"GenerateCode.sol\":3547:3562  1 * usdtDecimal */\n      tag_414\n      swap1\n        /* \"GenerateCode.sol\":3547:3548  1 */\n      0x01\n        /* \"GenerateCode.sol\":3547:3562  1 * usdtDecimal */\n      tag_296\n      jump\t// in\n    tag_414:\n        /* \"GenerateCode.sol\":3535:3544  rateBoost */\n      0x65\n        /* \"GenerateCode.sol\":3535:3562  rateBoost = 1 * usdtDecimal */\n      sstore\n        /* \"GenerateCode.sol\":3583:3602  _initializeConfig() */\n      tag_415\n        /* \"GenerateCode.sol\":3583:3600  _initializeConfig */\n      tag_416\n        /* \"GenerateCode.sol\":3583:3602  _initializeConfig() */\n      jump\t// in\n    tag_415:\n        /* \"GenerateCode.sol\":3627:3642  block.timestamp */\n      timestamp\n        /* \"GenerateCode.sol\":3612:3624  deployedDate */\n      0x6d\n        /* \"GenerateCode.sol\":3612:3642  deployedDate = block.timestamp */\n      sstore\n        /* \"@openzeppelin/contracts-upgradeable@v4.9.0/proxy/utils/Initializable.sol\":3647:3746  if (isTopLevelCall) {... */\n      dup1\n      iszero\n      tag_417\n      jumpi\n        /* \"@openzeppelin/contracts-upgradeable@v4.9.0/proxy/utils/Initializable.sol\":3697:3702  false */\n      0x00\n        /* \"@openzeppelin/contracts-upgradeable@v4.9.0/proxy/utils/Initializable.sol\":3681:3702  _initializing = false */\n      dup1\n      sload\n      not(0xff00)\n      and\n      swap1\n      sstore\n        /* \"@openzeppelin/contracts-upgradeable@v4.9.0/proxy/utils/Initializable.sol\":3721:3735  Initialized(1) */\n      mload(0x40)\n      0x01\n        /* \"#utility.yul\":15027:15063   */\n      dup2\n      mstore\n        /* \"@openzeppelin/contracts-upgradeable@v4.9.0/proxy/utils/Initializable.sol\":3721:3735  Initialized(1) */\n      0x7f26b83ff96e1f2b6a682f133852f6798a09c465da95921460cefb3847402498\n      swap1\n        /* \"#utility.yul\":15015:15017   */\n      0x20\n        /* \"#utility.yul\":15000:15018   */\n      add\n        /* \"@openzeppelin/contracts-upgradeable@v4.9.0/proxy/utils/Initializable.sol\":3721:3735  Initialized(1) */\n      mload(0x40)\n      dup1\n      swap2\n      sub\n      swap1\n      log1\n        /* \"@openzeppelin/contracts-upgradeable@v4.9.0/proxy/utils/Initializable.sol\":3647:3746  if (isTopLevelCall) {... */\n    tag_417:\n        /* \"@openzeppelin/contracts-upgradeable@v4.9.0/proxy/utils/Initializable.sol\":3269:3752  {... */\n      pop\n        /* \"GenerateCode.sol\":2932:3649  function initialize(... */\n      pop\n      pop\n      pop\n      pop\n      pop\n      pop\n      jump\t// out\n        /* \"GenerateCode.sol\":4305:4397  function SetProduct(address _product) external onlyOwner {... */\n    tag_145:\n        /* \"@openzeppelin/contracts-upgradeable@v4.9.0/access/OwnableUpgradeable.sol\":1334:1347  _checkOwner() */\n      tag_421\n        /* \"@openzeppelin/contracts-upgradeable@v4.9.0/access/OwnableUpgradeable.sol\":1334:1345  _checkOwner */\n      tag_208\n        /* \"@openzeppelin/contracts-upgradeable@v4.9.0/access/OwnableUpgradeable.sol\":1334:1347  _checkOwner() */\n      jump\t// in\n    tag_421:\n        /* \"GenerateCode.sol\":4372:4379  product */\n      0x73\n        /* \"GenerateCode.sol\":4372:4390  product = _product */\n      dup1\n      sload\n      not(sub(shl(0xa0, 0x01), 0x01))\n      and\n      sub(shl(0xa0, 0x01), 0x01)\n      swap3\n      swap1\n      swap3\n      and\n      swap2\n      swap1\n      swap2\n      or\n      swap1\n      sstore\n        /* \"GenerateCode.sol\":4305:4397  function SetProduct(address _product) external onlyOwner {... */\n      jump\t// out\n        /* \"GenerateCode.sol\":4110:4190  function SetUsdt(address _usdt) external onlyOwner {... */\n    tag_148:\n        /* \"@openzeppelin/contracts-upgradeable@v4.9.0/access/OwnableUpgradeable.sol\":1334:1347  _checkOwner() */\n      tag_424\n        /* \"@openzeppelin/contracts-upgradeable@v4.9.0/access/OwnableUpgradeable.sol\":1334:1345  _checkOwner */\n      tag_208\n        /* \"@openzeppelin/contracts-upgradeable@v4.9.0/access/OwnableUpgradeable.sol\":1334:1347  _checkOwner() */\n      jump\t// in\n    tag_424:\n        /* \"GenerateCode.sol\":4171:4175  usdt */\n      0x6e\n        /* \"GenerateCode.sol\":4171:4183  usdt = _usdt */\n      dup1\n      sload\n      not(sub(shl(0xa0, 0x01), 0x01))\n      and\n      sub(shl(0xa0, 0x01), 0x01)\n      swap3\n      swap1\n      swap3\n      and\n      swap2\n      swap1\n      swap2\n      or\n      swap1\n      sstore\n        /* \"GenerateCode.sol\":4110:4190  function SetUsdt(address _usdt) external onlyOwner {... */\n      jump\t// out\n        /* \"GenerateCode.sol\":6126:7633  function GenerateCode(... */\n    tag_152:\n        /* \"GenerateCode.sol\":3971:3978  product */\n      sload(0x73)\n        /* \"GenerateCode.sol\":6396:6409  uint[] memory */\n      0x60\n      swap1\n      sub(shl(0xa0, 0x01), 0x01)\n        /* \"GenerateCode.sol\":3971:3978  product */\n      and\n        /* \"GenerateCode.sol\":3957:3967  msg.sender */\n      caller\n        /* \"GenerateCode.sol\":3957:3978  msg.sender == product */\n      eq\n        /* \"GenerateCode.sol\":3949:4005  require(msg.sender == product, \"Kventure: Only product\") */\n      tag_427\n      jumpi\n      mload(0x40)\n      shl(0xe5, 0x461bcd)\n      dup2\n      mstore\n        /* \"#utility.yul\":15276:15278   */\n      0x20\n        /* \"GenerateCode.sol\":3949:4005  require(msg.sender == product, \"Kventure: Only product\") */\n      0x04\n      dup3\n      add\n        /* \"#utility.yul\":15258:15279   */\n      mstore\n        /* \"#utility.yul\":15315:15317   */\n      0x16\n        /* \"#utility.yul\":15295:15313   */\n      0x24\n      dup3\n      add\n        /* \"#utility.yul\":15288:15318   */\n      mstore\n      shl(0x52, 0x12dd995b9d1d5c994e8813db9b1e481c1c9bd91d58dd)\n        /* \"#utility.yul\":15334:15352   */\n      0x44\n      dup3\n      add\n        /* \"#utility.yul\":15327:15379   */\n      mstore\n        /* \"#utility.yul\":15396:15414   */\n      0x64\n      add\n        /* \"GenerateCode.sol\":3949:4005  require(msg.sender == product, \"Kventure: Only product\") */\n      tag_308\n        /* \"#utility.yul\":15074:15420   */\n      jump\n        /* \"GenerateCode.sol\":3949:4005  require(msg.sender == product, \"Kventure: Only product\") */\n    tag_427:\n        /* \"GenerateCode.sol\":6442:6471  codeHashes.length == quantity */\n      dup3\n      dup7\n      eq\n        /* \"GenerateCode.sol\":6442:6487  codeHashes.length == quantity && quantity > 0 */\n      dup1\n      iszero\n      tag_431\n      jumpi\n      pop\n        /* \"GenerateCode.sol\":6486:6487  0 */\n      0x00\n        /* \"GenerateCode.sol\":6475:6483  quantity */\n      dup7\n        /* \"GenerateCode.sol\":6475:6487  quantity > 0 */\n      gt\n        /* \"GenerateCode.sol\":6442:6487  codeHashes.length == quantity && quantity > 0 */\n    tag_431:\n        /* \"GenerateCode.sol\":6421:6581  require(... */\n      tag_432\n      jumpi\n      mload(0x40)\n      shl(0xe5, 0x461bcd)\n      dup2\n      mstore\n        /* \"#utility.yul\":15627:15629   */\n      0x20\n        /* \"GenerateCode.sol\":6421:6581  require(... */\n      0x04\n      dup3\n      add\n        /* \"#utility.yul\":15609:15630   */\n      mstore\n        /* \"#utility.yul\":15666:15668   */\n      0x44\n        /* \"#utility.yul\":15646:15664   */\n      0x24\n      dup3\n      add\n        /* \"#utility.yul\":15639:15669   */\n      dup2\n      swap1\n      mstore\n        /* \"#utility.yul\":15705:15739   */\n      0x4b76656e747572653a20436f64652048617368204e6f7420457175616c20546f\n        /* \"#utility.yul\":15685:15703   */\n      swap1\n      dup3\n      add\n        /* \"#utility.yul\":15678:15740   */\n      mstore\n        /* \"#utility.yul\":15776:15810   */\n      0x205175616e74697479206f72205175616e7469747920536d616c6c6572205468\n        /* \"#utility.yul\":15756:15774   */\n      0x64\n      dup3\n      add\n        /* \"#utility.yul\":15749:15811   */\n      mstore\n      shl(0xe0, 0x616e2031)\n        /* \"#utility.yul\":15827:15846   */\n      0x84\n      dup3\n      add\n        /* \"#utility.yul\":15820:15855   */\n      mstore\n        /* \"#utility.yul\":15872:15891   */\n      0xa4\n      add\n        /* \"GenerateCode.sol\":6421:6581  require(... */\n      tag_308\n        /* \"#utility.yul\":15425:15897   */\n      jump\n        /* \"GenerateCode.sol\":6421:6581  require(... */\n    tag_432:\n      sub(shl(0xa0, 0x01), 0x01)\n        /* \"GenerateCode.sol\":6659:6682  _delegate != address(0) */\n      dup3\n      and\n      iszero\n        /* \"GenerateCode.sol\":6655:7155  if (_delegate != address(0)) {... */\n      tag_435\n      jumpi\n        /* \"GenerateCode.sol\":6736:6756  cloudMiningThreshold */\n      sload(0x6c)\n        /* \"GenerateCode.sol\":6723:6732  planPrice */\n      dup8\n        /* \"GenerateCode.sol\":6723:6756  planPrice >= cloudMiningThreshold */\n      lt\n      iszero\n        /* \"GenerateCode.sol\":6698:6841  require(... */\n      tag_436\n      jumpi\n      mload(0x40)\n      shl(0xe5, 0x461bcd)\n      dup2\n      mstore\n        /* \"#utility.yul\":16104:16106   */\n      0x20\n        /* \"GenerateCode.sol\":6698:6841  require(... */\n      0x04\n      dup3\n      add\n        /* \"#utility.yul\":16086:16107   */\n      mstore\n        /* \"#utility.yul\":16143:16145   */\n      0x33\n        /* \"#utility.yul\":16123:16141   */\n      0x24\n      dup3\n      add\n        /* \"#utility.yul\":16116:16146   */\n      mstore\n        /* \"#utility.yul\":16182:16216   */\n      0x4b76656e747572653a20436c6f7564204d696e696e67204f6e6c7920466f7220\n        /* \"#utility.yul\":16162:16180   */\n      0x44\n      dup3\n      add\n        /* \"#utility.yul\":16155:16217   */\n      mstore\n      shl(0x6c, 0x05061636b6167652041626f766520243530303)\n        /* \"#utility.yul\":16233:16251   */\n      0x64\n      dup3\n      add\n        /* \"#utility.yul\":16226:16275   */\n      mstore\n        /* \"#utility.yul\":16292:16311   */\n      0x84\n      add\n        /* \"GenerateCode.sol\":6698:6841  require(... */\n      tag_308\n        /* \"#utility.yul\":15902:16317   */\n      jump\n        /* \"GenerateCode.sol\":6698:6841  require(... */\n    tag_436:\n        /* \"GenerateCode.sol\":6655:7155  if (_delegate != address(0)) {... */\n      jump(tag_440)\n    tag_435:\n      sub(shl(0xa0, 0x01), 0x01)\n        /* \"GenerateCode.sol\":7085:7108  _delegate == address(0) */\n      dup3\n      and\n      iszero\n        /* \"GenerateCode.sol\":7077:7144  require(_delegate == address(0), \"Kventure: Only for cloud mining\") */\n      tag_440\n      jumpi\n      mload(0x40)\n      shl(0xe5, 0x461bcd)\n      dup2\n      mstore\n        /* \"#utility.yul\":16524:16526   */\n      0x20\n        /* \"GenerateCode.sol\":7077:7144  require(_delegate == address(0), \"Kventure: Only for cloud mining\") */\n      0x04\n      dup3\n      add\n        /* \"#utility.yul\":16506:16527   */\n      mstore\n        /* \"#utility.yul\":16563:16565   */\n      0x1f\n        /* \"#utility.yul\":16543:16561   */\n      0x24\n      dup3\n      add\n        /* \"#utility.yul\":16536:16566   */\n      mstore\n        /* \"#utility.yul\":16602:16635   */\n      0x4b76656e747572653a204f6e6c7920666f7220636c6f7564206d696e696e6700\n        /* \"#utility.yul\":16582:16600   */\n      0x44\n      dup3\n      add\n        /* \"#utility.yul\":16575:16636   */\n      mstore\n        /* \"#utility.yul\":16653:16671   */\n      0x64\n      add\n        /* \"GenerateCode.sol\":7077:7144  require(_delegate == address(0), \"Kventure: Only for cloud mining\") */\n      tag_308\n        /* \"#utility.yul\":16322:16677   */\n      jump\n        /* \"GenerateCode.sol\":7077:7144  require(_delegate == address(0), \"Kventure: Only for cloud mining\") */\n    tag_440:\n        /* \"GenerateCode.sol\":7165:7186  uint currentRateBoost */\n      0x00\n        /* \"GenerateCode.sol\":7189:7216  CalculateCurrentRateBoost() */\n      tag_443\n        /* \"GenerateCode.sol\":7189:7214  CalculateCurrentRateBoost */\n      tag_91\n        /* \"GenerateCode.sol\":7189:7216  CalculateCurrentRateBoost() */\n      jump\t// in\n    tag_443:\n        /* \"GenerateCode.sol\":7165:7216  uint currentRateBoost = CalculateCurrentRateBoost() */\n      swap1\n      pop\n        /* \"GenerateCode.sol\":7226:7246  uint [] memory codes */\n      0x00\n        /* \"GenerateCode.sol\":7260:7268  quantity */\n      dup8\n        /* \"GenerateCode.sol\":7249:7269  new uint[](quantity) */\n      0xffffffffffffffff\n      dup2\n      gt\n      iszero\n      tag_445\n      jumpi\n      tag_445\n      tag_168\n      jump\t// in\n    tag_445:\n      mload(0x40)\n      swap1\n      dup1\n      dup3\n      mstore\n      dup1\n      0x20\n      mul\n      0x20\n      add\n      dup3\n      add\n      0x40\n      mstore\n      dup1\n      iszero\n      tag_446\n      jumpi\n      dup2\n      0x20\n      add\n      0x20\n      dup3\n      mul\n      dup1\n      calldatasize\n      dup4\n      calldatacopy\n      add\n      swap1\n      pop\n    tag_446:\n      pop\n        /* \"GenerateCode.sol\":7226:7269  uint [] memory codes = new uint[](quantity) */\n      swap1\n      pop\n        /* \"GenerateCode.sol\":7285:7291  uint i */\n      0x00\n        /* \"GenerateCode.sol\":7280:7604  for (uint i = 0; i < quantity; i++) {... */\n    tag_447:\n        /* \"GenerateCode.sol\":7301:7309  quantity */\n      dup9\n        /* \"GenerateCode.sol\":7297:7298  i */\n      dup2\n        /* \"GenerateCode.sol\":7297:7309  i < quantity */\n      lt\n        /* \"GenerateCode.sol\":7280:7604  for (uint i = 0; i < quantity; i++) {... */\n      iszero\n      tag_448\n      jumpi\n        /* \"GenerateCode.sol\":7330:7339  uint code */\n      0x00\n        /* \"GenerateCode.sol\":7342:7566  _generateCode(... */\n      tag_450\n        /* \"GenerateCode.sol\":7373:7378  buyer */\n      dup13\n        /* \"GenerateCode.sol\":7396:7406  codeHashes */\n      dup10\n      dup10\n        /* \"GenerateCode.sol\":7407:7408  i */\n      dup6\n        /* \"GenerateCode.sol\":7396:7409  codeHashes[i] */\n      dup2\n      dup2\n      lt\n      tag_452\n      jumpi\n      tag_452\n      tag_175\n      jump\t// in\n    tag_452:\n      swap1\n      pop\n      0x20\n      mul\n      add\n      calldataload\n        /* \"GenerateCode.sol\":7427:7431  lock */\n      dup12\n        /* \"GenerateCode.sol\":7449:7458  planPrice */\n      dup15\n        /* \"GenerateCode.sol\":7476:7492  currentRateBoost */\n      dup9\n        /* \"GenerateCode.sol\":7543:7552  _delegate */\n      dup12\n        /* \"GenerateCode.sol\":7342:7355  _generateCode */\n      tag_313\n        /* \"GenerateCode.sol\":7342:7566  _generateCode(... */\n      jump\t// in\n    tag_450:\n        /* \"GenerateCode.sol\":7330:7566  uint code = _generateCode(... */\n      swap1\n      pop\n        /* \"GenerateCode.sol\":7589:7593  code */\n      dup1\n        /* \"GenerateCode.sol\":7580:7585  codes */\n      dup4\n        /* \"GenerateCode.sol\":7586:7587  i */\n      dup4\n        /* \"GenerateCode.sol\":7580:7588  codes[i] */\n      dup2\n      mload\n      dup2\n      lt\n      tag_454\n      jumpi\n      tag_454\n      tag_175\n      jump\t// in\n    tag_454:\n      0x20\n      swap1\n      dup2\n      mul\n      swap2\n      swap1\n      swap2\n      add\n      add\n        /* \"GenerateCode.sol\":7580:7593  codes[i]=code */\n      mstore\n      pop\n        /* \"GenerateCode.sol\":7311:7314  i++ */\n      dup1\n      tag_455\n      dup2\n      tag_255\n      jump\t// in\n    tag_455:\n      swap2\n      pop\n      pop\n        /* \"GenerateCode.sol\":7280:7604  for (uint i = 0; i < quantity; i++) {... */\n      jump(tag_447)\n    tag_448:\n      pop\n        /* \"GenerateCode.sol\":7621:7626  codes */\n      swap10\n        /* \"GenerateCode.sol\":6126:7633  function GenerateCode(... */\n      swap9\n      pop\n      pop\n      pop\n      pop\n      pop\n      pop\n      pop\n      pop\n      pop\n      jump\t// out\n        /* \"@openzeppelin/contracts-upgradeable@v4.9.0/access/OwnableUpgradeable.sol\":2314:2512  function transferOwnership(address newOwner) public virtual onlyOwner {... */\n    tag_157:\n        /* \"@openzeppelin/contracts-upgradeable@v4.9.0/access/OwnableUpgradeable.sol\":1334:1347  _checkOwner() */\n      tag_457\n        /* \"@openzeppelin/contracts-upgradeable@v4.9.0/access/OwnableUpgradeable.sol\":1334:1345  _checkOwner */\n      tag_208\n        /* \"@openzeppelin/contracts-upgradeable@v4.9.0/access/OwnableUpgradeable.sol\":1334:1347  _checkOwner() */\n      jump\t// in\n    tag_457:\n      sub(shl(0xa0, 0x01), 0x01)\n        /* \"@openzeppelin/contracts-upgradeable@v4.9.0/access/OwnableUpgradeable.sol\":2402:2424  newOwner != address(0) */\n      dup2\n      and\n        /* \"@openzeppelin/contracts-upgradeable@v4.9.0/access/OwnableUpgradeable.sol\":2394:2467  require(newOwner != address(0), \"Ownable: new owner is the zero address\") */\n      tag_459\n      jumpi\n      mload(0x40)\n      shl(0xe5, 0x461bcd)\n      dup2\n      mstore\n        /* \"#utility.yul\":16884:16886   */\n      0x20\n        /* \"@openzeppelin/contracts-upgradeable@v4.9.0/access/OwnableUpgradeable.sol\":2394:2467  require(newOwner != address(0), \"Ownable: new owner is the zero address\") */\n      0x04\n      dup3\n      add\n        /* \"#utility.yul\":16866:16887   */\n      mstore\n        /* \"#utility.yul\":16923:16925   */\n      0x26\n        /* \"#utility.yul\":16903:16921   */\n      0x24\n      dup3\n      add\n        /* \"#utility.yul\":16896:16926   */\n      mstore\n        /* \"#utility.yul\":16962:16996   */\n      0x4f776e61626c653a206e6577206f776e657220697320746865207a65726f2061\n        /* \"#utility.yul\":16942:16960   */\n      0x44\n      dup3\n      add\n        /* \"#utility.yul\":16935:16997   */\n      mstore\n      shl(0xd0, 0x646472657373)\n        /* \"#utility.yul\":17013:17031   */\n      0x64\n      dup3\n      add\n        /* \"#utility.yul\":17006:17042   */\n      mstore\n        /* \"#utility.yul\":17059:17078   */\n      0x84\n      add\n        /* \"@openzeppelin/contracts-upgradeable@v4.9.0/access/OwnableUpgradeable.sol\":2394:2467  require(newOwner != address(0), \"Ownable: new owner is the zero address\") */\n      tag_308\n        /* \"#utility.yul\":16682:17084   */\n      jump\n        /* \"@openzeppelin/contracts-upgradeable@v4.9.0/access/OwnableUpgradeable.sol\":2394:2467  require(newOwner != address(0), \"Ownable: new owner is the zero address\") */\n    tag_459:\n        /* \"@openzeppelin/contracts-upgradeable@v4.9.0/access/OwnableUpgradeable.sol\":2477:2505  _transferOwnership(newOwner) */\n      tag_462\n        /* \"@openzeppelin/contracts-upgradeable@v4.9.0/access/OwnableUpgradeable.sol\":2496:2504  newOwner */\n      dup2\n        /* \"@openzeppelin/contracts-upgradeable@v4.9.0/access/OwnableUpgradeable.sol\":2477:2495  _transferOwnership */\n      tag_211\n        /* \"@openzeppelin/contracts-upgradeable@v4.9.0/access/OwnableUpgradeable.sol\":2477:2505  _transferOwnership(newOwner) */\n      jump\t// in\n    tag_462:\n        /* \"@openzeppelin/contracts-upgradeable@v4.9.0/access/OwnableUpgradeable.sol\":2314:2512  function transferOwnership(address newOwner) public virtual onlyOwner {... */\n      pop\n      jump\t// out\n        /* \"GenerateCode.sol\":10060:10726  function UnblockManyCode(... */\n    tag_160:\n        /* \"GenerateCode.sol\":10144:10157  bool[] memory */\n      0x60\n        /* \"GenerateCode.sol\":10169:10190  bool[] memory success */\n      0x00\n        /* \"GenerateCode.sol\":10204:10211  codeFEs */\n      dup3\n        /* \"GenerateCode.sol\":10193:10219  new bool[](codeFEs.length) */\n      0xffffffffffffffff\n      dup2\n      gt\n      iszero\n      tag_465\n      jumpi\n      tag_465\n      tag_168\n      jump\t// in\n    tag_465:\n      mload(0x40)\n      swap1\n      dup1\n      dup3\n      mstore\n      dup1\n      0x20\n      mul\n      0x20\n      add\n      dup3\n      add\n      0x40\n      mstore\n      dup1\n      iszero\n      tag_466\n      jumpi\n      dup2\n      0x20\n      add\n      0x20\n      dup3\n      mul\n      dup1\n      calldatasize\n      dup4\n      calldatacopy\n      add\n      swap1\n      pop\n    tag_466:\n      pop\n        /* \"GenerateCode.sol\":10169:10219  bool[] memory success = new bool[](codeFEs.length) */\n      swap1\n      pop\n        /* \"GenerateCode.sol\":10229:10245  bytes32 codeHash */\n      0x00\n      dup1\n        /* \"GenerateCode.sol\":10255:10696  for (uint index = 0; index < codeFEs.length; index++) {... */\n    tag_467:\n        /* \"GenerateCode.sol\":10276:10298  index < codeFEs.length */\n      dup5\n      dup2\n      lt\n        /* \"GenerateCode.sol\":10255:10696  for (uint index = 0; index < codeFEs.length; index++) {... */\n      iszero\n      tag_171\n      jumpi\n        /* \"GenerateCode.sol\":10361:10368  codeFEs */\n      dup6\n      dup6\n        /* \"GenerateCode.sol\":10369:10374  index */\n      dup3\n        /* \"GenerateCode.sol\":10361:10375  codeFEs[index] */\n      dup2\n      dup2\n      lt\n      tag_471\n      jumpi\n      tag_471\n      tag_175\n      jump\t// in\n    tag_471:\n      swap1\n      pop\n      0x20\n      mul\n      dup2\n      add\n      swap1\n      tag_472\n      swap2\n      swap1\n      tag_177\n      jump\t// in\n    tag_472:\n        /* \"GenerateCode.sol\":10344:10376  abi.encodePacked(codeFEs[index]) */\n      add(0x20, mload(0x40))\n      tag_473\n      swap3\n      swap2\n      swap1\n      tag_179\n      jump\t// in\n    tag_473:\n      0x40\n      dup1\n      mload\n      dup1\n      dup4\n      sub\n      not(0x1f)\n      add\n      dup2\n      mstore\n      swap2\n      dup2\n      mstore\n        /* \"GenerateCode.sol\":10334:10377  keccak256(abi.encodePacked(codeFEs[index])) */\n      dup2\n      mload\n        /* \"GenerateCode.sol\":10344:10376  abi.encodePacked(codeFEs[index]) */\n      0x20\n        /* \"GenerateCode.sol\":10334:10377  keccak256(abi.encodePacked(codeFEs[index])) */\n      swap3\n      dup4\n      add\n      keccak256\n        /* \"GenerateCode.sol\":10426:10448  mPackageInfo[codeHash] */\n      0x00\n      dup2\n      dup2\n      mstore\n        /* \"GenerateCode.sol\":10426:10438  mPackageInfo */\n      0x6a\n        /* \"GenerateCode.sol\":10426:10448  mPackageInfo[codeHash] */\n      swap1\n      swap4\n      mstore\n      swap2\n      keccak256\n        /* \"GenerateCode.sol\":10426:10454  mPackageInfo[codeHash].owner */\n      sload\n        /* \"GenerateCode.sol\":10334:10377  keccak256(abi.encodePacked(codeFEs[index])) */\n      swap1\n      swap3\n      pop\n      sub(shl(0xa0, 0x01), 0x01)\n        /* \"GenerateCode.sol\":10426:10454  mPackageInfo[codeHash].owner */\n      and\n        /* \"GenerateCode.sol\":10412:10422  msg.sender */\n      caller\n        /* \"GenerateCode.sol\":10412:10454  msg.sender != mPackageInfo[codeHash].owner */\n      eq\n      iszero\n      dup1\n        /* \"GenerateCode.sol\":10412:10528  msg.sender != mPackageInfo[codeHash].owner ||... */\n      tag_474\n      jumpi\n      pop\n        /* \"GenerateCode.sol\":10507:10528  PackageStatus.Unblock */\n      0x01\n        /* \"GenerateCode.sol\":10474:10496  mPackageInfo[codeHash] */\n      0x00\n      dup4\n      dup2\n      mstore\n        /* \"GenerateCode.sol\":10474:10486  mPackageInfo */\n      0x6a\n        /* \"GenerateCode.sol\":10474:10496  mPackageInfo[codeHash] */\n      0x20\n      mstore\n      0x40\n      swap1\n      keccak256\n        /* \"GenerateCode.sol\":10474:10503  mPackageInfo[codeHash].status */\n      0x07\n      add\n      sload\n      shl(0xa0, 0x01)\n      swap1\n      div\n      0xff\n      and\n        /* \"GenerateCode.sol\":10474:10528  mPackageInfo[codeHash].status == PackageStatus.Unblock */\n      0x03\n      dup2\n      gt\n      iszero\n      tag_478\n      jumpi\n      tag_478\n      tag_183\n      jump\t// in\n    tag_478:\n      eq\n        /* \"GenerateCode.sol\":10412:10528  msg.sender != mPackageInfo[codeHash].owner ||... */\n    tag_474:\n        /* \"GenerateCode.sol\":10561:10569  continue */\n      tag_469\n        /* \"GenerateCode.sol\":10391:10584  if (... */\n      jumpi\n        /* \"GenerateCode.sol\":10597:10619  mPackageInfo[codeHash] */\n      0x00\n      dup3\n      dup2\n      mstore\n        /* \"GenerateCode.sol\":10597:10609  mPackageInfo */\n      0x6a\n        /* \"GenerateCode.sol\":10597:10619  mPackageInfo[codeHash] */\n      0x20\n      mstore\n      0x40\n      swap1\n      keccak256\n        /* \"GenerateCode.sol\":10597:10626  mPackageInfo[codeHash].status */\n      0x07\n      add\n        /* \"GenerateCode.sol\":10597:10650  mPackageInfo[codeHash].status = PackageStatus.Unblock */\n      dup1\n      sload\n      not(shl(0xa0, 0xff))\n      and\n      shl(0xa0, 0x01)\n      or\n      swap1\n      sstore\n        /* \"GenerateCode.sol\":10664:10678  success[index] */\n      dup3\n      mload\n      0x01\n      swap1\n      dup5\n      swap1\n        /* \"GenerateCode.sol\":10672:10677  index */\n      dup4\n      swap1\n        /* \"GenerateCode.sol\":10664:10678  success[index] */\n      dup2\n      lt\n      tag_483\n      jumpi\n      tag_483\n      tag_175\n      jump\t// in\n    tag_483:\n        /* \"GenerateCode.sol\":10664:10685  success[index] = true */\n      swap2\n      iszero\n      iszero\n        /* \"GenerateCode.sol\":10664:10678  success[index] */\n      0x20\n      swap3\n      dup4\n      mul\n      swap2\n      swap1\n      swap2\n      add\n      swap1\n      swap2\n      add\n        /* \"GenerateCode.sol\":10664:10685  success[index] = true */\n      mstore\n        /* \"GenerateCode.sol\":10255:10696  for (uint index = 0; index < codeFEs.length; index++) {... */\n    tag_469:\n        /* \"GenerateCode.sol\":10300:10307  index++ */\n      dup1\n      tag_484\n      dup2\n      tag_255\n      jump\t// in\n    tag_484:\n      swap2\n      pop\n      pop\n        /* \"GenerateCode.sol\":10255:10696  for (uint index = 0; index < codeFEs.length; index++) {... */\n      jump(tag_467)\n        /* \"GenerateCode.sol\":4028:4104  function SetNFT(address _nft) external onlyOwner {... */\n    tag_164:\n        /* \"@openzeppelin/contracts-upgradeable@v4.9.0/access/OwnableUpgradeable.sol\":1334:1347  _checkOwner() */\n      tag_486\n        /* \"@openzeppelin/contracts-upgradeable@v4.9.0/access/OwnableUpgradeable.sol\":1334:1345  _checkOwner */\n      tag_208\n        /* \"@openzeppelin/contracts-upgradeable@v4.9.0/access/OwnableUpgradeable.sol\":1334:1347  _checkOwner() */\n      jump\t// in\n    tag_486:\n        /* \"GenerateCode.sol\":4087:4090  nft */\n      0x71\n        /* \"GenerateCode.sol\":4087:4097  nft = _nft */\n      dup1\n      sload\n      not(sub(shl(0xa0, 0x01), 0x01))\n      and\n      sub(shl(0xa0, 0x01), 0x01)\n      swap3\n      swap1\n      swap3\n      and\n      swap2\n      swap1\n      swap2\n      or\n      swap1\n      sstore\n        /* \"GenerateCode.sol\":4028:4104  function SetNFT(address _nft) external onlyOwner {... */\n      jump\t// out\n        /* \"@openzeppelin/contracts-upgradeable@v4.9.0/access/OwnableUpgradeable.sol\":1599:1729  function _checkOwner() internal view virtual {... */\n    tag_208:\n        /* \"@openzeppelin/contracts-upgradeable@v4.9.0/access/OwnableUpgradeable.sol\":1513:1519  _owner */\n      and(sub(shl(0xa0, 0x01), 0x01), sload(0x33))\n        /* \"@openzeppelin/contracts-upgradeable@v4.9.0/utils/ContextUpgradeable.sol\":929:939  msg.sender */\n      caller\n        /* \"@openzeppelin/contracts-upgradeable@v4.9.0/access/OwnableUpgradeable.sol\":1662:1685  owner() == _msgSender() */\n      eq\n        /* \"@openzeppelin/contracts-upgradeable@v4.9.0/access/OwnableUpgradeable.sol\":1654:1722  require(owner() == _msgSender(), \"Ownable: caller is not the owner\") */\n      tag_210\n      jumpi\n      mload(0x40)\n      shl(0xe5, 0x461bcd)\n      dup2\n      mstore\n        /* \"#utility.yul\":17291:17293   */\n      0x20\n        /* \"@openzeppelin/contracts-upgradeable@v4.9.0/access/OwnableUpgradeable.sol\":1654:1722  require(owner() == _msgSender(), \"Ownable: caller is not the owner\") */\n      0x04\n      dup3\n      add\n        /* \"#utility.yul\":17273:17294   */\n      dup2\n      swap1\n      mstore\n        /* \"#utility.yul\":17310:17328   */\n      0x24\n      dup3\n      add\n        /* \"#utility.yul\":17303:17333   */\n      mstore\n        /* \"#utility.yul\":17369:17403   */\n      0x4f776e61626c653a2063616c6c6572206973206e6f7420746865206f776e6572\n        /* \"#utility.yul\":17349:17367   */\n      0x44\n      dup3\n      add\n        /* \"#utility.yul\":17342:17404   */\n      mstore\n        /* \"#utility.yul\":17421:17439   */\n      0x64\n      add\n        /* \"@openzeppelin/contracts-upgradeable@v4.9.0/access/OwnableUpgradeable.sol\":1654:1722  require(owner() == _msgSender(), \"Ownable: caller is not the owner\") */\n      tag_308\n        /* \"#utility.yul\":17089:17445   */\n      jump\n        /* \"@openzeppelin/contracts-upgradeable@v4.9.0/access/OwnableUpgradeable.sol\":2666:2853  function _transferOwnership(address newOwner) internal virtual {... */\n    tag_211:\n        /* \"@openzeppelin/contracts-upgradeable@v4.9.0/access/OwnableUpgradeable.sol\":2758:2764  _owner */\n      0x33\n      dup1\n      sload\n      sub(shl(0xa0, 0x01), 0x01)\n        /* \"@openzeppelin/contracts-upgradeable@v4.9.0/access/OwnableUpgradeable.sol\":2774:2791  _owner = newOwner */\n      dup4\n      dup2\n      and\n      not(sub(shl(0xa0, 0x01), 0x01))\n      dup4\n      and\n      dup2\n      or\n      swap1\n      swap4\n      sstore\n        /* \"@openzeppelin/contracts-upgradeable@v4.9.0/access/OwnableUpgradeable.sol\":2806:2846  OwnershipTransferred(oldOwner, newOwner) */\n      mload(0x40)\n        /* \"@openzeppelin/contracts-upgradeable@v4.9.0/access/OwnableUpgradeable.sol\":2758:2764  _owner */\n      swap2\n      and\n      swap2\n        /* \"@openzeppelin/contracts-upgradeable@v4.9.0/access/OwnableUpgradeable.sol\":2774:2791  _owner = newOwner */\n      swap1\n        /* \"@openzeppelin/contracts-upgradeable@v4.9.0/access/OwnableUpgradeable.sol\":2758:2764  _owner */\n      dup3\n      swap1\n        /* \"@openzeppelin/contracts-upgradeable@v4.9.0/access/OwnableUpgradeable.sol\":2806:2846  OwnershipTransferred(oldOwner, newOwner) */\n      0x8be0079c531659141344cd1fd0a4f28419497f9722a3daafe3b4186f6b6457e0\n      swap1\n        /* \"@openzeppelin/contracts-upgradeable@v4.9.0/access/OwnableUpgradeable.sol\":2739:2755  address oldOwner */\n      0x00\n      swap1\n        /* \"@openzeppelin/contracts-upgradeable@v4.9.0/access/OwnableUpgradeable.sol\":2806:2846  OwnershipTransferred(oldOwner, newOwner) */\n      log3\n        /* \"@openzeppelin/contracts-upgradeable@v4.9.0/access/OwnableUpgradeable.sol\":2729:2853  {... */\n      pop\n        /* \"@openzeppelin/contracts-upgradeable@v4.9.0/access/OwnableUpgradeable.sol\":2666:2853  function _transferOwnership(address newOwner) internal virtual {... */\n      pop\n      jump\t// out\n        /* \"GenerateCode.sol\":7993:9900  function _generateCode(... */\n    tag_313:\n        /* \"GenerateCode.sol\":8215:8219  uint */\n      0x00\n        /* \"GenerateCode.sol\":8251:8273  mPackageInfo[codeHash] */\n      dup6\n      dup2\n      mstore\n        /* \"GenerateCode.sol\":8251:8263  mPackageInfo */\n      0x6a\n        /* \"GenerateCode.sol\":8251:8273  mPackageInfo[codeHash] */\n      0x20\n      mstore\n      0x40\n      dup2\n      keccak256\n        /* \"GenerateCode.sol\":8251:8279  mPackageInfo[codeHash].owner */\n      sload\n      sub(shl(0xa0, 0x01), 0x01)\n      and\n        /* \"GenerateCode.sol\":8251:8293  mPackageInfo[codeHash].owner == address(0) */\n      iszero\n        /* \"GenerateCode.sol\":8230:8348  require(... */\n      tag_497\n      jumpi\n      mload(0x40)\n      shl(0xe5, 0x461bcd)\n      dup2\n      mstore\n        /* \"#utility.yul\":17652:17654   */\n      0x20\n        /* \"GenerateCode.sol\":8230:8348  require(... */\n      0x04\n      dup3\n      add\n        /* \"#utility.yul\":17634:17655   */\n      mstore\n        /* \"#utility.yul\":17691:17693   */\n      0x1d\n        /* \"#utility.yul\":17671:17689   */\n      0x24\n      dup3\n      add\n        /* \"#utility.yul\":17664:17694   */\n      mstore\n        /* \"#utility.yul\":17730:17761   */\n      0x4d6574614e6f64653a204475706c696361746520436f64652048617368000000\n        /* \"#utility.yul\":17710:17728   */\n      0x44\n      dup3\n      add\n        /* \"#utility.yul\":17703:17762   */\n      mstore\n        /* \"#utility.yul\":17779:17797   */\n      0x64\n      add\n        /* \"GenerateCode.sol\":8230:8348  require(... */\n      tag_308\n        /* \"#utility.yul\":17450:17803   */\n      jump\n        /* \"GenerateCode.sol\":8230:8348  require(... */\n    tag_497:\n        /* \"GenerateCode.sol\":9026:9623  PackageInfo({... */\n      0x40\n      dup1\n      mload\n      0x01e0\n      dup2\n      add\n      dup3\n      mstore\n      sub(shl(0xa0, 0x01), 0x01)\n      dup10\n      and\n      dup2\n      mstore\n      0x20\n      dup2\n      add\n      dup9\n      swap1\n      mstore\n        /* \"GenerateCode.sol\":8358:8367  uint code */\n      0x00\n        /* \"GenerateCode.sol\":9026:9623  PackageInfo({... */\n      swap2\n      dup2\n      add\n      swap2\n      swap1\n      swap2\n      mstore\n        /* \"GenerateCode.sol\":8375:8383  codeHash */\n      dup7\n      swap1\n        /* \"GenerateCode.sol\":9026:9623  PackageInfo({... */\n      0x60\n      dup2\n      add\n        /* \"GenerateCode.sol\":9159:9184  block.timestamp + 90 days */\n      tag_500\n        /* \"GenerateCode.sol\":9159:9174  block.timestamp */\n      timestamp\n        /* \"GenerateCode.sol\":9177:9184  90 days */\n      0x76a700\n        /* \"GenerateCode.sol\":9159:9184  block.timestamp + 90 days */\n      tag_219\n      jump\t// in\n    tag_500:\n        /* \"GenerateCode.sol\":9026:9623  PackageInfo({... */\n      dup2\n      mstore\n      0x20\n      add\n        /* \"GenerateCode.sol\":9245:9255  _rateBoost */\n      dup6\n        /* \"GenerateCode.sol\":9224:9241  boostSpeedDecimal */\n      sload(0x67)\n        /* \"GenerateCode.sol\":9211:9221  _planPrice */\n      dup9\n        /* \"GenerateCode.sol\":9211:9241  _planPrice * boostSpeedDecimal */\n      tag_501\n      swap2\n      swap1\n      tag_296\n      jump\t// in\n    tag_501:\n        /* \"GenerateCode.sol\":9210:9255  (_planPrice * boostSpeedDecimal) / _rateBoost */\n      tag_502\n      swap2\n      swap1\n      tag_291\n      jump\t// in\n    tag_502:\n        /* \"GenerateCode.sol\":9026:9623  PackageInfo({... */\n      dup2\n      mstore\n      0x20\n      add\n        /* \"GenerateCode.sol\":9280:9296  mValidMiningTime */\n      0x6b\n        /* \"GenerateCode.sol\":9280:9308  mValidMiningTime[_planPrice] */\n      0x00\n        /* \"GenerateCode.sol\":9297:9307  _planPrice */\n      dup9\n        /* \"GenerateCode.sol\":9280:9308  mValidMiningTime[_planPrice] */\n      dup2\n      mstore\n      0x20\n      add\n      swap1\n      dup2\n      mstore\n      0x20\n      add\n      0x00\n      keccak256\n      sload\n        /* \"GenerateCode.sol\":9026:9623  PackageInfo({... */\n      dup2\n      mstore\n      0x20\n      add\n        /* \"GenerateCode.sol\":9333:9343  _rateBoost */\n      dup6\n        /* \"GenerateCode.sol\":9026:9623  PackageInfo({... */\n      dup2\n      mstore\n      0x20\n      add\n        /* \"GenerateCode.sol\":9367:9376  _delegate */\n      dup5\n      sub(shl(0xa0, 0x01), 0x01)\n        /* \"GenerateCode.sol\":9026:9623  PackageInfo({... */\n      and\n      dup2\n      mstore\n      0x20\n      add\n        /* \"GenerateCode.sol\":9398:9413  _isBlock(_lock) */\n      tag_503\n        /* \"GenerateCode.sol\":9407:9412  _lock */\n      dup9\n        /* \"GenerateCode.sol\":9398:9406  _isBlock */\n      tag_504\n        /* \"GenerateCode.sol\":9398:9413  _isBlock(_lock) */\n      jump\t// in\n    tag_503:\n        /* \"GenerateCode.sol\":9026:9623  PackageInfo({... */\n      0x03\n      dup2\n      gt\n      iszero\n      tag_506\n      jumpi\n      tag_506\n      tag_183\n      jump\t// in\n    tag_506:\n      dup2\n      mstore\n      0x40\n      dup1\n      mload\n      dup1\n      dup3\n      add\n      dup3\n      mstore\n      0x08\n      dup2\n      mstore\n      shl(0xc0, 0x4b56454e54555245)\n      0x20\n      dup1\n      dup4\n      add\n      swap2\n      swap1\n      swap2\n      mstore\n      dup1\n      dup5\n      add\n      swap2\n      swap1\n      swap2\n      mstore\n      0x00\n      dup3\n      dup5\n      add\n      dup2\n      swap1\n      mstore\n        /* \"GenerateCode.sol\":9509:9512  100 */\n      0x64\n        /* \"GenerateCode.sol\":9026:9623  PackageInfo({... */\n      0x60\n      dup1\n      dup7\n      add\n      swap2\n      swap1\n      swap2\n      mstore\n      0x80\n      dup1\n      dup7\n      add\n      dup4\n      swap1\n      mstore\n      0xa0\n      dup1\n      dup8\n      add\n      dup5\n      swap1\n      mstore\n      0xc0\n      swap7\n      dup8\n      add\n      dup5\n      swap1\n      mstore\n        /* \"GenerateCode.sol\":9001:9023  mPackageInfo[codeHash] */\n      dup15\n      dup5\n      mstore\n        /* \"GenerateCode.sol\":9001:9013  mPackageInfo */\n      0x6a\n        /* \"GenerateCode.sol\":9001:9023  mPackageInfo[codeHash] */\n      dup6\n      mstore\n      swap3\n      dup6\n      swap1\n      keccak256\n        /* \"GenerateCode.sol\":9001:9623  mPackageInfo[codeHash] = PackageInfo({... */\n      dup8\n      mload\n      dup2\n      sload\n      not(sub(shl(0xa0, 0x01), 0x01))\n      swap1\n      dup2\n      and\n      sub(shl(0xa0, 0x01), 0x01)\n      swap3\n      dup4\n      and\n      or\n      dup4\n      sstore\n      swap6\n      dup10\n      add\n      mload\n      0x01\n      dup4\n      add\n      sstore\n      swap6\n      dup9\n      add\n      mload\n      0x02\n      dup3\n      add\n      sstore\n      swap2\n      dup8\n      add\n      mload\n      0x03\n      dup1\n      dup5\n      add\n      swap2\n      swap1\n      swap2\n      sstore\n      swap1\n      dup8\n      add\n      mload\n      0x04\n      dup4\n      add\n      sstore\n      swap2\n      dup7\n      add\n      mload\n      0x05\n      dup3\n      add\n      sstore\n      swap4\n      dup6\n      add\n      mload\n      0x06\n      dup6\n      add\n      sstore\n      0xe0\n      dup6\n      add\n      mload\n      0x07\n      dup6\n      add\n      dup1\n      sload\n      swap4\n      dup5\n      and\n      swap2\n      swap1\n      swap5\n      and\n      swap1\n      dup2\n      or\n      dup5\n      sstore\n      0x0100\n      dup7\n      add\n      mload\n      swap4\n      swap3\n      not(sub(shl(0xa8, 0x01), 0x01))\n      and\n      or\n      swap1\n      shl(0xa0, 0x01)\n      swap1\n      dup5\n      swap1\n      dup2\n      gt\n      iszero\n      tag_508\n      jumpi\n      tag_508\n      tag_183\n      jump\t// in\n    tag_508:\n      mul\n      or\n      swap1\n      sstore\n      pop\n      0x0120\n      dup3\n      add\n      mload\n      0x08\n      dup3\n      add\n      swap1\n      tag_509\n      swap1\n      dup3\n      tag_510\n      jump\t// in\n    tag_509:\n      pop\n      0x0140\n      dup3\n      add\n      mload\n      0x09\n      dup3\n      add\n      sstore\n      0x0160\n      dup3\n      add\n      mload\n      0x0a\n      dup3\n      add\n      sstore\n      0x0180\n      dup3\n      add\n      mload\n      0x0b\n      dup3\n      add\n      sstore\n      0x01a0\n      dup3\n      add\n      mload\n      0x0c\n      dup3\n      add\n      sstore\n      0x01c0\n      swap1\n      swap2\n      add\n      mload\n      0x0d\n      swap1\n      swap2\n      add\n      sstore\n        /* \"GenerateCode.sol\":9638:9641  nft */\n      sload(0x71)\n        /* \"GenerateCode.sol\":9633:9663  INFT(nft).safeMint(buyer,code) */\n      mload(0x40)\n      shl(0xe2, 0x28512065)\n      dup2\n      mstore\n      sub(shl(0xa0, 0x01), 0x01)\n        /* \"#utility.yul\":13151:13183   */\n      dup11\n      dup2\n      and\n        /* \"GenerateCode.sol\":9633:9663  INFT(nft).safeMint(buyer,code) */\n      0x04\n      dup4\n      add\n        /* \"#utility.yul\":13133:13184   */\n      mstore\n        /* \"#utility.yul\":13200:13218   */\n      0x24\n      dup3\n      add\n        /* \"#utility.yul\":13193:13227   */\n      dup5\n      swap1\n      mstore\n        /* \"GenerateCode.sol\":9638:9641  nft */\n      swap1\n      swap2\n      and\n      swap1\n        /* \"GenerateCode.sol\":9633:9651  INFT(nft).safeMint */\n      0xa1448194\n      swap1\n        /* \"#utility.yul\":13106:13124   */\n      0x44\n      add\n        /* \"GenerateCode.sol\":9633:9663  INFT(nft).safeMint(buyer,code) */\n      0x00\n      mload(0x40)\n      dup1\n      dup4\n      sub\n      dup2\n      0x00\n      dup8\n      dup1\n      extcodesize\n      iszero\n      dup1\n      iszero\n      tag_512\n      jumpi\n      0x00\n      dup1\n      revert\n    tag_512:\n      pop\n      gas\n      call\n      iszero\n      dup1\n      iszero\n      tag_514\n      jumpi\n      returndatasize\n      0x00\n      dup1\n      returndatacopy\n      revert(0x00, returndatasize)\n    tag_514:\n      pop\n      pop\n        /* \"GenerateCode.sol\":9673:9681  codePool */\n      sload(0x6f)\n      0x00\n        /* \"GenerateCode.sol\":9690:9712  mPackageInfo[codeHash] */\n      dup11\n      dup2\n      mstore\n        /* \"GenerateCode.sol\":9690:9702  mPackageInfo */\n      0x6a\n        /* \"GenerateCode.sol\":9690:9712  mPackageInfo[codeHash] */\n      0x20\n      mstore\n      0x40\n      swap1\n      dup2\n      swap1\n      keccak256\n        /* \"GenerateCode.sol\":9673:9713  codePool.addCode(mPackageInfo[codeHash]) */\n      swap1\n      mload\n      shl(0xe1, 0x7c94ac81)\n      dup2\n      mstore\n      sub(shl(0xa0, 0x01), 0x01)\n        /* \"GenerateCode.sol\":9673:9681  codePool */\n      swap1\n      swap3\n      and\n      swap4\n      pop\n        /* \"GenerateCode.sol\":9673:9689  codePool.addCode */\n      0xf9295902\n      swap3\n      pop\n        /* \"GenerateCode.sol\":9673:9713  codePool.addCode(mPackageInfo[codeHash]) */\n      tag_515\n      swap2\n      0x04\n      add\n      tag_516\n      jump\t// in\n    tag_515:\n      0x20\n      mload(0x40)\n      dup1\n      dup4\n      sub\n      dup2\n      0x00\n      dup8\n      gas\n      call\n      iszero\n      dup1\n      iszero\n      tag_518\n      jumpi\n      returndatasize\n      0x00\n      dup1\n      returndatacopy\n      revert(0x00, returndatasize)\n    tag_518:\n      pop\n      pop\n      pop\n      pop\n      mload(0x40)\n      returndatasize\n      not(0x1f)\n      0x1f\n      dup3\n      add\n      and\n      dup3\n      add\n      dup1\n      0x40\n      mstore\n      pop\n      dup2\n      add\n      swap1\n      tag_519\n      swap2\n      swap1\n      tag_520\n      jump\t// in\n    tag_519:\n      pop\n        /* \"GenerateCode.sol\":9889:9893  code */\n      swap8\n        /* \"GenerateCode.sol\":7993:9900  function _generateCode(... */\n      swap7\n      pop\n      pop\n      pop\n      pop\n      pop\n      pop\n      pop\n      jump\t// out\n        /* \"@openzeppelin/contracts-upgradeable@v4.9.0/access/OwnableUpgradeable.sol\":1003:1098  function __Ownable_init() internal onlyInitializing {... */\n    tag_413:\n        /* \"@openzeppelin/contracts-upgradeable@v4.9.0/proxy/utils/Initializable.sol\":5374:5387  _initializing */\n      sload(0x00)\n      0x0100\n      swap1\n      div\n      0xff\n      and\n        /* \"@openzeppelin/contracts-upgradeable@v4.9.0/proxy/utils/Initializable.sol\":5366:5435  require(_initializing, \"Initializable: contract is not initializing\") */\n      tag_523\n      jumpi\n      mload(0x40)\n      shl(0xe5, 0x461bcd)\n      dup2\n      mstore\n      0x04\n      add\n      tag_308\n      swap1\n      tag_525\n      jump\t// in\n    tag_523:\n        /* \"@openzeppelin/contracts-upgradeable@v4.9.0/access/OwnableUpgradeable.sol\":1065:1091  __Ownable_init_unchained() */\n      tag_210\n        /* \"@openzeppelin/contracts-upgradeable@v4.9.0/access/OwnableUpgradeable.sol\":1065:1089  __Ownable_init_unchained */\n      tag_528\n        /* \"@openzeppelin/contracts-upgradeable@v4.9.0/access/OwnableUpgradeable.sol\":1065:1091  __Ownable_init_unchained() */\n      jump\t// in\n        /* \"GenerateCode.sol\":4552:5769  function _initializeConfig() internal {... */\n    tag_416:\n        /* \"GenerateCode.sol\":4631:4642  usdtDecimal */\n      sload(0x66)\n        /* \"GenerateCode.sol\":4623:4642  5_000 * usdtDecimal */\n      tag_389\n      swap1\n        /* \"GenerateCode.sol\":4623:4628  5_000 */\n      0x1388\n        /* \"GenerateCode.sol\":4623:4642  5_000 * usdtDecimal */\n      tag_296\n      jump\t// in\n        /* \"GenerateCode.sol\":11399:11540  function _isBlock(bool lock) internal pure returns (PackageStatus) {... */\n    tag_504:\n        /* \"GenerateCode.sol\":11451:11464  PackageStatus */\n      0x00\n        /* \"GenerateCode.sol\":11483:11487  lock */\n      dup2\n        /* \"GenerateCode.sol\":11483:11533  lock ? PackageStatus.Block : PackageStatus.Unblock */\n      tag_533\n      jumpi\n        /* \"GenerateCode.sol\":11512:11533  PackageStatus.Unblock */\n      0x01\n        /* \"GenerateCode.sol\":11483:11533  lock ? PackageStatus.Block : PackageStatus.Unblock */\n      jump(tag_165)\n    tag_533:\n        /* \"GenerateCode.sol\":11490:11509  PackageStatus.Block */\n      0x00\n        /* \"GenerateCode.sol\":11476:11533  return lock ? PackageStatus.Block : PackageStatus.Unblock */\n      swap3\n        /* \"GenerateCode.sol\":11399:11540  function _isBlock(bool lock) internal pure returns (PackageStatus) {... */\n      swap2\n      pop\n      pop\n      jump\t// out\n        /* \"@openzeppelin/contracts-upgradeable@v4.9.0/access/OwnableUpgradeable.sol\":1104:1215  function __Ownable_init_unchained() internal onlyInitializing {... */\n    tag_528:\n        /* \"@openzeppelin/contracts-upgradeable@v4.9.0/proxy/utils/Initializable.sol\":5374:5387  _initializing */\n      sload(0x00)\n      0x0100\n      swap1\n      div\n      0xff\n      and\n        /* \"@openzeppelin/contracts-upgradeable@v4.9.0/proxy/utils/Initializable.sol\":5366:5435  require(_initializing, \"Initializable: contract is not initializing\") */\n      tag_536\n      jumpi\n      mload(0x40)\n      shl(0xe5, 0x461bcd)\n      dup2\n      mstore\n      0x04\n      add\n      tag_308\n      swap1\n      tag_525\n      jump\t// in\n    tag_536:\n        /* \"@openzeppelin/contracts-upgradeable@v4.9.0/access/OwnableUpgradeable.sol\":1176:1208  _transferOwnership(_msgSender()) */\n      tag_210\n        /* \"@openzeppelin/contracts-upgradeable@v4.9.0/utils/ContextUpgradeable.sol\":929:939  msg.sender */\n      caller\n        /* \"@openzeppelin/contracts-upgradeable@v4.9.0/access/OwnableUpgradeable.sol\":1176:1194  _transferOwnership */\n      tag_211\n        /* \"@openzeppelin/contracts-upgradeable@v4.9.0/access/OwnableUpgradeable.sol\":1176:1208  _transferOwnership(_msgSender()) */\n      jump\t// in\n    tag_194:\n      0x40\n      dup1\n      mload\n      0x01e0\n      dup2\n      add\n      dup3\n      mstore\n      0x00\n      dup1\n      dup3\n      mstore\n      0x20\n      dup3\n      add\n      dup2\n      swap1\n      mstore\n      swap2\n      dup2\n      add\n      dup3\n      swap1\n      mstore\n      0x60\n      dup2\n      add\n      dup3\n      swap1\n      mstore\n      0x80\n      dup2\n      add\n      dup3\n      swap1\n      mstore\n      0xa0\n      dup2\n      add\n      dup3\n      swap1\n      mstore\n      0xc0\n      dup2\n      add\n      dup3\n      swap1\n      mstore\n      0xe0\n      dup2\n      add\n      dup3\n      swap1\n      mstore\n      swap1\n      0x0100\n      dup3\n      add\n      swap1\n      dup2\n      mstore\n      0x20\n      add\n      0x60\n      dup2\n      mstore\n      0x20\n      add\n      0x00\n      dup2\n      mstore\n      0x20\n      add\n      0x00\n      dup2\n      mstore\n      0x20\n      add\n      0x00\n      dup2\n      mstore\n      0x20\n      add\n      0x00\n      dup1\n      not\n      and\n      dup2\n      mstore\n      0x20\n      add\n      0x00\n      dup2\n      mstore\n      pop\n      swap1\n      jump\t// out\n        /* \"#utility.yul\":710:1085   */\n    tag_544:\n        /* \"#utility.yul\":781:789   */\n      0x00\n        /* \"#utility.yul\":791:797   */\n      dup1\n        /* \"#utility.yul\":845:848   */\n      dup4\n        /* \"#utility.yul\":838:842   */\n      0x1f\n        /* \"#utility.yul\":830:836   */\n      dup5\n        /* \"#utility.yul\":826:843   */\n      add\n        /* \"#utility.yul\":822:849   */\n      slt\n        /* \"#utility.yul\":812:867   */\n      tag_563\n      jumpi\n        /* \"#utility.yul\":863:864   */\n      0x00\n        /* \"#utility.yul\":860:861   */\n      dup1\n        /* \"#utility.yul\":853:865   */\n      revert\n        /* \"#utility.yul\":812:867   */\n    tag_563:\n      pop\n        /* \"#utility.yul\":886:906   */\n      dup2\n      calldataload\n        /* \"#utility.yul\":929:947   */\n      0xffffffffffffffff\n        /* \"#utility.yul\":918:948   */\n      dup2\n      gt\n        /* \"#utility.yul\":915:965   */\n      iszero\n      tag_564\n      jumpi\n        /* \"#utility.yul\":961:962   */\n      0x00\n        /* \"#utility.yul\":958:959   */\n      dup1\n        /* \"#utility.yul\":951:963   */\n      revert\n        /* \"#utility.yul\":915:965   */\n    tag_564:\n        /* \"#utility.yul\":998:1002   */\n      0x20\n        /* \"#utility.yul\":990:996   */\n      dup4\n        /* \"#utility.yul\":986:1003   */\n      add\n        /* \"#utility.yul\":974:1003   */\n      swap2\n      pop\n        /* \"#utility.yul\":1058:1061   */\n      dup4\n        /* \"#utility.yul\":1051:1055   */\n      0x20\n        /* \"#utility.yul\":1041:1047   */\n      dup3\n        /* \"#utility.yul\":1038:1039   */\n      0x05\n        /* \"#utility.yul\":1034:1048   */\n      shl\n        /* \"#utility.yul\":1026:1032   */\n      dup6\n        /* \"#utility.yul\":1022:1049   */\n      add\n        /* \"#utility.yul\":1018:1056   */\n      add\n        /* \"#utility.yul\":1015:1062   */\n      gt\n        /* \"#utility.yul\":1012:1079   */\n      iszero\n      tag_319\n      jumpi\n        /* \"#utility.yul\":1075:1076   */\n      0x00\n        /* \"#utility.yul\":1072:1073   */\n      dup1\n        /* \"#utility.yul\":1065:1077   */\n      revert\n        /* \"#utility.yul\":1090:1547   */\n    tag_56:\n        /* \"#utility.yul\":1188:1194   */\n      0x00\n        /* \"#utility.yul\":1196:1202   */\n      dup1\n        /* \"#utility.yul\":1249:1251   */\n      0x20\n        /* \"#utility.yul\":1237:1246   */\n      dup4\n        /* \"#utility.yul\":1228:1235   */\n      dup6\n        /* \"#utility.yul\":1224:1247   */\n      sub\n        /* \"#utility.yul\":1220:1252   */\n      slt\n        /* \"#utility.yul\":1217:1269   */\n      iszero\n      tag_567\n      jumpi\n        /* \"#utility.yul\":1265:1266   */\n      0x00\n        /* \"#utility.yul\":1262:1263   */\n      dup1\n        /* \"#utility.yul\":1255:1267   */\n      revert\n        /* \"#utility.yul\":1217:1269   */\n    tag_567:\n        /* \"#utility.yul\":1305:1314   */\n      dup3\n        /* \"#utility.yul\":1292:1315   */\n      calldataload\n        /* \"#utility.yul\":1338:1356   */\n      0xffffffffffffffff\n        /* \"#utility.yul\":1330:1336   */\n      dup2\n        /* \"#utility.yul\":1327:1357   */\n      gt\n        /* \"#utility.yul\":1324:1374   */\n      iszero\n      tag_568\n      jumpi\n        /* \"#utility.yul\":1370:1371   */\n      0x00\n        /* \"#utility.yul\":1367:1368   */\n      dup1\n        /* \"#utility.yul\":1360:1372   */\n      revert\n        /* \"#utility.yul\":1324:1374   */\n    tag_568:\n        /* \"#utility.yul\":1409:1487   */\n      tag_569\n        /* \"#utility.yul\":1479:1486   */\n      dup6\n        /* \"#utility.yul\":1470:1476   */\n      dup3\n        /* \"#utility.yul\":1459:1468   */\n      dup7\n        /* \"#utility.yul\":1455:1477   */\n      add\n        /* \"#utility.yul\":1409:1487   */\n      tag_544\n      jump\t// in\n    tag_569:\n        /* \"#utility.yul\":1506:1514   */\n      swap1\n      swap7\n        /* \"#utility.yul\":1383:1487   */\n      swap1\n      swap6\n      pop\n        /* \"#utility.yul\":1090:1547   */\n      swap4\n      pop\n      pop\n      pop\n      pop\n      jump\t// out\n        /* \"#utility.yul\":1552:2194   */\n    tag_59:\n        /* \"#utility.yul\":1717:1719   */\n      0x20\n        /* \"#utility.yul\":1769:1790   */\n      dup1\n      dup3\n      mstore\n        /* \"#utility.yul\":1839:1852   */\n      dup3\n      mload\n        /* \"#utility.yul\":1742:1760   */\n      dup3\n      dup3\n      add\n        /* \"#utility.yul\":1861:1883   */\n      dup2\n      swap1\n      mstore\n        /* \"#utility.yul\":1688:1692   */\n      0x00\n      swap2\n        /* \"#utility.yul\":1717:1719   */\n      swap1\n        /* \"#utility.yul\":1940:1955   */\n      dup5\n      dup3\n      add\n      swap1\n        /* \"#utility.yul\":1914:1916   */\n      0x40\n        /* \"#utility.yul\":1899:1917   */\n      dup6\n      add\n      swap1\n        /* \"#utility.yul\":1688:1692   */\n      dup5\n        /* \"#utility.yul\":1983:2168   */\n    tag_571:\n        /* \"#utility.yul\":1997:2003   */\n      dup2\n        /* \"#utility.yul\":1994:1995   */\n      dup2\n        /* \"#utility.yul\":1991:2004   */\n      lt\n        /* \"#utility.yul\":1983:2168   */\n      iszero\n      tag_573\n      jumpi\n        /* \"#utility.yul\":2072:2085   */\n      dup4\n      mload\n        /* \"#utility.yul\":2065:2086   */\n      iszero\n        /* \"#utility.yul\":2058:2087   */\n      iszero\n        /* \"#utility.yul\":2046:2088   */\n      dup4\n      mstore\n        /* \"#utility.yul\":2143:2158   */\n      swap3\n      dup5\n      add\n      swap3\n        /* \"#utility.yul\":2108:2120   */\n      swap2\n      dup5\n      add\n      swap2\n        /* \"#utility.yul\":2019:2020   */\n      0x01\n        /* \"#utility.yul\":2012:2021   */\n      add\n        /* \"#utility.yul\":1983:2168   */\n      jump(tag_571)\n    tag_573:\n      pop\n        /* \"#utility.yul\":2185:2188   */\n      swap1\n      swap7\n        /* \"#utility.yul\":1552:2194   */\n      swap6\n      pop\n      pop\n      pop\n      pop\n      pop\n      pop\n      jump\t// out\n        /* \"#utility.yul\":2424:2604   */\n    tag_78:\n        /* \"#utility.yul\":2483:2489   */\n      0x00\n        /* \"#utility.yul\":2536:2538   */\n      0x20\n        /* \"#utility.yul\":2524:2533   */\n      dup3\n        /* \"#utility.yul\":2515:2522   */\n      dup5\n        /* \"#utility.yul\":2511:2534   */\n      sub\n        /* \"#utility.yul\":2507:2539   */\n      slt\n        /* \"#utility.yul\":2504:2556   */\n      iszero\n      tag_576\n      jumpi\n        /* \"#utility.yul\":2552:2553   */\n      0x00\n        /* \"#utility.yul\":2549:2550   */\n      dup1\n        /* \"#utility.yul\":2542:2554   */\n      revert\n        /* \"#utility.yul\":2504:2556   */\n    tag_576:\n      pop\n        /* \"#utility.yul\":2575:2598   */\n      calldataload\n      swap2\n        /* \"#utility.yul\":2424:2604   */\n      swap1\n      pop\n      jump\t// out\n        /* \"#utility.yul\":2609:2736   */\n    tag_183:\n        /* \"#utility.yul\":2670:2680   */\n      0x4e487b71\n        /* \"#utility.yul\":2665:2668   */\n      0xe0\n        /* \"#utility.yul\":2661:2681   */\n      shl\n        /* \"#utility.yul\":2658:2659   */\n      0x00\n        /* \"#utility.yul\":2651:2682   */\n      mstore\n        /* \"#utility.yul\":2701:2705   */\n      0x21\n        /* \"#utility.yul\":2698:2699   */\n      0x04\n        /* \"#utility.yul\":2691:2706   */\n      mstore\n        /* \"#utility.yul\":2725:2729   */\n      0x24\n        /* \"#utility.yul\":2722:2723   */\n      0x00\n        /* \"#utility.yul\":2715:2730   */\n      revert\n        /* \"#utility.yul\":2741:2982   */\n    tag_545:\n        /* \"#utility.yul\":2826:2827   */\n      0x04\n        /* \"#utility.yul\":2819:2824   */\n      dup2\n        /* \"#utility.yul\":2816:2828   */\n      lt\n        /* \"#utility.yul\":2806:2949   */\n      tag_579\n      jumpi\n        /* \"#utility.yul\":2871:2881   */\n      0x4e487b71\n        /* \"#utility.yul\":2866:2869   */\n      0xe0\n        /* \"#utility.yul\":2862:2882   */\n      shl\n        /* \"#utility.yul\":2859:2860   */\n      0x00\n        /* \"#utility.yul\":2852:2883   */\n      mstore\n        /* \"#utility.yul\":2906:2910   */\n      0x21\n        /* \"#utility.yul\":2903:2904   */\n      0x04\n        /* \"#utility.yul\":2896:2911   */\n      mstore\n        /* \"#utility.yul\":2934:2938   */\n      0x24\n        /* \"#utility.yul\":2931:2932   */\n      0x00\n        /* \"#utility.yul\":2924:2939   */\n      revert\n        /* \"#utility.yul\":2806:2949   */\n    tag_579:\n        /* \"#utility.yul\":2958:2976   */\n      swap1\n      mstore\n        /* \"#utility.yul\":2741:2982   */\n      jump\t// out\n        /* \"#utility.yul\":2987:3410   */\n    tag_546:\n        /* \"#utility.yul\":3029:3032   */\n      0x00\n        /* \"#utility.yul\":3067:3072   */\n      dup2\n        /* \"#utility.yul\":3061:3073   */\n      mload\n        /* \"#utility.yul\":3094:3100   */\n      dup1\n        /* \"#utility.yul\":3089:3092   */\n      dup5\n        /* \"#utility.yul\":3082:3101   */\n      mstore\n        /* \"#utility.yul\":3119:3120   */\n      0x00\n        /* \"#utility.yul\":3129:3291   */\n    tag_581:\n        /* \"#utility.yul\":3143:3149   */\n      dup2\n        /* \"#utility.yul\":3140:3141   */\n      dup2\n        /* \"#utility.yul\":3137:3150   */\n      lt\n        /* \"#utility.yul\":3129:3291   */\n      iszero\n      tag_583\n      jumpi\n        /* \"#utility.yul\":3205:3209   */\n      0x20\n        /* \"#utility.yul\":3261:3274   */\n      dup2\n      dup6\n      add\n        /* \"#utility.yul\":3257:3279   */\n      dup2\n      add\n        /* \"#utility.yul\":3251:3280   */\n      mload\n        /* \"#utility.yul\":3233:3244   */\n      dup7\n      dup4\n      add\n        /* \"#utility.yul\":3229:3249   */\n      dup3\n      add\n        /* \"#utility.yul\":3222:3281   */\n      mstore\n        /* \"#utility.yul\":3158:3170   */\n      add\n        /* \"#utility.yul\":3129:3291   */\n      jump(tag_581)\n    tag_583:\n        /* \"#utility.yul\":3133:3136   */\n      pop\n        /* \"#utility.yul\":3336:3337   */\n      0x00\n        /* \"#utility.yul\":3329:3333   */\n      0x20\n        /* \"#utility.yul\":3320:3326   */\n      dup3\n        /* \"#utility.yul\":3315:3318   */\n      dup7\n        /* \"#utility.yul\":3311:3327   */\n      add\n        /* \"#utility.yul\":3307:3334   */\n      add\n        /* \"#utility.yul\":3300:3338   */\n      mstore\n        /* \"#utility.yul\":3399:3403   */\n      0x20\n        /* \"#utility.yul\":3392:3394   */\n      0x1f\n        /* \"#utility.yul\":3388:3395   */\n      not\n        /* \"#utility.yul\":3383:3385   */\n      0x1f\n        /* \"#utility.yul\":3375:3381   */\n      dup4\n        /* \"#utility.yul\":3371:3386   */\n      add\n        /* \"#utility.yul\":3367:3396   */\n      and\n        /* \"#utility.yul\":3362:3365   */\n      dup6\n        /* \"#utility.yul\":3358:3397   */\n      add\n        /* \"#utility.yul\":3354:3404   */\n      add\n        /* \"#utility.yul\":3347:3404   */\n      swap2\n      pop\n      pop\n        /* \"#utility.yul\":2987:3410   */\n      swap3\n      swap2\n      pop\n      pop\n      jump\t// out\n        /* \"#utility.yul\":3415:4728   */\n    tag_547:\n        /* \"#utility.yul\":3531:3543   */\n      dup1\n      mload\n      sub(shl(0xa0, 0x01), 0x01)\n        /* \"#utility.yul\":459:490   */\n      and\n        /* \"#utility.yul\":447:491   */\n      dup3\n      mstore\n        /* \"#utility.yul\":3469:3472   */\n      0x00\n        /* \"#utility.yul\":3497:3503   */\n      0x01e0\n        /* \"#utility.yul\":3598:3602   */\n      0x20\n        /* \"#utility.yul\":3591:3596   */\n      dup4\n        /* \"#utility.yul\":3587:3603   */\n      add\n        /* \"#utility.yul\":3581:3604   */\n      mload\n        /* \"#utility.yul\":3574:3578   */\n      0x20\n        /* \"#utility.yul\":3569:3572   */\n      dup6\n        /* \"#utility.yul\":3565:3579   */\n      add\n        /* \"#utility.yul\":3558:3605   */\n      mstore\n        /* \"#utility.yul\":3654:3658   */\n      0x40\n        /* \"#utility.yul\":3647:3652   */\n      dup4\n        /* \"#utility.yul\":3643:3659   */\n      add\n        /* \"#utility.yul\":3637:3660   */\n      mload\n        /* \"#utility.yul\":3630:3634   */\n      0x40\n        /* \"#utility.yul\":3625:3628   */\n      dup6\n        /* \"#utility.yul\":3621:3635   */\n      add\n        /* \"#utility.yul\":3614:3661   */\n      mstore\n        /* \"#utility.yul\":3710:3714   */\n      0x60\n        /* \"#utility.yul\":3703:3708   */\n      dup4\n        /* \"#utility.yul\":3699:3715   */\n      add\n        /* \"#utility.yul\":3693:3716   */\n      mload\n        /* \"#utility.yul\":3686:3690   */\n      0x60\n        /* \"#utility.yul\":3681:3684   */\n      dup6\n        /* \"#utility.yul\":3677:3691   */\n      add\n        /* \"#utility.yul\":3670:3717   */\n      mstore\n        /* \"#utility.yul\":3766:3770   */\n      0x80\n        /* \"#utility.yul\":3759:3764   */\n      dup4\n        /* \"#utility.yul\":3755:3771   */\n      add\n        /* \"#utility.yul\":3749:3772   */\n      mload\n        /* \"#utility.yul\":3742:3746   */\n      0x80\n        /* \"#utility.yul\":3737:3740   */\n      dup6\n        /* \"#utility.yul\":3733:3747   */\n      add\n        /* \"#utility.yul\":3726:3773   */\n      mstore\n        /* \"#utility.yul\":3822:3826   */\n      0xa0\n        /* \"#utility.yul\":3815:3820   */\n      dup4\n        /* \"#utility.yul\":3811:3827   */\n      add\n        /* \"#utility.yul\":3805:3828   */\n      mload\n        /* \"#utility.yul\":3798:3802   */\n      0xa0\n        /* \"#utility.yul\":3793:3796   */\n      dup6\n        /* \"#utility.yul\":3789:3803   */\n      add\n        /* \"#utility.yul\":3782:3829   */\n      mstore\n        /* \"#utility.yul\":3878:3882   */\n      0xc0\n        /* \"#utility.yul\":3871:3876   */\n      dup4\n        /* \"#utility.yul\":3867:3883   */\n      add\n        /* \"#utility.yul\":3861:3884   */\n      mload\n        /* \"#utility.yul\":3854:3858   */\n      0xc0\n        /* \"#utility.yul\":3849:3852   */\n      dup6\n        /* \"#utility.yul\":3845:3859   */\n      add\n        /* \"#utility.yul\":3838:3885   */\n      mstore\n        /* \"#utility.yul\":3931:3935   */\n      0xe0\n        /* \"#utility.yul\":3924:3929   */\n      dup4\n        /* \"#utility.yul\":3920:3936   */\n      add\n        /* \"#utility.yul\":3914:3937   */\n      mload\n        /* \"#utility.yul\":3946:3994   */\n      tag_586\n        /* \"#utility.yul\":3988:3992   */\n      0xe0\n        /* \"#utility.yul\":3983:3986   */\n      dup7\n        /* \"#utility.yul\":3979:3993   */\n      add\n        /* \"#utility.yul\":3965:3977   */\n      dup3\n      sub(shl(0xa0, 0x01), 0x01)\n        /* \"#utility.yul\":459:490   */\n      and\n        /* \"#utility.yul\":447:491   */\n      swap1\n      mstore\n        /* \"#utility.yul\":393:497   */\n      jump\n        /* \"#utility.yul\":3946:3994   */\n    tag_586:\n      pop\n        /* \"#utility.yul\":4013:4019   */\n      0x0100\n        /* \"#utility.yul\":4067:4069   */\n      dup1\n        /* \"#utility.yul\":4060:4065   */\n      dup5\n        /* \"#utility.yul\":4056:4070   */\n      add\n        /* \"#utility.yul\":4050:4071   */\n      mload\n        /* \"#utility.yul\":4080:4139   */\n      tag_587\n        /* \"#utility.yul\":4135:4137   */\n      dup3\n        /* \"#utility.yul\":4130:4133   */\n      dup8\n        /* \"#utility.yul\":4126:4138   */\n      add\n        /* \"#utility.yul\":4110:4124   */\n      dup3\n        /* \"#utility.yul\":4080:4139   */\n      tag_545\n      jump\t// in\n    tag_587:\n      pop\n      pop\n        /* \"#utility.yul\":4158:4164   */\n      0x0120\n        /* \"#utility.yul\":4212:4214   */\n      dup1\n        /* \"#utility.yul\":4205:4210   */\n      dup5\n        /* \"#utility.yul\":4201:4215   */\n      add\n        /* \"#utility.yul\":4195:4216   */\n      mload\n        /* \"#utility.yul\":4246:4248   */\n      dup3\n        /* \"#utility.yul\":4241:4243   */\n      dup3\n        /* \"#utility.yul\":4236:4239   */\n      dup8\n        /* \"#utility.yul\":4232:4244   */\n      add\n        /* \"#utility.yul\":4225:4249   */\n      mstore\n        /* \"#utility.yul\":4270:4317   */\n      tag_588\n        /* \"#utility.yul\":4313:4315   */\n      dup4\n        /* \"#utility.yul\":4308:4311   */\n      dup8\n        /* \"#utility.yul\":4304:4316   */\n      add\n        /* \"#utility.yul\":4288:4302   */\n      dup3\n        /* \"#utility.yul\":4270:4317   */\n      tag_546\n      jump\t// in\n    tag_588:\n        /* \"#utility.yul\":4336:4342   */\n      0x0140\n        /* \"#utility.yul\":4378:4392   */\n      dup7\n      dup2\n      add\n        /* \"#utility.yul\":4372:4393   */\n      mload\n        /* \"#utility.yul\":4358:4370   */\n      swap1\n      dup9\n      add\n        /* \"#utility.yul\":4351:4394   */\n      mstore\n        /* \"#utility.yul\":4413:4419   */\n      0x0160\n        /* \"#utility.yul\":4455:4469   */\n      dup1\n      dup8\n      add\n        /* \"#utility.yul\":4449:4470   */\n      mload\n        /* \"#utility.yul\":4435:4447   */\n      swap1\n      dup9\n      add\n        /* \"#utility.yul\":4428:4471   */\n      mstore\n        /* \"#utility.yul\":4490:4496   */\n      0x0180\n        /* \"#utility.yul\":4532:4546   */\n      dup1\n      dup8\n      add\n        /* \"#utility.yul\":4526:4547   */\n      mload\n        /* \"#utility.yul\":4512:4524   */\n      swap1\n      dup9\n      add\n        /* \"#utility.yul\":4505:4548   */\n      mstore\n        /* \"#utility.yul\":4567:4573   */\n      0x01a0\n        /* \"#utility.yul\":4609:4623   */\n      dup1\n      dup8\n      add\n        /* \"#utility.yul\":4603:4624   */\n      mload\n        /* \"#utility.yul\":4589:4601   */\n      swap1\n      dup9\n      add\n        /* \"#utility.yul\":4582:4625   */\n      mstore\n        /* \"#utility.yul\":4644:4650   */\n      0x01c0\n        /* \"#utility.yul\":4686:4700   */\n      swap6\n      dup7\n      add\n        /* \"#utility.yul\":4680:4701   */\n      mload\n        /* \"#utility.yul\":4666:4678   */\n      swap6\n      swap1\n      swap7\n      add\n        /* \"#utility.yul\":4659:4702   */\n      swap5\n      swap1\n      swap5\n      mstore\n      pop\n        /* \"#utility.yul\":4258:4317   */\n      swap3\n      swap4\n        /* \"#utility.yul\":3415:4728   */\n      swap3\n      pop\n      pop\n      pop\n      jump\t// out\n        /* \"#utility.yul\":4733:5001   */\n    tag_81:\n        /* \"#utility.yul\":4918:4920   */\n      0x20\n        /* \"#utility.yul\":4907:4916   */\n      dup2\n        /* \"#utility.yul\":4900:4921   */\n      mstore\n        /* \"#utility.yul\":4881:4885   */\n      0x00\n        /* \"#utility.yul\":4938:4995   */\n      tag_590\n        /* \"#utility.yul\":4991:4993   */\n      0x20\n        /* \"#utility.yul\":4980:4989   */\n      dup4\n        /* \"#utility.yul\":4976:4994   */\n      add\n        /* \"#utility.yul\":4968:4974   */\n      dup5\n        /* \"#utility.yul\":4938:4995   */\n      tag_547\n      jump\t// in\n    tag_590:\n        /* \"#utility.yul\":4930:4995   */\n      swap4\n        /* \"#utility.yul\":4733:5001   */\n      swap3\n      pop\n      pop\n      pop\n      jump\t// out\n        /* \"#utility.yul\":5006:5169   */\n    tag_548:\n        /* \"#utility.yul\":5073:5093   */\n      dup1\n      calldataload\n        /* \"#utility.yul\":5133:5143   */\n      0xffffffff\n        /* \"#utility.yul\":5122:5144   */\n      dup2\n      and\n        /* \"#utility.yul\":5112:5145   */\n      dup2\n      eq\n        /* \"#utility.yul\":5102:5163   */\n      tag_592\n      jumpi\n        /* \"#utility.yul\":5159:5160   */\n      0x00\n        /* \"#utility.yul\":5156:5157   */\n      dup1\n        /* \"#utility.yul\":5149:5161   */\n      revert\n        /* \"#utility.yul\":5102:5163   */\n    tag_592:\n        /* \"#utility.yul\":5006:5169   */\n      swap2\n      swap1\n      pop\n      jump\t// out\n        /* \"#utility.yul\":5174:5358   */\n    tag_86:\n        /* \"#utility.yul\":5232:5238   */\n      0x00\n        /* \"#utility.yul\":5285:5287   */\n      0x20\n        /* \"#utility.yul\":5273:5282   */\n      dup3\n        /* \"#utility.yul\":5264:5271   */\n      dup5\n        /* \"#utility.yul\":5260:5283   */\n      sub\n        /* \"#utility.yul\":5256:5288   */\n      slt\n        /* \"#utility.yul\":5253:5305   */\n      iszero\n      tag_594\n      jumpi\n        /* \"#utility.yul\":5301:5302   */\n      0x00\n        /* \"#utility.yul\":5298:5299   */\n      dup1\n        /* \"#utility.yul\":5291:5303   */\n      revert\n        /* \"#utility.yul\":5253:5305   */\n    tag_594:\n        /* \"#utility.yul\":5324:5352   */\n      tag_590\n        /* \"#utility.yul\":5342:5351   */\n      dup3\n        /* \"#utility.yul\":5324:5352   */\n      tag_548\n      jump\t// in\n        /* \"#utility.yul\":5363:6295   */\n    tag_89:\n        /* \"#utility.yul\":5583:5587   */\n      0x00\n        /* \"#utility.yul\":5631:5633   */\n      0x40\n        /* \"#utility.yul\":5620:5629   */\n      dup3\n        /* \"#utility.yul\":5616:5634   */\n      add\n        /* \"#utility.yul\":5675:5681   */\n      dup5\n        /* \"#utility.yul\":5668:5682   */\n      iszero\n        /* \"#utility.yul\":5661:5683   */\n      iszero\n        /* \"#utility.yul\":5650:5659   */\n      dup4\n        /* \"#utility.yul\":5643:5684   */\n      mstore\n        /* \"#utility.yul\":5703:5705   */\n      0x20\n        /* \"#utility.yul\":5741:5743   */\n      0x40\n        /* \"#utility.yul\":5736:5738   */\n      dup2\n        /* \"#utility.yul\":5725:5734   */\n      dup6\n        /* \"#utility.yul\":5721:5739   */\n      add\n        /* \"#utility.yul\":5714:5744   */\n      mstore\n        /* \"#utility.yul\":5764:5770   */\n      dup2\n        /* \"#utility.yul\":5799:5805   */\n      dup6\n        /* \"#utility.yul\":5793:5806   */\n      mload\n        /* \"#utility.yul\":5830:5836   */\n      dup1\n        /* \"#utility.yul\":5822:5828   */\n      dup5\n        /* \"#utility.yul\":5815:5837   */\n      mstore\n        /* \"#utility.yul\":5868:5870   */\n      0x60\n        /* \"#utility.yul\":5857:5866   */\n      dup7\n        /* \"#utility.yul\":5853:5871   */\n      add\n        /* \"#utility.yul\":5846:5871   */\n      swap2\n      pop\n        /* \"#utility.yul\":5930:5932   */\n      0x60\n        /* \"#utility.yul\":5920:5926   */\n      dup2\n        /* \"#utility.yul\":5917:5918   */\n      0x05\n        /* \"#utility.yul\":5913:5927   */\n      shl\n        /* \"#utility.yul\":5902:5911   */\n      dup8\n        /* \"#utility.yul\":5898:5928   */\n      add\n        /* \"#utility.yul\":5894:5933   */\n      add\n        /* \"#utility.yul\":5880:5933   */\n      swap4\n      pop\n        /* \"#utility.yul\":5968:5970   */\n      dup3\n        /* \"#utility.yul\":5960:5966   */\n      dup8\n        /* \"#utility.yul\":5956:5971   */\n      add\n        /* \"#utility.yul\":5989:5990   */\n      0x00\n        /* \"#utility.yul\":5999:6266   */\n    tag_597:\n        /* \"#utility.yul\":6013:6019   */\n      dup3\n        /* \"#utility.yul\":6010:6011   */\n      dup2\n        /* \"#utility.yul\":6007:6020   */\n      lt\n        /* \"#utility.yul\":5999:6266   */\n      iszero\n      tag_599\n      jumpi\n        /* \"#utility.yul\":6106:6108   */\n      0x5f\n        /* \"#utility.yul\":6102:6109   */\n      not\n        /* \"#utility.yul\":6090:6099   */\n      dup9\n        /* \"#utility.yul\":6082:6088   */\n      dup8\n        /* \"#utility.yul\":6078:6100   */\n      sub\n        /* \"#utility.yul\":6074:6110   */\n      add\n        /* \"#utility.yul\":6069:6072   */\n      dup5\n        /* \"#utility.yul\":6062:6111   */\n      mstore\n        /* \"#utility.yul\":6134:6186   */\n      tag_600\n        /* \"#utility.yul\":6179:6185   */\n      dup7\n        /* \"#utility.yul\":6170:6176   */\n      dup4\n        /* \"#utility.yul\":6164:6177   */\n      mload\n        /* \"#utility.yul\":6134:6186   */\n      tag_547\n      jump\t// in\n    tag_600:\n        /* \"#utility.yul\":6124:6186   */\n      swap6\n      pop\n        /* \"#utility.yul\":6244:6256   */\n      swap3\n      dup5\n      add\n      swap3\n        /* \"#utility.yul\":6209:6224   */\n      swap1\n      dup5\n      add\n      swap1\n        /* \"#utility.yul\":6035:6036   */\n      0x01\n        /* \"#utility.yul\":6028:6037   */\n      add\n        /* \"#utility.yul\":5999:6266   */\n      jump(tag_597)\n    tag_599:\n      pop\n        /* \"#utility.yul\":6283:6289   */\n      swap4\n      swap9\n        /* \"#utility.yul\":5363:6295   */\n      swap8\n      pop\n      pop\n      pop\n      pop\n      pop\n      pop\n      pop\n      pop\n      jump\t// out\n        /* \"#utility.yul\":6300:6473   */\n    tag_549:\n        /* \"#utility.yul\":6368:6388   */\n      dup1\n      calldataload\n      sub(shl(0xa0, 0x01), 0x01)\n        /* \"#utility.yul\":6417:6448   */\n      dup2\n      and\n        /* \"#utility.yul\":6407:6449   */\n      dup2\n      eq\n        /* \"#utility.yul\":6397:6467   */\n      tag_592\n      jumpi\n        /* \"#utility.yul\":6463:6464   */\n      0x00\n        /* \"#utility.yul\":6460:6461   */\n      dup1\n        /* \"#utility.yul\":6453:6465   */\n      revert\n        /* \"#utility.yul\":6478:6732   */\n    tag_104:\n        /* \"#utility.yul\":6546:6552   */\n      0x00\n        /* \"#utility.yul\":6554:6560   */\n      dup1\n        /* \"#utility.yul\":6607:6609   */\n      0x40\n        /* \"#utility.yul\":6595:6604   */\n      dup4\n        /* \"#utility.yul\":6586:6593   */\n      dup6\n        /* \"#utility.yul\":6582:6605   */\n      sub\n        /* \"#utility.yul\":6578:6610   */\n      slt\n        /* \"#utility.yul\":6575:6627   */\n      iszero\n      tag_604\n      jumpi\n        /* \"#utility.yul\":6623:6624   */\n      0x00\n        /* \"#utility.yul\":6620:6621   */\n      dup1\n        /* \"#utility.yul\":6613:6625   */\n      revert\n        /* \"#utility.yul\":6575:6627   */\n    tag_604:\n        /* \"#utility.yul\":6646:6675   */\n      tag_605\n        /* \"#utility.yul\":6665:6674   */\n      dup4\n        /* \"#utility.yul\":6646:6675   */\n      tag_549\n      jump\t// in\n    tag_605:\n        /* \"#utility.yul\":6636:6675   */\n      swap5\n        /* \"#utility.yul\":6722:6724   */\n      0x20\n        /* \"#utility.yul\":6707:6725   */\n      swap4\n      swap1\n      swap4\n      add\n        /* \"#utility.yul\":6694:6726   */\n      calldataload\n      swap4\n      pop\n      pop\n      pop\n        /* \"#utility.yul\":6478:6732   */\n      jump\t// out\n        /* \"#utility.yul\":6929:7115   */\n    tag_110:\n        /* \"#utility.yul\":6988:6994   */\n      0x00\n        /* \"#utility.yul\":7041:7043   */\n      0x20\n        /* \"#utility.yul\":7029:7038   */\n      dup3\n        /* \"#utility.yul\":7020:7027   */\n      dup5\n        /* \"#utility.yul\":7016:7039   */\n      sub\n        /* \"#utility.yul\":7012:7044   */\n      slt\n        /* \"#utility.yul\":7009:7061   */\n      iszero\n      tag_608\n      jumpi\n        /* \"#utility.yul\":7057:7058   */\n      0x00\n        /* \"#utility.yul\":7054:7055   */\n      dup1\n        /* \"#utility.yul\":7047:7059   */\n      revert\n        /* \"#utility.yul\":7009:7061   */\n    tag_608:\n        /* \"#utility.yul\":7080:7109   */\n      tag_590\n        /* \"#utility.yul\":7099:7108   */\n      dup3\n        /* \"#utility.yul\":7080:7109   */\n      tag_549\n      jump\t// in\n        /* \"#utility.yul\":7120:7378   */\n    tag_117:\n        /* \"#utility.yul\":7187:7193   */\n      0x00\n        /* \"#utility.yul\":7195:7201   */\n      dup1\n        /* \"#utility.yul\":7248:7250   */\n      0x40\n        /* \"#utility.yul\":7236:7245   */\n      dup4\n        /* \"#utility.yul\":7227:7234   */\n      dup6\n        /* \"#utility.yul\":7223:7246   */\n      sub\n        /* \"#utility.yul\":7219:7251   */\n      slt\n        /* \"#utility.yul\":7216:7268   */\n      iszero\n      tag_611\n      jumpi\n        /* \"#utility.yul\":7264:7265   */\n      0x00\n        /* \"#utility.yul\":7261:7262   */\n      dup1\n        /* \"#utility.yul\":7254:7266   */\n      revert\n        /* \"#utility.yul\":7216:7268   */\n    tag_611:\n        /* \"#utility.yul\":7287:7315   */\n      tag_612\n        /* \"#utility.yul\":7305:7314   */\n      dup4\n        /* \"#utility.yul\":7287:7315   */\n      tag_548\n      jump\t// in\n    tag_612:\n        /* \"#utility.yul\":7277:7315   */\n      swap2\n      pop\n        /* \"#utility.yul\":7334:7372   */\n      tag_613\n        /* \"#utility.yul\":7368:7370   */\n      0x20\n        /* \"#utility.yul\":7357:7366   */\n      dup5\n        /* \"#utility.yul\":7353:7371   */\n      add\n        /* \"#utility.yul\":7334:7372   */\n      tag_549\n      jump\t// in\n    tag_613:\n        /* \"#utility.yul\":7324:7372   */\n      swap1\n      pop\n        /* \"#utility.yul\":7120:7378   */\n      swap3\n      pop\n      swap3\n      swap1\n      pop\n      jump\t// out\n        /* \"#utility.yul\":7568:8245   */\n    tag_138:\n        /* \"#utility.yul\":7867:7873   */\n      dup7\n        /* \"#utility.yul\":7856:7865   */\n      dup2\n        /* \"#utility.yul\":7849:7874   */\n      mstore\n        /* \"#utility.yul\":7910:7913   */\n      0xc0\n        /* \"#utility.yul\":7905:7907   */\n      0x20\n        /* \"#utility.yul\":7894:7903   */\n      dup3\n        /* \"#utility.yul\":7890:7908   */\n      add\n        /* \"#utility.yul\":7883:7914   */\n      mstore\n        /* \"#utility.yul\":7830:7834   */\n      0x00\n        /* \"#utility.yul\":7937:7983   */\n      tag_617\n        /* \"#utility.yul\":7978:7981   */\n      0xc0\n        /* \"#utility.yul\":7967:7976   */\n      dup4\n        /* \"#utility.yul\":7963:7982   */\n      add\n        /* \"#utility.yul\":7955:7961   */\n      dup9\n        /* \"#utility.yul\":7937:7983   */\n      tag_546\n      jump\t// in\n    tag_617:\n        /* \"#utility.yul\":8019:8025   */\n      dup7\n        /* \"#utility.yul\":8014:8016   */\n      0x40\n        /* \"#utility.yul\":8003:8012   */\n      dup5\n        /* \"#utility.yul\":7999:8017   */\n      add\n        /* \"#utility.yul\":7992:8026   */\n      mstore\n        /* \"#utility.yul\":8062:8068   */\n      dup6\n        /* \"#utility.yul\":8057:8059   */\n      0x60\n        /* \"#utility.yul\":8046:8055   */\n      dup5\n        /* \"#utility.yul\":8042:8060   */\n      add\n        /* \"#utility.yul\":8035:8069   */\n      mstore\n        /* \"#utility.yul\":8118:8127   */\n      dup3\n        /* \"#utility.yul\":8110:8116   */\n      dup2\n        /* \"#utility.yul\":8106:8128   */\n      sub\n        /* \"#utility.yul\":8100:8103   */\n      0x80\n        /* \"#utility.yul\":8089:8098   */\n      dup5\n        /* \"#utility.yul\":8085:8104   */\n      add\n        /* \"#utility.yul\":8078:8129   */\n      mstore\n        /* \"#utility.yul\":8146:8179   */\n      tag_618\n        /* \"#utility.yul\":8172:8178   */\n      dup2\n        /* \"#utility.yul\":8164:8170   */\n      dup7\n        /* \"#utility.yul\":8146:8179   */\n      tag_546\n      jump\t// in\n    tag_618:\n        /* \"#utility.yul\":8138:8179   */\n      swap2\n      pop\n      pop\n        /* \"#utility.yul\":8230:8236   */\n      dup3\n        /* \"#utility.yul\":8223:8237   */\n      iszero\n        /* \"#utility.yul\":8216:8238   */\n      iszero\n        /* \"#utility.yul\":8210:8213   */\n      0xa0\n        /* \"#utility.yul\":8199:8208   */\n      dup4\n        /* \"#utility.yul\":8195:8214   */\n      add\n        /* \"#utility.yul\":8188:8239   */\n      mstore\n        /* \"#utility.yul\":7568:8245   */\n      swap8\n      swap7\n      pop\n      pop\n      pop\n      pop\n      pop\n      pop\n      pop\n      jump\t// out\n        /* \"#utility.yul\":8250:8809   */\n    tag_141:\n        /* \"#utility.yul\":8354:8360   */\n      0x00\n        /* \"#utility.yul\":8362:8368   */\n      dup1\n        /* \"#utility.yul\":8370:8376   */\n      0x00\n        /* \"#utility.yul\":8378:8384   */\n      dup1\n        /* \"#utility.yul\":8386:8392   */\n      0x00\n        /* \"#utility.yul\":8394:8400   */\n      dup1\n        /* \"#utility.yul\":8447:8450   */\n      0xc0\n        /* \"#utility.yul\":8435:8444   */\n      dup8\n        /* \"#utility.yul\":8426:8433   */\n      dup10\n        /* \"#utility.yul\":8422:8445   */\n      sub\n        /* \"#utility.yul\":8418:8451   */\n      slt\n        /* \"#utility.yul\":8415:8468   */\n      iszero\n      tag_620\n      jumpi\n        /* \"#utility.yul\":8464:8465   */\n      0x00\n        /* \"#utility.yul\":8461:8462   */\n      dup1\n        /* \"#utility.yul\":8454:8466   */\n      revert\n        /* \"#utility.yul\":8415:8468   */\n    tag_620:\n        /* \"#utility.yul\":8487:8516   */\n      tag_621\n        /* \"#utility.yul\":8506:8515   */\n      dup8\n        /* \"#utility.yul\":8487:8516   */\n      tag_549\n      jump\t// in\n    tag_621:\n        /* \"#utility.yul\":8477:8516   */\n      swap6\n      pop\n        /* \"#utility.yul\":8535:8573   */\n      tag_622\n        /* \"#utility.yul\":8569:8571   */\n      0x20\n        /* \"#utility.yul\":8558:8567   */\n      dup9\n        /* \"#utility.yul\":8554:8572   */\n      add\n        /* \"#utility.yul\":8535:8573   */\n      tag_549\n      jump\t// in\n    tag_622:\n        /* \"#utility.yul\":8525:8573   */\n      swap5\n      pop\n        /* \"#utility.yul\":8592:8630   */\n      tag_623\n        /* \"#utility.yul\":8626:8628   */\n      0x40\n        /* \"#utility.yul\":8615:8624   */\n      dup9\n        /* \"#utility.yul\":8611:8629   */\n      add\n        /* \"#utility.yul\":8592:8630   */\n      tag_549\n      jump\t// in\n    tag_623:\n        /* \"#utility.yul\":8582:8630   */\n      swap4\n      pop\n        /* \"#utility.yul\":8649:8687   */\n      tag_624\n        /* \"#utility.yul\":8683:8685   */\n      0x60\n        /* \"#utility.yul\":8672:8681   */\n      dup9\n        /* \"#utility.yul\":8668:8686   */\n      add\n        /* \"#utility.yul\":8649:8687   */\n      tag_549\n      jump\t// in\n    tag_624:\n        /* \"#utility.yul\":8639:8687   */\n      swap3\n      pop\n        /* \"#utility.yul\":8706:8745   */\n      tag_625\n        /* \"#utility.yul\":8740:8743   */\n      0x80\n        /* \"#utility.yul\":8729:8738   */\n      dup9\n        /* \"#utility.yul\":8725:8744   */\n      add\n        /* \"#utility.yul\":8706:8745   */\n      tag_549\n      jump\t// in\n    tag_625:\n        /* \"#utility.yul\":8696:8745   */\n      swap2\n      pop\n        /* \"#utility.yul\":8764:8803   */\n      tag_626\n        /* \"#utility.yul\":8798:8801   */\n      0xa0\n        /* \"#utility.yul\":8787:8796   */\n      dup9\n        /* \"#utility.yul\":8783:8802   */\n      add\n        /* \"#utility.yul\":8764:8803   */\n      tag_549\n      jump\t// in\n    tag_626:\n        /* \"#utility.yul\":8754:8803   */\n      swap1\n      pop\n        /* \"#utility.yul\":8250:8809   */\n      swap3\n      swap6\n      pop\n      swap3\n      swap6\n      pop\n      swap3\n      swap6\n      jump\t// out\n        /* \"#utility.yul\":8814:8932   */\n    tag_550:\n        /* \"#utility.yul\":8900:8905   */\n      dup1\n        /* \"#utility.yul\":8893:8906   */\n      iszero\n        /* \"#utility.yul\":8886:8907   */\n      iszero\n        /* \"#utility.yul\":8879:8884   */\n      dup2\n        /* \"#utility.yul\":8876:8908   */\n      eq\n        /* \"#utility.yul\":8866:8926   */\n      tag_462\n      jumpi\n        /* \"#utility.yul\":8922:8923   */\n      0x00\n        /* \"#utility.yul\":8919:8920   */\n      dup1\n        /* \"#utility.yul\":8912:8924   */\n      revert\n        /* \"#utility.yul\":8937:9798   */\n    tag_151:\n        /* \"#utility.yul\":9065:9071   */\n      0x00\n        /* \"#utility.yul\":9073:9079   */\n      dup1\n        /* \"#utility.yul\":9081:9087   */\n      0x00\n        /* \"#utility.yul\":9089:9095   */\n      dup1\n        /* \"#utility.yul\":9097:9103   */\n      0x00\n        /* \"#utility.yul\":9105:9111   */\n      dup1\n        /* \"#utility.yul\":9113:9119   */\n      0x00\n        /* \"#utility.yul\":9166:9169   */\n      0xc0\n        /* \"#utility.yul\":9154:9163   */\n      dup9\n        /* \"#utility.yul\":9145:9152   */\n      dup11\n        /* \"#utility.yul\":9141:9164   */\n      sub\n        /* \"#utility.yul\":9137:9170   */\n      slt\n        /* \"#utility.yul\":9134:9187   */\n      iszero\n      tag_630\n      jumpi\n        /* \"#utility.yul\":9183:9184   */\n      0x00\n        /* \"#utility.yul\":9180:9181   */\n      dup1\n        /* \"#utility.yul\":9173:9185   */\n      revert\n        /* \"#utility.yul\":9134:9187   */\n    tag_630:\n        /* \"#utility.yul\":9206:9235   */\n      tag_631\n        /* \"#utility.yul\":9225:9234   */\n      dup9\n        /* \"#utility.yul\":9206:9235   */\n      tag_549\n      jump\t// in\n    tag_631:\n        /* \"#utility.yul\":9196:9235   */\n      swap7\n      pop\n        /* \"#utility.yul\":9282:9284   */\n      0x20\n        /* \"#utility.yul\":9271:9280   */\n      dup9\n        /* \"#utility.yul\":9267:9285   */\n      add\n        /* \"#utility.yul\":9254:9286   */\n      calldataload\n        /* \"#utility.yul\":9244:9286   */\n      swap6\n      pop\n        /* \"#utility.yul\":9333:9335   */\n      0x40\n        /* \"#utility.yul\":9322:9331   */\n      dup9\n        /* \"#utility.yul\":9318:9336   */\n      add\n        /* \"#utility.yul\":9305:9337   */\n      calldataload\n        /* \"#utility.yul\":9295:9337   */\n      swap5\n      pop\n        /* \"#utility.yul\":9387:9389   */\n      0x60\n        /* \"#utility.yul\":9376:9385   */\n      dup9\n        /* \"#utility.yul\":9372:9390   */\n      add\n        /* \"#utility.yul\":9359:9391   */\n      calldataload\n        /* \"#utility.yul\":9400:9428   */\n      tag_632\n        /* \"#utility.yul\":9422:9427   */\n      dup2\n        /* \"#utility.yul\":9400:9428   */\n      tag_550\n      jump\t// in\n    tag_632:\n        /* \"#utility.yul\":9447:9452   */\n      swap4\n      pop\n        /* \"#utility.yul\":9503:9506   */\n      0x80\n        /* \"#utility.yul\":9488:9507   */\n      dup9\n      add\n        /* \"#utility.yul\":9475:9508   */\n      calldataload\n        /* \"#utility.yul\":9531:9549   */\n      0xffffffffffffffff\n        /* \"#utility.yul\":9520:9550   */\n      dup2\n      gt\n        /* \"#utility.yul\":9517:9567   */\n      iszero\n      tag_633\n      jumpi\n        /* \"#utility.yul\":9563:9564   */\n      0x00\n        /* \"#utility.yul\":9560:9561   */\n      dup1\n        /* \"#utility.yul\":9553:9565   */\n      revert\n        /* \"#utility.yul\":9517:9567   */\n    tag_633:\n        /* \"#utility.yul\":9602:9680   */\n      tag_634\n        /* \"#utility.yul\":9672:9679   */\n      dup11\n        /* \"#utility.yul\":9663:9669   */\n      dup3\n        /* \"#utility.yul\":9652:9661   */\n      dup12\n        /* \"#utility.yul\":9648:9670   */\n      add\n        /* \"#utility.yul\":9602:9680   */\n      tag_544\n      jump\t// in\n    tag_634:\n        /* \"#utility.yul\":9699:9707   */\n      swap1\n      swap5\n      pop\n        /* \"#utility.yul\":9576:9680   */\n      swap3\n      pop\n        /* \"#utility.yul\":9753:9792   */\n      tag_635\n      swap1\n      pop\n        /* \"#utility.yul\":9787:9790   */\n      0xa0\n        /* \"#utility.yul\":9772:9791   */\n      dup10\n      add\n        /* \"#utility.yul\":9753:9792   */\n      tag_549\n      jump\t// in\n    tag_635:\n        /* \"#utility.yul\":9743:9792   */\n      swap1\n      pop\n        /* \"#utility.yul\":8937:9798   */\n      swap3\n      swap6\n      swap9\n      swap2\n      swap5\n      swap8\n      pop\n      swap3\n      swap6\n      pop\n      jump\t// out\n        /* \"#utility.yul\":9803:10435   */\n    tag_154:\n        /* \"#utility.yul\":9974:9976   */\n      0x20\n        /* \"#utility.yul\":10026:10047   */\n      dup1\n      dup3\n      mstore\n        /* \"#utility.yul\":10096:10109   */\n      dup3\n      mload\n        /* \"#utility.yul\":9999:10017   */\n      dup3\n      dup3\n      add\n        /* \"#utility.yul\":10118:10140   */\n      dup2\n      swap1\n      mstore\n        /* \"#utility.yul\":9945:9949   */\n      0x00\n      swap2\n        /* \"#utility.yul\":9974:9976   */\n      swap1\n        /* \"#utility.yul\":10197:10212   */\n      dup5\n      dup3\n      add\n      swap1\n        /* \"#utility.yul\":10171:10173   */\n      0x40\n        /* \"#utility.yul\":10156:10174   */\n      dup6\n      add\n      swap1\n        /* \"#utility.yul\":9945:9949   */\n      dup5\n        /* \"#utility.yul\":10240:10409   */\n    tag_637:\n        /* \"#utility.yul\":10254:10260   */\n      dup2\n        /* \"#utility.yul\":10251:10252   */\n      dup2\n        /* \"#utility.yul\":10248:10261   */\n      lt\n        /* \"#utility.yul\":10240:10409   */\n      iszero\n      tag_573\n      jumpi\n        /* \"#utility.yul\":10315:10328   */\n      dup4\n      mload\n        /* \"#utility.yul\":10303:10329   */\n      dup4\n      mstore\n        /* \"#utility.yul\":10384:10399   */\n      swap3\n      dup5\n      add\n      swap3\n        /* \"#utility.yul\":10349:10361   */\n      swap2\n      dup5\n      add\n      swap2\n        /* \"#utility.yul\":10276:10277   */\n      0x01\n        /* \"#utility.yul\":10269:10278   */\n      add\n        /* \"#utility.yul\":10240:10409   */\n      jump(tag_637)\n        /* \"#utility.yul\":10440:10567   */\n    tag_168:\n        /* \"#utility.yul\":10501:10511   */\n      0x4e487b71\n        /* \"#utility.yul\":10496:10499   */\n      0xe0\n        /* \"#utility.yul\":10492:10512   */\n      shl\n        /* \"#utility.yul\":10489:10490   */\n      0x00\n        /* \"#utility.yul\":10482:10513   */\n      mstore\n        /* \"#utility.yul\":10532:10536   */\n      0x41\n        /* \"#utility.yul\":10529:10530   */\n      0x04\n        /* \"#utility.yul\":10522:10537   */\n      mstore\n        /* \"#utility.yul\":10556:10560   */\n      0x24\n        /* \"#utility.yul\":10553:10554   */\n      0x00\n        /* \"#utility.yul\":10546:10561   */\n      revert\n        /* \"#utility.yul\":10572:10699   */\n    tag_175:\n        /* \"#utility.yul\":10633:10643   */\n      0x4e487b71\n        /* \"#utility.yul\":10628:10631   */\n      0xe0\n        /* \"#utility.yul\":10624:10644   */\n      shl\n        /* \"#utility.yul\":10621:10622   */\n      0x00\n        /* \"#utility.yul\":10614:10645   */\n      mstore\n        /* \"#utility.yul\":10664:10668   */\n      0x32\n        /* \"#utility.yul\":10661:10662   */\n      0x04\n        /* \"#utility.yul\":10654:10669   */\n      mstore\n        /* \"#utility.yul\":10688:10692   */\n      0x24\n        /* \"#utility.yul\":10685:10686   */\n      0x00\n        /* \"#utility.yul\":10678:10693   */\n      revert\n        /* \"#utility.yul\":10704:11226   */\n    tag_177:\n        /* \"#utility.yul\":10782:10786   */\n      0x00\n        /* \"#utility.yul\":10788:10794   */\n      dup1\n        /* \"#utility.yul\":10848:10859   */\n      dup4\n        /* \"#utility.yul\":10835:10860   */\n      calldataload\n        /* \"#utility.yul\":10942:10944   */\n      0x1e\n        /* \"#utility.yul\":10938:10945   */\n      not\n        /* \"#utility.yul\":10927:10935   */\n      dup5\n        /* \"#utility.yul\":10911:10925   */\n      calldatasize\n        /* \"#utility.yul\":10907:10936   */\n      sub\n        /* \"#utility.yul\":10903:10946   */\n      add\n        /* \"#utility.yul\":10883:10901   */\n      dup2\n        /* \"#utility.yul\":10879:10947   */\n      slt\n        /* \"#utility.yul\":10869:10965   */\n      tag_643\n      jumpi\n        /* \"#utility.yul\":10961:10962   */\n      0x00\n        /* \"#utility.yul\":10958:10959   */\n      dup1\n        /* \"#utility.yul\":10951:10963   */\n      revert\n        /* \"#utility.yul\":10869:10965   */\n    tag_643:\n        /* \"#utility.yul\":10988:11021   */\n      dup4\n      add\n        /* \"#utility.yul\":11040:11060   */\n      dup1\n      calldataload\n      swap2\n      pop\n        /* \"#utility.yul\":11083:11101   */\n      0xffffffffffffffff\n        /* \"#utility.yul\":11072:11102   */\n      dup3\n      gt\n        /* \"#utility.yul\":11069:11119   */\n      iszero\n      tag_644\n      jumpi\n        /* \"#utility.yul\":11115:11116   */\n      0x00\n        /* \"#utility.yul\":11112:11113   */\n      dup1\n        /* \"#utility.yul\":11105:11117   */\n      revert\n        /* \"#utility.yul\":11069:11119   */\n    tag_644:\n        /* \"#utility.yul\":11148:11152   */\n      0x20\n        /* \"#utility.yul\":11136:11153   */\n      add\n      swap2\n      pop\n        /* \"#utility.yul\":11179:11193   */\n      calldatasize\n        /* \"#utility.yul\":11175:11202   */\n      dup2\n      swap1\n      sub\n        /* \"#utility.yul\":11165:11203   */\n      dup3\n      sgt\n        /* \"#utility.yul\":11162:11220   */\n      iszero\n      tag_319\n      jumpi\n        /* \"#utility.yul\":11216:11217   */\n      0x00\n        /* \"#utility.yul\":11213:11214   */\n      dup1\n        /* \"#utility.yul\":11206:11218   */\n      revert\n        /* \"#utility.yul\":11231:11504   */\n    tag_179:\n        /* \"#utility.yul\":11416:11422   */\n      dup2\n        /* \"#utility.yul\":11408:11414   */\n      dup4\n        /* \"#utility.yul\":11403:11406   */\n      dup3\n        /* \"#utility.yul\":11390:11423   */\n      calldatacopy\n        /* \"#utility.yul\":11372:11375   */\n      0x00\n        /* \"#utility.yul\":11442:11458   */\n      swap2\n      add\n        /* \"#utility.yul\":11467:11480   */\n      swap1\n      dup2\n      mstore\n        /* \"#utility.yul\":11442:11458   */\n      swap2\n        /* \"#utility.yul\":11231:11504   */\n      swap1\n      pop\n      jump\t// out\n        /* \"#utility.yul\":11509:11636   */\n    tag_551:\n        /* \"#utility.yul\":11570:11580   */\n      0x4e487b71\n        /* \"#utility.yul\":11565:11568   */\n      0xe0\n        /* \"#utility.yul\":11561:11581   */\n      shl\n        /* \"#utility.yul\":11558:11559   */\n      0x00\n        /* \"#utility.yul\":11551:11582   */\n      mstore\n        /* \"#utility.yul\":11601:11605   */\n      0x11\n        /* \"#utility.yul\":11598:11599   */\n      0x04\n        /* \"#utility.yul\":11591:11606   */\n      mstore\n        /* \"#utility.yul\":11625:11629   */\n      0x24\n        /* \"#utility.yul\":11622:11623   */\n      0x00\n        /* \"#utility.yul\":11615:11630   */\n      revert\n        /* \"#utility.yul\":11641:11816   */\n    tag_192:\n        /* \"#utility.yul\":11678:11681   */\n      0x00\n        /* \"#utility.yul\":11722:11726   */\n      0xff\n        /* \"#utility.yul\":11715:11720   */\n      dup3\n        /* \"#utility.yul\":11711:11727   */\n      and\n        /* \"#utility.yul\":11751:11755   */\n      0xff\n        /* \"#utility.yul\":11742:11749   */\n      dup2\n        /* \"#utility.yul\":11739:11756   */\n      sub\n        /* \"#utility.yul\":11736:11779   */\n      tag_650\n      jumpi\n        /* \"#utility.yul\":11759:11777   */\n      tag_650\n      tag_551\n      jump\t// in\n    tag_650:\n        /* \"#utility.yul\":11808:11809   */\n      0x01\n        /* \"#utility.yul\":11795:11810   */\n      add\n      swap3\n        /* \"#utility.yul\":11641:11816   */\n      swap2\n      pop\n      pop\n      jump\t// out\n        /* \"#utility.yul\":11821:12201   */\n    tag_201:\n        /* \"#utility.yul\":11900:11901   */\n      0x01\n        /* \"#utility.yul\":11896:11908   */\n      dup2\n      dup2\n      shr\n      swap1\n        /* \"#utility.yul\":11943:11955   */\n      dup3\n      and\n      dup1\n        /* \"#utility.yul\":11964:12025   */\n      tag_652\n      jumpi\n        /* \"#utility.yul\":12018:12022   */\n      0x7f\n        /* \"#utility.yul\":12010:12016   */\n      dup3\n        /* \"#utility.yul\":12006:12023   */\n      and\n        /* \"#utility.yul\":11996:12023   */\n      swap2\n      pop\n        /* \"#utility.yul\":11964:12025   */\n    tag_652:\n        /* \"#utility.yul\":12071:12073   */\n      0x20\n        /* \"#utility.yul\":12063:12069   */\n      dup3\n        /* \"#utility.yul\":12060:12074   */\n      lt\n        /* \"#utility.yul\":12040:12058   */\n      dup2\n        /* \"#utility.yul\":12037:12075   */\n      sub\n        /* \"#utility.yul\":12034:12195   */\n      tag_653\n      jumpi\n        /* \"#utility.yul\":12117:12127   */\n      0x4e487b71\n        /* \"#utility.yul\":12112:12115   */\n      0xe0\n        /* \"#utility.yul\":12108:12128   */\n      shl\n        /* \"#utility.yul\":12105:12106   */\n      0x00\n        /* \"#utility.yul\":12098:12129   */\n      mstore\n        /* \"#utility.yul\":12152:12156   */\n      0x22\n        /* \"#utility.yul\":12149:12150   */\n      0x04\n        /* \"#utility.yul\":12142:12157   */\n      mstore\n        /* \"#utility.yul\":12180:12184   */\n      0x24\n        /* \"#utility.yul\":12177:12178   */\n      0x00\n        /* \"#utility.yul\":12170:12185   */\n      revert\n        /* \"#utility.yul\":12034:12195   */\n    tag_653:\n      pop\n        /* \"#utility.yul\":11821:12201   */\n      swap2\n      swap1\n      pop\n      jump\t// out\n        /* \"#utility.yul\":12206:12390   */\n    tag_217:\n        /* \"#utility.yul\":12276:12282   */\n      0x00\n        /* \"#utility.yul\":12329:12331   */\n      0x20\n        /* \"#utility.yul\":12317:12326   */\n      dup3\n        /* \"#utility.yul\":12308:12315   */\n      dup5\n        /* \"#utility.yul\":12304:12327   */\n      sub\n        /* \"#utility.yul\":12300:12332   */\n      slt\n        /* \"#utility.yul\":12297:12349   */\n      iszero\n      tag_655\n      jumpi\n        /* \"#utility.yul\":12345:12346   */\n      0x00\n        /* \"#utility.yul\":12342:12343   */\n      dup1\n        /* \"#utility.yul\":12335:12347   */\n      revert\n        /* \"#utility.yul\":12297:12349   */\n    tag_655:\n      pop\n        /* \"#utility.yul\":12368:12384   */\n      mload\n      swap2\n        /* \"#utility.yul\":12206:12390   */\n      swap1\n      pop\n      jump\t// out\n        /* \"#utility.yul\":12395:12520   */\n    tag_219:\n        /* \"#utility.yul\":12460:12469   */\n      dup1\n      dup3\n      add\n        /* \"#utility.yul\":12481:12491   */\n      dup1\n      dup3\n      gt\n        /* \"#utility.yul\":12478:12514   */\n      iszero\n      tag_165\n      jumpi\n        /* \"#utility.yul\":12494:12512   */\n      tag_165\n      tag_551\n      jump\t// in\n        /* \"#utility.yul\":12525:12774   */\n    tag_221:\n        /* \"#utility.yul\":12596:12606   */\n      0xffffffff\n        /* \"#utility.yul\":12638:12648   */\n      dup2\n      dup2\n      and\n        /* \"#utility.yul\":12650:12660   */\n      dup4\n      dup3\n      and\n        /* \"#utility.yul\":12634:12661   */\n      mul\n        /* \"#utility.yul\":12681:12701   */\n      dup1\n      dup3\n      and\n      swap2\n        /* \"#utility.yul\":12596:12606   */\n      swap1\n        /* \"#utility.yul\":12720:12744   */\n      dup3\n      dup2\n      eq\n        /* \"#utility.yul\":12710:12768   */\n      tag_661\n      jumpi\n        /* \"#utility.yul\":12748:12766   */\n      tag_661\n      tag_551\n      jump\t// in\n    tag_661:\n        /* \"#utility.yul\":12710:12768   */\n      pop\n      pop\n        /* \"#utility.yul\":12525:12774   */\n      swap3\n      swap2\n      pop\n      pop\n      jump\t// out\n        /* \"#utility.yul\":12779:12954   */\n    tag_236:\n        /* \"#utility.yul\":12847:12857   */\n      0xffffffff\n        /* \"#utility.yul\":12890:12900   */\n      dup3\n      dup2\n      and\n        /* \"#utility.yul\":12878:12888   */\n      dup3\n      dup3\n      and\n        /* \"#utility.yul\":12874:12901   */\n      sub\n      swap1\n        /* \"#utility.yul\":12913:12925   */\n      dup1\n      dup3\n      gt\n        /* \"#utility.yul\":12910:12948   */\n      iszero\n      tag_664\n      jumpi\n        /* \"#utility.yul\":12928:12946   */\n      tag_664\n      tag_551\n      jump\t// in\n    tag_664:\n        /* \"#utility.yul\":12910:12948   */\n      pop\n        /* \"#utility.yul\":12779:12954   */\n      swap3\n      swap2\n      pop\n      pop\n      jump\t// out\n        /* \"#utility.yul\":13238:13373   */\n    tag_255:\n        /* \"#utility.yul\":13277:13280   */\n      0x00\n        /* \"#utility.yul\":13298:13315   */\n      0x01\n      dup3\n      add\n        /* \"#utility.yul\":13295:13338   */\n      tag_668\n      jumpi\n        /* \"#utility.yul\":13318:13336   */\n      tag_668\n      tag_551\n      jump\t// in\n    tag_668:\n      pop\n        /* \"#utility.yul\":13365:13366   */\n      0x01\n        /* \"#utility.yul\":13354:13367   */\n      add\n      swap1\n        /* \"#utility.yul\":13238:13373   */\n      jump\t// out\n        /* \"#utility.yul\":13378:13506   */\n    tag_259:\n        /* \"#utility.yul\":13445:13454   */\n      dup2\n      dup2\n      sub\n        /* \"#utility.yul\":13466:13477   */\n      dup2\n      dup2\n      gt\n        /* \"#utility.yul\":13463:13500   */\n      iszero\n      tag_165\n      jumpi\n        /* \"#utility.yul\":13480:13498   */\n      tag_165\n      tag_551\n      jump\t// in\n        /* \"#utility.yul\":13511:13728   */\n    tag_291:\n        /* \"#utility.yul\":13551:13552   */\n      0x00\n        /* \"#utility.yul\":13577:13578   */\n      dup3\n        /* \"#utility.yul\":13567:13699   */\n      tag_673\n      jumpi\n        /* \"#utility.yul\":13621:13631   */\n      0x4e487b71\n        /* \"#utility.yul\":13616:13619   */\n      0xe0\n        /* \"#utility.yul\":13612:13632   */\n      shl\n        /* \"#utility.yul\":13609:13610   */\n      0x00\n        /* \"#utility.yul\":13602:13633   */\n      mstore\n        /* \"#utility.yul\":13656:13660   */\n      0x12\n        /* \"#utility.yul\":13653:13654   */\n      0x04\n        /* \"#utility.yul\":13646:13661   */\n      mstore\n        /* \"#utility.yul\":13684:13688   */\n      0x24\n        /* \"#utility.yul\":13681:13682   */\n      0x00\n        /* \"#utility.yul\":13674:13689   */\n      revert\n        /* \"#utility.yul\":13567:13699   */\n    tag_673:\n      pop\n        /* \"#utility.yul\":13713:13722   */\n      div\n      swap1\n        /* \"#utility.yul\":13511:13728   */\n      jump\t// out\n        /* \"#utility.yul\":13733:13901   */\n    tag_296:\n        /* \"#utility.yul\":13806:13815   */\n      dup1\n      dup3\n      mul\n        /* \"#utility.yul\":13837:13846   */\n      dup2\n      iszero\n        /* \"#utility.yul\":13854:13869   */\n      dup3\n      dup3\n      div\n        /* \"#utility.yul\":13848:13870   */\n      dup5\n      eq\n        /* \"#utility.yul\":13834:13871   */\n      or\n        /* \"#utility.yul\":13824:13895   */\n      tag_165\n      jumpi\n        /* \"#utility.yul\":13875:13893   */\n      tag_165\n      tag_551\n      jump\t// in\n        /* \"#utility.yul\":13906:14103   */\n    tag_299:\n        /* \"#utility.yul\":13944:13947   */\n      0x00\n        /* \"#utility.yul\":13972:13978   */\n      0xffff\n        /* \"#utility.yul\":14013:14015   */\n      dup1\n        /* \"#utility.yul\":14006:14011   */\n      dup4\n        /* \"#utility.yul\":14002:14016   */\n      and\n        /* \"#utility.yul\":14040:14042   */\n      dup2\n        /* \"#utility.yul\":14031:14038   */\n      dup2\n        /* \"#utility.yul\":14028:14043   */\n      sub\n        /* \"#utility.yul\":14025:14066   */\n      tag_679\n      jumpi\n        /* \"#utility.yul\":14046:14064   */\n      tag_679\n      tag_551\n      jump\t// in\n    tag_679:\n        /* \"#utility.yul\":14095:14096   */\n      0x01\n        /* \"#utility.yul\":14082:14097   */\n      add\n      swap4\n        /* \"#utility.yul\":13906:14103   */\n      swap3\n      pop\n      pop\n      pop\n      jump\t// out\n        /* \"#utility.yul\":17934:18479   */\n    tag_553:\n        /* \"#utility.yul\":18036:18038   */\n      0x1f\n        /* \"#utility.yul\":18031:18034   */\n      dup3\n        /* \"#utility.yul\":18028:18039   */\n      gt\n        /* \"#utility.yul\":18025:18473   */\n      iszero\n      tag_692\n      jumpi\n        /* \"#utility.yul\":18072:18073   */\n      0x00\n        /* \"#utility.yul\":18097:18102   */\n      dup2\n        /* \"#utility.yul\":18093:18095   */\n      dup2\n        /* \"#utility.yul\":18086:18103   */\n      mstore\n        /* \"#utility.yul\":18142:18146   */\n      0x20\n        /* \"#utility.yul\":18138:18140   */\n      dup2\n        /* \"#utility.yul\":18128:18147   */\n      keccak256\n        /* \"#utility.yul\":18212:18214   */\n      0x1f\n        /* \"#utility.yul\":18200:18210   */\n      dup6\n        /* \"#utility.yul\":18196:18215   */\n      add\n        /* \"#utility.yul\":18193:18194   */\n      0x05\n        /* \"#utility.yul\":18189:18216   */\n      shr\n        /* \"#utility.yul\":18183:18187   */\n      dup2\n        /* \"#utility.yul\":18179:18217   */\n      add\n        /* \"#utility.yul\":18248:18252   */\n      0x20\n        /* \"#utility.yul\":18236:18246   */\n      dup7\n        /* \"#utility.yul\":18233:18253   */\n      lt\n        /* \"#utility.yul\":18230:18277   */\n      iszero\n      tag_693\n      jumpi\n      pop\n        /* \"#utility.yul\":18271:18275   */\n      dup1\n        /* \"#utility.yul\":18230:18277   */\n    tag_693:\n        /* \"#utility.yul\":18326:18328   */\n      0x1f\n        /* \"#utility.yul\":18321:18324   */\n      dup6\n        /* \"#utility.yul\":18317:18329   */\n      add\n        /* \"#utility.yul\":18314:18315   */\n      0x05\n        /* \"#utility.yul\":18310:18330   */\n      shr\n        /* \"#utility.yul\":18304:18308   */\n      dup3\n        /* \"#utility.yul\":18300:18331   */\n      add\n        /* \"#utility.yul\":18290:18331   */\n      swap2\n      pop\n        /* \"#utility.yul\":18381:18463   */\n    tag_694:\n        /* \"#utility.yul\":18399:18401   */\n      dup2\n        /* \"#utility.yul\":18392:18397   */\n      dup2\n        /* \"#utility.yul\":18389:18402   */\n      lt\n        /* \"#utility.yul\":18381:18463   */\n      iszero\n      tag_696\n      jumpi\n        /* \"#utility.yul\":18444:18461   */\n      dup3\n      dup2\n      sstore\n        /* \"#utility.yul\":18425:18426   */\n      0x01\n        /* \"#utility.yul\":18414:18427   */\n      add\n        /* \"#utility.yul\":18381:18463   */\n      jump(tag_694)\n    tag_696:\n        /* \"#utility.yul\":18385:18388   */\n      pop\n      pop\n      pop\n        /* \"#utility.yul\":18025:18473   */\n    tag_692:\n        /* \"#utility.yul\":17934:18479   */\n      pop\n      pop\n      pop\n      jump\t// out\n        /* \"#utility.yul\":18655:20007   */\n    tag_510:\n        /* \"#utility.yul\":18781:18784   */\n      dup2\n        /* \"#utility.yul\":18775:18785   */\n      mload\n        /* \"#utility.yul\":18808:18826   */\n      0xffffffffffffffff\n        /* \"#utility.yul\":18800:18806   */\n      dup2\n        /* \"#utility.yul\":18797:18827   */\n      gt\n        /* \"#utility.yul\":18794:18850   */\n      iszero\n      tag_700\n      jumpi\n        /* \"#utility.yul\":18830:18848   */\n      tag_700\n      tag_168\n      jump\t// in\n    tag_700:\n        /* \"#utility.yul\":18859:18956   */\n      tag_701\n        /* \"#utility.yul\":18949:18955   */\n      dup2\n        /* \"#utility.yul\":18909:18947   */\n      tag_702\n        /* \"#utility.yul\":18941:18945   */\n      dup5\n        /* \"#utility.yul\":18935:18946   */\n      sload\n        /* \"#utility.yul\":18909:18947   */\n      tag_201\n      jump\t// in\n    tag_702:\n        /* \"#utility.yul\":18903:18907   */\n      dup5\n        /* \"#utility.yul\":18859:18956   */\n      tag_553\n      jump\t// in\n    tag_701:\n        /* \"#utility.yul\":19011:19015   */\n      0x20\n      dup1\n        /* \"#utility.yul\":19075:19077   */\n      0x1f\n        /* \"#utility.yul\":19064:19078   */\n      dup4\n      gt\n        /* \"#utility.yul\":19092:19093   */\n      0x01\n        /* \"#utility.yul\":19087:19750   */\n      dup2\n      eq\n      tag_704\n      jumpi\n        /* \"#utility.yul\":19794:19795   */\n      0x00\n        /* \"#utility.yul\":19811:19817   */\n      dup5\n        /* \"#utility.yul\":19808:19897   */\n      iszero\n      tag_705\n      jumpi\n      pop\n        /* \"#utility.yul\":19863:19882   */\n      dup6\n      dup4\n      add\n        /* \"#utility.yul\":19857:19883   */\n      mload\n        /* \"#utility.yul\":19808:19897   */\n    tag_705:\n      not(0x00)\n        /* \"#utility.yul\":18612:18613   */\n      0x03\n        /* \"#utility.yul\":18608:18619   */\n      dup7\n      swap1\n      shl\n        /* \"#utility.yul\":18604:18628   */\n      shr\n        /* \"#utility.yul\":18600:18629   */\n      not\n        /* \"#utility.yul\":18590:18630   */\n      and\n        /* \"#utility.yul\":18636:18637   */\n      0x01\n        /* \"#utility.yul\":18632:18643   */\n      dup6\n      swap1\n      shl\n        /* \"#utility.yul\":18587:18644   */\n      or\n        /* \"#utility.yul\":19910:19991   */\n      dup6\n      sstore\n        /* \"#utility.yul\":19057:20001   */\n      jump(tag_696)\n        /* \"#utility.yul\":19087:19750   */\n    tag_704:\n        /* \"#utility.yul\":17881:17882   */\n      0x00\n        /* \"#utility.yul\":17874:17888   */\n      dup6\n      dup2\n      mstore\n        /* \"#utility.yul\":17918:17922   */\n      0x20\n        /* \"#utility.yul\":17905:17923   */\n      dup2\n      keccak256\n      not(0x1f)\n        /* \"#utility.yul\":19123:19143   */\n      dup7\n      and\n      swap2\n        /* \"#utility.yul\":19241:19477   */\n    tag_708:\n        /* \"#utility.yul\":19255:19262   */\n      dup3\n        /* \"#utility.yul\":19252:19253   */\n      dup2\n        /* \"#utility.yul\":19249:19263   */\n      lt\n        /* \"#utility.yul\":19241:19477   */\n      iszero\n      tag_710\n      jumpi\n        /* \"#utility.yul\":19344:19363   */\n      dup9\n      dup7\n      add\n        /* \"#utility.yul\":19338:19364   */\n      mload\n        /* \"#utility.yul\":19323:19365   */\n      dup3\n      sstore\n        /* \"#utility.yul\":19436:19463   */\n      swap5\n      dup5\n      add\n      swap5\n        /* \"#utility.yul\":19404:19405   */\n      0x01\n        /* \"#utility.yul\":19392:19406   */\n      swap1\n      swap2\n      add\n      swap1\n        /* \"#utility.yul\":19271:19290   */\n      dup5\n      add\n        /* \"#utility.yul\":19241:19477   */\n      jump(tag_708)\n    tag_710:\n        /* \"#utility.yul\":19245:19248   */\n      pop\n        /* \"#utility.yul\":19505:19511   */\n      dup6\n        /* \"#utility.yul\":19496:19503   */\n      dup3\n        /* \"#utility.yul\":19493:19512   */\n      lt\n        /* \"#utility.yul\":19490:19691   */\n      iszero\n      tag_711\n      jumpi\n        /* \"#utility.yul\":19566:19585   */\n      dup8\n      dup6\n      add\n        /* \"#utility.yul\":19560:19586   */\n      mload\n      not(0x00)\n        /* \"#utility.yul\":19649:19650   */\n      0x03\n        /* \"#utility.yul\":19645:19659   */\n      dup9\n      swap1\n      shl\n        /* \"#utility.yul\":19661:19664   */\n      0xf8\n        /* \"#utility.yul\":19641:19665   */\n      and\n        /* \"#utility.yul\":19637:19674   */\n      shr\n        /* \"#utility.yul\":19633:19675   */\n      not\n        /* \"#utility.yul\":19618:19676   */\n      and\n        /* \"#utility.yul\":19603:19677   */\n      dup2\n      sstore\n        /* \"#utility.yul\":19490:19691   */\n    tag_711:\n      pop\n      pop\n      pop\n      pop\n      pop\n        /* \"#utility.yul\":19737:19738   */\n      0x01\n        /* \"#utility.yul\":19721:19735   */\n      swap1\n      dup2\n      shl\n        /* \"#utility.yul\":19717:19739   */\n      add\n        /* \"#utility.yul\":19704:19740   */\n      swap1\n      sstore\n      pop\n        /* \"#utility.yul\":18655:20007   */\n      jump\t// out\n        /* \"#utility.yul\":20155:20927   */\n    tag_556:\n        /* \"#utility.yul\":20205:20208   */\n      0x00\n        /* \"#utility.yul\":20246:20251   */\n      dup2\n        /* \"#utility.yul\":20240:20252   */\n      sload\n        /* \"#utility.yul\":20275:20311   */\n      tag_714\n        /* \"#utility.yul\":20301:20310   */\n      dup2\n        /* \"#utility.yul\":20275:20311   */\n      tag_201\n      jump\t// in\n    tag_714:\n        /* \"#utility.yul\":20320:20339   */\n      dup1\n      dup6\n      mstore\n        /* \"#utility.yul\":20358:20362   */\n      0x20\n        /* \"#utility.yul\":20381:20382   */\n      0x01\n        /* \"#utility.yul\":20398:20416   */\n      dup4\n      dup2\n      and\n        /* \"#utility.yul\":20425:20571   */\n      dup1\n      iszero\n      tag_716\n      jumpi\n        /* \"#utility.yul\":20585:20586   */\n      0x01\n        /* \"#utility.yul\":20580:20921   */\n      dup2\n      eq\n      tag_717\n      jumpi\n        /* \"#utility.yul\":20391:20921   */\n      jump(tag_715)\n        /* \"#utility.yul\":20425:20571   */\n    tag_716:\n      not(0xff)\n        /* \"#utility.yul\":20467:20491   */\n      dup6\n      and\n        /* \"#utility.yul\":20453:20465   */\n      dup9\n      dup5\n      add\n        /* \"#utility.yul\":20446:20492   */\n      mstore\n        /* \"#utility.yul\":20539:20553   */\n      dup4\n      iszero\n        /* \"#utility.yul\":20532:20554   */\n      iszero\n        /* \"#utility.yul\":20529:20530   */\n      0x05\n        /* \"#utility.yul\":20525:20555   */\n      shl\n        /* \"#utility.yul\":20516:20556   */\n      dup9\n      add\n        /* \"#utility.yul\":20512:20561   */\n      dup4\n      add\n      swap6\n      pop\n        /* \"#utility.yul\":20425:20571   */\n      jump(tag_715)\n        /* \"#utility.yul\":20580:20921   */\n    tag_717:\n        /* \"#utility.yul\":20611:20616   */\n      dup7\n        /* \"#utility.yul\":20608:20609   */\n      0x00\n        /* \"#utility.yul\":20601:20617   */\n      mstore\n        /* \"#utility.yul\":20658:20660   */\n      dup3\n        /* \"#utility.yul\":20655:20656   */\n      0x00\n        /* \"#utility.yul\":20645:20661   */\n      keccak256\n        /* \"#utility.yul\":20683:20684   */\n      0x00\n        /* \"#utility.yul\":20697:20871   */\n    tag_718:\n        /* \"#utility.yul\":20711:20717   */\n      dup6\n        /* \"#utility.yul\":20708:20709   */\n      dup2\n        /* \"#utility.yul\":20705:20718   */\n      lt\n        /* \"#utility.yul\":20697:20871   */\n      iszero\n      tag_720\n      jumpi\n        /* \"#utility.yul\":20798:20812   */\n      dup2\n      sload\n        /* \"#utility.yul\":20780:20791   */\n      dup11\n      dup3\n      add\n        /* \"#utility.yul\":20776:20796   */\n      dup7\n      add\n        /* \"#utility.yul\":20769:20813   */\n      mstore\n        /* \"#utility.yul\":20841:20857   */\n      swap1\n      dup4\n      add\n      swap1\n        /* \"#utility.yul\":20726:20736   */\n      dup5\n      add\n        /* \"#utility.yul\":20697:20871   */\n      jump(tag_718)\n    tag_720:\n        /* \"#utility.yul\":20895:20906   */\n      dup10\n      add\n        /* \"#utility.yul\":20891:20911   */\n      dup5\n      add\n      swap7\n      pop\n      pop\n        /* \"#utility.yul\":20391:20921   */\n    tag_715:\n      pop\n      pop\n      pop\n      pop\n      pop\n        /* \"#utility.yul\":20155:20927   */\n      swap3\n      swap2\n      pop\n      pop\n      jump\t// out\n        /* \"#utility.yul\":20932:22310   */\n    tag_516:\n        /* \"#utility.yul\":21114:21116   */\n      0x20\n        /* \"#utility.yul\":21103:21112   */\n      dup2\n        /* \"#utility.yul\":21096:21117   */\n      mstore\n        /* \"#utility.yul\":21126:21223   */\n      tag_722\n        /* \"#utility.yul\":21219:21221   */\n      0x20\n        /* \"#utility.yul\":21208:21217   */\n      dup3\n        /* \"#utility.yul\":21204:21222   */\n      add\n        /* \"#utility.yul\":21145:21202   */\n      tag_723\n        /* \"#utility.yul\":21194:21200   */\n      dup5\n        /* \"#utility.yul\":21188:21201   */\n      sload\n      sub(shl(0xa0, 0x01), 0x01)\n        /* \"#utility.yul\":20108:20144   */\n      and\n      swap1\n        /* \"#utility.yul\":20012:20150   */\n      jump\n        /* \"#utility.yul\":21145:21202   */\n    tag_723:\n      sub(shl(0xa0, 0x01), 0x01)\n        /* \"#utility.yul\":459:490   */\n      and\n        /* \"#utility.yul\":447:491   */\n      swap1\n      mstore\n        /* \"#utility.yul\":393:497   */\n      jump\n        /* \"#utility.yul\":21126:21223   */\n    tag_722:\n        /* \"#utility.yul\":21277:21281   */\n      0x01\n        /* \"#utility.yul\":21265:21282   */\n      dup3\n      add\n        /* \"#utility.yul\":21259:21283   */\n      sload\n        /* \"#utility.yul\":21254:21256   */\n      0x40\n        /* \"#utility.yul\":21239:21257   */\n      dup3\n      add\n        /* \"#utility.yul\":21232:21284   */\n      mstore\n        /* \"#utility.yul\":21338:21342   */\n      0x02\n        /* \"#utility.yul\":21326:21343   */\n      dup3\n      add\n        /* \"#utility.yul\":21320:21344   */\n      sload\n        /* \"#utility.yul\":21315:21317   */\n      0x60\n        /* \"#utility.yul\":21300:21318   */\n      dup3\n      add\n        /* \"#utility.yul\":21293:21345   */\n      mstore\n        /* \"#utility.yul\":21400:21404   */\n      0x03\n        /* \"#utility.yul\":21388:21405   */\n      dup3\n      add\n        /* \"#utility.yul\":21382:21406   */\n      sload\n        /* \"#utility.yul\":21376:21379   */\n      0x80\n        /* \"#utility.yul\":21361:21380   */\n      dup3\n      add\n        /* \"#utility.yul\":21354:21407   */\n      mstore\n        /* \"#utility.yul\":21462:21466   */\n      0x04\n        /* \"#utility.yul\":21450:21467   */\n      dup3\n      add\n        /* \"#utility.yul\":21444:21468   */\n      sload\n        /* \"#utility.yul\":21438:21441   */\n      0xa0\n        /* \"#utility.yul\":21423:21442   */\n      dup3\n      add\n        /* \"#utility.yul\":21416:21469   */\n      mstore\n        /* \"#utility.yul\":21524:21528   */\n      0x05\n        /* \"#utility.yul\":21512:21529   */\n      dup3\n      add\n        /* \"#utility.yul\":21506:21530   */\n      sload\n        /* \"#utility.yul\":21500:21503   */\n      0xc0\n        /* \"#utility.yul\":21485:21504   */\n      dup3\n      add\n        /* \"#utility.yul\":21478:21531   */\n      mstore\n        /* \"#utility.yul\":21586:21590   */\n      0x06\n        /* \"#utility.yul\":21574:21591   */\n      dup3\n      add\n        /* \"#utility.yul\":21568:21592   */\n      sload\n        /* \"#utility.yul\":21562:21565   */\n      0xe0\n        /* \"#utility.yul\":21547:21566   */\n      dup3\n      add\n        /* \"#utility.yul\":21540:21593   */\n      mstore\n        /* \"#utility.yul\":21637:21641   */\n      0x07\n        /* \"#utility.yul\":21625:21642   */\n      dup3\n      add\n        /* \"#utility.yul\":21619:21643   */\n      sload\n      sub(shl(0xa0, 0x01), 0x01)\n        /* \"#utility.yul\":21671:21706   */\n      dup2\n      and\n        /* \"#utility.yul\":21723:21726   */\n      0x0100\n        /* \"#utility.yul\":21708:21727   */\n      dup4\n      add\n        /* \"#utility.yul\":447:491   */\n      mstore\n      0x00\n      swap1\n        /* \"#utility.yul\":21737:21819   */\n      tag_725\n        /* \"#utility.yul\":21814:21817   */\n      0x0120\n        /* \"#utility.yul\":21803:21812   */\n      dup5\n        /* \"#utility.yul\":21799:21818   */\n      add\n        /* \"#utility.yul\":21792:21796   */\n      0xff\n        /* \"#utility.yul\":21780:21789   */\n      dup4\n        /* \"#utility.yul\":21775:21778   */\n      0xa0\n        /* \"#utility.yul\":21771:21790   */\n      shr\n        /* \"#utility.yul\":21767:21797   */\n      and\n        /* \"#utility.yul\":21737:21819   */\n      tag_545\n      jump\t// in\n    tag_725:\n      pop\n        /* \"#utility.yul\":21838:21844   */\n      0x01e0\n        /* \"#utility.yul\":21881:21883   */\n      dup1\n        /* \"#utility.yul\":21875:21878   */\n      0x0140\n        /* \"#utility.yul\":21864:21873   */\n      dup5\n        /* \"#utility.yul\":21860:21879   */\n      add\n        /* \"#utility.yul\":21853:21884   */\n      mstore\n        /* \"#utility.yul\":21907:21972   */\n      tag_726\n        /* \"#utility.yul\":21967:21970   */\n      0x0200\n        /* \"#utility.yul\":21956:21965   */\n      dup5\n        /* \"#utility.yul\":21952:21971   */\n      add\n        /* \"#utility.yul\":21945:21949   */\n      0x08\n        /* \"#utility.yul\":21937:21943   */\n      dup7\n        /* \"#utility.yul\":21933:21950   */\n      add\n        /* \"#utility.yul\":21907:21972   */\n      tag_556\n      jump\t// in\n    tag_726:\n        /* \"#utility.yul\":22027:22031   */\n      0x09\n        /* \"#utility.yul\":22015:22032   */\n      dup6\n      add\n        /* \"#utility.yul\":22009:22033   */\n      sload\n        /* \"#utility.yul\":22003:22006   */\n      0x0160\n        /* \"#utility.yul\":21988:22007   */\n      dup6\n      add\n        /* \"#utility.yul\":21981:22034   */\n      mstore\n        /* \"#utility.yul\":22089:22093   */\n      0x0a\n        /* \"#utility.yul\":22077:22094   */\n      dup6\n      add\n        /* \"#utility.yul\":22071:22095   */\n      sload\n        /* \"#utility.yul\":22065:22068   */\n      0x0180\n        /* \"#utility.yul\":22050:22069   */\n      dup6\n      add\n        /* \"#utility.yul\":22043:22096   */\n      mstore\n        /* \"#utility.yul\":22151:22155   */\n      0x0b\n        /* \"#utility.yul\":22139:22156   */\n      dup6\n      add\n        /* \"#utility.yul\":22133:22157   */\n      sload\n        /* \"#utility.yul\":22127:22130   */\n      0x01a0\n        /* \"#utility.yul\":22112:22131   */\n      dup6\n      add\n        /* \"#utility.yul\":22105:22158   */\n      mstore\n        /* \"#utility.yul\":22213:22217   */\n      0x0c\n        /* \"#utility.yul\":22201:22218   */\n      dup6\n      add\n        /* \"#utility.yul\":22195:22219   */\n      sload\n        /* \"#utility.yul\":22189:22192   */\n      0x01c0\n        /* \"#utility.yul\":22174:22193   */\n      dup6\n      add\n        /* \"#utility.yul\":22167:22220   */\n      mstore\n        /* \"#utility.yul\":22274:22278   */\n      0x0d\n        /* \"#utility.yul\":22262:22279   */\n      swap1\n      swap5\n      add\n        /* \"#utility.yul\":22256:22280   */\n      sload\n        /* \"#utility.yul\":22236:22254   */\n      swap3\n      add\n        /* \"#utility.yul\":22229:22281   */\n      swap2\n      swap1\n      swap2\n      mstore\n      pop\n        /* \"#utility.yul\":22298:22304   */\n      swap1\n        /* \"#utility.yul\":20932:22310   */\n      jump\t// out\n        /* \"#utility.yul\":22315:22560   */\n    tag_520:\n        /* \"#utility.yul\":22382:22388   */\n      0x00\n        /* \"#utility.yul\":22435:22437   */\n      0x20\n        /* \"#utility.yul\":22423:22432   */\n      dup3\n        /* \"#utility.yul\":22414:22421   */\n      dup5\n        /* \"#utility.yul\":22410:22433   */\n      sub\n        /* \"#utility.yul\":22406:22438   */\n      slt\n        /* \"#utility.yul\":22403:22455   */\n      iszero\n      tag_728\n      jumpi\n        /* \"#utility.yul\":22451:22452   */\n      0x00\n        /* \"#utility.yul\":22448:22449   */\n      dup1\n        /* \"#utility.yul\":22441:22453   */\n      revert\n        /* \"#utility.yul\":22403:22455   */\n    tag_728:\n        /* \"#utility.yul\":22483:22492   */\n      dup2\n        /* \"#utility.yul\":22477:22493   */\n      mload\n        /* \"#utility.yul\":22502:22530   */\n      tag_590\n        /* \"#utility.yul\":22524:22529   */\n      dup2\n        /* \"#utility.yul\":22502:22530   */\n      tag_550\n      jump\t// in\n        /* \"#utility.yul\":22565:22972   */\n    tag_525:\n        /* \"#utility.yul\":22767:22769   */\n      0x20\n        /* \"#utility.yul\":22749:22770   */\n      dup1\n      dup3\n      mstore\n        /* \"#utility.yul\":22806:22808   */\n      0x2b\n        /* \"#utility.yul\":22786:22804   */\n      swap1\n      dup3\n      add\n        /* \"#utility.yul\":22779:22809   */\n      mstore\n        /* \"#utility.yul\":22845:22879   */\n      0x496e697469616c697a61626c653a20636f6e7472616374206973206e6f742069\n        /* \"#utility.yul\":22840:22842   */\n      0x40\n        /* \"#utility.yul\":22825:22843   */\n      dup3\n      add\n        /* \"#utility.yul\":22818:22880   */\n      mstore\n      shl(0xa8, 0x6e697469616c697a696e67)\n        /* \"#utility.yul\":22911:22913   */\n      0x60\n        /* \"#utility.yul\":22896:22914   */\n      dup3\n      add\n        /* \"#utility.yul\":22889:22930   */\n      mstore\n        /* \"#utility.yul\":22962:22965   */\n      0x80\n        /* \"#utility.yul\":22947:22966   */\n      add\n      swap1\n        /* \"#utility.yul\":22565:22972   */\n      jump\t// out\n\n    auxdata: 0xa2646970667358221220d88fc962d5d79c8b44792e10c6d622e420ab579e7ffa8165a0108b81c012115b64736f6c63430008130033\n}\n",
				"bytecode": {
					"linkReferences": {},
					"object": "6080604052606654620000149060016200004b565b606555620f4240606681905560646067556200003290601e6200004b565b6068556069805463ffffffff1916600a17905562000077565b80820281158282048414176200007157634e487b7160e01b600052601160045260246000fd5b92915050565b612d5080620000876000396000f3fe608060405234801561001057600080fd5b50600436106101f05760003560e01c8063a429a5131161010f578063cb286f19116100a2578063ee59078811610071578063ee5907881461044a578063f2fde38b1461046a578063f4b7f3431461047d578063f8525b931461049057600080fd5b8063cb286f19146103ec578063cc2a9a5b14610411578063dc30cbb414610424578063ddcd64081461043757600080fd5b8063b935948a116100de578063b935948a14610393578063bc65fee5146103a6578063bf9ce952146103c6578063c01c36d0146103d957600080fd5b8063a429a51314610341578063a559934e14610364578063b22a9f9a14610377578063b71825301461038057600080fd5b8063486f6afe116101875780638c4a876d116101565780638c4a876d1461030d5780638c7ab1d7146103155780638da5cb5b146103285780638fe39efd1461033957600080fd5b8063486f6afe146102af57806361b26f27146102c2578063715018a6146102e257806378f25aee146102ec57600080fd5b8063362efc3d116101c3578063362efc3d14610281578063395348dc1461028a578063435a3e501461029357806347ccca021461029c57600080fd5b8063076d5556146101f557806311f1374a146102115780632f48ab7d1461023657806331ae322f14610261575b600080fd5b6101fe606d5481565b6040519081526020015b60405180910390f35b6069546102219063ffffffff1681565b60405163ffffffff9091168152602001610208565b606e54610249906001600160a01b031681565b6040516001600160a01b039091168152602001610208565b61027461026f366004612379565b6104a3565b60405161020891906123bb565b6101fe60665481565b6101fe60655481565b6101fe60685481565b607154610249906001600160a01b031681565b606f54610249906001600160a01b031681565b6102d56102d0366004612401565b610606565b6040516102089190612572565b6102ea610789565b005b6102ff6102fa3660046125a5565b61079d565b6040516102089291906125c0565b6101fe610e3d565b607054610249906001600160a01b031681565b6033546001600160a01b0316610249565b6101fe610ea7565b61035461034f366004612643565b610f19565b6040519015158152602001610208565b6102ea61037236600461266d565b610f9e565b6101fe60675481565b6102ff61038e366004612688565b610fc8565b6102ea6103a1366004612401565b611678565b6101fe6103b4366004612401565b606b6020526000908152604090205481565b607354610249906001600160a01b031681565b607254610249906001600160a01b031681565b6103ff6103fa366004612401565b611685565b604051610208969594939291906126bb565b6102ea61041f366004612708565b6117cd565b6102ea61043236600461266d565b61196e565b6102ea61044536600461266d565b611998565b61045d61045836600461278a565b6119c2565b6040516102089190612815565b6102ea61047836600461266d565b611c47565b61027461048b366004612379565b611cc0565b6102ea61049e36600461266d565b611e15565b606060008267ffffffffffffffff8111156104c0576104c061284d565b6040519080825280602002602001820160405280156104e9578160200160208202803683370190505b5090506000805b60ff81168511156105fa5785858260ff1681811061051057610510612863565b90506020028101906105229190612879565b6040516020016105339291906128c0565b60408051808303601f1901815291815281516020928301206000818152606a9093529120549092506001600160a01b03163314158061059d5750600080838152606a6020526040902060070154600160a01b900460ff16600381111561059b5761059b61241a565b145b6105e8576000828152606a60205260409020600701805460ff60a01b191690558251600190849060ff84169081106105d7576105d7612863565b911515602092830291909101909101525b806105f2816128e6565b9150506104f0565b50909150505b92915050565b61060e6122ba565b6000828152606a602090815260409182902082516101e08101845281546001600160a01b039081168252600183015493820193909352600282015493810193909352600380820154606085015260048201546080850152600582015460a0850152600682015460c0850152600782015492831660e08501529091610100840191600160a01b90910460ff16908111156106a9576106a961241a565b60038111156106ba576106ba61241a565b81526020016008820180546106ce90612905565b80601f01602080910402602001604051908101604052809291908181526020018280546106fa90612905565b80156107475780601f1061071c57610100808354040283529160200191610747565b820191906000526020600020905b81548152906001019060200180831161072a57829003601f168201915b5050505050815260200160098201548152602001600a8201548152602001600b8201548152602001600c8201548152602001600d820154815250509050919050565b610791611e3f565b61079b6000611e99565b565b6071546040516370a0823160e01b815233600482015260009160609183916001600160a01b0316906370a0823190602401602060405180830381865afa1580156107eb573d6000803e3d6000fd5b505050506040513d601f19601f8201168201806040525081019061080f919061293f565b6069549091506108259063ffffffff1682612958565b6069546108389063ffffffff168661296b565b63ffffffff16111561084e576000925050915091565b60695481906108639063ffffffff168661296b565b63ffffffff161015610b42576069546001935063ffffffff1667ffffffffffffffff8111156108945761089461284d565b6040519080825280602002602001820160405280156108cd57816020015b6108ba6122ba565b8152602001906001900390816108b25790505b50915060005b8251811015610b3b57607154606954606a916000916001600160a01b0390911690632f745c59903390869063ffffffff1661090e818d61296b565b6109189190612993565b63ffffffff166109289190612958565b6040516001600160e01b031960e085901b1681526001600160a01b0390921660048301526024820152604401602060405180830381865afa158015610971573d6000803e3d6000fd5b505050506040513d601f19601f82011682018060405250810190610995919061293f565b8152602080820192909252604090810160002081516101e08101835281546001600160a01b039081168252600183015494820194909452600282015492810192909252600380820154606084015260048201546080840152600582015460a0840152600682015460c0840152600782015493841660e084015291929091610100840191600160a01b900460ff1690811115610a3257610a3261241a565b6003811115610a4357610a4361241a565b8152602001600882018054610a5790612905565b80601f0160208091040260200160405190810160405280929190818152602001828054610a8390612905565b8015610ad05780601f10610aa557610100808354040283529160200191610ad0565b820191906000526020600020905b815481529060010190602001808311610ab357829003601f168201915b5050505050815260200160098201548152602001600a8201548152602001600b8201548152602001600c8201548152602001600d82015481525050838281518110610b1d57610b1d612863565b60200260200101819052508080610b33906129b7565b9150506108d3565b5050915091565b606954600093508190610b5b9063ffffffff168661296b565b63ffffffff16610b6b91906129d0565b606954610b7e919063ffffffff166129d0565b67ffffffffffffffff811115610b9657610b9661284d565b604051908082528060200260200182016040528015610bcf57816020015b610bbc6122ba565b815260200190600190039081610bb45790505b50915060005b8251811015610b3b57607154606954606a916000916001600160a01b0390911690632f745c59903390869063ffffffff16610c10818d61296b565b610c1a9190612993565b63ffffffff16610c2a9190612958565b6040516001600160e01b031960e085901b1681526001600160a01b0390921660048301526024820152604401602060405180830381865afa158015610c73573d6000803e3d6000fd5b505050506040513d601f19601f82011682018060405250810190610c97919061293f565b8152602080820192909252604090810160002081516101e08101835281546001600160a01b039081168252600183015494820194909452600282015492810192909252600380820154606084015260048201546080840152600582015460a0840152600682015460c0840152600782015493841660e084015291929091610100840191600160a01b900460ff1690811115610d3457610d3461241a565b6003811115610d4557610d4561241a565b8152602001600882018054610d5990612905565b80601f0160208091040260200160405190810160405280929190818152602001828054610d8590612905565b8015610dd25780601f10610da757610100808354040283529160200191610dd2565b820191906000526020600020905b815481529060010190602001808311610db557829003601f168201915b5050505050815260200160098201548152602001600a8201548152602001600b8201548152602001600c8201548152602001600d82015481525050838281518110610e1f57610e1f612863565b60200260200101819052508080610e35906129b7565b915050610bd5565b60008060655490506000624f1a00606d5442610e5991906129d0565b610e6391906129e3565b905060005b818161ffff161015610e9f576064610e8184607d612a05565b610e8b91906129e3565b925080610e9781612a1c565b915050610e68565b509092915050565b6071546040516370a0823160e01b81523360048201526000916001600160a01b0316906370a0823190602401602060405180830381865afa158015610ef0573d6000803e3d6000fd5b505050506040513d601f19601f82011682018060405250810190610f14919061293f565b905090565b6072546000906001600160a01b03163314610f7b5760405162461bcd60e51b815260206004820152601760248201527f4b76656e747572653a204f6e6c79206b76656e7475726500000000000000000060448201526064015b60405180910390fd5b610f9483836000606854610f8d610e3d565b6000611eeb565b5060019392505050565b610fa6611e3f565b607080546001600160a01b0319166001600160a01b0392909216919091179055565b60006060610fd4611e3f565b6071546040516370a0823160e01b81526001600160a01b03858116600483015260009216906370a0823190602401602060405180830381865afa15801561101f573d6000803e3d6000fd5b505050506040513d601f19601f82011682018060405250810190611043919061293f565b6069549091506110599063ffffffff1682612958565b60695461106c9063ffffffff168761296b565b63ffffffff161115611082576000925050611671565b60695481906110979063ffffffff168761296b565b63ffffffff161015611376576069546001935063ffffffff1667ffffffffffffffff8111156110c8576110c861284d565b60405190808252806020026020018201604052801561110157816020015b6110ee6122ba565b8152602001906001900390816110e65790505b50915060005b825181101561136f57607154606954606a916000916001600160a01b0390911690632f745c59908990869063ffffffff16611142818e61296b565b61114c9190612993565b63ffffffff1661115c9190612958565b6040516001600160e01b031960e085901b1681526001600160a01b0390921660048301526024820152604401602060405180830381865afa1580156111a5573d6000803e3d6000fd5b505050506040513d601f19601f820116820180604052508101906111c9919061293f565b8152602080820192909252604090810160002081516101e08101835281546001600160a01b039081168252600183015494820194909452600282015492810192909252600380820154606084015260048201546080840152600582015460a0840152600682015460c0840152600782015493841660e084015291929091610100840191600160a01b900460ff16908111156112665761126661241a565b60038111156112775761127761241a565b815260200160088201805461128b90612905565b80601f01602080910402602001604051908101604052809291908181526020018280546112b790612905565b80156113045780601f106112d957610100808354040283529160200191611304565b820191906000526020600020905b8154815290600101906020018083116112e757829003601f168201915b5050505050815260200160098201548152602001600a8201548152602001600b8201548152602001600c8201548152602001600d8201548152505083828151811061135157611351612863565b60200260200101819052508080611367906129b7565b915050611107565b5050611671565b60695460009350819061138f9063ffffffff168761296b565b63ffffffff1661139f91906129d0565b6069546113b2919063ffffffff166129d0565b67ffffffffffffffff8111156113ca576113ca61284d565b60405190808252806020026020018201604052801561140357816020015b6113f06122ba565b8152602001906001900390816113e85790505b50915060005b825181101561136f57607154606954606a916000916001600160a01b0390911690632f745c59908990869063ffffffff16611444818e61296b565b61144e9190612993565b63ffffffff1661145e9190612958565b6040516001600160e01b031960e085901b1681526001600160a01b0390921660048301526024820152604401602060405180830381865afa1580156114a7573d6000803e3d6000fd5b505050506040513d601f19601f820116820180604052508101906114cb919061293f565b8152602080820192909252604090810160002081516101e08101835281546001600160a01b039081168252600183015494820194909452600282015492810192909252600380820154606084015260048201546080840152600582015460a0840152600682015460c0840152600782015493841660e084015291929091610100840191600160a01b900460ff16908111156115685761156861241a565b60038111156115795761157961241a565b815260200160088201805461158d90612905565b80601f01602080910402602001604051908101604052809291908181526020018280546115b990612905565b80156116065780601f106115db57610100808354040283529160200191611606565b820191906000526020600020905b8154815290600101906020018083116115e957829003601f168201915b5050505050815260200160098201548152602001600a8201548152602001600b8201548152602001600c8201548152602001600d8201548152505083828151811061165357611653612863565b60200260200101819052508080611669906129b7565b915050611409565b9250929050565b611680611e3f565b606c55565b607460205260009081526040902080546001820180549192916116a790612905565b80601f01602080910402602001604051908101604052809291908181526020018280546116d390612905565b80156117205780601f106116f557610100808354040283529160200191611720565b820191906000526020600020905b81548152906001019060200180831161170357829003601f168201915b50505050509080600201549080600301549080600401805461174190612905565b80601f016020809104026020016040519081016040528092919081815260200182805461176d90612905565b80156117ba5780601f1061178f576101008083540402835291602001916117ba565b820191906000526020600020905b81548152906001019060200180831161179d57829003601f168201915b5050506005909301549192505060ff1686565b600054610100900460ff16158080156117ed5750600054600160ff909116105b806118075750303b158015611807575060005460ff166001145b61186a5760405162461bcd60e51b815260206004820152602e60248201527f496e697469616c697a61626c653a20636f6e747261637420697320616c72656160448201526d191e481a5b9a5d1a585b1a5e995960921b6064820152608401610f72565b6000805460ff19166001179055801561188d576000805461ff0019166101001790555b606e80546001600160a01b03199081166001600160a01b038a811691909117909255607080548216898416179055606f80548216888416179055607280548216858416179055607380548216878416179055607180549091169185169190911790556118f7612236565b620f424060668190556064606755611910906001612a05565b60655561191b612265565b42606d558015611965576000805461ff0019169055604051600181527f7f26b83ff96e1f2b6a682f133852f6798a09c465da95921460cefb38474024989060200160405180910390a15b50505050505050565b611976611e3f565b607380546001600160a01b0319166001600160a01b0392909216919091179055565b6119a0611e3f565b606e80546001600160a01b0319166001600160a01b0392909216919091179055565b6073546060906001600160a01b03163314611a185760405162461bcd60e51b815260206004820152601660248201527512dd995b9d1d5c994e8813db9b1e481c1c9bd91d58dd60521b6044820152606401610f72565b8286148015611a275750600086115b611aa75760405162461bcd60e51b8152602060048201526044602482018190527f4b76656e747572653a20436f64652048617368204e6f7420457175616c20546f908201527f205175616e74697479206f72205175616e7469747920536d616c6c6572205468606482015263616e203160e01b608482015260a401610f72565b6001600160a01b03821615611b2957606c54871015611b245760405162461bcd60e51b815260206004820152603360248201527f4b76656e747572653a20436c6f7564204d696e696e67204f6e6c7920466f722060448201527205061636b6167652041626f766520243530303606c1b6064820152608401610f72565b611b80565b6001600160a01b03821615611b805760405162461bcd60e51b815260206004820152601f60248201527f4b76656e747572653a204f6e6c7920666f7220636c6f7564206d696e696e67006044820152606401610f72565b6000611b8a610e3d565b905060008767ffffffffffffffff811115611ba757611ba761284d565b604051908082528060200260200182016040528015611bd0578160200160208202803683370190505b50905060005b88811015611c39576000611c068c898985818110611bf657611bf6612863565b905060200201358b8e888b611eeb565b905080838381518110611c1b57611c1b612863565b60209081029190910101525080611c31816129b7565b915050611bd6565b509998505050505050505050565b611c4f611e3f565b6001600160a01b038116611cb45760405162461bcd60e51b815260206004820152602660248201527f4f776e61626c653a206e6577206f776e657220697320746865207a65726f206160448201526564647265737360d01b6064820152608401610f72565b611cbd81611e99565b50565b606060008267ffffffffffffffff811115611cdd57611cdd61284d565b604051908082528060200260200182016040528015611d06578160200160208202803683370190505b5090506000805b848110156105fa57858582818110611d2757611d27612863565b9050602002810190611d399190612879565b604051602001611d4a9291906128c0565b60408051808303601f1901815291815281516020928301206000818152606a9093529120549092506001600160a01b031633141580611db5575060016000838152606a6020526040902060070154600160a01b900460ff166003811115611db357611db361241a565b145b611e03576000828152606a60205260409020600701805460ff60a01b1916600160a01b1790558251600190849083908110611df257611df2612863565b911515602092830291909101909101525b80611e0d816129b7565b915050611d0d565b611e1d611e3f565b607180546001600160a01b0319166001600160a01b0392909216919091179055565b6033546001600160a01b0316331461079b5760405162461bcd60e51b815260206004820181905260248201527f4f776e61626c653a2063616c6c6572206973206e6f7420746865206f776e65726044820152606401610f72565b603380546001600160a01b038381166001600160a01b0319831681179093556040519116919082907f8be0079c531659141344cd1fd0a4f28419497f9722a3daafe3b4186f6b6457e090600090a35050565b6000858152606a60205260408120546001600160a01b031615611f505760405162461bcd60e51b815260206004820152601d60248201527f4d6574614e6f64653a204475706c696361746520436f646520486173680000006044820152606401610f72565b604080516101e0810182526001600160a01b038916815260208101889052600091810191909152869060608101611f8a426276a700612958565b81526020018560675488611f9e9190612a05565b611fa891906129e3565b8152602001606b6000888152602001908152602001600020548152602001858152602001846001600160a01b03168152602001611fe488612274565b6003811115611ff557611ff561241a565b815260408051808201825260088152674b56454e5455524560c01b6020808301919091528084019190915260008284018190526064606080860191909152608080860183905260a080870184905260c09687018490528e8452606a855292859020875181546001600160a01b03199081166001600160a01b039283161783559589015160018301559588015160028201559187015160038084019190915590870151600483015591860151600582015593850151600685015560e085015160078501805493841691909416908117845561010086015193926001600160a81b0319161790600160a01b9084908111156120f0576120f061241a565b0217905550610120820151600882019061210a9082612a8c565b506101408201516009820155610160820151600a820155610180820151600b8201556101a0820151600c8201556101c090910151600d90910155607154604051632851206560e21b81526001600160a01b038a81166004830152602482018490529091169063a144819490604401600060405180830381600087803b15801561219257600080fd5b505af11580156121a6573d6000803e3d6000fd5b5050606f5460008a8152606a6020526040908190209051637c94ac8160e11b81526001600160a01b03909216935063f929590292506121e791600401612bc9565b6020604051808303816000875af1158015612206573d6000803e3d6000fd5b505050506040513d601f19601f8201168201806040525081019061222a9190612cb2565b50979650505050505050565b600054610100900460ff1661225d5760405162461bcd60e51b8152600401610f7290612ccf565b61079b61228a565b60665461168090611388612a05565b600081612282576001610600565b600092915050565b600054610100900460ff166122b15760405162461bcd60e51b8152600401610f7290612ccf565b61079b33611e99565b604080516101e081018252600080825260208201819052918101829052606081018290526080810182905260a0810182905260c0810182905260e081018290529061010082019081526020016060815260200160008152602001600081526020016000815260200160008019168152602001600081525090565b60008083601f84011261234657600080fd5b50813567ffffffffffffffff81111561235e57600080fd5b6020830191508360208260051b850101111561167157600080fd5b6000806020838503121561238c57600080fd5b823567ffffffffffffffff8111156123a357600080fd5b6123af85828601612334565b90969095509350505050565b6020808252825182820181905260009190848201906040850190845b818110156123f55783511515835292840192918401916001016123d7565b50909695505050505050565b60006020828403121561241357600080fd5b5035919050565b634e487b7160e01b600052602160045260246000fd5b6004811061244e57634e487b7160e01b600052602160045260246000fd5b9052565b6000815180845260005b818110156124785760208185018101518683018201520161245c565b506000602082860101526020601f19601f83011685010191505092915050565b80516001600160a01b0316825260006101e06020830151602085015260408301516040850152606083015160608501526080830151608085015260a083015160a085015260c083015160c085015260e083015161250060e08601826001600160a01b03169052565b506101008084015161251482870182612430565b505061012080840151828287015261252e83870182612452565b6101408681015190880152610160808701519088015261018080870151908801526101a080870151908801526101c095860151959096019490945250929392505050565b6020815260006125856020830184612498565b9392505050565b803563ffffffff811681146125a057600080fd5b919050565b6000602082840312156125b757600080fd5b6125858261258c565b6000604082018415158352602060408185015281855180845260608601915060608160051b870101935082870160005b8281101561261e57605f1988870301845261260c868351612498565b955092840192908401906001016125f0565b509398975050505050505050565b80356001600160a01b03811681146125a057600080fd5b6000806040838503121561265657600080fd5b61265f8361262c565b946020939093013593505050565b60006020828403121561267f57600080fd5b6125858261262c565b6000806040838503121561269b57600080fd5b6126a48361258c565b91506126b26020840161262c565b90509250929050565b86815260c0602082015260006126d460c0830188612452565b86604084015285606084015282810360808401526126f28186612452565b91505082151560a0830152979650505050505050565b60008060008060008060c0878903121561272157600080fd5b61272a8761262c565b95506127386020880161262c565b94506127466040880161262c565b93506127546060880161262c565b92506127626080880161262c565b915061277060a0880161262c565b90509295509295509295565b8015158114611cbd57600080fd5b600080600080600080600060c0888a0312156127a557600080fd5b6127ae8861262c565b9650602088013595506040880135945060608801356127cc8161277c565b9350608088013567ffffffffffffffff8111156127e857600080fd5b6127f48a828b01612334565b9094509250612807905060a0890161262c565b905092959891949750929550565b6020808252825182820181905260009190848201906040850190845b818110156123f557835183529284019291840191600101612831565b634e487b7160e01b600052604160045260246000fd5b634e487b7160e01b600052603260045260246000fd5b6000808335601e1984360301811261289057600080fd5b83018035915067ffffffffffffffff8211156128ab57600080fd5b60200191503681900382131561167157600080fd5b8183823760009101908152919050565b634e487b7160e01b600052601160045260246000fd5b600060ff821660ff81036128fc576128fc6128d0565b60010192915050565b600181811c9082168061291957607f821691505b60208210810361293957634e487b7160e01b600052602260045260246000fd5b50919050565b60006020828403121561295157600080fd5b5051919050565b80820180821115610600576106006128d0565b63ffffffff81811683821602808216919082811461298b5761298b6128d0565b505092915050565b63ffffffff8281168282160390808211156129b0576129b06128d0565b5092915050565b6000600182016129c9576129c96128d0565b5060010190565b81810381811115610600576106006128d0565b600082612a0057634e487b7160e01b600052601260045260246000fd5b500490565b8082028115828204841417610600576106006128d0565b600061ffff808316818103612a3357612a336128d0565b6001019392505050565b601f821115612a8757600081815260208120601f850160051c81016020861015612a645750805b601f850160051c820191505b81811015612a8357828155600101612a70565b5050505b505050565b815167ffffffffffffffff811115612aa657612aa661284d565b612aba81612ab48454612905565b84612a3d565b602080601f831160018114612aef5760008415612ad75750858301515b600019600386901b1c1916600185901b178555612a83565b600085815260208120601f198616915b82811015612b1e57888601518255948401946001909101908401612aff565b5085821015612b3c5787850151600019600388901b60f8161c191681555b5050505050600190811b01905550565b60008154612b5981612905565b808552602060018381168015612b765760018114612b9057612bbe565b60ff1985168884015283151560051b880183019550612bbe565b866000528260002060005b85811015612bb65781548a8201860152908301908401612b9b565b890184019650505b505050505092915050565b60208152612bf260208201612be584546001600160a01b031690565b6001600160a01b03169052565b600182015460408201526002820154606082015260038201546080820152600482015460a0820152600582015460c0820152600682015460e082015260078201546001600160a01b038116610100830152600090612c5a610120840160ff8360a01c16612430565b506101e080610140840152612c76610200840160088601612b4c565b6009850154610160850152600a850154610180850152600b8501546101a0850152600c8501546101c0850152600d909401549201919091525090565b600060208284031215612cc457600080fd5b81516125858161277c565b6020808252602b908201527f496e697469616c697a61626c653a20636f6e7472616374206973206e6f74206960408201526a6e697469616c697a696e6760a81b60608201526080019056fea2646970667358221220d88fc962d5d79c8b44792e10c6d622e420ab579e7ffa8165a0108b81c012115b64736f6c63430008130033",
					"opcodes": "PUSH1 0x80 PUSH1 0x40 MSTORE PUSH1 0x66 SLOAD PUSH3 0x14 SWAP1 PUSH1 0x1 PUSH3 0x4B JUMP JUMPDEST PUSH1 0x65 SSTORE PUSH3 0xF4240 PUSH1 0x66 DUP2 SWAP1 SSTORE PUSH1 0x64 PUSH1 0x67 SSTORE PUSH3 0x32 SWAP1 PUSH1 0x1E PUSH3 0x4B JUMP JUMPDEST PUSH1 0x68 SSTORE PUSH1 0x69 DUP1 SLOAD PUSH4 0xFFFFFFFF NOT AND PUSH1 0xA OR SWAP1 SSTORE PUSH3 0x77 JUMP JUMPDEST DUP1 DUP3 MUL DUP2 ISZERO DUP3 DUP3 DIV DUP5 EQ OR PUSH3 0x71 JUMPI PUSH4 0x4E487B71 PUSH1 0xE0 SHL PUSH1 0x0 MSTORE PUSH1 0x11 PUSH1 0x4 MSTORE PUSH1 0x24 PUSH1 0x0 REVERT JUMPDEST SWAP3 SWAP2 POP POP JUMP JUMPDEST PUSH2 0x2D50 DUP1 PUSH3 0x87 PUSH1 0x0 CODECOPY PUSH1 0x0 RETURN INVALID PUSH1 0x80 PUSH1 0x40 MSTORE CALLVALUE DUP1 ISZERO PUSH2 0x10 JUMPI PUSH1 0x0 DUP1 REVERT JUMPDEST POP PUSH1 0x4 CALLDATASIZE LT PUSH2 0x1F0 JUMPI PUSH1 0x0 CALLDATALOAD PUSH1 0xE0 SHR DUP1 PUSH4 0xA429A513 GT PUSH2 0x10F JUMPI DUP1 PUSH4 0xCB286F19 GT PUSH2 0xA2 JUMPI DUP1 PUSH4 0xEE590788 GT PUSH2 0x71 JUMPI DUP1 PUSH4 0xEE590788 EQ PUSH2 0x44A JUMPI DUP1 PUSH4 0xF2FDE38B EQ PUSH2 0x46A JUMPI DUP1 PUSH4 0xF4B7F343 EQ PUSH2 0x47D JUMPI DUP1 PUSH4 0xF8525B93 EQ PUSH2 0x490 JUMPI PUSH1 0x0 DUP1 REVERT JUMPDEST DUP1 PUSH4 0xCB286F19 EQ PUSH2 0x3EC JUMPI DUP1 PUSH4 0xCC2A9A5B EQ PUSH2 0x411 JUMPI DUP1 PUSH4 0xDC30CBB4 EQ PUSH2 0x424 JUMPI DUP1 PUSH4 0xDDCD6408 EQ PUSH2 0x437 JUMPI PUSH1 0x0 DUP1 REVERT JUMPDEST DUP1 PUSH4 0xB935948A GT PUSH2 0xDE JUMPI DUP1 PUSH4 0xB935948A EQ PUSH2 0x393 JUMPI DUP1 PUSH4 0xBC65FEE5 EQ PUSH2 0x3A6 JUMPI DUP1 PUSH4 0xBF9CE952 EQ PUSH2 0x3C6 JUMPI DUP1 PUSH4 0xC01C36D0 EQ PUSH2 0x3D9 JUMPI PUSH1 0x0 DUP1 REVERT JUMPDEST DUP1 PUSH4 0xA429A513 EQ PUSH2 0x341 JUMPI DUP1 PUSH4 0xA559934E EQ PUSH2 0x364 JUMPI DUP1 PUSH4 0xB22A9F9A EQ PUSH2 0x377 JUMPI DUP1 PUSH4 0xB7182530 EQ PUSH2 0x380 JUMPI PUSH1 0x0 DUP1 REVERT JUMPDEST DUP1 PUSH4 0x486F6AFE GT PUSH2 0x187 JUMPI DUP1 PUSH4 0x8C4A876D GT PUSH2 0x156 JUMPI DUP1 PUSH4 0x8C4A876D EQ PUSH2 0x30D JUMPI DUP1 PUSH4 0x8C7AB1D7 EQ PUSH2 0x315 JUMPI DUP1 PUSH4 0x8DA5CB5B EQ PUSH2 0x328 JUMPI DUP1 PUSH4 0x8FE39EFD EQ PUSH2 0x339 JUMPI PUSH1 0x0 DUP1 REVERT JUMPDEST DUP1 PUSH4 0x486F6AFE EQ PUSH2 0x2AF JUMPI DUP1 PUSH4 0x61B26F27 EQ PUSH2 0x2C2 JUMPI DUP1 PUSH4 0x715018A6 EQ PUSH2 0x2E2 JUMPI DUP1 PUSH4 0x78F25AEE EQ PUSH2 0x2EC JUMPI PUSH1 0x0 DUP1 REVERT JUMPDEST DUP1 PUSH4 0x362EFC3D GT PUSH2 0x1C3 JUMPI DUP1 PUSH4 0x362EFC3D EQ PUSH2 0x281 JUMPI DUP1 PUSH4 0x395348DC EQ PUSH2 0x28A JUMPI DUP1 PUSH4 0x435A3E50 EQ PUSH2 0x293 JUMPI DUP1 PUSH4 0x47CCCA02 EQ PUSH2 0x29C JUMPI PUSH1 0x0 DUP1 REVERT JUMPDEST DUP1 PUSH4 0x76D5556 EQ PUSH2 0x1F5 JUMPI DUP1 PUSH4 0x11F1374A EQ PUSH2 0x211 JUMPI DUP1 PUSH4 0x2F48AB7D EQ PUSH2 0x236 JUMPI DUP1 PUSH4 0x31AE322F EQ PUSH2 0x261 JUMPI JUMPDEST PUSH1 0x0 DUP1 REVERT JUMPDEST PUSH2 0x1FE PUSH1 0x6D SLOAD DUP2 JUMP JUMPDEST PUSH1 0x40 MLOAD SWAP1 DUP2 MSTORE PUSH1 0x20 ADD JUMPDEST PUSH1 0x40 MLOAD DUP1 SWAP2 SUB SWAP1 RETURN JUMPDEST PUSH1 0x69 SLOAD PUSH2 0x221 SWAP1 PUSH4 0xFFFFFFFF AND DUP2 JUMP JUMPDEST PUSH1 0x40 MLOAD PUSH4 0xFFFFFFFF SWAP1 SWAP2 AND DUP2 MSTORE PUSH1 0x20 ADD PUSH2 0x208 JUMP JUMPDEST PUSH1 0x6E SLOAD PUSH2 0x249 SWAP1 PUSH1 0x1 PUSH1 0x1 PUSH1 0xA0 SHL SUB AND DUP2 JUMP JUMPDEST PUSH1 0x40 MLOAD PUSH1 0x1 PUSH1 0x1 PUSH1 0xA0 SHL SUB SWAP1 SWAP2 AND DUP2 MSTORE PUSH1 0x20 ADD PUSH2 0x208 JUMP JUMPDEST PUSH2 0x274 PUSH2 0x26F CALLDATASIZE PUSH1 0x4 PUSH2 0x2379 JUMP JUMPDEST PUSH2 0x4A3 JUMP JUMPDEST PUSH1 0x40 MLOAD PUSH2 0x208 SWAP2 SWAP1 PUSH2 0x23BB JUMP JUMPDEST PUSH2 0x1FE PUSH1 0x66 SLOAD DUP2 JUMP JUMPDEST PUSH2 0x1FE PUSH1 0x65 SLOAD DUP2 JUMP JUMPDEST PUSH2 0x1FE PUSH1 0x68 SLOAD DUP2 JUMP JUMPDEST PUSH1 0x71 SLOAD PUSH2 0x249 SWAP1 PUSH1 0x1 PUSH1 0x1 PUSH1 0xA0 SHL SUB AND DUP2 JUMP JUMPDEST PUSH1 0x6F SLOAD PUSH2 0x249 SWAP1 PUSH1 0x1 PUSH1 0x1 PUSH1 0xA0 SHL SUB AND DUP2 JUMP JUMPDEST PUSH2 0x2D5 PUSH2 0x2D0 CALLDATASIZE PUSH1 0x4 PUSH2 0x2401 JUMP JUMPDEST PUSH2 0x606 JUMP JUMPDEST PUSH1 0x40 MLOAD PUSH2 0x208 SWAP2 SWAP1 PUSH2 0x2572 JUMP JUMPDEST PUSH2 0x2EA PUSH2 0x789 JUMP JUMPDEST STOP JUMPDEST PUSH2 0x2FF PUSH2 0x2FA CALLDATASIZE PUSH1 0x4 PUSH2 0x25A5 JUMP JUMPDEST PUSH2 0x79D JUMP JUMPDEST PUSH1 0x40 MLOAD PUSH2 0x208 SWAP3 SWAP2 SWAP1 PUSH2 0x25C0 JUMP JUMPDEST PUSH2 0x1FE PUSH2 0xE3D JUMP JUMPDEST PUSH1 0x70 SLOAD PUSH2 0x249 SWAP1 PUSH1 0x1 PUSH1 0x1 PUSH1 0xA0 SHL SUB AND DUP2 JUMP JUMPDEST PUSH1 0x33 SLOAD PUSH1 0x1 PUSH1 0x1 PUSH1 0xA0 SHL SUB AND PUSH2 0x249 JUMP JUMPDEST PUSH2 0x1FE PUSH2 0xEA7 JUMP JUMPDEST PUSH2 0x354 PUSH2 0x34F CALLDATASIZE PUSH1 0x4 PUSH2 0x2643 JUMP JUMPDEST PUSH2 0xF19 JUMP JUMPDEST PUSH1 0x40 MLOAD SWAP1 ISZERO ISZERO DUP2 MSTORE PUSH1 0x20 ADD PUSH2 0x208 JUMP JUMPDEST PUSH2 0x2EA PUSH2 0x372 CALLDATASIZE PUSH1 0x4 PUSH2 0x266D JUMP JUMPDEST PUSH2 0xF9E JUMP JUMPDEST PUSH2 0x1FE PUSH1 0x67 SLOAD DUP2 JUMP JUMPDEST PUSH2 0x2FF PUSH2 0x38E CALLDATASIZE PUSH1 0x4 PUSH2 0x2688 JUMP JUMPDEST PUSH2 0xFC8 JUMP JUMPDEST PUSH2 0x2EA PUSH2 0x3A1 CALLDATASIZE PUSH1 0x4 PUSH2 0x2401 JUMP JUMPDEST PUSH2 0x1678 JUMP JUMPDEST PUSH2 0x1FE PUSH2 0x3B4 CALLDATASIZE PUSH1 0x4 PUSH2 0x2401 JUMP JUMPDEST PUSH1 0x6B PUSH1 0x20 MSTORE PUSH1 0x0 SWAP1 DUP2 MSTORE PUSH1 0x40 SWAP1 KECCAK256 SLOAD DUP2 JUMP JUMPDEST PUSH1 0x73 SLOAD PUSH2 0x249 SWAP1 PUSH1 0x1 PUSH1 0x1 PUSH1 0xA0 SHL SUB AND DUP2 JUMP JUMPDEST PUSH1 0x72 SLOAD PUSH2 0x249 SWAP1 PUSH1 0x1 PUSH1 0x1 PUSH1 0xA0 SHL SUB AND DUP2 JUMP JUMPDEST PUSH2 0x3FF PUSH2 0x3FA CALLDATASIZE PUSH1 0x4 PUSH2 0x2401 JUMP JUMPDEST PUSH2 0x1685 JUMP JUMPDEST PUSH1 0x40 MLOAD PUSH2 0x208 SWAP7 SWAP6 SWAP5 SWAP4 SWAP3 SWAP2 SWAP1 PUSH2 0x26BB JUMP JUMPDEST PUSH2 0x2EA PUSH2 0x41F CALLDATASIZE PUSH1 0x4 PUSH2 0x2708 JUMP JUMPDEST PUSH2 0x17CD JUMP JUMPDEST PUSH2 0x2EA PUSH2 0x432 CALLDATASIZE PUSH1 0x4 PUSH2 0x266D JUMP JUMPDEST PUSH2 0x196E JUMP JUMPDEST PUSH2 0x2EA PUSH2 0x445 CALLDATASIZE PUSH1 0x4 PUSH2 0x266D JUMP JUMPDEST PUSH2 0x1998 JUMP JUMPDEST PUSH2 0x45D PUSH2 0x458 CALLDATASIZE PUSH1 0x4 PUSH2 0x278A JUMP JUMPDEST PUSH2 0x19C2 JUMP JUMPDEST PUSH1 0x40 MLOAD PUSH2 0x208 SWAP2 SWAP1 PUSH2 0x2815 JUMP JUMPDEST PUSH2 0x2EA PUSH2 0x478 CALLDATASIZE PUSH1 0x4 PUSH2 0x266D JUMP JUMPDEST PUSH2 0x1C47 JUMP JUMPDEST PUSH2 0x274 PUSH2 0x48B CALLDATASIZE PUSH1 0x4 PUSH2 0x2379 JUMP JUMPDEST PUSH2 0x1CC0 JUMP JUMPDEST PUSH2 0x2EA PUSH2 0x49E CALLDATASIZE PUSH1 0x4 PUSH2 0x266D JUMP JUMPDEST PUSH2 0x1E15 JUMP JUMPDEST PUSH1 0x60 PUSH1 0x0 DUP3 PUSH8 0xFFFFFFFFFFFFFFFF DUP2 GT ISZERO PUSH2 0x4C0 JUMPI PUSH2 0x4C0 PUSH2 0x284D JUMP JUMPDEST PUSH1 0x40 MLOAD SWAP1 DUP1 DUP3 MSTORE DUP1 PUSH1 0x20 MUL PUSH1 0x20 ADD DUP3 ADD PUSH1 0x40 MSTORE DUP1 ISZERO PUSH2 0x4E9 JUMPI DUP2 PUSH1 0x20 ADD PUSH1 0x20 DUP3 MUL DUP1 CALLDATASIZE DUP4 CALLDATACOPY ADD SWAP1 POP JUMPDEST POP SWAP1 POP PUSH1 0x0 DUP1 JUMPDEST PUSH1 0xFF DUP2 AND DUP6 GT ISZERO PUSH2 0x5FA JUMPI DUP6 DUP6 DUP3 PUSH1 0xFF AND DUP2 DUP2 LT PUSH2 0x510 JUMPI PUSH2 0x510 PUSH2 0x2863 JUMP JUMPDEST SWAP1 POP PUSH1 0x20 MUL DUP2 ADD SWAP1 PUSH2 0x522 SWAP2 SWAP1 PUSH2 0x2879 JUMP JUMPDEST PUSH1 0x40 MLOAD PUSH1 0x20 ADD PUSH2 0x533 SWAP3 SWAP2 SWAP1 PUSH2 0x28C0 JUMP JUMPDEST PUSH1 0x40 DUP1 MLOAD DUP1 DUP4 SUB PUSH1 0x1F NOT ADD DUP2 MSTORE SWAP2 DUP2 MSTORE DUP2 MLOAD PUSH1 0x20 SWAP3 DUP4 ADD KECCAK256 PUSH1 0x0 DUP2 DUP2 MSTORE PUSH1 0x6A SWAP1 SWAP4 MSTORE SWAP2 KECCAK256 SLOAD SWAP1 SWAP3 POP PUSH1 0x1 PUSH1 0x1 PUSH1 0xA0 SHL SUB AND CALLER EQ ISZERO DUP1 PUSH2 0x59D JUMPI POP PUSH1 0x0 DUP1 DUP4 DUP2 MSTORE PUSH1 0x6A PUSH1 0x20 MSTORE PUSH1 0x40 SWAP1 KECCAK256 PUSH1 0x7 ADD SLOAD PUSH1 0x1 PUSH1 0xA0 SHL SWAP1 DIV PUSH1 0xFF AND PUSH1 0x3 DUP2 GT ISZERO PUSH2 0x59B JUMPI PUSH2 0x59B PUSH2 0x241A JUMP JUMPDEST EQ JUMPDEST PUSH2 0x5E8 JUMPI PUSH1 0x0 DUP3 DUP2 MSTORE PUSH1 0x6A PUSH1 0x20 MSTORE PUSH1 0x40 SWAP1 KECCAK256 PUSH1 0x7 ADD DUP1 SLOAD PUSH1 0xFF PUSH1 0xA0 SHL NOT AND SWAP1 SSTORE DUP3 MLOAD PUSH1 0x1 SWAP1 DUP5 SWAP1 PUSH1 0xFF DUP5 AND SWAP1 DUP2 LT PUSH2 0x5D7 JUMPI PUSH2 0x5D7 PUSH2 0x2863 JUMP JUMPDEST SWAP2 ISZERO ISZERO PUSH1 0x20 SWAP3 DUP4 MUL SWAP2 SWAP1 SWAP2 ADD SWAP1 SWAP2 ADD MSTORE JUMPDEST DUP1 PUSH2 0x5F2 DUP2 PUSH2 0x28E6 JUMP JUMPDEST SWAP2 POP POP PUSH2 0x4F0 JUMP JUMPDEST POP SWAP1 SWAP2 POP POP JUMPDEST SWAP3 SWAP2 POP POP JUMP JUMPDEST PUSH2 0x60E PUSH2 0x22BA JUMP JUMPDEST PUSH1 0x0 DUP3 DUP2 MSTORE PUSH1 0x6A PUSH1 0x20 SWAP1 DUP2 MSTORE PUSH1 0x40 SWAP2 DUP3 SWAP1 KECCAK256 DUP3 MLOAD PUSH2 0x1E0 DUP2 ADD DUP5 MSTORE DUP2 SLOAD PUSH1 0x1 PUSH1 0x1 PUSH1 0xA0 SHL SUB SWAP1 DUP2 AND DUP3 MSTORE PUSH1 0x1 DUP4 ADD SLOAD SWAP4 DUP3 ADD SWAP4 SWAP1 SWAP4 MSTORE PUSH1 0x2 DUP3 ADD SLOAD SWAP4 DUP2 ADD SWAP4 SWAP1 SWAP4 MSTORE PUSH1 0x3 DUP1 DUP3 ADD SLOAD PUSH1 0x60 DUP6 ADD MSTORE PUSH1 0x4 DUP3 ADD SLOAD PUSH1 0x80 DUP6 ADD MSTORE PUSH1 0x5 DUP3 ADD SLOAD PUSH1 0xA0 DUP6 ADD MSTORE PUSH1 0x6 DUP3 ADD SLOAD PUSH1 0xC0 DUP6 ADD MSTORE PUSH1 0x7 DUP3 ADD SLOAD SWAP3 DUP4 AND PUSH1 0xE0 DUP6 ADD MSTORE SWAP1 SWAP2 PUSH2 0x100 DUP5 ADD SWAP2 PUSH1 0x1 PUSH1 0xA0 SHL SWAP1 SWAP2 DIV PUSH1 0xFF AND SWAP1 DUP2 GT ISZERO PUSH2 0x6A9 JUMPI PUSH2 0x6A9 PUSH2 0x241A JUMP JUMPDEST PUSH1 0x3 DUP2 GT ISZERO PUSH2 0x6BA JUMPI PUSH2 0x6BA PUSH2 0x241A JUMP JUMPDEST DUP2 MSTORE PUSH1 0x20 ADD PUSH1 0x8 DUP3 ADD DUP1 SLOAD PUSH2 0x6CE SWAP1 PUSH2 0x2905 JUMP JUMPDEST DUP1 PUSH1 0x1F ADD PUSH1 0x20 DUP1 SWAP2 DIV MUL PUSH1 0x20 ADD PUSH1 0x40 MLOAD SWAP1 DUP2 ADD PUSH1 0x40 MSTORE DUP1 SWAP3 SWAP2 SWAP1 DUP2 DUP2 MSTORE PUSH1 0x20 ADD DUP3 DUP1 SLOAD PUSH2 0x6FA SWAP1 PUSH2 0x2905 JUMP JUMPDEST DUP1 ISZERO PUSH2 0x747 JUMPI DUP1 PUSH1 0x1F LT PUSH2 0x71C JUMPI PUSH2 0x100 DUP1 DUP4 SLOAD DIV MUL DUP4 MSTORE SWAP2 PUSH1 0x20 ADD SWAP2 PUSH2 0x747 JUMP JUMPDEST DUP3 ADD SWAP2 SWAP1 PUSH1 0x0 MSTORE PUSH1 0x20 PUSH1 0x0 KECCAK256 SWAP1 JUMPDEST DUP2 SLOAD DUP2 MSTORE SWAP1 PUSH1 0x1 ADD SWAP1 PUSH1 0x20 ADD DUP1 DUP4 GT PUSH2 0x72A JUMPI DUP3 SWAP1 SUB PUSH1 0x1F AND DUP3 ADD SWAP2 JUMPDEST POP POP POP POP POP DUP2 MSTORE PUSH1 0x20 ADD PUSH1 0x9 DUP3 ADD SLOAD DUP2 MSTORE PUSH1 0x20 ADD PUSH1 0xA DUP3 ADD SLOAD DUP2 MSTORE PUSH1 0x20 ADD PUSH1 0xB DUP3 ADD SLOAD DUP2 MSTORE PUSH1 0x20 ADD PUSH1 0xC DUP3 ADD SLOAD DUP2 MSTORE PUSH1 0x20 ADD PUSH1 0xD DUP3 ADD SLOAD DUP2 MSTORE POP POP SWAP1 POP SWAP2 SWAP1 POP JUMP JUMPDEST PUSH2 0x791 PUSH2 0x1E3F JUMP JUMPDEST PUSH2 0x79B PUSH1 0x0 PUSH2 0x1E99 JUMP JUMPDEST JUMP JUMPDEST PUSH1 0x71 SLOAD PUSH1 0x40 MLOAD PUSH4 0x70A08231 PUSH1 0xE0 SHL DUP2 MSTORE CALLER PUSH1 0x4 DUP3 ADD MSTORE PUSH1 0x0 SWAP2 PUSH1 0x60 SWAP2 DUP4 SWAP2 PUSH1 0x1 PUSH1 0x1 PUSH1 0xA0 SHL SUB AND SWAP1 PUSH4 0x70A08231 SWAP1 PUSH1 0x24 ADD PUSH1 0x20 PUSH1 0x40 MLOAD DUP1 DUP4 SUB DUP2 DUP7 GAS STATICCALL ISZERO DUP1 ISZERO PUSH2 0x7EB JUMPI RETURNDATASIZE PUSH1 0x0 DUP1 RETURNDATACOPY RETURNDATASIZE PUSH1 0x0 REVERT JUMPDEST POP POP POP POP PUSH1 0x40 MLOAD RETURNDATASIZE PUSH1 0x1F NOT PUSH1 0x1F DUP3 ADD AND DUP3 ADD DUP1 PUSH1 0x40 MSTORE POP DUP2 ADD SWAP1 PUSH2 0x80F SWAP2 SWAP1 PUSH2 0x293F JUMP JUMPDEST PUSH1 0x69 SLOAD SWAP1 SWAP2 POP PUSH2 0x825 SWAP1 PUSH4 0xFFFFFFFF AND DUP3 PUSH2 0x2958 JUMP JUMPDEST PUSH1 0x69 SLOAD PUSH2 0x838 SWAP1 PUSH4 0xFFFFFFFF AND DUP7 PUSH2 0x296B JUMP JUMPDEST PUSH4 0xFFFFFFFF AND GT ISZERO PUSH2 0x84E JUMPI PUSH1 0x0 SWAP3 POP POP SWAP2 POP SWAP2 JUMP JUMPDEST PUSH1 0x69 SLOAD DUP2 SWAP1 PUSH2 0x863 SWAP1 PUSH4 0xFFFFFFFF AND DUP7 PUSH2 0x296B JUMP JUMPDEST PUSH4 0xFFFFFFFF AND LT ISZERO PUSH2 0xB42 JUMPI PUSH1 0x69 SLOAD PUSH1 0x1 SWAP4 POP PUSH4 0xFFFFFFFF AND PUSH8 0xFFFFFFFFFFFFFFFF DUP2 GT ISZERO PUSH2 0x894 JUMPI PUSH2 0x894 PUSH2 0x284D JUMP JUMPDEST PUSH1 0x40 MLOAD SWAP1 DUP1 DUP3 MSTORE DUP1 PUSH1 0x20 MUL PUSH1 0x20 ADD DUP3 ADD PUSH1 0x40 MSTORE DUP1 ISZERO PUSH2 0x8CD JUMPI DUP2 PUSH1 0x20 ADD JUMPDEST PUSH2 0x8BA PUSH2 0x22BA JUMP JUMPDEST DUP2 MSTORE PUSH1 0x20 ADD SWAP1 PUSH1 0x1 SWAP1 SUB SWAP1 DUP2 PUSH2 0x8B2 JUMPI SWAP1 POP JUMPDEST POP SWAP2 POP PUSH1 0x0 JUMPDEST DUP3 MLOAD DUP2 LT ISZERO PUSH2 0xB3B JUMPI PUSH1 0x71 SLOAD PUSH1 0x69 SLOAD PUSH1 0x6A SWAP2 PUSH1 0x0 SWAP2 PUSH1 0x1 PUSH1 0x1 PUSH1 0xA0 SHL SUB SWAP1 SWAP2 AND SWAP1 PUSH4 0x2F745C59 SWAP1 CALLER SWAP1 DUP7 SWAP1 PUSH4 0xFFFFFFFF AND PUSH2 0x90E DUP2 DUP14 PUSH2 0x296B JUMP JUMPDEST PUSH2 0x918 SWAP2 SWAP1 PUSH2 0x2993 JUMP JUMPDEST PUSH4 0xFFFFFFFF AND PUSH2 0x928 SWAP2 SWAP1 PUSH2 0x2958 JUMP JUMPDEST PUSH1 0x40 MLOAD PUSH1 0x1 PUSH1 0x1 PUSH1 0xE0 SHL SUB NOT PUSH1 0xE0 DUP6 SWAP1 SHL AND DUP2 MSTORE PUSH1 0x1 PUSH1 0x1 PUSH1 0xA0 SHL SUB SWAP1 SWAP3 AND PUSH1 0x4 DUP4 ADD MSTORE PUSH1 0x24 DUP3 ADD MSTORE PUSH1 0x44 ADD PUSH1 0x20 PUSH1 0x40 MLOAD DUP1 DUP4 SUB DUP2 DUP7 GAS STATICCALL ISZERO DUP1 ISZERO PUSH2 0x971 JUMPI RETURNDATASIZE PUSH1 0x0 DUP1 RETURNDATACOPY RETURNDATASIZE PUSH1 0x0 REVERT JUMPDEST POP POP POP POP PUSH1 0x40 MLOAD RETURNDATASIZE PUSH1 0x1F NOT PUSH1 0x1F DUP3 ADD AND DUP3 ADD DUP1 PUSH1 0x40 MSTORE POP DUP2 ADD SWAP1 PUSH2 0x995 SWAP2 SWAP1 PUSH2 0x293F JUMP JUMPDEST DUP2 MSTORE PUSH1 0x20 DUP1 DUP3 ADD SWAP3 SWAP1 SWAP3 MSTORE PUSH1 0x40 SWAP1 DUP2 ADD PUSH1 0x0 KECCAK256 DUP2 MLOAD PUSH2 0x1E0 DUP2 ADD DUP4 MSTORE DUP2 SLOAD PUSH1 0x1 PUSH1 0x1 PUSH1 0xA0 SHL SUB SWAP1 DUP2 AND DUP3 MSTORE PUSH1 0x1 DUP4 ADD SLOAD SWAP5 DUP3 ADD SWAP5 SWAP1 SWAP5 MSTORE PUSH1 0x2 DUP3 ADD SLOAD SWAP3 DUP2 ADD SWAP3 SWAP1 SWAP3 MSTORE PUSH1 0x3 DUP1 DUP3 ADD SLOAD PUSH1 0x60 DUP5 ADD MSTORE PUSH1 0x4 DUP3 ADD SLOAD PUSH1 0x80 DUP5 ADD MSTORE PUSH1 0x5 DUP3 ADD SLOAD PUSH1 0xA0 DUP5 ADD MSTORE PUSH1 0x6 DUP3 ADD SLOAD PUSH1 0xC0 DUP5 ADD MSTORE PUSH1 0x7 DUP3 ADD SLOAD SWAP4 DUP5 AND PUSH1 0xE0 DUP5 ADD MSTORE SWAP2 SWAP3 SWAP1 SWAP2 PUSH2 0x100 DUP5 ADD SWAP2 PUSH1 0x1 PUSH1 0xA0 SHL SWAP1 DIV PUSH1 0xFF AND SWAP1 DUP2 GT ISZERO PUSH2 0xA32 JUMPI PUSH2 0xA32 PUSH2 0x241A JUMP JUMPDEST PUSH1 0x3 DUP2 GT ISZERO PUSH2 0xA43 JUMPI PUSH2 0xA43 PUSH2 0x241A JUMP JUMPDEST DUP2 MSTORE PUSH1 0x20 ADD PUSH1 0x8 DUP3 ADD DUP1 SLOAD PUSH2 0xA57 SWAP1 PUSH2 0x2905 JUMP JUMPDEST DUP1 PUSH1 0x1F ADD PUSH1 0x20 DUP1 SWAP2 DIV MUL PUSH1 0x20 ADD PUSH1 0x40 MLOAD SWAP1 DUP2 ADD PUSH1 0x40 MSTORE DUP1 SWAP3 SWAP2 SWAP1 DUP2 DUP2 MSTORE PUSH1 0x20 ADD DUP3 DUP1 SLOAD PUSH2 0xA83 SWAP1 PUSH2 0x2905 JUMP JUMPDEST DUP1 ISZERO PUSH2 0xAD0 JUMPI DUP1 PUSH1 0x1F LT PUSH2 0xAA5 JUMPI PUSH2 0x100 DUP1 DUP4 SLOAD DIV MUL DUP4 MSTORE SWAP2 PUSH1 0x20 ADD SWAP2 PUSH2 0xAD0 JUMP JUMPDEST DUP3 ADD SWAP2 SWAP1 PUSH1 0x0 MSTORE PUSH1 0x20 PUSH1 0x0 KECCAK256 SWAP1 JUMPDEST DUP2 SLOAD DUP2 MSTORE SWAP1 PUSH1 0x1 ADD SWAP1 PUSH1 0x20 ADD DUP1 DUP4 GT PUSH2 0xAB3 JUMPI DUP3 SWAP1 SUB PUSH1 0x1F AND DUP3 ADD SWAP2 JUMPDEST POP POP POP POP POP DUP2 MSTORE PUSH1 0x20 ADD PUSH1 0x9 DUP3 ADD SLOAD DUP2 MSTORE PUSH1 0x20 ADD PUSH1 0xA DUP3 ADD SLOAD DUP2 MSTORE PUSH1 0x20 ADD PUSH1 0xB DUP3 ADD SLOAD DUP2 MSTORE PUSH1 0x20 ADD PUSH1 0xC DUP3 ADD SLOAD DUP2 MSTORE PUSH1 0x20 ADD PUSH1 0xD DUP3 ADD SLOAD DUP2 MSTORE POP POP DUP4 DUP3 DUP2 MLOAD DUP2 LT PUSH2 0xB1D JUMPI PUSH2 0xB1D PUSH2 0x2863 JUMP JUMPDEST PUSH1 0x20 MUL PUSH1 0x20 ADD ADD DUP2 SWAP1 MSTORE POP DUP1 DUP1 PUSH2 0xB33 SWAP1 PUSH2 0x29B7 JUMP JUMPDEST SWAP2 POP POP PUSH2 0x8D3 JUMP JUMPDEST POP POP SWAP2 POP SWAP2 JUMP JUMPDEST PUSH1 0x69 SLOAD PUSH1 0x0 SWAP4 POP DUP2 SWAP1 PUSH2 0xB5B SWAP1 PUSH4 0xFFFFFFFF AND DUP7 PUSH2 0x296B JUMP JUMPDEST PUSH4 0xFFFFFFFF AND PUSH2 0xB6B SWAP2 SWAP1 PUSH2 0x29D0 JUMP JUMPDEST PUSH1 0x69 SLOAD PUSH2 0xB7E SWAP2 SWAP1 PUSH4 0xFFFFFFFF AND PUSH2 0x29D0 JUMP JUMPDEST PUSH8 0xFFFFFFFFFFFFFFFF DUP2 GT ISZERO PUSH2 0xB96 JUMPI PUSH2 0xB96 PUSH2 0x284D JUMP JUMPDEST PUSH1 0x40 MLOAD SWAP1 DUP1 DUP3 MSTORE DUP1 PUSH1 0x20 MUL PUSH1 0x20 ADD DUP3 ADD PUSH1 0x40 MSTORE DUP1 ISZERO PUSH2 0xBCF JUMPI DUP2 PUSH1 0x20 ADD JUMPDEST PUSH2 0xBBC PUSH2 0x22BA JUMP JUMPDEST DUP2 MSTORE PUSH1 0x20 ADD SWAP1 PUSH1 0x1 SWAP1 SUB SWAP1 DUP2 PUSH2 0xBB4 JUMPI SWAP1 POP JUMPDEST POP SWAP2 POP PUSH1 0x0 JUMPDEST DUP3 MLOAD DUP2 LT ISZERO PUSH2 0xB3B JUMPI PUSH1 0x71 SLOAD PUSH1 0x69 SLOAD PUSH1 0x6A SWAP2 PUSH1 0x0 SWAP2 PUSH1 0x1 PUSH1 0x1 PUSH1 0xA0 SHL SUB SWAP1 SWAP2 AND SWAP1 PUSH4 0x2F745C59 SWAP1 CALLER SWAP1 DUP7 SWAP1 PUSH4 0xFFFFFFFF AND PUSH2 0xC10 DUP2 DUP14 PUSH2 0x296B JUMP JUMPDEST PUSH2 0xC1A SWAP2 SWAP1 PUSH2 0x2993 JUMP JUMPDEST PUSH4 0xFFFFFFFF AND PUSH2 0xC2A SWAP2 SWAP1 PUSH2 0x2958 JUMP JUMPDEST PUSH1 0x40 MLOAD PUSH1 0x1 PUSH1 0x1 PUSH1 0xE0 SHL SUB NOT PUSH1 0xE0 DUP6 SWAP1 SHL AND DUP2 MSTORE PUSH1 0x1 PUSH1 0x1 PUSH1 0xA0 SHL SUB SWAP1 SWAP3 AND PUSH1 0x4 DUP4 ADD MSTORE PUSH1 0x24 DUP3 ADD MSTORE PUSH1 0x44 ADD PUSH1 0x20 PUSH1 0x40 MLOAD DUP1 DUP4 SUB DUP2 DUP7 GAS STATICCALL ISZERO DUP1 ISZERO PUSH2 0xC73 JUMPI RETURNDATASIZE PUSH1 0x0 DUP1 RETURNDATACOPY RETURNDATASIZE PUSH1 0x0 REVERT JUMPDEST POP POP POP POP PUSH1 0x40 MLOAD RETURNDATASIZE PUSH1 0x1F NOT PUSH1 0x1F DUP3 ADD AND DUP3 ADD DUP1 PUSH1 0x40 MSTORE POP DUP2 ADD SWAP1 PUSH2 0xC97 SWAP2 SWAP1 PUSH2 0x293F JUMP JUMPDEST DUP2 MSTORE PUSH1 0x20 DUP1 DUP3 ADD SWAP3 SWAP1 SWAP3 MSTORE PUSH1 0x40 SWAP1 DUP2 ADD PUSH1 0x0 KECCAK256 DUP2 MLOAD PUSH2 0x1E0 DUP2 ADD DUP4 MSTORE DUP2 SLOAD PUSH1 0x1 PUSH1 0x1 PUSH1 0xA0 SHL SUB SWAP1 DUP2 AND DUP3 MSTORE PUSH1 0x1 DUP4 ADD SLOAD SWAP5 DUP3 ADD SWAP5 SWAP1 SWAP5 MSTORE PUSH1 0x2 DUP3 ADD SLOAD SWAP3 DUP2 ADD SWAP3 SWAP1 SWAP3 MSTORE PUSH1 0x3 DUP1 DUP3 ADD SLOAD PUSH1 0x60 DUP5 ADD MSTORE PUSH1 0x4 DUP3 ADD SLOAD PUSH1 0x80 DUP5 ADD MSTORE PUSH1 0x5 DUP3 ADD SLOAD PUSH1 0xA0 DUP5 ADD MSTORE PUSH1 0x6 DUP3 ADD SLOAD PUSH1 0xC0 DUP5 ADD MSTORE PUSH1 0x7 DUP3 ADD SLOAD SWAP4 DUP5 AND PUSH1 0xE0 DUP5 ADD MSTORE SWAP2 SWAP3 SWAP1 SWAP2 PUSH2 0x100 DUP5 ADD SWAP2 PUSH1 0x1 PUSH1 0xA0 SHL SWAP1 DIV PUSH1 0xFF AND SWAP1 DUP2 GT ISZERO PUSH2 0xD34 JUMPI PUSH2 0xD34 PUSH2 0x241A JUMP JUMPDEST PUSH1 0x3 DUP2 GT ISZERO PUSH2 0xD45 JUMPI PUSH2 0xD45 PUSH2 0x241A JUMP JUMPDEST DUP2 MSTORE PUSH1 0x20 ADD PUSH1 0x8 DUP3 ADD DUP1 SLOAD PUSH2 0xD59 SWAP1 PUSH2 0x2905 JUMP JUMPDEST DUP1 PUSH1 0x1F ADD PUSH1 0x20 DUP1 SWAP2 DIV MUL PUSH1 0x20 ADD PUSH1 0x40 MLOAD SWAP1 DUP2 ADD PUSH1 0x40 MSTORE DUP1 SWAP3 SWAP2 SWAP1 DUP2 DUP2 MSTORE PUSH1 0x20 ADD DUP3 DUP1 SLOAD PUSH2 0xD85 SWAP1 PUSH2 0x2905 JUMP JUMPDEST DUP1 ISZERO PUSH2 0xDD2 JUMPI DUP1 PUSH1 0x1F LT PUSH2 0xDA7 JUMPI PUSH2 0x100 DUP1 DUP4 SLOAD DIV MUL DUP4 MSTORE SWAP2 PUSH1 0x20 ADD SWAP2 PUSH2 0xDD2 JUMP JUMPDEST DUP3 ADD SWAP2 SWAP1 PUSH1 0x0 MSTORE PUSH1 0x20 PUSH1 0x0 KECCAK256 SWAP1 JUMPDEST DUP2 SLOAD DUP2 MSTORE SWAP1 PUSH1 0x1 ADD SWAP1 PUSH1 0x20 ADD DUP1 DUP4 GT PUSH2 0xDB5 JUMPI DUP3 SWAP1 SUB PUSH1 0x1F AND DUP3 ADD SWAP2 JUMPDEST POP POP POP POP POP DUP2 MSTORE PUSH1 0x20 ADD PUSH1 0x9 DUP3 ADD SLOAD DUP2 MSTORE PUSH1 0x20 ADD PUSH1 0xA DUP3 ADD SLOAD DUP2 MSTORE PUSH1 0x20 ADD PUSH1 0xB DUP3 ADD SLOAD DUP2 MSTORE PUSH1 0x20 ADD PUSH1 0xC DUP3 ADD SLOAD DUP2 MSTORE PUSH1 0x20 ADD PUSH1 0xD DUP3 ADD SLOAD DUP2 MSTORE POP POP DUP4 DUP3 DUP2 MLOAD DUP2 LT PUSH2 0xE1F JUMPI PUSH2 0xE1F PUSH2 0x2863 JUMP JUMPDEST PUSH1 0x20 MUL PUSH1 0x20 ADD ADD DUP2 SWAP1 MSTORE POP DUP1 DUP1 PUSH2 0xE35 SWAP1 PUSH2 0x29B7 JUMP JUMPDEST SWAP2 POP POP PUSH2 0xBD5 JUMP JUMPDEST PUSH1 0x0 DUP1 PUSH1 0x65 SLOAD SWAP1 POP PUSH1 0x0 PUSH3 0x4F1A00 PUSH1 0x6D SLOAD TIMESTAMP PUSH2 0xE59 SWAP2 SWAP1 PUSH2 0x29D0 JUMP JUMPDEST PUSH2 0xE63 SWAP2 SWAP1 PUSH2 0x29E3 JUMP JUMPDEST SWAP1 POP PUSH1 0x0 JUMPDEST DUP2 DUP2 PUSH2 0xFFFF AND LT ISZERO PUSH2 0xE9F JUMPI PUSH1 0x64 PUSH2 0xE81 DUP5 PUSH1 0x7D PUSH2 0x2A05 JUMP JUMPDEST PUSH2 0xE8B SWAP2 SWAP1 PUSH2 0x29E3 JUMP JUMPDEST SWAP3 POP DUP1 PUSH2 0xE97 DUP2 PUSH2 0x2A1C JUMP JUMPDEST SWAP2 POP POP PUSH2 0xE68 JUMP JUMPDEST POP SWAP1 SWAP3 SWAP2 POP POP JUMP JUMPDEST PUSH1 0x71 SLOAD PUSH1 0x40 MLOAD PUSH4 0x70A08231 PUSH1 0xE0 SHL DUP2 MSTORE CALLER PUSH1 0x4 DUP3 ADD MSTORE PUSH1 0x0 SWAP2 PUSH1 0x1 PUSH1 0x1 PUSH1 0xA0 SHL SUB AND SWAP1 PUSH4 0x70A08231 SWAP1 PUSH1 0x24 ADD PUSH1 0x20 PUSH1 0x40 MLOAD DUP1 DUP4 SUB DUP2 DUP7 GAS STATICCALL ISZERO DUP1 ISZERO PUSH2 0xEF0 JUMPI RETURNDATASIZE PUSH1 0x0 DUP1 RETURNDATACOPY RETURNDATASIZE PUSH1 0x0 REVERT JUMPDEST POP POP POP POP PUSH1 0x40 MLOAD RETURNDATASIZE PUSH1 0x1F NOT PUSH1 0x1F DUP3 ADD AND DUP3 ADD DUP1 PUSH1 0x40 MSTORE POP DUP2 ADD SWAP1 PUSH2 0xF14 SWAP2 SWAP1 PUSH2 0x293F JUMP JUMPDEST SWAP1 POP SWAP1 JUMP JUMPDEST PUSH1 0x72 SLOAD PUSH1 0x0 SWAP1 PUSH1 0x1 PUSH1 0x1 PUSH1 0xA0 SHL SUB AND CALLER EQ PUSH2 0xF7B JUMPI PUSH1 0x40 MLOAD PUSH3 0x461BCD PUSH1 0xE5 SHL DUP2 MSTORE PUSH1 0x20 PUSH1 0x4 DUP3 ADD MSTORE PUSH1 0x17 PUSH1 0x24 DUP3 ADD MSTORE PUSH32 0x4B76656E747572653A204F6E6C79206B76656E74757265000000000000000000 PUSH1 0x44 DUP3 ADD MSTORE PUSH1 0x64 ADD JUMPDEST PUSH1 0x40 MLOAD DUP1 SWAP2 SUB SWAP1 REVERT JUMPDEST PUSH2 0xF94 DUP4 DUP4 PUSH1 0x0 PUSH1 0x68 SLOAD PUSH2 0xF8D PUSH2 0xE3D JUMP JUMPDEST PUSH1 0x0 PUSH2 0x1EEB JUMP JUMPDEST POP PUSH1 0x1 SWAP4 SWAP3 POP POP POP JUMP JUMPDEST PUSH2 0xFA6 PUSH2 0x1E3F JUMP JUMPDEST PUSH1 0x70 DUP1 SLOAD PUSH1 0x1 PUSH1 0x1 PUSH1 0xA0 SHL SUB NOT AND PUSH1 0x1 PUSH1 0x1 PUSH1 0xA0 SHL SUB SWAP3 SWAP1 SWAP3 AND SWAP2 SWAP1 SWAP2 OR SWAP1 SSTORE JUMP JUMPDEST PUSH1 0x0 PUSH1 0x60 PUSH2 0xFD4 PUSH2 0x1E3F JUMP JUMPDEST PUSH1 0x71 SLOAD PUSH1 0x40 MLOAD PUSH4 0x70A08231 PUSH1 0xE0 SHL DUP2 MSTORE PUSH1 0x1 PUSH1 0x1 PUSH1 0xA0 SHL SUB DUP6 DUP2 AND PUSH1 0x4 DUP4 ADD MSTORE PUSH1 0x0 SWAP3 AND SWAP1 PUSH4 0x70A08231 SWAP1 PUSH1 0x24 ADD PUSH1 0x20 PUSH1 0x40 MLOAD DUP1 DUP4 SUB DUP2 DUP7 GAS STATICCALL ISZERO DUP1 ISZERO PUSH2 0x101F JUMPI RETURNDATASIZE PUSH1 0x0 DUP1 RETURNDATACOPY RETURNDATASIZE PUSH1 0x0 REVERT JUMPDEST POP POP POP POP PUSH1 0x40 MLOAD RETURNDATASIZE PUSH1 0x1F NOT PUSH1 0x1F DUP3 ADD AND DUP3 ADD DUP1 PUSH1 0x40 MSTORE POP DUP2 ADD SWAP1 PUSH2 0x1043 SWAP2 SWAP1 PUSH2 0x293F JUMP JUMPDEST PUSH1 0x69 SLOAD SWAP1 SWAP2 POP PUSH2 0x1059 SWAP1 PUSH4 0xFFFFFFFF AND DUP3 PUSH2 0x2958 JUMP JUMPDEST PUSH1 0x69 SLOAD PUSH2 0x106C SWAP1 PUSH4 0xFFFFFFFF AND DUP8 PUSH2 0x296B JUMP JUMPDEST PUSH4 0xFFFFFFFF AND GT ISZERO PUSH2 0x1082 JUMPI PUSH1 0x0 SWAP3 POP POP PUSH2 0x1671 JUMP JUMPDEST PUSH1 0x69 SLOAD DUP2 SWAP1 PUSH2 0x1097 SWAP1 PUSH4 0xFFFFFFFF AND DUP8 PUSH2 0x296B JUMP JUMPDEST PUSH4 0xFFFFFFFF AND LT ISZERO PUSH2 0x1376 JUMPI PUSH1 0x69 SLOAD PUSH1 0x1 SWAP4 POP PUSH4 0xFFFFFFFF AND PUSH8 0xFFFFFFFFFFFFFFFF DUP2 GT ISZERO PUSH2 0x10C8 JUMPI PUSH2 0x10C8 PUSH2 0x284D JUMP JUMPDEST PUSH1 0x40 MLOAD SWAP1 DUP1 DUP3 MSTORE DUP1 PUSH1 0x20 MUL PUSH1 0x20 ADD DUP3 ADD PUSH1 0x40 MSTORE DUP1 ISZERO PUSH2 0x1101 JUMPI DUP2 PUSH1 0x20 ADD JUMPDEST PUSH2 0x10EE PUSH2 0x22BA JUMP JUMPDEST DUP2 MSTORE PUSH1 0x20 ADD SWAP1 PUSH1 0x1 SWAP1 SUB SWAP1 DUP2 PUSH2 0x10E6 JUMPI SWAP1 POP JUMPDEST POP SWAP2 POP PUSH1 0x0 JUMPDEST DUP3 MLOAD DUP2 LT ISZERO PUSH2 0x136F JUMPI PUSH1 0x71 SLOAD PUSH1 0x69 SLOAD PUSH1 0x6A SWAP2 PUSH1 0x0 SWAP2 PUSH1 0x1 PUSH1 0x1 PUSH1 0xA0 SHL SUB SWAP1 SWAP2 AND SWAP1 PUSH4 0x2F745C59 SWAP1 DUP10 SWAP1 DUP7 SWAP1 PUSH4 0xFFFFFFFF AND PUSH2 0x1142 DUP2 DUP15 PUSH2 0x296B JUMP JUMPDEST PUSH2 0x114C SWAP2 SWAP1 PUSH2 0x2993 JUMP JUMPDEST PUSH4 0xFFFFFFFF AND PUSH2 0x115C SWAP2 SWAP1 PUSH2 0x2958 JUMP JUMPDEST PUSH1 0x40 MLOAD PUSH1 0x1 PUSH1 0x1 PUSH1 0xE0 SHL SUB NOT PUSH1 0xE0 DUP6 SWAP1 SHL AND DUP2 MSTORE PUSH1 0x1 PUSH1 0x1 PUSH1 0xA0 SHL SUB SWAP1 SWAP3 AND PUSH1 0x4 DUP4 ADD MSTORE PUSH1 0x24 DUP3 ADD MSTORE PUSH1 0x44 ADD PUSH1 0x20 PUSH1 0x40 MLOAD DUP1 DUP4 SUB DUP2 DUP7 GAS STATICCALL ISZERO DUP1 ISZERO PUSH2 0x11A5 JUMPI RETURNDATASIZE PUSH1 0x0 DUP1 RETURNDATACOPY RETURNDATASIZE PUSH1 0x0 REVERT JUMPDEST POP POP POP POP PUSH1 0x40 MLOAD RETURNDATASIZE PUSH1 0x1F NOT PUSH1 0x1F DUP3 ADD AND DUP3 ADD DUP1 PUSH1 0x40 MSTORE POP DUP2 ADD SWAP1 PUSH2 0x11C9 SWAP2 SWAP1 PUSH2 0x293F JUMP JUMPDEST DUP2 MSTORE PUSH1 0x20 DUP1 DUP3 ADD SWAP3 SWAP1 SWAP3 MSTORE PUSH1 0x40 SWAP1 DUP2 ADD PUSH1 0x0 KECCAK256 DUP2 MLOAD PUSH2 0x1E0 DUP2 ADD DUP4 MSTORE DUP2 SLOAD PUSH1 0x1 PUSH1 0x1 PUSH1 0xA0 SHL SUB SWAP1 DUP2 AND DUP3 MSTORE PUSH1 0x1 DUP4 ADD SLOAD SWAP5 DUP3 ADD SWAP5 SWAP1 SWAP5 MSTORE PUSH1 0x2 DUP3 ADD SLOAD SWAP3 DUP2 ADD SWAP3 SWAP1 SWAP3 MSTORE PUSH1 0x3 DUP1 DUP3 ADD SLOAD PUSH1 0x60 DUP5 ADD MSTORE PUSH1 0x4 DUP3 ADD SLOAD PUSH1 0x80 DUP5 ADD MSTORE PUSH1 0x5 DUP3 ADD SLOAD PUSH1 0xA0 DUP5 ADD MSTORE PUSH1 0x6 DUP3 ADD SLOAD PUSH1 0xC0 DUP5 ADD MSTORE PUSH1 0x7 DUP3 ADD SLOAD SWAP4 DUP5 AND PUSH1 0xE0 DUP5 ADD MSTORE SWAP2 SWAP3 SWAP1 SWAP2 PUSH2 0x100 DUP5 ADD SWAP2 PUSH1 0x1 PUSH1 0xA0 SHL SWAP1 DIV PUSH1 0xFF AND SWAP1 DUP2 GT ISZERO PUSH2 0x1266 JUMPI PUSH2 0x1266 PUSH2 0x241A JUMP JUMPDEST PUSH1 0x3 DUP2 GT ISZERO PUSH2 0x1277 JUMPI PUSH2 0x1277 PUSH2 0x241A JUMP JUMPDEST DUP2 MSTORE PUSH1 0x20 ADD PUSH1 0x8 DUP3 ADD DUP1 SLOAD PUSH2 0x128B SWAP1 PUSH2 0x2905 JUMP JUMPDEST DUP1 PUSH1 0x1F ADD PUSH1 0x20 DUP1 SWAP2 DIV MUL PUSH1 0x20 ADD PUSH1 0x40 MLOAD SWAP1 DUP2 ADD PUSH1 0x40 MSTORE DUP1 SWAP3 SWAP2 SWAP1 DUP2 DUP2 MSTORE PUSH1 0x20 ADD DUP3 DUP1 SLOAD PUSH2 0x12B7 SWAP1 PUSH2 0x2905 JUMP JUMPDEST DUP1 ISZERO PUSH2 0x1304 JUMPI DUP1 PUSH1 0x1F LT PUSH2 0x12D9 JUMPI PUSH2 0x100 DUP1 DUP4 SLOAD DIV MUL DUP4 MSTORE SWAP2 PUSH1 0x20 ADD SWAP2 PUSH2 0x1304 JUMP JUMPDEST DUP3 ADD SWAP2 SWAP1 PUSH1 0x0 MSTORE PUSH1 0x20 PUSH1 0x0 KECCAK256 SWAP1 JUMPDEST DUP2 SLOAD DUP2 MSTORE SWAP1 PUSH1 0x1 ADD SWAP1 PUSH1 0x20 ADD DUP1 DUP4 GT PUSH2 0x12E7 JUMPI DUP3 SWAP1 SUB PUSH1 0x1F AND DUP3 ADD SWAP2 JUMPDEST POP POP POP POP POP DUP2 MSTORE PUSH1 0x20 ADD PUSH1 0x9 DUP3 ADD SLOAD DUP2 MSTORE PUSH1 0x20 ADD PUSH1 0xA DUP3 ADD SLOAD DUP2 MSTORE PUSH1 0x20 ADD PUSH1 0xB DUP3 ADD SLOAD DUP2 MSTORE PUSH1 0x20 ADD PUSH1 0xC DUP3 ADD SLOAD DUP2 MSTORE PUSH1 0x20 ADD PUSH1 0xD DUP3 ADD SLOAD DUP2 MSTORE POP POP DUP4 DUP3 DUP2 MLOAD DUP2 LT PUSH2 0x1351 JUMPI PUSH2 0x1351 PUSH2 0x2863 JUMP JUMPDEST PUSH1 0x20 MUL PUSH1 0x20 ADD ADD DUP2 SWAP1 MSTORE POP DUP1 DUP1 PUSH2 0x1367 SWAP1 PUSH2 0x29B7 JUMP JUMPDEST SWAP2 POP POP PUSH2 0x1107 JUMP JUMPDEST POP POP PUSH2 0x1671 JUMP JUMPDEST PUSH1 0x69 SLOAD PUSH1 0x0 SWAP4 POP DUP2 SWAP1 PUSH2 0x138F SWAP1 PUSH4 0xFFFFFFFF AND DUP8 PUSH2 0x296B JUMP JUMPDEST PUSH4 0xFFFFFFFF AND PUSH2 0x139F SWAP2 SWAP1 PUSH2 0x29D0 JUMP JUMPDEST PUSH1 0x69 SLOAD PUSH2 0x13B2 SWAP2 SWAP1 PUSH4 0xFFFFFFFF AND PUSH2 0x29D0 JUMP JUMPDEST PUSH8 0xFFFFFFFFFFFFFFFF DUP2 GT ISZERO PUSH2 0x13CA JUMPI PUSH2 0x13CA PUSH2 0x284D JUMP JUMPDEST PUSH1 0x40 MLOAD SWAP1 DUP1 DUP3 MSTORE DUP1 PUSH1 0x20 MUL PUSH1 0x20 ADD DUP3 ADD PUSH1 0x40 MSTORE DUP1 ISZERO PUSH2 0x1403 JUMPI DUP2 PUSH1 0x20 ADD JUMPDEST PUSH2 0x13F0 PUSH2 0x22BA JUMP JUMPDEST DUP2 MSTORE PUSH1 0x20 ADD SWAP1 PUSH1 0x1 SWAP1 SUB SWAP1 DUP2 PUSH2 0x13E8 JUMPI SWAP1 POP JUMPDEST POP SWAP2 POP PUSH1 0x0 JUMPDEST DUP3 MLOAD DUP2 LT ISZERO PUSH2 0x136F JUMPI PUSH1 0x71 SLOAD PUSH1 0x69 SLOAD PUSH1 0x6A SWAP2 PUSH1 0x0 SWAP2 PUSH1 0x1 PUSH1 0x1 PUSH1 0xA0 SHL SUB SWAP1 SWAP2 AND SWAP1 PUSH4 0x2F745C59 SWAP1 DUP10 SWAP1 DUP7 SWAP1 PUSH4 0xFFFFFFFF AND PUSH2 0x1444 DUP2 DUP15 PUSH2 0x296B JUMP JUMPDEST PUSH2 0x144E SWAP2 SWAP1 PUSH2 0x2993 JUMP JUMPDEST PUSH4 0xFFFFFFFF AND PUSH2 0x145E SWAP2 SWAP1 PUSH2 0x2958 JUMP JUMPDEST PUSH1 0x40 MLOAD PUSH1 0x1 PUSH1 0x1 PUSH1 0xE0 SHL SUB NOT PUSH1 0xE0 DUP6 SWAP1 SHL AND DUP2 MSTORE PUSH1 0x1 PUSH1 0x1 PUSH1 0xA0 SHL SUB SWAP1 SWAP3 AND PUSH1 0x4 DUP4 ADD MSTORE PUSH1 0x24 DUP3 ADD MSTORE PUSH1 0x44 ADD PUSH1 0x20 PUSH1 0x40 MLOAD DUP1 DUP4 SUB DUP2 DUP7 GAS STATICCALL ISZERO DUP1 ISZERO PUSH2 0x14A7 JUMPI RETURNDATASIZE PUSH1 0x0 DUP1 RETURNDATACOPY RETURNDATASIZE PUSH1 0x0 REVERT JUMPDEST POP POP POP POP PUSH1 0x40 MLOAD RETURNDATASIZE PUSH1 0x1F NOT PUSH1 0x1F DUP3 ADD AND DUP3 ADD DUP1 PUSH1 0x40 MSTORE POP DUP2 ADD SWAP1 PUSH2 0x14CB SWAP2 SWAP1 PUSH2 0x293F JUMP JUMPDEST DUP2 MSTORE PUSH1 0x20 DUP1 DUP3 ADD SWAP3 SWAP1 SWAP3 MSTORE PUSH1 0x40 SWAP1 DUP2 ADD PUSH1 0x0 KECCAK256 DUP2 MLOAD PUSH2 0x1E0 DUP2 ADD DUP4 MSTORE DUP2 SLOAD PUSH1 0x1 PUSH1 0x1 PUSH1 0xA0 SHL SUB SWAP1 DUP2 AND DUP3 MSTORE PUSH1 0x1 DUP4 ADD SLOAD SWAP5 DUP3 ADD SWAP5 SWAP1 SWAP5 MSTORE PUSH1 0x2 DUP3 ADD SLOAD SWAP3 DUP2 ADD SWAP3 SWAP1 SWAP3 MSTORE PUSH1 0x3 DUP1 DUP3 ADD SLOAD PUSH1 0x60 DUP5 ADD MSTORE PUSH1 0x4 DUP3 ADD SLOAD PUSH1 0x80 DUP5 ADD MSTORE PUSH1 0x5 DUP3 ADD SLOAD PUSH1 0xA0 DUP5 ADD MSTORE PUSH1 0x6 DUP3 ADD SLOAD PUSH1 0xC0 DUP5 ADD MSTORE PUSH1 0x7 DUP3 ADD SLOAD SWAP4 DUP5 AND PUSH1 0xE0 DUP5 ADD MSTORE SWAP2 SWAP3 SWAP1 SWAP2 PUSH2 0x100 DUP5 ADD SWAP2 PUSH1 0x1 PUSH1 0xA0 SHL SWAP1 DIV PUSH1 0xFF AND SWAP1 DUP2 GT ISZERO PUSH2 0x1568 JUMPI PUSH2 0x1568 PUSH2 0x241A JUMP JUMPDEST PUSH1 0x3 DUP2 GT ISZERO PUSH2 0x1579 JUMPI PUSH2 0x1579 PUSH2 0x241A JUMP JUMPDEST DUP2 MSTORE PUSH1 0x20 ADD PUSH1 0x8 DUP3 ADD DUP1 SLOAD PUSH2 0x158D SWAP1 PUSH2 0x2905 JUMP JUMPDEST DUP1 PUSH1 0x1F ADD PUSH1 0x20 DUP1 SWAP2 DIV MUL PUSH1 0x20 ADD PUSH1 0x40 MLOAD SWAP1 DUP2 ADD PUSH1 0x40 MSTORE DUP1 SWAP3 SWAP2 SWAP1 DUP2 DUP2 MSTORE PUSH1 0x20 ADD DUP3 DUP1 SLOAD PUSH2 0x15B9 SWAP1 PUSH2 0x2905 JUMP JUMPDEST DUP1 ISZERO PUSH2 0x1606 JUMPI DUP1 PUSH1 0x1F LT PUSH2 0x15DB JUMPI PUSH2 0x100 DUP1 DUP4 SLOAD DIV MUL DUP4 MSTORE SWAP2 PUSH1 0x20 ADD SWAP2 PUSH2 0x1606 JUMP JUMPDEST DUP3 ADD SWAP2 SWAP1 PUSH1 0x0 MSTORE PUSH1 0x20 PUSH1 0x0 KECCAK256 SWAP1 JUMPDEST DUP2 SLOAD DUP2 MSTORE SWAP1 PUSH1 0x1 ADD SWAP1 PUSH1 0x20 ADD DUP1 DUP4 GT PUSH2 0x15E9 JUMPI DUP3 SWAP1 SUB PUSH1 0x1F AND DUP3 ADD SWAP2 JUMPDEST POP POP POP POP POP DUP2 MSTORE PUSH1 0x20 ADD PUSH1 0x9 DUP3 ADD SLOAD DUP2 MSTORE PUSH1 0x20 ADD PUSH1 0xA DUP3 ADD SLOAD DUP2 MSTORE PUSH1 0x20 ADD PUSH1 0xB DUP3 ADD SLOAD DUP2 MSTORE PUSH1 0x20 ADD PUSH1 0xC DUP3 ADD SLOAD DUP2 MSTORE PUSH1 0x20 ADD PUSH1 0xD DUP3 ADD SLOAD DUP2 MSTORE POP POP DUP4 DUP3 DUP2 MLOAD DUP2 LT PUSH2 0x1653 JUMPI PUSH2 0x1653 PUSH2 0x2863 JUMP JUMPDEST PUSH1 0x20 MUL PUSH1 0x20 ADD ADD DUP2 SWAP1 MSTORE POP DUP1 DUP1 PUSH2 0x1669 SWAP1 PUSH2 0x29B7 JUMP JUMPDEST SWAP2 POP POP PUSH2 0x1409 JUMP JUMPDEST SWAP3 POP SWAP3 SWAP1 POP JUMP JUMPDEST PUSH2 0x1680 PUSH2 0x1E3F JUMP JUMPDEST PUSH1 0x6C SSTORE JUMP JUMPDEST PUSH1 0x74 PUSH1 0x20 MSTORE PUSH1 0x0 SWAP1 DUP2 MSTORE PUSH1 0x40 SWAP1 KECCAK256 DUP1 SLOAD PUSH1 0x1 DUP3 ADD DUP1 SLOAD SWAP2 SWAP3 SWAP2 PUSH2 0x16A7 SWAP1 PUSH2 0x2905 JUMP JUMPDEST DUP1 PUSH1 0x1F ADD PUSH1 0x20 DUP1 SWAP2 DIV MUL PUSH1 0x20 ADD PUSH1 0x40 MLOAD SWAP1 DUP2 ADD PUSH1 0x40 MSTORE DUP1 SWAP3 SWAP2 SWAP1 DUP2 DUP2 MSTORE PUSH1 0x20 ADD DUP3 DUP1 SLOAD PUSH2 0x16D3 SWAP1 PUSH2 0x2905 JUMP JUMPDEST DUP1 ISZERO PUSH2 0x1720 JUMPI DUP1 PUSH1 0x1F LT PUSH2 0x16F5 JUMPI PUSH2 0x100 DUP1 DUP4 SLOAD DIV MUL DUP4 MSTORE SWAP2 PUSH1 0x20 ADD SWAP2 PUSH2 0x1720 JUMP JUMPDEST DUP3 ADD SWAP2 SWAP1 PUSH1 0x0 MSTORE PUSH1 0x20 PUSH1 0x0 KECCAK256 SWAP1 JUMPDEST DUP2 SLOAD DUP2 MSTORE SWAP1 PUSH1 0x1 ADD SWAP1 PUSH1 0x20 ADD DUP1 DUP4 GT PUSH2 0x1703 JUMPI DUP3 SWAP1 SUB PUSH1 0x1F AND DUP3 ADD SWAP2 JUMPDEST POP POP POP POP POP SWAP1 DUP1 PUSH1 0x2 ADD SLOAD SWAP1 DUP1 PUSH1 0x3 ADD SLOAD SWAP1 DUP1 PUSH1 0x4 ADD DUP1 SLOAD PUSH2 0x1741 SWAP1 PUSH2 0x2905 JUMP JUMPDEST DUP1 PUSH1 0x1F ADD PUSH1 0x20 DUP1 SWAP2 DIV MUL PUSH1 0x20 ADD PUSH1 0x40 MLOAD SWAP1 DUP2 ADD PUSH1 0x40 MSTORE DUP1 SWAP3 SWAP2 SWAP1 DUP2 DUP2 MSTORE PUSH1 0x20 ADD DUP3 DUP1 SLOAD PUSH2 0x176D SWAP1 PUSH2 0x2905 JUMP JUMPDEST DUP1 ISZERO PUSH2 0x17BA JUMPI DUP1 PUSH1 0x1F LT PUSH2 0x178F JUMPI PUSH2 0x100 DUP1 DUP4 SLOAD DIV MUL DUP4 MSTORE SWAP2 PUSH1 0x20 ADD SWAP2 PUSH2 0x17BA JUMP JUMPDEST DUP3 ADD SWAP2 SWAP1 PUSH1 0x0 MSTORE PUSH1 0x20 PUSH1 0x0 KECCAK256 SWAP1 JUMPDEST DUP2 SLOAD DUP2 MSTORE SWAP1 PUSH1 0x1 ADD SWAP1 PUSH1 0x20 ADD DUP1 DUP4 GT PUSH2 0x179D JUMPI DUP3 SWAP1 SUB PUSH1 0x1F AND DUP3 ADD SWAP2 JUMPDEST POP POP POP PUSH1 0x5 SWAP1 SWAP4 ADD SLOAD SWAP2 SWAP3 POP POP PUSH1 0xFF AND DUP7 JUMP JUMPDEST PUSH1 0x0 SLOAD PUSH2 0x100 SWAP1 DIV PUSH1 0xFF AND ISZERO DUP1 DUP1 ISZERO PUSH2 0x17ED JUMPI POP PUSH1 0x0 SLOAD PUSH1 0x1 PUSH1 0xFF SWAP1 SWAP2 AND LT JUMPDEST DUP1 PUSH2 0x1807 JUMPI POP ADDRESS EXTCODESIZE ISZERO DUP1 ISZERO PUSH2 0x1807 JUMPI POP PUSH1 0x0 SLOAD PUSH1 0xFF AND PUSH1 0x1 EQ JUMPDEST PUSH2 0x186A JUMPI PUSH1 0x40 MLOAD PUSH3 0x461BCD PUSH1 0xE5 SHL DUP2 MSTORE PUSH1 0x20 PUSH1 0x4 DUP3 ADD MSTORE PUSH1 0x2E PUSH1 0x24 DUP3 ADD MSTORE PUSH32 0x496E697469616C697A61626C653A20636F6E747261637420697320616C726561 PUSH1 0x44 DUP3 ADD MSTORE PUSH14 0x191E481A5B9A5D1A585B1A5E9959 PUSH1 0x92 SHL PUSH1 0x64 DUP3 ADD MSTORE PUSH1 0x84 ADD PUSH2 0xF72 JUMP JUMPDEST PUSH1 0x0 DUP1 SLOAD PUSH1 0xFF NOT AND PUSH1 0x1 OR SWAP1 SSTORE DUP1 ISZERO PUSH2 0x188D JUMPI PUSH1 0x0 DUP1 SLOAD PUSH2 0xFF00 NOT AND PUSH2 0x100 OR SWAP1 SSTORE JUMPDEST PUSH1 0x6E DUP1 SLOAD PUSH1 0x1 PUSH1 0x1 PUSH1 0xA0 SHL SUB NOT SWAP1 DUP2 AND PUSH1 0x1 PUSH1 0x1 PUSH1 0xA0 SHL SUB DUP11 DUP2 AND SWAP2 SWAP1 SWAP2 OR SWAP1 SWAP3 SSTORE PUSH1 0x70 DUP1 SLOAD DUP3 AND DUP10 DUP5 AND OR SWAP1 SSTORE PUSH1 0x6F DUP1 SLOAD DUP3 AND DUP9 DUP5 AND OR SWAP1 SSTORE PUSH1 0x72 DUP1 SLOAD DUP3 AND DUP6 DUP5 AND OR SWAP1 SSTORE PUSH1 0x73 DUP1 SLOAD DUP3 AND DUP8 DUP5 AND OR SWAP1 SSTORE PUSH1 0x71 DUP1 SLOAD SWAP1 SWAP2 AND SWAP2 DUP6 AND SWAP2 SWAP1 SWAP2 OR SWAP1 SSTORE PUSH2 0x18F7 PUSH2 0x2236 JUMP JUMPDEST PUSH3 0xF4240 PUSH1 0x66 DUP2 SWAP1 SSTORE PUSH1 0x64 PUSH1 0x67 SSTORE PUSH2 0x1910 SWAP1 PUSH1 0x1 PUSH2 0x2A05 JUMP JUMPDEST PUSH1 0x65 SSTORE PUSH2 0x191B PUSH2 0x2265 JUMP JUMPDEST TIMESTAMP PUSH1 0x6D SSTORE DUP1 ISZERO PUSH2 0x1965 JUMPI PUSH1 0x0 DUP1 SLOAD PUSH2 0xFF00 NOT AND SWAP1 SSTORE PUSH1 0x40 MLOAD PUSH1 0x1 DUP2 MSTORE PUSH32 0x7F26B83FF96E1F2B6A682F133852F6798A09C465DA95921460CEFB3847402498 SWAP1 PUSH1 0x20 ADD PUSH1 0x40 MLOAD DUP1 SWAP2 SUB SWAP1 LOG1 JUMPDEST POP POP POP POP POP POP POP JUMP JUMPDEST PUSH2 0x1976 PUSH2 0x1E3F JUMP JUMPDEST PUSH1 0x73 DUP1 SLOAD PUSH1 0x1 PUSH1 0x1 PUSH1 0xA0 SHL SUB NOT AND PUSH1 0x1 PUSH1 0x1 PUSH1 0xA0 SHL SUB SWAP3 SWAP1 SWAP3 AND SWAP2 SWAP1 SWAP2 OR SWAP1 SSTORE JUMP JUMPDEST PUSH2 0x19A0 PUSH2 0x1E3F JUMP JUMPDEST PUSH1 0x6E DUP1 SLOAD PUSH1 0x1 PUSH1 0x1 PUSH1 0xA0 SHL SUB NOT AND PUSH1 0x1 PUSH1 0x1 PUSH1 0xA0 SHL SUB SWAP3 SWAP1 SWAP3 AND SWAP2 SWAP1 SWAP2 OR SWAP1 SSTORE JUMP JUMPDEST PUSH1 0x73 SLOAD PUSH1 0x60 SWAP1 PUSH1 0x1 PUSH1 0x1 PUSH1 0xA0 SHL SUB AND CALLER EQ PUSH2 0x1A18 JUMPI PUSH1 0x40 MLOAD PUSH3 0x461BCD PUSH1 0xE5 SHL DUP2 MSTORE PUSH1 0x20 PUSH1 0x4 DUP3 ADD MSTORE PUSH1 0x16 PUSH1 0x24 DUP3 ADD MSTORE PUSH22 0x12DD995B9D1D5C994E8813DB9B1E481C1C9BD91D58DD PUSH1 0x52 SHL PUSH1 0x44 DUP3 ADD MSTORE PUSH1 0x64 ADD PUSH2 0xF72 JUMP JUMPDEST DUP3 DUP7 EQ DUP1 ISZERO PUSH2 0x1A27 JUMPI POP PUSH1 0x0 DUP7 GT JUMPDEST PUSH2 0x1AA7 JUMPI PUSH1 0x40 MLOAD PUSH3 0x461BCD PUSH1 0xE5 SHL DUP2 MSTORE PUSH1 0x20 PUSH1 0x4 DUP3 ADD MSTORE PUSH1 0x44 PUSH1 0x24 DUP3 ADD DUP2 SWAP1 MSTORE PUSH32 0x4B76656E747572653A20436F64652048617368204E6F7420457175616C20546F SWAP1 DUP3 ADD MSTORE PUSH32 0x205175616E74697479206F72205175616E7469747920536D616C6C6572205468 PUSH1 0x64 DUP3 ADD MSTORE PUSH4 0x616E2031 PUSH1 0xE0 SHL PUSH1 0x84 DUP3 ADD MSTORE PUSH1 0xA4 ADD PUSH2 0xF72 JUMP JUMPDEST PUSH1 0x1 PUSH1 0x1 PUSH1 0xA0 SHL SUB DUP3 AND ISZERO PUSH2 0x1B29 JUMPI PUSH1 0x6C SLOAD DUP8 LT ISZERO PUSH2 0x1B24 JUMPI PUSH1 0x40 MLOAD PUSH3 0x461BCD PUSH1 0xE5 SHL DUP2 MSTORE PUSH1 0x20 PUSH1 0x4 DUP3 ADD MSTORE PUSH1 0x33 PUSH1 0x24 DUP3 ADD MSTORE PUSH32 0x4B76656E747572653A20436C6F7564204D696E696E67204F6E6C7920466F7220 PUSH1 0x44 DUP3 ADD MSTORE PUSH19 0x5061636B6167652041626F766520243530303 PUSH1 0x6C SHL PUSH1 0x64 DUP3 ADD MSTORE PUSH1 0x84 ADD PUSH2 0xF72 JUMP JUMPDEST PUSH2 0x1B80 JUMP JUMPDEST PUSH1 0x1 PUSH1 0x1 PUSH1 0xA0 SHL SUB DUP3 AND ISZERO PUSH2 0x1B80 JUMPI PUSH1 0x40 MLOAD PUSH3 0x461BCD PUSH1 0xE5 SHL DUP2 MSTORE PUSH1 0x20 PUSH1 0x4 DUP3 ADD MSTORE PUSH1 0x1F PUSH1 0x24 DUP3 ADD MSTORE PUSH32 0x4B76656E747572653A204F6E6C7920666F7220636C6F7564206D696E696E6700 PUSH1 0x44 DUP3 ADD MSTORE PUSH1 0x64 ADD PUSH2 0xF72 JUMP JUMPDEST PUSH1 0x0 PUSH2 0x1B8A PUSH2 0xE3D JUMP JUMPDEST SWAP1 POP PUSH1 0x0 DUP8 PUSH8 0xFFFFFFFFFFFFFFFF DUP2 GT ISZERO PUSH2 0x1BA7 JUMPI PUSH2 0x1BA7 PUSH2 0x284D JUMP JUMPDEST PUSH1 0x40 MLOAD SWAP1 DUP1 DUP3 MSTORE DUP1 PUSH1 0x20 MUL PUSH1 0x20 ADD DUP3 ADD PUSH1 0x40 MSTORE DUP1 ISZERO PUSH2 0x1BD0 JUMPI DUP2 PUSH1 0x20 ADD PUSH1 0x20 DUP3 MUL DUP1 CALLDATASIZE DUP4 CALLDATACOPY ADD SWAP1 POP JUMPDEST POP SWAP1 POP PUSH1 0x0 JUMPDEST DUP9 DUP2 LT ISZERO PUSH2 0x1C39 JUMPI PUSH1 0x0 PUSH2 0x1C06 DUP13 DUP10 DUP10 DUP6 DUP2 DUP2 LT PUSH2 0x1BF6 JUMPI PUSH2 0x1BF6 PUSH2 0x2863 JUMP JUMPDEST SWAP1 POP PUSH1 0x20 MUL ADD CALLDATALOAD DUP12 DUP15 DUP9 DUP12 PUSH2 0x1EEB JUMP JUMPDEST SWAP1 POP DUP1 DUP4 DUP4 DUP2 MLOAD DUP2 LT PUSH2 0x1C1B JUMPI PUSH2 0x1C1B PUSH2 0x2863 JUMP JUMPDEST PUSH1 0x20 SWAP1 DUP2 MUL SWAP2 SWAP1 SWAP2 ADD ADD MSTORE POP DUP1 PUSH2 0x1C31 DUP2 PUSH2 0x29B7 JUMP JUMPDEST SWAP2 POP POP PUSH2 0x1BD6 JUMP JUMPDEST POP SWAP10 SWAP9 POP POP POP POP POP POP POP POP POP JUMP JUMPDEST PUSH2 0x1C4F PUSH2 0x1E3F JUMP JUMPDEST PUSH1 0x1 PUSH1 0x1 PUSH1 0xA0 SHL SUB DUP2 AND PUSH2 0x1CB4 JUMPI PUSH1 0x40 MLOAD PUSH3 0x461BCD PUSH1 0xE5 SHL DUP2 MSTORE PUSH1 0x20 PUSH1 0x4 DUP3 ADD MSTORE PUSH1 0x26 PUSH1 0x24 DUP3 ADD MSTORE PUSH32 0x4F776E61626C653A206E6577206F776E657220697320746865207A65726F2061 PUSH1 0x44 DUP3 ADD MSTORE PUSH6 0x646472657373 PUSH1 0xD0 SHL PUSH1 0x64 DUP3 ADD MSTORE PUSH1 0x84 ADD PUSH2 0xF72 JUMP JUMPDEST PUSH2 0x1CBD DUP2 PUSH2 0x1E99 JUMP JUMPDEST POP JUMP JUMPDEST PUSH1 0x60 PUSH1 0x0 DUP3 PUSH8 0xFFFFFFFFFFFFFFFF DUP2 GT ISZERO PUSH2 0x1CDD JUMPI PUSH2 0x1CDD PUSH2 0x284D JUMP JUMPDEST PUSH1 0x40 MLOAD SWAP1 DUP1 DUP3 MSTORE DUP1 PUSH1 0x20 MUL PUSH1 0x20 ADD DUP3 ADD PUSH1 0x40 MSTORE DUP1 ISZERO PUSH2 0x1D06 JUMPI DUP2 PUSH1 0x20 ADD PUSH1 0x20 DUP3 MUL DUP1 CALLDATASIZE DUP4 CALLDATACOPY ADD SWAP1 POP JUMPDEST POP SWAP1 POP PUSH1 0x0 DUP1 JUMPDEST DUP5 DUP2 LT ISZERO PUSH2 0x5FA JUMPI DUP6 DUP6 DUP3 DUP2 DUP2 LT PUSH2 0x1D27 JUMPI PUSH2 0x1D27 PUSH2 0x2863 JUMP JUMPDEST SWAP1 POP PUSH1 0x20 MUL DUP2 ADD SWAP1 PUSH2 0x1D39 SWAP2 SWAP1 PUSH2 0x2879 JUMP JUMPDEST PUSH1 0x40 MLOAD PUSH1 0x20 ADD PUSH2 0x1D4A SWAP3 SWAP2 SWAP1 PUSH2 0x28C0 JUMP JUMPDEST PUSH1 0x40 DUP1 MLOAD DUP1 DUP4 SUB PUSH1 0x1F NOT ADD DUP2 MSTORE SWAP2 DUP2 MSTORE DUP2 MLOAD PUSH1 0x20 SWAP3 DUP4 ADD KECCAK256 PUSH1 0x0 DUP2 DUP2 MSTORE PUSH1 0x6A SWAP1 SWAP4 MSTORE SWAP2 KECCAK256 SLOAD SWAP1 SWAP3 POP PUSH1 0x1 PUSH1 0x1 PUSH1 0xA0 SHL SUB AND CALLER EQ ISZERO DUP1 PUSH2 0x1DB5 JUMPI POP PUSH1 0x1 PUSH1 0x0 DUP4 DUP2 MSTORE PUSH1 0x6A PUSH1 0x20 MSTORE PUSH1 0x40 SWAP1 KECCAK256 PUSH1 0x7 ADD SLOAD PUSH1 0x1 PUSH1 0xA0 SHL SWAP1 DIV PUSH1 0xFF AND PUSH1 0x3 DUP2 GT ISZERO PUSH2 0x1DB3 JUMPI PUSH2 0x1DB3 PUSH2 0x241A JUMP JUMPDEST EQ JUMPDEST PUSH2 0x1E03 JUMPI PUSH1 0x0 DUP3 DUP2 MSTORE PUSH1 0x6A PUSH1 0x20 MSTORE PUSH1 0x40 SWAP1 KECCAK256 PUSH1 0x7 ADD DUP1 SLOAD PUSH1 0xFF PUSH1 0xA0 SHL NOT AND PUSH1 0x1 PUSH1 0xA0 SHL OR SWAP1 SSTORE DUP3 MLOAD PUSH1 0x1 SWAP1 DUP5 SWAP1 DUP4 SWAP1 DUP2 LT PUSH2 0x1DF2 JUMPI PUSH2 0x1DF2 PUSH2 0x2863 JUMP JUMPDEST SWAP2 ISZERO ISZERO PUSH1 0x20 SWAP3 DUP4 MUL SWAP2 SWAP1 SWAP2 ADD SWAP1 SWAP2 ADD MSTORE JUMPDEST DUP1 PUSH2 0x1E0D DUP2 PUSH2 0x29B7 JUMP JUMPDEST SWAP2 POP POP PUSH2 0x1D0D JUMP JUMPDEST PUSH2 0x1E1D PUSH2 0x1E3F JUMP JUMPDEST PUSH1 0x71 DUP1 SLOAD PUSH1 0x1 PUSH1 0x1 PUSH1 0xA0 SHL SUB NOT AND PUSH1 0x1 PUSH1 0x1 PUSH1 0xA0 SHL SUB SWAP3 SWAP1 SWAP3 AND SWAP2 SWAP1 SWAP2 OR SWAP1 SSTORE JUMP JUMPDEST PUSH1 0x33 SLOAD PUSH1 0x1 PUSH1 0x1 PUSH1 0xA0 SHL SUB AND CALLER EQ PUSH2 0x79B JUMPI PUSH1 0x40 MLOAD PUSH3 0x461BCD PUSH1 0xE5 SHL DUP2 MSTORE PUSH1 0x20 PUSH1 0x4 DUP3 ADD DUP2 SWAP1 MSTORE PUSH1 0x24 DUP3 ADD MSTORE PUSH32 0x4F776E61626C653A2063616C6C6572206973206E6F7420746865206F776E6572 PUSH1 0x44 DUP3 ADD MSTORE PUSH1 0x64 ADD PUSH2 0xF72 JUMP JUMPDEST PUSH1 0x33 DUP1 SLOAD PUSH1 0x1 PUSH1 0x1 PUSH1 0xA0 SHL SUB DUP4 DUP2 AND PUSH1 0x1 PUSH1 0x1 PUSH1 0xA0 SHL SUB NOT DUP4 AND DUP2 OR SWAP1 SWAP4 SSTORE PUSH1 0x40 MLOAD SWAP2 AND SWAP2 SWAP1 DUP3 SWAP1 PUSH32 0x8BE0079C531659141344CD1FD0A4F28419497F9722A3DAAFE3B4186F6B6457E0 SWAP1 PUSH1 0x0 SWAP1 LOG3 POP POP JUMP JUMPDEST PUSH1 0x0 DUP6 DUP2 MSTORE PUSH1 0x6A PUSH1 0x20 MSTORE PUSH1 0x40 DUP2 KECCAK256 SLOAD PUSH1 0x1 PUSH1 0x1 PUSH1 0xA0 SHL SUB AND ISZERO PUSH2 0x1F50 JUMPI PUSH1 0x40 MLOAD PUSH3 0x461BCD PUSH1 0xE5 SHL DUP2 MSTORE PUSH1 0x20 PUSH1 0x4 DUP3 ADD MSTORE PUSH1 0x1D PUSH1 0x24 DUP3 ADD MSTORE PUSH32 0x4D6574614E6F64653A204475706C696361746520436F64652048617368000000 PUSH1 0x44 DUP3 ADD MSTORE PUSH1 0x64 ADD PUSH2 0xF72 JUMP JUMPDEST PUSH1 0x40 DUP1 MLOAD PUSH2 0x1E0 DUP2 ADD DUP3 MSTORE PUSH1 0x1 PUSH1 0x1 PUSH1 0xA0 SHL SUB DUP10 AND DUP2 MSTORE PUSH1 0x20 DUP2 ADD DUP9 SWAP1 MSTORE PUSH1 0x0 SWAP2 DUP2 ADD SWAP2 SWAP1 SWAP2 MSTORE DUP7 SWAP1 PUSH1 0x60 DUP2 ADD PUSH2 0x1F8A TIMESTAMP PUSH3 0x76A700 PUSH2 0x2958 JUMP JUMPDEST DUP2 MSTORE PUSH1 0x20 ADD DUP6 PUSH1 0x67 SLOAD DUP9 PUSH2 0x1F9E SWAP2 SWAP1 PUSH2 0x2A05 JUMP JUMPDEST PUSH2 0x1FA8 SWAP2 SWAP1 PUSH2 0x29E3 JUMP JUMPDEST DUP2 MSTORE PUSH1 0x20 ADD PUSH1 0x6B PUSH1 0x0 DUP9 DUP2 MSTORE PUSH1 0x20 ADD SWAP1 DUP2 MSTORE PUSH1 0x20 ADD PUSH1 0x0 KECCAK256 SLOAD DUP2 MSTORE PUSH1 0x20 ADD DUP6 DUP2 MSTORE PUSH1 0x20 ADD DUP5 PUSH1 0x1 PUSH1 0x1 PUSH1 0xA0 SHL SUB AND DUP2 MSTORE PUSH1 0x20 ADD PUSH2 0x1FE4 DUP9 PUSH2 0x2274 JUMP JUMPDEST PUSH1 0x3 DUP2 GT ISZERO PUSH2 0x1FF5 JUMPI PUSH2 0x1FF5 PUSH2 0x241A JUMP JUMPDEST DUP2 MSTORE PUSH1 0x40 DUP1 MLOAD DUP1 DUP3 ADD DUP3 MSTORE PUSH1 0x8 DUP2 MSTORE PUSH8 0x4B56454E54555245 PUSH1 0xC0 SHL PUSH1 0x20 DUP1 DUP4 ADD SWAP2 SWAP1 SWAP2 MSTORE DUP1 DUP5 ADD SWAP2 SWAP1 SWAP2 MSTORE PUSH1 0x0 DUP3 DUP5 ADD DUP2 SWAP1 MSTORE PUSH1 0x64 PUSH1 0x60 DUP1 DUP7 ADD SWAP2 SWAP1 SWAP2 MSTORE PUSH1 0x80 DUP1 DUP7 ADD DUP4 SWAP1 MSTORE PUSH1 0xA0 DUP1 DUP8 ADD DUP5 SWAP1 MSTORE PUSH1 0xC0 SWAP7 DUP8 ADD DUP5 SWAP1 MSTORE DUP15 DUP5 MSTORE PUSH1 0x6A DUP6 MSTORE SWAP3 DUP6 SWAP1 KECCAK256 DUP8 MLOAD DUP2 SLOAD PUSH1 0x1 PUSH1 0x1 PUSH1 0xA0 SHL SUB NOT SWAP1 DUP2 AND PUSH1 0x1 PUSH1 0x1 PUSH1 0xA0 SHL SUB SWAP3 DUP4 AND OR DUP4 SSTORE SWAP6 DUP10 ADD MLOAD PUSH1 0x1 DUP4 ADD SSTORE SWAP6 DUP9 ADD MLOAD PUSH1 0x2 DUP3 ADD SSTORE SWAP2 DUP8 ADD MLOAD PUSH1 0x3 DUP1 DUP5 ADD SWAP2 SWAP1 SWAP2 SSTORE SWAP1 DUP8 ADD MLOAD PUSH1 0x4 DUP4 ADD SSTORE SWAP2 DUP7 ADD MLOAD PUSH1 0x5 DUP3 ADD SSTORE SWAP4 DUP6 ADD MLOAD PUSH1 0x6 DUP6 ADD SSTORE PUSH1 0xE0 DUP6 ADD MLOAD PUSH1 0x7 DUP6 ADD DUP1 SLOAD SWAP4 DUP5 AND SWAP2 SWAP1 SWAP5 AND SWAP1 DUP2 OR DUP5 SSTORE PUSH2 0x100 DUP7 ADD MLOAD SWAP4 SWAP3 PUSH1 0x1 PUSH1 0x1 PUSH1 0xA8 SHL SUB NOT AND OR SWAP1 PUSH1 0x1 PUSH1 0xA0 SHL SWAP1 DUP5 SWAP1 DUP2 GT ISZERO PUSH2 0x20F0 JUMPI PUSH2 0x20F0 PUSH2 0x241A JUMP JUMPDEST MUL OR SWAP1 SSTORE POP PUSH2 0x120 DUP3 ADD MLOAD PUSH1 0x8 DUP3 ADD SWAP1 PUSH2 0x210A SWAP1 DUP3 PUSH2 0x2A8C JUMP JUMPDEST POP PUSH2 0x140 DUP3 ADD MLOAD PUSH1 0x9 DUP3 ADD SSTORE PUSH2 0x160 DUP3 ADD MLOAD PUSH1 0xA DUP3 ADD SSTORE PUSH2 0x180 DUP3 ADD MLOAD PUSH1 0xB DUP3 ADD SSTORE PUSH2 0x1A0 DUP3 ADD MLOAD PUSH1 0xC DUP3 ADD SSTORE PUSH2 0x1C0 SWAP1 SWAP2 ADD MLOAD PUSH1 0xD SWAP1 SWAP2 ADD SSTORE PUSH1 0x71 SLOAD PUSH1 0x40 MLOAD PUSH4 0x28512065 PUSH1 0xE2 SHL DUP2 MSTORE PUSH1 0x1 PUSH1 0x1 PUSH1 0xA0 SHL SUB DUP11 DUP2 AND PUSH1 0x4 DUP4 ADD MSTORE PUSH1 0x24 DUP3 ADD DUP5 SWAP1 MSTORE SWAP1 SWAP2 AND SWAP1 PUSH4 0xA1448194 SWAP1 PUSH1 0x44 ADD PUSH1 0x0 PUSH1 0x40 MLOAD DUP1 DUP4 SUB DUP2 PUSH1 0x0 DUP8 DUP1 EXTCODESIZE ISZERO DUP1 ISZERO PUSH2 0x2192 JUMPI PUSH1 0x0 DUP1 REVERT JUMPDEST POP GAS CALL ISZERO DUP1 ISZERO PUSH2 0x21A6 JUMPI RETURNDATASIZE PUSH1 0x0 DUP1 RETURNDATACOPY RETURNDATASIZE PUSH1 0x0 REVERT JUMPDEST POP POP PUSH1 0x6F SLOAD PUSH1 0x0 DUP11 DUP2 MSTORE PUSH1 0x6A PUSH1 0x20 MSTORE PUSH1 0x40 SWAP1 DUP2 SWAP1 KECCAK256 SWAP1 MLOAD PUSH4 0x7C94AC81 PUSH1 0xE1 SHL DUP2 MSTORE PUSH1 0x1 PUSH1 0x1 PUSH1 0xA0 SHL SUB SWAP1 SWAP3 AND SWAP4 POP PUSH4 0xF9295902 SWAP3 POP PUSH2 0x21E7 SWAP2 PUSH1 0x4 ADD PUSH2 0x2BC9 JUMP JUMPDEST PUSH1 0x20 PUSH1 0x40 MLOAD DUP1 DUP4 SUB DUP2 PUSH1 0x0 DUP8 GAS CALL ISZERO DUP1 ISZERO PUSH2 0x2206 JUMPI RETURNDATASIZE PUSH1 0x0 DUP1 RETURNDATACOPY RETURNDATASIZE PUSH1 0x0 REVERT JUMPDEST POP POP POP POP PUSH1 0x40 MLOAD RETURNDATASIZE PUSH1 0x1F NOT PUSH1 0x1F DUP3 ADD AND DUP3 ADD DUP1 PUSH1 0x40 MSTORE POP DUP2 ADD SWAP1 PUSH2 0x222A SWAP2 SWAP1 PUSH2 0x2CB2 JUMP JUMPDEST POP SWAP8 SWAP7 POP POP POP POP POP POP POP JUMP JUMPDEST PUSH1 0x0 SLOAD PUSH2 0x100 SWAP1 DIV PUSH1 0xFF AND PUSH2 0x225D JUMPI PUSH1 0x40 MLOAD PUSH3 0x461BCD PUSH1 0xE5 SHL DUP2 MSTORE PUSH1 0x4 ADD PUSH2 0xF72 SWAP1 PUSH2 0x2CCF JUMP JUMPDEST PUSH2 0x79B PUSH2 0x228A JUMP JUMPDEST PUSH1 0x66 SLOAD PUSH2 0x1680 SWAP1 PUSH2 0x1388 PUSH2 0x2A05 JUMP JUMPDEST PUSH1 0x0 DUP2 PUSH2 0x2282 JUMPI PUSH1 0x1 PUSH2 0x600 JUMP JUMPDEST PUSH1 0x0 SWAP3 SWAP2 POP POP JUMP JUMPDEST PUSH1 0x0 SLOAD PUSH2 0x100 SWAP1 DIV PUSH1 0xFF AND PUSH2 0x22B1 JUMPI PUSH1 0x40 MLOAD PUSH3 0x461BCD PUSH1 0xE5 SHL DUP2 MSTORE PUSH1 0x4 ADD PUSH2 0xF72 SWAP1 PUSH2 0x2CCF JUMP JUMPDEST PUSH2 0x79B CALLER PUSH2 0x1E99 JUMP JUMPDEST PUSH1 0x40 DUP1 MLOAD PUSH2 0x1E0 DUP2 ADD DUP3 MSTORE PUSH1 0x0 DUP1 DUP3 MSTORE PUSH1 0x20 DUP3 ADD DUP2 SWAP1 MSTORE SWAP2 DUP2 ADD DUP3 SWAP1 MSTORE PUSH1 0x60 DUP2 ADD DUP3 SWAP1 MSTORE PUSH1 0x80 DUP2 ADD DUP3 SWAP1 MSTORE PUSH1 0xA0 DUP2 ADD DUP3 SWAP1 MSTORE PUSH1 0xC0 DUP2 ADD DUP3 SWAP1 MSTORE PUSH1 0xE0 DUP2 ADD DUP3 SWAP1 MSTORE SWAP1 PUSH2 0x100 DUP3 ADD SWAP1 DUP2 MSTORE PUSH1 0x20 ADD PUSH1 0x60 DUP2 MSTORE PUSH1 0x20 ADD PUSH1 0x0 DUP2 MSTORE PUSH1 0x20 ADD PUSH1 0x0 DUP2 MSTORE PUSH1 0x20 ADD PUSH1 0x0 DUP2 MSTORE PUSH1 0x20 ADD PUSH1 0x0 DUP1 NOT AND DUP2 MSTORE PUSH1 0x20 ADD PUSH1 0x0 DUP2 MSTORE POP SWAP1 JUMP JUMPDEST PUSH1 0x0 DUP1 DUP4 PUSH1 0x1F DUP5 ADD SLT PUSH2 0x2346 JUMPI PUSH1 0x0 DUP1 REVERT JUMPDEST POP DUP2 CALLDATALOAD PUSH8 0xFFFFFFFFFFFFFFFF DUP2 GT ISZERO PUSH2 0x235E JUMPI PUSH1 0x0 DUP1 REVERT JUMPDEST PUSH1 0x20 DUP4 ADD SWAP2 POP DUP4 PUSH1 0x20 DUP3 PUSH1 0x5 SHL DUP6 ADD ADD GT ISZERO PUSH2 0x1671 JUMPI PUSH1 0x0 DUP1 REVERT JUMPDEST PUSH1 0x0 DUP1 PUSH1 0x20 DUP4 DUP6 SUB SLT ISZERO PUSH2 0x238C JUMPI PUSH1 0x0 DUP1 REVERT JUMPDEST DUP3 CALLDATALOAD PUSH8 0xFFFFFFFFFFFFFFFF DUP2 GT ISZERO PUSH2 0x23A3 JUMPI PUSH1 0x0 DUP1 REVERT JUMPDEST PUSH2 0x23AF DUP6 DUP3 DUP7 ADD PUSH2 0x2334 JUMP JUMPDEST SWAP1 SWAP7 SWAP1 SWAP6 POP SWAP4 POP POP POP POP JUMP JUMPDEST PUSH1 0x20 DUP1 DUP3 MSTORE DUP3 MLOAD DUP3 DUP3 ADD DUP2 SWAP1 MSTORE PUSH1 0x0 SWAP2 SWAP1 DUP5 DUP3 ADD SWAP1 PUSH1 0x40 DUP6 ADD SWAP1 DUP5 JUMPDEST DUP2 DUP2 LT ISZERO PUSH2 0x23F5 JUMPI DUP4 MLOAD ISZERO ISZERO DUP4 MSTORE SWAP3 DUP5 ADD SWAP3 SWAP2 DUP5 ADD SWAP2 PUSH1 0x1 ADD PUSH2 0x23D7 JUMP JUMPDEST POP SWAP1 SWAP7 SWAP6 POP POP POP POP POP POP JUMP JUMPDEST PUSH1 0x0 PUSH1 0x20 DUP3 DUP5 SUB SLT ISZERO PUSH2 0x2413 JUMPI PUSH1 0x0 DUP1 REVERT JUMPDEST POP CALLDATALOAD SWAP2 SWAP1 POP JUMP JUMPDEST PUSH4 0x4E487B71 PUSH1 0xE0 SHL PUSH1 0x0 MSTORE PUSH1 0x21 PUSH1 0x4 MSTORE PUSH1 0x24 PUSH1 0x0 REVERT JUMPDEST PUSH1 0x4 DUP2 LT PUSH2 0x244E JUMPI PUSH4 0x4E487B71 PUSH1 0xE0 SHL PUSH1 0x0 MSTORE PUSH1 0x21 PUSH1 0x4 MSTORE PUSH1 0x24 PUSH1 0x0 REVERT JUMPDEST SWAP1 MSTORE JUMP JUMPDEST PUSH1 0x0 DUP2 MLOAD DUP1 DUP5 MSTORE PUSH1 0x0 JUMPDEST DUP2 DUP2 LT ISZERO PUSH2 0x2478 JUMPI PUSH1 0x20 DUP2 DUP6 ADD DUP2 ADD MLOAD DUP7 DUP4 ADD DUP3 ADD MSTORE ADD PUSH2 0x245C JUMP JUMPDEST POP PUSH1 0x0 PUSH1 0x20 DUP3 DUP7 ADD ADD MSTORE PUSH1 0x20 PUSH1 0x1F NOT PUSH1 0x1F DUP4 ADD AND DUP6 ADD ADD SWAP2 POP POP SWAP3 SWAP2 POP POP JUMP JUMPDEST DUP1 MLOAD PUSH1 0x1 PUSH1 0x1 PUSH1 0xA0 SHL SUB AND DUP3 MSTORE PUSH1 0x0 PUSH2 0x1E0 PUSH1 0x20 DUP4 ADD MLOAD PUSH1 0x20 DUP6 ADD MSTORE PUSH1 0x40 DUP4 ADD MLOAD PUSH1 0x40 DUP6 ADD MSTORE PUSH1 0x60 DUP4 ADD MLOAD PUSH1 0x60 DUP6 ADD MSTORE PUSH1 0x80 DUP4 ADD MLOAD PUSH1 0x80 DUP6 ADD MSTORE PUSH1 0xA0 DUP4 ADD MLOAD PUSH1 0xA0 DUP6 ADD MSTORE PUSH1 0xC0 DUP4 ADD MLOAD PUSH1 0xC0 DUP6 ADD MSTORE PUSH1 0xE0 DUP4 ADD MLOAD PUSH2 0x2500 PUSH1 0xE0 DUP7 ADD DUP3 PUSH1 0x1 PUSH1 0x1 PUSH1 0xA0 SHL SUB AND SWAP1 MSTORE JUMP JUMPDEST POP PUSH2 0x100 DUP1 DUP5 ADD MLOAD PUSH2 0x2514 DUP3 DUP8 ADD DUP3 PUSH2 0x2430 JUMP JUMPDEST POP POP PUSH2 0x120 DUP1 DUP5 ADD MLOAD DUP3 DUP3 DUP8 ADD MSTORE PUSH2 0x252E DUP4 DUP8 ADD DUP3 PUSH2 0x2452 JUMP JUMPDEST PUSH2 0x140 DUP7 DUP2 ADD MLOAD SWAP1 DUP9 ADD MSTORE PUSH2 0x160 DUP1 DUP8 ADD MLOAD SWAP1 DUP9 ADD MSTORE PUSH2 0x180 DUP1 DUP8 ADD MLOAD SWAP1 DUP9 ADD MSTORE PUSH2 0x1A0 DUP1 DUP8 ADD MLOAD SWAP1 DUP9 ADD MSTORE PUSH2 0x1C0 SWAP6 DUP7 ADD MLOAD SWAP6 SWAP1 SWAP7 ADD SWAP5 SWAP1 SWAP5 MSTORE POP SWAP3 SWAP4 SWAP3 POP POP POP JUMP JUMPDEST PUSH1 0x20 DUP2 MSTORE PUSH1 0x0 PUSH2 0x2585 PUSH1 0x20 DUP4 ADD DUP5 PUSH2 0x2498 JUMP JUMPDEST SWAP4 SWAP3 POP POP POP JUMP JUMPDEST DUP1 CALLDATALOAD PUSH4 0xFFFFFFFF DUP2 AND DUP2 EQ PUSH2 0x25A0 JUMPI PUSH1 0x0 DUP1 REVERT JUMPDEST SWAP2 SWAP1 POP JUMP JUMPDEST PUSH1 0x0 PUSH1 0x20 DUP3 DUP5 SUB SLT ISZERO PUSH2 0x25B7 JUMPI PUSH1 0x0 DUP1 REVERT JUMPDEST PUSH2 0x2585 DUP3 PUSH2 0x258C JUMP JUMPDEST PUSH1 0x0 PUSH1 0x40 DUP3 ADD DUP5 ISZERO ISZERO DUP4 MSTORE PUSH1 0x20 PUSH1 0x40 DUP2 DUP6 ADD MSTORE DUP2 DUP6 MLOAD DUP1 DUP5 MSTORE PUSH1 0x60 DUP7 ADD SWAP2 POP PUSH1 0x60 DUP2 PUSH1 0x5 SHL DUP8 ADD ADD SWAP4 POP DUP3 DUP8 ADD PUSH1 0x0 JUMPDEST DUP3 DUP2 LT ISZERO PUSH2 0x261E JUMPI PUSH1 0x5F NOT DUP9 DUP8 SUB ADD DUP5 MSTORE PUSH2 0x260C DUP7 DUP4 MLOAD PUSH2 0x2498 JUMP JUMPDEST SWAP6 POP SWAP3 DUP5 ADD SWAP3 SWAP1 DUP5 ADD SWAP1 PUSH1 0x1 ADD PUSH2 0x25F0 JUMP JUMPDEST POP SWAP4 SWAP9 SWAP8 POP POP POP POP POP POP POP POP JUMP JUMPDEST DUP1 CALLDATALOAD PUSH1 0x1 PUSH1 0x1 PUSH1 0xA0 SHL SUB DUP2 AND DUP2 EQ PUSH2 0x25A0 JUMPI PUSH1 0x0 DUP1 REVERT JUMPDEST PUSH1 0x0 DUP1 PUSH1 0x40 DUP4 DUP6 SUB SLT ISZERO PUSH2 0x2656 JUMPI PUSH1 0x0 DUP1 REVERT JUMPDEST PUSH2 0x265F DUP4 PUSH2 0x262C JUMP JUMPDEST SWAP5 PUSH1 0x20 SWAP4 SWAP1 SWAP4 ADD CALLDATALOAD SWAP4 POP POP POP JUMP JUMPDEST PUSH1 0x0 PUSH1 0x20 DUP3 DUP5 SUB SLT ISZERO PUSH2 0x267F JUMPI PUSH1 0x0 DUP1 REVERT JUMPDEST PUSH2 0x2585 DUP3 PUSH2 0x262C JUMP JUMPDEST PUSH1 0x0 DUP1 PUSH1 0x40 DUP4 DUP6 SUB SLT ISZERO PUSH2 0x269B JUMPI PUSH1 0x0 DUP1 REVERT JUMPDEST PUSH2 0x26A4 DUP4 PUSH2 0x258C JUMP JUMPDEST SWAP2 POP PUSH2 0x26B2 PUSH1 0x20 DUP5 ADD PUSH2 0x262C JUMP JUMPDEST SWAP1 POP SWAP3 POP SWAP3 SWAP1 POP JUMP JUMPDEST DUP7 DUP2 MSTORE PUSH1 0xC0 PUSH1 0x20 DUP3 ADD MSTORE PUSH1 0x0 PUSH2 0x26D4 PUSH1 0xC0 DUP4 ADD DUP9 PUSH2 0x2452 JUMP JUMPDEST DUP7 PUSH1 0x40 DUP5 ADD MSTORE DUP6 PUSH1 0x60 DUP5 ADD MSTORE DUP3 DUP2 SUB PUSH1 0x80 DUP5 ADD MSTORE PUSH2 0x26F2 DUP2 DUP7 PUSH2 0x2452 JUMP JUMPDEST SWAP2 POP POP DUP3 ISZERO ISZERO PUSH1 0xA0 DUP4 ADD MSTORE SWAP8 SWAP7 POP POP POP POP POP POP POP JUMP JUMPDEST PUSH1 0x0 DUP1 PUSH1 0x0 DUP1 PUSH1 0x0 DUP1 PUSH1 0xC0 DUP8 DUP10 SUB SLT ISZERO PUSH2 0x2721 JUMPI PUSH1 0x0 DUP1 REVERT JUMPDEST PUSH2 0x272A DUP8 PUSH2 0x262C JUMP JUMPDEST SWAP6 POP PUSH2 0x2738 PUSH1 0x20 DUP9 ADD PUSH2 0x262C JUMP JUMPDEST SWAP5 POP PUSH2 0x2746 PUSH1 0x40 DUP9 ADD PUSH2 0x262C JUMP JUMPDEST SWAP4 POP PUSH2 0x2754 PUSH1 0x60 DUP9 ADD PUSH2 0x262C JUMP JUMPDEST SWAP3 POP PUSH2 0x2762 PUSH1 0x80 DUP9 ADD PUSH2 0x262C JUMP JUMPDEST SWAP2 POP PUSH2 0x2770 PUSH1 0xA0 DUP9 ADD PUSH2 0x262C JUMP JUMPDEST SWAP1 POP SWAP3 SWAP6 POP SWAP3 SWAP6 POP SWAP3 SWAP6 JUMP JUMPDEST DUP1 ISZERO ISZERO DUP2 EQ PUSH2 0x1CBD JUMPI PUSH1 0x0 DUP1 REVERT JUMPDEST PUSH1 0x0 DUP1 PUSH1 0x0 DUP1 PUSH1 0x0 DUP1 PUSH1 0x0 PUSH1 0xC0 DUP9 DUP11 SUB SLT ISZERO PUSH2 0x27A5 JUMPI PUSH1 0x0 DUP1 REVERT JUMPDEST PUSH2 0x27AE DUP9 PUSH2 0x262C JUMP JUMPDEST SWAP7 POP PUSH1 0x20 DUP9 ADD CALLDATALOAD SWAP6 POP PUSH1 0x40 DUP9 ADD CALLDATALOAD SWAP5 POP PUSH1 0x60 DUP9 ADD CALLDATALOAD PUSH2 0x27CC DUP2 PUSH2 0x277C JUMP JUMPDEST SWAP4 POP PUSH1 0x80 DUP9 ADD CALLDATALOAD PUSH8 0xFFFFFFFFFFFFFFFF DUP2 GT ISZERO PUSH2 0x27E8 JUMPI PUSH1 0x0 DUP1 REVERT JUMPDEST PUSH2 0x27F4 DUP11 DUP3 DUP12 ADD PUSH2 0x2334 JUMP JUMPDEST SWAP1 SWAP5 POP SWAP3 POP PUSH2 0x2807 SWAP1 POP PUSH1 0xA0 DUP10 ADD PUSH2 0x262C JUMP JUMPDEST SWAP1 POP SWAP3 SWAP6 SWAP9 SWAP2 SWAP5 SWAP8 POP SWAP3 SWAP6 POP JUMP JUMPDEST PUSH1 0x20 DUP1 DUP3 MSTORE DUP3 MLOAD DUP3 DUP3 ADD DUP2 SWAP1 MSTORE PUSH1 0x0 SWAP2 SWAP1 DUP5 DUP3 ADD SWAP1 PUSH1 0x40 DUP6 ADD SWAP1 DUP5 JUMPDEST DUP2 DUP2 LT ISZERO PUSH2 0x23F5 JUMPI DUP4 MLOAD DUP4 MSTORE SWAP3 DUP5 ADD SWAP3 SWAP2 DUP5 ADD SWAP2 PUSH1 0x1 ADD PUSH2 0x2831 JUMP JUMPDEST PUSH4 0x4E487B71 PUSH1 0xE0 SHL PUSH1 0x0 MSTORE PUSH1 0x41 PUSH1 0x4 MSTORE PUSH1 0x24 PUSH1 0x0 REVERT JUMPDEST PUSH4 0x4E487B71 PUSH1 0xE0 SHL PUSH1 0x0 MSTORE PUSH1 0x32 PUSH1 0x4 MSTORE PUSH1 0x24 PUSH1 0x0 REVERT JUMPDEST PUSH1 0x0 DUP1 DUP4 CALLDATALOAD PUSH1 0x1E NOT DUP5 CALLDATASIZE SUB ADD DUP2 SLT PUSH2 0x2890 JUMPI PUSH1 0x0 DUP1 REVERT JUMPDEST DUP4 ADD DUP1 CALLDATALOAD SWAP2 POP PUSH8 0xFFFFFFFFFFFFFFFF DUP3 GT ISZERO PUSH2 0x28AB JUMPI PUSH1 0x0 DUP1 REVERT JUMPDEST PUSH1 0x20 ADD SWAP2 POP CALLDATASIZE DUP2 SWAP1 SUB DUP3 SGT ISZERO PUSH2 0x1671 JUMPI PUSH1 0x0 DUP1 REVERT JUMPDEST DUP2 DUP4 DUP3 CALLDATACOPY PUSH1 0x0 SWAP2 ADD SWAP1 DUP2 MSTORE SWAP2 SWAP1 POP JUMP JUMPDEST PUSH4 0x4E487B71 PUSH1 0xE0 SHL PUSH1 0x0 MSTORE PUSH1 0x11 PUSH1 0x4 MSTORE PUSH1 0x24 PUSH1 0x0 REVERT JUMPDEST PUSH1 0x0 PUSH1 0xFF DUP3 AND PUSH1 0xFF DUP2 SUB PUSH2 0x28FC JUMPI PUSH2 0x28FC PUSH2 0x28D0 JUMP JUMPDEST PUSH1 0x1 ADD SWAP3 SWAP2 POP POP JUMP JUMPDEST PUSH1 0x1 DUP2 DUP2 SHR SWAP1 DUP3 AND DUP1 PUSH2 0x2919 JUMPI PUSH1 0x7F DUP3 AND SWAP2 POP JUMPDEST PUSH1 0x20 DUP3 LT DUP2 SUB PUSH2 0x2939 JUMPI PUSH4 0x4E487B71 PUSH1 0xE0 SHL PUSH1 0x0 MSTORE PUSH1 0x22 PUSH1 0x4 MSTORE PUSH1 0x24 PUSH1 0x0 REVERT JUMPDEST POP SWAP2 SWAP1 POP JUMP JUMPDEST PUSH1 0x0 PUSH1 0x20 DUP3 DUP5 SUB SLT ISZERO PUSH2 0x2951 JUMPI PUSH1 0x0 DUP1 REVERT JUMPDEST POP MLOAD SWAP2 SWAP1 POP JUMP JUMPDEST DUP1 DUP3 ADD DUP1 DUP3 GT ISZERO PUSH2 0x600 JUMPI PUSH2 0x600 PUSH2 0x28D0 JUMP JUMPDEST PUSH4 0xFFFFFFFF DUP2 DUP2 AND DUP4 DUP3 AND MUL DUP1 DUP3 AND SWAP2 SWAP1 DUP3 DUP2 EQ PUSH2 0x298B JUMPI PUSH2 0x298B PUSH2 0x28D0 JUMP JUMPDEST POP POP SWAP3 SWAP2 POP POP JUMP JUMPDEST PUSH4 0xFFFFFFFF DUP3 DUP2 AND DUP3 DUP3 AND SUB SWAP1 DUP1 DUP3 GT ISZERO PUSH2 0x29B0 JUMPI PUSH2 0x29B0 PUSH2 0x28D0 JUMP JUMPDEST POP SWAP3 SWAP2 POP POP JUMP JUMPDEST PUSH1 0x0 PUSH1 0x1 DUP3 ADD PUSH2 0x29C9 JUMPI PUSH2 0x29C9 PUSH2 0x28D0 JUMP JUMPDEST POP PUSH1 0x1 ADD SWAP1 JUMP JUMPDEST DUP2 DUP2 SUB DUP2 DUP2 GT ISZERO PUSH2 0x600 JUMPI PUSH2 0x600 PUSH2 0x28D0 JUMP JUMPDEST PUSH1 0x0 DUP3 PUSH2 0x2A00 JUMPI PUSH4 0x4E487B71 PUSH1 0xE0 SHL PUSH1 0x0 MSTORE PUSH1 0x12 PUSH1 0x4 MSTORE PUSH1 0x24 PUSH1 0x0 REVERT JUMPDEST POP DIV SWAP1 JUMP JUMPDEST DUP1 DUP3 MUL DUP2 ISZERO DUP3 DUP3 DIV DUP5 EQ OR PUSH2 0x600 JUMPI PUSH2 0x600 PUSH2 0x28D0 JUMP JUMPDEST PUSH1 0x0 PUSH2 0xFFFF DUP1 DUP4 AND DUP2 DUP2 SUB PUSH2 0x2A33 JUMPI PUSH2 0x2A33 PUSH2 0x28D0 JUMP JUMPDEST PUSH1 0x1 ADD SWAP4 SWAP3 POP POP POP JUMP JUMPDEST PUSH1 0x1F DUP3 GT ISZERO PUSH2 0x2A87 JUMPI PUSH1 0x0 DUP2 DUP2 MSTORE PUSH1 0x20 DUP2 KECCAK256 PUSH1 0x1F DUP6 ADD PUSH1 0x5 SHR DUP2 ADD PUSH1 0x20 DUP7 LT ISZERO PUSH2 0x2A64 JUMPI POP DUP1 JUMPDEST PUSH1 0x1F DUP6 ADD PUSH1 0x5 SHR DUP3 ADD SWAP2 POP JUMPDEST DUP2 DUP2 LT ISZERO PUSH2 0x2A83 JUMPI DUP3 DUP2 SSTORE PUSH1 0x1 ADD PUSH2 0x2A70 JUMP JUMPDEST POP POP POP JUMPDEST POP POP POP JUMP JUMPDEST DUP2 MLOAD PUSH8 0xFFFFFFFFFFFFFFFF DUP2 GT ISZERO PUSH2 0x2AA6 JUMPI PUSH2 0x2AA6 PUSH2 0x284D JUMP JUMPDEST PUSH2 0x2ABA DUP2 PUSH2 0x2AB4 DUP5 SLOAD PUSH2 0x2905 JUMP JUMPDEST DUP5 PUSH2 0x2A3D JUMP JUMPDEST PUSH1 0x20 DUP1 PUSH1 0x1F DUP4 GT PUSH1 0x1 DUP2 EQ PUSH2 0x2AEF JUMPI PUSH1 0x0 DUP5 ISZERO PUSH2 0x2AD7 JUMPI POP DUP6 DUP4 ADD MLOAD JUMPDEST PUSH1 0x0 NOT PUSH1 0x3 DUP7 SWAP1 SHL SHR NOT AND PUSH1 0x1 DUP6 SWAP1 SHL OR DUP6 SSTORE PUSH2 0x2A83 JUMP JUMPDEST PUSH1 0x0 DUP6 DUP2 MSTORE PUSH1 0x20 DUP2 KECCAK256 PUSH1 0x1F NOT DUP7 AND SWAP2 JUMPDEST DUP3 DUP2 LT ISZERO PUSH2 0x2B1E JUMPI DUP9 DUP7 ADD MLOAD DUP3 SSTORE SWAP5 DUP5 ADD SWAP5 PUSH1 0x1 SWAP1 SWAP2 ADD SWAP1 DUP5 ADD PUSH2 0x2AFF JUMP JUMPDEST POP DUP6 DUP3 LT ISZERO PUSH2 0x2B3C JUMPI DUP8 DUP6 ADD MLOAD PUSH1 0x0 NOT PUSH1 0x3 DUP9 SWAP1 SHL PUSH1 0xF8 AND SHR NOT AND DUP2 SSTORE JUMPDEST POP POP POP POP POP PUSH1 0x1 SWAP1 DUP2 SHL ADD SWAP1 SSTORE POP JUMP JUMPDEST PUSH1 0x0 DUP2 SLOAD PUSH2 0x2B59 DUP2 PUSH2 0x2905 JUMP JUMPDEST DUP1 DUP6 MSTORE PUSH1 0x20 PUSH1 0x1 DUP4 DUP2 AND DUP1 ISZERO PUSH2 0x2B76 JUMPI PUSH1 0x1 DUP2 EQ PUSH2 0x2B90 JUMPI PUSH2 0x2BBE JUMP JUMPDEST PUSH1 0xFF NOT DUP6 AND DUP9 DUP5 ADD MSTORE DUP4 ISZERO ISZERO PUSH1 0x5 SHL DUP9 ADD DUP4 ADD SWAP6 POP PUSH2 0x2BBE JUMP JUMPDEST DUP7 PUSH1 0x0 MSTORE DUP3 PUSH1 0x0 KECCAK256 PUSH1 0x0 JUMPDEST DUP6 DUP2 LT ISZERO PUSH2 0x2BB6 JUMPI DUP2 SLOAD DUP11 DUP3 ADD DUP7 ADD MSTORE SWAP1 DUP4 ADD SWAP1 DUP5 ADD PUSH2 0x2B9B JUMP JUMPDEST DUP10 ADD DUP5 ADD SWAP7 POP POP JUMPDEST POP POP POP POP POP SWAP3 SWAP2 POP POP JUMP JUMPDEST PUSH1 0x20 DUP2 MSTORE PUSH2 0x2BF2 PUSH1 0x20 DUP3 ADD PUSH2 0x2BE5 DUP5 SLOAD PUSH1 0x1 PUSH1 0x1 PUSH1 0xA0 SHL SUB AND SWAP1 JUMP JUMPDEST PUSH1 0x1 PUSH1 0x1 PUSH1 0xA0 SHL SUB AND SWAP1 MSTORE JUMP JUMPDEST PUSH1 0x1 DUP3 ADD SLOAD PUSH1 0x40 DUP3 ADD MSTORE PUSH1 0x2 DUP3 ADD SLOAD PUSH1 0x60 DUP3 ADD MSTORE PUSH1 0x3 DUP3 ADD SLOAD PUSH1 0x80 DUP3 ADD MSTORE PUSH1 0x4 DUP3 ADD SLOAD PUSH1 0xA0 DUP3 ADD MSTORE PUSH1 0x5 DUP3 ADD SLOAD PUSH1 0xC0 DUP3 ADD MSTORE PUSH1 0x6 DUP3 ADD SLOAD PUSH1 0xE0 DUP3 ADD MSTORE PUSH1 0x7 DUP3 ADD SLOAD PUSH1 0x1 PUSH1 0x1 PUSH1 0xA0 SHL SUB DUP2 AND PUSH2 0x100 DUP4 ADD MSTORE PUSH1 0x0 SWAP1 PUSH2 0x2C5A PUSH2 0x120 DUP5 ADD PUSH1 0xFF DUP4 PUSH1 0xA0 SHR AND PUSH2 0x2430 JUMP JUMPDEST POP PUSH2 0x1E0 DUP1 PUSH2 0x140 DUP5 ADD MSTORE PUSH2 0x2C76 PUSH2 0x200 DUP5 ADD PUSH1 0x8 DUP7 ADD PUSH2 0x2B4C JUMP JUMPDEST PUSH1 0x9 DUP6 ADD SLOAD PUSH2 0x160 DUP6 ADD MSTORE PUSH1 0xA DUP6 ADD SLOAD PUSH2 0x180 DUP6 ADD MSTORE PUSH1 0xB DUP6 ADD SLOAD PUSH2 0x1A0 DUP6 ADD MSTORE PUSH1 0xC DUP6 ADD SLOAD PUSH2 0x1C0 DUP6 ADD MSTORE PUSH1 0xD SWAP1 SWAP5 ADD SLOAD SWAP3 ADD SWAP2 SWAP1 SWAP2 MSTORE POP SWAP1 JUMP JUMPDEST PUSH1 0x0 PUSH1 0x20 DUP3 DUP5 SUB SLT ISZERO PUSH2 0x2CC4 JUMPI PUSH1 0x0 DUP1 REVERT JUMPDEST DUP2 MLOAD PUSH2 0x2585 DUP2 PUSH2 0x277C JUMP JUMPDEST PUSH1 0x20 DUP1 DUP3 MSTORE PUSH1 0x2B SWAP1 DUP3 ADD MSTORE PUSH32 0x496E697469616C697A61626C653A20636F6E7472616374206973206E6F742069 PUSH1 0x40 DUP3 ADD MSTORE PUSH11 0x6E697469616C697A696E67 PUSH1 0xA8 SHL PUSH1 0x60 DUP3 ADD MSTORE PUSH1 0x80 ADD SWAP1 JUMP INVALID LOG2 PUSH5 0x6970667358 0x22 SLT KECCAK256 0xD8 DUP16 0xC9 PUSH3 0xD5D79C DUP12 PREVRANDAO PUSH26 0x2E10C6D622E420AB579E7FFA8165A0108B81C012115B64736F6C PUSH4 0x43000813 STOP CALLER "
				},
				"gasEstimates": {
					"creation": {
						"codeDepositCost": "2320000",
						"executionCost": "infinite",
						"totalCost": "infinite"
					},
					"external": {
						"BlockManyCode(string[])": "infinite",
						"CalculateCurrentRateBoost()": "infinite",
						"GenerateCode(address,uint256,uint256,bool,bytes32[],address)": "infinite",
						"GetMyCode(uint32)": "infinite",
						"GetTotalMyCode()": "infinite",
						"GetUserCode(uint32,address)": "infinite",
						"KCodePrice()": "2374",
						"KGenerateCode(address,bytes32)": "infinite",
						"SetCloudMiningThreshold(uint256)": "24533",
						"SetMasterPool(address)": "26803",
						"SetNFT(address)": "26845",
						"SetProduct(address)": "26824",
						"SetUsdt(address)": "26846",
						"UnblockManyCode(string[])": "infinite",
						"boostSpeedDecimal()": "2374",
						"codePool()": "2383",
						"deployedDate()": "2331",
						"getCodeInfoSmC(bytes32)": "infinite",
						"initialize(address,address,address,address,address,address)": "infinite",
						"kventure()": "2448",
						"mIdToPro(uint256)": "infinite",
						"mValidMiningTime(uint256)": "2494",
						"masterPool()": "2404",
						"nft()": "2449",
						"owner()": "2420",
						"product()": "2426",
						"rateBoost()": "2352",
						"renounceOwnership()": "infinite",
						"returnRIP()": "2382",
						"transferOwnership(address)": "28402",
						"usdt()": "2428",
						"usdtDecimal()": "2330"
					},
					"internal": {
						"_generateCode(address,bytes32,bool,uint256,uint256,address)": "infinite",
						"_initializeConfig()": "24306",
						"_isBlock(bool)": "53"
					}
				},
				"methodIdentifiers": {
					"BlockManyCode(string[])": "31ae322f",
					"CalculateCurrentRateBoost()": "8c4a876d",
					"GenerateCode(address,uint256,uint256,bool,bytes32[],address)": "ee590788",
					"GetMyCode(uint32)": "78f25aee",
					"GetTotalMyCode()": "8fe39efd",
					"GetUserCode(uint32,address)": "b7182530",
					"KCodePrice()": "435a3e50",
					"KGenerateCode(address,bytes32)": "a429a513",
					"SetCloudMiningThreshold(uint256)": "b935948a",
					"SetMasterPool(address)": "a559934e",
					"SetNFT(address)": "f8525b93",
					"SetProduct(address)": "dc30cbb4",
					"SetUsdt(address)": "ddcd6408",
					"UnblockManyCode(string[])": "f4b7f343",
					"boostSpeedDecimal()": "b22a9f9a",
					"codePool()": "486f6afe",
					"deployedDate()": "076d5556",
					"getCodeInfoSmC(bytes32)": "61b26f27",
					"initialize(address,address,address,address,address,address)": "cc2a9a5b",
					"kventure()": "c01c36d0",
					"mIdToPro(uint256)": "cb286f19",
					"mValidMiningTime(uint256)": "bc65fee5",
					"masterPool()": "8c7ab1d7",
					"nft()": "47ccca02",
					"owner()": "8da5cb5b",
					"product()": "bf9ce952",
					"rateBoost()": "395348dc",
					"renounceOwnership()": "715018a6",
					"returnRIP()": "11f1374a",
					"transferOwnership(address)": "f2fde38b",
					"usdt()": "2f48ab7d",
					"usdtDecimal()": "362efc3d"
				}
			},
			"storageLayout": {
				"storage": [
					{
						"astId": 138,
						"contract": "GenerateCode.sol:KventureCode",
						"label": "_initialized",
						"offset": 0,
						"slot": "0",
						"type": "t_uint8"
					},
					{
						"astId": 141,
						"contract": "GenerateCode.sol:KventureCode",
						"label": "_initializing",
						"offset": 1,
						"slot": "0",
						"type": "t_bool"
					},
					{
						"astId": 671,
						"contract": "GenerateCode.sol:KventureCode",
						"label": "__gap",
						"offset": 0,
						"slot": "1",
						"type": "t_array(t_uint256)50_storage"
					},
					{
						"astId": 10,
						"contract": "GenerateCode.sol:KventureCode",
						"label": "_owner",
						"offset": 0,
						"slot": "51",
						"type": "t_address"
					},
					{
						"astId": 130,
						"contract": "GenerateCode.sol:KventureCode",
						"label": "__gap",
						"offset": 0,
						"slot": "52",
						"type": "t_array(t_uint256)49_storage"
					},
					{
						"astId": 1006,
						"contract": "GenerateCode.sol:KventureCode",
						"label": "rateBoost",
						"offset": 0,
						"slot": "101",
						"type": "t_uint256"
					},
					{
						"astId": 1011,
						"contract": "GenerateCode.sol:KventureCode",
						"label": "usdtDecimal",
						"offset": 0,
						"slot": "102",
						"type": "t_uint256"
					},
					{
						"astId": 1016,
						"contract": "GenerateCode.sol:KventureCode",
						"label": "boostSpeedDecimal",
						"offset": 0,
						"slot": "103",
						"type": "t_uint256"
					},
					{
						"astId": 1021,
						"contract": "GenerateCode.sol:KventureCode",
						"label": "KCodePrice",
						"offset": 0,
						"slot": "104",
						"type": "t_uint256"
					},
					{
						"astId": 1024,
						"contract": "GenerateCode.sol:KventureCode",
						"label": "returnRIP",
						"offset": 0,
						"slot": "105",
						"type": "t_uint32"
					},
					{
						"astId": 1029,
						"contract": "GenerateCode.sol:KventureCode",
						"label": "mPackageInfo",
						"offset": 0,
						"slot": "106",
						"type": "t_mapping(t_bytes32,t_struct(PackageInfo)784_storage)"
					},
					{
						"astId": 1033,
						"contract": "GenerateCode.sol:KventureCode",
						"label": "mValidMiningTime",
						"offset": 0,
						"slot": "107",
						"type": "t_mapping(t_uint256,t_uint256)"
					},
					{
						"astId": 1035,
						"contract": "GenerateCode.sol:KventureCode",
						"label": "cloudMiningThreshold",
						"offset": 0,
						"slot": "108",
						"type": "t_uint256"
					},
					{
						"astId": 1037,
						"contract": "GenerateCode.sol:KventureCode",
						"label": "deployedDate",
						"offset": 0,
						"slot": "109",
						"type": "t_uint256"
					},
					{
						"astId": 1039,
						"contract": "GenerateCode.sol:KventureCode",
						"label": "usdt",
						"offset": 0,
						"slot": "110",
						"type": "t_address"
					},
					{
						"astId": 1042,
						"contract": "GenerateCode.sol:KventureCode",
						"label": "codePool",
						"offset": 0,
						"slot": "111",
						"type": "t_contract(ICodePool)995"
					},
					{
						"astId": 1044,
						"contract": "GenerateCode.sol:KventureCode",
						"label": "masterPool",
						"offset": 0,
						"slot": "112",
						"type": "t_address"
					},
					{
						"astId": 1046,
						"contract": "GenerateCode.sol:KventureCode",
						"label": "nft",
						"offset": 0,
						"slot": "113",
						"type": "t_address"
					},
					{
						"astId": 1048,
						"contract": "GenerateCode.sol:KventureCode",
						"label": "kventure",
						"offset": 0,
						"slot": "114",
						"type": "t_address"
					},
					{
						"astId": 1050,
						"contract": "GenerateCode.sol:KventureCode",
						"label": "product",
						"offset": 0,
						"slot": "115",
						"type": "t_address"
					},
					{
						"astId": 1055,
						"contract": "GenerateCode.sol:KventureCode",
						"label": "mIdToPro",
						"offset": 0,
						"slot": "116",
						"type": "t_mapping(t_uint256,t_struct(Product)802_storage)"
					}
				],
				"types": {
					"t_address": {
						"encoding": "inplace",
						"label": "address",
						"numberOfBytes": "20"
					},
					"t_array(t_uint256)49_storage": {
						"base": "t_uint256",
						"encoding": "inplace",
						"label": "uint256[49]",
						"numberOfBytes": "1568"
					},
					"t_array(t_uint256)50_storage": {
						"base": "t_uint256",
						"encoding": "inplace",
						"label": "uint256[50]",
						"numberOfBytes": "1600"
					},
					"t_bool": {
						"encoding": "inplace",
						"label": "bool",
						"numberOfBytes": "1"
					},
					"t_bytes32": {
						"encoding": "inplace",
						"label": "bytes32",
						"numberOfBytes": "32"
					},
					"t_bytes_storage": {
						"encoding": "bytes",
						"label": "bytes",
						"numberOfBytes": "32"
					},
					"t_contract(ICodePool)995": {
						"encoding": "inplace",
						"label": "contract ICodePool",
						"numberOfBytes": "20"
					},
					"t_enum(PackageStatus)789": {
						"encoding": "inplace",
						"label": "enum PackageStatus",
						"numberOfBytes": "1"
					},
					"t_mapping(t_bytes32,t_struct(PackageInfo)784_storage)": {
						"encoding": "mapping",
						"key": "t_bytes32",
						"label": "mapping(bytes32 => struct PackageInfo)",
						"numberOfBytes": "32",
						"value": "t_struct(PackageInfo)784_storage"
					},
					"t_mapping(t_uint256,t_struct(Product)802_storage)": {
						"encoding": "mapping",
						"key": "t_uint256",
						"label": "mapping(uint256 => struct PackageInfoStruct.Product)",
						"numberOfBytes": "32",
						"value": "t_struct(Product)802_storage"
					},
					"t_mapping(t_uint256,t_uint256)": {
						"encoding": "mapping",
						"key": "t_uint256",
						"label": "mapping(uint256 => uint256)",
						"numberOfBytes": "32",
						"value": "t_uint256"
					},
					"t_string_storage": {
						"encoding": "bytes",
						"label": "string",
						"numberOfBytes": "32"
					},
					"t_struct(PackageInfo)784_storage": {
						"encoding": "inplace",
						"label": "struct PackageInfo",
						"members": [
							{
								"astId": 754,
								"contract": "GenerateCode.sol:KventureCode",
								"label": "owner",
								"offset": 0,
								"slot": "0",
								"type": "t_address"
							},
							{
								"astId": 756,
								"contract": "GenerateCode.sol:KventureCode",
								"label": "codeHash",
								"offset": 0,
								"slot": "1",
								"type": "t_bytes32"
							},
							{
								"astId": 758,
								"contract": "GenerateCode.sol:KventureCode",
								"label": "activeTime",
								"offset": 0,
								"slot": "2",
								"type": "t_uint256"
							},
							{
								"astId": 760,
								"contract": "GenerateCode.sol:KventureCode",
								"label": "expirationActiveTime",
								"offset": 0,
								"slot": "3",
								"type": "t_uint256"
							},
							{
								"astId": 762,
								"contract": "GenerateCode.sol:KventureCode",
								"label": "boostSpeed",
								"offset": 0,
								"slot": "4",
								"type": "t_uint256"
							},
							{
								"astId": 764,
								"contract": "GenerateCode.sol:KventureCode",
								"label": "boostTime",
								"offset": 0,
								"slot": "5",
								"type": "t_uint256"
							},
							{
								"astId": 766,
								"contract": "GenerateCode.sol:KventureCode",
								"label": "rateBoost",
								"offset": 0,
								"slot": "6",
								"type": "t_uint256"
							},
							{
								"astId": 768,
								"contract": "GenerateCode.sol:KventureCode",
								"label": "delegate",
								"offset": 0,
								"slot": "7",
								"type": "t_address"
							},
							{
								"astId": 771,
								"contract": "GenerateCode.sol:KventureCode",
								"label": "status",
								"offset": 20,
								"slot": "7",
								"type": "t_enum(PackageStatus)789"
							},
							{
								"astId": 773,
								"contract": "GenerateCode.sol:KventureCode",
								"label": "origin",
								"offset": 0,
								"slot": "8",
								"type": "t_string_storage"
							},
							{
								"astId": 775,
								"contract": "GenerateCode.sol:KventureCode",
								"label": "mintedAmount",
								"offset": 0,
								"slot": "9",
								"type": "t_uint256"
							},
							{
								"astId": 777,
								"contract": "GenerateCode.sol:KventureCode",
								"label": "releasePercentage",
								"offset": 0,
								"slot": "10",
								"type": "t_uint256"
							},
							{
								"astId": 779,
								"contract": "GenerateCode.sol:KventureCode",
								"label": "lockTime",
								"offset": 0,
								"slot": "11",
								"type": "t_uint256"
							},
							{
								"astId": 781,
								"contract": "GenerateCode.sol:KventureCode",
								"label": "keyHash",
								"offset": 0,
								"slot": "12",
								"type": "t_bytes32"
							},
							{
								"astId": 783,
								"contract": "GenerateCode.sol:KventureCode",
								"label": "currentDeposit",
								"offset": 0,
								"slot": "13",
								"type": "t_uint256"
							}
						],
						"numberOfBytes": "448"
					},
					"t_struct(Product)802_storage": {
						"encoding": "inplace",
						"label": "struct PackageInfoStruct.Product",
						"members": [
							{
								"astId": 791,
								"contract": "GenerateCode.sol:KventureCode",
								"label": "id",
								"offset": 0,
								"slot": "0",
								"type": "t_bytes32"
							},
							{
								"astId": 793,
								"contract": "GenerateCode.sol:KventureCode",
								"label": "imgUrl",
								"offset": 0,
								"slot": "1",
								"type": "t_bytes_storage"
							},
							{
								"astId": 795,
								"contract": "GenerateCode.sol:KventureCode",
								"label": "memberPrice",
								"offset": 0,
								"slot": "2",
								"type": "t_uint256"
							},
							{
								"astId": 797,
								"contract": "GenerateCode.sol:KventureCode",
								"label": "retailPrice",
								"offset": 0,
								"slot": "3",
								"type": "t_uint256"
							},
							{
								"astId": 799,
								"contract": "GenerateCode.sol:KventureCode",
								"label": "desc",
								"offset": 0,
								"slot": "4",
								"type": "t_bytes_storage"
							},
							{
								"astId": 801,
								"contract": "GenerateCode.sol:KventureCode",
								"label": "active",
								"offset": 0,
								"slot": "5",
								"type": "t_bool"
							}
						],
						"numberOfBytes": "192"
					},
					"t_uint256": {
						"encoding": "inplace",
						"label": "uint256",
						"numberOfBytes": "32"
					},
					"t_uint32": {
						"encoding": "inplace",
						"label": "uint32",
						"numberOfBytes": "4"
					},
					"t_uint8": {
						"encoding": "inplace",
						"label": "uint8",
						"numberOfBytes": "1"
					}
				}
			},
			"userdoc": {
				"kind": "user",
				"methods": {},
				"version": 1
			}
		}
	}
}